:020000040000FA
:10600000B8140020D5600000DD600000DF600000F3
:106010000000000000000000000000000000000080
:10602000000000000000000000000000E16000002F
:106030000000000000000000E3600000E5600000D8
:1060400000000000E7600000000000000000000009
:10605000E7600000E7600000796B0000A56B0000BE
:10606000016B0000296B0000516B0000E76000002D
:106070002568000000000000000000000000000093
:106080000000000000000000000000000000000010
:106090000000000000000000000000000000000000
:1060A00000000000000000000000000000000000F0
:1060B00000000000000000000000000000000000E0
:1060C0000348854600F008FB004800475176000071
:1060D000B81400200448804704480047FEE7FEE764
:1060E000FEE7FEE7FEE7FEE7F16A0000C1600000A0
:1060F000024670B54A40D30FDB0740002DD04A005E
:106100002AD0010E140E000212020919400A520A86
:106110008418E50104465443000A120A2E04504331
:10612000A4194219200CC543AA18120C0125AD036D
:10613000521C521912047F39240400D0521C1043FF
:1061400001D44000491EC2B20C06C0092018401CF0
:106150004008802A02D003E0002070BD40084000C3
:10616000002900DA0020184370BD70B502464A408D
:10617000D50F40004A00ED0740085208002814D00F
:10618000002A12D0C40DD30D41020120C0055202D5
:10619000490A520AE41A091812187D34914201D3AF
:1061A000641C00E04900002C01DA002070BD0023CF
:1061B000914201D3891A0343400849000028F7D1CE
:1061C00000290AD0914202D10121C90705E091427C
:1061D00001D2012101E00121C943E005C0184019A5
:1061E00000F072F870BD420005D04200120E52421B
:1061F0008A4201DB00207047C90508187047C217A2
:10620000C10F504010B54018CA079623002100F076
:1062100063F810BDC20FD207400040080BD0C10D7B
:106220000723DB01C91840020905400A1143C208CF
:1062300040071143704700200146704730B50B46B8
:10624000014600202022012409E00D46D5409D4250
:1062500005D31D469540491B2546954040191546D6
:10626000521E002DF1DC30BDF0B51FB406460020F3
:1062700082B005464024019100901BE0019922461E
:106280000F46304600F04AFA049A059B801A99415D
:1062900010D310461946224600F030FA361A8F41C4
:1062A0000197224601200021009F00F027FA3818AC
:1062B0004D4100902046641E0028DFDC019B0098C1
:1062C0002946324607B0F0BD002904DA401C4900D7
:1062D00001D140084000704770B40024050C05D17E
:1062E0001024000402D1002921D01124050E01D16F
:1062F00000020834050F01D10001241D850F01D1D2
:106300008000A41C002801DB4000641C002908D088
:1063100020252E1B0D46F540A14000D00121294328
:10632000084301061B1B000ADB1D02D5002070BCC0
:106330007047DB05181880180029F8DA401C49005E
:10634000F5D170BC4008400070470000F0B507462A
:106350000846584087B0C00F049048000E465900C8
:1063600040084908BC1A884105D2384631461E46C5
:1063700017460B4602465800400810434CD0300DDB
:10638000039040055900400D490D0590401A0290B8
:10639000402872DA18030121000B09050843019017
:1063A00004980092002805D00199524200208841AB
:1063B00000920190029840210A1A0199009800F079
:1063C0009DF905460C466B4607CB00F0B8F9C0199D
:1063D0007141039A0E0D0023D71756401A467A4092
:1063E000164344D0049A002A2DD0029A012A039A17
:1063F00015DC1205C01A914101263605001C7141B9
:10640000D20F059ED2070093019202962A46234698
:1064100000F0B5F907B0F0BD38463146FAE7160589
:10642000224A0F46B218C01AB74101210905001CC3
:106430004F4100187F41114618187941E20F10436F
:106440006D19644113E0E2076D0815436408C20743
:106450001443039A01261205C01A91413605001C07
:106460007141CE07400830434908C01851412A46BF
:10647000234600F077F9CDE7FFE7049801224000BA
:10648000C117121A00238B4104983146C417381AD9
:10649000A141EEE730B40124E407634030BC55E786
:1064A00030B40124E407614030BC4FE70000E0FF56
:1064B000F0B51FB488B00B99099800244840099999
:1064C000C00F490049080991C0070B990090490085
:1064D00049080B9109990898A64608431CD00B99C6
:1064E0000A98084318D0099801244000420D48003A
:1064F000410D099824050003000B204309900B98D7
:106500000003000B20430B9050181C494018002238
:1065100001901446104605E0002001460DB0F0BD84
:10652000032801DA034600E003239C46C11A0AAEA1
:106530000AE05F0008ADED5B4F00F75B7D4300278D
:10654000AA187C41491C5B1E6145F2DD410004AB89
:106550005A522104120C0A43240C401C0828DFDB89
:10656000019802900099704601910090059B049A51
:106570000799069800F003F9D0E700000DFCFFFF33
:10658000F0B50C465C4085B0E40FE40703944C0082
:1065900000266408590094464908024602962243A0
:1065A00021D062460A431ED06200570D4A000E03F6
:1065B0002303550D012402462C492405781B1B0B8F
:1065C000360B401823432643614600901C46501A60
:1065D000B44103D30098401C009002E09218009848
:1065E0005B41002803DA0020014605B0F0BD002021
:1065F000012109050746864611E064461D46141B25
:10660000B54106D36546521BB341744607430C435C
:10661000A646CD0740084908284392185B41054625
:106620000D43EAD11046184313D060461946504036
:106630007140084306D06046101AB34106D20122C9
:10664000002306E000220123DB0702E00122D243FF
:106650005310009874460105381C6141029C039D4B
:106660000019694100F07EF8BFE70000FD0300005B
:106670004A0009030123090B1B0519430A4B10B5F6
:10668000520D9A4202DA0020014610BD064B343307
:106690009A4203DC9A1A00F041F810BD034BD2185D
:1066A00000F02CF810BD0000FF030000CDFBFFFF41
:1066B00010B5002904DB0124E40740428C41214647
:1066C000002B04DB1C460123DB075242A341994205
:1066D00000D1904210BD0000064C0125064E05E099
:1066E000E36807CC2B430C3C98471034B442F7D3F3
:1066F000FFF7EAFC8C790000AC79000010B5202A85
:1067000004DB0146203A9140002010BD9140202337
:106710009C1A0346E3401943904010BD10B5202A4F
:1067200004DB0846203AD040002110BD0B46D34080
:10673000D0402024A21A91400843194610BD10B53C
:10674000202A06DBCB170846203A1041C1170B431D
:1067500006E00B461341D0402024A21A9140084382
:10676000194610BD10B5002B08DA0024401C614109
:1067700092185B411A4301D14008400010BDF0B5AA
:106780001FB482B005460C0003D0084600F032FA70
:1067900002E000F02FFA2030024600902146284601
:1067A000FFF7ACFF049B059A04460F4618431143BC
:1067B000084314D0184610431BD0009840210A1AF1
:1067C00018460599FFF7AAFF05460E46009A059957
:1067D0000498FFF793FF084305D0012004E020460A
:1067E000394607B0F0BD0020C11705430E432C43C6
:1067F000374300990E986305401A7905E40A002290
:106800000C43FD0A0A3002D500200146E9E70105E4
:10681000101969410C9C0D9D00196941FFF7A2FFF9
:10682000DFE7000010B51C4C1820E36819180A783F
:1068300010464A78120210438A78C978120410432D
:106840000906084310215A181378194653781B0279
:1068500019439378D2781B041943120611438843D5
:1068600018D02069002800D08047E16818200A1855
:106870001378184653781B0218439378D2781B0478
:106880001843120610430870020A4A70020C8A70FC
:10689000000EC87010BD00000010002010B50B499C
:1068A0004A68147821465478240221439478D37896
:1068B000240421431B06194381431170080A5070B8
:1068C000080C9070080ED07010BD00000010002061
:1068D000094989680A461378194653781B021943F7
:1068E0009378D2781B04194312061143014201D058
:1068F00001207047002070470010002010B50B49A0
:106900004A68147821465478240221439478D37835
:10691000240421431B06194301431170080A5070D7
:10692000080C9070080ED07010BD00000010002000
:10693000F0B500230124204230D0D9088E003E4912
:10694000096872181778394657783F0239439778A3
:10695000D5783F0439432D0629435D07EF0E0F25F7
:10696000BD40A94311700D0A55700D0C9570090EAC
:10697000D170314909687218167831465678360256
:1069800031439678D578360431432D06294311706A
:106990000D0A55700D0C9570090ED170012164001F
:1069A00009075B1C8C42C6D123490A681021134693
:1069B000144640335A181578294655782D02294334
:1069C0009578D2782D042943120611430143197496
:1069D0000D0A5D740D0C9D74090ED9742546203581
:1069E00014216A181478214654782402214394789B
:1069F000D2782404214312061143014329750C0A5D
:106A00006C750C0CAC75090EE9750C215A181478CC
:106A100021465478240221439478D27824042143D7
:106A20001206114381431973080A5873080C9873AE
:106A3000080ED873F0BD000000100020F0B58446A9
:106A40002A4800230268102140325418257819463C
:106A5000294365782D022943A578E4782D0429433C
:106A6000240621436446A14311740C0A54740C0C8F
:106A70009474090ED1740124614621422ED0D908A4
:106A80008F0001687E183578294675782D022943D4
:106A9000B578F2782D042943120611435A07D50E12
:106AA0000F22AA40914331700A0A72700A0CB27028
:106AB000090EF17001687A18167831465678360258
:106AC00031439678D578360431432D062943117029
:106AD0000D0A55700D0C9570090ED17001216400DE
:106AE00009075B1C8C42C7D1F0BD000000100020DC
:106AF00002490148086070470024F4002810002073
:106B000007480068C178C90708D0417801221143BD
:106B1000417004480068002800D00047704700001A
:106B2000141000202C10002007480068C178890745
:106B300008D541780222114341700448406800287A
:106B400000D0004770470000141000202C100020D7
:106B500007480068C178490708D5417804221143E5
:106B6000417004488068002800D00047704700004A
:106B7000141000202C100020094800680178C90674
:106B8000017808D5EF2211400170054808300068EF
:106B9000002803D00047DF22114001707047000039
:106BA00018100020094840680178C906017808D506
:106BB000EF2211400170054808304068002803D0DA
:106BC0000047DF22114001707047000018100020BC
:106BD00037B514460846064B6A46214600F0EAF8E7
:106BE00004466946002000F081FC20463EBD0000BE
:106BF000ED7400002021020C01D010211046020A81
:106C000001D010460839020901D01046091F820838
:106C100001D01046891E420801D0881E7047081A0C
:106C200070470000002805DBC106C90E012088401E
:106C3000014908607047000000E100E002E008C878
:106C4000121F08C1002AFAD170477047002001E0E6
:106C500001C1121F002AFBD170470000F0B51FB41C
:106C600084B007980699020D014314D04A484B4955
:106C70001018484305140F9801280E981CD0281AA4
:106C8000401C0024464E4749009401910290002880
:106C900014DA474227E00F98012443A3012808D0C3
:106CA000002104980F9A84600360C260416009B0BB
:106CB000F0BD0E98C143F4E74042E2E7074612E018
:106CC000F80707D02246334601990098FFF7F0FBFA
:106CD000019100902246334610461946FFF7E8FB23
:106CE00004460E467F10002FEAD10298019B00282F
:106CF000009A0799069802DAFFF7DAFB01E0FFF73E
:106D00003FFC04460E460022284BFFF7D1FC03D877
:106D10000020C043014607E00022254B20463146B3
:106D2000FFF714FBFFF7A4FC102409E0002C0ADB9A
:106D30000A220023FFF798FA059B30321A55641E89
:106D400002460A43F2D11122641C059B121B1C1936
:106D50000F9B012B03D0012308430ED10AE0084307
:106D600004D011200E9000200F9084E70E98151A81
:106D70006D1E0BE00E98824202DD00236D1C03E0C5
:106D8000824201DA00236D1E002BEED004980F9989
:106D90008260C16030C08AE701FCFFFF104D000037
:106DA000000024400000F03F300000000000F043ED
:106DB0000000E03FFFB597B00646002518E2252801
:106DC00077D100242746FD49049400E00443761C53
:106DD00032780120203A90400842F7D130782A28B2
:106DE0000ED00222307801463039092916D804998C
:106DF0000A235943303940181443761C0490F1E7B4
:106E0000189802C804911890002904DA0120400360
:106E100004434842049002200443761C30782E2814
:106E200014D1042004437078761C2A2809D11898BC
:106E3000761C80C8189009E00A214F43303FC719DB
:106E4000761C3078014630390929F5D930786C281C
:106E500010D006DC4C281AD068280ED06A2817D12A
:106E600004E0742813D07A2812D110E001204005E4
:106E700004430CE00121090501E0032109050C434D
:106E80007178814203D1012000052418761C761CFC
:106E90003078119066280BD013DC58287DD009DC9F
:106EA00000287BD04528F6D04628F4D047281AD1B0
:106EB000A5E118E0632835D0642870D0652812D188
:106EC0009DE170286CD008DC6728F1D069287BD060
:106ED0006E280DD06F2806D1BAE073282ED0752801
:106EE00071D0782859D01A9A199990476D1C7EE173
:106EF0006002400F022809D003280DD004281898FA
:106F000001680DD00D60001D189070E11898EA1707
:106F100001680D604A60F6E7189801680D80F2E795
:106F20000D70F0E718986A4601781172001D1890EC
:106F30000020507202A80090012005E0189802C8B5
:106F4000189000200091C04361070DD5002101E099
:106F50000199491C0191B94212DA8142F8DB009A89
:106F6000515C0029F4D10BE0002101E00199491C9A
:106F700001918142FADB019A0099895C0029F5D1DF
:106F8000019904981A9B471A21463846199A00F02D
:106F900097FA0199401945180BE04FE02CE113E0F6
:106FA0004EE0009800990078491C00911A9A1999AE
:106FB00090470198401E0190401CF2D1214638466E
:106FC0001A9B199A10E137E00A20002100900191E4
:106FD0006002410F022907D0189A01CA1892C217FD
:106FE0009446032908D00AE01898C01DC108C900BA
:106FF00005C91891944607E000B2C21794460429C7
:1070000002D140B2C1178C4600226146944506DA8F
:107010000A460021404291418C462D2102E0210583
:1070200004D52B216A461173012103E0E10701D049
:107030002021F7E7029155E00A200AE0102008E03D
:10704000102000900021042004430191082703E050
:1070500008200021019100906002410F022907D011
:10706000189A01CA189200229446032908D008E011
:107070001898C01DC108C90005C91891944603E0BD
:1070800080B2042900D1C0B200210291210729D584
:107090001199702906D0009A1021019B4A401A4389
:1070A00005D00EE040216A461173012108E06146D7
:1070B000014306D030216A461173119951730221A0
:1070C0000291009A0821019B4A401A430AD1614665
:1070D000014301D1610705D530216A4611730121B1
:1070E0007F1E02911199582904D035A10E910DA946
:1070F0000D910DE037A1F9E76146019B009AFFF77A
:10710000B3F80E9B8C469B5C0D9A521E0D92137029
:1071100061460143F0D10D9805A9081A203001906D
:10712000600703D501200004844300E00127019893
:10713000874201DD381A00E00020019900904118D3
:10714000029809180498401A0490E00306D42146D6
:107150001A9B199A049800F0B3F94519002706E024
:1071600003A81A9AC05D199990476D1C7F1C02985C
:107170008742F5DBE0030CD521461A9B199A049847
:1071800000F09EF9451904E01A9A302019999047A9
:107190006D1C0099481E00900029F5DC08E00D9850
:1071A0000D990078491C0D911A9A199990476D1CF8
:1071B0000199481E01900029F1DC63E109280100D2
:1071C000303132333435363738396162636465665D
:1071D000000000003031323334353637383941421F
:1071E000434445460000000000F05AF94519761C5A
:1071F0003078002800D0E2E528461BB0F0BD6007DB
:1072000000D406271898C01DC108C90048680A683C
:107210000831C30FDB071891190001D09CA108E0C9
:10722000210501D59BA104E0E10701D09AA100E06E
:107230009AA1430011985B08109165280CD006DCD8
:10724000452809D046281DD0472841D141E066286D
:1072500018D067283CD13CE00021112F01DB112020
:1072600000E0781C0191009008A911A8FFF7F6FC36
:10727000139905910021119A15927F1C129801977C
:10728000009150E00120C00703900120019008A95F
:10729000009711A8FFF7E2FC139A149905920022B7
:1072A000119B009212981593059A0192002901D022
:1072B000104602E0791C40180190381A01D5019857
:1072C00004E04042401E0090781C0190C01B0290D8
:1072D00043E0012F00DA01270021112F01DD1120E9
:1072E00000E038460191009008A911A8FFF7B6FC0C
:1072F00013990591119A0021129815920091019706
:1073000021070CD40599B94201DB019900E00191F4
:10731000012904DD159A491E515C302906D0B84276
:1073200001DA011D05DA0121029115E00199491EDA
:10733000EDE7002805DC0099411800910199091A30
:1073400003E0019A411C914200DD01910099401A2D
:10735000401C02900120C0070390200706D4029928
:107360000198814202DB0020C04302900020694660
:10737000C87707AF012103980337C907884224D093
:10738000022011902B201290039800280CDA404222
:1073900003902D20129007E00A210398FEF74EFF7C
:1073A00030317F1E039039701199481E11900029C9
:1073B000F2DC03980028EFD1791E1298087030781B
:1073C000202108404530BF1E387006A8C01BC01DD4
:1073D000039010980078002800D0012001994118EE
:1073E0000298C0170918039809180498401A401EFB
:1073F0000490E00306D421461A9B199A049800F0E1
:107400005FF8451910980078002803D01A9A199946
:1074100090476D1CE00324D521461A9B199A0498C5
:1074200000F04EF845191CE00098002807DB009991
:107430000598884203DD1598405C199901E0199977
:1074400030201A9A904700986D1C401C00900298BA
:10745000401E0290002804D11A9A2E2019999047B4
:107460006D1C0199481E01900029DDDC05E038788B
:107470001A9A7F1C199990476D1C0399481E039016
:107480000029F4DC21461A9B199A0498ACE6000006
:107490002D0000002B000000200000000000000074
:1074A000F8B5044600251E461746880404D405E0B6
:1074B00039462020B0476D1C641EF9D52846F8BD1A
:1074C000FFB50446002581B01E46C80301D530270C
:1074D00000E02027880404D505E038460399B0472A
:1074E0006D1C641EF9D5284605B0F0BD0A68531C12
:1074F0000B601070704710B500220821104600F094
:10750000FFF910BD0FB470B504990024002910D004
:1075100005AA0A48FFF75CFBC5B2802D00D980257B
:10752000064E04E0305D00F017FA641CE4B2AC4291
:10753000F8D370BC08BC04B0184700003810002015
:107540000022064B06E00021491C89B29942FBD378
:10755000521C92B28242F6D3704700008C0A00009F
:10756000FEB50E460746154601A9072000F062F851
:1075700068460079400721D56946282000F05AF86E
:107580006C462920611C00F055F868460088388058
:1075900069462A2000F04EF8611C2B2000F04AF8C2
:1075A00068460088308069462C2000F043F8611C52
:1075B0002D2000F03FF8684600882880FEBD0000BE
:1075C00038B500F0D3F80C4D002428194178285D17
:1075D00000F03AF8A41CE4B2162CF6D369460F204A
:1075E00000F028F868460078332803D003A0FFF79E
:1075F00089FF38BD08A0FAE7747900006C6973331D
:10760000646820696E697469616C697A6520666175
:10761000696C6564200D0A006C69733364682069C5
:107620006E697469616C697A6520737563636565F9
:10763000640D0A0010B500F0A7F810BD10B5372191
:10764000202000F001F810BD10B500F001F910BDC8
:1076500086B00024FFF74FFFFFF7B2FFFFF7EEFF02
:107660002B4D0F262B4FF64303AA02A901A8FFF7C3
:1076700077FF69460420085E0490FEF7C0FD2946A6
:10768000FEF736FD3146FEF7AEFD3946FEF76DFDDD
:10769000FEF7C0FD02460B4600941FA00499FFF7B9
:1076A00031FF69460820085E0490FEF7A8FD2946D0
:1076B000FEF71EFD3146FEF796FD3946FEF755FDF5
:1076C000FEF7A8FD02460B4600941AA00499FFF7A6
:1076D00019FF69460C20085E0490FEF790FD2946CC
:1076E000FEF706FD3146FEF77EFD3946FEF73DFD0D
:1076F000FEF790FD02460B46009415A00499FFF793
:1077000001FFFF20F530FFF71BFF641CA4B2ABE7BD
:1077100000007A4600007A4478203A2025303478F8
:10772000207661743A2025342E336620693A256428
:107730000D0A000079203A202530347820766174D3
:107740003A2025342E336620693A25640D0A00005C
:107750007A203A2025303478207661743A20253416
:107760002E336620693A25640D0A000010B51924ED
:10777000E4042046FFF762F901204005FFF7D8F83E
:107780002046FFF7BBF810BDF3B5802181B0084358
:10779000019000240803FFF781F800BF0127BF050F
:1077A0003846FFF77BF800BF00BF00BF00BF00BF37
:1077B000002501260720411B3046884001990842D8
:1077C000224802D0FFF79AF801E0FFF767F800BF00
:1077D0003846FFF793F800BF3846FFF75FF800BF61
:1077E0006D1CEDB2082DE5D31848FFF7A1F8002570
:1077F0003846FFF753F800BF3846FFF77FF800BF61
:107800001248FFF765F8002803D06006040E3443E1
:1078100003E06006000E44086400072D02D03846DD
:10782000FFF73CF800BF6D1CEDB2082DE0D3074810
:10783000FFF704F9029804703846FFF75FF800BFBD
:107840000120C004FFF75AF8FEBD000000008000D0
:10785000F3B5400681B0400E01900120C004FFF74F
:107860001DF800BF0127BF053846FFF717F800BF16
:1078700000BF00BF00BF00BF002407260125311B49
:1078800028468840019908421C4802D0FFF736F884
:1078900001E0FFF703F800BF3846FFF72FF800BFFD
:1078A0003846FEF7FBFF00BF641CE4B2082CE6D3A9
:1078B0000024311B28468840029908420F4802D014
:1078C000FFF71CF801E0FEF7E9FF00BF3846FFF7BD
:1078D00015F800BF072C03D03846FEF7DFFF00BFC6
:1078E000641CE4B2082CE4D33846FFF707F800BF65
:1078F0000120C004FFF702F8FEBD00000000800078
:1079000010B5134B1B685C7B24092401241D5C7398
:107910005C7B2407240F40345C730E4B1B681C787F
:10792000090724092401090F0C431C701978490622
:10793000490EC0010143197018784021084318709E
:107940000448083002600620FFF76CF910BD000003
:1079500000100020181000200549096848700878B8
:107960008006FCD50878DF221040087070470000C0
:1079700018100020204F2100228023212400258080
:1079800038103A1A3B043C033D200000AC7900005B
:10799000001000202C0000003C6C0000D879000092
:1079A0002C1000208C0400004C6C000010100050C3
:1079B0002C1000500C00004010000040000000009F
:1079C0003010005050000140D00001400000000085
:0879D000000000000024F40097
:04000005000060C1D6
:00000001FF
