:020000041000EA
:10000000E8470020992C0010A12C0010A32C001010
:1000100000000000000000000000000000000000E0
:10002000000000000000000000000000A52C0010EF
:100030000000000000000000A72C0010A92C0010F8
:1000400000000000AB2C00100B370010AB2C001090
:10005000AB2C0010AB2C0010AB2C0010AB2C001004
:10006000B92F00106930001049310010AB2C00107E
:1000700063130010AB2C0010AB2C0010AB2C001045
:10008000AB2C0010AB2C0010AB2C0010AB2C0010D4
:10009000AB2C0010AB2C0010AB2C0010AB2C0010C4
:1000A0000000000000000000000000000000000050
:1000B0000000000000000000000000000000000040
:1000C0000348854606F06CFD00480047870C001089
:1000D000E84700201FB500216846017007214172E2
:1000E000192149014181FE4981810021017204F0F9
:1000F000EAFEFC4804F0D5FEFA484078FA49C87395
:10010000F84880780874F748C0784874F548007952
:100110008874F4484079C874F2488079087500BF43
:100120000623F04A521CF1A1002002F06DFD00BF31
:10013000F2480378F2480178F24AEB4804F0C9FE2D
:100140001FBD3EB50446002C02D0012C11D107E0A2
:1001500010216846C180C82141810021018108E049
:1001600050216846C1804B21C90041810A2101818B
:1001700000BF00BFC021684601710421417101A880
:1001800005F062FC00BF684640890090684603891C
:10019000C288DDA1002002F025FD00BF3EBD3EB5B6
:1001A00004460D46E448007801280FD10121684635
:1001B0000180032141801F2181800121018123468B
:1001C0002A466946012005F0C5F83EBD0020FCE73F
:1001D00013B584B06846408A15214902884209D186
:1001E000D6A003C803910290072402A9204605F077
:1001F000A2F8A5E06846408AD249884208D1D2A038
:1002000000680390022403A9204605F094F897E0C3
:100210006846408ACB492831884209D1CBA103C91D
:1002200003910290082402A9204605F084F887E093
:100230006846408AC3492331884209D1C5A103C910
:1002400003910290072402A9204605F074F877E094
:100250006846408ABB492431884209D1BFA103C9FD
:1002600003910290052402A9204605F064F867E096
:100270006846408AB3492631884208D1B9A000684F
:100280000390042403A9204605F055F858E0684679
:10029000408AAC492531884208D1B3A00068039058
:1002A000042403A9204605F046F849E06846408A40
:1002B000A4492731884208D1ACA0006803900424E7
:1002C00003A9204605F037F83AE06846408A9D4980
:1002D0004F31884209D1A6A103C903910290072496
:1002E00002A9204605F027F82AE06846408AA2497C
:1002F000884207D1A1A000680390042103A8FFF75A
:100300004EFF1DE06846408A9B49383188420ED135
:100310000021039100200190029003A901A801F09F
:10032000B5FB01A96846007B05F005F808E06846C2
:10033000408A9349884203D19249012004F0FBFF8F
:1003400006B010BD10B50446E078A178000208435D
:10035000022829D1207AA1280ED1607A01280BD158
:10036000A07A012808D1E07A012805D1002104F003
:10037000BCFF01208449087000BFE079A179000228
:100380000843024681A1002002F02CFC00BF00BF00
:10039000E079A179000208430346224608327EA193
:1003A000002002F031FC2BE0E078A1780002084345
:1003B00071493831884223D1002073490870E079AF
:1003C000A27900021043C1B22046083001F052F970
:1003D00000BFE079A1790002084302466BA100202A
:1003E00002F000FC00BF00BFE079A17900020843E1
:1003F00003462246083268A1002002F005FC00BF37
:1004000010BD3EB50446601C06F037F8012809D13E
:10041000FFF760FE04F0A8FE00BF61A1002002F01B
:10042000E1FBB4E1601C06F028F8022817D1002097
:10043000414908705E49087001205E49087000203B
:100440005D4908705D490870012001F000F900BFA6
:100450000623A21D5AA1002002F0D6FB97E1601CE2
:1004600006F00BF8042814D10020524908703249D4
:1004700008704F4908700120400202F0D9FC00BF0B
:10048000627955A1002002F0ADFB00BF04F06CFEC4
:100490007DE1601C05F0F1FF0121490388421BD179
:1004A000A179627908021043012816D1217AE279F4
:1004B000080210432028B4D1A17A627A08021043BE
:1004C000C007C00F002809D1A17A627A0802104340
:1004D0000221084000288DE0B9E09AE08BE000009E
:1004E000FF3F00003A300020163000206465766936
:1004F000636520616464723A0000000038300020B7
:100500003430002036300020736D6172745F70618A
:1005100072616D7320696E74657276616C3A2578CC
:10052000206C6174656E63793A2578207376746FF8
:100530003A25780D0A000000053000205359445F29
:100540004D545500012A0000FFFF0000535944207C
:10055000496E632E424C4520312E3000312E302E14
:1005600030000000322E3030332E303056303033F1
:10057000023A09050A020000C9FE00000001030456
:100580000F180000133000201130002031737A3A28
:1005900025640D0A000000006D73673A0D0A000023
:1005A000526553746172744164760D0A0000000054
:1005B00007300020103000201430002004300020CC
:1005C0004741505F4556545F434F4E4E4543544557
:1005D0004420616464723A004741505F4556545F5D
:1005E000444953434F4E4E45435445442025780DCE
:1005F0000A00000009D000BFF5A1002002F0F2FAC5
:1006000000BF0120F7490870C1E00020F5490870DB
:10061000BDE0A179627908021043F3498842F3D121
:10062000A17A627A08021043C007C00F0028EBD0FD
:10063000ED496846018041802621818001210181A8
:10064000EA4B01226946104604F084FE9FE0601CDC
:1006500005F013FF01214902884203D1601DFFF715
:1006600071FE94E0601C05F008FFFF210131884213
:1006700009D10822611D01A805F0BEFE029901986A
:10068000FFF7A6FD83E0601C05F0F7FE01210903DA
:1006900088427CD0601C05F0F0FE082805D100BF20
:1006A000D3A1002002F09EFA71E0601C05F0E5FE87
:1006B00001218903884205D100BFD3A1002002F0A7
:1006C00091FA64E0601C05F0D8FE0121C90388425C
:1006D00041D1A179627908021043030006F0C9FAFA
:1006E0000604171E252C333A00BFCCA1002002F0CF
:1006F00079FA00BF01A804F0E8FD00BF6846C3888E
:100700008288CCA1002002F06DFA00BF22E000BF79
:10071000CFA1002002F066FA00BF1BE000BFD2A10B
:10072000002002F05FFA00BF14E000BFD4A1002057
:1007300002F058FA00BF0DE000BFD7A1002002F080
:1007400051FA00BF06E000BFD8A1002002F04AFA2B
:1007500000BF00BF1BE0601C05F08FFE01210904F3
:10076000884214D100BFA17A627A08021043009037
:10077000217AE579080228430346A17965790802C0
:1007800028430246CEA1002002F02CFA00BF3EBD55
:1007900010B50446207803280AD100BFE078A1787C
:1007A000000208430246CFA1002002F01BFA00BF5E
:1007B00010BD00B587B004F0E5FA0321684601706A
:1007C00000214170807881088900491C6846817049
:1007D0008078042188430146684681701021C170E9
:1007E000002101710321417104F063FDC0200590D7
:1007F000C348069005A804F07EFDC24804F0D4FD6D
:10080000C14804F093FD002004F06BFFFFF762FC89
:100810000021684601720121417281720021C1727A
:100820000121017303A903310520000505F02FFE06
:1008300002A804F0D7FE07B000BD10B5B348007899
:1008400000284DD0B1480078012804D0022811D0EA
:10085000032843D122E000F002FE00BFACA100203B
:1008600002F0C0F900BF0220A84908700020AB497F
:10087000087034E0A9480078401CA8490870084670
:100880000078202809DD00BFA5A1002002F0AAF908
:1008900000BF0120400202F0CBFA20E000209B497B
:1008A00008700120400202F0C3FA00BF9FA100209F
:1008B00002F098F900BF7D20C00000F09BFD00BF52
:1008C0009EA1002002F08EF900BF04F0F8FE00BFE8
:1008D0009FA1002002F086F900BF00E000BF00BF2A
:1008E00010BDFEB5002500260020019000270090D5
:1008F000FF219B4800682030017099480068203033
:1009000041709748006820308170CF21944800687A
:100910002030C170FF21924800682030017100240E
:1009200036E0142C12D008DC230006F0A2F90920CE
:1009300021272727231E271F2700152C19D0162C07
:1009400005D0172C04D0182C18D102E000BF00BF2E
:1009500000BF0120A04005430120A0400743012023
:10096000A0400099084300900FE000BF0DE000BFD9
:1009700000BF00BF0120A040064306E00120A040C8
:1009800005430120A040074300BF00BF601CC4B264
:10099000202CC6DB294631430846002100F07EFAB0
:1009A000304600F029FB324601998A43104600F098
:1009B000D2FB019800F0E8FB2846009900F035FBD7
:1009C0003946002000F083FA284600F092FBFEBD75
:1009D00073746172745F747820656E61626C650D0A
:1009E0000A000000053000200F180000133000201E
:1009F0004741505F4556545F50414952494E475F09
:100A0000434F4D500D0A00004741505F4556545F1B
:100A1000454E435F53544152540D0A007570646152
:100A20007465207273702041434345505445440D12
:100A30000A000000696E74657276616C3A25782050
:100A40006C6174656E63793A25780D0A00000000C8
:100A5000757064617465207273702052454A454315
:100A60005445440D0A00000075706461746520727D
:100A700073702054494D45524F55540D0A000000E3
:100A800075706461746520727370205355434345DB
:100A900045440D0A00000000456E61626C65206CE3
:100AA0006174656E63790D0A00000000446973612A
:100AB000626C65206C6174656E63790D0A000000DC
:100AC000696E74657276616C3A25782C206C61745D
:100AD000656E63793A25782C207376746F3A2578A1
:100AE0000D0A00004154545F4D54555F525350203D
:100AF0004D54552053697A653A25640D0A0000006B
:100B00000304001091070010003000208C300020FA
:100B10004F54412073746172740D0A008D300020AF
:100B20004F5441206661696C650D0A004F544120A5
:100B300066696E6973680D0A000000005374617283
:100B4000742052657365742031303030730D0A00A3
:100B50005265736574206661696C65640D0A0000F6
:100B60004430002010B58F480068182141180A78D9
:100B700010464A78120210438A7812041043C9784A
:100B800009060843044600BF87A1002002F02AF8A6
:100B900000BF012000052040002819D001200005D9
:100BA00000F024FB012109050840002825D08248D7
:100BB0000078002808D0802004F0F8FB00BF7FA157
:100BC000002002F00FF800BF012000F0F6FA14E058
:100BD00001208005204000280FD00120800500F072
:100BE00005FB012189050840002806D0022000F0FD
:100BF000E4FA0120800202F054F910BD10B5012082
:100C0000800500F0F3FA01218905884205D1734877
:100C10000068401C7149086034E070480068002892
:100C200029D06E480068642825D200BF6CA100203E
:100C300001F0D8FF00BF6048007800281BD0552283
:100C40007D216C4805F0EAFB6B4800786949087023
:100C5000AA2168486030017767480078401C6649DF
:100C6000087000BF65A1002001F0BCFF00BF7D211E
:100C70006048FFF794FA002058490860012080027C
:100C800002F0D6F810BD72B6FFF793FD002004F015
:100C900099FC03F013FC002003F0AFFCFF20F530BB
:100CA00000F0A8FB03F0BAFCFFF71BFE01F056FCB6
:100CB00000BF57A1002001F095FF00BF00BF58A35F
:100CC0005AA25DA1002001F08DFF00BF5F49032003
:100CD00002F040F900F040FF5D49012002F001FD03
:100CE00000F063FF5B490520000500F090FA62B652
:100CF00004F03AFA00BF58A1002001F073FF00BFD2
:100D00004FE004F04AFE5748006800282ED05548AE
:100D1000006801214902084000280BD0FFF78DFD33
:100D20000120400202F06FF800BF4FA1002001F047
:100D300059FF00BF4B480068FF21013108400028DF
:100D400008D0084602F05FF800BF4BA1002001F078
:100D500049FF00BF4348006801218902084000287C
:100D600004D0084602F04FF8FFF748FF45480068F6
:100D7000002810D0434800680421084000280AD009
:100D800003F04CFC00BF40A1002001F02BFF00BF8E
:100D9000042002F01DFB40480078012801D1FFF734
:100DA0004CFDAEE754300020494F2057414B45558C
:100DB0005020494E540D0A00103000204154544335
:100DC0004D5455526571204D54552053697A652014
:100DD00031323820627974650D0A00000C30002031
:100DE0006B657920322053686F727420507265737E
:100DF000730D0A004C3100201430002053656E64DE
:100E0000446174612031323520627974650D0A00C5
:100E10005359442052545420496E69740D0A0000FD
:100E200031353A32323A3234000000004E6F7620CB
:100E30002036203230323000537964383831315F17
:100E40004849442025733A25730D0A00F4310020E7
:100E50003C320020650B001053746172744164765B
:100E60000D0A0000D03000204556545F31535F4FCB
:100E700054410D0A000000004556545F32530D0ADC
:100E800000000000E83000205254434556545F31C2
:100E90003835530D0A0000008C30002010B5024692
:100EA000002010E0012383401340002B0AD0FD4BAB
:100EB0001B6819540123834014469C432246002A90
:100EC00000D102E0401C2028ECD300BF10BDFCB5CF
:100ED0000346F54C221D019200220092002B02D104
:100EE000F24A009203E0012B01D1F14A0092009AEC
:100EF000002A36D0002013E0012282400D46154022
:100F0000002D0CD02568009E375C0126BE4035437D
:100F100025600D4695432946002900D102E0401C7A
:100F20001828E9D300BF182017E0012585402A467C
:100F30000D461540002D0FD0019D2D780646183E18
:100F40000127B7403D43EEB2019D2E700D469543FB
:100F50002946002900D102E0401C2028E5D300BF2B
:100F600000BFFCBDFCB50346CF4C221D0192002200
:100F70000092002B02D1CD4A009203E0012B01D157
:100F8000CB4A0092009A002A35D0002013E00122BB
:100F900082400D461540002D0CD02568009E375C20
:100FA0000126BE40B54325600D46954329460029DC
:100FB00000D102E0401C1828E9D300BF182016E039
:100FC000012585402A460D461540002D0ED0019D75
:100FD0002D780646183E0127B740BD43019E357067
:100FE0000D4695432946002900D102E0401C2028E7
:100FF000E6D300BF00BFFCBDAE4909680A461378BE
:10100000194653781B02194393781B041943D2786D
:10101000120611438143A74A126811700B0A5370DC
:101020000B0C9370090ED170704710B5A14A12686D
:1010300013461C7822465C78240222439C782404C0
:101040002243DB781B061A4302439A4B1B681A7033
:10105000140A5C70140C9C70120EDA70964A1268B6
:1010600013461C7822465C78240222439C78240490
:101070002243DB781B061A4302438F4B1B681A700E
:10108000140A5C70140C9C70120EDA708A4A126892
:101090000823D3181C7822465C78240222439C78CB
:1010A00024042243DB781B061A438243824B1B68CD
:1010B0001A72140A5C72140C9C72120EDA727E4A56
:1010C00012680823D3181C7822465C782402224335
:1010D0009C7824042243DB781B061A430A43764B90
:1010E0001B681A72140A5C72140C9C72120EDA726B
:1010F00010BD714909680A461378194653781B02D6
:10110000194393781B041943D27812061143014303
:10111000694A126811700B0A53700B0C9370090E18
:10112000D1707047644909680A46137819465378A4
:101130001B02194393781B041943D27812061143FA
:1011400081435D4A126811700B0A53700B0C937047
:10115000090ED1707047594909680A461378194633
:1011600053781B02194393781B041943D278120653
:1011700011430143514A126811700B0A53700B0C52
:101180009370090ED17070474C4909680A4613786C
:10119000194653781B02194393781B041943D278DC
:1011A000120611438143454A126811700B0A5370AD
:1011B0000B0C9370090ED1707047404909680A46BC
:1011C0001378194653781B02194393781B0419436B
:1011D000D278120611434140384A126811700B0A46
:1011E00053700B0C9370090ED17070470146324852
:1011F0000068021D1378184653781B021843937831
:101200001B041843D278120610430840704710B5EB
:101210000A462B4909681823CB181C7821465C78AC
:10122000240221439C7824042143DB781B061943C4
:101230000140234B1B6819700C0A5C700C0C9C70ED
:10124000090ED9701E4909681023CB181C78214655
:101250005C78240221439C7824042143DB781B061C
:1012600019438143164B1B6819740C0A5C740C0CEF
:101270009C74090ED974124909682031097849080B
:1012800049000F4B1B68203319700E490A600C216E
:10129000002905DBCC06E40E0123A3400A4C2360A1
:1012A00000BF10BD44300020801000505C30002092
:1012B0007430002048300020503000204C30002096
:1012C000543000205830002000E100E04649096811
:1012D00010228A181378194653781B021943937801
:1012E0001B041943D2781206114301433E4A126887
:1012F00011740B0A53740B0C9374090ED17470475C
:101300000C20002815DBC206D20E01219140374A7D
:10131000116000BF00BF00BFBFF34F8F00BF00BF11
:1013200000BF00BF00BF00BFBFF36F8F00BF00BF93
:1013300000BF00BF0020C0432B4909680874020A9F
:101340004A74020C8A74000EC87427480068203062
:10135000007840084000401C23490968203108708B
:10136000704710B520480068182141180A781046C7
:101370004A78120210438A7812041043C978090689
:1013800008431949096810228A18137819465378B6
:101390001B02194393781B041943D2781206114398
:1013A000884300281ED012480068002802D0104848
:1013B000006880470C480068182141180A781046D8
:1013C0004A78120210438A7812041043C978090639
:1013D0000843054909680870020A4A70020C8A70BD
:1013E000000EC87010BD00005430002080E100E005
:1013F00058300020002108E0002201E0531C9AB27E
:101400000A4B9A42FADB4B1C99B28142F4DB7047DB
:10141000002107E0002201E0531C9AB2022AFBDB04
:101420004B1C99B28142F5DB704700008C0A00002A
:1014300070B504460E4615460E20F7490968087037
:10144000681CF54909684870F348006884702A46AA
:101450003146F1480068C01C04F0CEFF70BD08B5ED
:1014600004F0C0F900200090012269461620FFF721
:10147000DFFF08BD38B504466078217800020843D4
:1014800001210903884200DD38BD6078217800021F
:101490000843A178401801210903884207DD6078DC
:1014A00021780002084301210903081AA070A278DC
:1014B0006178237809021943D84BC818E11C04F05D
:1014C0009BFF00BFA37860782178000208430246A2
:1014D000D3A1002001F086FB00BF00200090012274
:1014E00069461720FFF7A4FF00BFCDE77CB504468F
:1014F0000D46164668464570290A8170C670310A45
:1015000001710470052269461420FFF791FF7CBD2C
:101510007CB504460025601C04F0AFFF0646227827
:101520003146BE4804F02AFB054600BF601C04F0AB
:10153000A4FF0646207833462A46C0A1009000202A
:1015400001F050FB00BF002D02D10120019001E00D
:1015500000200190012201A91820FFF769FF7CBD3E
:10156000F8B5054600BFBB480079002808D0B94A45
:101570001179203A126A5001B64A203A04F0BCF9B7
:1015800000BF284604F079FF0646687929790002F1
:10159000084303463246B0A1002001F023FB00BF00
:1015A000284604F06AFF0646687929790002084354
:1015B000034632460021084604F0AEF9044600BF57
:1015C0002246ABA1002001F00DFB00BF002C02D190
:1015D0000120009001E000200090012269461820BF
:1015E000FFF726FFF8BDF8B5054600BF00BF284647
:1015F00004F043FF06466879297900020843034650
:10160000324695A1002001F0EDFA00BF284604F013
:1016100034FF064668792A790002104301463046B5
:1016200004F07FF9044600BF224696A1002001F095
:10163000D9FA00BF002C02D10120009001E0002067
:101640000090012269461820FFF7F2FEF8BD00283D
:1016500004D00021904A1170904A11700021904AE4
:101660001180904A1180904A1180904A1180904ACE
:1016700011607047F8B505460E462C46884800882C
:10168000002803D084480078002877D120781528D6
:1016900044D008DC112823D0122831D0132836D0AA
:1016A00014281CD141E0162806D0202868D0232811
:1016B0007BD02428F5D1A1E00020FEF742FD00BF39
:1016C0007CA1002001F08EFA00BF0120400201F051
:1016D000E8FB01207049087000207549086094E01B
:1016E0000020FEF72EFD00BF76A1002001F07AFA5F
:1016F00000BF04206849087000206D49086084E03C
:10170000A01CFFF7B7FE0520634908707DE0A01C10
:10171000FFF7FEFE06206049087076E0A01CFFF788
:101720001FFF03205C4908706FE0E179A27908028D
:1017300010435B490880617A227A080210435949B4
:101740000880A01C04F099FE594908600020564901
:1017500008805649088000BFA01C04F08EFE074692
:10176000617A227A0802104300904D4803883A4675
:1017700059A1002001F036FA00BF46E046E0FFE73D
:101780000020FEF7DEFC00BF60A1002001F02AFA75
:1017900000BF0120400201F084FB07203E49087091
:1017A00000204349086030E0FFE7E179A2790802B0
:1017B00010433B490880617A227A08021043394974
:1017C0000880A01C04F059FE394908600020364901
:1017D00008803649088000BFA01C04F04EFE074672
:1017E000617A227A0802104300902D4803883A4615
:1017F0004BA1002001F0F6F900BF06E0A01CFFF7A6
:10180000F2FE03202449087000BF3EE10020234976
:1018100008700027A8E00000A43000204A0700203C
:10182000636D64344B53455454494E475772697441
:10183000652025782025780D0A000000436F646537
:101840005570646174653D25642025782025780DE8
:101850000A000000EC3100206F746120737A3A2591
:101860007820636865636B73756D3A257820000096
:10187000436F64655570646174657632303D2564EC
:101880000D0A0000436F64655570646174657633BA
:10189000303D25640D0A00008C3000208D30002082
:1018A0008E300020923000209030002094300020B4
:1018B00098300020434D445F46575F4552415345A1
:1018C0000D0A0000344B53455454494E475F45526E
:1018D000415345200D0A0000434D445F46575F5772
:1018E000524954455F5354415254206F66667365A4
:1018F000743A25782C73697A653A2578206368658F
:10190000636B73756D3A25780D0A0000464C4153A0
:1019100048444154415F4552415345200D0A00005F
:10192000464C415348444154415F57524954455FE6
:101930005354415254206F66667365743A25782C6F
:1019400073697A653A257820636865636B73756D92
:101950003A25780D0A000000E85D574909884018CB
:1019600055490880781C87B2B742F5DB2846E9174D
:10197000890F091889108900691A29D03246294629
:101980004E4804F039FD4E480078022803D04C48F8
:10199000007801280AD14B4909684B4A12888818F7
:1019A000464A314603F0A8FF074635E04448007830
:1019B000082803D04248007807282DD141490968FA
:1019C000414A128888183D4A314603F0EEFE23E072
:1019D0003B480078022803D03948007801280AD112
:1019E00038490968384A128888182A46314603F06F
:1019F00083FF074610E032480078082803D03048BB
:101A00000078072808D12F4909682F4A12888818BA
:101A10002A46314603F0C9FE2B48008880192A491E
:101A20000880084600882949098888422CDB22481A
:101A300000882749098888420CD11F48028822481B
:101A400001880020FFF752FD00BF22A1002001F015
:101A5000C9F80CE0184802881B4801880120FFF7EC
:101A600045FD00BF1FA1002001F0BCF800BF00BF72
:101A700017480388104802881EA1002001F0B2F820
:101A800000BF0020FFF7E3FD00BFF8BD70B50546BD
:101A90000C46234800684078821C2249284604F0FE
:101AA000ABFC1F4800684078801C20701D48002156
:101AB0000160416070BD000094300020CC310020F6
:101AC0008C30002098300020903000208E30002094
:101AD0009230002073656374696F6E204F4B212034
:101AE0000000000073656374696F6E206661696C45
:101AF000652120006F74615F726563656976655F5B
:101B0000636865636B3A2578206F74615F73656302
:101B100074696F6E5F636865636B3A25780D0A00C0
:101B2000A43000209C30002018480068FF210131BB
:101B300008431649086070471448006801214902AB
:101B40000843124908607047104800680121890263
:101B500008430E490860704710B500230C4A7D21E8
:101B60000901FF20013001F0B1F80023094A7D216D
:101B700009010120400201F0A9F80023064A0A21C8
:101B80000120800201F0A2F810BD0000D03000203A
:101B9000291B0010391B0010491B00100848006861
:101BA0000421084306490860704710B50023054A20
:101BB000B921042001F09DFB042001F046FC10BD7A
:101BC000E83000209D1B001010B5F94C0120206169
:101BD0006061F8A0A061FA49E161012189022162F6
:101BE0000021A1626162E162F2A02063F5496163B4
:101BF0001021A16300212164E1636164F2A1E01D71
:101C000004F032FCF1A1204604F02EFC2020A0714B
:101C100010BDF7B582B00446174600200190E56874
:101C200000BF206900900098A84203D90098401B8B
:101C3000461E04E0A1680098281A401C0E1AA068ED
:101C4000401BB04201D9304601E0A068401B064667
:101C5000BE4201D2304600E0384606466168481967
:101C60003246039904F0C8FB01988019019003984B
:101C700080190390BF1BAD19A068A84200D10025B0
:101C8000E560002FCDD1019805B0F0BDF7B582B069
:101C900004461546E668A068871BAF4208D961680C
:101CA00088192A46039904F0A7FB7019E06010E038
:101CB000019761688819019A039904F09DFBE81B5C
:101CC0000190039AD1196068019A04F095FB01987C
:101CD000E06005B0F0BD38B505460C46FF2168460A
:101CE0000170BC48015D6846417002226946284681
:101CF000FFF78FFF38BD10B501460A69CB689A42DD
:101D000004D88C68641EE41AA01801E0D41A601E7E
:101D100010BDF7B584B0174600BFA548007800286D
:101D200001D1FFF751FF00BF182104984843A04993
:101D300030314618059801903569F068029000200E
:101D400003900298854219D9B068441BBC4201D265
:101D5000204600E038460446706841192246019842
:101D600004F04AFB039800190390019800190190B0
:101D70003F1B2D19B068A84200D100250298441BD2
:101D8000BC4201D2204600E038460446002C0DD06B
:101D9000706841192246019804F02EFB039800193F
:101DA00003900198001901903F1B2D1903980028FA
:101DB00000D03561039807B0F0BDF8B504460D4674
:101DC0001646EFF310800746012080F3108800BF0D
:101DD00000BF324629462046FFF79BFF0090F8B22D
:101DE00080F3108800BF00BF0098F8BDF7B582B03F
:101DF0000746164603980190182078436C4918311D
:101E000044182169E068884202D1A068451E0EE0AE
:101E10002169E068884204D22069E168401A451EC1
:101E200005E02069E168401A401EA1684518AE42ED
:101E30000CD92069711B4018206103E02069A1685A
:101E4000401A20612069A1688842F7D2E168A06841
:101E5000451A00BFB5420AD9E2686168881832465F
:101E6000019904F0C9FAE0688019E06010E0E268C6
:101E7000616888182A46019904F0BEFA0198401951
:101E800001900020E060761BA068451E002EE1D185
:101E900000BF05B0F0BDF7B584B0164605980390B5
:101EA0001821049848434249183144182069029087
:101EB000E5680298A84236D8A068401E471BB74282
:101EC0000AD3616848193246039904F095FAA819B3
:101ED000E060012007B0F0BD02983F18B74231D34F
:101EE000A068401B01900198B04208D96168481968
:101EF0003246039904F080FAA819E06011E06168A5
:101F00004819019A039904F077FA0198321A019B53
:101F10000398C1186068009004F06EFA0198301AB6
:101F2000E0600120D6E70298401B471EB74209D364
:101F3000616848193246039904F05EFAA819E06016
:101F40000120C7E70020C5E7F7B582B0074616466F
:101F500003980190182078431549183140180090D3
:101F600000984069002804D0012811D002283AD1F5
:101F700032E00098FFF7BFFE0546B54201D20024CB
:101F800005E03446324601990098FFF77FFE2CE0C9
:101F90000098FFF7B0FE0546B54201D2284600E0A2
:101FA00030460446224601990098FFF76FFE1CE078
:101FB000543200205465726D696E616C000000003F
:101FC0009C3200209C360020525454005345474711
:101FD00045520000AC300020324601990098FFF7CE
:101FE00018FE044601E0002400BF00BF204605B0F3
:101FF000F0BDF8B504460D46164600BFFE48007811
:10200000002801D1FFF7E0FD00BFEFF31080074685
:10201000012080F3108800BF00BF324629462046C9
:10202000FFF792FF0090F8B280F3108800BF00BF66
:102030000098F8BD70B505460C46204604F000FA3D
:102040000646324621462846FFF7D3FF70BD70B5DD
:1020500003460C4618255D43E74E1836A919CD688E
:102060006A1C8D68954200D100220D69954205D009
:10207000CE684D68AC55CA60012000E0002070BDFC
:10208000F3B581B0074600BFDB480078002801D1D6
:10209000FFF79AFD00BFEFF31080012181F3108854
:1020A00000BF00BF18217943D34A18328C18E16869
:1020B0004D1CA168A94200D100252169A94206D082
:1020C0000299E3686268D154E560012600E00026C9
:1020D000C1B281F3108800BF00BF3046FEBDF3B52A
:1020E00081B0074600BFC4480078002801D1FFF73F
:1020F0006BFD00BFEFF31080012181F3108800BF5A
:1021000000BF18217943BC4A18328C18E1684D1C75
:10211000A168A94200D100256169022903D100BF4D
:102120002169A942FCD02169A94206D00299E3683D
:102130006268D154E560012600E00026C1B281F357
:10214000108800BF00BF3046FEBD38B50122694689
:102150000020FFF732FE0446012C02D168460478C5
:1021600001E00024E443204638BD10B500BFFFF76E
:10217000ECFF0028FBDB10BD70B500BF9E48007867
:10218000002801D1FFF720FD00BF9B48056CC06B04
:10219000A84201D0012400E00024204670BD10B503
:1021A000014618204843944C30340219D368106912
:1021B000181A10BDFFB581B005460E46174600BF80
:1021C0008D480078002801D1FFF7FEFC00BFEFF337
:1021D00010810846012181F3108800BF00BF002450
:1021E00000BF18216143844A3032891849680029A8
:1021F00000D104E0641C80494969A142F1DC00BFC0
:102200007D494969A1421DDD182161437A4A303276
:1022100055501821614389184E601821614389186F
:102220008F60002218216143734B3033C9180A6153
:1022300018216143C918CA6018226243D218049950
:10224000516101E00024E443C1B281F3108800BF72
:1022500000BF204605B0F0BDFFB581B005460E4673
:10226000174600BF64480078002801D1FFF7ACFC96
:1022700000BFEFF310810846012181F3108800BFF1
:1022800000BF002400BF182161435B4A183289183F
:102290004968002900D104E0641C57490969A1423A
:1022A000F1DC00BF54490969A1421DDD18216143D9
:1022B000514A183255501821614389184E6018212F
:1022C000614389188F600022182161434A4B1833FB
:1022D000C9180A6118216143C918CA6018226243EB
:1022E000D2180499516101E00024E443C1B281F3A2
:1022F000108800BF00BF204605B0F0BDFFB581B01B
:1023000004460E46174600BF3B480078002801D11E
:10231000FFF75AFC00BF38480069A04230D9EFF3FC
:1023200010810846012181F3108800BF00BF002CF6
:1023300018D018216143304A183256501821614391
:1023400089184F60182262432B4B1833D218049916
:102350009160002218216143C9180A611821614364
:10236000C918CA6018226243234B1833D2180A993D
:102370005161C1B281F3108800BF00BF002501E0A8
:102380000025ED43284605B0F0BDFFB581B00446F9
:102390000E46174600BF18480078002801D1FFF705
:1023A00013FC00BF14484069A04232D9EFF31081FA
:1023B0000846012181F3108800BF00BF002C18D00F
:1023C000182161430C4A3032565018216143891854
:1023D0004F6018226243084B3033D2180499916041
:1023E000002218216143C9180A6118216143C918E4
:1023F000CA601822624301E054320020BA4BD2185E
:102400000A995161C1B281F3108800BF00BF002555
:1024100001E00025ED43284605B0F0BD70B5044647
:102420000E4600BFB04830380078002801D1FFF7D1
:10243000CBFB00BFAC4830380069A04212D9EFF3A3
:102440001080012181F3108800BF00BF1821614373
:10245000A54A183A5650C1B281F3108800BF00BF98
:10246000002501E00025ED43284670BD70B5044607
:102470000E4600BF9C4830380078002801D1FFF795
:10248000A3FB00BF984830384069A04211D9EFF350
:102490001080012181F3108800BF00BF1821614323
:1024A000914A5650C1B281F3108800BF00BF002589
:1024B00001E00025ED43284670BD70B504460E4688
:1024C00000BF894830380078002801D1FFF77CFB35
:1024D00000BF854830380069A04213D9EFF310805F
:1024E000012181F3108800BF00BF182161437E4A9B
:1024F000183A89184E61C1B281F3108800BF00BF3D
:10250000002501E00025ED43284670BD70B5044666
:102510000E4600BF744830380078002801D1FFF71C
:1025200053FB00BF704830384069A04212D9EFF326
:102530001080012181F3108800BF00BF1821614382
:10254000694A89184E61C1B281F3108800BF00BF8B
:10255000002501E00025ED43284670BD10B5FFF7CA
:1025600033FB10BDFEB5044600BF5F48303800782D
:10257000002801D1FFF728FB00BF0027FF20694694
:102580000871102C30DA5948005D4871564D183DDD
:10259000EFF310800090012080F3108800BF00BF8F
:1025A000287D8007800F022807D15148047002223D
:1025B00001A92846FFF72DFB0FE02846FFF79BFBFC
:1025C0000646022E07D34A480470022201A9284673
:1025D000FFF75CFB01E00027FF430098C0B280F3E7
:1025E000108800BF00BF01E00027FF433846FEBD52
:1025F000F3B583B0074600BF3B4830380078002869
:1026000001D1FFF7E1FA00BF102F68DA3648183819
:102610000290049803F014FF0646EFF31080019037
:10262000012080F3108800BF00BF0298FFF763FB12
:1026300005460298007D8007800F002804D00128FD
:1026400017D0022840D12FE0301D854201D200244E
:102650000EE039460298FFF73EFB32460499029895
:10266000FFF7D7FA0446224801780298FFF733FBB8
:102670002DE0042D02D20024E44314E039460298F0
:10268000FFF729FB281FB04201D9304600E0281F80
:10269000024604990298FFF7BCFA044614480178F0
:1026A0000298FFF718FB12E039460298FFF713FB78
:1026B000324604990298FFF7ACFA04460C480178B8
:1026C0000298FFF708FB02E00024E44300BF00BFCC
:1026D0000198C0B280F3108800BF00BF01E0002461
:1026E000E443204605B0F0BD84320020AC30002029
:1026F000BC30002070B504460E46A568681C6168B1
:10270000814206D320684655681CA060E068401CE2
:10271000E0606168A06888420DD1A26821682069E4
:10272000FFF767FCA168884203D00020C043E06047
:1027300001E00020A06070BDFFB585B006461746D9
:102740001D460E9C0698029001200390019007E020
:102750003946029803F026FE02900198401C019031
:102760000298B842F4D20198854200D901950F9899
:10277000C007C00F00281DD1002C1BD002210F98CC
:102780000840022804D1002D02D13020009001E041
:102790002020009008E0641E30460099FFF7AAFF51
:1027A000F068002800DA04E0002C02D00198A04272
:1027B000F1D300BFF068002848DB0FE0012D01D9FC
:1027C0006D1E08E00399069803F0ECFD0490049850
:1027D000B84200D203E0039878430390EEE700BFCD
:1027E00000BF0399069803F0DDFD04900399049857
:1027F00048430699081A0690F74A0498115C304637
:10280000FFF778FFF068002800DA07E03946039800
:1028100003F0C8FD039003980028E2D100BF0F9891
:10282000C007C00F002811D0002C0FD008E0641E94
:1028300020213046FFF75EFFF068002800DA04E050
:10284000002C02D00198A042F1D300BF09B0F0BD26
:10285000FFB585B006460F460F9D0E9C002F01DA8E
:10286000784200E0384603900120049007E0079981
:10287000039803F0ADFD03900498401C0490079961
:1028800003988842F3DA04990898884201D9089895
:102890000490002C06D0002F03DB042028400428DD
:1028A00000D1641E02202840002802D00898002889
:1028B00015D0E807C00F002811D1002C0FD008E078
:1028C000641E20213046FFF715FFF068002800DA6B
:1028D00004E0002C02D00498A042F1D300BFF068BD
:1028E00000283ADB002F05DA7F422D213046FFF722
:1028F00001FF07E004202840042803D12B213046A3
:10290000FFF7F8FEF068002827DB022028400228A5
:1029100018D1E807C00F002814D10898002811D159
:10292000002C0FD008E0641E30213046FFF7E2FE95
:10293000F068002800DA04E0002C02D00498A042DD
:10294000F1D300BFF068002807DB019500943946F9
:102950003046089B079AFFF7EFFE09B0F0BDF7B5C8
:102960009EB00D46144606A8199040201A900020EB
:102970001B901E981D9000201C9000BF2E786D1C8F
:10298000002E00D115E1252E72D1002701201890CC
:1029900000BF2E78232E12D02B2E0CD02D2E02D03D
:1029A000302E10D103E0012007436D1C0EE0022001
:1029B00007436D1C0AE0042007436D1C06E0082055
:1029C00007436D1C02E00020189000BF00BF18985C
:1029D0000028DED1169000BF2E78302E01DB392E74
:1029E00000DD08E06D1C0A21169848433146303955
:1029F00040181690F0E700BF002017902E782E2E7A
:102A000011D16D1C00BF2E78302E01DB392E00DD78
:102A100008E06D1C0A2117984843314630394018A8
:102A20001790F0E700BF2E7800BF6C2E01D0682E03
:102A300002D16D1C2E7800E000E0F6E700BF662EA4
:102A400052D00CDC582E40D004DC252E75D0462EFA
:102A500074D14AE0632E0CD0642EF9D116E0702EAA
:102A60006DD0732E6DD0752E1FD0782EF0D12BE047
:102A700097E02168081D2060086818901898C0B277
:102A8000059019A80599FFF735FE87E02168081D14
:102A90002060086818901698019700900A2219A8DB
:102AA000179B1899FFF7D4FE78E02168081D206075
:102AB000086818901698019700900A2219A8179B89
:102AC0001899FFF739FE69E000BF2168081D2060F2
:102AD00008681890169801970090102219A8179B63
:102AE0001899FFF729FE59E000BF002003900490D9
:102AF000059003A802902068C01DC008C0000146D0
:102B00000830206003C90191009034A103A8019B03
:102B1000009A04F083F800BF029806780298401CDF
:102B20000290002E00D106E0314619A8FFF7E2FD21
:102B30001C980028F0DA00BF30E029E02DE017E013
:102B4000FFE72168081D20600868059000BF059810
:102B500006780598401C0590002E00D106E031460D
:102B600019A8FFF7C7FD1C980028F0DA00BF15E090
:102B70002168081D206008681890002008210B4675
:102B800010220091019019A81899FFF7D5FD05E0D2
:102B9000252119A8FFF7AEFD00E000BF00BF6D1CA6
:102BA00003E0314619A8FFF7A5FD1C98002800DBBB
:102BB000E4E600BF1C9800280BDD1B98002804D019
:102BC00006A91B9A1E98FFF714FA1B991C98401827
:102BD0001C901C9821B0F0BD6275001025342E3376
:102BE000660000000FB438B5044606A800906A4697
:102BF00020460599FFF7B3FE0546002000902846C1
:102C000038BC08BC04B01847FFB581B00D46164665
:102C10001F460024002D03D029460198FFF7E2FF4C
:102C200000241EE02046E117490F0918C910C90009
:102C3000611A04D1A2B213A10198FFF7D3FF325D4C
:102C400012A10198FFF7CEFF601CC117490F0918A8
:102C5000C910C900411A03D10EA10198FFF7C2FFA4
:102C6000641CBC42DEDB2046E117490F0918C9107D
:102C7000C900611A03D007A10198FFF7B3FF05B09F
:102C8000F0BD00005B253034785D200025303278BF
:102C9000200000000D0A0000044880470448004757
:102CA000FEE7FEE7FEE7FEE7FEE7FEE7BD2C0010CD
:102CB000C1000010034804490860704701480249F8
:102CC000086070470024F400C030002070B51E4634
:102CD000002913D0FE4DAC696B699C420ED205C42D
:102CE00008467D21490148437D21083C03F05AFBF9
:102CF000A0602673002060611834AC6170BD88420A
:102D000000D30846704710B5F14C60682030017C54
:102D1000C9070FD0017C490849000174082000F060
:102D20002CFA60682030417C01221143417432202A
:102D300002F01AFF10BD70B5E54C064660680D46FE
:102D40002030017CC90706D0017C49084900017484
:102D5000322002F009FF626820321675300A507581
:102D6000300C9075300ED075107C10210843107413
:102D7000907C400840009074D6480560507C012546
:102D800028435074082000F0EFF960682030017C7F
:102D90002943017470BDCEE770B5CD4D1821287858
:102DA000AE68484369690C1A2869801928610020B7
:102DB000C043A86018E0207B002814D02069B042EE
:102DC00004D16068002807D0804705E0801B20619F
:102DD00002D0A168884201D9A0682061A968884210
:102DE00000D90846A860183468698442E3D3A8680B
:102DF000002805D0411C03D0B749FFF7CCFF70BDB8
:102E0000FFF781FF70BDB249CA688243CA6070474C
:102E1000AF484068014644310A7810464A781202A9
:102E200010438A78C9781204104309060843704792
:102E3000F8B50546FFF7ECFFA54A91680E1A002089
:102E4000C043166190601078182153694843191ADD
:102E5000002718E00868A84202D10F734F6111E003
:102E6000087B00280ED00869801B086102D08C689E
:102E7000A04201D98868086104469068844200D85D
:102E80002046906018319942E4D39068002805D01C
:102E9000411C03D09049FFF77EFFF8BDFFF733FFD9
:102EA000F8BDF8B58A4B054618781821484359698A
:102EB000081A06E00268AA4202D1027B002A34D135
:102EC00018308842F6D3FFF7A3FF99680E1A002046
:102ED000C0431E6198601978182041435869411A0F
:102EE000012718E00A68AA4203D18A680A610F73B1
:102EF0000BE00A7B002A0DD00A69921B0A6102D0FE
:102F00008C68A24201D98A680A619C68A24200D8F2
:102F100014469C6018318142E4D39868002805D09B
:102F2000411C03D06C49FFF736FFF8BDFFF7EBFEFD
:102F3000F8BD674918220B7853434A69D11A05E056
:102F40000B68834201D1087B704718319142F7D357
:102F5000FF20704770B50D46044602F069FD002859
:102F600008D05B48182104704C43611985614161A8
:102F7000FFF7C9FE70BD56494A68114620310875F1
:102F8000030A4B75030C8B75000EC8758B7C0120F2
:102F900003438B744B7C03434B740B7C03430B74D4
:102FA0002032D37CDB07FCD00A7C520852000A7422
:102FB0004A7C02434A747047454840682030C17CCF
:102FC000C90708D0417C012211434174414800687F
:102FD000002800D000477047F8B53D4C07466068B0
:102FE0000E462030017CFD258907002905DA017C89
:102FF00029400174322002F0B7FD60682030077666
:10300000390A4176390C8176390EC176017C20224D
:1030100011430174817C294081742E494E60417CAA
:10302000022529434174092000F09EF86068203091
:10303000017C29430174F8BD10B5254C606820302F
:10304000017C89070FD5017CFD2211400174092004
:1030500000F093F860682030417C022211434174F3
:10306000322002F081FD10BD194840682030C17C3B
:10307000890708D5417C02221143417415484068F4
:10308000002800D000477047F8B5114C074660682B
:103090000E462030017CFB254907002905DA017C1A
:1030A00029400174322002F05FFD6068203007770C
:1030B000390A4177390C8177390EC177017C40227A
:1030C00011430174817C2940817402498E6005E0BE
:1030D000C4300020AC360020992D0010417C04251E
:1030E000294341740A2000F03FF860682030017CD9
:1030F00029430174F8BD28480C214068403041182C
:103100000A7810464A78120210438A78C978120465
:10311000104309060843704710B51F4C6068203003
:10312000017C49070FD5017CFB22114001740A2064
:1031300000F023F860682030417C04221143417480
:10314000322002F011FD10BD134840682030C17CD0
:10315000490708D5417C0422114341740F48806817
:10316000002800D000477047002805DBC106C90EC3
:10317000012088400A490860704700280ADBC10620
:10318000C90E01208840064980310860BFF34F8F87
:10319000BFF36F8F70470000C4300020AC360020B2
:1031A00000E100E018B5F84800680090002069468A
:1031B0000B5C0A241A0962431B070A541B0FD2181E
:1031C0000A54401C0328F3DB009818BD08B5FFF72C
:1031D000E9FF009068460178C078EC4A401E5043F1
:1031E0000A1868468178E12000014143684640782A
:1031F0003C23584308181118E54A1069814201D34D
:10320000081A02E0E34B081AC018116108BD70B536
:103210000D46002802D0DC4E083E01E0DA4E0C3E9E
:103220000024285D0A2103F0BDF80001014329555F
:10323000641C032CF5DB284603F01FF93060642082
:1032400002F092FCD0482038C17A08221143C172A2
:1032500070BD38B5CE4909694418CC49204603F001
:10326000A1F8421C6846C270E12508462D01294696
:1032700003F098F80246684682702946204603F01B
:1032800091F808463C2103F08DF8014668464170EC
:103290003C21204603F086F868460170694600200C
:1032A000FFF7B5FF38BD38B5FFF77CFF00906846E3
:1032B0000178C078B54A401E50430A1868468178A4
:1032C000E12000014143684640783C2358430818F8
:1032D0001118AF4BB0485A6A0468914201D38A1A58
:1032E00002E0AC4D8A1A5219A218026010465962C7
:1032F00038BD70B500290BD0A54D6E69AC69B442DC
:1033000006D2A16005C423710020E0601034AC61D6
:1033100070BD884200D3084670479B4920398A7A9D
:103320000F238343887A1A400009000110438872F2
:10333000704770B50446400701D5FFF733FFE0073B
:1033400041D0934C18216078666848436169081A37
:1033500003E0027B002A02D118308842F9D3884268
:1033600031D2FFF733FF6168E0684018E060002069
:10337000C043606060781821484361690D1A18E005
:10338000287B002814D02869B04204D1686800283E
:1033900007D0804705E0801B286102D0A9688842D9
:1033A00001D9A86828616168884200D90846606030
:1033B000183560698542E3D36068002804D0411C59
:1033C00002D0FFF746FF70BD0120FFF7A6FF70BDDA
:1033D0006F498A6882438A607047F8B50446FFF7F0
:1033E000F5FE6B4AD06072B60021C9435160517836
:1033F000182359435369591A002717E00D68A5424D
:1034000002D10F734F6110E00D7B002D0DD00D69BF
:103410002D1A0D6102D08E68B54201D98D680D61FB
:103420005668B54200D93546556018319942E5D302
:103430005068002804D0411C02D0FFF70AFF02E0C8
:103440000120FFF76AFF62B6F8BDF8B5504C05469B
:103450006078182148436169081A06E00268AA42A8
:1034600002D1027B002A38D118308842F6D3FFF708
:10347000ADFEE06072B60021C94361606178182238
:1034800066695143711A012719E00A68AA4203D1FB
:103490008A680A610F730BE00A7B002A0ED00A6962
:1034A000121A0A6102D08B689A4201D98A680A61AD
:1034B00013466268934200D81A4662601831B142DE
:1034C000E3D36068002804D0411C02D0FFF7C1FE9E
:1034D00002E00120FFF721FF62B6F8BD2C49C86168
:1034E0007047F1B582B0FFF771FE294DE86072B602
:1034F0000021C943696069786E69182251430090C0
:10350000741AEF6920E02068B84209D13C21029882
:1035100002F048FF3C20401A2061012020730CE09B
:10352000207B00280FD021690098081A206102D062
:10353000A168884201D9A068206120696968884231
:1035400000D9084668601834B442DCD368680028A3
:1035500004D0411C02D0FFF77CFE02E00120FFF7FF
:10356000DCFE62B6FEBD0A4918224B7853434A6915
:10357000D11A05E00B68834201D1087B70471831EE
:103580009142F7D3FF207047C010005080510100D6
:10359000E0300020803A0900A83000207149087806
:1035A0000028F0D17048C37A01221343C372C37A52
:1035B000DB07FCD10A70E6E76A490862E3E76A497B
:1035C0008A7A024310078A7A000F12091201024315
:1035D0008A72D8E764498A7A1209024310018A7A0A
:1035E0001207120F02438A72CDE770B50546002418
:1035F000285D0A2102F0D6FE000101432955641C12
:10360000032CF5DB284602F038FF57492039C86300
:1036100070BD554A138A401EDB0BDB034004400C8F
:1036200003431382907C090700090001090F084336
:103630009074A8E74C48C17A04221143C172C17A40
:103640004907FCD49FE74749087801289BD14648A1
:10365000C27A02231A43C272C27A9207FCD40020B3
:10366000087090E7F3B581B0FFF7EDFFFFF7E2FFD9
:1036700001200021C003FFF7CCFF642002F074FAA0
:1036800001216846C1700024847044700470FFF703
:10369000ACFF344D07262C616846C670172787702B
:1036A0003B244470047069460120FFF7B0FD684672
:1036B000C67087704470047069460020FFF7A7FD4C
:1036C0000F20FFF787FF0F20FFF727FE0120FFF7EE
:1036D00076FF02982862FFF761FF24490420086002
:1036E000FEBD70B50D46044602F0A2F900280BD0CD
:1036F0001C48182144704C436119856141610120C7
:103700001B49C003FFF7AEFF70BD10B51648407AE5
:1037100003071B0F1846FFF75DFF1248016A0029D7
:1037200001D01846884710BD0E4800782BE718B521
:10373000002802D00C48183001E00B481430006813
:103740000090002069460B5C0A241A0962431B079B
:103750000A541B0FD2180A54401C0328F3DB0098AC
:1037600018BD0000E0300020A010005000E100E093
:1037700033330010F1B5FE4880470746FD488047C7
:103780000646FB4C0120183CA047FA4D00200C35A2
:10379000A847F949009888473046A8473846A047C7
:1037A000F8BDF0B5F54DF648296985B0081804460E
:1037B00002F063FE2146401C02F069FE0024EF483F
:1037C00001250669EE480C3831180391487C097CC4
:1037D00000020843A540284202903BD00B206043E2
:1037E0008119E748009109300818019002F045FE60
:1037F0000746E348301802F040FE87422AD10F21E5
:10380000009889014018007D00280CD0DC4A0099FE
:103810000D3A8A18517D127D0902114378180199D9
:1038200002F035FE05E002980399A8430874000AE7
:103830004874D34800990D30081802F01EFE002885
:1038400008D0022D19D0042D17D0082D15D0102D19
:103850001AD08047641CE4B20A2CB0D3C74801696F
:10386000C7480C380918487C097C000208438005C9
:1038700001D1C448804705B0F0BDC3490120884745
:103880000028E7D0222005E0BF4901208847002812
:10389000E0D03B20FFF76EFFDCE710B5B749122000
:1038A0004969887072B60121B64A0320B43A90473C
:1038B00062B610BDF7B50D46B34982B020208847E7
:1038C000002801D00020D6E7AC4E172D13D8706920
:1038D000290A8570C17004990171090A41712A464B
:1038E000801D029902F088FD2D1DA64A0220E9B232
:1038F000B43A9047BFE7284600241B21173802F04E
:1039000067FDC7B20191706917220299801D02F00C
:1039100073FD7069290A8570C17004990171090AE3
:1039200041712520316940010818C17A00910121B7
:10393000C172944D1B210220B43DA84700289AD0A3
:10394000354612E01B2002996043411868691B222A
:10395000801C173102F050FD8A4A1B210120B43A25
:103960009047002887D0641CE4B2BC42EAD3019996
:103970000E06360E10D01B20444302983246211802
:1039800068691731801C02F037FD7E4A01203146FC
:10399000B43A9047002896D025212A694901009819
:1039A0005118C872012066E710B5DEB014461B231B
:1039B0006A4613705070000A907000A822460330C7
:1039C00002F01AFDE41CA1B204226846FFF772FF60
:1039D0005EB010BD10B5DEB014461D236A461370EC
:1039E0005070000A907000A82246033002F004FDD7
:1039F000E41CA1B204226846FFF75CFFE8E730B49C
:103A0000012802D002280DD019E0487A0C7A000271
:103A10002043C00713D0487909790002084330BC1D
:103A20001946C1E7487A0C7A00022043800706D580
:103A3000487909790002084330BC1946CAE730BC0E
:103A400000207047FFB505004C48B3B004690E462E
:103A500023D0012D1FD10B2080012718B87B01280E
:103A600019D14748FC382018044602F006FD00280A
:103A700011D0787C397C0002084330420BD1684673
:103A80000570411C304602F002FD204602F0F5FCB4
:103A900001466846884737B0F0BD394FF43FE0191A
:103AA00002F0EBFC0028F6D0381F201802F0E5FCED
:103AB0003042F0D1684605700446411C304602F0A1
:103AC000E6FC3698002804D00146601D359A02F0C5
:103AD00093FC2A480069C019D8E7F3B5C1B04198F2
:103AE0000024417800780D02284E294F05433222E8
:103AF00031AB21460320B84730A8C088A8427DD109
:103B000030A8007AC10930A9898805D015398FB24B
:103B100030A98A7D497D04E0C91F8FB230A98A7A15
:103B2000497A14020C43400604D5184820388047CF
:103B300000282FD030A8007A810606D5C006134988
:103B4000C00E10398847002826D0114839308442E9
:103B500006D00F4A08212846D832904700281DD0A9
:103B60004298801E4090B9281ADD0D2292E0000094
:103B7000BF650000776A0000CF1600000831002002
:103B8000CE03000001120000F50A0000B93C00005D
:103B9000C928000005227DE00C227BE0032279E0A9
:103BA000FF4B002269462846984768464480858036
:103BB000409882B26846C280419902A8891C02F0EE
:103BC0001BFC68464188F648E53881423DD1002417
:103BD00033E069468A880A2161430B18F1499C4603
:103BE0005B1859781B78090219438A4223D1252191
:103BF00049014018407A01280AD100E041E0E94A31
:103C000068466146921C008989180870000A48704D
:103C10006846018830A801876846818830A84187B6
:103C20006846018930A8818701213EAB06224903FD
:103C30000020FFF707FF641CE4B2DB48172100698E
:103C400049014118897EA142C3D86846C088012134
:103C50000830C2B26B4649020020FFF7F3FE002F86
:103C600017D0D14C13206169D04A887104210120FA
:103C7000904725202269012140011018817143B02D
:103C8000F0BDCB49884204D030A88088001984B2A6
:103C90002DE7012229461220B047F0E7F3B5074689
:103CA0004078397800240502C24EC1B00D4332225B
:103CB00031AB21460320B04730A8C088A8427DD14F
:103CC00030A8007AC10930A902D08A7D497D01E07F
:103CD0008A7A497A14020C43400603D5B6488047D5
:103CE00000286CD030A8007A810606D5C006B249FB
:103CF000C00E103188470028C1D0AE483930844208
:103D000006D0A74A04212846463A90470028B6D054
:103D1000429EB61EB92EB2DCA14B0022694628464F
:103D20009847684644808580B2B2C280B91C02A818
:103D300002F062FB684641889E483930814239D1A1
:103D40000024984E984D2EE069468B880A216143E5
:103D500009188F197A783F7812023A43934220D19A
:103D6000252252018018407A012807D1684602892D
:103D70008C48801C08180270110A4170684601883E
:103D800030A801876846818830A841876846018944
:103D900030A88187012106224903884F3EAB0020CD
:103DA000B847641CE4B21721286949014118897E8B
:103DB000A142C9D86846C088083001E008E016E092
:103DC000C2B201216B4649020020FFF73BFE07E02B
:103DD0007749884204D030A88088001984B266E709
:103DE000714801210269252040011018817146E7C0
:103DF00070B5044600786C4D8007800F022802D011
:103E0000012810D01EE0FF217C316D4802F00DFB2F
:103E10006078A11CC206D20E694802F0EDFA607803
:103E2000C006C00E0DE060782989C2066448D20E33
:103E30004018A11C02F0E0FA60782989C006C00E83
:103E4000401828812078C0060DD4A86BC1788278EC
:103E500009021143042907D0052924D0062902D1DB
:103E60005849001D884770BD0179122909D052298F
:103E7000417802780FD009021143534A001D904740
:103E800070BD4178027809021143491E89B2401D74
:103E9000FFF723FE70BD09021143491E89B2401D80
:103EA000FFF7FCFE70BD4149DA31DAE7FEB50020CC
:103EB000694608700871454F0872454E3A4CB8473C
:103EC000A07102AB01AA6946A06902F08AF9002834
:103ED0003FD00820B047002803D00220B047002878
:103EE0000FD068460079012811D02069A569407A71
:103EF000012842D00228E2D1364AA17928469047CB
:103F0000DDE7012168460171007A00281ED02521D5
:103F1000206949014118497BA569002907D02E492C
:103F20004118487B097B000208432C4988472846F2
:103F300002F09CF90028C2D02878C043800709D03D
:103F400068460178A069FFF753FFB8E73D20FFF707
:103F500011FCFEBDA878122805D068461D4A0178DC
:103F60009632A069CBE761691320887072B601218F
:103F70001B4A0320904762B6A1E728780007000F8C
:103F800005289CD1687E297E00020843062805D3B7
:103F9000687F297F000208430A2826D2122021E0E8
:103FA000E72900000103000008310020252200005D
:103FB000FFFF0000C9280000993C0000A13E00005E
:103FC000B8360020EB260000933700004957000068
:103FD000791900008B1E0000A20400002B62000073
:103FE0004D110000FA49884769E7FA49A81C88473B
:103FF000287887224006C10F206911540622A91C87
:10400000883002F0F9F93721606902F00EFA56E7BC
:10401000F0B5F149E1B00420884700280DD0EE4901
:1040200004201A318847ED491F208847EC48804713
:104030001620FFF79FFB61B0F0BDEA4880470028DB
:1040400010D0E94D2C69A1790807F4D5E079C207B1
:104050001CD0E6492046983088472869C17949082C
:1040600049001FE0DF4EDE4FDD4DB2361C376C4697
:10407000103507E06846B0470128DCD16846017872
:10408000601CB847A8470028F4D0D4E782070BD5B6
:10409000D64A20461C328E30811C90472869FD226A
:1040A000C17923E0C171C6E7420708D5CF49204650
:1040B0006031A83088472869FB22C17916E00207E1
:1040C000F726002A09DAC94A21464232A07A0B3182
:1040D00090472869C1793140E4E7C00608D5C34953
:1040E00068467C3188472869EF22C1791140D9E7B9
:1040F00020463140FF30A1712130017D002600298A
:1041000010D006752146072287310CA802F074F9F9
:1041100021460DA82A228E31033002F06DF9B449F0
:104120000CA8884701206946087048708E7029697C
:1041300000A82A2203308E3102F05EF92D220821D8
:10414000AC4C6B460020A04775E7A7490128C96A17
:104150000FD0022811D0042812D0082813D010281C
:1041600014D0202815D0402816D0802818D001203F
:1041700070478878C007C00F7047887880070DE0C7
:10418000887840070AE08878000707E08878C0064A
:1041900004E08878800601E088784006C00F704708
:1041A0008878C009704710B50178012920D1401CDA
:1041B00002F063F98C4A10283BD00EDC012818D09D
:1041C00002281ED0042824D0082811D1FFF7BDFFF3
:1041D00000280DD17E48563809E0202839D04028E3
:1041E00006D1FFF7B2FF002802D17948801E804730
:1041F00010BD0120FFF7A9FF0028F9D1FFF708FF44
:1042000010BD0220FFF7A1FF0028F9D1FFF74EFEF5
:1042100010BD0420FFF799FF0028F9D11069407AFA
:10422000012803D00228F3D17348E0E77248AE3882
:10423000DDE71020FFF789FF0028E9D1D06A2030A0
:10424000407D400701D53E2000E00820FFF792FAAC
:1042500010BD2020FFF779FF0028F9D15C480E3807
:10426000C5E770B5604B1025D96A08260C460A468A
:104270002034603100281DD0907E30439076087E37
:104280005A7840094001D206D20E10430876607B6E
:10429000267B0202186932432330437C067C1802D5
:1042A000304382420ED02073000A6073C87D2843D9
:1042B000C87507E0002020736073C87D2843C87567
:1042C0004E480677012070BD474800692330417C85
:1042D000027C080210430BD0494948780A78000252
:1042E0001043032210430870000A48700120B8E709
:1042F000704730B4434CA44630BC6047F8B54048E2
:10430000407A000663D53848066930462330417C40
:10431000007C0F023A4907434878097804020C43AD
:10432000002F01D1600752D5354DA87B697B000273
:104330006D1C08434BD0002F49D0687929790002C1
:1043400008432ED12136707C317C0002084302F0F4
:10435000AFFA00222C4B02F0AFF902F0B7FA80B2AC
:104360007843642102F034F84004010C2971080AF2
:1043700068710A204143707D327D00021043814202
:1043800006D30A21401E02F023F82871000A687142
:10439000687929790002084303D10120287100209F
:1043A00068711748A10709D502218C4301210C43EC
:1043B0000470210A41700020FFF753FF68792A79C1
:1043C00001021143114B00224020FFF792FFF8BD7C
:1043D000CF16000037580000F50A0000AD120000AB
:1043E000BD600000054E00000831002027260000B7
:1043F000DF470000A13E000027150000200002401A
:10440000D1370020AB4400000000F43FC942001047
:104410001CB5F7494A7A002A40D04A780B78120234
:104420001A43D3063AD4437804781802204301286B
:1044300034D1C878401E0006000EC8702FD08B788B
:104440000846017BC47A0A022243017AC479090230
:104450002143C01C012B2AD0521A0272120A427246
:104460001206037A120C1A43521A69460A80427ADB
:10447000017A120612140A4369464A80DC498A7B93
:10448000497B12020A4369468A80417B027B08020B
:1044900010436946C880D749684688471CBD887A5A
:1044A000C870402002430A70100A48701CBD5218A0
:1044B000D3E7D14A1047D04A2032104738B50024FC
:1044C00069460C7021467F20FFF7F5FF00213B2055
:1044D000FFF7F1FF29213B20FFF7EDFF69463B2065
:1044E000FFF7E7FF68460078800701D5012038BD57
:1044F000641CA4B2FF2CF1D9002038BD10B5BF4810
:104500008047012010BD10B5BD49BE4A8870002803
:1045100007D108698078022803D000209047012045
:1045200010BD0120FAE710B5B54C0128216988704B
:1045300004D0002831D0022846D059E0606B0146F3
:10454000203002785208520002700278FD231A408F
:1045500002700878800980011C3008704878800952
:1045600080011C30487000217F20FFF7A4FF032149
:104570002120FFF7A0FF1F210320FFF79CFF02214E
:104580007F20FFF798FF01210020FFF794FF002113
:104590007F20FFF790FF0F2127E000217F20FFF70A
:1045A0008AFF00210420FFF786FF02217F20FFF70A
:1045B00082FF00210846FFF77EFF00217F20FFF7E2
:1045C0007AFF0021032011E002217F20FFF773FF13
:1045D00003210020FFF76FFF00217F20FFF76BFF13
:1045E00000210320FFF767FF00210420FFF763FF8E
:1045F000A078FFF788FF012010BD10B5FFF793FFEB
:10460000012010BD7D4810B50C3080477C48006B00
:10461000017ADF2211400172012010BDFEB57948F8
:1046200018308047764C0190206B817A007ACF0752
:10463000FF0F0026800702D00126FFF7E3FF704836
:10464000006B817A4908490081726E4901208847D0
:104650000220FFF768FF684964206631884700241C
:1046600069460C70254601217F20FFF724FF0021B9
:104670000A20FFF720FF22210A20FFF71CFF6946CE
:104680000A20FFF716FF684600784007EFD4694616
:104690000A20FFF70EFF68460078400705D56846F8
:1046A0000078000706D4012504E0641C5648A4B233
:1046B0008442ECD350496420663188470020FFF7DC
:1046C00032FF5049019888474D48006B817A49086C
:1046D000490039438172002E01D048488047002D9F
:1046E00001D00120FEBD0020FEBD10B511214048C3
:1046F00001F09BFE10BD70B50446401C01F0BDFEEC
:10470000022818D0042819D001214904884247D131
:1047100025462035687B092301070209090F00207F
:10472000072A1CD0032A20D0022A25D0012A29D00A
:10473000002A2DD032E0FFF7D8FF3AE0304D0121BA
:104740002869FF302130017501F0D6FD2869807895
:10475000002801D1FFF762FFFFF7B0FE29E0581AE9
:10476000062148434121C94304E0581A0621484321
:104770003521C943081A10E0581A0621484323215D
:10478000C943F7E7581A062148431721C943F1E7FF
:10479000581A06214843801D404240B2687308E021
:1047A00040281DD00121C903884202D1601DFFF7B6
:1047B0002FFE0F494878097800020843800607D584
:1047C000601C01F05AFE0005000F01D0FFF796FDB6
:1047D0000B48403001F051FE01462046884770BD2D
:1047E00007483C3001F049FE4006E2D570BD0000AC
:1047F000D137002033420000C561000007470000A8
:1048000008310020A7650000FFFF0000F0B58DB063
:104810000D460646FE4C2069FF302130407C0028C2
:1048200029D0002D26D072B6E068183001F025FEA0
:1048300021693222FF312131897CF64B51434018E6
:104840006A463221984762B6002E04D02069FF30B4
:104850002130807C307027690A21FF372137B87CEE
:10486000401C01F09FFDB974E078401CC0B2E070BC
:104870000A2802D900200DB0F0BD68460078012852
:10488000D1D100A907222846013101F0B5FD2A2225
:10489000E81D02A901F0B0FD0120ECE7F0B50546E6
:1048A000DD498DB020208847D94C042621696069F4
:1048B0000F4686700822C01CC931BD3701F09CFD2F
:1048C0006069042239460B3001F096FD0D21D34A70
:1048D000032090472069294608220A31C13001F09F
:1048E0008BFD2069294604221231B93001F084FD84
:1048F000287ACB4F002802D1687A00281FD00020E8
:10490000E07020692A7A01468030837B9A420AD17E
:104910006A7AC07B824206D108222846903101F093
:1049200096FD002817D069460020FFF76FFF012889
:1049300026D006220021BB4B012098479BE7206927
:1049400002228179114302468171C132FF30114642
:104950001030B84710E020698179024631438171F7
:10496000C13211469830B8472069803080790128DB
:1049700002D1A94902208847AA48A03080477AE797
:10498000206901A92A228E30033101F035FDB8E7F4
:104990007CB5451C80782978000208439C4C02288D
:1049A00010D00F2810D001211D2810D0FF3810285A
:1049B0000DD09D4A69460120904768782978000209
:1049C000084302E0032000E0022060717CBD6171B9
:1049D0007CBD8F4840797047944908471CB594487E
:1049E0000821017000214170017BC27A0902C01CBC
:1049F000114341D04279037912021A43891A0BB24A
:104A00006A461380417A027A0906091411436A46FC
:104A1000518019220624D201062B02DA6B461C8033
:104A200003E0934201DD6B461A80062902DA6946EB
:104A30004C8003E0914201DD69464A80417B027B64
:104A4000080210436946C8807948817B427B08028E
:104A50001043694688806E4800692330417C027C9F
:104A60000802104302D00020FFF7FBFB71496846A3
:104A700088476E49402088471CBD6D4948780A78B0
:104A800000021043C2050CD5FF220132904308708A
:104A9000000A48700879401E0006000E087109D00F
:104AA0009CE72022104310229043042210430870F8
:104AB000000A48707047FEB55D4D04466878297855
:104AC0000002084300077DD55B48804769782A7853
:104AD000090211430822914329700A0A6A706B7A0D
:104AE000064628461A066ED5A27967791202651C19
:104AF0003A43474FE41C002A77D01022114301703B
:104B00000A0A427088065ED468792979000208434F
:104B100032D001F0CDFE0191009060782178000242
:104B2000084301F0C5FE454C0022234601F0C4FDB8
:104B3000019B009A01F0C0FD01910090386921307D
:104B4000417C027C0802104301F0B2FE00222346A1
:104B500001F0B2FD07460C46687A297A0002084344
:104B6000801B01F091FE3A46234601F0A5FD019B12
:104B7000009A01F0EFFC24E06078217800020843FD
:104B800001F07AFE044638692130417C027C08023B
:104B9000104301F071FE214601F082FC01F0B4FEE9
:104BA0000022264B01F088FD07460C46687A297AD8
:104BB00000020843801B01F067FE3A46234601F0DD
:104BC0007BFD02E08BE081E00FE000221C4B01F056
:104BD000DBFD01F07BFE0104090C00D10121194B22
:104BE00000228020FFF785FB70E09A066ED5827860
:104BF000012A6BD18A0669D4FF220D480132114384
:104C00000170090A417060782178000208431BE0B6
:104C10000831002059530000050B00004D11000021
:104C200019220000D91900001F1D0000B344000024
:104C3000D137002033420000BF5500000000F43F90
:104C4000000059407B4A0010FE490A7BCB7A1102D2
:104C5000194388423AD901F00FFE044638692130E1
:104C6000417C027C0802104301F006FE214601F05F
:104C700017FC01F049FE0022F34B01F01DFD074631
:104C80000C46687A297A00020843801B01F0FCFD7B
:104C90003A46234601F010FD0022EC4B01F074FD72
:104CA00001F014FE0104090C00D10121E84B00229F
:104CB0008020FFF71EFBE348417802780902114388
:104CC000FF22013211430170090A41700320694635
:104CD000088102229103DF4C02AB0020A047FEBDF9
:104CE00070B504460178DC4D401C002913D003291F
:104CF00010D1417802780802104302280AD168696D
:104D00000322BC218271C171002101721046D34A75
:104D1000042190476AE5417802780802104309D0DF
:104D200001281BD0032822D00C28F3D1201DFFF727
:104D30002FFE5BE5CA49201D8847002802D12820A4
:104D4000FEF718FD201DFFF7B6FE01212B69062294
:104D500009040020BF4C3133A04747E5C149201D5D
:104D600088470028D6D12820FEF704FD3EE5201D07
:104D7000FFF794FD3AE510B50078012801D1FEF760
:104D800010FD10BDF0B5B84885B0804701217F20E7
:104D9000FFF791FB69465020FFF78BFB68460078D0
:104DA000042801D0B1488047FFF788FBAA4C20694E
:104DB0008078012844D0022863D0FFF72FFC01251A
:104DC000684645800580AA480190AA4968468847F8
:104DD00068460570457000264680A7480190A74B9D
:104DE000206908226946C01801F006FB0121A44F82
:104DF0004020B84701218020B84701212020B84732
:104E0000FF210C31684601800B2141808680C680DD
:104E1000068146818581C5819A48964904906846F5
:104E2000A2398847E0680A3001F027FB854A964B93
:104E3000573A5721984701F05FFA012005B0F0BDBD
:104E4000924880470746206B817ACD07817AED0F23
:104E50004908490081728D4E0120183EB04702205A
:104E6000FFF761FB8A49642088470120FFF75BFB5D
:104E70003846B047206B817A49084900294381723E
:104E80009DE70220FFF74FFB99E7774810B50A30FE
:104E90008047012010BD744910B528318847012092
:104EA00010BD714910B55E318847012010BD6E49B3
:104EB00010B56A318847012010BD6B4910B57831B3
:104EC0008847012010BD684910B588318847012006
:104ED00010BD10B55F4C383CA047012010BDF8B59F
:104EE0005D4C6C4920693730884760693B23017805
:104EF000BF250A09216912015B5C1B071B0F1A43BE
:104F000002701207120F012A79D00B4640335A78EB
:104F10001B7812021A430B4642331A70120A5A7057
:104F200002788B7A2A409B011A435206520E027075
:104F300066235B5C42789B1D92099B0692019B0E47
:104F40001A4342700622801C0B3101F055FA216988
:104F50006620425C002A04D060696731083001F0A5
:104F60004BFA206900212030417760694A4A417834
:104F70008906890E891C9047606901780A09120127
:104F8000121D027021692A408B7ADB075B0E1A43DF
:104F9000027046235B5C42789B1D92099B0692013E
:104FA0009B0E1A4342700622801C0B3101F024FA3A
:104FB00021694620425C002A04D0606947310830EC
:104FC00001F01AFA6069344A41782C328906890E58
:104FD000891C90472069012705462035E97E012973
:104FE00068D000297AD0022978D0062976D000230B
:104FF000184C1A4601211846A047F8BDFFE70A469B
:105000004032137953718B7A0278DB072A405B0EAA
:105010001A43027087235B5C5206520EDB011A436F
:10502000027042780B31920992010C3242700622D2
:10503000801C01F0E1F9606921690622083088319D
:105040002CE00000D13700200000F43F0000594060
:105050007B4A0010A13E00000831002025220000FC
:105060005D5B0000475F0000793D0000F7460000EF
:10507000774D00102F440000A7410010CE02000021
:1050800061550000E14C001059530000BF6500005D
:105090002B620000B1570000D960000001F0ACF9AC
:1050A000216903223D2042548720405CFC4A88311C
:1050B00090475AE74030417900290BD0282006213B
:1050C000E26A937EFD242340937617756B7F2A7FD7
:1050D00044E003E0477101200146F1E7064642360D
:1050E000717832780B02134317D0192189014B4391
:1050F0002230417F047F0802204301228004800C7B
:10510000009006D00146184601F04CF9421C7F2A57
:1051100010D8D4B23770380A14E03770390A717079
:105120002230417F027F0802104301248004800C5A
:10513000009008E07F24104621467E3001F032F9CD
:105140003070000A7070D748C06A817E0222114315
:10515000817607756B7F2A7F00992046D24CA04745
:10516000D1483E30804748E710B5FFF7B8FE012030
:1051700010BD10B5CD4903200870CD496420884783
:10518000CC488047012010BD72B60021C54AD06AC4
:105190004175037C01210B430374106945221154AE
:1051A000423001700021417062B60120704710B595
:1051B000C1498847012010BDF0B5BA4CE56A2C46BC
:1051C00060342678FD27C0073E40800F06432670D6
:1051D000A170627062352B71180A68710598207190
:1051E000000A6071F0BDF8B5AE4DAD4928693231A5
:1051F0003730884711202F69002480013D186E79CF
:10520000A8790321401C01F0CDF801208840A97144
:10521000064203D1641CE4B2032CF1D31125AD0185
:105220007C19607B217B00020843A91C7F18010ABE
:105230009C4E3873797300280BD0607A227A010271
:1052400019201143800101F0ADF80206120E04D0BE
:1052500004E001203873002078730122787A397ACB
:10526000000208430090607A217A03020B43A07980
:105270009249095CE079FFF79FFF306900214019EE
:105280000171C170017441748178002901D008292D
:1052900001D90821817082485A388047ADE610B59F
:1052A000FFF7A1FF012010BD10B585488047012000
:1052B00010BD834910B508318847012010BD8049D1
:1052C00010B516318847012010BD7D4910B57831E1
:1052D0008847012010BD7349487001207047784904
:1052E00010B586318847012010BD754A10B58E3241
:1052F0009047012010BD7CB5054601F0BEF8694914
:1053000004463C3101F0C3F8281D01F0B6F86549A8
:10531000403101F0BCF8402084436A48684901905C
:10532000009468469631884701207CBD10B56649D7
:105330008847012010BD644A10B50832904701200B
:1053400010BD10B561488047022801D9002010BD6A
:10535000012010BDF8B50E465D490746487809782A
:10536000000208431C461546800609D54D48C06A10
:105370002030417B027B0802104301D0FEF7BEFFC4
:1053800054490120884700280BD050488047022804
:1053900008D972B623462A4631463846FEF72FFB17
:1053A00062B62AE6002028E64B49084710B50446B5
:1053B000484901208847002803D047492046083142
:1053C000884710BD70B50546424A0C4601209047FB
:1053D000002804D0404A214628462232904799E4CA
:1053E000FFB50F4681B03B491D46164601200A9C79
:1053F0008847002807D00094374C2B463246394660
:1054000044340198A04719E5F8B50E4607463149DE
:105410001C46154601208847002806D023462E4CFE
:105420002A46314638467C34A047E6E510B50446A6
:10543000284901208847002803D027492046AC315D
:10544000884710BD70B50546224A0C46012090479A
:10545000002804D0204A21462846C632904759E405
:1054600070B505461B4A0C4601209047002804D021
:10547000194A21462846E83290474BE4F8B50E46D3
:10548000074614491C46154601208847002805D0C8
:105490002346124C2A4631463846A047ADE5000067
:1054A0007F570000083100205F56000000000240D6
:1054B00045620000074700000141000072750010BE
:1054C0001D420000F74600102D4300002B4E000047
:1054D000D1370020F50A0000B73A0000BB3B0000BE
:1054E00070B50D460646F949144601208847002844
:1054F00004D0F74B22462946304698470AE470B557
:105500000D460646F149144601208847002805D07B
:10551000EF4B2246294630462C33984709E4F8B52C
:105520000E460746E9491C461546012088470028D3
:1055300006D02346E64C2A46314638465834A04722
:105540005BE510B50446E14901208847002803D0F7
:10555000DF4920468831884710BD10B5DB4901205E
:105560008847002802D0DA489C30804710BD70B5CB
:10557000D84D0446082804D02869407808280DD062
:1055800014E000217F20FEF796FF01214020FEF766
:1055900092FF286B0178C908C9000EE000217F2026
:1055A000FEF789FF00214020FEF785FF286B017878
:1055B0006207C908C900520F11430170286944707D
:1055C00001200CE7D3E710B50446C348804720709C
:1055D000012010BD10B50446BF48801D80472070D3
:1055E000012010BDBC4910B51C318847012010BDF9
:1055F000B94810B572308047012010BDB748004748
:10560000B7490847B6491A31084708B5B549684649
:1056100088476846C0788007C00F08BD08B5B14903
:10562000684688476846C078C00900D0012008BD98
:1056300010B5FEF73EFF10BD10B5FEF73CFF10BDE4
:10564000A448C06AC07B052805D0062803D00F28CF
:1056500001D0002070470120704710B5FFF7F0FF20
:10566000002802D19C4852308047012010BD10B55F
:1056700098490122C86A4275437CDB09DB019B1C07
:105680004374931E83741B0AC374096BCB7AEF2493
:105690002340CB724B7B93434B738B7A13438B72B8
:1056A000817E022319438176017C114301748C4968
:1056B00005201A3188478C488047012010BD8A4850
:1056C00010B512308047012010BD864910B57E31DB
:1056D0008847012010BD834910B5963188470120C5
:1056E00010BD814910B558318847012010BD7E4951
:1056F000AC3108477C4910B5FA318847012010BD0C
:1057000010B57A488047012010BD784810B5183090
:105710008047012010BD754BA2331847734BD83317
:105720001847F8B507466B480026C0680D46344652
:10573000283000F0A2FE2903C91940180121C9042C
:10574000884211D9002058E472B66248C0682830F7
:1057500000F093FE2103C9194018654A01219047C2
:10576000064662B6641CE4B2AC42EDD3304644E473
:1057700070B5044657481646C0680D46283000F0FC
:105780007CFE0346611940180121C90488420AD8E9
:10579000002B08D072B61819554B32462946EA3B01
:1057A000984762B61BE6002019E670B504464948E2
:1057B0001646C0680D46283000F05FFE03466119AA
:1057C00040180121C90488420AD8002B08D072B6BB
:1057D0001819474B32462946823B984762B6FEE588
:1057E0000020FCE570B5434800240078404E394D58
:1057F00000280DD001281ED024E072B6143000F02D
:105800003CFE210340180121B04762B6641CE4B29B
:10581000E868C17B827B09021143A142EDD811E007
:1058200072B6103000F029FE210340180121B04764
:1058300062B6641CE4B2E868C17B827B0902114352
:10584000A142EDD80120CAE570B504460D46000B13
:1058500042192048C068C17B837B090219438A42F0
:1058600001D90020BBE52349214E0978002902D047
:10587000012903D00AE072B6143001E072B610308C
:1058800000F0FBFD00192946B04762B60120A6E5ED
:10589000F8B5044617480F4601780E48144DC06805
:1058A000823D1646002902D0012903D00BE072B6D2
:1058B000143001E072B6103000F0DFFD00193246FE
:1058C0003946A84762B601204DE40000F50A000001
:1058D000EB3B0000083100209F440000FB5F00000C
:1058E0002B6200004D650000E54600000348000003
:1058F000435400007A37002030B4FE4BDC68E37B71
:10590000A47B1B0223431B03834202D230BC002032
:10591000704730BCC9B2BBE730B4F74CA44630BCCA
:105920006047F3B5F34889B0C0680024283000F020
:10593000A4FD074609984609002510E072B66801E3
:10594000C019EE4B6A462021984762B6002069468E
:105950000A5C401C121994B22028F9D36D1CB54280
:10596000ECD30998C606F60E72B631466801E34BD1
:10597000C0196A46984762B60020694603E00A5C8F
:10598000121994B2401CB042F9D30A98844202D151
:1059900001200BB0F0BD0020FBE7F8B5D8488047E8
:1059A000D84C607A002840D00006042500280FDA81
:1059B0006078217800020843400709D5FEF79EFC75
:1059C0006078217800020843A8432070000A6070C4
:1059D0006078217800020843CB4FCC4E41060CD5AD
:1059E000402188432070000A6070022069460880C8
:1059F00002466B4639460020B047607821780002A5
:105A00000843C10711D0400840002070010A6170AE
:105A1000800702D56846058002E0052069460880B7
:105A200002226B4639460020B04737E4B8480047A9
:105A300038B5B04C2078002804D1B649684688476C
:105A400001202070012038BDF8B50278002A59D015
:105A5000AC494A7242788A72002A01D0042A01D9DC
:105A600004228A72C278847813022343A54A1C0A4E
:105A7000D37214734479057924022C4315466C7350
:105A8000240AAC73C479857920022843D073000AB4
:105A90001074984808270069D21C2130447C007C8F
:105AA000240204430120A34214D900258D701B1B3E
:105AB0008C7AA34204DA1071000A50718B7216E0DE
:105AC000E400A34202DA1071000A01E01771380AFB
:105AD00050710CE088708E7AE51AB5420EDA060A2B
