Component: ARM Compiler 5.06 (build 20) Tool: armlink [4d35a3]

==============================================================================

Section Cross References

    main.o(.text) refers to pwm.o(.text) for Hpwm_Init
    main.o(.text) refers to main.o(.text) for BleInit
    main.o(.text) refers to debug.o(.text) for dbg_init
    main.o(.text) refers to gpio.o(.text) for PIN_Set_GPIO
    main.o(.text) refers to timer.o(.text) for timer_1_enable
    main.o(.text) refers to main.o(.data) for Sound_codeIndex
    main.o(.text) refers to main.o(.constdata) for DATA
    debug.o(.text) refers to uart.o(.text) for uart_0_init
    debug.o(.text) refers to printfa.o(i.__0vsprintf) for __c89vsprintf
    debug.o(.text) refers to debug.o(.bss) for s_formatBuffer
    uart.o(.text) refers to gpio.o(.data) for PIN_CONFIG
    uart.o(.text) refers to uart.o(.data) for UART_0_CTRL
    gpio.o(.text) refers to gpio.o(.data) for PIN_CONFIG
    pwm.o(.text) refers to debug.o(.text) for dbg_printf
    pwm.o(.text) refers to pwm.o(.data) for compare
    timer.o(.text) refers to delay.o(.text) for delay_us
    timer.o(.text) refers to timer.o(.data) for TIMER_CTRL
    timer.o(.text) refers to timer.o(.bss) for timer_callback
==============================================================================

Removing Unused input sections from the image.

    Removing main.o(.rev16_text), (4 bytes).
    Removing main.o(.revsh_text), (4 bytes).
    Removing debug.o(.rev16_text), (4 bytes).
    Removing debug.o(.revsh_text), (4 bytes).
    Removing uart.o(.rev16_text), (4 bytes).
    Removing uart.o(.revsh_text), (4 bytes).
    Removing gpio.o(.rev16_text), (4 bytes).
    Removing gpio.o(.revsh_text), (4 bytes).
    Removing pwm.o(.rev16_text), (4 bytes).
    Removing pwm.o(.revsh_text), (4 bytes).
    Removing timer.o(.rev16_text), (4 bytes).
    Removing timer.o(.revsh_text), (4 bytes).
    Removing delay.o(.rev16_text), (4 bytes).
    Removing delay.o(.revsh_text), (4 bytes).
    Removing startup_armcm0.o(HEAP), (3072 bytes).
    Removing system_armcm0.o(.rev16_text), (4 bytes).
    Removing system_armcm0.o(.revsh_text), (4 bytes).
    Removing main.o(.rev16_text), (4 bytes).
==============================================================================

Image Symbol Table

    Local Symbols

    Symbol Name                              Value     Ov Type        Size  Object(Section)

    ../clib/microlib/division.c              0x00000000   Number         0  uldiv.o ABSOLUTE
    ../clib/microlib/division.c              0x00000000   Number         0  uidiv.o ABSOLUTE
    ../clib/microlib/division.c              0x00000000   Number         0  idiv.o ABSOLUTE
    ../clib/microlib/init/entry.s            0x00000000   Number         0  entry10a.o ABSOLUTE
    ../clib/microlib/init/entry.s            0x00000000   Number         0  entry11b.o ABSOLUTE
    ../clib/microlib/init/entry.s            0x00000000   Number         0  entry9a.o ABSOLUTE
    ../clib/microlib/init/entry.s            0x00000000   Number         0  entry8b.o ABSOLUTE
    ../clib/microlib/init/entry.s            0x00000000   Number         0  entry8a.o ABSOLUTE
    ../clib/microlib/init/entry.s            0x00000000   Number         0  entry7b.o ABSOLUTE
    ../clib/microlib/init/entry.s            0x00000000   Number         0  entry7a.o ABSOLUTE
    ../clib/microlib/init/entry.s            0x00000000   Number         0  entry5.o ABSOLUTE
    ../clib/microlib/init/entry.s            0x00000000   Number         0  entry2.o ABSOLUTE
    ../clib/microlib/init/entry.s            0x00000000   Number         0  entry9b.o ABSOLUTE
    ../clib/microlib/init/entry.s            0x00000000   Number         0  entry.o ABSOLUTE
    ../clib/microlib/init/entry.s            0x00000000   Number         0  entry11a.o ABSOLUTE
    ../clib/microlib/init/entry.s            0x00000000   Number         0  entry10b.o ABSOLUTE
    ../clib/microlib/longlong.c              0x00000000   Number         0  llushr.o ABSOLUTE
    ../clib/microlib/longlong.c              0x00000000   Number         0  llsshr.o ABSOLUTE
    ../clib/microlib/longlong.c              0x00000000   Number         0  llshl.o ABSOLUTE
    ../clib/microlib/printf/printf.c         0x00000000   Number         0  printfa.o ABSOLUTE
    ../clib/microlib/stdio/fputc.c           0x00000000   Number         0  fputc.o ABSOLUTE
    ../clib/microlib/stdio/semi.s            0x00000000   Number         0  semi.o ABSOLUTE
    ../clib/microlib/stdio/streams.c         0x00000000   Number         0  stdout.o ABSOLUTE
    ../clib/microlib/string/memcmp.c         0x00000000   Number         0  memcmp.o ABSOLUTE
    ../clib/microlib/string/memcpy.c         0x00000000   Number         0  memcpya.o ABSOLUTE
    ../clib/microlib/string/memcpy.c         0x00000000   Number         0  memcpyb.o ABSOLUTE
    ../clib/microlib/string/memset.c         0x00000000   Number         0  memseta.o ABSOLUTE
    ../clib/microlib/stubs.s                 0x00000000   Number         0  iusefp.o ABSOLUTE
    ../clib/microlib/stubs.s                 0x00000000   Number         0  iusesemip.o ABSOLUTE
    ../clib/microlib/unhosted.c              0x00000000   Number         0  uread4.o ABSOLUTE
    ../clib/microlib/unhosted.c              0x00000000   Number         0  uwrite4.o ABSOLUTE
    ../fplib/microlib/f2d.c                  0x00000000   Number         0  f2d.o ABSOLUTE
    ../fplib/microlib/fpadd.c                0x00000000   Number         0  dadd.o ABSOLUTE
    ../fplib/microlib/fpadd.c                0x00000000   Number         0  fadd.o ABSOLUTE
    ../fplib/microlib/fpdiv.c                0x00000000   Number         0  ddiv.o ABSOLUTE
    ../fplib/microlib/fpepilogue.c           0x00000000   Number         0  fepilogue.o ABSOLUTE
    ../fplib/microlib/fpepilogue.c           0x00000000   Number         0  depilogue.o ABSOLUTE
    ../fplib/microlib/fpfix.c                0x00000000   Number         0  dfixul.o ABSOLUTE
    ../fplib/microlib/fpfix.c                0x00000000   Number         0  dfixui.o ABSOLUTE
    ../fplib/microlib/fpflt.c                0x00000000   Number         0  ffltui.o ABSOLUTE
    ../fplib/microlib/fpflt.c                0x00000000   Number         0  dflti.o ABSOLUTE
    ../fplib/microlib/fpflt.c                0x00000000   Number         0  dfltui.o ABSOLUTE
    ../fplib/microlib/fpmul.c                0x00000000   Number         0  dmul.o ABSOLUTE
    ..\..\..\Driver\debug.c                  0x00000000   Number         0  debug.o ABSOLUTE
    ..\..\..\Driver\delay.c                  0x00000000   Number         0  delay.o ABSOLUTE
    ..\..\..\Driver\gpio.c                   0x00000000   Number         0  gpio.o ABSOLUTE
    ..\..\..\Driver\pwm.c                    0x00000000   Number         0  pwm.o ABSOLUTE
    ..\..\..\Driver\timer.c                  0x00000000   Number         0  timer.o ABSOLUTE
    ..\..\..\Driver\uart.c                   0x00000000   Number         0  uart.o ABSOLUTE
    ..\\..\\..\\Driver\\debug.c              0x00000000   Number         0  debug.o ABSOLUTE
    ..\\..\\..\\Driver\\delay.c              0x00000000   Number         0  delay.o ABSOLUTE
    ..\\..\\..\\Driver\\gpio.c               0x00000000   Number         0  gpio.o ABSOLUTE
    ..\\..\\..\\Driver\\pwm.c                0x00000000   Number         0  pwm.o ABSOLUTE
    ..\\..\\..\\Driver\\timer.c              0x00000000   Number         0  timer.o ABSOLUTE
    ..\\..\\..\\Driver\\uart.c               0x00000000   Number         0  uart.o ABSOLUTE
    ..\\main.c                               0x00000000   Number         0  main.o ABSOLUTE
    ..\main.c                                0x00000000   Number         0  main.o ABSOLUTE
    Main\\main.c                             0x00000000   Number         0  main.o ABSOLUTE
    Main\main.c                              0x00000000   Number         0  main.o ABSOLUTE
    RTE\Device\ARMCM0\startup_ARMCM0.s       0x00000000   Number         0  startup_armcm0.o ABSOLUTE
    RTE\Device\ARMCM0\system_ARMCM0.c        0x00000000   Number         0  system_armcm0.o ABSOLUTE
    RTE\\Device\\ARMCM0\\system_ARMCM0.c     0x00000000   Number         0  system_armcm0.o ABSOLUTE
    cdrcmple.s                               0x00000000   Number         0  cdrcmple.o ABSOLUTE
    dc.s                                     0x00000000   Number         0  dc.o ABSOLUTE
    handlers.s                               0x00000000   Number         0  handlers.o ABSOLUTE
    init.s                                   0x00000000   Number         0  init.o ABSOLUTE
    RESET                                    0x10000000   Section      192  startup_armcm0.o(RESET)
    .ARM.Collect$$$$00000000                 0x100000c0   Section        0  entry.o(.ARM.Collect$$$$00000000)
    .ARM.Collect$$$$00000001                 0x100000c0   Section        4  entry2.o(.ARM.Collect$$$$00000001)
    .ARM.Collect$$$$00000004                 0x100000c4   Section        4  entry5.o(.ARM.Collect$$$$00000004)
    .ARM.Collect$$$$00000008                 0x100000c8   Section        0  entry7b.o(.ARM.Collect$$$$00000008)
    .ARM.Collect$$$$0000000A                 0x100000c8   Section        0  entry8b.o(.ARM.Collect$$$$0000000A)
    .ARM.Collect$$$$0000000B                 0x100000c8   Section        8  entry9a.o(.ARM.Collect$$$$0000000B)
    .ARM.Collect$$$$0000000D                 0x100000d0   Section        0  entry10a.o(.ARM.Collect$$$$0000000D)
    .ARM.Collect$$$$0000000F                 0x100000d0   Section        0  entry11a.o(.ARM.Collect$$$$0000000F)
    .ARM.Collect$$$$00002712                 0x100000d0   Section        4  entry2.o(.ARM.Collect$$$$00002712)
    __lit__00000000                          0x100000d0   Data           4  entry2.o(.ARM.Collect$$$$00002712)
    .text                                    0x100000d4   Section        0  main.o(.text)
    .text                                    0x100001d0   Section        0  debug.o(.text)
    .text                                    0x10000260   Section        0  uart.o(.text)
    __NVIC_DisableIRQ                        0x10000261   Thumb Code    50  uart.o(.text)
    __NVIC_EnableIRQ                         0x10000735   Thumb Code    26  uart.o(.text)
    .text                                    0x10000758   Section        0  gpio.o(.text)
    .text                                    0x10000ce4   Section        0  pwm.o(.text)
    .text                                    0x100010d4   Section        0  timer.o(.text)
    __NVIC_DisableIRQ                        0x100010d5   Thumb Code    50  timer.o(.text)
    __NVIC_EnableIRQ                         0x10001633   Thumb Code    26  timer.o(.text)
    .text                                    0x10001660   Section        0  delay.o(.text)
    .text                                    0x1000169c   Section       28  startup_armcm0.o(.text)
    .text                                    0x100016b8   Section        0  system_armcm0.o(.text)
    .text                                    0x100016d0   Section        0  main.o(.text)
    _LCDisConnect                            0x100016d1   Thumb Code    46  main.o(.text)
    _LCTimer_Handler                         0x100016ff   Thumb Code   248  main.o(.text)
    _LCRxPkt_Handler                         0x1000184b   Thumb Code   294  main.o(.text)
    _LCTxPkt_Handler                         0x10001971   Thumb Code   380  main.o(.text)
    _LLENCReq                                0x10002257   Thumb Code   286  main.o(.text)
    _GAPStartAdv                             0x100028b7   Thumb Code   558  main.o(.text)
    WaitLLCOverSlpth                         0x10003ce3   Thumb Code    38  main.o(.text)
    _BBRXFIFORead                            0x10003d09   Thumb Code   172  main.o(.text)
    _rom_rx_sweyntooth_protect               0x10003db5   Thumb Code   150  main.o(.text)
    STKSetRand                               0x10003e4b   Thumb Code    30  main.o(.text)
    AttWriteFlash                            0x10003e69   Thumb Code   110  main.o(.text)
    GetOverSlpth                             0x10003ed7   Thumb Code    26  main.o(.text)
    .text                                    0x10003f00   Section        0  uidiv.o(.text)
    .text                                    0x10003f2c   Section        0  idiv.o(.text)
    .text                                    0x10003f54   Section        0  memcpya.o(.text)
    .text                                    0x10003f78   Section        0  memseta.o(.text)
    .text                                    0x10003f9c   Section        0  memcmp.o(.text)
    .text                                    0x10003fb6   Section        0  uread4.o(.text)
    .text                                    0x10003fca   Section        0  uwrite4.o(.text)
    .text                                    0x10003fdc   Section        0  fadd.o(.text)
    .text                                    0x10004090   Section        0  dadd.o(.text)
    .text                                    0x100041f4   Section        0  dmul.o(.text)
    .text                                    0x100042c4   Section        0  ddiv.o(.text)
    .text                                    0x100043b4   Section        0  ffltui.o(.text)
    .text                                    0x100043c4   Section        0  dflti.o(.text)
    .text                                    0x100043ec   Section        0  dfltui.o(.text)
    .text                                    0x10004408   Section        0  dfixui.o(.text)
    .text                                    0x10004444   Section        0  f2d.o(.text)
    .text                                    0x1000446c   Section        0  uldiv.o(.text)
    .text                                    0x100044cc   Section        0  llshl.o(.text)
    .text                                    0x100044ec   Section        0  llushr.o(.text)
    .text                                    0x1000450e   Section        0  llsshr.o(.text)
    .text                                    0x10004534   Section        0  fepilogue.o(.text)
    .text                                    0x10004534   Section        0  iusefp.o(.text)
    .text                                    0x100045b6   Section        0  depilogue.o(.text)
    .text                                    0x10004674   Section        0  dfixul.o(.text)
    .text                                    0x100046b4   Section       40  cdrcmple.o(.text)
    .text                                    0x100046dc   Section       36  init.o(.text)
    i.__0vsprintf                            0x10004700   Section        0  printfa.o(i.__0vsprintf)
    i.__ARM_clz                              0x10004724   Section        0  depilogue.o(i.__ARM_clz)
    i.__ARM_common_switch8                   0x10004752   Section        0  main.o(i.__ARM_common_switch8)
    i.__scatterload_copy                     0x1000476c   Section       14  handlers.o(i.__scatterload_copy)
    i.__scatterload_null                     0x1000477a   Section        2  handlers.o(i.__scatterload_null)
    i.__scatterload_zeroinit                 0x1000477c   Section       14  handlers.o(i.__scatterload_zeroinit)
    i._fp_digits                             0x1000478c   Section        0  printfa.o(i._fp_digits)
    _fp_digits                               0x1000478d   Thumb Code   316  printfa.o(i._fp_digits)
    i._printf_core                           0x100048e4   Section        0  printfa.o(i._printf_core)
    _printf_core                             0x100048e5   Thumb Code  1754  printfa.o(i._printf_core)
    i._printf_post_padding                   0x10004fd0   Section        0  printfa.o(i._printf_post_padding)
    _printf_post_padding                     0x10004fd1   Thumb Code    32  printfa.o(i._printf_post_padding)
    i._printf_pre_padding                    0x10004ff0   Section        0  printfa.o(i._printf_pre_padding)
    _printf_pre_padding                      0x10004ff1   Thumb Code    44  printfa.o(i._printf_pre_padding)
    i._sputc                                 0x1000501c   Section        0  printfa.o(i._sputc)
    _sputc                                   0x1000501d   Thumb Code    10  printfa.o(i._sputc)
    .constdata                               0x10005026   Section    315412  main.o(.constdata)
    .constdata                               0x1005203a   Section       40  main.o(.constdata)
    _ll_packet_length                        0x1005203d   Data          15  main.o(.constdata)
    _smp_packet_lenght                       0x1005204c   Data          22  main.o(.constdata)
    .data                                    0x20003000   Section        4  main.o(.data)
    .data                                    0x20003004   Section        8  uart.o(.data)
    UART_0_CTRL                              0x20003004   Data           4  uart.o(.data)
    UART_1_CTRL                              0x20003008   Data           4  uart.o(.data)
    .data                                    0x2000300c   Section       72  gpio.o(.data)
    gpio_callback                            0x20003020   Data           4  gpio.o(.data)
    pinmuxtab48                              0x20003024   Data          24  gpio.o(.data)
    pinmuxtab32                              0x2000303c   Data          24  gpio.o(.data)
    .data                                    0x20003054   Section        8  pwm.o(.data)
    compare                                  0x20003054   Data           2  pwm.o(.data)
    t                                        0x20003058   Data           4  pwm.o(.data)
    .data                                    0x2000305c   Section       12  timer.o(.data)
    TIMER_CTRL                               0x2000305c   Data           4  timer.o(.data)
    H_TIMER_CTRL                             0x20003060   Data           4  timer.o(.data)
    htimer_callback                          0x20003064   Data           4  timer.o(.data)
    .data                                    0x20003068   Section        4  system_armcm0.o(.data)
    .data                                    0x2000306c   Section       64  main.o(.data)
    syd_confirm                              0x2000306c   Data           1  main.o(.data)
    ww_minus_cnt                             0x2000306d   Data           1  main.o(.data)
    ext_uart_en                              0x2000306e   Data           1  main.o(.data)
    get_bond_device_idx                      0x2000306f   Data           1  main.o(.data)
    _valid_l2cap_lenght                      0x20003071   Data           1  main.o(.data)
    rssi_rx                                  0x20003073   Data           1  main.o(.data)
    p_flash_hdr                              0x20003074   Data           4  main.o(.data)
    p_lclink                                 0x20003078   Data           4  main.o(.data)
    p_txpdu                                  0x2000307c   Data           4  main.o(.data)
    p_rxbuf                                  0x20003080   Data           4  main.o(.data)
    p_flash                                  0x20003084   Data           4  main.o(.data)
    p_dump_key                               0x2000308c   Data           4  main.o(.data)
    EFUSE_CTRL                               0x20003090   Data           4  main.o(.data)
    BB_CTRL                                  0x20003094   Data           4  main.o(.data)
    PW_CTRL                                  0x20003098   Data           4  main.o(.data)
    PIN_CONFIG                               0x2000309c   Data           4  main.o(.data)
    CONFIG_FLASH_SIZE                        0x200030a0   Data           4  main.o(.data)
    g_evt                                    0x200030a4   Data           8  main.o(.data)
    .bss                                     0x200030ac   Section      128  debug.o(.bss)
    s_formatBuffer                           0x200030ac   Data         128  debug.o(.bss)
    .bss                                     0x2000312c   Section       12  timer.o(.bss)
    timer_callback                           0x2000312c   Data          12  timer.o(.bss)
    .bss                                     0x20003138   Section      104  main.o(.bss)
    code_hdr                                 0x20003138   Data          87  main.o(.bss)
    smart_update_ctrol                       0x2000318f   Data          17  main.o(.bss)
    STACK                                    0x200031a0   Section     1024  startup_armcm0.o(STACK)

    Global Symbols

    Symbol Name                              Value     Ov Type        Size  Object(Section)

    BuildAttributes$$THM_ISAv3M$S$PE$A:L22$X:L11$S22$IEEE1$IW$USESV6$~STKCKD$USESV7$~SHL$OTIME$ROPI$EBA8$MICROLIB$REQ8$PRES8$EABIv2 0x00000000   Number         0  anon$$obj.o ABSOLUTE
    __ARM_use_no_argv                        0x00000000   Number         0  main.o ABSOLUTE
    __cpp_initialize__aeabi_                  - Undefined Weak Reference
    __cxa_finalize                            - Undefined Weak Reference
    __decompress                              - Undefined Weak Reference
    _clock_init                               - Undefined Weak Reference
    _microlib_exit                            - Undefined Weak Reference
    __Vectors_Size                           0x000000c0   Number         0  startup_armcm0.o ABSOLUTE
    __Vectors                                0x10000000   Data           4  startup_armcm0.o(RESET)
    __Vectors_End                            0x100000c0   Data           0  startup_armcm0.o(RESET)
    __main                                   0x100000c1   Thumb Code     0  entry.o(.ARM.Collect$$$$00000000)
    _main_stk                                0x100000c1   Thumb Code     0  entry2.o(.ARM.Collect$$$$00000001)
    _main_scatterload                        0x100000c5   Thumb Code     0  entry5.o(.ARM.Collect$$$$00000004)
    __main_after_scatterload                 0x100000c9   Thumb Code     0  entry5.o(.ARM.Collect$$$$00000004)
    _main_clock                              0x100000c9   Thumb Code     0  entry7b.o(.ARM.Collect$$$$00000008)
    _main_cpp_init                           0x100000c9   Thumb Code     0  entry8b.o(.ARM.Collect$$$$0000000A)
    _main_init                               0x100000c9   Thumb Code     0  entry9a.o(.ARM.Collect$$$$0000000B)
    __rt_final_cpp                           0x100000d1   Thumb Code     0  entry10a.o(.ARM.Collect$$$$0000000D)
    __rt_final_exit                          0x100000d1   Thumb Code     0  entry11a.o(.ARM.Collect$$$$0000000F)
    HPWM_Handler                             0x100000d5   Thumb Code    30  main.o(.text)
    syd_time1_cb                             0x100000f3   Thumb Code    50  main.o(.text)
    main                                     0x10000125   Thumb Code    94  main.o(.text)
    dbg_init                                 0x100001d1   Thumb Code     8  debug.o(.text)
    dbg_printf                               0x100001d9   Thumb Code    72  debug.o(.text)
    dbg_hexdump                              0x10000221   Thumb Code    46  debug.o(.text)
    uart_0_init                              0x10000293   Thumb Code   340  uart.o(.text)
    uart_0_write                             0x100003e7   Thumb Code    40  uart.o(.text)
    uart_0_read                              0x1000040f   Thumb Code    72  uart.o(.text)
    uart_0_close                             0x10000457   Thumb Code    26  uart.o(.text)
    UART0_IRQHandler                         0x10000471   Thumb Code   106  uart.o(.text)
    uart_1_init                              0x100004db   Thumb Code   340  uart.o(.text)
    uart_1_write                             0x1000062f   Thumb Code    58  uart.o(.text)
    uart_1_read                              0x10000669   Thumb Code    72  uart.o(.text)
    uart_1_close                             0x100006b1   Thumb Code    26  uart.o(.text)
    UART1_IRQHandler                         0x100006cb   Thumb Code   106  uart.o(.text)
    PIN_Set_GPIO                             0x10000759   Thumb Code    50  gpio.o(.text)
    PIN_Pullup_Enable                        0x1000078b   Thumb Code   150  gpio.o(.text)
    PIN_Pullup_Disable                       0x10000821   Thumb Code   148  gpio.o(.text)
    GPIO_Set_Output                          0x100008b5   Thumb Code    50  gpio.o(.text)
    GPIO_Set_Input                           0x100008e7   Thumb Code   200  gpio.o(.text)
    GPIO_Set_Input_DIR                       0x100009af   Thumb Code    50  gpio.o(.text)
    GPIO_Input_Enable                        0x100009e1   Thumb Code    50  gpio.o(.text)
    GPIO_Input_Disable                       0x10000a13   Thumb Code    50  gpio.o(.text)
    GPIO_Pin_Set                             0x10000a45   Thumb Code    50  gpio.o(.text)
    GPIO_Pin_Clear                           0x10000a77   Thumb Code    50  gpio.o(.text)
    GPIO_Pin_Turn                            0x10000aa9   Thumb Code    50  gpio.o(.text)
    GPIO_Pin_Read                            0x10000adb   Thumb Code    34  gpio.o(.text)
    io_irq_enable                            0x10000afd   Thumb Code   192  gpio.o(.text)
    io_irq_disable                           0x10000bbd   Thumb Code    52  gpio.o(.text)
    io_irq_disable_all                       0x10000bf1   Thumb Code   100  gpio.o(.text)
    GPIO_IRQHandler                          0x10000c55   Thumb Code   132  gpio.o(.text)
    pwm_enable                               0x10000ce5   Thumb Code   192  pwm.o(.text)
    pwm_disable                              0x10000da5   Thumb Code    72  pwm.o(.text)
    Hpwm_Stop                                0x10000ded   Thumb Code    16  pwm.o(.text)
    Hpwm_Init                                0x10000dfd   Thumb Code   408  pwm.o(.text)
    Hpwm_Set_duty                            0x10000f95   Thumb Code   114  pwm.o(.text)
    Hpwm_Set_period                          0x10001007   Thumb Code    18  pwm.o(.text)
    Hpwm_Set_mode                            0x10001019   Thumb Code    20  pwm.o(.text)
    Hpwm_Start                               0x1000102d   Thumb Code    16  pwm.o(.text)
    HPWM_IRQHandler                          0x1000103d   Thumb Code    84  pwm.o(.text)
    timer_0_enable                           0x10001107   Thumb Code   166  timer.o(.text)
    timer_0_get_val                          0x100011ad   Thumb Code    32  timer.o(.text)
    timer_0_disable                          0x100011cd   Thumb Code    52  timer.o(.text)
    timer_0_delay_32us                       0x10001201   Thumb Code   148  timer.o(.text)
    TIMER0_IRQHandler                        0x10001295   Thumb Code    56  timer.o(.text)
    timer_1_enable                           0x100012cd   Thumb Code   166  timer.o(.text)
    timer_1_get_val                          0x10001373   Thumb Code    34  timer.o(.text)
    timer_1_disable                          0x10001395   Thumb Code    52  timer.o(.text)
    TIMER1_IRQHandler                        0x100013c9   Thumb Code    56  timer.o(.text)
    timer_2_enable                           0x10001401   Thumb Code   166  timer.o(.text)
    timer_2_get_val                          0x100014a7   Thumb Code    46  timer.o(.text)
    timer_2_disable                          0x100014d5   Thumb Code    52  timer.o(.text)
    TIMER2_IRQHandler                        0x10001509   Thumb Code    56  timer.o(.text)
    Htimer_enable                            0x10001541   Thumb Code   146  timer.o(.text)
    Htimer_get_val                           0x100015d3   Thumb Code    14  timer.o(.text)
    Htimer_disable                           0x100015e1   Thumb Code    36  timer.o(.text)
    HTIMER_IRQHandler                        0x10001605   Thumb Code    46  timer.o(.text)
    delay_ms                                 0x10001661   Thumb Code    28  delay.o(.text)
    delay_us                                 0x1000167d   Thumb Code    26  delay.o(.text)
    Reset_Handler                            0x1000169d   Thumb Code     8  startup_armcm0.o(.text)
    NMI_Handler                              0x100016a5   Thumb Code     2  startup_armcm0.o(.text)
    HardFault_Handler                        0x100016a7   Thumb Code     2  startup_armcm0.o(.text)
    SVC_Handler                              0x100016a9   Thumb Code     2  startup_armcm0.o(.text)
    PendSV_Handler                           0x100016ab   Thumb Code     2  startup_armcm0.o(.text)
    SysTick_Handler                          0x100016ad   Thumb Code     2  startup_armcm0.o(.text)
    CAP_IRQHandler                           0x100016af   Thumb Code     0  startup_armcm0.o(.text)
    GPADC_IRQHandler                         0x100016af   Thumb Code     0  startup_armcm0.o(.text)
    HID_IRQHandler                           0x100016af   Thumb Code     0  startup_armcm0.o(.text)
    I2C0_IRQHandler                          0x100016af   Thumb Code     0  startup_armcm0.o(.text)
    I2C1_IRQHandler                          0x100016af   Thumb Code     0  startup_armcm0.o(.text)
    IR_Rx_IRQHandler                         0x100016af   Thumb Code     0  startup_armcm0.o(.text)
    IR_Tx_IRQHandler                         0x100016af   Thumb Code     0  startup_armcm0.o(.text)
    ISO_7816_IRQHandler                      0x100016af   Thumb Code     0  startup_armcm0.o(.text)
    LLC2_IRQHandler                          0x100016af   Thumb Code     0  startup_armcm0.o(.text)
    LLC_IRQHandler                           0x100016af   Thumb Code     0  startup_armcm0.o(.text)
    RTC_IRQHandler                           0x100016af   Thumb Code     0  startup_armcm0.o(.text)
    SPIM_IRQHandler                          0x100016af   Thumb Code     0  startup_armcm0.o(.text)
    SW_IRQHandler                            0x100016af   Thumb Code     0  startup_armcm0.o(.text)
    TIMER3_IRQHandler                        0x100016af   Thumb Code     0  startup_armcm0.o(.text)
    TOUCH_IRQHandler                         0x100016af   Thumb Code     0  startup_armcm0.o(.text)
    SystemCoreClockUpdate                    0x100016b9   Thumb Code     8  system_armcm0.o(.text)
    SystemInit                               0x100016c1   Thumb Code     8  system_armcm0.o(.text)
    LLPingReq                                0x100017f7   Thumb Code    26  main.o(.text)
    LLScanReqHandle                          0x10001811   Thumb Code    58  main.o(.text)
    _BBGetMask                               0x10001aed   Thumb Code    92  main.o(.text)
    Lib_LLEvtCallback                        0x10001b49   Thumb Code   186  main.o(.text)
    ConnectionLatencyMode                    0x10001c03   Thumb Code   112  main.o(.text)
    sw_timer_latency_callback                0x10001c73   Thumb Code    42  main.o(.text)
    TimerStart                               0x10001c9d   Thumb Code    10  main.o(.text)
    smart_latency_start                      0x10001ca7   Thumb Code   212  main.o(.text)
    smart_update_latency_updatersp           0x10001d7b   Thumb Code   162  main.o(.text)
    BBRFRead                                 0x10001e1d   Thumb Code     4  main.o(.text)
    BBRFWrite                                0x10001e21   Thumb Code     6  main.o(.text)
    RCOSCCalibration                         0x10001e27   Thumb Code    64  main.o(.text)
    RFSleep                                  0x10001e67   Thumb Code    10  main.o(.text)
    UartEn                                   0x10001e71   Thumb Code    32  main.o(.text)
    _SYS32kClockSwitch                       0x10001e91   Thumb Code   270  main.o(.text)
    ClockSwitch                              0x10001f9f   Thumb Code    10  main.o(.text)
    RFWakeup                                 0x10001fa9   Thumb Code    22  main.o(.text)
    LPOCalibration                           0x10001fbf   Thumb Code   254  main.o(.text)
    smart_latency_clear                      0x100020bd   Thumb Code    12  main.o(.text)
    Lib_EvtCallback                          0x100020c9   Thumb Code   254  main.o(.text)
    _BMGetNextBondDevice                     0x100021c7   Thumb Code   144  main.o(.text)
    __LLVersionIndRxHandler                  0x10002375   Thumb Code    66  main.o(.text)
    GetMasterSystem                          0x100023b7   Thumb Code     6  main.o(.text)
    TimerStop                                0x100023bd   Thumb Code     4  main.o(.text)
    smart_update_retry                       0x100023c1   Thumb Code   158  main.o(.text)
    sw_timer_update_callback                 0x1000245f   Thumb Code    60  main.o(.text)
    smart_update_latency_updatareq           0x1000249b   Thumb Code   496  main.o(.text)
    Lib_ProtocolHookCallback                 0x1000268b   Thumb Code   116  main.o(.text)
    Lib_MiscCallback                         0x100026ff   Thumb Code    14  main.o(.text)
    BleInit                                  0x1000270d   Thumb Code   344  main.o(.text)
    DisConnect                               0x10002865   Thumb Code    10  main.o(.text)
    SetDevAddr                               0x1000286f   Thumb Code    12  main.o(.text)
    GetDevAddr                               0x1000287b   Thumb Code    12  main.o(.text)
    SetLEFeature                             0x10002887   Thumb Code    12  main.o(.text)
    SetAdvAccCode                            0x10002893   Thumb Code    12  main.o(.text)
    SetAdvParams                             0x1000289f   Thumb Code    12  main.o(.text)
    SetAdvData                               0x100028ab   Thumb Code    12  main.o(.text)
    StartAdv                                 0x10002ae5   Thumb Code    10  main.o(.text)
    StopAdv                                  0x10002aef   Thumb Code    24  main.o(.text)
    StopAdv_Noreset                          0x10002b07   Thumb Code    38  main.o(.text)
    SetScanParams                            0x10002b2d   Thumb Code    10  main.o(.text)
    _BBSetScan                               0x10002b37   Thumb Code    46  main.o(.text)
    _GAPStartScan                            0x10002b65   Thumb Code   254  main.o(.text)
    StartScan                                0x10002c63   Thumb Code    10  main.o(.text)
    StopScan                                 0x10002c6d   Thumb Code    10  main.o(.text)
    SetSecParams                             0x10002c77   Thumb Code    12  main.o(.text)
    SetConnectionUpdate                      0x10002c83   Thumb Code    12  main.o(.text)
    GetLinkParameters                        0x10002c8f   Thumb Code    12  main.o(.text)
    SetWinWideMinusCnt                       0x10002c9b   Thumb Code     8  main.o(.text)
    SetPasskey                               0x10002ca3   Thumb Code    12  main.o(.text)
    SecurityReq                              0x10002caf   Thumb Code    12  main.o(.text)
    SetEvtCallback                           0x10002cbb   Thumb Code    54  main.o(.text)
    GetGATTReportHandle                      0x10002cf1   Thumb Code    10  main.o(.text)
    SetGATTReadRsp                           0x10002cfb   Thumb Code    12  main.o(.text)
    CheckFIFOFull                            0x10002d07   Thumb Code    18  main.o(.text)
    GATTDataSend                             0x10002d19   Thumb Code    86  main.o(.text)
    ATTCSetCallback                          0x10002d6f   Thumb Code     4  main.o(.text)
    ATTCMTUReq                               0x10002d73   Thumb Code    24  main.o(.text)
    ATTCFindInfoReq                          0x10002d8b   Thumb Code    28  main.o(.text)
    ATTCFindByTypeValueReq                   0x10002da7   Thumb Code    40  main.o(.text)
    ATTCReadByTypeReq                        0x10002dcf   Thumb Code    36  main.o(.text)
    ATTCReadReq                              0x10002df3   Thumb Code    24  main.o(.text)
    ATTCReadBlobReq                          0x10002e0b   Thumb Code    28  main.o(.text)
    ATTCReadMultipleReq                      0x10002e27   Thumb Code    28  main.o(.text)
    ATTCReadByGroupTypeReq                   0x10002e43   Thumb Code    34  main.o(.text)
    ATTCWriteReq                             0x10002e65   Thumb Code    32  main.o(.text)
    ATTCWriteCmdReq                          0x10002e85   Thumb Code    32  main.o(.text)
    ATTCPrepareWriteReq                      0x10002ea5   Thumb Code    36  main.o(.text)
    ATTCExecuteWriteReq                      0x10002ec9   Thumb Code    24  main.o(.text)
    ATTCConfirmation                         0x10002ee1   Thumb Code    20  main.o(.text)
    _SYSClockSwitch                          0x10002ef5   Thumb Code    86  main.o(.text)
    MCUClockSwitch                           0x10002f4b   Thumb Code     2  main.o(.text)
    GetMCUClock                              0x10002f4d   Thumb Code    14  main.o(.text)
    GetClock                                 0x10002f5b   Thumb Code    16  main.o(.text)
    WakeupConfig                             0x10002f6b   Thumb Code    12  main.o(.text)
    LLSleep                                  0x10002f77   Thumb Code    12  main.o(.text)
    Rand                                     0x10002f83   Thumb Code     4  main.o(.text)
    DelayUS                                  0x10002f87   Thumb Code     4  main.o(.text)
    DelayMS                                  0x10002f8b   Thumb Code     6  main.o(.text)
    GetCompanyID                             0x10002f91   Thumb Code    18  main.o(.text)
    GetQFNType                               0x10002fa3   Thumb Code    20  main.o(.text)
    RFRead                                   0x10002fb7   Thumb Code    70  main.o(.text)
    RFWrite                                  0x10002ffd   Thumb Code     8  main.o(.text)
    lib_check_ble_fsm_state                  0x10003005   Thumb Code    26  main.o(.text)
    SystemSleep                              0x1000301f   Thumb Code    18  main.o(.text)
    SystemPowerDown                          0x10003031   Thumb Code    78  main.o(.text)
    SystemReset                              0x1000307f   Thumb Code    12  main.o(.text)
    CapdetEn                                 0x1000308b   Thumb Code    10  main.o(.text)
    PowerDownLPOEn                           0x10003095   Thumb Code    12  main.o(.text)
    SetBondManagerIndex                      0x100030a1   Thumb Code    12  main.o(.text)
    GetBondDevice                            0x100030ad   Thumb Code     6  main.o(.text)
    AddBondDevice                            0x100030b3   Thumb Code    12  main.o(.text)
    DelAllBondDevice                         0x100030bf   Thumb Code    10  main.o(.text)
    DelBondDevice                            0x100030c9   Thumb Code    12  main.o(.text)
    ReadProfileData                          0x100030d5   Thumb Code     6  main.o(.text)
    WriteProfileData                         0x100030db   Thumb Code     6  main.o(.text)
    EraseFlashData                           0x100030e1   Thumb Code    78  main.o(.text)
    ReadFlashData                            0x1000312f   Thumb Code    56  main.o(.text)
    WriteFlashData                           0x10003167   Thumb Code    56  main.o(.text)
    CodeErase                                0x1000319f   Thumb Code   100  main.o(.text)
    CodeErase_sector                         0x10003203   Thumb Code    72  main.o(.text)
    _FMCodeWrite                             0x1000324b   Thumb Code    58  main.o(.text)
    CodeWrite                                0x10003285   Thumb Code    30  main.o(.text)
    CodeUpdate                               0x100032a3   Thumb Code    10  main.o(.text)
    FlashDataUpdate                          0x100032ad   Thumb Code   124  main.o(.text)
    ble_sched_execute                        0x10003329   Thumb Code   150  main.o(.text)
    ble_sched_finish                         0x100033bf   Thumb Code     4  main.o(.text)
    syd52832_chip_confirm                    0x100033c3   Thumb Code    26  main.o(.text)
    gap_s_smart_update_latency               0x100033dd   Thumb Code   246  main.o(.text)
    eFuseManual                              0x100034d3   Thumb Code    28  main.o(.text)
    GPADC_Manual_Calibration                 0x100034ef   Thumb Code    34  main.o(.text)
    GPADC_Get_Calibration                    0x10003511   Thumb Code    22  main.o(.text)
    GAPGetUartEn                             0x10003527   Thumb Code     6  main.o(.text)
    GAPUartEn                                0x1000352d   Thumb Code     6  main.o(.text)
    GAPBBDelayUS                             0x10003533   Thumb Code     4  main.o(.text)
    GAPBBDelayMS                             0x10003537   Thumb Code     6  main.o(.text)
    GAPGetRFAutoSleep                        0x1000353d   Thumb Code     4  main.o(.text)
    GAPSetRFAutoSleep                        0x10003541   Thumb Code     6  main.o(.text)
    Setting4kUpdate                          0x10003547   Thumb Code   116  main.o(.text)
    SetDevAddr_toflash                       0x100035bb   Thumb Code    72  main.o(.text)
    gap_s_verdor_datas_get                   0x10003603   Thumb Code    28  main.o(.text)
    gap_s_verdor_datas_set                   0x1000361f   Thumb Code    66  main.o(.text)
    gap_s_is_ll_start_enc                    0x10003661   Thumb Code    26  main.o(.text)
    GAPBBTXFIFO0Write                        0x1000367b   Thumb Code     4  main.o(.text)
    flash_peotect_key_confirm                0x1000367f   Thumb Code   148  main.o(.text)
    swd_lock                                 0x10003713   Thumb Code    36  main.o(.text)
    flash_data_offect_get                    0x10003737   Thumb Code    52  main.o(.text)
    EraseCodeB                               0x1000376b   Thumb Code    58  main.o(.text)
    ReadCodeB                                0x100037a5   Thumb Code    64  main.o(.text)
    WriteCodeB                               0x100037e5   Thumb Code    96  main.o(.text)
    ble_SetTxPower                           0x10003845   Thumb Code   248  main.o(.text)
    flash_data_size_get                      0x1000393d   Thumb Code    18  main.o(.text)
    code_idx_get                             0x1000394f   Thumb Code     6  main.o(.text)
    flash_data_size_set                      0x10003955   Thumb Code   146  main.o(.text)
    Get_RSSI_Last_RX                         0x100039e7   Thumb Code    82  main.o(.text)
    APP_Read_Attribute_Encrypt               0x10003a39   Thumb Code    62  main.o(.text)
    APP_Write_Attribute_Encrypt              0x10003a77   Thumb Code    66  main.o(.text)
    APP_Read_Charact_Permission              0x10003ab9   Thumb Code    66  main.o(.text)
    smart_latency_target                     0x10003afb   Thumb Code    30  main.o(.text)
    smp_aes_encrypt                          0x10003b19   Thumb Code     4  main.o(.text)
    gap_get_flash_data_info                  0x10003b1d   Thumb Code    26  main.o(.text)
    gap_set_flash_data_info                  0x10003b37   Thumb Code    70  main.o(.text)
    gap_check_dev_bonded                     0x10003b7d   Thumb Code     6  main.o(.text)
    syd_set_chip_flash_all_size              0x10003b83   Thumb Code     6  main.o(.text)
    Xtal_trim_get                            0x10003b89   Thumb Code   106  main.o(.text)
    Xtal_trim_set                            0x10003bf3   Thumb Code   164  main.o(.text)
    flash_read_sfdp                          0x10003c97   Thumb Code    46  main.o(.text)
    syd_read_unique_id                       0x10003cc5   Thumb Code    30  main.o(.text)
    __aeabi_uidiv                            0x10003f01   Thumb Code     0  uidiv.o(.text)
    __aeabi_uidivmod                         0x10003f01   Thumb Code    44  uidiv.o(.text)
    __aeabi_idiv                             0x10003f2d   Thumb Code     0  idiv.o(.text)
    __aeabi_idivmod                          0x10003f2d   Thumb Code    40  idiv.o(.text)
    __aeabi_memcpy                           0x10003f55   Thumb Code    36  memcpya.o(.text)
    __aeabi_memcpy4                          0x10003f55   Thumb Code     0  memcpya.o(.text)
    __aeabi_memcpy8                          0x10003f55   Thumb Code     0  memcpya.o(.text)
    __aeabi_memset                           0x10003f79   Thumb Code    14  memseta.o(.text)
    __aeabi_memset4                          0x10003f79   Thumb Code     0  memseta.o(.text)
    __aeabi_memset8                          0x10003f79   Thumb Code     0  memseta.o(.text)
    __aeabi_memclr                           0x10003f87   Thumb Code     4  memseta.o(.text)
    __aeabi_memclr4                          0x10003f87   Thumb Code     0  memseta.o(.text)
    __aeabi_memclr8                          0x10003f87   Thumb Code     0  memseta.o(.text)
    _memset$wrapper                          0x10003f8b   Thumb Code    18  memseta.o(.text)
    memcmp                                   0x10003f9d   Thumb Code    26  memcmp.o(.text)
    __aeabi_uread4                           0x10003fb7   Thumb Code    20  uread4.o(.text)
    __rt_uread4                              0x10003fb7   Thumb Code     0  uread4.o(.text)
    _uread4                                  0x10003fb7   Thumb Code     0  uread4.o(.text)
    __aeabi_uwrite4                          0x10003fcb   Thumb Code    18  uwrite4.o(.text)
    __rt_uwrite4                             0x10003fcb   Thumb Code     0  uwrite4.o(.text)
    _uwrite4                                 0x10003fcb   Thumb Code     0  uwrite4.o(.text)
    __aeabi_fadd                             0x10003fdd   Thumb Code   162  fadd.o(.text)
    __aeabi_fsub                             0x1000407f   Thumb Code     8  fadd.o(.text)
    __aeabi_frsub                            0x10004087   Thumb Code     8  fadd.o(.text)
    __aeabi_dadd                             0x10004091   Thumb Code   328  dadd.o(.text)
    __aeabi_dsub                             0x100041d9   Thumb Code    12  dadd.o(.text)
    __aeabi_drsub                            0x100041e5   Thumb Code    12  dadd.o(.text)
    __aeabi_dmul                             0x100041f5   Thumb Code   202  dmul.o(.text)
    __aeabi_ddiv                             0x100042c5   Thumb Code   234  ddiv.o(.text)
    __aeabi_ui2f                             0x100043b5   Thumb Code    14  ffltui.o(.text)
    __aeabi_i2d                              0x100043c5   Thumb Code    34  dflti.o(.text)
    __aeabi_ui2d                             0x100043ed   Thumb Code    24  dfltui.o(.text)
    __aeabi_d2uiz                            0x10004409   Thumb Code    50  dfixui.o(.text)
    __aeabi_f2d                              0x10004445   Thumb Code    40  f2d.o(.text)
    __aeabi_uldivmod                         0x1000446d   Thumb Code    96  uldiv.o(.text)
    __aeabi_llsl                             0x100044cd   Thumb Code    32  llshl.o(.text)
    _ll_shift_l                              0x100044cd   Thumb Code     0  llshl.o(.text)
    __aeabi_llsr                             0x100044ed   Thumb Code    34  llushr.o(.text)
    _ll_ushift_r                             0x100044ed   Thumb Code     0  llushr.o(.text)
    __aeabi_lasr                             0x1000450f   Thumb Code    38  llsshr.o(.text)
    _ll_sshift_r                             0x1000450f   Thumb Code     0  llsshr.o(.text)
    __I$use$fp                               0x10004535   Thumb Code     0  iusefp.o(.text)
    _float_round                             0x10004535   Thumb Code    16  fepilogue.o(.text)
    _float_epilogue                          0x10004545   Thumb Code   114  fepilogue.o(.text)
    _double_round                            0x100045b7   Thumb Code    26  depilogue.o(.text)
    _double_epilogue                         0x100045d1   Thumb Code   164  depilogue.o(.text)
    __aeabi_d2ulz                            0x10004675   Thumb Code    54  dfixul.o(.text)
    __aeabi_cdrcmple                         0x100046b5   Thumb Code    38  cdrcmple.o(.text)
    __scatterload                            0x100046dd   Thumb Code    28  init.o(.text)
    __scatterload_rt2                        0x100046dd   Thumb Code     0  init.o(.text)
    __0vsprintf                              0x10004701   Thumb Code    30  printfa.o(i.__0vsprintf)
    __1vsprintf                              0x10004701   Thumb Code     0  printfa.o(i.__0vsprintf)
    __2vsprintf                              0x10004701   Thumb Code     0  printfa.o(i.__0vsprintf)
    __c89vsprintf                            0x10004701   Thumb Code     0  printfa.o(i.__0vsprintf)
    vsprintf                                 0x10004701   Thumb Code     0  printfa.o(i.__0vsprintf)
    __ARM_clz                                0x10004725   Thumb Code    46  depilogue.o(i.__ARM_clz)
    __ARM_common_switch8                     0x10004753   Thumb Code    26  main.o(i.__ARM_common_switch8)
    __scatterload_copy                       0x1000476d   Thumb Code    14  handlers.o(i.__scatterload_copy)
    __scatterload_null                       0x1000477b   Thumb Code     2  handlers.o(i.__scatterload_null)
    __scatterload_zeroinit                   0x1000477d   Thumb Code    14  handlers.o(i.__scatterload_zeroinit)
    DATA                                     0x10005026   Data       315412  main.o(.constdata)
    adv_chn_to_freq_idx                      0x1005203a   Data           3  main.o(.constdata)
    Region$$Table$$Base                      0x10052064   Number         0  anon$$obj.o(Region$$Table)
    Region$$Table$$Limit                     0x10052084   Number         0  anon$$obj.o(Region$$Table)
    Sound_codeIndex                          0x20003000   Data           4  main.o(.data)
    PIN_CONFIG                               0x2000300c   Data           4  gpio.o(.data)
    GPIO_CTRL                                0x20003010   Data           4  gpio.o(.data)
    GPO_CTRL                                 0x20003014   Data           4  gpio.o(.data)
    GPI_CTRL                                 0x20003018   Data           4  gpio.o(.data)
    GPIO_IRQ_CTRL                            0x2000301c   Data           4  gpio.o(.data)
    SystemCoreClock                          0x20003068   Data           4  system_armcm0.o(.data)
    ble_rc32k_clk_lpo_ing_flag               0x20003070   Data           1  main.o(.data)
    master_system                            0x20003072   Data           1  main.o(.data)
    p_gett_db_hdr                            0x20003088   Data           4  main.o(.data)
    __initial_sp                             0x200035a0   Data           0  startup_armcm0.o(STACK)



==============================================================================

Memory Map of the image

  Image Entry point : 0x100000c1

  Load Region LR_IROM1 (Base: 0x10000000, Size: 0x00052130, Max: 0x0007e000, ABSOLUTE)

    Execution Region ER_IROM1 (Base: 0x10000000, Size: 0x00052084, Max: 0x0007e000, ABSOLUTE)

    Base Addr    Size         Type   Attr      Idx    E Section Name        Object

    0x10000000   0x000000c0   Data   RO          262    RESET               startup_armcm0.o
    0x100000c0   0x00000000   Code   RO          375  * .ARM.Collect$$$$00000000  mc_p.l(entry.o)
    0x100000c0   0x00000004   Code   RO          440    .ARM.Collect$$$$00000001  mc_p.l(entry2.o)
    0x100000c4   0x00000004   Code   RO          443    .ARM.Collect$$$$00000004  mc_p.l(entry5.o)
    0x100000c8   0x00000000   Code   RO          445    .ARM.Collect$$$$00000008  mc_p.l(entry7b.o)
    0x100000c8   0x00000000   Code   RO          447    .ARM.Collect$$$$0000000A  mc_p.l(entry8b.o)
    0x100000c8   0x00000008   Code   RO          448    .ARM.Collect$$$$0000000B  mc_p.l(entry9a.o)
    0x100000d0   0x00000000   Code   RO          450    .ARM.Collect$$$$0000000D  mc_p.l(entry10a.o)
    0x100000d0   0x00000000   Code   RO          452    .ARM.Collect$$$$0000000F  mc_p.l(entry11a.o)
    0x100000d0   0x00000004   Code   RO          441    .ARM.Collect$$$$00002712  mc_p.l(entry2.o)
    0x100000d4   0x000000fc   Code   RO            3    .text               main.o
    0x100001d0   0x00000090   Code   RO           86    .text               debug.o
    0x10000260   0x000004f8   Code   RO          118    .text               uart.o
    0x10000758   0x0000058c   Code   RO          153    .text               gpio.o
    0x10000ce4   0x000003f0   Code   RO          182    .text               pwm.o
    0x100010d4   0x0000058c   Code   RO          213    .text               timer.o
    0x10001660   0x0000003c   Code   RO          239    .text               delay.o
    0x1000169c   0x0000001c   Code   RO          263    .text               startup_armcm0.o
    0x100016b8   0x00000018   Code   RO          269    .text               system_armcm0.o
    0x100016d0   0x00002830   Code   RO          295    .text               syd8811_ble_lib.lib(main.o)
    0x10003f00   0x0000002c   Code   RO          378    .text               mc_p.l(uidiv.o)
    0x10003f2c   0x00000028   Code   RO          380    .text               mc_p.l(idiv.o)
    0x10003f54   0x00000024   Code   RO          382    .text               mc_p.l(memcpya.o)
    0x10003f78   0x00000024   Code   RO          384    .text               mc_p.l(memseta.o)
    0x10003f9c   0x0000001a   Code   RO          386    .text               mc_p.l(memcmp.o)
    0x10003fb6   0x00000014   Code   RO          418    .text               mc_p.l(uread4.o)
    0x10003fca   0x00000012   Code   RO          420    .text               mc_p.l(uwrite4.o)
    0x10003fdc   0x000000b2   Code   RO          422    .text               mf_p.l(fadd.o)
    0x1000408e   0x00000002   PAD
    0x10004090   0x00000164   Code   RO          424    .text               mf_p.l(dadd.o)
    0x100041f4   0x000000d0   Code   RO          426    .text               mf_p.l(dmul.o)
    0x100042c4   0x000000f0   Code   RO          428    .text               mf_p.l(ddiv.o)
    0x100043b4   0x0000000e   Code   RO          430    .text               mf_p.l(ffltui.o)
    0x100043c2   0x00000002   PAD
    0x100043c4   0x00000028   Code   RO          432    .text               mf_p.l(dflti.o)
    0x100043ec   0x0000001c   Code   RO          434    .text               mf_p.l(dfltui.o)
    0x10004408   0x0000003c   Code   RO          436    .text               mf_p.l(dfixui.o)
    0x10004444   0x00000028   Code   RO          438    .text               mf_p.l(f2d.o)
    0x1000446c   0x00000060   Code   RO          457    .text               mc_p.l(uldiv.o)
    0x100044cc   0x00000020   Code   RO          459    .text               mc_p.l(llshl.o)
    0x100044ec   0x00000022   Code   RO          461    .text               mc_p.l(llushr.o)
    0x1000450e   0x00000026   Code   RO          463    .text               mc_p.l(llsshr.o)
    0x10004534   0x00000000   Code   RO          465    .text               mc_p.l(iusefp.o)
    0x10004534   0x00000082   Code   RO          466    .text               mf_p.l(fepilogue.o)
    0x100045b6   0x000000be   Code   RO          468    .text               mf_p.l(depilogue.o)
    0x10004674   0x00000040   Code   RO          472    .text               mf_p.l(dfixul.o)
    0x100046b4   0x00000028   Code   RO          474    .text               mf_p.l(cdrcmple.o)
    0x100046dc   0x00000024   Code   RO          476    .text               mc_p.l(init.o)
    0x10004700   0x00000024   Code   RO          397    i.__0vsprintf       mc_p.l(printfa.o)
    0x10004724   0x0000002e   Code   RO          470    i.__ARM_clz         mf_p.l(depilogue.o)
    0x10004752   0x0000001a   Code   RO          315    i.__ARM_common_switch8  syd8811_ble_lib.lib(main.o)
    0x1000476c   0x0000000e   Code   RO          482    i.__scatterload_copy  mc_p.l(handlers.o)
    0x1000477a   0x00000002   Code   RO          483    i.__scatterload_null  mc_p.l(handlers.o)
    0x1000477c   0x0000000e   Code   RO          484    i.__scatterload_zeroinit  mc_p.l(handlers.o)
    0x1000478a   0x00000002   PAD
    0x1000478c   0x00000158   Code   RO          398    i._fp_digits        mc_p.l(printfa.o)
    0x100048e4   0x000006ec   Code   RO          399    i._printf_core      mc_p.l(printfa.o)
    0x10004fd0   0x00000020   Code   RO          400    i._printf_post_padding  mc_p.l(printfa.o)
    0x10004ff0   0x0000002c   Code   RO          401    i._printf_pre_padding  mc_p.l(printfa.o)
    0x1000501c   0x0000000a   Code   RO          403    i._sputc            mc_p.l(printfa.o)
    0x10005026   0x0004d014   Data   RO            4    .constdata          main.o
    0x1005203a   0x00000028   Data   RO          297    .constdata          syd8811_ble_lib.lib(main.o)
    0x10052062   0x00000002   PAD
    0x10052064   0x00000020   Data   RO          480    Region$$Table       anon$$obj.o


    Execution Region RW_IRAM1 (Base: 0x20003000, Size: 0x000005a0, Max: 0x00005000, ABSOLUTE)

    Base Addr    Size         Type   Attr      Idx    E Section Name        Object

    0x20003000   0x00000004   Data   RW            5    .data               main.o
    0x20003004   0x00000008   Data   RW          119    .data               uart.o
    0x2000300c   0x00000048   Data   RW          154    .data               gpio.o
    0x20003054   0x00000008   Data   RW          183    .data               pwm.o
    0x2000305c   0x0000000c   Data   RW          215    .data               timer.o
    0x20003068   0x00000004   Data   RW          270    .data               system_armcm0.o
    0x2000306c   0x00000040   Data   RW          298    .data               syd8811_ble_lib.lib(main.o)
    0x200030ac   0x00000080   Zero   RW           87    .bss                debug.o
    0x2000312c   0x0000000c   Zero   RW          214    .bss                timer.o
    0x20003138   0x00000068   Zero   RW          296    .bss                syd8811_ble_lib.lib(main.o)
    0x200031a0   0x00000400   Zero   RW          260    STACK               startup_armcm0.o


==============================================================================

Image component sizes


      Code (inc. data)   RO Data    RW Data    ZI Data      Debug   Object Name

       144         18          0          0        128       2374   debug.o
        60          6          0          0          0        692   delay.o
      1420         44          0         72          0      12558   gpio.o
       252         78     315412          4          0      36824   main.o
      1008         68          0          8          0       4148   pwm.o
        28          8        192          0       1024        652   startup_armcm0.o
        24          8          0          4          0        845   system_armcm0.o
      1420         32          0         12         12       4314   timer.o
      1272         28          0          8          0      50916   uart.o

    ----------------------------------------------------------------------
      5628        290     315636        108       1164     113323   Object Totals
         0          0         32          0          0          0   (incl. Generated)
         0          0          0          0          0          0   (incl. Padding)

    ----------------------------------------------------------------------

      Code (inc. data)   RO Data    RW Data    ZI Data      Debug   Library Member Name

         0          0          0          0          0          0   entry.o
         0          0          0          0          0          0   entry10a.o
         0          0          0          0          0          0   entry11a.o
         8          4          0          0          0          0   entry2.o
         4          0          0          0          0          0   entry5.o
         0          0          0          0          0          0   entry7b.o
         0          0          0          0          0          0   entry8b.o
         8          4          0          0          0          0   entry9a.o
        30          0          0          0          0          0   handlers.o
        40          0          0          0          0         72   idiv.o
        36          8          0          0          0         68   init.o
         0          0          0          0          0          0   iusefp.o
        32          0          0          0          0         68   llshl.o
        38          0          0          0          0         68   llsshr.o
        34          0          0          0          0         68   llushr.o
        26          0          0          0          0         72   memcmp.o
        36          0          0          0          0         60   memcpya.o
        36          0          0          0          0        100   memseta.o
      2238         96          0          0          0        460   printfa.o
        44          0          0          0          0         72   uidiv.o
        96          0          0          0          0         84   uldiv.o
        20          0          0          0          0         60   uread4.o
        18          0          0          0          0         60   uwrite4.o
        40          2          0          0          0         68   cdrcmple.o
       356          4          0          0          0        140   dadd.o
       240          6          0          0          0         84   ddiv.o
       236          0          0          0          0        216   depilogue.o
        60         10          0          0          0         68   dfixui.o
        64         10          0          0          0         68   dfixul.o
        40          6          0          0          0         68   dflti.o
        28          4          0          0          0         68   dfltui.o
       208          6          0          0          0         88   dmul.o
        40          0          0          0          0         60   f2d.o
       178          0          0          0          0        108   fadd.o
       130          0          0          0          0        144   fepilogue.o
        14          0          0          0          0         68   ffltui.o
     10314        502         40         64        104     109387   main.o

    ----------------------------------------------------------------------
     14698        662         42         64        104     111947   Library Totals
         6          0          2          0          0          0   (incl. Padding)

    ----------------------------------------------------------------------

      Code (inc. data)   RO Data    RW Data    ZI Data      Debug   Library Name

      2744        112          0          0          0       1312   mc_p.l
      1634         48          0          0          0       1248   mf_p.l
     10314        502         40         64        104     109387   syd8811_ble_lib.lib

    ----------------------------------------------------------------------
     14698        662         42         64        104     111947   Library Totals

    ----------------------------------------------------------------------

==============================================================================


      Code (inc. data)   RO Data    RW Data    ZI Data      Debug   

     20326        952     315678        172       1268     223346   Grand Totals
     20326        952     315678        172       1268     223346   ELF Image Totals
     20326        952     315678        172          0          0   ROM Totals

==============================================================================

    Total RO  Size (Code + RO Data)               336004 ( 328.13kB)
    Total RW  Size (RW Data + ZI Data)              1440 (   1.41kB)
    Total ROM Size (Code + RO Data + RW Data)     336176 ( 328.30kB)

==============================================================================

