Component: ARM Compiler 5.06 (build 20) Tool: armlink [4d35a3]

==============================================================================

Section Cross References

    main.o(.text) refers to gpio.o(.text) for GPIO_Set_Output
    main.o(.text) refers to main.o(.text) for SetAdvParams
    main.o(.text) refers to timer.o(.text) for Timer_Evt_Stop
    main.o(.text) refers to uread4.o(.text) for __aeabi_uread4
    main.o(.text) refers to memcpya.o(.text) for __aeabi_memcpy
    main.o(.text) refers to ota.o(.text) for ota_rsp
    main.o(.text) refers to delay.o(.text) for delay_ms
    main.o(.text) refers to gpio.o(.data) for PIN_CONFIG
    main.o(.text) refers to main.o(.data) for .data
    main.o(.text) refers to main.o(.bss) for .bss
    main.o(.text) refers to ota.o(.data) for ota_state
    main.o(.text) refers to uart.o(.text) for uart_0_ClrFiFo
    main.o(.text) refers to timer_handler.o(.text) for Timer_Evt_List
    main.o(.text) refers to rtc.o(.text) for SYD_RTC_Init
    main.o(.text) refers to rtc_handler.o(.text) for RTC_Evt_List
    main.o(.text) refers to uart_protocol.o(.text) for uart_cmd
    main.o(.text) refers to uwrite4.o(.text) for __aeabi_uwrite4
    main.o(.text) refers to timer_handler.o(.bss) for syd_sysTimer
==============================================================================

Removing Unused input sections from the image.

    Removing main.o(.rev16_text), (4 bytes).
    Removing main.o(.revsh_text), (4 bytes).
    Removing uart_protocol.o(.rev16_text), (4 bytes).
    Removing uart_protocol.o(.revsh_text), (4 bytes).
    Removing delay.o(.rev16_text), (4 bytes).
    Removing delay.o(.revsh_text), (4 bytes).
    Removing delay.o(.text), (24 bytes).
    Removing ota.o(.rev16_text), (4 bytes).
    Removing ota.o(.revsh_text), (4 bytes).
    Removing gpio.o(.rev16_text), (4 bytes).
    Removing gpio.o(.revsh_text), (4 bytes).
    Removing gpio.o(.text), (36 bytes).
    Removing gpio.o(.text), (52 bytes).
    Removing gpio.o(.text), (52 bytes).
    Removing gpio.o(.text), (52 bytes).
    Removing gpio.o(.text), (56 bytes).
    Removing gpio.o(.text), (56 bytes).
    Removing uart.o(.rev16_text), (4 bytes).
==============================================================================

Image Symbol Table

    Local Symbols

    Symbol Name                              Value     Ov Type        Size  Object(Section)

    ../clib/../cmprslib/zerorunl2.c          0x00000000   Number         0  __dczerorl2.o ABSOLUTE
    ../clib/microlib/division.c              0x00000000   Number         0  idiv.o ABSOLUTE
    ../clib/microlib/division.c              0x00000000   Number         0  uidiv.o ABSOLUTE
    ../clib/microlib/init/entry.s            0x00000000   Number         0  entry8b.o ABSOLUTE
    ../clib/microlib/init/entry.s            0x00000000   Number         0  entry7b.o ABSOLUTE
    ../clib/microlib/init/entry.s            0x00000000   Number         0  entry7a.o ABSOLUTE
    ../clib/microlib/init/entry.s            0x00000000   Number         0  entry9a.o ABSOLUTE
    ../clib/microlib/init/entry.s            0x00000000   Number         0  entry.o ABSOLUTE
    ../clib/microlib/init/entry.s            0x00000000   Number         0  entry9b.o ABSOLUTE
    ../clib/microlib/init/entry.s            0x00000000   Number         0  entry5.o ABSOLUTE
    ../clib/microlib/init/entry.s            0x00000000   Number         0  entry11b.o ABSOLUTE
    ../clib/microlib/init/entry.s            0x00000000   Number         0  entry11a.o ABSOLUTE
    ../clib/microlib/init/entry.s            0x00000000   Number         0  entry10b.o ABSOLUTE
    ../clib/microlib/init/entry.s            0x00000000   Number         0  entry10a.o ABSOLUTE
    ../clib/microlib/init/entry.s            0x00000000   Number         0  entry2.o ABSOLUTE
    ../clib/microlib/init/entry.s            0x00000000   Number         0  entry8a.o ABSOLUTE
    ../clib/microlib/longlong.c              0x00000000   Number         0  llshl.o ABSOLUTE
    ../clib/microlib/longlong.c              0x00000000   Number         0  llushr.o ABSOLUTE
    ../clib/microlib/longlong.c              0x00000000   Number         0  llsshr.o ABSOLUTE
    ../clib/microlib/string/memcmp.c         0x00000000   Number         0  memcmp.o ABSOLUTE
    ../clib/microlib/string/memcpy.c         0x00000000   Number         0  memcpya.o ABSOLUTE
    ../clib/microlib/string/memcpy.c         0x00000000   Number         0  memcpyb.o ABSOLUTE
    ../clib/microlib/string/memset.c         0x00000000   Number         0  memseta.o ABSOLUTE
    ../clib/microlib/stubs.s                 0x00000000   Number         0  iusefp.o ABSOLUTE
    ../clib/microlib/unhosted.c              0x00000000   Number         0  uwrite4.o ABSOLUTE
    ../clib/microlib/unhosted.c              0x00000000   Number         0  uread4.o ABSOLUTE
    ../fplib/microlib/f2d.c                  0x00000000   Number         0  f2d.o ABSOLUTE
    ../fplib/microlib/fpadd.c                0x00000000   Number         0  dadd.o ABSOLUTE
    ../fplib/microlib/fpadd.c                0x00000000   Number         0  fadd.o ABSOLUTE
    ../fplib/microlib/fpdiv.c                0x00000000   Number         0  ddiv.o ABSOLUTE
    ../fplib/microlib/fpepilogue.c           0x00000000   Number         0  depilogue.o ABSOLUTE
    ../fplib/microlib/fpepilogue.c           0x00000000   Number         0  fepilogue.o ABSOLUTE
    ../fplib/microlib/fpfix.c                0x00000000   Number         0  dfixui.o ABSOLUTE
    ../fplib/microlib/fpflt.c                0x00000000   Number         0  dfltui.o ABSOLUTE
    ../fplib/microlib/fpflt.c                0x00000000   Number         0  dflti.o ABSOLUTE
    ../fplib/microlib/fpflt.c                0x00000000   Number         0  ffltui.o ABSOLUTE
    ../fplib/microlib/fpmul.c                0x00000000   Number         0  dmul.o ABSOLUTE
    ..\..\..\Driver\delay.c                  0x00000000   Number         0  delay.o ABSOLUTE
    ..\..\..\Driver\gpio.c                   0x00000000   Number         0  gpio.o ABSOLUTE
    ..\..\..\Rtt\SEGGER_RTT.c                0x00000000   Number         0  segger_rtt.o ABSOLUTE
    ..\..\..\Rtt\SEGGER_RTT_Syscalls_KEIL.c  0x00000000   Number         0  segger_rtt_syscalls_keil.o ABSOLUTE
    ..\..\..\Rtt\SEGGER_RTT_printf.c         0x00000000   Number         0  segger_rtt_printf.o ABSOLUTE
    ..\..\..\ble\ota.c                       0x00000000   Number         0  ota.o ABSOLUTE
    ..\\..\\..\\Driver\\delay.c              0x00000000   Number         0  delay.o ABSOLUTE
    ..\\..\\..\\Driver\\gpio.c               0x00000000   Number         0  gpio.o ABSOLUTE
    ..\\..\\..\\Rtt\\SEGGER_RTT.c            0x00000000   Number         0  segger_rtt.o ABSOLUTE
    ..\\..\\..\\Rtt\\SEGGER_RTT_Syscalls_KEIL.c 0x00000000   Number         0  segger_rtt_syscalls_keil.o ABSOLUTE
    ..\\..\\..\\Rtt\\SEGGER_RTT_printf.c     0x00000000   Number         0  segger_rtt_printf.o ABSOLUTE
    ..\\..\\..\\ble\\ota.c                   0x00000000   Number         0  ota.o ABSOLUTE
    ..\\main.c                               0x00000000   Number         0  main.o ABSOLUTE
    ..\\rtc_handler.c                        0x00000000   Number         0  rtc_handler.o ABSOLUTE
    ..\\timer_handler.c                      0x00000000   Number         0  timer_handler.o ABSOLUTE
    ..\\uart.c                               0x00000000   Number         0  uart.o ABSOLUTE
    ..\\uart_protocol.c                      0x00000000   Number         0  uart_protocol.o ABSOLUTE
    ..\main.c                                0x00000000   Number         0  main.o ABSOLUTE
    ..\rtc_handler.c                         0x00000000   Number         0  rtc_handler.o ABSOLUTE
    ..\timer_handler.c                       0x00000000   Number         0  timer_handler.o ABSOLUTE
    ..\uart.c                                0x00000000   Number         0  uart.o ABSOLUTE
    ..\uart_protocol.c                       0x00000000   Number         0  uart_protocol.o ABSOLUTE
    Driver\\rtc.c                            0x00000000   Number         0  rtc.o ABSOLUTE
    Driver\\timer.c                          0x00000000   Number         0  timer.o ABSOLUTE
    Driver\rtc.c                             0x00000000   Number         0  rtc.o ABSOLUTE
    Driver\timer.c                           0x00000000   Number         0  timer.o ABSOLUTE
    Main\\main.c                             0x00000000   Number         0  main.o ABSOLUTE
    Main\main.c                              0x00000000   Number         0  main.o ABSOLUTE
    RTE\Device\ARMCM0\startup_ARMCM0.s       0x00000000   Number         0  startup_armcm0.o ABSOLUTE
    RTE\Device\ARMCM0\system_ARMCM0.c        0x00000000   Number         0  system_armcm0.o ABSOLUTE
    RTE\\Device\\ARMCM0\\system_ARMCM0.c     0x00000000   Number         0  system_armcm0.o ABSOLUTE
    dc.s                                     0x00000000   Number         0  dc.o ABSOLUTE
    handlers.s                               0x00000000   Number         0  handlers.o ABSOLUTE
    init.s                                   0x00000000   Number         0  init.o ABSOLUTE
    RESET                                    0x10000000   Section      192  startup_armcm0.o(RESET)
    .ARM.Collect$$$$00000000                 0x100000c0   Section        0  entry.o(.ARM.Collect$$$$00000000)
    .ARM.Collect$$$$00000001                 0x100000c0   Section        4  entry2.o(.ARM.Collect$$$$00000001)
    .ARM.Collect$$$$00000004                 0x100000c4   Section        4  entry5.o(.ARM.Collect$$$$00000004)
    .ARM.Collect$$$$00000008                 0x100000c8   Section        0  entry7b.o(.ARM.Collect$$$$00000008)
    .ARM.Collect$$$$0000000A                 0x100000c8   Section        0  entry8b.o(.ARM.Collect$$$$0000000A)
    .ARM.Collect$$$$0000000B                 0x100000c8   Section        8  entry9a.o(.ARM.Collect$$$$0000000B)
    .ARM.Collect$$$$0000000D                 0x100000d0   Section        0  entry10a.o(.ARM.Collect$$$$0000000D)
    .ARM.Collect$$$$0000000F                 0x100000d0   Section        0  entry11a.o(.ARM.Collect$$$$0000000F)
    .ARM.Collect$$$$00002712                 0x100000d0   Section        4  entry2.o(.ARM.Collect$$$$00002712)
    __lit__00000000                          0x100000d0   Data           4  entry2.o(.ARM.Collect$$$$00002712)
    .text                                    0x100000d4   Section        0  main.o(.text)
    __NVIC_SetPriority                       0x100000d5   Thumb Code    60  main.o(.text)
    setup_adv_data                           0x100001af   Thumb Code   100  main.o(.text)
    timer_1_callback                         0x100002a3   Thumb Code    36  main.o(.text)
    send_to_master                           0x100002c7   Thumb Code   176  main.o(.text)
    user_gpio_callback                       0x1000052f   Thumb Code    66  main.o(.text)
    ble_gatt_write                           0x1000071b   Thumb Code    88  main.o(.text)
    sendToUart                               0x10000773   Thumb Code    52  main.o(.text)
    ble_init                                 0x100007a7   Thumb Code   116  main.o(.text)
    .text                                    0x1000084c   Section        0  uart_protocol.o(.text)
    .text                                    0x100008a8   Section        0  delay.o(.text)
    .text                                    0x100008c8   Section        0  ota.o(.text)
    EvtCommandComplete                       0x100008c9   Thumb Code    24  ota.o(.text)
    CmdFwWriteStart                          0x10000b4f   Thumb Code    30  ota.o(.text)
    .text                                    0x10000b78   Section        0  gpio.o(.text)
    .text                                    0x10000ec4   Section        0  uart.o(.text)
    __NVIC_EnableIRQ                         0x1000100b   Thumb Code    18  uart.o(.text)
    .text                                    0x10001028   Section        0  timer_handler.o(.text)
    .text                                    0x10001074   Section        0  rtc_handler.o(.text)
    .text                                    0x100010a0   Section       28  startup_armcm0.o(.text)
    .text                                    0x100010bc   Section        0  system_armcm0.o(.text)
    .text                                    0x100010cc   Section        0  main.o(.text)
    _LCDisConnect                            0x100010cd   Thumb Code    46  main.o(.text)
    _LCTimer_Handler                         0x100010fb   Thumb Code   248  main.o(.text)
    _LCRxPkt_Handler                         0x10001247   Thumb Code   294  main.o(.text)
    _LCTxPkt_Handler                         0x1000136d   Thumb Code   380  main.o(.text)
    _LLENCReq                                0x10001c53   Thumb Code   286  main.o(.text)
    _GAPStartAdv                             0x100022b3   Thumb Code   558  main.o(.text)
    WaitLLCOverSlpth                         0x100036df   Thumb Code    38  main.o(.text)
    _BBRXFIFORead                            0x10003705   Thumb Code   172  main.o(.text)
    _rom_rx_sweyntooth_protect               0x100037b1   Thumb Code   150  main.o(.text)
    STKSetRand                               0x10003847   Thumb Code    30  main.o(.text)
    AttWriteFlash                            0x10003865   Thumb Code   110  main.o(.text)
    GetOverSlpth                             0x100038d3   Thumb Code    26  main.o(.text)
    .text                                    0x100038fc   Section        0  timer.o(.text)
    Timer_Evt_Trigger                        0x100039e5   Thumb Code   110  timer.o(.text)
    __NVIC_EnableIRQ                         0x10003ef5   Thumb Code    18  timer.o(.text)
    __NVIC_DisableIRQ                        0x10003f07   Thumb Code    28  timer.o(.text)
    .text                                    0x10003f30   Section        0  rtc.o(.text)
    Timer_RTCEVT_Trigger                     0x100040bf   Thumb Code   150  rtc.o(.text)
    .text                                    0x100044f8   Section        0  uidiv.o(.text)
    .text                                    0x10004524   Section        0  idiv.o(.text)
    .text                                    0x1000454c   Section        0  memcpya.o(.text)
    .text                                    0x10004570   Section        0  memseta.o(.text)
    .text                                    0x10004594   Section        0  memcmp.o(.text)
    .text                                    0x100045ae   Section        0  uread4.o(.text)
    .text                                    0x100045c2   Section        0  uwrite4.o(.text)
    .text                                    0x100045d4   Section        0  fadd.o(.text)
    .text                                    0x10004688   Section        0  dadd.o(.text)
    .text                                    0x100047ec   Section        0  dmul.o(.text)
    .text                                    0x100048bc   Section        0  ddiv.o(.text)
    .text                                    0x100049ac   Section        0  ffltui.o(.text)
    .text                                    0x100049bc   Section        0  dflti.o(.text)
    .text                                    0x100049e4   Section        0  dfltui.o(.text)
    .text                                    0x10004a00   Section        0  dfixui.o(.text)
    .text                                    0x10004a3c   Section        0  f2d.o(.text)
    .text                                    0x10004a64   Section        0  llshl.o(.text)
    .text                                    0x10004a84   Section        0  llushr.o(.text)
    .text                                    0x10004aa6   Section        0  llsshr.o(.text)
    .text                                    0x10004acc   Section        0  iusefp.o(.text)
    .text                                    0x10004acc   Section        0  fepilogue.o(.text)
    .text                                    0x10004b4e   Section        0  depilogue.o(.text)
    .text                                    0x10004c0c   Section       36  init.o(.text)
    .text                                    0x10004c30   Section        0  __dczerorl2.o(.text)
    i.__ARM_clz                              0x10004c86   Section        0  depilogue.o(i.__ARM_clz)
    i.__ARM_common_switch8                   0x10004cb4   Section        0  main.o(i.__ARM_common_switch8)
    i.__scatterload_copy                     0x10004cce   Section       14  handlers.o(i.__scatterload_copy)
    i.__scatterload_null                     0x10004cdc   Section        2  handlers.o(i.__scatterload_null)
    i.__scatterload_zeroinit                 0x10004cde   Section       14  handlers.o(i.__scatterload_zeroinit)
    .constdata                               0x10004cec   Section       40  main.o(.constdata)
    _ll_packet_length                        0x10004cef   Data          15  main.o(.constdata)
    _smp_packet_lenght                       0x10004cfe   Data          22  main.o(.constdata)
    .data                                    0x20003000   Section       59  main.o(.data)
    latency_state                            0x20003001   Data           1  main.o(.data)
    start_tx                                 0x20003003   Data           1  main.o(.data)
    uart_delay_cnt                           0x20003004   Data           2  main.o(.data)
    g_report                                 0x20003008   Data           4  main.o(.data)
    .data                                    0x2000303c   Section       28  ota.o(.data)
    EvtBuf                                   0x20003050   Data           8  ota.o(.data)
    .data                                    0x20003058   Section       72  gpio.o(.data)
    gpio_callback                            0x2000306c   Data           4  gpio.o(.data)
    pinmuxtab48                              0x20003070   Data          24  gpio.o(.data)
    pinmuxtab32                              0x20003088   Data          24  gpio.o(.data)
    .data                                    0x200030a0   Section        8  uart.o(.data)
    UART_0_CTRL                              0x200030a0   Data           4  uart.o(.data)
    UART_1_CTRL                              0x200030a4   Data           4  uart.o(.data)
    .data                                    0x200030a8   Section        4  rtc_handler.o(.data)
    .data                                    0x200030ac   Section        4  system_armcm0.o(.data)
    .data                                    0x200030b0   Section       64  main.o(.data)
    syd_confirm                              0x200030b0   Data           1  main.o(.data)
    ww_minus_cnt                             0x200030b1   Data           1  main.o(.data)
    ext_uart_en                              0x200030b2   Data           1  main.o(.data)
    get_bond_device_idx                      0x200030b3   Data           1  main.o(.data)
    _valid_l2cap_lenght                      0x200030b5   Data           1  main.o(.data)
    rssi_rx                                  0x200030b7   Data           1  main.o(.data)
    p_flash_hdr                              0x200030b8   Data           4  main.o(.data)
    p_lclink                                 0x200030bc   Data           4  main.o(.data)
    p_txpdu                                  0x200030c0   Data           4  main.o(.data)
    p_rxbuf                                  0x200030c4   Data           4  main.o(.data)
    p_flash                                  0x200030c8   Data           4  main.o(.data)
    p_dump_key                               0x200030d0   Data           4  main.o(.data)
    EFUSE_CTRL                               0x200030d4   Data           4  main.o(.data)
    BB_CTRL                                  0x200030d8   Data           4  main.o(.data)
    PW_CTRL                                  0x200030dc   Data           4  main.o(.data)
    PIN_CONFIG                               0x200030e0   Data           4  main.o(.data)
    CONFIG_FLASH_SIZE                        0x200030e4   Data           4  main.o(.data)
    g_evt                                    0x200030e8   Data           8  main.o(.data)
    .data                                    0x200030f0   Section       28  timer.o(.data)
    TIMER_CTRL                               0x200030f4   Data           4  timer.o(.data)
    .data                                    0x2000310c   Section       40  rtc.o(.data)
    enabled                                  0x2000310c   Data           1  rtc.o(.data)
    irq_cb                                   0x2000312c   Data           4  rtc.o(.data)
    .bss                                     0x20003134   Section     2192  main.o(.bss)
    .bss                                     0x200039c4   Section       40  ota.o(.bss)
    .bss                                     0x200039ec   Section       48  timer_handler.o(.bss)
    .bss                                     0x20003a1c   Section       24  rtc_handler.o(.bss)
    .bss                                     0x20003a34   Section      104  main.o(.bss)
    code_hdr                                 0x20003a34   Data          87  main.o(.bss)
    smart_update_ctrol                       0x20003a8b   Data          17  main.o(.bss)
    .bss                                     0x20003a9c   Section       12  timer.o(.bss)
    timer_callback                           0x20003a9c   Data          12  timer.o(.bss)
    STACK                                    0x20003aa8   Section     1024  startup_armcm0.o(STACK)

    Global Symbols

    Symbol Name                              Value     Ov Type        Size  Object(Section)

    BuildAttributes$$THM_ISAv3M$S$PE$A:L22$X:L11$S22$IEEE1$IW$USESV6$~STKCKD$USESV7$~SHL$OTIME$ROPI$EBA8$MICROLIB$REQ8$PRES8$EABIv2 0x00000000   Number         0  anon$$obj.o ABSOLUTE
    __ARM_use_no_argv                        0x00000000   Number         0  main.o ABSOLUTE
    __cpp_initialize__aeabi_                  - Undefined Weak Reference
    __cxa_finalize                            - Undefined Weak Reference
    _clock_init                               - Undefined Weak Reference
    _microlib_exit                            - Undefined Weak Reference
    __Vectors_Size                           0x000000c0   Number         0  startup_armcm0.o ABSOLUTE
    __Vectors                                0x10000000   Data           4  startup_armcm0.o(RESET)
    __Vectors_End                            0x100000c0   Data           0  startup_armcm0.o(RESET)
    __main                                   0x100000c1   Thumb Code     0  entry.o(.ARM.Collect$$$$00000000)
    _main_stk                                0x100000c1   Thumb Code     0  entry2.o(.ARM.Collect$$$$00000001)
    _main_scatterload                        0x100000c5   Thumb Code     0  entry5.o(.ARM.Collect$$$$00000004)
    __main_after_scatterload                 0x100000c9   Thumb Code     0  entry5.o(.ARM.Collect$$$$00000004)
    _main_clock                              0x100000c9   Thumb Code     0  entry7b.o(.ARM.Collect$$$$00000008)
    _main_cpp_init                           0x100000c9   Thumb Code     0  entry8b.o(.ARM.Collect$$$$0000000A)
    _main_init                               0x100000c9   Thumb Code     0  entry9a.o(.ARM.Collect$$$$0000000B)
    __rt_final_cpp                           0x100000d1   Thumb Code     0  entry10a.o(.ARM.Collect$$$$0000000D)
    __rt_final_exit                          0x100000d1   Thumb Code     0  entry11a.o(.ARM.Collect$$$$0000000F)
    gpio_init                                0x10000111   Thumb Code   158  main.o(.text)
    BLSetConnectionUpdate                    0x10000213   Thumb Code    60  main.o(.text)
    Connection_latency                       0x1000024f   Thumb Code    38  main.o(.text)
    BLE_SendUARTData                         0x10000275   Thumb Code    46  main.o(.text)
    ble_evt_callback                         0x10000377   Thumb Code   306  main.o(.text)
    ota_manage                               0x100004a9   Thumb Code   134  main.o(.text)
    nvic_priority                            0x10000571   Thumb Code   188  main.o(.text)
    main                                     0x1000062d   Thumb Code   236  main.o(.text)
    HardFault_Handler                        0x10000719   Thumb Code     2  main.o(.text)
    uartRx_callback                          0x1000084d   Thumb Code    58  uart_protocol.o(.text)
    uart_cmd                                 0x10000887   Thumb Code    26  uart_protocol.o(.text)
    delay_ms                                 0x100008a9   Thumb Code    26  delay.o(.text)
    CmdFwErase                               0x100008e1   Thumb Code    22  ota.o(.text)
    ota_variable_clear                       0x100008f7   Thumb Code    24  ota.o(.text)
    ota_cmd                                  0x1000090f   Thumb Code   540  ota.o(.text)
    ota_rsp                                  0x10000b2b   Thumb Code    36  ota.o(.text)
    PIN_Pullup_Enable                        0x10000b79   Thumb Code   102  gpio.o(.text)
    PIN_Pullup_Disable                       0x10000bdf   Thumb Code   102  gpio.o(.text)
    GPIO_Set_Output                          0x10000c45   Thumb Code    48  gpio.o(.text)
    GPIO_Set_Input                           0x10000c75   Thumb Code   172  gpio.o(.text)
    GPIO_Pin_Set                             0x10000d21   Thumb Code    48  gpio.o(.text)
    GPIO_Pin_Clear                           0x10000d51   Thumb Code    48  gpio.o(.text)
    GPIO_Pin_Turn                            0x10000d81   Thumb Code    48  gpio.o(.text)
    GPIO_Pin_Read                            0x10000db1   Thumb Code    34  gpio.o(.text)
    io_irq_enable                            0x10000dd3   Thumb Code   114  gpio.o(.text)
    GPIO_IRQHandler                          0x10000e45   Thumb Code   116  gpio.o(.text)
    uart_0_init                              0x10000ec5   Thumb Code   170  uart.o(.text)
    uart_0_write                             0x10000f6f   Thumb Code    22  uart.o(.text)
    uart_0_read                              0x10000f85   Thumb Code    52  uart.o(.text)
    uart_0_ClrFiFo                           0x10000fb9   Thumb Code    14  uart.o(.text)
    UART0_IRQHandler                         0x10000fc7   Thumb Code    42  uart.o(.text)
    UART1_IRQHandler                         0x10000ff1   Thumb Code    26  uart.o(.text)
    Timer_Evt_2s                             0x10001029   Thumb Code    14  timer_handler.o(.text)
    Timer_EVT_1S_OTA                         0x10001037   Thumb Code    14  timer_handler.o(.text)
    Timer_Evt_List                           0x10001045   Thumb Code    36  timer_handler.o(.text)
    RTC_Evt_185s                             0x10001075   Thumb Code    12  rtc_handler.o(.text)
    RTC_Evt_List                             0x10001081   Thumb Code    22  rtc_handler.o(.text)
    Reset_Handler                            0x100010a1   Thumb Code     8  startup_armcm0.o(.text)
    NMI_Handler                              0x100010a9   Thumb Code     2  startup_armcm0.o(.text)
    SVC_Handler                              0x100010ad   Thumb Code     2  startup_armcm0.o(.text)
    PendSV_Handler                           0x100010af   Thumb Code     2  startup_armcm0.o(.text)
    SysTick_Handler                          0x100010b1   Thumb Code     2  startup_armcm0.o(.text)
    CAP_IRQHandler                           0x100010b3   Thumb Code     0  startup_armcm0.o(.text)
    GPADC_IRQHandler                         0x100010b3   Thumb Code     0  startup_armcm0.o(.text)
    HID_IRQHandler                           0x100010b3   Thumb Code     0  startup_armcm0.o(.text)
    HPWM_IRQHandler                          0x100010b3   Thumb Code     0  startup_armcm0.o(.text)
    HTIMER_IRQHandler                        0x100010b3   Thumb Code     0  startup_armcm0.o(.text)
    I2C0_IRQHandler                          0x100010b3   Thumb Code     0  startup_armcm0.o(.text)
    I2C1_IRQHandler                          0x100010b3   Thumb Code     0  startup_armcm0.o(.text)
    IR_Rx_IRQHandler                         0x100010b3   Thumb Code     0  startup_armcm0.o(.text)
    IR_Tx_IRQHandler                         0x100010b3   Thumb Code     0  startup_armcm0.o(.text)
    ISO_7816_IRQHandler                      0x100010b3   Thumb Code     0  startup_armcm0.o(.text)
    LLC2_IRQHandler                          0x100010b3   Thumb Code     0  startup_armcm0.o(.text)
    LLC_IRQHandler                           0x100010b3   Thumb Code     0  startup_armcm0.o(.text)
    SPIM_IRQHandler                          0x100010b3   Thumb Code     0  startup_armcm0.o(.text)
    SW_IRQHandler                            0x100010b3   Thumb Code     0  startup_armcm0.o(.text)
    TIMER3_IRQHandler                        0x100010b3   Thumb Code     0  startup_armcm0.o(.text)
    TOUCH_IRQHandler                         0x100010b3   Thumb Code     0  startup_armcm0.o(.text)
    SystemInit                               0x100010bd   Thumb Code     8  system_armcm0.o(.text)
    LLPingReq                                0x100011f3   Thumb Code    26  main.o(.text)
    LLScanReqHandle                          0x1000120d   Thumb Code    58  main.o(.text)
    _BBGetMask                               0x100014e9   Thumb Code    92  main.o(.text)
    Lib_LLEvtCallback                        0x10001545   Thumb Code   186  main.o(.text)
    ConnectionLatencyMode                    0x100015ff   Thumb Code   112  main.o(.text)
    sw_timer_latency_callback                0x1000166f   Thumb Code    42  main.o(.text)
    TimerStart                               0x10001699   Thumb Code    10  main.o(.text)
    smart_latency_start                      0x100016a3   Thumb Code   212  main.o(.text)
    smart_update_latency_updatersp           0x10001777   Thumb Code   162  main.o(.text)
    BBRFRead                                 0x10001819   Thumb Code     4  main.o(.text)
    BBRFWrite                                0x1000181d   Thumb Code     6  main.o(.text)
    RCOSCCalibration                         0x10001823   Thumb Code    64  main.o(.text)
    RFSleep                                  0x10001863   Thumb Code    10  main.o(.text)
    UartEn                                   0x1000186d   Thumb Code    32  main.o(.text)
    _SYS32kClockSwitch                       0x1000188d   Thumb Code   270  main.o(.text)
    ClockSwitch                              0x1000199b   Thumb Code    10  main.o(.text)
    RFWakeup                                 0x100019a5   Thumb Code    22  main.o(.text)
    LPOCalibration                           0x100019bb   Thumb Code   254  main.o(.text)
    smart_latency_clear                      0x10001ab9   Thumb Code    12  main.o(.text)
    Lib_EvtCallback                          0x10001ac5   Thumb Code   254  main.o(.text)
    _BMGetNextBondDevice                     0x10001bc3   Thumb Code   144  main.o(.text)
    __LLVersionIndRxHandler                  0x10001d71   Thumb Code    66  main.o(.text)
    GetMasterSystem                          0x10001db3   Thumb Code     6  main.o(.text)
    TimerStop                                0x10001db9   Thumb Code     4  main.o(.text)
    smart_update_retry                       0x10001dbd   Thumb Code   158  main.o(.text)
    sw_timer_update_callback                 0x10001e5b   Thumb Code    60  main.o(.text)
    smart_update_latency_updatareq           0x10001e97   Thumb Code   496  main.o(.text)
    Lib_ProtocolHookCallback                 0x10002087   Thumb Code   116  main.o(.text)
    Lib_MiscCallback                         0x100020fb   Thumb Code    14  main.o(.text)
    BleInit                                  0x10002109   Thumb Code   344  main.o(.text)
    DisConnect                               0x10002261   Thumb Code    10  main.o(.text)
    SetDevAddr                               0x1000226b   Thumb Code    12  main.o(.text)
    GetDevAddr                               0x10002277   Thumb Code    12  main.o(.text)
    SetLEFeature                             0x10002283   Thumb Code    12  main.o(.text)
    SetAdvAccCode                            0x1000228f   Thumb Code    12  main.o(.text)
    SetAdvParams                             0x1000229b   Thumb Code    12  main.o(.text)
    SetAdvData                               0x100022a7   Thumb Code    12  main.o(.text)
    StartAdv                                 0x100024e1   Thumb Code    10  main.o(.text)
    StopAdv                                  0x100024eb   Thumb Code    24  main.o(.text)
    StopAdv_Noreset                          0x10002503   Thumb Code    38  main.o(.text)
    SetScanParams                            0x10002529   Thumb Code    10  main.o(.text)
    _BBSetScan                               0x10002533   Thumb Code    46  main.o(.text)
    _GAPStartScan                            0x10002561   Thumb Code   254  main.o(.text)
    StartScan                                0x1000265f   Thumb Code    10  main.o(.text)
    StopScan                                 0x10002669   Thumb Code    10  main.o(.text)
    SetSecParams                             0x10002673   Thumb Code    12  main.o(.text)
    SetConnectionUpdate                      0x1000267f   Thumb Code    12  main.o(.text)
    GetLinkParameters                        0x1000268b   Thumb Code    12  main.o(.text)
    SetWinWideMinusCnt                       0x10002697   Thumb Code     8  main.o(.text)
    SetPasskey                               0x1000269f   Thumb Code    12  main.o(.text)
    SecurityReq                              0x100026ab   Thumb Code    12  main.o(.text)
    SetEvtCallback                           0x100026b7   Thumb Code    54  main.o(.text)
    GetGATTReportHandle                      0x100026ed   Thumb Code    10  main.o(.text)
    SetGATTReadRsp                           0x100026f7   Thumb Code    12  main.o(.text)
    CheckFIFOFull                            0x10002703   Thumb Code    18  main.o(.text)
    GATTDataSend                             0x10002715   Thumb Code    86  main.o(.text)
    ATTCSetCallback                          0x1000276b   Thumb Code     4  main.o(.text)
    ATTCMTUReq                               0x1000276f   Thumb Code    24  main.o(.text)
    ATTCFindInfoReq                          0x10002787   Thumb Code    28  main.o(.text)
    ATTCFindByTypeValueReq                   0x100027a3   Thumb Code    40  main.o(.text)
    ATTCReadByTypeReq                        0x100027cb   Thumb Code    36  main.o(.text)
    ATTCReadReq                              0x100027ef   Thumb Code    24  main.o(.text)
    ATTCReadBlobReq                          0x10002807   Thumb Code    28  main.o(.text)
    ATTCReadMultipleReq                      0x10002823   Thumb Code    28  main.o(.text)
    ATTCReadByGroupTypeReq                   0x1000283f   Thumb Code    34  main.o(.text)
    ATTCWriteReq                             0x10002861   Thumb Code    32  main.o(.text)
    ATTCWriteCmdReq                          0x10002881   Thumb Code    32  main.o(.text)
    ATTCPrepareWriteReq                      0x100028a1   Thumb Code    36  main.o(.text)
    ATTCExecuteWriteReq                      0x100028c5   Thumb Code    24  main.o(.text)
    ATTCConfirmation                         0x100028dd   Thumb Code    20  main.o(.text)
    _SYSClockSwitch                          0x100028f1   Thumb Code    86  main.o(.text)
    MCUClockSwitch                           0x10002947   Thumb Code     2  main.o(.text)
    GetMCUClock                              0x10002949   Thumb Code    14  main.o(.text)
    GetClock                                 0x10002957   Thumb Code    16  main.o(.text)
    WakeupConfig                             0x10002967   Thumb Code    12  main.o(.text)
    LLSleep                                  0x10002973   Thumb Code    12  main.o(.text)
    Rand                                     0x1000297f   Thumb Code     4  main.o(.text)
    DelayUS                                  0x10002983   Thumb Code     4  main.o(.text)
    DelayMS                                  0x10002987   Thumb Code     6  main.o(.text)
    GetCompanyID                             0x1000298d   Thumb Code    18  main.o(.text)
    GetQFNType                               0x1000299f   Thumb Code    20  main.o(.text)
    RFRead                                   0x100029b3   Thumb Code    70  main.o(.text)
    RFWrite                                  0x100029f9   Thumb Code     8  main.o(.text)
    lib_check_ble_fsm_state                  0x10002a01   Thumb Code    26  main.o(.text)
    SystemSleep                              0x10002a1b   Thumb Code    18  main.o(.text)
    SystemPowerDown                          0x10002a2d   Thumb Code    78  main.o(.text)
    SystemReset                              0x10002a7b   Thumb Code    12  main.o(.text)
    CapdetEn                                 0x10002a87   Thumb Code    10  main.o(.text)
    PowerDownLPOEn                           0x10002a91   Thumb Code    12  main.o(.text)
    SetBondManagerIndex                      0x10002a9d   Thumb Code    12  main.o(.text)
    GetBondDevice                            0x10002aa9   Thumb Code     6  main.o(.text)
    AddBondDevice                            0x10002aaf   Thumb Code    12  main.o(.text)
    DelAllBondDevice                         0x10002abb   Thumb Code    10  main.o(.text)
    DelBondDevice                            0x10002ac5   Thumb Code    12  main.o(.text)
    ReadProfileData                          0x10002ad1   Thumb Code     6  main.o(.text)
    WriteProfileData                         0x10002ad7   Thumb Code     6  main.o(.text)
    EraseFlashData                           0x10002add   Thumb Code    78  main.o(.text)
    ReadFlashData                            0x10002b2b   Thumb Code    56  main.o(.text)
    WriteFlashData                           0x10002b63   Thumb Code    56  main.o(.text)
    CodeErase                                0x10002b9b   Thumb Code   100  main.o(.text)
    CodeErase_sector                         0x10002bff   Thumb Code    72  main.o(.text)
    _FMCodeWrite                             0x10002c47   Thumb Code    58  main.o(.text)
    CodeWrite                                0x10002c81   Thumb Code    30  main.o(.text)
    CodeUpdate                               0x10002c9f   Thumb Code    10  main.o(.text)
    FlashDataUpdate                          0x10002ca9   Thumb Code   124  main.o(.text)
    ble_sched_execute                        0x10002d25   Thumb Code   150  main.o(.text)
    ble_sched_finish                         0x10002dbb   Thumb Code     4  main.o(.text)
    syd52832_chip_confirm                    0x10002dbf   Thumb Code    26  main.o(.text)
    gap_s_smart_update_latency               0x10002dd9   Thumb Code   246  main.o(.text)
    eFuseManual                              0x10002ecf   Thumb Code    28  main.o(.text)
    GPADC_Manual_Calibration                 0x10002eeb   Thumb Code    34  main.o(.text)
    GPADC_Get_Calibration                    0x10002f0d   Thumb Code    22  main.o(.text)
    GAPGetUartEn                             0x10002f23   Thumb Code     6  main.o(.text)
    GAPUartEn                                0x10002f29   Thumb Code     6  main.o(.text)
    GAPBBDelayUS                             0x10002f2f   Thumb Code     4  main.o(.text)
    GAPBBDelayMS                             0x10002f33   Thumb Code     6  main.o(.text)
    GAPGetRFAutoSleep                        0x10002f39   Thumb Code     4  main.o(.text)
    GAPSetRFAutoSleep                        0x10002f3d   Thumb Code     6  main.o(.text)
    Setting4kUpdate                          0x10002f43   Thumb Code   116  main.o(.text)
    SetDevAddr_toflash                       0x10002fb7   Thumb Code    72  main.o(.text)
    gap_s_verdor_datas_get                   0x10002fff   Thumb Code    28  main.o(.text)
    gap_s_verdor_datas_set                   0x1000301b   Thumb Code    66  main.o(.text)
    gap_s_is_ll_start_enc                    0x1000305d   Thumb Code    26  main.o(.text)
    GAPBBTXFIFO0Write                        0x10003077   Thumb Code     4  main.o(.text)
    flash_peotect_key_confirm                0x1000307b   Thumb Code   148  main.o(.text)
    swd_lock                                 0x1000310f   Thumb Code    36  main.o(.text)
    flash_data_offect_get                    0x10003133   Thumb Code    52  main.o(.text)
    EraseCodeB                               0x10003167   Thumb Code    58  main.o(.text)
    ReadCodeB                                0x100031a1   Thumb Code    64  main.o(.text)
    WriteCodeB                               0x100031e1   Thumb Code    96  main.o(.text)
    ble_SetTxPower                           0x10003241   Thumb Code   248  main.o(.text)
    flash_data_size_get                      0x10003339   Thumb Code    18  main.o(.text)
    code_idx_get                             0x1000334b   Thumb Code     6  main.o(.text)
    flash_data_size_set                      0x10003351   Thumb Code   146  main.o(.text)
    Get_RSSI_Last_RX                         0x100033e3   Thumb Code    82  main.o(.text)
    APP_Read_Attribute_Encrypt               0x10003435   Thumb Code    62  main.o(.text)
    APP_Write_Attribute_Encrypt              0x10003473   Thumb Code    66  main.o(.text)
    APP_Read_Charact_Permission              0x100034b5   Thumb Code    66  main.o(.text)
    smart_latency_target                     0x100034f7   Thumb Code    30  main.o(.text)
    smp_aes_encrypt                          0x10003515   Thumb Code     4  main.o(.text)
    gap_get_flash_data_info                  0x10003519   Thumb Code    26  main.o(.text)
    gap_set_flash_data_info                  0x10003533   Thumb Code    70  main.o(.text)
    gap_check_dev_bonded                     0x10003579   Thumb Code     6  main.o(.text)
    syd_set_chip_flash_all_size              0x1000357f   Thumb Code     6  main.o(.text)
    Xtal_trim_get                            0x10003585   Thumb Code   106  main.o(.text)
    Xtal_trim_set                            0x100035ef   Thumb Code   164  main.o(.text)
    flash_read_sfdp                          0x10003693   Thumb Code    46  main.o(.text)
    syd_read_unique_id                       0x100036c1   Thumb Code    30  main.o(.text)
    Timer_Evt_Creat                          0x100038fd   Thumb Code    54  timer.o(.text)
    Min                                      0x10003933   Thumb Code     8  timer.o(.text)
    TimerDelayUS                             0x1000393b   Thumb Code    24  timer.o(.text)
    timer_0_disable                          0x10003953   Thumb Code    48  timer.o(.text)
    timer_0_enable                           0x10003983   Thumb Code    96  timer.o(.text)
    timer_0_start                            0x100039e3   Thumb Code     2  timer.o(.text)
    timer_0_get                              0x10003a53   Thumb Code    92  timer.o(.text)
    Timer_Evt_Stop                           0x10003aaf   Thumb Code   120  timer.o(.text)
    Timer_Evt_ReSet                          0x10003b27   Thumb Code    64  timer.o(.text)
    Timer_Evt_Clr                            0x10003b67   Thumb Code    10  timer.o(.text)
    Timer_Evt_Start                          0x10003b71   Thumb Code   156  timer.o(.text)
    Timer_Evt_ReStart                        0x10003c0d   Thumb Code   132  timer.o(.text)
    Timer_Get_State                          0x10003c91   Thumb Code    34  timer.o(.text)
    SYD_Timer_Init                           0x10003cb3   Thumb Code    34  timer.o(.text)
    timer_0_delay_32us                       0x10003cd5   Thumb Code    92  timer.o(.text)
    TIMER0_IRQHandler                        0x10003d31   Thumb Code    32  timer.o(.text)
    timer_1_enable                           0x10003d51   Thumb Code    96  timer.o(.text)
    timer_1_disable                          0x10003db1   Thumb Code    48  timer.o(.text)
    TIMER1_IRQHandler                        0x10003de1   Thumb Code    32  timer.o(.text)
    timer_2_enable                           0x10003e01   Thumb Code    96  timer.o(.text)
    timer_1_get                              0x10003e61   Thumb Code    34  timer.o(.text)
    timer_2_get                              0x10003e83   Thumb Code    34  timer.o(.text)
    timer_2_disable                          0x10003ea5   Thumb Code    48  timer.o(.text)
    TIMER2_IRQHandler                        0x10003ed5   Thumb Code    32  timer.o(.text)
    rtc_get_calendar                         0x10003f31   Thumb Code    40  rtc.o(.text)
    RTC_RUN                                  0x10003f59   Thumb Code    66  rtc.o(.text)
    rtc_set_compare                          0x10003f9b   Thumb Code    68  rtc.o(.text)
    RTC_SET                                  0x10003fdf   Thumb Code    84  rtc.o(.text)
    RTC_Refressh                             0x10004033   Thumb Code    76  rtc.o(.text)
    RTC_EVT_Creat                            0x1000407f   Thumb Code    32  rtc.o(.text)
    Min_RTC                                  0x1000409f   Thumb Code     8  rtc.o(.text)
    rtc_int_disable                          0x100040a7   Thumb Code    24  rtc.o(.text)
    RTC_EVT_Clr                              0x10004155   Thumb Code    10  rtc.o(.text)
    RTC_EVT_Stop                             0x1000415f   Thumb Code   112  rtc.o(.text)
    RTC_EVT_Start                            0x100041cf   Thumb Code   146  rtc.o(.text)
    RTC_EVT_whole_minute_setid               0x10004261   Thumb Code     6  rtc.o(.text)
    RTC_EVT_whole_minute_adj                 0x10004267   Thumb Code   132  rtc.o(.text)
    RTC_Get_State                            0x100042eb   Thumb Code    54  rtc.o(.text)
    rtc_start                                0x10004321   Thumb Code    28  rtc.o(.text)
    rtc_set_interrupt_callback               0x1000433d   Thumb Code     6  rtc.o(.text)
    rtc_int_enable                           0x10004343   Thumb Code    22  rtc.o(.text)
    rtc_int_clear                            0x10004359   Thumb Code    22  rtc.o(.text)
    rtc_set_calendar                         0x1000436f   Thumb Code    40  rtc.o(.text)
    rtc_set_prescaler                        0x10004397   Thumb Code    34  rtc.o(.text)
    rtc_clear                                0x100043b9   Thumb Code    18  rtc.o(.text)
    rtc_stop                                 0x100043cb   Thumb Code    30  rtc.o(.text)
    rtc_init                                 0x100043e9   Thumb Code   126  rtc.o(.text)
    SYD_RTC_Init                             0x10004467   Thumb Code    40  rtc.o(.text)
    RTC_IRQHandler                           0x1000448f   Thumb Code    30  rtc.o(.text)
    rtc_status                               0x100044ad   Thumb Code     6  rtc.o(.text)
    rtc_get_compare                          0x100044b3   Thumb Code    52  rtc.o(.text)
    __aeabi_uidiv                            0x100044f9   Thumb Code     0  uidiv.o(.text)
    __aeabi_uidivmod                         0x100044f9   Thumb Code    44  uidiv.o(.text)
    __aeabi_idiv                             0x10004525   Thumb Code     0  idiv.o(.text)
    __aeabi_idivmod                          0x10004525   Thumb Code    40  idiv.o(.text)
    __aeabi_memcpy                           0x1000454d   Thumb Code    36  memcpya.o(.text)
    __aeabi_memcpy4                          0x1000454d   Thumb Code     0  memcpya.o(.text)
    __aeabi_memcpy8                          0x1000454d   Thumb Code     0  memcpya.o(.text)
    __aeabi_memset                           0x10004571   Thumb Code    14  memseta.o(.text)
    __aeabi_memset4                          0x10004571   Thumb Code     0  memseta.o(.text)
    __aeabi_memset8                          0x10004571   Thumb Code     0  memseta.o(.text)
    __aeabi_memclr                           0x1000457f   Thumb Code     4  memseta.o(.text)
    __aeabi_memclr4                          0x1000457f   Thumb Code     0  memseta.o(.text)
    __aeabi_memclr8                          0x1000457f   Thumb Code     0  memseta.o(.text)
    _memset$wrapper                          0x10004583   Thumb Code    18  memseta.o(.text)
    memcmp                                   0x10004595   Thumb Code    26  memcmp.o(.text)
    __aeabi_uread4                           0x100045af   Thumb Code    20  uread4.o(.text)
    __rt_uread4                              0x100045af   Thumb Code     0  uread4.o(.text)
    _uread4                                  0x100045af   Thumb Code     0  uread4.o(.text)
    __aeabi_uwrite4                          0x100045c3   Thumb Code    18  uwrite4.o(.text)
    __rt_uwrite4                             0x100045c3   Thumb Code     0  uwrite4.o(.text)
    _uwrite4                                 0x100045c3   Thumb Code     0  uwrite4.o(.text)
    __aeabi_fadd                             0x100045d5   Thumb Code   162  fadd.o(.text)
    __aeabi_fsub                             0x10004677   Thumb Code     8  fadd.o(.text)
    __aeabi_frsub                            0x1000467f   Thumb Code     8  fadd.o(.text)
    __aeabi_dadd                             0x10004689   Thumb Code   328  dadd.o(.text)
    __aeabi_dsub                             0x100047d1   Thumb Code    12  dadd.o(.text)
    __aeabi_drsub                            0x100047dd   Thumb Code    12  dadd.o(.text)
    __aeabi_dmul                             0x100047ed   Thumb Code   202  dmul.o(.text)
    __aeabi_ddiv                             0x100048bd   Thumb Code   234  ddiv.o(.text)
    __aeabi_ui2f                             0x100049ad   Thumb Code    14  ffltui.o(.text)
    __aeabi_i2d                              0x100049bd   Thumb Code    34  dflti.o(.text)
    __aeabi_ui2d                             0x100049e5   Thumb Code    24  dfltui.o(.text)
    __aeabi_d2uiz                            0x10004a01   Thumb Code    50  dfixui.o(.text)
    __aeabi_f2d                              0x10004a3d   Thumb Code    40  f2d.o(.text)
    __aeabi_llsl                             0x10004a65   Thumb Code    32  llshl.o(.text)
    _ll_shift_l                              0x10004a65   Thumb Code     0  llshl.o(.text)
    __aeabi_llsr                             0x10004a85   Thumb Code    34  llushr.o(.text)
    _ll_ushift_r                             0x10004a85   Thumb Code     0  llushr.o(.text)
    __aeabi_lasr                             0x10004aa7   Thumb Code    38  llsshr.o(.text)
    _ll_sshift_r                             0x10004aa7   Thumb Code     0  llsshr.o(.text)
    __I$use$fp                               0x10004acd   Thumb Code     0  iusefp.o(.text)
    _float_round                             0x10004acd   Thumb Code    16  fepilogue.o(.text)
    _float_epilogue                          0x10004add   Thumb Code   114  fepilogue.o(.text)
    _double_round                            0x10004b4f   Thumb Code    26  depilogue.o(.text)
    _double_epilogue                         0x10004b69   Thumb Code   164  depilogue.o(.text)
    __scatterload                            0x10004c0d   Thumb Code    28  init.o(.text)
    __scatterload_rt2                        0x10004c0d   Thumb Code     0  init.o(.text)
    __decompress                             0x10004c31   Thumb Code     0  __dczerorl2.o(.text)
    __decompress1                            0x10004c31   Thumb Code    86  __dczerorl2.o(.text)
    __ARM_clz                                0x10004c87   Thumb Code    46  depilogue.o(i.__ARM_clz)
    __ARM_common_switch8                     0x10004cb5   Thumb Code    26  main.o(i.__ARM_common_switch8)
    __scatterload_copy                       0x10004ccf   Thumb Code    14  handlers.o(i.__scatterload_copy)
    __scatterload_null                       0x10004cdd   Thumb Code     2  handlers.o(i.__scatterload_null)
    __scatterload_zeroinit                   0x10004cdf   Thumb Code    14  handlers.o(i.__scatterload_zeroinit)
    adv_chn_to_freq_idx                      0x10004cec   Data           3  main.o(.constdata)
    Region$$Table$$Base                      0x10004d14   Number         0  anon$$obj.o(Region$$Table)
    Region$$Table$$Limit                     0x10004d34   Number         0  anon$$obj.o(Region$$Table)
    connect_flag                             0x20003000   Data           1  main.o(.data)
    update_latency_mode                      0x20003002   Data           1  main.o(.data)
    ADV_DATA                                 0x2000300c   Data          27  main.o(.data)
    SCAN_DATA                                0x20003027   Data          20  main.o(.data)
    ota_state                                0x2000303c   Data           1  ota.o(.data)
    ota_writecnt                             0x2000303d   Data           1  ota.o(.data)
    ota_section_size                         0x2000303e   Data           2  ota.o(.data)
    ota_receive_size                         0x20003040   Data           2  ota.o(.data)
    ota_section_check                        0x20003042   Data           2  ota.o(.data)
    ota_receive_check                        0x20003044   Data           2  ota.o(.data)
    ota_section_offset                       0x20003048   Data           4  ota.o(.data)
    pevt                                     0x2000304c   Data           4  ota.o(.data)
    PIN_CONFIG                               0x20003058   Data           4  gpio.o(.data)
    GPIO_CTRL                                0x2000305c   Data           4  gpio.o(.data)
    GPO_CTRL                                 0x20003060   Data           4  gpio.o(.data)
    GPI_CTRL                                 0x20003064   Data           4  gpio.o(.data)
    GPIO_IRQ_CTRL                            0x20003068   Data           4  gpio.o(.data)
    syd_history_setting_str                  0x200030a8   Data           4  rtc_handler.o(.data)
    SystemCoreClock                          0x200030ac   Data           4  system_armcm0.o(.data)
    ble_rc32k_clk_lpo_ing_flag               0x200030b4   Data           1  main.o(.data)
    master_system                            0x200030b6   Data           1  main.o(.data)
    p_gett_db_hdr                            0x200030cc   Data           4  main.o(.data)
    Event_Num                                0x200030f0   Data           1  timer.o(.data)
    max_trigger_timer                        0x200030f8   Data           4  timer.o(.data)
    TIMER_EVT                                0x200030fc   Data           4  timer.o(.data)
    Timer_Evt_Trigger_Loop_now               0x20003100   Data           4  timer.o(.data)
    sys_timer_max_p                          0x20003104   Data           4  timer.o(.data)
    sys_timer_current_p                      0x20003108   Data           4  timer.o(.data)
    RTC_Event_Num                            0x2000310d   Data           1  rtc.o(.data)
    max_trigger_rtc                          0x20003110   Data           4  rtc.o(.data)
    RTC_EVT                                  0x20003114   Data           4  rtc.o(.data)
    RTC_RTCEVT_Trigger_Loop_now              0x20003118   Data           4  rtc.o(.data)
    RTC_second_now                           0x2000311c   Data           4  rtc.o(.data)
    sys_rtc_max_p                            0x20003120   Data           4  rtc.o(.data)
    sys_rtc_current_p                        0x20003124   Data           4  rtc.o(.data)
    RTCEVT_whole_minute_id                   0x20003128   Data           4  rtc.o(.data)
    RTC_second_last                          0x20003130   Data           4  rtc.o(.data)
    uart_rx_buf                              0x20003134   Data        1032  main.o(.bss)
    uart_tx_buf                              0x2000353c   Data        1160  main.o(.bss)
    ota_w                                    0x200039c4   Data          40  ota.o(.bss)
    syd_sysTimer                             0x200039ec   Data          48  timer_handler.o(.bss)
    syd_rtc                                  0x20003a1c   Data          24  rtc_handler.o(.bss)
    __initial_sp                             0x20003ea8   Data           0  startup_armcm0.o(STACK)



==============================================================================

Memory Map of the image

  Image Entry point : 0x100000c1

  Load Region LR_IROM1 (Base: 0x10000000, Size: 0x00004e68, Max: 0x0003f000, ABSOLUTE, COMPRESSED[0x00004dd0])

    Execution Region ER_IROM1 (Base: 0x10000000, Size: 0x00004d34, Max: 0x0003f000, ABSOLUTE)

    Base Addr    Size         Type   Attr      Idx    E Section Name        Object

    0x10000000   0x000000c0   Data   RO          425    RESET               startup_armcm0.o
    0x100000c0   0x00000000   Code   RO          649  * .ARM.Collect$$$$00000000  mc_p.l(entry.o)
    0x100000c0   0x00000004   Code   RO          686    .ARM.Collect$$$$00000001  mc_p.l(entry2.o)
    0x100000c4   0x00000004   Code   RO          689    .ARM.Collect$$$$00000004  mc_p.l(entry5.o)
    0x100000c8   0x00000000   Code   RO          691    .ARM.Collect$$$$00000008  mc_p.l(entry7b.o)
    0x100000c8   0x00000000   Code   RO          693    .ARM.Collect$$$$0000000A  mc_p.l(entry8b.o)
    0x100000c8   0x00000008   Code   RO          694    .ARM.Collect$$$$0000000B  mc_p.l(entry9a.o)
    0x100000d0   0x00000000   Code   RO          696    .ARM.Collect$$$$0000000D  mc_p.l(entry10a.o)
    0x100000d0   0x00000000   Code   RO          698    .ARM.Collect$$$$0000000F  mc_p.l(entry11a.o)
    0x100000d0   0x00000004   Code   RO          687    .ARM.Collect$$$$00002712  mc_p.l(entry2.o)
    0x100000d4   0x00000778   Code   RO            3    .text               main.o
    0x1000084c   0x0000005c   Code   RO           92    .text               uart_protocol.o
    0x100008a8   0x00000020   Code   RO          119    .text               delay.o
    0x100008c8   0x000002b0   Code   RO          145    .text               ota.o
    0x10000b78   0x0000034c   Code   RO          188    .text               gpio.o
    0x10000ec4   0x00000164   Code   RO          252    .text               uart.o
    0x10001028   0x0000004c   Code   RO          319    .text               timer_handler.o
    0x10001074   0x0000002c   Code   RO          352    .text               rtc_handler.o
    0x100010a0   0x0000001c   Code   RO          426    .text               startup_armcm0.o
    0x100010bc   0x00000010   Code   RO          433    .text               system_armcm0.o
    0x100010cc   0x00002830   Code   RO          464    .text               syd8811_ble_lib.lib(main.o)
    0x100038fc   0x00000634   Code   RO          546    .text               Syd8811_softtimer_lib.lib(timer.o)
    0x10003f30   0x000005c8   Code   RO          614    .text               Syd8811_softtimer_lib.lib(rtc.o)
    0x100044f8   0x0000002c   Code   RO          652    .text               mc_p.l(uidiv.o)
    0x10004524   0x00000028   Code   RO          654    .text               mc_p.l(idiv.o)
    0x1000454c   0x00000024   Code   RO          656    .text               mc_p.l(memcpya.o)
    0x10004570   0x00000024   Code   RO          658    .text               mc_p.l(memseta.o)
    0x10004594   0x0000001a   Code   RO          660    .text               mc_p.l(memcmp.o)
    0x100045ae   0x00000014   Code   RO          664    .text               mc_p.l(uread4.o)
    0x100045c2   0x00000012   Code   RO          666    .text               mc_p.l(uwrite4.o)
    0x100045d4   0x000000b2   Code   RO          668    .text               mf_p.l(fadd.o)
    0x10004686   0x00000002   PAD
    0x10004688   0x00000164   Code   RO          670    .text               mf_p.l(dadd.o)
    0x100047ec   0x000000d0   Code   RO          672    .text               mf_p.l(dmul.o)
    0x100048bc   0x000000f0   Code   RO          674    .text               mf_p.l(ddiv.o)
    0x100049ac   0x0000000e   Code   RO          676    .text               mf_p.l(ffltui.o)
    0x100049ba   0x00000002   PAD
    0x100049bc   0x00000028   Code   RO          678    .text               mf_p.l(dflti.o)
    0x100049e4   0x0000001c   Code   RO          680    .text               mf_p.l(dfltui.o)
    0x10004a00   0x0000003c   Code   RO          682    .text               mf_p.l(dfixui.o)
    0x10004a3c   0x00000028   Code   RO          684    .text               mf_p.l(f2d.o)
    0x10004a64   0x00000020   Code   RO          700    .text               mc_p.l(llshl.o)
    0x10004a84   0x00000022   Code   RO          702    .text               mc_p.l(llushr.o)
    0x10004aa6   0x00000026   Code   RO          704    .text               mc_p.l(llsshr.o)
    0x10004acc   0x00000000   Code   RO          706    .text               mc_p.l(iusefp.o)
    0x10004acc   0x00000082   Code   RO          707    .text               mf_p.l(fepilogue.o)
    0x10004b4e   0x000000be   Code   RO          709    .text               mf_p.l(depilogue.o)
    0x10004c0c   0x00000024   Code   RO          713    .text               mc_p.l(init.o)
    0x10004c30   0x00000056   Code   RO          723    .text               mc_p.l(__dczerorl2.o)
    0x10004c86   0x0000002e   Code   RO          711    i.__ARM_clz         mf_p.l(depilogue.o)
    0x10004cb4   0x0000001a   Code   RO          484    i.__ARM_common_switch8  syd8811_ble_lib.lib(main.o)
    0x10004cce   0x0000000e   Code   RO          717    i.__scatterload_copy  mc_p.l(handlers.o)
    0x10004cdc   0x00000002   Code   RO          718    i.__scatterload_null  mc_p.l(handlers.o)
    0x10004cde   0x0000000e   Code   RO          719    i.__scatterload_zeroinit  mc_p.l(handlers.o)
    0x10004cec   0x00000028   Data   RO          466    .constdata          syd8811_ble_lib.lib(main.o)
    0x10004d14   0x00000020   Data   RO          715    Region$$Table       anon$$obj.o


    Execution Region RW_IRAM1 (Base: 0x20003000, Size: 0x00000ea8, Max: 0x00005000, ABSOLUTE, COMPRESSED[0x0000009c])

    Base Addr    Size         Type   Attr      Idx    E Section Name        Object

    0x20003000   0x0000003b   Data   RW            5    .data               main.o
    0x2000303b   0x00000001   PAD
    0x2000303c   0x0000001c   Data   RW          147    .data               ota.o
    0x20003058   0x00000048   Data   RW          194    .data               gpio.o
    0x200030a0   0x00000008   Data   RW          259    .data               uart.o
    0x200030a8   0x00000004   Data   RW          354    .data               rtc_handler.o
    0x200030ac   0x00000004   Data   RW          434    .data               system_armcm0.o
    0x200030b0   0x00000040   Data   RW          467    .data               syd8811_ble_lib.lib(main.o)
    0x200030f0   0x0000001c   Data   RW          548    .data               Syd8811_softtimer_lib.lib(timer.o)
    0x2000310c   0x00000028   Data   RW          615    .data               Syd8811_softtimer_lib.lib(rtc.o)
    0x20003134   0x00000890   Zero   RW            4    .bss                main.o
    0x200039c4   0x00000028   Zero   RW          146    .bss                ota.o
    0x200039ec   0x00000030   Zero   RW          320    .bss                timer_handler.o
    0x20003a1c   0x00000018   Zero   RW          353    .bss                rtc_handler.o
    0x20003a34   0x00000068   Zero   RW          465    .bss                syd8811_ble_lib.lib(main.o)
    0x20003a9c   0x0000000c   Zero   RW          547    .bss                Syd8811_softtimer_lib.lib(timer.o)
    0x20003aa8   0x00000400   Zero   RW          423    STACK               startup_armcm0.o


==============================================================================

Image component sizes


      Code (inc. data)   RO Data    RW Data    ZI Data      Debug   Object Name

        32          6          0          0          0        603   delay.o
       844         12          0         72          0      11815   gpio.o
      1912        104          0         59       2192      52525   main.o
       688         12          0         28         40      34985   ota.o
        44         10          0          4         24       3015   rtc_handler.o
        28          8        192          0       1024        672   startup_armcm0.o
        16          8          0          4          0        775   system_armcm0.o
        76         12          0          0         48       3098   timer_handler.o
       356         12          0          8          0      10008   uart.o
        92          8          0          0          0       1291   uart_protocol.o

    ----------------------------------------------------------------------
      4088        192        224        176       3328     118787   Object Totals
         0          0         32          0          0          0   (incl. Generated)
         0          0          0          1          0          0   (incl. Padding)

    ----------------------------------------------------------------------

      Code (inc. data)   RO Data    RW Data    ZI Data      Debug   Library Member Name

      1480         38          0         40          0      17091   rtc.o
      1588         38          0         28         12      45840   timer.o
        86          0          0          0          0          0   __dczerorl2.o
         0          0          0          0          0          0   entry.o
         0          0          0          0          0          0   entry10a.o
         0          0          0          0          0          0   entry11a.o
         8          4          0          0          0          0   entry2.o
         4          0          0          0          0          0   entry5.o
         0          0          0          0          0          0   entry7b.o
         0          0          0          0          0          0   entry8b.o
         8          4          0          0          0          0   entry9a.o
        30          0          0          0          0          0   handlers.o
        40          0          0          0          0         72   idiv.o
        36          8          0          0          0         68   init.o
         0          0          0          0          0          0   iusefp.o
        32          0          0          0          0         68   llshl.o
        38          0          0          0          0         68   llsshr.o
        34          0          0          0          0         68   llushr.o
        26          0          0          0          0         72   memcmp.o
        36          0          0          0          0         60   memcpya.o
        36          0          0          0          0        100   memseta.o
        44          0          0          0          0         72   uidiv.o
        20          0          0          0          0         60   uread4.o
        18          0          0          0          0         60   uwrite4.o
       356          4          0          0          0        140   dadd.o
       240          6          0          0          0         84   ddiv.o
       236          0          0          0          0        216   depilogue.o
        60         10          0          0          0         68   dfixui.o
        40          6          0          0          0         68   dflti.o
        28          4          0          0          0         68   dfltui.o
       208          6          0          0          0         88   dmul.o
        40          0          0          0          0         60   f2d.o
       178          0          0          0          0        108   fadd.o
       130          0          0          0          0        144   fepilogue.o
        14          0          0          0          0         68   ffltui.o
     10314        502         40         64        104     109387   main.o

    ----------------------------------------------------------------------
     15412        630         40        132        116     174198   Library Totals
         4          0          0          0          0          0   (incl. Padding)

    ----------------------------------------------------------------------

      Code (inc. data)   RO Data    RW Data    ZI Data      Debug   Library Name

      3068         76          0         68         12      62931   Syd8811_softtimer_lib.lib
       496         16          0          0          0        768   mc_p.l
      1530         36          0          0          0       1112   mf_p.l
     10314        502         40         64        104     109387   syd8811_ble_lib.lib

    ----------------------------------------------------------------------
     15412        630         40        132        116     174198   Library Totals

    ----------------------------------------------------------------------

==============================================================================


      Code (inc. data)   RO Data    RW Data    ZI Data      Debug   

     19500        822        264        308       3444     291053   Grand Totals
     19500        822        264        156       3444     291053   ELF Image Totals (compressed)
     19500        822        264        156          0          0   ROM Totals

==============================================================================

    Total RO  Size (Code + RO Data)                19764 (  19.30kB)
    Total RW  Size (RW Data + ZI Data)              3752 (   3.66kB)
    Total ROM Size (Code + RO Data + RW Data)      19920 (  19.45kB)

==============================================================================

