Component: ARM Compiler 5.06 (build 20) Tool: armlink [4d35a3]

==============================================================================

Section Cross References

    main.o(.text) refers to main.o(i.__ARM_common_switch8) for __ARM_common_switch8
    main.o(.text) refers to gpio.o(.text) for GPIO_Set_Output
    main.o(.text) refers to main.o(.text) for SetAdvParams
    main.o(.text) refers to segger_rtt_printf.o(.text) for SEGGER_RTT_printf
    main.o(.text) refers to timer.o(.text) for Timer_Evt_Stop
    main.o(.text) refers to uread4.o(.text) for __aeabi_uread4
    main.o(.text) refers to memcpya.o(.text) for __aeabi_memcpy
    main.o(.text) refers to ota.o(.text) for ota_rsp
    main.o(.text) refers to uart.o(.text) for uart_0_ClrFiFo
    main.o(.text) refers to gpio.o(.data) for PIN_CONFIG
    main.o(.text) refers to main.o(.data) for .data
    main.o(.text) refers to main.o(.bss) for .bss
    main.o(.text) refers to ota.o(.data) for ota_state
    main.o(.text) refers to delay.o(.text) for delay_ms
    main.o(.text) refers to segger_rtt.o(.text) for SEGGER_RTT_Init
    main.o(.text) refers to timer_handler.o(.text) for Timer_Evt_List
    main.o(.text) refers to rtc.o(.text) for SYD_RTC_Init
    main.o(.text) refers to rtc_handler.o(.text) for RTC_Evt_List
==============================================================================

Removing Unused input sections from the image.

    Removing main.o(.rev16_text), (4 bytes).
    Removing main.o(.revsh_text), (4 bytes).
    Removing uart_protocol.o(.rev16_text), (4 bytes).
    Removing uart_protocol.o(.revsh_text), (4 bytes).
    Removing delay.o(.rev16_text), (4 bytes).
    Removing delay.o(.revsh_text), (4 bytes).
    Removing delay.o(.text), (24 bytes).
    Removing ota.o(.rev16_text), (4 bytes).
    Removing ota.o(.revsh_text), (4 bytes).
    Removing gpio.o(.rev16_text), (4 bytes).
    Removing gpio.o(.revsh_text), (4 bytes).
    Removing gpio.o(.text), (36 bytes).
    Removing gpio.o(.text), (52 bytes).
    Removing gpio.o(.text), (52 bytes).
    Removing gpio.o(.text), (52 bytes).
    Removing gpio.o(.text), (36 bytes).
    Removing gpio.o(.text), (100 bytes).
    Removing gpio.o(.text), (120 bytes).
==============================================================================

Image Symbol Table

    Local Symbols

    Symbol Name                              Value     Ov Type        Size  Object(Section)

    ../clib/../cmprslib/zerorunl2.c          0x00000000   Number         0  __dczerorl2.o ABSOLUTE
    ../clib/microlib/division.c              0x00000000   Number         0  uidiv.o ABSOLUTE
    ../clib/microlib/division.c              0x00000000   Number         0  idiv.o ABSOLUTE
    ../clib/microlib/division.c              0x00000000   Number         0  uldiv.o ABSOLUTE
    ../clib/microlib/init/entry.s            0x00000000   Number         0  entry7b.o ABSOLUTE
    ../clib/microlib/init/entry.s            0x00000000   Number         0  entry.o ABSOLUTE
    ../clib/microlib/init/entry.s            0x00000000   Number         0  entry9b.o ABSOLUTE
    ../clib/microlib/init/entry.s            0x00000000   Number         0  entry8b.o ABSOLUTE
    ../clib/microlib/init/entry.s            0x00000000   Number         0  entry8a.o ABSOLUTE
    ../clib/microlib/init/entry.s            0x00000000   Number         0  entry9a.o ABSOLUTE
    ../clib/microlib/init/entry.s            0x00000000   Number         0  entry2.o ABSOLUTE
    ../clib/microlib/init/entry.s            0x00000000   Number         0  entry7a.o ABSOLUTE
    ../clib/microlib/init/entry.s            0x00000000   Number         0  entry5.o ABSOLUTE
    ../clib/microlib/init/entry.s            0x00000000   Number         0  entry11b.o ABSOLUTE
    ../clib/microlib/init/entry.s            0x00000000   Number         0  entry11a.o ABSOLUTE
    ../clib/microlib/init/entry.s            0x00000000   Number         0  entry10b.o ABSOLUTE
    ../clib/microlib/init/entry.s            0x00000000   Number         0  entry10a.o ABSOLUTE
    ../clib/microlib/longlong.c              0x00000000   Number         0  llsshr.o ABSOLUTE
    ../clib/microlib/longlong.c              0x00000000   Number         0  llushr.o ABSOLUTE
    ../clib/microlib/longlong.c              0x00000000   Number         0  llshl.o ABSOLUTE
    ../clib/microlib/printf/printf.c         0x00000000   Number         0  printf1.o ABSOLUTE
    ../clib/microlib/printf/printf.c         0x00000000   Number         0  printf3.o ABSOLUTE
    ../clib/microlib/printf/printf.c         0x00000000   Number         0  printfb.o ABSOLUTE
    ../clib/microlib/printf/printf.c         0x00000000   Number         0  printf2.o ABSOLUTE
    ../clib/microlib/printf/printf.c         0x00000000   Number         0  printf0.o ABSOLUTE
    ../clib/microlib/printf/printf.c         0x00000000   Number         0  printf4.o ABSOLUTE
    ../clib/microlib/printf/printf.c         0x00000000   Number         0  printf5.o ABSOLUTE
    ../clib/microlib/printf/printf.c         0x00000000   Number         0  printf6.o ABSOLUTE
    ../clib/microlib/printf/printf.c         0x00000000   Number         0  printfa.o ABSOLUTE
    ../clib/microlib/printf/printf.c         0x00000000   Number         0  printf8.o ABSOLUTE
    ../clib/microlib/printf/printf.c         0x00000000   Number         0  printf7.o ABSOLUTE
    ../clib/microlib/printf/stubs.s          0x00000000   Number         0  stubs.o ABSOLUTE
    ../clib/microlib/stdio/fflush.c          0x00000000   Number         0  fflush.o ABSOLUTE
    ../clib/microlib/stdio/fputc.c           0x00000000   Number         0  fputc.o ABSOLUTE
    ../clib/microlib/stdio/semi.s            0x00000000   Number         0  semi.o ABSOLUTE
    ../clib/microlib/stdio/streams.c         0x00000000   Number         0  stdout.o ABSOLUTE
    ../clib/microlib/string/memcmp.c         0x00000000   Number         0  memcmp.o ABSOLUTE
    ../clib/microlib/string/memcpy.c         0x00000000   Number         0  memcpya.o ABSOLUTE
    ../clib/microlib/string/memcpy.c         0x00000000   Number         0  memcpyb.o ABSOLUTE
    ../clib/microlib/string/memset.c         0x00000000   Number         0  memseta.o ABSOLUTE
    ../clib/microlib/string/strcmp.c         0x00000000   Number         0  strcmp.o ABSOLUTE
    ../clib/microlib/string/strcpy.c         0x00000000   Number         0  strcpy.o ABSOLUTE
    ../clib/microlib/string/strlen.c         0x00000000   Number         0  strlen.o ABSOLUTE
    ../clib/microlib/stubs.s                 0x00000000   Number         0  iusefp.o ABSOLUTE
    ../clib/microlib/stubs.s                 0x00000000   Number         0  useno.o ABSOLUTE
    ../clib/microlib/stubs.s                 0x00000000   Number         0  iusesemip.o ABSOLUTE
    ../clib/microlib/unhosted.c              0x00000000   Number         0  uread4.o ABSOLUTE
    ../clib/microlib/unhosted.c              0x00000000   Number         0  uwrite4.o ABSOLUTE
    ../fplib/microlib/f2d.c                  0x00000000   Number         0  f2d.o ABSOLUTE
    ../fplib/microlib/fpadd.c                0x00000000   Number         0  dadd.o ABSOLUTE
    ../fplib/microlib/fpadd.c                0x00000000   Number         0  fadd.o ABSOLUTE
    ../fplib/microlib/fpdiv.c                0x00000000   Number         0  ddiv.o ABSOLUTE
    ../fplib/microlib/fpepilogue.c           0x00000000   Number         0  depilogue.o ABSOLUTE
    ../fplib/microlib/fpepilogue.c           0x00000000   Number         0  fepilogue.o ABSOLUTE
    ../fplib/microlib/fpfix.c                0x00000000   Number         0  dfixui.o ABSOLUTE
    ../fplib/microlib/fpfix.c                0x00000000   Number         0  dfixul.o ABSOLUTE
    ../fplib/microlib/fpflt.c                0x00000000   Number         0  dflti.o ABSOLUTE
    ../fplib/microlib/fpflt.c                0x00000000   Number         0  ffltui.o ABSOLUTE
    ../fplib/microlib/fpflt.c                0x00000000   Number         0  dfltui.o ABSOLUTE
    ../fplib/microlib/fpmul.c                0x00000000   Number         0  dmul.o ABSOLUTE
    ..\..\..\Driver\delay.c                  0x00000000   Number         0  delay.o ABSOLUTE
    ..\..\..\Driver\gpio.c                   0x00000000   Number         0  gpio.o ABSOLUTE
    ..\..\..\Rtt\SEGGER_RTT.c                0x00000000   Number         0  segger_rtt.o ABSOLUTE
    ..\..\..\Rtt\SEGGER_RTT_Syscalls_KEIL.c  0x00000000   Number         0  segger_rtt_syscalls_keil.o ABSOLUTE
    ..\..\..\Rtt\SEGGER_RTT_printf.c         0x00000000   Number         0  segger_rtt_printf.o ABSOLUTE
    ..\..\..\ble\ota.c                       0x00000000   Number         0  ota.o ABSOLUTE
    ..\\..\\..\\Driver\\delay.c              0x00000000   Number         0  delay.o ABSOLUTE
    ..\\..\\..\\Driver\\gpio.c               0x00000000   Number         0  gpio.o ABSOLUTE
    ..\\..\\..\\Rtt\\SEGGER_RTT.c            0x00000000   Number         0  segger_rtt.o ABSOLUTE
    ..\\..\\..\\Rtt\\SEGGER_RTT_Syscalls_KEIL.c 0x00000000   Number         0  segger_rtt_syscalls_keil.o ABSOLUTE
    ..\\..\\..\\Rtt\\SEGGER_RTT_printf.c     0x00000000   Number         0  segger_rtt_printf.o ABSOLUTE
    ..\\..\\..\\ble\\ota.c                   0x00000000   Number         0  ota.o ABSOLUTE
    ..\\main.c                               0x00000000   Number         0  main.o ABSOLUTE
    ..\\rtc_handler.c                        0x00000000   Number         0  rtc_handler.o ABSOLUTE
    ..\\timer_handler.c                      0x00000000   Number         0  timer_handler.o ABSOLUTE
    ..\\uart.c                               0x00000000   Number         0  uart.o ABSOLUTE
    ..\\uart_protocol.c                      0x00000000   Number         0  uart_protocol.o ABSOLUTE
    ..\main.c                                0x00000000   Number         0  main.o ABSOLUTE
    ..\rtc_handler.c                         0x00000000   Number         0  rtc_handler.o ABSOLUTE
    ..\timer_handler.c                       0x00000000   Number         0  timer_handler.o ABSOLUTE
    ..\uart.c                                0x00000000   Number         0  uart.o ABSOLUTE
    ..\uart_protocol.c                       0x00000000   Number         0  uart_protocol.o ABSOLUTE
    Driver\\rtc.c                            0x00000000   Number         0  rtc.o ABSOLUTE
    Driver\\timer.c                          0x00000000   Number         0  timer.o ABSOLUTE
    Driver\rtc.c                             0x00000000   Number         0  rtc.o ABSOLUTE
    Driver\timer.c                           0x00000000   Number         0  timer.o ABSOLUTE
    Main\\main.c                             0x00000000   Number         0  main.o ABSOLUTE
    Main\main.c                              0x00000000   Number         0  main.o ABSOLUTE
    RTE\Device\ARMCM0\startup_ARMCM0.s       0x00000000   Number         0  startup_armcm0.o ABSOLUTE
    RTE\Device\ARMCM0\system_ARMCM0.c        0x00000000   Number         0  system_armcm0.o ABSOLUTE
    RTE\\Device\\ARMCM0\\system_ARMCM0.c     0x00000000   Number         0  system_armcm0.o ABSOLUTE
    cdrcmple.s                               0x00000000   Number         0  cdrcmple.o ABSOLUTE
    dc.s                                     0x00000000   Number         0  dc.o ABSOLUTE
    handlers.s                               0x00000000   Number         0  handlers.o ABSOLUTE
    init.s                                   0x00000000   Number         0  init.o ABSOLUTE
    RESET                                    0x10000000   Section      192  startup_armcm0.o(RESET)
    .ARM.Collect$$$$00000000                 0x100000c0   Section        0  entry.o(.ARM.Collect$$$$00000000)
    .ARM.Collect$$$$00000001                 0x100000c0   Section        4  entry2.o(.ARM.Collect$$$$00000001)
    .ARM.Collect$$$$00000004                 0x100000c4   Section        4  entry5.o(.ARM.Collect$$$$00000004)
    .ARM.Collect$$$$00000008                 0x100000c8   Section        0  entry7b.o(.ARM.Collect$$$$00000008)
    .ARM.Collect$$$$0000000A                 0x100000c8   Section        0  entry8b.o(.ARM.Collect$$$$0000000A)
    .ARM.Collect$$$$0000000B                 0x100000c8   Section        8  entry9a.o(.ARM.Collect$$$$0000000B)
    .ARM.Collect$$$$0000000D                 0x100000d0   Section        0  entry10a.o(.ARM.Collect$$$$0000000D)
    .ARM.Collect$$$$0000000F                 0x100000d0   Section        0  entry11a.o(.ARM.Collect$$$$0000000F)
    .ARM.Collect$$$$00002712                 0x100000d0   Section        4  entry2.o(.ARM.Collect$$$$00002712)
    __lit__00000000                          0x100000d0   Data           4  entry2.o(.ARM.Collect$$$$00002712)
    .text                                    0x100000d4   Section        0  main.o(.text)
    __NVIC_SetPriority                       0x100000d5   Thumb Code    60  main.o(.text)
    setup_adv_data                           0x10000195   Thumb Code   100  main.o(.text)
    timer_1_callback                         0x1000029b   Thumb Code    36  main.o(.text)
    send_to_master                           0x100002bf   Thumb Code   176  main.o(.text)
    ble_gatt_write                           0x10000875   Thumb Code    88  main.o(.text)
    sendToUart                               0x100008cd   Thumb Code    52  main.o(.text)
    ble_init                                 0x10000901   Thumb Code   600  main.o(.text)
    .text                                    0x10000b5c   Section        0  uart_protocol.o(.text)
    .text                                    0x10000bb8   Section        0  delay.o(.text)
    .text                                    0x10000bd8   Section        0  ota.o(.text)
    EvtCommandComplete                       0x10000bd9   Thumb Code    24  ota.o(.text)
    Cmd4KSETTINGWrite                        0x10000e4d   Thumb Code    78  ota.o(.text)
    CmdFwWriteStart                          0x10000e9b   Thumb Code    30  ota.o(.text)
    CmdFwUpgradev20                          0x10000eb9   Thumb Code   110  ota.o(.text)
    CmdFlashdataUpgradev30                   0x10000f27   Thumb Code    80  ota.o(.text)
    .text                                    0x100010e8   Section        0  gpio.o(.text)
    .text                                    0x1000139c   Section        0  uart.o(.text)
    __NVIC_EnableIRQ                         0x100014e3   Thumb Code    18  uart.o(.text)
    .text                                    0x10001500   Section        0  timer_handler.o(.text)
    .text                                    0x1000154c   Section        0  rtc_handler.o(.text)
    .text                                    0x10001578   Section        0  segger_rtt.o(.text)
    _DoInit                                  0x10001579   Thumb Code    74  segger_rtt.o(.text)
    _WriteBlocking                           0x100015c3   Thumb Code    96  segger_rtt.o(.text)
    _WriteNoCheck                            0x10001623   Thumb Code    60  segger_rtt.o(.text)
    _GetAvailWriteSpace                      0x100016e7   Thumb Code    22  segger_rtt.o(.text)
    .text                                    0x1000171c   Section        0  segger_rtt_printf.o(.text)
    _StoreChar                               0x1000171d   Thumb Code    62  segger_rtt_printf.o(.text)
    _PrintUnsigned                           0x1000175b   Thumb Code   210  segger_rtt_printf.o(.text)
    _PrintInt                                0x10001a5d   Thumb Code   200  segger_rtt_printf.o(.text)
    .text                                    0x10001b44   Section       28  startup_armcm0.o(.text)
    .text                                    0x10001b60   Section        0  system_armcm0.o(.text)
    .text                                    0x10001b70   Section        0  main.o(.text)
    _LCDisConnect                            0x10001b71   Thumb Code    46  main.o(.text)
    _LCTimer_Handler                         0x10001b9f   Thumb Code   248  main.o(.text)
    _LCRxPkt_Handler                         0x10001ceb   Thumb Code   416  main.o(.text)
    _LCTxPkt_Handler                         0x10001e8b   Thumb Code   376  main.o(.text)
    _LLENCReq                                0x10002749   Thumb Code   286  main.o(.text)
    _GAPStartAdv                             0x10002d99   Thumb Code   564  main.o(.text)
    WaitLLCOverSlpth                         0x1000434f   Thumb Code    38  main.o(.text)
    _BBRXFIFORead                            0x10004375   Thumb Code   138  main.o(.text)
    _rom_rx_sweyntooth_protect               0x100043ff   Thumb Code   150  main.o(.text)
    STKSetRand                               0x10004495   Thumb Code    30  main.o(.text)
    AttWriteFlash                            0x100044b3   Thumb Code   134  main.o(.text)
    crc32_fun                                0x10004539   Thumb Code    34  main.o(.text)
    GetOverSlpth                             0x1000455b   Thumb Code    26  main.o(.text)
    .text                                    0x10004580   Section        0  timer.o(.text)
    Timer_Evt_Trigger                        0x10004669   Thumb Code   110  timer.o(.text)
    __NVIC_EnableIRQ                         0x10004b79   Thumb Code    18  timer.o(.text)
    __NVIC_DisableIRQ                        0x10004b8b   Thumb Code    28  timer.o(.text)
    .text                                    0x10004bb4   Section        0  rtc.o(.text)
    Timer_RTCEVT_Trigger                     0x10004d43   Thumb Code   150  rtc.o(.text)
    .text                                    0x1000517c   Section        0  uidiv.o(.text)
    .text                                    0x100051a8   Section        0  idiv.o(.text)
    .text                                    0x100051d0   Section        0  memcpya.o(.text)
    .text                                    0x100051f4   Section        0  memseta.o(.text)
    .text                                    0x10005218   Section        0  memcmp.o(.text)
    .text                                    0x10005232   Section        0  strcpy.o(.text)
    .text                                    0x10005244   Section        0  uread4.o(.text)
    .text                                    0x10005258   Section        0  uwrite4.o(.text)
    .text                                    0x1000526a   Section        0  fadd.o(.text)
    .text                                    0x1000531c   Section        0  dadd.o(.text)
    .text                                    0x10005480   Section        0  dmul.o(.text)
    .text                                    0x10005550   Section        0  ddiv.o(.text)
    .text                                    0x10005640   Section        0  ffltui.o(.text)
    .text                                    0x10005650   Section        0  dflti.o(.text)
    .text                                    0x10005678   Section        0  dfltui.o(.text)
    .text                                    0x10005694   Section        0  dfixui.o(.text)
    .text                                    0x100056d0   Section        0  f2d.o(.text)
    .text                                    0x100056f8   Section        0  uldiv.o(.text)
    .text                                    0x10005758   Section        0  llshl.o(.text)
    .text                                    0x10005778   Section        0  llushr.o(.text)
    .text                                    0x1000579a   Section        0  llsshr.o(.text)
    .text                                    0x100057c0   Section        0  iusefp.o(.text)
    .text                                    0x100057c0   Section        0  fepilogue.o(.text)
    .text                                    0x10005842   Section        0  depilogue.o(.text)
    .text                                    0x10005900   Section        0  dfixul.o(.text)
    .text                                    0x10005940   Section       40  cdrcmple.o(.text)
    .text                                    0x10005968   Section       36  init.o(.text)
    .text                                    0x1000598c   Section        0  __dczerorl2.o(.text)
    i.__0sprintf                             0x100059e4   Section        0  printfa.o(i.__0sprintf)
    i.__ARM_clz                              0x10005a0c   Section        0  depilogue.o(i.__ARM_clz)
    i.__ARM_common_switch8                   0x10005a3a   Section        0  main.o(i.__ARM_common_switch8)
    i.__scatterload_copy                     0x10005a54   Section       14  handlers.o(i.__scatterload_copy)
    i.__scatterload_null                     0x10005a62   Section        2  handlers.o(i.__scatterload_null)
    i.__scatterload_zeroinit                 0x10005a64   Section       14  handlers.o(i.__scatterload_zeroinit)
    i._fp_digits                             0x10005a74   Section        0  printfa.o(i._fp_digits)
    _fp_digits                               0x10005a75   Thumb Code   316  printfa.o(i._fp_digits)
    i._printf_core                           0x10005bcc   Section        0  printfa.o(i._printf_core)
    _printf_core                             0x10005bcd   Thumb Code  1754  printfa.o(i._printf_core)
    i._printf_post_padding                   0x100062b8   Section        0  printfa.o(i._printf_post_padding)
    _printf_post_padding                     0x100062b9   Thumb Code    32  printfa.o(i._printf_post_padding)
    i._printf_pre_padding                    0x100062d8   Section        0  printfa.o(i._printf_pre_padding)
    _printf_pre_padding                      0x100062d9   Thumb Code    44  printfa.o(i._printf_pre_padding)
    i._sputc                                 0x10006304   Section        0  printfa.o(i._sputc)
    _sputc                                   0x10006305   Thumb Code    10  printfa.o(i._sputc)
    .constdata                               0x1000630e   Section       16  segger_rtt_printf.o(.constdata)
    _aV2C                                    0x1000630e   Data          16  segger_rtt_printf.o(.constdata)
    .constdata                               0x10006320   Section     1064  main.o(.constdata)
    _ll_packet_length                        0x10006323   Data          15  main.o(.constdata)
    _smp_packet_lenght                       0x10006332   Data          22  main.o(.constdata)
    crc32tab                                 0x10006348   Data        1024  main.o(.constdata)
    .data                                    0x20003000   Section       59  main.o(.data)
    latency_state                            0x20003001   Data           1  main.o(.data)
    start_tx                                 0x20003003   Data           1  main.o(.data)
    uart_delay_cnt                           0x20003004   Data           2  main.o(.data)
    g_report                                 0x20003008   Data           4  main.o(.data)
    .data                                    0x2000303c   Section       28  ota.o(.data)
    EvtBuf                                   0x20003050   Data           8  ota.o(.data)
    .data                                    0x20003058   Section       72  gpio.o(.data)
    gpio_callback                            0x2000306c   Data           4  gpio.o(.data)
    pinmuxtab48                              0x20003070   Data          24  gpio.o(.data)
    pinmuxtab32                              0x20003088   Data          24  gpio.o(.data)
    .data                                    0x200030a0   Section        8  uart.o(.data)
    UART_0_CTRL                              0x200030a0   Data           4  uart.o(.data)
    UART_1_CTRL                              0x200030a4   Data           4  uart.o(.data)
    .data                                    0x200030a8   Section        4  rtc_handler.o(.data)
    .data                                    0x200030ac   Section        4  system_armcm0.o(.data)
    .data                                    0x200030b0   Section       64  main.o(.data)
    syd_confirm                              0x200030b0   Data           1  main.o(.data)
    ww_minus_cnt                             0x200030b1   Data           1  main.o(.data)
    ext_uart_en                              0x200030b2   Data           1  main.o(.data)
    get_bond_device_idx                      0x200030b3   Data           1  main.o(.data)
    _valid_l2cap_lenght                      0x200030b5   Data           1  main.o(.data)
    rssi_rx                                  0x200030b7   Data           1  main.o(.data)
    p_flash_hdr                              0x200030b8   Data           4  main.o(.data)
    p_lclink                                 0x200030bc   Data           4  main.o(.data)
    p_txpdu                                  0x200030c0   Data           4  main.o(.data)
    p_rxbuf                                  0x200030c4   Data           4  main.o(.data)
    p_flash                                  0x200030c8   Data           4  main.o(.data)
    p_dump_key                               0x200030d0   Data           4  main.o(.data)
    EFUSE_CTRL                               0x200030d4   Data           4  main.o(.data)
    BB_CTRL                                  0x200030d8   Data           4  main.o(.data)
    PW_CTRL                                  0x200030dc   Data           4  main.o(.data)
    PIN_CONFIG                               0x200030e0   Data           4  main.o(.data)
    CONFIG_FLASH_SIZE                        0x200030e4   Data           4  main.o(.data)
    g_evt                                    0x200030e8   Data           8  main.o(.data)
    .data                                    0x200030f0   Section       28  timer.o(.data)
    TIMER_CTRL                               0x200030f4   Data           4  timer.o(.data)
    .data                                    0x2000310c   Section       40  rtc.o(.data)
    enabled                                  0x2000310c   Data           1  rtc.o(.data)
    irq_cb                                   0x2000312c   Data           4  rtc.o(.data)
    .bss                                     0x20003134   Section     2192  main.o(.bss)
    .bss                                     0x200039c4   Section       40  ota.o(.bss)
    .bss                                     0x200039ec   Section       48  timer_handler.o(.bss)
    .bss                                     0x20003a1c   Section       24  rtc_handler.o(.bss)
    .bss                                     0x20003a34   Section     1112  segger_rtt.o(.bss)
    _acUpBuffer                              0x20003a7c   Data        1024  segger_rtt.o(.bss)
    _acDownBuffer                            0x20003e7c   Data          16  segger_rtt.o(.bss)
    .bss                                     0x20003e8c   Section      104  main.o(.bss)
    code_hdr                                 0x20003e8c   Data          87  main.o(.bss)
    smart_update_ctrol                       0x20003ee3   Data          17  main.o(.bss)
    .bss                                     0x20003ef4   Section       12  timer.o(.bss)
    timer_callback                           0x20003ef4   Data          12  timer.o(.bss)
    STACK                                    0x20003f00   Section     1024  startup_armcm0.o(STACK)

    Global Symbols

    Symbol Name                              Value     Ov Type        Size  Object(Section)

    BuildAttributes$$THM_ISAv3M$S$PE$A:L22$X:L11$S22$IEEE1$IW$USESV6$~STKCKD$USESV7$~SHL$OTIME$ROPI$EBA8$MICROLIB$REQ8$PRES8$EABIv2 0x00000000   Number         0  anon$$obj.o ABSOLUTE
    __ARM_use_no_argv                        0x00000000   Number         0  main.o ABSOLUTE
    __use_no_errno                           0x00000000   Number         0  useno.o ABSOLUTE
    __use_no_exception_handling              0x00000000   Number         0  useno.o ABSOLUTE
    __use_no_fp                              0x00000000   Number         0  useno.o ABSOLUTE
    __use_no_heap                            0x00000000   Number         0  useno.o ABSOLUTE
    __use_no_heap_region                     0x00000000   Number         0  useno.o ABSOLUTE
    __use_no_semihosting                     0x00000000   Number         0  useno.o ABSOLUTE
    __use_no_semihosting_swi                 0x00000000   Number         0  useno.o ABSOLUTE
    __use_no_signal_handling                 0x00000000   Number         0  useno.o ABSOLUTE
    _printf_a                                0x00000000   Number         0  stubs.o ABSOLUTE
    _printf_c                                0x00000000   Number         0  stubs.o ABSOLUTE
    _printf_charcount                        0x00000000   Number         0  stubs.o ABSOLUTE
    _printf_d                                0x00000000   Number         0  stubs.o ABSOLUTE
    _printf_e                                0x00000000   Number         0  stubs.o ABSOLUTE
    _printf_f                                0x00000000   Number         0  stubs.o ABSOLUTE
    _printf_flags                            0x00000000   Number         0  stubs.o ABSOLUTE
    _printf_fp_dec                           0x00000000   Number         0  stubs.o ABSOLUTE
    _printf_fp_hex                           0x00000000   Number         0  stubs.o ABSOLUTE
    _printf_g                                0x00000000   Number         0  stubs.o ABSOLUTE
    _printf_i                                0x00000000   Number         0  stubs.o ABSOLUTE
    _printf_int_dec                          0x00000000   Number         0  stubs.o ABSOLUTE
    _printf_l                                0x00000000   Number         0  stubs.o ABSOLUTE
    _printf_lc                               0x00000000   Number         0  stubs.o ABSOLUTE
    _printf_ll                               0x00000000   Number         0  stubs.o ABSOLUTE
    _printf_lld                              0x00000000   Number         0  stubs.o ABSOLUTE
    _printf_lli                              0x00000000   Number         0  stubs.o ABSOLUTE
    _printf_llo                              0x00000000   Number         0  stubs.o ABSOLUTE
    _printf_llu                              0x00000000   Number         0  stubs.o ABSOLUTE
    _printf_llx                              0x00000000   Number         0  stubs.o ABSOLUTE
    _printf_longlong_dec                     0x00000000   Number         0  stubs.o ABSOLUTE
    _printf_longlong_hex                     0x00000000   Number         0  stubs.o ABSOLUTE
    _printf_longlong_oct                     0x00000000   Number         0  stubs.o ABSOLUTE
    _printf_ls                               0x00000000   Number         0  stubs.o ABSOLUTE
    _printf_mbtowc                           0x00000000   Number         0  stubs.o ABSOLUTE
    _printf_n                                0x00000000   Number         0  stubs.o ABSOLUTE
    _printf_o                                0x00000000   Number         0  stubs.o ABSOLUTE
    _printf_p                                0x00000000   Number         0  stubs.o ABSOLUTE
    _printf_percent                          0x00000000   Number         0  stubs.o ABSOLUTE
    _printf_pre_padding                      0x00000000   Number         0  stubs.o ABSOLUTE
    _printf_return_value                     0x00000000   Number         0  stubs.o ABSOLUTE
    _printf_s                                0x00000000   Number         0  stubs.o ABSOLUTE
    _printf_sizespec                         0x00000000   Number         0  stubs.o ABSOLUTE
    _printf_str                              0x00000000   Number         0  stubs.o ABSOLUTE
    _printf_truncate_signed                  0x00000000   Number         0  stubs.o ABSOLUTE
    _printf_truncate_unsigned                0x00000000   Number         0  stubs.o ABSOLUTE
    _printf_u                                0x00000000   Number         0  stubs.o ABSOLUTE
    _printf_wc                               0x00000000   Number         0  stubs.o ABSOLUTE
    _printf_wctomb                           0x00000000   Number         0  stubs.o ABSOLUTE
    _printf_widthprec                        0x00000000   Number         0  stubs.o ABSOLUTE
    _printf_x                                0x00000000   Number         0  stubs.o ABSOLUTE
    __cpp_initialize__aeabi_                  - Undefined Weak Reference
    __cxa_finalize                            - Undefined Weak Reference
    _clock_init                               - Undefined Weak Reference
    _microlib_exit                            - Undefined Weak Reference
    __Vectors_Size                           0x000000c0   Number         0  startup_armcm0.o ABSOLUTE
    __Vectors                                0x10000000   Data           4  startup_armcm0.o(RESET)
    __Vectors_End                            0x100000c0   Data           0  startup_armcm0.o(RESET)
    __main                                   0x100000c1   Thumb Code     0  entry.o(.ARM.Collect$$$$00000000)
    _main_stk                                0x100000c1   Thumb Code     0  entry2.o(.ARM.Collect$$$$00000001)
    _main_scatterload                        0x100000c5   Thumb Code     0  entry5.o(.ARM.Collect$$$$00000004)
    __main_after_scatterload                 0x100000c9   Thumb Code     0  entry5.o(.ARM.Collect$$$$00000004)
    _main_clock                              0x100000c9   Thumb Code     0  entry7b.o(.ARM.Collect$$$$00000008)
    _main_cpp_init                           0x100000c9   Thumb Code     0  entry8b.o(.ARM.Collect$$$$0000000A)
    _main_init                               0x100000c9   Thumb Code     0  entry9a.o(.ARM.Collect$$$$0000000B)
    __rt_final_cpp                           0x100000d1   Thumb Code     0  entry10a.o(.ARM.Collect$$$$0000000D)
    __rt_final_exit                          0x100000d1   Thumb Code     0  entry11a.o(.ARM.Collect$$$$0000000F)
    gpio_init                                0x10000111   Thumb Code   132  main.o(.text)
    BLSetConnectionUpdate                    0x100001f9   Thumb Code    78  main.o(.text)
    Connection_latency                       0x10000247   Thumb Code    38  main.o(.text)
    BLE_SendUARTData                         0x1000026d   Thumb Code    46  main.o(.text)
    ble_evt_callback                         0x1000036f   Thumb Code   692  main.o(.text)
    ota_manage                               0x10000623   Thumb Code   124  main.o(.text)
    nvic_priority                            0x1000069f   Thumb Code   188  main.o(.text)
    main                                     0x1000075b   Thumb Code   272  main.o(.text)
    HardFault_Handler                        0x1000086b   Thumb Code    10  main.o(.text)
    uartRx_callback                          0x10000b5d   Thumb Code    58  uart_protocol.o(.text)
    uart_cmd                                 0x10000b97   Thumb Code    26  uart_protocol.o(.text)
    delay_ms                                 0x10000bb9   Thumb Code    26  delay.o(.text)
    CmdFwErase                               0x10000bf1   Thumb Code    22  ota.o(.text)
    ota_variable_clear                       0x10000c07   Thumb Code    24  ota.o(.text)
    ota_cmd                                  0x10000c1f   Thumb Code   522  ota.o(.text)
    ota_rsp                                  0x10000e29   Thumb Code    36  ota.o(.text)
    PIN_Pullup_Enable                        0x100010e9   Thumb Code   102  gpio.o(.text)
    PIN_Pullup_Disable                       0x1000114f   Thumb Code   102  gpio.o(.text)
    GPIO_Set_Output                          0x100011b5   Thumb Code    48  gpio.o(.text)
    GPIO_Set_Input                           0x100011e5   Thumb Code   172  gpio.o(.text)
    GPIO_Pin_Set                             0x10001291   Thumb Code    48  gpio.o(.text)
    GPIO_Pin_Clear                           0x100012c1   Thumb Code    48  gpio.o(.text)
    GPIO_Pin_Turn                            0x100012f1   Thumb Code    48  gpio.o(.text)
    GPIO_IRQHandler                          0x10001321   Thumb Code   116  gpio.o(.text)
    uart_0_init                              0x1000139d   Thumb Code   170  uart.o(.text)
    uart_0_write                             0x10001447   Thumb Code    22  uart.o(.text)
    uart_0_read                              0x1000145d   Thumb Code    52  uart.o(.text)
    uart_0_ClrFiFo                           0x10001491   Thumb Code    14  uart.o(.text)
    UART0_IRQHandler                         0x1000149f   Thumb Code    42  uart.o(.text)
    UART1_IRQHandler                         0x100014c9   Thumb Code    26  uart.o(.text)
    Timer_Evt_2s                             0x10001501   Thumb Code    14  timer_handler.o(.text)
    Timer_EVT_1S_OTA                         0x1000150f   Thumb Code    14  timer_handler.o(.text)
    Timer_Evt_List                           0x1000151d   Thumb Code    36  timer_handler.o(.text)
    RTC_Evt_185s                             0x1000154d   Thumb Code    12  rtc_handler.o(.text)
    RTC_Evt_List                             0x10001559   Thumb Code    22  rtc_handler.o(.text)
    SEGGER_RTT_WriteNoLock                   0x1000165f   Thumb Code    86  segger_rtt.o(.text)
    SEGGER_RTT_Write                         0x100016b5   Thumb Code    48  segger_rtt.o(.text)
    SEGGER_RTT_Init                          0x100016e5   Thumb Code     2  segger_rtt.o(.text)
    SEGGER_RTT_vprintf                       0x1000182d   Thumb Code   452  segger_rtt_printf.o(.text)
    SEGGER_RTT_printf                        0x100019f1   Thumb Code    24  segger_rtt_printf.o(.text)
    SEGGER_RTT_hexdump                       0x10001a09   Thumb Code    84  segger_rtt_printf.o(.text)
    Reset_Handler                            0x10001b45   Thumb Code     8  startup_armcm0.o(.text)
    NMI_Handler                              0x10001b4d   Thumb Code     2  startup_armcm0.o(.text)
    SVC_Handler                              0x10001b51   Thumb Code     2  startup_armcm0.o(.text)
    PendSV_Handler                           0x10001b53   Thumb Code     2  startup_armcm0.o(.text)
    SysTick_Handler                          0x10001b55   Thumb Code     2  startup_armcm0.o(.text)
    CAP_IRQHandler                           0x10001b57   Thumb Code     0  startup_armcm0.o(.text)
    GPADC_IRQHandler                         0x10001b57   Thumb Code     0  startup_armcm0.o(.text)
    HID_IRQHandler                           0x10001b57   Thumb Code     0  startup_armcm0.o(.text)
    HPWM_IRQHandler                          0x10001b57   Thumb Code     0  startup_armcm0.o(.text)
    HTIMER_IRQHandler                        0x10001b57   Thumb Code     0  startup_armcm0.o(.text)
    I2C0_IRQHandler                          0x10001b57   Thumb Code     0  startup_armcm0.o(.text)
    I2C1_IRQHandler                          0x10001b57   Thumb Code     0  startup_armcm0.o(.text)
    IR_Rx_IRQHandler                         0x10001b57   Thumb Code     0  startup_armcm0.o(.text)
    IR_Tx_IRQHandler                         0x10001b57   Thumb Code     0  startup_armcm0.o(.text)
    ISO_7816_IRQHandler                      0x10001b57   Thumb Code     0  startup_armcm0.o(.text)
    LLC2_IRQHandler                          0x10001b57   Thumb Code     0  startup_armcm0.o(.text)
    LLC_IRQHandler                           0x10001b57   Thumb Code     0  startup_armcm0.o(.text)
    SPIM_IRQHandler                          0x10001b57   Thumb Code     0  startup_armcm0.o(.text)
    SW_IRQHandler                            0x10001b57   Thumb Code     0  startup_armcm0.o(.text)
    TIMER3_IRQHandler                        0x10001b57   Thumb Code     0  startup_armcm0.o(.text)
    TOUCH_IRQHandler                         0x10001b57   Thumb Code     0  startup_armcm0.o(.text)
    SystemInit                               0x10001b61   Thumb Code     8  system_armcm0.o(.text)
    LLPingReq                                0x10001c97   Thumb Code    26  main.o(.text)
    LLScanReqHandle                          0x10001cb1   Thumb Code    58  main.o(.text)
    _BBGetMask                               0x10002003   Thumb Code    92  main.o(.text)
    Lib_LLEvtCallback                        0x1000205f   Thumb Code   186  main.o(.text)
    ConnectionLatencyMode                    0x10002119   Thumb Code   112  main.o(.text)
    sw_timer_latency_callback                0x10002189   Thumb Code    42  main.o(.text)
    TimerStart                               0x100021b3   Thumb Code    10  main.o(.text)
    smart_latency_start                      0x100021bd   Thumb Code   212  main.o(.text)
    smart_update_latency_updatersp           0x10002291   Thumb Code   162  main.o(.text)
    BBRFRead                                 0x10002333   Thumb Code     4  main.o(.text)
    BBRFWrite                                0x10002337   Thumb Code     6  main.o(.text)
    RCOSCCalibration                         0x1000233d   Thumb Code   116  main.o(.text)
    RFSleep                                  0x100023b1   Thumb Code    10  main.o(.text)
    UartEn                                   0x100023bb   Thumb Code    32  main.o(.text)
    _SYS32kClockSwitch                       0x100023db   Thumb Code   218  main.o(.text)
    ClockSwitch                              0x100024b5   Thumb Code    10  main.o(.text)
    RFWakeup                                 0x100024bf   Thumb Code    24  main.o(.text)
    LPOCalibration                           0x100024d7   Thumb Code   216  main.o(.text)
    smart_latency_clear                      0x100025af   Thumb Code    12  main.o(.text)
    Lib_EvtCallback                          0x100025bb   Thumb Code   254  main.o(.text)
    _BMGetNextBondDevice                     0x100026b9   Thumb Code   144  main.o(.text)
    __LLVersionIndRxHandler                  0x10002867   Thumb Code    66  main.o(.text)
    GetMasterSystem                          0x100028a9   Thumb Code     6  main.o(.text)
    TimerStop                                0x100028af   Thumb Code     4  main.o(.text)
    smart_update_retry                       0x100028b3   Thumb Code   158  main.o(.text)
    sw_timer_update_callback                 0x10002951   Thumb Code    60  main.o(.text)
    smart_update_latency_updatareq           0x1000298d   Thumb Code   496  main.o(.text)
    Lib_ProtocolHookCallback                 0x10002b7d   Thumb Code   172  main.o(.text)
    Lib_MiscCallback                         0x10002c29   Thumb Code    14  main.o(.text)
    BleInit                                  0x10002c37   Thumb Code   270  main.o(.text)
    DisConnect                               0x10002d45   Thumb Code    12  main.o(.text)
    SetDevAddr                               0x10002d51   Thumb Code    12  main.o(.text)
    GetDevAddr                               0x10002d5d   Thumb Code    12  main.o(.text)
    SetLEFeature                             0x10002d69   Thumb Code    12  main.o(.text)
    SetAdvAccCode                            0x10002d75   Thumb Code    12  main.o(.text)
    SetAdvParams                             0x10002d81   Thumb Code    12  main.o(.text)
    SetAdvData                               0x10002d8d   Thumb Code    12  main.o(.text)
    StartAdv                                 0x10002fcd   Thumb Code    10  main.o(.text)
    StopAdv                                  0x10002fd7   Thumb Code    26  main.o(.text)
    StopAdv_Noreset                          0x10002ff1   Thumb Code   112  main.o(.text)
    SetScanParams                            0x10003061   Thumb Code    10  main.o(.text)
    _BBSetScan                               0x1000306b   Thumb Code    46  main.o(.text)
    _GAPStartScan                            0x10003099   Thumb Code   182  main.o(.text)
    StartScan                                0x1000314f   Thumb Code    10  main.o(.text)
    StopScan                                 0x10003159   Thumb Code    10  main.o(.text)
    SetSecParams                             0x10003163   Thumb Code    12  main.o(.text)
    SetConnectionUpdate                      0x1000316f   Thumb Code    12  main.o(.text)
    GetLinkParameters                        0x1000317b   Thumb Code    12  main.o(.text)
    SetWinWideMinusCnt                       0x10003187   Thumb Code     8  main.o(.text)
    SetPasskey                               0x1000318f   Thumb Code    12  main.o(.text)
    SecurityReq                              0x1000319b   Thumb Code    12  main.o(.text)
    SetEvtCallback                           0x100031a7   Thumb Code    54  main.o(.text)
    GetGATTReportHandle                      0x100031dd   Thumb Code    10  main.o(.text)
    SetGATTReadRsp                           0x100031e7   Thumb Code    12  main.o(.text)
    CheckFIFOFull                            0x100031f3   Thumb Code    18  main.o(.text)
    GATTDataSend                             0x10003205   Thumb Code    86  main.o(.text)
    ATTCSetCallback                          0x1000325b   Thumb Code     4  main.o(.text)
    ATTCMTUReq                               0x1000325f   Thumb Code    24  main.o(.text)
    ATTCFindInfoReq                          0x10003277   Thumb Code    28  main.o(.text)
    ATTCFindByTypeValueReq                   0x10003293   Thumb Code    40  main.o(.text)
    ATTCReadByTypeReq                        0x100032bb   Thumb Code    36  main.o(.text)
    ATTCReadReq                              0x100032df   Thumb Code    24  main.o(.text)
    ATTCReadBlobReq                          0x100032f7   Thumb Code    28  main.o(.text)
    ATTCReadMultipleReq                      0x10003313   Thumb Code    28  main.o(.text)
    ATTCReadByGroupTypeReq                   0x1000332f   Thumb Code    34  main.o(.text)
    ATTCWriteReq                             0x10003351   Thumb Code    32  main.o(.text)
    ATTCWriteCmdReq                          0x10003371   Thumb Code    32  main.o(.text)
    ATTCPrepareWriteReq                      0x10003391   Thumb Code    36  main.o(.text)
    ATTCExecuteWriteReq                      0x100033b5   Thumb Code    24  main.o(.text)
    ATTCConfirmation                         0x100033cd   Thumb Code    20  main.o(.text)
    _SYSClockSwitch                          0x100033e1   Thumb Code    86  main.o(.text)
    MCUClockSwitch                           0x10003437   Thumb Code     2  main.o(.text)
    GetMCUClock                              0x10003439   Thumb Code    68  main.o(.text)
    GetClock                                 0x1000347d   Thumb Code    14  main.o(.text)
    WakeupConfig                             0x1000348b   Thumb Code    12  main.o(.text)
    LLSleep                                  0x10003497   Thumb Code    12  main.o(.text)
    Rand                                     0x100034a3   Thumb Code     4  main.o(.text)
    DelayUS                                  0x100034a7   Thumb Code     4  main.o(.text)
    DelayMS                                  0x100034ab   Thumb Code     6  main.o(.text)
    GetCompanyID                             0x100034b1   Thumb Code    18  main.o(.text)
    GetQFNType                               0x100034c3   Thumb Code    20  main.o(.text)
    RFRead                                   0x100034d7   Thumb Code     8  main.o(.text)
    RFWrite                                  0x100034df   Thumb Code     8  main.o(.text)
    lib_check_ble_fsm_state                  0x100034e7   Thumb Code    26  main.o(.text)
    SystemSleep                              0x10003501   Thumb Code    20  main.o(.text)
    SystemPowerDown                          0x10003515   Thumb Code    80  main.o(.text)
    SystemReset                              0x10003565   Thumb Code    12  main.o(.text)
    CapdetEn                                 0x10003571   Thumb Code    12  main.o(.text)
    PowerDownLPOEn                           0x1000357d   Thumb Code    12  main.o(.text)
    SetBondManagerIndex                      0x10003589   Thumb Code    12  main.o(.text)
    GetBondDevice                            0x10003595   Thumb Code     6  main.o(.text)
    AddBondDevice                            0x1000359b   Thumb Code    12  main.o(.text)
    DelAllBondDevice                         0x100035a7   Thumb Code    10  main.o(.text)
    DelBondDevice                            0x100035b1   Thumb Code    12  main.o(.text)
    ReadProfileData                          0x100035bd   Thumb Code     6  main.o(.text)
    WriteProfileData                         0x100035c3   Thumb Code     6  main.o(.text)
    EraseFlashData                           0x100035c9   Thumb Code    78  main.o(.text)
    ReadFlashData                            0x10003617   Thumb Code    56  main.o(.text)
    WriteFlashData                           0x1000364f   Thumb Code    56  main.o(.text)
    CodeErase                                0x10003687   Thumb Code   100  main.o(.text)
    CodeErase_sector                         0x100036eb   Thumb Code    72  main.o(.text)
    _FMCodeWrite                             0x10003733   Thumb Code    58  main.o(.text)
    CodeWrite                                0x1000376d   Thumb Code    30  main.o(.text)
    CodeUpdate                               0x1000378b   Thumb Code    10  main.o(.text)
    FlashDataUpdate                          0x10003795   Thumb Code   124  main.o(.text)
    ble_sched_execute                        0x10003811   Thumb Code   200  main.o(.text)
    ble_sched_finish                         0x100038d9   Thumb Code     4  main.o(.text)
    syd52832_chip_confirm                    0x100038dd   Thumb Code    24  main.o(.text)
    gap_s_smart_update_latency               0x100038f5   Thumb Code   192  main.o(.text)
    eFuseManual                              0x100039b5   Thumb Code    28  main.o(.text)
    GPADC_Manual_Calibration                 0x100039d1   Thumb Code    34  main.o(.text)
    GPADC_Get_Calibration                    0x100039f3   Thumb Code    22  main.o(.text)
    GAPGetUartEn                             0x10003a09   Thumb Code     6  main.o(.text)
    GAPUartEn                                0x10003a0f   Thumb Code     6  main.o(.text)
    GAPBBDelayUS                             0x10003a15   Thumb Code     4  main.o(.text)
    GAPBBDelayMS                             0x10003a19   Thumb Code     6  main.o(.text)
    GAPGetRFAutoSleep                        0x10003a1f   Thumb Code     4  main.o(.text)
    GAPSetRFAutoSleep                        0x10003a23   Thumb Code     6  main.o(.text)
    Setting4kUpdate                          0x10003a29   Thumb Code   116  main.o(.text)
    SetDevAddr_toflash                       0x10003a9d   Thumb Code    72  main.o(.text)
    gap_s_verdor_datas_get                   0x10003ae5   Thumb Code    28  main.o(.text)
    gap_s_verdor_datas_set                   0x10003b01   Thumb Code    66  main.o(.text)
    gap_s_is_ll_start_enc                    0x10003b43   Thumb Code    26  main.o(.text)
    GAPBBTXFIFO0Write                        0x10003b5d   Thumb Code     4  main.o(.text)
    flash_peotect_key_confirm                0x10003b61   Thumb Code   148  main.o(.text)
    swd_lock                                 0x10003bf5   Thumb Code    36  main.o(.text)
    flash_data_offect_get                    0x10003c19   Thumb Code    52  main.o(.text)
    EraseCodeB                               0x10003c4d   Thumb Code    58  main.o(.text)
    ReadCodeB                                0x10003c87   Thumb Code   102  main.o(.text)
    WriteCodeB                               0x10003ced   Thumb Code    60  main.o(.text)
    ble_SetTxPower                           0x10003d29   Thumb Code   242  main.o(.text)
    flash_data_size_get                      0x10003e1b   Thumb Code    18  main.o(.text)
    code_idx_get                             0x10003e2d   Thumb Code     6  main.o(.text)
    flash_data_size_set                      0x10003e33   Thumb Code   146  main.o(.text)
    Get_RSSI_Last_RX                         0x10003ec5   Thumb Code    82  main.o(.text)
    APP_Read_Attribute_Encrypt               0x10003f17   Thumb Code    62  main.o(.text)
    APP_Write_Attribute_Encrypt              0x10003f55   Thumb Code    66  main.o(.text)
    APP_Read_Charact_Permission              0x10003f97   Thumb Code    66  main.o(.text)
    smart_latency_target                     0x10003fd9   Thumb Code    30  main.o(.text)
    smp_aes_encrypt                          0x10003ff7   Thumb Code     4  main.o(.text)
    gap_get_flash_data_info                  0x10003ffb   Thumb Code    28  main.o(.text)
    gap_set_flash_data_info                  0x10004017   Thumb Code    70  main.o(.text)
    gap_check_dev_bonded                     0x1000405d   Thumb Code     6  main.o(.text)
    syd_set_chip_flash_all_size              0x10004063   Thumb Code     6  main.o(.text)
    Xtal_trim_get                            0x10004069   Thumb Code   136  main.o(.text)
    Xtal_trim_set                            0x100040f1   Thumb Code   164  main.o(.text)
    flash_read_sfdp                          0x10004195   Thumb Code    46  main.o(.text)
    syd_read_unique_id                       0x100041c3   Thumb Code    30  main.o(.text)
    ota_code_check_crc32                     0x100041e1   Thumb Code   194  main.o(.text)
    RefreshCache                             0x100042a3   Thumb Code     8  main.o(.text)
    SetClock                                 0x100042ab   Thumb Code    60  main.o(.text)
    Get_Clock_PPM                            0x100042e7   Thumb Code    40  main.o(.text)
    Set_Clock_PPM                            0x1000430f   Thumb Code    64  main.o(.text)
    Timer_Evt_Creat                          0x10004581   Thumb Code    54  timer.o(.text)
    Min                                      0x100045b7   Thumb Code     8  timer.o(.text)
    TimerDelayUS                             0x100045bf   Thumb Code    24  timer.o(.text)
    timer_0_disable                          0x100045d7   Thumb Code    48  timer.o(.text)
    timer_0_enable                           0x10004607   Thumb Code    96  timer.o(.text)
    timer_0_start                            0x10004667   Thumb Code     2  timer.o(.text)
    timer_0_get                              0x100046d7   Thumb Code    92  timer.o(.text)
    Timer_Evt_Stop                           0x10004733   Thumb Code   120  timer.o(.text)
    Timer_Evt_ReSet                          0x100047ab   Thumb Code    64  timer.o(.text)
    Timer_Evt_Clr                            0x100047eb   Thumb Code    10  timer.o(.text)
    Timer_Evt_Start                          0x100047f5   Thumb Code   156  timer.o(.text)
    Timer_Evt_ReStart                        0x10004891   Thumb Code   132  timer.o(.text)
    Timer_Get_State                          0x10004915   Thumb Code    34  timer.o(.text)
    SYD_Timer_Init                           0x10004937   Thumb Code    34  timer.o(.text)
    timer_0_delay_32us                       0x10004959   Thumb Code    92  timer.o(.text)
    TIMER0_IRQHandler                        0x100049b5   Thumb Code    32  timer.o(.text)
    timer_1_enable                           0x100049d5   Thumb Code    96  timer.o(.text)
    timer_1_disable                          0x10004a35   Thumb Code    48  timer.o(.text)
    TIMER1_IRQHandler                        0x10004a65   Thumb Code    32  timer.o(.text)
    timer_2_enable                           0x10004a85   Thumb Code    96  timer.o(.text)
    timer_1_get                              0x10004ae5   Thumb Code    34  timer.o(.text)
    timer_2_get                              0x10004b07   Thumb Code    34  timer.o(.text)
    timer_2_disable                          0x10004b29   Thumb Code    48  timer.o(.text)
    TIMER2_IRQHandler                        0x10004b59   Thumb Code    32  timer.o(.text)
    rtc_get_calendar                         0x10004bb5   Thumb Code    40  rtc.o(.text)
    RTC_RUN                                  0x10004bdd   Thumb Code    66  rtc.o(.text)
    rtc_set_compare                          0x10004c1f   Thumb Code    68  rtc.o(.text)
    RTC_SET                                  0x10004c63   Thumb Code    84  rtc.o(.text)
    RTC_Refressh                             0x10004cb7   Thumb Code    76  rtc.o(.text)
    RTC_EVT_Creat                            0x10004d03   Thumb Code    32  rtc.o(.text)
    Min_RTC                                  0x10004d23   Thumb Code     8  rtc.o(.text)
    rtc_int_disable                          0x10004d2b   Thumb Code    24  rtc.o(.text)
    RTC_EVT_Clr                              0x10004dd9   Thumb Code    10  rtc.o(.text)
    RTC_EVT_Stop                             0x10004de3   Thumb Code   112  rtc.o(.text)
    RTC_EVT_Start                            0x10004e53   Thumb Code   146  rtc.o(.text)
    RTC_EVT_whole_minute_setid               0x10004ee5   Thumb Code     6  rtc.o(.text)
    RTC_EVT_whole_minute_adj                 0x10004eeb   Thumb Code   132  rtc.o(.text)
    RTC_Get_State                            0x10004f6f   Thumb Code    54  rtc.o(.text)
    rtc_start                                0x10004fa5   Thumb Code    28  rtc.o(.text)
    rtc_set_interrupt_callback               0x10004fc1   Thumb Code     6  rtc.o(.text)
    rtc_int_enable                           0x10004fc7   Thumb Code    22  rtc.o(.text)
    rtc_int_clear                            0x10004fdd   Thumb Code    22  rtc.o(.text)
    rtc_set_calendar                         0x10004ff3   Thumb Code    40  rtc.o(.text)
    rtc_set_prescaler                        0x1000501b   Thumb Code    34  rtc.o(.text)
    rtc_clear                                0x1000503d   Thumb Code    18  rtc.o(.text)
    rtc_stop                                 0x1000504f   Thumb Code    30  rtc.o(.text)
    rtc_init                                 0x1000506d   Thumb Code   126  rtc.o(.text)
    SYD_RTC_Init                             0x100050eb   Thumb Code    40  rtc.o(.text)
    RTC_IRQHandler                           0x10005113   Thumb Code    30  rtc.o(.text)
    rtc_status                               0x10005131   Thumb Code     6  rtc.o(.text)
    rtc_get_compare                          0x10005137   Thumb Code    52  rtc.o(.text)
    __aeabi_uidiv                            0x1000517d   Thumb Code     0  uidiv.o(.text)
    __aeabi_uidivmod                         0x1000517d   Thumb Code    44  uidiv.o(.text)
    __aeabi_idiv                             0x100051a9   Thumb Code     0  idiv.o(.text)
    __aeabi_idivmod                          0x100051a9   Thumb Code    40  idiv.o(.text)
    __aeabi_memcpy                           0x100051d1   Thumb Code    36  memcpya.o(.text)
    __aeabi_memcpy4                          0x100051d1   Thumb Code     0  memcpya.o(.text)
    __aeabi_memcpy8                          0x100051d1   Thumb Code     0  memcpya.o(.text)
    __aeabi_memset                           0x100051f5   Thumb Code    14  memseta.o(.text)
    __aeabi_memset4                          0x100051f5   Thumb Code     0  memseta.o(.text)
    __aeabi_memset8                          0x100051f5   Thumb Code     0  memseta.o(.text)
    __aeabi_memclr                           0x10005203   Thumb Code     4  memseta.o(.text)
    __aeabi_memclr4                          0x10005203   Thumb Code     0  memseta.o(.text)
    __aeabi_memclr8                          0x10005203   Thumb Code     0  memseta.o(.text)
    _memset$wrapper                          0x10005207   Thumb Code    18  memseta.o(.text)
    memcmp                                   0x10005219   Thumb Code    26  memcmp.o(.text)
    strcpy                                   0x10005233   Thumb Code    18  strcpy.o(.text)
    __aeabi_uread4                           0x10005245   Thumb Code    20  uread4.o(.text)
    __rt_uread4                              0x10005245   Thumb Code     0  uread4.o(.text)
    _uread4                                  0x10005245   Thumb Code     0  uread4.o(.text)
    __aeabi_uwrite4                          0x10005259   Thumb Code    18  uwrite4.o(.text)
    __rt_uwrite4                             0x10005259   Thumb Code     0  uwrite4.o(.text)
    _uwrite4                                 0x10005259   Thumb Code     0  uwrite4.o(.text)
    __aeabi_fadd                             0x1000526b   Thumb Code   162  fadd.o(.text)
    __aeabi_fsub                             0x1000530d   Thumb Code     8  fadd.o(.text)
    __aeabi_frsub                            0x10005315   Thumb Code     8  fadd.o(.text)
    __aeabi_dadd                             0x1000531d   Thumb Code   328  dadd.o(.text)
    __aeabi_dsub                             0x10005465   Thumb Code    12  dadd.o(.text)
    __aeabi_drsub                            0x10005471   Thumb Code    12  dadd.o(.text)
    __aeabi_dmul                             0x10005481   Thumb Code   202  dmul.o(.text)
    __aeabi_ddiv                             0x10005551   Thumb Code   234  ddiv.o(.text)
    __aeabi_ui2f                             0x10005641   Thumb Code    14  ffltui.o(.text)
    __aeabi_i2d                              0x10005651   Thumb Code    34  dflti.o(.text)
    __aeabi_ui2d                             0x10005679   Thumb Code    24  dfltui.o(.text)
    __aeabi_d2uiz                            0x10005695   Thumb Code    50  dfixui.o(.text)
    __aeabi_f2d                              0x100056d1   Thumb Code    40  f2d.o(.text)
    __aeabi_uldivmod                         0x100056f9   Thumb Code    96  uldiv.o(.text)
    __aeabi_llsl                             0x10005759   Thumb Code    32  llshl.o(.text)
    _ll_shift_l                              0x10005759   Thumb Code     0  llshl.o(.text)
    __aeabi_llsr                             0x10005779   Thumb Code    34  llushr.o(.text)
    _ll_ushift_r                             0x10005779   Thumb Code     0  llushr.o(.text)
    __aeabi_lasr                             0x1000579b   Thumb Code    38  llsshr.o(.text)
    _ll_sshift_r                             0x1000579b   Thumb Code     0  llsshr.o(.text)
    __I$use$fp                               0x100057c1   Thumb Code     0  iusefp.o(.text)
    _float_round                             0x100057c1   Thumb Code    16  fepilogue.o(.text)
    _float_epilogue                          0x100057d1   Thumb Code   114  fepilogue.o(.text)
    _double_round                            0x10005843   Thumb Code    26  depilogue.o(.text)
    _double_epilogue                         0x1000585d   Thumb Code   164  depilogue.o(.text)
    __aeabi_d2ulz                            0x10005901   Thumb Code    54  dfixul.o(.text)
    __aeabi_cdrcmple                         0x10005941   Thumb Code    38  cdrcmple.o(.text)
    __scatterload                            0x10005969   Thumb Code    28  init.o(.text)
    __scatterload_rt2                        0x10005969   Thumb Code     0  init.o(.text)
    __decompress                             0x1000598d   Thumb Code     0  __dczerorl2.o(.text)
    __decompress1                            0x1000598d   Thumb Code    86  __dczerorl2.o(.text)
    __0sprintf                               0x100059e5   Thumb Code    36  printfa.o(i.__0sprintf)
    __1sprintf                               0x100059e5   Thumb Code     0  printfa.o(i.__0sprintf)
    __2sprintf                               0x100059e5   Thumb Code     0  printfa.o(i.__0sprintf)
    __c89sprintf                             0x100059e5   Thumb Code     0  printfa.o(i.__0sprintf)
    sprintf                                  0x100059e5   Thumb Code     0  printfa.o(i.__0sprintf)
    __ARM_clz                                0x10005a0d   Thumb Code    46  depilogue.o(i.__ARM_clz)
    __ARM_common_switch8                     0x10005a3b   Thumb Code    26  main.o(i.__ARM_common_switch8)
    __scatterload_copy                       0x10005a55   Thumb Code    14  handlers.o(i.__scatterload_copy)
    __scatterload_null                       0x10005a63   Thumb Code     2  handlers.o(i.__scatterload_null)
    __scatterload_zeroinit                   0x10005a65   Thumb Code    14  handlers.o(i.__scatterload_zeroinit)
    adv_chn_to_freq_idx                      0x10006320   Data           3  main.o(.constdata)
    Region$$Table$$Base                      0x10006748   Number         0  anon$$obj.o(Region$$Table)
    Region$$Table$$Limit                     0x10006768   Number         0  anon$$obj.o(Region$$Table)
    connect_flag                             0x20003000   Data           1  main.o(.data)
    update_latency_mode                      0x20003002   Data           1  main.o(.data)
    ADV_DATA                                 0x2000300c   Data          27  main.o(.data)
    SCAN_DATA                                0x20003027   Data          20  main.o(.data)
    ota_state                                0x2000303c   Data           1  ota.o(.data)
    ota_writecnt                             0x2000303d   Data           1  ota.o(.data)
    ota_section_size                         0x2000303e   Data           2  ota.o(.data)
    ota_receive_size                         0x20003040   Data           2  ota.o(.data)
    ota_section_check                        0x20003042   Data           2  ota.o(.data)
    ota_receive_check                        0x20003044   Data           2  ota.o(.data)
    ota_section_offset                       0x20003048   Data           4  ota.o(.data)
    pevt                                     0x2000304c   Data           4  ota.o(.data)
    PIN_CONFIG                               0x20003058   Data           4  gpio.o(.data)
    GPIO_CTRL                                0x2000305c   Data           4  gpio.o(.data)
    GPO_CTRL                                 0x20003060   Data           4  gpio.o(.data)
    GPI_CTRL                                 0x20003064   Data           4  gpio.o(.data)
    GPIO_IRQ_CTRL                            0x20003068   Data           4  gpio.o(.data)
    syd_history_setting_str                  0x200030a8   Data           4  rtc_handler.o(.data)
    SystemCoreClock                          0x200030ac   Data           4  system_armcm0.o(.data)
    ble_rc32k_clk_lpo_ing_flag               0x200030b4   Data           1  main.o(.data)
    master_system                            0x200030b6   Data           1  main.o(.data)
    p_gett_db_hdr                            0x200030cc   Data           4  main.o(.data)
    Event_Num                                0x200030f0   Data           1  timer.o(.data)
    max_trigger_timer                        0x200030f8   Data           4  timer.o(.data)
    TIMER_EVT                                0x200030fc   Data           4  timer.o(.data)
    Timer_Evt_Trigger_Loop_now               0x20003100   Data           4  timer.o(.data)
    sys_timer_max_p                          0x20003104   Data           4  timer.o(.data)
    sys_timer_current_p                      0x20003108   Data           4  timer.o(.data)
    RTC_Event_Num                            0x2000310d   Data           1  rtc.o(.data)
    max_trigger_rtc                          0x20003110   Data           4  rtc.o(.data)
    RTC_EVT                                  0x20003114   Data           4  rtc.o(.data)
    RTC_RTCEVT_Trigger_Loop_now              0x20003118   Data           4  rtc.o(.data)
    RTC_second_now                           0x2000311c   Data           4  rtc.o(.data)
    sys_rtc_max_p                            0x20003120   Data           4  rtc.o(.data)
    sys_rtc_current_p                        0x20003124   Data           4  rtc.o(.data)
    RTCEVT_whole_minute_id                   0x20003128   Data           4  rtc.o(.data)
    RTC_second_last                          0x20003130   Data           4  rtc.o(.data)
    uart_rx_buf                              0x20003134   Data        1032  main.o(.bss)
    uart_tx_buf                              0x2000353c   Data        1160  main.o(.bss)
    ota_w                                    0x200039c4   Data          40  ota.o(.bss)
    syd_sysTimer                             0x200039ec   Data          48  timer_handler.o(.bss)
    syd_rtc                                  0x20003a1c   Data          24  rtc_handler.o(.bss)
    _SEGGER_RTT                              0x20003a34   Data          72  segger_rtt.o(.bss)
    __initial_sp                             0x20004300   Data           0  startup_armcm0.o(STACK)



==============================================================================

Memory Map of the image

  Image Entry point : 0x100000c1

  Load Region LR_IROM1 (Base: 0x10000000, Size: 0x0000689c, Max: 0x0003f000, ABSOLUTE, COMPRESSED[0x00006804])

    Execution Region ER_IROM1 (Base: 0x10000000, Size: 0x00006768, Max: 0x0003f000, ABSOLUTE)

    Base Addr    Size         Type   Attr      Idx    E Section Name        Object

    0x10000000   0x000000c0   Data   RO          718    RESET               startup_armcm0.o
    0x100000c0   0x00000000   Code   RO          943  * .ARM.Collect$$$$00000000  mc_p.l(entry.o)
    0x100000c0   0x00000004   Code   RO         1252    .ARM.Collect$$$$00000001  mc_p.l(entry2.o)
    0x100000c4   0x00000004   Code   RO         1255    .ARM.Collect$$$$00000004  mc_p.l(entry5.o)
    0x100000c8   0x00000000   Code   RO         1257    .ARM.Collect$$$$00000008  mc_p.l(entry7b.o)
    0x100000c8   0x00000000   Code   RO         1259    .ARM.Collect$$$$0000000A  mc_p.l(entry8b.o)
    0x100000c8   0x00000008   Code   RO         1260    .ARM.Collect$$$$0000000B  mc_p.l(entry9a.o)
    0x100000d0   0x00000000   Code   RO         1262    .ARM.Collect$$$$0000000D  mc_p.l(entry10a.o)
    0x100000d0   0x00000000   Code   RO         1264    .ARM.Collect$$$$0000000F  mc_p.l(entry11a.o)
    0x100000d0   0x00000004   Code   RO         1253    .ARM.Collect$$$$00002712  mc_p.l(entry2.o)
    0x100000d4   0x00000a88   Code   RO            3    .text               main.o
    0x10000b5c   0x0000005c   Code   RO          101    .text               uart_protocol.o
    0x10000bb8   0x00000020   Code   RO          128    .text               delay.o
    0x10000bd8   0x00000510   Code   RO          154    .text               ota.o
    0x100010e8   0x000002b4   Code   RO          197    .text               gpio.o
    0x1000139c   0x00000164   Code   RO          279    .text               uart.o
    0x10001500   0x0000004c   Code   RO          346    .text               timer_handler.o
    0x1000154c   0x0000002c   Code   RO          379    .text               rtc_handler.o
    0x10001578   0x000001a4   Code   RO          407    .text               segger_rtt.o
    0x1000171c   0x00000428   Code   RO          576    .text               segger_rtt_printf.o
    0x10001b44   0x0000001c   Code   RO          719    .text               startup_armcm0.o
    0x10001b60   0x00000010   Code   RO          726    .text               system_armcm0.o
    0x10001b70   0x00002a10   Code   RO          757    .text               syd8811_ble_lib.lib(main.o)
    0x10004580   0x00000634   Code   RO          840    .text               Syd8811_softtimer_lib.lib(timer.o)
    0x10004bb4   0x000005c8   Code   RO          908    .text               Syd8811_softtimer_lib.lib(rtc.o)
    0x1000517c   0x0000002c   Code   RO          951    .text               mc_p.l(uidiv.o)
    0x100051a8   0x00000028   Code   RO          953    .text               mc_p.l(idiv.o)
    0x100051d0   0x00000024   Code   RO          955    .text               mc_p.l(memcpya.o)
    0x100051f4   0x00000024   Code   RO          957    .text               mc_p.l(memseta.o)
    0x10005218   0x0000001a   Code   RO          963    .text               mc_p.l(memcmp.o)
    0x10005232   0x00000012   Code   RO          965    .text               mc_p.l(strcpy.o)
    0x10005244   0x00000014   Code   RO         1230    .text               mc_p.l(uread4.o)
    0x10005258   0x00000012   Code   RO         1232    .text               mc_p.l(uwrite4.o)
    0x1000526a   0x000000b2   Code   RO         1234    .text               mf_p.l(fadd.o)
    0x1000531c   0x00000164   Code   RO         1236    .text               mf_p.l(dadd.o)
    0x10005480   0x000000d0   Code   RO         1238    .text               mf_p.l(dmul.o)
    0x10005550   0x000000f0   Code   RO         1240    .text               mf_p.l(ddiv.o)
    0x10005640   0x0000000e   Code   RO         1242    .text               mf_p.l(ffltui.o)
    0x1000564e   0x00000002   PAD
    0x10005650   0x00000028   Code   RO         1244    .text               mf_p.l(dflti.o)
    0x10005678   0x0000001c   Code   RO         1246    .text               mf_p.l(dfltui.o)
    0x10005694   0x0000003c   Code   RO         1248    .text               mf_p.l(dfixui.o)
    0x100056d0   0x00000028   Code   RO         1250    .text               mf_p.l(f2d.o)
    0x100056f8   0x00000060   Code   RO         1267    .text               mc_p.l(uldiv.o)
    0x10005758   0x00000020   Code   RO         1269    .text               mc_p.l(llshl.o)
    0x10005778   0x00000022   Code   RO         1271    .text               mc_p.l(llushr.o)
    0x1000579a   0x00000026   Code   RO         1273    .text               mc_p.l(llsshr.o)
    0x100057c0   0x00000000   Code   RO         1275    .text               mc_p.l(iusefp.o)
    0x100057c0   0x00000082   Code   RO         1277    .text               mf_p.l(fepilogue.o)
    0x10005842   0x000000be   Code   RO         1279    .text               mf_p.l(depilogue.o)
    0x10005900   0x00000040   Code   RO         1283    .text               mf_p.l(dfixul.o)
    0x10005940   0x00000028   Code   RO         1285    .text               mf_p.l(cdrcmple.o)
    0x10005968   0x00000024   Code   RO         1287    .text               mc_p.l(init.o)
    0x1000598c   0x00000056   Code   RO         1297    .text               mc_p.l(__dczerorl2.o)
    0x100059e2   0x00000002   PAD
    0x100059e4   0x00000028   Code   RO         1204    i.__0sprintf        mc_p.l(printfa.o)
    0x10005a0c   0x0000002e   Code   RO         1281    i.__ARM_clz         mf_p.l(depilogue.o)
    0x10005a3a   0x0000001a   Code   RO           23    i.__ARM_common_switch8  main.o
    0x10005a54   0x0000000e   Code   RO         1291    i.__scatterload_copy  mc_p.l(handlers.o)
    0x10005a62   0x00000002   Code   RO         1292    i.__scatterload_null  mc_p.l(handlers.o)
    0x10005a64   0x0000000e   Code   RO         1293    i.__scatterload_zeroinit  mc_p.l(handlers.o)
    0x10005a72   0x00000002   PAD
    0x10005a74   0x00000158   Code   RO         1209    i._fp_digits        mc_p.l(printfa.o)
    0x10005bcc   0x000006ec   Code   RO         1210    i._printf_core      mc_p.l(printfa.o)
    0x100062b8   0x00000020   Code   RO         1211    i._printf_post_padding  mc_p.l(printfa.o)
    0x100062d8   0x0000002c   Code   RO         1212    i._printf_pre_padding  mc_p.l(printfa.o)
    0x10006304   0x0000000a   Code   RO         1214    i._sputc            mc_p.l(printfa.o)
    0x1000630e   0x00000010   Data   RO          577    .constdata          segger_rtt_printf.o
    0x1000631e   0x00000002   PAD
    0x10006320   0x00000428   Data   RO          759    .constdata          syd8811_ble_lib.lib(main.o)
    0x10006748   0x00000020   Data   RO         1289    Region$$Table       anon$$obj.o


    Execution Region RW_IRAM1 (Base: 0x20003000, Size: 0x00001300, Max: 0x00005000, ABSOLUTE, COMPRESSED[0x0000009c])

    Base Addr    Size         Type   Attr      Idx    E Section Name        Object

    0x20003000   0x0000003b   Data   RW            5    .data               main.o
    0x2000303b   0x00000001   PAD
    0x2000303c   0x0000001c   Data   RW          156    .data               ota.o
    0x20003058   0x00000048   Data   RW          206    .data               gpio.o
    0x200030a0   0x00000008   Data   RW          286    .data               uart.o
    0x200030a8   0x00000004   Data   RW          381    .data               rtc_handler.o
    0x200030ac   0x00000004   Data   RW          727    .data               system_armcm0.o
    0x200030b0   0x00000040   Data   RW          760    .data               syd8811_ble_lib.lib(main.o)
    0x200030f0   0x0000001c   Data   RW          842    .data               Syd8811_softtimer_lib.lib(timer.o)
    0x2000310c   0x00000028   Data   RW          909    .data               Syd8811_softtimer_lib.lib(rtc.o)
    0x20003134   0x00000890   Zero   RW            4    .bss                main.o
    0x200039c4   0x00000028   Zero   RW          155    .bss                ota.o
    0x200039ec   0x00000030   Zero   RW          347    .bss                timer_handler.o
    0x20003a1c   0x00000018   Zero   RW          380    .bss                rtc_handler.o
    0x20003a34   0x00000458   Zero   RW          431    .bss                segger_rtt.o
    0x20003e8c   0x00000068   Zero   RW          758    .bss                syd8811_ble_lib.lib(main.o)
    0x20003ef4   0x0000000c   Zero   RW          841    .bss                Syd8811_softtimer_lib.lib(timer.o)
    0x20003f00   0x00000400   Zero   RW          716    STACK               startup_armcm0.o


==============================================================================

Image component sizes


      Code (inc. data)   RO Data    RW Data    ZI Data      Debug   Object Name

        32          6          0          0          0        595   delay.o
       692          8          0         72          0       3619   gpio.o
      2722        694          0         59       2192      52593   main.o
      1296        370          0         28         40      35357   ota.o
        44         10          0          4         24       2983   rtc_handler.o
       420         32          0          0       1112       6920   segger_rtt.o
      1064         32         16          0          0       6168   segger_rtt_printf.o
        28          8        192          0       1024        664   startup_armcm0.o
        16          8          0          4          0        759   system_armcm0.o
        76         12          0          0         48       3062   timer_handler.o
       356         12          0          8          0       9976   uart.o
        92          8          0          0          0       1271   uart_protocol.o

    ----------------------------------------------------------------------
      6838       1200        242        176       4440     123967   Object Totals
         0          0         32          0          0          0   (incl. Generated)
         0          0          2          1          0          0   (incl. Padding)

    ----------------------------------------------------------------------

      Code (inc. data)   RO Data    RW Data    ZI Data      Debug   Library Member Name

      1480         38          0         40          0      17091   rtc.o
      1588         38          0         28         12      45840   timer.o
        86          0          0          0          0          0   __dczerorl2.o
         0          0          0          0          0          0   entry.o
         0          0          0          0          0          0   entry10a.o
         0          0          0          0          0          0   entry11a.o
         8          4          0          0          0          0   entry2.o
         4          0          0          0          0          0   entry5.o
         0          0          0          0          0          0   entry7b.o
         0          0          0          0          0          0   entry8b.o
         8          4          0          0          0          0   entry9a.o
        30          0          0          0          0          0   handlers.o
        40          0          0          0          0         72   idiv.o
        36          8          0          0          0         68   init.o
         0          0          0          0          0          0   iusefp.o
        32          0          0          0          0         68   llshl.o
        38          0          0          0          0         68   llsshr.o
        34          0          0          0          0         68   llushr.o
        26          0          0          0          0         72   memcmp.o
        36          0          0          0          0         60   memcpya.o
        36          0          0          0          0        100   memseta.o
      2242         94          0          0          0        472   printfa.o
        18          0          0          0          0         60   strcpy.o
        44          0          0          0          0         72   uidiv.o
        96          0          0          0          0         84   uldiv.o
        20          0          0          0          0         60   uread4.o
        18          0          0          0          0         60   uwrite4.o
        40          2          0          0          0         68   cdrcmple.o
       356          4          0          0          0        140   dadd.o
       240          6          0          0          0         84   ddiv.o
       236          0          0          0          0        216   depilogue.o
        60         10          0          0          0         68   dfixui.o
        64         10          0          0          0         68   dfixul.o
        40          6          0          0          0         68   dflti.o
        28          4          0          0          0         68   dfltui.o
       208          6          0          0          0         88   dmul.o
        40          0          0          0          0         60   f2d.o
       178          0          0          0          0        108   fadd.o
       130          0          0          0          0        144   fepilogue.o
        14          0          0          0          0         68   ffltui.o
     10768        500       1064         64        104     114134   main.o

    ----------------------------------------------------------------------
     18328        734       1064        132        116     179697   Library Totals
         6          0          0          0          0          0   (incl. Padding)

    ----------------------------------------------------------------------

      Code (inc. data)   RO Data    RW Data    ZI Data      Debug   Library Name

      3068         76          0         68         12      62931   Syd8811_softtimer_lib.lib
      2852        110          0          0          0       1384   mc_p.l
      1634         48          0          0          0       1248   mf_p.l
     10768        500       1064         64        104     114134   syd8811_ble_lib.lib

    ----------------------------------------------------------------------
     18328        734       1064        132        116     179697   Library Totals

    ----------------------------------------------------------------------

==============================================================================


      Code (inc. data)   RO Data    RW Data    ZI Data      Debug   

     25166       1934       1306        308       4556     301196   Grand Totals
     25166       1934       1306        156       4556     301196   ELF Image Totals (compressed)
     25166       1934       1306        156          0          0   ROM Totals

==============================================================================

    Total RO  Size (Code + RO Data)                26472 (  25.85kB)
    Total RW  Size (RW Data + ZI Data)              4864 (   4.75kB)
    Total ROM Size (Code + RO Data + RW Data)      26628 (  26.00kB)

==============================================================================

