:020000041000EA
:1000000010430020791A0010811A00101708001000
:1000100000000000000000000000000000000000E0
:10002000000000000000000000000000851A001021
:100030000000000000000000871A0010891A00105C
:10004000000000008B1A0010DF4500108B1A001012
:100050008B1A00108B1A0010C5130010EF1300103C
:100060008D3E00103D3F00101D4000108B1A001007
:10007000491200108B1A00108B1A00108B1A0010F6
:100080008B1A00108B1A00108B1A00108B1A00109C
:100090008B1A00108B1A00108B1A00108B1A00108C
:1000A0000000000000000000000000000000000050
:1000B0000000000000000000000000000000000040
:1000C0000348854604F0B6FE0048004721070010AB
:1000D000104300208307FF22DB0E9A408907090E98
:1000E000994000280BDA0007000F08388308F4480D
:1000F0009B001818C36993430B43C361704783087F
:10010000F0489B001818036893430B430360704743
:10011000F8B50025EC4800950068FF2120302F46F7
:100120002E462C46017041709F228270CF22C270F1
:100130000171284601220C2805D00E2803D0114653
:1001400081400D430C43401CC0B22028F3D33846F5
:1001500000F0DCFF3946002000F0A5FF3846B04330
:1001600001F042F8304601F057F82846009900F0B7
:10017000E5FF2146002000F063FFF8BD70B586B0B2
:1001800000206946087207204874192080014882BF
:100190001E20888202A802F071FC684602F05CFC16
:1001A0006946CA484E78C6728D780573CC78447318
:1001B0000B7983734A79C273897901741B30067194
:1001C00045718471C37102724172024614231B216E
:1001D0001B3802F059FCBE490120087506B070BDFD
:1001E0000EB5002802D001280FD106E01020694684
:1001F000C880C8204881002006E050206946C88099
:100200004B20C00048810A200881C020694608713F
:100210000420487101A803F05EF9694648890090FE
:100220000B89CA88ABA1002001F07CFB0EBDA74959
:1002300010B50C398878401CC0B28870032808D3E8
:10024000002048700120FFF7CBFFFF20013003F0B2
:1002500059FD10BD3EB59D4C0C3CE278D2070ED046
:1002600001246A461480032555801F25958014813A
:1002700003460A466946204602F0C4FD3EBD002002
:100280003EBD924A10B50C3A9088401C81B29D4800
:10029000918009C8984205D1032903D900205070E4
:1002A00003F034FE10BDF0B5964E85B03568746825
:1002B000A54231D0854F0C3F7878002807D1012026
:1002C00078700020B8809049A32003F0EFFD01234F
:1002D0009B02A54201D32D1B01E0281BC518142D3C
:1002E0001CD31F46794900200C398880874B69460A
:1002F0001A5D641C0A54BC4200D30024401CC0B2E6
:100300001428F5D314216846FFF7A4FF002803D072
:10031000143D7460142DE5D205B0F0BD002DFBD066
:10032000B8880328F8D30020694608E0774A125DB0
:10033000641C0A549C4200D30024401CC0B2A84252
:10034000F4D3E9B26846FFF785FF002800D0746057
:100350000020B880E0E7F0B504468DB0401C04F002
:10036000D7F9C11FFF39FA3916D0FF210131002713
:10037000884233D10822611D03A804F08FF9684632
:10038000C08915214902884217D161A003C8019193
:100390000090082069461EE021460E22153168466D
:1003A00004F07CF91E22611D04A804F077F904AD65
:1003B0000FCD00F035FA0DB0F0BD57498842FAD1A3
:1003C000684607700197694601A8029700F0D8FCBB
:1003D000684601A9007802F006FDECE73B4E0121DA
:1003E0000C3E02281BD0474D042825D04A03641C2C
:1003F000904249D160792279000210430128DAD174
:10040000607A237A020230461A43C078012A2DD03E
:100410008843F070002001F0B7FE40A130E0317059
:10042000FF20B770013003F0A6FC0623A21D41A1F6
:10043000002001F083FABEE7627942A1002001F0BA
:1004400071FAF7703770686828600120400203F085
:1004500059FCFF20013003F055FCFFF78FFE02F03E
:100460004DFC002001F090FE3DA109E00843F07032
:10047000012001F089FE00F09EFF68683DA1286020
:10048000002001F04FFA96E70121C903884216D1F6
:100490006079217900020843030004F034FD060569
:1004A000888A8C8E900486E738A1002001F03AFA01
:1004B000684602F062FC68464388028872E080E089
:1004C00000ED00E000E400E0583000200C30002097
:1004D00000000240736D6172745F706172616D73D0
:1004E00020696E74657276616C3A2578206C61744F
:1004F000656E63793A2578207376746F3A25780DA6
:100500000A0000002C350020830200102C3100204E
:100510005359445F5541525401FF00005541525414
:10052000206E6F746966792044697361626C6564DA
:10053000210D0A00436F6E6E65637465642061640B
:1005400064723A00446973636F6E6E6563746564C8
:100550002C7265736F6E3A3078253032780D0A0050
:1005600073746172742061647620402064697363DF
:10057000210D0A0055415254206E6F74696679202E
:10058000456E61626C6564210D0A000075706461DE
:100590007465207273702041434345505445440DA7
:1005A0000A000000E1A1002001F0BCF903E7E6A188
:1005B00066E7EBA164E7F0A162E7F5A160E7F9A1C6
:1005C0005EE70121090488420DD101A802F0D5FBA4
:1005D0006846008900906846C3888288F6A100209A
:1005E00001F0A0F9E7E60128E0D102F087FBE2E69E
:1005F000F8B5F94C207800281BD00026F74D0128CB
:1006000018D001277F0202281ED0032811D126709E
:10061000384603F077FBF2A1002001F083F97D203A
:10062000C00000F075FAF2A1002001F07BF902F0A1
:100630008DFDF8BD00F088FAF2A1002001F072F9FA
:10064000022020702E70F8BD2878401CC0B228709F
:100650002028F8D9EEA1002001F064F9384603F013
:1006600051FBF8BD10B502210120FFF733FD022137
:100670000846FFF72FFD02210320FFF72BFD022183
:100680000420FFF727FD02210520FFF723FD0021AD
:100690000620FFF71FFD02210720FFF71BFD0221A7
:1006A0000820FFF717FD02210920FFF713FD0221A3
:1006B0000A20FFF70FFD02210B20FFF70BFD02219F
:1006C0000C20FFF707FD02210D20FFF703FD02219B
:1006D0000E20FFF7FFFC00210F20FFF7FBFC02219B
:1006E0001020FFF7F7FC02211120FFF7F3FC022195
:1006F0001220FFF7EFFC02211320FFF7EBFC022191
:100700001420FFF7E7FC02211520FFF7E3FC02218C
:100710001620FFF7DFFC02211720FFF7DBFC10BDDE
:1007200072B600F0C8F8FFF79DFF002002F091FCC0
:1007300001F005FD002001F0A6FDFF20F53002F0DC
:100740004CFF01F0B1FD00F067FFB4A3B6A2B9A160
:10075000002001F0E7F8BD49022003F065FB00F03E
:1007600067FEBB49022003F026FF00F085FEFFF77D
:10077000CFFC00F0A7FDB748002101604160B648FA
:100780000160416002F0BAFA62B6B44DB44C924EC8
:10079000B44F02F049FE00F073F82868002814D026
:1007A000800509D5FFF724FF0120400203F095FAE8
:1007B000ADA1002001F0B6F82888C00505D5FFF7E7
:1007C00036FDFF20013003F088FA2068002814D09D
:1007D000C00706D0A8A1002001F0A4F8012003F072
:1007E00061FD2078400708D501F05EFDA6A100203C
:1007F00001F098F8042003F055FD3078012801D16C
:10080000FFF7F6FEF878C00702D0FFF74CFDC0E70F
:1008100002F06AFCBDE7A0A1002001F083F8FEE72A
:100820000FB4F8B569464A8B897F06A8022A09D019
:100830009E4B9A4202D1C01D00F09DF9F8BC08BC45
:1008400004B01847834B17241A686243824C08345B
:10085000A154012207E08518AE791D6817277D4352
:100860002D19AE54521C9142F5D21A68521C1A60CE
:10087000322A01D300221A60C01DFFF7EBFCDDE72E
:10088000F8B5744C25686068A84213D0724E0836DB
:1008900000276068A8420DD017214843315C8019B9
:1008A000401C00F024F96068401C60603228F0D3DE
:1008B0006760EEE7F8BD10B588B002F06CF8012073
:1008C00002F061FA6748083002F088FA03216A46AC
:1008D000117300245473907BFB228843401C10400A
:1008E0006A4690731020D0731474517403A802F0F8
:1008F00038FAC02005906E48069005A802F053FA19
:10090000002002F035FCFFF739FC6A461470D47001
:100910000120107150709470D11D800203F002FF0D
:10092000684602F0A6FB08B010BD0000696E746551
:100930007276616C3A2578206C6174656E63793AE1
:1009400025780D0A000000007570646174652072DE
:1009500073702052454A45435445440D0A00000037
:10096000757064617465207273702054494D4552EE
:100970004F55540D0A000000757064617465207253
:10098000737020535543434545440D0A0000000051
:10099000456E61626C65206C6174656E63790D0AE9
:1009A0000000000044697361626C65206C617465CD
:1009B0006E63790D0A000000434F4E4E5F55504460
:1009C0004154455F434F4D503A2025642C20256407
:1009D0002C2025640D0A00003C3000203D30002012
:1009E0004F54412066696E6973680D0A000000006B
:1009F00053746172742052657365742031303030E5
:100A0000730D0A004F54412073746172740D0A0013
:100A10004F5441206661696C650D0A0030383A30E8
:100A2000363A3035000000004D61722031332032FB
:100A300030323000537964383831315F5541525487
:100A40002025733A25730D0A00000000E4390020C8
:100A5000143A0020B43900202C350020F430002056
:100A60000C310020003000204556545F31535F4F59
:100A700054410D0A000000005254434556545F3162
:100A800030530D0A000000005254434556545F3164
:100A90003835530D0A0000004552523A2048617221
:100AA000644661756C74210D0A00000001FF0000AE
:100AB00057030010FEB501A9684600F062FC002053
:100AC00001266A46104901AC104DB60213780BE0BE
:100AD0000F68225CEA550A68521C0A60B24201D3D0
:100AE00000220A60401CC0B29842F1D3FEBD70B52E
:100AF0000D460646002404E0305D00F037FC641C1F
:100B0000E4B2AC42F8D370BD2C3500202C3100206B
:100B10000022064B06E00021491C89B29942FBD312
:100B2000521C92B28242F6D3704700008C0A000039
:100B300010B5E74B0E241B691C70541C5C70987038
:100B4000D81C03F0ABFD10BD08B502F092FB0020ED
:100B50006946087001221620FFF7EAFF08BD00224F
:100B6000DB49002801D00A704A704A80CA808A8016
:100B70000A81CA607047FEB5D54D0E4669880024CB
:100B8000002905D02A78002A02D06C7000219FE04D
:100B90000178032615296DD01CDC112935D01229C6
:100BA0003ED0132941D0142922D1C17982790E0275
:100BB00016436E80417A027A0F021743EF80801C41
:100BC00003F0A6FDE860AC802C8133460246C1A14B
:100BD000009773E001277F0216290AD020294DD003
:100BE000232957D0242903D1801C00F048F92E7006
:100BF000FEBD0020FFF7F4FAC3A1002000F092FE32
:100C0000384603F0B8F8012007E00020FFF7E8FAC3
:100C1000C1A1002000F086FE04202870EC60FEBD1B
:100C2000801C00F0BFF805201EE0871CC01C03F0EC
:100C30006FFD01463A78BD4802F0D7FC0646781CA5
:100C400003F066FD0346387800903246B8A10020D4
:100C500000F068FE002E09D068460471012201A947
:100C60001820FFF765FF06202870FEBD01206946A9
:100C70000871F3E7801C00F0CBF8B8E70020FFF71D
:100C8000AFFAB1A1002000F04DFE384603F073F832
:100C90000720C2E7C17982790E0216436E80417A3D
:100CA000027A0F021743EF80801C03F031FDE860E9
:100CB000AC802C8133460246A8A10097002000F0AA
:100CC00031FEFEBD435C2C891B19491C2B8189B266
:100CD000B142F7D381071AD001463246AD4803F03E
:100CE000DDFC2878022806D0012804D0082808D086
:100CF000072806D023E0A988E868A64A40183146AC
:100D000015E0A988E868A34A4018314615E0704B01
:100D1000D9689B88CB18022A06D0012A04D0082A59
:100D200008D0072A06D00AE002463146184602F0EB
:100D300013FB04E002463146184602F07DFAA8880B
:100D4000801981B2A98068888142BAD32A89E8884B
:100D5000824204D1002000F04CF88FA103E0012072
:100D600000F047F890A1002000F0DCFDEB882A8914
:100D700091A1002000F0D6FD0020FFF7F0FEFEBD9F
:100D800070B5534C0D4621694A7821461431921CA6
:100D900003F084FC20694078801C2870002060618A
:100DA000A06170BD38B50446407821780002084340
:100DB0000121090388421BD8A27882188A4201D9EE
:100DC000091AA1705949A2784018E11C03F066FC89
:100DD0006078217802020A43A37882A1002000F003
:100DE000A1FD00206946087001221720FFF7A0FE30
:100DF00038BD1CB56B465970090A9970DA70110A32
:100E000019711870052269461420FFF791FE1CBD68
:100E100038B504465F4820300179002905D02038D4
:100E2000006A5C4A400102F097FA204603F070FC29
:100E3000617922790B021343024671A1002000F070
:100E400071FD204603F064FC617922790B021343A3
:100E500002460021084602F08FFA044602466EA1BF
:100E6000002000F05FFD002C07D0002069460870CC
:100E700001221820FFF75CFE38BD0120F6E738B5E7
:100E8000044603F045FC617922790B0213430246C4
:100E90005BA1002000F046FD204603F039FC61799B
:100EA00022790902114302F06CFA044602465FA15E
:100EB000002000F037FD002C07D0002069460870A4
:100EC00001221820FFF734FE38BD0120F6E70000AC
:100ED0003C300020434D445F46575F5752495445CC
:100EE0005F5354415254206F66667365743A257897
:100EF0002C73697A653A257820636865636B73752E
:100F00006D3A25780D0A0000434D445F46575F4512
:100F1000524153450D0A0000344B53455454494E39
:100F2000475F4552415345200D0A00004A07002003
:100F3000436F64655570646174653D256420257850
:100F40002025780D0A000000464C41534844415486
:100F5000415F4552415345200D0A0000464C415324
:100F600048444154415F57524954455F535441529C
:100F700054206F66667365743A25782C73697A65B8
:100F80003A257820636865636B73756D3A25780D33
:100F90000A000000BC39002073656374696F6E201D
:100FA0004F4B21200000000073656374696F6E2051
:100FB0006661696C652120006F74615F72656365AD
:100FC0006976655F636865636B3A2578206F746145
:100FD0005F73656374696F6E5F636865636B3A2501
:100FE000780D0A00636D64344B53455454494E47A1
:100FF00057726974652025782025780D0A00000055
:101000006F746120737A3A257820636865636B7327
:10101000756D3A2578200000436F646555706461F2
:1010200074657632303D25640D0A0000436F6465B7
:101030005570646174657633303D25640D0A000097
:10104000F0B59E4C221D9446002829D0012826D1B7
:101050009B4B002B23D0002001228240114207D05D
:101060001F5C01252668BD402E432660914302D0B7
:10107000401C1828F0D3182001252A4682402B4610
:10108000114209D0644606462478183EB3401C43FA
:1010900063461C70914302D0401C2028EDD3F0BD64
:1010A000874B183BD5E7F0B5844C221D94460028A9
:1010B00029D0012826D1824B002B23D000200122E9
:1010C0008240114207D01F5C01252668BD40AE4317
:1010D0002660914302D0401C1828F0D31820012527
:1010E0002A4682402B46114209D06446267804469F
:1010F000183CA3409E4363461E70914302D0401C9F
:101100002028EDD3F0BD6E4B183BD5E76C4910B5E8
:1011100030394A681478214654782402214394785F
:10112000D378240421431B06194381431170080A14
:101130005070080C9070080ED07010BD70B5604EE5
:10114000303E73681D782A465D782D022A439D78CB
:10115000DC782D042A432406224302431A70140A21
:101160005C70140C9C70120EDA70F3681D782A46BD
:101170005D782D022A439D78DC782D042A432406CD
:10118000224302431A70140A5C70140C9C70120EF5
:10119000DA7008229C1825782A4665782D022A43A1
:1011A000A578E4782D042A432406224382431A7248
:1011B000100A5872100C9872100ED87208201A1863
:1011C000147820465478240220439478D27824045A
:1011D00020431206104308431872010A5972010C89
:1011E0009972000ED87270BD354910B530398A68D1
:1011F000147821465478240221439478D378240427
:1012000021431B06194301431170080A5070080C52
:101210009070080ED07010BD294910B530398A6819
:10122000147821465478240221439478D3782404F6
:1012300021431B06194381431170080A5070080CA2
:101240009070080ED07010BD10B51D4C1820303CA9
:10125000236919180A7810464A78120210438A78CE
:10126000C978120410430906084310215A1813784C
:10127000194653781B0219439378D2781B041943FB
:1012800012061143884318D06069002800D08047B7
:10129000216918200A181378184653781B0218433E
:1012A0009378D2781B041843120610430870020A80
:1012B0004A70020C8A70000EC87010BD8010005079
:1012C0008830002070B550480068017B8909890189
:1012D000C91C0173817B89098901091D8173203033
:1012E0008178DF22114081708378BF210B408370A9
:1012F0004648006883785B085B00837003781B09AD
:101300001B010833037003785B065B0E03700378E0
:101310000B400370C37810242343C37083780424E4
:1013200023438370847820231C4384708578EF24C2
:1013300025408570857880263543857085780D40F9
:101340008570017821400170017811400170817829
:10135000022211438170C1781943C1702C4A402187
:101360001160817808221143817070BD2749096896
:10137000487008788006FCD50878DF221040087095
:10138000704738B500226C462270204B1B680DE078
:101390001C798C546D46521C2C78D2B2641C2C7073
:1013A0002C78641C2C702C78641C2C70DC78E4077E
:1013B000EED0027038BD15480068C1782022114374
:1013C000C170704710B5114C20680178C90605D569
:1013D0000178EF2211400170FFF76CFB20688178E3
:1013E000890703D5817802221143817010BD10B5A1
:1013F000064840680178C90605D50178EF221140FA
:101400000170FFF757FB10BD58300020A0300020BE
:1014100000E100E00F48FF22016801321143016042
:1014200070470C4801220168520211430160704765
:1014300010B57D242401FF200023074A21460130F6
:1014400002F0AEFB01200023044A2146400202F0D4
:10145000A7FB10BDF4300020151400102314001059
:101460000F48012201681143016070470C480422B3
:10147000016811430160704710B50023094A0A2131
:10148000012002F0A0FE0023074AB921042002F047
:101490009AFE012002F043FF042002F040FF10BD3D
:1014A0000C310020611400106D14001010B5604C58
:1014B0000120206160615FA0A06120464830E061AA
:1014C000012080020021A1622062616259A0E162D4
:1014D00020635B48606321641020E163A063616462
:1014E00058A1E01D03F00BF957A1204603F007F9BE
:1014F0002020A07110BDF7B5054682B000200090F5
:10150000EC6817462869A04201D9061B02E0A968C9
:10151000201A0E1AA868761E001BB04200D8064694
:10152000BE4200D33E46686832460019039903F074
:10153000B5F80098BF1B801900900398A419801972
:101540000390A868A04200D10024EC60002FD9D1FC
:10155000009805B0F0BDF7B50446C7688068E1683B
:10156000C51B606816464018B54205D9019903F0BD
:1015700095F8B819E060FEBD2A46019903F08EF88F
:101580000198761B41193246606803F087F8E660DF
:10159000FEBD70B50E46182148432549144645182E
:1015A000E86A1835002804D001280FD0022805D198
:1015B00013E0284600F031F8A04201D2002411E0E7
:1015C000224631462846FFF7C6FF0BE0284600F0CA
:1015D00024F8A042F4D20446F2E731462846FFF749
:1015E0008AFF0446204670BDF8B5074610481546E8
:1015F00000780E46002801D1FFF758FFEFF3108462
:10160000012080F310882A4631463846FFF7C1FF93
:10161000E1B281F31088F8BD48E70269C1688A42E7
:1016200003D88068401A801800E0501A401E7047A6
:10163000443A00205465726D696E616C00000000D0
:101640008C3E0020525454005345474745520000F9
:1016500010B5044680686368421C934205D3236832
:101660001954A260E068401CE060A2686068824291
:1016700009D121682069FFF7B7FFA168884203D02C
:101680000020C043E06010BD0020A06010BDFFB589
:1016900081B001261F4635460A9C029802E002F0FE
:1016A000D3FF6D1C03998842F9D2AF4200D93D4661
:1016B0000B98C00718D1002C16D00B98800701D5C5
:1016C000002F02D0202000900CE03020FBE7641EA9
:1016D00000990198FFF7BCFF0198C06800283DDB26
:1016E000002C01D0A542F2D30198C068002835DB58
:1016F000012F01D97F1E06E03146029802F0A4FFB7
:101700000399884202D303984643F1E7D24F31460A
:10171000029802F099FF0146029A7143511A029110
:10172000395C0198FFF794FF0198C068002805DB39
:101730003046039902F088FF0600E8D10B98C007F5
:101740000CD0002C0AD0A54208D22021641E01989A
:10175000FFF77EFF0198C0680028F2DA05B0F0BDFF
:10176000F7B59AB007A802904020039000200C46DD
:101770001A99154604900826069105902178641C54
:1017800000296ED0252907D002A8FFF761FF059830
:101790000028F3DA1DB0F0BD012200201346022715
:1017A000217823291BD02B2916D02D2902D03029AE
:1017B00006D101E0184300E03843641C002AEFD151
:1017C000002122781346303B0A2B0AD20A235943C0
:1017D00089183039641CF4E704210843EDE73043ED
:1017E000EBE70023D7B22E2F0AD1641C22781746CC
:1017F000303F0A2F04D20A277B439B18303BF4E783
:101800006C2A0CD0682A0AD0662A3FD00FDC582AEE
:1018100030D007DC252A6FD0462A71D136E06278B5
:10182000641CEDE7632A0BD0642A69D10DE0702AAD
:1018300057D0732A46D0752A14D0782A60D119E07F
:101840002868011D2960017857E02A68171D2F605C
:101850001768009101900A22394602A800F098F812
:101860004EE04FE02A68171D2F6017680A2200918A
:10187000019006E02A68171D2F601768102200915A
:101880000190394602A8FFF702FF39E000201790C7
:1018900018901990286817AFC01DC008C0000146F5
:1018A000083129600CC86DA1384603F001FB397876
:1018B0007F1C002924D002A8FFF7CAFE0598002843
:1018C000F5DA1DE02868011D2960076839787F1C5A
:1018D000002915D002A8FFF7BBFE05980028F5DA0D
:1018E0000EE028680823011D2960016800201022ED
:1018F00000960190C6E7FFE7252102A8FFF7A8FEA2
:10190000641C44E7002800DC44E70498002804D065
:10191000024607A91A98FFF767FE04990598401830
:10192000059037E70FB408B504A900916A460399FA
:10193000FFF716FF01B008BC04B01847FFB500243C
:1019400081B01D461646002902D00198FFF7EAFF34
:1019500001277F0713E0600704D1A2B241A10198DB
:10196000FFF7E0FF325D41A10198FFF7DBFF600761
:10197000F84203D13FA10198FFF7D4FF641CAC42A9
:10198000E9DB600703D03BA10198FFF7CBFFE5E659
:10199000FFB583B00E4670420D9F0C9C009000294D
:1019A00000DB0846012502E002F064FE6D1C05998B
:1019B0008842F9DA0698A84200D90546002C04D0DE
:1019C000002E01DB780700D5641EB80702D5069803
:1019D000002810D0F8070ED1002C0CD0A5420AD256
:1019E0002021641E0398FFF733FE0398C068002887
:1019F000F2DA07B0F0BD0398C0680028F9DB002ECA
:101A000002DA2D21009E02E0780707D52B210398EA
:101A1000FFF71EFE0398C0680028EADBB807800FB6
:101A2000022810D1069800280DD1002C0BD0A54219
:101A300009D23021641E0398FFF70AFE0398C0689C
:101A40000028F2DAD5E7019700943146069B059A03
:101A50000398FFF71CFECCE7DA57001025342E332D
:101A6000660000005B253034785D20002530327838
:101A7000200000000D0A0000044880470448004789
:101A8000FEE7FEE7FEE7FEE7FEE7FEE7951A001039
:101A9000C100001002490148086070470024F400AA
:101AA000AC300020F1B5F84880470746F74880473A
:101AB0000646F54C0120183CA047F44D00200C359B
:101AC000A847F349009888473046A8473846A047BA
:101AD000F8BDF0B5EF4DF048E96885B00818044648
:101AE00002F016FE2146401C02F01CFE0024E948CC
:101AF0000125C668E8480C3831180391487C097CF8
:101B000000020843A540284202903BD00B206043CE
:101B10008119E148009109300818019002F0F8FDA0
:101B20000746DD48301802F0F3FD87422AD10F2125
:101B3000009889014018007D00280CD0D64A0099F1
:101B40000D3A8A18517D127D0902114378180199C6
:101B500002F0E8FD05E002980399A8430874000A22
:101B60004874CD4800990D30081802F0D1FD0028C6
:101B700008D0022D19D0042D17D0082D15D0102D06
:101B80001AD08047641CE4B20A2CB0D3C148C168A3
:101B9000C1480C380918487C097C000208438005BC
:101BA00001D1BE48804705B0F0BDBD49012088473E
:101BB0000028E7D0222005E0B94901208847002805
:101BC000E0D03B20FFF76EFFDCE7FEB50020694662
:101BD00008710870B34F0872B34EAE4CB84720710D
:101BE00002AB6A4601A9606901F082FF002836D085
:101BF0000820B047002803D00220B04700280FD0AB
:101C000068460078012811D0E0686569407A0128AB
:101C100026D00228E2D1A54A217928469047DDE75F
:101C2000012168460170007A002815D02521E0685E
:101C300049014118497B002908D09749D4314018FF
:101C4000417B027B08029A49104388476846974ABD
:101C5000017996326069E1E73D20FFF723FFFEBD81
:101C600028780007000F0528B8D18E49EE31A81C4E
:101C70008847287887224006C10FE0681154062261
:101C8000A91C883002F00AFD3721206902F01FFDEF
:101C9000A4E7F0B5824999B00420884700280ED007
:101CA0007F4904201A3188477C491F20AC3188477E
:101CB000804880471620FFF7F5FE19B0F0BD7E483A
:101CC0008047002810D0734DEC68A1790807F4D53F
:101CD000E079C2071CD07949204698308847E868E7
:101CE000C179490849001FE0734E724F714DB236F9
:101CF0001C376C46103507E06846B0470128DCD138
:101D000068460178601CB847A8470028F4D0D4E79B
:101D100082070BD5694A20461C328E30811C9047C1
:101D2000E868FD22C17923E0C171C6E7420708D502
:101D3000624920466031A8308847E868FB22C179B3
:101D400016E00207F726002A09DA5C4A21464232E9
:101D5000A07A0B319047E868C1793140E4E7C006CA
:101D600008D5564968467C318847E868EF22C17932
:101D70001140D9E720463140FF30A1712130017D6B
:101D80000026002910D006752146072287310CA8AD
:101D900002F084FC21460DA82A228E31033002F085
:101DA0007DFC47490CA888470120694608704870A7
:101DB0008E70E96800A82A2203308E3102F06EFC92
:101DC0002D2208213F4C6B460020A04775E7314982
:101DD0000128496A0FD0022811D0042812D00828FF
:101DE00013D0102814D0202815D0402816D08028D1
:101DF00018D0012070478878C007C00F70478878D6
:101E000080070DE0887840070AE08878000707E03F
:101E10008878C00604E08878800601E0887840066B
:101E2000C00F70478878C009704710B50178012944
:101E300020D1401C02F06CFC164A10285CD00EDC4D
:101E4000012818D002283FD0042845D0082811D1F5
:101E5000FFF7BDFF00280DD10D48563809E02028B6
:101E60005AD0402806D1FFF7B2FF002802D1084817
:101E7000801E804710BD0120FFF7A9FF0028F9D17F
:101E8000FFF707FF10BD0000BF650000776A000084
:101E9000CF160000B0300020CE0300000112000079
:101EA000F50A000049570000791900008B1E000058
:101EB0002B620000BD600000054E000027260000D8
:101EC000DF470000A13E00000220FFF780FF00284E
:101ED000D8D1FFF77AFE10BD0420FFF778FF002865
:101EE000F9D1D068407A012803D00228F3D1FE4806
:101EF000BFE7FD48AE38BCE71020FFF768FF0028B9
:101F0000E9D1506A2030407D400701D53E2000E0F5
:101F10000820FFF7C7FD10BD2020FFF758FF00285D
:101F2000F9D1F248A5E770B510250826F04C002835
:101F300021D0606A817E31438176014660310A7E1C
:101F4000637852095201DB06DB0E1A430A76203011
:101F5000427B067B1302E26833432332547C167CB7
:101F600022023243934214D00273120A4273C87D94
:101F70002843C8750DE001F0A8FD606A0022014603
:101F800020310A734A736030C17D2943C175D94835
:101F90000677012070BDD648C0682330417C027CA2
:101FA000080210430BD0D44948780A780002104345
:101FB000032210430870000A48700120B3E77047FD
:101FC00030B4CE4CA44630BC6047F8B5CA48407A1D
:101FD000000663D5C648C66830462330417C007C85
:101FE0000F02C54907434878097804020C43002FC3
:101FF00001D1600752D5C04DA87B697B00026D1CE2
:1020000008434BD0002F49D0687929790002084352
:102010002ED12136707C317C0002084302F092FD03
:102020000022B74B02F092FC02F09AFD80B2784396
:10203000642102F01FFB4004010C2971080A687139
:102040000A204143707D327D00021043814206D355
:102050000A21401E02F00EFB2871000A687168799F
:1020600029790002084303D10120287100206871FA
:10207000A148A10709D502218C4301210C4304701A
:10208000210A41700020FFF74EFF68792A7901028A
:1020900011439C4B00224020FFF792FFF8BD1CB576
:1020A00095494A7A002A3AD04A780B7812021A43A4
:1020B000D30634D4437804781802204301282ED163
:1020C000C878401E0006000EC87029D008468B78DC
:1020D000017AC27909021143027BC47A12022243B7
:1020E000C01C012B24D0521A0272120A427212062C
:1020F000037A120C1A43531A69460B804A807E49B0
:102100008A7B497B12020A4369468A80417B027BB3
:10211000080210436946C8807B49684688471CBD51
:10212000887AC870402002430A70100A48701CBDAB
:102130005218D9E7754A1047744A2032104738B50B
:10214000002469460C7021467F20FFF7F5FF00212F
:102150003B20FFF7F1FF29213B20FFF7EDFF694608
:102160003B20FFF7E7FF68460078800701D5012094
:1021700038BD641CA4B2FF2CF1D9002038BD10B5C5
:1021800063488047012010BD10B55949614A8870E5
:10219000002807D1C8688078022803D00020904723
:1021A000012010BD0120FAE710B5514C0128E1686B
:1021B000887004D0002836D002284BD05EE0E06A58
:1021C000014620310A78520852000A700A78FD232D
:1021D0001A400A700178890989011C31017041781F
:1021E000890989011C31417000217F20FFF7A4FF7C
:1021F00003212120FFF7A0FF1F210320FFF79CFFF1
:102200007D204249C0008031884702217F20FFF7AE
:1022100093FF01210020FFF78FFF00217F20FFF7B0
:102220008BFF0F2127E000217F20FFF785FF002192
:102230000420FFF781FF02217F20FFF77DFF0021AF
:102240000846FFF779FF00217F20FFF775FF002187
:10225000032011E002217F20FFF76EFF0321002001
:10226000FFF76AFF00217F20FFF766FF00210320B0
:10227000FFF762FF00210420FFF75EFFA078FFF761
:1022800083FF012010BD10B5FFF78EFF012010BDA8
:102290001F4810B50C3080471548806A017ADF224C
:1022A00011400172012010BDFEB51A481830804758
:1022B0000F4C0190A06A817A007ACF07FF0F0026A9
:1022C00072B6800702D00126FFF7E2FF0848806A55
:1022D000817A4908490081720E490120884702200D
:1022E000FFF762FF642017E027150000C116000009
:1022F000B030002020000240F33E0020AB4400003C
:102300000000F43F971F001033420000C561000039
:1023100007470000A7650000F84966318847002498
:1023200069460C70254601217F20FFF705FF00213B
:102330000A20FFF701FF22210A20FFF7FDFE694670
:102340000A20FFF7F7FE684600784007EFD4694699
:102350000A20FFF7EFFE68460078400705D568467B
:102360000078000706D4012504E0641CE448A4B208
:102370008442ECD3E1496420663188470020FFF7AE
:1023800013FFE04901988847DF48806A817A49084D
:10239000490039438172002E01D0DC48804762B683
:1023A000002D01D00120FEBD0020FEBD10B5112181
:1023B000D74802F08CF910BD70B50446401C02F0FD
:1023C000A7F9022818D0042819D00121490488420D
:1023D00044D125462035687B092301070209090FEE
:1023E0000020072A19D0032A1DD0022A22D0012A50
:1023F00026D0002A2AD02FE0FFF7D8FF37E0C248C6
:10240000FF21C068012235310A548078002801D1AB
:10241000FFF74AFFFFF793FE29E0581A06214843C9
:102420004121C94304E0581A062148433521C943D4
:10243000081A10E0581A062148432321C943F7E738
:10244000581A062148431721C943F1E7581A0621B3
:102450004843801D404240B2687308E040281DD0C8
:102460000121C903884202D1601DFFF718FEA84967
:102470004878097800020843800607D5601C02F0FE
:1024800047F90005000F01D0FFF79FFD9E4834304B
:1024900002F03EF901462046884770BD9A48303028
:1024A00002F036F94006E2D570BDF0B5964C06460E
:1024B000E0688DB0FF302130407C0D46002829D0E7
:1024C000002D26D072B6A068183002F021F9E1681C
:1024D0003222FF312131897C8E4B514340186A46AC
:1024E0003221984762B6002E04D0E068FF302130D8
:1024F000807C3070E7680A21FF372137B87C401CA8
:1025000002F0A2F8B974E078401CC0B2E0700A286A
:1025100002D900200DB0F0BD684600780128D1D165
:1025200000A907222846013102F0B8F82A22E81D46
:1025300002A902F0B3F80120ECE7F0B505467649B0
:102540008DB020208847704C0426E16820690F4632
:1025500086700822C01CC931BD3702F09FF820697F
:10256000042239460B3002F099F80D216B4A032002
:102570009047E068294608220A31C13002F08EF8FF
:10258000E068294604221231B93002F087F8287A2F
:10259000634F002802D1687A00281FD00020E07025
:1025A000E0682A7A01468030837B9A420AD16A7AAF
:1025B000C07B824206D108222846903102F092F870
:1025C000002817D069460020FFF76FFF012826D0AA
:1025D00006220021534B012098479BE7E068022226
:1025E0008179114302468171C132FF3011461030AA
:1025F000B84710E0E0688179024631438171C13209
:1026000011469830B847E06880308079012802D1BF
:102610004149022088474348A03080477AE7E16873
:1026200007226846873102F05DF80028B8D1E068DB
:1026300001A92A228E30033102F030F8B0E73A497E
:1026400008471CB53248082101700021417001463D
:10265000087BCA7A0002C91C10432FD04A790B7933
:1026600012021A43821A92B26B461A8058800623CD
:10267000062A01D26A461380062801D268464380A2
:10268000487B097B000208436946C8802048817B5B
:10269000427B08021043694688801B48C06823308B
:1026A000417C027C0802104302D00020FFF73BFC73
:1026B0001E49684688471C49402088471CBD14496C
:1026C00048780A7800021043C2050CD5FF22013277
:1026D00090430870000A48700879401E0006000EFA
:1026E000087109D0ADE72022104310229043042244
:1026F00010430870000A487070470000C561000070
:10270000FFFF0000A7650000B03000200747000071
:10271000F33E002059530000050B00004D1100004E
:1027200019220000D9190000B34400003342000010
:10273000FEB5FF4D0446687829780002084300077B
:102740007ED5FC48804769782A780902114308221F
:10275000914329700A0A6A706B7A064628461A065F
:102760006FD5A27967791202651C3A43F24FE41CD7
:10277000002A77D01022114301700A0A427088069D
:102780005FD4687929790002084332D002F0DAF97F
:1027900001910090607821780002084302F0D2F99C
:1027A000E64C0022234602F0D1F8019B009A02F089
:1027B000CDF801910090F8682130417C027C08023C
:1027C000104302F0BFF90022234602F0BFF807468B
:1027D0000C46687A297A00020843801B02F09EF9B1
:1027E0003A46234602F0B2F8019B009A01F0FCFF42
:1027F00024E0607821780002084302F087F904465B
:10280000F8682130417C027C0802104302F07EF916
:10281000214601F090FF02F0C1F90022C74B02F0FF
:1028200095F807460C46687A297A00020843801B0F
:1028300002F074F93A46234602F088F8002202E0DA
:102840006DE063E00EE0BE4B02F0E8F802F088F9BC
:102850000104090C00D10121BA4B00228020FFF7AE
:10286000AFFB53E09A0651D58278012A4ED18A06F1
:102870004CD4FF22AE48013211430170090A417065
:102880006078217800020843A9490A7BCB7A1102BB
:10289000194388423AD902F039F90446F8682130E0
:1028A000417C027C0802104302F030F9214601F01D
:1028B00042FF02F073F90022A04B02F047F80746EE
:1028C0000C46687A297A00020843801B02F026F938
:1028D0003A46234602F03AF80022994B02F09EF85D
:1028E00002F03EF90104090C00D10121954B0022B0
:1028F0008020FFF765FB8E4841780278090211437A
:10290000FF22013211430170090A41700320694618
:102910000881022291038C4C02AB0020A047FEBD2F
:1029200010B50446007800280BD1A178627808021F
:10293000104307D001281CD0032802D1201DFFF727
:10294000FCFD10BD01F0C1F88049201D884700281A
:1029500002D12820FFF7A6F8201DFFF7E9FE7648F0
:102960000121C368062209040020774C3133A047B7
:1029700010BD01F0AAF87649201D88470028F7D13C
:102980002820FFF78FF810BD10B50078012801D17D
:10299000FFF79FF810BD70B56E4886B080470121E3
:1029A0007F20FFF7C9FB69465020FFF7C3FB68464D
:1029B0000078042801D068488047FFF775FCFFF7CE
:1029C000BEFB012468464480048064480190644949
:1029D0006846884768460470447000244480614813
:1029E000554D0190604BE86808226946C01801F017
:1029F00055FE504E012140205E3EB047012180200F
:102A0000B04701212020B0470B216846018041805A
:102A10008480C480048144818481C48153485049A6
:102A200004906846A2398847A8680A3001F070FE11
:102A30003F4A4F4B573A57219847012006B070BD87
:102A4000444810B50A308047012010BD414910B5F7
:102A500028318847012010BD3E4910B55E318847B6
:102A6000012010BD3B4910B56A318847012010BDD7
:102A7000384910B578318847012010BD354910B567
:102A800088318847012010BD10B52F4C383CA04735
:102A9000012010BDF8B5284C3649E068373088472A
:102AA00020693B230178BF250A09E16812015B5CBC
:102AB0001B071B0F1A4302701207120F012A7DD049
:102AC0000B4640335A781B7812021A430B464233A6
:102AD0001A70120A5A7002788B7A2A409B011A43A4
:102AE0005206520E027066235B5C42789B1D92096F
:102AF0009B0692019B0E1A4342700622801C0B31EA
:102B000001F0CCFDE1686620425C002A04D0206917
:102B10006731083001F0C2FDE068002120304177C4
:102B20002069154A41788906890E891C904725E05D
:102B3000F33E0020BF550000B03000200000F43FFD
:102B400000005940BF260010A13E00005D5B000060
:102B5000475F0000793D0000F7460000892900101A
:102B60002F4400002B1E0010CE020000212900106F
:102B700059530000B1570000D96000002069017866
:102B80000A091201121D0270E1682A408B7ADB07E4
:102B90005B0E1A43027046235B5C42789B1D9209D0
:102BA0009B0692019B0E1A4342700622801C0B3139
:102BB00001F074FDE1684620425C00E021E0002A5B
:102BC00004D020694731083001F068FD2069FB4AD4
:102BD00041788906890E891C9047E56801272E46B1
:102BE0002036F07E012839D000284AD0022848D06B
:102BF000062846D00023F24C1A4601211846A04769
:102C0000F8BD0A464032137953718B7A0278DB079C
:102C10002A405B0E1A43027087235B5C5206520EF9
:102C2000DB011A43027042780B31920992010C3297
:102C300042700622801C01F031FD2069E168062205
:102C40000830883101F02AFDE16803223D2042541A
:102C50008720405CDB4A8831904761E740356879DE
:102C600000280AD028200621626A937EFD24234092
:102C700093761775737F327F3AE001206F710146BA
:102C8000F2E72C4642346078217802020A4316D0DB
:102C90002235697F19202B7F8001090242431943A5
:102CA00001208904890C009105D0104601F0CCFC6C
:102CB000401C7F2809D8C5B22770380A0CE0380AB2
:102CC000277060700125009507E07F2529467E303A
:102CD00001F0BAFC2070000A6070BB48406A817E37
:102CE0000222114381760775737F327F009928464F
:102CF000B64CA047B5483E308047F8BD10B5FFF749
:102D0000C9FE012010BD10B5B14903200870B149BA
:102D100064208847B0488047012010BD72B600216A
:102D2000A94A506A4175037C01210B430374D068A2
:102D300045221154423001700021417062B60120D9
:102D4000DAE410B5A5498847012010BDA34810B5A5
:102D50005C308047012010BD10B5A148804701209C
:102D600010BD9F4910B508318847012010BD9C490E
:102D700010B516318847012010BD994910B578313A
:102D80008847012010BD904948700120B4E494495F
:102D900010B586318847012010BD914A10B58E329A
:102DA0009047012010BD7CB5054601F0B1FC864975
:102DB0000446303101F0B6FC281D01F0A9FC82491F
:102DC000343101F0AFFC40208443864884490190AF
:102DD000009468469631884701207CBD10B5824931
:102DE0008847012010BD804A10B508329047012065
:102DF00010BD10B57D488047022801D9002010BDC4
:102E0000012010BDF8B50E46074679491C46154607
:102E10000120884700280AD074488047022807D933
:102E20002346714C2A46314638461834A047F8BD2F
:102E30000020F8BD6F49084710B504466C490120D1
:102E40008847002803D06B4920460831884710BDC9
:102E500070B50546664A0C4601209047002804D00C
:102E6000644A214628462232904770BDFFB50F467E
:102E700081B05F491D46164601200A9C88470028FC
:102E800007D000945B4C2B463246394644340198B7
:102E9000A04705B0F0BDF8B50E46074654491C469C
:102EA000154601208847002806D02346514C2A4663
:102EB000314638467C34A047F8BD10B504464C492D
:102EC00001208847002803D04A492046AC31884772
:102ED00010BD70B50546464A0C46012090470028B3
:102EE00004D0444A21462846C632904770BD70B58A
:102EF00005463F4A0C4601209047002804D03D4A31
:102F000021462846E832904770BDF8B50E46074680
:102F100037491C46154601208847002805D023461E
:102F2000354C2A4631463846A047F8BD70B50D46A7
:102F300006462F49144601208847002805D02E4B0D
:102F40002246294630463033984770BD70B50D464D
:102F500006462749144601208847002805D0264BFD
:102F60002246294630465C33984770BDF8B50E4678
:102F700007461F491C46154601208847002806D0F1
:102F800023461D4C2A46314638468834A047F8BDB2
:102F900010B50446164901208847002803D0164979
:102FA0002046B831884710BD10B511490120884727
:102FB000002802D01048CC30804710BD05610000C9
:102FC000A13E00007F570000B03000205F56000097
:102FD0000000024045620000074700000141000078
:102FE0001D420000B92300102D4300002B4E0000AD
:102FF000F50A0000B73A0000BB3B000070B5F94D80
:103000000446082804D0E868407808280DD014E069
:1030100000217F20FFF790F801214020FFF78CF876
:10302000A86A0178C908C9000EE000217F20FFF7D7
:1030300083F800214020FFF77FF8A86A0178620733
:10304000C908C900520F11430170E868447001209B
:1030500070BDD3E710B50446E348804720700120D7
:10306000ABE710B50446E048801D80472070012082
:10307000A3E7DD4910B51C31884701209DE7DA48F8
:1030800010B572308047012097E7D8480047D849EB
:103090000847D7491A31084708B5D64968468847CE
:1030A0006846C0788007C00F08BD08B5D14968469A
:1030B00088476846C078C00900D0012008BD10B517
:1030C000FFF738F879E710B5FFF736F875E7C54828
:1030D000406AC07B052805D0062803D00F2801D000
:1030E00000202DE601202BE610B5FFF7F0FF0028A9
:1030F00002D1BD485230804701205EE710B5B94982
:103100000122486A4275437CDB09DB019B1C437446
:10311000931E83741B0AC374896ACB7AEF242340FD
:10312000CB724B7B93434B738B7A13438B72817EB1
:10313000022319438176017C11430174AC490520B7
:103140001A318847AC488047012036E7AA4810B5B5
:1031500012308047012030E7A64910B57E318847FC
:1031600001202AE7A34910B596318847012024E7BA
:10317000A14910B55831884701201EE79E49AC315E
:1031800008479D4910B5FA318847012015E710B569
:103190009A488047012010E7984810B518308047BA
:1031A00001200AE7954BA2331847944BD8331847B0
:1031B000F8B507468B48002680680D46344628300F
:1031C00001F0A6FA2903C91940180121C90488424F
:1031D00011D90020F8BD72B682488068283001F00D
:1031E00097FA2103C9194018854A012190470646DC
:1031F00062B6641CE4B2AC42EDD33046F8BD70B5A3
:1032000004467848164680680D46283001F080FA5A
:103210000346611940180121C90488420AD8002BCD
:1032200008D072B61819764B32462946EA3B9847C1
:1032300062B670BD002070BD70B504466948164680
:1032400080680D46283001F063FA03466119401882
:103250000121C90488420AD8002B08D072B6181977
:10326000674B32462946823B984762B670BD0020C4
:1032700070BD70B5634800240078614E594D002838
:103280000DD001281ED024E072B6143001F040FAAF
:10329000210340180121B04762B6641CE4B2A8685B
:1032A000C17B827B09021143A142EDD811E072B6C5
:1032B000103001F02DFA210340180121B04762B609
:1032C000641CE4B2A868C17B827B09021143A1425D
:1032D000EDD8012070BD70B504460D46000B4219B3
:1032E00040488068C17B837B090219438A4201D927
:1032F000002070BD4349424E0978002902D00129BF
:1033000003D00AE072B6143001E072B6103001F05A
:10331000FFF900192946B04762B6012070BDF8B523
:10332000044638480F4601782E48354D8068823D66
:103330001646002902D0012903D00BE072B61430E2
:1033400001E072B6103001F0E3F900193246394657
:10335000A84762B60120F8BD30B4224B9C68E37BDD
:10336000A47B1B0223431B03834202D230BC0020F8
:10337000704730BCC9B2D2E730B4234CA44630BC4D
:103380006047F3B5174889B080680024283001F001
:10339000BFF9074609984609002511E072B6680191
:1033A000174BC01920216A46EA3B984762B60020B5
:1033B00069460A5C401C121994B22028F9D36D1C8E
:1033C000B542EBD30998C606F60E72B631466801CF
:1033D0000B4BC0196A46EA3B984762B60020694623
:1033E00018E00000B03000209F440000FB5F0000A8
:1033F0002B6200004D650000E54600000348000018
:10340000435400009C3E00207B4A00000A5C1219D5
:1034100094B2401CB042F9D30A98844202D10120F0
:103420000BB0F0BD0020FBE7F8B5F8488047F84C3A
:10343000607A002840D00006042500280FDA607862
:10344000217800020843400709D5FEF7BEFD6078E9
:10345000217800020843A8432070000A6070607859
:10346000217800020843EB4FEB4E41060CD540217A
:1034700088432070000A6070022069460880024676
:103480006B4639460020B047607821780002084337
:10349000C10711D0400840002070010A6170800708
:1034A00002D56846058002E00520694608800222B0
:1034B0006B4639460020B047F8BDD848004738B5BC
:1034C000D74C2078002804D1D64968468847012087
:1034D0002070012038BD70B50278002A49D0CC494F
:1034E0004A7242788A72002A01D0042A01D9042241
:1034F0008A72C278847813022343C54A1C0AD372A5
:1035000014734479057924022C4315466C73240AFC
:10351000AC73C479857920022843D073000A1074F3
:10352000BF480825C068D21C2130447C007C24029E
:1035300004430120A342887008D91B1B07E01071C7
:10354000000A01E01571280A507107E0E31A8C7A2D
:10355000A3420ADA1071000A50718B72887AC8701F
:103560000871FFF76EF8012070BDE400A342E9DAAC
:10357000E5E7002070BDAA49096A0870020A4A708E
:10358000020C8A70000EC870487A022210434872FA
:10359000A7E538B5044600200090A2496846884750
:1035A0000099F8208143E006000E08430090FFF7E1
:1035B000E2FF38BD08B5002000909A496846884768
:1035C00000980006C00E009008BD96487230004773
:1035D00094495A3108479449084793491A31084792
:1035E0009248004791490C310847F8B500260B4630
:1035F00004460125304631462D03675C491CBE193F
:10360000A942FAD30021675C491C7840A942FAD349
:103610009E4222D1904220D1814EB0680A3001F002
:1036200077F87B4900195722573901F037F8B0680D
:103630001C3001F06DF8F168001907220A3101F021
:103640002DF801217A4A00209047794B002022462C
:103650002946823B98470120F8BD0020F8BD70B58F
:10366000012605466E4C3603714B00203146EA3B7D
:10367000A26998476F4928468847A0681C3001F026
:1036800047F8A16907224018E1680A3101F006F8FD
:103690000121674A00209047654B00203146823B5C
:1036A000A269984770BD10B504465D4880680A302D
:1036B00001F02EF85E4B1021EA3B22465730984726
:1036C0007BE470B501260546554C3603584B002067
:1036D0003146EA3BA26998470121554A00209047AC
:1036E000A0680A3001F014F8A1691022573140187F
:1036F000294600F0D3FF4E4B00203146823BA269A1
:10370000984770BD464840690178C943890702D18E
:103710008078062801D00020E3E40120E1E4464A55
:103720001047F3B581B0060025D03D4FF869044637
:10373000C17980790D020543E01C00F0E9FF010228
:10374000A07801430C46002D17D0002C15D0012184
:10375000374B09030020EA3BBA699847B8680A303A
:1037600000F0D6FFB9696731405C401CC7B2032F37
:1037700005D90220FEBD0120FEBD0420FEBDB542DC
:1037800004D10298844201D10020FEBD0121284AC3
:1037900000209047224CA0680A3000F0B9FFA269CF
:1037A000234B114667314754012109030020823B16
:1037B00098470320FEBD1648012157380278184863
:1037C00009078068002A03D0012A07D0002088E476
:1037D000C27B837B10021843400304E0C27B837BDF
:1037E00010021843000340187BE470B504460848F3
:1037F0000D46573801780A480126B603806800292B
:103800001CD001291CD0002070BD00005B460000C8
:10381000F33E002000800000A13E0000F94B0000B4
:10382000B03000204D6500002B620000776A000078
:1038300043540000A13D0000D9600000143000E0B6
:10384000103000F065FF801972B60019D14A294680
:10385000904762B6D8E7F8B50546CF480F460178DD
:10386000CE480124A40380681646002903D001290C
:1038700003D00020F8BD143000E0103000F048FF05
:10388000001972B64019C34B32463946EA3B984795
:1038900062B6F8BDF8B50546BF480F460178BF4887
:1038A0000124A40380681646002903D0012903D00F
:1038B0000020F8BD143000E0103000F029FF00199E
:1038C00072B64019B34B32463946823B984762B6CE
:1038D000F8BD10B5030001F016FB09060C16202AEE
:1038E000343E415B770001217F20FEF725FC8821D3
:1038F00004E001217F20FEF71FFC8A216120FEF7F2
:103900001BFC81215DE001217F20FEF715FC8A214F
:103910006120FEF711FC832153E001217F20FEF797
:103920000BFC8A216120FEF707FC872149E0012179
:103930007F20FEF701FC8A216120FEF7FDFB8F212D
:103940003FE001217F20FEF7F7FB8A216120FEF78F
:10395000F3FB9F2135E001217F202BE000217F2018
:10396000FEF7EAFB02213020FEF7E6FB01217F2073
:10397000FEF7E2FB1F216320FEF7DEFB03216D2033
:10398000FEF7DAFB8A216120FEF7D6FBB02118E0B2
:1039900000217F20FEF7D0FB02213020FEF7CCFB78
:1039A00001217F20FEF7C8FB1F216320FEF7C4FB27
:1039B00007216D20FEF7C0FB8A216120FEF7BCFBCA
:1039C000BF216520FEF7B8FB7AE610B57348806822
:1039D000283000F09DFE0121C904081A70E66E48E7
:1039E0000078D5E5F8B505466C4E6B48B2690078AD
:1039F0001446002801D00020F8BD280502D0280573
:103A0000000D2D1A72B60121624F09030020EA3F12
:103A1000B84762B60120C0042146401B283100F09F
:103A200081FE05462046103000F072FE0090281AF4
:103A30004108009808182146143100F073FE014631
:103A40000098081A0001000CA073000AE07372B617
:103A50000121504A0020904762B672B601214D4BB9
:103A600009030020823BB269984731210020B268E7
:103A7000B84762B60120F8BD4848484B00791B7929
:103A800002091B0709201B0FC01A062300215843F7
:103A9000072A08D0032A09D0022A0BD0012A0CD009
:103AA000002A0DD00FE04121C94301E03521C9436F
:103AB000081A07E02321C943FAE71721C943F7E7AA
:103AC000801D404241B2C8B262E510B500F055F821
:103AD000002804D000F051F80128FBD0F0E500F0F8
:103AE0004CF80028FBD000F048F80128FBD0E7E5AF
:103AF000F0B52A4C0025646AE678360701D5002027
:103B0000F0BD00BF6D1CEDB2642DFAD325464035E3
:103B10006E7CB607FCD400252646C036377947555B
:103B20006D1CEDB2022DF9D346780125F709002F5F
:103B300008D0F606F60E0E70157042785206D20FB7
:103B40001A7004E0B3069B0E0B7000231370134B26
:103B50000A785B6A801CC033272A0CD20022C0344A
:103B600003E026798654521CD2B20E789642F8D8D9
:103B70005D720120F0BD5D72C1E70848416A0A46E6
:103B80006032907C927C603101E0887C8A7C90423B
:103B9000FBD1FDE4435400009C3E0020B0300020E7
:103BA00070B51E46002913D0FE4DAC696B699C426E
:103BB0000ED205C408467D21490148437D21083CB9
:103BC00000F042FDA0602673002060611834AC61F3
:103BD00070BD884200D30846704710B5F14C60684C
:103BE0002030017CC9070FD0017C490849000174CD
:103BF000082000F02CFA60682030417C012211433B
:103C000041743220FFF7E7FC10BD70B5E54C064665
:103C100060680D462030017CC90706D0017C490848
:103C2000490001743220FFF7D6FC62682032167515
:103C3000300A5075300C9075300ED075107C102104
:103C400008431074907C400840009074D64805608A
:103C5000507C012528435074082000F0EFF960687B
:103C60002030017C2943017470BDCEE770B5CD4D85
:103C700018212878AE68484369690C1A28698019A8
:103C800028610020C043A86018E0207B002814D0E1
:103C90002069B04204D16068002807D0804705E061
:103CA000801B206102D0A168884201D9A0682061F0
:103CB000A968884200D90846A86018346869844217
:103CC000E3D3A868002805D0411C03D0B749FFF70B
:103CD000CCFF70BDFFF781FF70BDB249CA68824357
:103CE000CA607047AF484068014644310A781046C0
:103CF0004A78120210438A78C978120410430906E0
:103D000008437047F8B50546FFF7ECFFA54A9168F0
:103D10000E1A0020C0431661906010781821536974
:103D20004843191A002718E00868A84202D10F7307
:103D30004F6111E0087B00280ED00869801B0861E4
:103D400002D08C68A04201D9886808610446906856
:103D5000844200D82046906018319942E4D390689C
:103D6000002805D0411C03D09049FFF77EFFF8BD25
:103D7000FFF733FFF8BDF8B58A4B054618781821D0
:103D800048435969081A06E00268AA4202D1027B38
:103D9000002A34D118308842F6D3FFF7A3FF996880
:103DA0000E1A0020C0431E61986019781820414304
:103DB0005869411A012718E00A68AA4203D18A68A3
:103DC0000A610F730BE00A7B002A0DD00A69921B6F
:103DD0000A6102D08C68A24201D98A680A619C6893
:103DE000A24200D814469C6018318142E4D39868FE
:103DF000002805D0411C03D06C49FFF736FFF8BD01
:103E0000FFF7EBFEF8BD674918220B7853434A6968
:103E1000D11A05E00B68834201D1087B7047183145
:103E20009142F7D3FF20704770B50D460446FFF767
:103E300046FB002808D05B48182104704C436119E8
:103E400085614161FFF7C9FE70BD56494A68114658
:103E500020310875030A4B75030C8B75000EC8756D
:103E60008B7C012003438B744B7C03434B740B7C92
:103E700003430B742032D37CDB07FCD00A7C52084E
:103E800052000A744A7C02434A74704745484068AD
:103E90002030C17CC90708D0417C01221143417404
:103EA00041480068002800D000477047F8B53D4CF5
:103EB000074660680E462030017CFD2589070029F1
:103EC00005DA017C294001743220FFF784FB606829
:103ED00020300776390A4176390C8176390EC17661
:103EE000017C202211430174817C294081742E4978
:103EF0004E60417C022529434174092000F09EF860
:103F000060682030017C29430174F8BD10B5254C50
:103F100060682030017C89070FD5017CFD221140AB
:103F20000174092000F093F860682030417C02227F
:103F3000114341743220FFF74EFB10BD1948406811
:103F40002030C17C890708D5417C0222114341748D
:103F500015484068002800D000477047F8B5114C5C
:103F6000074660680E462030017CFB254907002982
:103F700005DA017C294001743220FFF72CFB6068D0
:103F800020300777390A4177390C8177390EC177AC
:103F9000017C402211430174817C294081740249D3
:103FA0008E6005E0E8300020043F00206D3C0010EA
:103FB000417C0425294341740A2000F03FF86068E1
:103FC0002030017C29430174F8BD28480C21406849
:103FD000403041180A7810464A78120210438A7815
:103FE000C9781204104309060843704710B51F4CE6
:103FF00060682030017C49070FD5017CFB2211400D
:1040000001740A2000F023F860682030417C04220B
:10401000114341743220FFF7DEFA10BD13484068A7
:104020002030C17C490708D5417C042211434174EA
:104030000F488068002800D000477047002805DB43
:10404000C106C90E012088400A490860704700284F
:104050000ADBC106C90E012088400649803108608C
:10406000BFF34F8FBFF36F8F70470000E830002021
:10407000043F002000E100E018B5F8480068009017
:10408000002069460B5C0A241A0962431B070A5484
:104090001B0FD2180A54401C0328F3DB009818BDEC
:1040A00008B5FFF7E9FF009068460178C078EC4A50
:1040B000401E50430A1868468178E12000014143C0
:1040C000684640783C23584308181118E54A10699F
:1040D000814201D3081A02E0E34B081AC0181161AB
:1040E00008BD70B50D46002802D0DC4E083E01E048
:1040F000DA4E0C3E0024285D0A2100F0A5FA0001EA
:1041000001432955641C032CF5DB284600F000FB15
:1041100030606420FFF75FFAD0482038C17A082267
:104120001143C17270BD38B5CE4909694418CC49F4
:10413000204600F089FA421C6846C270E125084614
:104140002D01294600F080FA024668468270294611
:10415000204600F079FA08463C2100F075FA014645
:10416000684641703C21204600F06EFA68460170B6
:1041700069460020FFF7B5FF38BD38B5FFF77CFF73
:10418000009068460178C078B54A401E50430A182E
:1041900068468178E12000014143684640783C232D
:1041A000584308181118AF4BB0485A6A0468914236
:1041B00001D38A1A02E0AC4D8A1A5219A218026081
:1041C0001046596238BD70B500290BD0A54D6E69F7
:1041D000AC69B44206D2A16005C423710020E0603E
:1041E0001034AC6170BD884200D3084670479B49CB
:1041F00020398A7A0F238343887A1A400009000104
:1042000010438872704770B50446400701D5FFF728
:1042100033FFE00741D0934C18216078666848432B
:104220006169081A03E0027B002A02D11830884233
:10423000F9D3884231D2FFF733FF6168E068401854
:10424000E0600020C04360606078182148436169E5
:104250000D1A18E0287B002814D02869B04204D138
:104260006868002807D0804705E0801B286102D0DD
:10427000A968884201D9A86828616168884200D984
:1042800008466060183560698542E3D3606800289D
:1042900004D0411C02D0FFF746FF70BD0120FFF79C
:1042A000A6FF70BD6F498A6882438A607047F8B57F
:1042B0000446FFF7F5FE6B4AD06072B60021C94391
:1042C00051605178182359435369591A002717E050
:1042D0000D68A54202D10F734F6110E00D7B002DD8
:1042E0000DD00D692D1A0D6102D08E68B54201D92D
:1042F0008D680D615668B54200D935465560183154
:104300009942E5D35068002804D0411C02D0FFF741
:104310000AFF02E00120FFF76AFF62B6F8BDF8B5B8
:10432000504C05466078182148436169081A06E038
:104330000268AA4202D1027B002A38D11830884292
:10434000F6D3FFF7ADFEE06072B60021C9436160AD
:104350006178182266695143711A012719E00A68C9
:10436000AA4203D18A680A610F730BE00A7B002A14
:104370000ED00A69121A0A6102D08B689A4201D9DA
:104380008A680A6113466268934200D81A466260DE
:104390001831B142E3D36068002804D0411C02D038
:1043A000FFF7C1FE02E00120FFF721FF62B6F8BD72
:1043B0002C49C8617047F1B582B0FFF771FE294DF5
:1043C000E86072B60021C943696069786E69182295
:1043D00051430090741AEF6920E02068B84209D177
:1043E0003C21029800F030F93C20401A2061012065
:1043F00020730CE0207B00280FD021690098081A58
:10440000206102D0A168884201D9A068206120699A
:104410006968884200D9084668601834B442DCD321
:104420006868002804D0411C02D0FFF77CFE02E03F
:104430000120FFF7DCFE62B6FEBD0A4918224B7868
:1044400053434A69D11A05E00B68834201D1087BC6
:10445000704718319142F7D3FF207047C0100050C9
:104460008051010004310020803A0900A83000206A
:10447000714908780028F0D17048C37A01221343AB
:10448000C372C37ADB07FCD10A70E6E76A490862A7
:10449000E3E76A498A7A024310078A7A000F120911
:1044A000120102438A72D8E764498A7A12090243E8
:1044B00010018A7A1207120F02438A72CDE770B593
:1044C00005460024285D0A2100F0BEF800010143E2
:1044D0002955641C032CF5DB284600F019F95749CF
:1044E0002039C86370BD554A138A401EDB0BDB03BD
:1044F0004004400C03431382907C0907000900012B
:10450000090F08439074A8E74C48C17A042211436C
:10451000C172C17A4907FCD49FE74749087801284E
:104520009BD14648C27A02231A43C272C27A9207CA
:10453000FCD40020087090E7F3B581B0FFF7EDFFE1
:10454000FFF7E2FF01200021C003FFF7CCFF64204A
:10455000FFF741F801216846C1700024847044705F
:104560000470FFF7ACFF344D07262C616846C67017
:10457000172787703B244470047069460120FFF7B9
:10458000B0FD6846C67087704470047069460020AC
:10459000FFF7A7FD0F20FFF787FF0F20FFF727FE8C
:1045A0000120FFF776FF02982862FFF761FF244998
:1045B00004200860FEBD70B50D460446FEF77FFF7F
:1045C00000280BD01C48182144704C4361198561A8
:1045D000416101201B49C003FFF7AEFF70BD10B55C
:1045E0001648407A03071B0F1846FFF75DFF124875
:1045F000016A002901D01846884710BD0E4800788E
:104600002BE718B5002802D00C48183001E00B4801
:10461000143000680090002069460B5C0A241A09D7
:1046200062431B070A541B0FD2180A54401C03286C
:10463000F3DB009818BD000004310020A0100050EA
:1046400000E100E00742001030B50B4601460020B3
:104650002022012409E00D46D5409D4205D31D4688
:104660009540491B2546954040191546521E002D80
:10467000F1DC30BD70B500242546002801DA0124A4
:104680004042002901DA01254942FFF7DDFFAC4233
:1046900000D04042002C00D0494270BD03460B437D
:1046A0009B0703D009E008C9121F08C0042AFAD2E8
:1046B00003E00B780370401C491C521EF9D270476E
:1046C000D2B201E00270401C491EFBD270470022AA
:1046D000F6E710B513460A4604461946FFF7F0FF01
:1046E000204610BD30B504460020034600E05B1CA8
:1046F000934203D2E05CCD5C401BF8D030BD034652
:104700000A780270401C491C002AF9D118467047EB
:104710000321001D401E037812021A43491EF9D5D9
:1047200010467047034603220870000A491C521EB7
:10473000FAD518467047F8B502464A40D40F4200F1
:104740004B0052085B089A4202D2024608461146C4
:104750004A0023D0C30D4A00DDB2120EAD1A202D3F
:1047600035DA49020126490AF6058A19002C00D0DB
:10477000524220214F1B1146B9402A411018C20D48
:104780009A4221D0002C17D0012D08DCDA05801ABE
:10479000D20F8019D207DBB200F080FAF8BDDA053B
:1047A000801A012340001B06C01880185A42801846
:1047B000CA0F1043490007E04908C2071143DA0550
:1047C000801A80194008801800F060FAF8BD610076
:1047D0000122511A001BF7E70122D2075140AAE734
:1047E0000122D2075040A6E7F0B5074608465840D8
:1047F00087B0C00F049048000E4659004008490891
:10480000BC1A884105D2384631461E4617460B462B
:1048100002465800400810434CD0300D039040052C
:104820005900400D490D0590401A0290402872DA57
:1048300018030121000B0905084301900498009218
:10484000002805D001995242002088410092019031
:10485000029840210A1A0199009800F0E3F90546F0
:104860000C466B4607CB00F0FEF9C0197141039A64
:104870000E0D0023D71756401A467A40164344D0EF
:10488000049A002A2DD0029A012A039A15DC1205F7
:10489000C01A914101263605001C7141D20F059EB8
:1048A000D2070093019202962A46234600F03CFA72
:1048B00007B0F0BD38463146FAE71605224A0F46E2
:1048C000B218C01AB74101210905001C4F41001858
:1048D0007F41114618187941E20F10436D19644168
:1048E00013E0E2076D0815436408C2071443039AF6
:1048F00001261205C01A91413605001C7141CE07F0
:10490000400830434908C01851412A46234600F068
:10491000FEF9CDE7FFE7049801224000C117121A03
:1049200000238B4104983146C417381AA141EEE7A1
:1049300030B40124E407634030BC55E730B40124AF
:10494000E407614030BC4FE70000E0FFF0B51FB462
:1049500088B00B990998002448400999C00F490074
:1049600049080991C0070B990090490049080B912B
:1049700009990898A64608431CD00B990A98084341
:1049800018D0099801244000420D4800410D0998B3
:1049900024050003000B204309900B980003000B33
:1049A00020430B9050181C494018002201901446D7
:1049B000104605E0002001460DB0F0BD032801DAE5
:1049C000034600E003239C46C11A0AAE0AE05F00DA
:1049D00008ADED5B4F00F75B7D430027AA187C41D3
:1049E000491C5B1E6145F2DD410004AB5A522104B3
:1049F000120C0A43240C401C0828DFDB01980290AB
:104A00000099704601910090059B049A07990698B9
:104A100000F08AF9D0E700000DFCFFFFF0B50C466E
:104A20005C4085B0E40FE40703944C000026640862
:104A300059009446490802460296224321D0624614
:104A40000A431ED06200570D4A000E032303550D82
:104A5000012402462C492405781B1B0B360B4018F9
:104A600023432643614600901C46501AB44103D3A9
:104A70000098401C009002E0921800985B410028CA
:104A800003DA0020014605B0F0BD00200121090530
:104A90000746864611E064461D46141BB54106D301
:104AA0006546521BB341744607430C43A646CD07E7
:104AB00040084908284392185B4105460D43EAD156
:104AC0001046184313D060461946504071400843C1
:104AD00006D06046101AB34106D20122002306E038
:104AE00000220123DB0702E00122D2435310009889
:104AF00074460105381C6141029C039D00196941FF
:104B000000F005F9BFE70000FD03000010B500222A
:104B10009623114600F0C2F810BD00000EB5C21772
:104B2000C10F5040CA0740180021054B0293019263
:104B300000910A460B4600F0F7F803B000BD0000F4
:104B4000330400000EB505490291002100910A4688
:104B50000B46019100F0E8F803B000BD33040000FB
:104B60004A0009030123090B1B051943094B10B522
:104B7000520D9A4201DA002010BD064B34339A429E
:104B800003DC9A1A00F05EF810BD03495118884002
:104B900010BD0000FF030000CDFBFFFFC20FD207D6
:104BA000400040080BD0C10D0723DB01C9184002AB
:104BB0000905400A1143C20840071143704700200D
:104BC00001467047F0B51FB40646002082B0054686
:104BD0004024019100901BE0019922460F46304687
:104BE00000F030F8049A059B801A994110D31046C2
:104BF0001946224600F016F8361A8F4101972246D0
:104C000001200021009F00F00DF838184D41009060
:104C10002046641E0028DFDC019B009829463246AE
:104C200007B0F0BD10B5202A04DB0146203A9140C0
:104C3000002010BD914020239C1A0346E3401943F5
:104C4000904010BD10B5202A04DB0846203AD04021
:104C5000002110BD0B46D340D0402024A21A914021
:104C60000843194610BD10B5202A06DBCB170846AD
:104C7000203A1041C1170B4306E00B461341D040C8
:104C80002024A21A91400843194610BD002904DAD5
:104C9000401C490001D140084000704770B4002416
:104CA000050C05D11024000402D1002921D01124C3
:104CB000050E01D100020834050F01D10001241DA9
:104CC000850F01D18000A41C002801DB4000641C7A
:104CD000002908D020252E1B0D46F540A14000D00C
:104CE00001212943084301061B1B000ADB1D02D5D5
:104CF000002070BC7047DB05181880180029F8DA0E
:104D0000401C4900F5D170BC40084000704710B508
:104D1000002B08DA0024401C614192185B411A43C1
:104D200001D14008400010BDF0B51FB482B0054667
:104D30000C0003D0084600F0CFF802E000F0CCF8F9
:104D400020300246009021462846FFF76BFF049B67
:104D5000059A04460F4618431143084314D01846D9
:104D600010431BD0009840210A1A18460599FFF7F6
:104D700069FF05460E46009A05990498FFF752FF11
:104D8000084305D0012004E02046394607B0F0BDB5
:104D90000020C11705430E432C43374300990E985A
:104DA0006305401A7905E40A00220C43FD0A0A3023
:104DB00002D500200146E9E70105101969410C9C64
:104DC0000D9D00196941FFF7A2FFDFE74A000903C3
:104DD0000123090B1B0519430A4B10B5520D9A42CA
:104DE00002DA0020014610BD064B34339A4203DC40
:104DF0009A1AFFF727FF10BD034BD218FFF712FFD7
:104E000010BD0000FF030000CDFBFFFF10B500291F
:104E100004DB0124E40740428C412146002B04DBE3
:104E20001C460123DB075242A341994200D1904224
:104E300010BD0000064C0125064E05E0E36807CCD6
:104E40002B430C3C98471034B442F7D3FBF73CF9A2
:104E5000EC5700100C58001070B58C180578401CE9
:104E60006B075B0F01D10378401C2A1106D1027831
:104E7000401C03E006780E70401C491C5B1EF9D1F3
:104E80002B0705D40023521E0DD40B70491CFAE7E2
:104E90000378401CCB1A921C03E01D780D70491C4E
:104EA0005B1C521EF9D5A142D8D3002070BD000072
:104EB0000FB410B504A9074B02AA039800F0ECF850
:104EC000044602A9002000F083FC204610BC08BC68
:104ED00004B01847D15700102021020C01D0102136
:104EE0001046020A01D010460839020901D01046C6
:104EF000091F820801D01046891E420801D0881E71
:104F00007047081A704730B47446641E2578641CD4
:104F1000AB4200D21D46635D5B00E31830BC18470E
:104F200002E008C8121F08C1002AFAD17047704772
:104F3000002001E001C1121F002AFBD170470000D0
:104F4000F0B51FB484B007980699020D014314D040
:104F50004A484B491018484305140F9801280E98E9
:104F60001CD0281A401C0024464E47490094019149
:104F70000290002814DA474227E00F98012443A347
:104F8000012808D0002104980F9A84600360C26051
:104F9000416009B0F0BD0E98C143F4E74042E2E73A
:104FA000074612E0F80707D02246334601990098D9
:104FB000FFF7CCFC0191009022463346104619467B
:104FC000FFF7C4FC04460E467F10002FEAD102987A
:104FD000019B0028009A0799069802DAFFF7B6FCB1
:104FE00001E0FFF71BFD04460E460022284BFFF7A9
:104FF0000DFF03D80020C043014607E00022254BE7
:1050000020463146FFF7F0FBFFF7E0FE102409E0F1
:10501000002C0ADB0A220023FFF7D4FD059B303267
:105020001A55641E02460A43F2D11122641C059BE4
:10503000121B1C190F9B012B03D0012308430ED117
:105040000AE0084304D011200E9000200F9084E75E
:105050000E98151A6D1E0BE00E98824202DD002399
:105060006D1C03E0824201DA00236D1E002BEED09E
:1050700004980F998260C16030C08AE701FCFFFF8D
:10508000104D0000000024400000F03F3000000000
:105090000000F0430000E03FFFB597B00646002552
:1050A00018E2252877D100242746FD49049400E022
:1050B0000443761C32780120203A90400842F7D110
:1050C00030782A280ED0022230780146303909295A
:1050D00016D804990A235943303940181443761CD2
:1050E0000490F1E7189802C804911890002904DA96
:1050F0000120400304434842049002200443761CEC
:1051000030782E2814D1042004437078761C2A2885
:1051100009D11898761C80C8189009E00A214F43DD
:10512000303FC719761C3078014630390929F5D946
:1051300030786C2810D006DC4C281AD068280ED0A5
:105140006A2817D104E0742813D07A2812D110E00D
:105150000120400504430CE00121090501E0032181
:1051600009050C437178814203D101200005241800
:10517000761C761C3078119066280BD013DC5828EA
:105180007DD009DC00287BD04528F6D04628F4D015
:1051900047281AD1A5E118E0632835D0642870D0DB
:1051A000652812D19DE170286CD008DC6728F1D009
:1051B00069287BD06E280DD06F2806D1BAE07328FD
:1051C0002ED0752871D0782859D01A9A19999047FD
:1051D0006D1C7EE16002400F022809D003280DD02B
:1051E0000428189801680DD00D60001D189070E11A
:1051F0001898EA1701680D604A60F6E71898016888
:105200000D80F2E70D70F0E718986A460178117288
:10521000001D18900020507202A80090012005E0A7
:10522000189802C8189000200091C04361070DD55E
:10523000002101E00199491C0191B94212DA814231
:10524000F8DB009A515C0029F4D10BE0002101E069
:105250000199491C01918142FADB019A0099895C0C
:105260000029F5D1019904981A9B471A214638461E
:10527000199A00F097FA0199401945180BE04FE090
:105280002CE113E04EE0009800990078491C009151
:105290001A9A199990470198401E0190401CF2D12A
:1052A000214638461A9B199A10E137E00A2000215E
:1052B000009001916002410F022907D0189A01CA9B
:1052C0001892C2179446032908D00AE01898C01D06
:1052D000C108C90005C91891944607E000B2C21779
:1052E0009446042902D140B2C1178C46002261467F
:1052F000944506DA0A460021404291418C462D2110
:1053000002E0210504D52B216A461173012103E037
:10531000E10701D02021F7E7029155E00A200AE0D9
:10532000102008E010200090002104200443019187
:10533000082703E008200021019100906002410F3E
:10534000022907D0189A01CA18920022944603290C
:1053500008D008E01898C01DC108C90005C91891F7
:10536000944603E080B2042900D1C0B2002102912A
:10537000210729D51199702906D0009A1021019B87
:105380004A401A4305D00EE040216A4611730121BC
:1053900008E06146014306D030216A461173119935
:1053A000517302210291009A0821019B4A401A433D
:1053B0000AD16146014301D1610705D530216A4612
:1053C000117301217F1E02911199582904D035A132
:1053D0000E910DA90D910DE037A1F9E76146019BF2
:1053E000009AFFF7EFFB0E9B8C469B5C0D9A521EBA
:1053F0000D92137061460143F0D10D9805A9081A6A
:1054000020300190600703D501200004844300E0B0
:1054100001270198874201DD381A00E00020019938
:1054200000904118029809180498401A0490E0036B
:1054300006D421461A9B199A049800F0B3F945192D
:10544000002706E003A81A9AC05D199990476D1CC1
:105450007F1C02988742F5DBE0030CD521461A9B9E
:10546000199A049800F09EF9451904E01A9A302020
:10547000199990476D1C0099481E00900029F5DC91
:1054800008E00D980D990078491C0D911A9A199908
:1054900090476D1C0199481E01900029F1DC63E1E1
:1054A00009280100303132333435363738396162FA
:1054B00063646566000000003031323334353637BE
:1054C00038394142434445460000000000F05AF993
:1054D0004519761C3078002800D0E2E528461BB03C
:1054E000F0BD600700D406271898C01DC108C90088
:1054F00048680A680831C30FDB071891190001D00A
:105500009CA108E0210501D59BA104E0E10701D0A1
:105510009AA100E09AA1430011985B0810916528B8
:105520000CD006DC452809D046281DD0472841D19B
:1055300041E0662818D067283CD13CE00021112FBB
:1055400001DB112000E0781C0191009008A911A84E
:10555000FFF7F6FC139905910021119A15927F1C13
:1055600012980197009150E00120C007039001209C
:10557000019008A9009711A8FFF7E2FC139A14996B
:1055800005920022119B009212981593059A0192A0
:10559000002901D0104602E0791C40180190381A09
:1055A00001D5019804E04042401E0090781C019013
:1055B000C01B029043E0012F00DA01270021112FC8
:1055C00001DD112000E038460191009008A911A8E2
:1055D000FFF7B6FC13990591119A002112981592C4
:1055E0000091019721070CD40599B94201DB01997B
:1055F00000E00191012904DD159A491E515C302912
:1056000006D0B84201DA011D05DA0121029115E048
:105610000199491EEDE7002805DC00994118009129
:105620000199091A03E0019A411C914200DD0191A0
:105630000099401A401C02900120C00703902007E7
:1056400006D402990198814202DB0020C0430290F7
:1056500000206946C87707AF012103980337C907BF
:10566000884224D0022011902B2012900398002809
:105670000CDA404203902D20129007E00A21039893
:10568000FEF7E2FF30317F1E039039701199481EFA
:1056900011900029F2DC03980028EFD1791E1298AE
:1056A00008703078202108404530BF1E387006A8A9
:1056B000C01BC01D039010980078002800D0012066
:1056C000019941180298C0170918039809180498FD
:1056D000401A401E0490E00306D421461A9B199AF2
:1056E000049800F05FF8451910980078002803D05E
:1056F0001A9A199990476D1CE00324D521461A9BEC
:10570000199A049800F04EF845191CE000980028FA
:1057100007DB00990598884203DD1598405C1999CC
:1057200001E0199930201A9A904700986D1C401C8E
:1057300000900298401E0290002804D11A9A2E2050
:10574000199990476D1C0199481E01900029DDDCD4
:1057500005E038781A9A7F1C199990476D1C0399B7
:10576000481E03900029F4DC21461A9B199A0498DC
:10577000ACE600002D0000002B000000200000001F
:1057800000000000F8B5044600251E4617468804B0
:1057900004D405E039462020B0476D1C641EF9D5BD
:1057A0002846F8BDFFB50446002581B01E46C80353
:1057B00001D5302700E02027880404D505E03846CD
:1057C0000399B0476D1C641EF9D5284605B0F0BD9D
:1057D0000A68531C0B601070704730313233343517
:1057E0003637383941424344454600000C580010D2
:1057F000003000202C010000584E0010A05800106E
:105800002C310020E4110000304F0010C1170201BC
:10581000050303018309FF080B1209095359445F6B
:105820005541525414011113503082201360101B43
:105830005024041A14041A18042210524058180153
:1058400002030405060708090A1112131415161796
:1058500018191A1B1E1F181808090A070811151213
:10586000162C1319141812D01C0150E004512324D3
:10587000F4620413ED052320DF1B208F081AC604F1
:10588000134A071B2014101A906C19CA12401908E9
:105890002984D119101AFF010114091618B2020047
:04000005100000C126
:00000001FF
