:020000041000EA
:1000000010430020351B00103D1B0010210800107C
:1000100000000000000000000000000000000000E0
:10002000000000000000000000000000411B001064
:100030000000000000000000431B0010451B0010E2
:1000400000000000471B0010FB500010471B001071
:10005000471B0010471B0010CB140010F5140010B4
:10006000A9490010594A0010394B0010471B0010D5
:1000700057130010471B0010471B0010471B0010B0
:10008000471B0010471B0010471B0010471B0010A8
:10009000471B0010471B0010471B0010471B001098
:1000A0000000000000000000000000000000000050
:1000B0000000000000000000000000000000000040
:1000C0000348854605F0E0FB00480047EB060010BA
:1000D00010430020F8B500273D463C463E46FF2130
:1000E000FE48009700682030017041709F228270A6
:1000F000CF22C270017138460122811F0B0005F02A
:1001000017FC0B070707070C0C0C0C0C10100C004D
:10011000114681400D430C4303E0114681400F43DB
:100120000E43401CC0B22028E7D3284601F024F833
:100130002946002000F0EDFF2846A04301F08AF890
:10014000204601F09FF83846009901F02DF831461D
:10015000002000F0ABFFF8BD70B586B00020694606
:100160000872072048741920800148821E20888266
:1001700002A802F036FF684602F021FF6946D8481F
:100180004E78C6728D780573CC7844730B7983737F
:100190004A79C273897901741B3006714571847183
:1001A000C37102724172024614231B211B3802F0F4
:1001B0001EFFCC490120087506B070BD0EB50028A1
:1001C00002D001280FD106E010206946C880C8205F
:1001D0004881002006E050206946C8804B20C000BE
:1001E00048810A200881C0206946087104204871AE
:1001F00001A803F017FD6946488900900B89CA8859
:10020000B9A1002001F0EFFB0EBDB54910B50C39C6
:100210008878401CC0B28870032808D3002048703A
:100220000120FFF7CBFFFF20013004F0F9FA10BDE9
:1002300010B588B0044600200590069007906078BD
:10024000A178801CC2B207206B465875A078D030C8
:100250001875E07898752079D87560791876A07946
:100260005876E0799876207AD876032003E0235CEC
:100270005940401CC0B29042F9D3A05C884213D1CF
:1002800005A804F0DAF9237AE279A179607901907E
:1002900002A80EC020790090E378A2789EA10020E9
:1002A00001F0A1FB08B010BDA7A1002001F09BFB4D
:1002B000F8E73EB58A4C0C3CE278D2070ED0012418
:1002C0006A461480032555801F25958014810346B6
:1002D0000A466946204603F0BFF83EBD00203EBDF9
:1002E0007F4A10B50C3AD088401C81B29B48D1801F
:1002F00009C8984205D1032903D90020507004F0A1
:1003000093FB10BDF0B5954E85B035687468A54275
:1003100031D0734F0C3F7878002807D101207870D6
:100320000020F8808E49A32004F04EFB01239B029D
:10033000A54201D32D1B01E0281BC518142D1CD389
:100340001F46674900200C39C880864B69461A5DF4
:10035000641C0A54BC4200D30024401CC0B21428C0
:10036000F5D314216846FFF7A4FF002803D0143DFD
:100370007460142DE5D205B0F0BD002DFBD0F888D7
:100380000328F8D30020694608E0764A125D641C11
:100390000A549C4200D30024401CC0B2A842F4D3AB
:1003A000E9B26846FFF785FF002800D0746000209E
:1003B000F880E0E7F0B504468DB0401C04F036FF4D
:1003C000C11FFF39FA3919D0FF21013100278842B6
:1003D00039D1402000F06EFF0822611D03A804F00F
:1003E000EBFE6846C0891521490288421AD15EA0F9
:1003F00003C8019100900820694621E0802000F0A8
:1004000059FF21460E221531684604F0D5FE1E2202
:10041000611D04A804F0D0FE04AD0FCD00F005FA74
:100420000DB0F0BD52498842FAD168460770019775
:10043000694601A8029700F0D9FC684601A9007836
:1004400002F0FBFFECE7264E01210C3E02281FD0F4
:10045000424D04282DD04A03641C90423CD160795F
:100460002279000210430128DAD1607A237A02024D
:1004700030461A43C078012A2FD08843F0700020FC
:1004800002F081F8FF20013000F0FCFE39A1AAE063
:100490003170FF20B770013004F0FBF901204002F9
:1004A00000F0D8FE0623A21D38A1002001F0A7FA13
:1004B000B6E7627939A1002001F095FAF77037703C
:1004C0006868012464022860204604F0A9F9FFF757
:1004D00043FE02F034FF6FE089E078E058300020FE
:1004E0000C30002000000240736D6172745F706117
:1004F00072616D7320696E74657276616C3A2578ED
:10050000206C6174656E63793A2578207376746F18
:100510003A25780D0A000000706275666620323A4E
:1005200025642020333A256420343A256420203580
:100530003A256420363A25642020373A256420384D
:100540003A25640D0A0000006461746120636865E7
:10055000636B206572726F72210D0A002C350020CA
:10056000E10200102C3100205359445F5541525490
:1005700001FF000055415254206E6F746966792066
:1005800044697361626C6564210D0A00436F6E6E8D
:10059000656374656420616464723A0044697363DE
:1005A0006F6E6E65637465642C7265736F6E3A303E
:1005B00078253032780D0A00204600F063FE601086
:1005C00000F060FE002001F0DEFFDBA10BE008433D
:1005D000F070012001F0D7FF68682860FF2001302B
:1005E00000F038FED9A1002001F0FDF918E7012143
:1005F000C903884224D160792179000208430300AD
:1006000005F096F906051416181A1C0408E7D5A17A
:10061000002001F0E8F9684602F0D9FE68464388F8
:100620000288D6A1002001F0DEF9F9E6DAA1DAE7C6
:10063000DFA1D8E7E4A1D6E7E9A1D4E7EDA1D2E7AD
:100640000121090488420DD101A802F0C0FE6846CC
:10065000008900906846C3888288EBA1002001F0E1
:10066000C2F9DDE60128C1D102F069FED8E6F8B58D
:10067000ED4C207800281BD00026EC4D012818D026
:1006800001277F0202281ED0032811D12670384688
:1006900004F0C6F8E6A1002001F0A5F97D20C00015
:1006A00000F070FAE6A1002001F09DF903F093F844
:1006B000F8BD00F083FAE7A1002001F094F90220D0
:1006C00020702E70F8BD2878401CC0B228702028F9
:1006D000F8D9E3A1002001F086F9384604F0A0F82B
:1006E000F8BDE24901200871704788B072B600F089
:1006F000E9F8002002F0B6FF01F020FF002001F031
:10070000C1FFFF20F53003F00FFB01F0CCFF01F03B
:1007100007F8D7A3D9A2DCA1002001F064F9E049D1
:10072000022004F00FF900F007FFDE49022004F078
:10073000D0FC00F025FFFFF7CDFC00F04DFE0120BE
:10074000D949400500F0CEFDD84800270760476032
:1007500002F0F5FD62B6B44DC44C03F0C4F900F0EC
:1007600097F82878012801D1FFF781FF2079012827
:1007700016D104A803F00BFF6846C37D827D417D3E
:10078000007D03936B4607C36A46D37C927CC8A165
:10079000002001F028F97D202771C00000F0F2F957
:1007A000CB4E3068002814D0800509D5FFF75FFFD5
:1007B0000120400204F01FF8C6A1002001F013F947
:1007C0003088C00505D5FFF720FDFF20013004F07B
:1007D00012F8C44E3068002814D0C00706D0C2A159
:1007E000002001F000F9012004F0EAFA3078400717
:1007F00008D501F058FFC0A1002001F0F4F8042052
:1008000004F0DEFA2878012801D1FFF730FFE07804
:10081000C00702D0FFF776FD9FE702F0ACFF9CE730
:10082000B9A1002001F0DFF8FEE70FB4F8B5694682
:100830004A8B897F06A8022A09D0B84B9A4202D176
:10084000C01D00F0D2F9F8BC08BC04B01847974BA3
:1008500017241A686243B24CA154012207E085189C
:10086000AE791D6817277D432D19AE54521C914255
:10087000F5D21968491C1960322901D30021196089
:100880006946C97FC229DED1C01DFFF7D1FCDAE776
:10089000F8B5864C25686068A84212D0A04E0027A3
:1008A0006068A8420DD017214843315C8019401C74
:1008B00000F057F96068401C60603228F0D3676030
:1008C000EEE7F8BD10B588B002F015FB012002F08C
:1008D00084FD6648083002F0ABFD03216A461173BF
:1008E00000245473907BFB228843401C10406A46CE
:1008F00090731020D0731474517403A802F05BFD40
:10090000C02005908748069005A802F076FD0020DB
:1009100002F072FFFFF720FC6A461470D470147165
:10092000547001209470D11D400504F089FC684684
:1009300002F0A8FEB6E40000737461727420616472
:100940007620402064697363210D0A00554152549A
:10095000206E6F7469667920456E61626C656421F2
:100960000D0A000075706461746520727370204117
:10097000434345505445440D0A000000696E7465B8
:100980007276616C3A2578206C6174656E63793A91
:1009900025780D0A0000000075706461746520728E
:1009A00073702052454A45435445440D0A000000E7
:1009B000757064617465207273702054494D45529E
:1009C0004F55540D0A000000757064617465207203
:1009D000737020535543434545440D0A0000000001
:1009E000456E61626C65206C6174656E63790D0A99
:1009F0000000000044697361626C65206C6174657D
:100A00006E63790D0A000000434F4E4E5F5550440F
:100A10004154455F434F4D503A2025642C202564B6
:100A20002C2025640D0A00003C3000203D300020C1
:100A30004F54412066696E6973680D0A000000001A
:100A40005374617274205265736574203130303094
:100A5000730D0A004F54412073746172740D0A00C3
:100A60004F5441206661696C650D0A00003000201A
:100A700031353A31383A343600000000446563209D
:100A80003330203230313900537964383831315FB6
:100A9000554152542025733A25730D0A0000000079
:100AA000E4390020143A0020E3060010B439002095
:100AB00043616C656E6465723A25642D25642D254D
:100AC000643A25643A25643A25640D0A0000000062
:100AD000F43000204556545F31535F4F54410D0AA6
:100AE000000000000C3100205254434556545F3141
:100AF00030530D0A000000005254434556545F31F4
:100B00003835530D0A0000004552523A20486172B0
:100B1000644661756C74210D0A00000001FF00003D
:100B200034350020B5030010FEB501A9684600F079
:100B3000B2FC002001266A46104901AC104DB602F5
:100B400013780BE00F68225CEA550A68521C0A60B1
:100B5000B24201D300220A60401CC0B29842F1D3D5
:100B6000FEBD70B50D460646002404E0305D00F081
:100B700087FC641CE4B2AC42F8D370BD2C35002075
:100B80002C3100200022064B06E00021491C89B2CE
:100B90009942FBD3521C92B28242F6D370470000B6
:100BA0008C0A000010B5E54B0E241B691C70541C08
:100BB0005C709870D81C04F0FFFA10BD08B502F004
:100BC0009CFE00206946087001221620FFF7EAFF0C
:100BD00008BD0022D949002801D00A704A704A8015
:100BE000CA808A800A81CA607047FEB5D34D0E461E
:100BF00069880024002905D02A78002A02D06C7068
:100C000000219FE00178032615296DD01CDC1129F5
:100C100035D012293ED0132941D0142922D1C179CF
:100C200082790E0216436E80417A027A0F021743D0
:100C3000EF80801C04F0FAFAE860AC802C81334627
:100C40000246BFA1009773E001277F0216290AD050
:100C500020294DD0232957D0242903D1801C00F00E
:100C600044F92E70FEBD0020FFF7A8FAC1A10020B4
:100C700000F0B9FE384603F00CFE012007E000202A
:100C8000FFF79CFABFA1002000F0ADFE0420287001
:100C9000EC60FEBD801C00F0BBF805201EE0871C48
:100CA000C01C04F0C3FA01463A78BB4803F044F88C
:100CB0000646781C04F0BAFA0346387800903246AB
:100CC000B6A1002000F08FFE002E09D06846047106
:100CD000012201A91820FFF765FF06202870FEBD3C
:100CE000012069460871F3E7801C00F0C7F8B8E7F7
:100CF0000020FFF763FAAFA1002000F074FE384631
:100D000003F0C7FD0720C2E7C17982790E021643BE
:100D10006E80417A027A0F021743EF80801C04F044
:100D200085FAE860AC802C8133460246A6A1009784
:100D3000002000F058FEFEBD435C2C891B19491CA5
:100D40002B8189B2B142F7D3810718D001463246D0
:100D5000AB4804F031FA2878022804D0082808D0DB
:100D6000072806D021E0A988E868A54A401831463E
:100D700013E0A988E868A24A4018314613E06F4B97
:100D8000D9689B88CB18022A04D0082A08D0072AE1
:100D900006D00AE002463146184602F051FE04E051
:100DA00002463146184602F08BFDA888801981B2B0
:100DB000A98068888142BED32A89E888824204D10A
:100DC000002000F04CF88FA103E0012000F047F86C
:100DD00090A1002000F007FEEB882A8991A1002055
:100DE00000F001FE0020FFF7F4FEFEBD70B5534C8D
:100DF0000D4621694A7821461431921C04F0DCF931
:100E000020694078801C287000206061A06170BD5E
:100E100038B50446407821780002084301210903CF
:100E200088421BD8A27882188A4201D9091AA17077
:100E30005949A2784018E11C04F0BEF96078217885
:100E400002020A43A37882A1002000F0CCFD00201A
:100E50006946087001221720FFF7A4FE38BD1CB5B3
:100E60006B465970090A9970DA70110A1971187075
:100E7000052269461420FFF795FE1CBD38B50446CF
:100E80005F4820300179002905D02038006A5C4A8B
:100E9000400102F0D5FD204604F0C8F961792279BD
:100EA0000B021343024671A1002000F09CFD204676
:100EB00004F0BCF9617922790B0213430246002148
:100EC000084602F0CDFD044602466EA1002000F067
:100ED0008AFD002C07D000206946087001221820E6
:100EE000FFF760FE38BD0120F6E738B5044604F090
:100EF0009DF9617922790B02134302465BA1002020
:100F000000F071FD204604F091F96179227909021F
:100F1000114302F0AAFD044602465FA1002000F042
:100F200062FD002C07D000206946087001221820BD
:100F3000FFF738FE38BD0120F6E700003C30002006
:100F4000434D445F46575F57524954455F535441A0
:100F50005254206F66667365743A25782C73697AEB
:100F6000653A257820636865636B73756D3A2578FB
:100F70000D0A0000434D445F46575F4552415345BB
:100F80000D0A0000344B53455454494E475F4552B7
:100F9000415345200D0A00004A070020436F646555
:100FA0005570646174653D25642025782025780D91
:100FB0000A000000464C415348444154415F4552A9
:100FC000415345200D0A0000464C415348444154CA
:100FD000415F57524954455F5354415254206F6604
:100FE000667365743A25782C73697A653A2578209A
:100FF000636865636B73756D3A25780D0A000000B0
:10100000BC39002073656374696F6E204F4B2120DB
:101010000000000073656374696F6E206661696C1F
:10102000652120006F74615F726563656976655F35
:10103000636865636B3A2578206F74615F736563DD
:1010400074696F6E5F636865636B3A25780D0A009B
:10105000636D64344B53455454494E475772697419
:10106000652025782025780D0A0000006F74612026
:10107000737A3A257820636865636B73756D3A25DA
:1010800078200000436F6465557064617465763242
:10109000303D25640D0A0000436F6465557064613E
:1010A00074657633303D25640D0A0000F0B5C74CF9
:1010B000221D9446002829D0012826D1C44B002B9C
:1010C00023D0002001228240114207D01F5C01255D
:1010D0002668BD402E432660914302D0401C18284C
:1010E000F0D3182001252A4682402B46114209D010
:1010F000644606462478183EB3401C4363461C7081
:10110000914302D0401C2028EDD3F0BDB04B183BDA
:10111000D5E7F0B5AD4C221D9446002829D0012812
:1011200026D1AB4B002B23D000200122824011425C
:1011300007D01F5C01252668BD40AE432660914361
:1011400002D0401C1828F0D3182001252A468240DE
:101150002B46114209D0644626780446183CA34029
:101160009E4363461E70914302D0401C2028EDD35D
:10117000F0BD974B183BD5E7954910B530394A6813
:10118000147821465478240221439478D378240497
:1011900021431B06194381431170080A5070080C43
:1011A0009070080ED07010BD70B5894E303E7368D7
:1011B0001D782A465D782D022A439D78DC782D041F
:1011C0002A432406224302431A70140A5C70140C4A
:1011D0009C70120EDA70F3681D782A465D782D0235
:1011E0002A439D78DC782D042A43240622430243B7
:1011F0001A70140A5C70140C9C70120EDA700822BB
:101200009C1825782A4665782D022A43A578E4782B
:101210002D042A432406224382431A72100A58726C
:10122000100C9872100ED87208201A1814782046E4
:101230005478240220439478D27824042043120660
:10124000104308431872010A5972010C9972000E7A
:10125000D87270BD5E4910B530398A68147821465D
:101260005478240221439478D378240421431B0624
:10127000194301431170080A5070080C9070080E51
:10128000D07010BD524910B530398A6814782146A3
:101290005478240221439478D378240421431B06F4
:1012A000194381431170080A5070080C9070080EA1
:1012B000D07010BD464910B530398A68147821467F
:1012C0005478240221439478D378240421431B06C4
:1012D000194341401170080A5070080C9070080EB4
:1012E000D07010BD70B53A4C1822303C23699D185F
:1012F0002E7832466E7836023243AE78ED78360478
:1013000032432D062A4302401A70150A5D70150CEF
:101310009D70120EDA7010229D182E7832466E786B
:1013200036023243AE78ED78360432432D062A4336
:1013300082431A74100A5874100C9874100ED874E2
:10134000203318784008400018706161012021495D
:101350000003086070BD10B51D4C1820303C236997
:1013600019180A7810464A78120210438A78C97808
:10137000120410430906084310215A18137819461D
:1013800053781B0219439378D2781B041943120631
:101390001143884318D06069002800D08047216934
:1013A00018200A181378184653781B0218439378AC
:1013B000D2781B041843120610430870020A4A70C0
:1013C000020C8A70000EC87010BD00008010005022
:1013D0008830002000E100E070B54D480068C17B16
:1013E00089098901C91CC173017C89098901091D09
:1013F000017420308178DF22114081708378BF2111
:101400000B4083704348006883785B085B008370FF
:1014100003781B091B010833037003785B065B0E1E
:10142000037003780B400370C37810242343C37008
:101430008378042423438370847820231C4384709E
:101440008578EF2425408570857880263543857022
:1014500085780D4085700178214001700178114038
:1014600001708178022211438170C1781943C170E3
:10147000294A40211160817808221143817070BD92
:1014800024490968487008788006FCD50878DF226E
:1014900010400870704738B500226C4622701D4B12
:1014A0001B680DE01C798C546D46521C2C78D2B20E
:1014B000641C2C702C78641C2C702C78641C2C7090
:1014C000DC78E407EED0027038BD10B5114C20680E
:1014D0000178C90605D50178EF2211400170FFF7A8
:1014E00023FB20688178890703D581780222114384
:1014F000817010BD10B5074840680178C90605D550
:101500000178EF2211400170FFF70EFB10BD0000C3
:1015100058300020A030002000E100E00F48FF22FA
:10152000016801321143016070470C4801220168D3
:10153000520211430160704710B57D242401FF2041
:101540000023074A2146013003F0B8F801200023A8
:10155000044A2146400203F0B1F810BDF4300020E7
:101560001D1500102B1500100F48012201681143B2
:10157000016070470C480422016811430160704704
:1015800010B50023094A0A21012003F0AAFB002319
:10159000074AB921042003F0A4FB012003F04DFC0D
:1015A000042003F04AFC10BD0C3100206915001026
:1015B0007515001010B5604C0120206160615FA0BE
:1015C000A06120464830E061012080020021A16234
:1015D0002062616259A0E16220635B48606321641C
:1015E0001020E163A063616458A1E01D03F015FEC3
:1015F00057A1204603F011FE2020A07110BDF7B5C1
:10160000054682B000200090EC6817462869A04289
:1016100001D9061B02E0A968201A0E1AA868761ED6
:10162000001BB04200D80646BE4200D33E46686862
:1016300032460019039903F0BFFD0098BF1B8019C3
:1016400000900398A41980190390A868A04200D1C3
:101650000024EC60002FD9D1009805B0F0BDF7B59B
:101660000446C7688068E168C51B60681646401874
:10167000B54205D9019903F09FFDB819E060FEBDA0
:101680002A46019903F098FD0198761B41193246CC
:10169000606803F091FDE660FEBD70B50E4618214E
:1016A0004843254914464518E86A1835002804D0EF
:1016B00001280FD0022805D113E0284600F031F8A8
:1016C000A04201D2002411E0224631462846FFF70D
:1016D000C6FF0BE0284600F024F8A042F4D20446EE
:1016E000F2E731462846FFF78AFF0446204670BDE0
:1016F000F8B507461048154600780E46002801D177
:10170000FFF758FFEFF31084012080F310882A467A
:1017100031463846FFF7C1FFE1B281F31088F8BDCA
:1017200048E70269C1688A4203D88068401A801875
:1017300000E0501A401E7047443A00205465726D14
:10174000696E616C000000008C3E00205254540011
:10175000534547474552000010B50446806863680A
:10176000421C934205D323681954A260E068401CD0
:10177000E060A2686068824209D121682069FFF7B1
:10178000B7FFA168884203D00020C043E06010BDCD
:101790000020A06010BDFFB581B001261F46354670
:1017A0000A9C029802E003F0DDFC6D1C039988425C
:1017B000F9D2AF4200D93D460B98C00718D1002C92
:1017C00016D00B98800701D5002F02D02020009062
:1017D0000CE03020FBE7641E00990198FFF7BCFF86
:1017E0000198C06800283DDB002C01D0A542F2D34F
:1017F0000198C068002835DB012F01D97F1E06E063
:101800003146029803F0AEFC0399884202D3039854
:101810004643F1E7C14F3146029803F0A3FC01466D
:10182000029A7143511A0291395C0198FFF794FFB3
:101830000198C068002805DB3046039903F092FC4C
:101840000600E8D10B98C0070CD0002C0AD0A542A6
:1018500008D22021641E0198FFF77EFF0198C0681E
:101860000028F2DA05B0F0BDF7B598B007A80290ED
:101870004020039000200C46049018991546082635
:10188000069105902178641C002970D0252907D085
:1018900002A8FFF761FF05980028F3DA1BB0F0BD3E
:1018A0000122002013460227217823291BD02B294F
:1018B00016D02D2902D0302906D101E0184300E0CE
:1018C0003843641C002AEFD1002122781346303BB4
:1018D0000A2B0AD20A23594389183039641CF4E7C9
:1018E00004210843EDE73043EBE70023D7B22E2F66
:1018F0000AD1641C22781746303F0A2F04D20A27E7
:101900007B439B18303BF4E76C2A0DD0682A0BD040
:10191000702A48D00BDC252A4FD0582A28D0632AB9
:101920000CD0642A4DD10EE06278641CECE7732A77
:101930002AD0752A13D0782A43D119E02868011DCE
:10194000296001783AE02A68171D2F601768009116
:1019500001900A22394602A800F07BF831E02A689B
:10196000171D2F6017680A220091019007E02AE0F6
:101970002A68171D2F6017681022009101903946C0
:1019800002A8FFF708FF1CE02868011D296007680E
:1019900039787F1C002914D002A8FFF7DDFE0598D6
:1019A0000028F5DA0DE028680823011D2960016888
:1019B0000020102200960190E2E7252102A8FFF7FF
:1019C000CBFE641C67E7002800DC67E7049800286A
:1019D00004D0024607A91898FFF78AFE04990598D3
:1019E000401805905AE70FB408B504A900916A465B
:1019F0000399FFF739FF01B008BC04B01847FFB5E1
:101A0000002481B01D461646002902D00198FFF738
:101A1000EAFF01277F0713E0600704D1A2B240A1CB
:101A20000198FFF7E0FF325D3FA10198FFF7DBFF70
:101A30006007F84203D13EA10198FFF7D4FF641C70
:101A4000AC42E9DB600703D039A10198FFF7CBFF77
:101A500008E7FFB583B00E4670420D9F0C9C0090C6
:101A6000002900DB0846012502E003F091FB6D1C14
:101A700005998842F9DA0698A84200D90546002C53
:101A800004D0002E01DB780700D5641EB80702D50C
:101A90000698002810D0F8070ED1002C0CD0A542D3
:101AA0000AD22021641E0398FFF756FE0398C068EF
:101AB0000028F2DA07B0F0BD0398C0680028F9DB0F
:101AC000002E02DA2D21009E02E0780707D52B2197
:101AD0000398FFF741FE0398C0680028EADBB807C7
:101AE000800F022810D1069800280DD1002C0BD0B1
:101AF000A54209D23021641E0398FFF72DFE0398FA
:101B0000C0680028F2DAD5E7019700943146069BB9
:101B1000059A0398FFF73FFECCE7000068590010D4
:101B20005B253034785D20002530327820000000BD
:101B30000D0A00000448804704480047FEE7FEE71E
:101B4000FEE7FEE7FEE7FEE7511B0010C1000010B4
:101B500002490148086070470024F400AC300020BE
:101B6000F1B5FE4880470746FD4880470646FB4CD6
:101B70000120183CA047FA4D00200C35A847F94930
:101B8000009888473046A8473846A047F8BDF0B5CA
:101B9000F54DF648E96885B00818044603F046FBA1
:101BA0002146401C03F04CFB0024EF480125C66889
:101BB000EE480C3831180391487C097C0002084338
:101BC000A540284202903BD00B2060438119E74892
:101BD000009109300818019003F028FB0746E348FC
:101BE000301803F023FB87422AD10F210098890186
:101BF0004018007D00280CD0DC4A00990D3A8A1864
:101C0000517D127D090211437818019903F018FBE8
:101C100005E002980399A8430874000A4874D34861
:101C200000990D30081803F001FB002808D0022DA0
:101C300019D0042D1BD0082D23D0102D23D0804780
:101C4000641CE4B20A2CB0D3C748C168C7480C383A
:101C50000918487C097C00020843800501D1C4486A
:101C6000804705B0F0BDC3A102E0222015E0C8A165
:101C70000020FFF7B8FECD49012088470028F4D1A5
:101C8000DEE7CBA1F4E7D0A10020FFF7ACFEC74907
:101C9000012088470028D3D03B20FFF761FFCFE722
:101CA000F0B5B14D04461126E868B6018019C17837
:101CB0008078002785B08142D3D20CE0F900091862
:101CC000AA48062286300818A11C03F099FA0028B9
:101CD00006D07F1CFFB2E8688119C978B942EDD8F7
:101CE000E8688119C978B9420DD8C90008189F4918
:101CF000082284314018214603F05EFAE868811911
:101D0000C878401CC870E8688119C8790128A8D132
:101D10002078002819D0062817D00428A1D1B3A113
:101D20000020FFF760FEE8688019017C012998D146
:101D3000417C0122BA4011434174B04900208847D8
:101D4000E9680020891908748BE7087C002888D18D
:101D5000AA4AA11C60789E329047A8490120884772
:101D6000EA680120911908742869BF2301780909DC
:101D70000901C91C0170927A1940D207520E114311
:101D8000017062784906490ED20111430170417811
:101D90000622890989010C314170A11C083003F029
:101DA0000BFA2869E9680622801C0B3103F004FA5B
:101DB0002869934A41788906890E891C90472079C1
:101DC000E379A27961796F460FC7E378A2788DA194
:101DD0000020FFF708FEE8686F46417B047CC37B68
:101DE000827B1EC7037BC27A93A10020FFF7FBFD15
:101DF00037E7F0B50F46017804460807000F8BB0AF
:101E0000052849D0032847D0012845D0564D112632
:101E1000EA68B60192191279012A3DD0090705D066
:101E2000022803D0062801D0042835D1694608705D
:101E3000207806224006C00F487000A8A11C02307E
:101E400003F0BAF9607869468006800E801FC0B240
:101E500008721F2801D91F20087208460A7A2146F5
:101E60000831093003F0A8F908A8012107722922D6
:101E700049047C4C6B460020A0476846FFF710FFE2
:101E8000E8688019C1788278914205D301210171F7
:101E900075A10020FFF7A7FD0BB0F0BDFEB5002136
:101EA00068460171554F017001726837714E2E4CB2
:101EB000B847207102AB6A4601A9606902F01CFABA
:101EC000002836D00820B047002803D00220B047B1
:101ED00000280FD068460078012811D0E0686569B5
:101EE000407A012826D00228E2D121792846FFF73E
:101EF00080FFDDE7012069460870087A002815D0C8
:101F00002521E06849014118497B002908D017497B
:101F1000D4314118487B097B000208435649884761
:101F200068460179554A60699047C1E73D20FFF74F
:101F300017FEFEBD28780007000F0528B8D15049CC
:101F4000A81C8847287887224006C10FE0681154F2
:101F50000622A91C883003F02FF993E0BF6500002A
:101F6000776A0000CF160000B0300020CE030000DA
:101F7000011200006C69623A204C4C205465726D6D
:101F8000696E6174652054696D656F75740D0A0022
:101F90006C69623A204C4C2056657273696F6E20F2
:101FA00054696D656F75740D0A000000F50A000034
:101FB0006C69623A204C4C20456E632054696D6513
:101FC0006F75740D0A0000006C69623A204C326330
:101FD000617020436F6E6E557064617465526571F7
:101FE0002054696D656F75740D0A00003C3C3C3CE3
:101FF0005343414E5F5253500D0A0000E15600001A
:10200000D96000003E3E3E3E5343414E5F52455133
:102010002C206164647228253032782D2530327886
:102020002D253032782D253032782D253032782DFF
:1020300025303278290D0A003E3E3E3E61646472CE
:1020400028253032782D253032782D253032782DE4
:10205000253032782D253032782D25303278290DF3
:102060000A000000A13E00007363616E53746F703C
:10207000320D0A00791900002B620000211F0000B8
:10208000375800003721206903F0AFF810E7F0B5AA
:10209000FF4999B00420884700280DD0FC4904204E
:1020A0001A318847FB491F208847FB488047162084
:1020B000FFF756FD19B0F0BDF8488047002810D052
:1020C000F74DEC68A1790807F4D5E079C2071CD078
:1020D000F449204698308847E868C17949084900A2
:1020E0001FE0EE4EEC4FEC4DB2361C376C4610350F
:1020F00007E06846B0470128DCD168460178601CDB
:10210000B847A8470028F4D0D4E782070BD5E54AA2
:1021100020461C328E30811C9047E868FD22C17930
:1021200023E0C171C6E7420708D5DE492046603189
:10213000A8308847E868FB22C17916E00207F72635
:10214000002A09DAD74A21464232A07A0B31904759
:10215000E868C1793140E4E7C00608D5D14968464E
:102160007C318847E868EF22C1791140D9E72046E1
:102170003140FF30A1712130017D0026002910D0AF
:1021800006752146072287310CA803F015F8214671
:102190000DA82A228E31033003F00EF8C2490CA894
:1021A000884701206946087048708E70E96800A869
:1021B0002A2203308E3102F0FFFF2D220821BB4C72
:1021C0006B460020A04775E7B5490128496A0FD042
:1021D000022811D0042812D0082813D0102814D0B7
:1021E000202815D0402816D0802818D0012070470C
:1021F0008878C007C00F7047887880070DE088781E
:1022000040070AE08878000707E08878C00604E005
:102210008878800601E088784006C00F704788788B
:10222000C009704710B5017801291FD1401C02F088
:10223000FDFF9B4A10283AD00DDC012817D0022858
:102240001DD0042823D0082810D1FFF7BDFF002897
:102250000CD1974809E0202839D0402806D1FFF753
:10226000B3FF002802D192485430804710BD0120AE
:10227000FFF7AAFF0028F9D1FFF709FF10BD0220E0
:10228000FFF7A2FF0028F9D1FFF708FE10BD0420D8
:10229000FFF79AFF0028F9D1D068407A012803D0CF
:1022A0000228F3D18348E0E78248AE38DDE710200A
:1022B000FFF78AFF0028E9D1506A2030407D4007AF
:1022C00001D53E2000E00820FFF74AFC10BD202089
:1022D000FFF77AFF0028F9D175484830C5E770B597
:1022E000102508266E4C002821D0606A817E31437B
:1022F0008176014660310A7E637852095201DB061D
:10230000DB0E1A430A762030427B067B1302E2681A
:1023100033432332547C167C22023243934214D03E
:102320000273120A4273C87D2843C8750DE001F09C
:10233000D0FF606A0022014620310A734A73603080
:10234000C17D2943C1755C480677012070BD5448A2
:10235000C0682330417C027C080210430BD05749EF
:1023600048780A7800021043032210430870000ADC
:1023700048700120B3E7704730B4514CA44630BCDC
:102380006047F8B54D48407A000663D54448C668B2
:1023900030462330417C007C0F024849074348788F
:1023A000097804020C43002F01D1600752D5434D38
:1023B000A87B697B00026D1C08434BD0002F49D0DD
:1023C00068792979000208432ED12136707C317C4E
:1023D0000002084303F044F900223A4B03F044F8AA
:1023E00003F04CF980B27843642102F0D1FE40043E
:1023F000010C2971080A68710A204143707D327D01
:1024000000021043814206D30A21401E02F0C0FEA2
:102410002871000A6871687929790002084303D19C
:1024200001202871002068712448A10709D50221E4
:102430008C4301210C430470210A41700020FFF7F6
:102440004EFF68792A79010211431F4B0022402078
:10245000FFF792FFF8BD1CB518494A7A002A5DD0F3
:102460004A780B7812021A43D30657D4437804787B
:1024700018022043012851D1C878401E0006000EE2
:10248000C8704CD08B780846017AC27909021DE0E9
:10249000F50A0000AD120000BD600000054E00000E
:1024A000B030002027260000DF470000A13E0000DA
:1024B000791600002715000020000240F33E00209E
:1024C000AB4400000000F43F4F2300101143027B97
:1024D000C47A12022243C01C012B28D0521A027265
:1024E000120A42721206037A120C1A43531A6946F0
:1024F0000B804A80FE498A7B497B12020A43694667
:102500008A80417B027B080210436946C880F9A19A
:102510000020FFF768FAFF49684688471CBD887AA3
:10252000C870402002430A70100A48701CBD52183F
:10253000D5E7F94A1047F84A2032104738B5002449
:1025400069460C7021467F20FFF7F5FF00213B20F4
:10255000FFF7F1FF29213B20FFF7EDFF69463B2004
:10256000FFF7E7FF68460078800701D5012038BDF6
:10257000641CA4B2FF2CF1D9002038BD10B5E74887
:102580008047012010BD10B5E549E64A8870002853
:1025900007D1C8688078022803D000209047012026
:1025A00010BD0120FAE710B5DD4C0128E168887004
:1025B00004D0002836D002284BD05EE0E06A014605
:1025C00020310A78520852000A700A78FD231A4016
:1025D0000A700178890989011C31017041788909E3
:1025E00089011C31417000217F20FFF7A4FF0321E6
:1025F0002120FFF7A0FF1F210320FFF79CFF7D2074
:10260000C549C0008031884702217F20FFF793FF32
:1026100001210020FFF78FFF00217F20FFF78BFFB4
:102620000F2127E000217F20FFF785FF00210420F4
:10263000FFF781FF02217F20FFF77DFF0021084681
:10264000FFF779FF00217F20FFF775FF00210320AE
:1026500011E002217F20FFF76EFF03210020FFF72A
:102660006AFF00217F20FFF766FF00210320FFF7AC
:1026700062FF00210420FFF75EFFA078FFF783FFD1
:10268000012010BD10B5FFF78EFF012010BDA3483B
:1026900010B50C308047A248806A017ADF221140D1
:1026A0000172012010BDFEB59E48183080479C4C39
:1026B0000190A06A817A007ACF07FF0F002672B6D8
:1026C000800702D00126FFF7E2FF9548806A817AF1
:1026D0004908490081729349012088470220FFF789
:1026E00062FF8D49642066318847002469460C707A
:1026F000254601217F20FFF71EFF00210A20FFF75A
:102700001AFF22210A20FFF716FF69460A20FFF769
:1027100010FF684600784007EFD469460A20FFF7AB
:1027200008FF68460078400705D56846007800072E
:1027300006D4012504E0641C7B48A4B28442ECD397
:1027400075496420663188470020FFF72CFF7549E2
:10275000019888477248806A817A4908490039435C
:102760008172002E01D06D48804762B6002D01D0E5
:102770000120FEBD0020FEBD10B511215C4802F015
:1027800034FD10BD70B50446401C02F04FFD022818
:1027900018D0042819D001214904884244D1254683
:1027A0002035687B092301070209090F0020072A49
:1027B00019D0032A1DD0022A22D0012A26D0002AAD
:1027C0002AD02FE0FFF7D8FF37E05548FF21C06837
:1027D000012235310A548078002801D1FFF763FFC8
:1027E000FFF7ACFE29E0581A062148434121C943AE
:1027F00004E0581A062148433521C943081A10E05D
:10280000581A062148432321C943F7E7581A0621DD
:1028100048431721C943F1E7581A06214843801D50
:10282000404240B2687308E040281DD00121C9032E
:10283000884202D1601DFFF70EFE2D4948780978C5
:1028400000020843800607D5601C02F0EFFC00057B
:10285000000F01D0FFF795FD3148343002F0E6FC5F
:1028600001462046884770BD2D48303002F0DEFC1E
:102870004006E2D570BDF0B5294C0746E0688DB042
:10288000FF302130407C0D46002802D0002D02D1BF
:1028900000200DB0F0BDE06824A1FF302130C37CE2
:1028A000827C0020FFF79FF872B6A068183002F013
:1028B000BDFCE1683222FF312131897C224B51433A
:1028C00040186A463221984762B6002F04D0E0686B
:1028D000FF302130807C3870E6680A21FF362136CF
:1028E000B07C401C02F03EFCB174E078401C2DE04E
:1028F000F33E00204C69623A6D6173746572207218
:10290000656A6563742020434F4E4E20504152410A
:102910004D0D0A0033420000C5610000074700006A
:10292000B0300020A7650000FFFF00004765744E2F
:10293000657874426F6E644465766963653A25789C
:102940002025780D0A00000059530000C0B2E07045
:102950000A2804D9FDA10020FFF745F898E768464A
:102960000078012897D100A907222846013102F0FA
:1029700023FC2A22E81D02A902F01EFC012088E7A0
:10298000F0B50446F4498FB020208847F34D042663
:10299000E96828690F4686700822C01CC931BD3716
:1029A00002F00AFC2869042239460B3002F004FCCC
:1029B0000D21EB4A03209047E868214608220A319E
:1029C000C13002F0F9FBE868214604221231B93027
:1029D00002F0F2FB207AE34F002802D1607A00284F
:1029E0003DD00020E870E8688030C17B807B019199
:1029F0000090637A227ADCA10020FEF7F4FF08231E
:102A00002246DEA10020FEF7FAFFEA680823DDA1D6
:102A100000209032FEF7F3FFE868227A014680300A
:102A2000837B9A420AD1627AC07B824206D1082215
:102A30002046903102F0E4FB00282AD002A90020B1
:102A4000FFF719FF012839D0D0A10020FEF7CBFFF6
:102A500006220021D44B012098470FB0F0BDE86852
:102A600002228179114302468171C132FF30114641
:102A70001030B847EA681023CCA10020C132FEF71D
:102A8000BEFFEA680823CAA10020B932FEF7B7FFEB
:102A900010E0E8688179024631438171C132114604
:102AA0009830B847E86880308079012802D1AA4977
:102AB00002208847BC48A0308047CEE7E96807225B
:102AC00002A8873102F09CFB00288CD1E86803A99A
:102AD0002A2203318E3002F06FFB84E7B5490847A4
:102AE0001CB5B54808210170002141700146087BE2
:102AF000CA7A0002C91C10432FD04A790B791202FE
:102B00001A43821A92B26B461A8058800623062A0C
:102B100001D26A461380062801D268464380487B6A
:102B2000097B000208436946C880A348817B427B39
:102B300008021043694688808848C0682330417C79
:102B4000027C0802104302D00020FFF7C8FB9B491B
:102B5000684688479749402088471CBD9649487871
:102B60000A7800021043C2050CD5FF2201329043BF
:102B70000870000A48700879401E0006000E0871AF
:102B800009D0ADE7202210431022904304221043C5
:102B90000870000A48707047F0B5874C05466078A9
:102BA00021780002084385B000077DD5844880471E
:102BB00061782278090211430822914321700A0AA0
:102BC0006270637A064620461A066ED5AA796F7936
:102BD00012026C1C3A43614FED1C002A76D0102281
:102BE000114301700A0A427088065ED46079217927
:102BF0000002084331D002F033FD01910090687863
:102C000029780002084302F02BFD00226D4B02F0F0
:102C10002BFC019B009A02F027FC05460191F86805
:102C20002130417C027C0802104302F019FD002291
:102C3000644B02F019FC07460091607A217A000289
:102C40000843801B02F0F8FC3A46009B02F00CFCA3
:102C50002A46019B02F056FB24E06878297800029E
:102C6000084302F0E1FC0546F8682130417C027C13
:102C70000802104302F0D8FC294602F0EAFA02F0FA
:102C80001BFD00224F4B02F0EFFB07460D46607A1A
:102C9000217A00020843801B02F0CEFC3A462B4604
:102CA00002F0E2FB002202E0BEE091E00EE0464BC3
:102CB00002F042FC02F0E2FC0104090C00D1012107
:102CC000424B00228020FFF757FBA4E09A067FD5F5
:102CD0008278012A7CD18A067AD4FF2236480132D2
:102CE00011430170090A4170687829780502324859
:102CF0000D43017BC27A08021043854268D92846F9
:102D000002F092FC0090F8682130417C007C0F02B8
:102D10000743384602F088FC009902F09AFA02F064
:102D2000CBFC0022274B02F09FFB01910090607AC0
:102D3000217A000208430490801B02F07DFC019B75
:102D4000009A02F091FB00221F4B42E06572726F05
:102D500072330D0A00000000050B0000B0300020A7
:102D60004D11000019220000656469763A2578202B
:102D700025782025782025780D0A000052616E64A0
:102D80000000000072616E64000000004552525F56
:102D900050494E5F4F525F4B45595F4D4953534920
:102DA0004E470D0A00000000D9190000736B640043
:102DB00069760000B3440000F33E00203342000077
:102DC000BF5500000000F43F000059405D2B00108B
:102DD00021E002F0B1FB02F051FC0404240C00D10C
:102DE00001240197009502943246FD490020049B7E
:102DF000FEF7F9FDFB4B002221468020FFF7BCFACD
:102E0000F9484178027809021143FF220132114347
:102E10000170090A417003206946888102229103EA
:102E2000F24C03AB0020A04705B0F0BDF8B5044656
:102E3000007800280ED1A178627808021043651D41
:102E4000EB4E002807D001282FD0032802D1201DE7
:102E5000FFF796FDF8BD01F03CFAE649201D8847D2
:102E6000002816D1687A297A0202706A0A43203053
:102E70004178037809021943511A0091417800788A
:102E80000B020343DCA10020FEF7ADFD2820FEF776
:102E900067FE201DFFF780FE0121F368062209046A
:102EA0000020D24C3133A047F8BD01F012FADB49C3
:102EB000201D88470028F7D1687929790202706AB5
:102EC0000A4320304178037809021943511A0091CE
:102ED000417800780B020343D1A10020FEF783FD67
:102EE0002820FEF73DFEF8BD10B50078012801D17D
:102EF000FEF74DFE10BD70B5D24886B08047012167
:102F00007F20FFF718FB69465020FFF712FB684649
:102F10000078042805D0CCA10020FEF764FDD1483C
:102F20008047FFF7C0FBFFF709FB01246846448098
:102F30000480CD480190CD496846884768460470B2
:102F4000447000244480CA48A94D0190C94BE868E8
:102F500008226946C01802F02FF90121C64E402010
:102F6000B04701218020B04701212020B0470B212C
:102F70006846018041808480C480048144818481CA
:102F8000C481BE48B94904906846A2398847A868F8
:102F90000A3002F04BF9944AB94B573A57219847F7
:102FA000012006B070BDA74810B50A308047012047
:102FB00010BDA44910B528318847012010BDA14992
:102FC00010B55E318847012010BD9E4910B56A31A9
:102FD0008847012010BD9B4910B5783188470120F2
:102FE00010BD984910B588318847012010BD10B533
:102FF0007E4C383CA047012010BDF8B57C4CA1495F
:10300000E0683730884720693B230178BF250A09EB
:10301000E16812015B5C1B071B0F1A430270120769
:10302000120F012A7CD00B4640335A781B781202CB
:103030001A430B4642331A70120A5A7002788B7A7E
:103040002A409B011A435206520E027066235B5CB3
:1030500042789B1D92099B0692019B0E1A43427077
:103060000622801C0B3102F0A7F8E1686620425C62
:10307000002A04D020696731083002F09DF8E0682A
:1030800000212030417720697F4A41788906890EE6
:10309000891C9047206901780A091201121D0270EB
:1030A000E1682A408B7ADB075B0E1A4302704623E5
:1030B0005B5C42789B1D92099B0692019B0E1A4312
:1030C00042700622801C0B3102F076F8E16846203F
:1030D000425C002A04D020694731083002F06CF8C5
:1030E0002069694A41782C328906890E891C9047EB
:1030F000E5683B20405D012601283FD000285ED0D6
:1031000002285CD006285AD060A10020FEF76BFC94
:103110000023364C1A4601211846A047F8BDFFE7A8
:103120000A464032137953718B7A0278DB072A40C2
:103130005B0E1A43027087235B5C5206520EDB0162
:103140001A43027042780B31920992010C3242709C
:103150000622801C02F030F82069E168062208305F
:10316000883102F029F8E16803223D204254454AA3
:103170008720405C323A8831904784E728464030C7
:1031800042792146002A16D02827062400970D46AA
:103190004279234641A10020FEF725FC686A817E22
:1031A000FD22114081760675E86821462030437F74
:1031B000027F3846BDE0012746713C46E6E72C46D3
:1031C00042346078217802020A437DD019208001C0
:1031D00022354243697F2B7F01200902194374E0A5
:1031E000785900105D2B0010F33E0020A13E000036
:1031F000B03000205D5B00006C69623A636F20694B
:103200006E73742025303478202C202530347820BB
:103210002C2025303478200D0A000000475F000084
:103220006C69623A636820696E7374202530347863
:10323000202C2025303478202C2025303478200D87
:103240000A000000793D00006C69623A2052455343
:1032500045545F545950455F57525F52465F45523F
:10326000520D0A00F7460000E92E00102F4400001E
:1032700025220010CE020000615500002D2E001006
:1032800059530000B1570000D96000006C69623AE0
:103290002053746F7020300D0A0000006C69623A90
:1032A000204144565F44495228746F3D253034789C
:1032B0002C206974763D253034782C20636E743D63
:1032C0002564290D0A0000000DE08F04BF0C06D014
:1032D0003946104601F046FF401C7F2809D8C5B288
:1032E0002670300A0CE0300A2670012560702F46E7
:1032F00007E07F2529467E3001F034FF2070000A68
:10330000607000956078217802020A433B46F0A184
:103310000020FEF768FBF948406A817E02221143D3
:1033200081760675F5483946C0682030437F027FB4
:103330002846F34CA047F2483E308047EEE610B5F1
:10334000FFF75BFE012010BD10B5EEA10020FEF7D7
:103350004AFBF04903200870EF4964208847EF4892
:103360008047012010BD10B5E6A10020FEF73BFB11
:1033700072B60021E14A506A4175037C01210B437A
:103380000374D0684522115442300170002141700D
:1033900062B6012010BD10B5E1498847012010BD7B
:1033A000DF4810B55C308047012010BD10B5DD4806
:1033B0008047012010BDDB4910B508318847012046
:1033C00010BDD84910B516318847012010BDD54928
:1033D00010B578318847012010BDC84948700120D8
:1033E0007047D04910B586318847012010BDCD4ABD
:1033F00010B58E329047012010BD7CB5054601F016
:1034000015FFBE490446303101F01AFF281D01F0B6
:103410000DFFBA49343101F013FF40208443C24804
:10342000C0490190009468469631884701207CBDD0
:1034300010B5BE498847012010BDBC4A10B50832FE
:103440009047012010BD10B5B9488047022801D926
:10345000002010BD012010BDF8B50E460746B54945
:103460001C4615460120884700280AD0B0488047EE
:10347000022807D92346AD4C2A463146384618342F
:10348000A0474BE6002049E6AB49084710B5044683
:10349000A84901208847002803D0A74920460831C1
:1034A000884710BD70B50546A24A0C4601209047DA
:1034B000002804D0A04A214628462232904770BDF9
:1034C000FFB50F4681B09B491D46164601200A9C58
:1034D0008847002807D00094974C2B46324639463F
:1034E00044340198A0479FE4F8B50E460746914939
:1034F0001C46154601208847002806D023468E4CDE
:103500002A46314638467C34A04707E610B50446C3
:10351000884901208847002803D087492046AC31DC
:10352000884710BD70B50546824A0C460120904779
:10353000002804D0804A21462846C632904770BDF4
:1035400070B505467B4A0C4601209047002804D000
:10355000794A21462846E832904770BDF8B50E46B4
:10356000074674491C46154601208847002805D0A7
:103570002346724C2A4631463846A047CEE570B500
:103580000D4606466B49144601208847002805D0A1
:103590006A4B2246294630463033984770BD70B595
:1035A0000D4606466349144601208847002805D089
:1035B000624B2246294630465C33984770BDF8B5C9
:1035C0000E4607465B491C461546012088470028E1
:1035D00006D02346594C2A46314638468834A047FF
:1035E0009CE510B50446534901208847002803D0C4
:1035F00052492046B831884710BD10B54D490120C9
:103600008847002802D04D48CC30804710BD70B5A7
:103610003A4D0446082804D0E868407808280DD0C0
:1036200014E000217F20FEF786FF01214020FEF7F5
:1036300082FFA86A0178C908C9000EE000217F2036
:10364000FEF779FF00214020FEF775FFA86A017898
:103650006207C908C900520F11430170E86844703D
:10366000012070BDD3E710B504463548804720706F
:10367000012010BD10B504463148801D80472070E0
:10368000012010BD2E4910B51C318847012010BD06
:103690002B4810B572308047012010BD29480047E3
:1036A0001D491A3908471C49084708B52649684684
:1036B00088476846C0788007C00F08BD08B5224912
:1036C000684688476846C078C00900D0012008BD18
:1036D0006C69623A204144565F494E4428746F3DFC
:1036E000253034782C206974763D253034782C20B0
:1036F000636E743D2564290D0A000000B03000207F
:103700005F5600006C69623A2053746F70416476B2
:103710000D0A00000000024045620000074700005B
:10372000014100001D420000852700102D430000CC
:103730002B4E0000F50A0000B73A0000BB3B00002A
:103740009F440000FB5F00004D65000010B5FEF7D0
:10375000F0FE10BD10B5FEF7EEFE10BDFE48406A4B
:10376000C07B052805D0062803D00F2801D00020F3
:1037700070470120704710B5FFF7F0FF002801D116
:10378000F6488047012010BD10B5F3490122486A70
:103790004275437CDB09DB019B1C4374931E8374DD
:1037A0001B0AC374896ACB7AEF242340CB724B7B0C
:1037B00093434B738B7A13438B72817E022319439D
:1037C0008176017C11430174E54905208847E5486D
:1037D0008047012010BDE34810B51230804701201A
:1037E00010BD10B5E0498847012010BDDE4910B575
:1037F00018318847012010BDDA4910B55831884783
:10380000012010BDD749AC310847D64910B5FA316F
:103810008847012010BD10B5D4488047012010BD55
:10382000D24810B518308047012010BDCF4BA233CD
:103830001847CE4BD8331847F8B50746C648002678
:1038400080680D463446283001F0F0FC2903C91980
:1038500040180121C904884211D900205EE472B6E3
:10386000BD488068283001F0E1FC2103C9194018E7
:10387000BF4A01219047064662B6641CE4B2AC42DE
:10388000EDD330464AE470B50446B3481646806826
:103890000D46283001F0CAFC034661194018012189
:1038A000C90488420AD8002B08D072B61819B04B48
:1038B00032462946EA3B984762B670BD002070BD8B
:1038C00070B50446A448164680680D46283001F0BD
:1038D000ADFC0346611940180121C90488420AD889
:1038E000002B08D072B61819A14B32462946823BEC
:1038F000984762B670BD002070BDF8B59D480024A1
:1039000000789B4E944D00281BD001283AD040E00F
:10391000143001F08BFC2703C219012396A100206B
:10392000FEF761F872B6A868143001F07FFCC01988
:103930000121B04762B696A10020FEF754F8641C3E
:10394000E4B2A868C17B827B09021143A142DFD89F
:103950001FE0103001F06AFC2703C219012386A181
:103960000020FEF740F872B6A868103001F05EFC47
:10397000C0190121B04762B685A10020FEF733F8D7
:10398000641CE4B2A868C17B827B09021143A14296
:10399000DFD80120D2E4F8B504460E46000B6E4D88
:1039A0008219A868C17B837B090219438A4201D925
:1039B0000020C3E46F496E4F0978002902D0012925
:1039C0000DD01EE0143001F031FC0219334675A110
:1039D0000020FEF708F872B6A86814300BE010302B
:1039E00001F024FC0219334674A10020FDF7FBFF0F
:1039F00072B6A868103001F019FC00193146B847BA
:103A000062B601209AE4F8B504465A480F46017898
:103A10005148574D8068823D1646002902D0012941
:103A200003D00BE072B6143001E072B6103001F032
:103A3000FDFB001932463946A84762B601207DE4F5
:103A400030B4454B9C68E37BA47B1B0223431B03E0
:103A5000834202D230BC0020704730BCC9B2D2E7EA
:103A600030B45C4CA44630BC6047F3B53A4889B0EA
:103A700080680024283001F0D9FB074609984609E0
:103A8000002511E072B66801394BC01920216A4641
:103A9000EA3B984762B6002069460A5C401C12194E
:103AA00094B22028F9D36D1CB542EBD30998C60611
:103AB000F60E72B6314668012D4BC0196A46EA3BD4
:103AC000984762B60020694603E00A5C121994B276
:103AD000401CB042F9D30A98844202D101200BB0B5
:103AE000F0BD0020FBE7F8B51E488A388047214C1E
:103AF0005734607A002873D00006042500280FDAB6
:103B00006078217800020843400709D5FEF739FCA8
:103B10006078217800020843A8432070000A607092
:103B200060782178000208432B4F2C4E41060CD5BB
:103B3000402188432070000A607002206946088096
:103B400002466B4639460020B04760782178000273
:103B50000843C10744D044E0B0300020F1440000E5
:103B600045620000E5460000CB6500000348000008
:103B7000435400009C3E00204C69623A436F6465E8
:103B800045726173653A25782025780D0A0000009A
:103B90004C69623A436F6465457261736520456E96
:103BA000640D0A004C69623A436F64654572617343
:103BB00065313A25782025780D0A00004C69623A73
:103BC000436F64654572617365303A2578202578C6
:103BD0000D0A00007B4A000000800000A13E0000AA
:103BE00011E0400840002070010A6170800702D592
:103BF0006846058002E005206946088002226B467F
:103C000039460020B0473CE4FE48004738B5FE4C3A
:103C10002078002804D1FD4968468847012020709B
:103C2000012038BD70B50278002A49D0F8494A729F
:103C300042788A72002A01D0042A01D904228A72A9
:103C4000C278847813022343F14A1C0AD372147396
:103C50004479057924022C4315466C73240AAC730D
:103C6000C479857920022843D073000A1074E6488D
:103C70000825C068D21C2130447C007C2402044307
:103C80000120A342887008D91B1B07E01071000AAD
:103C900001E01571280A507107E0E31A8C7AA342FB
:103CA0000ADA1071000A50718B72887AC870087134
:103CB000FEF716FF012070BDE400A342E9DAE5E754
:103CC000002070BDD049096A0870020A4A70020CCF
:103CD0008A70000EC870487A0222104348727047FA
:103CE00038B5044600200090C849684688470099C6
:103CF000F8208143E006000E08430090FFF7E2FF42
:103D000038BD08B500200090C04968468847009833
:103D10000006C00E0090DAE4BC4872300047BB4990
:103D20005A310847BB490847BA491A310847BA48C7
:103D30000047B9490C310847F8B500260B46044640
:103D40000125304631462D03675C491CBE19A94246
:103D5000FAD30021675C491C7840A942FAD39E42FD
:103D600022D1904220D1A84EB0680A3001F05EFA0C
:103D7000A74900195722573901F01EFAB0681C30C4
:103D800001F054FAF168001907220A3101F014FA1F
:103D90000121A24A00209047A04B0020224629463C
:103DA000823B984701201BE4002019E470B50126EE
:103DB0000546954C3603994B00203146EA3BA269F3
:103DC0009847974928468847A0681C3001F02EFA8A
:103DD000A16907224018E1680A3101F0EDF90121DB
:103DE0008E4A002090478D4B00203146823BA269CD
:103DF000984770BD10B50446834880680A3001F0CA
:103E000015FA864B1021EA3B22465730984710BDE1
:103E100070B5012605467C4C3603804B00203146A8
:103E2000EA3BA269984701217C4A00209047A0689C
:103E30000A3001F0FBF9A1691022573140182946D8
:103E400001F0BAF9754B00203146823BA2699847D0
:103E500070BD6D4840690178C943890702D18078F7
:103E6000062801D000207047012070476D4A104796
:103E7000F3B581B006002FD0634FFC69E079A179DA
:103E800005020D43E01C01F0D1F9A17800020843BE
:103E9000044603462A4664A10020FDF7A4FD002D38
:103EA0001CD0002C1AD001215C4B09030020EA3BF6
:103EB000BA699847B8680A3001F0B8F9B96967314A
:103EC000475C5FA13A460020FDF78DFD7F1CFFB2E5
:103ED000032F05D90220FEBD0120FEBD0420FEBD3A
:103EE000B54204D10298844201D10020FEBD0121D7
:103EF0004A4A00209047444CA0680A3001F096F9E5
:103F0000A269464B1146673147540121090300203D
:103F1000823B98470320FEBD3D4801215738027877
:103F2000394809078068002A03D0012A07D00020F9
:103F30007047C27B837B10021843400304E0C27BBE
:103F4000837B10021843000340187047F8B50546FC
:103F50002F480E46573801782B480124A403806867
:103F6000002903D0012903D0002077E4143000E0B9
:103F7000103001F05BF904192B46224634A10020D1
:103F80000096FDF730FD72B66019244A314690471D
:103F900062B663E4F8B505461D480E465738017809
:103FA00019480124A40380681746002903D0012979
:103FB00003D0002052E4143000E0103001F036F954
:103FC00004192B4622462FA100200096FDF70BFD79
:103FD00072B66019114B3A463146EA3B984762B6D1
:103FE0003CE4F8B505460A480E46573801780648BD
:103FF0000124A40380681746002959D0012959D00B
:1040000000202BE4F94B0000B03000204D6500008B
:10401000F33E00202B620000776A0000435400004A
:10402000A13D0000D96000004C69623A746D703A9D
:10403000257820746D70313A25780D0A0000000053
:104040004C69623A636E743A25780D0A00000000EC
:104050004C69623A4572617365436F6465422062E0
:10406000617365416464723A257820616464723AD0
:10407000257820736563746F725F6E756D3A25786D
:104080000D0A00004C69623A52656164436F6465D1
:10409000422062617365416464723A2578206164EC
:1040A00064723A2578206C656E3A25780D0A000016
:1040B000143000E0103001F0B9F804192B46224604
:1040C000B6A100200096FDF78EFC72B66019BE4BBB
:1040D0003A463146984762B65CE410B5030001F0F9
:1040E00027FC09060C16202A343E415B770001218B
:1040F0007F20FEF720FA882104E001217F20FEF7CF
:104100001AFA8A216120FEF716FA81215DE0012169
:104110007F20FEF710FA8A216120FEF70CFA832136
:1041200053E001217F20FEF706FA8A216120FEF785
:1041300002FA872149E001217F20FEF7FCF98A215C
:104140006120FEF7F8F98F213FE001217F20FEF783
:10415000F2F98A216120FEF7EEF99F2135E0012175
:104160007F202BE000217F20FEF7E5F9022130209F
:10417000FEF7E1F901217F20FEF7DDF91F21632021
:10418000FEF7D9F903216D20FEF7D5F98A216120C8
:10419000FEF7D1F9B02118E000217F20FEF7CBF91E
:1041A00002213020FEF7C7F901217F20FEF7C3F975
:1041B0001F216320FEF7BFF907216D20FEF7BBF931
:1041C0008A216120FEF7B7F9BF216520FEF7B3F918
:1041D00010BD10B57D488068283001F027F8012116
:1041E000C904081A10BD7A4800787047F8B505462A
:1041F000764E7748B26900781446002801D0002036
:104200001DE4280502D02805000D2D1A72B60121E3
:104210006D4F09030020683FB84762B60120C00413
:104220002146401B283101F00BF80546204610308E
:1042300000F0FCFF0090281A410800980818214659
:10424000143100F0FDFF01460098081A0001000C2F
:10425000A073000AE07372B601215B4A002082322B
:10426000904762B672B601210903574B0020B2692C
:10427000984731210020B268B84762B60120C2E4F5
:104280005248524B00791B7902091B0709201B0F6A
:10429000C01A062300215843072A08D0032A09D050
:1042A000022A0BD0012A0CD0002A0DD00FE04121A8
:1042B000C94301E03521C943081A07E02321C94356
:1042C000FAE71721C943F7E7801D404241B2C8B25F
:1042D000704710B500F055F8002804D000F051F8F0
:1042E0000128FBD010BD00F04CF80028FBD000F0F6
:1042F00048F80128FBD010BDF0B5344C0025646AA5
:10430000E678360701D50020F0BD00BF6D1CEDB288
:10431000642DFAD3254640356E7CB607FCD40025C3
:104320002646C036377947556D1CEDB2022DF9D3BC
:1043300046780125F709002F08D0F606F60E0E7014
:10434000157042785206D20F1A7004E0B3069B0E25
:104350000B70002313701D4B0A785B6A801CC033FE
:10436000272A0CD20022C03403E026798654521C3E
:10437000D2B20E789642F8D85D720120F0BD5D721F
:10438000C1E71248416A0A466032907C927C6031F3
:1043900001E0887C8A7C9042FBD170474C69623A8C
:1043A0005772697465436F64654220626173654149
:1043B0006464723A257820616464723A2578206CCE
:1043C000656E3A25780D0A00C1530000B030002018
:1043D0009C3E002010B5044600F05DFCB54804602A
:1043E000204600F076FD10BD10B500F054FC10BD65
:1043F000F8B50A460446B049104600F0B3FE0D4633
:1044000006463C21284600F0ADFE2170E12109015D
:10441000284600F0A7FE054608463C2100F0A2FE13
:104420006070A5707D200001B5B2E0800FE0002F24
:1044300026D06421304600F095FE002901D0B00757
:104440001ED0FF206E30281A761C85B2E680E088E8
:10445000FF210646913100F085FE0F0013D0642144
:10446000304600F07FFE002901D0B0070BD0FF20BE
:104470006E30A842DBD90020FF27207191371DE064
:10448000FF206F30DFE7FF206F30F2E7E08839462A
:10449000064600F067FE002927D06421304600F070
:1044A00061FE002901D0B0071FD00020217900F063
:1044B000F1F8281A85B22079401C2071E08839462D
:1044C000064600F04FFE002911D06421304600F06E
:1044D00049FE002901D0B00709D00020217900F061
:1044E000D9F8A842D2D9E570F8BD0120DEE7012055
:1044F000F4E7F8B5044680783C2148436178E578D4
:1045000040183C214843217846180427E75716E015
:10451000E088FF219131009000F024FE002916D0A0
:104520006421009800F01EFE002902D00098800748
:104530000DD00020F9B200F0ADF8401985B27F1E11
:104540007FB2002FE4DA7D27E4883F0114E00120E8
:10455000F0E7FF219131204600F004FE002913D03E
:104560006421204600F0FEFD002901D0A0070BD0F9
:10457000FF206E30401985B2641EA4B2BC42E8D25E
:104580004D484543A819F8BDFF206F30F2E7FEB54E
:10459000054600F080FB01466846FFF729FF6846A4
:1045A000C088642100F0DEFDA97068460079401CD7
:1045B000E8706846C078401C287168468078687149
:1045C00068464078A87168460078E8716846C07807
:1045D000401C029068460479002C19D0012C17D099
:1045E000C0886421641C00F0BDFD0E46C7B21A20CD
:1045F000641C60430A2100F0B5FDB1088919BA08AE
:1046000089187A00891A411802980818401E08E093
:10461000C0886421401E0D3400F0BAFDCEB2E5E73B
:10462000C01D00B20028FBDB072100F0B1FD00290E
:1046300000D1072129722846FEBD1CB542780178B9
:10464000120289180904090C6A46D18002D17D2121
:104650000901D1808178C01C1171002901D0491E47
:1046600011710178401CD170002901D0491ED17010
:10467000027869468A7042784A7080780870684685
:10468000FFF737FFFFF7A6FE1CBD0A480168491C6B
:104690000160704702461F20012907D0062901D971
:1046A000491EC9B2C90700D01E2070471C32D0B2C3
:1046B00070470000A83000208051010070B51E46F0
:1046C000002913D0FE4DAC696B699C420ED205C423
:1046D00008467D21490148437D21083C00F042FD08
:1046E000A0602673002060611834AC6170BD884200
:1046F00000D30846704710B5F14C60682030017C4B
:10470000C9070FD0017C490849000174082000F056
:104710002CFA60682030417C012211434174322020
:10472000FFF700FB10BD70B5E54C064660680D460E
:104730002030017CC90706D0017C4908490001747A
:104740003220FFF7EFFA626820321675300A507592
:10475000300C9075300ED075107C10210843107409
:10476000907C400840009074D6480560507C01253C
:1047700028435074082000F0EFF960682030017C75
:104780002943017470BDCEE770B5CD4D182128784E
:10479000AE68484369690C1A2869801928610020AD
:1047A000C043A86018E0207B002814D02069B042E4
:1047B00004D16068002807D0804705E0801B206195
:1047C00002D0A168884201D9A0682061A968884206
:1047D00000D90846A860183468698442E3D3A86801
:1047E000002805D0411C03D0B749FFF7CCFF70BDAE
:1047F000FFF781FF70BDB249CA688243CA60704743
:10480000AF484068014644310A7810464A7812029F
:1048100010438A78C9781204104309060843704788
:10482000F8B50546FFF7ECFFA54A91680E1A00207F
:10483000C043166190601078182153694843191AD3
:10484000002718E00868A84202D10F734F6111E0F9
:10485000087B00280ED00869801B086102D08C6894
:10486000A04201D98868086104469068844200D853
:104870002046906018319942E4D39068002805D012
:10488000411C03D09049FFF77EFFF8BDFFF733FFCF
:10489000F8BDF8B58A4B0546187818214843596980
:1048A000081A06E00268AA4202D1027B002A34D12B
:1048B00018308842F6D3FFF7A3FF99680E1A00203C
:1048C000C0431E6198601978182041435869411A05
:1048D000012718E00A68AA4203D18A680A610F73A7
:1048E0000BE00A7B002A0DD00A69921B0A6102D0F4
:1048F0008C68A24201D98A680A619C68A24200D8E9
:1049000014469C6018318142E4D39868002805D091
:10491000411C03D06C49FFF736FFF8BDFFF7EBFEF3
:10492000F8BD674918220B7853434A69D11A05E04C
:104930000B68834201D1087B704718319142F7D34D
:10494000FF20704770B50D460446FFF75FF9002859
:1049500008D05B48182104704C436119856141619E
:10496000FFF7C9FE70BD56494A68114620310875E7
:10497000030A4B75030C8B75000EC8758B7C0120E8
:1049800003438B744B7C03434B740B7C03430B74CA
:104990002032D37CDB07FCD00A7C520852000A7418
:1049A0004A7C02434A747047454840682030C17CC5
:1049B000C90708D0417C0122114341744148006875
:1049C000002800D000477047F8B53D4C07466068A6
:1049D0000E462030017CFD258907002905DA017C7F
:1049E000294001743220FFF79DF960682030077676
:1049F000390A4176390C8176390EC176017C202244
:104A000011430174817C294081742E494E60417CA0
:104A1000022529434174092000F09EF86068203087
:104A2000017C29430174F8BD10B5254C6068203025
:104A3000017C89070FD5017CFD22114001740920FA
:104A400000F093F860682030417C022211434174E9
:104A50003220FFF767F910BD194840682030C17C4B
:104A6000890708D5417C02221143417415484068EA
:104A7000002800D000477047F8B5114C0746606821
:104A80000E462030017CFB254907002905DA017C10
:104A9000294001743220FFF745F96068203007771C
:104AA000390A4177390C8177390EC177017C402270
:104AB00011430174817C2940817402498E6005E0B4
:104AC000E8300020043F002089470010417C042585
:104AD000294341740A2000F03FF860682030017CCF
:104AE00029430174F8BD28480C2140684030411822
:104AF0000A7810464A78120210438A78C97812045C
:104B0000104309060843704710B51F4C60682030F9
:104B1000017C49070FD5017CFB22114001740A205A
:104B200000F023F860682030417C04221143417476
:104B30003220FFF7F7F810BD134840682030C17CE1
:104B4000490708D5417C0422114341740F4880680D
:104B5000002800D000477047002805DBC106C90EB9
:104B6000012088400A490860704700280ADBC10616
:104B7000C90E01208840064980310860BFF34F8F7D
:104B8000BFF36F8F70470000E8300020043F002023
:104B900000E100E018B5F848006800900020694680
:104BA0000B5C0A241A0962431B070A541B0FD21814
:104BB0000A54401C0328F3DB009818BD08B5FFF722
:104BC000E9FF009068460178C078EC4A401E5043E7
:104BD0000A1868468178E120000141436846407820
:104BE0003C23584308181118E54A1069814201D343
:104BF000081A02E0E34B081AC018116108BD70B52D
:104C00000D46002802D0DC4E083E01E0DA4E0C3E94
:104C10000024285D0A2100F0A5FA0001014329556E
:104C2000641C032CF5DB284600F000FB3060642098
:104C3000FFF778F8D0482038C17A08221143C172B2
:104C400070BD38B5CE4909694418CC49204600F0FA
:104C500089FA421C6846C270E12508462D012946A2
:104C600000F080FA0246684682702946204600F02D
:104C700079FA08463C2100F075FA01466846417011
:104C80003C21204600F06EFA68460170694600201B
:104C9000FFF7B5FF38BD38B5FFF77CFF00906846D9
:104CA0000178C078B54A401E50430A18684681789A
:104CB000E12000014143684640783C2358430818EE
:104CC0001118AF4BB0485A6A0468914201D38A1A4E
:104CD00002E0AC4D8A1A5219A218026010465962BD
:104CE00038BD70B500290BD0A54D6E69AC69B442D2
:104CF00006D2A16005C423710020E0601034AC61CD
:104D000070BD884200D3084670479B4920398A7A93
:104D10000F238343887A1A400009000110438872E8
:104D2000704770B50446400701D5FFF733FFE00731
:104D300041D0934C18216078666848436169081A2D
:104D400003E0027B002A02D118308842F9D388425E
:104D500031D2FFF733FF6168E0684018E06000205F
:104D6000C043606060781821484361690D1A18E0FB
:104D7000287B002814D02869B04204D16868002834
:104D800007D0804705E0801B286102D0A9688842CF
:104D900001D9A86828616168884200D90846606026
:104DA000183560698542E3D36068002804D0411C4F
:104DB00002D0FFF746FF70BD0120FFF7A6FF70BDD0
:104DC0006F498A6882438A607047F8B50446FFF7E6
:104DD000F5FE6B4AD06072B60021C943516051782C
:104DE000182359435369591A002717E00D68A54243
:104DF00002D10F734F6110E00D7B002D0DD00D69B6
:104E00002D1A0D6102D08E68B54201D98D680D61F1
:104E10005668B54200D93546556018319942E5D3F8
:104E20005068002804D0411C02D0FFF70AFF02E0BE
:104E30000120FFF76AFF62B6F8BDF8B5504C054691
:104E40006078182148436169081A06E00268AA429E
:104E500002D1027B002A38D118308842F6D3FFF7FE
:104E6000ADFEE06072B60021C9436160617818222E
:104E700066695143711A012719E00A68AA4203D1F1
:104E80008A680A610F730BE00A7B002A0ED00A6958
:104E9000121A0A6102D08B689A4201D98A680A61A3
:104EA00013466268934200D81A4662601831B142D4
:104EB000E3D36068002804D0411C02D0FFF7C1FE94
:104EC00002E00120FFF721FF62B6F8BD2C49C8615E
:104ED0007047F1B582B0FFF771FE294DE86072B6F8
:104EE0000021C943696069786E69182251430090B6
:104EF000741AEF6920E02068B84209D13C21029879
:104F000000F030F93C20401A2061012020730CE0B1
:104F1000207B00280FD021690098081A206102D058
:104F2000A168884201D9A068206120696968884227
:104F300000D9084668601834B442DCD36868002899
:104F400004D0411C02D0FFF77CFE02E00120FFF7F5
:104F5000DCFE62B6FEBD0A4918224B7853434A690B
:104F6000D11A05E00B68834201D1087B70471831E4
:104F70009142F7D3FF207047C010005080510100CC
:104F800004310020803A0900A830002071490878D7
:104F90000028F0D17048C37A01221343C372C37A48
:104FA000DB07FCD10A70E6E76A490862E3E76A4971
:104FB0008A7A024310078A7A000F1209120102430B
:104FC0008A72D8E764498A7A1209024310018A7A00
:104FD0001207120F02438A72CDE770B5054600240E
:104FE000285D0A2100F0BEF8000101432955641C28
:104FF000032CF5DB284600F019F957492039C8631E
:1050000070BD554A138A401EDB0BDB034004400C85
:1050100003431382907C090700090001090F08432C
:105020009074A8E74C48C17A04221143C172C17A36
:105030004907FCD49FE74749087801289BD1464897
:10504000C27A02231A43C272C27A9207FCD40020A9
:10505000087090E7F3B581B0FFF7EDFFFFF7E2FFCF
:1050600001200021C003FFF7CCFF6420FEF75AFEA9
:1050700001216846C1700024847044700470FFF7F9
:10508000ACFF344D07262C616846C6701727877021
:105090003B244470047069460120FFF7B0FD684668
:1050A000C67087704470047069460020FFF7A7FD42
:1050B0000F20FFF787FF0F20FFF727FE0120FFF7E4
:1050C00076FF02982862FFF761FF244904200860F8
:1050D000FEBD70B50D460446FEF798FD00280BD0C6
:1050E0001C48182144704C436119856141610120BD
:1050F0001B49C003FFF7AEFF70BD10B51648407ADC
:1051000003071B0F1846FFF75DFF1248016A0029CD
:1051100001D01846884710BD0E4800782BE718B517
:10512000002802D00C48183001E00B481430006809
:105130000090002069460B5C0A241A0962431B0791
:105140000A541B0FD2180A54401C0328F3DB0098A2
:1051500018BD000004310020A010005000E100E064
:10516000234D001030B50B460146002020220124BB
:1051700009E00D46D5409D4205D31D469540491B8B
:105180002546954040191546521E002DF1DC30BDD4
:1051900070B500242546002801DA01244042002988
:1051A00001DA01254942FFF7DDFFAC4200D0404261
:1051B000002C00D0494270BD03460B439B0703D02F
:1051C00009E008C9121F08C0042AFAD203E00B78CC
:1051D0000370401C491C521EF9D27047D2B201E044
:1051E0000270401C491EFBD270470022F6E710B542
:1051F00013460A4604461946FFF7F0FF204610BD45
:1052000030B504460020034600E05B1C934203D205
:10521000E05CCD5C401BF8D030BD03460A780270DC
:10522000401C491C002AF9D1184670470321001D73
:10523000401E037812021A43491EF9D510467047E2
:10524000034603220870000A491C521EFAD518466C
:105250007047F8B502464A40D40F42004B0052084E
:105260005B089A4202D20246084611464A0023D001
:10527000C30D4A00DDB2120EAD1A202D35DA4902F7
:105280000126490AF6058A19002C00D05242202135
:105290004F1B1146B9402A411018C20D9A4221D025
:1052A000002C17D0012D08DCDA05801AD20F8019E6
:1052B000D207DBB200F050FAF8BDDA05801A0123FC
:1052C00040001B06C01880185A428018CA0F1043AD
:1052D000490007E04908C2071143DA05801A80191E
:1052E0004008801800F030FAF8BD61000122511A20
:1052F000001BF7E70122D2075140AAE70122D2079B
:105300005040A6E7F0B507460846584087B0C00FA2
:10531000049048000E46590040084908BC1A8841CC
:1053200005D2384631461E4617460B4602465800FF
:10533000400810434CD0300D039040055900400DFB
:10534000490D0590401A0290402872DA1803012195
:10535000000B09050843019004980092002805D02D
:105360000199524200208841009201900298402108
:105370000A1A0199009800F0B3F905460C466B46ED
:1053800007CB00F0CEF9C0197141039A0E0D00232E
:10539000D71756401A467A40164344D0049A002A3A
:1053A0002DD0029A012A039A15DC1205C01A9141E8
:1053B00001263605001C7141D20F059ED2070093CD
:1053C000019202962A46234600F00CFA07B0F0BD7F
:1053D00038463146FAE71605224A0F46B218C01A77
:1053E000B74101210905001C4F4100187F411146BA
:1053F00018187941E20F10436D19644113E0E20778
:105400006D0815436408C2071443039A0126120568
:10541000C01A91413605001C7141CE074008304347
:105420004908C01851412A46234600F0CEF9CDE77D
:10543000FFE7049801224000C117121A00238B4194
:1054400004983146C417381AA141EEE730B401245C
:10545000E407634030BC55E730B40124E407614001
:1054600030BC4FE70000E0FFF0B51FB488B00B99E7
:105470000998002448400999C00F4900490809913A
:10548000C0070B990090490049080B9109990898A9
:10549000A64608431CD00B990A98084318D00998CF
:1054A00001244000420D4800410D099824050003E5
:1054B000000B204309900B980003000B20430B9036
:1054C00050181C494018002201901446104605E06F
:1054D000002001460DB0F0BD032801DA034600E0CC
:1054E00003239C46C11A0AAE0AE05F0008ADED5BDB
:1054F0004F00F75B7D430027AA187C41491C5B1EC7
:105500006145F2DD410004AB5A522104120C0A43FA
:10551000240C401C0828DFDB01980290009970469B
:1055200001910090059B049A0799069800F05AF99A
:10553000D0E700000DFCFFFFF0B50C465C4085B0E5
:10554000E40FE40703944C000026640859009446D5
:10555000490802460296224321D062460A431ED0E1
:105560006200570D4A000E032303550D0124024625
:105570002C492405781B1B0B360B4018234326436C
:10558000614600901C46501AB44103D30098401C59
:10559000009002E0921800985B41002803DA002096
:1055A000014605B0F0BD00200121090507468646E9
:1055B00011E064461D46141BB54106D36546521BD7
:1055C000B341744607430C43A646CD07400849083B
:1055D000284392185B4105460D43EAD11046184313
:1055E00013D06046194650407140084306D06046CB
:1055F000101AB34106D20122002306E00022012343
:10560000DB0702E00122D2435310009874460105E3
:10561000381C6141029C039D0019694100F0D5F8D6
:10562000BFE70000FD03000010B5002296231146DD
:1056300000F092F810BD00000EB5C217C10F504027
:10564000CA0740180021054B0293019200910A46B7
:105650000B4600F0C7F803B000BD000033040000A3
:105660000EB505490291002100910A460B460191B1
:1056700000F0B8F803B000BD330400004A0009038D
:105680000123090B1B051943094B10B5520D9A4212
:1056900001DA002010BD064B34339A4203DC9A1A1B
:1056A00000F02EF810BD03495118884010BD0000CD
:1056B000FF030000CDFBFFFFC20FD20740004008F0
:1056C0000BD0C10D0723DB01C91840020905400AB0
:1056D0001143C2084007114370470020014670473C
:1056E00010B5202A04DB0146203A9140002010BD6D
:1056F000914020239C1A0346E3401943904010BD7B
:1057000010B5202A04DB0846203AD040002110BD05
:105710000B46D340D0402024A21A9140084319469A
:1057200010BD10B5202A06DBCB170846203A1041E1
:10573000C1170B4306E00B461341D0402024A21AA8
:1057400091400843194610BD002904DA401C490065
:1057500001D140084000704770B40024050C05D109
:105760001024000402D1002921D01124050E01D1FA
:1057700000020834050F01D10001241D850F01D15D
:105780008000A41C002801DB4000641C002908D014
:1057900020252E1B0D46F540A14000D001212943B4
:1057A000084301061B1B000ADB1D02D5002070BC4C
:1057B0007047DB05181880180029F8DA401C4900EA
:1057C000F5D170BC40084000704710B5002B08DAD6
:1057D0000024401C614192185B411A4301D14008EA
:1057E000400010BDF0B51FB482B005460C0003D0D8
:1057F000084600F086F802E000F083F82030024608
:10580000009021462846FFF76BFF049B059A04464B
:105810000F4618431143084314D0184610431BD0B9
:10582000009840210A1A18460599FFF769FF0546B6
:105830000E46009A05990498FFF752FF084305D0D9
:10584000012004E02046394607B0F0BD0020C11712
:1058500005430E432C43374300990E986305401AC5
:105860007905E40A00220C43FD0A0A3002D5002023
:105870000146E9E70105101969410C9C0D9D0019CD
:105880006941FFF7A2FFDFE7064C0125064E05E060
:10589000E36807CC2B430C3C98471034B442F7D351
:1058A000FAF712FCC0590010E059001070B58C18BE
:1058B0000578401C6B075B0F01D10378401C2A114F
:1058C00006D10278401C03E006780E70401C491C8B
:1058D0005B1EF9D12B0705D40023521E0DD40B708B
:1058E000491CFAE70378401CCB1A921C03E01D7890
:1058F0000D70491C5B1C521EF9D5A142D8D3002063
:1059000070BD2021020C01D010211046020A01D0E6
:1059100010460839020901D01046091F820801D03B
:105920001046891E420801D0881E7047081A704729
:1059300030B47446641E2578641CAB4200D21D4608
:10594000635D5B00E31830BC184702E008C8121F13
:1059500008C1002AFAD170477047002001E001C158
:10596000121F002AFBD170473031323334353637BD
:1059700038394142434445464C69623A7265747213
:105980007920457674436E743A257820496E737495
:10599000616E743A257820696E74657276616C3A2E
:1059A00025782070696E74657276616C3A2578206E
:1059B00074696D65725F6C6F6F703A25780D0A00BF
:1059C000E0590010003000202C010000AC580010FD
:1059D000745A00102C310020E41100005A590010B4
:1059E000C1170201050303018309FF080B1209090E
:1059F0005359445F554152541401111350308220C1
:105A00001360101B5024041A14041A180422105294
:105A10004058180102030405060708090A11121369
:105A20001415161718191A1B1E1F181808090A072B
:105A300008111512162C1319141812D01C0150E05D
:105A400004512324F4620413ED052320DF1B208F6F
:105A5000081AC604134A071B2014101A906C19CA9E
:105A6000124019082984D119101AFF0101140916CE
:045A700018B2020066
:04000005100000C126
:00000001FF
