:020000041000EA
:1000000000430020451B00104D1B00106B08001022
:1000100000000000000000000000000000000000E0
:10002000000000000000000000000000511B001054
:100030000000000000000000531B0010551B0010C2
:1000400000000000571B001013510010571B001038
:10005000571B0010571B00109F140010C9140010EC
:10006000B5490010654A0010594B0010571B00108D
:1000700021130010571B0010571B0010571B0010B6
:10008000571B0010571B0010571B0010571B001068
:10009000571B0010571B0010571B0010571B001058
:1000A0000000000000000000000000000000000050
:1000B0000000000000000000000000000000000040
:1000C0000348854605F050FC004800475B070010D8
:1000D000004300208307FF22DB0E9A408907090EA8
:1000E0009940002808DB8308FD489B001818036826
:1000F00093430B43036070470007000F08388308E1
:10010000F8489B001818C36993430B43C3617047B9
:10011000F8B50027F44800970068FF2120303D46DD
:100120003C463E46017041709F228270CF22C270D1
:10013000017138460122811F0B0005F07EFC0B0780
:100140000707070C0C0C0C0C10100C00114681401A
:100150000D430C4303E0114681400F430E43401C06
:10016000C0B22028E7D3284601F024F82946002011
:1001700000F0EDFF2846A04301F08AF8204601F088
:100180009FF83846009901F02DF83146002000F024
:10019000ABFFF8BD70B586B0002069460872072035
:1001A00048741920800148821E20888202A802F02B
:1001B000E7FD684602F0D2FD6946CC484E78C6722B
:1001C0008D780573CC7844730B7983734A79C27345
:1001D000897901741B30067145718471C371027293
:1001E0004172024614231B211B3802F0CFFDC04987
:1001F0000120087506B070BD0EB5002802D0012898
:100200000FD106E010206946C880C8204881002030
:1002100006E050206946C8804B20C00048810A2073
:100220000881C020694608710420487101A803F0C4
:1002300061FB6946488900900B89CA88ADA10020FE
:1002400001F0D6FB0EBDA94910B50C398878401CC9
:10025000C0B28870032808D3002048700120FFF73F
:10026000CBFFFF20013004F064FA10BD3EB59F4C77
:100270000C3CE278D2070ED001246A461480032594
:1002800055801F259580148103460A4669462046FD
:1002900002F0B8FF3EBD00203EBD944A10B50C3AB6
:1002A0009088401C81B29F48918009C8984205D12E
:1002B000032903D90020507004F0BCFB10BDF0B539
:1002C000984E85B035687468A54231D0874F0C3F91
:1002D0007878002807D1012078700020B8809249F2
:1002E000A32004F077FB01239B02A54201D32D1B21
:1002F00001E0281BC518142D1CD31F467B49002084
:100300000C398880894B69461A5D641C0A54BC42CA
:1003100000D30024401CC0B21428F5D31421684631
:10032000FFF7A4FF002803D0143D7460142DE5D21C
:1003300005B0F0BD002DFBD0B8880328F8D300200D
:10034000694608E0794A125D641C0A549C4200D355
:100350000024401CC0B2A842F4D3E9B26846FFF7BB
:1003600085FF002800D074600020B880E0E7F0B579
:1003700004468DB0401C04F065FFC11FFF39FA39F7
:1003800019D0FF2101310027884239D1402000F0E7
:10039000AFFF0822611D03A804F01AFF6846C08958
:1003A0001521490288421AD161A003C80191009029
:1003B0000820694621E0802000F09AFF21460E22A5
:1003C0001531684604F004FF1E22611D04A804F0E4
:1003D000FFFE04AD0FCD00F04DFA0DB0F0BD564953
:1003E0008842FAD1684607700197694601A80297CA
:1003F00000F01AFD684601A9007802F0F4FEECE76F
:100400003A4E01210C3E02281FD0464D042830D020
:100410004A03641C904261D1607922790002104342
:100420000128DAD1607A237A020230461A43C07872
:10043000012A45D08843F070002001F0BEFFFF2064
:10044000013000F03DFF3DA1A7E03170FF20B77003
:10045000013004F0CFF90120400200F019FF06231B
:10046000A21D3CA1002001F0CFFA012000F0CBFB3F
:10047000B3E762793BA1002001F0BAFAF770377058
:100480006868012464022860204604F043FA0028CA
:1004900006D03B480078032802D0204604F049F9F2
:1004A000FFF778FE02F092FD204600F009FFFF20E2
:1004B000013000F005FF002001F07FFF31A16CE06A
:1004C0000843F070012001F078FF00F0E1FF686858
:1004D0002860FF20013000F0DBFE5DE061E00000FD
:1004E00000E400E000ED00E0583000200C30002077
:1004F00000000240736D6172745F706172616D73B0
:1005000020696E74657276616C3A2578206C61742E
:10051000656E63793A2578207376746F3A25780D85
:100520000A000000343500209B0200103431002006
:100530005359445F5541525401FF000055415254F4
:10054000206E6F746966792044697361626C6564BA
:10055000210D0A00436F6E6E6563746564206164EB
:1005600064723A00446973636F6E6E6563746564A8
:100570002C7265736F6E3A3078253032780D0A0030
:100580003C300020737461727420616476204020D6
:1005900064697363210D0A00EAA1002001F028FAC2
:1005A0001BE70121C903884224D160792179000227
:1005B0000843030005F041FA06051416181A1C0436
:1005C0000BE7E6A1002001F013FA684602F0D5FD22
:1005D000684643880288E7A1002001F009FAFCE69A
:1005E000EBA1DAE7F0A1D8E7F5A1D6E7FAA1D4E7C5
:1005F000FEA1D2E70121090488420DD101A802F031
:10060000BCFD6846008900906846C3888288FCA1CA
:10061000002001F0EDF9E0E60128C1D102F0D6FC9E
:10062000DBE6F8B5FE4C207800281BD00026FD4DF7
:10063000012818D001277F02022822D0032811D1D7
:100640002670384604F075F8F7A1002001F0D0F9C3
:100650007D20C00000F0B0FAF7A1002001F0C8F939
:1006600002F080FFF8BDF9A1002001F0C1F900F00F
:10067000BFFAFAA1002001F0BBF9022020702E7011
:10068000F8BD2878401CC0B228702028F8D9F6A1FF
:10069000002001F0ADF9384604F04BF8F8BD10B574
:1006A00002210120FFF716FD02210846FFF712FD87
:1006B00002210320FFF70EFD02210420FFF70AFDAF
:1006C00002210520FFF706FD00210620FFF702FDAD
:1006D00002210720FFF7FEFC02210820FFF7FAFCA9
:1006E00002210920FFF7F6FC02210A20FFF7F2FCA5
:1006F00002210B20FFF7EEFC02210C20FFF7EAFCA1
:1007000002210D20FFF7E6FC02210E20FFF7E2FC9C
:1007100000210F20FFF7DEFC02211020FFF7DAFC9A
:1007200002211120FFF7D6FC02211220FFF7D2FC94
:1007300002211320FFF7CEFC02211420FFF7CAFC90
:1007400002211520FFF7C6FC02211620FFF7C2FC8C
:1007500002211720FFF7BEFC10BD72B600F0D0F8E2
:10076000FFF79DFF002002F066FE01F0E7FD00208C
:1007700001F0A0FEFF20F53003F04EF901F0ABFED2
:1007800000F0B0FFBBA3BEA2C0A1002001F030F971
:1007900003F0A9FD05460246C2A1002001F028F998
:1007A0007D24A401A5420DD02246C3A1002001F062
:1007B0001FF9204603F0ABFDE01000F0FDF902F058
:1007C000D1FEFEE7C249022004F0B5F800F0A6FE13
:1007D000C049012004F089FC00F0BEFEFFF798FC40
:1007E00000F0DCFDBC4800210160416002F0EEFB3E
:1007F00062B6BA4CBA4D8A4EBA4F03F009F800F00F
:1008000065F82068002814D0800509D5FFF709FF96
:100810000120400203F0E9FFB3A1002001F0E8F855
:100820002088C00505D5FFF70EFDFF20013003F03D
:10083000DCFF286800280AD0400708D501F04BFEED
:10084000ADA1002001F0D4F8042004F0C5FA3078FE
:10085000012801D1FFF7E5FEF878C00702D0FFF7C5
:100860002EFDCAE702F04CFEC7E7A7A1002001F069
:10087000BFF8FEE70FB4F8B569464A8B897F06A832
:10088000022A09D0A54B9A4202D1C01D00F0C7F937
:10089000F8BC08BC04B018478F4B17241A68624391
:1008A0009F4CA154012207E08518AE791D681727D7
:1008B0007D432D19AE54521C9142F5D21868401C4C
:1008C00018603228E4D300201860E1E7F8B5824CC4
:1008D00025686068A84212D0914E00276068A8423F
:1008E0000DD017214843315C8019401C00F053F9AA
:1008F0006068401C60603228F0D36760EEE7F8BDA6
:1009000010B588B002F097F9012002F03CFC754860
:10091000083002F063FC03216A461173002454730B
:10092000907BFB228843401C10406A469073102045
:10093000D0731474517403A802F013FCC020059006
:10094000F0E0000055415254206E6F7469667920C2
:10095000456E61626C6564210D0A0000757064610A
:100960007465207273702041434345505445440DD3
:100970000A000000696E74657276616C3A25782011
:100980006C6174656E63793A25780D0A0000000089
:10099000757064617465207273702052454A4543D6
:1009A0005445440D0A00000075706461746520723E
:1009B00073702054494D45524F55540D0A000000A4
:1009C000757064617465207273702053554343459C
:1009D00045440D0A00000000456E61626C65206CA4
:1009E0006174656E63790D0A0000000044697361EB
:1009F000626C65206C6174656E63790D0A0000009D
:100A0000434F4E4E5F5550444154455F434F4D5008
:100A10003A2025642C2025642C2025640D0A000032
:100A20003C3000203D3000204F54412066696E6903
:100A300073680D0A000000005374617274205265DF
:100A40007365742031303030730D0A007374617235
:100A50007420467745726173650D0A004F5441203A
:100A600073746172740D0A004F5441206661696CA1
:100A7000650D0A0031363A34393A3335000000004A
:100A80004A616E2031392032303234005379643873
:100A90003831315F554152542025733A25730D0A80
:100AA00000000000434C4F434B5F50504D206E6F91
:100AB000773A25640D0A000073657420434C4F4358
:100AC0004B2050504D20746F3A25640D0A000000F1
:100AD000EC3900201C3A0020BC390020FC300020FA
:100AE00014310020003000204556545F31535F4FD1
:100AF00054410D0A000000005254434556545F31E2
:100B00003835530D0A0000004552523A20486172B0
:100B1000644661756C74210D0A00000001FF00003D
:100B20003C3500200C48069005A802F03CFB002054
:100B300002F02AFDFFF72EFB6A461470D4700120E4
:100B4000107150709470D11D800204F085FB6846CE
:100B500002F09BFC08B010BD6F030010FEB501A9A8
:100B6000684600F07BFC002001266A46104901AC73
:100B7000104DB60213780BE00F68225CEA550A6844
:100B8000521C0A60B24201D300220A60401CC0B26B
:100B90009842F1D3FEBD70B50D460646002404E030
:100BA000305D00F050FC641CE4B2AC42F8D370BD80
:100BB00034350020343100200022064B06E00021AD
:100BC000491C89B29942FBD3521C92B28242F6D39D
:100BD000704700008C0A000010B5E74B0E241B691B
:100BE0001C70541C5C709870D81C04F0F1FA10BD95
:100BF00008B502F048FD0020694608700122162061
:100C0000FFF7EAFF08BD0022DB49002801D00A7087
:100C10004A704A80CA808A800A81CA607047FEB5DD
:100C2000D54D0E4669880024002905D02A78002A6F
:100C300002D06C7000219FE00178032615296DD049
:100C40001CDC112935D012293ED0132941D014299A
:100C500022D1C17982790E0216436E80417A027ADE
:100C60000F021743EF80801C04F0ECFAE860AC80C0
:100C70002C8133460246C1A1009773E001277F0211
:100C800016290AD020294DD0232957D0242903D151
:100C9000801C00F048F92E70FEBD0020FFF7ACFA72
:100CA000C3A1002000F0A4FE384603F0A3FD0120FC
:100CB00007E00020FFF7A0FAC1A1002000F098FE95
:100CC00004202870EC60FEBD801C00F0BFF80520F9
:100CD0001EE0871CC01C04F0B5FA01463A78BD48F6
:100CE00002F0A2FE0646781C04F0ACFA03463878FF
:100CF00000903246B8A1002000F07AFE002E09D004
:100D000068460471012201A91820FFF765FF06203B
:100D10002870FEBD012069460871F3E7801C00F0D1
:100D2000CBF8B8E70020FFF767FAB1A1002000F088
:100D30005FFE384603F05EFD0720C2E7C179827985
:100D40000E0216436E80417A027A0F021743EF803B
:100D5000801C04F077FAE860AC802C8133460246B0
:100D6000A8A10097002000F043FEFEBD435C2C8943
:100D70001B19491C2B8189B2B142F7D381071AD0C4
:100D800001463246AD4804F023FA2878022806D0FE
:100D9000012804D0082808D0072806D023E0A98815
:100DA000E868A64A4018314615E0A988E868A34AD1
:100DB0004018314615E0704BD9689B88CB18022A41
:100DC00006D0012A04D0082A08D0072A06D00AE053
:100DD00002463146184602F0C9FC04E0024631469C
:100DE000184602F034FCA888801981B2A98068886E
:100DF0008142BAD32A89E888824204D1002000F0D7
:100E00004CF88FA103E0012000F047F890A10020EA
:100E100000F0EEFDEB882A8991A1002000F0E8FDAA
:100E20000020FFF7F0FEFEBD70B5534C0D46216962
:100E30004A7821461431921C04F0CAF9206940789E
:100E4000801C287000206061A06170BD38B5044628
:100E500040782178000208430121090388421BD809
:100E6000A27882188A4201D9091AA1705949A27838
:100E70004018E11C04F0ACF96078217802020A43C2
:100E8000A37882A1002000F0B3FD0020694608701D
:100E900001221720FFF7A0FE38BD1CB56B46597024
:100EA000090A9970DA70110A1971187005226946D9
:100EB0001420FFF791FE1CBD38B504465F48203072
:100EC0000179002905D02038006A5C4A400102F00F
:100ED0004DFC204604F0B6F9617922790B021343E8
:100EE000024671A1002000F083FD204604F0AAF91B
:100EF000617922790B02134302460021084602F071
:100F000044FC044602466EA1002000F071FD002C56
:100F100007D000206946087001221820FFF75CFE08
:100F200038BD0120F6E738B5044604F08BF9617945
:100F300022790B02134302465BA1002000F058FD0A
:100F4000204604F07FF9617922790902114302F009
:100F500021FC044602465FA1002000F049FD002C60
:100F600007D000206946087001221820FFF734FEE0
:100F700038BD0120F6E700003C300020434D445FBF
:100F800046575F57524954455F5354415254206F5E
:100F900066667365743A25782C73697A653A2578A4
:100FA00020636865636B73756D3A25780D0A0000E0
:100FB000434D445F46575F45524153450D0A00007B
:100FC000344B53455454494E475F45524153452095
:100FD0000D0A00004A070020436F64655570646184
:100FE00074653D25642025782025780D0A000000D1
:100FF000464C415348444154415F4552415345207A
:101000000D0A0000464C415348444154415F575239
:101010004954455F5354415254206F66667365745A
:101020003A25782C73697A653A2578206368656378
:101030006B73756D3A25780D0A000000C4390020E5
:1010400073656374696F6E204F4B212000000000B0
:1010500073656374696F6E206661696C6521200039
:101060006F74615F726563656976655F6368656308
:101070006B3A2578206F74615F73656374696F6E76
:101080005F636865636B3A25780D0A00636D6434AD
:101090004B53455454494E4757726974652025781F
:1010A0002025780D0A0000006F746120737A3A25BC
:1010B0007820636865636B73756D3A25782000004E
:1010C000436F64655570646174657632303D2564A4
:1010D0000D0A0000436F6465557064617465763372
:1010E000303D25640D0A0000F0B5AA4C221D94463F
:1010F000002829D0012826D1A74B002B23D000207F
:1011000001228240114207D01F5C01252668BD40A4
:101110002E432660914302D0401C1828F0D318209B
:1011200001252A4682402B46114209D064460646D4
:101130002478183EB3401C4363461C70914302D090
:10114000401C2028EDD3F0BD934B183BD5E7F0B5FC
:10115000904C221D9446002829D0012826D18E4B80
:10116000002B23D0002001228240114207D01F5CB7
:1011700001252668BD40AE432660914302D0401C45
:101180001828F0D3182001252A4682402B46114208
:1011900009D0644626780446183CA3409E43634623
:1011A0001E70914302D0401C2028EDD3F0BD7A4B35
:1011B000183BD5E7784910B530394A68147821468C
:1011C0005478240221439478D378240421431B06C5
:1011D000194381431170080A5070080C9070080E72
:1011E000D07010BD70B56C4E303E73681D782A46C5
:1011F0005D782D022A439D78DC782D042A4324064D
:10120000224302431A70140A5C70140C9C70120E74
:10121000DA70F3681D782A465D782D022A439D789E
:10122000DC782D042A432406224302431A70140A50
:101230005C70140C9C70120EDA7008229C182578D1
:101240002A4665782D022A43A578E4782D042A439E
:101250002406224382431A72100A5872100C9872A4
:10126000100ED87208201A181478204654782402D8
:1012700020439478D2782404204312061043084374
:101280001872010A5972010C9972000ED87270BD61
:10129000414910B530398A681478214654782402BF
:1012A00021439478D378240421431B061943014336
:1012B0001170080A5070080C9070080ED07010BDA4
:1012C000354910B530398A6814782146547824029B
:1012D00021439478D378240421431B061943814386
:1012E0001170080A5070080C9070080ED07010BD74
:1012F000294910B530398A68147821465478240277
:1013000021439478D378240421431B061943414098
:101310001170080A5070080C9070080ED07010BD43
:1013200010B51D4C1820303C236919180A78104656
:101330004A78120210438A78C978120410430906C9
:10134000084310215A181378194653781B02194381
:101350009378D2781B04194312061143884318D09E
:101360006069002800D08047216918200A18137886
:10137000184653781B0218439378D2781B041843FD
:10138000120610430870020A4A70020C8A70000E9E
:10139000C87010BD8010005088300020F8B5554846
:1013A0000068C17B89098901C91CC173017C890955
:1013B0008901091D017420308178DF22114081707C
:1013C0008378BF210B4083704B4C206883785B0887
:1013D0005B00837003781B091B01083303700378DB
:1013E0005B065B0E037003780B400370C378102517
:1013F0002B43C370837804252B4383708578202387
:101400001D4385708678EF252E408670867880276C
:101410003E43867086780E408670017829400170C0
:101420000178114001708178022211438170C178E6
:101430001943C170062000F054F820688178082212
:1014400011438170F8BD2C490968487008788006FE
:10145000FCD50878DF2210400870704738B50022AC
:101460006C462270244B1B680DE01C798C546D4631
:10147000521C2C78D2B2641C2C702C78641C2C70FA
:101480002C78641C2C70DC78E407EED0027038BD38
:1014900019480068C17820221143C170704710B507
:1014A000154C20680178C90605D50178EF22114056
:1014B0000170FFF753FB20688178890703D5817895
:1014C00002221143817010BD10B50B4840680178AD
:1014D000C90605D50178EF2211400170FFF73EFBE8
:1014E00010BD002805DBC106C90E01208840034954
:1014F0000860704758300020A030002000E100E074
:101500000F48FF22016801321143016070470C4807
:1015100001220168520211430160704710B57D2419
:101520002401FF200023074A2146013003F028F858
:1015300001200023044A2146400203F021F810BD97
:10154000FC300020011500100F150010084804227F
:10155000016811430160704710B50023054AB921A5
:10156000042003F0CEFB042003F073FC10BD000048
:10157000143100204D15001010B5604C0120206181
:1015800060615FA0A06120464830E06101208002D8
:101590000021A1622062616259A0E16220635B4880
:1015A000606321641020E163A063616458A1E01DC1
:1015B00003F03FFE57A1204603F03BFE2020A07120
:1015C00010BDF7B5054682B000200090EC681746C4
:1015D0002869A04201D9061B02E0A968201A0E1A48
:1015E000A868761E001BB04200D80646BE4200D353
:1015F0003E46686832460019039903F0E9FD0098F9
:10160000BF1B801900900398A41980190390A86843
:10161000A04200D10024EC60002FD9D1009805B081
:10162000F0BDF7B50446C7688068E168C51B60680F
:1016300016464018B54205D9019903F0C9FDB819FD
:10164000E060FEBD2A46019903F0C2FD0198761BB9
:1016500041193246606803F0BBFDE660FEBD70B51F
:101660000E4618214843254914464518E86A18359E
:10167000002804D001280FD0022805D113E0284605
:1016800000F031F8A04201D2002411E02246314698
:101690002846FFF7C6FF0BE0284600F024F8A042DA
:1016A000F4D20446F2E731462846FFF78AFF0446A3
:1016B000204670BDF8B507461048154600780E461E
:1016C000002801D1FFF758FFEFF31084012080F3C9
:1016D00010882A4631463846FFF7C1FFE1B281F350
:1016E0001088F8BD48E70269C1688A4203D880685B
:1016F000401A801800E0501A401E7047343A00200B
:101700005465726D696E616C000000007C3E0020C3
:1017100052545400534547474552000010B5044603
:1017200080686368421C934205D323681954A26001
:10173000E068401CE060A2686068824209D12168CC
:101740002069FFF7B7FFA168884203D00020C0439B
:10175000E06010BD0020A06010BDFFB581B0012683
:101760001F4635460A9C029802E003F007FD6D1CF7
:1017700003998842F9D2AF4200D93D460B98C00781
:1017800018D1002C16D00B98800701D5002F02D05D
:10179000202000900CE03020FBE7641E00990198A7
:1017A000FFF7BCFF0198C06800283DDB002C01D08A
:1017B000A542F2D30198C068002835DB012F01D97A
:1017C0007F1E06E03146029803F0D8FC0399884258
:1017D00002D303984643F1E7D24F3146029803F013
:1017E000CDFC0146029A7143511A0291395C01986D
:1017F000FFF794FF0198C068002805DB3046039985
:1018000003F0BCFC0600E8D10B98C0070CD0002CFC
:101810000AD0A54208D22021641E0198FFF77EFF5E
:101820000198C0680028F2DA05B0F0BDF7B59AB0AB
:1018300007A802904020039000200C461A991546F4
:1018400004900826069105902178641C00296ED02A
:10185000252907D002A8FFF761FF05980028F3DAD1
:101860001DB0F0BD01220020134602272178232954
:101870001BD02B2916D02D2902D0302906D101E00A
:10188000184300E03843641C002AEFD1002122787D
:101890001346303B0A2B0AD20A23594389183039A0
:1018A000641CF4E704210843EDE73043EBE7002331
:1018B000D7B22E2F0AD1641C22781746303F0A2F48
:1018C00004D20A277B439B18303BF4E76C2A0CD0E8
:1018D000682A0AD0662A3FD00FDC582A30D007DCAD
:1018E000252A6FD0462A71D136E06278641CEDE774
:1018F000632A0BD0642A69D10DE0702A57D0732A6D
:1019000046D0752A14D0782A60D119E02868011DC4
:101910002960017857E02A68171D2F601768009129
:1019200001900A22394602A800F098F84EE04FE0F4
:101930002A68171D2F6017680A220091019006E09F
:101940002A68171D2F6017681022009101903946F0
:1019500002A8FFF702FF39E00020179018901990B5
:10196000286817AFC01DC008C000014608312960B3
:101970000CC86DA1384604F035F839787F1C002971
:1019800024D002A8FFF7CAFE05980028F5DA1DE06A
:101990002868011D2960076839787F1C002915D047
:1019A00002A8FFF7BBFE05980028F5DA0EE02868CC
:1019B0000823011D29600168002010220096019073
:1019C000C6E7FFE7252102A8FFF7A8FE641C44E74D
:1019D000002800DC44E70498002804D0024607A948
:1019E0001A98FFF767FE049905984018059037E7A5
:1019F0000FB408B504A900916A460399FFF716FFD2
:101A000001B008BC04B01847FFB5002481B01D46E2
:101A10001646002902D00198FFF7EAFF01277F0749
:101A200013E0600704D1A2B241A10198FFF7E0FFE3
:101A3000325D41A10198FFF7DBFF6007F84203D157
:101A40003FA10198FFF7D4FF641CAC42E9DB6007BB
:101A500003D03BA10198FFF7CBFFE5E6FFB583B0CC
:101A60000E4670420D9F0C9C0090002900DB08463A
:101A7000012502E003F098FB6D1C05998842F9DA14
:101A80000698A84200D90546002C04D0002E01DBA0
:101A9000780700D5641EB80702D50698002810D034
:101AA000F8070ED1002C0CD0A5420AD22021641ECA
:101AB0000398FFF733FE0398C0680028F2DA07B0F6
:101AC000F0BD0398C0680028F9DB002E02DA2D2152
:101AD000009E02E0780707D52B210398FFF71EFE32
:101AE0000398C0680028EADBB807800F022810D1ED
:101AF000069800280DD1002C0BD0A54209D2302128
:101B0000641E0398FFF70AFE0398C0680028F2DA03
:101B1000D5E7019700943146069B059A0398FFF795
:101B20001CFECCE70E63001025342E336600000047
:101B30005B253034785D20002530327820000000AD
:101B40000D0A00000448804704480047FEE7FEE70E
:101B5000FEE7FEE7FEE7FEE7611B0010C100001094
:101B600002490148086070470024F400AC300020AE
:101B7000F1B5F94880470746F84880470646F64CD5
:101B80000120183CA047F54D00200C35A847F4492A
:101B9000009888473046A8473846A047F8BDF0B5BA
:101BA000F04DF148E96885B00818044603F04AFB97
:101BB0002146401C03F050FB0024EA480125C6687A
:101BC000E9480C3831180391487C097C000208432D
:101BD000A540284202903BD00B2060438119E24887
:101BE000009109300818019003F02CFB0746DE48ED
:101BF000301803F027FB87422AD10F210098890172
:101C00004018007D00280CD0D74A00990D3A8A1858
:101C1000517D127D090211437818019903F01CFBD4
:101C200005E002980399A8430874000A4874CE4856
:101C300000990D30081803F005FB002808D0022D8C
:101C400019D0042D17D0082D15D0102D1AD080478B
:101C5000641CE4B20A2CB0D3C248C168C2480C3834
:101C60000918487C097C00020843800501D1BF485F
:101C7000804705B0F0BDBE49012088470028E7D065
:101C8000222005E0BA49012088470028E0D03B2007
:101C9000FFF76EFFDCE710B5B249122009698870C2
:101CA00072B60121B14A0320B43A904762B610BD22
:101CB00010B50C4601788CB00A07120F69460A70FD
:101CC0000178CA0969464A70811C00A806220230C0
:101CD00003F07EFA08A90C72012129220905A54CFE
:101CE0006B460020A0470CB010BDF0B585B00020B9
:101CF000694608700872A04E0873A04DA04F994C19
:101D0000B047E07103AB02AA6946606902F032FB9A
:101D10000028AED00820A847002803D00220A847FA
:101D2000002811D06846007A012813D0606901901C
:101D3000E068407A012872D00228E1D1904AE17926
:101D4000963A01989047DBE7012168460172007BD3
:101D500000281CD0606901902521E06849014118E4
:101D6000497B002908D08049D4314018417B027B4F
:101D70000802844910438847019802F040FB00287C
:101D8000BED001980078C043800704D009E03D2010
:101D9000FFF7EEFE6DE701988078122810D0142826
:101DA00014D060690178C943890705D04179027967
:101DB00009021143042926D069460978B8479FE7EC
:101DC00021691320887072B6012116E0236915205D
:101DD00098701B22DA70002018717D22D91C5201E4
:101DE000581C5A71130A43711B230B7100234B714A
:101DF0000272110A417272B609215C4A0320B43A98
:101E0000904762B67CE7EFF31081049172B66946A1
:101E10000978B847049981F3108871E7FFE70198C2
:101E200000780007000F052806D003288BD1E17940
:101E30000198FFF73DFF63E70198417E027E0802AB
:101E40001043062806D30198427F017F1002084301
:101E50000A2803D242491220884751E7464901988F
:101E6000EE31801C88470198872200784006C10F18
:101E7000E0681154019906228830891C03F0A8F902
:101E80003721206903F0BDF93AE7F0B5384999B038
:101E90000420884700280ED0354904201A3188478D
:101EA00032491F20AC318847374880471620FFF75A
:101EB0005FFE19B0F0BD35488047002810D0294D8D
:101EC000EC68A1790807F4D5E079C2071CD0304945
:101ED000204698308847E868C179490849001FE0E2
:101EE0002A4E294F284DB2361C376C46103507E074
:101EF0006846B0470128DCD168460178601CB847C5
:101F0000A8470028F4D0D4E782070BD5204A204602
:101F10001C328E30811C9047E868FD22C17941E077
:101F2000C171C6E7420708D5194920466031A8307B
:101F30008847E868FB22C17934E00207F726002AC7
:101F400028DA134A21464232A07A0B319047E868DA
:101F5000C1793140E4E70000BF650000776A000006
:101F6000CF160000B0300020CE03000001120000A8
:101F7000F50A0000A13E0000495700007919000051
:101F8000211F00002B620000BD600000054E000014
:101F900027260000C00607D5F84968468847E86844
:101FA000EF22C1791140BBE720463140FF30A171DB
:101FB0002130017D0026002910D006752146072218
:101FC00087310CA803F004F921460DA82A228E318E
:101FD000033003F0FDF8EA490CA888470120694660
:101FE000087048708E70E96800A82A2203308E318C
:101FF00003F0EEF82D220821E24C6B460020A047AA
:1020000057E7E1490128896A0FD0022811D0042836
:1020100012D0082813D0102814D0202815D040281A
:1020200016D0802818D0012070478878C007C00FCC
:102030007047887880070DE0887840070AE0887844
:10204000000707E08878C00604E08878800601E091
:1020500088784006C00F70478878C009704710B56F
:10206000017801291FD1401C03F0ECF8C64A102862
:102070003AD00DDC012817D002281DD0042823D027
:10208000082810D1FFF7BDFF00280CD1BF4809E098
:10209000202839D0402806D1FFF7B3FF002802D10D
:1020A000BA485430804710BD0120FFF7AAFF00282E
:1020B000F9D1FFF7EAFE10BD0220FFF7A2FF0028CA
:1020C000F9D1FFF712FE10BD0420FFF79AFF002898
:1020D000F9D1D068407A012803D00228F3D1AC4866
:1020E000E0E7AB48AE38DDE71020FFF78AFF0028B5
:1020F000E9D1906A2030407D400701D53E2000E0C4
:102100000820FFF735FD10BD2020FFF77AFF0028DB
:10211000F9D19E484830C5E770B5102508269A4C7D
:10212000002821D0A06A817E31438176014660314A
:102130000A7E637852095201DB06DB0E1A430A76E7
:102140002030427B067B1302E26833432332547C07
:10215000167C22023243934214D00273120A427355
:10216000C87D2843C8750DE002F0F1F8A06A00228E
:10217000014620310A734A736030C17D2943C1751D
:1021800084480677012070BD7F48C0682330417CB9
:10219000027C080210430BD07F4948780A7800027D
:1021A0001043032210430870000A48700120B3E76F
:1021B000704730B4794CA44630BC6047F8B57648D7
:1021C000407A000663D57048C66830462330417CAB
:1021D000007C0F02704907434878097804020C43D9
:1021E000002F01D1600752D56B4DA87B697B00029F
:1021F0006D1C08434BD0002F49D068792979000223
:1022000008432ED12136707C317C0002084303F054
:1022100033FA0022624B03F033F903F03BFA80B249
:102220007843642102F0C0FF4004010C2971080AC0
:1022300068710A204143707D327D00021043814263
:1022400006D30A21401E02F0AFFF2871000A687110
:10225000687929790002084303D101202871002000
:1022600068714D48A10709D502218C4301210C4317
:102270000470210A41700020FFF74EFF68792A7927
:1022800001021143474B00224020FFF792FFF8BDA7
:102290001CB541494A7A002A40D04A780B7812028C
:1022A0001A43D3063AD4437804781802204301280D
:1022B00034D1C878401E0006000EC8702FD08B782D
:1022C0000846017BC47A0A022243017AC4790902D2
:1022D0002143C01C012B2AD0521A0272120A4272E8
:1022E0001206037A120C1A43521A69460A80427A7D
:1022F000017A120612140A4369464A8026498A7BEB
:10230000497B12020A4369468A80417B027B0802AC
:1023100010436946C8802449684688471CBD887AAE
:10232000C870402002430A70100A48701CBD521841
:10233000D3E71E4A10471D4A2032104738B5002403
:1023400069460C7021467F20FFF7F5FF00213B20F6
:10235000FFF7F1FF29213B20FFF7EDFF69463B2006
:10236000FFF7E7FF68460078800701D5012038BDF8
:10237000641CA4B2FF2CF1D9002038BDA3260000B4
:10238000DF470000A13E0000B030002079160000B9
:102390002715000020000240E33E0020AB4400006F
:1023A0000000F43F8921001033420000C5610000A5
:1023B00010B5FE488047012010BD10B5FC49FD4A0C
:1023C0008870002807D1C8688078022803D00020D0
:1023D0009047012010BD0120FAE710B5F44C012808
:1023E000E168887004D0002834D0022849D05CE02D
:1023F000206B014620310A78520852000A700A7890
:10240000FD231A400A700178890989011C31017085
:102410004178890989011C31417000217F20FFF733
:102420008AFF03212120FFF786FF1F210320FFF7EA
:1024300082FFE1493220884702217F20FFF77BFF9E
:1024400001210020FFF777FF00217F20FFF773FFB6
:102450000F2127E000217F20FFF76DFF00210420DE
:10246000FFF769FF02217F20FFF765FF0021084683
:10247000FFF761FF00217F20FFF75DFF00210320B0
:1024800011E002217F20FFF756FF03210020FFF714
:1024900052FF00217F20FFF74EFF00210320FFF7AE
:1024A0004AFF00210420FFF746FFA078FFF785FFD1
:1024B000012010BD10B5FFF790FF012010BDBB48F3
:1024C00010B50C308047BA48C06A017ADF2211404B
:1024D0000172012010BDFEB5B54C01202071B54838
:1024E000183080470190E06A817A007ACF07FF0FA9
:1024F0000026800702D00126FFF7E1FFAC48C06A42
:10250000817A490849008172AA490120884702203E
:10251000FFF763FFA84964201A39884700206946FD
:102520000870054601217F20FFF705FF00210A20E2
:10253000FFF701FF22210A20FFF7FDFE69460A206E
:10254000FFF7F7FE684600784007EFD4002469469D
:102550000A20FFF7EEFE68460078400705D568467A
:102560000078000706D4012504E0641C9348A4B257
:102570008442ECD3904964201A3988470020FFF741
:102580002CFF8C4901988847894CE06A817A490878
:10259000490039438172002E01D0844880470020D1
:1025A0002071002D01D00120FEBD0020FEBD10B520
:1025B0001121834802F025FE10BD70B50446401C71
:1025C00002F040FE022818D0042819D00121490445
:1025D00088424AD125462035687B09230107020934
:1025E000090F0020072A1FD0032A23D0022A28D04F
:1025F000012A2CD0002A30D035E0FFF7D8FF3DE08B
:102600006B4D0121E868FF302130017501F042FF78
:10261000E8688078002804D12879002801D1FFF7E4
:102620005AFFFFF78BFE29E0581A06214843412143
:10263000C94304E0581A062148433521C943081A02
:1026400010E0581A062148432321C943F7E7581AD6
:10265000062148431721C943F1E7581A0621484388
:10266000801D404240B2687308E040281DD001211F
:10267000C903884202D1601DFFF70AFE504948781D
:10268000097800020843800607D5601C02F0DAFDD5
:102690000005000F01D0FFF791FD45483C3002F0E6
:1026A000D1FD01462046884770BD4148383002F0D0
:1026B000C9FD4006E2D570BDF0B53D4C0646E06868
:1026C0008DB0FF302130407C0D46002829D0002DF0
:1026D00026D072B6A068183002F0B4FDE16832224C
:1026E000FF312131897C374B514340186A463221F2
:1026F000984762B6002E04D0E068FF302130807C1D
:102700003070E7680A21FF372137B87C401C02F09F
:1027100035FDB974E078401CC0B2E0700A2802D9D7
:1027200000200DB0F0BD684600780128D1D100A985
:1027300007222846013102F04BFD2A22E81D02A99A
:1027400002F046FD0120ECE7F0B505461E498DB0CC
:1027500020208847164C0426E16820690F468670C1
:102760000822C01CC931BD3702F032FD20690422A5
:1027700039460B3002F02CFD0D21144A03209047FE
:10278000E068294608220A31C13002F021FDE068E4
:10279000294604221231B93002F01AFD287A0C4F72
:1027A000002802D1687A002834D013E007470000DF
:1027B000B0300020A765000045620000FFFF000068
:1027C000E33E002059530000050B00004D110000AE
:1027D000192200000020E070E0682A7A014680306B
:1027E000837B9A420AD16A7AC07B824206D1082250
:1027F0002846903102F010FD002817D069460020CD
:10280000FFF75AFF012826D006220021F84B0120AD
:10281000984786E7E0680222817911430246817178
:10282000C132FF3011461030B84710E0E0688179BE
:10283000024631438171C13211469830B847E06891
:1028400080308079012802D1EA4902208847E8488F
:10285000A030804765E7E06801A92A228E30033165
:1028600002F0B6FCB8E77CB5451C807829780002F8
:102870000843E14C022810D00F2810D001211D2858
:1028800010D0FF3810280DD0DC4A6946012090474F
:10289000687829780002084302E0032000E0022063
:1028A000A0717CBDA1717CBDD34880797047D449AB
:1028B00008471CB5D3480821017000214170017BF5
:1028C000C27A0902C01C114341D042790379120235
:1028D0001A43891A0BB26A461380417A027A0906B2
:1028E000091411436A46518019220624D201062B8D
:1028F00002DA6B461C8003E0934201DD6B461A80CE
:10290000062902DA69464C8003E0914201DD6946FE
:102910004A80417B027B080210436946C880B9485F
:10292000817B427B0802104369468880B248C068B8
:102930002330417C027C0802104302D00020FFF7C4
:10294000EBFBB14968468847AD49402088471CBD2C
:10295000AC4948780A7800021043C2050CD5FF2222
:10296000013290430870000A48700879401E000642
:10297000000E087109D09CE72022104310229043DA
:10298000042210430870000A48707047FEB59D4D40
:102990000446687829780002084300077ED59B48E2
:1029A000804769782A7809021143082291432970E7
:1029B0000A0A6A706B7A064628461A066FD5A2790B
:1029C00067791202651C3A438B4FE41C002A77D0CA
:1029D0001022114301700A0A427088065FD4687998
:1029E00029790002084332D002F046FE019100909E
:1029F000607821780002084302F03EFE844C0022F9
:102A0000234602F03DFD019B009A02F039FD019141
:102A10000090F8682130417C027C0802104302F0EB
:102A20002BFE0022234602F02BFD07460C46687A57
:102A3000297A00020843801B02F00AFE3A46234628
:102A400002F01EFD019B009A02F068FC24E0607811
:102A500021780002084302F0F3FD0446F8682130B3
:102A6000417C027C0802104302F0EAFD214602F09C
:102A7000FCFB02F02DFE0022654B02F001FD074633
:102A80000C46687A297A00020843801B02F0E0FDB8
:102A90003A46234602F0F4FC002202E06DE063E0D7
:102AA0000EE05C4B02F054FD02F0F4FD0104090C51
:102AB00000D10121584B00228020FFF77AFB53E020
:102AC0009A0651D58278012A4ED18A064CD4FF222B
:102AD0004C48013211430170090A41706078217835
:102AE0000002084347490A7BCB7A11021943884206
:102AF0003AD902F0A5FD0446F8682130417C027CF9
:102B00000802104302F09CFD214602F0AEFB02F0E9
:102B1000DFFD00223E4B02F0B3FC07460C46687A0C
:102B2000297A00020843801B02F092FD3A462346B0
:102B300002F0A6FC0022374B02F00AFD02F0AAFDCB
:102B40000104090C00D10121334B00228020FFF742
:102B500030FB2C484178027809021143FF220132F0
:102B600011430170090A417003206946088102225D
:102B700091032A4C02AB0020A047FEBD10B50446CD
:102B8000007800280DD1A17862780802104309D09E
:102B900001281ED0032827D00C2802D1201DFFF7C2
:102BA00062FE10BD01F0D3FB1D49201D884700289F
:102BB00002D12820FEF7DCFF201DFFF7E7FE0E48BC
:102BC0000121C368062209040020144C3133A047B8
:102BD00010BD01F0BCFB1349201D88470028F7D128
:102BE0002820FEF7C5FF10BD201DFFF7ADFD10BD6D
:102BF000D9190000050B0000B03000201F1D000097
:102C0000B3440000E33E002033420000BF55000003
:102C10000000F43F0000594051290010A13E00007F
:102C20005D5B0000475F000010B50078012801D10E
:102C3000FEF7B5FF10BDF0B5F74885B0804701211C
:102C40007F20FFF778FB69465020FFF772FB68464C
:102C50000078042801D0F1488047FFF76FFBF04C63
:102C6000E0688078012843D0022867D0FFF733FC62
:102C70000125684645800580EA480190EA49684692
:102C8000884768460570457000254580E7480190F3
:102C9000E74BE06808226946C01802F099FA012162
:102CA000E44E4020B04701218020B0470121202080
:102CB000B047FF210C31684601800B21418085809F
:102CC000C580058145818581C581DB48D649049051
:102CD0006846A2398847A0680A3002F0B3FAD84B98
:102CE000D64A5721984701F0D5FB012005B0F0BD29
:102CF000D44880470090E06A067A817ACD07817ACD
:102D0000ED0F490849008172CE4F0120183FB847A6
:102D1000B00701D0FFF7D3FB0220FFF75EFBCA49E3
:102D2000642088470120FFF758FB0098B847E06A05
:102D3000817A490849002943817299E70220FFF707
:102D40004CFB95E7B44810B50A308047012010BD10
:102D5000B14910B528318847012010BDAE4910B5E2
:102D60005E318847012010BDAB4910B56A318847F4
:102D7000012010BDA84910B578318847012010BD49
:102D8000A54910B588318847012010BD10B5A24C67
:102D9000F034A047012010BDF8B5A14CAB49E06864
:102DA0003730884720693B230178BF250A09E1684D
:102DB00012015B5C1B071B0F1A4302701207120FF4
:102DC000012A79D00B4640335A781B7812021A43F5
:102DD0000B4642331A70120A5A7002788B7A2A40D4
:102DE0009B011A435206520E027066235B5C4278C6
:102DF0009B1D92099B0692019B0E1A43427006226C
:102E0000801C0B3102F0E4F9E1686620425C002A84
:102E100004D020696731083002F0DAF9E068002157
:102E20002030417720698A4A41788906890E891CB9
:102E30009047206901780A091201121D0270E168A9
:102E40002A408B7ADB075B0E1A43027046235B5CD9
:102E500042789B1D92099B0692019B0E1A43427079
:102E60000622801C0B3102F0B3F9E1684620425C77
:102E7000002A04D020694731083002F0A9F92069FE
:102E8000734A41782C328906890E891C9047E06884
:102E9000012705462035E97E01293BD000294CD089
:102EA00002294AD0062948D000236A4C1A4601213B
:102EB0001846A047F8BDFFE70A4640321379537120
:102EC0008B7A0278DB072A405B0E1A430270872355
:102ED0005B5C5206520EDB011A43027042780B31E2
:102EE000920992010C3242700622801C02F070F9A5
:102EF0002069E16806220830883102F069F9E1684A
:102F000003223D204254514A8720405C323A8831A6
:102F1000904787E74030417900290AD028200621D0
:102F2000A26A937EFD242340937617756B7F2A7FD8
:102F300046E0477101200146F2E7064642367178C5
:102F400032780B02134318D0192189014B432230E8
:102F5000417F047F0802204301228004800C0090FE
:102F600007D00146184602F009F9020012D07F2A64
:102F700012D8D4B23770380A16E03770390A717037
:102F80002230417F027F0802104301248004800C1C
:102F900000900AE00122ECE77F24104621467E30B3
:102FA00002F0ECF83070000A70701D48806A817E73
:102FB00002221143817607756B7F2A7F0099204694
:102FC0001C4CFE34A0472448804773E710B5FFF738
:102FD000E3FE012010BD10B52049032008701A49F6
:102FE00064201A3188470D4810308047012010BDF9
:102FF00072B600210A4A906A4175037C01210B4395
:103000000374D06845221154423001700021417090
:1030100062B6012070470000793D0000F7460000CD
:10302000B0300020292C00102F4400005F20001039
:10303000CE020000615500007D2B00108C3E002068
:1030400059530000BF6500002B620000B15700001B
:10305000D9600000A13E00009D5600000000024023
:1030600010B5F9498847012010BDF0B5F74CA56AA5
:103070002C4660342678FD27C0073E40800F06436B
:103080002670A170627062352B71180A68710598FC
:103090002071000A6071F0BDF8B5EC4DEC49E868AC
:1030A000373088471120EF68002480013D186E7981
:1030B000A8790321401C02F061F801208840A97121
:1030C000064203D1641CE4B2032CF1D31125AD01F7
:1030D0007C19607B217B00020843A91C7F18010A30
:1030E000DA4E3873797300280BD0607A227A0102A5
:1030F00019201143800102F041F80206120E04D09B
:1031000004E001203873002078730122787A397A3C
:10311000000208430090607A217A03020B43A079F1
:10312000CC49095CE079FFF7A0FFF0680021401965
:103130000171C170017441748178002901D008299E
:1031400001D908218170C2488C388047B2E610B599
:10315000FFF7A2FF012010BD10B5BF488047012036
:1031600010BDBD4910B508318847012010BDBA49CE
:1031700010B516318847012010BDB74910B5783118
:103180008847012010BDB1494870012042E7B2498B
:1031900010B586318847012010BDAF4A10B58E3278
:1031A0009047012010BD7CB5054602F04BF8A749B9
:1031B0000446383102F050F8281D02F043F8A349C4
:1031C0003C3102F049F840208443A448A2490190D0
:1031D000009468469631884701207CBD10B5A0490F
:1031E0008847012010BD9E4A10B508329047012043
:1031F00010BD10B59B488047022801D9002010BDA2
:10320000012010BDF8B50E46974907464878097861
:10321000000208431C461546800609D58B48806A83
:103220002030417B027B0802104301D0FEF7C6FF2D
:103230008E490120884700280CD08A488047022800
:1032400009D972B62346864C2A4631463846183488
:10325000A04762B62EE600202CE68549084710B547
:103260000446824901208847002803D0804920462F
:103270000831884710BD70B505467C4A0C460120D0
:103280009047002804D07A4A2146284622329047A7
:1032900070BDFFB50F4681B074491D46164601202A
:1032A0000A9C8847002807D00094714C2B46324670
:1032B000394644340198A04718E5F8B50E4607464C
:1032C0006A491C46154601208847002806D0234637
:1032D000674C2A46314638467C34A047EAE510B5AB
:1032E0000446624901208847002803D060492046EF
:1032F000AC31884710BD70B505465C4A0C460120CC
:103300009047002804D05A4A21462846C6329047A2
:1033100070BD70B50546554A0C46012090470028FF
:1033200004D0534A21462846E832904770BDF8B58C
:103330000E4607464D491C46154601208847002881
:1033400005D023464B4C2A4631463846A047B1E5C6
:1033500070B50D46064645491446012088470028A9
:1033600005D0444B2246294630463033984770BD3D
:1033700070B50D4606463D49144601208847002891
:1033800005D03C4B2246294630465C33984770BDF9
:10339000F8B50E46074635491C46154601208847B4
:1033A000002806D02346334C2A4631463846883416
:1033B000A0477FE510B504462C4901208847002826
:1033C00003D02C492046B831884710BD10B5274995
:1033D00001208847002802D02648CC30804710BD05
:1033E00070B51A4D0446082804D0E86840780828CB
:1033F0000DD014E000217F20FEF79DFF0121402029
:10340000FEF799FFE86A0178C908C9000EE00021BB
:103410007F20FEF790FF00214020FEF78CFFE86A36
:1034200001786207C908C900520F11430170E868AA
:103430004470012070BDD3E710B504460E488047A4
:103440002070012010BD000001410000B0300020BC
:10345000B1570000206300101D420000BB25001082
:103460002D4300002B4E0000E33E0020F50A000033
:10347000B73A0000BB3B00009F44000010B5044673
:10348000FE48804720700120DCE7FC4910B516316A
:1034900088470120D6E7F94810B56C3080470120F5
:1034A000D0E7F7480047F7490847F6491A31084777
:1034B00008B5F549684688476846C0788007C00F58
:1034C00008BD08B5F049684688476846C078C00915
:1034D00000D0012008BD10B5FEF72BFFB2E710B5F4
:1034E000FEF729FFAEE7E948806AC07B052805D0D2
:1034F000062803D00F2801D000208BE5012089E5A4
:1035000010B5FFF7F0FF002802D1DC484C308047AF
:10351000012097E710B5DD490122886A4275437C96
:10352000DB09DB019B1C4374931E83741B0AC37469
:10353000C96ACB7AEF242340CB724B7B93434B7306
:103540008B7A13438B72817E022319438176017C2F
:1035500011430174CB4905201A318847CC48804774
:1035600001206FE7CA4810B512308047012069E793
:10357000C54910B57E318847012063E7C24910B5BF
:103580009631884701205DE7C14910B55831884719
:10359000012057E7BE49AC310847BD4910B5FA31A3
:1035A000884701204EE710B5BA488047012049E717
:1035B000B84810B518308047012043E7B54BA23317
:1035C0001847B44BD8331847F8B50746AF4800261C
:1035D00080680D463446283001F034FE2903C919AD
:1035E0004118AA48406B814211D9002062E472B6AA
:1035F000A6488068283001F025FE2103C91940182B
:10360000A54A01219047064662B6641CE4B2AC426A
:10361000EDD330464EE4F8B59C4D0446A8681746F5
:103620000E46283001F00EFE0146A21980186A6B82
:1036300090420AD8002908D072B60819964B3A462B
:103640003146EA3B984762B634E4002032E4F8B5EC
:103650008E4D0446A86817460E46283001F0F2FD4C
:103660000146A21980186A6B90420AD8002908D036
:1036700072B60819884B3A463146823B984762B683
:1036800018E4002016E470B5844800240078824EC7
:103690007E4D00280DD001281ED024E072B61430D3
:1036A00001F0D0FD210340180121B04762B6641C2F
:1036B000E4B2A868C17B827B09021143A142EDD824
:1036C00011E072B6103001F0BDFD21034018012158
:1036D000B04762B6641CE4B2A868C17B827B090271
:1036E0001143A142EDD8012070BD70B504460D46CE
:1036F000000B421965488068C17B837B090219432E
:103700008A4201D9002070BD6449634E09780029BE
:1037100002D0012903D00AE072B6143001E072B67B
:10372000103001F08FFD00192946B04762B6012024
:1037300070BDF8B5044659480F4601785348564DB8
:103740008068823D1646002902D0012903D00BE093
:1037500072B6143001E072B6103001F073FD00193A
:1037600032463946A84762B601202EE430B4474BB2
:103770009C68E37BA47B1B0223431B03834202D28E
:1037800030BC0020704730BCD3E730B4444CA44672
:1037900030BC6047F3B53D4889B0806800242830CC
:1037A00001F050FD074609984609002511E072B660
:1037B0006801394BC01920216A46EA3B984762B636
:1037C000002069460A5C401C121994B22028F9D3E3
:1037D0006D1CB542EBD30998C606F60E72B631469B
:1037E00068012D4BC0196A46EA3B984762B6002033
:1037F000694603E00A5C121994B2401CB042F9D346
:103800000A98844202D101200BB0F0BD0020FBE7F2
:10381000F8B51F488A388047204C5734607A002812
:1038200059D00006042500280FDA607821780002BC
:103830000843400709D5FEF7C1FC607821780002F3
:103840000843A8432070000A607060782178000265
:103850000843144F144E41060CD540218843207074
:10386000000A607002206946088002466B463946AD
:103870000020B04760782178000217E0A5440000DE
:10388000FB5F00002B6200004D650000B03000209F
:10389000E546000003480000435400008C3E002031
:1038A0007B4A000000800000A13E00000843C107E1
:1038B00011D0400840002070010A6170800702D5D5
:1038C0006846058002E005206946088002226B46B2
:1038D00039460020B04739E4FB48004738B5FB4C77
:1038E0002078002804D1FA496846884701202070D2
:1038F000012038BDF8B50278002A59D0F5494A723E
:1039000042788A72002A01D0042A01D904228A72DC
:10391000C278847813022343EE4A1C0AD3721473CC
:103920004479057924022C4315466C73240AAC7340
:10393000C479857920022843D073000A1074E348C3
:103940000827C068D21C2130447C007C2402044338
:103950000120A34214D900258D701B1B8C7AA34231
:1039600004DA1071000A50718B7216E0E400A34271
:1039700002DA1071000A01E01771380A50710CE088
:1039800088708E7AE51AB5420EDA060A1071567101
:103990009C4201D1887200E08D72887AC8700871EB
:1039A000FEF787FF012055E4F3009D42E4DAE0E7EB
:1039B00000204FE4C549496A0870020A4A70020CA7
:1039C0008A70000EC870487A02221043487294E54B
:1039D00038B5044600200090BD49684688470099E4
:1039E000F8208143E006000E08430090FFF7E2FF55
:1039F00038BD08B500200090B54968468847009852
:103A00000006C00E009008BDB14872300047B049B2
:103A10005A310847B0490847AF491A310847AF48FB
:103A20000047AE490C310847F8B500260B4604465E
:103A30000125304631462D03675C491CBE19A94259
:103A4000FAD30021675C491C7840A942FAD39E4210
:103A500022D1904220D19D4EB0680A3001F0F2FB95
:103A60009C4900195722573901F0B2FBB0681C304D
:103A700001F0E8FBF168001907220A3101F0A8FB08
:103A80000121974A00209047954B00202246294665
:103A9000823B9847012021E400201FE470B50126F5
:103AA00005468A4C36038E4B00203146EA3BA2691C
:103AB00098478C4928468847A0681C3001F0C2FB13
:103AC000A16907224018E1680A3101F081FB012158
:103AD000834A00209047824B00203146823BA269F6
:103AE000984770BD10B50446784880680A3001F0E8
:103AF000A9FB7B4B1021EA3B224657309847A1E4B3
:103B000070B501260546714C3603754B00203146D1
:103B1000EA3BA26998470121714A00209047A068BA
:103B20000A3001F08FFBA169102257314018294655
:103B300001F04EFB6A4B00203146823BA269984758
:103B400070BD624840690178C943890702D1807815
:103B5000062801D00020D0E40120CEE4624A1047BC
:103B6000F3B581B0060025D0584F386A0446C179B4
:103B700080790D020543E01C01F064FB0102A0788E
:103B800001430C46002D17D0002C15D00121544BB9
:103B900009030020EA3BBA699847B8680A3001F087
:103BA00051FBB9696731405C401CC7B2032F05D98E
:103BB0000220FEBD0120FEBD0420FEBDB54204D1A1
:103BC0000298844201D10020FEBD0121444A002018
:103BD00090473E4CA0680A3001F034FBA269404B8C
:103BE000114667314754012109030020823B984761
:103BF0000320FEBD08B5364968468847009841084D
:103C0000C90701D0002008BD0221084330490090B7
:103C100028318847012008BD2E48012157380278F5
:103C20002A4809078068002A03D0012A07D000200B
:103C300063E4C27B837B10021843400304E0C27B31
:103C4000837B100218430003401856E470B5044605
:103C500020480D46573801781C480126B603806875
:103C6000002903D0012903D0002070BD143000E0EA
:103C7000103001F0E7FA801972B60019184A294687
:103C8000904762B670BDF8B5054612480F465738E2
:103C900001780E480124A40380681646002903D049
:103CA000012903D00020A1E4143000E0103001F01D
:103CB000C9FA001972B64019094B32463946EA3B37
:103CC000984762B692E40000F94B0000B030002043
:103CD0004D650000E33E00202B620000776A000083
:103CE00043540000A13D0000D9600000F8B505462E
:103CF000F8480F460178F8480124A4038068164666
:103D0000002903D0012903D000206FE4143000E023
:103D1000103001F097FA001972B64019EF4B324695
:103D20003946984762B661E410B5030001F085FE9C
:103D30000906101016202A343E58740001217F20F5
:103D4000FEF7F9FA88216120FEF7F5FA812160E09B
:103D500001217F20FEF7EFFA8A21F4E701217F207D
:103D6000FEF7E9FA8A216120FEF7E5FA832150E0A7
:103D700001217F20FEF7DFFA8A216120FEF7DBFABE
:103D8000872146E001217F20FEF7D5FA8A216120B4
:103D9000FEF7D1FA8F213CE001217F20FEF7CBFA1C
:103DA0008A216120FEF7C7FA9F2132E000217F209F
:103DB000FEF7C1FA02213020FEF7BDFA01217F2073
:103DC000FEF7B9FA1F216320FEF7B5FA03216D2033
:103DD000FEF7B1FA8A216120FEF7ADFAB02118E0B2
:103DE00000217F20FEF7A7FA02213020FEF7A3FA78
:103DF00001217F20FEF79FFA1F216320FEF79BFA27
:103E000007216D20FEF797FA8A216120FEF793FAC9
:103E1000BF216520FEF78FFA71E610B5AE4CA068A1
:103E2000283001F00FFA616B081A68E6A94800789B
:103E3000CDE5F8B50546A84EA648B2690078144607
:103E4000002801D000201BE4280502D02805000D21
:103E50002D1A72B60121A14F09030020683FB8470F
:103E600062B6706B2146401B283101F0F5F905461A
:103E70002046103001F0E6F90090281A4108009819
:103E800008182146143101F0E7F901460098081A94
:103E90000001000CA073000AE07372B601218F4A82
:103EA00000208232904762B672B6012109038B4B23
:103EB0000020B269984731210020B268B84762B645
:103EC000012052E48448844BC079DB7902091B0746
:103ED00009201B0FC01A062300215843072A08D0C7
:103EE000032A09D0022A0BD0012A0CD0002A0DD0B7
:103EF0000FE04121C94301E03521C943081A07E019
:103F00002321C943FAE71721C943F7E7801D40423F
:103F100041B2C8B25BE5F3B5714E724F8DB0054644
:103F2000002432226B4621460320B0476846408871
:103F3000A84206D1684601790E98017001200FB0A1
:103F4000F0BDB84204D068460088001984B2E8E7A2
:103F50000020F4E7F3B5624E624F8DB005460024B1
:103F600032226B4621460320B04768464088A8426B
:103F700008D1241DA1B2012203200E9B00F099FA62
:103F80000120DCE7B84204D068460088001984B2FA
:103F9000E6E70020D3E7F3B5514E524F8DB005460A
:103FA000002432226B4621460220B04768468178C1
:103FB000427808021043A84205D1684641790E981C
:103FC00001700120BBE7B84204D0684600780019B0
:103FD00084B2E6E70020B2E73E4910B55731487891
:103FE000097800020843800603D5FEF7E7F80120B0
:103FF00085E5002083E53C4B184710B5044636485C
:1040000080680A3001F01EF9344B0821683B2246D3
:104010006730984773E570B5054672B62E4C012699
:1040200036032E4B00203146683BA26998472B4A45
:104030000121002082329047A0680A3001F002F985
:10404000A169082267314018294601F0C1F8234BC5
:1040500031460020A269984762B670BD2349082006
:1040600008471D494863B2E4FEB51B4D0027A86808
:10407000801D01F0E7F8194E062101AA683EB047FD
:10408000002823D000241CE0A868801D01F0DAF885
:1040900061006118891D40186A460321B047002855
:1040A00014D068460078032809D1684640787F28F4
:1040B00001D169468F78012F01D1572807D0641CA0
:1040C000A4B268460089A042DED80020FEBD684642
:1040D0008078FEBD8C3E0020B0300020C15300002F
:1040E000C9280000FFFF0000192200007919000014
:1040F000F1B5F84E84B0B0680027801D01F0A2F839
:10410000F54D01AA0621A847002823D000241CE071
:10411000B068801D01F096F861006118891D401893
:104120006A460321A847002814D06846007803286F
:1041300009D1684640787F2801D169468F78012FE0
:1041400001D1572808D0641CA4B268460089A04257
:10415000DED8002005B0F0BD72B601273F03394616
:104160000020B269A847DC4A01210020EA329047CA
:10417000B068801D01F066F8B26904998318600088
:10418000201808301954D44B00203946683398471A
:1041900062B6DFE77FB50D464B2109060843029062
:1041A0000024CE480394804700940194CB4C012115
:1041B00005202B4602AAA83CA047C8481C308047CF
:1041C0007FBD7FB5064600246D4629192046FFF7BE
:1041D000E1FF285D3055641CE4B20F2CF5D37FBDA0
:1041E000F3B501010F0CBE4900240A780605651ECF
:1041F000360D81B0002A17D03BE0B64880681430F5
:1042000001F020F821034018B249B34B8A6901211B
:1042100009039847AF4801212A460903806900F045
:104220008BF9641C0546A4B2BC42E6D3002E03D031
:10423000A84FB868143023E00299E84381422ED198
:10424000012046E7A3488068103000F0FBFF2103FF
:104250004018A049A04B8A690121090398479D484D
:1042600001212A460903806900F066F9641C0546AD
:10427000A4B2BC42E6D3002EDED0964FB868103010
:1042800000F0E0FF21034018934B3146BA6998478C
:104290002A463146B86900F04FF90546CCE70020C0
:1042A00017E78E490320F439084770B50126894C79
:1042B00036030546884B31460020A2699847A0681E
:1042C000801D00F0BFFFA1692A01491C4254824AA7
:1042D00001210020EA3290477F4B002031466833AD
:1042E000A269984770BD00B57A48ADB080681C30AF
:1042F00000F0A8FF784B6A46AD219847002804D00B
:1043000020A8817A427A080210432DB000BD70B512
:104310000126704C360305466F4B31460020A269DA
:104320009847A0681C3000F08DFFA16942188132C7
:104330001572280A5072684A01210020EA3290471B
:10434000654B002031466833A269984770BD10B5AF
:1043500000F003F9002804D000F0FFF80128FBD09A
:104360005AE500F0FAF80028FBD000F0F6F8012832
:10437000FBD051E5F0B5574C0025A46AE678360726
:1043800001D50020F0BD00BF6D1CEDB2642DFAD345
:10439000254640356E7CB607FCD400252646C0363F
:1043A000377947556D1CEDB2022DF9D346780125BA
:1043B000F709002F08D0F606F60E0E701570427839
:1043C0005206D20F1A7004E0B3069B0E0B70002346
:1043D0001370404B0A789B6A801CC033272A0CD28A
:1043E0000022C03403E026798654521CD2B20E78E3
:1043F0009642F8D85D720120F0BD5D72C1E710B53C
:10440000027800219207920F324B012A39D0022AFA
:104410000CD0032A33D182780E2A2FD84078314B22
:10442000C0069A5CC00E904228D028E04278D2069E
:10443000D20E042A07D9C278847812022243172A9E
:1044400001D8012200E000225A71002A17D04179D8
:10445000027909021143052910D006290ED1C1782D
:1044600082780902114380791E4A40000F32801879
:104470004038C08F814201D0002100E00121084670
:10448000CAE459790029F7D04078C006C00E172831
:10449000F4D9F1E770B5144D00240E4EA847F16829
:1044A0000919FF310131641CE4B2C873102CF5D333
:1044B00070BDFFB5074C0200E06981B01E460D4695
:1044C00006D0012A12D0022A12D0032A12D015E0F7
:1044D000001D10E0B0300020595300001D500000B6
:1044E0008C3E002023630010FB5F0000083002E0D8
:1044F0000C3000E0103000F0A5FE01464D1972B6F8
:1045000001273F031B4B39460020A269984762B63A
:10451000A06931464019039A00F05AFE72B6012193
:10452000144A0020EA329047124B00203946683383
:10453000A269984762B60DE630B5034600200E4CDE
:1045400007E01D5C55402D06AD0D6559120A6A4005
:10455000401C8842F5D3104630BD0848816A0A469F
:104560006032907C927C603101E0887C8A7C904251
:10457000FBD15DE45953000048630010B0300020C7
:1045800070B51E46002915D0FE4DAC696B699C4282
:1045900010D205C40846083C01F06EF8FA4AFB4BFD
:1045A00000F06EFF01F076F8A060267300206061D5
:1045B0001834AC6170BD884200D3084670470022B1
:1045C00006E00021491C89B21829FBD3521C92B283
:1045D0008242F6D3704710B5EA4C60682030017C07
:1045E000C9070FD0017C490849000174082000F078
:1045F000CCFA60682030417C0122114341743220A2
:10460000FFF7DDFF10BD70B5DE4C0D466168034657
:104610002031087CC00706D0087C400840000874A0
:104620003220FFF7CCFF626820321375180A5075EC
:10463000180C9075180ED075107CEF21084010747E
:10464000907C400840009074D1480560507C012562
:1046500028435074082000F08FFA60682030017CF5
:104660002943017470BDCEE770B5C64D1821287876
:10467000AE68484369690C1A2869801928610020CE
:10468000C043A86018E0207B002814D02069B04205
:1046900004D16068002807D0804705E0801B2061B6
:1046A00002D0A168884201D9A0682061A968884227
:1046B00000D90846A860183468698442E3D3A86822
:1046C000002805D0411C03D0B249FFF7CCFF70BDD4
:1046D000FFF781FF70BDF0B5AA48AF4D416840318A
:1046E0000B7918464B791B0218438B79CA791B0446
:1046F000184312060E79104332464E793602324381
:104700008E79CB79360432431B060F791A433B4628
:104710004F793F023B438F79CE793F043B433606C6
:104720003343641C904201D19A4201D0AC42D7D3AA
:10473000F0BDF8B50446FFF7CEFF924A91680B1A18
:1047400013610023884200D913610020C0439060A8
:1047500011781820414350691769411A17E00D6814
:10476000A54202D10B734B6110E00D7B002D0DD0E3
:104770000D69ED1B0D6102D08E68B54201D98D68BF
:104780000D619668B54200D82E4696601831814278
:10479000E5D39068002805D0411C03D07D49FFF780
:1047A00062FFF8BDFFF717FFF8BDF3B581B006460D
:1047B000FFF7BFFF734818220178456951436C1A0F
:1047C000714F0FE02068B0420BD1A06820610298C1
:1047D00000F052FF3A466D4B00F052FE00F05AFFD7
:1047E000A0601834AC42EDD3FEBD6649CA6882436E
:1047F000CA607047F8B5634C0546207818214843D5
:104800006169081A06E00268AA4202D1027B002A06
:104810003AD118308842F6D3FFF75DFFA1680A1A33
:104820002261884201D9002020610020C043A0609D
:104830002078182163694843191A0127266919E06D
:104840000868A84203D1886808610F730BE0087BF1
:1048500000280ED00869801B086102D08A68904247
:1048600001D9886808610246A068824200D81046D3
:10487000A06018319942E3D3A068002805D0411CFC
:1048800003D04449FFF7EFFEF8BDFFF7A4FEF8BDE3
:10489000F8B53C4C0546E068A843E060FFF71BFF15
:1048A000A1680A1A2261884201D9002020610020F3
:1048B000C043A0602178182063694143591A012739
:1048C000266919E00868A84203D1886808610F7357
:1048D0000BE0087B00280ED00869801B086102D01D
:1048E0008A68904201D9886808610246A0688242BD
:1048F00000D81046A06018319942E3D3A068002880
:1049000005D0411C03D02349FFF7ADFEF8BDFFF7EA
:1049100062FEF8BD1B4918220B7853434A69D11A2D
:1049200005E00B68834201D1087B70471831914242
:10493000F7D3FF20704770B50D460446FEF7CEFF53
:10494000002808D00F48182104704C436119856174
:104950004161FFF740FE70BD0A494A6811462031A7
:104960000875030A4B75030C8B75000EC8758B7C9C
:10497000012003438B744B7C03434B740B7C034338
:104980000B740BE0F0300020FCA9F1D24D624040E6
:10499000F43E002069460010FF3F00002032D37C27
:1049A000DB07FCD00A7C520852000A744A7C02439E
:1049B0004A7470477C4840682030C17CC90708D0E1
:1049C000417C01221143417478480068002800D0DE
:1049D0000047704770B5744C064660680D4620303D
:1049E000017CFD238907002905DA017C1940017447
:1049F0003220FFF7E4FD626820321676300A5076E6
:104A0000300C9076300ED076107C20210843107444
:104A1000907C1840907465484560507C022528437E
:104A20005074092000F0A8F860682030017C294308
:104A3000017470BD10B55C4C60682030017C890742
:104A40000FD5017CFD2211400174092000F09DF872
:104A500060682030417C0222114341743220FFF70C
:104A6000AEFD10BD504840682030C17C890708D594
:104A7000417C0222114341744C484068002800D018
:104A80000047704770B5484C064660680D462030B8
:104A9000017CFB234907002905DA017C19400174D8
:104AA0003220FFF78CFD626820321677300A50778B
:104AB000300C9077300ED077107C40210843107472
:104AC000907C1840907439488560507C04252843B8
:104AD00050740A2000F050F860682030017C2943AF
:104AE000017470BD304808214068403041180A7890
:104AF00010464A78120210438A78C978120410438B
:104B000009060843704728480C2140684030411886
:104B10000A7810464A78120210438A78C97812043B
:104B2000104309060843704710B51F4C60682030D9
:104B3000017C49070FD5017CFB22114001740A203A
:104B400000F023F860682030417C04221143417456
:104B50003220FFF734FD10BD134840682030C17C7F
:104B6000490708D5417C0422114341740F488068ED
:104B7000002800D000477047002805DBC106C90E99
:104B8000012088400A490860704700280ADBC106F6
:104B9000C90E01208840064980310860BFF34F8F5D
:104BA000BFF36F8F70470000F0300020F43E00200C
:104BB00000E100E018B5F648006800900020694662
:104BC0000B5C0A241A0962431B070A541B0FD218F4
:104BD0000A54401C0328F3DB009818BD08B5FFF702
:104BE000E9FF009068460178C078EA4A401E5043C9
:104BF0000A1868468178E120000141436846407800
:104C00003C23584308181118E34A1069814201D324
:104C1000081A02E0E14B081AC018116108BD70B50E
:104C20000D46002802D0DA4E083E01E0D84E0C3E78
:104C30000024285D0A2100F0A1FA00010143295552
:104C4000641C032CF5DB284600F0FCFA306064207D
:104C5000FFF7B5FCCE482038C17A08221143C17253
:104C600070BD38B5CC4909694418CA49204600F0DE
:104C700085FA421C6846C270E12508462D01294686
:104C800000F07CFA0246684682702946204600F011
:104C900075FA08463C2100F071FA014668464170F9
:104CA0003C21204600F06AFA6846017069460020FF
:104CB000FFF7B5FF38BD38B5FFF77CFF00906846B9
:104CC0000178C078B34A401E50430A18684681787C
:104CD000E12000014143684640783C2358430818CE
:104CE0001118AD4BAE485A6A0468914201D38A1A32
:104CF00002E0AA4D8A1A5219A2180260104659629F
:104D000038BD70B500290BD0A34D6E69AC69B442B3
:104D100006D2A16005C423710020E0601034AC61AC
:104D200070BD884200D308467047994920398A7A75
:104D30000F238343887A1A400009000110438872C8
:104D4000704770B5C00742D0934C182160786668F0
:104D500048436169081A0A4603E0037B002B02D12D
:104D600018309042F9D3884231D2FFF737FFE1681B
:104D700060680818E0600020C04360606178182017
:104D800041436069451A18E0287B002814D028693F
:104D9000B04204D16868002807D0804705E0801B36
:104DA000286102D0A968884201D9A8682861616891
:104DB000884200D908466060183560698542E3D3AF
:104DC0006068002804D0411C02D0FFF74AFF70BD84
:104DD0000120FFF7AAFF70BD6F498A6882438A608D
:104DE0007047F8B50446FFF7F9FE6B4AD06072B61B
:104DF0000021C94351605178182359435369591A06
:104E0000002717E00D68A54202D10F734F6110E033
:104E10000D7B002D0DD00D692D1A0D6102D08E680D
:104E2000B54201D98D680D615668B54200D9354645
:104E3000556018319942E5D35068002804D0411CD0
:104E400002D0FFF70EFF02E00120FFF76EFF62B60F
:104E5000F8BDF8B5504C05466078182148436169A3
:104E6000081A06E00268AA4202D1027B002A38D161
:104E700018308842F6D3FFF7B1FEE06072B6002129
:104E8000C94361606178182266695143711A01272C
:104E900019E00A68AA4203D18A680A610F730BE01D
:104EA0000A7B002A0ED00A69121A0A6102D08B68A6
:104EB0009A4201D98A680A6113466268934200D80F
:104EC0001A4662601831B142E3D36068002804D00A
:104ED000411C02D0FFF7C5FE02E00120FFF725FFCD
:104EE00062B6F8BD2C49C8617047F1B582B0FFF7D2
:104EF00075FE294DE86072B60021C9436960697882
:104F00006E69182251430090741AEF6920E02068FE
:104F1000B84209D13C21029800F030F93C20401AF7
:104F20002061012020730CE0207B00280FD0216934
:104F30000098081A206102D0A168884201D9A068AF
:104F4000206120696968884200D908466860183481
:104F5000B442DCD36868002804D0411C02D0FFF7BB
:104F600080FE02E00120FFF7E0FE62B6FEBD0A49C6
:104F700018224B7853434A69D11A05E00B688342E3
:104F800001D1087B704718319142F7D3FF20704759
:104F9000C0100050805101000C310020803A0900FF
:104FA000A830002071490878002808D17048C37AD9
:104FB00001221343C372C37ADB07FCD10A70704726
:104FC0006A49086270476A498A7A024310078A7AF6
:104FD000000F1209120102438A72704764498A7AEB
:104FE0001209024310018A7A1207120F02438A72D1
:104FF000704770B505460024285D0A2100F0BEF810
:10500000000101432955641C032CF5DB284600F000
:1050100019F957492039C86370BD554A138A401E93
:10502000DB0BDB034004400C03431382907C090735
:1050300000090001090F0843907470474C48C17A79
:1050400004221143C172C17A4907FCD47047474911
:105050000878012809D14648C27A02231A43C2724D
:10506000C27A9207FCD4002008707047F3B581B073
:10507000FFF7EDFFFFF7E2FF01200021C003FFF77C
:10508000CCFF6420FFF79BFA01216846C170002421
:10509000847044700470FFF7ACFF344D07262C6118
:1050A0006846C670172787703B24447004706946B1
:1050B0000120FFF7B4FD6846C67087704470047025
:1050C00069460020FFF7ABFD0F20FFF787FF0F2099
:1050D000FFF72BFE0120FFF776FF02982862FFF70B
:1050E00061FF244904200860FEBD70B50D460446EA
:1050F000FEF7F4FB00280BD01C48182144704C43E9
:1051000061198561416101201B49C003FFF7AEFFB2
:1051100070BD10B51648407A03071B0F1846FFF7FD
:105120005DFF1248016A002901D01846884710BD6A
:105130000E480078704718B5002802D00C48183087
:1051400001E00B48143000680090002069460B5CB9
:105150000A241A0962431B070A541B0FD2180A5467
:10516000401C0328F3DB009818BD00000C31002020
:10517000A010005000E100E0434D001030B50B4698
:10518000014600202022012409E00D46D5409D4221
:1051900005D31D469540491B2546954040191546A7
:1051A000521E002DF1DC30BD70B5002425460028CC
:1051B00001DA01244042002901DA01254942FFF7C2
:1051C000DDFFAC4200D04042002C00D0494270BD0F
:1051D00003460B439B0703D009E008C9121F08C010
:1051E000042AFAD203E00B780370401C491C521EBB
:1051F000F9D27047D2B201E00270401C491EFBD2C6
:1052000070470022F6E710B513460A4604461946D1
:10521000FFF7F0FF204610BD30B5044600200346DE
:1052200000E05B1C934203D2E05CCD5C401BF8D0F5
:1052300030BD03460A780270401C491C002AF9D18F
:10524000184670470321001D401E037812021A43BE
:10525000491EF9D510467047034603220870000A1C
:10526000491C521EFAD518467047F8B502464A4006
:10527000D40F42004B0052085B089A4202D2024609
:10528000084611464A0023D0C30D4A00DDB2120E73
:10529000AD1A202D35DA49020126490AF6058A1988
:1052A000002C00D0524220214F1B1146B9402A4108
:1052B0001018C20D9A4221D0002C17D0012D08DC05
:1052C000DA05801AD20F8019D207DBB200F080FA1B
:1052D000F8BDDA05801A012340001B06C0188018AB
:1052E0005A428018CA0F1043490007E04908C20714
:1052F0001143DA05801A80194008801800F060FA1E
:10530000F8BD61000122511A001BF7E70122D20704
:105310005140AAE70122D2075040A6E7F0B5074660
:105320000846584087B0C00F049048000E46590008
:1053300040084908BC1A884105D2384631461E4605
:1053400017460B4602465800400810434CD0300D1B
:10535000039040055900400D490D0590401A0290F8
:10536000402872DA18030121000B09050843019057
:1053700004980092002805D00199524200208841EB
:1053800000920190029840210A1A0199009800F0B9
:10539000E3F905460C466B4607CB00F0FEF9C01951
:1053A0007141039A0E0D0023D71756401A467A40D2
:1053B000164344D0049A002A2DD0029A012A039A57
:1053C00015DC1205C01A914101263605001C7141F9
:1053D000D20F059ED2070093019202962A462346D9
:1053E00000F03CFA07B0F0BD38463146FAE7160542
:1053F000224A0F46B218C01AB74101210905001C04
:105400004F4100187F41114618187941E20F1043AF
:105410006D19644113E0E2076D0815436408C20783
:105420001443039A01261205C01A91413605001C47
:105430007141CE07400830434908C01851412A46FF
:10544000234600F0FEF9CDE7FFE704980122400073
:10545000C117121A00238B4104983146C417381A19
:10546000A141EEE730B40124E407634030BC55E7C6
:1054700030B40124E407614030BC4FE70000E0FF96
:10548000F0B51FB488B00B990998002448400999D9
:10549000C00F490049080991C0070B9900904900C5
:1054A00049080B9109990898A64608431CD00B9906
:1054B0000A98084318D0099801244000420D48007A
:1054C000410D099824050003000B204309900B9817
:1054D0000003000B20430B9050181C494018002279
:1054E00001901446104605E0002001460DB0F0BDC5
:1054F000032801DA034600E003239C46C11A0AAEE2
:105500000AE05F0008ADED5B4F00F75B7D430027CD
:10551000AA187C41491C5B1E6145F2DD410004ABC9
:105520005A522104120C0A43240C401C0828DFDBC9
:10553000019802900099704601910090059B049A91
:105540000799069800F08AF9D0E700000DFCFFFFEC
:10555000F0B50C465C4085B0E40FE40703944C00C2
:1055600000266408590094464908024602962243E0
:1055700021D062460A431ED06200570D4A000E0336
:105580002303550D012402462C492405781B1B0BCF
:10559000360B401823432643614600901C46501AA0
:1055A000B44103D30098401C009002E09218009888
:1055B0005B41002803DA0020014605B0F0BD002061
:1055C000012109050746864611E064461D46141B65
:1055D000B54106D36546521BB341744607430C439D
:1055E000A646CD0740084908284392185B41054666
:1055F0000D43EAD11046184313D060461946504077
:105600007140084306D06046101AB34106D2012209
:10561000002306E000220123DB0702E00122D2433F
:105620005310009874460105381C6141029C039D8B
:105630000019694100F005F9BFE70000FD03000013
:1056400010B500229623114600F0C2F810BD0000EC
:105650000EB5C217C10F5040CA0740180021054BB4
:105660000293019200910A460B4600F0F7F803B04E
:1056700000BD0000330400000EB505490291002171
:1056800000910A460B46019100F0E8F803B000BD16
:10569000330400004A0009030123090B1B051943C9
:1056A000094B10B5520D9A4201DA002010BD064B8D
:1056B00034339A4203DC9A1A00F05EF810BD0349B5
:1056C0005118884010BD0000FF030000CDFBFFFF14
:1056D000C20FD207400040080BD0C10D0723DB01E9
:1056E000C91840020905400A1143C2084007114386
:1056F0007047002001467047F0B51FB406460020F1
:1057000082B005464024019100901BE00199224699
:105710000F46304600F030F8049A059B801A9941F4
:1057200010D310461946224600F016F8361A8F415B
:105730000197224601200021009F00F00DF8381843
:105740004D4100902046641E0028DFDC019B00983C
:105750002946324607B0F0BD10B5202A04DB0146C9
:10576000203A9140002010BD914020239C1A03460E
:10577000E3401943904010BD10B5202A04DB0846D1
:10578000203AD040002110BD0B46D340D040202409
:10579000A21A91400843194610BD10B5202A06DB15
:1057A000CB170846203A1041C1170B4306E00B46C1
:1057B0001341D0402024A21A91400843194610BD3D
:1057C000002904DA401C490001D14008400070471C
:1057D00070B40024050C05D11024000402D1002966
:1057E00021D01124050E01D100020834050F01D18A
:1057F0000001241D850F01D18000A41C002801DBBD
:105800004000641C002908D020252E1B0D46F540C1
:10581000A14000D001212943084301061B1B000AB7
:10582000DB1D02D5002070BC7047DB0518188018FE
:105830000029F8DA401C4900F5D170BC400840004E
:10584000704710B5002B08DA0024401C6141921803
:105850005B411A4301D14008400010BDF0B51FB4B0
:1058600082B005460C0003D0084600F0CFF802E0F5
:1058700000F0CCF820300246009021462846FFF781
:105880006BFF049B059A04460F46184311430843D7
:1058900014D0184610431BD0009840210A1A18460D
:1058A0000599FFF769FF05460E46009A0599049889
:1058B000FFF752FF084305D0012004E02046394697
:1058C00007B0F0BD0020C11705430E432C433743FA
:1058D00000990E986305401A7905E40A00220C43EA
:1058E000FD0A0A3002D500200146E9E7010510193A
:1058F00069410C9C0D9D00196941FFF7A2FFDFE78C
:105900004A0009030123090B1B0519430A4B10B573
:10591000520D9A4202DA0020014610BD064B343384
:105920009A4203DC9A1AFFF727FF10BD034BD218E7
:10593000FFF712FF10BD0000FF030000CDFBFFFFCB
:1059400010B5002904DB0124E40740428C412146C4
:10595000002B04DB1C460123DB075242A341994282
:1059600000D1904210BD0000064C0125064E05E016
:10597000E36807CC2B430C3C98471034B442F7D370
:10598000FAF7A2FB486700106867001070B58C1822
:105990000578401C6B075B0F01D10378401C2A116E
:1059A00006D10278401C03E006780E70401C491CAA
:1059B0005B1EF9D12B0705D40023521E0DD40B70AA
:1059C000491CFAE70378401CCB1A921C03E01D78AF
:1059D0000D70491C5B1C521EF9D5A142D8D3002082
:1059E00070BD00000FB410B504A9074B02AA0398BC
:1059F00000F0ECF8044602A9002000F083FC2046E9
:105A000010BC08BC04B01847056300102021020C2C
:105A100001D010211046020A01D0104608390209AF
:105A200001D01046091F820801D01046891E420885
:105A300001D0881E7047081A704730B47446641E3F
:105A40002578641CAB4200D21D46635D5B00E31801
:105A500030BC184702E008C8121F08C1002AFAD15A
:105A600070477047002001E001C1121F002AFBD1DE
:105A700070470000F0B51FB484B007980699020D76
:105A8000014314D04A484B491018484305140F9855
:105A900001280E981CD0281A401C0024464E474965
:105AA000009401910290002814DA474227E00F98F1
:105AB000012443A3012808D0002104980F9A846090
:105AC0000360C260416009B0F0BD0E98C143F4E7C5
:105AD0004042E2E7074612E0F80707D02246334685
:105AE00001990098FFF7CCFC0191009022463346C3
:105AF00010461946FFF7C4FC04460E467F10002FDF
:105B0000EAD10298019B0028009A0799069802DAC8
:105B1000FFF7B6FC01E0FFF71BFD04460E4600222E
:105B2000284BFFF70DFF03D80020C043014607E0D4
:105B30000022254B20463146FFF7F0FBFFF7E0FE41
:105B4000102409E0002C0ADB0A220023FFF7D4FD11
:105B5000059B30321A55641E02460A43F2D11122C7
:105B6000641C059B121B1C190F9B012B03D00123E6
:105B700008430ED10AE0084304D011200E90002003
:105B80000F9084E70E98151A6D1E0BE00E98824256
:105B900002DD00236D1C03E0824201DA00236D1E4A
:105BA000002BEED004980F998260C16030C08AE764
:105BB00001FCFFFF104D0000000024400000F03FFA
:105BC000300000000000F0430000E03FFFB597B058
:105BD0000646002518E2252877D100242746FD49EE
:105BE000049400E00443761C32780120203A90406F
:105BF0000842F7D130782A280ED0022230780146A8
:105C00003039092916D804990A23594330394018E4
:105C10001443761C0490F1E7189802C80491189078
:105C2000002904DA01204003044348420490022082
:105C30000443761C30782E2814D104200443707855
:105C4000761C2A2809D11898761C80C8189009E07B
:105C50000A214F43303FC719761C3078014630394E
:105C60000929F5D930786C2810D006DC4C281AD0D8
:105C700068280ED06A2817D104E0742813D07A2837
:105C800012D110E00120400504430CE00121090578
:105C900001E0032109050C437178814203D1012001
:105CA00000052418761C761C3078119066280BD0DD
:105CB00013DC58287DD009DC00287BD04528F6D09D
:105CC0004628F4D047281AD1A5E118E0632835D03A
:105CD000642870D0652812D19DE170286CD008DC52
:105CE0006728F1D069287BD06E280DD06F2806D1A7
:105CF000BAE073282ED0752871D0782859D01A9A16
:105D0000199990476D1C7EE16002400F022809D06E
:105D100003280DD00428189801680DD00D60001DCF
:105D2000189070E11898EA1701680D604A60F6E76C
:105D3000189801680D80F2E70D70F0E718986A4630
:105D400001781172001D18900020507202A8009076
:105D5000012005E0189802C8189000200091C04367
:105D600061070DD5002101E00199491C0191B9425B
:105D700012DA8142F8DB009A515C0029F4D10BE081
:105D8000002101E00199491C01918142FADB019A4D
:105D90000099895C0029F5D1019904981A9B471A4A
:105DA00021463846199A00F097FA0199401945188A
:105DB0000BE04FE02CE113E04EE0009800990078F2
:105DC000491C00911A9A199990470198401E019018
:105DD000401CF2D1214638461A9B199A10E137E04F
:105DE0000A200021009001916002410F022907D092
:105DF000189A01CA1892C2179446032908D00AE0DB
:105E00001898C01DC108C90005C91891944607E03B
:105E100000B2C2179446042902D140B2C1178C4681
:105E200000226146944506DA0A460021404291412B
:105E30008C462D2102E0210504D52B216A461173E1
:105E4000012103E0E10701D02021F7E7029155E0AD
:105E50000A200AE0102008E0102000900021042011
:105E600004430191082703E00820002101910090DC
:105E70006002410F022907D0189A01CA1892002225
:105E80009446032908D008E01898C01DC108C9002D
:105E900005C91891944603E080B2042900D1C0B22C
:105EA00000210291210729D51199702906D0009A65
:105EB0001021019B4A401A4305D00EE040216A465A
:105EC0001173012108E06146014306D030216A4682
:105ED00011731199517302210291009A0821019BBB
:105EE0004A401A430AD16146014301D1610705D5F1
:105EF00030216A46117301217F1E029111995829A0
:105F000004D035A10E910DA90D910DE037A1F9E74F
:105F10006146019B009AFFF7EFFB0E9B8C469B5C52
:105F20000D9A521E0D92137061460143F0D10D98E7
:105F300005A9081A20300190600703D5012000044C
:105F4000844300E001270198874201DD381A00E010
:105F50000020019900904118029809180498401AED
:105F60000490E00306D421461A9B199A049800F085
:105F7000B3F94519002706E003A81A9AC05D1999DC
:105F800090476D1C7F1C02988742F5DBE0030CD51F
:105F900021461A9B199A049800F09EF9451904E0CD
:105FA0001A9A3020199990476D1C0099481E00904C
:105FB0000029F5DC08E00D980D990078491C0D9139
:105FC0001A9A199990476D1C0199481E0190002951
:105FD000F1DC63E1092801003031323334353637E2
:105FE0003839616263646566000000003031323325
:105FF00034353637383941424344454600000000C5
:1060000000F05AF94519761C3078002800D0E2E5F6
:1060100028461BB0F0BD600700D406271898C01DA5
:10602000C108C90048680A680831C30FDB07189126
:10603000190001D09CA108E0210501D59BA104E035
:10604000E10701D09AA100E09AA1430011985B08F2
:10605000109165280CD006DC452809D046281DD0B3
:10606000472841D141E0662818D067283CD13CE060
:106070000021112F01DB112000E0781C019100901C
:1060800008A911A8FFF7F6FC139905910021119AB0
:1060900015927F1C12980197009150E00120C007D3
:1060A00003900120019008A9009711A8FFF7E2FCD6
:1060B000139A149905920022119B0092129815933D
:1060C000059A0192002901D0104602E0791C40187F
:1060D0000190381A01D5019804E04042401E00901A
:1060E000781C0190C01B029043E0012F00DA0127C9
:1060F0000021112F01DD112000E0384601910090B0
:1061000008A911A8FFF7B6FC13990591119A00216F
:10611000129815920091019721070CD40599B94264
:1061200001DB019900E00191012904DD159A491E66
:10613000515C302906D0B84201DA011D05DA01218F
:10614000029115E00199491EEDE7002805DC009950
:10615000411800910199091A03E0019A411C9142EA
:1061600000DD01910099401A401C02900120C007F7
:106170000390200706D402990198814202DB002097
:10618000C043029000206946C87707AF01210398F9
:106190000337C907884224D0022011902B20129087
:1061A000039800280CDA404203902D20129007E05B
:1061B0000A210398FEF7E2FF30317F1E0390397009
:1061C0001199481E11900029F2DC03980028EFD1A4
:1061D000791E129808703078202108404530BF1E83
:1061E000387006A8C01BC01D0390109800780028C6
:1061F00000D00120019941180298C017091803988E
:1062000009180498401A401E0490E00306D4214661
:106210001A9B199A049800F05FF8451910980078B5
:10622000002803D01A9A199990476D1CE00324D5D1
:1062300021461A9B199A049800F04EF845191CE063
:106240000098002807DB00990598884203DD15981F
:10625000405C199901E0199930201A9A90470098EA
:106260006D1C401C00900298401E0290002804D132
:106270001A9A2E20199990476D1C0199481E019079
:106280000029DDDC05E038781A9A7F1C19999047BF
:106290006D1C0399481E03900029F4DC21461A9BCB
:1062A000199A0498ACE600002D0000002B000000B5
:1062B0002000000000000000F8B5044600251E463E
:1062C0001746880404D405E039462020B0476D1CE9
:1062D000641EF9D52846F8BDFFB50446002581B0F7
:1062E0001E46C80301D5302700E02027880404D5C6
:1062F00005E038460399B0476D1C641EF9D5284661
:1063000005B0F0BD0A68531C0B6010707047303147
:10631000323334353637383941424344454600003C
:106320002526270C0802170D0101020909010106A3
:1063300002000700070011001100020011000B000D
:1063400011000800110002000000000096300777DD
:106350002C610EEEBA51099919C46D078FF46A7059
:1063600035A563E9A395649E3288DB0EA4B8DC7979
:106370001EE9D5E088D9D2972B4CB609BD7CB17EF9
:10638000072DB8E7911DBF906410B71DF220B06AC9
:106390004871B9F3DE41BE847DD4DA1AEBE4DD6DD9
:1063A00051B5D4F4C785D38356986C13C0A86B64D9
:1063B0007AF962FDECC9658A4F5C0114D96C0663F9
:1063C000633D0FFAF50D088DC8206E3B5E10694CD9
:1063D000E44160D5727167A2D1E4033C47D4044B19
:1063E000FD850DD26BB50AA5FAA8B5356C98B242F9
:1063F000D6C9BBDB40F9BCACE36CD832755CDF4579
:10640000CF0DD6DC593DD1ABAC30D9263A00DE51A8
:106410008051D7C81661D0BFB5F4B42123C4B35698
:106420009995BACF0FA5BDB89EB802280888055F18
:10643000B2D90CC624E90BB1877C6F2F114C685878
:10644000AB1D61C13D2D66B69041DC760671DB0166
:10645000BC20D2982A10D5EF8985B1711FB5B60638
:10646000A5E4BF9F33D4B8E8A2C9077834F9000F78
:106470008EA8099618980EE1BB0D6A7F2D3D6D0818
:10648000976C6491015C63E6F4516B6B62616C1C08
:10649000D83065854E0062F2ED95066C7BA5011B38
:1064A000C1F4088257C40FF5C6D9B06550E9B712D8
:1064B000EAB8BE8B7C88B9FCDF1DDD62492DDA1598
:1064C000F37CD38C654CD4FB5861B24DCE51B53AB8
:1064D0007400BCA3E230BBD441A5DF4AD795D83DB8
:1064E0006DC4D1A4FBF4D6D36AE96943FCD96E34F8
:1064F000468867ADD0B860DA732D0444E51D0333D8
:106500005F4C0AAAC97C0DDD3C710550AA410227E7
:1065100010100BBE86200CC925B56857B3856F20B7
:1065200009D466B99FE461CE0EF9DE5E98C9D92917
:106530002298D0B0B4A8D7C7173DB359810DB42E57
:106540003B5CBDB7AD6CBAC02083B8EDB6B3BF9AA3
:106550000CE2B6039AD2B1743947D5EAAF77D29D2F
:106560001526DB048316DC73120B63E3843B64940F
:106570003E6A6D0DA85A6A7A0BCF0EE49DFF09930F
:1065800027AE000AB19E077D44930FF0D2A308877F
:1065900068F2011EFEC206695D5762F7CB6765802F
:1065A00071366C19E7066B6E761BD4FEE02BD3892F
:1065B0005A7ADA10CC4ADD676FDFB9F9F9EFBE8E8F
:1065C00043BEB717D58EB060E8A3D6D67E93D1A1CF
:1065D000C4C2D83852F2DF4FF167BBD16757BCA6AF
:1065E000DD06B53F4B36B248DA2B0DD84C1B0AAF4F
:1065F000F64A0336607A0441C3EF60DF55DF67A8CF
:10660000EF8E6E3179BE69468CB361CB1A8366BC5E
:10661000A0D26F2536E2685295770CCC03470BBBAE
:10662000B91602222F260555BE3BBAC5280BBDB2AE
:10663000925AB42B046AB35CA7FFD7C231CFD0B54E
:106640008B9ED92C1DAEDE5BB0C2649B26F263EC40
:106650009CA36A750A936D02A906099C3F360EEB4E
:106660008567077213570005824ABF95147AB8E20E
:10667000AE2BB17B381BB60C9B8ED2920DBED5E5EE
:10668000B7EFDC7C21DFDB0BD4D2D38642E2D4F13E
:10669000F8B3DD686E83DA1FCD16BE815B26B9F6CE
:1066A000E177B06F7747B718E65A0888706A0FFF2E
:1066B000CA3B06665C0B0111FF9E658F69AE62F8EE
:1066C000D3FF6B6145CF6C1678E20AA0EED20DD7EE
:1066D0005483044EC2B30339612667A7F71660D00E
:1066E0004D476949DB776E3E4A6AD1AEDC5AD6D94E
:1066F000660BDF40F03BD83753AEBCA9C59EBBDE6E
:106700007FCFB247E9FFB5301CF2BDBD8AC2BACA1D
:106710003093B353A6A3B4240536D0BA9306D7CD8D
:106720002957DE54BF67D9232E7A66B3B84A61C4AD
:10673000021B685D942B6F2A37BE0BB4A18E0CC36D
:106740001BDF055A8DEF022D686700100030002016
:10675000340100008C59001004680010343100200E
:10676000CC110000645A0010C11702010503030197
:106770008309FF080B1209095359445F55415254CC
:1067800014011113503082201360101B5024041A7E
:1067900014041A1804221052405818010203040568
:1067A000060708090A1112131415161718191A1BCF
:1067B0001E1F181808090A0708111512162C13199C
:1067C000141812D01C0150E004512324F462041365
:1067D000ED052320DF1B208F081AC604134A071477
:1067E000201E061B2014141A907019CE124019088E
:1067F000298821E20819141AFF010114091618B298
:046800000200000092
:04000005100000C126
:00000001FF
