:020000041000EA
:100000008035002039080010410800104308001016
:1000100000000000000000000000000000000000E0
:100020000000000000000000000000004508001073
:100030000000000000000000470800104908001000
:10004000000000004B0800104B0800104B08001087
:100050004B0800104B080010F1060010A307001019
:100060004B0800104B0800104B0800104B08001004
:10007000850400104B0800104B0800104B080010BE
:100080004B0800104B0800104B0800104B080010E4
:100090004B0800104B0800104B0800104B080010D4
:1000A0000000000000000000000000000000000050
:1000B0000000000000000000000000000000000040
:1000C0000348854603F0D4FB00480047D5000010E4
:1000D00080350020002472B601F0E2FB002001F020
:1000E000FEFF00F06AFF00F06FF8012000F08AFFC9
:1000F00025A228A12AA000F06BF800211D200005F0
:1001000000F09CF800212E4800F098F81D21090508
:10011000084600F010F91D210905002000F0A7F89D
:100120001D20000500F06BF9254800F0EBF824488D
:1001300000F07EF962B626E00120000500F091F99A
:10014000002820D01E2000F069F80120000500F0F2
:1001500088F9002817D000BF0120000500F081F9C0
:100160000028F9D100240AE01648406901214840DE
:10017000144948610F2001F0D0FF601C84B27D203B
:1001800000018442F0DBD7E731343A30393A343871
:1001900000000000417072203139203230323200CC
:1001A00053594438383131204750494F20746573D2
:1001B000742064656D6F2025733A25730D0A000065
:1001C000230020000010005010B500F0AFF910BD62
:1001D0000FB438B5002500240498002803D138BC9A
:1001E00008BC04B0184705A800900B48009A049971
:1001F00003F050FBC5B200200090802D00DD80256B
:10020000002405E00449085D00F03AFA601CC4B21D
:10021000AC42F7DB00BFE2E794300020002108E0A9
:10022000002201E0531C9AB2034B9A42FADB4B1CAA
:1002300099B28142F4DB70478C0A000010B5024687
:10024000002010E0012383401340002B0AD0AE4B66
:100250001B6819540123834014469C432246002AFC
:1002600000D102E0401C2028ECD300BF10BDFCB53B
:100270000346A64C221D019200220092002B02D1BF
:10028000A34A009203E0012B01D1A24A0092009AF6
:10029000002A36D0002013E0012282400D4615408E
:1002A000002D0CD02568009E375C0126BE403543EA
:1002B00025600D4695432946002900D102E0401CE7
:1002C0001828E9D300BF182017E0012585402A46E9
:1002D0000D461540002D0FD0019D2D780646183E85
:1002E0000127B7403D43EEB2019D2E700D46954368
:1002F0002946002900D102E0401C2028E5D300BF98
:1003000000BFFCBD844909680A4613781946537832
:100310001B02194393781B041943D2781206114328
:1003200081437D4A126811700B0A53700B0C937055
:10033000090ED170704710B5774A126813461C78C1
:1003400022465C78240222439C7824042243DB78F2
:100350001B061A430243704B1B681A70140A5C7028
:10036000140C9C70120EDA706C4A126813461C78DA
:1003700022465C78240222439C7824042243DB78C2
:100380001B061A430243654B1B681A70140A5C7003
:10039000140C9C70120EDA70604A12680823D3188D
:1003A0001C7822465C78240222439C782404224351
:1003B000DB781B061A438243584B1B681A72140AD7
:1003C0005C72140C9C72120EDA72544A1268082382
:1003D000D3181C7822465C78240222439C7824049B
:1003E0002243DB781B061A430A434C4B1B681A72E4
:1003F000140A5C72140C9C72120EDA7210BD47491A
:1004000009680A461378194653781B0219439378F2
:100410001B041943D2781206114301433F4A126864
:1004200011700B0A53700B0C9370090ED17070474A
:100430003B4909680A461378194653781B02194349
:1004400093781B041943D278120611430143344AAE
:10045000126811700B0A53700B0C9370090ED17057
:10046000704701462D480068021D137818465378DE
:100470001B02184393781B041843D27812061043CA
:100480000840704710B527480068182141180A78BD
:1004900010464A78120210438A7812041043C97831
:1004A000090608431F49096810228A18137819465B
:1004B00053781B02194393781B041943D278120610
:1004C0001143884300281ED017480068002802D036
:1004D00015480068804713480068182141180A78B9
:1004E00010464A78120210438A7812041043C978E1
:1004F000090608430B4909680870020A4A70020C91
:100500008A70000EC87010BD0030002080100050AE
:100510001830002030300020043000200C30002043
:1005200008300020103000201430002010B5BE48E4
:100530000068C07B80098001C01CBB490968C87382
:10054000B9480068007C80098001001DB64909682F
:100550000874B54800682030807820218843B2496B
:10056000096820318870B0480068203080784021C8
:100570008843AD49096820318870AC4800688078AC
:1005800040084000A94909688870A84800680078B8
:10059000000900010830A54909680870A3480068EF
:1005A000007880218843A149096808709F48006845
:1005B00000784021884340309C49096808709B4876
:1005C0000068C07810218843103098490968C870C5
:1005D00096480068807804218843001D9349096883
:1005E0008870924800688078202188438F49096884
:1005F00088708E4800688078102188438B4909688C
:1006000088708A4800688078802188438749096813
:10061000887086480068807840218843834909684B
:100620008870824800680078102188437F490968F3
:1006300008707E4800680078202188437B4909685B
:1006400008707A480068807802218843801C7749C6
:100650000968887075480068C07820218843203078
:1006600072490968C870062000F0D0F86F48006829
:1006700080780821884308306C490968887010BD6B
:100680006A490968487000BF68490968097889069D
:10069000C90F0029F8D065490968097820229143DB
:1006A000624A12681170704718B502460020002394
:1006B000009314E05D4B1B681B790B54431CD8B2AC
:1006C0006B461B785B1CDCB200946B461B785B1C92
:1006D000DCB200946B461B785B1CDCB20094534B7D
:1006E0001B68DB78DB07DB0F002BE3D0107018BD35
:1006F0000CB54E4800680078C006C00F00280CD02A
:100700004A48006800781021884348490968087001
:10071000694601A8FFF7C8FF00BF44480068007899
:100720008006C00F002807D04048006800782021CC
:1007300088433E49096808703C4800688078800713
:10074000C00F002808D0394800688078022188430B
:10075000801C3649096888700CBD18B50246002017
:100760000023009314E0324B1B681B790B54431C8D
:10077000D8B26B461B785B1CDCB200946B461B78CE
:100780005B1CDCB200946B461B785B1CDCB20094F3
:10079000274B1B68DB78DB07DB0F002BE3D01070E7
:1007A00018BD0CB5224800680078C006C00F0028AC
:1007B0000CD01F4800680078102188431C49096844
:1007C0000870694601A8FFF7C8FF00BF1848006815
:1007D00000788006C00F002807D015480068007810
:1007E0002021884312490968087011480068807800
:1007F0008007C00F002808D00D48006880780221CB
:100800008843801C0A49096888700CBD002809DBF0
:1008100000BF00BFC206D20E01219140054A1160FF
:1008200000BF00BF704700000030002048300020AB
:100830004C30002000E100E00448804704480047B5
:10084000FEE7FEE7FEE7FEE7FEE7FEE755080010DD
:10085000C100001001480249086070470024F400FC
:1008600050300020F1B5F64880470746F5488047EC
:100870000646F34C0120183CA047F24D00200C35F1
:10088000A847F149009888473046A8473846A0470E
:10089000F8BDF0B5ED4DEE48E96885B0081804469E
:1008A00002F053FC2146401C02F059FC0024E748AA
:1008B0000125C668E6480C3831180391487C097C4C
:1008C00000020843A540284202903BD00B20604321
:1008D0008119DF48009109300818019002F035FCB9
:1008E0000746DB48301802F030FC87422AD10F213E
:1008F000009889014018007D00280CD0D44A009946
:100900000D3A8A18517D127D090211437818019918
:1009100002F025FC05E002980399A8430874000A38
:100920004874CB4800990D30081802F00EFC0028DE
:1009300008D0022D19D0042D17D0082D15D0102D58
:100940001AD08047641CE4B20A2CB0D3BF48C168F7
:10095000BF480C380918487C097C00020843800510
:1009600001D1BC48804705B0F0BDBB490120884794
:100970000028E7D0222005E0B74901208847002859
:10098000E0D03B20FFF76EFFDCE710B5AF49122047
:100990000969887072B60121AE4A0320B43A9047C3
:1009A00062B610BD10B50C4601788CB00A07120F64
:1009B00069460A700178CA0969464A70811C00A814
:1009C0000622023002F090FB08A90C7201212922B4
:1009D0000905A24C6B460020A0470CB010BDFEB527
:1009E00000206946087108709D4F08729D4E974C13
:1009F000B847E07102AB6A4601A9606902F04EFA9D
:100A000000284ED00820B047002803D00220B0476D
:100A100000280FD068460078012811D0E068656989
:100A2000407A01283ED00228E2D18F4AE179284657
:100A30009047DDE7012168460170007A00282DD03B
:100A40002521E06849014118497B6569002908D0E2
:100A50007F49D4314018417B027B0802834910430F
:100A60008847284602F070FA0028C1D068467E4ABE
:100A700001799632606990472878C0438007B7D1E2
:100A8000A8781228B4D121691320887072B6012188
:100A9000704A0320B43A904762B6A9E73D20FFF7B9
:100AA000E1FEFEBD28780007000F052806D00328C8
:100AB0009ED1E1792846FFF775FF99E7687E297E88
:100AC00000020843062805D3687F297F00020843F7
:100AD0000A2803D25C491220884789E76049EE3131
:100AE000A81C8847287887224006C10FE068115467
:100AF0000622A91C883002F0F7FA3721206902F09B
:100B00000CFB75E7F0B5544999B0042088470028DC
:100B10000ED0514904201A3188474E491F20AC316C
:100B20008847534880471620FFF79CFE19B0F0BD58
:100B300050488047002810D0444DEC68A179080740
:100B4000F4D5E079C2071CD04B492046983088473D
:100B5000E868C179490849001FE0464E444F444DBA
:100B6000B2361C376C46103507E06846B04701289E
:100B7000DCD168460178601CB847A8470028F4D04B
:100B8000D4E782070BD53C4A20461C328E30811CAC
:100B90009047E868FD22C17923E0C171C6E74207AA
:100BA00008D5354920466031A8308847E868FB22DF
:100BB000C17916E00207F726002A09DA2E4A2146F3
:100BC0004232A07A0B319047E868C1793140E4E7BE
:100BD000C00608D5284968467C318847E868EF2276
:100BE000C1791140D9E720463140FF30A171213051
:100BF000017D0026002910D0067521460722873185
:100C00000CA802F071FA21460DA82A228E31033079
:100C100002F06AFA19490CA8884701206946087051
:100C200048708E70E96800A82A2203308E3102F0E5
:100C30005BFA2D220821094C6B460020A04775E77E
:100C4000BF650000776A0000CF1600005430002016
:100C5000CE03000001120000F50A0000A13E0000D2
:100C600049570000791900008B1E00002B6200001C
:100C7000BD600000054E000027260000DF47000091
:100C8000FE490128896A0FD0022811D0042812D009
:100C9000082813D0102814D0202815D0402816D0AA
:100CA000802818D0012070478878C007C00F70478F
:100CB000887880070DE0887840070AE08878000788
:100CC00007E08878C00604E08878800601E088782C
:100CD0004006C00F70478878C009704710B501788A
:100CE00001291FD1401C02F030FAE44A10283AD002
:100CF0000DDC012817D002281DD0042823D0082895
:100D000010D1FFF7BDFF00280CD1DD4809E02028F5
:100D100039D0402806D1FFF7B3FF002802D1D848C8
:100D20005430804710BD0120FFF7AAFF0028F9D1F9
:100D3000FFF7E8FE10BD0220FFF7A2FF0028F9D15F
:100D4000FFF74DFE10BD0420FFF79AFF0028F9D1F0
:100D5000D068407A012803D00228F3D1C948E0E7DF
:100D6000C848AE38DDE71020FFF78AFF0028E9D138
:100D7000906A2030407D400701D53E2000E00820E9
:100D8000FFF770FD10BD2020FFF77AFF0028F9D192
:100D9000BB484830C5E770B510250826B74C002879
:100DA00021D0A06A817E31438176014660310A7E7E
:100DB000637852095201DB06DB0E1A430A762030B3
:100DC000427B067B1302E26833432332547C167C59
:100DD00022023243934214D00273120A4273C87D36
:100DE0002843C8750DE002F046F8A06A00220146CB
:100DF00020310A734A736030C17D2943C175A2480E
:100E00000677012070BD9D48C0682330417C027C7C
:100E1000080210430BD09D4948780A78000210431D
:100E2000032210430870000A48700120B3E770479E
:100E300030B4974CA44630BC6047F8B59348407A2C
:100E4000000663D58D48C66830462330417C007C5F
:100E50000F028E4907434878097804020C43002F9B
:100E600001D1600752D5894DA87B697B00026D1CBA
:100E700008434BD0002F49D06879297900020843F4
:100E80002ED12136707C317C0002084302F078FBC1
:100E90000022804B02F078FA02F080FB80B27843A7
:100EA000642102F00DF94004010C2971080A6871EF
:100EB0000A204143707D327D00021043814206D3F7
:100EC0000A21401E02F0FCF82871000A6871687956
:100ED00029790002084303D101202871002068719C
:100EE0006A48A10709D502218C4301210C430470F3
:100EF000210A41700020FFF74EFF68792A7901022C
:100F00001143654B00224020FFF792FFF8BD1CB54E
:100F10005E494A7A002A40D04A780B7812021A4376
:100F2000D3063AD44378047818022043012834D1F8
:100F3000C878401E0006000EC8702FD08B78084677
:100F4000017BC47A0A022243017AC479090221434F
:100F5000C01C012B2AD0521A0272120A42721206C7
:100F6000037A120C1A43521A69460A80427A017AAD
:100F7000120612140A4369464A8044498A7B497B17
:100F800012020A4369468A80417B027B08021043B1
:100F90006946C8804149684688471CBD887AC87040
:100FA000402002430A70100A48701CBD5218D3E753
:100FB0003B4A10473A4A2032104738B50024694668
:100FC0000C7021467F20FFF7F5FF00213B20FFF743
:100FD000F1FF29213B20FFF7EDFF69463B20FFF79A
:100FE000E7FF68460078800701D5012038BD641C02
:100FF000A4B2FF2CF1D9002038BD10B52948804794
:10100000012010BD10B51D49274A8870002807D15E
:10101000C8688078022803D000209047012010BDC6
:101020000120FAE710B5154C0128E168887004D05A
:1010300000284ED0022863D076E0206B0146203194
:101040000A78520852000A700A78FD231A400A7082
:101050000178890989011C31017041788909890168
:101060001C31417000217F20FFF7A4FF03212120C4
:10107000FFF7A0FF1F21032018E0000054300020DC
:101080007916000027150000200002406B31002077
:10109000AB4400000000F43F070E00103342000094
:1010A000C561000007470000A7650000FFF782FF49
:1010B000FC493220884702217F20FFF77BFF012176
:1010C0000020FFF777FF00217F20FFF773FF0F213C
:1010D00027E000217F20FFF76DFF00210420FFF7AC
:1010E00069FF02217F20FFF765FF00210846FFF717
:1010F00061FF00217F20FFF75DFF0021032011E049
:1011000002217F20FFF756FF03210020FFF752FF47
:1011100000217F20FFF74EFF00210320FFF74AFF49
:1011200000210420FFF746FFA078FFF76BFF0120A6
:1011300010BD10B5FFF776FF012010BD10B5DA48DD
:101140008047DA48C06A017ADF221140017201202B
:1011500010BDFEB5D54C01202071D54880470190C7
:10116000E06A817A007ACF07FF0F0026C506D149D1
:10117000ED0E4878097800020843800608D5A06A79
:101180002030417B027B0802104301D0FFF755FE5F
:10119000A80702D00126FFF7D1FFC448C06A817AB0
:1011A000490849008172C249012018398847022044
:1011B000FFF738FFBB4964201A3988470024694685
:1011C0000C70254601217F20FFF7F4FE00210A2044
:1011D000FFF7F0FE22210A20FFF7ECFE69460A2005
:1011E000FFF7E6FE684600784007EFD469460A201C
:1011F000FFF7DEFE68460078400705D568460078B0
:10120000000706D4012504E0641CAB48A4B2844264
:10121000ECD3A44964201A3988470020FFF702FF65
:10122000A349019818398847A04CE06A817A490897
:10123000490039438172002E02D09B480C38804708
:1012400000202071002D01D00120FEBD0020FEBD38
:1012500010B51121974801F060FF10BD70B504462C
:10126000401C01F072FF022818D0042819D0012177
:10127000490488424AD125462035687B0923010765
:101280000209090F0020072A1FD0032A23D0022AAF
:1012900028D0012A2CD0002A30D035E0FFF7D8FF23
:1012A0003DE0824D0121E868FF302130017501F0F9
:1012B00096FEE8688078002804D12879002801D1BA
:1012C000FFF747FFFFF779FE29E0581A0621484348
:1012D0004121C94304E0581A062148433521C94336
:1012E000081A10E0581A062148432321C943F7E79A
:1012F000581A062148431721C943F1E7581A062115
:101300004843801D404240B2687308E040281DD029
:101310000121C903884202D1601DFFF7F8FD65492C
:101320004878097800020843800607D5601C01F060
:101330000CFF0005000F01D0FFF77FFD5B483C303C
:1013400001F003FF01462046884770BD57483830FA
:1013500001F0FBFE4006E2D570BDF0B5534C0646E9
:10136000E0688DB0FF302130407C0D46002829D048
:10137000002D26D072B6A068183001F0E6FEE168B4
:101380003222FF312131897C4C4B514340186A464F
:101390003221984762B6002E04D0E068FF30213039
:1013A000807C3070E7680A21FF372137B87C401C09
:1013B00001F070FEB974E078401CC0B2E0700A28F9
:1013C00002D900200DB0F0BD684600780128D1D1C7
:1013D00000A907222846013101F086FE2A22E81DD5
:1013E00002A901F081FE0120ECE7F0B50546344981
:1013F0008DB0202088472D4C0426E16820690F46D7
:1014000086700822C01CC931BD3701F06DFE20690D
:10141000042239460B3001F067FE0D21294A0320D2
:101420009047E068294608220A31C13001F05CFE8D
:10143000E068294604221231B93001F055FE287ABD
:10144000214F002802D1687A00281FD00020E070C8
:10145000E0682A7A01468030837B9A420AD16A7A10
:10146000C07B824206D108222846903101F060FEFE
:1014700000282DD069460020FFF76FFF01283BD0E0
:1014800006220021114B012098479BE7E0680222C9
:101490008179114302468171C132FF30114610300B
:1014A000B84726E045620000134700005430002092
:1014B000BF6500006B310020FFFF000059530000A2
:1014C000050B00004D11000019220000D919000081
:1014D000E0688179024631438171C132114698300A
:1014E000B847E06880308079012802D1FE490220A7
:1014F0008847FE48804765E7E06801A92A228E30C8
:10150000033101F0F1FDA3E77CB5451C8078297813
:1015100000020843F64C022810D00F2810D00121F9
:101520001D2810D0FF3810280DD0F24A694601203E
:101530009047687829780002084302E0032000E021
:101540000220A0717CBDA1717CBDE9488079704703
:10155000E94908471CB5E94808210170002141709C
:10156000017BC27A0902C01C114341D04279037940
:1015700012021A43891A0BB26A461380417A027A20
:101580000906091411436A46518019220624D20122
:10159000062B02DA6B461C8003E0934201DD6B46AA
:1015A0001A80062902DA69464C8003E0914201DD87
:1015B00069464A80417B027B080210436946C88025
:1015C000CE48817B427B0802104369468880C84828
:1015D000C0682330417C027C0802104302D0002006
:1015E000FFF7D9FBC64968468847C349402088476A
:1015F0001CBDC24948780A7800021043C2050CD5C8
:10160000FF22013290430870000A48700879401E9A
:101610000006000E087109D09CE72022104310221A
:101620009043042210430870000A48707047FEB5CA
:10163000B24D0446687829780002084300077DD53A
:10164000B048804769782A780902114308229143FB
:1016500029700A0A6A706B7A064628461A066ED501
:10166000A27967791202651C3A43A14FE41C002A53
:1016700077D01022114301700A0A427088065ED4A6
:10168000687929790002084332D001F079FF01918D
:101690000090607821780002084301F071FF9A4CB5
:1016A0000022234601F070FE019B009A01F06CFEBF
:1016B00001910090F8682130417C027C08021043BF
:1016C00001F05EFF0022234601F05EFE07460C4655
:1016D000687A297A00020843801B01F03DFF3A46F0
:1016E000234601F051FE019B009A01F09BFD24E08E
:1016F000607821780002084301F026FF0446F8686C
:101700002130417C027C0802104301F01DFF21467C
:1017100001F02EFD01F060FF00227B4B01F034FE52
:1017200007460C46687A297A00020843801B01F0BC
:1017300013FF3A46234601F027FE02E06EE064E024
:101740000FE00022714B01F087FE01F027FF01043A
:10175000090C00D101216E4B00228020FFF768FBAD
:1017600053E09A0651D58278012A4ED18A064CD48C
:10177000FF226248013211430170090A417060780A
:101780002178000208435D490A7BCB7A1102194394
:1017900088423AD901F0D8FE0446F8682130417CED
:1017A000027C0802104301F0CFFE214601F0E0FC6C
:1017B00001F012FF0022544B01F0E6FD07460C46F3
:1017C000687A297A00020843801B01F0C5FE3A4678
:1017D000234601F0D9FD00224C4B01F03DFE01F003
:1017E000DDFE0104090C00D10121494B00228020BB
:1017F000FFF71EFB41484178027809021143FF229E
:10180000013211430170090A4170032069460881C1
:10181000022291033F4C02AB0020A047FEBD10B551
:101820000446007800280DD1A178627808021043A0
:1018300009D001281ED0032827D00C2802D1201D52
:10184000FFF762FE10BD01F016FB3349201D8847EB
:10185000002802D12820FFF705F8201DFFF7E7FE3A
:1018600023480121C368062209040020294C313392
:10187000A04710BD01F0FFFA2849201D8847002825
:10188000F7D12820FEF7EEFF10BD201DFFF7ADFDBC
:1018900010BD10B50078012801D1FEF7FAFF10BD88
:1018A000F0B51F4885B0804701217F20FFF782FBFC
:1018B00069465020FFF77CFB68460078042801D079
:1018C00018488047FFF779FB094CE06880780128C9
:1018D00066D002287ED0FFF73CFC01256846458093
:1018E00005801148019021E0050B0000791A0000E5
:1018F000543000201F1D0000B34400006B31002055
:1019000033420000BF5500000000F43F0000594082
:10191000F3150010A13E00005D5B0000475F000072
:10192000793D0000F746000093180010FE49684614
:10193000884768460570457000254580FB48019042
:10194000FB4BE06808226946C01801F0CDFB01217D
:10195000F84E4020B04701218020B04701212020CF
:10196000B047FF210C31684601800B214180858002
:10197000C580058145818581C581EF48EA4904908C
:101980006846A2398847A0680A3001F0DEFBEC4BBC
:10199000EA4A5721984701F022FB012005B0F0BD2B
:1019A000E84880470090E06A067A817ACD07817A1C
:1019B000ED0F490849008172E24F0120183FB847F6
:1019C000B00701D0FFF7BAFB0220FFF72BFB642022
:1019D000DD4900E00CE088470120FFF723FB009879
:1019E000B847E06A817A490849002943817274E75F
:1019F0000220FFF717FB70E710B5D448804701209D
:101A000010BDD24910B51E318847012010BDCF4905
:101A100010B554318847012010BDCC4910B5603154
:101A20008847012010BDC94910B56E318847012093
:101A300010BDC64910B57E318847012010BD10B5D4
:101A4000C24CE634A047012010BDF8B5C04CC149D6
:101A5000E0683730884720693B230178BF250A09B1
:101A6000E16812015B5C1B071B0F1A43027012072F
:101A7000120F012A79D00B4640335A781B78120294
:101A80001A430B4642331A70120A5A7002788B7A44
:101A90002A409B011A435206520E027066235B5C79
:101AA00042789B1D92099B0692019B0E1A4342703D
:101AB0000622801C0B3101F017FBE1686620425CB6
:101AC000002A04D020696731083001F00DFBE0687E
:101AD00000212030417720699F4A41788906890E8C
:101AE000891C9047206901780A091201121D0270B1
:101AF000E1682A408B7ADB075B0E1A4302704623AB
:101B00005B5C42789B1D92099B0692019B0E1A43D7
:101B100042700622801C0B3101F0E6FAE168462093
:101B2000425C002A04D020694731083001F0DCFA19
:101B30002069894A41782C328906890E891C904790
:101B4000E068012705462035E97E01293BD00029C0
:101B50004CD002294AD0062948D000237F4C1A468F
:101B600001211846A047F8BDFFE70A464032137925
:101B700053718B7A0278DB072A405B0E1A4302709E
:101B800087235B5C5206520EDB011A4302704278D7
:101B90000B31920992010C3242700622801C01F036
:101BA000A3FA2069E16806220830883101F09CFA26
:101BB000E16803223D204254664A8720405C323A65
:101BC0008831904787E74030417900290AD02820A2
:101BD0000621A26A937EFD242340937617756B7FBE
:101BE0002A7F43E0477101200146F2E7064642366C
:101BF000717832780B02134317D0192189014B43B6
:101C00002230417F047F0802204301228004800C9F
:101C1000009006D00146184601F03CFA421C7F2A8B
:101C200010D8D4B23770380A14E03770390A71709E
:101C30002230417F027F0802104301248004800C7F
:101C4000009008E07F24104621467E3001F022FA01
:101C50003070000A70703E48806A817E0222114313
:101C6000817607756B7F2A7F00992046314CFE34C0
:101C7000A0473B48804776E710B5FFF7E6FE012016
:101C800010BD10B53749032008702F4964201A3160
:101C9000884735488047012010BD72B600212C4A84
:101CA000906A4175037C01210B430374D06845227F
:101CB0001154423001700021417062B6012070471A
:101CC00010B52A498847012010BDF0B5204CA56AFF
:101CD0002C4660342678FD27C0073E40800F06431F
:101CE0002670A170627062352B71180A68710598B0
:101CF0002071000A6071F0BDF8B5154D1549E8680E
:101D0000373088471120EF68002480013D186E7934
:101D1000A8790321401C01F0BDF901208840A97178
:101D2000064228D1641C23E02F440000DD0C001083
:101D3000CE020000615500001F1800101431002071
:101D400059530000BF6500002B620000833D000076
:101D500054300020B1570000D9600000A13E0000BF
:101D60009D560000000002400747000001410000AE
:101D7000E4B2032CCCD31125AD017C19607B217B0F
:101D800000020843A91C7F18010AF24E38737973C8
:101D900000280BD0607A227A0102192011438001B9
:101DA00001F078F90206120E04D004E00120387325
:101DB000002078730122787A397A00020843009073
:101DC000607A217A03020B43A079E349095CE07948
:101DD000FFF77BFFF068002140190171C1700174A9
:101DE00041748178002901D0082901D90821817026
:101DF000DA488047B7E610B5FFF77EFF012010BD37
:101E000010B5D7488047012010BDD54910B508311D
:101E10008847012010BDD24910B5163188470120EE
:101E200010BDCF4910B578318847012010BDC94990
:101E3000487001207047CA4910B586318847012093
:101E400010BDC74A10B58E329047012010BD7CB539
:101E5000054601F07AF9BF490446383101F07FF9AF
:101E6000281D01F072F9BB493C3101F078F940209E
:101E70008443BC48BA49019000946846963188472B
:101E800001207CBD10B5B8498847012010BDB64A75
:101E900010B508329047012010BD10B5B3488047F7
:101EA000022801D9002010BD012010BDF8B50E4652
:101EB000AF49074648780978000208431C46154692
:101EC000800609D5A348806A2030417B027B080246
:101ED000104301D0FEF7B1FFA64901208847002832
:101EE0000CD0A2488047022809D972B623469E4CDE
:101EF0002A46314638461834A04762B633E60020F9
:101F000031E69D49084710B504469A4901208847A3
:101F1000002803D0984920460831884710BD70B585
:101F20000546944A0C4601209047002804D0924A66
:101F3000214628462232904770BDFFB50F4681B03A
:101F40008C491D46164601200A9C8847002807D068
:101F50000094894C2B463246394644340198A047B8
:101F60001CE5F8B50E46074682491C461546012079
:101F70008847002806D023467F4C2A4631463846FB
:101F80007C34A047EFE510B504467A490120884724
:101F9000002803D078492046AC31884710BD70B581
:101FA0000546744A0C4601209047002804D0724A26
:101FB00021462846C632904770BD70B505466D4A29
:101FC0000C4601209047002804D06B4A2146284641
:101FD000E832904770BDF8B50E46074665491C4685
:101FE000154601208847002805D02346634C2A4621
:101FF00031463846A047B6E570B50D4606465D4900
:10200000144601208847002805D05C4B224629460B
:1020100030463033984770BD70B50D460646554979
:10202000144601208847002805D0544B22462946F3
:1020300030465C33984770BDF8B50E4607464D49AB
:102040001C46154601208847002806D023464B4CE5
:102050002A46314638468834A04784E510B5044600
:10206000444901208847002803D044492046B8311C
:10207000884710BD10B53F4901208847002802D08D
:102080003E48CC30804710BD70B5324D044608281C
:1020900004D0E868407808280DD014E000217F20A3
:1020A000FEF788FF01214020FEF784FFE86A0178EF
:1020B000C908C9000EE000217F20FEF77BFF002148
:1020C0004020FEF777FFE86A01786207C908C90077
:1020D000520F11430170E8684470012070BDD3E7CE
:1020E00010B50446264880472070012010BD10B569
:1020F00004462348801D80472070012010BD2049E0
:1021000010B51C318847012010BD1D4810B5723034
:102110008047012010BD1B4800471B4908471A494A
:102120001A31084708B51949684688476846C07893
:102130008007C00F08BD08B514496846884768463F
:10214000C078C00900D0012008BD10B5FEF730FFEF
:1021500010BD000054300020BA4100102557000087
:102160001D4200005D1200102D4300002B4E0000A8
:102170006B310020F50A0000B73A0000BB3B0000BD
:102180009F440000FB5F00002B6200004D650000D3
:1021900010B5FEF70FFFDBE7FE48806AC07B05281D
:1021A00005D0062803D00F2801D000207047012059
:1021B000704710B5FFF7F0FF002801D1F6488047BF
:1021C0000120C5E710B5F3490122886A4275437CB6
:1021D000DB09DB019B1C4374931E83741B0AC374CD
:1021E000C96ACB7AEF242340CB724B7B93434B736A
:1021F0008B7A13438B72817E022319438176017C93
:1022000011430174E54905208847E54880470120CE
:102210009EE7E34810B512308047012098E710B5DB
:10222000E0498847012093E7DE4910B51831884717
:1022300001208DE7DA4910B558318847012087E73A
:10224000D749AC310847D64910B5FA318847012043
:102250007EE710B5D4488047012079E7D24810B511
:1022600018308047012073E7CF4BA2331847CE4B7D
:10227000D8331847F8B50746C648002680680D468B
:102280003446283000F061FF2903C9194118C148BC
:10229000406B814211D9002065E472B6BD48806868
:1022A000283000F052FF2103C9194018BF4A01210C
:1022B0009047064662B6641CE4B2AC42EDD33046A9
:1022C00051E4F8B5B34D0446A86817460E462830C9
:1022D00000F03BFF0146A21980186A6B90420AD8B1
:1022E000002908D072B60819B04B3A463146EA3B8D
:1022F000984762B637E4002035E4F8B5A54D0446AA
:10230000A86817460E46283000F01FFF0146A219A4
:1023100080186A6B90420AD8002908D072B6081952
:10232000A24B3A463146823B984762B61BE40020F6
:1023300019E470B59E48002400789C4E954D002805
:102340000DD001281ED024E072B6143000F0FDFE3E
:10235000210340180121B04762B6641CE4B2A868AA
:10236000C17B827B09021143A142EDD811E072B614
:10237000103000F0EAFE210340180121B04762B698
:10238000641CE4B2A868C17B827B09021143A142AC
:10239000EDD8012070BD70B504460D46000B421902
:1023A0007C488068C17B837B090219438A4201D93A
:1023B000002070BD7E497D4E0978002902D0012998
:1023C00003D00AE072B6143001E072B6103000F0AB
:1023D000BCFE00192946B04762B6012070BDF8B5B1
:1023E000044673480F4601786A48704D8068823D04
:1023F0001646002902D0012903D00BE072B6143032
:1024000001E072B6103000F0A0FE001932463946E5
:10241000A84762B601202EE430B45E4B9C68E37B93
:10242000A47B1B0223431B03834202D230BC002047
:10243000704730BCD3E730B45E4CA44630BC604734
:10244000F3B5544889B080680024283000F07DFE40
:10245000074609984609002511E072B66801534BFA
:10246000C01920216A46EA3B984762B600206946B7
:102470000A5C401C121994B22028F9D36D1CB54295
:10248000EBD30998C606F60E72B631466801474B83
:10249000C0196A46EA3B984762B60020694603E0E5
:1024A0000A5C121994B2401CB042F9D30A988442D3
:1024B00002D101200BB0F0BD0020FBE7F8B5384891
:1024C0008A3880473A4C5734607A002840D000065A
:1024D000042500280FDA60782178000208434007BD
:1024E00009D5FEF7AAFC6078217800020843A843CA
:1024F0002070000A607060782178000208432E4F37
:102500002E4E41060CD5402188432070000A607091
:1025100002206946088002466B4639460020B047D3
:102520006078217800020843C10711D040084000BC
:102530002070010A6170800702D56846058002E0BC
:1025400005206946088002226B4639460020B047C4
:1025500050E41B48004738B50E4C2078002805D1C0
:10256000104968467E39884701202070012038BD17
:10257000F8B50278002A74D00D4957314A72427872
:102580008A72002A01D0042A01D904228A72C278F0
:10259000847817E054300020F144000045620000C8
:1025A000E5460000CB6500000348000043540000EE
:1025B000143100207B4A000000800000A13E000092
:1025C000F94B000013022343FB4A1C0AD372147315
:1025D0004479057924022C4315466C73240AAC73A4
:1025E000C479857920022843D073000A1074F34817
:1025F0000827C068D21C2130447C007C240204439C
:102600000120A34214D900258D701B1B8C7AA34294
:1026100004DA1071000A50718B7216E0E400A342D4
:1026200002DA1071000A01E01771380A50710CE0EB
:1026300088708E7AE51AB5420FDA060A1071567163
:102640009C4201D1887200E08D72887AC87008714E
:10265000FEF780FF012051E403E0F3009D42E3DA3E
:10266000DFE700204AE4D549496A0870020A4A7047
:10267000020C8A70000EC870487A02221043487219
:10268000704738B5044600200090CD496846884719
:102690000099F8208143E006000E08430090FFF700
:1026A000E2FF38BD08B500200090C549684688475C
:1026B00000980006C00E009008BDC1487230004767
:1026C000BF495A310847BF490847BE491A31084730
:1026D000BD480047BC490C310847F8B500260B46F9
:1026E00004460125304631462D03675C491CBE195E
:1026F000A942FAD30021675C491C7840A942FAD369
:102700009E4222D1904220D1AC4EB0680A3000F0F7
:102710001CFDA94900195722573900F0E5FCB068A3
:102720001C3000F012FDF168001907220A3100F098
:10273000DBFC0121A54A00209047A44B0020224643
:102740002946823B984701201CE400201AE470B51A
:1027500001260546994C36039C4B00203146EA3B46
:10276000A26998479A4928468847A0681C3000F01B
:10277000ECFCA16907224018E1680A3100F0B4FCC2
:102780000121924A00209047904B00203146823B25
:10279000A269984770BD10B50446884880680A3021
:1027A00000F0D3FC894B1021EA3B22465730984772
:1027B000CEE470B501260546804C3603834B0020DD
:1027C0003146EA3BA26998470121804A00209047A0
:1027D000A0680A3000F0B9FCA169102257314018F6
:1027E000294600F081FC794B00203146823BA269EA
:1027F000984770BD714840690178C943890702D183
:102800008078062801D00020704701207047714A67
:102810001047F3B581B0060025D0684F386A0446EA
:10282000C17980790D020543E01C00F08EFC0102A5
:10283000A07801430C46002D17D0002C15D00121A3
:10284000624B09030020EA3BBA699847B8680A302E
:1028500000F07BFCB9696731405C401CC7B2032FB4
:1028600005D90220FEBD0120FEBD0420FEBDB542FB
:1028700004D10298844201D10020FEBD0121534AB7
:10288000002090474D4CA0680A3000F05EFCA26921
:102890004E4B114667314754012109030020823B0A
:1028A00098470320FEBD08B545496846884700980B
:1028B0004108C90701D0002008BD02210843404952
:1028C000009028318847012008BD3B480121573836
:1028D00002783A4809078068002A03D0012A07D005
:1028E00000207047C27B837B10021843400304E042
:1028F000C27B837B1002184300034018704770B5F9
:1029000004462D480D46573801782C480126B60359
:102910008068002903D0012903D0002070BD143045
:1029200000E0103000F011FC801972B60019274A3F
:102930002946904762B670BDF8B505461E480F4659
:10294000573801781D480124A403806816460029E1
:1029500003D0012903D000209EE4143000E01030A1
:1029600000F0F3FB001972B64019184B3246394695
:10297000EA3B984762B68FE4F8B505460E480F4625
:10298000573801780D480124A403806816460029B1
:1029900003D0012903D000207EE4143000E0103081
:1029A00000F0D3FB001972B64019084B3246394685
:1029B000823B984762B66FE46B31002054300020B0
:1029C0004D6500002B620000776A00004354000050
:1029D000A13D0000D960000010B5030000F083FFA6
:1029E00009060C16202A343E415B770001217F2026
:1029F000FEF7E0FA882104E001217F20FEF7DAFAF1
:102A00008A216120FEF7D6FA81215DE001217F2035
:102A1000FEF7D0FA8A216120FEF7CCFA832153E039
:102A200001217F20FEF7C6FA8A216120FEF7C2FA53
:102A3000872149E001217F20FEF7BCFA8A2161202D
:102A4000FEF7B8FA8F213FE001217F20FEF7B2FAAE
:102A50008A216120FEF7AEFA9F2135E001217F2017
:102A60002BE000217F20FEF7A5FA02213020FEF79F
:102A7000A1FA01217F20FEF79DFA1F216320FEF7B6
:102A800099FA03216D20FEF795FA8A216120FEF75D
:102A900091FAB02118E000217F20FEF78BFA022185
:102AA0003020FEF787FA01217F20FEF783FA1F21ED
:102AB0006320FEF77FFA07216D20FEF77BFA8A215B
:102AC0006120FEF777FABF216520FEF773FA6FE603
:102AD00010B5F74CA068283000F037FB616B081A7E
:102AE00066E6F44800787047F8B50546F04EF148C0
:102AF000B26900781446002801D0002016E42805A9
:102B000002D02805000D2D1A72B601210903EA4FE3
:102B10000020B84762B6706B2146401B283100F098
:102B20001EFB05462046103000F00FFB0090281ACF
:102B30004108009808182146143100F010FB0146A6
:102B40000098081A0001000CA073000AE07372B626
:102B50000121D94A0020EA32904762B672B60121BB
:102B6000D54B090300206833B26998473121002012
:102B7000B268B84762B601204DE4CD48CC4BC0796D
:102B8000DB7902091B0709201B0FC01A062300214D
:102B90005843072A08D0032A09D0022A0BD0012A59
:102BA0000CD0002A0DD00FE04121C94301E03521AE
:102BB000C943081A07E02321C943FAE71721C9438B
:102BC000F7E7801D404241B2C8B27047F3B5BB4E33
:102BD000BB4F8DB00546002432226B4621460320B0
:102BE000B04768464088A84206D1684601790E98E9
:102BF000017001200FB0F0BDB84204D068460088D3
:102C0000001984B2E8E70020F4E7F3B5AB4EAC4F0F
:102C10008DB00546002432226B4621460320B04782
:102C200068464088A84208D1241DA1B20122032091
:102C30000E9B00F0E3F90120DCE7B84204D06846BF
:102C40000088001984B2E6E70020D3E7F3B59B4E75
:102C50009B4F8DB00546002432226B462146022050
:102C6000B04768468178427808021043A84205D1EF
:102C7000684641790E9801700120BBE7B84204D044
:102C800068460078001984B2E6E70020B2E7894977
:102C900010B557314878097800020843800603D5FB
:102CA000FEF7CBF8012083E5002081E5854B18472E
:102CB00010B504467E4880680A3000F046FA0821C4
:102CC0007D4B22466730984772E570B5054672B66F
:102CD000774C01263603784B31460020A26998478D
:102CE000754A01210020EA329047A0680A3000F0BE
:102CF0002CFAA169082267314018294600F0F4F93E
:102D00006D4B002031466833A269984762B670BDAA
:102D10006D4908200847664948637047FEB5644D11
:102D20000027A868801D00F010FA634E01AA062152
:102D3000B047002823D000241CE0A868801D00F0C4
:102D400004FA61006118891D40186A460321B047E2
:102D5000002814D068460078032809D168464078D6
:102D60007F2801D169468F78012F01D1572807D0DC
:102D7000641CA4B268460089A042DED80020FEBDD3
:102D800068468078FEBDF1B5494E84B0B068002732
:102D9000801D00F0DAF9484D01AA0621A847002855
:102DA00023D000241CE0B068801D00F0CEF9610043
:102DB0006118891D40186A460321A847002814D0CD
:102DC00068460078032809D1684640787F2801D1F9
:102DD00069468F78012F01D1572808D0641CA4B20E
:102DE00068460089A042DED8002005B0F0BD72B66A
:102DF00001273F0339460020B269A8472E4A012126
:102E00000020EA329047B068801D00F09EF9B26958
:102E1000049983186000201808301954264B0020AC
:102E200039466833984762B6DFE77FB50D464B21D8
:102E30000906084302900024244803948047009424
:102E40000194224C012105202B4602AAA83CA04750
:102E50001E481C3080477FBD7FB5064600246D4666
:102E600029192046FFF7E1FF285D3055641CE4B2C4
:102E70000F2CF5D37FBD10B500F0F7F8002804D073
:102E800000F0F3F80128FBD092E400F0EEF80028FF
:102E9000FBD000F0EAF80128FBD089E4F0B5044C3F
:102EA0000025A46AE678360712D50020F0BD0000A0
:102EB000543000201431002059530000C92800006C
:102EC000FFFF000019220000791900001D500000CA
:102ED00000BF6D1CEDB2642DFAD3254640356E7CE3
:102EE000B607FCD400252646C036377947556D1CF9
:102EF000EDB2022DF9D346780125F709002F08D04D
:102F0000F606F60E0E70157042785206D20F1A7041
:102F100004E0B3069B0E0B7000231370594B0A7824
:102F20009B6A801CC033272A0CD20022C03403E0E5
:102F300026798654521CD2B20E789642F8D85D7229
:102F40000120B3E75D72B0E710B502780021920767
:102F5000920F4C4B012A39D0022A0CD0032A33D1CC
:102F600082780E2A2FD84078474BC0069A5CC00E54
:102F7000904228D028E04278D206D20E042A07D9FF
:102F8000C278847812022243172A01D8012200E075
:102F900000225A71002A17D041790279090211439F
:102FA000052910D006290ED1C17882780902114373
:102FB0008079354A40000F3280184038C08F8142F6
:102FC00001D0002100E00121084680E5597900295F
:102FD000F7D04078C006C00E1728F4D9F1E770B5D5
:102FE0002A4D0024274EA847F1680919FF31013105
:102FF000641CE4B2C873102CF5D370BDFFB5214C2E
:103000000200E06981B01E460D4606D0012A06D0B6
:10301000022A06D0032A06D009E0001D04E0083089
:1030200002E00C3000E0103000F08FF801464D193E
:1030300072B601273F03164B39460020A269984714
:1030400062B6A06931464019039A00F04DF872B695
:1030500001210F4A0020EA3290470D4B00203946EB
:103060006833A269984762B6BFE60648816A0A4695
:103070006032907C927C603101E0887C8A7C904256
:10308000FBD1704754300020BD410010FB5F0000B1
:103090005953000030B50B46014600202022012480
:1030A00009E00D46D5409D4205D31D469540491B7C
:1030B0002546954040191546521E002DF1DC30BDC5
:1030C00070B500242546002801DA01244042002979
:1030D00001DA01254942FFF7DDFFAC4200D0404252
:1030E000002C00D0494270BD03460B439B0703D020
:1030F00009E008C9121F08C0042AFAD203E00B78BD
:103100000370401C491C521EF9D27047D2B201E034
:103110000270401C491EFBD270470022F6E710B532
:1031200013460A4604461946FFF7F0FF204610BD35
:1031300030B504460020034600E05B1C934203D2F6
:10314000E05CCD5C401BF8D030BD0321001D401E6B
:10315000037812021A43491EF9D5104670470346F8
:1031600003220870000A491C521EFAD518467047FF
:10317000F8B502464A40D40F42004B0052085B08A3
:103180009A4202D20246084611464A0023D0C30D95
:103190004A00DDB2120EAD1A202D35DA49020126A1
:1031A000490AF6058A19002C00D0524220214F1BF3
:1031B0001146B9402A411018C20D9A4221D0002C64
:1031C00017D0012D08DCDA05801AD20F8019D2073A
:1031D000DBB200F081FAF8BDDA05801A0123400065
:1031E0001B06C01880185A428018CA0F10434900A5
:1031F00007E04908C2071143DA05801A8019400820
:10320000801800F061FAF8BD61000122511A001B1C
:10321000F7E70122D2075140AAE70122D207504026
:10322000A6E70000F0B507460846584087B0C00F33
:10323000049048000E46590040084908BC1A8841CD
:1032400005D2384631461E4617460B460246580000
:10325000400810434CD0300D039040055900400DFC
:10326000490D0590401A0290402872DA1803012196
:10327000000B09050843019004980092002805D02E
:103280000199524200208841009201900298402109
:103290000A1A0199009800F0E3F905460C466B46BE
:1032A00007CB00F0FEF9C0197141039A0E0D0023FF
:1032B000D71756401A467A40164344D0049A002A3B
:1032C0002DD0029A012A039A15DC1205C01A9141E9
:1032D00001263605001C7141D20F059ED2070093CE
:1032E000019202962A46234600F03CFA07B0F0BD50
:1032F00038463146FAE71605224A0F46B218C01A78
:10330000B74101210905001C4F4100187F411146BA
:1033100018187941E20F10436D19644113E0E20778
:103320006D0815436408C2071443039A0126120569
:10333000C01A91413605001C7141CE074008304348
:103340004908C01851412A46234600F0FEF9CDE74E
:10335000FFE7049801224000C117121A00238B4195
:1033600004983146C417381AA141EEE730B401245D
:10337000E407634030BC55E730B40124E407614002
:1033800030BC4FE70000E0FFF0B51FB488B00B99E8
:103390000998002448400999C00F4900490809913B
:1033A000C0070B990090490049080B9109990898AA
:1033B000A64608431CD00B990A98084318D00998D0
:1033C00001244000420D4800410D099824050003E6
:1033D000000B204309900B980003000B20430B9037
:1033E00050181C494018002201901446104605E070
:1033F000002001460DB0F0BD032801DA034600E0CD
:1034000003239C46C11A0AAE0AE05F0008ADED5BDB
:103410004F00F75B7D430027AA187C41491C5B1EC7
:103420006145F2DD410004AB5A522104120C0A43FB
:10343000240C401C0828DFDB01980290009970469C
:1034400001910090059B049A0799069800F08AF96B
:10345000D0E700000DFCFFFFF0B50C465C4085B0E6
:10346000E40FE40703944C000026640859009446D6
:10347000490802460296224321D062460A431ED0E2
:103480006200570D4A000E032303550D0124024626
:103490002C492405781B1B0B360B4018234326436D
:1034A000614600901C46501AB44103D30098401C5A
:1034B000009002E0921800985B41002803DA002097
:1034C000014605B0F0BD00200121090507468646EA
:1034D00011E064461D46141BB54106D36546521BD8
:1034E000B341744607430C43A646CD07400849083C
:1034F000284392185B4105460D43EAD11046184314
:1035000013D06046194650407140084306D06046CB
:10351000101AB34106D20122002306E00022012343
:10352000DB0702E00122D2435310009874460105E4
:10353000381C6141029C039D0019694100F005F9A6
:10354000BFE70000FD03000010B5002296231146DE
:1035500000F0C2F810BD00000EB5C217C10F5040F8
:10356000CA0740180021054B0293019200910A46B8
:103570000B4600F0F7F803B000BD00003304000074
:103580000EB505490291002100910A460B460191B2
:1035900000F0E8F803B000BD330400004A0009035E
:1035A0000123090B1B051943094B10B5520D9A4213
:1035B00001DA002010BD064B34339A4203DC9A1A1C
:1035C00000F05EF810BD03495118884010BD00009E
:1035D000FF030000CDFBFFFFC20FD20740004008F1
:1035E0000BD0C10D0723DB01C91840020905400AB1
:1035F0001143C2084007114370470020014670473D
:10360000F0B51FB40646002082B005464024019163
:1036100000901BE0019922460F46304600F030F83A
:10362000049A059B801A994110D3104619462246E8
:1036300000F016F8361A8F4101972246012000212A
:10364000009F00F00DF838184D4100902046641E90
:103650000028DFDC019B00982946324607B0F0BD08
:1036600010B5202A04DB0146203A9140002010BD0D
:10367000914020239C1A0346E3401943904010BD1B
:1036800010B5202A04DB0846203AD040002110BDA6
:103690000B46D340D0402024A21A9140084319463B
:1036A00010BD10B5202A06DBCB170846203A104182
:1036B000C1170B4306E00B461341D0402024A21A49
:1036C00091400843194610BD002904DA401C490006
:1036D00001D140084000704770B40024050C05D1AA
:1036E0001024000402D1002921D01124050E01D19B
:1036F00000020834050F01D10001241D850F01D1FE
:103700008000A41C002801DB4000641C002908D0B4
:1037100020252E1B0D46F540A14000D00121294354
:10372000084301061B1B000ADB1D02D5002070BCEC
:103730007047DB05181880180029F8DA401C49008A
:10374000F5D170BC40084000704710B5002B08DA76
:103750000024401C614192185B411A4301D140088A
:10376000400010BDF0B51FB482B005460C0003D078
:10377000084600F0A1F802E000F09EF82030024672
:10378000009021462846FFF76BFF049B059A0446EC
:103790000F4618431143084314D0184610431BD05A
:1037A000009840210A1A18460599FFF769FF054657
:1037B0000E46009A05990498FFF752FF084305D07A
:1037C000012004E02046394607B0F0BD0020C117B3
:1037D00005430E432C43374300990E986305401A66
:1037E0007905E40A00220C43FD0A0A3002D50020C4
:1037F0000146E9E70105101969410C9C0D9D00196E
:103800006941FFF7A2FFDFE74A0009030123090B23
:103810001B0519430A4B10B5520D9A4202DA0020DB
:10382000014610BD064B34339A4203DC9A1AFFF767
:1038300027FF10BD034BD218FFF712FF10BD000089
:10384000FF030000CDFBFFFF10B5002904DB0124BE
:10385000E40740428C412146002B04DB1C46012337
:10386000DB075242A341994200D1904210BD0000B3
:10387000064C0125064E05E0E36807CC2B430C3CC3
:1038800098471034B442F7D3FCF71EFCE441001013
:103890000442001037B514460846064B6A462146D6
:1038A00000F0EAF804466946002000F081FC20465A
:1038B0003EBD0000B14100102021020C01D01021BA
:1038C0001046020A01D010460839020901D01046FC
:1038D000091F820801D01046891E420801D0881EA7
:1038E0007047081A704730B47446641E2578641C0B
:1038F000AB4200D21D46635D5B00E31830BC184745
:1039000002E008C8121F08C1002AFAD170477047A8
:10391000002001E001C1121F002AFBD17047000006
:10392000F0B51FB484B007980699020D014314D076
:103930004A484B491018484305140F9801280E981F
:103940001CD0281A401C0024464E4749009401917F
:103950000290002814DA474227E00F98012443A37D
:10396000012808D0002104980F9A84600360C26087
:10397000416009B0F0BD0E98C143F4E74042E2E770
:10398000074612E0F80707D022463346019900980F
:10399000FFF7FAFC01910090224633461046194683
:1039A000FFF7F2FC04460E467F10002FEAD1029882
:1039B000019B0028009A0799069802DAFFF7E4FCB9
:1039C00001E0FFF749FD04460E460022284BFFF7B1
:1039D0003BFF03D80020C043014607E00022254BEF
:1039E00020463146FFF71EFCFFF70EFF102409E0CA
:1039F000002C0ADB0A220023FFF702FE059B30326F
:103A00001A55641E02460A43F2D11122641C059B1A
:103A1000121B1C190F9B012B03D0012308430ED14D
:103A20000AE0084304D011200E9000200F9084E794
:103A30000E98151A6D1E0BE00E98824202DD0023CF
:103A40006D1C03E0824201DA00236D1E002BEED0D4
:103A500004980F998260C16030C08AE701FCFFFFC3
:103A6000104D0000000024400000F03F3000000036
:103A70000000F0430000E03FFFB597B00646002588
:103A800018E2252877D100242746FD49049400E058
:103A90000443761C32780120203A90400842F7D146
:103AA00030782A280ED00222307801463039092990
:103AB00016D804990A235943303940181443761C08
:103AC0000490F1E7189802C804911890002904DACC
:103AD0000120400304434842049002200443761C22
:103AE00030782E2814D1042004437078761C2A28BC
:103AF00009D11898761C80C8189009E00A214F4314
:103B0000303FC719761C3078014630390929F5D97C
:103B100030786C2810D006DC4C281AD068280ED0DB
:103B20006A2817D104E0742813D07A2812D110E043
:103B30000120400504430CE00121090501E00321B7
:103B400009050C437178814203D101200005241836
:103B5000761C761C3078119066280BD013DC582820
:103B60007DD009DC00287BD04528F6D04628F4D04B
:103B700047281AD1A5E118E0632835D0642870D011
:103B8000652812D19DE170286CD008DC6728F1D03F
:103B900069287BD06E280DD06F2806D1BAE0732833
:103BA0002ED0752871D0782859D01A9A1999904733
:103BB0006D1C7EE16002400F022809D003280DD061
:103BC0000428189801680DD00D60001D189070E150
:103BD0001898EA1701680D604A60F6E718980168BE
:103BE0000D80F2E70D70F0E718986A4601781172BF
:103BF000001D18900020507202A80090012005E0DE
:103C0000189802C8189000200091C04361070DD594
:103C1000002101E00199491C0191B94212DA814267
:103C2000F8DB009A515C0029F4D10BE0002101E09F
:103C30000199491C01918142FADB019A0099895C42
:103C40000029F5D1019904981A9B471A2146384654
:103C5000199A00F097FA0199401945180BE04FE0C6
:103C60002CE113E04EE0009800990078491C009187
:103C70001A9A199990470198401E0190401CF2D160
:103C8000214638461A9B199A10E137E00A20002194
:103C9000009001916002410F022907D0189A01CAD1
:103CA0001892C2179446032908D00AE01898C01D3C
:103CB000C108C90005C91891944607E000B2C217AF
:103CC0009446042902D140B2C1178C4600226146B5
:103CD000944506DA0A460021404291418C462D2146
:103CE00002E0210504D52B216A461173012103E06E
:103CF000E10701D02021F7E7029155E00A200AE010
:103D0000102008E0102000900021042004430191BD
:103D1000082703E008200021019100906002410F74
:103D2000022907D0189A01CA189200229446032942
:103D300008D008E01898C01DC108C90005C918912D
:103D4000944603E080B2042900D1C0B20021029160
:103D5000210729D51199702906D0009A1021019BBD
:103D60004A401A4305D00EE040216A4611730121F2
:103D700008E06146014306D030216A46117311996B
:103D8000517302210291009A0821019B4A401A4373
:103D90000AD16146014301D1610705D530216A4648
:103DA000117301217F1E02911199582904D035A168
:103DB0000E910DA90D910DE037A1F9E76146019B28
:103DC000009AFFF71DFC0E9B8C469B5C0D9A521EC1
:103DD0000D92137061460143F0D10D9805A9081AA0
:103DE00020300190600703D501200004844300E0E7
:103DF00001270198874201DD381A00E0002001996F
:103E000000904118029809180498401A0490E003A1
:103E100006D421461A9B199A049800F0B3F9451963
:103E2000002706E003A81A9AC05D199990476D1CF7
:103E30007F1C02988742F5DBE0030CD521461A9BD4
:103E4000199A049800F09EF9451904E01A9A302056
:103E5000199990476D1C0099481E00900029F5DCC7
:103E600008E00D980D990078491C0D911A9A19993E
:103E700090476D1C0199481E01900029F1DC63E117
:103E80000928010030313233343536373839616230
:103E900063646566000000003031323334353637F4
:103EA00038394142434445460000000000F05AF9C9
:103EB0004519761C3078002800D0E2E528461BB072
:103EC000F0BD600700D406271898C01DC108C900BE
:103ED00048680A680831C30FDB071891190001D040
:103EE0009CA108E0210501D59BA104E0E10701D0D8
:103EF0009AA100E09AA1430011985B0810916528EF
:103F00000CD006DC452809D046281DD0472841D1D1
:103F100041E0662818D067283CD13CE00021112FF1
:103F200001DB112000E0781C0191009008A911A884
:103F3000FFF7F6FC139905910021119A15927F1C49
:103F400012980197009150E00120C00703900120D2
:103F5000019008A9009711A8FFF7E2FC139A1499A1
:103F600005920022119B009212981593059A0192D6
:103F7000002901D0104602E0791C40180190381A3F
:103F800001D5019804E04042401E0090781C019049
:103F9000C01B029043E0012F00DA01270021112FFE
:103FA00001DD112000E038460191009008A911A818
:103FB000FFF7B6FC13990591119A002112981592FA
:103FC0000091019721070CD40599B94201DB0199B1
:103FD00000E00191012904DD159A491E515C302948
:103FE00006D0B84201DA011D05DA0121029115E07F
:103FF0000199491EEDE7002805DC00994118009160
:104000000199091A03E0019A411C914200DD0191D6
:104010000099401A401C02900120C007039020071D
:1040200006D402990198814202DB0020C04302902D
:1040300000206946C87707AF012103980337C907F5
:10404000884224D0022011902B201290039800283F
:104050000CDA404203902D20129007E00A210398C9
:10406000FFF718F830317F1E039039701199481E00
:1040700011900029F2DC03980028EFD1791E1298E4
:1040800008703078202108404530BF1E387006A8DF
:10409000C01BC01D039010980078002800D001209C
:1040A000019941180298C017091803980918049833
:1040B000401A401E0490E00306D421461A9B199A28
:1040C000049800F05FF8451910980078002803D094
:1040D0001A9A199990476D1CE00324D521461A9B22
:1040E000199A049800F04EF845191CE00098002831
:1040F00007DB00990598884203DD1598405C199903
:1041000001E0199930201A9A904700986D1C401CC4
:1041100000900298401E0290002804D11A9A2E2086
:10412000199990476D1C0199481E01900029DDDC0A
:1041300005E038781A9A7F1C199990476D1C0399ED
:10414000481E03900029F4DC21461A9B199A049812
:10415000ACE600002D0000002B0000002000000055
:1041600000000000F8B5044600251E4617468804E6
:1041700004D405E039462020B0476D1C641EF9D5F3
:104180002846F8BDFFB50446002581B01E46C80389
:1041900001D5302700E02027880404D505E0384603
:1041A0000399B0476D1C641EF9D5284605B0F0BDD3
:1041B0000A68531C0B60107070472526270C0802F4
:1041C000170D01010209090101060200070007009D
:1041D00011001100020011000B0011000800110075
:1041E0000200000004420010003000209400000093
:1041F000003900109842001094300020EC040000B8
:10420000103900106010005024100050141000509D
:1042100018100050100000400000000000010203D0
:104220000405060708090A111213141516171819A0
:104230001A1B1E1F00010203040506090A070811C4
:1042400015121617181319141A1B1E1FD00001502F
:10425000E00001500024F400000400000000000011
:10426000ED050020DF0000208F050020C60500209E
:104270004A0700201E060020140000209010005065
:1042800000000240001000506010005000000800C4
:08429000000000000000000026
:04000005100000C126
:00000001FF
