Component: ARM Compiler 5.06 (build 20) Tool: armlink [4d35a3]

==============================================================================

Section Cross References

    main.o(.text) refers to main.o(.text) for BleInit
    main.o(.text) refers to debug.o(.text) for dbg_init
    main.o(.text) refers to gpio.o(.text) for PIN_Set_GPIO
    main.o(.text) refers to sc_reader.o(.text) for sc_reader_enable
    main.o(.text) refers to delay.o(.text) for delay_ms
    debug.o(.text) refers to uart.o(.text) for uart_0_init
    debug.o(.text) refers to printfa.o(i.__0vsprintf) for __c89vsprintf
    debug.o(.text) refers to debug.o(.bss) for s_formatBuffer
    debug.o(.text) refers to debug.o(.text) for dbg_printf
    uart.o(.text) refers to gpio.o(.data) for PIN_CONFIG
    uart.o(.text) refers to uart.o(.data) for UART_0_CTRL
    uart.o(.text) refers to uart.o(.text) for __NVIC_DisableIRQ
    uart.o(.text) refers to uart.o(.data) for UART_0_CTRL
    uart.o(.text) refers to uart.o(.text) for __NVIC_EnableIRQ
    uart.o(.text) refers to gpio.o(.data) for PIN_CONFIG
    uart.o(.text) refers to uart.o(.data) for UART_1_CTRL
    uart.o(.text) refers to uart.o(.data) for UART_1_CTRL
    uart.o(.text) refers to uart.o(.text) for __NVIC_DisableIRQ
==============================================================================

Removing Unused input sections from the image.

    Removing main.o(.rev16_text), (4 bytes).
    Removing main.o(.revsh_text), (4 bytes).
    Removing debug.o(.rev16_text), (4 bytes).
    Removing debug.o(.revsh_text), (4 bytes).
    Removing debug.o(.text), (60 bytes).
    Removing uart.o(.rev16_text), (4 bytes).
    Removing uart.o(.revsh_text), (4 bytes).
    Removing uart.o(.text), (56 bytes).
    Removing uart.o(.text), (32 bytes).
    Removing uart.o(.text), (348 bytes).
    Removing uart.o(.text), (44 bytes).
    Removing uart.o(.text), (32 bytes).
    Removing gpio.o(.rev16_text), (4 bytes).
    Removing gpio.o(.revsh_text), (4 bytes).
    Removing gpio.o(.text), (160 bytes).
    Removing gpio.o(.text), (208 bytes).
    Removing gpio.o(.text), (56 bytes).
    Removing gpio.o(.text), (56 bytes).
==============================================================================

Image Symbol Table

    Local Symbols

    Symbol Name                              Value     Ov Type        Size  Object(Section)

    ../clib/microlib/division.c              0x00000000   Number         0  uldiv.o ABSOLUTE
    ../clib/microlib/division.c              0x00000000   Number         0  idiv.o ABSOLUTE
    ../clib/microlib/division.c              0x00000000   Number         0  uidiv.o ABSOLUTE
    ../clib/microlib/errno.c                 0x00000000   Number         0  errno.o ABSOLUTE
    ../clib/microlib/init/entry.s            0x00000000   Number         0  entry8b.o ABSOLUTE
    ../clib/microlib/init/entry.s            0x00000000   Number         0  entry8a.o ABSOLUTE
    ../clib/microlib/init/entry.s            0x00000000   Number         0  entry11b.o ABSOLUTE
    ../clib/microlib/init/entry.s            0x00000000   Number         0  entry11a.o ABSOLUTE
    ../clib/microlib/init/entry.s            0x00000000   Number         0  entry10b.o ABSOLUTE
    ../clib/microlib/init/entry.s            0x00000000   Number         0  entry7b.o ABSOLUTE
    ../clib/microlib/init/entry.s            0x00000000   Number         0  entry10a.o ABSOLUTE
    ../clib/microlib/init/entry.s            0x00000000   Number         0  entry9b.o ABSOLUTE
    ../clib/microlib/init/entry.s            0x00000000   Number         0  entry7a.o ABSOLUTE
    ../clib/microlib/init/entry.s            0x00000000   Number         0  entry5.o ABSOLUTE
    ../clib/microlib/init/entry.s            0x00000000   Number         0  entry.o ABSOLUTE
    ../clib/microlib/init/entry.s            0x00000000   Number         0  entry2.o ABSOLUTE
    ../clib/microlib/init/entry.s            0x00000000   Number         0  entry9a.o ABSOLUTE
    ../clib/microlib/longlong.c              0x00000000   Number         0  llushr.o ABSOLUTE
    ../clib/microlib/longlong.c              0x00000000   Number         0  llsshr.o ABSOLUTE
    ../clib/microlib/longlong.c              0x00000000   Number         0  llshl.o ABSOLUTE
    ../clib/microlib/printf/printf.c         0x00000000   Number         0  printfa.o ABSOLUTE
    ../clib/microlib/stdio/fputc.c           0x00000000   Number         0  fputc.o ABSOLUTE
    ../clib/microlib/stdio/semi.s            0x00000000   Number         0  semi.o ABSOLUTE
    ../clib/microlib/stdio/streams.c         0x00000000   Number         0  stdout.o ABSOLUTE
    ../clib/microlib/string/memcmp.c         0x00000000   Number         0  memcmp.o ABSOLUTE
    ../clib/microlib/string/memcpy.c         0x00000000   Number         0  memcpya.o ABSOLUTE
    ../clib/microlib/string/memcpy.c         0x00000000   Number         0  memcpyb.o ABSOLUTE
    ../clib/microlib/string/memset.c         0x00000000   Number         0  memseta.o ABSOLUTE
    ../clib/microlib/stubs.s                 0x00000000   Number         0  iusefp.o ABSOLUTE
    ../clib/microlib/stubs.s                 0x00000000   Number         0  iusesemip.o ABSOLUTE
    ../clib/microlib/unhosted.c              0x00000000   Number         0  uread4.o ABSOLUTE
    ../clib/microlib/unhosted.c              0x00000000   Number         0  uwrite4.o ABSOLUTE
    ../fplib/microlib/f2d.c                  0x00000000   Number         0  f2d.o ABSOLUTE
    ../fplib/microlib/fpadd.c                0x00000000   Number         0  fadd.o ABSOLUTE
    ../fplib/microlib/fpadd.c                0x00000000   Number         0  dadd.o ABSOLUTE
    ../fplib/microlib/fpdiv.c                0x00000000   Number         0  ddiv.o ABSOLUTE
    ../fplib/microlib/fpepilogue.c           0x00000000   Number         0  fepilogue.o ABSOLUTE
    ../fplib/microlib/fpepilogue.c           0x00000000   Number         0  depilogue.o ABSOLUTE
    ../fplib/microlib/fpfix.c                0x00000000   Number         0  dfixui.o ABSOLUTE
    ../fplib/microlib/fpfix.c                0x00000000   Number         0  dfixul.o ABSOLUTE
    ../fplib/microlib/fpflt.c                0x00000000   Number         0  dfltui.o ABSOLUTE
    ../fplib/microlib/fpflt.c                0x00000000   Number         0  dflti.o ABSOLUTE
    ../fplib/microlib/fpflt.c                0x00000000   Number         0  ffltui.o ABSOLUTE
    ../fplib/microlib/fpmul.c                0x00000000   Number         0  dmul.o ABSOLUTE
    ../fplib/microlib/fpscalb.c              0x00000000   Number         0  dscalb.o ABSOLUTE
    ../fplib/microlib/fpsqrt.c               0x00000000   Number         0  dsqrt.o ABSOLUTE
    ../mathlib/dunder.c                      0x00000000   Number         0  dunder.o ABSOLUTE
    ../mathlib/fpclassify.c                  0x00000000   Number         0  fpclassify.o ABSOLUTE
    ../mathlib/poly.c                        0x00000000   Number         0  poly.o ABSOLUTE
    ../mathlib/pow.c                         0x00000000   Number         0  pow.o ABSOLUTE
    ../mathlib/pow.c                         0x00000000   Number         0  pow_x.o ABSOLUTE
    ../mathlib/qnan.c                        0x00000000   Number         0  qnan.o ABSOLUTE
    ../mathlib/sqrt.c                        0x00000000   Number         0  sqrt_x.o ABSOLUTE
    ../mathlib/sqrt.c                        0x00000000   Number         0  sqrt.o ABSOLUTE
    ..\..\..\Driver\atr_decoder.c            0x00000000   Number         0  atr_decoder.o ABSOLUTE
    ..\..\..\Driver\debug.c                  0x00000000   Number         0  debug.o ABSOLUTE
    ..\..\..\Driver\delay.c                  0x00000000   Number         0  delay.o ABSOLUTE
    ..\..\..\Driver\gpio.c                   0x00000000   Number         0  gpio.o ABSOLUTE
    ..\..\..\Driver\queue.c                  0x00000000   Number         0  queue.o ABSOLUTE
    ..\..\..\Driver\sc_reader.c              0x00000000   Number         0  sc_reader.o ABSOLUTE
    ..\..\..\Driver\tpdu.c                   0x00000000   Number         0  tpdu.o ABSOLUTE
    ..\..\..\Driver\uart.c                   0x00000000   Number         0  uart.o ABSOLUTE
    ..\\..\\..\\Driver\\atr_decoder.c        0x00000000   Number         0  atr_decoder.o ABSOLUTE
    ..\\..\\..\\Driver\\debug.c              0x00000000   Number         0  debug.o ABSOLUTE
    ..\\..\\..\\Driver\\delay.c              0x00000000   Number         0  delay.o ABSOLUTE
    ..\\..\\..\\Driver\\gpio.c               0x00000000   Number         0  gpio.o ABSOLUTE
    ..\\..\\..\\Driver\\queue.c              0x00000000   Number         0  queue.o ABSOLUTE
    ..\\..\\..\\Driver\\sc_reader.c          0x00000000   Number         0  sc_reader.o ABSOLUTE
    ..\\..\\..\\Driver\\tpdu.c               0x00000000   Number         0  tpdu.o ABSOLUTE
    ..\\..\\..\\Driver\\uart.c               0x00000000   Number         0  uart.o ABSOLUTE
    ..\\main.c                               0x00000000   Number         0  main.o ABSOLUTE
    ..\main.c                                0x00000000   Number         0  main.o ABSOLUTE
    Main\\main.c                             0x00000000   Number         0  main.o ABSOLUTE
    Main\main.c                              0x00000000   Number         0  main.o ABSOLUTE
    RTE\Device\ARMCM0\startup_ARMCM0.s       0x00000000   Number         0  startup_armcm0.o ABSOLUTE
    RTE\Device\ARMCM0\system_ARMCM0.c        0x00000000   Number         0  system_armcm0.o ABSOLUTE
    RTE\\Device\\ARMCM0\\system_ARMCM0.c     0x00000000   Number         0  system_armcm0.o ABSOLUTE
    cdcmple.s                                0x00000000   Number         0  cdcmple.o ABSOLUTE
    cdrcmple.s                               0x00000000   Number         0  cdrcmple.o ABSOLUTE
    dc.s                                     0x00000000   Number         0  dc.o ABSOLUTE
    handlers.s                               0x00000000   Number         0  handlers.o ABSOLUTE
    init.s                                   0x00000000   Number         0  init.o ABSOLUTE
    RESET                                    0x10000000   Section      192  startup_armcm0.o(RESET)
    .ARM.Collect$$$$00000000                 0x100000c0   Section        0  entry.o(.ARM.Collect$$$$00000000)
    .ARM.Collect$$$$00000001                 0x100000c0   Section        4  entry2.o(.ARM.Collect$$$$00000001)
    .ARM.Collect$$$$00000004                 0x100000c4   Section        4  entry5.o(.ARM.Collect$$$$00000004)
    .ARM.Collect$$$$00000008                 0x100000c8   Section        0  entry7b.o(.ARM.Collect$$$$00000008)
    .ARM.Collect$$$$0000000A                 0x100000c8   Section        0  entry8b.o(.ARM.Collect$$$$0000000A)
    .ARM.Collect$$$$0000000B                 0x100000c8   Section        8  entry9a.o(.ARM.Collect$$$$0000000B)
    .ARM.Collect$$$$0000000D                 0x100000d0   Section        0  entry10a.o(.ARM.Collect$$$$0000000D)
    .ARM.Collect$$$$0000000F                 0x100000d0   Section        0  entry11a.o(.ARM.Collect$$$$0000000F)
    .ARM.Collect$$$$00002712                 0x100000d0   Section        4  entry2.o(.ARM.Collect$$$$00002712)
    __lit__00000000                          0x100000d0   Data           4  entry2.o(.ARM.Collect$$$$00002712)
    .text                                    0x100000d4   Section        0  main.o(.text)
    .text                                    0x10000284   Section        0  debug.o(.text)
    .text                                    0x100002d8   Section        0  uart.o(.text)
    __NVIC_EnableIRQ                         0x100005b9   Thumb Code    26  uart.o(.text)
    .text                                    0x100005e4   Section        0  gpio.o(.text)
    .text                                    0x10000840   Section        0  delay.o(.text)
    .text                                    0x10000860   Section        0  atr_decoder.o(.text)
    .text                                    0x10000aa8   Section        0  sc_reader.o(.text)
    __NVIC_DisableIRQ                        0x10000aa9   Thumb Code    50  sc_reader.o(.text)
    sc_reader_set_FD                         0x10000b1d   Thumb Code   202  sc_reader.o(.text)
    sc_reader_enable_retry                   0x10000be7   Thumb Code    38  sc_reader.o(.text)
    sc_reader_spec_default                   0x10000c0d   Thumb Code   206  sc_reader.o(.text)
    sc_reader_sendPPS                        0x10000e23   Thumb Code   100  sc_reader.o(.text)
    get_byte                                 0x10000e87   Thumb Code   236  sc_reader.o(.text)
    sc_reader_pps_verification               0x10000f73   Thumb Code   192  sc_reader.o(.text)
    __NVIC_EnableIRQ                         0x10001bbb   Thumb Code    26  sc_reader.o(.text)
    .text                                    0x10001c04   Section        0  tpdu.o(.text)
    .text                                    0x10001de4   Section        0  queue.o(.text)
    .text                                    0x10001e5c   Section       28  startup_armcm0.o(.text)
    .text                                    0x10001e78   Section        0  system_armcm0.o(.text)
    .text                                    0x10001e88   Section        0  main.o(.text)
    _LCDisConnect                            0x10001e89   Thumb Code    46  main.o(.text)
    _LCTimer_Handler                         0x10001eb7   Thumb Code   248  main.o(.text)
    _LCRxPkt_Handler                         0x10002003   Thumb Code   294  main.o(.text)
    _LCTxPkt_Handler                         0x10002129   Thumb Code   380  main.o(.text)
    _LLENCReq                                0x10002a0f   Thumb Code   286  main.o(.text)
    _GAPStartAdv                             0x1000306f   Thumb Code   558  main.o(.text)
    WaitLLCOverSlpth                         0x1000449b   Thumb Code    38  main.o(.text)
    _BBRXFIFORead                            0x100044c1   Thumb Code   172  main.o(.text)
    _rom_rx_sweyntooth_protect               0x1000456d   Thumb Code   150  main.o(.text)
    STKSetRand                               0x10004603   Thumb Code    30  main.o(.text)
    AttWriteFlash                            0x10004621   Thumb Code   110  main.o(.text)
    GetOverSlpth                             0x1000468f   Thumb Code    26  main.o(.text)
    .text                                    0x100046b8   Section        0  uidiv.o(.text)
    .text                                    0x100046e4   Section        0  idiv.o(.text)
    .text                                    0x1000470c   Section        0  memcpya.o(.text)
    .text                                    0x10004730   Section        0  memseta.o(.text)
    .text                                    0x10004754   Section        0  memcmp.o(.text)
    .text                                    0x1000476e   Section        0  uread4.o(.text)
    .text                                    0x10004782   Section        0  uwrite4.o(.text)
    .text                                    0x10004794   Section        0  fadd.o(.text)
    .text                                    0x10004848   Section        0  dadd.o(.text)
    .text                                    0x100049ac   Section        0  dmul.o(.text)
    .text                                    0x10004a7c   Section        0  ddiv.o(.text)
    .text                                    0x10004b6c   Section        0  ffltui.o(.text)
    .text                                    0x10004b7c   Section        0  dflti.o(.text)
    .text                                    0x10004ba4   Section        0  dfltui.o(.text)
    .text                                    0x10004bc0   Section        0  dfixui.o(.text)
    .text                                    0x10004bfc   Section        0  f2d.o(.text)
    .text                                    0x10004c24   Section        0  uldiv.o(.text)
    .text                                    0x10004c84   Section        0  llshl.o(.text)
    .text                                    0x10004ca4   Section        0  llushr.o(.text)
    .text                                    0x10004cc6   Section        0  llsshr.o(.text)
    .text                                    0x10004cec   Section        0  iusefp.o(.text)
    .text                                    0x10004cec   Section        0  fepilogue.o(.text)
    .text                                    0x10004d6e   Section        0  depilogue.o(.text)
    .text                                    0x10004e2c   Section        0  dscalb.o(.text)
    .text                                    0x10004e58   Section        0  dfixul.o(.text)
    .text                                    0x10004e98   Section       40  cdrcmple.o(.text)
    .text                                    0x10004ec0   Section       36  init.o(.text)
    .text                                    0x10004ee4   Section        0  dsqrt.o(.text)
    i.__0vsprintf                            0x10004f88   Section        0  printfa.o(i.__0vsprintf)
    i.__ARM_clz                              0x10004fac   Section        0  depilogue.o(i.__ARM_clz)
    i.__ARM_common_switch8                   0x10004fda   Section        0  main.o(i.__ARM_common_switch8)
    i.__ARM_fpclassify                       0x10004ff4   Section        0  fpclassify.o(i.__ARM_fpclassify)
    i.__kernel_poly                          0x10005020   Section        0  poly.o(i.__kernel_poly)
    i.__mathlib_dbl_divzero                  0x100050cc   Section        0  dunder.o(i.__mathlib_dbl_divzero)
    i.__mathlib_dbl_infnan2                  0x100050e0   Section        0  dunder.o(i.__mathlib_dbl_infnan2)
    i.__mathlib_dbl_invalid                  0x100050e8   Section        0  dunder.o(i.__mathlib_dbl_invalid)
    i.__mathlib_dbl_overflow                 0x100050f8   Section        0  dunder.o(i.__mathlib_dbl_overflow)
    i.__mathlib_dbl_underflow                0x1000510c   Section        0  dunder.o(i.__mathlib_dbl_underflow)
    i.__scatterload_copy                     0x10005120   Section       14  handlers.o(i.__scatterload_copy)
    i.__scatterload_null                     0x1000512e   Section        2  handlers.o(i.__scatterload_null)
    i.__scatterload_zeroinit                 0x10005130   Section       14  handlers.o(i.__scatterload_zeroinit)
    i.__set_errno                            0x10005140   Section        0  errno.o(i.__set_errno)
    i._fp_digits                             0x1000514c   Section        0  printfa.o(i._fp_digits)
    _fp_digits                               0x1000514d   Thumb Code   316  printfa.o(i._fp_digits)
    i._printf_core                           0x100052a4   Section        0  printfa.o(i._printf_core)
    _printf_core                             0x100052a5   Thumb Code  1754  printfa.o(i._printf_core)
    i._printf_post_padding                   0x10005990   Section        0  printfa.o(i._printf_post_padding)
    _printf_post_padding                     0x10005991   Thumb Code    32  printfa.o(i._printf_post_padding)
    i._printf_pre_padding                    0x100059b0   Section        0  printfa.o(i._printf_pre_padding)
    _printf_pre_padding                      0x100059b1   Thumb Code    44  printfa.o(i._printf_pre_padding)
    i._sputc                                 0x100059dc   Section        0  printfa.o(i._sputc)
    _sputc                                   0x100059dd   Thumb Code    10  printfa.o(i._sputc)
    i.pow                                    0x100059e8   Section        0  pow.o(i.pow)
    i.sqrt                                   0x100063e4   Section        0  sqrt.o(i.sqrt)
    .constdata                               0x1000642c   Section      128  sc_reader.o(.constdata)
    F_Table                                  0x1000642c   Data          64  sc_reader.o(.constdata)
    D_Table                                  0x1000646c   Data          64  sc_reader.o(.constdata)
    .constdata                               0x100064ac   Section       40  main.o(.constdata)
    _ll_packet_length                        0x100064af   Data          15  main.o(.constdata)
    _smp_packet_lenght                       0x100064be   Data          22  main.o(.constdata)
    .constdata                               0x100064d8   Section      136  pow.o(.constdata)
    bp                                       0x100064d8   Data          16  pow.o(.constdata)
    dp_h                                     0x100064e8   Data          16  pow.o(.constdata)
    dp_l                                     0x100064f8   Data          16  pow.o(.constdata)
    L                                        0x10006508   Data          48  pow.o(.constdata)
    P                                        0x10006538   Data          40  pow.o(.constdata)
    .constdata                               0x10006560   Section        8  qnan.o(.constdata)
    .data                                    0x20003000   Section        8  uart.o(.data)
    UART_0_CTRL                              0x20003000   Data           4  uart.o(.data)
    UART_1_CTRL                              0x20003004   Data           4  uart.o(.data)
    .data                                    0x20003008   Section       72  gpio.o(.data)
    gpio_callback                            0x2000301c   Data           4  gpio.o(.data)
    pinmuxtab48                              0x20003020   Data          24  gpio.o(.data)
    pinmuxtab32                              0x20003038   Data          24  gpio.o(.data)
    .data                                    0x20003050   Section       12  atr_decoder.o(.data)
    parsed_data                              0x20003050   Data           6  atr_decoder.o(.data)
    default_fd                               0x20003056   Data           1  atr_decoder.o(.data)
    parsed_bitmask                           0x20003058   Data           4  atr_decoder.o(.data)
    .data                                    0x2000305c   Section       51  sc_reader.o(.data)
    SC_CTRL                                  0x2000305c   Data           4  sc_reader.o(.data)
    task_flag                                0x20003060   Data           4  sc_reader.o(.data)
    tx_finished                              0x20003064   Data           1  sc_reader.o(.data)
    card_in                                  0x20003065   Data           1  sc_reader.o(.data)
    card_activated                           0x20003066   Data           1  sc_reader.o(.data)
    card_clock_stoppable                     0x20003067   Data           1  sc_reader.o(.data)
    card_clock_restart                       0x20003068   Data           1  sc_reader.o(.data)
    callback                                 0x2000306c   Data           8  sc_reader.o(.data)
    pps_cb                                   0x20003074   Data           8  sc_reader.o(.data)
    sc_queue                                 0x2000307c   Data          16  sc_reader.o(.data)
    send_test                                0x2000308c   Data           1  sc_reader.o(.data)
    state                                    0x2000308d   Data           1  sc_reader.o(.data)
    tpdu_state                               0x2000308e   Data           1  sc_reader.o(.data)
    .data                                    0x20003090   Section       22  tpdu.o(.data)
    residual_size                            0x20003090   Data           4  tpdu.o(.data)
    state                                    0x20003094   Data           1  tpdu.o(.data)
    notification                             0x20003098   Data           4  tpdu.o(.data)
    command                                  0x2000309c   Data           4  tpdu.o(.data)
    buf                                      0x200030a0   Data           4  tpdu.o(.data)
    procedure                                0x200030a4   Data           1  tpdu.o(.data)
    next_data_size                           0x200030a5   Data           1  tpdu.o(.data)
    .data                                    0x200030a8   Section        4  system_armcm0.o(.data)
    .data                                    0x200030ac   Section       64  main.o(.data)
    syd_confirm                              0x200030ac   Data           1  main.o(.data)
    ww_minus_cnt                             0x200030ad   Data           1  main.o(.data)
    ext_uart_en                              0x200030ae   Data           1  main.o(.data)
    get_bond_device_idx                      0x200030af   Data           1  main.o(.data)
    _valid_l2cap_lenght                      0x200030b1   Data           1  main.o(.data)
    rssi_rx                                  0x200030b3   Data           1  main.o(.data)
    p_flash_hdr                              0x200030b4   Data           4  main.o(.data)
    p_lclink                                 0x200030b8   Data           4  main.o(.data)
    p_txpdu                                  0x200030bc   Data           4  main.o(.data)
    p_rxbuf                                  0x200030c0   Data           4  main.o(.data)
    p_flash                                  0x200030c4   Data           4  main.o(.data)
    p_dump_key                               0x200030cc   Data           4  main.o(.data)
    EFUSE_CTRL                               0x200030d0   Data           4  main.o(.data)
    BB_CTRL                                  0x200030d4   Data           4  main.o(.data)
    PW_CTRL                                  0x200030d8   Data           4  main.o(.data)
    PIN_CONFIG                               0x200030dc   Data           4  main.o(.data)
    CONFIG_FLASH_SIZE                        0x200030e0   Data           4  main.o(.data)
    g_evt                                    0x200030e4   Data           8  main.o(.data)
    .data                                    0x200030ec   Section        4  errno.o(.data)
    _errno                                   0x200030ec   Data           4  errno.o(.data)
    .bss                                     0x200030f0   Section      128  debug.o(.bss)
    s_formatBuffer                           0x200030f0   Data         128  debug.o(.bss)
    .bss                                     0x20003170   Section      578  sc_reader.o(.bss)
    ATR                                      0x20003170   Data          38  sc_reader.o(.bss)
    PPS                                      0x20003196   Data          12  sc_reader.o(.bss)
    buffer                                   0x200031a2   Data         264  sc_reader.o(.bss)
    .bss                                     0x200033b2   Section      104  main.o(.bss)
    code_hdr                                 0x200033b2   Data          87  main.o(.bss)
    smart_update_ctrol                       0x20003409   Data          17  main.o(.bss)
    STACK                                    0x20003420   Section     1024  startup_armcm0.o(STACK)

    Global Symbols

    Symbol Name                              Value     Ov Type        Size  Object(Section)

    BuildAttributes$$THM_ISAv3M$S$PE$A:L22$X:L11$S22$IEEE1$IW$USESV6$~STKCKD$USESV7$~SHL$OTIME$ROPI$IEEEX$EBA8$MICROLIB$REQ8$PRES8$EABIv2 0x00000000   Number         0  anon$$obj.o ABSOLUTE
    __ARM_use_no_argv                        0x00000000   Number         0  main.o ABSOLUTE
    __cpp_initialize__aeabi_                  - Undefined Weak Reference
    __cxa_finalize                            - Undefined Weak Reference
    __decompress                              - Undefined Weak Reference
    _clock_init                               - Undefined Weak Reference
    _microlib_exit                            - Undefined Weak Reference
    __Vectors_Size                           0x000000c0   Number         0  startup_armcm0.o ABSOLUTE
    __Vectors                                0x10000000   Data           4  startup_armcm0.o(RESET)
    __Vectors_End                            0x100000c0   Data           0  startup_armcm0.o(RESET)
    __main                                   0x100000c1   Thumb Code     0  entry.o(.ARM.Collect$$$$00000000)
    _main_stk                                0x100000c1   Thumb Code     0  entry2.o(.ARM.Collect$$$$00000001)
    _main_scatterload                        0x100000c5   Thumb Code     0  entry5.o(.ARM.Collect$$$$00000004)
    __main_after_scatterload                 0x100000c9   Thumb Code     0  entry5.o(.ARM.Collect$$$$00000004)
    _main_clock                              0x100000c9   Thumb Code     0  entry7b.o(.ARM.Collect$$$$00000008)
    _main_cpp_init                           0x100000c9   Thumb Code     0  entry8b.o(.ARM.Collect$$$$0000000A)
    _main_init                               0x100000c9   Thumb Code     0  entry9a.o(.ARM.Collect$$$$0000000B)
    __rt_final_cpp                           0x100000d1   Thumb Code     0  entry10a.o(.ARM.Collect$$$$0000000D)
    __rt_final_exit                          0x100000d1   Thumb Code     0  entry11a.o(.ARM.Collect$$$$0000000F)
    main                                     0x100000d5   Thumb Code   242  main.o(.text)
    dbg_init                                 0x10000285   Thumb Code     8  debug.o(.text)
    dbg_printf                               0x1000028d   Thumb Code    72  debug.o(.text)
    uart_0_init                              0x100002d9   Thumb Code   340  uart.o(.text)
    uart_0_write                             0x1000042d   Thumb Code    40  uart.o(.text)
    uart_0_read                              0x10000455   Thumb Code    72  uart.o(.text)
    UART0_IRQHandler                         0x1000049d   Thumb Code   106  uart.o(.text)
    uart_1_read                              0x10000507   Thumb Code    72  uart.o(.text)
    UART1_IRQHandler                         0x1000054f   Thumb Code   106  uart.o(.text)
    PIN_Set_GPIO                             0x100005e5   Thumb Code    50  gpio.o(.text)
    PIN_Pullup_Enable                        0x10000617   Thumb Code   150  gpio.o(.text)
    GPIO_Set_Output                          0x100006ad   Thumb Code    50  gpio.o(.text)
    GPIO_Input_Enable                        0x100006df   Thumb Code    50  gpio.o(.text)
    GPIO_Pin_Set                             0x10000711   Thumb Code    50  gpio.o(.text)
    GPIO_Pin_Turn                            0x10000743   Thumb Code    50  gpio.o(.text)
    GPIO_Pin_Read                            0x10000775   Thumb Code    34  gpio.o(.text)
    GPIO_IRQHandler                          0x10000797   Thumb Code   132  gpio.o(.text)
    delay_ms                                 0x10000841   Thumb Code    28  delay.o(.text)
    atr_reset                                0x10000861   Thumb Code     8  atr_decoder.o(.text)
    atr_decode                               0x10000869   Thumb Code   358  atr_decoder.o(.text)
    atr_decoder_get_extra_guard_time         0x100009cf   Thumb Code    22  atr_decoder.o(.text)
    atr_decoder_get_waiting_integer          0x100009e5   Thumb Code    20  atr_decoder.o(.text)
    atr_decoder_get_clock_stop               0x100009f9   Thumb Code    48  atr_decoder.o(.text)
    atr_decoder_allow_pps                    0x10000a29   Thumb Code    12  atr_decoder.o(.text)
    atr_decoder_allow_switch_mode            0x10000a35   Thumb Code    32  atr_decoder.o(.text)
    atr_decoder_get_protocol                 0x10000a55   Thumb Code    48  atr_decoder.o(.text)
    atr_decoder_get_FD                       0x10000a85   Thumb Code    24  atr_decoder.o(.text)
    sc_reader_config_auto                    0x10000adb   Thumb Code    36  sc_reader.o(.text)
    sc_reader_config_clock_div               0x10000aff   Thumb Code    30  sc_reader.o(.text)
    sc_reader_deactivate                     0x10000cdb   Thumb Code    36  sc_reader.o(.text)
    sc_reader_activate                       0x10000cff   Thumb Code    42  sc_reader.o(.text)
    sc_reader_warm_reset                     0x10000d29   Thumb Code    38  sc_reader.o(.text)
    sc_reader_send                           0x10000d4f   Thumb Code   212  sc_reader.o(.text)
    sc_reader_get                            0x10001033   Thumb Code   126  sc_reader.o(.text)
    sc_reader_config_clock_stoppable         0x100010b1   Thumb Code     6  sc_reader.o(.text)
    sc_reader_config_clock_restart           0x100010b7   Thumb Code     6  sc_reader.o(.text)
    sc_reader_dump_info                      0x100010bd   Thumb Code   150  sc_reader.o(.text)
    get_challenge_test_handle                0x10001153   Thumb Code   154  sc_reader.o(.text)
    test_tpdu                                0x100011ed   Thumb Code    36  sc_reader.o(.text)
    sc_reader_task                           0x10001211   Thumb Code  1220  sc_reader.o(.text)
    sc_reader_enable                         0x100016d5   Thumb Code   308  sc_reader.o(.text)
    ISO_7816_IRQHandler                      0x10001809   Thumb Code   946  sc_reader.o(.text)
    tpdu_request                             0x10001c05   Thumb Code    36  tpdu.o(.text)
    tpdu_reset                               0x10001c29   Thumb Code     8  tpdu.o(.text)
    tpdu_task                                0x10001c31   Thumb Code   408  tpdu.o(.text)
    queue_reset                              0x10001de5   Thumb Code     6  queue.o(.text)
    enqueue                                  0x10001deb   Thumb Code    28  queue.o(.text)
    dequeue                                  0x10001e07   Thumb Code    42  queue.o(.text)
    is_queue_empty                           0x10001e31   Thumb Code    18  queue.o(.text)
    queue_size                               0x10001e43   Thumb Code    24  queue.o(.text)
    Reset_Handler                            0x10001e5d   Thumb Code     8  startup_armcm0.o(.text)
    NMI_Handler                              0x10001e65   Thumb Code     2  startup_armcm0.o(.text)
    HardFault_Handler                        0x10001e67   Thumb Code     2  startup_armcm0.o(.text)
    SVC_Handler                              0x10001e69   Thumb Code     2  startup_armcm0.o(.text)
    PendSV_Handler                           0x10001e6b   Thumb Code     2  startup_armcm0.o(.text)
    SysTick_Handler                          0x10001e6d   Thumb Code     2  startup_armcm0.o(.text)
    CAP_IRQHandler                           0x10001e6f   Thumb Code     0  startup_armcm0.o(.text)
    GPADC_IRQHandler                         0x10001e6f   Thumb Code     0  startup_armcm0.o(.text)
    HID_IRQHandler                           0x10001e6f   Thumb Code     0  startup_armcm0.o(.text)
    HPWM_IRQHandler                          0x10001e6f   Thumb Code     0  startup_armcm0.o(.text)
    HTIMER_IRQHandler                        0x10001e6f   Thumb Code     0  startup_armcm0.o(.text)
    I2C0_IRQHandler                          0x10001e6f   Thumb Code     0  startup_armcm0.o(.text)
    I2C1_IRQHandler                          0x10001e6f   Thumb Code     0  startup_armcm0.o(.text)
    IR_Rx_IRQHandler                         0x10001e6f   Thumb Code     0  startup_armcm0.o(.text)
    IR_Tx_IRQHandler                         0x10001e6f   Thumb Code     0  startup_armcm0.o(.text)
    LLC2_IRQHandler                          0x10001e6f   Thumb Code     0  startup_armcm0.o(.text)
    LLC_IRQHandler                           0x10001e6f   Thumb Code     0  startup_armcm0.o(.text)
    RTC_IRQHandler                           0x10001e6f   Thumb Code     0  startup_armcm0.o(.text)
    SPIM_IRQHandler                          0x10001e6f   Thumb Code     0  startup_armcm0.o(.text)
    SW_IRQHandler                            0x10001e6f   Thumb Code     0  startup_armcm0.o(.text)
    TIMER0_IRQHandler                        0x10001e6f   Thumb Code     0  startup_armcm0.o(.text)
    TIMER1_IRQHandler                        0x10001e6f   Thumb Code     0  startup_armcm0.o(.text)
    TIMER2_IRQHandler                        0x10001e6f   Thumb Code     0  startup_armcm0.o(.text)
    TIMER3_IRQHandler                        0x10001e6f   Thumb Code     0  startup_armcm0.o(.text)
    TOUCH_IRQHandler                         0x10001e6f   Thumb Code     0  startup_armcm0.o(.text)
    SystemInit                               0x10001e79   Thumb Code     8  system_armcm0.o(.text)
    LLPingReq                                0x10001faf   Thumb Code    26  main.o(.text)
    LLScanReqHandle                          0x10001fc9   Thumb Code    58  main.o(.text)
    _BBGetMask                               0x100022a5   Thumb Code    92  main.o(.text)
    Lib_LLEvtCallback                        0x10002301   Thumb Code   186  main.o(.text)
    ConnectionLatencyMode                    0x100023bb   Thumb Code   112  main.o(.text)
    sw_timer_latency_callback                0x1000242b   Thumb Code    42  main.o(.text)
    TimerStart                               0x10002455   Thumb Code    10  main.o(.text)
    smart_latency_start                      0x1000245f   Thumb Code   212  main.o(.text)
    smart_update_latency_updatersp           0x10002533   Thumb Code   162  main.o(.text)
    BBRFRead                                 0x100025d5   Thumb Code     4  main.o(.text)
    BBRFWrite                                0x100025d9   Thumb Code     6  main.o(.text)
    RCOSCCalibration                         0x100025df   Thumb Code    64  main.o(.text)
    RFSleep                                  0x1000261f   Thumb Code    10  main.o(.text)
    UartEn                                   0x10002629   Thumb Code    32  main.o(.text)
    _SYS32kClockSwitch                       0x10002649   Thumb Code   270  main.o(.text)
    ClockSwitch                              0x10002757   Thumb Code    10  main.o(.text)
    RFWakeup                                 0x10002761   Thumb Code    22  main.o(.text)
    LPOCalibration                           0x10002777   Thumb Code   254  main.o(.text)
    smart_latency_clear                      0x10002875   Thumb Code    12  main.o(.text)
    Lib_EvtCallback                          0x10002881   Thumb Code   254  main.o(.text)
    _BMGetNextBondDevice                     0x1000297f   Thumb Code   144  main.o(.text)
    __LLVersionIndRxHandler                  0x10002b2d   Thumb Code    66  main.o(.text)
    GetMasterSystem                          0x10002b6f   Thumb Code     6  main.o(.text)
    TimerStop                                0x10002b75   Thumb Code     4  main.o(.text)
    smart_update_retry                       0x10002b79   Thumb Code   158  main.o(.text)
    sw_timer_update_callback                 0x10002c17   Thumb Code    60  main.o(.text)
    smart_update_latency_updatareq           0x10002c53   Thumb Code   496  main.o(.text)
    Lib_ProtocolHookCallback                 0x10002e43   Thumb Code   116  main.o(.text)
    Lib_MiscCallback                         0x10002eb7   Thumb Code    14  main.o(.text)
    BleInit                                  0x10002ec5   Thumb Code   344  main.o(.text)
    DisConnect                               0x1000301d   Thumb Code    10  main.o(.text)
    SetDevAddr                               0x10003027   Thumb Code    12  main.o(.text)
    GetDevAddr                               0x10003033   Thumb Code    12  main.o(.text)
    SetLEFeature                             0x1000303f   Thumb Code    12  main.o(.text)
    SetAdvAccCode                            0x1000304b   Thumb Code    12  main.o(.text)
    SetAdvParams                             0x10003057   Thumb Code    12  main.o(.text)
    SetAdvData                               0x10003063   Thumb Code    12  main.o(.text)
    StartAdv                                 0x1000329d   Thumb Code    10  main.o(.text)
    StopAdv                                  0x100032a7   Thumb Code    24  main.o(.text)
    StopAdv_Noreset                          0x100032bf   Thumb Code    38  main.o(.text)
    SetScanParams                            0x100032e5   Thumb Code    10  main.o(.text)
    _BBSetScan                               0x100032ef   Thumb Code    46  main.o(.text)
    _GAPStartScan                            0x1000331d   Thumb Code   254  main.o(.text)
    StartScan                                0x1000341b   Thumb Code    10  main.o(.text)
    StopScan                                 0x10003425   Thumb Code    10  main.o(.text)
    SetSecParams                             0x1000342f   Thumb Code    12  main.o(.text)
    SetConnectionUpdate                      0x1000343b   Thumb Code    12  main.o(.text)
    GetLinkParameters                        0x10003447   Thumb Code    12  main.o(.text)
    SetWinWideMinusCnt                       0x10003453   Thumb Code     8  main.o(.text)
    SetPasskey                               0x1000345b   Thumb Code    12  main.o(.text)
    SecurityReq                              0x10003467   Thumb Code    12  main.o(.text)
    SetEvtCallback                           0x10003473   Thumb Code    54  main.o(.text)
    GetGATTReportHandle                      0x100034a9   Thumb Code    10  main.o(.text)
    SetGATTReadRsp                           0x100034b3   Thumb Code    12  main.o(.text)
    CheckFIFOFull                            0x100034bf   Thumb Code    18  main.o(.text)
    GATTDataSend                             0x100034d1   Thumb Code    86  main.o(.text)
    ATTCSetCallback                          0x10003527   Thumb Code     4  main.o(.text)
    ATTCMTUReq                               0x1000352b   Thumb Code    24  main.o(.text)
    ATTCFindInfoReq                          0x10003543   Thumb Code    28  main.o(.text)
    ATTCFindByTypeValueReq                   0x1000355f   Thumb Code    40  main.o(.text)
    ATTCReadByTypeReq                        0x10003587   Thumb Code    36  main.o(.text)
    ATTCReadReq                              0x100035ab   Thumb Code    24  main.o(.text)
    ATTCReadBlobReq                          0x100035c3   Thumb Code    28  main.o(.text)
    ATTCReadMultipleReq                      0x100035df   Thumb Code    28  main.o(.text)
    ATTCReadByGroupTypeReq                   0x100035fb   Thumb Code    34  main.o(.text)
    ATTCWriteReq                             0x1000361d   Thumb Code    32  main.o(.text)
    ATTCWriteCmdReq                          0x1000363d   Thumb Code    32  main.o(.text)
    ATTCPrepareWriteReq                      0x1000365d   Thumb Code    36  main.o(.text)
    ATTCExecuteWriteReq                      0x10003681   Thumb Code    24  main.o(.text)
    ATTCConfirmation                         0x10003699   Thumb Code    20  main.o(.text)
    _SYSClockSwitch                          0x100036ad   Thumb Code    86  main.o(.text)
    MCUClockSwitch                           0x10003703   Thumb Code     2  main.o(.text)
    GetMCUClock                              0x10003705   Thumb Code    14  main.o(.text)
    GetClock                                 0x10003713   Thumb Code    16  main.o(.text)
    WakeupConfig                             0x10003723   Thumb Code    12  main.o(.text)
    LLSleep                                  0x1000372f   Thumb Code    12  main.o(.text)
    Rand                                     0x1000373b   Thumb Code     4  main.o(.text)
    DelayUS                                  0x1000373f   Thumb Code     4  main.o(.text)
    DelayMS                                  0x10003743   Thumb Code     6  main.o(.text)
    GetCompanyID                             0x10003749   Thumb Code    18  main.o(.text)
    GetQFNType                               0x1000375b   Thumb Code    20  main.o(.text)
    RFRead                                   0x1000376f   Thumb Code    70  main.o(.text)
    RFWrite                                  0x100037b5   Thumb Code     8  main.o(.text)
    lib_check_ble_fsm_state                  0x100037bd   Thumb Code    26  main.o(.text)
    SystemSleep                              0x100037d7   Thumb Code    18  main.o(.text)
    SystemPowerDown                          0x100037e9   Thumb Code    78  main.o(.text)
    SystemReset                              0x10003837   Thumb Code    12  main.o(.text)
    CapdetEn                                 0x10003843   Thumb Code    10  main.o(.text)
    PowerDownLPOEn                           0x1000384d   Thumb Code    12  main.o(.text)
    SetBondManagerIndex                      0x10003859   Thumb Code    12  main.o(.text)
    GetBondDevice                            0x10003865   Thumb Code     6  main.o(.text)
    AddBondDevice                            0x1000386b   Thumb Code    12  main.o(.text)
    DelAllBondDevice                         0x10003877   Thumb Code    10  main.o(.text)
    DelBondDevice                            0x10003881   Thumb Code    12  main.o(.text)
    ReadProfileData                          0x1000388d   Thumb Code     6  main.o(.text)
    WriteProfileData                         0x10003893   Thumb Code     6  main.o(.text)
    EraseFlashData                           0x10003899   Thumb Code    78  main.o(.text)
    ReadFlashData                            0x100038e7   Thumb Code    56  main.o(.text)
    WriteFlashData                           0x1000391f   Thumb Code    56  main.o(.text)
    CodeErase                                0x10003957   Thumb Code   100  main.o(.text)
    CodeErase_sector                         0x100039bb   Thumb Code    72  main.o(.text)
    _FMCodeWrite                             0x10003a03   Thumb Code    58  main.o(.text)
    CodeWrite                                0x10003a3d   Thumb Code    30  main.o(.text)
    CodeUpdate                               0x10003a5b   Thumb Code    10  main.o(.text)
    FlashDataUpdate                          0x10003a65   Thumb Code   124  main.o(.text)
    ble_sched_execute                        0x10003ae1   Thumb Code   150  main.o(.text)
    ble_sched_finish                         0x10003b77   Thumb Code     4  main.o(.text)
    syd52832_chip_confirm                    0x10003b7b   Thumb Code    26  main.o(.text)
    gap_s_smart_update_latency               0x10003b95   Thumb Code   246  main.o(.text)
    eFuseManual                              0x10003c8b   Thumb Code    28  main.o(.text)
    GPADC_Manual_Calibration                 0x10003ca7   Thumb Code    34  main.o(.text)
    GPADC_Get_Calibration                    0x10003cc9   Thumb Code    22  main.o(.text)
    GAPGetUartEn                             0x10003cdf   Thumb Code     6  main.o(.text)
    GAPUartEn                                0x10003ce5   Thumb Code     6  main.o(.text)
    GAPBBDelayUS                             0x10003ceb   Thumb Code     4  main.o(.text)
    GAPBBDelayMS                             0x10003cef   Thumb Code     6  main.o(.text)
    GAPGetRFAutoSleep                        0x10003cf5   Thumb Code     4  main.o(.text)
    GAPSetRFAutoSleep                        0x10003cf9   Thumb Code     6  main.o(.text)
    Setting4kUpdate                          0x10003cff   Thumb Code   116  main.o(.text)
    SetDevAddr_toflash                       0x10003d73   Thumb Code    72  main.o(.text)
    gap_s_verdor_datas_get                   0x10003dbb   Thumb Code    28  main.o(.text)
    gap_s_verdor_datas_set                   0x10003dd7   Thumb Code    66  main.o(.text)
    gap_s_is_ll_start_enc                    0x10003e19   Thumb Code    26  main.o(.text)
    GAPBBTXFIFO0Write                        0x10003e33   Thumb Code     4  main.o(.text)
    flash_peotect_key_confirm                0x10003e37   Thumb Code   148  main.o(.text)
    swd_lock                                 0x10003ecb   Thumb Code    36  main.o(.text)
    flash_data_offect_get                    0x10003eef   Thumb Code    52  main.o(.text)
    EraseCodeB                               0x10003f23   Thumb Code    58  main.o(.text)
    ReadCodeB                                0x10003f5d   Thumb Code    64  main.o(.text)
    WriteCodeB                               0x10003f9d   Thumb Code    96  main.o(.text)
    ble_SetTxPower                           0x10003ffd   Thumb Code   248  main.o(.text)
    flash_data_size_get                      0x100040f5   Thumb Code    18  main.o(.text)
    code_idx_get                             0x10004107   Thumb Code     6  main.o(.text)
    flash_data_size_set                      0x1000410d   Thumb Code   146  main.o(.text)
    Get_RSSI_Last_RX                         0x1000419f   Thumb Code    82  main.o(.text)
    APP_Read_Attribute_Encrypt               0x100041f1   Thumb Code    62  main.o(.text)
    APP_Write_Attribute_Encrypt              0x1000422f   Thumb Code    66  main.o(.text)
    APP_Read_Charact_Permission              0x10004271   Thumb Code    66  main.o(.text)
    smart_latency_target                     0x100042b3   Thumb Code    30  main.o(.text)
    smp_aes_encrypt                          0x100042d1   Thumb Code     4  main.o(.text)
    gap_get_flash_data_info                  0x100042d5   Thumb Code    26  main.o(.text)
    gap_set_flash_data_info                  0x100042ef   Thumb Code    70  main.o(.text)
    gap_check_dev_bonded                     0x10004335   Thumb Code     6  main.o(.text)
    syd_set_chip_flash_all_size              0x1000433b   Thumb Code     6  main.o(.text)
    Xtal_trim_get                            0x10004341   Thumb Code   106  main.o(.text)
    Xtal_trim_set                            0x100043ab   Thumb Code   164  main.o(.text)
    flash_read_sfdp                          0x1000444f   Thumb Code    46  main.o(.text)
    syd_read_unique_id                       0x1000447d   Thumb Code    30  main.o(.text)
    __aeabi_uidiv                            0x100046b9   Thumb Code     0  uidiv.o(.text)
    __aeabi_uidivmod                         0x100046b9   Thumb Code    44  uidiv.o(.text)
    __aeabi_idiv                             0x100046e5   Thumb Code     0  idiv.o(.text)
    __aeabi_idivmod                          0x100046e5   Thumb Code    40  idiv.o(.text)
    __aeabi_memcpy                           0x1000470d   Thumb Code    36  memcpya.o(.text)
    __aeabi_memcpy4                          0x1000470d   Thumb Code     0  memcpya.o(.text)
    __aeabi_memcpy8                          0x1000470d   Thumb Code     0  memcpya.o(.text)
    __aeabi_memset                           0x10004731   Thumb Code    14  memseta.o(.text)
    __aeabi_memset4                          0x10004731   Thumb Code     0  memseta.o(.text)
    __aeabi_memset8                          0x10004731   Thumb Code     0  memseta.o(.text)
    __aeabi_memclr                           0x1000473f   Thumb Code     4  memseta.o(.text)
    __aeabi_memclr4                          0x1000473f   Thumb Code     0  memseta.o(.text)
    __aeabi_memclr8                          0x1000473f   Thumb Code     0  memseta.o(.text)
    _memset$wrapper                          0x10004743   Thumb Code    18  memseta.o(.text)
    memcmp                                   0x10004755   Thumb Code    26  memcmp.o(.text)
    __aeabi_uread4                           0x1000476f   Thumb Code    20  uread4.o(.text)
    __rt_uread4                              0x1000476f   Thumb Code     0  uread4.o(.text)
    _uread4                                  0x1000476f   Thumb Code     0  uread4.o(.text)
    __aeabi_uwrite4                          0x10004783   Thumb Code    18  uwrite4.o(.text)
    __rt_uwrite4                             0x10004783   Thumb Code     0  uwrite4.o(.text)
    _uwrite4                                 0x10004783   Thumb Code     0  uwrite4.o(.text)
    __aeabi_fadd                             0x10004795   Thumb Code   162  fadd.o(.text)
    __aeabi_fsub                             0x10004837   Thumb Code     8  fadd.o(.text)
    __aeabi_frsub                            0x1000483f   Thumb Code     8  fadd.o(.text)
    __aeabi_dadd                             0x10004849   Thumb Code   328  dadd.o(.text)
    __aeabi_dsub                             0x10004991   Thumb Code    12  dadd.o(.text)
    __aeabi_drsub                            0x1000499d   Thumb Code    12  dadd.o(.text)
    __aeabi_dmul                             0x100049ad   Thumb Code   202  dmul.o(.text)
    __aeabi_ddiv                             0x10004a7d   Thumb Code   234  ddiv.o(.text)
    __aeabi_ui2f                             0x10004b6d   Thumb Code    14  ffltui.o(.text)
    __aeabi_i2d                              0x10004b7d   Thumb Code    34  dflti.o(.text)
    __aeabi_ui2d                             0x10004ba5   Thumb Code    24  dfltui.o(.text)
    __aeabi_d2uiz                            0x10004bc1   Thumb Code    50  dfixui.o(.text)
    __aeabi_f2d                              0x10004bfd   Thumb Code    40  f2d.o(.text)
    __aeabi_uldivmod                         0x10004c25   Thumb Code    96  uldiv.o(.text)
    __aeabi_llsl                             0x10004c85   Thumb Code    32  llshl.o(.text)
    _ll_shift_l                              0x10004c85   Thumb Code     0  llshl.o(.text)
    __aeabi_llsr                             0x10004ca5   Thumb Code    34  llushr.o(.text)
    _ll_ushift_r                             0x10004ca5   Thumb Code     0  llushr.o(.text)
    __aeabi_lasr                             0x10004cc7   Thumb Code    38  llsshr.o(.text)
    _ll_sshift_r                             0x10004cc7   Thumb Code     0  llsshr.o(.text)
    __I$use$fp                               0x10004ced   Thumb Code     0  iusefp.o(.text)
    _float_round                             0x10004ced   Thumb Code    16  fepilogue.o(.text)
    _float_epilogue                          0x10004cfd   Thumb Code   114  fepilogue.o(.text)
    _double_round                            0x10004d6f   Thumb Code    26  depilogue.o(.text)
    _double_epilogue                         0x10004d89   Thumb Code   164  depilogue.o(.text)
    __ARM_scalbn                             0x10004e2d   Thumb Code    44  dscalb.o(.text)
    scalbn                                   0x10004e2d   Thumb Code     0  dscalb.o(.text)
    __aeabi_d2ulz                            0x10004e59   Thumb Code    54  dfixul.o(.text)
    __aeabi_cdrcmple                         0x10004e99   Thumb Code    38  cdrcmple.o(.text)
    __scatterload                            0x10004ec1   Thumb Code    28  init.o(.text)
    __scatterload_rt2                        0x10004ec1   Thumb Code     0  init.o(.text)
    _dsqrt                                   0x10004ee5   Thumb Code   162  dsqrt.o(.text)
    __0vsprintf                              0x10004f89   Thumb Code    30  printfa.o(i.__0vsprintf)
    __1vsprintf                              0x10004f89   Thumb Code     0  printfa.o(i.__0vsprintf)
    __2vsprintf                              0x10004f89   Thumb Code     0  printfa.o(i.__0vsprintf)
    __c89vsprintf                            0x10004f89   Thumb Code     0  printfa.o(i.__0vsprintf)
    vsprintf                                 0x10004f89   Thumb Code     0  printfa.o(i.__0vsprintf)
    __ARM_clz                                0x10004fad   Thumb Code    46  depilogue.o(i.__ARM_clz)
    __ARM_common_switch8                     0x10004fdb   Thumb Code    26  main.o(i.__ARM_common_switch8)
    __ARM_fpclassify                         0x10004ff5   Thumb Code    40  fpclassify.o(i.__ARM_fpclassify)
    __kernel_poly                            0x10005021   Thumb Code   172  poly.o(i.__kernel_poly)
    __mathlib_dbl_divzero                    0x100050cd   Thumb Code    16  dunder.o(i.__mathlib_dbl_divzero)
    __mathlib_dbl_infnan2                    0x100050e1   Thumb Code     8  dunder.o(i.__mathlib_dbl_infnan2)
    __mathlib_dbl_invalid                    0x100050e9   Thumb Code    16  dunder.o(i.__mathlib_dbl_invalid)
    __mathlib_dbl_overflow                   0x100050f9   Thumb Code    16  dunder.o(i.__mathlib_dbl_overflow)
    __mathlib_dbl_underflow                  0x1000510d   Thumb Code    14  dunder.o(i.__mathlib_dbl_underflow)
    __scatterload_copy                       0x10005121   Thumb Code    14  handlers.o(i.__scatterload_copy)
    __scatterload_null                       0x1000512f   Thumb Code     2  handlers.o(i.__scatterload_null)
    __scatterload_zeroinit                   0x10005131   Thumb Code    14  handlers.o(i.__scatterload_zeroinit)
    __set_errno                              0x10005141   Thumb Code     6  errno.o(i.__set_errno)
    pow                                      0x100059e9   Thumb Code  2548  pow.o(i.pow)
    sqrt                                     0x100063e5   Thumb Code    66  sqrt.o(i.sqrt)
    adv_chn_to_freq_idx                      0x100064ac   Data           3  main.o(.constdata)
    __mathlib_zero                           0x10006560   Data           8  qnan.o(.constdata)
    Region$$Table$$Base                      0x10006568   Number         0  anon$$obj.o(Region$$Table)
    Region$$Table$$Limit                     0x10006588   Number         0  anon$$obj.o(Region$$Table)
    PIN_CONFIG                               0x20003008   Data           4  gpio.o(.data)
    GPIO_CTRL                                0x2000300c   Data           4  gpio.o(.data)
    GPO_CTRL                                 0x20003010   Data           4  gpio.o(.data)
    GPI_CTRL                                 0x20003014   Data           4  gpio.o(.data)
    GPIO_IRQ_CTRL                            0x20003018   Data           4  gpio.o(.data)
    SystemCoreClock                          0x200030a8   Data           4  system_armcm0.o(.data)
    ble_rc32k_clk_lpo_ing_flag               0x200030b0   Data           1  main.o(.data)
    master_system                            0x200030b2   Data           1  main.o(.data)
    p_gett_db_hdr                            0x200030c8   Data           4  main.o(.data)
    get_challenge_test                       0x200032aa   Data         264  sc_reader.o(.bss)
    __initial_sp                             0x20003820   Data           0  startup_armcm0.o(STACK)



==============================================================================

Memory Map of the image

  Image Entry point : 0x100000c1

  Load Region LR_IROM1 (Base: 0x10000000, Size: 0x00006678, Max: 0x0003f000, ABSOLUTE)

    Execution Region ER_IROM1 (Base: 0x10000000, Size: 0x00006588, Max: 0x0003f000, ABSOLUTE)

    Base Addr    Size         Type   Attr      Idx    E Section Name        Object

    0x10000000   0x000000c0   Data   RO          473    RESET               startup_armcm0.o
    0x100000c0   0x00000000   Code   RO          603  * .ARM.Collect$$$$00000000  mc_p.l(entry.o)
    0x100000c0   0x00000004   Code   RO          695    .ARM.Collect$$$$00000001  mc_p.l(entry2.o)
    0x100000c4   0x00000004   Code   RO          698    .ARM.Collect$$$$00000004  mc_p.l(entry5.o)
    0x100000c8   0x00000000   Code   RO          700    .ARM.Collect$$$$00000008  mc_p.l(entry7b.o)
    0x100000c8   0x00000000   Code   RO          702    .ARM.Collect$$$$0000000A  mc_p.l(entry8b.o)
    0x100000c8   0x00000008   Code   RO          703    .ARM.Collect$$$$0000000B  mc_p.l(entry9a.o)
    0x100000d0   0x00000000   Code   RO          705    .ARM.Collect$$$$0000000D  mc_p.l(entry10a.o)
    0x100000d0   0x00000000   Code   RO          707    .ARM.Collect$$$$0000000F  mc_p.l(entry11a.o)
    0x100000d0   0x00000004   Code   RO          696    .ARM.Collect$$$$00002712  mc_p.l(entry2.o)
    0x100000d4   0x000001b0   Code   RO            3    .text               main.o
    0x10000284   0x00000054   Code   RO           85    .text               debug.o
    0x100002d8   0x0000030c   Code   RO          124    .text               uart.o
    0x100005e4   0x0000025c   Code   RO          190    .text               gpio.o
    0x10000840   0x00000020   Code   RO          267    .text               delay.o
    0x10000860   0x00000248   Code   RO          299    .text               atr_decoder.o
    0x10000aa8   0x0000115c   Code   RO          339    .text               sc_reader.o
    0x10001c04   0x000001e0   Code   RO          408    .text               tpdu.o
    0x10001de4   0x00000076   Code   RO          439    .text               queue.o
    0x10001e5a   0x00000002   PAD
    0x10001e5c   0x0000001c   Code   RO          474    .text               startup_armcm0.o
    0x10001e78   0x00000010   Code   RO          481    .text               system_armcm0.o
    0x10001e88   0x00002830   Code   RO          512    .text               syd8811_ble_lib.lib(main.o)
    0x100046b8   0x0000002c   Code   RO          606    .text               mc_p.l(uidiv.o)
    0x100046e4   0x00000028   Code   RO          608    .text               mc_p.l(idiv.o)
    0x1000470c   0x00000024   Code   RO          610    .text               mc_p.l(memcpya.o)
    0x10004730   0x00000024   Code   RO          612    .text               mc_p.l(memseta.o)
    0x10004754   0x0000001a   Code   RO          614    .text               mc_p.l(memcmp.o)
    0x1000476e   0x00000014   Code   RO          646    .text               mc_p.l(uread4.o)
    0x10004782   0x00000012   Code   RO          648    .text               mc_p.l(uwrite4.o)
    0x10004794   0x000000b2   Code   RO          650    .text               mf_p.l(fadd.o)
    0x10004846   0x00000002   PAD
    0x10004848   0x00000164   Code   RO          652    .text               mf_p.l(dadd.o)
    0x100049ac   0x000000d0   Code   RO          654    .text               mf_p.l(dmul.o)
    0x10004a7c   0x000000f0   Code   RO          656    .text               mf_p.l(ddiv.o)
    0x10004b6c   0x0000000e   Code   RO          658    .text               mf_p.l(ffltui.o)
    0x10004b7a   0x00000002   PAD
    0x10004b7c   0x00000028   Code   RO          660    .text               mf_p.l(dflti.o)
    0x10004ba4   0x0000001c   Code   RO          662    .text               mf_p.l(dfltui.o)
    0x10004bc0   0x0000003c   Code   RO          664    .text               mf_p.l(dfixui.o)
    0x10004bfc   0x00000028   Code   RO          666    .text               mf_p.l(f2d.o)
    0x10004c24   0x00000060   Code   RO          712    .text               mc_p.l(uldiv.o)
    0x10004c84   0x00000020   Code   RO          714    .text               mc_p.l(llshl.o)
    0x10004ca4   0x00000022   Code   RO          716    .text               mc_p.l(llushr.o)
    0x10004cc6   0x00000026   Code   RO          718    .text               mc_p.l(llsshr.o)
    0x10004cec   0x00000000   Code   RO          727    .text               mc_p.l(iusefp.o)
    0x10004cec   0x00000082   Code   RO          728    .text               mf_p.l(fepilogue.o)
    0x10004d6e   0x000000be   Code   RO          730    .text               mf_p.l(depilogue.o)
    0x10004e2c   0x0000002c   Code   RO          734    .text               mf_p.l(dscalb.o)
    0x10004e58   0x00000040   Code   RO          736    .text               mf_p.l(dfixul.o)
    0x10004e98   0x00000028   Code   RO          738    .text               mf_p.l(cdrcmple.o)
    0x10004ec0   0x00000024   Code   RO          740    .text               mc_p.l(init.o)
    0x10004ee4   0x000000a2   Code   RO          744    .text               mf_p.l(dsqrt.o)
    0x10004f86   0x00000002   PAD
    0x10004f88   0x00000024   Code   RO          625    i.__0vsprintf       mc_p.l(printfa.o)
    0x10004fac   0x0000002e   Code   RO          732    i.__ARM_clz         mf_p.l(depilogue.o)
    0x10004fda   0x0000001a   Code   RO          533    i.__ARM_common_switch8  syd8811_ble_lib.lib(main.o)
    0x10004ff4   0x0000002c   Code   RO          682    i.__ARM_fpclassify  m_ps.l(fpclassify.o)
    0x10005020   0x000000ac   Code   RO          684    i.__kernel_poly     m_ps.l(poly.o)
    0x100050cc   0x00000014   Code   RO          668    i.__mathlib_dbl_divzero  m_ps.l(dunder.o)
    0x100050e0   0x00000008   Code   RO          670    i.__mathlib_dbl_infnan2  m_ps.l(dunder.o)
    0x100050e8   0x00000010   Code   RO          671    i.__mathlib_dbl_invalid  m_ps.l(dunder.o)
    0x100050f8   0x00000014   Code   RO          672    i.__mathlib_dbl_overflow  m_ps.l(dunder.o)
    0x1000510c   0x00000014   Code   RO          674    i.__mathlib_dbl_underflow  m_ps.l(dunder.o)
    0x10005120   0x0000000e   Code   RO          749    i.__scatterload_copy  mc_p.l(handlers.o)
    0x1000512e   0x00000002   Code   RO          750    i.__scatterload_null  mc_p.l(handlers.o)
    0x10005130   0x0000000e   Code   RO          751    i.__scatterload_zeroinit  mc_p.l(handlers.o)
    0x1000513e   0x00000002   PAD
    0x10005140   0x0000000c   Code   RO          722    i.__set_errno       mc_p.l(errno.o)
    0x1000514c   0x00000158   Code   RO          626    i._fp_digits        mc_p.l(printfa.o)
    0x100052a4   0x000006ec   Code   RO          627    i._printf_core      mc_p.l(printfa.o)
    0x10005990   0x00000020   Code   RO          628    i._printf_post_padding  mc_p.l(printfa.o)
    0x100059b0   0x0000002c   Code   RO          629    i._printf_pre_padding  mc_p.l(printfa.o)
    0x100059dc   0x0000000a   Code   RO          631    i._sputc            mc_p.l(printfa.o)
    0x100059e6   0x00000002   PAD
    0x100059e8   0x000009fc   Code   RO          594    i.pow               m_ps.l(pow.o)
    0x100063e4   0x00000048   Code   RO          688    i.sqrt              m_ps.l(sqrt.o)
    0x1000642c   0x00000080   Data   RO          345    .constdata          sc_reader.o
    0x100064ac   0x00000028   Data   RO          514    .constdata          syd8811_ble_lib.lib(main.o)
    0x100064d4   0x00000004   PAD
    0x100064d8   0x00000088   Data   RO          595    .constdata          m_ps.l(pow.o)
    0x10006560   0x00000008   Data   RO          686    .constdata          m_ps.l(qnan.o)
    0x10006568   0x00000020   Data   RO          748    Region$$Table       anon$$obj.o


    Execution Region RW_IRAM1 (Base: 0x20003000, Size: 0x00000820, Max: 0x00005000, ABSOLUTE)

    Base Addr    Size         Type   Attr      Idx    E Section Name        Object

    0x20003000   0x00000008   Data   RW          129    .data               uart.o
    0x20003008   0x00000048   Data   RW          199    .data               gpio.o
    0x20003050   0x0000000c   Data   RW          301    .data               atr_decoder.o
    0x2000305c   0x00000033   Data   RW          346    .data               sc_reader.o
    0x2000308f   0x00000001   PAD
    0x20003090   0x00000016   Data   RW          409    .data               tpdu.o
    0x200030a6   0x00000002   PAD
    0x200030a8   0x00000004   Data   RW          482    .data               system_armcm0.o
    0x200030ac   0x00000040   Data   RW          515    .data               syd8811_ble_lib.lib(main.o)
    0x200030ec   0x00000004   Data   RW          723    .data               mc_p.l(errno.o)
    0x200030f0   0x00000080   Zero   RW           87    .bss                debug.o
    0x20003170   0x00000242   Zero   RW          344    .bss                sc_reader.o
    0x200033b2   0x00000068   Zero   RW          513    .bss                syd8811_ble_lib.lib(main.o)
    0x2000341a   0x00000006   PAD
    0x20003420   0x00000400   Zero   RW          471    STACK               startup_armcm0.o


==============================================================================

Image component sizes


      Code (inc. data)   RO Data    RW Data    ZI Data      Debug   Object Name

       584         12          0         12          0      33759   atr_decoder.o
        84          4          0          0        128       2070   debug.o
        32          4          0          0          0        519   delay.o
       604         38          0         72          0       2847   gpio.o
       432        190          0          0          0       5103   main.o
       118          0          0          0          0       2104   queue.o
      4444        888        128         51        578      17414   sc_reader.o
        28          8        192          0       1024        652   startup_armcm0.o
        16          8          0          4          0        735   system_armcm0.o
       480         36          0         22          0       2796   tpdu.o
       780         18          0          8          0      50193   uart.o

    ----------------------------------------------------------------------
      7604       1206        352        172       1730     118192   Object Totals
         0          0         32          0          0          0   (incl. Generated)
         2          0          0          3          0          0   (incl. Padding)

    ----------------------------------------------------------------------

      Code (inc. data)   RO Data    RW Data    ZI Data      Debug   Library Member Name

        84         14          0          0          0        340   dunder.o
        44          4          0          0          0         60   fpclassify.o
       172          0          0          0          0         76   poly.o
      2556        196        136          0          0        240   pow.o
         0          0          8          0          0          0   qnan.o
        72          6          0          0          0         76   sqrt.o
         0          0          0          0          0          0   entry.o
         0          0          0          0          0          0   entry10a.o
         0          0          0          0          0          0   entry11a.o
         8          4          0          0          0          0   entry2.o
         4          0          0          0          0          0   entry5.o
         0          0          0          0          0          0   entry7b.o
         0          0          0          0          0          0   entry8b.o
         8          4          0          0          0          0   entry9a.o
        12          6          0          4          0         60   errno.o
        30          0          0          0          0          0   handlers.o
        40          0          0          0          0         72   idiv.o
        36          8          0          0          0         68   init.o
         0          0          0          0          0          0   iusefp.o
        32          0          0          0          0         68   llshl.o
        38          0          0          0          0         68   llsshr.o
        34          0          0          0          0         68   llushr.o
        26          0          0          0          0         72   memcmp.o
        36          0          0          0          0         60   memcpya.o
        36          0          0          0          0        100   memseta.o
      2238         96          0          0          0        460   printfa.o
        44          0          0          0          0         72   uidiv.o
        96          0          0          0          0         84   uldiv.o
        20          0          0          0          0         60   uread4.o
        18          0          0          0          0         60   uwrite4.o
        40          2          0          0          0         68   cdrcmple.o
       356          4          0          0          0        140   dadd.o
       240          6          0          0          0         84   ddiv.o
       236          0          0          0          0        216   depilogue.o
        60         10          0          0          0         68   dfixui.o
        64         10          0          0          0         68   dfixul.o
        40          6          0          0          0         68   dflti.o
        28          4          0          0          0         68   dfltui.o
       208          6          0          0          0         88   dmul.o
        44          0          0          0          0         72   dscalb.o
       162          0          0          0          0         80   dsqrt.o
        40          0          0          0          0         60   f2d.o
       178          0          0          0          0        108   fadd.o
       130          0          0          0          0        144   fepilogue.o
        14          0          0          0          0         68   ffltui.o
     10314        502         40         64        104     109387   main.o

    ----------------------------------------------------------------------
     17848        888        188         68        110     112951   Library Totals
        10          0          4          0          6          0   (incl. Padding)

    ----------------------------------------------------------------------

      Code (inc. data)   RO Data    RW Data    ZI Data      Debug   Library Name

      2928        220        144          0          0        792   m_ps.l
      2756        118          0          4          0       1372   mc_p.l
      1840         48          0          0          0       1400   mf_p.l
     10314        502         40         64        104     109387   syd8811_ble_lib.lib

    ----------------------------------------------------------------------
     17848        888        188         68        110     112951   Library Totals

    ----------------------------------------------------------------------

==============================================================================


      Code (inc. data)   RO Data    RW Data    ZI Data      Debug   

     25452       2094        540        240       1840     228559   Grand Totals
     25452       2094        540        240       1840     228559   ELF Image Totals
     25452       2094        540        240          0          0   ROM Totals

==============================================================================

    Total RO  Size (Code + RO Data)                25992 (  25.38kB)
    Total RW  Size (RW Data + ZI Data)              2080 (   2.03kB)
    Total ROM Size (Code + RO Data + RW Data)      26232 (  25.62kB)

==============================================================================

