:020000041000EA
:10000000A03500209D160010A5160010A7160010A0
:1000100000000000000000000000000000000000E0
:10002000000000000000000000000000A916001001
:100030000000000000000000AB160010AD1600101C
:1000400000000000AF160010AF160010AF16001031
:10005000AF160010AF16001071040010CB06001090
:1000600095120010C913001009150010AF160010EA
:10007000550C0010AF160010AF160010AF16001090
:10008000AF160010AF160010AF160010AF1600101C
:10009000AF1600103D10001005160010AF1600102E
:1000A0000000000000000000000000000000000050
:1000B0000000000000000000000000000000000040
:1000C0000348854604F00AFB00480047250100105C
:1000D000A03500201CB50021684681704170FF21C9
:1000E0000131818001210170C170C18000F086FE64
:1000F0001CBD24480068244988420AD2214800686F
:10010000401C204908600846006800781F490882A2
:1001100007E01F481B4908600846006800781B4933
:100120000882704772B602F0F1FA002002F00DFF6B
:1001300001F079FE002001F032FF01F040FF00F0F5
:1001400047F8012001F094FE17210120800700F0FC
:1001500003FBFFF7BFFF0FA211A114A000F03CF8B2
:1001600062B60B48074908600846006800780749EE
:10017000088200F05BFF1549052001F0A7F800BFD9
:10018000FEE70000003000203A200510A0020150D8
:100190002650001031323A30303A30320000000040
:1001A0004170722031392032303232005359443894
:1001B0003831312050574D20746573742064656D5B
:1001C0006F2025733A25730D0A000000F30000101C
:1001D00010B500F05EF810BD0FB438B5002500244E
:1001E0000498002803D138BC08BC04B0184705A8FF
:1001F00000901748009A049904F082FAC5B20020D2
:100200000090802D00DD8025002405E01049085D68
:1002100000F0E9F8601CC4B2AC42F7DB00BFE2E7D3
:10022000F8B505460E4617460024002D02D0284694
:10023000FFF7D2FF002404E0315D06A0FFF7CCFFFA
:10024000641CBC42F8DB05A0FFF7C6FFF8BD000048
:10025000AC30002025303278200000000D0A00006C
:10026000002815DBC206D20E01219140FA4A116026
:1002700000BF00BF00BFBFF34F8F00BF00BF00BF74
:1002800000BF00BF00BFBFF36F8F00BF00BF00BF44
:10029000704710B5F1480068C07B80098001C01C20
:1002A000EE490968C873ED480068007C8009800148
:1002B000001DEA4909680874E84800682030807821
:1002C00020218843E549096820318870E3480068A7
:1002D0002030807840218843E049096820318870C7
:1002E000DF480068807840084000DD490968887070
:1002F000DB4800680078000900010830D849096827
:100300000870D7480068007880218843D44909687C
:100310000870D34800680078402188434030D049B5
:1003200009680870CE480068C078102188431030F2
:10033000CB490968C870CA4800688078042188439E
:10034000001DC74909688870C54800688078202169
:100350008843C34909688870C148006880781021C3
:100360008843BF4909688870BD480068807880214B
:100370008843BB4909688870B94800688078402183
:100380008843B74909688870B5480068007810212B
:100390008843B34909680870B14800680078202193
:1003A0008843AF4909680870AD4800688078022129
:1003B0008843801CAA4909688870A9480068C078E9
:1003C000202188432030A6490968C870062000F023
:1003D000B1F9A34800688078082188430830A04913
:1003E0000968887010BD9E490968487000BF9C4923
:1003F000096809788906C90F0029F8D09849096861
:10040000097820229143964A12681170704718B5F6
:10041000024600200023009314E0914B1B681B79D7
:100420000B54431CD8B26B461B785B1CDCB20094A7
:100430006B461B785B1CDCB200946B461B785B1C24
:10044000DCB20094864B1B68DB78DB07DB0F002BEC
:10045000E3D0107018BD10B581480068807808217D
:1004600088437F49096888700620FFF7F9FE10BDB0
:100470000CB57B4800680078C006C00F00280CD07F
:10048000774800680078102188437549096808702A
:10049000694601A8FFF7BBFF00BF714800680078FC
:1004A0008006C00F002807D06D4800680078202122
:1004B00088436B490968087069480068807880073C
:1004C000C00F002808D06648006880780221884361
:1004D000801C6349096888700CBD10B55F480068CE
:1004E000407980098001401D5C49096848715B487A
:1004F0000068807980098001801D584909688871E9
:100500005648006820300078202188435349096804
:10051000203108705148006820300078402188431D
:100520004E490968203108704E48006880784008BC
:1005300040004C49096888704A4800680078000902
:10054000000108304749096808704648006800788B
:100550008021884343490968087042480068007850
:100560004021884340303F49096808703D48006891
:10057000C0781021884310303A490968C87039485A
:100580000068807804218843001D36490968887016
:10059000344800688078202188433249096888708F
:1005A000304800688078102188432E490968887097
:1005B0002C4800688078802188432A49096888701F
:1005C0002848006880784021884326490968887057
:1005D000244800680078102188432249096808707F
:1005E000204800680078202188431E490968087067
:1005F0001C480068807802218843801C19490968DA
:10060000887018480068C078202188432030154938
:100610000968C870072000F08DF8124800688078DB
:100620000821884308300F490968887010BD0D49BA
:100630000968487000BF0B49096809788906C90F25
:100640000029F8D007490968097820229143054A12
:10065000126811707047000080E100E00C3000204B
:10066000043000200830002018B502460020002386
:10067000009314E0364B1B681B790B54431CD8B213
:100680006B461B785B1CDCB200946B461B785B1CD2
:10069000DCB200946B461B785B1CDCB200942C4BE4
:1006A0001B68DB78DB07DB0F002BE3D0107018BD75
:1006B00010B52748006880780821884324490968D4
:1006C00088700720FFF7CCFD10BD0CB520480068EE
:1006D0000078C006C00F00280CD01D4800680078C4
:1006E000102188431A4909680870694601A8FFF774
:1006F000BBFF00BF1648006800788006C00F0028C6
:1007000007D0134800680078202188431049096801
:1007100008700F48006880788007C00F002808D054
:100720000B480068807802218843801C08490968CA
:1007300088700CBD002809DB00BF00BFC206D20EC6
:1007400001219140034A116000BF00BF70470000C3
:100750000830002000E100E010B50246002010E063
:10076000012383401340002B0AD0FE4B1B68195411
:100770000123834014469C432246002A00D102E014
:10078000401C2028ECD300BF10BDFCB50346F64C3E
:10079000221D019200220092002B02D1F34A009206
:1007A00003E0012B01D1F24A0092009A002A36D0D0
:1007B000002013E0012282400D461540002D0CD090
:1007C0002568009E375C0126BE40354325600D46F6
:1007D00095432946002900D102E0401C1828E9D39E
:1007E00000BF182017E0012585402A460D46154018
:1007F000002D0FD0019D2D780646183E0127B740E9
:100800003D43EEB2019D2E700D46954329460029C9
:1008100000D102E0401C2028E5D300BF00BFFCBD92
:10082000FCB50346D04C221D019200220092002B01
:1008300002D1CE4A009203E0012B01D1CC4A0092B2
:10084000009A002A35D0002013E0012282400D4694
:100850001540002D0CD02568009E375C0126BE4057
:10086000B54325600D4695432946002900D102E095
:10087000401C1828E9D300BF182016E00125854048
:100880002A460D461540002D0ED0019D2D780646B6
:10089000183E0127B740BD43019E35700D46954374
:1008A0002946002900D102E0401C2028E6D300BFE1
:1008B00000BFFCBDAF4909680A4613781946537852
:1008C0001B02194393781B041943D2781206114373
:1008D0008143A84A126811700B0A53700B0C937075
:1008E000090ED170704710B5A24A126813461C78E1
:1008F00022465C78240222439C7824042243DB783D
:100900001B061A4302439B4B1B681A70140A5C7047
:10091000140C9C70120EDA70974A126813461C78F9
:1009200022465C78240222439C7824042243DB780C
:100930001B061A430243904B1B681A70140A5C7022
:10094000140C9C70120EDA708B4A12680823D318AC
:100950001C7822465C78240222439C78240422439B
:10096000DB781B061A438243834B1B681A72140AF6
:100970005C72140C9C72120EDA727F4A12680823A1
:10098000D3181C7822465C78240222439C782404E5
:100990002243DB781B061A430A43774B1B681A7203
:1009A000140A5C72140C9C72120EDA7210BD71493A
:1009B00009680A461378194653781B02194393783D
:1009C0001B041943D278120611430143694A126885
:1009D00011700B0A53700B0C9370090ED170704795
:1009E000654909680A461378194653781B0219436A
:1009F00093781B041943D2781206114301435E4ACF
:100A0000126811700B0A53700B0C9370090ED170A1
:100A10007047594909680A461378194653781B02EA
:100A2000194393781B041943D2781206114381436A
:100A3000514A126811700B0A53700B0C9370090E17
:100A4000D17070474D4909680A46137819465378A2
:100A50001B02194393781B041943D27812061143E1
:100A60000143464A126811700B0A53700B0C9370C5
:100A7000090ED1707047414909680A461378194632
:100A800053781B02194393781B041943D27812063A
:100A900011438143394A126811700B0A53700B0CD1
:100AA0009370090ED1707047344909680A4613786B
:100AB000194653781B02194393781B041943D278C3
:100AC0001206114341402D4A126811700B0A5370EF
:100AD0000B0C9370090ED1707047014626480068D0
:100AE000021D1378184653781B02184393781B0491
:100AF0001843D278120610430840704710B50A46D2
:100B00001F4909681823CB181C7821465C782402F9
:100B100021439C7824042143DB781B0619430140C0
:100B2000174B1B6819700C0A5C700C0C9C70090E3A
:100B3000D970134909681023CB181C7821465C78BA
:100B4000240221439C7824042143DB781B061943AB
:100B500081430B4B1B6819740C0A5C740C0C9C745D
:100B6000090E0FE00C3000208010005024300020CF
:100B70003C300020103000201830002014300020BD
:100B80001C300020D974544909682031097849087B
:100B90004900514B1B682033197050490A600C21E1
:100BA000002909DB00BF00BFCC06E40E0123A340EF
:100BB0004B4C236000BF00BF00BF10BD4649096811
:100BC00010228A181378194653781B021943937818
:100BD0001B041943D2781206114301433E4A12689E
:100BE00011740B0A53740B0C9374090ED174704773
:100BF0000C20002816DBC206D20E01219140384A93
:100C00008032116000BF00BF00BFBFF34F8F00BF35
:100C100000BF00BF00BF00BF00BFBFF36F8F00BFAA
:100C200000BF00BF00BF0020C0432B490968087403
:100C3000020A4A74020C8A74000EC87426480068BE
:100C40002030007840084000401C234909682031CA
:100C50000870704710B520480068182141180A78BC
:100C600010464A78120210438A7812041043C97859
:100C7000090608431849096810228A18137819468A
:100C800053781B02194393781B041943D278120638
:100C90001143884300281ED010480068002802D065
:100CA0000E48006880470C480068182141180A78EF
:100CB00010464A78120210438A7812041043C97809
:100CC00009060843044909680870020A4A70020CC0
:100CD0008A70000EC87010BD1C300020203000202B
:100CE00000E100E00FB410B504460020002C02D053
:100CF000012C05D101E0E64805E0E5480C3002E0B2
:100D0000E348183000BF00BF817A302291436A4621
:100D1000927E120130231A40114381726A46917EFD
:100D2000012904D0022909D003292CD118E06946F1
:100D3000497E41726946097EC17224E06946497B59
:100D400001706946897B41706946098A8170090A88
:100D5000C1706946897C01716946C97C417112E0A4
:100D60006946497DC1716946897D0172817A0A09A6
:100D700012016946C97D0907090F0A438272694653
:100D8000097D817100BF00BF817A402291434031CB
:100D90008172817A802291438031817210BC08BCBB
:100DA00004B01847002804D001280BD002281BD11A
:100DB00011E0B7491439897F80229143B44A143A2B
:100DC000917711E0B2490C31897A80229143B04A7F
:100DD0000C32917208E0AE490C31897D802291433A
:100DE000AB4A0C32917500BF00BF7047A94800782C
:100DF00040084000401CA7490870704700B50246F3
:100E0000FFF7F4FFA3482030007900090001917832
:100E10000907090F08439F49203108719D48007F49
:100E2000400840005178C907C90F0843994908771D
:100E300090889849203108801078012804D0022831
:100E400028D0042873D14BE0D08892492031088201
:100E5000D07800280DD1097B0E23194008468D4912
:100E60002031097B0909090101438A4B2033197399
:100E70000FE088492031097B012319430807000F3F
:100E800084492031097B090909010143814B203341
:100E9000197371E0D0887F4920314882D0780028CA
:100EA0000DD1097B0D23194008467A492031097B71
:100EB000090909010143774B203319730FE0754984
:100EC0002031097B022319430807000F71492031A3
:100ED000097B0909090101436E4B203319734BE06B
:100EE000D0886C4920318882D07800280DD1097BC8
:100EF0000B231940084667492031097B090909017C
:100F00000143644B203319730FE062492031097BA0
:100F1000042319430807000F5E492031097B0909A2
:100F2000090101435B4B2033197325E0FFE7D088AB
:100F300058492031C882D07800280CD1097B480755
:100F4000400F54492031097B090909010143514BE4
:100F5000203319730FE04F492031097B08231943CF
:100F60000807000F4B492031097B0909090101439A
:100F7000484B2033197300BF00BF4648007C8008EF
:100F80008000C01C434908740846007D800880002A
:100F9000087500BD3F4A127FD207D20F002A0AD13E
:100FA0003C4A203212888A4210DC3A4A20321288A7
:100FB000521E91B20AE0374A20321288521E8A42EB
:100FC00004DC344A20321288921E91B2C207D20F3A
:100FD000002A02D02F4A2032118202220240002A27
:100FE00002D02C4A2032518204220240002A02D030
:100FF000284A2032918208220240002A02D0254A43
:101000002032D182704723492031098A814202DC93
:1010100020492031088070471E49097F490849004E
:10102000C207D20F11431B4A117770471948007944
:1010300040084000401C17490871704710B516A0C1
:10104000FFF7CAF81348007CC007C00F002815D06E
:1010500016480088401C154908800E48203000883A
:101060000988884205D101201049088010A0FFF7A7
:10107000B3F80E4801880F20FFF78CFF0548007C6D
:101080000448007C80088000C01C0249087410BD20
:1010900054000150800201504850574D5F49525151
:1010A00048616E646C65720D0A00000054300020C7
:1010B000434F554E5445525F544F502043616E206C
:1010C00073746F702070776D207468657265210D80
:1010D0000A000000002815DBC206D20E0121914053
:1010E000F94A116000BF00BF00BFBFF34F8F00BFC0
:1010F00000BF00BF00BF00BF00BFBFF36F8F00BFC6
:1011000000BF00BF704770B504460D46EF48006849
:101110002030007CC007C00F00280CD0EB480068CE
:101120002030007C40084000E849096820310874FC
:10113000322000F0A3FAE548006820300475210A47
:101140004175210C8175210EC175E0480068203081
:10115000007C102188431030DC4909682031087474
:10116000DA4800682030807C40084000D749096890
:1011700020318874D6480560D44800682030407C0F
:1011800040084000401CD1490968203148740820BB
:1011900000F04FFACD4800682030007C4008400045
:1011A000401CCA4909682031087470BDC7480068EE
:1011B000014644310A7810464A78120210438A7870
:1011C00012041043C97809060843704710B5BF4898
:1011D00000682030007C40084000BC49096820318C
:1011E00008740820FFF776FFB84800682030407C7C
:1011F00040084000401CB54909682031487410BDC2
:10120000B249096820310875020A4A75020C8A75CC
:10121000020ECA75AD4909682031897C4908490028
:10122000491CAA4A126820329174A84909682031E1
:10123000497C49084900491CA44A1268203251746B
:10124000A24909682031097C49084900491C9F4A84
:1012500012682032117400BF9C4909682031C97C92
:10126000C907C90F0029F7D0984909682031097CBE
:1012700049084900954A1268203211749349096857
:101280002031497C49084900491C904A12682032A3
:101290005174704710B58D4800682030C07CC0077D
:1012A000C00F002811D0894800682030407C4008D9
:1012B0004000401C85490968203148748448006812
:1012C000002802D082490868804710BD70B50446E6
:1012D0000D467E4800682030007C8007C00F002843
:1012E0000CD07A4800682030007C0221884377497E
:1012F000096820310874322000F0C0F97348006892
:1013000020300476210A4176210C8176210EC176A7
:101310006E4800682030007C2021884320306B49D3
:10132000096820310874694800682030807C0221F7
:101330008843664909682031887465484560634878
:1013400000682030407C02218843801C5F49096886
:1013500020314874092000F06CF95C4800682030A6
:10136000007C02218843801C584909682031087498
:1013700070BD564800684030082141180A78104670
:101380004A78120210438A7812041043C978090679
:101390000843704710B54D4800682030007C02219A
:1013A00088434A490968203108740920FFF792FEF2
:1013B000464800682030407C02218843801C434915
:1013C00009682031487410BD10B5404800682030CD
:1013D000C07C8007C00F002811D03C480068203036
:1013E000407C02218843801C3849096820314874B8
:1013F00037484068002802D035494868804710BD0A
:1014000070B504460D46314800682030007C400726
:10141000C00F00280CD02D4800682030007C04212B
:1014200088432A49096820310874322000F026F9DF
:101430002648006820300477210A4177210C817703
:10144000210EC177214800682030007C402188436C
:1014500040301E490968203108741C48006820305B
:10146000807C042188431949096820318874184810
:101470008560164800682030407C04218843001DA8
:1014800012490968203148740A2000F0D2F80F4848
:1014900000682030007C04218843001D0B49096846
:1014A0002031087470BD0948006840300C21411893
:1014B0000A7810464A78120210438A7812041043C0
:1014C000C97809060843704780E100E05C300020DD
:1014D0002C31002010B55D4800682030007C0421CC
:1014E00088435A490968203108740A20FFF7F2FD41
:1014F000564800682030407C04218843001D534931
:1015000009682031487410BD10B55048006820307B
:10151000C07C4007C00F002811D04C480068203024
:10152000407C04218843001D4849096820314874E3
:1015300047488068002802D045498868804710BD28
:1015400070B504460D4643480068C07CC007C00F14
:10155000002808D03F480068007940084000401C3F
:101560003C49096808713B480068007A400840001F
:10157000384909680872374800680473210A4173C2
:1015800034480068007AE0218843324909680872CB
:10159000314805602F480068007D40084000401C2D
:1015A0002C49096808752B480068007A0221884395
:1015B000801C284909680872162000F03AF825486E
:1015C0000068007840084000401C22490968087003
:1015D00070BD20480168487C097C000208437047C0
:1015E0001C480068007940084000401C19490968FF
:1015F000087100BF17480068C07CC007C00F0028F2
:10160000F8D1704710B513480068007DC407E40F97
:1016100010480068007D40084000401C0D490968E2
:1016200008750D480068002802D00B480068804704
:1016300010BD002809DB00BF00BFC206D20E012189
:101640009140064A116000BF00BF70475C30002027
:101650002C310020603000206430002000E100E0E8
:10166000002108E0002201E0531C9AB20A4B9A4282
:10167000FADB4B1C99B28142F4DB7047002107E092
:10168000002201E0531C9AB2022AFBDB4B1C99B2E8
:101690008142F5DB704700008C0A00000448804757
:1016A00004480047FEE7FEE7FEE7FEE7FEE7FEE749
:1016B000C1160010C10000100348044908607047BB
:1016C00001480249086070470024F4006830002097
:1016D000F1B5F64880470746F54880470646F34C83
:1016E0000120183CA047F24D00200C35A847F149D5
:1016F000009888473046A8473846A047F8BDF0B55F
:10170000ED4DEE48E96885B00818044602F053FC38
:101710002146401C02F059FC0024E7480125C66818
:10172000E6480C3831180391487C097C00020843D4
:10173000A540284202903BD00B2060438119DF482E
:10174000009109300818019002F035FC0746DB488B
:10175000301802F030FC87422AD10F21009889010D
:101760004018007D00280CD0D44A00990D3A8A1800
:10177000517D127D090211437818019902F025FC70
:1017800005E002980399A8430874000A4874CB48FE
:1017900000990D30081802F00EFC002808D0022D28
:1017A00019D0042D17D0082D15D0102D1AD0804730
:1017B000641CE4B20A2CB0D3BF48C168BF480C38DF
:1017C0000918487C097C00020843800501D1BC4807
:1017D000804705B0F0BDBB49012088470028E7D00D
:1017E000222005E0B749012088470028E0D03B20AF
:1017F000FFF76EFFDCE710B5AF491220096988706A
:1018000072B60121AE4A0320B43A904762B610BDC9
:1018100010B50C4601788CB00A07120F69460A70A1
:101820000178CA0969464A70811C00A80622023064
:1018300002F090FB08A90C72012129220905A24C93
:101840006B460020A0470CB010BDFEB500206946D5
:10185000087108709D4F08729D4E974CB847E07113
:1018600002AB6A4601A9606902F04EFA00284ED028
:101870000820B047002803D00220B04700280FD02E
:1018800068460078012811D0E0686569407A01282F
:101890003ED00228E2D18F4AE17928469047DDE721
:1018A000012168460170007A00282DD02521E068CA
:1018B00049014118497B6569002908D07F49D43125
:1018C0004018417B027B0802834910438847284621
:1018D00002F070FA0028C1D068467E4A017996323B
:1018E000606990472878C0438007B7D1A87812284C
:1018F000B4D121691320887072B60121704A032087
:10190000B43A904762B6A9E73D20FFF7E1FEFEBD7D
:1019100028780007000F052806D003289ED1E1791A
:101920002846FFF775FF99E7687E297E0002084385
:10193000062805D3687F297F000208430A2803D2BE
:101940005C491220884789E76049EE31A81C884726
:10195000287887224006C10FE06811540622A91C8E
:10196000883002F0F7FA3721206902F00CFB75E7A6
:10197000F0B5544999B00420884700280ED0514949
:1019800004201A3188474E491F20AC3188475348FC
:1019900080471620FFF79CFE19B0F0BD50488047E5
:1019A000002810D0444DEC68A1790807F4D5E079FF
:1019B000C2071CD04B49204698308847E868C17957
:1019C000490849001FE0464E444F444DB2361C378B
:1019D0006C46103507E06846B0470128DCD1684600
:1019E0000178601CB847A8470028F4D0D4E78207E4
:1019F0000BD53C4A20461C328E30811C9047E8684B
:101A0000FD22C17923E0C171C6E7420708D53549F7
:101A100020466031A8308847E868FB22C17916E08B
:101A20000207F726002A09DA2E4A21464232A07A16
:101A30000B319047E868C1793140E4E7C00608D52A
:101A4000284968467C318847E868EF22C17911400F
:101A5000D9E720463140FF30A1712130017D0026B9
:101A6000002910D006752146072287310CA802F004
:101A700071FA21460DA82A228E31033002F06AFA4B
:101A800019490CA8884701206946087048708E7073
:101A9000E96800A82A2203308E3102F05BFA2D2279
:101AA0000821094C6B460020A04775E7BF65000080
:101AB000776A0000CF1600006C300020CE030000D3
:101AC00001120000F50A0000A13E00004957000085
:101AD000791900008B1E00002B620000BD60000021
:101AE000054E000027260000DF470000FE490128C0
:101AF000896A0FD0022811D0042812D0082813D0E8
:101B0000102814D0202815D0402816D0802818D0AE
:101B1000012070478878C007C00F70478878800719
:101B20000DE0887840070AE08878000707E08878A9
:101B3000C00604E08878800601E088784006C00F7F
:101B400070478878C009704710B5017801291FD106
:101B5000401C02F030FAE44A10283AD00DDC01288B
:101B600017D002281DD0042823D0082810D1FFF751
:101B7000BDFF00280CD1DD4809E0202839D04028DD
:101B800006D1FFF7B3FF002802D1D8485430804770
:101B900010BD0120FFF7AAFF0028F9D1FFF7E8FEEA
:101BA00010BD0220FFF7A2FF0028F9D1FFF74DFE7C
:101BB00010BD0420FFF79AFF0028F9D1D068407AC1
:101BC000012803D00228F3D1C948E0E7C848AE385D
:101BD000DDE71020FFF78AFF0028E9D1906A203066
:101BE000407D400701D53E2000E00820FFF770FD52
:101BF00010BD2020FFF77AFF0028F9D1BB484830FC
:101C0000C5E770B510250826B74C002821D0A06A7A
:101C1000817E31438176014660310A7E63785209C4
:101C20005201DB06DB0E1A430A762030427B067B2C
:101C30001302E26833432332547C167C220232437F
:101C4000934214D00273120A4273C87D2843C875A8
:101C50000DE002F046F8A06A0022014620310A7326
:101C60004A736030C17D2943C175A24806770120BF
:101C700070BD9D48C0682330417C027C080210433F
:101C80000BD09D4948780A78000210430322104384
:101C90000870000A48700120B3E7704730B4974CD1
:101CA000A44630BC6047F8B59348407A000663D537
:101CB0008D48C66830462330417C007C0F028E4937
:101CC00007434878097804020C43002F01D16007CC
:101CD00052D5894DA87B697B00026D1C08434BD00F
:101CE000002F49D068792979000208432ED1213686
:101CF000707C317C0002084302F078FB0022804BAC
:101D000002F078FA02F080FB80B27843642102F09E
:101D10000DF94004010C2971080A68710A20414339
:101D2000707D327D00021043814206D30A21401E9D
:101D300002F0FCF82871000A6871687929790002BC
:101D4000084303D101202871002068716A48A10767
:101D500009D502218C4301210C430470210A4170F2
:101D60000020FFF74EFF68792A7901021143654B85
:101D700000224020FFF792FFF8BD1CB55E494A7A69
:101D8000002A40D04A780B7812021A43D3063AD47C
:101D90004378047818022043012834D1C878401EC3
:101DA0000006000EC8702FD08B780846017BC47ADD
:101DB0000A022243017AC47909022143C01C012B83
:101DC0002AD0521A0272120A42721206037A120CB6
:101DD0001A43521A69460A80427A017A120612148C
:101DE0000A4369464A8044498A7B497B12020A4376
:101DF00069468A80417B027B080210436946C8809D
:101E00004149684688471CBD887AC8704020024313
:101E10000A70100A48701CBD5218D3E73B4A10479D
:101E20003A4A2032104738B5002469460C702146E2
:101E30007F20FFF7F5FF00213B20FFF7F1FF29216D
:101E40003B20FFF7EDFF69463B20FFF7E7FF6846C1
:101E50000078800701D5012038BD641CA4B2FF2C96
:101E6000F1D9002038BD10B529488047012010BDA8
:101E700010B51D49274A8870002807D1C8688078A6
:101E8000022803D000209047012010BD0120FAE76E
:101E900010B5154C0128E168887004D000284ED098
:101EA000022863D076E0206B014620310A78520880
:101EB00052000A700A78FD231A400A7001788909D5
:101EC00089011C3101704178890989011C314170F7
:101ED00000217F20FFF7A4FF03212120FFF7A0FFAF
:101EE0001F21032018E000006C300020791600004C
:101EF00027150000200002408F310020AB44000075
:101F00000000F43F731C001033420000C561000064
:101F100007470000A7650000FFF782FFFC49322059
:101F2000884702217F20FFF77BFF01210020FFF778
:101F300077FF00217F20FFF773FF0F2127E00021AB
:101F40007F20FFF76DFF00210420FFF769FF0221CA
:101F50007F20FFF765FF00210846FFF761FF0021A2
:101F60007F20FFF75DFF0021032011E002217F2089
:101F7000FFF756FF03210020FFF752FF00217F20CB
:101F8000FFF74EFF00210320FFF74AFF0021042046
:101F9000FFF746FFA078FFF76BFF012010BD10B5DB
:101FA000FFF776FF012010BD10B5DA488047DA4808
:101FB000C06A017ADF2211400172012010BDFEB516
:101FC000D54C01202071D54880470190E06A817A84
:101FD000007ACF07FF0F0026C506D149ED0E4878DD
:101FE000097800020843800608D5A06A2030417BAA
:101FF000027B0802104301D0FFF755FEA80702D06C
:102000000126FFF7D1FFC448C06A817A4908490018
:102010008172C2490120183988470220FFF738FF32
:10202000BB4964201A398847002469460C7025464C
:1020300001217F20FFF7F4FE00210A20FFF7F0FEC8
:1020400022210A20FFF7ECFE69460A20FFF7E6FE90
:10205000684600784007EFD469460A20FFF7DEFEA5
:1020600068460078400705D568460078000706D422
:10207000012504E0641CAB48A4B28442ECD3A4491B
:1020800064201A3988470020FFF702FFA34901980E
:1020900018398847A04CE06A817A490849003943D9
:1020A0008172002E02D09B480C388047002020719E
:1020B000002D01D00120FEBD0020FEBD10B5112174
:1020C000974801F060FF10BD70B50446401C01F058
:1020D00072FF022818D0042819D00121490488422F
:1020E0004AD125462035687B092301070209090FDB
:1020F0000020072A1FD0032A23D0022A28D0012A31
:102100002CD0002A30D035E0FFF7D8FF3DE0824DDB
:102110000121E868FF302130017501F096FEE86882
:102120008078002804D12879002801D1FFF747FFE3
:10213000FFF779FE29E0581A062148434121C94397
:1021400004E0581A062148433521C943081A10E013
:10215000581A062148432321C943F7E7581A062194
:1021600048431721C943F1E7581A06214843801D07
:10217000404240B2687308E040281DD00121C903E5
:10218000884202D1601DFFF7F8FD6549487809785B
:1021900000020843800607D5601C01F00CFF000513
:1021A000000F01D0FFF77FFD5B483C3001F003FFDB
:1021B00001462046884770BD5748383001F0FBFE85
:1021C0004006E2D570BDF0B5534C0646E0688DB0D0
:1021D000FF302130407C0D46002829D0002D26D02C
:1021E00072B6A068183001F0E6FEE1683222FF31D5
:1021F0002131897C4C4B514340186A463221984723
:1022000062B6002E04D0E068FF302130807C307050
:10221000E7680A21FF372137B87C401C01F070FEC7
:10222000B974E078401CC0B2E0700A2802D90020DE
:102230000DB0F0BD684600780128D1D100A9072271
:102240002846013101F086FE2A22E81D02A901F08C
:1022500081FE0120ECE7F0B5054634498DB0202021
:1022600088472D4C0426E16820690F4686700822B5
:10227000C01CC931BD3701F06DFE2069042239460A
:102280000B3001F067FE0D21294A03209047E068DA
:10229000294608220A31C13001F05CFEE068294677
:1022A00004221231B93001F055FE287A214F00285E
:1022B00002D1687A00281FD00020E070E0682A7AF6
:1022C00001468030837B9A420AD16A7AC07B82427F
:1022D00006D108222846903101F060FE00282DD05A
:1022E00069460020FFF76FFF01283BD0062200213E
:1022F000114B012098479BE7E06802228179114346
:1023000002468171C132FF3011461030B84726E0D5
:1023100045620000134700006C300020BF650000DC
:102320008F310020FFFF000059530000050B000013
:102330004D11000019220000D9190000E0688179D0
:10234000024631438171C13211469830B847E06886
:1023500080308079012802D1FE4902208847FE485A
:10236000804765E7E06801A92A228E30033101F039
:10237000F1FDA3E77CB5451C80782978000208436D
:10238000F64C022810D00F2810D001211D2810D0A3
:10239000FF3810280DD0F24A69460120904768782E
:1023A00029780002084302E0032000E00220A07127
:1023B0007CBDA1717CBDE94880797047E949084737
:1023C0001CB5E9480821017000214170017BC27AE7
:1023D0000902C01C114341D04279037912021A4309
:1023E000891A0BB26A461380417A027A09060914E7
:1023F00011436A46518019220624D201062B02DAC3
:102400006B461C8003E0934201DD6B461A8006296F
:1024100002DA69464C8003E0914201DD69464A8058
:10242000417B027B080210436946C880CE48817B0D
:10243000427B0802104369468880C848C068233040
:10244000417C027C0802104302D00020FFF7D9FB38
:10245000C64968468847C349402088471CBDC249D1
:1024600048780A7800021043C2050CD5FF220132D9
:1024700090430870000A48700879401E0006000E5C
:10248000087109D09CE720221043102290430422B7
:1024900010430870000A48707047FEB5B24D0446FC
:1024A000687829780002084300077DD5B048804746
:1024B00069782A78090211430822914329700A0A8F
:1024C0006A706B7A064628461A066ED5A279677935
:1024D0001202651C3A43A14FE41C002A77D0102257
:1024E000114301700A0A427088065ED4687929791E
:1024F0000002084332D001F079FF0191009060782A
:1025000021780002084301F071FF9A4C0022234613
:1025100001F070FE019B009A01F06CFE01910090A9
:10252000F8682130417C027C0802104301F05EFF14
:102530000022234601F05EFE07460C46687A297A9F
:1025400000020843801B01F03DFF3A46234601F09C
:1025500051FE019B009A01F09BFD24E060782178F8
:102560000002084301F026FF0446F8682130417C50
:10257000027C0802104301F01DFF214601F02EFDF0
:1025800001F060FF00227B4B01F034FE07460C4651
:10259000687A297A00020843801B01F013FF3A464B
:1025A000234601F027FE02E06EE064E00FE0002227
:1025B000714B01F087FE01F027FF0104090C00D1E7
:1025C00001216E4B00228020FFF768FB53E09A0642
:1025D00051D58278012A4ED18A064CD4FF22624816
:1025E000013211430170090A4170607821780002BC
:1025F00008435D490A7BCB7A1102194388423AD9D4
:1026000001F0D8FE0446F8682130417C027C0802C3
:10261000104301F0CFFE214601F0E0FC01F012FF73
:102620000022544B01F0E6FD07460C46687A297AF1
:1026300000020843801B01F0C5FE3A46234601F024
:10264000D9FD00224C4B01F03DFE01F0DDFE0104FE
:10265000090C00D10121494B00228020FFF71EFB0D
:1026600041484178027809021143FF2201321143A7
:102670000170090A41700320694608810222910312
:102680003F4C02AB0020A047FEBD10B504460078C9
:1026900000280DD1A17862780802104309D00128E2
:1026A0001ED0032827D00C2802D1201DFFF762FE80
:1026B00010BD01F016FB3349201D8847002802D1C8
:1026C0002820FFF705F8201DFFF7E7FE234801212A
:1026D000C368062209040020294C3133A04710BDED
:1026E00001F0FFFA2849201D88470028F7D128204B
:1026F000FEF7EEFF10BD201DFFF7ADFD10BD10B5BC
:102700000078012801D1FEF7FAFF10BDF0B51F488F
:1027100085B0804701217F20FFF782FB694650206A
:10272000FFF77CFB68460078042801D018488047F2
:10273000FFF779FB094CE0688078012866D0022811
:102740007ED0FFF73CFC0125684645800580114896
:10275000019021E0050B0000791A00006C30002088
:102760001F1D0000B34400008F31002033420000E1
:10277000BF5500000000F43F000059405F240010E6
:10278000A13E00005D5B0000475F0000793D000056
:10279000F7460000FF260010FE4968468847684655
:1027A0000570457000254580FB480190FB4BE068B3
:1027B00008226946C01801F0CDFB0121F84E4020E7
:1027C000B04701218020B04701212020B047FF21E0
:1027D0000C31684601800B2141808580C5800581D0
:1027E00045818581C581EF48EA4904906846A23950
:1027F0008847A0680A3001F0DEFBEC4BEA4A57211B
:10280000984701F022FB012005B0F0BDE848804761
:102810000090E06A067A817ACD07817AED0F490847
:1028200049008172E24F0120183FB847B00701D03C
:10283000FFF7BAFB0220FFF72BFB6420DD4900E025
:102840000CE088470120FFF723FB0098B847E06AB7
:10285000817A490849002943817274E70220FFF711
:1028600017FB70E710B5D4488047012010BDD2494E
:1028700010B51E318847012010BDCF4910B5543125
:102880008847012010BDCC4910B560318847012030
:1028900010BDC94910B56E318847012010BDC64929
:1028A00010B57E318847012010BD10B5C24CE6340A
:1028B000A047012010BDF8B5C04CC149E0683730D1
:1028C000884720693B230178BF250A09E168120186
:1028D0005B5C1B071B0F1A4302701207120F012AC1
:1028E00079D00B4640335A781B7812021A430B46B4
:1028F00042331A70120A5A7002788B7A2A409B016E
:102900001A435206520E027066235B5C42789B1D8E
:1029100092099B0692019B0E1A4342700622801C6C
:102920000B3101F017FBE1686620425C002A04D0FD
:1029300020696731083001F00DFBE068002120308C
:10294000417720699F4A41788906890E891C904702
:10295000206901780A091201121D0270E1682A40FB
:102960008B7ADB075B0E1A43027046235B5C42786E
:102970009B1D92099B0692019B0E1A4342700622F0
:10298000801C0B3101F0E6FAE1684620425C002A27
:1029900004D020694731083001F0DCFA2069894A07
:1029A00041782C328906890E891C9047E0680127FE
:1029B00005462035E97E01293BD000294CD002296B
:1029C0004AD0062948D000237F4C1A4601211846D8
:1029D000A047F8BDFFE70A464032137953718B7A5E
:1029E0000278DB072A405B0E1A43027087235B5C88
:1029F0005206520EDB011A43027042780B319209E3
:102A000092010C3242700622801C01F0A3FA206968
:102A1000E16806220830883101F09CFAE16803225F
:102A20003D204254664A8720405C323A88319047C4
:102A300087E74030417900290AD028200621A26A80
:102A4000937EFD242340937617756B7F2A7F43E0A6
:102A5000477101200146F2E7064642367178327826
:102A60000B02134317D0192189014B432230417FB8
:102A7000047F0802204301228004800C009006D0CD
:102A80000146184601F03CFA421C7F2A10D8D4B205
:102A90003770380A14E03770390A71702230417F7C
:102AA000027F0802104301248004800C009008E09B
:102AB0007F24104621467E3001F022FA3070000A51
:102AC00070703E48806A817E0222114381760775CC
:102AD0006B7F2A7F00992046314CFE34A0473B484B
:102AE000804776E710B5FFF7E6FE012010BD10B570
:102AF0003749032008702F4964201A318847354828
:102B00008047012010BD72B600212C4A906A4175A1
:102B1000037C01210B430374D068452211544230D9
:102B200001700021417062B60120704710B52A493A
:102B30008847012010BDF0B5204CA56A2C466034B2
:102B40002678FD27C0073E40800F06432670A170FF
:102B5000627062352B71180A687105982071000A3D
:102B60006071F0BDF8B5154D1549E86837308847F4
:102B70001120EF68002480013D186E79A8790321A7
:102B8000401C01F0BDF901208840A971064228D1FE
:102B9000641C23E02F440000491B0010CE020000FB
:102BA000615500008B260010383100205953000079
:102BB000BF6500002B620000833D00006C300020E8
:102BC000B1570000D9600000A13E00009D560000F2
:102BD000000002400747000001410000E4B2032C5E
:102BE000CCD31125AD017C19607B217B0002084309
:102BF000A91C7F18010AF24E3873797300280BD094
:102C0000607A227A010219201143800101F078F9DB
:102C10000206120E04D004E00120387300207873FD
:102C20000122787A397A000208430090607A217A8A
:102C300003020B43A079E349095CE079FFF77BFFCE
:102C4000F068002140190171C170017441748178EC
:102C5000002901D0082901D908218170DA4880476C
:102C6000B7E610B5FFF77EFF012010BD10B5D748BD
:102C70008047012010BDD54910B508318847012093
:102C800010BDD24910B516318847012010BDCF497B
:102C900010B578318847012010BDC949487001201E
:102CA0007047CA4910B586318847012010BDC74A10
:102CB00010B58E329047012010BD7CB5054601F05D
:102CC0007AF9BF490446383101F07FF9281D01F037
:102CD00072F9BB493C3101F078F940208443BC488B
:102CE000BA490190009468469631884701207CBD1E
:102CF00010B5B8498847012010BDB64A10B5083252
:102D00009047012010BD10B5B3488047022801D973
:102D1000002010BD012010BDF8B50E46AF49074692
:102D200048780978000208431C461546800609D5F4
:102D3000A348806A2030417B027B0802104301D007
:102D4000FEF7B1FFA6490120884700280CD0A24811
:102D50008047022809D972B623469E4C2A4631463E
:102D600038461834A04762B633E6002031E69D4964
:102D7000084710B504469A4901208847002803D027
:102D8000984920460831884710BD70B50546944AD9
:102D90000C4601209047002804D0924A214628463C
:102DA0002232904770BDFFB50F4681B08C491D4659
:102DB000164601200A9C8847002807D00094894CB9
:102DC0002B463246394644340198A0471CE5F8B5F5
:102DD0000E46074682491C461546012088470028B2
:102DE00006D023467F4C2A46314638467C34A047DD
:102DF000EFE510B504467A4901208847002803D042
:102E000078492046AC31884710BD70B50546744AF4
:102E10000C4601209047002804D0724A21462846DB
:102E2000C632904770BD70B505466D4A0C4601200C
:102E30009047002804D06B4A21462846E832904744
:102E400070BDF8B50E46074665491C46154601207B
:102E50008847002805D02346634C2A463146384629
:102E6000A047B6E570B50D4606465D4914460120FB
:102E70008847002805D05C4B22462946304630332F
:102E8000984770BD70B50D46064655491446012059
:102E90008847002805D0544B2246294630465C33EB
:102EA000984770BDF8B50E4607464D491C46154675
:102EB00001208847002806D023464B4C2A4631463D
:102EC00038468834A04784E510B5044644490120BB
:102ED0008847002803D044492046B831884710BDB0
:102EE00010B53F4901208847002802D03E48CC3029
:102EF000804710BD70B5324D0446082804D0E868FC
:102F0000407808280DD014E000217F20FEF788FFCC
:102F100001214020FEF784FFE86A0178C908C90052
:102F20000EE000217F20FEF77BFF00214020FEF70E
:102F300077FFE86A01786207C908C900520F114398
:102F40000170E8684470012070BDD3E710B50446F5
:102F5000264880472070012010BD10B50446234844
:102F6000801D80472070012010BD204910B51C3104
:102F70008847012010BD1D4810B5723080470120E0
:102F800010BD1B4800471B4908471A491A3108471A
:102F900008B51949684688476846C0788007C00F59
:102FA00008BD08B51449684688476846C078C00916
:102FB00000D0012008BD10B5FEF730FF10BD0000A5
:102FC0006C3000203A200510255700001D420000FB
:102FD000C92000102D4300002B4E00008F3100202F
:102FE000F50A0000B73A0000BB3B00009F44000018
:102FF000FB5F00002B6200004D65000010B5FEF77E
:103000000FFFDBE7FE48806AC07B052805D0062855
:1030100003D00F2801D0002070470120704710B561
:10302000FFF7F0FF002801D1F64880470120C5E7EF
:1030300010B5F3490122886A4275437CDB09DB0144
:103040009B1C4374931E83741B0AC374C96ACB7A96
:10305000EF242340CB724B7B93434B738B7A134308
:103060008B72817E022319438176017C11430174A6
:10307000E54905208847E548804701209EE7E34869
:1030800010B512308047012098E710B5E049884715
:10309000012093E7DE4910B51831884701208DE7FC
:1030A000DA4910B558318847012087E7D749AC3154
:1030B0000847D64910B5FA31884701207EE710B598
:1030C000D4488047012079E7D24810B518308047AE
:1030D000012073E7CF4BA2331847CE4BD8331847A4
:1030E000F8B50746C648002680680D4634462830A5
:1030F00000F061FF2903C9194118C148406B8142A2
:1031000011D9002065E472B6BD488068283000F00F
:1031100052FF2103C9194018BF4A012190470646B2
:1031200062B6641CE4B2AC42EDD3304651E4F8B56B
:10313000B34D0446A86817460E46283000F03BFF02
:103140000146A21980186A6B90420AD8002908D05B
:1031500072B60819B04B3A463146EA3B984762B618
:1031600037E4002035E4F8B5A54D0446A8681746B5
:103170000E46283000F01FFF0146A21980186A6B26
:1031800090420AD8002908D072B60819A24B3A46D4
:103190003146823B984762B61BE4002019E470B5C3
:1031A0009E48002400789C4E954D00280DD00128A3
:1031B0001ED024E072B6143000F0FDFE210340184A
:1031C0000121B04762B6641CE4B2A868C17B827B6F
:1031D00009021143A142EDD811E072B6103000F09F
:1031E000EAFE210340180121B04762B6641CE4B234
:1031F000A868C17B827B09021143A142EDD801205E
:1032000070BD70B504460D46000B42197C488068BD
:10321000C17B837B090219438A4201D9002070BD1A
:103220007E497D4E0978002902D0012903D00AE0A9
:1032300072B6143001E072B6103000F0BCFE001916
:103240002946B04762B6012070BDF8B50446734800
:103250000F4601786A48704D8068823D1646002905
:1032600002D0012903D00BE072B6143001E072B62F
:10327000103000F0A0FE001932463946A84762B669
:1032800001202EE430B45E4B9C68E37BA47B1B02E0
:1032900023431B03834202D230BC0020704730BC62
:1032A000D3E730B45E4CA44630BC6047F3B5544815
:1032B00089B080680024283000F07DFE0746099818
:1032C0004609002511E072B66801534BC019202150
:1032D0006A46EA3B984762B6002069460A5C401C91
:1032E000121994B22028F9D36D1CB542EBD309987A
:1032F000C606F60E72B631466801474BC0196A46DB
:10330000EA3B984762B60020694603E00A5C12195E
:1033100094B2401CB042F9D30A98844202D10120F1
:103320000BB0F0BD0020FBE7F8B538488A3880477D
:103330003A4C5734607A002840D000060425002813
:103340000FDA6078217800020843400709D5FEF7BC
:10335000AAFC6078217800020843A8432070000A84
:10336000607060782178000208432E4F2E4E41068F
:103370000CD5402188432070000A60700220694605
:10338000088002466B4639460020B04760782178B5
:1033900000020843C10711D0400840002070010A14
:1033A0006170800702D56846058002E00520694605
:1033B000088002226B4639460020B04750E41B4883
:1033C000004738B50E4C2078002805D110496846D2
:1033D0007E39884701202070012038BDF8B5027879
:1033E000002A74D00D4957314A7242788A72002AF5
:1033F00001D0042A01D904228A72C278847817E0A5
:103400006C300020F144000045620000E5460000F9
:10341000CB65000003480000435400003831002011
:103420007B4A000000800000A13E0000F94B000034
:1034300013022343FB4A1C0AD3721473447905799F
:1034400024022C4315466C73240AAC73C479857925
:1034500020022843D073000A1074F3480827C0687C
:10346000D21C2130447C007C240204430120A3426E
:1034700014D900258D701B1B8C7AA34204DA1071BD
:10348000000A50718B7216E0E400A34202DA107158
:10349000000A01E01771380A50710CE088708E7ACA
:1034A000E51AB5420FDA060A107156719C4201D135
:1034B000887200E08D72887AC8700871FEF780FF0C
:1034C000012051E403E0F3009D42E3DADFE700204E
:1034D0004AE4D549496A0870020A4A70020C8A70A7
:1034E000000EC870487A022210434872704738B5FF
:1034F000044600200090CD49684688470099F8208E
:103500008143E006000E08430090FFF7E2FF38BD5C
:1035100008B500200090C549684688470098000615
:10352000C00E009008BDC14872300047BF495A31F3
:103530000847BF490847BE491A310847BD480047F8
:10354000BC490C310847F8B500260B460446012556
:10355000304631462D03675C491CBE19A942FAD397
:103560000021675C491C7840A942FAD39E4222D1CF
:10357000904220D1AC4EB0680A3000F01CFDA94941
:1035800000195722573900F0E5FCB0681C3000F0F4
:1035900012FDF168001907220A3100F0DBFC01215D
:1035A000A54A00209047A44B002022462946823B92
:1035B000984701201CE400201AE470B50126054656
:1035C000994C36039C4B00203146EA3BA269984750
:1035D0009A4928468847A0681C3000F0ECFCA16995
:1035E00007224018E1680A3100F0B4FC0121924A38
:1035F00000209047904B00203146823BA2699847BB
:1036000070BD10B50446884880680A3000F0D3FCCD
:10361000894B1021EA3B224657309847CEE470B5DB
:1036200001260546804C3603834B00203146EA3B99
:10363000A26998470121804A00209047A0680A307B
:1036400000F0B9FCA169102257314018294600F05A
:1036500081FC794B00203146823BA269984770BDBE
:10366000714840690178C943890702D180780628EA
:1036700001D00020704701207047714A1047F3B510
:1036800081B0060025D0684F386A0446C179807938
:103690000D020543E01C00F08EFC0102A0780143FE
:1036A0000C46002D17D0002C15D00121624B0903C8
:1036B0000020EA3BBA699847B8680A3000F07BFC02
:1036C000B9696731405C401CC7B2032F05D902209D
:1036D000FEBD0120FEBD0420FEBDB54204D102980E
:1036E000844201D10020FEBD0121534A00209047B1
:1036F0004D4CA0680A3000F05EFCA2694E4B1146AA
:1037000067314754012109030020823B9847032079
:10371000FEBD08B545496846884700984108C90775
:1037200001D0002008BD0221084340490090283103
:103730008847012008BD3B480121573802783A48A4
:1037400009078068002A03D0012A07D000207047AB
:10375000C27B837B10021843400304E0C27B837B5F
:103760001002184300034018704770B504462D48F6
:103770000D46573801782C480126B6038068002989
:1037800003D0012903D0002070BD143000E01030B8
:1037900000F011FC801972B60019274A294690479B
:1037A00062B670BDF8B505461E480F465738017819
:1037B0001D480124A40380681646002903D001296E
:1037C00003D000209EE4143000E0103000F0F3FB42
:1037D000001972B64019184B32463946EA3B9847F1
:1037E00062B68FE4F8B505460E480F4657380178A3
:1037F0000D480124A40380681646002903D001293E
:1038000003D000207EE4143000E0103000F0D3FB41
:10381000001972B64019084B32463946823B984728
:1038200062B66FE48F3100206C3000204D650000DF
:103830002B620000776A000043540000A13D0000A5
:10384000D960000010B5030000F083FF09060C16D4
:10385000202A343E415B770001217F20FEF7E0FA09
:10386000882104E001217F20FEF7DAFA8A21612015
:10387000FEF7D6FA81215DE001217F20FEF7D0FA24
:103880008A216120FEF7CCFA832153E001217F20B9
:10389000FEF7C6FA8A216120FEF7C2FA872149E0C5
:1038A00001217F20FEF7BCFA8A216120FEF7B8FAD9
:1038B0008F213FE001217F20FEF7B2FA8A216120AB
:1038C000FEF7AEFA9F2135E001217F202BE0002199
:1038D0007F20FEF7A5FA02213020FEF7A1FA012190
:1038E0007F20FEF79DFA1F216320FEF799FA03213E
:1038F0006D20FEF795FA8A216120FEF791FAB0213A
:1039000018E000217F20FEF78BFA02213020FEF71D
:1039100087FA01217F20FEF783FA1F216320FEF73B
:103920007FFA07216D20FEF77BFA8A216120FEF7DE
:1039300077FABF216520FEF773FA6FE610B5F74CF2
:10394000A068283000F037FB616B081A66E6F4487F
:1039500000787047F8B50546F04EF148B269007836
:103960001446002801D0002016E4280502D02805BE
:10397000000D2D1A72B601210903EA4F0020B84745
:1039800062B6706B2146401B283100F01EFB0546D5
:103990002046103000F00FFB0090281A41080098D4
:1039A00008182146143100F010FB01460098081A4F
:1039B0000001000CA073000AE07372B60121D94A1D
:1039C0000020EA32904762B672B60121D54B090356
:1039D00000206833B269984731210020B268B847A7
:1039E00062B601204DE4CD48CC4BC079DB790209A9
:1039F0001B0709201B0FC01A062300215843072A62
:103A000008D0032A09D0022A0BD0012A0CD0002AA0
:103A10000DD00FE04121C94301E03521C943081A07
:103A200007E02321C943FAE71721C943F7E7801DBF
:103A3000404241B2C8B27047F3B5BB4EBB4F8DB0E8
:103A40000546002432226B4621460320B0476846D3
:103A50004088A84206D1684601790E98017001207D
:103A60000FB0F0BDB84204D068460088001984B297
:103A7000E8E70020F4E7F3B5AB4EAC4F8DB0054658
:103A8000002432226B4621460320B0476846408816
:103A9000A84208D1241DA1B2012203200E9B00F0F0
:103AA000E3F90120DCE7B84204D068460088001939
:103AB00084B2E6E70020D3E7F3B59B4E9B4F8DB071
:103AC0000546002432226B4621460220B047684654
:103AD0008178427808021043A84205D168464179AE
:103AE0000E9801700120BBE7B84204D06846007808
:103AF000001984B2E6E70020B2E7894910B55731D2
:103B00004878097800020843800603D5FEF7CBF811
:103B1000012083E5002081E5854B184710B5044658
:103B20007E4880680A3000F046FA08217D4B224624
:103B30006730984772E570B5054672B6774C012636
:103B40003603784B31460020A2699847754A012117
:103B50000020EA329047A0680A3000F02CFAA169F0
:103B6000082267314018294600F0F4F96D4B002017
:103B700031466833A269984762B670BD6D49082026
:103B80000847664948637047FEB5644D0027A8683A
:103B9000801D00F010FA634E01AA0621B0470028EC
:103BA00023D000241CE0A868801D00F004FA610006
:103BB0006118891D40186A460321B047002814D0B7
:103BC00068460078032809D1684640787F2801D1EB
:103BD00069468F78012F01D1572807D0641CA4B201
:103BE00068460089A042DED80020FEBD6846807885
:103BF000FEBDF1B5494E84B0B0680027801D00F0CD
:103C0000DAF9484D01AA0621A847002823D000244C
:103C10001CE0B068801D00F0CEF961006118891DBC
:103C200040186A460321A847002814D06846007847
:103C3000032809D1684640787F2801D169468F78EA
:103C4000012F01D1572808D0641CA4B2684600890E
:103C5000A042DED8002005B0F0BD72B601273F03B8
:103C600039460020B269A8472E4A01210020EA32D5
:103C70009047B068801D00F09EF9B26904998318DE
:103C80006000201808301954264B0020394668334C
:103C9000984762B6DFE77FB50D464B21090608431A
:103CA0000290002424480394804700940194224CFD
:103CB000012105202B4602AAA83CA0471E481C3023
:103CC00080477FBD7FB5064600246D4629192046F2
:103CD000FFF7E1FF285D3055641CE4B20F2CF5D3EB
:103CE0007FBD10B500F0F7F8002804D000F0F3F81D
:103CF0000128FBD092E400F0EEF80028FBD000F0A1
:103D0000EAF80128FBD089E4F0B5044C0025A46A48
:103D1000E678360712D50020F0BD00006C30002098
:103D20003831002059530000C9280000FFFF00006F
:103D300019220000791900001D50000000BF6D1C01
:103D4000EDB2642DFAD3254640356E7CB607FCD41F
:103D500000252646C036377947556D1CEDB2022D39
:103D6000F9D346780125F709002F08D0F606F60E9C
:103D70000E70157042785206D20F1A7004E0B30626
:103D80009B0E0B7000231370594B0A789B6A801CA2
:103D9000C033272A0CD20022C03403E0267986548F
:103DA000521CD2B20E789642F8D85D720120B3E769
:103DB0005D72B0E710B5027800219207920F4C4B6C
:103DC000012A39D0022A0CD0032A33D182780E2A54
:103DD0002FD84078474BC0069A5CC00E904228D03E
:103DE00028E04278D206D20E042A07D9C278847815
:103DF00012022243172A01D8012200E000225A7140
:103E0000002A17D04179027909021143052910D0FF
:103E100006290ED1C1788278090211438079354A8A
:103E200040000F3280184038C08F814201D00021FD
:103E300000E00121084680E559790029F7D0407853
:103E4000C006C00E1728F4D9F1E770B52A4D00243A
:103E5000274EA847F1680919FF310131641CE4B20B
:103E6000C873102CF5D370BDFFB5214C0200E0697A
:103E700081B01E460D4606D0012A06D0022A06D081
:103E8000032A06D009E0001D04E0083002E00C30EF
:103E900000E0103000F08FF801464D1972B601278E
:103EA0003F03164B39460020A269984762B6A069C5
:103EB00031464019039A00F04DF872B601210F4ABD
:103EC0000020EA3290470D4B002039466833A26942
:103ED000984762B6BFE60648816A0A466032907C1F
:103EE000927C603101E0887C8A7C9042FBD17047F3
:103EF0006C3000203D200510FB5F0000595300008E
:103F000030B50B46014600202022012409E00D4671
:103F1000D5409D4205D31D469540491B25469540F9
:103F200040191546521E002DF1DC30BD70B500243D
:103F30002546002801DA01244042002901DA012542
:103F40004942FFF7DDFFAC4200D04042002C00D0D8
:103F5000494270BD03460B439B0703D009E008C9E3
:103F6000121F08C0042AFAD203E00B780370401C29
:103F7000491C521EF9D27047D2B201E00270401CB7
:103F8000491EFBD270470022F6E710B513460A46D9
:103F900004461946FFF7F0FF204610BD30B5044631
:103FA0000020034600E05B1C934203D2E05CCD5C42
:103FB000401BF8D030BD0321001D401E03781202C3
:103FC0001A43491EF9D5104670470346032208706C
:103FD000000A491C521EFAD518467047F8B5024629
:103FE0004A40D40F42004B0052085B089A4202D26A
:103FF0000246084611464A0023D0C30D4A00DDB2EE
:10400000120EAD1A202D35DA49020126490AF605AD
:104010008A19002C00D0524220214F1B1146B94072
:104020002A411018C20D9A4221D0002C17D0012D20
:1040300008DCDA05801AD20F8019D207DBB200F053
:1040400081FAF8BDDA05801A012340001B06C0186A
:1040500080185A428018CA0F1043490007E04908E7
:10406000C2071143DA05801A80194008801800F051
:1040700061FAF8BD61000122511A001BF7E7012225
:10408000D2075140AAE70122D2075040A6E700001C
:10409000F0B507460846584087B0C00F0490480066
:1040A0000E46590040084908BC1A884105D23846D6
:1040B00031461E4617460B4602465800400810433C
:1040C0004CD0300D039040055900400D490D05902E
:1040D000401A0290402872DA18030121000B0905EA
:1040E0000843019004980092002805D0019952429B
:1040F0000020884100920190029840210A1A0199FB
:10410000009800F0E3F905460C466B4607CB00F03B
:10411000FEF9C0197141039A0E0D0023D7175640BE
:104120001A467A40164344D0049A002A2DD0029AA7
:10413000012A039A15DC1205C01A914101263605A1
:10414000001C7141D20F059ED20700930192029686
:104150002A46234600F03CFA07B0F0BD3846314607
:10416000FAE71605224A0F46B218C01AB7410121D4
:104170000905001C4F4100187F411146181879416C
:10418000E20F10436D19644113E0E2076D08154317
:104190006408C2071443039A01261205C01A91410C
:1041A0003605001C7141CE07400830434908C0184D
:1041B00051412A46234600F0FEF9CDE7FFE7049877
:1041C00001224000C117121A00238B410498314686
:1041D000C417381AA141EEE730B40124E407634064
:1041E00030BC55E730B40124E407614030BC4FE7F0
:1041F0000000E0FFF0B51FB488B00B9909980024C7
:1042000048400999C00F490049080991C0070B9916
:104210000090490049080B9109990898A64608435F
:104220001CD00B990A98084318D009980124400023
:10423000420D4800410D099824050003000B20435E
:1042400009900B980003000B20430B9050181C4959
:104250004018002201901446104605E00020014657
:104260000DB0F0BD032801DA034600E003239C46AD
:10427000C11A0AAE0AE05F0008ADED5B4F00F75BC4
:104280007D430027AA187C41491C5B1E6145F2DD75
:10429000410004AB5A522104120C0A43240C401C66
:1042A0000828DFDB01980290009970460191009088
:1042B000059B049A0799069800F08AF9D0E7000058
:1042C0000DFCFFFFF0B50C465C4085B0E40FE40741
:1042D00003944C000026640859009446490802469D
:1042E0000296224321D062460A431ED06200570D37
:1042F0004A000E032303550D012402462C492405D0
:10430000781B1B0B360B4018234326436146009055
:104310001C46501AB44103D30098401C009002E0A0
:10432000921800985B41002803DA0020014605B08E
:10433000F0BD0020012109050746864611E06446CC
:104340001D46141BB54106D36546521BB341744646
:1043500007430C43A646CD07400849082843921856
:104360005B4105460D43EAD11046184313D0604621
:10437000194650407140084306D06046101AB341B8
:1043800006D20122002306E000220123DB0702E01F
:104390000122D2435310009874460105381C614134
:1043A000029C039D0019694100F005F9BFE7000078
:1043B000FD03000010B500229623114600F0C2F85C
:1043C00010BD00000EB5C217C10F5040CA074018FB
:1043D0000021054B0293019200910A460B4600F022
:1043E000F7F803B000BD0000330400000EB5054926
:1043F0000291002100910A460B46019100F0E8F875
:1044000003B000BD330400004A0009030123090B77
:104410001B051943094B10B5520D9A4201DA0020D1
:1044200010BD064B34339A4203DC9A1A00F05EF852
:1044300010BD03495118884010BD0000FF03000063
:10444000CDFBFFFFC20FD207400040080BD0C10DCB
:104450000723DB01C91840020905400A1143C208BD
:10446000400711437047002001467047F0B51FB464
:104470000646002082B005464024019100901BE0D2
:10448000019922460F46304600F030F8049A059B09
:10449000801A994110D310461946224600F016F8AA
:1044A000361A8F410197224601200021009F00F01B
:1044B0000DF838184D4100902046641E0028DFDCBE
:1044C000019B00982946324607B0F0BD10B5202A5E
:1044D00004DB0146203A9140002010BD914020238A
:1044E0009C1A0346E3401943904010BD10B5202AA2
:1044F00004DB0846203AD040002110BD0B46D340D3
:10450000D0402024A21A91400843194610BD10B58E
:10451000202A06DBCB170846203A1041C1170B436F
:1045200006E00B461341D0402024A21A91400843D4
:10453000194610BD002904DA401C490001D1400889
:104540004000704770B40024050C05D1102400040D
:1045500002D1002921D01124050E01D10002083416
:10456000050F01D10001241D850F01D18000A41C7D
:10457000002801DB4000641C002908D020252E1BE8
:104580000D46F540A14000D0012129430843010612
:104590001B1B000ADB1D02D5002070BC7047DB0529
:1045A000181880180029F8DA401C4900F5D170BCB1
:1045B00040084000704710B5002B08DA0024401C6A
:1045C000614192185B411A4301D14008400010BD7F
:1045D000F0B51FB482B005460C0003D0084600F0C9
:1045E000A1F802E000F09EF820300246009021463B
:1045F0002846FFF76BFF049B059A04460F461843B5
:104600001143084314D0184610431BD00098402192
:104610000A1A18460599FFF769FF05460E46009AE3
:1046200005990498FFF752FF084305D0012004E0E4
:104630002046394607B0F0BD0020C11705430E43A0
:104640002C43374300990E986305401A7905E40A14
:1046500000220C43FD0A0A3002D500200146E9E79A
:104660000105101969410C9C0D9D00196941FFF766
:10467000A2FFDFE74A0009030123090B1B051943C9
:104680000A4B10B5520D9A4202DA0020014610BDC5
:10469000064B34339A4203DC9A1AFFF727FF10BD0A
:1046A000034BD218FFF712FF10BD0000FF030000FC
:1046B000CDFBFFFF10B5002904DB0124E4074042D5
:1046C0008C412146002B04DB1C460123DB075242B0
:1046D000A341994200D1904210BD0000064C012533
:1046E000064E05E0E36807CC2B430C3C984710349A
:1046F000B442F7D3FBF7E8FC6420051084200510D2
:1047000037B514460846064B6A46214600F0EAF8DB
:1047100004466946002000F081FC20463EBD0000B2
:104720001D5000102021020C01D010211046020A59
:1047300001D010460839020901D01046091F82082D
:1047400001D01046891E420801D0881E7047081A01
:10475000704730B47446641E2578641CAB4200D2A6
:104760001D46635D5B00E31830BC184702E008C8D3
:10477000121F08C1002AFAD170477047002001E0DB
:1047800001C1121F002AFBD170470000F0B51FB411
:1047900084B007980699020D014314D04A484B494A
:1047A0001018484305140F9801280E981CD0281A99
:1047B000401C0024464E4749009401910290002875
:1047C00014DA474227E00F98012443A3012808D0B8
:1047D000002104980F9A84600360C260416009B0B0
:1047E000F0BD0E98C143F4E74042E2E7074612E00D
:1047F000F80707D02246334601990098FFF7FAFCE4
:10480000019100902246334610461946FFF7F2FC0C
:1048100004460E467F10002FEAD10298019B002823
:10482000009A0799069802DAFFF7E4FC01E0FFF727
:1048300049FD04460E460022284BFFF73BFF03D8F4
:104840000020C043014607E00022254B20463146A8
:10485000FFF71EFCFFF70EFF102409E0002C0ADB17
:104860000A220023FFF702FE059B30321A55641E10
:1048700002460A43F2D11122641C059B121B1C192B
:104880000F9B012B03D0012308430ED10AE00843FC
:1048900004D011200E9000200F9084E70E98151A76
:1048A0006D1E0BE00E98824202DD00236D1C03E0BA
:1048B000824201DA00236D1E002BEED004980F997E
:1048C0008260C16030C08AE701FCFFFF104D00002C
:1048D000000024400000F03F300000000000F043E2
:1048E0000000E03FFFB597B00646002518E22528F6
:1048F00077D100242746FD49049400E00443761C48
:1049000032780120203A90400842F7D130782A28A6
:104910000ED00222307801463039092916D8049980
:104920000A235943303940181443761C0490F1E7A8
:10493000189802C804911890002904DA0120400355
:1049400004434842049002200443761C30782E2809
:1049500014D1042004437078761C2A2809D11898B1
:10496000761C80C8189009E00A214F43303FC719D0
:10497000761C3078014630390929F5D930786C2811
:1049800010D006DC4C281AD068280ED06A2817D11F
:1049900004E0742813D07A2812D110E001204005D9
:1049A00004430CE00121090501E0032109050C4342
:1049B0007178814203D1012000052418761C761CF1
:1049C0003078119066280BD013DC58287DD009DC94
:1049D00000287BD04528F6D04628F4D047281AD1A5
:1049E000A5E118E0632835D0642870D0652812D17D
:1049F0009DE170286CD008DC6728F1D069287BD055
:104A00006E280DD06F2806D1BAE073282ED07528F5
:104A100071D0782859D01A9A199990476D1C7EE167
:104A20006002400F022809D003280DD004281898EE
:104A300001680DD00D60001D189070E11898EA17FC
:104A400001680D604A60F6E7189801680D80F2E78A
:104A50000D70F0E718986A4601781172001D1890E1
:104A60000020507202A80090012005E0189802C8AA
:104A7000189000200091C04361070DD5002101E08E
:104A80000199491C0191B94212DA8142F8DB009A7E
:104A9000515C0029F4D10BE0002101E00199491C8F
:104AA00001918142FADB019A0099895C0029F5D1D4
:104AB000019904981A9B471A21463846199A00F022
:104AC00097FA0199401945180BE04FE02CE113E0EB
:104AD0004EE0009800990078491C00911A9A1999A3
:104AE00090470198401E0190401CF2D12146384663
:104AF0001A9B199A10E137E00A20002100900191D9
:104B00006002410F022907D0189A01CA1892C217F1
:104B10009446032908D00AE01898C01DC108C900AE
:104B200005C91891944607E000B2C21794460429BB
:104B300002D140B2C1178C4600226146944506DA84
:104B40000A460021404291418C462D2102E0210578
:104B500004D52B216A461173012103E0E10701D03E
:104B60002021F7E7029155E00A200AE0102008E032
:104B7000102000900021042004430191082703E045
:104B800008200021019100906002410F022907D006
:104B9000189A01CA189200229446032908D008E006
:104BA0001898C01DC108C90005C91891944603E0B2
:104BB00080B2042900D1C0B200210291210729D579
:104BC0001199702906D0009A1021019B4A401A437E
:104BD00005D00EE040216A461173012108E06146CC
:104BE000014306D030216A46117311995173022195
:104BF0000291009A0821019B4A401A430AD161465A
:104C0000014301D1610705D530216A4611730121A5
:104C10007F1E02911199582904D035A10E910DA93A
:104C20000D910DE037A1F9E76146019B009AFFF76E
:104C30001DFC0E9B8C469B5C0D9A521E0D921370B0
:104C400061460143F0D10D9805A9081A2030019062
:104C5000600703D501200004844300E00127019888
:104C6000874201DD381A00E00020019900904118C8
:104C7000029809180498401A0490E00306D42146CB
:104C80001A9B199A049800F0B3F94519002706E019
:104C900003A81A9AC05D199990476D1C7F1C029851
:104CA0008742F5DBE0030CD521461A9B199A04983C
:104CB00000F09EF9451904E01A9A3020199990479E
:104CC0006D1C0099481E00900029F5DC08E00D9845
:104CD0000D990078491C0D911A9A199990476D1CED
:104CE0000199481E01900029F1DC63E109280100C7
:104CF0003031323334353637383961626364656652
:104D00000000000030313233343536373839414213
:104D1000434445460000000000F05AF94519761C4E
:104D20003078002800D0E2E528461BB0F0BD6007CF
:104D300000D406271898C01DC108C90048680A6831
:104D40000831C30FDB071891190001D09CA108E0BE
:104D5000210501D59BA104E0E10701D09AA100E063
:104D60009AA1430011985B08109165280CD006DCCD
:104D7000452809D046281DD0472841D141E0662862
:104D800018D067283CD13CE00021112F01DB112015
:104D900000E0781C0191009008A911A8FFF7F6FC2B
:104DA000139905910021119A15927F1C1298019771
:104DB000009150E00120C00703900120019008A954
:104DC000009711A8FFF7E2FC139A149905920022AC
:104DD000119B009212981593059A0192002901D017
:104DE000104602E0791C40180190381A01D501984C
:104DF00004E04042401E0090781C0190C01B0290CD
:104E000043E0012F00DA01270021112F01DD1120DD
:104E100000E038460191009008A911A8FFF7B6FC00
:104E200013990591119A00211298159200910197FA
:104E300021070CD40599B94201DB019900E00191E9
:104E4000012904DD159A491E515C302906D0B8426B
:104E500001DA011D05DA0121029115E00199491ECF
:104E6000EDE7002805DC0099411800910199091A25
:104E700003E0019A411C914200DD01910099401A22
:104E8000401C02900120C0070390200706D402991D
:104E90000198814202DB0020C04302900020694655
:104EA000C87707AF012103980337C907884224D088
:104EB000022011902B201290039800280CDA404217
:104EC00003902D20129007E00A210398FFF718F8AD
:104ED00030317F1E039039701199481E11900029BE
:104EE000F2DC03980028EFD1791E12980870307810
:104EF000202108404530BF1E387006A8C01BC01DC9
:104F0000039010980078002800D0012001994118E2
:104F10000298C0170918039809180498401A401EEF
:104F20000490E00306D421461A9B199A049800F0D5
:104F30005FF8451910980078002803D01A9A19993B
:104F400090476D1CE00324D521461A9B199A0498BA
:104F500000F04EF845191CE00098002807DB009986
:104F60000598884203DD1598405C199901E019996C
:104F700030201A9A904700986D1C401C00900298AF
:104F8000401E0290002804D11A9A2E2019999047A9
:104F90006D1C0199481E01900029DDDC05E0387880
:104FA0001A9A7F1C199990476D1C0399481E03900B
:104FB0000029F4DC21461A9B199A0498ACE60000FB
:104FC0002D0000002B000000200000000000000069
:104FD000F8B5044600251E461746880404D405E0AB
:104FE00039462020B0476D1C641EF9D52846F8BD0F
:104FF000FFB50446002581B01E46C80301D5302701
:1050000000E02027880404D505E038460399B0471E
:105010006D1C641EF9D5284605B0F0BD0A68531C06
:105020000B601070704785938D837C7B706E7780EA
:10503000827474789094847F76767B909B9277715B
:105040007C7D787A77706E6C8AA29E877172798087
:1050500092988B76626F808070667784858B948C53
:105060007C787C84909A897A6E737F7B6C6476807E
:105070008F8E8479808B8B928F8F7F7371768277FE
:105080006E6B6B77858E8F897E818991938A807212
:10509000788582736D676C777F8F88808184929A20
:1050A0009385807B8084796E66636879888E8D8530
:1050B0007E74859B92867D7F827D7C7F7568647718
:1050C0008A7F7C838B8B8E9A96908079787B7D7596
:1050D0006F666C79888C7E7C7E838B9095908A85B8
:1050E0007B787A7669646A758586818689889291EB
:1050F0008B8F8A827A75797B726366757F7A767A0E
:105100008B9F9E9C8A8486838183796462717B6E87
:105110006D7A868385979A988A818A8C8D887B6C34
:105120005F5765797A83827F8288979A9D8D808880
:105130008B87817963595F7585807579798197A8A7
:10514000A78C75737B838479776F676A6C768882A6
:105150008190A29E8A838490878172716E60666A54
:105160007F8C8D857274829CA5928C827780867FDD
:105170006C585C717D7F7A7A79869A999999928830
:105180007874807D6D656A7777777572798D959A79
:105190009D8D8A817F8779797467685E697D888251
:1051A000788289909A9B9A99876E676E7276736BF4
:1051B0007171767D80878E979694908481857972BF
:1051C000797C705E5B6C8482777F909C9F979186E0
:1051D00082807B78757D69666B697B848E837D8830
:1051E0009AAA967B7D807C79706A6F746D747E79E3
:1051F0007D838690999A918A897D827B72666068A8
:1052000073847F7D7E8E928C898A9291948A736B4F
:105210006A62777A7072737C79838C9BA3918A8B94
:105220007F7B7A7D7B776F6A79767A7A7483948CC8
:10523000898D93938A837273797D70666B7485858B
:105240007B85898792879697827E7B7A6E71747050
:10525000726D7986838781898F949C868385807B14
:105260006E7278716D69777E83918C8A8C95969336
:1052700081727D7F7D7875767E726F747E8E8D8C67
:105280008790938C8C877769687478736E6B787964
:1052900086968D8C8E8A868C8B83736472838781CD
:1052A0007169737B7A7A95AA9C8E85898E847376D0
:1052B0007D7B796D6F7978788392938D83768391F6
:1052C000938A766F75747272716D6D727689989427
:1052D0008D8784898A8682736465787C7B7F7979FF
:1052E0007E8F948A888B8D878A8E8A7E6C6971788E
:1052F000847F7E776C85989A8C817F859088757382
:1053000071737F7C7E796B697590989182768289C2
:105310008482857D766A677C7A707A7C7F848A92C3
:105320009084808690857472787F797874747168BF
:10533000718599A5957D7A898D8782767B80787233
:1053400072797E727384979E867B808E8E88837F2F
:105350007C726C7283867C73757E85868C938D7E61
:10536000727C898981767077747273727B8A8E8081
:105370008284888481898A8071767D87816E676B5B
:10538000758692938D858682807F7F8087827F7AE3
:10539000737876757072808A8889898F8B86817719
:1053A0007775807E7E8078747A7D83857E81818426
:1053B0007F948F7C7B74858C82756E757674848CFB
:1053C0008F84818180888381767C838486787077DE
:1053D000817E7A7A7F848380888A867B78848888B5
:1053E0007B75737271727D878581878989838480DB
:1053F000736E7A828E92817A7A817E7674768190CB
:10540000938E7F767783927F797E827F747981868F
:10541000837B7D85847E7E857E7B7E878C867E7782
:105420007375807D7D797E8D918977797F85847A8A
:105430007E8B877E777A79747B75828D8A84827E73
:105440007C808383777F8E8B7E7874787A74778480
:105450008985867E818089877E7975888A857D6E3B
:105460006F777E8A867F7E81928B7F7E7F807A7542
:1054700088917B6E6D7D83838A8A7D7A7F818B8420
:1054800086877A7D7F7E827E776F77828289807C35
:10549000818490908076787D817D7A7B7F7F797121
:1054A00079858281888B8F8B7D787678818B817AE4
:1054B00078736F77867A7C8B8D89898F887F7E71F0
:1054C000728085887B75777E82787C787F928E8BE0
:1054D0008280837474878A81756E77797E867F7AFD
:1054E00074758F9F9A85726D768782827B6F7678CE
:1054F0008382797D7D808D94928675727C858C8186
:105500007878747277807F7D7B838D978F7B7E7AAE
:1055100077838583796E767C7D878274737E989994
:105520008A827F7A74808186827371747B81776FBF
:105530007E8C95908B837B7A7A7E7E8984726B6F6A
:105540007E86807E7E82878B938A867F7981888122
:1055500070707B7D75717983868C8789877D868362
:1055600083867D7775797976787078858281859163
:1055700092887F7C7F88867F796D6D7A827B7F7849
:105580006F8191928B8483877B7886837773767D16
:105590007C797274838C918C8883878B86837D71F0
:1055A000717B797B7E7C7A7B848C88807F817D8A0D
:1055B0008C808483766C797C7C8178797E868E8DF4
:1055C0008F8478868B847B777A7A807E7D7B727AF3
:1055D000878C90897D7A82897E7979818C867873AF
:1055E0007379757484858B8A858F8D827F817E75B2
:1055F000757F837D727377818186968B807A7D86B5
:105600008F8C8179767879797770787F7F88828AB4
:1056100087878F8B857C7F726D7983847F787173A8
:1056200075868E8889898C8D817F8585726670826A
:1056300084757D7C797D7C808D8B88968D80716F63
:10564000777A81817C7C7C777B838B897D7A818D65
:10565000968F7F6B69778387796F72818483857E6C
:1056600084848389938D7974736C74879084727445
:1056700077788A8A878D80838C877D7B7D797A761F
:105680007A7D756F73828E938B837F80808288840E
:10569000807A767C7B7776797E7E858982848A8A19
:1056A0008584847C7875757E7D7272727B84899026
:1056B0008B88807B7F87867F817D77777678777808
:1056C00081828180859391807D8B8B7F76757276C8
:1056D000787C7D787D737D908D8B8780898B7C74C1
:1056E000748084807D787B746B76899B917F757BD9
:1056F0008F988C807A71727479767C776F889089B4
:105700007D7D8787828187837D7B7B7F7B757276BA
:10571000797F868789868C8984898A7D6E757C7D70
:10572000817D6F727A7C7F858883828382898F8076
:105730007D7C75797278757683797B87918D85828A
:10574000797E897E7A7F82847C7677767C7F7F887B
:1057500083858C82818388827E81797775727D884A
:105760008A80737D8788868C897E848C847577781F
:105770007C7E7C74788886888282867C878C867F13
:105780007E848482747274767D7D7E7E898A85862D
:105790008B8382867F7B7A7D787C7F7B7A7C7F7F20
:1057A0007A828C8585808187818786777A7B7675FA
:1057B0007A817C7C8388868586807E84847F827ED5
:1057C00078717B8A8179787C7B7B878A8A858382E2
:1057D0007D827F807F7C747080877B717D8C857EED
:1057E000898C88807C85888A7C6D7689857A7978B1
:1057F0007977848E8A8987847F82857A797E85828B
:105800007774747A7D84848992887D7A7E83878F89
:1058100086736A7588837F83807E7876858E918D86
:105820007976828B81737A797C7D777E797F8282AB
:105830008C8585867E7E7D7E82817D727D85817C64
:10584000727C7D7E87868384837D848A7D6E718170
:10585000867F7B807C75767B898F8376797B879941
:105860008672717780848378727477798492888461
:10587000817E7A7E84837F7C7D797F8481716A7862
:10588000828B8783897F7B8588817C79767E9088EF
:10589000716C777F7A848A8789807F868A82727228
:1058A0007C8588817F7B7879757B7C7D878C8987F7
:1058B0008C847475848179817E7C77768083828103
:1058C00083838988867F72767D829190756B6C73F5
:1058D000888D887872818F8E8787756E778790869E
:1058E0007E74707081897D7B7D848588908B7F6FCD
:1058F000728188877B74757A786E7B8989848287C8
:105900008C857E7C757A848F88736F6F7685857CB5
:105910007C80898D8A8B857D767680888C7B6F6D87
:105920006E7E81868585837D8789838087827F855A
:10593000847B72757579827E807F808D8E8A7E7E73
:10594000848286817772777F79818A79757E828673
:105950008A888987817B7984887D73767A7D818541
:10596000827A7E80888C8885818483847B74797434
:1059700079817F797980868F8F887F767C86848510
:10598000847D73757C777C7D7C7F7A808B94918518
:10599000807D7A7E7E7B7B787A6F7887867F7E7F3C
:1059A0007E888F8F827D7D80847F7772777B7A7F00
:1059B000807E7D7D8892928678797E89857F7D72D2
:1059C000726E7A8B888076798387888B8983837AD5
:1059D0008482727370777C808286837C83878E8CCE
:1059E000847E807F81867A74737780818079767CEB
:1059F000838E9391817A7E8488847A6C6F747A7EA8
:105A00007C808189897F828281878488847E7B747F
:105A10007C76747E7E7A7A8488828E90817C79808E
:105A20008584847A7474777E787D7D7D8B8D8A867B
:105A30007D808686807C81817B736E7882817F8386
:105A40008483848A8B817D878575737B7C77797A63
:105A50007B757C8E8A81848785817A7D84857F7B36
:105A600079787B7D7A737681888E9793897E71763B
:105A7000828A867B787B777A7C7777798587908C2A
:105A80008389817E797C817B7F7D78757780807D3D
:105A90007D8482888F8C887E837B787E7E7F747401
:105AA000817E7B7B8084818E8D89837C7B788386DD
:105AB0007D797577807F7D777B82818E918C877EE3
:105AC000787178827F807B727681887E7883838705
:105AD000918D83727A857C7C7D7D77737A847F79E2
:105AE0007E808790948A7F757780828D826D6E76B6
:105AF0007D7D83847C7E7E848A9091897C71797F90
:105B0000827D7A78787B80827B797D8B8E84858498
:105B10007E7C7A7C827F7775808E877672737484C0
:105B2000958D8A847D7D7C7D807F75777A7F878562
:105B3000857E797A85918C82787A8076747B7C8276
:105B400082857E717A797E95978675767E7D7E8355
:105B50007E787B7F7678867F7A7E8488868C8A8141
:105B60007B747576828F8272757D7E7F8082797874
:105B7000868F8C82837C76787A797F878073747D38
:105B8000878B86828285827E8184807A7B7C787B0B
:105B90007F8085817B7A7A8386858A857C7D7B7C04
:105BA0007B7A81897D797D767D868685827E8585F5
:105BB0007F837D79777882898A807673797F7A8608
:105BC0008D8B837A7C80817D79737F877F7D797AE5
:105BD0007E8A8E85817E827D818C877A70747A85BB
:105BE00088847C737D868B877C7C80807F848581A4
:105BF0007F74747776858A7F747581878B887D82C0
:105C00008683797083847A7C7C807E82837D7E81AA
:105C100080808B87827F7E827E777B827B7D7D7C8E
:105C20007F7F858285868284807D7E81837D7B7E69
:105C30007F7D797C808787817A818B8D8880796F61
:105C4000798D8A7F77707A82878A847F7674848D53
:105C50008D8C7E7075808389806E6E7889908E863B
:105C60007C76818D877F7E7A787E7E7F7A6D778164
:105C7000858281857B7D8789867F76757885857825
:105C80007E7F7B76768381828A868B898780777C0C
:105C900080807B798286817A797F7D828581858A01
:105CA000877B74808281817B7A7981827F7876821A
:105CB000888B8F8B7A70717D8486887A737D847FE0
:105CC0007A86887A7A8283838486837D7C797B81D5
:105CD00084837C7F837F7C808685808083888380AB
:105CE0007C6F7784837B7C7B7C7F7D8382818688CD
:105CF00082837E797E7A7D81858275707587928EAA
:105D0000817B7E808A89857E77797A7E888B7F7198
:105D10007077818A8A878183827E807D7B7479898E
:105D2000867B7973787E8187827D7F858781817488
:105D3000737E7F83797C8579737D888A8381827F76
:105D40008486837C73757E8786817D797C7E818560
:105D500088888787827F7C7F86837B7677767E853F
:105D60008184818287837D81898681807872768330
:105D70008A7E77797378868B8B828283828B8A7D09
:105D800071727F817F7E7F79747D8686828787802E
:105D900077798689857A727581837B797F8184831F
:105DA00083817B8389887D797C777E7C7D7E787A10
:105DB0007B808A8D857C7C8182868E85736B727BED
:105DC00084887F7B7B81827C7E838981868F8B81A7
:105DD0007172797C83807A7C7F7D7D89897D7B8AE5
:105DE00093908979787477827D7D7E7D7D788088B7
:105DF00082818589827F848187817B7C70747B7DB1
:105E0000817F81817E808988817E827F7E8183807F
:105E1000787870737F81837D7F828083888A85799B
:105E200078817C7576797E7D7E7E7C7C8387858A91
:105E30008582818081847D6F6E738387898375738A
:105E4000777E88908B8483817E7C7B81776F757B66
:105E5000868987807A7D838B8A8883787E85818016
:105E600079767A7D807B7B7D7F87878481848B8830
:105E7000827D7976767C807E7F807E7D787D888D40
:105E80008F847D7F848378787C7E807A797D7D7A2B
:105E90007A8186898C8A847F7B7E80787C797D80FC
:105EA0007F8478747F868A8885828187837F7874EF
:105EB000787C807E7F80787A817E7D818C8F807EE9
:105EC000837C7B7F82807A7A77787D848381817FEF
:105ED0008A8E89877F76757A837E7C797B7E787BD4
:105EE0008188878281848583807E828179737884AA
:105EF000827B7C7F7C7A81888A8A867E8287827791
:105F0000737A7C7F7C7B7D7C7A7C80868B888882A0
:105F10007E7B7B8176767F81827F77717D888986A3
:105F200083898C807B7F838579787E7D7D7B787F7C
:105F30007F7E8385858A867B818582827C76797A5D
:105F40007F81797C8185878481808085928B78733D
:105F50007A807F7872747F83838A81787B818B8F4C
:105F60008A837C77787C7F7D7C7B7A7E7E7D84874C
:105F700081878C858380767A827B77797C7C7E7C36
:105F8000797B868D86818286867F7A7C8181787313
:105F90007A7F818178758089898789858483837EEA
:105FA0007B7A79777A7B7B7F7E868079808788870A
:105FB000837D82817D7D7B73767F77798381848801
:105FC00084817F8185868282837B72787F807D7FDA
:105FD0007A78797B898E867D7F858D8A7A6E7074DA
:105FE0007A868B8477717581898F887B80848B8B8F
:105FF000817B7174777E878279757C82898D8681B9
:106000007F7D8387807E7A7677757D83867D747CBD
:10601000808C8983858484817C7B807F76767A7C82
:1060200089877B807C7E8784858C8B837A78777860
:1060300083827C787173868C808480818C8883864F
:106040007E7674787F8187857B6F7982848782846E
:106050008884838D81777A787D7B7E807B7D7B7A57
:106060007E838E8E807D838284857F7A6F7480822A
:106070007C78847D8088878983828080888A816D0E
:10608000687D83807F747981828885808086808323
:106090008F7E7775797D717781868380827C7F831F
:1060A000878A86818286837C777B7D787773798403
:1060B0008C8A7B7E8480858B8B847A75777E7D83CA
:1060C0008170717C808A8D817C7C7B8890837E78D6
:1060D0007B817B79797A767981898C827B7D8083DB
:1060E00087877F7D7B79807F7E78767A80858387BE
:1060F0007F7E8882858C867E78707783797C8281AA
:10610000807D7F82877F848B8383847D7A807B718F
:106110007D858281777A8787818182838583828268
:106120007E7A7A7B7C817A767D7A7B838887848687
:10613000818589807A777F807C7A787A7A7C7D877E
:106140008D837878848A8F8C7C75777C858379774A
:1061500079797A86898682777B82868B847C7C7A41
:106160007C84827A7F817D7A7C8086898280817F2F
:106170008581797E787381877D7E7E7F847A76863D
:106180008C87877D78817D7C837B7784807A807D16
:1061900084887D7B858683837979847E7D857A7505
:1061A0007C7F828585817D7B82858488847D7579ED
:1061B0007F817D777F79777F84877F7779848B8AEA
:1061C000867F787A7578807E7B7C807E7F7E858DE9
:1061D000847A7A7C85847F8C84787A7275837E76E3
:1061E0007F898E8A7F787F837F848484847A797E96
:1061F000827D787B838D82768088817C8485817F97
:106200007F828077757A80858583837B7980868598
:106210007D878278807F7B7B7B8184828181848182
:10622000837D7A8788897F767A767C86827D7C7882
:106230007E86807D817E818F897F8279767B7C8757
:106240008476797F7F7B7D868C867A7E83807E8252
:10625000868780777A76767F7B777F898D89787756
:1062600085867D7B7E8182777A7F78787F87847947
:10627000778C8C7679888A827979837F7A7F7E7928
:106280007B7A80888681817D7E8781807F787C8310
:106290007C7B81807E7978888480858685848481F2
:1062A0007670798084857E7876757B8B9089867F01
:1062B000767E8585867C787F7C7F7E7A7D79798500
:1062C0008B83837F7A89887D83807A7C7D808078C8
:1062D00076817F818A837D817E818989877F7472BF
:1062E0007B8283827A7D7F767E8A88827C79878DA5
:1062F00082807A73787F7F7F807B7D7A7F928A7DB0
:10630000777A848587878177737E857F7B76777FB1
:10631000868A8583817F7D8187837E7A7E7D797C75
:10632000827D737F8682848984797D828688817E5E
:106330008179777E7A777981878782807D777C8A79
:106340008E877E787D827B797A7A787A8187847C61
:1063500087897E7E85887F797F857F7A7C7D7A7A42
:106360008085837E8187847F8486807D807B7D801D
:106370007D7F78758289847F827F7D7D7B87877E24
:10638000807F827F7876747886888184817E7E8023
:10639000878B807A807C7B7E7B797F7B828D8685F4
:1063A0007D7479838A8F867A7C76728186807C740C
:1063B0007B8A8380827A8089867F827D757F7E7EDC
:1063C000857E7E807674838784807E8385837E7ECF
:1063D0007B82807A84827C78767C838788877E78CB
:1063E0007D7F8387807C7F7B7C89837B7C7A7F84B5
:1063F0007E7D857F7F888180817B808477778183A4
:10640000807E80807B7D807E858880797D8186828C
:106410007B7E81817F7C79777F877E818880777D95
:106420008384847D807F7378847F7B84837D7C8676
:106430008D7F6E7B8F837B80827A747B84817B826D
:10644000827B80887E7B7E7F877E7D8C836E778457
:1064500084867D7B7D797F817A818A837D82827E3D
:106460007A7A85827B87867A7B7A80857879878538
:10647000848F83777C7B7C84808081747B85818220
:10648000867D79817E84837B807E7D868985807808
:10649000777F8380837D77807F8389837A7D808304
:1064A000847D7D807B7E85878075717885888A87ED
:1064B0007F7B7A7D7E837F777C8182837F78797E04
:1064C000898A83828280797F83847D747B868382BC
:1064D000867B75797E7F8A8B857E73808E857B7CBB
:1064E00078767F7F7E837C7A808288857E7D8480BB
:1064F000798485817C7981797281847D80808283B1
:106500007D7F858483867C777F7A7C7C7A817D7BA6
:106510008886767B8485828083897D7980797D7F7A
:1065200078777C7C838A807B7C7E87898183827973
:106530007D817D817F717C837F87807B8584808660
:10654000867F807D7D837C757B7F7E84837F817B5E
:106550007D8584888C8480807A797C7D7C837C793D
:1065600084817D818280858688867D7D85807B7F14
:106570007B7B7D7A7982837C7F81848A8583878413
:106580007C7E807F7A777E7F777B8585847F7A8229
:106590008787887E7D807D817F7C76747B81848106
:1065A0007F817D808386877A7F85787B7F7A7A7901
:1065B0008085837B7D827E848881858580807B7DCC
:1065C000857D797C797A7B81878C87807D737E8ECF
:1065D0008883837B7C79757C7F7E7A7A7E858A86C8
:1065E00082817D8284858F85797A7C77767D8284AD
:1065F0007F7B81817F84857D7D858283837C7C76A2
:10660000787F7B7882817D828186867F8285818585
:1066100082787E7F7D7D7F7679868282827F81808F
:106620007C81817E817E7B7D7D757A7F80827D838A
:10663000877E7A7F848484817D7E7C7E80797D7E66
:106640007E8289887F7C767982828788817D7B7C47
:106650007F7D7B817B7A86827F7D7A7B8085868742
:106660007B777D7D838782817A767F848182807A41
:1066700080818085847C81827B817E7B7E7A7E8B1B
:10668000867F7E7C7F817A7F84787A828186857915
:10669000797D848A817E817C757D88888377778205
:1066A0008382807C7E7F7D7F8285877C757F837FF0
:1066B00082827F78767F807D858781817D7D817DE7
:1066C00082857C82847A77797C7F827B81837B83DD
:1066D000807E8583848280807D7E7E88857B7B72C0
:1066E000798D8F837B7E847D787E8C887A7F87838B
:1066F0007B7C8280758089827F807F7A8083807EA8
:106700007E81807B8386767782807B80807C7D80A3
:10671000827D7881827980868583787D847A808A7B
:1067200081777D7D83847B827D727F8A8684797484
:106730007D7E828A837B7E777B867D787E7B80846C
:106740007F848378777D7E86847D807D80827A7D5C
:1067500084817C7B7D81817C7F7E808B867A7E803C
:106760007C808180807C82897F7F8274767E7E853A
:10677000837D83817C888B877C727A83848B8B7A00
:1067800077807B7D878383827C817E7A8388828207
:1067900080797E817F7F7D7C84827C83827B7D8407
:1067A000827A7E8380817F84878083827C7B8683DC
:1067B0007A7B7D85877D7F81777D837E848B7E78E4
:1067C000797C868381847B767D7B7B817F84877FD8
:1067D00081807A8181787D848386857E817B7E88B5
:1067E00081818A877D76747B7E7E888A7F807F7EAA
:1067F000827D797B7D868A7E80827B7C8384827D9C
:106800007C8781788388828485837C727B7E787E96
:106810008177777F7D787A80817D7984857A7B7EA8
:106820007F8289877B757A827F7E86857C82898953
:10683000878782797B81867C7884837E84847F7E4F
:106840007E807E7C84867E8288807F827C7775775E
:106850007F7B748180798185807B78777A79808964
:106860007D7A817C7D8486827879827D757E807850
:106870007C7E7F857D7B7C76808A838287817D7A22
:106880007D878377797E7E857E737C8383827C7F20
:106890007D7176878C88877F7A7F7C7C7D7F8788F7
:1068A0007E82908A7D7D8485878485877F7A7C7CC3
:1068B0007F81797478817F8089877E7D87857E82DC
:1068C000857B7C807D7976818982848681797883D5
:1068D00089807A7C7E888C857D797B81817D888AA0
:1068E0007B8087808285817A6E77857D7B7C7272E2
:1068F0007D7E85837B82817781897D7D807B7E7CA7
:106900007C827877817F7C847E777F8186867B7AA4
:10691000817A7D847F8080767C857F84817A879070
:106920008887877F7F84888C847F857C7783817D3F
:10693000838384837C81857A7C7D7B7E7F7D7A7B6B
:1069400079807C7A86878483838182808084818336
:10695000867F7D8282817E7D80767885858181803B
:10696000807F81857F787D837F898B86847D848607
:106970007981918A807F7A7C7E7A7E7D7781867923
:106980007D827E7F7F85877D7E858180817A7B8009
:106990007D7D80808783798488807F848783797AEE
:1069A000857B798279777D797C7E7D868077888CFE
:1069B0007D84867D7B767C837D7E83807B7D7F7FEF
:1069C000827F87888288858585847E77797C7B79BC
:1069D0007E807D7C7977797F8B877B7F7D797D7EDB
:1069E0007B7A7E7F837E7982827C7B8087838081B5
:1069F0007B767D817D7E7C7F837E7E7F78808A7BB7
:106A00007B86807A7B7D83858283817C797B7E8493
:106A1000867E79787E8482817C7A7F797C887F7992
:106A200082807E858582807E8384848889817F8040
:106A30007E817D7B807F7D817A79858881827D7E64
:106A40008576737C7D7C7F7E7C7E7C797D81828176
:106A5000808684797A8585828181827D7E827F7B32
:106A60007F837F7E8583858682868484897F777A0B
:106A70007A7B81898683817A7C7C83877C7B828315
:106A800081817E7C7B7D86847A7D7D777980817D26
:106A9000787C867F7D857C7680837F7F82847F7A09
:106AA00084888486827E81818B88787F85797E8ABE
:106AB00088807A7F827C81897E737B86877F7E7CDB
:106AC000767882837C7A817D7D8A8B817A788081D9
:106AD0007A7F7F7579817E7C7F7E7C7A77848C81DA
:106AE00084847A8086837F7D81838281898B7F7F86
:106AF0008283858088887F8389837A817E79868076
:106B00007A7B767D7C77828275777E7A7D827E7CC9
:106B10007878807C79817E777D7D80817C8987779C
:106B200080827C808686807C7C83837C807776866E
:106B30008684847D7F7B748089817C7E798183805B
:106B40008D8177838281877F7880807E847C7D843D
:106B5000746E7D8681807C7C7E7981868485807D53
:106B6000797A81807B7C837F79817874807A7C8557
:106B7000828482787A837E7E7F75797E7E827E7E35
:106B800089837D8789878B827F837C8389838289C0
:106B9000847F81797F82808B887C7F818180797DF1
:106BA000827B808A7D787F7F86847D7E817F848AD8
:106BB000807E7D7A8482848A837C7D7E7C858680CB
:106BC000837C7D7D7B817D767381817B827E7C78F9
:106BD0007A828480797F7874827F797A797F7E7DEA
:106BE000858A80868C80858A8D8C7E848F857B8447
:106BF00081777E7F838379838B7C808A8380818089
:106C0000837C7B827C7A7D7877847D797B75867FB7
:106C10007384847A7D7F7E7E7A7D8278757F7977B2
:106C20007E7D7D80767B80727E8178807E7F828093
:106C3000828384828C887B84878487858A857D8112
:106C400085827E83827D7D80847D787B7E80818449
:106C5000817B7B7B7E7F777779797C8482797F7E6D
:106C6000817F7C818180827E788081787A7B83813C
:106C70007680847B7A8487878581847A7987847912
:106C80007D817A7C808A8A7A7D8A858286828283E7
:106C900082867E7983817B80857B7B818583787EFC
:106CA000847D7885897D7B7D827977827E7A7D86F9
:106CB000807C8588817D808386807C837F7D8683C0
:106CC0007D7F7F7D7E7E81807C7E837B7E847B78E2
:106CD000737584837E8780787F808687817E847FBA
:106CE0007B817D82837E7C7C8183847E8084858A97
:106CF0008686867E80867B777F7A81857E817F7996
:106D00007F878685807A808184877D8186797D8171
:106D10007E8078737E80757F8479787D7A7A7B77C0
:106D20007A74798A857D818281848184857F868752
:106D30008283887E787E7F85817E847C7984867D4F
:106D40008385807C787F7F7A757C7E777E7F7D7A75
:106D50007C82827E7A8283807F7D7F7F7B787B7D51
:106D600081807F808182817F7C7F7C80857F817B29
:106D70007C80818381807F838486858183868588EA
:106D80008A807B7C7F7F7A807D767980808183801A
:106D90007F7D808084838183787E858281818680E7
:106DA0007A7C868B807F807E7F8081827E7D7D7BEA
:106DB0007C86857A7C7B7A7D7D837C77747B7B7512
:106DC000827E777B7A85847C85857B7F8F8E8488A5
:106DD00083807B7C908679827D7B8185807E7981B2
:106DE0008E7F7F897F7B83848181787C7D727F88A1
:106DF0007D7D807D837F7A84827E88857D88817891
:106E00007A7B848B8482827A7D8181827D7F807C83
:106E10007C7F7E77787A7F7E7F8882797F80808092
:106E20007B81807E848178757D7A777B807F757D9C
:106E30008987828285827C828E8D8482807C828812
:106E40008885828282838386867C787B7E7B7E8136
:106E500076737C838179767F77727E8074727A7B99
:106E60007F7B7C7D767983817B8184858488918A10
:106E70007F858C868689827E7D80827E83887D79EF
:106E800080807D7C7C817D7B87897C7778787C7D28
:106E9000838278797D7D8085817C7C8085837F81FC
:106EA000817E808286858081837F7E8181827E7DD6
:106EB0007F7C7C7F7E82857E807C787D7B7D8786E3
:106EC0007F7E7D817D7B7F7D7E7F7E7B7C7D7C7CEC
:106ED0007B7F8785817F7E807F8084868580817EA1
:106EE0007F828284818489847D7E80828281838680
:106EF0007F81857E80827D7C7C7C807E7D817774B5
:106F00007C7B79797B817A787F7E797D837E7D7EBB
:106F1000888D84848280848988847D7A82837E843B
:106F2000867F818686877B787E7478827C7B7D7580
:106F3000727876767875787E7A7F88858480828785
:106F40008487858085898D8F837F838381818482F7
:106F5000818080837F7D7D7F7A73757574777B797F
:106F6000777B7C7F7F81837F7D7F827E858A837D27
:106F70007880888587867D818784858783868682D9
:106F80008C867C80807D7E7F84887F7D7E797C83FB
:106F9000817D7673787C7D8681758087827F787924
:106FA0007E7A787E78717D857D746D707670757E61
:106FB000757A827D80828284888A8A85838C8D8C92
:106FC000908C888E8F8E918B89938B8389807E8520
:106FD00080817A7475726D6F767470707174757566
:106FE0007B7B7A787978767981817D8383838D88BC
:106FF000858982888B87868B878180797979747877
:107000007A7E84807676807F80817D827F7A7F81A0
:10701000828382878A8B8983878886868B8F898AF9
:107020008A8C908D857E787680848487837F817E2C
:1070300082827B7B7A7976797C80827F888A81855F
:107040008D8887888D8A7C7A7872716B625C5C5AD5
:1070500060616A6B6F6D6E876B7896637BA88D89B4
:107060007B5F4E4557799DA5B8D1D2DBE5E9E4E5D4
:10707000DEDBD2BDBFB5A4969195857168584E549C
:107080004D474A42352E21161D19161B14171F187D
:107090001B23232A33393D414E58555D75807F8827
:1070A000959DA4AABAC3BACBD6CDDAE1E5E9E0E66C
:1070B000EDDEDDE1DCE2DFDBDACFC7C9C8BFBEBA97
:1070C000A8AAAC9B928C908C75696A615B595459E3
:1070D0004F4B524B4A52564B44464541414C544A01
:1070E00049514D494C51534C4B5753454A554E4FBE
:1070F0005651474959554F545B655F64726E666BD4
:107100006D6A6B7486878491928A95A099989FA8DE
:10711000ABA8ADB2AAA7B3B8B3ABACB1AFADB6AF85
:10712000A6B4B8B6B0B0B8B1A5A4AAA19BA09E98C9
:1071300093A2A39798948E8A848E8E807C827D6A97
:10714000726F5C646663615D63675A5B635E606017
:107150005F5E5B5F5F575C65676766686B666C79EF
:107160007E76717C767D89817D76737A797D888063
:107170007075817D7C81878C888A8E858C968F93B3
:10718000A1A4A4A6A7ABA8A0ABB2A5A8B0AFB0AB72
:10719000A89F9097A19695978B81807B7D766C8335
:1071A0008371767874706E788477757E72767D7769
:1071B000776F717565696D58576264625C5C605386
:1071C0004E5A5D57555857545152574E535B4D4B7D
:1071D0005B625B5962635B5A666D66666B6D6A7172
:1071E0007773737B7C7B7F8386818292988F909C60
:1071F000A5A8BAC6BBBBC0C5C8D3DDDDDBDAE4E9F0
:10720000E6E2E3DCD0D1D2CABDB5B1A6A2A89B8785
:10721000807B7873736F5E515056514946423637C2
:107220004340302D36312F3232302D313539313324
:107230003C39464E4C4E4C545A5D66696B6D7880B5
:107240008493989CA8AFB9B8B7C6CFD2D9E0E0D4A0
:10725000CFD1D7D7D4D4C7BEBAB3AEA49894918BAC
:1072600091877979786F686D6560656A70736E6C07
:107270006C69767C757277807675847B6A686F71CD
:107280006A696C6755575F544E52514C50524E4389
:10729000405058525D6764656F7A7778859398A4FB
:1072A000AEABA7AFBBC1BDBCC3BAB3C0C6BDBABA53
:1072B000B7B8B3B2A99A9D9F94939B988C7F8A94F8
:1072C0008275787670757D73636168655E5F6255FF
:1072D0004B535A594A454C43415151474843454BFA
:1072E000474A4E505D6D6E68797E7D8F969B979E66
:1072F000AFBBBEBCC0BDB3BED4CABCBEBAB1B9BFC1
:10730000B8A699A5A89E9A928882828D8A73787A67
:1073100070787D7B676369676763665C525A5A5F02
:10732000584B51504F5C5C4A4F544F525457524E39
:10733000555F5F5D5E626C7A858A848193989BA8B5
:10734000AAABAEB9C3BFB3B9BCB4C2C7B6B0ABAADF
:10735000B0A9A6AA9E97A29F988D858980858A83C9
:107360007D7C7D706E736A646B6E69625F61575776
:107370005F5F5644484A454A4E47343B5A5A424951
:10738000575058625F656069807E88918F8F97A79C
:10739000A9A8A7BBC1B2C0C2B7B7C3C2BDBAB1AC7E
:1073A0009FA4AD9A8F8E8E8A827F7E6F6576766976
:1073B0006D6E6C696D756C5F6275766E76756B69F6
:1073C000798277747D786D7779726E64757B6F7270
:1073D0006D6262706E635F5E6A6D727F726B757FE5
:1073E00088898A8B95A1A5A89597AEAEAFB7ACA0BA
:1073F000A1A7AFA4A0A59F9E9CA598848A82888AF5
:1074000083857C7981857D726B66666D736B606147
:1074100065625B6360585C5555534A4C4E525450FC
:10742000494C585555575A63646B7475707D9291E9
:1074300094979EA4A9B5B7B3B4BFC5C4C7C9C7BE06
:10744000C0CCC4B8B1B1B1B2B0A59D9393988E87AA
:107450007D7274838472706968645F6B6051555F7C
:107460005C4D4B504D4F5C5949494F4D46474B4F32
:107470004E515F59494F53535A6065626D7E867F06
:1074800083918C92A1ADAEA8B8C6C3BAC1C3BBC725
:10749000D3C7B6B9BDBDB4ACB7A698A5A297868B25
:1074A000917F7A7B7C6E768972686968665F6665B3
:1074B0005F50607156515D5B505A6557443E50595C
:1074C0005352544B45565B534F525B5A637474741A
:1074D000818F8A8591A1A49FB3B8B0B3B9C0BAC156
:1074E000C7BEBEB7C3BAA4AEB5AEA0A2A2948D94D7
:1074F000947D75838C827C827C7C7A83836C6D79AD
:10750000796F7070676A70746659656662656054F9
:107510004A545F605853544952615B4C495A6468FD
:107520006976796E838D8B8E8D959DA7AFAA9DA66A
:10753000C0BDB5B4B5B5AEB1B6AC9FA6ACA09D9973
:107540009190898F8D747783808085817A75747F1F
:1075500077686E76716F6F68676568685F5A5B5DA4
:10756000575C5D4C4C545253515653535858605AC3
:107570006275777C868B89909FA19C9EADB5B8BDC6
:10758000BCBDB7B8C4C3BBB2ADA9A7ABA59D96910E
:1075900090887F7A757379756C676269706F6B65B7
:1075A000626168686055505D636767615D5F6766CB
:1075B000605957606665665D585E62676460666DB7
:1075C000787F7C7D879196969F9E98A0AEB9AFA656
:1075D000ABB7BABCBDB7B3B4B7B8B4A69DA3A2A2AB
:1075E000A4978A8C898D8D80797E807B817B74774E
:1075F00074726862696E68606159555E5E5B544B77
:107600004D5254564B454E4E4C494749474C575E98
:107610004E4A61666B797A7E838F9E9D929EAFAB58
:10762000B2B8BABCBCC9CDCAC2C2C2B8BFBAB0AB8C
:10763000A6ABA09998918E90928A868182877E7E51
:1076400081766B7873656C686A69646B695F5D6F7E
:107650006C5A5F55585D59614D46525B514D564AC3
:107660004D586364545C72767582877F86959A96CE
:107670008E9BA6A1ACB9B4A8ACB4B5B3AFAFA8A467
:10768000AEAC9796988E8F95918683848D897B88F2
:107690008B7F85878272707C776E676D69656C6D94
:1076A0006A6460615A535A564C5258514A4851586C
:1076B00054565D564F62716B6977858586919794B4
:1076C00094A5B1ACADB5B2B4BFC2C0B5B7BDB7B487
:1076D000B0A8999FAD9B8F908A89858A8C736E7CA8
:1076E0007F77757C7263647173625C646462696BDA
:1076F00064626870645C635B5D6568624E4B585899
:10770000555B5C5456626664626A7B7A7F8C857FC7
:107710008A9DA19DA4ABACB5C2C2BEBCC1CAC2B752
:10772000BEB9ABB8BAA69D9FA2A1999892807D8F51
:10773000877673747B797677665A656D625B5A5784
:10774000565862614F535F5C5B544E5152595E52C2
:10775000484A4E5965615B595D737C7278828991A4
:1077600095968D8A98A9ABA9B0ADB6BFC2C9B6AB84
:10777000BBC3BCB6B1A49EA1A49F9291908A8883FA
:107780007E7772797D78746C6669737A6D63636BEA
:10779000706B6861616A6E6E61514D565F5F594AE8
:1077A000474E5D6356575354666462616274878BBB
:1077B0008382878A9B9A969E9DACB9B4B4B3B2B8C3
:1077C000C6C9B9B1AAABAFA7A39B93959CA2937F5F
:1077D0007D7E848479736F747D81716866636F7157
:1077E000685C606B6F6A6369645E625F5E53475793
:1077F0005D51504E4A55626462575464696B797C9E
:107800007C88949C9E91909EA0ACB4ADA9AFBEBE66
:10781000BBBAB8B3B3BDBCA79FA7A59E94928F85F2
:10782000898B81706B7775767D776D6E7B7A6B65F2
:10783000666B6F6B6B6661686E716B615F5A5C60E3
:1078400059514C535952515251555C5F59575D6DC6
:107850007C7D79787E8A939A928893A6AEAFB2AEF9
:10786000B2BEC7C7BDB6B5BDC2BCB4A6A3A9ACB4B1
:10787000A7928D8E8E89837B7F8782877D70716FC3
:10788000797064635E666D6B635C5F5D5B524B4CED
:1078900046515648423A3C474F4F4F4E4C5D695F08
:1078A0005D6773818C928C878B959F9C9FA7AAB2F2
:1078B000B6B9B5B4BFC6C7BEB5B2ADB2B4A69B9695
:1078C000A0A0938B7F75768480726B6E7A7C7674C1
:1078D00071666D7A7268646A756E6E74675D656AEA
:1078E0005F5957585B56534F4C5460615A595D5C11
:1078F000606C6F6A7387918B88919092999E9E9429
:10790000A3B3B3B3B3B5B5BAC2BFB0A7AEB1AAA261
:107910009D9A9A9B9B8E7F7F8684797A7D7B7980E6
:1079200085776B6B75756A65635F6B7A756457599C
:107930005C5A5951453E4B554D4343555A565B523F
:107940004B5A6D76756F788F989B9A8A8B9DA9ABF1
:10795000A6A6AAB8C1C6C4B1B3BEC4C1B0B1AFA7D0
:10796000ADAC9E8A8A929389726F706E7C7C746EC5
:107970006D77766F69676A6C726C5D5F6A7B7B6B33
:10798000645C5E6B6A5B4D4E535658514F4D4B5C79
:107990005F585354636A6F767A7E88918983919891
:1079A0009A9C9FA3A8B4BEC0B7AFB8C4C7C1B5ADB9
:1079B000AFB0AEA99F9D9E9993918274787B7B7C9A
:1079C0007478807573736D7072706B5C5E72746DB9
:1079D000635D5E65695A4A43495453554D414E5D56
:1079E000675D49525A637277737788969A918C943F
:1079F0009A9FA39C9AA6BAC6BBB1B3BAC1C4B7A793
:107A0000A3A3AFB0A19391979C9D8B77717B87883F
:107A1000767076727F84786F6D71726C64666D7645
:107A200075706A63686D6256524C5159574D495092
:107A30005C615A565456646B6C686E7F888D878380
:107A4000889192979B969FADAFB0B0AEB7C1BDB5D0
:107A5000ACA6ABB3B3A99B9BA2A39C94888385815E
:107A6000817A768182797874717A74706C5E6676C8
:107A70007069655F696C5D5245404F584F4E4336A3
:107A80004C53545448586565615D617081898F8697
:107A9000829CA79F9F9C9EB0BABFBBB0BBC9C2BB14
:107AA000B7AFB0B8B6AA9C95A4A69B958D867E82EA
:107AB000847467718180736A6C6F72807461656FA2
:107AC00077756E6B6E72787963535B5F5A55544E5F
:107AD0004A585F5852555B60646061656674807592
:107AE00077838E908A8C8F8D93A8A49BA9B7BBAD0A
:107AF000A2A9A8A3B1B1A49FA3A7A69F9F9F949753
:107B000096847B7E7D817976877E77817D72757C98
:107B10007B746A6C7775706F665D5C5F584E4E5013
:107B20004F4F524E4D525C615A4F556261687170B1
:107B300074828E938F919BA0A0A2AAA6ABBEC4B95B
:107B4000ABADB5B7B5B3ACA3A1AEAD9993979B9BC5
:107B500091857C71767A6E646B79767473706D6ED4
:107B600077736D6B6F7978716E655F6A6C564D5483
:107B7000555C5A55575255636559565B6366636940
:107B800071777F8A8B848F9A98949BA1A1A8B2B4B5
:107B9000AAA5B0BCB9ADAAAEACAEB2A89DA0A9A929
:107BA000A398959082807D767681817A78747778B3
:107BB00075756D676A70716667675D5D605C4F497A
:107BC0004E554F46494E4E555A5853555C5B595E7B
:107BD0006A7575798A8C8A9AA29E9BA2ABACABAF70
:107BE000B8B0AFB7B1B0B1AFACA9AAB0AFA2A1A4C1
:107BF0009B9C9B9487787678767073756F73777C8F
:107C000079727B7C7373736A6B76767068646D6867
:107C10005B5D5A53555C5B504D58635C595C5652E2
:107C20005A636368707E85848D8F8B8B9EA79C9E24
:107C3000A8AFACAAA9A6AAAEB4B1A4A7AEABA3A2A2
:107C4000A2A0A4A4A0907E7E847B737B7D797F8696
:107C5000847D7A81857C777A776B6B6D6B67696ED3
:107C60006353555C545457514F525859564C4E58C3
:107C700054585F5D616C7B7D838F949895969B9C37
:107C8000A2ABB0A7A4ADB1B1ADA7A7AAACB3AFA04A
:107C90009FA5A3A29F938C8A8683756A727C79774D
:107CA000757579848580756B7980786F6A62657780
:107CB00073685A546269665D57545A625D575252EE
:107CC0005D5D5A55555D6B7978797F8F9C9993905E
:107CD000959CA3AAA39DA7AEB6AFA6A8A8B3B5AE20
:107CE000A5A1A7AAA49F9D94908E877876787A7F85
:107CF0007775767F828386797174726E6D6A6A6A2F
:107D0000656467635A5C595253565C5A56565451CF
:107D100054575252575C65696B76828B979E999B3C
:107D2000A5A6A4A2A0A6A9ABADAEAEAFB5B2B0AAAF
:107D3000A7AEABA7A4958F9C9A8E8275737B79733F
:107D400074707480817976797B7F796E6D696F73D9
:107D50006B66656D6E6667615A5D64685A53565C02
:107D600060595451535F6661585F6F7B878A8D926B
:107D70009A9F9E978D96A6A6A09FA09FA6ADA9A507
:107D8000A8B0B6B0A6A3A4A3A5A19287858B8D8128
:107D900074757C838A837C7B8185807A706A686E47
:107DA0006F655E626D70695C56595F6160514C51E0
:107DB00055534C4748525A5C565564767E80858BA5
:107DC00097A2A3A097939BA9AEA7A7ADB0B2B5B059
:107DD000A9B1BAB6B1A7A1A49F9C9B8C86898A85BC
:107DE0007771737A7B7A7A72798988817D767471FA
:107DF000706E66697071706C626265636262615A0E
:107E00005C554E535155515454525B666C6E797E9D
:107E1000879494979C95939D9A949CA1A5ABA7AAAF
:107E2000AEA9AEB5B1AEADA7A6A59F9C9992919112
:107E30008682847F81817E7E7E8180817D7877705D
:107E40006C6E716B696B63646865635F5C5E615DDA
:107E5000585750494F53525555575C5C62676D7681
:107E60007E8891989AA09E93999C9CA3A5A4A6AD68
:107E7000AEB1B0AAB0B6B6B3ACA49B999792928BB0
:107E80008789837B7979767C7E777B818385817412
:107E90006C6C6E706E6567706E767064676D6C6426
:107EA000625C595B5253554E555A5754555A606D42
:107EB00075788084929B97918F94999B9B99959CC0
:107EC000A6AAA9A4A8AFB2AFACA9A8A7A095909064
:107ED00093988C8383808186827C7E848C8A837B4A
:107EE000767476776A63666A6A6B6E6B68686A67CF
:107EF000605C605E4E46484D4E515551525C646424
:107F0000616873818F95959092999D9A969CA0A493
:107F1000A4A8A8A7AFB3B2AEB1B8B5AFA6979496D0
:107F200099978D858287837D7D76747C84827E7C23
:107F30007C7C726F6F67676F7069676D7276726C49
:107F40006C6764645B4E4C58594C4C4F515B615E9E
:107F5000575C7077797E878F91938F8C8F949CA2DA
:107F60009CA1A9ADAFADB2AAA9B2B5ACA19F9B9996
:107F70009A99918F9499998A818087897E79777768
:107F80007A7A736E797B7272716F6F7378747677A9
:107F900074746C62605646474D473F444D544F528F
:107FA00062606D7B706B6D787E82807C838A8D933E
:107FB0009BA0A7AFB5AEB4C0BFBEB8B4AEABA598DA
:107FC0008F8A8D929495908B919393968E888D88BD
:107FD0007C7E75686B6E6B61656E6B6A6E6F7581AA
:107FE00083817E7168665D504D504F4C4E545253A4
:107FF0006066696E7174757E7D7A7E7F83878B86FD
:10800000859393939E9EA0ABB3B1ABB0B2ADAAA043
:10801000948D9197928D90959896939193938F9339
:108020008A797E807571726B646C76737172717807
:108030007A7B7B7669605D5549424447423F4D51AA
:10804000565F5A5F6D7C7E7973727C8281828589EE
:1080500089939B96979DAFB3B9C8C3BCB7B6A8A088
:10806000A590808D8B8488888C908C9097908E8B37
:1080700087878B888175636D746B6B6762606167DE
:10808000767C70707C827D78725B464752544A479A
:108090004A4C474B606268736F7E8F91918D8589E2
:1080A000999B97928C939A9DA7B8B5ABA6A7B1AEB2
:1080B000A8AAA69C989A958D8A8182828390938C97
:1080C00081797C8380817E75757C8479696B6A5E39
:1080D0005D74837E7A6D63676A706B625855625D0A
:1080E000534A454745576F7067635E647276747D87
:1080F0008C91A0A99B93959CA1A7B9C3C0B4A4A23D
:10810000A7ACA6A5A5979EACA087808D8C8693A5CD
:10811000A08A7A716C7174767B6D6273786C6C7006
:10812000675B6B858E87796D646D7166645F59617D
:1081300066594C51554F53606B6C70695C6773782E
:10814000848C83879C9E96939393919BB4BBB1A898
:108150009DA1AAA2A0AAA598A3AB9790969A918652
:10816000979E98917A73797A7878796E7884756D1C
:108170006E6C66626D7271786E5C5D64625D5F5696
:10818000505F625D5D59595656616C777063676FD9
:1081900071707E8B8C9CABA7A1A4AAA69EA5BAC128
:1081A000B39C8F949B9B9C988D95ACA99895959228
:1081B0008E8C989F9A8A756C727472747171757DC9
:1081C0007F7B716A6F717F89877A656068665652B6
:1081D000514B5364625754565B555A6E807B695FAE
:1081E00064696D797D7E859BAAA7A59EA2A4A0AC9B
:1081F000BAB9B1A69F9D989590929197A19F9C9195
:108200008E908B91A2A1948675737C796B706D6A48
:108210008289867E787874737C8C8A71605B5B5F00
:10822000585956495464675B4E53535261706F639B
:108230005F616472737480838EA5ADA89FA2A5A1AF
:10824000ABBBC3BAA69394A09D93938E8596AAA622
:108250009792979389919D93857667696B66696A12
:10826000616A818A81777172757C88878276666798
:108270006A60585653515B66645F5B5E57536A7A17
:108280007C735C5666706C6E77737F9EA49E9DA314
:10829000A8A8B1BCC0BCAC9D9B9E9D9C9E8D879D9B
:1082A000A8A8A095929198A2A59A8775707A7D6FDB
:1082B0006B6A646B777D736C73716D717D87846C91
:1082C000585F655D595341455A6862565459616417
:1082D000707B776C6161696F78848281889AA4A6CB
:1082E000A69F9E9FADBDBCB19C8E99A59F948F8C7F
:1082F0008D9AA1A29F989A989295A0A0876C6C786D
:108300007B78776E606A7E857C6F75767480867CFC
:108310006D5E585C5F595654464A555D6765615EAF
:108320005C6A80837463585C717A777D7D83949FE7
:10833000A4A1A0A9AEAEB6BCBCAD998B939C9694FB
:10834000897C7C8EA2A096979B9B9CA3A79681720A
:108350007475737B766C626A7D827B77756F7789C3
:10836000948A7662595F5E5B564B44484F56575627
:108370005755596A7C827E68565F748182817E81FE
:1083800091A3A99F9FAAB1B7BEC0BFAC9894999F73
:108390009C9F98807C909E9990958F8B9A9E9A87AF
:1083A000756C6E786F70726766707674747A7874B4
:1083B0007D8A8F86765C5360615E5B50494F5A6060
:1083C0005C595C626C6C747A7364555E6F758289FB
:1083D0007E7E8EA6ACA1A1AAB2B8C1BFB6A797995E
:1083E0009D969599938A8895A09C9F9F9897A2AAFD
:1083F000A490716570716E6E615A626F7570717A5A
:108400007D7A7D818888765B51535A60584B41450F
:10841000586258535966787F7D7D7767676D6A73B8
:10842000848B827C8596A1A3A5A7ABB4C4CDBDA146
:10843000959A9D9A97938C888C94938C97A29A92F4
:108440009BA6A492786A717A7C78655B657374697F
:10845000676D767C8082817F756257575E63584B6B
:108460004345546059515964737F807872676976C7
:1084700074737F8D8C88929A9DA4AAAAACB5C3C34D
:10848000AC928C999C959087848B90928D8B9BA9B4
:10849000A2989EA5A0957A676B747976685C6074E3
:1084A0007A706F757E888C857D796F5D564E4851E8
:1084B0004E4541444F585B5B5E66778588817166A7
:1084C000707D7E7E80888E9095999CA8B8B7B5BF48
:1084D000CACDC1A492999B9990847F7C8388818224
:1084E0008F999D9E9A9C9D8D776D6B6D706A5F567E
:1084F000596C70686A6F7A878E8A8781736C665D43
:108500005B59544B4449515558585C66778689826B
:108510007471787D7F7E8287898A8B8E9BA9B1B2A8
:10852000B3BAC1C6B99F949BA59D8C8282868E8F5B
:1085300089868FA1A4938C989E8B776F70757575C3
:1085400068565B6F786B66727D83878A83736A6C0B
:1085500066554E5450494242475162656466718681
:108560008E806D686F767C7C79828D9290929EAAC7
:10857000B6BBB7B9C2CCC2A29398A1A193867B73B4
:1085800081939085889DA8A19B9F9A867E7C706729
:108590006D72614B4F60696B6B72767F90988972D8
:1085A0006C6D6A605753504846464246556766654B
:1085B00074848F8A7B6D74868D837E7E828C918E8F
:1085C0008E96A2B4B6B0BAC0B8A89D9A9894979463
:1085D000807683908C8B92969AA2A6A192828184B7
:1085E0007A71757A6F606062626A71716B707C8695
:1085F0008472615E5E5B585149474D4A464E5760F2
:10860000686C707D8A8D7F7276878E90918B8A934D
:108610009F9F9DA7B2BBBAB6BDBCADA29990878AF9
:10862000948B787780848B91908F969CA19F8B7C84
:108630007B7B746B696964645F5A636D767B7B7A5C
:1086400083918F79675E5F61574E46404147494A43
:108650005665737A78828F8C847E7C7A8494938634
:10866000848C91999CA1A9B3BBC0C2BAB1ACA699A4
:108670009392918E8277737B888D8F8F9095A3A430
:1086800090807C7D7D78706A6364615A5F637183DA
:1086900080737C88847A685B5654575F503F3E4AAB
:1086A0005954535D6870757F807C7E78778489909B
:1086B000959597929299A8B1AAA9ABB3BDAE9E9990
:1086C0009694908F91908C878B8F8A9098988E86B5
:1086D0008E9C9279737273787771706C6966646638
:1086E0006866667381807B746C67635C61655948FA
:1086F0003F41403F53686A6A7A8A8F8E85818C93A6
:108700008C8D857A85857C879AA1AAB6B3B8C3C3B8
:10871000C0B5A99F9697937F747D878A8D8D90A011
:10872000A1A2AAA49C8C7F7B6D5D5F69665D585693
:108730005D737D78767B89937F63605B4D52574490
:108740003B44484D4F4E6078726B717783857F7CD8
:108750007E7D8D9B8E8E9596A5B1AAA4A6ABB1B257
:10876000AEA9A8A39D93878C9094958A828B9091B3
:1087700091857D889F98807474797B7D76747677F7
:108780006F636162727C73696E7A766D6955526748
:108790006D624B424952504E595E6975797A7A82C0
:1087A000929D989394979D968383929DAAA89F9A51
:1087B000A5BBC1BAACA09E9D9587777881817A745C
:1087C00077889D948A909FA89F8874706B767B644D
:1087D0005258606968616F818E8E8D827674675D94
:1087E000514C5151453D3E4054727D7A6F6E8A9294
:1087F0007F7B767885867D747A889EA6A5AFB2B396
:10880000B6B0A3A7BAB8A89A8D8E908E8F8A8D978E
:1088100092817E887D8699878086807A6E5C66826A
:108820008F8D7953566C636C765F5A718177635084
:10883000576F767D70474B6655485453556973643E
:108840006069708A99929B9F9EB3A18F9E9E96901D
:10885000A1A79E9A97A9B5A9B7AF94A7A28D8D8914
:1088600079697A8D8C8C82808995AAA68E949C7E5B
:108870006C655342536E65534856727A808C818280
:108880008E7258524E3D475A47322031586E828B75
:108890008296BAAA8A8181717998967E6A70869E3C
:1088A000ADB9BABDD0C3ADB1B9A48B9CA18B6F5784
:1088B000627D899A998DA4B29B8A8A796B84907B18
:1088C0005E4E637A7A746F667F987D6A69584F6FDF
:1088D000876F513A42666E6A6E636E87715B666F30
:1088E000595A6C63685E617C818BA6A8A8BEB29E53
:1088F000A8AD9289A1A49984809BACA8AFA898B296
:10890000B29A958D6C62888B7A69556D9198A29216
:108910007C9EAC968A866E526671624B3B5772653E
:108920006C79708C9978656C6852524C433C2C3F42
:108930005E606B786D809D978F99957E8997978DF6
:1089400071779396A0AF9FA7C9C5BFC9B7938B9DF9
:10895000A791675F7379808F7F85B2B59C8A8B8B77
:10896000858E9380544F727063695F64888E7A69D4
:10897000696B68737F775C4E5A5D535A5B506770C2
:1089800061626C705D5F7683786569767B91A0919A
:108990009EADABA4A4A9918FAEB4977C8BA9ABA3D9
:1089A000A18C9AC0C1A688837F8397947A625F7AEC
:1089B0008A8383737C9EA2907A7B70606E7263530D
:1089C0004E5C6154656F687E887667726B4A4B5F58
:1089D0005B4D3F496965696A5A779FA391908C7C8A
:1089E00093ACA8977A87B1B0A39D899DC0C3B0A668
:1089F000A4979BA39D8C73748C887B847A83A2A597
:108A00008B82968A818988816C647371636D655BE2
:108A10006E7C756C6D5650677C815D3E52686363F9
:108A20004C314B747C67655D556B86907D6A80A484
:108A3000A0A0987F94B4B49C9D9F9BAAAAA1928762
:108A40009CBCB3A09A8690A69D8581847D818F96DB
:108A50008F796C86929098776880918D7F7A5F5439
:108A60006F857E583E586A66705B4A657E7E6B5E97
:108A70005556636B6A503B5A796F6D584F76919B90
:108A80008C818890A0ACAEA1909FB4ACB0A88E9021
:108A90009DA8A7A9A58E90A5B7AC826D7D8694955B
:108AA00073687C8F867C7D73738BA2946A556B7C14
:108AB0007B725951668783635B575F7D9087604700
:108AC0005A6D625A4A38476971636A6B66718B9E48
:108AD0008F75809191999887829AABA4ABA896994B
:108AE000B4C4B3938EA3ACAAA085738BA18B8082F0
:108AF000747B98ACA075618298948F70576F928543
:108B0000706A565C7989855F475C655C6258495B31
:108B1000797163685C4F5E737E6C4E5D6D676F6AE2
:108B200059668D958E99938894A9C0B99296A9A5F6
:108B3000ADA9877A93A5A2A6A59090AAC1B88B7774
:108B400088939F9A77616F827C80836F708EA098E4
:108B5000715C71777C7C6349516C695D5D57556DC3
:108B60008B8B5F47606C6A674D39436068616C72DC
:108B700071778CA192818D9296A096878091A1A603
:108B8000B0B3A9A1B5C5B69C99A1A1AAA2846C72E3
:108B900083868F93807796B5AB83717F8E9D977612
:108BA00053597575706B5E607792916B535E656417
:108BB00061503D4358574E5458535D757E6E626DFB
:108BC0006E72796E656A8089899CA6989CB9CBC0C3
:108BD000ACA7A5A1A6A68D71778B92A4AB968BA00E
:108BE000BDB9917F868A939079605E717379877E33
:108BF0007F91A09A7B6F777C7F765D4347605D5560
:108C00005A555B7185866A58666B66625843435C49
:108C10005E5D6E74717386A6A18B9292909A9E90FF
:108C20007E8795A3B4B6ADA6AFC2BEA39B9FA0A0FE
:108C30009B8166707C828E8E838598B2AF836C74C4
:108C40007E888C6E474E646B716D69727B939D78E4
:108C50005F6666626960433E494E5150535A647F75
:108C60009179626C7A7F7E7468667982818B98A034
:108C7000A7BED0C0ADB0B3ACABA58D7677858C94D4
:108C8000A2A3969AB5B5988E8B888C8E81665B610F
:108C9000697884827C839BA188797471767C6C432B
:108CA000394C4E4D54504F628393735B616B6F6AC6
:108CB0006047405664676D6E6E7797B6A897999F28
:108CC000A8A49D8B7A8E9C969DA3A2A0ABBDB3A4B5
:108CD000A5A4A09895866B6F7A768295978F96AFAC
:108CE000AF907E7E81817F6E4E46535B6872757257
:108CF000728D9B856C5D5C60685F40313640515F72
:108D0000635F62819B8A787A7A7C8680645A6B7D05
:108D1000868D99A0A1BAD3C3AEADB7BBB6A88771F3
:108D200075828A8F9898949AADAA928A93928A872C
:108D3000766761595868808E89808E958B89847793
:108D40006D716A55474545485B675F59758A7C6711
:108D50005E5D5D696B513A40566D7A71717997BB72
:108D6000B49E959CA9B5B0918289919A9EA2A29B2E
:108D7000A8BDB09EA0A6A39C96847172736C7587E3
:108D8000999693A49F8A8389857D807660524A5301
:108D9000646D7C7D708695837162585A65604A3730
:108DA0002A344C5965616181958D857E7C7E8480F5
:108DB0006C626770788399A09DB5CCC5B8B4B7B321
:108DC000B1A9917A727E858892958D9BB4AD9F945E
:108DD00093959291836D5A595C627078757D8F94EA
:108DE0008F857F7D78766E5B4C4B423E4E5D62692F
:108DF0007F86776B6A6E696662544B50535A687708
:108E00007B7D97B3B8AA9B9D9FA7AA9A887F848EE3
:108E100097A0A29AA4BDBEAD9F9B96979B8E796D9D
:108E20006C717B838D8891A9A28F808386858471E4
:108E30005B54565C5C6070727386897867615E59BA
:108E40005B584C433A3B445069706B809294938FCB
:108E5000867F86887F7770727885A3A8A1B2C5C9FE
:108E6000C0B7B1A7A7A590766F767F8081868597DA
:108E7000B3B59E91989898947F6A615F63636469C3
:108E80006D768991867E7B76787968585750433A1B
:108E9000435861616F78716F7972646869655E517A
:108EA000575E607985859AAFB1A9A6A0A6B2ACA19C
:108EB0008C848D8D949EA59CA5B7BDBCA79A9497D4
:108EC0009783736F69696E818D8187A0A38F82827A
:108ED0008282756C65596265575C6F6E7B8C8A8087
:108EE0006D63645B5857493E3A424952606A7884E0
:108EF0008D8F8E8979747E7F7D82827A7787ADB8F7
:108F0000AAB3C2CAC7B4A69D98978F7D767D7D858A
:108F100096948F94A4B19C8C8F9194978B75686272
:108F20006C7272706A727F88806F696C7A7C6D6413
:108F30006261564A4D51515A5F635F626A69636468
:108F40007271787E766F6B7D8B888998A9A4A1A5B4
:108F5000A99E9595968D84838393968A8D98A4A5D2
:108F60009EA3A1A6B2A08573646870797972798E88
:108F70009A8B8D918AA1A7928266555344475C5E75
:108F8000617B8983766A7887827B745F595E45410D
:108F90004E4F5F74899794979B9CA19482848879A3
:108FA0007580878177879FA5A6B0B1A69A8F836DBC
:108FB0005E5E615A667B7C737E98989B9E9F948CC4
:108FC0008D7A6B5D5F5E7689797F959F9C9D8B7DA9
:108FD000939983776556574F697E676B8BA1A48FF2
:108FE00075817F7F88807D6F6E778180757D8FA58D
:108FF000AD9DA19A8977726C5E6D8B9A787D928116
:10900000808F6F564E43565F696F85938F7E616D7B
:109010007A82848BB3AF9FC0C3A6918477463A51BE
:10902000556C7C9D9D828D84775D47668581899E88
:109030009B9B8F8E8F6B6A6676A49FAAA492A07F5B
:109040006B5E576A687E8E87846E839D918A82806C
:109050008A877C77759D9B8B936A4A333A5E6F95BE
:109060009F97A496815D53534C729C9994A19680CE
:1090700074808C85939682766A7F9289938E7C53D6
:109080003D6C8287A1C2AA827D7C877874796468EE
:10909000757388A9ACB3B26D33355F899699ADA06D
:1090A00072694C456E86A7D2B56C49588C9C96A4C3
:1090B000A471442D2B536EA4E1CE9A6244657D7356
:1090C000818D7F654545668898BECB9654467FACBA
:1090D000B3BEBC8A624A314872889FAF9F74546D98
:1090E00095A2C0C2A37C5737314D6BA9BAA27E5955
:1090F0006884858CAFAC9E945B364355759D9F818B
:10910000606A8698B5BDB9A3895C313F526AA1B245
:10911000874B3B5F7C8DA2ADA69568444B6584A4CC
:10912000BB986047667E8BC3C3A09E8A523C4C6747
:10913000A1B4985E405A779AAEB29F826F55576F2E
:109140007EA6BFAC7A5859677E9DADA29C7B4F44EA
:109150005A8091B1B97D515B636E828E9D9E9A70EB
:1091600051656D7DA2BE945C606A6B819294908122
:109170006E564F6796C2C2965D4955627A9BA18E24
:10918000987E575D5F83C2EBCF7D4F505F648097C1
:10919000908F7A53495B74ACDED19D6D5B6A726FC0
:1091A000828481826051646680B1C3A77058738FD6
:1091B000898D8F827551405E6A83AEB4A18C7E81A9
:1091C000888E9A917E8060303D5C80ADB5AA8367C1
:1091D0008A958999A28C8874453D567EA3B6A57B55
:1091E00067768B8B95A190917B4947526987ACC577
:1091F0009C636284878BA19D92754B39404E699820
:10920000B5A47B6C8080849C7D83925D4C57657790
:109210009CC6B68876817B8FAE9981745D4E535B18
:109220006D88A0A3877C80757DA2A6A4A37A4B40FD
:10923000535D739DAE9282999A939593939B8C689C
:109240005C5045557E9578678498979A90838E9266
:10925000796A675F6B879B8F6456647A939B8E8273
:10926000857A6E66677F99ACA3807169657C9499F5
:10927000958E8068656C7291A9A1816B7288939CB0
:109280009479796B596B7B7E96AEA586635D7C8302
:109290008FA7947C63494D64778CB4C4A2766671C1
:1092A0006F72878A8B8F79584E596E8EA8A48B75F2
:1092B000736D7A937A808F7C6C555D6782A8AF94CA
:1092C000737A77779593858B7E5F5A606C87B6CE7D
:1092D000AD82736F6B909B8C937A5F5F6A6E7697AB
:1092E000BAAC8683806C75786F7E7667676B7273B5
:1092F000829D99868A8B7B8F9771727C61525E6C9E
:109300007A84949B84889A8F93977E7B8469474163
:10931000495776A2AF98848B8E8895928C978D77DB
:109320006F6665759AB18F75818185938A8B9380FD
:109330006D696B686F94AA8D6F6C6F799BA48E8D2D
:109340008364575B656E89A199877978717A898979
:109350008E8F7C5C4E515C769BAB9D949286847A1A
:109360006C747C796D7274667A979E8E84938D800E
:10937000878A8E948169646262769C9A7D747A850C
:109380008C979892959C82544B4C5C80A4A79191A9
:109390008B858D7F787A7F7F6F645B5D7186806F50
:1093A0007681798C97817E847F84868581869A9266
:1093B00074646B6F778B8C98A282686C696980A3E8
:1093C000AE8673827C727D80829A95816C5C6371BB
:1093D0008B9C978B92867D89756C7F856D5F656EA2
:1093E0008092A29480848781877B6D889284756047
:1093F000535F83A09A78787A6E8180788FA0958465
:109400007767545A869C8384938986848085877F76
:109410007D7F776F758A9B9081817A858D7F80892A
:10942000806D6877818394A494827B747878737953
:109430008B96857576787B8B9B88797D797775732C
:109440006E717E82706E756B78959883818C99921F
:109450007D7776787368635F5E749FA98A80878161
:10946000878B87838A8D796D6A686B849F978A7EE4
:10947000777B8B8D8797A4948184746473878070C5
:10948000747270828A85848A8170747672809587FE
:1094900071746F6970787D89958976787E7B8AA3EF
:1094A0009A818587766F675D687C7E77797C757C2D
:1094B000979780848C8A8E8A756E8694828089893B
:1094C00089929C83767E7986988E818D8B72646278
:1094D00065687C958F8287807F87857E868C777292
:1094E000756C6C7B8B80797E7872757B77849383C7
:1094F0007B8A8D817F897F676C6F707C7D83929F73
:109500009377717E7E8296928580746A777B6E7582
:109510008E9A8574767F8093A199978A88897C62D8
:109520005F757B747282857F959F897F808187823A
:1095300081776F7871686B71707A8D8579737381BB
:109540008A8A8D939D9075757768677B7D7170753C
:109550007F848286898E90827E8B8780807B7376E3
:10956000787580868080968E73738B9A919FA17E8A
:10957000655F636568708193998E8383828697A205
:109580008A7578746A6C7370818D8277797C758244
:109590009592827A7C81827A6A686F68687A878617
:1095A0008FA3988780767178898486918C746E8574
:1095B00087869396897D7A71727779859B9A857D66
:1095C0008072677D837679828378797B7F8B928BBB
:1095D00085939293948873666561696E6D6F7F8ED3
:1095E00083707F8F8CA1A6938275655D6463646DC3
:1095F0007C80717C91949AA59F94877A7C7F716717
:109600006C707872778D8B8D9C9B8A838080888A22
:109610008E8E8975615E69757B91948D8C7F747374
:10962000777A808A8B7A6B71747383948A7E78756B
:10963000757275758093948483928C8B8779736728
:10964000646C757C757D8C84727689858DA39A880F
:10965000716A73767B7D838789828289818CA5A4D8
:1096600091847A6A69706A6979847B7B9196909813
:109670009D967E73747681827A767366636E737F4D
:10968000878A8D8B7D706D7C8A838895886B6C73DF
:10969000758486867B756F7484828590A0958080A2
:1096A00080777B8D8370686B6B72807D828B938CEF
:1096B000898D8C99A4A18C705250697772748C9B9F
:1096C0009A979C8F8A9C9D90765B49586966696AD7
:1096D0007878747E878A97A19C9F836C6F7D7B6C62
:1096E0006C71786A7D8E8795A3A08977666C747B90
:1096F000827A7C7B6E6C7F8495A49A937E716D795F
:109700007F7D7F85978A868B868B93928371595C48
:109710007480797281918779817E818F9A8F726549
:1097200059606A706D6E888B868A9BA5A9AFA281ED
:109730005D4C4A5F6C7079807A6F777C8B9EB7B88E
:10974000A4947C6F6D6A5C5D6E797C82929DA9ACFD
:10975000A187807D6F7E847C79807D574158747DA0
:1097600098AFA6988E7E7B7A6C7180918568646EC6
:10977000828F937D6D695D79877A7A8DA28F70680B
:10978000747C8FA18E7F79686A757F857E7D767007
:10979000749AA8ADB1949E835B454B5D74A1989675
:1097A0007482B19A85717A77999786896780776E86
:1097B0005A495E86B7A7BCA6938C57453A4E588B3C
:1097C00098888572896C6C7C7A819BA36E83858D69
:1097D0008D717B70646A9F9A9CAC8D8C654A4D53E9
:1097E000507BACA1BAA2877E5F708B836F8A695A67
:1097F0009192988B77777C7492BC9AA4A38D8056B3
:1098000041525643839E96AB98958E8188A6867664
:109810008B505164595A636A7D8E78A7AC95B2AC6F
:10982000998066506853508B7B797D7A7B848DA3B9
:10983000AA738B927B8C8B807B7B656C565B9FAF16
:10984000B7AD967E68576B744D759D91858081820A
:1098500085899F806C84776F777C7D9295897A5F0C
:109860007D9DA9A59483715F52604A5592A4927917
:10987000777E99AAAA8E6779807A69565C7A8F84F6
:109880007C58639DBBBF9B7F7C8677735C305C920A
:109890009D8473748DACA89A6B698E978D715B6093
:1098A0008D8F775C4474ACB49480798498927D4AAF
:1098B0004B86A48C67575C89A7A176506C949F8DCA
:1098C000776986AAAA935B4D80AA9D785F57707DC1
:1098D000856C44669BA592877B92B4B29E63455E7D
:1098E000716F73757DA6ADA480526B9FA895927B16
:1098F00075786C683C3B79A18F7F8088AFB7B18F5A
:109900005D5F7E7E69686180978E80584E7CB2A6CE
:109910008F807888888F76546396A5816D65829E46
:10992000ABA16E52617C756B667EA4A8A6825A5E5E
:10993000899C89837D878287885B4E73978B838818
:1099400092AAA7A5865C505D6E696A759CADA49BC2
:109950007B6E82A5988580787761624C3A527790C9
:1099600081858BADBEB0A6816F616C6655546D97D5
:10997000919079616E93A58E8D8493959289564FBF
:109980005F7C71646981B1B4BA9F7A636C7F716DD9
:10999000729999918A655A6383878B868890828DA4
:1099A0007A6B6D808F85837E9B9C938B6B554C5F10
:1099B000676C7794AE9F967D6B768B91848481885B
:1099C00078706C555B6E867A6F7C9BB8AEB5A28260
:1099D000665D6A5D5B73A6B1A798746D728C8D81AC
:1099E0007C8A9B8B8E684B4F657B6F737EADB8B264
:1099F000A87C6558717C797689A1919377594E65D9
:109A00007F7D807689848A91746D748A7E7877836D
:109A10009A949F90735257695F6777A3A39C9C8A1F
:109A20007D7586796F696E797D8D7F7B818D8C7A6E
:109A30007982ACBAB49E7658465557555D86ACAA25
:109A4000AA8C767688948D8C81847E7E7051505C51
:109A500071757F7C8AACAFB39E7F646976696366FB
:109A60008B9997917F737187847F716A7D838779E2
:109A70007B7777807B7B7996A19FA2937A5D6766DF
:109A8000656A87A3A0A995816E74776A6D6A8385DC
:109A90008888746D6B817E7B80A1BCAAA68C694C82
:109AA000575D52596D9898979783767F978E8C79EA
:109AB0006F76727C736C6C8083787C7D9398A2A7A0
:109AC0008F746D77655E5E71898F998579829793C2
:109AD0008784747A808F8F7A6E6E736867667A9CDB
:109AE000A7B1A2896D63656B77819FA8A192786DFC
:109AF0006A71717669687F7F7E767A7E81898D88CA
:109B00007B96A0958F7E6A5E6C6F6E6B7E9A97983F
:109B10008C828491938579636C75797A716E7A926F
:109B20008C807688A0A1ADA888686A6B5D5B647C38
:109B300088989B867A81867A7B7579858F998A73D6
:109B40006B74746F6E758B94A0A37F5D606B6A7A83
:109B5000858A909298846E77827B8187736F757BFC
:109B6000807675858E83807E7D898D9690776C73E7
:109B70007273807B8A9FA2978A8B8A8376745F53E5
:109B800067787E7D80828D8C817B7A91A5AA9E8567
:109B9000695D645F6064748B959288837E878E8B29
:109BA0007E71787A7978736B73888A8177899A94D1
:109BB000938C706276807A7273888E8A8883767DC1
:109BC00089898A807A8282848C88838E8879727A65
:109BD000898786887A6267746E6F7A8A908F918F90
:109BE000898C9281766F666C7273747073888F81C2
:109BF0007C8293A09B95866864746F6B767B859559
:109C0000928276788687878C7D6970766E70778190
:109C10008F887F8287949998908171737872747419
:109C20007A888B7F787E7C7F888F82747D80777A3C
:109C3000867D7C878680809092847D8171616E793B
:109C40007D7C889D9D857C7E6E6D7F8980737C8602
:109C500079747F76718B9888828E958C7D81765908
:109C6000627D7A717786948F8E9686788B978671CF
:109C70006972726F7E7C6C7184837B8593989494F7
:109C80008F776A757B7578828C8B7C797468738129
:109C900088897D7A81818084797687857D868B8BA2
:109CA0008C86847A6870787A818C95988E787575B0
:109CB000727F837F77757A81807D82848E95938889
:109CC00080838B8C7D7569666E6F757E87949E919F
:109CD000837E7B7C7F8680797D84877B76716E76C0
:109CE0007E84878D9192897F755E5965727C848EA2
:109CF000989382808378788684787580877A787C58
:109D0000737482857F80848B888085827678818554
:109D1000878C8E8C7C76857C727E806D697D837F5E
:109D200080908D828C8D7D788A938E84837A5F5823
:109D3000656F72849BA0938490876D71827C71782B
:109D40007977737F88787B8A89868F94928C8787CE
:109D5000715B67767E8487887F7178816F6C7E8582
:109D60008A95938684868D8A8589847D7F84808583
:109D70008A8F8B767275767C808D958D8C908772AC
:109D80005C58595760677A82818D9390807B868B6F
:109D90008B8F93887E79746D77888C8E8F968E7D6D
:109DA0007B786A6A83807E807F7F6D707C76656752
:109DB000757D87919C9188999381808787827D8624
:109DC00086717F91857E8C94817B78847881B49232
:109DD0007A766D6D5D545A65647A7F696272868B9E
:109DE000969FA995909C857168757D838884868AE5
:109DF000948C7D79746D77729693648587766860AC
:109E00006E6E616C86797687827E837E7B7F8687A5
:109E100085919E9A948A7F767884837E8C99959298
:109E20009A8F88998085846F776F6D695848544EF2
:109E30005056668FA6AAACB1A3928F999785838757
:109E400084735E5A5D667D8C94999A9C86A6A679E9
:109E5000887C7E6F566F7B6A6B6C60554F636E6D4E
:109E6000839A9AA0A39D958B898D8677736E6D7862
:109E7000868F8D94888276739D838EA6958969607E
:109E8000543D3A4E5A62666A6E75828C9BA9B5B88B
:109E9000B2B7AE8E7668615A505A7381909A9D8A95
:109EA0008E868CA185999A9DA18171595755404DF7
:109EB0005153686F8B8B84959FA19998A29C9CA904
:109EC00098857E807D6F6E7176797089967E8D899A
:109ED0007F74646B5D5B6F7579706F695A6B799194
:109EE000A5AFBCB6A9937D6C737D80918E88897A6D
:109EF0007F86778386858A85938C85846F665851A3
:109F00004F4D63747D8B8A87817E868282959A9F6E
:109F10009891918B91968F8679797B7B817B827DDD
:109F20007D7D6760676C737D8D896E615D54546063
:109F30007C9295A7B2A8A08E88827888898A898D1C
:109F4000867F78717A73819A969C9793836D6C64FF
:109F50005B57625E60747D7C7F828D8A8288878B8E
:109F60008A8D8D8084897E837B7A8E8B91957F818B
:109F70007C7373696863616C71757C817C7C736EC2
:109F80007072888E95A09083776B65667F949EA58E
:109F9000AD978E867A7F73808F8B989A95948A7FFF
:109FA000797A746D6C6D6C7B79686866696C717EAA
:109FB00085817D867A727C7A7D7D7E7C7D847F7BC7
:109FC0007D8784847F727E7C7B818382797D7868C3
:109FD000667C8390A0988275786A5F575B606D8716
:109FE000848E96877B7A8280888D898C9C8F8E95D3
:109FF00082726B848A87928D7A6B767B8584827C71
:10A0000073858E8C928675767877857E797E838D42
:10A01000838D917570828780808F8B75747D798236
:10A020007E787B7D8BA2A8A49981776C646F6A632C
:10A030007A868B94948B7376828799A39F88797A9A
:10A040007D796B6D6D6A707C8B897C747F837D728A
:10A0500078716875717D8A7F767C7B8D978C9890FE
:10A060007D696575776B666E758286958E7A7C8163
:10A0700084837B69646D85918D8D92816F68737C1B
:10A080007A8B83817874726F6A63717D9DB4A392B9
:10A090009197927B797B6862707C837F7D817C89DC
:10A0A000909096968F7C7D7E80705C5F74817987BE
:10A0B00094857E7F818C847E756C7E7A74817B7CB6
:10A0C000786E8286827E818C948D878E83685561BE
:10A0D0007186948E9295988A858474707E959BA3E0
:10A0E0009C868C8F8A7D84938B796B6E72725C5E9A
:10A0F0006A6473788B927A7582878B82727B818D8A
:10A10000898894897B7A8C8F8D8F929086848087C2
:10A110008177716C767D7E757C818B7F747B6B54CF
:10A12000474E5A6B71757D8381737F8F949A9EA879
:10A13000B0B1A4999A90888794A3947677867C820C
:10A1400071686E677174736A56525B5D5C535868D0
:10A1500073736F84989790929FB0B4A8B1A58F98AD
:10A1600086919583726E909497888EA07D7172719E
:10A1700060382832313B4A51676E829CAEC3C9CCED
:10A18000C9C7C9B192797D736D7F78BAA895B0932C
:10A19000B18F6B6F6141221B2B3316203E5A79869B
:10A1A0009EB8BAB1B8C1B3A58474636D7872816783
:10A1B000B1B8A6CEB8C698726D5D301223262C2891
:10A1C0004A7681818DADBBC2C3BAA98A76676369BD
:10A1D00069787A8BAC99C6D0B1C3AB9F8E674C3887
:10A1E00015122A364351738BA2B0CCD7BFB3A9A1A5
:10A1F00082656162595E6F829B9A9DA28ABEC0830E
:10A200009B84735333493E23223D425B7790AEAE2D
:10A21000B0B5BEB99F89826F626C6F6B6C738292AE
:10A220008FA7A2A49E77CAAA849E7C8D5B47615E9D
:10A23000292144475D608EAEA4A1B7CBB7A0989BFF
:10A24000896E717C6B5E6471768898A7918FA26A23
:10A25000BEA871A579826457524D312454536A7057
:10A2600094AFB1A9B1C29D897A7D67607478726834
:10A27000879097A4A9A5948C7C995977B86FA69BD1
:10A28000A2A45F58544C1A324048576495A2B0AA11
:10A29000BCBC9E8D85896D566D726D7E9195859045
:10A2A0008E9784787A738053A5B18BB599A26D503F
:10A2B000504C3A1B43516773899BAEA499B6997D64
:10A2C00062676D676783B7ABAAB6B6A98881796EF6
:10A2D0005B5C6C6D7E5799DC9BB3B7A775443936D0
:10A2E0003F1A3C6079859BBDB4AC94A58F6C6255D8
:10A2F0006461698297B0BCAEADAD91786B6A625E05
:10A30000647F8F848E73A8CB7B948F7A61474734A8
:10A3100047263A64748485A6B0AD9490A38E7B7969
:10A320008A948D92ADB5958DA3927771726B60749E
:10A33000888D848A938572578C885878757C685D7F
:10A34000605B61495A7176808E8DA3A68C96978F3B
:10A35000838B9BACA49FA9A59979796F54505F5CBE
:10A360005A79808B8780927F7171698F90809799DD
:10A3700093715F5F6E64456076949799B3B39777F6
:10A38000878C7065809FA49991A09D84736A686A88
:10A3900062617577767F89A092707079776C53715E
:10A3A000A3878EA8A18D7666575C5551607A8C99EB
:10A3B0009F9AA091796F706D768294A69EA5AC9FAE
:10A3C0008D7A75706F7D796E737C818481787C7AEB
:10A3D000767D747D768BB1928B8A786E65523D4B1B
:10A3E0005D7372829A959B999B947D7D8A8F8F87EE
:10A3F000858F8E827C7C7682827A7D8B9885888917
:10A4000072615C615D61676F7C8D98978892AEA385
:10A41000988F8F8067605C6D66667E9297989A963B
:10A4200098897A6E6F7A75707A8584807F87867F47
:10A430007F87989684787A807C6F6B757571737658
:10A44000828678869281828688908777696D726825
:10A45000595B75888E909F9C8886827F786F718209
:10A4600090939FA8A9A69D867A746961636F6E73A5
:10A47000808B8473737C84847F85847C7A807D7BED
:10A480007E797C7A7D837C787C8D8C8386847C6EDF
:10A490006B626774717F80859497978D857E7C80D1
:10A4A000827D777C898C87888A84817E838C857E77
:10A4B0008082766F727A7C6C6E797F86847D7E7FF7
:10A4C0007E83898A8581878D8E8B8589887C7D8036
:10A4D000808082838985888C7A6870786F757C7BB0
:10A4E000716D6C6C73757F868B949898948C817B5E
:10A4F000797A7A6B6E807D7E879696807E7D767384
:10A500007C837975757B77777E79797F8A8B838079
:10A5100089897E84887C747A8182818B968D8888F3
:10A52000817C7F898375797975716A76797887916D
:10A53000938B89867A716F6C646A7476828B979A32
:10A5400090979188877F807A757B777475797B780F
:10A550007C848A848A9289868481776D7779747DF8
:10A5600083807E7D8383838B8D8B888684807876C1
:10A5700076737C878B898A8E89807B7569686B721C
:10A58000787F8584898882797B88898480838B879A
:10A5900081817C76727A807A788187888B868079CF
:10A5A00073716D707A7C8281828984868B908D85AF
:10A5B00086827E7E7C7A7F898C88888F8B7E7B8169
:10A5C0007B736E737B7C7F81837F7D787174767DF6
:10A5D00080868B85837E797970737F828D918E9052
:10A5E0008E8A837D7975726E777B787A7C847C76AF
:10A5F0007F88857E7D787B7B7B818284888A888B3F
:10A6000089868482887F7675757379838A8D8B8C31
:10A61000837B7B7B76777F7D797A84887B6D67739C
:10A620007C7F878D8F8988887E756B6A7B82848624
:10A630008A928D80838F8E85766F72696A78808129
:10A64000828C96988F8A807B7C7772717574757511
:10A650007D87878A8D8C8C98958C837877707485AC
:10A660008174737F88848693998F878D8777695CDF
:10A670005C666F7E8B90978C81888A806B68787B14
:10A68000787F827C716D818A909788807D78776AE7
:10A69000636C6764738585808C90959C9DA29A8C71
:10A6A000877F7474776759647B898B93A29990959F
:10A6B0009C9889818180788090979E9D9B9F99939B
:10A6C0007F605A5F5C5D656456494E59564B4F57E3
:10A6D0004F48514C38332F2E3441616B5F6A808371
:10A6E0008A979D9C959DB0B2B0B3B2B2BACED6DE79
:10A6F000ECEFEBDBDDEAD5B9B7B6B0B2BBC3BFAFA9
:10A70000B1BBB3AEA8998E857F7F777A7F6B5E6A87
:10A710006D645A5455524C5A5C47413D3E3A3A4258
:10A7200044454C5A5E595F5E4A414B555556555A01
:10A73000606475787B827B79797B74655C5A63642D
:10A740006277847875797B7468645E565E73767A16
:10A750007F777A82888E8F8C908F838385817D76B8
:10A760007E8B8A8C979298ACB7BDBFC2BBB0ABB1A1
:10A77000B4AFBBC5C9D0D6E1E5D7C0B5AEA79A8DF9
:10A780007E6D6D7474716C6460626C66514A3C29B4
:10A7900022262F3B434655666E777F7C7B7A8591D8
:10A7A0008D8C8572768A8B93A9B1B9C7D2D9D0C462
:10A7B000BDA6969991857C6C656A6C718083787072
:10A7C0006B614E4944352B3648494D525462757B76
:10A7D000828785878B9395959E9FA0B2C4C1CBDA63
:10A7E000D3CCC8C9C3BEC4B9A7A1948484857C7DD9
:10A7F0008E958C837A6E656253464433263C535162
:10A80000555C4E363D5757515350423837313751CA
:10A810005D646D5F4A485A6C738093988C78616769
:10A8200080838DA29879707D8D93969586797464D6
:10A8300062737777868E7B676C7C8A9CA3A39D8EE0
:10A840008485A4C4D0E1E0C8B3A9B0C1CED4D3D02C
:10A85000D0BDA2A9AFA5B5C4B191776B6968757E6B
:10A8600075726C5E5D6365727B695652575B5D5EA7
:10A870005A575149353A575F749292765D5F6261DB
:10A88000697A807D76626277879EB4B4A48E797788
:10A89000776C6666758472646D6D72858D7E68589E
:10A8A0005D676A74756C6F6F728797A8BDBDB5AD33
:10A8B000A5A5ADB5BEBBB0AA9E8D9299A4C6DAD2AD
:10A8C000BC9A898470686F665E5C585F686C7F8E26
:10A8D0008580726A7371635C5C60605052697486D3
:10A8E000999E896964737D7D878A837660565A6CE8
:10A8F0008A9EA8A6978884837F807E7D7964504E47
:10A90000556C8593927E74766F65696A5E5B5E6650
:10A910006E728A9FA5A3907C7F8C94A0ABB3AF9BF3
:10A920008C8B9099B2C5C9B189807F7A818B8C8CD0
:10A930008871615B62707887907E6C7474696669F7
:10A940006A695A4E59677C94998E796A6C6C646E08
:10A9500072636A6C5D59627E97999484706B6B6CBC
:10A9600075868A8C8A7268696C7C9196867B797D03
:10A970007876837D77868178848C8F99A19B867782
:10A98000889490949089816E6C8096ABBDC7B59089
:10A990007B756D6F7E807C86826E6B798A919A9AC8
:10A9A000836D6764636A7177807D6F6D77818C9149
:10A9B0008C786D7879707A7B6B726F5A56607C9464
:10A9C000A2AC9E838082798087838A836D69788533
:10A9D00099B4C6BEA08F85716A706B788E878189A5
:10A9E0008E8E959E9781767C7E838A7B727B726346
:10A9F00068747E8F9C9984797A727179777779728D
:10AA00006665708096ABA794877D7066686465758F
:10AA10007A71707D8691A3A89988837D7570696A23
:10AA2000757567646B798A98958170686B6F7980AA
:10AA30007B807F6A5E6068768A9DA39B8F86828218
:10AA40007C7680887D7170757E8DA1A1968C8786BD
:10AA5000807E787375706D71747E909998917E6B1D
:10AA60006B6E72777D8C8A7773787C8B9BA0947EDB
:10AA7000757D786E76858C8A8378686474858A8F14
:10AA800094919088796E68707B766E728393989AB1
:10AA90009B8871747C736968717878757579808D1D
:10AAA0009DA1937F7C7B6D707A80898C8676717C8A
:10AAB0007F828A847B80878B8C8685898B88797658
:10AAC0007C7B8293937C79817D7B7C7B7E7D787699
:10AAD0007A8A96A2AD9E7D768172636A727D8C8E33
:10AAE000837A7E868991958072706764686B7587BA
:10AAF0008B7D7C8E958E93967D697782797271734A
:10AB0000797B6D63686D7C96A39A8C8C846E727A67
:10AB10006E6F7C776D75828D979E9B8A7E796A6455
:10AB20006665708890868B8E838B988E7870787827
:10AB30007473787E838170727D7D85928E7E7D892F
:10AB4000857C7C797E8D938375777A82969C8D84C3
:10AB500085796D6B615C6D807F7E8D9CA4A7A391D0
:10AB60008484796F6D676573837C757E8287969E1A
:10AB7000917C7C7B7077827C7D83796F717175832A
:10AB80008E9288848C81817D6C71817A6B707370F8
:10AB90007B939F92858D8E878275717C7C7479857D
:10ABA000888E968D787071666671757A8EA397849B
:10ABB0007F7D848F8F7F777A78767E7774848C859B
:10ABC0007F7C797E88908780898783807670767E87
:10ABD0007771797D7E8D9B9379716F6F726C7179CE
:10ABE000818383898E8F919996867B70676C6D685F
:10ABF000768D9489807C7977797E7773767A85896A
:10AC000083858E928E8B85818A9292867E7F7B78D9
:10AC10007875767D7F82838183909DA09282797002
:10AC200071675D667485898A92919295948C796A30
:10AC30006867666464758A8D8B898A8E89898A7C47
:10AC40006F7076797470727273737378808A969F5E
:10AC50009B91867C78797570747F837A7680878AF9
:10AC6000908D807878797570727C878C91979795A4
:10AC7000969C8E7571767374797677818A867D81DC
:10AC800085858A8A7C72777F83807E7E878C7F7AB7
:10AC9000828A888E978C7B7A796E6964616E7E7EFB
:10ACA0007D85908F8F96877678767073736B7079C9
:10ACB0007E7F8389848C92817474706E7985807AAA
:10ACC0008A8E7A767E78758484716E7678797972D8
:10ACD0006F777A757B847E80969785858C83818754
:10ACE0007E78818E89858F8E8A8E826F646266738C
:10ACF0007D797F90958E8996978E99967D706F6AF3
:10AD00006A737575808F90878A88828C90817A7C2F
:10AD10007A767E7D70757C787880848693978A7E3B
:10AD2000776C6770736D7687888189908E94979021
:10AD3000837064687177747A89878388857A7A8664
:10AD40008074716E6C737A76798992908E8D8B9007
:10AD50009288807E747480827B77828582888E94CC
:10AD60009BA8A7998E7E6F6D6C696E747E878382B7
:10AD700080848F8B7D776D626971706F7981868A2F
:10AD80008A8F8F8E908A80726465706D697379780E
:10AD9000797A80878A93988D7C707681827F83858B
:10ADA00084848181868A959B94887871706E6E7296
:10ADB0007D8B95918C8F938F87817266656E7A7A81
:10ADC000767B8387878383888F948F80706D6D6F88
:10ADD000797D84878B89807E838B8B868070676981
:10ADE0006B6B64616C787D808E928F969A937D6E8A
:10ADF0006D6C696A727B808280868B8585827C77A8
:10AE00006E6D7B868984808A929086848B8C9797DE
:10AE100085776F6F707276747886817982888C8D71
:10AE2000857E76757B7D7B7C7A7D827C7B7E7D805A
:10AE30008E9C846764646C787F8C909AA39A9799AF
:10AE400091908E7969686C6F777A787E899189891B
:10AE5000918A8889837B685C5F69736E71848C8951
:10AE6000919D9C969E9A8070666063665B5767743E
:10AE70006E6D75768E92A48774935069A0838482D8
:10AE8000664D506E8A9BAEC0CBCAC7D0E5E4E1E404
:10AE9000E1DFCBC8C3B3A8AAB18D6C634F53564D45
:10AEA000504A473F2D242326221B1517140C101B34
:10AEB0002027313C46464A5A6269797C7B736E840E
:10AEC0009598A1AEB6C0CBD5DAD9E4EBE4DED5D601
:10AED000D1CBD2D8D8D6D0CBC4C0BFC1C6BFB5A500
:10AEE0008F7C7983766A6D77786C64666364676457
:10AEF000655752555C554851514A4A4D5354596211
:10AF00005443342C323C4B5361696968605352623C
:10AF1000706C6E715E5A636E7781908C8783787ED9
:10AF20007F7E7A72715C535B534D53626C7585877B
:10AF3000889BA4A2998E7C738A9DADBEC3C0B6B710
:10AF4000B5B3C7C8C1C1B79F8A8E948D8FA0B2BE5A
:10AF5000B49F9BA2A09CA196827879796A5E5E5488
:10AF60004C4E4955645B5D6C59454E595C6C7D8413
:10AF70008C93938B8CA0A79EA2A094A0A8A9B9C2E1
:10AF8000B3BBD2CDC1BEBEAE9FA7AD967E7A7A814D
:10AF90008A8C8985756877755E5C5F5537212E3898
:10AFA00034404C536465595A616C7E8172624B34F3
:10AFB00026264E736A6B7375889596A7B8ADA8A0C0
:10AFC000867671675646536D685A4D48586C6F695E
:10AFD0006C65637D8D8B8D8474626A8CA09D979463
:10AFE0009196989CB0C5C7D3E4DACBC4B9A9A8B8E8
:10AFF000CEC49B7E6A687D8996A79E94A1937A753C
:10B000006956453B414632303E434E545A66666768
:10B010007E8B796E66472E294977807973717984A2
:10B0200093ACC2C9CFD4B8988E7E736C7388867186
:10B030005C525D6D757B81715B667373787B756443
:10B0400057697D7E807D828E8B818A9EAAC7E0DCD7
:10B05000D1C8BBAFA6B2D7E0CFBDA294979DA9BC83
:10B06000BBB6C0B4A2968B806E5E64644B3A3B4C18
:10B070005D5F5E5F5D57657A73665C4A30161D33AF
:10B08000424F4B4954626B738893A3B6B39B82754E
:10B090006D65697D817866565E757F7F8F8E7D8355
:10B0A0008C8B8D92907F666C7D7F807F8694988854
:10B0B00089908EADD5D8C0AFA99D8C9AB3B5AE9C02
:10B0C000887B74707998A7AABCB99C8B8880756AB4
:10B0D0006D6A5A4938415D6E6A6667637392978BF1
:10B0E000806E5A403A41495B58515D6761647B8785
:10B0F00094AEB6A17F5D4E4C4F616B69503A41559D
:10B10000605B6C756674867E7273868B78788493C8
:10B11000908494ABB1A1A1AFA6B2DCEDE0CEC9C6DC
:10B12000B4B2CADAD3BAA6A29D8B808C8F94B0B485
:10B1300098837A757165605E5746312F4253595C2A
:10B14000524758777D7366554940393F4E545050A9
:10B1500061757477898E95B8C6B49E86766C656A7B
:10B16000777C5E434C6269657276666F8787776825
:10B17000707A767177868479809DAC9C99A0939B38
:10B18000BFD7D8CCC6C4BABBCADADCC8B2B2B6AB79
:10B190009D998C839AA99A84757671666C6F6A659D
:10B1A00057525A63666259464B6B7772685F5240DA
:10B1B000414E5859463F4E636E6D7678768DA5A404
:10B1C000907C776E6467747660433D556963605E1A
:10B1D0004F4C657E8075767C787C8F9FA59991A970
:10B1E000C0BAADB1ADABC0D6D9C5BCC3BFBCCAE354
:10B1F000EAD7BEB2BDC1B8B49E7E798D957E6A6B2A
:10B200006456545C564738314455565E5E49435C3B
:10B21000767C72695E444153616C6149445A71782D
:10B220007E7975869AA49D938F837F837C7B775DDF
:10B2300042506C73776F574D576978747070666AB7
:10B240007387A09F8F93AFB4A8AAA39BA8C5D4C3AC
:10B25000B2B0B4B8BDCDDFD8B39CACB9B6C1C3A74A
:10B260008E8C999886828178726E726B4D334161B3
:10B270006359513D2D37526664625C4B3E415970B3
:10B28000694D3943515C6E70666F838E88787B7E22
:10B29000777F9399896F56596C798B8E6F54596566
:10B2A0006A727F887C6E758C948E848396A5ADB50A
:10B2B000AB9BA4BBCFCBB9AEA4A2AEC8D8D8C2A119
:10B2C00098A5AFB3B3A39388878785878378787C65
:10B2D0007C7C6E4C3D5572786D55413C49626C6783
:10B2E0005B4D4344536A7B70534F61676D76757253
:10B2F000738A95847D7C7C838F9C97744237596ECA
:10B30000738280654E576E686B7C82786E7C8D8E02
:10B310007B728A9C979A998A8096C3CCBFBEB9A843
:10B32000A5C5E2E4D0B0A9B1AFB3BDB59F959D92DC
:10B3300077788A827480908F7C5D4A566A7C89789F
:10B34000533843575758645C4342535F655B4846E4
:10B35000525A616968626A818880848274788E9D9D
:10B36000A2996F4E5766757D766A57555C5C677813
:10B3700080828A9394988E7782989EA09D958C8ED9
:10B38000A4B4B9B9AEA09AAEC6DCE0BEAAB2B5B557
:10B39000B7B6AC9E9EA1927F7D7F7B80898A8764B1
:10B3A0003A435661727C7052404B5D6161635B4F02
:10B3B0004E5A6659424554575253575551627E7BF7
:10B3C000747F827C849CB1AD83615F5E60717D76A9
:10B3D000635E6A685C63737B8499ABAB927C889B89
:10B3E0009FACAEA1958EA2B0AEB6BEB6A4A4BBCDA6
:10B3F000CCB6A6A7A6ABB2ACA09398A39A88807A45
:10B4000073788B948B7153505A616E7368574B45A8
:10B41000464E5A635E565F6B73735E535D666D6A2C
:10B420005E5A5C656E7475706B6C7C8F9FB0A17F8B
:10B430007172717374716E626067605A5E69798649
:10B4400093A29B786D8CA2A1A4A59A8E95ADB7B35B
:10B45000B7BDBEB9B8C8D6C2A8B1B8AAA8AEA089AF
:10B46000889AA0958B8179757E8E947F564C58541E
:10B47000566768584F5451424655564E5165757837
:10B48000635361666A7D826E5A667A78767F817BC5
:10B490007F8C9AA49A7D757772737573645D655E0F
:10B4A000585D5E5E6976859CA0856D7182909392F1
:10B4B0008477829099A0ABB1BBCACBD1D9CCB5B3BC
:10B4C000BDB9B3B4AA92888B8D8D89857C777B8A30
:10B4D0009E9373605F626369706457595A4D404729
:10B4E000535654586976654D515D647183806C651F
:10B4F0006C767B787D8582889AA9A2887E827F7A05
:10B50000736F63585C605D585861656A7D929F9265
:10B510007E7B7E8289928D7D7B848C8F8E98A3AA80
:10B52000BAD3DCCCB7B4B9BBBDBAB7AA9C9A9C96C7
:10B530008E93988D868897987F696265666B736E27
:10B540005E5A5F5D544E4F515659647266544F5166
:10B55000565A636963595A65676A7782898A93A6DE
:10B56000A89585858B868282735F5C5E5A56565E8F
:10B5700065697B94A09E958F8F8E8B9599877F8828
:10B58000898A8F949EA6B0C3D7D2B9AAABB6B8BBEE
:10B59000BAA69B9C988F878D938F8E8B93988B7C6C
:10B5A0006E6B6967695E515458565C5E544F5A61C0
:10B5B00067726D605459615F6568686966615E5E57
:10B5C00065707B7F879CA9A48F838A8B868D846915
:10B5D0005F64635F5A575F6564718C907F818E8C66
:10B5E000858E988F8888898B8A909DA7A5B6D6DB93
:10B5F000C8B1ADB1AFB2B8AA918C959388888E903E
:10B600008F8D969B8D817D7971696F6954545956E0
:10B61000555658534D51617478736B6161666A6A0F
:10B6200062636D6C62646466737E84919B9A90859C
:10B630007F848C8B8679695C585C605A585D5F6E3C
:10B6400083918F7F7F8A888480767277808A928FB9
:10B6500090A4A9A9C3DAE2D3C2BFBFB9B8BBAF985F
:10B660008C9391817A818883919F9B907F7B79696C
:10B6700066695B4F515B5A56555A5E4B4C646D6D13
:10B680006863656267706F676571786F6A6E787CF2
:10B690007F96A9A89A90928A8187887B65636A645D
:10B6A0005F5D65665B5D7284837B787D8289897A64
:10B6B0006C6D777F7D7B83888892AAC3D1D8CFC8F1
:10B6C000C2B8BDBEB0A1A4A097908B8D8B7F819C8A
:10B6D000A2948685878078776E5751545753505B74
:10B6E0006861565F6D7A70666D6A5E6363524F582B
:10B6F000656D6D6C788279839FAAA09191948A81FF
:10B70000877E6B64625B504F51585758697F9088B1
:10B71000818486898E8977757B7C868F90918E8DCA
:10B720009DB7CCD1CDD0C9C3C1C2BDAEABA19A909B
:10B730008A928C807F95A9A692898D7D7478715BA1
:10B74000494C57594F5062675F575E73716E706C0A
:10B75000717065575056595D5D626E6C65708DA550
:10B76000A69B98958882837F6A66746D6059596339
:10B770005C515B6F7B79767577808B8C857978806F
:10B780007982939B958797B4CAD2CDD0D1CBCCC5C3
:10B79000B5A8A6ABA49F9D9B9B8D808597A4A293E3
:10B7A00083808481735F544F4641424450504C56CD
:10B7B0006071776F6E706F63605C51515056666850
:10B7C0006B736F707D93A4A6A098918F89837A6E16
:10B7D0006C6D6D625D67615B6070888A807874757E
:10B7E00078817C7070727B81849399908D9CB1BBC1
:10B7F000BFC5CAC8CCCFC7B6AAA9A4978D9298874F
:10B80000767D94A3A7A69D8E82858372645B58562D
:10B810004F4D54544D505F6C6E71726E6E71716805
:10B820005E5C59585A5D6973706C778FA4AEAA9D9F
:10B830008E8C8B7D706A6B6968676366635A576428
:10B8400074797D756A71787979746F6A6A737A83AD
:10B850008F8D8593ADC1C9C9CAC9C7CAC7B7AEAEB6
:10B86000AFB1A4969A9580788A9B9FA1A096888173
:10B87000827F776C605C4F434D544F4E5F767C788F
:10B880007776726E6D6553494852615B5F6B6F6886
:10B89000697F94A0A8A79B938E86796D645F605F93
:10B8A0005B5A5953556477838278706C747C7471D9
:10B8B000727375787883918E8B909FAFBBC9CBC81C
:10B8C000CED1CFC9BDB4B4B6AFA39B8D807C8396D7
:10B8D000A09F9C948C837D776F6B64605D524C4B12
:10B8E00047454C5E72777775757979796C58505504
:10B8F0005F5D5B6165686C7A91A2AAABA4978D8B42
:10B900007D6A65676E685D5E5E584B556B787D79C4
:10B91000726A68747A757271797E767B8A8C8C9083
:10B920009FB1BFC5C4C3BEBEC2C2B8B4B8B9B7B177
:10B93000AA9C877A7E8E999D9A928A8C8C7D746D52
:10B940006365605051544A49505D6E797A7B7A75CF
:10B9500075786E5B4D4D5C635E62625C5D6A7E9184
:10B960009FA7A59F988F897F6E656E6D5F5D5A5307
:10B970005256687D8584796A65686E736F686D7CE0
:10B980007D79838B868893A2B3BDC2C5C9CCC9C655
:10B99000C0B3B2BBB7AFADA895837E8896A1A59B77
:10B9A0008F8D8E877B6F666D74675A564C454B58EA
:10B9B000636F787874767A7C7D6F59525B5A5359ED
:10B9C0005953525F758A9B9E9897969289796B65B9
:10B9D00069736C5E5D5C544F59697A877E6E6A6EDE
:10B9E000717471636474767B86888C8B91A7B8C000
:10B9F000C3C1C0C9CBC1B9AEACB8BDB6AFB2A78EDA
:10BA000082858A99A39A8E8A8C8B877766696E67FE
:10BA100060564943425067737779736C757A7671D3
:10BA200066606360575A5D5A585E6B7E929D9C9625
:10BA30009A9E988C7662646966615C5A57535B6B18
:10BA400079858A7E71706F6C6862667271707981B7
:10BA5000847E8094A8B6BCB9B9C0C9CCC6BAAFB30D
:10BA6000B8B4AEA6A6A0908C939A9F9A908D8D8F15
:10BA70008B7D6F6B71736E645A4F404154646E726C
:10BA80006D6C75777272675E645F575B575357587A
:10BA900062798C989E948F98968F806E6B6D6F6B89
:10BAA00067695F555762707D8483807B7978715EAA
:10BAB0005D6B6D7073777C7A7B8BA3B5B8BAB1ADD3
:10BAC000BAC3C4BCB3B5C1BEB2ACA69D98979A9D8B
:10BAD0009B96908D8E919085766E6B6B6D6B625B95
:10BAE0004D465465707874696C75746D61586269FF
:10BAF000605C5A514A4B556C8391999893969DA0DE
:10BB0000988477726B6460605E5554606B767E7E5D
:10BB100076777E7D77665D68717472737978727BF3
:10BB200092A4B8C1BAB5BBC0C5C3BABBBCBAB6B2A1
:10BB3000AEA19797A2ADAAA194878B918C867A6BC0
:10BB4000686B666166615143424C5E7176737276D2
:10BB50007C7968595A606669615650454C657A8CA3
:10BB600098958B8C8C91968E847E796E66696660D2
:10BB70005F5F6372767270707982806C605C6170F6
:10BB80007376807F787B8999ADC1BDB5B9B6B5B5FF
:10BB9000AFB2C0C6BEB4ADA2979298A7AFAFA19006
:10BBA0008A8E959383756E6C665D5F665F524C51AD
:10BBB00058636F7071767C7C70645C5E686F6C67D4
:10BBC0005E4D4454687C9496908D8D9092908883BD
:10BBD0007A6E615B60615F676F727878716C748296
:10BBE000847B6A5F60676E7781817A767D8696B1A5
:10BBF000BEBFC4C4BDB5AAAAB5BEBFB7AFA4958821
:10BC00008D9DA5AEA99285858D9591847975736971
:10BC100063666A625B5B595D65676A757F8177669B
:10BC20005C585F6A747772655254606E87918B8737
:10BC3000868587868386867E7064605D5B62696CBC
:10BC40007279726C717B868578655C5E626B7983D4
:10BC5000807A797B899FB1BBC2C6C5BEAFA8AFBC95
:10BC6000C7C5C0B6A4938E93A1B2B4A28D86888FA7
:10BC70008E85776F6B6162676765615F5D5D5F642D
:10BC80006568747C7868554D5459626F7265524787
:10BC90004C5E778E9490898686827D7D81807267E6
:10BCA0006159575A61697277726B697280868277BF
:10BCB0006B66686B7680817B76707690A4B1BDC32D
:10BCC000C5C2B7A8A6B5BFC5C7C0B3A39797A0AC58
:10BCD000B7B2A08E8C8E8F8D857B736A60656E691E
:10BCE00063645F5E6463676F7984847763565557D6
:10BCF000606D75736254505A70828F8F8A8B8B87F8
:10BD00008A8D8E928A7A6F685E5D63697277736AD4
:10BD1000676B737C7D7369625F60697880807C7516
:10BD2000768395A8B6BAC1C4B4A7A2A3AFBBBEBC64
:10BD3000B3A0959397A6B4B7AC9A918E8B89827B6A
:10BD400074675C5B61626463606365616265687DA2
:10BD5000878176635A5E636A72746858505263745E
:10BD6000828D8B88847F7F8183878984786A625EF5
:10BD70005D66727A776F6464707A7B766E696564EB
:10BD8000666E7777757170798A9DADB6BBC5C2B1A5
:10BD9000A5A4AAB5BBBBB6AB978D8F9AA9AEA9993E
:10BDA0008F8F8F8E8C87847D6E656464605A565940
:10BDB0005F6365666974828477665A585E656E77DC
:10BDC0007466595662707E89868488827C7C7E8700
:10BDD000877C76746E625F606B797D7F766F757F2E
:10BDE00082776C696564656D787F7F7C7E808695DF
:10BDF000A0ACB9C0C2B9AFA9AEB7B7B9BDB3A3982B
:10BE00008E9BACB2AFA3979599928782827D6F6427
:10BE100063686B645C5F666B6D655F68757B786C8F
:10BE2000606161636B7271665C59616F7781868551
:10BE300086847C7A7D7F84827B78756B6362656C97
:10BE40007578726D717A838176716D6B6B6B7274BC
:10BE50006E68696E7685949EABB7B7B5ADA8A9AE8E
:10BE6000B5B8BEBDB1A39797A6B4B5A99994959757
:10BE7000948880807B6E69686B6C646265676B6BAD
:10BE800066667079726761575358647A8170615F32
:10BE900062677581807A8182767377798580717423
:10BEA000726964656B7075797571747A838475666F
:10BEB0006562626B727B7A71717171798C9FAAB2C3
:10BEC000BAB9B2AAA7AFBAB8B2B4B0A39A99A8B592
:10BED000B8B4A19597969795867A70676E706F71D2
:10BEE0006E686861606D6A6F7A7F847D6C625C5A8F
:10BEF0006B75726C5B515A667382827F8481837E1C
:10BF0000777A797C7F7F796F62666D6B6B66616330
:10BF1000636B828C867B6B6B686B797876757175D9
:10BF20007878889FA5A9B9B9B5B0A3ABB7B1B7B8B0
:10BF3000B5AEA0A3A7A9B1B3A99F96979E9D8D83E7
:10BF40007B6C6A67656E666264666A686F6E6B7644
:10BF500077716E5C515358657073696159596D738F
:10BF6000716B646E767A7F7D7C7D79827E6C646392
:10BF70006A7275736F6A616978837F6E69665D63E3
:10BF80007078827D797C7879838D95A0AAB7BEB2CE
:10BF9000ADB0B3B3B4B8B2A5A1A2A9B5B8BCBDAD9C
:10BFA0009D9B9D98938B7C746C6B706F6D635C5FD5
:10BFB000646565646B787F807A6C625B5763706CD4
:10BFC0006D6761676F79807D7C7D7D817D7E827EFE
:10BFD0008189847C756764696C7271696466738336
:10BFE000847D756C6260686E7071737374797C8225
:10BFF0008A8B94A6AFB0A9A8AEB1B7BCB8B1A7A0C0
:10C00000A4AAA9AEAFA3A09D969C958E89776D6ECC
:10C010006D74736C6E7172726E6B6668757B71672E
:10C020005F545B646972736E6A686D77797D7E7A3E
:10C030008084817F7C7979798080726962626E7692
:10C040007B7A6E68707A7C78706F6D68696B6E73DE
:10C05000706B6E6A69737478899AABAFA9AEABA83E
:10C06000ADB1B3B2A79FA2A5A8B1B4B3ACA2A09B37
:10C070008F8F897D7D797B7E78726D6A6B6E727130
:10C080006764727E8077675B585C626361615E653E
:10C0900071787C7B767781837D767172747A8488FF
:10C0A00085796B67696E74736A636874797A766E82
:10C0B0006766696B6E706E70787B7C7E808184921F
:10C0C000A4A6A8ABA6A5ADB2BCBDB2A9A4A5AAB1B1
:10C0D000B5B5AEA9A9A59F9488837E777373716D5A
:10C0E00066696D6B7272666770757A79726B63657B
:10C0F000666A6D6863666E737B796D6D757B7D773F
:10C10000747370787C7E827A726E6D7073706B67F8
:10C110006A767773746F65696C6A72736F70757C19
:10C120007D818781839098A3ACACAEB0ACADB0B14B
:10C13000B3ACA4A7ABAFB3AFABA9A7A9A69E958894
:10C140007D7A75797C6E6667656666626163686E26
:10C1500070737066625D5B64666265656773777A4B
:10C160007B6C6A767C7A77717273767F84847B725B
:10C1700072727075756F747B7F7F78716B6664689F
:10C180007077726F74747B807B7D8286929C9FA98E
:10C19000B1ADAEB0B1B3AFA6A5A3A3A8AAAFABA6ED
:10C1A000A7A8A19D968A827A777D7E79746E6A6A45
:10C1B0006A6D6B676A6C7376706D6A65676C6E6EBC
:10C1C0006966686E797F7B7674757D7D77766D663E
:10C1D0006E767A7D78706D6E6F6E6966696F767A4D
:10C1E00078756D6866646E75706D6C6C777F818331
:10C1F00080818F9B9FA3A5A6A7A9AFB1B0B1AEAF19
:10C20000B0ACACADABABACACABA69C90877E7C824B
:10C21000837D77706A6A6C686B6C6A6F76746F6E18
:10C22000686665656A6A69676B6F777A7877717433
:10C2300077797E7C76716E717C817E787371747192
:10C240006867686D767B77706C666262696E716F25
:10C250006E7071787E7F7F7F848B949A9EA0A1A759
:10C26000AEB2B1A9A8ABADAEB0AEABAFB3AFAEACF2
:10C27000A59C90827B8085827E7B756E70706D6BD5
:10C28000686C74746F6E6765676A736F65615F620F
:10C2900069707577706D71757B79726D6B6A737A81
:10C2A0007B7C79777474716862646B747C7A726B6E
:10C2B0006560636F7675746E6A737E82898A878D16
:10C2C0009092999EA0A5ACB0B2ADA8A9A9ACB3B507
:10C2D000B2ADAAAEAFADA79B9285797A8082807EFF
:10C2E00078726D6C6B6A6D707377746E6C68696E62
:10C2F0006F73706C6865677174747672727272763F
:10C300007A756F6F70797E7E7D767275746B6362FD
:10C310006C777C7B766D645E5E6A7172757270702C
:10C3200076797C838B908F8D8F979C9DA4B2B8B4C7
:10C33000AEA7A8AAACB0AFB1B0AFB1AEA8A2988C6E
:10C34000847C7C7F7E80807B726C686669686D749B
:10C350007A78716A646770797A736A61636B747AE8
:10C360007B7A7B7D787575716D7175787977767567
:10C37000737275726960616B727A7B746A625F63F3
:10C380006E6F6E726E6E73767B82878C93918A8BE2
:10C3900091949EA9AEB3B2ABA5A6AAAEB2B1AFAF0F
:10C3A000ADADADA8A2988B878482827D7B7B7C76A5
:10C3B000726D66696E747874716D64646B71777692
:10C3C0006D635D606974747578777879787471716C
:10C3D000767D827E79756F7279796D6564646B7034
:10C3E000767A74665F63686D717271717275777653
:10C3F0007B878F8F8E8E8A8A949CA7B1B1AEA7A2BD
:10C40000A1A8AEB0B5B6B3AFABA7A69F938A8482FE
:10C4100081817F7C7C7D787168656C6E747C7B74B7
:10C420006E69676F757A776E635F676D7074747429
:10C43000767977706A6A717C83837C77717076789D
:10C44000766C6565676C7273726E666265686A6C3D
:10C450006C6C6E7377797B838D90928D888A8A92CB
:10C46000A1ABB1B1ACA6A0A3AAADB2B8B6B3B0AA05
:10C47000ABABA198908A8B887E7D7B7A7B756C674D
:10C48000656970737474706B666A747778766A62C3
:10C4900065696C7173767A7B7A766F6A6A727B8271
:10C4A00084786F6E7279786E696B6B6C6E71747272
:10C4B00068635F60696C6E6F6D737775787E848A70
:10C4C0008E8F90928F9399A4B0B1AEACA5A2A4A97F
:10C4D000ADB0B5B4B2AFA9A7A198908D8D88827D7B
:10C4E0007B7B7A7B766B64646B717272706C696B48
:10C4F00072767875706A656A6B6C71787D807B790D
:10C50000756D6C717A81847E787671757B736C6AD7
:10C510006A6C6B6E7273716B696A67666B6C6A6D5D
:10C52000706F6F727C898C8B8D8E8C8D949EA8AF72
:10C53000B0AEA9A4A7ADABAAAFB4B3AFAAAAA99F46
:10C540009795918A837F7D7B7C7D776E6B6A6C701B
:10C5500072777672706D6F7474726F6A666A6864EF
:10C56000676B71787A7A77736F6E737B81807C7377
:10C570006D7275736E6B696B6E6F70747067696ADC
:10C580006C6D6A6B6B6E757772747B82888B878A31
:10C5900088868E96A1A8A9ABACA6AAAFA7A7AEB66F
:10C5A000B9B8B3B1AEA6A199908F89827D787E7C0F
:10C5B000736F6A686975767477757473777D78754B
:10C5C000766C676767655F656A6E72767C766D67A5
:10C5D0006B787C828779737072726C6F696769653A
:10C5E0006868707471706D70706C6D6D72756E735B
:10C5F0007A828C8F9391908B89959CA0A3A3A9A8F4
:10C60000A8ADA6A1A2A9B2B6B8B2AEA79F9E9796B2
:10C6100099928A7C767B766E6B6D6D6E7373737395
:10C620006D6E7177766D74756D6B676C6D69717316
:10C6300077797879737372787C7D8279717172748D
:10C640006F6D737172726F6C676C6A686D6A6B681C
:10C65000686660676C6E7477828B8886858A888C42
:10C66000989DA7A9ACAAA5ACA89D9DA4B0B2AFB255
:10C67000B3AEA7A69F999991918D84827C767472AE
:10C680007070706C686A7072757A827D7B76666590
:10C69000666964616D737271767E7C706C72787A93
:10C6A0007F7F787570706E676E6D7077756E686875
:10C6B0006A68676A6F6E696967696A666F77808C96
:10C6C000898C8C8A8987909494999EA7A8ABAFA7F0
:10C6D000A4A4ABB2B3B7B3AEB0A8A29A93958C841E
:10C6E0007E7E7F777572747A787A78777872767FC3
:10C6F000807F736B6962605F646367727378797857
:10C700007C787A79767C7D817F7375756D656368D9
:10C710006D767878776B6C6C676A686A6A6667644E
:10C720006263646E7983848085858C919299989FE9
:10C73000A29EA4AAB3B3A29FA6ABB0B1B5B5B5B340
:10C74000AAA49A96928A898581786F6F6B6C716EB4
:10C750006D6B6A6B6A6E7681837B766B64656262F1
:10C76000646D77747270717473787A797C7D7C797A
:10C770007A7E7C7A736F716E767C7B746B68626193
:10C78000656B6C6866666664606779848D8882878D
:10C79000868585888F93969398A0ABB2AEACAFACEC
:10C7A000AEB2B4B5B1B4B7B1A598928B8687848088
:10C7B000746D6C71767270716E6D69666E7B817F5F
:10C7C000796E65625C5D656E777674727072777D86
:10C7D000807F7B7B7C77747979736F6A6B6D7178FE
:10C7E0007D7F7A736A65686A6967696F6C655D5A8F
:10C7F00066748087838383868E93999BA1A59C987A
:10C800009BA5AAA8ABAFB1B0A8ABB3B4B8B6AEA560
:10C810009A91898E918C827472717174706E6F6E40
:10C8200069656B717C847E766A62615F6065748025
:10C830007F79706D7272767A7A7A746E737A7D7798
:10C84000706F6E6C646B75767E7A6E645F63646520
:10C8500066686E69615D5F71808A89858982828779
:10C860008C999A9A99979CA0A7ABB2BAB6B0AAA78E
:10C87000ADACB1B8B5B19E8F89838586867E747163
:10C880007077787375797970656A70787F7A766970
:10C890005D57515C68717676777274797D84848394
:10C8A0007F71717274797272716A6A6D73757B804F
:10C8B0007A736968655F63656A6D625A5C62707BF2
:10C8C000858785807E848B949B9D9E97949C9FA456
:10C8D000ADB4BBB8AEA8A6ADB4B6B5B2A99B9189AC
:10C8E000888E8B888075737170737479786F6A69BC
:10C8F00071777D807D786B635B59626C787B757333
:10C900006F6E72747C817F7A7372787B76767D78B5
:10C91000706B686F72777D786F655D585960666877
:10C92000645F5D616A757F8A8D8C89818286909A49
:10C930009B9896989C9EA3AFBBBDB6B1B1B1B0B267
:10C94000B8B7B1A89589868383807A797673747431
:10C9500073787E7A766F6B72787F817C74685956B3
:10C960005D687579787A7A7877787D807C7B797361
:10C970006E69696D7074736F6E70727A807C756D9C
:10C9800069655E5B606566605B5E636C7179848718
:10C99000868585868990979C9A999D9CA0ABB4BA10
:10C9A000BDBAB5AFAAADB2B2B1AFA69B938D8D891A
:10C9B00082817E7D78727074787875706B6A6D7123
:10C9C000797B7A72666360616A72787A7A76737458
:10C9D00073757879787573736E6B6B747875747121
:10C9E000747A7E7D787872665D595B5F60605C5CAE
:10C9F0006168737B7F81868B878687878E9394940B
:10CA000096999AA0A8B0B6B7B9BCB9B4B3B5B6B246
:10CA1000AEA29990858178777D7E7E7872717179EA
:10CA20007B77746E6E6F747775766D615C5C666A29
:10CA30006D75797D7C7675777B7B7A797778706C8C
:10CA40006E6D74726D737173787A7A7779757067B9
:10CA50005C5E5F616461646A6F75757A7E818684ED
:10CA60008381828890979B9C9C9DA4ABADB5B8B602
:10CA7000B5B0B6B3ACAFACA8A19A938E867E7E7FDC
:10CA8000807F7977767578706C707273707274725B
:10CA900072706C646566697175797D7D7C79757578
:10CAA0007370737271706A697075787B77777B7950
:10CAB0007A7975767169675F5B5D5C5F61636A72E5
:10CAC000777D83898E8A898E8986898A8E919194D1
:10CAD0009AA1AAAFB2B6B8BBBDB8B2B1AFACA69F6F
:10CAE0009C93867C75747A7D7C7B7573767677747F
:10CAF000717372727775716E69696666686A70764D
:10CB00007A7B7E7C797A767474777A756E6C6E74C3
:10CB100076757676787875747474706D6B65615D12
:10CB20005A5D60646D717374777D7E7F848A8A87B5
:10CB300085868E96989999A2A6AAAFB0B6BBB9B9C8
:10CB4000B3ADACA9A7A5A39A8E8780807F80837E92
:10CB50007C7B7976716E6F72726F7072716A6567C5
:10CB60006A6E706D6D70767D81827F7A75706D7082
:10CB70007272706D6B6C7376797C787C7C7977716E
:10CB8000736F6A6B655E5650545B646A6D72777F33
:10CB9000818185868889898A898C8E8E969CA1A9B7
:10CBA000ADB0B3B8BDC0C1B9B3B0AAA7A4A39E929B
:10CBB0008578787A797D7F7E7E78757371737273EC
:10CBC0007474716C6764686B70706A686D747C7F74
:10CBD0007D7D787473757877757270727574707501
:10CBE0007B7C7D797576716C6E6F6E6A645B58596B
:10CBF0005F6B737677767978767B7F878884848697
:10CC00008C8F9197A1A8AAADADB0B6B9BCBDB6AC9A
:10CC1000A2A0A4A39F998C807E7E8082807F828147
:10CC20007D776F6D6F6F72737573676263676F7116
:10CC30006F7374747B7E7F837E77756F6D6E6D719D
:10CC40007475757575787C7E80807B76726E6C6984
:10CC50006B6B6359504E575E666F74797C7D7C7D3B
:10CC6000808182828586858689929AA0AAAEAEB29C
:10CC7000B6BBBEC0BCB6B2ABA9A7A4A0948A847E42
:10CC80007C79798082817C746F6B6D727377787335
:10CC90006D6967686D7173736F7073777C7D7D7C70
:10CCA00078787975716F6C6F79797674757D7F7C22
:10CCB0007B76726F6C6B6D6C69635E5C5A5C636DE6
:10CCC0007578787B7D78787D808385898986868B69
:10CCD000949EA8AEAFB0B0B4BABBBCB9B2ABA6A577
:10CCE000A6A0978E8883808183837F8083807972DA
:10CCF0006B6B6E747778746A676A707778787B7B11
:10CD0000787677797C7B76726B64605F6064696E3D
:10CD10007071727579797B7975736D71716B6A67F2
:10CD200064605E646C747C81848787858488898A6A
:10CD30008E9696908C858A989DA2A2A1A39FA4A767
:10CD4000A1A39B949B9894928F8E8A8A8B8B8D8CB7
:10CD50008C939A979088827E79787A7570686265EC
:10CD600067696C6C6C6D6A6B6C6D6F71726E6D69FE
:10CD70006563616162697172706D6E717273706DFD
:10CD80006E7073767877757370757B7B7D858B8F0E
:10CD90008D8B8A848384888E8E8B86817E87969AFB
:10CDA0009C9D9D9F9FA19E9A9894938F8D8E89861E
:10CDB0008384888A8C8D8F939597989389817F77C8
:10CDC0007478716F726D7074787D7A787475787319
:10CDD000717681807979726F6C65696E7B847C78FD
:10CDE0007B7C7B7A75757C7E767A7F7F85807B798C
:10CDF0007E857B7E817E82807C7B7E827973757965
:10CE00007C76797977807E7E838183838183888F26
:10CE100089868379827886797FCAC4BEC1976B5828
:10CE20004E433D5971728C868FA09187838E6961C4
:10CE300073778884A2AD9684766E654A4E80898425
:10CE40008CA096736E5C505E748081A7BAB4A78F75
:10CE5000817A74677097AB989F968B806C6B5D71CD
:10CE60005C57737A8E9395886C6569667292969911
:10CE7000A8ADA4866E594C536163698189979B94D0
:10CE80008E8081767D898195A7A79490976D4C4C73
:10CE90004C55617C969B97917A6960525974768162
:10CEA000A7ABAAA898826E7278737E999E9A9E8E7E
:10CEB000736B6D646A6E6B7985959CAABAA07C7160
:10CEC00071717279848C919191816A635F534C681E
:10CED0007A869481827E74776565717B857A7F9A84
:10CEE0009B8A94998B7E7C7D797D8483817E7C7CFA
:10CEF0007D7B747B7E7B74879C8B8C887A6B5C6D6E
:10CF000069677F8290958591999890869494909185
:10CF1000837D716C757D77767A76837D828D8B9338
:10CF20008C929990938E788287787375766F6D6DF9
:10CF30007073655E708186878B8A898E807C848021
:10CF40008A908B837D837E767A7F817476807E8FD4
:10CF5000958C847F7E767B776E7879847F798172F9
:10CF60007A827C8277656970797E797E7573837E3B
:10CF7000808D898E9D9F9A9B9A8F85757174776F2E
:10CF800067818D918A7F86847F7A808D867D83817B
:10CF90007B75707677797E827F7A7774848B807FD9
:10CFA0007B6E6061736B768A859095928A7F7B7DBC
:10CFB000828C8C89968C7F7C82817E827673757759
:10CFC0008383807D767C786D72757567656C7580FE
:10CFD000797D878382828695969AA0958B7E716EE5
:10CFE0007775777F777474757E8B9399938F93871A
:10CFF00088827B7A818A81847B727A7774767C805E
:10D00000797F827B727178757E84858A86858B892B
:10D0100085889392878E8C87807A847E7D86868DA4
:10D020008D808082747581888383857871767F7E18
:10D0300081807575706B6F747673818B8485898F31
:10D040008E82848282837D8692897C7779727581D3
:10D05000838A878B8B898D888782807E77747472B0
:10D06000767A7F8A8B8583847D7A82807E7E7571D5
:10D07000706D747873757B858C898F939595959970
:10D08000938F857D77706E757C79787D87847979CB
:10D090007A7775737D80807B71777168676C727B3E
:10D0A0008D9291918E898A918F8982797472777B22
:10D0B0007E827D7C818382858986858C8A84858039
:10D0C0007F7671757B827E83939686807A6F717688
:10D0D0007C7A6E6769686E777880837E848D8E8CAB
:10D0E0008C87868B8A8785827A7A7C787E8A928EF4
:10D0F000888A8481837C7975717170716F767C7F89
:10D100007F838B807B7C8186878A888886878682DE
:10D110007E7876787F878A86848481808484818102
:10D12000828386857D7C7E817C797D7A7B7A7A7C20
:10D13000888C8483827F7874757676787575807E26
:10D1400076798181858A84888B87898583838288A3
:10D1500086858B837B787A7A7B7F7F8687878177CA
:10D1600076737475747476767476797D7A7E828936
:10D170008F8B89888D8A8688877F7A7B7A7C7C787A
:10D18000757D888B8C8E8E87827A777B7778808688
:10D190008785867F7B81838485848180807D776F8E
:10D1A0006C65676E73777982898D8C909698958E71
:10D1B0008B817B7771767C8286817F807E7D797D95
:10D1C00082828484827B706965656870767D8488DC
:10D1D00087848482878E918E8C877D777476767A29
:10D1E0007F81888984837F8186878A898687827CFC
:10D1F0007A7A7877818280807D7C7B7E8790949319
:10D200008880786C69696F757D837F7D797A77789E
:10D210007E8592938E91958C7E7C79747881878BB4
:10D220008B86837F7E8186877F7C7B756D6C6F6C40
:10D230006F797F7E7D7E78787B7E868E8D8B8A84EB
:10D240007C7B7C767A84868486858182807E858AD2
:10D250008480818078737C7C7D85868684848079D7
:10D260007D7C808D979993897C6E6666666E7A7CEC
:10D270007F7E79747579808E9495908D88807E7983
:10D2800075787F82858587827E81828A92968E8755
:10D2900081766D6765656C73777D847E7A7A7D872C
:10D2A0008F908A88837D777978767F7F81817E7A77
:10D2B000777B7F879094928D88807B797778818641
:10D2C00083818384817C787B828A8C8F91897F7A29
:10D2D000756D6E717273797B7777777B828D9293A0
:10D2E0008F8B8885827A797E7E7C808686827B7D24
:10D2F0008588898C8D89827B726B6C6C6C70777A77
:10D300007C7F7E7D7E7E838B898380807E78747C2B
:10D31000837E7E8084847E7D818A918E8B877978DE
:10D320007873767D7E7B7D7E8181838584868B90FC
:10D3300093908480837F7873717175727073767641
:10D34000747A848D9497908785827E80807E7C7F9E
:10D3500084817F7E7D81898F9193877C7A7B7671B2
:10D3600072706E6D7174797F7B7B83888E939189E7
:10D37000847F777477797C7E7C78797B7778838DEE
:10D380009093958C807F7F7D7E7C7E7F7C77747A86
:10D390007B7A7F888C8E928D83807D7A7C7A787878
:10D3A000787A7774757171777E888E8F878686829A
:10D3B00084838382807F797B7E81848890989F9A02
:10D3C0008D8579726D6C71716E6E6C6D7270727A22
:10D3D0007F869196939188807A7475757379777743
:10D3E0007B7C8184898D92948F8C8277757373771F
:10D3F0007D848480827E8084868A909594928478CD
:10D40000757374727172706F7275777A7D7F848BA9
:10D410008F908B848384818386837E7B7D7F807ED7
:10D420007C80838A91969289807776747474747004
:10D430006C6E6E6C70777C838B91908A84807F7F1A
:10D440007F7F7E7D79797B79797C7C828A92908AD4
:10D4500086807F7D7975777B797F848182817F82E9
:10D460008A96978F8A837C7E7F7E7C797470706BBE
:10D470006F757279838A8D908F8885838484827E8C
:10D48000797B7F7A7C858684878D9092918D847E4E
:10D490007B726D6F6C6B6B696B707479828A92961C
:10D4A000938D827A78757A7C74737572747B8084BC
:10D4B000868C9193959085817F7C7975726F747855
:10D4C0007E858884818A939DA19C92857E797871DE
:10D4D0006B6A6B6C6C6E6F72767D868B8E8D8782BD
:10D4E00083868584827E7A797875767B7F858C9039
:10D4F0009091918F88827F7A757073787774737347
:10D5000071787B7C858C908D88827B7C7F7D7C7F15
:10D510007A777B7B8183888D92928E89807B787AE3
:10D520007F7C797675797F8487868487878B9495CD
:10D530008E857D7576716B6F717274757473788278
:10D54000878D918C8786807E858783827C767673B3
:10D5500073737A868A8E9495908D8B87847E797288
:10D560006B6E7475777371797A7A818687898B8708
:10D57000817C7777777573737B7B7C84878C9393BF
:10D580008D88867D777B7A7A756E7070777E858ED2
:10D590008E9092949595958E87807875706A68685C
:10D5A0006F7678777B81878E918D8D8D847F7E805D
:10D5B0007F7C7D7776797470747B848A8C8E908E74
:10D5C0008F8D86837C78757171787B7879757B8394
:10D5D000807E81838283807C7A7879767A7D817F70
:10D5E0007E83888F9396948D87807A73707073761C
:10D5F00077797B7E83898D9198928B8B8D8B8783B6
:10D600007C75736C64686D6E70757A7C7F878A8BAD
:10D61000898785807F7F82827E7D7C7A7A7A787C1A
:10D62000878D8E8D8B8A8A86827F7B7C766F6F73E7
:10D630007779797A7E848585858382807F7B75730F
:10D640007374777A7E83828086909293928D8B8A90
:10D65000867C76767572747876787A7C85919B99DB
:10D6600094908E8C86807A79777474716E6B7073F7
:10D6700073787D848586888B918D868384807A7982
:10D68000797D817F7C7E81888F8E898584847F7E71
:10D690007B7876726F707371757A7C818787807CF6
:10D6A0007B7E7E7B797574727173787E7E80868BCB
:10D6B0008F8F8F8C8A89837D78757273787A7E805C
:10D6C00084888B8C9095928C8C918C87847D7671DC
:10D6D0006F6E6D7073787C8287888783838686857A
:10D6E000827E7977777978787B7D807E7F848A8C5B
:10D6F0008B8F8F8C86827B73736F6C717778777961
:10D700007A7C83848180807E7E7F7E7B7774717754
:10D710007C7E7E7E82878D8F8F918F8D8B847971B9
:10D720006D6E70778085868384878D918F8D8D8CCB
:10D730008C8C867D77736F706F6D6E72767A828750
:10D74000838286878588867E7B79787B7D7B7B81DB
:10D75000837D7E8385868A8E8F928F87827B757884
:10D760007B7A7A7C7E7C7E7F7E80817F7F7E7F7FDE
:10D770007C797575757677798183858B908F8C8BA5
:10D78000868487847F7B726C70767C7F8284868DB2
:10D7900090909496929194908881756E6D71757346
:10D7A000717272747B8081818485878887867F7A95
:10D7B00077777C7D7E8285838180828686868B8E4C
:10D7C0008E8C837B75747779797F807D7D7A7B8180
:10D7D00085878B88817A726F6C6F76767A78777BA3
:10D7E0007C80868D908F8C8784868378706B6E7337
:10D7F000777E8487878A8B898A898C8D8E918D82AA
:10D8000077717173787974737273797F8487858483
:10D81000817F7E7C79797D7F80817D79777B7F8038
:10D820008587878988888A8279757273767B7D7D02
:10D830007D7E7A7A7E7E82848381807E77716F712D
:10D8400074767E7E7B7D8083888F9292938B858198
:10D850007E78727678787C82848586898D8E8F8FAB
:10D86000909291918C83786E6C6E737774767875E4
:10D87000797E80858889878886817B76797B7E81A1
:10D880007E7B787A7F84878A8C8B8C8A8888817C5F
:10D890007B78777A78777C7B7D7F7E8085898789A6
:10D8A000867E746C6E72787B7E817E797B7C7A84D6
:10D8B0008E9195948D83807972737579797C7F8050
:10D8C0008587898B8F8F90908F8D88817C746F7105
:10D8D00074757676736F707881888A8F8E86807B78
:10D8E0007773747C8285827D7A79797D8587868855
:10D8F00087858688827E7A797B7B7C7C7F807E8030
:10D90000818281848887827B756E6C70797E82814A
:10D910007D7B77797D838C9094928A807975717103
:10D92000757575767A7E8182878D92939393928EA8
:10D930008A87827A777574757474716E6D72797F67
:10D94000868A8D8C837E7975777F878C89827B75BB
:10D9500072767F85898C8D8D87817D797A7F7E81B6
:10D9600082807E7D7E8184848386898A87827D739E
:10D970006D6D727677797C7B787A7D80868C9298D3
:10D9800093887F797674757B7B7A7B77787D8189C4
:10D9900092969899938C8884807D7C797675777639
:10D9A000727373747A7D81878D8D857E7773737AB8
:10D9B0007D7F8385827B7B7C7F83878C8D8A827C45
:10D9C000797575787B7C7E7F7C7C7E82868A8B896C
:10D9D0008989877F77706D70757B7F7D7C7A777999
:10D9E0008085878B9094948B7F7771727477797A26
:10D9F0007B7D7F7F81858C929497969089848180AE
:10DA0000807F7876757473717275767A8288898969
:10DA1000817C7A7A7B7D7E808080807D7A7B7F832B
:10DA20008485898A86807B78777C807E7B7C7E7A01
:10DA3000787B8087898A8C8B878079787576797AEC
:10DA400078767676787D828685888A8B8E89827CC8
:10DA500078787B7B7C797A7B787A81898E939595AF
:10DA600099948A827D7C7B7C7976767673706F72EE
:10DA7000767B8186878686827E7F807E7C78787DB5
:10DA80007F7E7E7F82848383828586807B7A7C7C96
:10DA90007E7E7E807E7D7B7D82888E8C8988898457
:10DAA0007B7773727374767875777A7B7E858A8AD2
:10DAB00087878A8B86817D79777675716E70767EA1
:10DAC000868A8D8E8F90908F8B848082868A857EC9
:10DAD0007571716E7072777B7D83888C89847F7B92
:10DAE0007C7E80817E7F828481818283828081812D
:10DAF000828283837F7D7A7A77787C7D808082853D
:10DB00008889898B8B867F7C787677767677767333
:10DB100075797E87898582818384878583807C7BF4
:10DB200075716E6F747882888A8D8F8E8F91918CCB
:10DB300087837F7F807C7A7673717273757B7E8535
:10DB40008784858381808082807F777478808589CF
:10DB50008B8986817E7E81838484827C78787472CE
:10DB6000767B80828688878A8B8B8985817C787694
:10DB70007777797974737678797E84868A888684D3
:10DB80008483817E7A7874706E70787D82898886CD
:10DB90008787888C91938F8B87837E78757678774B
:10DBA00076777675767C7F828281817D7C7F8181AC
:10DBB0007E7B7A7D80828383868583817D7C7F8462
:10DBC00086837F7D787375787D808282828689875F
:10DBD00086878685837C77747476787B7B7D7E7E72
:10DBE0007F838885848383817F827E7B7A756F6E55
:10DBF000737983888B8B8D8C898B909290918C8498
:10DC00007F7B77716F73787B797778797C80858774
:10DC10008685827F81837F7B77797D8183858887F5
:10DC2000847F7C7C7D8082807C7A797471777B8034
:10DC300087888786888987848585817C7673716FDC
:10DC40007174797F828284848485868483848787C3
:10DC5000817E7B716D6D6E737981898A898C8B87EA
:10DC600087888D8E8C8983817E7C77787D7D7A759F
:10DC70007575797D7F82868A8481807F7D78777BC8
:10DC800084888C8B868682817E7B7C81878482815E
:10DC90007E787277828583858586898989878A8B54
:10DCA00085817A736E6C6F757F8588847B7C7E81BD
:10DCB000808081828583847E78746D6A6F74787FBA
:10DCC0008586878A898383898B988D757673747925
:10DCD0007D8387898681788887838D736D6E757B58
:10DCE0007679767C7A7C7C6E86878F94757A76736B
:10DCF0007C757979757273746D7E82989C7B7E7267
:10DD00007985828C898D8F8C8E7E827F81806E73E7
:10DD100071767D8287838F8B8A907C8B92908E6FB9
:10DD20006C6D69737F868484858C90838C94A3A5A5
:10DD3000888B8780796D77777B827B87817C868AE9
:10DD400090766768666A6F747A898482897F858431
:10DD5000838A727070687C837E828584797168732F
:10DD6000808A9480857B6F8286908F848B8080757B
:10DD70006D7F82887A787E7875747D8283817D8BD1
:10DD8000837D8D90977B605F5C666B6E81898684F6
:10DD9000888C8C8D919D8F7B6A6877727781868D58
:10DDA0007F7775728384898B7D74727A7D827A72B3
:10DDB0007577807C7E95949995888E847A79788120
:10DDC0007F7D827F7D7A8591A091787571777B8543
:10DDD00095908B8580867D7C8184836F6A74767B49
:10DDE0007F8992938888887F897D87856F716B741E
:10DDF0007B7A807F7E858183838C9191988D8D7DC8
:10DE000074767A817979797A7C787E8C8E8C7C7440
:10DE1000796E69747C81817F898F8386848D947803
:10DE20007A7D757A7A858C8B8679757A7A7D878CFE
:10DE30007B747C808A8E9289898A7A7973797978E1
:10DE4000867E797C747178777A82898A817C8289EE
:10DE50008F8F7A6E6A5F616E787C7F868D918E88F7
:10DE6000858A8A7D7C7A76737886898B867C7B76B8
:10DE700074797D888074747780817D7E7E7C7376F2
:10DE80007D7C88899C9B8D8B7676736F777C827D79
:10DE9000777D7C828A8B86797B757582888C868A71
:10DEA0008B8B8C777A797C7C7177757278838E9284
:10DEB00088807F7D757F8388877374707476727DA8
:10DEC0007C7A79788482858A8D968E867871706F57
:10DED000767980807B87828B90888B776E69697575
:10DEE0007A7B808488898881848583908786817AFB
:10DEF0007C7D8E9283817D7B7572828991878087FC
:10DF000087848386837A7678817D777D808B82741F
:10DF100076737478798689817D8184888C888B7A00
:10DF20006E68656F6F7680858E91928D8589848805
:10DF3000897F78747A808A8E87857C7674728382F2
:10DF40008A8C7D83847D7E7D7B7672797D838489D6
:10DF5000909B97837B726B6D78817F7B77798384CD
:10DF600082848A87776D72787D85888A8C868283A1
:10DF70007A787378837C7876777F8D8C8D88807CB7
:10DF80007C7F85878884797A7470747E7D77787CCD
:10DF90007E8685868F9795867E77716B7680838463
:10DFA0007D808D847F858286796F707479787881A1
:10DFB000867F818A85807F889690847A787F828226
:10DFC0008380786F76797A80858C8B8C8482828648
:10DFD0008783847F7D837C787E7F88827C776E6D6B
:10DFE000728087827F81898988898989766D6F6D42
:10DFF00070727A8586888585877F81818F8F867C00
:10E0000075777C858A8C8579777A78827E868D8112
:10E010007F7A7A7C7875767A7F817F7D8B949997E9
:10E020008A7E7371747C827B73767A83838686831F
:10E03000837E787A7D7A848F928B82807B727173F3
:10E040007D897E73757E83858A878078787D8188D7
:10E05000828189837B7778757375777E83808586E7
:10E060008D9290948B7A6E6B747D8284808184878C
:10E0700083848A84867D6E707577777B81828588BC
:10E08000867F7E808794908684817C7C7D7F797179
:10E090006E767C7D80808B8C85817E7E7E7F81828A
:10E0A0007E7B7A757A81858E8A796E6C727A8186AA
:10E0B000878D89888581847C807E78797571737D70
:10E0C0008585868482827D828A8B8A7F7F7D797D29
:10E0D0008387817C767C807A7C828A8B857D7B7647
:10E0E0007173767C7D7D8182818A8D93968B81761A
:10E0F00072737477777A7F81858A89858386837A3C
:10E100007A787B888C898783827D7072788085801D
:10E110007C7E7D7F85847F7C7C7D7F73788385900A
:10E120008C837D736D696D7A7D80848788898D8805
:10E130008B88787475797B7D838180848782807FEA
:10E140007D85877A7472737A7D878B88847C787BEF
:10E15000848A8F928D86807C787374797774797ACB
:10E160007A7E83898F8D89837E7D7B7D7D7B79809F
:10E17000807C84888986786E6E70787B828B8A89B1
:10E1800086807E7D7D868B837C787674797F83859F
:10E190008182817E807C838A838382838682827F60
:10E1A0007C79797F7B8285868E877D79716D707AA7
:10E1B0007F7C808483818D9293968A827D75706E38
:10E1C00076787C8384837F807E7F88867F7F7F8054
:10E1D00080858C85807B7975767C7F86867B797E51
:10E1E00080818082807E7D7B75767E81909288831F
:10E1F000746C68707C7D8082868585898787857C44
:10E200007A78757A7C83838589898681817E828408
:10E21000797375777D818387837E7C7A7C81868F15
:10E22000938B89837B747075777B7A7B7A7B83820F
:10E23000898E8C83807C7676787A7B7E84858188D3
:10E240008483877A7474787B7C8285848587847CD8
:10E250007D7E808A857C797475747E8887837E7FD5
:10E260007C817D7E888A8784827E7A777B7B7B7DBA
:10E2700082818184838E877B777478787A7D8182AE
:10E28000878A858C8F8D928D80796F6B69707C7F8A
:10E290008584837C79807C83868482848482838065
:10E2A000807B7C827C7A7C7780837C7D7C8584808B
:10E2B000837F7D7777767A82868F938A7F77737173
:10E2C00070767B82808486858B83858A837E7C7A48
:10E2D0007A7C828789898A837B7F7C7F8578747743
:10E2E0007B82838887827E7D787782878F938C85F7
:10E2F000847E777072767775757A767F8388948E50
:10E300008780807C77787A7D7D82868186847E8610
:10E310007B7374737B7C82848488867F7C81858513
:10E320008A837B7C78787C838683817B79797D7D09
:10E330007C888A8685817E79797D80807F828080D5
:10E3400085868A837778767874737C7C7D7F858AEE
:10E350008B908D8F8E827E7A7371748082817D7AAC
:10E360007877808185898283837F7F7E80808180AA
:10E37000817D787C7C818681818483807B7E7D7AAF
:10E3800075767B7A838A8D8D847D7C7872747A7EB3
:10E3900082848187818183848E867C7A747377807E
:10E3A000888A8B86807A7C7B7A81807A7E7F808265
:10E3B00083847F7C7D7C7A83878790918A817A6F42
:10E3C0006E777B7D787376727985858F9186827B77
:10E3D0007975787C7D827F858484838085827B7D4E
:10E3E0007D7C797B848587817F7C7B807F8687812C
:10E3F0007D7A7B7C7E838781787876757F838C9429
:10E400008D847C77797A7F81827F7E7C7A8180851A
:10E41000877C7A78787A797F7F8181878E898D89E8
:10E420008C90877E75726F737D8182797879757F24
:10E430007D8490898482808283848484807B7773C6
:10E440007A7D838E8A88807A7A7A7D7B7D7B777FDE
:10E4500081868989908A817C767577797D7F7D7DBB
:10E46000827E8082828F8B807A777A787E87898895
:10E47000807E7674777883807B7D7E7F7C7C7E7FD8
:10E48000807E868484888690908B847B7673747774
:10E4900079746F74747E8C8E9493867E7674777A9A
:10E4A0008083888688827D7F798488817E77757570
:10E4B0007B8385857C7D7E7A807F838A8686848542
:10E4C000827B7E7B7B74747976838488918B82795E
:10E4D0007677757E83837E7A7D787F818089877F5A
:10E4E000777576777E83878D8F908A8C8C888B88E2
:10E4F0007F757073767B7C7A747175737A81838A89
:10E500008A89837F7E797C7E7D7C787A72747C8236
:10E5100093958D807979757B8285847F87857E7FD1
:10E520007D848986837F7C787A7F838480858483D9
:10E530008D8B8F9083746D71767F898B867E7F7BC8
:10E54000757A7D8287898682817B7C7F7E808082CE
:10E550007F767D838A94908A8179727177787A73D5
:10E56000787E7E83808386817974757779808486CE
:10E5700084807E7A858889908A7D6F6E70758181AE
:10E58000878582827A7C797A878B8C8C857E7A7D6E
:10E590007976727077767C8188908E867E7D7B76A8
:10E5A0007C807F7B78807E7D7D7B82847D747473AC
:10E5B000747D858D938C8B85868B858D92877D73FD
:10E5C000707071747979767C7B7D817F85878A8B89
:10E5D000868682818078767074747280858F928945
:10E5E00080767674798386878087887E7E7D838C2B
:10E5F0008C887D76736E777F838384878589888412
:10E600008988847B787C7C817F7D7B797A767B7F2F
:10E6100080828783807E7D828586857F7D7D767DF5
:10E62000868A96978E847A726A6F757C7D7F867FE4
:10E630007E7B787F81807E807C787E8286878183E6
:10E6400080828986898B83767272757C7F84837AD7
:10E650007D787580808A939291878078767B7A7AAC
:10E66000777C7A798182878D8A84837F7676787DBC
:10E67000827D838581857E7B7E79767172767D87CA
:10E680008B8C8384847E888B8F9893887C73706D49
:10E690006F737979797B7A79787C83888A8C887FA3
:10E6A0007D817F7C76757C7A8286878D8A80797879
:10E6B0007673797E828385878385847F858685804E
:10E6C0007875737B80828580807C7C8183898B8850
:10E6D00082807E7674747575757F807A7B787F868C
:10E6E00085868482828584847D767B797D888C93FF
:10E6F000938D867B79716B737C817F8587827F7B2D
:10E70000787D8280797774798183868385837E871B
:10E71000898787827F7D7C7A797A7B7A757B7D7821
:10E720007C7E86918F8A87847E787F807D797675DE
:10E73000768185888C8F8A837F786F71787D8184DC
:10E740008A84827F767B7B7773737A8087898B8AD2
:10E75000888982868C898E8C89867D7A716E7274A6
:10E7600075727676767A80878B8D888681797D80C2
:10E77000827E797F7C7D7F7F878B857E7A7C7874B3
:10E78000757C83848B8A88898383847D7872727395
:10E79000798587877E7A7A7C8385898F908A847E43
:10E7A00079767372797B7A7974787B808A878483AF
:10E7B0007F7F7E8282817C80858388898D908C8614
:10E7C000817C757073797F7D7B7F7E807E7E848186
:10E7D0007D7778777A85878A8682867E7E807E843A
:10E7E0008685847E7C7A75767B7A7B7C7C7F85854A
:10E7F0008A8F8C8785827D7F807D77747C7B7E8508
:10E80000868C8B86817C7670757A82868185837F03
:10E810007F797D7E77737278787D84898A868B870D
:10E820008386878A8E92918A8378727371746F70EF
:10E8300073747D7F858C888482837F818581817BD1
:10E840007E7F7E84858384837F79747172777C87F1
:10E850008888898384828284827D787877767E81B5
:10E86000827F7D838182848487898782817C777699
:10E870007374706E70747C81868F8E84807F7F7DD0
:10E8800082878683828584838685888D8D897F783B
:10E890007271767B7E7E84848487827F7F777476B4
:10E8A000797B8084827E797E7F7C82838B91888550
:10E8B0007E7975757C7D7F7C7D7C7A7C7F878F8F70
:10E8C000898A857C777A7D7B7B828684878583862F
:10E8D00084817C78767679797F7D7B7B7C84817E70
:10E8E0007F7A737276777E878B8C8989887C7B832D
:10E8F0008993969490877A72737173706C73757C38
:10E900008081888B888484827E807E807D7D8583E3
:10E910007F808083827B777475767F848B8D8889F6
:10E92000818284838586857E78757378797E8381FC
:10E93000857F7C7F80878B8F90887F75746F6C6FED
:10E940006C7679797E7D8284817D7B7F7F808487F0
:10E950008B8382838185888E96948C7F746E70748D
:10E960007A8380807F7E7E78797E84847F817D7DBE
:10E970007E7D827D7F837C808281868685827F7D8D
:10E980007D7F7778777377777E868C92928D837C84
:10E99000756E757F88898586817C7B7A828987827E
:10E9A0007E78737372787B7B838584837B787B77B7
:10E9B00075797C7C828688877F7F7F81888A949C1A
:10E9C0009A96897C7576757578727574737B7B7F82
:10E9D000898C89827E77787C7E8583898C84807916
:10E9E0007A7F767678797A7F8284877F7F82868B3A
:10E9F000898586857E797875777B83898380817C1C
:10EA00007C7D838E94958D847B726D696F73787D28
:10EA10007B80817A7E807D7D7B7B7E8485878886F6
:10EA20008987868A8A8B8A847E7976757D818481BE
:10EA30007A7A77777879838A867D7A77727274802A
:10EA4000858687807E7C7B838A8B8786847D7F79A1
:10EA5000767571767B848886898D897F76747780D8
:10EA6000848A8D83807E7C8180848988837A736E9A
:10EA70007174777C7E84847B7B7A7980807D7D7ED7
:10EA80007D7E7E7D817E828A8A8B8C8E92938E861D
:10EA9000847E7D7C77776F6B7072797F838D928CAB
:10EAA00081797573767E8D908C8A7F797771757A8E
:10EAB0007D7C7C7F7E807B7C7D8089898A8A878241
:10EAC00080827E7D7A7980818680797E797A80865F
:10EAD000939893877D76707273787A757978787A5F
:10EAE000767B8286847C7C797B7E8189878F918E00
:10EAF0008F85808284817D7E7F82807E7E75737328
:10EB0000758485858B8981777472797D7F87828111
:10EB10007F78797B7F858C8D88847A7676747B7C10
:10EB200082898486847E8386847D7D7D80858386BC
:10EB3000807C8380888983858079737272767D7EFC
:10EB400081817C7B79767979818A8A8177736E730A
:10EB5000767D86888D8C8B8E898890928F8D898327
:10EB60007F75716D687171768081868A897F76770D
:10EB70007681888D8F84827E7A79777D83827C7698
:10EB80007571787D8088888B8A8583808088918C58
:10EB9000817E7A7A797B7F76798485898885898C6C
:10EBA00088807D7A7877737373767B76797F7D85BD
:10EBB0008983746E6C71818991908B9088827F7B40
:10EBC0007D82878784817B797878777681807F835F
:10EBD0007E848A877B7678777B7E827A72787A7C6D
:10EBE0008182858D8C827B78757A7C838B85897F09
:10EBF0007D837C82868A88817E7B7D808385828BF3
:10EC00008C84847B7A7D807F787B76767A797D7937
:10EC10007C7C7A80828285877F757470737D818623
:10EC200082868B85888386929C9888867C76737191
:10EC300079797B7B79807D7B8187877C7B7C7D83F9
:10EC400081828183857E7E7A78777A7D787A7777FC
:10EC500080848A8783867F7F81828C9291857E796A
:10EC60007274777E7F7F848587847E7F898C8380A2
:10EC70007D747676797B777A797B7D7B7C808179F0
:10EC80007373767F85898C8A8D8A878881818A8F44
:10EC90008C7F7976777A7C7C787D7E797F83878F8D
:10ECA000918B827D726C716F767A818A858377739E
:10ECB000767F817E86878B8985857A7572757C8261
:10ECC000868E95908377737177828C95969B8D83D2
:10ECD0007A6B6E747D777D7F7B827D7E736E7473BD
:10ECE0007D8A898B938B837A6F6B6A6E78868C971B
:10ECF000958C8980828889838488838884848074C1
:10ED0000767375797E8592998E847B6F6B7177802F
:10ED1000828A8C8281706B6F7376757C7D87888622
:10ED2000897D7C7C838A909B9EA1958678696163AE
:10ED30006C758181847A7A6C6072697B776E8D855F
:10ED4000708D957C79695C4B475F7896A4AFBBB9B1
:10ED5000B8C4C4C8D9DDD8CBBFB7ABA7A098907F43
:10ED6000726563625C5043403F453F383137352C14
:10ED7000271717181B21252B2D30343C3F4B596387
:10ED80006C767E808F96A0A7A6AEB3BFC8CFD1D930
:10ED9000E5DFDBD5D1D4DCE6ECE8E1DCD0CCC2BDEC
:10EDA000BCB9BDB3B1A79F968D8E7E817E75756807
:10EDB0006866646053433932303C474D4C55565277
:10EDC000544F565C6263666764655F625B5A5F5965
:10EDD00062696768706C5C544A4B4E4B4C464947BD
:10EDE000433A2E33363D48505868748596A3AAA5F9
:10EDF000B2BDC6D0D6E4E5E5DCD5CFC3C1C1C7CC32
:10EE0000BDB7B4A69B878589827C7477706A675E7C
:10EE10005D545149484D4748505D5B5657535D6EB0
:10EE20007E90A1AFB5B2AFB1ABAAAAACB0ABA3977D
:10EE3000908B887E7E867C787780868482767370DD
:10EE40006C6D727D7F828D9092959498A2ABAAAFE3
:10EE5000B4B2B3B1B4ADA09D95908C817F8481791B
:10EE6000695C5A57545A6061665F55595148474723
:10EE70004948494C54575A5F5D636D6E75858F984C
:10EE8000A49E938B818289979B8C887F716D665D30
:10EE90005C58524E4C49444244494A505357626070
:10EEA0006D7D8D9E999A9DA7B6C4D0CCD2D4D2D771
:10EEB000D1CFC9C8C7BEBCB2ACA9A2A1938C8E8465
:10EEC000807A77797C7662554335303036333738FF
:10EED000363C3F3B384451546271747E8A89848346
:10EEE000898C939D9A979A9D978E827D878A8E9121
:10EEF0008A88837C79757474747072706B747B8883
:10EF00008C8E9A9C9EA1A9AFBAC5BDB2A79E9898B7
:10EF10009C9C949393929189817F868782827F8142
:10EF20007F7E7A7270675E5E5C5A646D6F6B635C45
:10EF30005E6B77848C939A9C9C8D807F8590959155
:10EF4000857F766F695E6062605F616466665D564C
:10EF50004F494D565C697276828E9A99959CA9BAF2
:10EF6000BDC6C8C6CACAD0D0CCC9C3C1C0BBB7B65B
:10EF7000B7AB9A8F82827D76747073727064584BCF
:10EF800040403938332E34373F43413E4149505D8C
:10EF9000707E8D91887C71757F858D898B8F8A823B
:10EFA000706B676B6B686E64635D5A605E625D5C1C
:10EFB00060676C75858C8F90949AA7B3C0CACED4C5
:10EFC000D4D8D0C8C3C4C4BDBCABA39F9B9A9192F4
:10EFD0008F8E847E7F7F857C7566585048413F3F89
:10EFE0003A46494F504643455459676E7580808E66
:10EFF0008B8885848688918F94938C7E756C6767E7
:10F00000656C656B676060515251595C5F63626DFE
:10F010006E7B83879097A2ABB5BAC4CCD3D3CDC94E
:10F02000C4C8CED5CECECFC5C1B7B5ABAAA4969233
:10F0300084867F7F7F7570655B4D4A46474A4B4C9F
:10F0400047443E403F4B565D6D6C7673706E717BEE
:10F0500077807D817C71756E686368666969666EAC
:10F060006B665D595256585A646473798085868AF6
:10F070008CA0A6B0B2B3C1C7D3CCC8C5C2BEBBBFFB
:10F08000BBBCB4AFA9A39B928C8A90868A898583E6
:10F09000756E656A5B4D463F474351555151515618
:10F0A0005A6D7079848A8E8B897C797680848D9173
:10F0B000868679716769686062585D575B5E5253F6
:10F0C00052544F55575E71787F7E80808C99A5B1E0
:10F0D000B4C1C4D1D2CCCACBCEC8CDC8C0B4B0B8EC
:10F0E000B4ADA6A094918D898E8B8882786A655D77
:10F0F00053524C504E52544C46414A4A5153546319
:10F100006D7E82807D78767A8485898E8D847D710E
:10F110006C695E615E5F6363655C5B585A59565803
:10F1200054606A7785868A8F99A3A7ABBAC8D2D56F
:10F13000CFC7C1C0C0C7C4C0BFBDBFB7B2A8A29A25
:10F14000918F8486868587827B6E645A5249494FA7
:10F15000575C584F474B515A595969738082807D8B
:10F16000797A7679747476767B7B7A756E655E5C77
:10F170005B5C63625B524A4740454E5059626E7613
:10F180007B808991939C9FA6B3C0CFD5D4D4D0CD9A
:10F19000CAC6C7CBD1D2CBC3B6AA9F9A9C918D8F3A
:10F1A000908F8B857D7564554B43464649514E4A39
:10F1B0004646464648566D7C88847D7D787A8286B0
:10F1C0008A8F8E8F92897D797168635C595B626AE0
:10F1D00067645F534D4C4F57636E767B7777777AD2
:10F1E000878D909EAEBAC1C1C5C5C1BDB9B0A9AF2A
:10F1F000B2BBC1BCB4A7A49E9492999E9E9C8F84DE
:10F200007C6E645E585759575C5B52504E4D4C4D66
:10F210004F5B67747E7D7C726D6E6E747B888A8DA9
:10F220008A81786D6C676061676E706E66625F5B25
:10F2300057525157626B7D868E8F8F97979BA4B4E0
:10F24000BDC3C8C2C5C2BFB9B3B5B4B9BCC2BAADFB
:10F25000A6A2988B867F858B93938D88766B5F5B58
:10F26000565962626B5F57504A4C4B535A6C7781C8
:10F270008585827B7D7876707379828C827C6C63E5
:10F28000575150506062655F57544E4D4C51515A22
:10F2900068727D7D83888D8D8F949DAEBBCFD7DEC8
:10F2A000DACEC9C1C2C2C8CACDCCBCB2A29B9086BC
:10F2B000868A9594938C877F7263544A4249505F43
:10F2C000605959534E484D536577808D82817F78C0
:10F2D00078787B79858A8E8A807C71685C575452F5
:10F2E00053585E57534C4A423E434A5F6C78787895
:10F2F000807F82848F98A3B1BFCAC9CDC9C1BBB476
:10F30000ADAFB4C1D0C7C0B7ADA398928E95959953
:10F31000998D86776D5F56535459595E575657519C
:10F320004945474D5B6A7D817F7F7C79757A7D8613
:10F330008C8D8D8584766B656361626A6C706B6899
:10F340006A675E504647535F737E828381838289FA
:10F350008C99A7B8C8C8CBC7C4C1BAB8B7BBBCC31F
:10F36000C2BABAB2A08F837A7D848F95908A7F7358
:10F37000635A54525B5C5F5D574F47443F414C5A60
:10F3800067777B7A7B7C766D6E6B6E74828F9090E4
:10F3900082796F6865646E6D6D6765655B554F4911
:10F3A00049555D66737C80868D8A8C888F9CA8BB4E
:10F3B000C2C9CBCAC3BBB9B6C1C6C9CBC6C0B5AD3D
:10F3C000A098909298999A94908A8373625650521A
:10F3D000555F63655F5650494B4B59687077787A33
:10F3E000766E6D706D70757B8281807F7F74675BD8
:10F3F00053585962626263615D57544B525D666E49
:10F400007378767A7E878C8F9AA3AFBAC3C8CDC73C
:10F41000BEB7ADAEADBAC0BFBCB6AC9B91888A9149
:10F42000959693928C857972665E5E5C6462626486
:10F43000656057554E535A697C888B86847D837EE0
:10F440007C82858989897D7B706A665F655D5F5A8C
:10F4500057585C5B4E4636363E4C5B6773757F8211
:10F46000868A8E96A1B0BCCAC9CBC7C3C6BFC1BD70
:10F47000C3C4C7CAC8C5B2A490888786898B8A824C
:10F480007F776D5E5455575C595E54514E49504ECE
:10F490005455606A747C7D857D807A757679868D19
:10F4A00095918F88817B71716D6E6B6B6664605610
:10F4B000524646474F555961697674797B797A820D
:10F4C00097A8BBC3C8C8C8C9C4C3C5CECACECBC51C
:10F4D000BEAFACA3A19D9E9D9E9E94908880705FC0
:10F4E0005958595C5F5754514F4B4B4B47586070BC
:10F4F0007873736C6E6D6F6C727678848789868191
:10F5000078736C66696D6D69736D6863534F4D5A9E
:10F510005A5A5D5D5F6874737E7F8895A2B2B5BCF0
:10F52000C0C7C0C2BDB7C3C4CCCECCC7BFB8AEA5E0
:10F53000999C9DA1998D89817D75706A6D6A6766B8
:10F540005D615B5654534B4A50576368736C6A6DE8
:10F55000676F6E777C82817C7B797F787C77707136
:10F560006B6661605F635B564B46514F595C6068E8
:10F570006E76797F7E8895A4B5B8BAB8B8BEC3BD9B
:10F58000BFBCBDC3C5C9C0BCB4ACA0908A8A9691AB
:10F590009093908B7D787273727268625E51535251
:10F5A0005A5B5E64636E73787A7D7672726B6B6B96
:10F5B000757B7B77777778786A6E70706D67655D3D
:10F5C0005753564E4D4B4C514B5154646B71726FA7
:10F5D000777B91A1B4C0C4D0CFCFCACBCBD1D4D587
:10F5E000D2C6C7BEBCB3AAA49D9E949085868579D9
:10F5F00077686564626265635E5E5C5C565A5D64F2
:10F600006B6F726A6C686C6E6F76767E7B7C7E80C8
:10F61000868782777067626167675F625E59504B69
:10F620004D545651514A50565B686D767F8791A173
:10F63000A7AEBBBFC6C4C4C4C4CCD0D3D3D1CCC87E
:10F64000BDB1ACA7A4A19D978B807E7B74726C6BBF
:10F650006B6863595C5E5B5D5A55555A646E767B88
:10F660007F7C767372787A78797576797B81807E03
:10F67000786F6F6E69636365625A4B45403C3E43E9
:10F68000494C4F545A616A717C8C9DABADB3B7B88D
:10F69000C1C5C7CACBCDD3D2D0D6CFC5B7A2979359
:10F6A000969E9C93928B837F7775726F6F675C5881
:10F6B00054565B5A5856535861676B716F69626252
:10F6C0006B6C6F737A8089928E8B877F7F807E7A56
:10F6D0006E686B65605D5A5657545258565D5F624E
:10F6E000676062636F8192A2B0B8B8BBB5B7BDC2A4
:10F6F000C7CDCFCBC9BFC0BAB2AEA09E95948F8EF6
:10F70000928A867D746A6766686C66655E5B5B5A22
:10F71000565F686A716B6C676366696D6B68666D6E
:10F7200070788286897D756D696E7475747E786E69
:10F73000655E5C555654545252585E676C72747DC7
:10F7400086919DA3B5C1C4C2BEBBB6BBC0C7C6CC63
:10F75000D1C8C1B3A8A5A1A09E9089857B7C7573F3
:10F7600074726E6A675E61606260565550545E687E
:10F77000727C7D7A787574727475797D7D82838AE6
:10F78000877E7877766D6963616967615B5148430D
:10F79000454A4B52585C66696466727E8B959BA5A0
:10F7A000AAB4BFC1C4C8CCD2D3D0D2D5D6CEC1B2F0
:10F7B000A29B999A9B9994938D847B737477746FB1
:10F7C00069605D5E5D615F5B5A59606369757774FE
:10F7D0007169646362676D747A828889847A7D79DD
:10F7E000757369686261605B56504E474948474C83
:10F7F00053595C5F5D646A77889AA9B2BEC0C2C083
:10F80000C2CBCAD1CFD1D4D1CFCBC5B8B2A8A5A1D4
:10F81000989693908A8376726D6569626362646676
:10F8200063625A5D5D6165686D686E6B6F7273725D
:10F830006F716F79818A8B817D76737172706F734E
:10F840007471655C52525352524A494751565B5F3C
:10F850005C6464768391A5ADB7B4B4B4BABDBFCAD5
:10F86000CDD6D5D6D0C6C0B3ADA5A59A928A868B83
:10F8700081827C7D7D74716A6A6567665E575354C8
:10F880005261686C73747472716C716C70736B76A6
:10F89000787E837F7C7A796F6E696B6E6B6B5E5955
:10F8A000504A494C504C54596364686A6D797D895B
:10F8B000919CA7AEB7B9BFC2C8C2C5CBC7CFCECD8A
:10F8C000C7BAAFA6A3A0A1989A9A8E887E7C7C7AAC
:10F8D000756F675F5D5C646262645C5B5D63646DF1
:10F8E0007574746D6B636163626A717F82858681F2
:10F8F000807F79716F6563666566635E57565352A4
:10F900004C4B54555C5F626568727C8C98A7B1B7AC
:10F91000BCBBC3C8CED0CFCBC6CACACAC2B9AEA6BA
:10F92000A59B968E8C8A827E7775706E6A6B6864F2
:10F930006B676765646263625E61606F727277763F
:10F94000767271707374777F80817A797772726D55
:10F950006B6A6C6B69615A58565A554D49494F55F7
:10F960005B6267696F77808F9CAAB3B7BCBBBEC36D
:10F97000C6CBD0D3D5D8D5D0C7BFBDB4A99C8F89AD
:10F98000868584807972706F6A625E5C5A5A595AB1
:10F990005A57595E626A70757975716D6E717271C0
:10F9A0007074797D7F82837F807C76736F707068DE
:10F9B00061594F4D4D4C4B4A4C4F54585B60646AF3
:10F9C000727A818B96A2AEB5BCC3C9CECDC8CACE61
:10F9D000CFD2CCC5C1B9B5B1ABA49E999590888260
:10F9E0007D7D7E7A736B605B595A5E5A595A5759BE
:10F9F0005D656C72736F6C67686B6D70747A7F8213
:10FA0000818183827E7970686765666663605C5D0C
:10FA10005C534C4A4B4D52565A5D60666E7B8893E0
:10FA2000A1ACB0B7BBC4CECCCAC8CBCECFD2CEC6A9
:10FA3000BEBAB4ABA59B9794908A7D78746F7071B1
:10FA40006D6B67666763646464625D5C63696A7456
:10FA500076717071706966676B747A7C7C7F7F7D6C
:10FA60007A7777716E6A68645C5B6060595047456D
:10FA7000434A545C656C6B6C787D899BA1ADB1B7D2
:10FA8000BEC0C4C2C6CBD4D6D3D3CCC8C6BFB0A127
:10FA9000968E8B8E8D86847F7D77726D615E5C5FC6
:10FAA0006162615B5C5C6266696F757B75777C7BAC
:10FAB00077726B696E6F76797E847C7676726C6C09
:10FAC0006967645C5B5857555554514F51585A619A
:10FAD00064676C7076798293A6B3BEC7C9CBC9C878
:10FAE000C7C9CDD1D2CDCCC6BEB3A9A298948E8DB4
:10FAF0008A817F7E7D786D605B5A5A5C5F64625D4F
:10FB00005B5B5E62696F76716F706D727072767832
:10FB10007F838785868989837A7068666564636375
:10FB20005F5B544E4C4243444A52545B5C656C727A
:10FB30007982929CA8B1BCC7CACDCDC8C6C7C8D26D
:10FB4000D5D8D5CCC3B6AC9E99989590857E747463
:10FB500072716E646261626261635E5956585A5C8A
:10FB6000636D78787877716D68656E78787D7F7F62
:10FB70007E7E7E7D797375726F6B63666463605899
:10FB80004C4141434950565B60636569728592A060
:10FB9000A7ADB1B6C3C9CCCACED4D7D8D6D6D2CAEF
:10FBA000C1B6A69E9A9696948F87827C766C616386
:10FBB00061616361615B555759585F677074727416
:10FBC000767775726965696C767E828583848078C4
:10FBD0006F6C706F67605F5A59595B5B5553505239
:10FBE000535459636A6C6B6B7782909FAAB2B9BD0C
:10FBF000BFC0BBC0C7CCD5D5D6D2CAC2B7ADA6A3ED
:10FC00009D9A978E878885827668615B5D5F6A6C56
:10FC100066665D5C575864696F72726D6D6B686A79
:10FC20006D7576787A7C7B7E827E796E6B6A6D6D7F
:10FC30006A6A615B5858534E4C4A50535656595C49
:10FC400061666B7A86949FA9B3BBC3C8CBC6C1C09B
:10FC5000C2CBD3D8D6D0C6BCB1A6A19C9A948E896B
:10FC6000817E7877756E6964646364615E605D59F6
:10FC7000595D636F777A7B7872696A6A696C75819E
:10FC800082807E7D7F7A7A776E706D6A665E625F53
:10FC90005550494441494D515C5F6565626A6B77D7
:10FCA00086909DA1AAB4BAC2C2C5CAD2DCD9D5D5A4
:10FCB000D4D6CAC0B9A69A9196958E887D78726B73
:10FCC000625E66696867615F5E565A5C5E6B6D7600
:10FCD00075767A7A7B716F66636E767B7E7E8486BC
:10FCE0008281726E6D6C6E6262575359585A4F4ED4
:10FCF0004F4D504E535C5D6268686E758998A2AC3A
:10FD0000AEBCBFC2BFBBC8D0D9D9D7D7D0C7C7C276
:10FD1000B5AAA5A6A39F91898580806F5E57575D80
:10FD20005C5D5F5E5A58525057606B72797976729B
:10FD300076776D696E767872757F8386817A736B5C
:10FD40006F7176766D695F625E514C4A524E4F54C8
:10FD500054585B666E707C888F9A9EADB9BDC8BAE8
:10FD6000B4B6BDCBC7D0D3CFCBC3C2B3A8A09E9EE1
:10FD7000958D867D7F827A7568696A6067686A6733
:10FD800066625C5C5F6A6D767979747170676564D0
:10FD900070716D71747C7B7F7B77757174706F6728
:10FDA0006262655E554A434B4A53585F62616A66B8
:10FDB0006C6E78888E9EA6AEB8BDC0C1BEC5C3C2EB
:10FDC000C8C9D5D1D3CEBCB29F9F9796968B898454
:10FDD000827C706665615E5D6165606661636766B1
:10FDE0006F6E797B787D7D7D7466636A6E6E6F77EA
:10FDF0007E7C7D7778746D6C6B6E67615C5F66602E
:10FE00005857544D4D4D535B6469696D69707985E0
:10FE1000989CA9B3C0C2BABABECBCCCFD1CFD1CCFB
:10FE2000CCC9BDB3AA9FA29D948E878C7C70675F5E
:10FE300061575C61646763635D585A5C5F696E73A8
:10FE400074787D74716B74756D74707C8685867E34
:10FE5000736C686A6D67615C606760544D514C4AB1
:10FE60004E535B59636C6F76777B858E99A4AFBEDA
:10FE7000C2BFBDBEC2C1C5C5CCD6D4D5CDBDB2A64C
:10FE80009F9C9994898283837E746F685E5B555BC7
:10FE900062676C6360575660676E6E70747C7D73CA
:10FEA0006F6E6D6F70737B7A7F8486887F797575CE
:10FEB000706764666E685E594E4749494D52575E99
:10FEC000616665666E73808995A0AEBDBEC4C4C20E
:10FED000C1C1C6C9CFD6DAD5CBBDAFA49E9F98927B
:10FEE0008B8A8B867D6F6965605F5E5D606464642C
:10FEF00062605D6269686D727C7D756F696C696B4B
:10FF000071747A8184858379716D6D6E6A636066C0
:10FF1000676A68625D504C4B4E5B68716E6B6766DA
:10FF20006C737E8893A1B0B8BFC1C2C1BDC1C3C646
:10FF3000CCD3D5D1CEC3B6ACA39E9388888B8B8609
:10FF40007B71645E5E5D62646766625F5C5F5E6279
:10FF500065636C747A797674716D6A6C6B717B848D
:10FF600087848278726C6A655F626367655E5C57DE
:10FF70004F4C4C4B4C525C68737677777883858D09
:10FF8000A0AFBCBBBFC1C0C0BEC1C3CED4D3D1CA59
:10FF9000C1B6ACA6A49B908A8A8B87857F75695E63
:10FFA000585964686C6962635D5D62656469747EFA
:10FFB00080797470706D6B6A6C72767E8187847ADA
:10FFC000746D69615F62635F5D5E58544E4A474974
:10FFD000525A67676A686B767C8084939EB0BCC413
:10FFE000CBCACAC3C1C1CCD6DAD9D2D0BFB4ABA1B7
:10FFF000998E8A898E88857B726E615D585B5D60A3
:020000041001E9
:10000000676B6C666766645E616D777B7674706F34
:100010006F6B6C6A6F757E84837E757777726D63A4
:100020005C595D6267605A554B4A4A4F575F61633E
:10003000646770747B7F8698A7AFB7BFC0C5C4C123
:10004000C2C1C9CFD5D9DBD1C5BFB5AB9C94919006
:100050008C86847971685D59565A5B5D615E5B5E22
:100060006263605E646D75797B7B7573706E6E6DB7
:10007000737C8385817A747676706A65615E5F626F
:10008000645F5954514D4C50525F686A6D717A7C6F
:100090007A818F99A6B2B7BEBFBEBEC1C5C8CBCA52
:1000A000D1D1CBC2BCBAADA398918E898889867D07
:1000B000746A635F5E60666A645F5A5A5F5F5E631C
:1000C0006D6E717370727170716C6F73737E8687F1
:1000D0008481817B726A66635F6362636058575490
:1000E00053535154595F63656C7475798089919A43
:1000F000A8B1BDC4C3C3BDBEC3C8D0D4D4CCC2BBD9
:10010000B6B2ACA49A918C8C87837D766F67665F5C
:100110005D626569686767676663676D7179787640
:10012000746D6C68676B696C707579787B777672C3
:100130006D6A64615F616462625F59544F4E555AE3
:10014000606061666B71767E818C99A1AFB6BABD35
:10015000C0C1C0C3C4C9CBCED1CEC8BFBAACA499AC
:1001600093938D89827F75706B635F5A5F5E616266
:100170006163616564696C6E717278787E7D767496
:100180006F6E747C7E7F78757373726D6A63605B6B
:100190005E5F5B5A545754545451565861676D6EA4
:1001A0007076767D8698A0A7ABB5BBBBC3C1C5C62C
:1001B000C8CACED4CAC9C3BCBAB2AA9C948A898A16
:1001C0008C86756E64615D60615F5D5A5F5D615EC6
:1001D0005E63677376767276726D716F7470727625
:1001E0007B8485837B7A746D6E6D69645F5B5D5A19
:1001F00057514F4F4B5456606260646575767C83EF
:1002000089979EABB5BEBFBCBEC1C6C4C6CAD0CD61
:10021000CBC4BBBAADAAA29F988C87818178767136
:100220006A635C5F60666461626364616466707483
:10023000767774756F6E6C6E6E7277787D7B7C7678
:1002400079797170666563636362635C5A5A565567
:1002500056585C5D60626268656F798390909EA578
:10026000ACB3B5BEC0C6C3C6CCCFD5D1CDCAC3B85A
:10027000AEA8A69D948F88877E79756E6A62616448
:100280006967606062676465696E707279797973B5
:10029000706F6C6C6D74757A7C77767370706F6D3F
:1002A0006B62605F5D5B575B5959555358565E638F
:1002B0006A6E6E717178828B939DA3AAABAFB6B64E
:1002C000B8B7BCC2C9CEC6C6C2C2C2B9B4ACA09986
:1002D000969491887E77736D6564626465626461EB
:1002E000615F62656B727379797572747674726E20
:1002F0007072777B7C7C7673706E6F6A64625E5717
:100300005855545653515354545A5A5C62656C6E46
:10031000767D848D95A1A7B0B5BCC4C1C1C2C7CE3E
:10032000D0CCC7C1BDBAB6B5AEA597928C85837B3C
:100330007A76716B65666368676665636565686A2A
:100340006C6D767977736D6E6A71727174747B7986
:10035000797576777678706C6361625E5D59585511
:1003600059595658565B5D5F61646A737B82898D0B
:10037000989EA6AFB2B8BCC1C2C6C7C8D0D0D0C9BB
:10038000C4C1BEBAB0A799908C867F77706B6B673B
:10039000635D595E5D60616462636B6B73727275FD
:1003A000787B74747170727376777A7878717274FE
:1003B0007275706F655F595859565E5A5C5652583F
:1003C0005C61606663676E7681848D8C989FA8AF50
:1003D000AEB6BAC2C1C5C8C7CAC4C6C3C3BFBBB61E
:1003E000A99F94948E90867A7A70726B68655F5F2D
:1003F0005B5F5C5E5E6067686F71726F706F717378
:1004000071766E72777C827E7D73777979746B6694
:100410005C5C55525256564F575A625E5A5A5B6A46
:10042000696E737E8381858B9CA8ACA6B1BCC3C763
:10043000C2C5C0C9CCC6C1B9BCB6B7ADA4A4928769
:10044000828382817F786F6B7269656461605D61B0
:10045000606D716E71707977727071757978717283
:1004600073737470686B7471716E6A6763666461CC
:10047000605D5855575454504D535A5D5E667681B1
:10048000858E9499A7ABB0B5B7B9BBBEB9BDC5C889
:10049000C5C1C2BFBDC0C0B7B2AA9A8F857B7572F5
:1004A00068646C6E69616266666B6B6A6E73736FAB
:1004B000767473736A67696F6C6C76797981847D01
:1004C0007A787776736B5C574E4A4D50534B505445
:1004D00058606361606C6E6C69686C77808388912A
:1004E0009E9EA5B1B3B9C3C9C9D1D1C8C9C4C2C040
:1004F000BBB3AAA9A49A9292898683797773766FFF
:100500006D675C5E595A565763686E7073737A8074
:1005100080817E7A797D797A7875747178726A6D66
:100520006F6E6B6A605B5F5C5A544E4E5356524F0F
:10053000555B5E6B6968707D8A8FA1A7AAAEAEB06D
:10054000AFB0ACB1BFC7C7C7C3C3C6C3BEBAC0BADA
:10055000ACA797897F7D7C6F696461666C6D6B6BFE
:100560006967696C72797A7873716D61636B6667BC
:10057000666C6E75817B8184817D7B7A716D655F30
:100580005C58545156534E50595C6064646B6D6BAB
:10059000656774737C898E9196A2AAB6BAB9BEC7F4
:1005A000D0D7DBD5CAC5C4BBB1B0AEA79A968A7EF8
:1005B0007F7A7D807C7570706C696A68656564653A
:1005C00069706E737B7A79777B7973706E696E7000
:1005D0006E706B69686D6D6E716C696262615F608F
:1005E0005E5651504C4D54595B6166646B757F8CFF
:1005F000959FA5A5A7A3AAB6B2AFAFB3B8BEC3C512
:10060000C9CCCFC9C8C7BCBAB59F91877B77716C7D
:1006100065605E5C61686764676C6E757D78717437
:100620007271706A6666665E60696D767B818281D2
:100630007F7570737167615D5450504D4E525456C2
:100640005860676B73727172707076848A919CA126
:10065000A1A5ABAFB5B9BEC0C7D0CAC3C1BAB4B605
:10066000B1A9A79B9495908B838383787879716CDB
:1006700072716B69665F5D65696F747471757876A8
:100680007C7A746E6C6B686F6D696C716E66686C89
:100690006B696E69666A615B57524B4C4F4E565799
:1006A000595A5F696D79869197A6B1B3B9B7B8B653
:1006B000B7B3B2BCBBC4CAC9C6C3C4BCBCBDBAA86C
:1006C0009892857A747064625F57585E6669707339
:1006D000737474787A807A7E7B78786F71686166DB
:1006E00065626C7475758081777876716E65605A15
:1006F0005B5D515D565056545D617072696A695F09
:10070000626A7378808A8B979FA8B1B8B9B8C8C558
:10071000CDD5D3D5CACCBFB4B1ABA59E988B8382BF
:100720007B77777A78706F6D6E66676262685C6BF4
:100730006E7477747D777C7F7A706A6766656D7199
:100740006F73706E70666E686B6D67716B706A6ADE
:100750006659524B444F53505B5B6161707E839A84
:100760009BA6A8B1B5AEBCB6B5B3B6B6B8BEB4B06C
:10077000B4ABA9ACB0AEA8A8A0A0948B80808170C7
:10078000796F757B797E6E6B6A625E65696460669F
:1007900064696D6E676D6768727086878E8F8D8AEB
:1007A000746F6B5D574B48464446474A5258525AFD
:1007B000627F787F8D7F86838380888D83858E940A
:1007C0008F9CA5A6B1C0C1C9CCCDDCC3CECDBEB96E
:1007D000B2B19D8A82796B6E69696A6B645F6B6E78
:1007E000726B82776E7E8085829381767F7B68676D
:1007F000655E5E5F635B626A6D64867F6C87868818
:1008000079867E666A5B4B474543313D4B4856636C
:100810005B597D7685A3AFB3A9C1B9A9B1AD9D964A
:100820009D9A8F9DABAAABBCADBAC4B8CACACBBAAD
:10083000B1AA8F7D796C5F535142476059556A6404
:1008400069897B9099979890987F6F6F665C4E5AF4
:10085000534C606666726F61867B869086856E7982
:10086000695B5D4F41353E3E43585C57656C65871B
:100870008199A9B0C4B5C0B1A9A9AAA196A4979A13
:10088000A8B0A9B1ABA0C2AEBEC6BCC0B3B3968D72
:1008900085786B5C5E4E4E57584E5D4E597A67892F
:1008A00090979A97A18B878072605752464D5C55FE
:1008B0005C6B557478748A8A978B93876C6A6557DA
:1008C00049443B313B4C46595A557B7388A1B7C0CC
:1008D000C1D0C1B7B1AB9D9A9A93939EA099A692AD
:1008E000AFB4AAC7BECAC1C5BA9F96877367675916
:1008F0004F526259675E6387708A9A9E9F9D9E845D
:1009000079725E4E5D534D55575665655F80717ABD
:10091000848487858E73686243344A4B414E534AC0
:1009200054564F75686D88909BA2B1A6979F9E877D
:100930009C9F96A6B0A7ABB29FBCB3B6CFCCC8C2A3
:10094000C3AF9B9C85636E6C656E7B6C67605277F2
:1009500065768D828B888D877B806F5F6960566C32
:1009600080686E575772607C8788898B8D72686348
:1009700048424D4F4D5E634C57425B64577D818AC0
:1009800094A08E828C877980999588A69C9BA79C41
:10099000B9A4B3D4D2DAE3D4C1B6AC988790857346
:1009A00073806977676F806188928589918C7F7C7D
:1009B0007861595F5A556A6B66675F8173799B8D61
:1009C000869E9C8A84827052514537414C3E4A3DF6
:1009D000496454737C717F857A80817A675C5F5546
:1009E0005E7E77878F83B9AFACD2D8D6E6D9D0D523
:1009F000C4B3999E99838C8F7B84737C8E7592A1EE
:100A0000939DA68F87856F5F5D5E525168525969CD
:100A10005A6E6A7592938DA69B8A8772635E63573E
:100A20005463635557454C5F5C727C73828C737062
:100A30007057444645475269605F62587A8193B463
:100A4000BAC5D9CDBCCAC0B1ACA8A2A5BAB3A4A836
:100A5000969DA499B2BCA8AFAD96918F7A64695D5A
:100A60005867695C5C5F616C696F888A849890855F
:100A7000887263676F6B696E5B5A665968706975D7
:100A8000746A73776B6865554E5D58565F554E595D
:100A9000555A6C6A7A8780889B938CA09C94ACAEE4
:100AA000A1AEBAAFB0AFA9B8B6B0BABFB7B8B19D32
:100AB000A39D8B91957F7B8B7F74797062635A5E67
:100AC00077797A7B71666F7A727D7B727B796E75CE
:100AD00074655E585E6F76707B7E7075736661605C
:100AE0005B59616659534E3E414D58616D7B7E8620
:100AF000908E88868E9A9CA6AFAC9C938B8FA5AC6B
:100B0000B1BEC1C2CFCDC3BBAEA7A19B9592887C1D
:100B10006E61616365717B7D89938C8481847F774D
:100B20007475766C625856545862697780878C89E0
:100B30008487857E7B776E655646403B353A474DC8
:100B400055687A7F7F787778727A7F7E786D635F79
:100B5000676C7B8D9DAFC0C7CED4D0D4D3CBCAC871
:100B6000C1B5AA998B7D7172737A8896989898937B
:100B70008F8A847D7F7A6F6A6560564B4B506377AE
:100B8000858D91959089898C857F7266615C5B54B7
:100B90004B4349515B6B6D73797772706D615F5C2C
:100BA000595C594F4B4C4D5E6D818D93A1AFB3B7DE
:100BB000C1B9B2AAA1AAAFACA39D959BAAB4BDB975
:100BC000BBBBBBB3ACAA9B917E75726D665F5A4E80
:100BD000545D6977858E8E8B808286827C766E6886
:100BE0006A5D5859515B68717C8B909191898579C8
:100BF0006752504F53584A423D373D535D6D827A9C
:100C000081979890887F7C80868A909486808C9A41
:100C1000A7ADBED6D5D5E0E0DDCEB1A1A49888863B
:100C20007A6C64656A777A819098A5A49D8F867A9C
:100C30007474645F5948425151596A72818B92941D
:100C4000A19E9185726F6B5E595E4D3A3C3940545E
:100C5000636C7C848684766A5F5655636963635DE2
:100C6000595D5F6D879EABBDC6C8CBB4A9B0B0AFB0
:100C7000B0B3B3B3AEA6A197929591939C9BA4AD4C
:100C80009A898379747F7B747774746F625454503B
:100C90005A767F84867F79847C757870726E665D03
:100CA0004D43455258606E756D72766D6F6D7179FA
:100CB00075706D66605D5A5A666E7595A4989392CC
:100CC00096A7AEB1AB9595A7A49FA7948199B3A819
:100CD000ABA9A6AF95B8D9B8BFBD947869633B3BC3
:100CE000605B67797E959F7F928F68686860678296
:100CF0008194A08D76493034211E586A6186956BA7
:100D0000493E2D2E567D8BA3B5C2B98A7663515FBD
:100D1000716E8EA4939DAB9F86866F829B87A1B1D7
:100D2000A0B3C09A6E595247638D9E998DA4BCB0F2
:100D3000ACAE81739E91706E7068697B82756254EF
:100D400065859FB7B5C2CEC2B19F7B584D534D3C10
:100D5000434E606B6C71625A74776E798D9695AF65
:100D6000B59864404F584F627C7289ACA28A838EDA
:100D70008896A49792776F878F9C7F546779736961
:100D8000727F7794A9A7A1807E76615F626883A550
:100D9000917D786A4E496879897B718DABB3A89E45
:100DA000949D9B9A918572637479828076746B5F4F
:100DB00077807D9C9E8B727C847B827263504555CC
:100DC000748792999DB3B49B828F9B8E999E9279E2
:100DD0006A696757403B4381B5BFC0BBA6929FA7D6
:100DE000997F5B445458545B45394855699BC4C44A
:100DF000BBBBB1A39288907B615C4F5C84887567B4
:100E00005C6285B7D6DBCAA18C806E746C5F6E683D
:100E100057545E54363A4F789198BED5B49E8C7A2A
:100E20008D8C7669635B5E70776D53445A83A3C083
:100E3000D3CAD0D2AD8B7B6A534E5B665C3E4054C6
:100E40005054728AB3D7CBBBAF997F778486674300
:100E5000383E414556596F9EC0D6DDE0D3B3A199C7
:100E600086614C544D3C4B524557626973A1C7CCC7
:100E7000D2C6AE7D605F5E564E44405C716D656C5F
:100E8000818FB2D9E5CFA6908E76645D5060787B75
:100E9000686B6F666A8AAEBBC0BFBD966C5D434827
:100EA0005960565264676F83917D7995C2CFBDAA10
:100EB0008071838B7C6366656083A1957767799980
:100EC000A7B5AA968B837762585748567271797A7C
:100ED000717C7D86949EB8C9B4786A705C697C75B3
:100EE0006952629CA18E816E84B2D6C6A89467575F
:100EF000686961473E5C6A879B7160738DA0B9C564
:100F0000AD927D706754455852546B7E95939E8D7B
:100F100081A4C3DBD9CAA16B47515D58503E496DCE
:100F2000A7AC86756175A7D8D8B16E464F4E565698
:100F300041345C789BBA937E758DC3E3D9B69454E3
:100F4000484E4F566C655D7C8DB39F877F657A9D5B
:100F5000CFB59371353C556B63544B688EC0E4AB91
:100F60006B496299CBD59C663D516D7C7F6F5A6908
:100F7000AACCDEA55E484B85B3C5A07D57355F7210
:100F80007473655D8395A5B2643B354894D4C57987
:100F90005C3E598A9BA57B4D5CA4B7C4952C234429
:100FA00096DDE5AF6C4E579E9D7D644B5489B4A38E
:100FB00090402A4F66B8CCA77A6A6074917D7B59BD
:100FC00051719FB2B79C3E4C7296DDE1BB835F5777
:100FD000908E685A2C4799D1BAA6611C5781CAE1F4
:100FE000986C635E6C93533E424891C1D2AF854189
:100FF0004E898FCDBB937F6A5F6B775968497CBC04
:10100000C3D8AE7D3031618EC2A0905D5A798269BD
:10101000505B4EA3CEE0C3624A2642759CB3959CBA
:101020007D7D7C7B65608293C8B9C7AF664E1C2D01
:101030005792CEB6A37D6A6273756F60639CA7B842
:101040009756341B4A7EABD9B69E8C8B89776671D6
:101050007577A0A19985665D3E5088AADCC9B885E0
:101060005D62606164655980A0B4A4736439428D87
:10107000B4D4AE97795A5C5D56516D7393A7B6B3ED
:10108000827B63537989BFB9987E4B4760737470D4
:1010900067889ABCD3965F2A155872ADB07679618D
:1010A0007183878271709EC0C1BB7D5333185C69A8
:1010B000A0CCA49F7A8187808A88757F99A7AB7915
:1010C0005029094E78A6CCA4A17986A2837A645DC2
:1010D000788EAAA670564C2A5988A6DBC4CFA9855B
:1010E0008F727D6D5E685B809C9179572E386CA104
:1010F000E1BAAD89626D54715C556E6B92A0A18DA1
:101100006B5A5A7485C7C9BF9C5C564376807583F9
:101110006B7E96B7BE89562F4566ACC3AC8A525AD1
:10112000587E94868569829496A48966343E507A66
:10113000B9C4BD81736876A3A5A67868828FA59689
:101140006E2F2B457DC3C6CB89666F74877A8C6FF3
:101150005867687A777E5C485A7DBBCAE2C38C6068
:101160004C747A8C7D5757618B9698765B5979C50C
:10117000D2DDB3865B3C564A637073766F8A8B917F
:101180007A7F786E99A6C3AB8D60303A4F828A8E93
:101190009082919BAB877979799FA1B29174634AD0
:1011A0005152777A89A2A19972715A58636A7C7CEC
:1011B000A29D947C5E5C4E7D9AA8A4949A787060FF
:1011C00055506698AAC5B4A37B647661787F929BDC
:1011D0008D91645643506578A2ADBDAEB08F625517
:1011E00045646B8A8E747F6F776767737AA1C4DEFC
:1011F000C7AC8569584D5D5269868D9C8D8062555E
:101200007293A5A8B0A7947A62422F44577690991A
:101210009A85898982858C988F8E87726664686BBF
:101220007683929094A9978371727D808D806E6988
:101230006C70747A7C7F859EAD9B907A6B606371D5
:10124000646C767C898C8C8278849EA1A1A799910C
:101250007D6B59526D788991918C797F87827B85DE
:101260008C8E998973524A585F7D8C9A928F9D918A
:1012700082787A777F84817F7A7D74737C7C848D99
:10128000A0A695867A7472786F64666E7D858A8969
:101290007B737B8F959592836F69625B636B7886B6
:1012A00093A49E929390867581969B99876B5D5CC3
:1012B000657D818A8E889AA6A48E776D6470787316
:1012C0006C6662656B77897F859A9D9B91918A7B1D
:1012D00070666066757C838282807D919794949518
:1012E0009186817260585D636F7F898C7F888F8063
:1012F0007C858C8D8C7E6F656471747A85847D8825
:101300009C9A938C8683898F86766C737680929173
:10131000837C838586878A88787367656E757A771C
:101320007B7D7F838F93837B7E898689755F6163F5
:101330007C858E958C8A949F8F85847E7D7F786650
:101340006767737E80918A818997998E8B7F7A787F
:1013500074695E5B5F6C738A928A90949690969B98
:10136000979688786A676E71737F88828C9B99865E
:1013700077797D858D806B5E5D666C7277726F812B
:10138000979B99928482807B716D6A737A818D8537
:10139000818B948B8B9290968D7D6B606670787646
:1013A0007F7A727E8788848582898C83785D5A678C
:1013B0006E7A80878085918F8D83858E96978D7FBD
:1013C000767677818A8A7F79838C8A89857A777E17
:1013D0007D7A73737F76757E7A7B7E868A85868832
:1013E0008F937F6F696F80858C92817886949480CB
:1013F0007A7A84938B806E63686A7281817C858B34
:10140000928D8A8778747075797878736E7C82880B
:10141000938E90807E858B8C827253627C97999597
:101420008C767C82A79884725D6F7B7442383867B3
:10143000AFD3E0B074586969807E7178829C9E93C6
:1014400050383A67B9D5CFA37F68848C95805C60AB
:10145000698F8D8452254774BCD8CCA175718A9848
:1014600086693D4A72A3A77F5D304D7BB8E5C09D7C
:101470007B738990674B3D5C96AAAE885B3B407F4F
:10148000A2C5C7AC9D7C5E5146496D7B9AB0A28EC9
:101490006C6044437D9ED6D4B07C463B57646E87D7
:1014A0008BADBAB38D5246305599B0D0AC887358D5
:1014B000526565718DA5BEB2927050543B547F99B0
:1014C000CEB9997B574855648B969FB3AC9D7A4DA6
:1014D0005234629CB0E2BF946B4F586E6F8A9BA5EA
:1014E000B3A07F51324D3E71A7B7D1A1836C555C3B
:1014F000776F909293A2928A69445A3D5993AEDFD6
:10150000BE9E816763685265748CADB49F69374530
:101510003D579EB0E1C9A3845D556559749093A56C
:101520008C655B4D5E56579299CCC59D795D616B1C
:101530005C6F7776AEBA9B824E3F452F7F91BBE4BE
:10154000C0A177545C617393A2C5AA7965575159BC
:101550003D7D9BAFB577716B638B9868564983ACC3
:101560009A94835A5F2F3780B5EAD0BF8F5655764D
:10157000839BADCBC397672F103F566FC0BECE9CE9
:10158000787451688C786F6458687A8B8C81695450
:101590002B659ED3ECD4C585563F2A4F85A7E2D153
:1015A0009F5E3E455B4A73B5C7E79A553C365B790B
:1015B0007C816274999A8676706D6553768ACEDDE9
:1015C000C3B274585452798CA4D4BCA67E4C2F411B
:1015D0003775BACCD48A6D51406173747B6F797161
:1015E000808682888B644280A5DCC8B5A36D635178
:1015F0003B5C7FA8D1B7995D4252624078ACC2DEB5
:101600008C583435698B908C6F7A8993887E7C7680
:101610006B506980CAD4C7B97857434F737993B870
:10162000A2967D4835493F86C0DCD577644E45613A
:1016300075767F748081838E898E8D6E3C739BD18D
:10164000D0AC97635F442A51729DD4C8AF6B5049A8
:10165000483D63A3C0E599502F3B678196A48A9AC1
:10166000AE9B8D7D7F6F714949639DCBB5B07E5533
:10167000485A7B8394B1A8A687532E30354AA4C11B
:10168000D5A880785A677A869C9B86817D888494C9
:10169000917F3F4185A4D9BB9B8571603A406072C0
:1016A000A6C1AF855B514C4F427791C7CB7E6E563A
:1016B00068879397836CA1A79CA08C817957214F51
:1016C0007CC6DAC0A65A495B666F6F85ACAAA15882
:1016D000393542516BAEB2C7B7A1816174828FA117
:1016E0007C75918C9A8C977253364788A1DEBC9C8E
:1016F000844E423B476C8CBFC3916C54574E62542E
:101700006CA8C1D2A58263668F917D777C9A9697EB
:101710008F797B5A4E345B8EBCECC28D534E605732
:101720005A71779D9B7262516363807D87A2BEE18F
:10173000AF8A655C75775E596794B7B3A579594DE3
:1017400068586A95ADD2B47C3A1E385B7EA5A29DDE
:101750009890867B92807B5A567A95C6AE988D7A01
:1017600070666A74789EBDA8996E553F41353F9763
:10177000CDEAB7846048657D8083827485817D74FD
:101780008193846A4E80A5D7D7A184685740394495
:101790006490C7B38E73686B59624774B6D7C26FD3
:1017A000442D55868A7C849DBFB2A1957E8E726041
:1017B000394584B3E6B57B4B517573717A87A6B80A
:1017C000826242424E64745C839EC7B9988D749164
:1017D00097775E6D819FA49581676F6A6E566FA142
:1017E000BBE0A570534861686F7D7A879A7467671C
:1017F0007685826E376698BED0AD996C677A6758E9
:101800007C96BBC598724E61565E687AABA7CAA833
:1018100074634D596C7273758B97727F898A775F89
:10182000684484B6CBE9B5935B49575875A5B4AD08
:1018300098756A60755552665095ACC2AC787C63F9
:101840005A6065687A8F9D9392926D715D5A688631
:10185000D4CBD3B97E69545F6677897A748D7F72F1
:10186000868A7B4E5C5A60A19DB4A6886B41555513
:101870006489A6AEA193948C847A4E6D737795910A
:10188000A9868E9B827F666B6F7695928E9A815A1F
:101890004328373C7ABAADC8A894816D74648589B1
:1018A0007A85857571828B7E556E5F71AEABD1B7CF
:1018B0009F6D4057434F687B95948F867472685331
:1018C0008076729791B78D888E68776A7B747993EA
:1018D0008D9BA38D7064474E4E6CA390BDAF938BD0
:1018E00062756A8181687A7573758E9277555B5CD3
:1018F0006DA49EC6C5AA946672534E64747D758AA3
:10190000838C95836D757A5874809D9E8DA4736DBC
:1019100062575F668D97B7C2AB9A89775D626B7EBF
:1019200087A4B49192787C81767A5C70808A918F5A
:101930008B6462564F494F7BA4E0CEAC8B757366C7
:101940008B887E8388938690807D8481665287947D
:10195000B5BCAD9368795E5E5849617BACA1969445
:101960007E6E61715D6F93A5B9A1A1848797747133
:1019700068758299B7A2958680655750487CA0B655
:101980009D94956F7875684A4A6F7B908F8D8C9B7C
:101990008F5C544F7493BFDAAAA4968E8161544C25
:1019A0007B938C817F92909D7B4933467B91AE9255
:1019B0007F9290865A4F4E5584A6A494A19E877814
:1019C00058566586958897858995A495616A62635E
:1019D000757D8481978C7464524A3F73888CA6A26B
:1019E000B19F907C697D73696B768080A0A08C75B7
:1019F00067646B8F879BB6B7AF868067515C584F23
:101A000059777E898C8578728471727F819399AAC7
:101A10009576776B6A6A6B748A9E9D948A88716CDE
:101A20007B6665656F89979F8B878272625E756E34
:101A3000788D87816B6E69727C6A8695A79B8D987D
:101A40007C7C7F8578666B5E7177828D909E7C71E1
:101A5000737C888C997E757A747D757D8086938978
:101A600088858A84879178675C676F737D81A5B567
:101A7000AC938083717C857D6A5D676871644F5823
:101A80007B9C8E94A39FA1A4A0816E6060666C6E07
:101A9000698590847E7C807E939C8C867A7D7D7B1C
:101AA0006C5E666A6D6D858A87999A8C756E6E79A3
:101AB0009194959B9F928085867A8192897B76719D
:101AC0007476766E6E7B7D7478929699A293745B31
:101AD000585F6E7A757B858B7E737D7B8197A7A21D
:101AE000938A7F8482757A849082757D7B839EA59C
:101AF0008A70625C6C7F807A82877D767A7E758957
:101B00009C978A81828189817D858C8C7C7F827D76
:101B10008797978B7B7680868482858C856D6A72A9
:101B20006B6D716C696C747C8987828799A38F81D6
:101B30008480828E86746B666D7A828484929C8C9B
:101B40007A82858A9D9B826B61697B83827B7F879A
:101B500081777B7D7482867C6F5D65768C90878EC5
:101B60009A9885898982909C9983674A4C6370779B
:101B70007990907E7E83848A98948677686A7A8644
:101B800085828A907C747D7984908F826B5C5A6A9E
:101B9000787F8A9FAFA08F887C798586755E525842
:101BA00068797A75879B94898C8F919DA79A7E64BA
:101BB000565A676F7078929B8E8D8C838F9D97821B
:101BC000685D66767A6A646F7E808691939FADAE1B
:101BD0009B7E66616F756E7580837A7D89858B9734
:101BE0009C917C6B64747B797F82887E7785848608
:101BF0009DAB9A7C6258636967676E7F85808A9324
