Component: ARM Compiler 5.06 (build 20) Tool: armlink [4d35a3]

==============================================================================

Section Cross References

    main.o(.text) refers to gpio.o(.text) for GPIO_Pin_Turn
    main.o(.text) refers to debug.o(.text) for dbg_printf
    main.o(.text) refers to delay.o(.text) for delay_ms
    main.o(.text) refers to main.o(.text) for BleInit
    main.o(.text) refers to memseta.o(.text) for __aeabi_memclr4
    main.o(.text) refers to memcmp.o(.text) for memcmp
    main.o(.text) refers to gpio.o(.data) for GPIO_IRQ_CTRL
    debug.o(.text) refers to uart.o(.text) for uart_0_init
    debug.o(.text) refers to printfa.o(i.__0vsprintf) for __c89vsprintf
    debug.o(.text) refers to debug.o(.bss) for s_formatBuffer
    gpio.o(.text) refers to gpio.o(.data) for PIN_CONFIG
    gpio.o(.text) refers to gpio.o(.data) for pinmuxtab48
    gpio.o(.text) refers to gpio.o(.data) for GPIO_CTRL
    gpio.o(.text) refers to gpio.o(.data) for GPI_CTRL
    gpio.o(.text) refers to gpio.o(.data) for GPO_CTRL
    gpio.o(.text) refers to gpio.o(.data) for GPIO_IRQ_CTRL
    gpio.o(.text) refers to gpio.o(.data) for GPIO_IRQ_CTRL
    uart.o(.text) refers to gpio.o(.data) for PIN_CONFIG
==============================================================================

Removing Unused input sections from the image.

    Removing main.o(.rev16_text), (4 bytes).
    Removing main.o(.revsh_text), (4 bytes).
    Removing debug.o(.rev16_text), (4 bytes).
    Removing debug.o(.revsh_text), (4 bytes).
    Removing delay.o(.rev16_text), (4 bytes).
    Removing delay.o(.revsh_text), (4 bytes).
    Removing delay.o(.text), (26 bytes).
    Removing gpio.o(.rev16_text), (4 bytes).
    Removing gpio.o(.revsh_text), (4 bytes).
    Removing gpio.o(.text), (160 bytes).
    Removing gpio.o(.text), (56 bytes).
    Removing gpio.o(.text), (56 bytes).
    Removing gpio.o(.text), (56 bytes).
    Removing gpio.o(.text), (56 bytes).
    Removing gpio.o(.text), (108 bytes).
    Removing uart.o(.rev16_text), (4 bytes).
    Removing uart.o(.revsh_text), (4 bytes).
    Removing uart.o(.text), (56 bytes).
==============================================================================

Image Symbol Table

    Local Symbols

    Symbol Name                              Value     Ov Type        Size  Object(Section)

    ../clib/microlib/division.c              0x00000000   Number         0  uldiv.o ABSOLUTE
    ../clib/microlib/division.c              0x00000000   Number         0  uidiv.o ABSOLUTE
    ../clib/microlib/division.c              0x00000000   Number         0  idiv.o ABSOLUTE
    ../clib/microlib/init/entry.s            0x00000000   Number         0  entry8b.o ABSOLUTE
    ../clib/microlib/init/entry.s            0x00000000   Number         0  entry.o ABSOLUTE
    ../clib/microlib/init/entry.s            0x00000000   Number         0  entry10b.o ABSOLUTE
    ../clib/microlib/init/entry.s            0x00000000   Number         0  entry11b.o ABSOLUTE
    ../clib/microlib/init/entry.s            0x00000000   Number         0  entry2.o ABSOLUTE
    ../clib/microlib/init/entry.s            0x00000000   Number         0  entry11a.o ABSOLUTE
    ../clib/microlib/init/entry.s            0x00000000   Number         0  entry10a.o ABSOLUTE
    ../clib/microlib/init/entry.s            0x00000000   Number         0  entry5.o ABSOLUTE
    ../clib/microlib/init/entry.s            0x00000000   Number         0  entry7a.o ABSOLUTE
    ../clib/microlib/init/entry.s            0x00000000   Number         0  entry7b.o ABSOLUTE
    ../clib/microlib/init/entry.s            0x00000000   Number         0  entry8a.o ABSOLUTE
    ../clib/microlib/init/entry.s            0x00000000   Number         0  entry9b.o ABSOLUTE
    ../clib/microlib/init/entry.s            0x00000000   Number         0  entry9a.o ABSOLUTE
    ../clib/microlib/longlong.c              0x00000000   Number         0  llshl.o ABSOLUTE
    ../clib/microlib/longlong.c              0x00000000   Number         0  llsshr.o ABSOLUTE
    ../clib/microlib/longlong.c              0x00000000   Number         0  llushr.o ABSOLUTE
    ../clib/microlib/printf/printf.c         0x00000000   Number         0  printfa.o ABSOLUTE
    ../clib/microlib/stdio/fputc.c           0x00000000   Number         0  fputc.o ABSOLUTE
    ../clib/microlib/stdio/semi.s            0x00000000   Number         0  semi.o ABSOLUTE
    ../clib/microlib/stdio/streams.c         0x00000000   Number         0  stdout.o ABSOLUTE
    ../clib/microlib/string/memcmp.c         0x00000000   Number         0  memcmp.o ABSOLUTE
    ../clib/microlib/string/memcpy.c         0x00000000   Number         0  memcpyb.o ABSOLUTE
    ../clib/microlib/string/memcpy.c         0x00000000   Number         0  memcpya.o ABSOLUTE
    ../clib/microlib/string/memset.c         0x00000000   Number         0  memseta.o ABSOLUTE
    ../clib/microlib/stubs.s                 0x00000000   Number         0  iusesemip.o ABSOLUTE
    ../clib/microlib/stubs.s                 0x00000000   Number         0  iusefp.o ABSOLUTE
    ../clib/microlib/unhosted.c              0x00000000   Number         0  uread4.o ABSOLUTE
    ../clib/microlib/unhosted.c              0x00000000   Number         0  uwrite4.o ABSOLUTE
    ../fplib/microlib/f2d.c                  0x00000000   Number         0  f2d.o ABSOLUTE
    ../fplib/microlib/fpadd.c                0x00000000   Number         0  dadd.o ABSOLUTE
    ../fplib/microlib/fpadd.c                0x00000000   Number         0  fadd.o ABSOLUTE
    ../fplib/microlib/fpdiv.c                0x00000000   Number         0  ddiv.o ABSOLUTE
    ../fplib/microlib/fpepilogue.c           0x00000000   Number         0  fepilogue.o ABSOLUTE
    ../fplib/microlib/fpepilogue.c           0x00000000   Number         0  depilogue.o ABSOLUTE
    ../fplib/microlib/fpfix.c                0x00000000   Number         0  dfixui.o ABSOLUTE
    ../fplib/microlib/fpfix.c                0x00000000   Number         0  dfixul.o ABSOLUTE
    ../fplib/microlib/fpflt.c                0x00000000   Number         0  ffltui.o ABSOLUTE
    ../fplib/microlib/fpflt.c                0x00000000   Number         0  dflti.o ABSOLUTE
    ../fplib/microlib/fpflt.c                0x00000000   Number         0  dfltui.o ABSOLUTE
    ../fplib/microlib/fpmul.c                0x00000000   Number         0  dmul.o ABSOLUTE
    ..\..\..\Driver\debug.c                  0x00000000   Number         0  debug.o ABSOLUTE
    ..\..\..\Driver\delay.c                  0x00000000   Number         0  delay.o ABSOLUTE
    ..\..\..\Driver\gpio.c                   0x00000000   Number         0  gpio.o ABSOLUTE
    ..\..\..\Driver\uart.c                   0x00000000   Number         0  uart.o ABSOLUTE
    ..\\..\\..\\Driver\\debug.c              0x00000000   Number         0  debug.o ABSOLUTE
    ..\\..\\..\\Driver\\delay.c              0x00000000   Number         0  delay.o ABSOLUTE
    ..\\..\\..\\Driver\\gpio.c               0x00000000   Number         0  gpio.o ABSOLUTE
    ..\\..\\..\\Driver\\uart.c               0x00000000   Number         0  uart.o ABSOLUTE
    ..\\main.c                               0x00000000   Number         0  main.o ABSOLUTE
    ..\main.c                                0x00000000   Number         0  main.o ABSOLUTE
    Main\\main.c                             0x00000000   Number         0  main.o ABSOLUTE
    Main\main.c                              0x00000000   Number         0  main.o ABSOLUTE
    RTE\Device\ARMCM0\startup_ARMCM0.s       0x00000000   Number         0  startup_armcm0.o ABSOLUTE
    RTE\Device\ARMCM0\system_ARMCM0.c        0x00000000   Number         0  system_armcm0.o ABSOLUTE
    RTE\\Device\\ARMCM0\\system_ARMCM0.c     0x00000000   Number         0  system_armcm0.o ABSOLUTE
    cdrcmple.s                               0x00000000   Number         0  cdrcmple.o ABSOLUTE
    dc.s                                     0x00000000   Number         0  dc.o ABSOLUTE
    handlers.s                               0x00000000   Number         0  handlers.o ABSOLUTE
    init.s                                   0x00000000   Number         0  init.o ABSOLUTE
    RESET                                    0x10000000   Section      192  startup_armcm0.o(RESET)
    .ARM.Collect$$$$00000000                 0x100000c0   Section        0  entry.o(.ARM.Collect$$$$00000000)
    .ARM.Collect$$$$00000001                 0x100000c0   Section        4  entry2.o(.ARM.Collect$$$$00000001)
    .ARM.Collect$$$$00000004                 0x100000c4   Section        4  entry5.o(.ARM.Collect$$$$00000004)
    .ARM.Collect$$$$00000008                 0x100000c8   Section        0  entry7b.o(.ARM.Collect$$$$00000008)
    .ARM.Collect$$$$0000000A                 0x100000c8   Section        0  entry8b.o(.ARM.Collect$$$$0000000A)
    .ARM.Collect$$$$0000000B                 0x100000c8   Section        8  entry9a.o(.ARM.Collect$$$$0000000B)
    .ARM.Collect$$$$0000000D                 0x100000d0   Section        0  entry10a.o(.ARM.Collect$$$$0000000D)
    .ARM.Collect$$$$0000000F                 0x100000d0   Section        0  entry11a.o(.ARM.Collect$$$$0000000F)
    .ARM.Collect$$$$00002712                 0x100000d0   Section        4  entry2.o(.ARM.Collect$$$$00002712)
    __lit__00000000                          0x100000d0   Data           4  entry2.o(.ARM.Collect$$$$00002712)
    .text                                    0x100000d4   Section        0  main.o(.text)
    user_gpio_callback                       0x100000d5   Thumb Code    98  main.o(.text)
    .text                                    0x1000035c   Section        0  debug.o(.text)
    .text                                    0x100003ec   Section        0  delay.o(.text)
    .text                                    0x1000040c   Section        0  gpio.o(.text)
    .text                                    0x100007d0   Section        0  uart.o(.text)
    __NVIC_EnableIRQ                         0x10000ab1   Thumb Code    26  uart.o(.text)
    .text                                    0x10000adc   Section       28  startup_armcm0.o(.text)
    .text                                    0x10000af8   Section        0  system_armcm0.o(.text)
    .text                                    0x10000b08   Section        0  main.o(.text)
    _LCDisConnect                            0x10000b09   Thumb Code    46  main.o(.text)
    _LCTimer_Handler                         0x10000b37   Thumb Code   248  main.o(.text)
    _LCRxPkt_Handler                         0x10000c83   Thumb Code   294  main.o(.text)
    _LCTxPkt_Handler                         0x10000da9   Thumb Code   380  main.o(.text)
    _LLENCReq                                0x1000168f   Thumb Code   286  main.o(.text)
    _GAPStartAdv                             0x10001cef   Thumb Code   558  main.o(.text)
    WaitLLCOverSlpth                         0x1000311b   Thumb Code    38  main.o(.text)
    _BBRXFIFORead                            0x10003141   Thumb Code   172  main.o(.text)
    _rom_rx_sweyntooth_protect               0x100031ed   Thumb Code   150  main.o(.text)
    STKSetRand                               0x10003283   Thumb Code    30  main.o(.text)
    AttWriteFlash                            0x100032a1   Thumb Code   110  main.o(.text)
    GetOverSlpth                             0x1000330f   Thumb Code    26  main.o(.text)
    .text                                    0x10003338   Section        0  uidiv.o(.text)
    .text                                    0x10003364   Section        0  idiv.o(.text)
    .text                                    0x1000338c   Section        0  memcpya.o(.text)
    .text                                    0x100033b0   Section        0  memseta.o(.text)
    .text                                    0x100033d4   Section        0  memcmp.o(.text)
    .text                                    0x100033ee   Section        0  uread4.o(.text)
    .text                                    0x10003402   Section        0  uwrite4.o(.text)
    .text                                    0x10003414   Section        0  fadd.o(.text)
    .text                                    0x100034c8   Section        0  dadd.o(.text)
    .text                                    0x1000362c   Section        0  dmul.o(.text)
    .text                                    0x100036fc   Section        0  ddiv.o(.text)
    .text                                    0x100037ec   Section        0  ffltui.o(.text)
    .text                                    0x100037fc   Section        0  dflti.o(.text)
    .text                                    0x10003824   Section        0  dfltui.o(.text)
    .text                                    0x10003840   Section        0  dfixui.o(.text)
    .text                                    0x1000387c   Section        0  f2d.o(.text)
    .text                                    0x100038a4   Section        0  uldiv.o(.text)
    .text                                    0x10003904   Section        0  llshl.o(.text)
    .text                                    0x10003924   Section        0  llushr.o(.text)
    .text                                    0x10003946   Section        0  llsshr.o(.text)
    .text                                    0x1000396c   Section        0  iusefp.o(.text)
    .text                                    0x1000396c   Section        0  fepilogue.o(.text)
    .text                                    0x100039ee   Section        0  depilogue.o(.text)
    .text                                    0x10003aac   Section        0  dfixul.o(.text)
    .text                                    0x10003aec   Section       40  cdrcmple.o(.text)
    .text                                    0x10003b14   Section       36  init.o(.text)
    i.__0vsprintf                            0x10003b38   Section        0  printfa.o(i.__0vsprintf)
    i.__ARM_clz                              0x10003b5c   Section        0  depilogue.o(i.__ARM_clz)
    i.__ARM_common_switch8                   0x10003b8a   Section        0  main.o(i.__ARM_common_switch8)
    i.__scatterload_copy                     0x10003ba4   Section       14  handlers.o(i.__scatterload_copy)
    i.__scatterload_null                     0x10003bb2   Section        2  handlers.o(i.__scatterload_null)
    i.__scatterload_zeroinit                 0x10003bb4   Section       14  handlers.o(i.__scatterload_zeroinit)
    i._fp_digits                             0x10003bc4   Section        0  printfa.o(i._fp_digits)
    _fp_digits                               0x10003bc5   Thumb Code   316  printfa.o(i._fp_digits)
    i._printf_core                           0x10003d1c   Section        0  printfa.o(i._printf_core)
    _printf_core                             0x10003d1d   Thumb Code  1754  printfa.o(i._printf_core)
    i._printf_post_padding                   0x10004408   Section        0  printfa.o(i._printf_post_padding)
    _printf_post_padding                     0x10004409   Thumb Code    32  printfa.o(i._printf_post_padding)
    i._printf_pre_padding                    0x10004428   Section        0  printfa.o(i._printf_pre_padding)
    _printf_pre_padding                      0x10004429   Thumb Code    44  printfa.o(i._printf_pre_padding)
    i._sputc                                 0x10004454   Section        0  printfa.o(i._sputc)
    _sputc                                   0x10004455   Thumb Code    10  printfa.o(i._sputc)
    .constdata                               0x1000445e   Section       40  main.o(.constdata)
    _ll_packet_length                        0x10004461   Data          15  main.o(.constdata)
    _smp_packet_lenght                       0x10004470   Data          22  main.o(.constdata)
    .data                                    0x20003000   Section       72  gpio.o(.data)
    gpio_callback                            0x20003014   Data           4  gpio.o(.data)
    pinmuxtab48                              0x20003018   Data          24  gpio.o(.data)
    pinmuxtab32                              0x20003030   Data          24  gpio.o(.data)
    .data                                    0x20003048   Section        8  uart.o(.data)
    UART_0_CTRL                              0x20003048   Data           4  uart.o(.data)
    UART_1_CTRL                              0x2000304c   Data           4  uart.o(.data)
    .data                                    0x20003050   Section        4  system_armcm0.o(.data)
    .data                                    0x20003054   Section       64  main.o(.data)
    syd_confirm                              0x20003054   Data           1  main.o(.data)
    ww_minus_cnt                             0x20003055   Data           1  main.o(.data)
    ext_uart_en                              0x20003056   Data           1  main.o(.data)
    get_bond_device_idx                      0x20003057   Data           1  main.o(.data)
    _valid_l2cap_lenght                      0x20003059   Data           1  main.o(.data)
    rssi_rx                                  0x2000305b   Data           1  main.o(.data)
    p_flash_hdr                              0x2000305c   Data           4  main.o(.data)
    p_lclink                                 0x20003060   Data           4  main.o(.data)
    p_txpdu                                  0x20003064   Data           4  main.o(.data)
    p_rxbuf                                  0x20003068   Data           4  main.o(.data)
    p_flash                                  0x2000306c   Data           4  main.o(.data)
    p_dump_key                               0x20003074   Data           4  main.o(.data)
    EFUSE_CTRL                               0x20003078   Data           4  main.o(.data)
    BB_CTRL                                  0x2000307c   Data           4  main.o(.data)
    PW_CTRL                                  0x20003080   Data           4  main.o(.data)
    PIN_CONFIG                               0x20003084   Data           4  main.o(.data)
    CONFIG_FLASH_SIZE                        0x20003088   Data           4  main.o(.data)
    g_evt                                    0x2000308c   Data           8  main.o(.data)
    .bss                                     0x20003094   Section      128  debug.o(.bss)
    s_formatBuffer                           0x20003094   Data         128  debug.o(.bss)
    .bss                                     0x20003114   Section      104  main.o(.bss)
    code_hdr                                 0x20003114   Data          87  main.o(.bss)
    smart_update_ctrol                       0x2000316b   Data          17  main.o(.bss)
    STACK                                    0x20003180   Section     1024  startup_armcm0.o(STACK)

    Global Symbols

    Symbol Name                              Value     Ov Type        Size  Object(Section)

    BuildAttributes$$THM_ISAv3M$S$PE$A:L22$X:L11$S22$IEEE1$IW$USESV6$~STKCKD$USESV7$~SHL$OTIME$ROPI$EBA8$MICROLIB$REQ8$PRES8$EABIv2 0x00000000   Number         0  anon$$obj.o ABSOLUTE
    __ARM_use_no_argv                        0x00000000   Number         0  main.o ABSOLUTE
    __cpp_initialize__aeabi_                  - Undefined Weak Reference
    __cxa_finalize                            - Undefined Weak Reference
    __decompress                              - Undefined Weak Reference
    _clock_init                               - Undefined Weak Reference
    _microlib_exit                            - Undefined Weak Reference
    __Vectors_Size                           0x000000c0   Number         0  startup_armcm0.o ABSOLUTE
    __Vectors                                0x10000000   Data           4  startup_armcm0.o(RESET)
    __Vectors_End                            0x100000c0   Data           0  startup_armcm0.o(RESET)
    __main                                   0x100000c1   Thumb Code     0  entry.o(.ARM.Collect$$$$00000000)
    _main_stk                                0x100000c1   Thumb Code     0  entry2.o(.ARM.Collect$$$$00000001)
    _main_scatterload                        0x100000c5   Thumb Code     0  entry5.o(.ARM.Collect$$$$00000004)
    __main_after_scatterload                 0x100000c9   Thumb Code     0  entry5.o(.ARM.Collect$$$$00000004)
    _main_clock                              0x100000c9   Thumb Code     0  entry7b.o(.ARM.Collect$$$$00000008)
    _main_cpp_init                           0x100000c9   Thumb Code     0  entry8b.o(.ARM.Collect$$$$0000000A)
    _main_init                               0x100000c9   Thumb Code     0  entry9a.o(.ARM.Collect$$$$0000000B)
    __rt_final_cpp                           0x100000d1   Thumb Code     0  entry10a.o(.ARM.Collect$$$$0000000D)
    __rt_final_exit                          0x100000d1   Thumb Code     0  entry11a.o(.ARM.Collect$$$$0000000F)
    main                                     0x10000137   Thumb Code   336  main.o(.text)
    dbg_init                                 0x1000035d   Thumb Code     8  debug.o(.text)
    dbg_printf                               0x10000365   Thumb Code    72  debug.o(.text)
    dbg_hexdump                              0x100003ad   Thumb Code    46  debug.o(.text)
    delay_ms                                 0x100003ed   Thumb Code    28  delay.o(.text)
    PIN_Set_GPIO                             0x1000040d   Thumb Code    50  gpio.o(.text)
    PIN_Pullup_Enable                        0x1000043f   Thumb Code   150  gpio.o(.text)
    GPIO_Set_Output                          0x100004d5   Thumb Code    50  gpio.o(.text)
    GPIO_Set_Input                           0x10000507   Thumb Code   200  gpio.o(.text)
    GPIO_Input_Enable                        0x100005cf   Thumb Code    50  gpio.o(.text)
    GPIO_Pin_Set                             0x10000601   Thumb Code    50  gpio.o(.text)
    GPIO_Pin_Turn                            0x10000633   Thumb Code    50  gpio.o(.text)
    GPIO_Pin_Read                            0x10000665   Thumb Code    34  gpio.o(.text)
    io_irq_enable                            0x10000687   Thumb Code   158  gpio.o(.text)
    GPIO_IRQHandler                          0x10000725   Thumb Code   132  gpio.o(.text)
    uart_0_init                              0x100007d1   Thumb Code   340  uart.o(.text)
    uart_0_write                             0x10000925   Thumb Code    40  uart.o(.text)
    uart_0_read                              0x1000094d   Thumb Code    72  uart.o(.text)
    UART0_IRQHandler                         0x10000995   Thumb Code   106  uart.o(.text)
    uart_1_read                              0x100009ff   Thumb Code    72  uart.o(.text)
    UART1_IRQHandler                         0x10000a47   Thumb Code   106  uart.o(.text)
    Reset_Handler                            0x10000add   Thumb Code     8  startup_armcm0.o(.text)
    NMI_Handler                              0x10000ae5   Thumb Code     2  startup_armcm0.o(.text)
    HardFault_Handler                        0x10000ae7   Thumb Code     2  startup_armcm0.o(.text)
    SVC_Handler                              0x10000ae9   Thumb Code     2  startup_armcm0.o(.text)
    PendSV_Handler                           0x10000aeb   Thumb Code     2  startup_armcm0.o(.text)
    SysTick_Handler                          0x10000aed   Thumb Code     2  startup_armcm0.o(.text)
    CAP_IRQHandler                           0x10000aef   Thumb Code     0  startup_armcm0.o(.text)
    GPADC_IRQHandler                         0x10000aef   Thumb Code     0  startup_armcm0.o(.text)
    HID_IRQHandler                           0x10000aef   Thumb Code     0  startup_armcm0.o(.text)
    HPWM_IRQHandler                          0x10000aef   Thumb Code     0  startup_armcm0.o(.text)
    HTIMER_IRQHandler                        0x10000aef   Thumb Code     0  startup_armcm0.o(.text)
    I2C0_IRQHandler                          0x10000aef   Thumb Code     0  startup_armcm0.o(.text)
    I2C1_IRQHandler                          0x10000aef   Thumb Code     0  startup_armcm0.o(.text)
    IR_Rx_IRQHandler                         0x10000aef   Thumb Code     0  startup_armcm0.o(.text)
    IR_Tx_IRQHandler                         0x10000aef   Thumb Code     0  startup_armcm0.o(.text)
    ISO_7816_IRQHandler                      0x10000aef   Thumb Code     0  startup_armcm0.o(.text)
    LLC2_IRQHandler                          0x10000aef   Thumb Code     0  startup_armcm0.o(.text)
    LLC_IRQHandler                           0x10000aef   Thumb Code     0  startup_armcm0.o(.text)
    RTC_IRQHandler                           0x10000aef   Thumb Code     0  startup_armcm0.o(.text)
    SPIM_IRQHandler                          0x10000aef   Thumb Code     0  startup_armcm0.o(.text)
    SW_IRQHandler                            0x10000aef   Thumb Code     0  startup_armcm0.o(.text)
    TIMER0_IRQHandler                        0x10000aef   Thumb Code     0  startup_armcm0.o(.text)
    TIMER1_IRQHandler                        0x10000aef   Thumb Code     0  startup_armcm0.o(.text)
    TIMER2_IRQHandler                        0x10000aef   Thumb Code     0  startup_armcm0.o(.text)
    TIMER3_IRQHandler                        0x10000aef   Thumb Code     0  startup_armcm0.o(.text)
    TOUCH_IRQHandler                         0x10000aef   Thumb Code     0  startup_armcm0.o(.text)
    SystemInit                               0x10000af9   Thumb Code     8  system_armcm0.o(.text)
    LLPingReq                                0x10000c2f   Thumb Code    26  main.o(.text)
    LLScanReqHandle                          0x10000c49   Thumb Code    58  main.o(.text)
    _BBGetMask                               0x10000f25   Thumb Code    92  main.o(.text)
    Lib_LLEvtCallback                        0x10000f81   Thumb Code   186  main.o(.text)
    ConnectionLatencyMode                    0x1000103b   Thumb Code   112  main.o(.text)
    sw_timer_latency_callback                0x100010ab   Thumb Code    42  main.o(.text)
    TimerStart                               0x100010d5   Thumb Code    10  main.o(.text)
    smart_latency_start                      0x100010df   Thumb Code   212  main.o(.text)
    smart_update_latency_updatersp           0x100011b3   Thumb Code   162  main.o(.text)
    BBRFRead                                 0x10001255   Thumb Code     4  main.o(.text)
    BBRFWrite                                0x10001259   Thumb Code     6  main.o(.text)
    RCOSCCalibration                         0x1000125f   Thumb Code    64  main.o(.text)
    RFSleep                                  0x1000129f   Thumb Code    10  main.o(.text)
    UartEn                                   0x100012a9   Thumb Code    32  main.o(.text)
    _SYS32kClockSwitch                       0x100012c9   Thumb Code   270  main.o(.text)
    ClockSwitch                              0x100013d7   Thumb Code    10  main.o(.text)
    RFWakeup                                 0x100013e1   Thumb Code    22  main.o(.text)
    LPOCalibration                           0x100013f7   Thumb Code   254  main.o(.text)
    smart_latency_clear                      0x100014f5   Thumb Code    12  main.o(.text)
    Lib_EvtCallback                          0x10001501   Thumb Code   254  main.o(.text)
    _BMGetNextBondDevice                     0x100015ff   Thumb Code   144  main.o(.text)
    __LLVersionIndRxHandler                  0x100017ad   Thumb Code    66  main.o(.text)
    GetMasterSystem                          0x100017ef   Thumb Code     6  main.o(.text)
    TimerStop                                0x100017f5   Thumb Code     4  main.o(.text)
    smart_update_retry                       0x100017f9   Thumb Code   158  main.o(.text)
    sw_timer_update_callback                 0x10001897   Thumb Code    60  main.o(.text)
    smart_update_latency_updatareq           0x100018d3   Thumb Code   496  main.o(.text)
    Lib_ProtocolHookCallback                 0x10001ac3   Thumb Code   116  main.o(.text)
    Lib_MiscCallback                         0x10001b37   Thumb Code    14  main.o(.text)
    BleInit                                  0x10001b45   Thumb Code   344  main.o(.text)
    DisConnect                               0x10001c9d   Thumb Code    10  main.o(.text)
    SetDevAddr                               0x10001ca7   Thumb Code    12  main.o(.text)
    GetDevAddr                               0x10001cb3   Thumb Code    12  main.o(.text)
    SetLEFeature                             0x10001cbf   Thumb Code    12  main.o(.text)
    SetAdvAccCode                            0x10001ccb   Thumb Code    12  main.o(.text)
    SetAdvParams                             0x10001cd7   Thumb Code    12  main.o(.text)
    SetAdvData                               0x10001ce3   Thumb Code    12  main.o(.text)
    StartAdv                                 0x10001f1d   Thumb Code    10  main.o(.text)
    StopAdv                                  0x10001f27   Thumb Code    24  main.o(.text)
    StopAdv_Noreset                          0x10001f3f   Thumb Code    38  main.o(.text)
    SetScanParams                            0x10001f65   Thumb Code    10  main.o(.text)
    _BBSetScan                               0x10001f6f   Thumb Code    46  main.o(.text)
    _GAPStartScan                            0x10001f9d   Thumb Code   254  main.o(.text)
    StartScan                                0x1000209b   Thumb Code    10  main.o(.text)
    StopScan                                 0x100020a5   Thumb Code    10  main.o(.text)
    SetSecParams                             0x100020af   Thumb Code    12  main.o(.text)
    SetConnectionUpdate                      0x100020bb   Thumb Code    12  main.o(.text)
    GetLinkParameters                        0x100020c7   Thumb Code    12  main.o(.text)
    SetWinWideMinusCnt                       0x100020d3   Thumb Code     8  main.o(.text)
    SetPasskey                               0x100020db   Thumb Code    12  main.o(.text)
    SecurityReq                              0x100020e7   Thumb Code    12  main.o(.text)
    SetEvtCallback                           0x100020f3   Thumb Code    54  main.o(.text)
    GetGATTReportHandle                      0x10002129   Thumb Code    10  main.o(.text)
    SetGATTReadRsp                           0x10002133   Thumb Code    12  main.o(.text)
    CheckFIFOFull                            0x1000213f   Thumb Code    18  main.o(.text)
    GATTDataSend                             0x10002151   Thumb Code    86  main.o(.text)
    ATTCSetCallback                          0x100021a7   Thumb Code     4  main.o(.text)
    ATTCMTUReq                               0x100021ab   Thumb Code    24  main.o(.text)
    ATTCFindInfoReq                          0x100021c3   Thumb Code    28  main.o(.text)
    ATTCFindByTypeValueReq                   0x100021df   Thumb Code    40  main.o(.text)
    ATTCReadByTypeReq                        0x10002207   Thumb Code    36  main.o(.text)
    ATTCReadReq                              0x1000222b   Thumb Code    24  main.o(.text)
    ATTCReadBlobReq                          0x10002243   Thumb Code    28  main.o(.text)
    ATTCReadMultipleReq                      0x1000225f   Thumb Code    28  main.o(.text)
    ATTCReadByGroupTypeReq                   0x1000227b   Thumb Code    34  main.o(.text)
    ATTCWriteReq                             0x1000229d   Thumb Code    32  main.o(.text)
    ATTCWriteCmdReq                          0x100022bd   Thumb Code    32  main.o(.text)
    ATTCPrepareWriteReq                      0x100022dd   Thumb Code    36  main.o(.text)
    ATTCExecuteWriteReq                      0x10002301   Thumb Code    24  main.o(.text)
    ATTCConfirmation                         0x10002319   Thumb Code    20  main.o(.text)
    _SYSClockSwitch                          0x1000232d   Thumb Code    86  main.o(.text)
    MCUClockSwitch                           0x10002383   Thumb Code     2  main.o(.text)
    GetMCUClock                              0x10002385   Thumb Code    14  main.o(.text)
    GetClock                                 0x10002393   Thumb Code    16  main.o(.text)
    WakeupConfig                             0x100023a3   Thumb Code    12  main.o(.text)
    LLSleep                                  0x100023af   Thumb Code    12  main.o(.text)
    Rand                                     0x100023bb   Thumb Code     4  main.o(.text)
    DelayUS                                  0x100023bf   Thumb Code     4  main.o(.text)
    DelayMS                                  0x100023c3   Thumb Code     6  main.o(.text)
    GetCompanyID                             0x100023c9   Thumb Code    18  main.o(.text)
    GetQFNType                               0x100023db   Thumb Code    20  main.o(.text)
    RFRead                                   0x100023ef   Thumb Code    70  main.o(.text)
    RFWrite                                  0x10002435   Thumb Code     8  main.o(.text)
    lib_check_ble_fsm_state                  0x1000243d   Thumb Code    26  main.o(.text)
    SystemSleep                              0x10002457   Thumb Code    18  main.o(.text)
    SystemPowerDown                          0x10002469   Thumb Code    78  main.o(.text)
    SystemReset                              0x100024b7   Thumb Code    12  main.o(.text)
    CapdetEn                                 0x100024c3   Thumb Code    10  main.o(.text)
    PowerDownLPOEn                           0x100024cd   Thumb Code    12  main.o(.text)
    SetBondManagerIndex                      0x100024d9   Thumb Code    12  main.o(.text)
    GetBondDevice                            0x100024e5   Thumb Code     6  main.o(.text)
    AddBondDevice                            0x100024eb   Thumb Code    12  main.o(.text)
    DelAllBondDevice                         0x100024f7   Thumb Code    10  main.o(.text)
    DelBondDevice                            0x10002501   Thumb Code    12  main.o(.text)
    ReadProfileData                          0x1000250d   Thumb Code     6  main.o(.text)
    WriteProfileData                         0x10002513   Thumb Code     6  main.o(.text)
    EraseFlashData                           0x10002519   Thumb Code    78  main.o(.text)
    ReadFlashData                            0x10002567   Thumb Code    56  main.o(.text)
    WriteFlashData                           0x1000259f   Thumb Code    56  main.o(.text)
    CodeErase                                0x100025d7   Thumb Code   100  main.o(.text)
    CodeErase_sector                         0x1000263b   Thumb Code    72  main.o(.text)
    _FMCodeWrite                             0x10002683   Thumb Code    58  main.o(.text)
    CodeWrite                                0x100026bd   Thumb Code    30  main.o(.text)
    CodeUpdate                               0x100026db   Thumb Code    10  main.o(.text)
    FlashDataUpdate                          0x100026e5   Thumb Code   124  main.o(.text)
    ble_sched_execute                        0x10002761   Thumb Code   150  main.o(.text)
    ble_sched_finish                         0x100027f7   Thumb Code     4  main.o(.text)
    syd52832_chip_confirm                    0x100027fb   Thumb Code    26  main.o(.text)
    gap_s_smart_update_latency               0x10002815   Thumb Code   246  main.o(.text)
    eFuseManual                              0x1000290b   Thumb Code    28  main.o(.text)
    GPADC_Manual_Calibration                 0x10002927   Thumb Code    34  main.o(.text)
    GPADC_Get_Calibration                    0x10002949   Thumb Code    22  main.o(.text)
    GAPGetUartEn                             0x1000295f   Thumb Code     6  main.o(.text)
    GAPUartEn                                0x10002965   Thumb Code     6  main.o(.text)
    GAPBBDelayUS                             0x1000296b   Thumb Code     4  main.o(.text)
    GAPBBDelayMS                             0x1000296f   Thumb Code     6  main.o(.text)
    GAPGetRFAutoSleep                        0x10002975   Thumb Code     4  main.o(.text)
    GAPSetRFAutoSleep                        0x10002979   Thumb Code     6  main.o(.text)
    Setting4kUpdate                          0x1000297f   Thumb Code   116  main.o(.text)
    SetDevAddr_toflash                       0x100029f3   Thumb Code    72  main.o(.text)
    gap_s_verdor_datas_get                   0x10002a3b   Thumb Code    28  main.o(.text)
    gap_s_verdor_datas_set                   0x10002a57   Thumb Code    66  main.o(.text)
    gap_s_is_ll_start_enc                    0x10002a99   Thumb Code    26  main.o(.text)
    GAPBBTXFIFO0Write                        0x10002ab3   Thumb Code     4  main.o(.text)
    flash_peotect_key_confirm                0x10002ab7   Thumb Code   148  main.o(.text)
    swd_lock                                 0x10002b4b   Thumb Code    36  main.o(.text)
    flash_data_offect_get                    0x10002b6f   Thumb Code    52  main.o(.text)
    EraseCodeB                               0x10002ba3   Thumb Code    58  main.o(.text)
    ReadCodeB                                0x10002bdd   Thumb Code    64  main.o(.text)
    WriteCodeB                               0x10002c1d   Thumb Code    96  main.o(.text)
    ble_SetTxPower                           0x10002c7d   Thumb Code   248  main.o(.text)
    flash_data_size_get                      0x10002d75   Thumb Code    18  main.o(.text)
    code_idx_get                             0x10002d87   Thumb Code     6  main.o(.text)
    flash_data_size_set                      0x10002d8d   Thumb Code   146  main.o(.text)
    Get_RSSI_Last_RX                         0x10002e1f   Thumb Code    82  main.o(.text)
    APP_Read_Attribute_Encrypt               0x10002e71   Thumb Code    62  main.o(.text)
    APP_Write_Attribute_Encrypt              0x10002eaf   Thumb Code    66  main.o(.text)
    APP_Read_Charact_Permission              0x10002ef1   Thumb Code    66  main.o(.text)
    smart_latency_target                     0x10002f33   Thumb Code    30  main.o(.text)
    smp_aes_encrypt                          0x10002f51   Thumb Code     4  main.o(.text)
    gap_get_flash_data_info                  0x10002f55   Thumb Code    26  main.o(.text)
    gap_set_flash_data_info                  0x10002f6f   Thumb Code    70  main.o(.text)
    gap_check_dev_bonded                     0x10002fb5   Thumb Code     6  main.o(.text)
    syd_set_chip_flash_all_size              0x10002fbb   Thumb Code     6  main.o(.text)
    Xtal_trim_get                            0x10002fc1   Thumb Code   106  main.o(.text)
    Xtal_trim_set                            0x1000302b   Thumb Code   164  main.o(.text)
    flash_read_sfdp                          0x100030cf   Thumb Code    46  main.o(.text)
    syd_read_unique_id                       0x100030fd   Thumb Code    30  main.o(.text)
    __aeabi_uidiv                            0x10003339   Thumb Code     0  uidiv.o(.text)
    __aeabi_uidivmod                         0x10003339   Thumb Code    44  uidiv.o(.text)
    __aeabi_idiv                             0x10003365   Thumb Code     0  idiv.o(.text)
    __aeabi_idivmod                          0x10003365   Thumb Code    40  idiv.o(.text)
    __aeabi_memcpy                           0x1000338d   Thumb Code    36  memcpya.o(.text)
    __aeabi_memcpy4                          0x1000338d   Thumb Code     0  memcpya.o(.text)
    __aeabi_memcpy8                          0x1000338d   Thumb Code     0  memcpya.o(.text)
    __aeabi_memset                           0x100033b1   Thumb Code    14  memseta.o(.text)
    __aeabi_memset4                          0x100033b1   Thumb Code     0  memseta.o(.text)
    __aeabi_memset8                          0x100033b1   Thumb Code     0  memseta.o(.text)
    __aeabi_memclr                           0x100033bf   Thumb Code     4  memseta.o(.text)
    __aeabi_memclr4                          0x100033bf   Thumb Code     0  memseta.o(.text)
    __aeabi_memclr8                          0x100033bf   Thumb Code     0  memseta.o(.text)
    _memset$wrapper                          0x100033c3   Thumb Code    18  memseta.o(.text)
    memcmp                                   0x100033d5   Thumb Code    26  memcmp.o(.text)
    __aeabi_uread4                           0x100033ef   Thumb Code    20  uread4.o(.text)
    __rt_uread4                              0x100033ef   Thumb Code     0  uread4.o(.text)
    _uread4                                  0x100033ef   Thumb Code     0  uread4.o(.text)
    __aeabi_uwrite4                          0x10003403   Thumb Code    18  uwrite4.o(.text)
    __rt_uwrite4                             0x10003403   Thumb Code     0  uwrite4.o(.text)
    _uwrite4                                 0x10003403   Thumb Code     0  uwrite4.o(.text)
    __aeabi_fadd                             0x10003415   Thumb Code   162  fadd.o(.text)
    __aeabi_fsub                             0x100034b7   Thumb Code     8  fadd.o(.text)
    __aeabi_frsub                            0x100034bf   Thumb Code     8  fadd.o(.text)
    __aeabi_dadd                             0x100034c9   Thumb Code   328  dadd.o(.text)
    __aeabi_dsub                             0x10003611   Thumb Code    12  dadd.o(.text)
    __aeabi_drsub                            0x1000361d   Thumb Code    12  dadd.o(.text)
    __aeabi_dmul                             0x1000362d   Thumb Code   202  dmul.o(.text)
    __aeabi_ddiv                             0x100036fd   Thumb Code   234  ddiv.o(.text)
    __aeabi_ui2f                             0x100037ed   Thumb Code    14  ffltui.o(.text)
    __aeabi_i2d                              0x100037fd   Thumb Code    34  dflti.o(.text)
    __aeabi_ui2d                             0x10003825   Thumb Code    24  dfltui.o(.text)
    __aeabi_d2uiz                            0x10003841   Thumb Code    50  dfixui.o(.text)
    __aeabi_f2d                              0x1000387d   Thumb Code    40  f2d.o(.text)
    __aeabi_uldivmod                         0x100038a5   Thumb Code    96  uldiv.o(.text)
    __aeabi_llsl                             0x10003905   Thumb Code    32  llshl.o(.text)
    _ll_shift_l                              0x10003905   Thumb Code     0  llshl.o(.text)
    __aeabi_llsr                             0x10003925   Thumb Code    34  llushr.o(.text)
    _ll_ushift_r                             0x10003925   Thumb Code     0  llushr.o(.text)
    __aeabi_lasr                             0x10003947   Thumb Code    38  llsshr.o(.text)
    _ll_sshift_r                             0x10003947   Thumb Code     0  llsshr.o(.text)
    __I$use$fp                               0x1000396d   Thumb Code     0  iusefp.o(.text)
    _float_round                             0x1000396d   Thumb Code    16  fepilogue.o(.text)
    _float_epilogue                          0x1000397d   Thumb Code   114  fepilogue.o(.text)
    _double_round                            0x100039ef   Thumb Code    26  depilogue.o(.text)
    _double_epilogue                         0x10003a09   Thumb Code   164  depilogue.o(.text)
    __aeabi_d2ulz                            0x10003aad   Thumb Code    54  dfixul.o(.text)
    __aeabi_cdrcmple                         0x10003aed   Thumb Code    38  cdrcmple.o(.text)
    __scatterload                            0x10003b15   Thumb Code    28  init.o(.text)
    __scatterload_rt2                        0x10003b15   Thumb Code     0  init.o(.text)
    __0vsprintf                              0x10003b39   Thumb Code    30  printfa.o(i.__0vsprintf)
    __1vsprintf                              0x10003b39   Thumb Code     0  printfa.o(i.__0vsprintf)
    __2vsprintf                              0x10003b39   Thumb Code     0  printfa.o(i.__0vsprintf)
    __c89vsprintf                            0x10003b39   Thumb Code     0  printfa.o(i.__0vsprintf)
    vsprintf                                 0x10003b39   Thumb Code     0  printfa.o(i.__0vsprintf)
    __ARM_clz                                0x10003b5d   Thumb Code    46  depilogue.o(i.__ARM_clz)
    __ARM_common_switch8                     0x10003b8b   Thumb Code    26  main.o(i.__ARM_common_switch8)
    __scatterload_copy                       0x10003ba5   Thumb Code    14  handlers.o(i.__scatterload_copy)
    __scatterload_null                       0x10003bb3   Thumb Code     2  handlers.o(i.__scatterload_null)
    __scatterload_zeroinit                   0x10003bb5   Thumb Code    14  handlers.o(i.__scatterload_zeroinit)
    adv_chn_to_freq_idx                      0x1000445e   Data           3  main.o(.constdata)
    Region$$Table$$Base                      0x10004488   Number         0  anon$$obj.o(Region$$Table)
    Region$$Table$$Limit                     0x100044a8   Number         0  anon$$obj.o(Region$$Table)
    PIN_CONFIG                               0x20003000   Data           4  gpio.o(.data)
    GPIO_CTRL                                0x20003004   Data           4  gpio.o(.data)
    GPO_CTRL                                 0x20003008   Data           4  gpio.o(.data)
    GPI_CTRL                                 0x2000300c   Data           4  gpio.o(.data)
    GPIO_IRQ_CTRL                            0x20003010   Data           4  gpio.o(.data)
    SystemCoreClock                          0x20003050   Data           4  system_armcm0.o(.data)
    ble_rc32k_clk_lpo_ing_flag               0x20003058   Data           1  main.o(.data)
    master_system                            0x2000305a   Data           1  main.o(.data)
    p_gett_db_hdr                            0x20003070   Data           4  main.o(.data)
    __initial_sp                             0x20003580   Data           0  startup_armcm0.o(STACK)



==============================================================================

Memory Map of the image

  Image Entry point : 0x100000c1

  Load Region LR_IROM1 (Base: 0x10000000, Size: 0x0000453c, Max: 0x0003f000, ABSOLUTE)

    Execution Region ER_IROM1 (Base: 0x10000000, Size: 0x000044a8, Max: 0x0003f000, ABSOLUTE)

    Base Addr    Size         Type   Attr      Idx    E Section Name        Object

    0x10000000   0x000000c0   Data   RO          279    RESET               startup_armcm0.o
    0x100000c0   0x00000000   Code   RO          398  * .ARM.Collect$$$$00000000  mc_p.l(entry.o)
    0x100000c0   0x00000004   Code   RO          463    .ARM.Collect$$$$00000001  mc_p.l(entry2.o)
    0x100000c4   0x00000004   Code   RO          466    .ARM.Collect$$$$00000004  mc_p.l(entry5.o)
    0x100000c8   0x00000000   Code   RO          468    .ARM.Collect$$$$00000008  mc_p.l(entry7b.o)
    0x100000c8   0x00000000   Code   RO          470    .ARM.Collect$$$$0000000A  mc_p.l(entry8b.o)
    0x100000c8   0x00000008   Code   RO          471    .ARM.Collect$$$$0000000B  mc_p.l(entry9a.o)
    0x100000d0   0x00000000   Code   RO          473    .ARM.Collect$$$$0000000D  mc_p.l(entry10a.o)
    0x100000d0   0x00000000   Code   RO          475    .ARM.Collect$$$$0000000F  mc_p.l(entry11a.o)
    0x100000d0   0x00000004   Code   RO          464    .ARM.Collect$$$$00002712  mc_p.l(entry2.o)
    0x100000d4   0x00000288   Code   RO            3    .text               main.o
    0x1000035c   0x00000090   Code   RO           80    .text               debug.o
    0x100003ec   0x00000020   Code   RO          115    .text               delay.o
    0x1000040c   0x000003c4   Code   RO          150    .text               gpio.o
    0x100007d0   0x0000030c   Code   RO          219    .text               uart.o
    0x10000adc   0x0000001c   Code   RO          280    .text               startup_armcm0.o
    0x10000af8   0x00000010   Code   RO          287    .text               system_armcm0.o
    0x10000b08   0x00002830   Code   RO          318    .text               syd8811_ble_lib.lib(main.o)
    0x10003338   0x0000002c   Code   RO          401    .text               mc_p.l(uidiv.o)
    0x10003364   0x00000028   Code   RO          403    .text               mc_p.l(idiv.o)
    0x1000338c   0x00000024   Code   RO          405    .text               mc_p.l(memcpya.o)
    0x100033b0   0x00000024   Code   RO          407    .text               mc_p.l(memseta.o)
    0x100033d4   0x0000001a   Code   RO          409    .text               mc_p.l(memcmp.o)
    0x100033ee   0x00000014   Code   RO          441    .text               mc_p.l(uread4.o)
    0x10003402   0x00000012   Code   RO          443    .text               mc_p.l(uwrite4.o)
    0x10003414   0x000000b2   Code   RO          445    .text               mf_p.l(fadd.o)
    0x100034c6   0x00000002   PAD
    0x100034c8   0x00000164   Code   RO          447    .text               mf_p.l(dadd.o)
    0x1000362c   0x000000d0   Code   RO          449    .text               mf_p.l(dmul.o)
    0x100036fc   0x000000f0   Code   RO          451    .text               mf_p.l(ddiv.o)
    0x100037ec   0x0000000e   Code   RO          453    .text               mf_p.l(ffltui.o)
    0x100037fa   0x00000002   PAD
    0x100037fc   0x00000028   Code   RO          455    .text               mf_p.l(dflti.o)
    0x10003824   0x0000001c   Code   RO          457    .text               mf_p.l(dfltui.o)
    0x10003840   0x0000003c   Code   RO          459    .text               mf_p.l(dfixui.o)
    0x1000387c   0x00000028   Code   RO          461    .text               mf_p.l(f2d.o)
    0x100038a4   0x00000060   Code   RO          480    .text               mc_p.l(uldiv.o)
    0x10003904   0x00000020   Code   RO          482    .text               mc_p.l(llshl.o)
    0x10003924   0x00000022   Code   RO          484    .text               mc_p.l(llushr.o)
    0x10003946   0x00000026   Code   RO          486    .text               mc_p.l(llsshr.o)
    0x1000396c   0x00000000   Code   RO          488    .text               mc_p.l(iusefp.o)
    0x1000396c   0x00000082   Code   RO          489    .text               mf_p.l(fepilogue.o)
    0x100039ee   0x000000be   Code   RO          491    .text               mf_p.l(depilogue.o)
    0x10003aac   0x00000040   Code   RO          495    .text               mf_p.l(dfixul.o)
    0x10003aec   0x00000028   Code   RO          497    .text               mf_p.l(cdrcmple.o)
    0x10003b14   0x00000024   Code   RO          499    .text               mc_p.l(init.o)
    0x10003b38   0x00000024   Code   RO          420    i.__0vsprintf       mc_p.l(printfa.o)
    0x10003b5c   0x0000002e   Code   RO          493    i.__ARM_clz         mf_p.l(depilogue.o)
    0x10003b8a   0x0000001a   Code   RO          338    i.__ARM_common_switch8  syd8811_ble_lib.lib(main.o)
    0x10003ba4   0x0000000e   Code   RO          505    i.__scatterload_copy  mc_p.l(handlers.o)
    0x10003bb2   0x00000002   Code   RO          506    i.__scatterload_null  mc_p.l(handlers.o)
    0x10003bb4   0x0000000e   Code   RO          507    i.__scatterload_zeroinit  mc_p.l(handlers.o)
    0x10003bc2   0x00000002   PAD
    0x10003bc4   0x00000158   Code   RO          421    i._fp_digits        mc_p.l(printfa.o)
    0x10003d1c   0x000006ec   Code   RO          422    i._printf_core      mc_p.l(printfa.o)
    0x10004408   0x00000020   Code   RO          423    i._printf_post_padding  mc_p.l(printfa.o)
    0x10004428   0x0000002c   Code   RO          424    i._printf_pre_padding  mc_p.l(printfa.o)
    0x10004454   0x0000000a   Code   RO          426    i._sputc            mc_p.l(printfa.o)
    0x1000445e   0x00000028   Data   RO          320    .constdata          syd8811_ble_lib.lib(main.o)
    0x10004486   0x00000002   PAD
    0x10004488   0x00000020   Data   RO          503    Region$$Table       anon$$obj.o


    Execution Region RW_IRAM1 (Base: 0x20003000, Size: 0x00000580, Max: 0x00005000, ABSOLUTE)

    Base Addr    Size         Type   Attr      Idx    E Section Name        Object

    0x20003000   0x00000048   Data   RW          157    .data               gpio.o
    0x20003048   0x00000008   Data   RW          224    .data               uart.o
    0x20003050   0x00000004   Data   RW          288    .data               system_armcm0.o
    0x20003054   0x00000040   Data   RW          321    .data               syd8811_ble_lib.lib(main.o)
    0x20003094   0x00000080   Zero   RW           81    .bss                debug.o
    0x20003114   0x00000068   Zero   RW          319    .bss                syd8811_ble_lib.lib(main.o)
    0x2000317c   0x00000004   PAD
    0x20003180   0x00000400   Zero   RW          277    STACK               startup_armcm0.o


==============================================================================

Image component sizes


      Code (inc. data)   RO Data    RW Data    ZI Data      Debug   Object Name

       144         18          0          0        128       2422   debug.o
        32          4          0          0          0      29743   delay.o
       964         40          0         72          0      22084   gpio.o
       648        214          0          0          0       5467   main.o
        28          8        192          0       1024        668   startup_armcm0.o
        16          8          0          4          0        763   system_armcm0.o
       780         18          0          8          0      10213   uart.o

    ----------------------------------------------------------------------
      2612        310        224         84       1152      71360   Object Totals
         0          0         32          0          0          0   (incl. Generated)
         0          0          0          0          0          0   (incl. Padding)

    ----------------------------------------------------------------------

      Code (inc. data)   RO Data    RW Data    ZI Data      Debug   Library Member Name

         0          0          0          0          0          0   entry.o
         0          0          0          0          0          0   entry10a.o
         0          0          0          0          0          0   entry11a.o
         8          4          0          0          0          0   entry2.o
         4          0          0          0          0          0   entry5.o
         0          0          0          0          0          0   entry7b.o
         0          0          0          0          0          0   entry8b.o
         8          4          0          0          0          0   entry9a.o
        30          0          0          0          0          0   handlers.o
        40          0          0          0          0         72   idiv.o
        36          8          0          0          0         68   init.o
         0          0          0          0          0          0   iusefp.o
        32          0          0          0          0         68   llshl.o
        38          0          0          0          0         68   llsshr.o
        34          0          0          0          0         68   llushr.o
        26          0          0          0          0         72   memcmp.o
        36          0          0          0          0         60   memcpya.o
        36          0          0          0          0        100   memseta.o
      2238         96          0          0          0        460   printfa.o
        44          0          0          0          0         72   uidiv.o
        96          0          0          0          0         84   uldiv.o
        20          0          0          0          0         60   uread4.o
        18          0          0          0          0         60   uwrite4.o
        40          2          0          0          0         68   cdrcmple.o
       356          4          0          0          0        140   dadd.o
       240          6          0          0          0         84   ddiv.o
       236          0          0          0          0        216   depilogue.o
        60         10          0          0          0         68   dfixui.o
        64         10          0          0          0         68   dfixul.o
        40          6          0          0          0         68   dflti.o
        28          4          0          0          0         68   dfltui.o
       208          6          0          0          0         88   dmul.o
        40          0          0          0          0         60   f2d.o
       178          0          0          0          0        108   fadd.o
       130          0          0          0          0        144   fepilogue.o
        14          0          0          0          0         68   ffltui.o
     10314        502         40         64        104     109387   main.o

    ----------------------------------------------------------------------
     14698        662         42         64        108     111947   Library Totals
         6          0          2          0          4          0   (incl. Padding)

    ----------------------------------------------------------------------

      Code (inc. data)   RO Data    RW Data    ZI Data      Debug   Library Name

      2744        112          0          0          0       1312   mc_p.l
      1634         48          0          0          0       1248   mf_p.l
     10314        502         40         64        104     109387   syd8811_ble_lib.lib

    ----------------------------------------------------------------------
     14698        662         42         64        108     111947   Library Totals

    ----------------------------------------------------------------------

==============================================================================


      Code (inc. data)   RO Data    RW Data    ZI Data      Debug   

     17310        972        266        148       1260     181735   Grand Totals
     17310        972        266        148       1260     181735   ELF Image Totals
     17310        972        266        148          0          0   ROM Totals

==============================================================================

    Total RO  Size (Code + RO Data)                17576 (  17.16kB)
    Total RW  Size (RW Data + ZI Data)              1408 (   1.38kB)
    Total ROM Size (Code + RO Data + RW Data)      17724 (  17.31kB)

==============================================================================

