Component: ARM Compiler 5.06 (build 20) Tool: armlink [4d35a3]

==============================================================================

Section Cross References

    main.o(.text) refers to gpio.o(.text) for GPIO_Pin_Turn
    main.o(.text) refers to main.o(.text) for BleInit
    main.o(.text) refers to delay.o(.text) for delay_ms
    main.o(.text) refers to debug.o(.text) for dbg_init
    timer.o(.text) refers to delay.o(.text) for delay_us
    timer.o(.text) refers to timer.o(.text) for __NVIC_EnableIRQ
    timer.o(.text) refers to timer.o(.data) for TIMER_CTRL
    timer.o(.text) refers to timer.o(.bss) for timer_callback
    timer.o(.text) refers to timer.o(.data) for TIMER_CTRL
    timer.o(.text) refers to timer.o(.text) for __NVIC_DisableIRQ
    timer.o(.text) refers to timer.o(.data) for TIMER_CTRL
    timer.o(.text) refers to timer.o(.data) for TIMER_CTRL
    timer.o(.text) refers to timer.o(.data) for TIMER_CTRL
    timer.o(.text) refers to timer.o(.bss) for timer_callback
    timer.o(.text) refers to delay.o(.text) for delay_us
    timer.o(.text) refers to timer.o(.text) for __NVIC_EnableIRQ
    timer.o(.text) refers to timer.o(.data) for TIMER_CTRL
    timer.o(.text) refers to timer.o(.bss) for timer_callback
==============================================================================

Removing Unused input sections from the image.

    Removing main.o(.rev16_text), (4 bytes).
    Removing main.o(.revsh_text), (4 bytes).
    Removing delay.o(.rev16_text), (4 bytes).
    Removing delay.o(.revsh_text), (4 bytes).
    Removing delay.o(.text), (26 bytes).
    Removing timer.o(.rev16_text), (4 bytes).
    Removing timer.o(.revsh_text), (4 bytes).
    Removing timer.o(.text), (56 bytes).
    Removing timer.o(.text), (176 bytes).
    Removing timer.o(.text), (36 bytes).
    Removing timer.o(.text), (56 bytes).
    Removing timer.o(.text), (152 bytes).
    Removing timer.o(.text), (176 bytes).
    Removing timer.o(.text), (40 bytes).
    Removing timer.o(.text), (56 bytes).
    Removing timer.o(.text), (176 bytes).
    Removing timer.o(.text), (40 bytes).
    Removing timer.o(.text), (56 bytes).
==============================================================================

Image Symbol Table

    Local Symbols

    Symbol Name                              Value     Ov Type        Size  Object(Section)

    ../clib/microlib/division.c              0x00000000   Number         0  idiv.o ABSOLUTE
    ../clib/microlib/division.c              0x00000000   Number         0  uidiv.o ABSOLUTE
    ../clib/microlib/division.c              0x00000000   Number         0  uldiv.o ABSOLUTE
    ../clib/microlib/init/entry.s            0x00000000   Number         0  entry2.o ABSOLUTE
    ../clib/microlib/init/entry.s            0x00000000   Number         0  entry5.o ABSOLUTE
    ../clib/microlib/init/entry.s            0x00000000   Number         0  entry7a.o ABSOLUTE
    ../clib/microlib/init/entry.s            0x00000000   Number         0  entry7b.o ABSOLUTE
    ../clib/microlib/init/entry.s            0x00000000   Number         0  entry8a.o ABSOLUTE
    ../clib/microlib/init/entry.s            0x00000000   Number         0  entry8b.o ABSOLUTE
    ../clib/microlib/init/entry.s            0x00000000   Number         0  entry9a.o ABSOLUTE
    ../clib/microlib/init/entry.s            0x00000000   Number         0  entry11a.o ABSOLUTE
    ../clib/microlib/init/entry.s            0x00000000   Number         0  entry.o ABSOLUTE
    ../clib/microlib/init/entry.s            0x00000000   Number         0  entry9b.o ABSOLUTE
    ../clib/microlib/init/entry.s            0x00000000   Number         0  entry10a.o ABSOLUTE
    ../clib/microlib/init/entry.s            0x00000000   Number         0  entry10b.o ABSOLUTE
    ../clib/microlib/init/entry.s            0x00000000   Number         0  entry11b.o ABSOLUTE
    ../clib/microlib/longlong.c              0x00000000   Number         0  llushr.o ABSOLUTE
    ../clib/microlib/longlong.c              0x00000000   Number         0  llsshr.o ABSOLUTE
    ../clib/microlib/longlong.c              0x00000000   Number         0  llshl.o ABSOLUTE
    ../clib/microlib/printf/printf.c         0x00000000   Number         0  printfa.o ABSOLUTE
    ../clib/microlib/stdio/fputc.c           0x00000000   Number         0  fputc.o ABSOLUTE
    ../clib/microlib/stdio/semi.s            0x00000000   Number         0  semi.o ABSOLUTE
    ../clib/microlib/stdio/streams.c         0x00000000   Number         0  stdout.o ABSOLUTE
    ../clib/microlib/string/memcmp.c         0x00000000   Number         0  memcmp.o ABSOLUTE
    ../clib/microlib/string/memcpy.c         0x00000000   Number         0  memcpyb.o ABSOLUTE
    ../clib/microlib/string/memcpy.c         0x00000000   Number         0  memcpya.o ABSOLUTE
    ../clib/microlib/string/memset.c         0x00000000   Number         0  memseta.o ABSOLUTE
    ../clib/microlib/stubs.s                 0x00000000   Number         0  iusesemip.o ABSOLUTE
    ../clib/microlib/stubs.s                 0x00000000   Number         0  iusefp.o ABSOLUTE
    ../clib/microlib/unhosted.c              0x00000000   Number         0  uread4.o ABSOLUTE
    ../clib/microlib/unhosted.c              0x00000000   Number         0  uwrite4.o ABSOLUTE
    ../fplib/microlib/f2d.c                  0x00000000   Number         0  f2d.o ABSOLUTE
    ../fplib/microlib/fpadd.c                0x00000000   Number         0  fadd.o ABSOLUTE
    ../fplib/microlib/fpadd.c                0x00000000   Number         0  dadd.o ABSOLUTE
    ../fplib/microlib/fpdiv.c                0x00000000   Number         0  ddiv.o ABSOLUTE
    ../fplib/microlib/fpepilogue.c           0x00000000   Number         0  fepilogue.o ABSOLUTE
    ../fplib/microlib/fpepilogue.c           0x00000000   Number         0  depilogue.o ABSOLUTE
    ../fplib/microlib/fpfix.c                0x00000000   Number         0  dfixul.o ABSOLUTE
    ../fplib/microlib/fpfix.c                0x00000000   Number         0  dfixui.o ABSOLUTE
    ../fplib/microlib/fpflt.c                0x00000000   Number         0  dfltui.o ABSOLUTE
    ../fplib/microlib/fpflt.c                0x00000000   Number         0  ffltui.o ABSOLUTE
    ../fplib/microlib/fpflt.c                0x00000000   Number         0  dflti.o ABSOLUTE
    ../fplib/microlib/fpmul.c                0x00000000   Number         0  dmul.o ABSOLUTE
    ..\..\..\Driver\debug.c                  0x00000000   Number         0  debug.o ABSOLUTE
    ..\..\..\Driver\delay.c                  0x00000000   Number         0  delay.o ABSOLUTE
    ..\..\..\Driver\gpio.c                   0x00000000   Number         0  gpio.o ABSOLUTE
    ..\..\..\Driver\timer.c                  0x00000000   Number         0  timer.o ABSOLUTE
    ..\..\..\Driver\uart.c                   0x00000000   Number         0  uart.o ABSOLUTE
    ..\\..\\..\\Driver\\debug.c              0x00000000   Number         0  debug.o ABSOLUTE
    ..\\..\\..\\Driver\\delay.c              0x00000000   Number         0  delay.o ABSOLUTE
    ..\\..\\..\\Driver\\gpio.c               0x00000000   Number         0  gpio.o ABSOLUTE
    ..\\..\\..\\Driver\\timer.c              0x00000000   Number         0  timer.o ABSOLUTE
    ..\\..\\..\\Driver\\uart.c               0x00000000   Number         0  uart.o ABSOLUTE
    ..\\main.c                               0x00000000   Number         0  main.o ABSOLUTE
    ..\main.c                                0x00000000   Number         0  main.o ABSOLUTE
    Main\\main.c                             0x00000000   Number         0  main.o ABSOLUTE
    Main\main.c                              0x00000000   Number         0  main.o ABSOLUTE
    RTE\Device\ARMCM0\startup_ARMCM0.s       0x00000000   Number         0  startup_armcm0.o ABSOLUTE
    RTE\Device\ARMCM0\system_ARMCM0.c        0x00000000   Number         0  system_armcm0.o ABSOLUTE
    RTE\\Device\\ARMCM0\\system_ARMCM0.c     0x00000000   Number         0  system_armcm0.o ABSOLUTE
    cdrcmple.s                               0x00000000   Number         0  cdrcmple.o ABSOLUTE
    dc.s                                     0x00000000   Number         0  dc.o ABSOLUTE
    handlers.s                               0x00000000   Number         0  handlers.o ABSOLUTE
    init.s                                   0x00000000   Number         0  init.o ABSOLUTE
    RESET                                    0x10000000   Section      192  startup_armcm0.o(RESET)
    .ARM.Collect$$$$00000000                 0x100000c0   Section        0  entry.o(.ARM.Collect$$$$00000000)
    .ARM.Collect$$$$00000001                 0x100000c0   Section        4  entry2.o(.ARM.Collect$$$$00000001)
    .ARM.Collect$$$$00000004                 0x100000c4   Section        4  entry5.o(.ARM.Collect$$$$00000004)
    .ARM.Collect$$$$00000008                 0x100000c8   Section        0  entry7b.o(.ARM.Collect$$$$00000008)
    .ARM.Collect$$$$0000000A                 0x100000c8   Section        0  entry8b.o(.ARM.Collect$$$$0000000A)
    .ARM.Collect$$$$0000000B                 0x100000c8   Section        8  entry9a.o(.ARM.Collect$$$$0000000B)
    .ARM.Collect$$$$0000000D                 0x100000d0   Section        0  entry10a.o(.ARM.Collect$$$$0000000D)
    .ARM.Collect$$$$0000000F                 0x100000d0   Section        0  entry11a.o(.ARM.Collect$$$$0000000F)
    .ARM.Collect$$$$00002712                 0x100000d0   Section        4  entry2.o(.ARM.Collect$$$$00002712)
    __lit__00000000                          0x100000d0   Data           4  entry2.o(.ARM.Collect$$$$00002712)
    .text                                    0x100000d4   Section        0  main.o(.text)
    Systick_get_val                          0x100000df   Thumb Code    10  main.o(.text)
    __NVIC_SetPriority                       0x1000015b   Thumb Code   110  main.o(.text)
    .text                                    0x100001f8   Section        0  delay.o(.text)
    .text                                    0x10000218   Section        0  timer.o(.text)
    .text                                    0x10000300   Section        0  gpio.o(.text)
    .text                                    0x1000042c   Section        0  debug.o(.text)
    .text                                    0x10000480   Section        0  uart.o(.text)
    __NVIC_EnableIRQ                         0x10000761   Thumb Code    26  uart.o(.text)
    .text                                    0x1000078c   Section       28  startup_armcm0.o(.text)
    .text                                    0x100007a8   Section        0  system_armcm0.o(.text)
    .text                                    0x100007b8   Section        0  main.o(.text)
    _LCDisConnect                            0x100007b9   Thumb Code    46  main.o(.text)
    _LCTimer_Handler                         0x100007e7   Thumb Code   248  main.o(.text)
    _LCRxPkt_Handler                         0x10000933   Thumb Code   370  main.o(.text)
    _LCTxPkt_Handler                         0x10000aa5   Thumb Code   380  main.o(.text)
    _LLENCReq                                0x1000138d   Thumb Code   288  main.o(.text)
    _GAPStartAdv                             0x100019ef   Thumb Code   558  main.o(.text)
    WaitLLCOverSlpth                         0x10002efd   Thumb Code    38  main.o(.text)
    _BBRXFIFORead                            0x10002f23   Thumb Code   138  main.o(.text)
    _rom_rx_sweyntooth_protect               0x10002fad   Thumb Code   150  main.o(.text)
    STKSetRand                               0x10003043   Thumb Code    30  main.o(.text)
    AttWriteFlash                            0x10003061   Thumb Code   110  main.o(.text)
    crc32_fun                                0x100030cf   Thumb Code    36  main.o(.text)
    GetOverSlpth                             0x100030f3   Thumb Code    26  main.o(.text)
    .text                                    0x10003120   Section        0  uidiv.o(.text)
    .text                                    0x1000314c   Section        0  idiv.o(.text)
    .text                                    0x10003174   Section        0  memcpya.o(.text)
    .text                                    0x10003198   Section        0  memseta.o(.text)
    .text                                    0x100031bc   Section        0  memcmp.o(.text)
    .text                                    0x100031d6   Section        0  uread4.o(.text)
    .text                                    0x100031ea   Section        0  uwrite4.o(.text)
    .text                                    0x100031fc   Section        0  fadd.o(.text)
    .text                                    0x100032b0   Section        0  dadd.o(.text)
    .text                                    0x10003414   Section        0  dmul.o(.text)
    .text                                    0x100034e4   Section        0  ddiv.o(.text)
    .text                                    0x100035d4   Section        0  ffltui.o(.text)
    .text                                    0x100035e4   Section        0  dflti.o(.text)
    .text                                    0x1000360c   Section        0  dfltui.o(.text)
    .text                                    0x10003628   Section        0  dfixui.o(.text)
    .text                                    0x10003664   Section        0  f2d.o(.text)
    .text                                    0x1000368c   Section        0  uldiv.o(.text)
    .text                                    0x100036ec   Section        0  llshl.o(.text)
    .text                                    0x1000370c   Section        0  llushr.o(.text)
    .text                                    0x1000372e   Section        0  llsshr.o(.text)
    .text                                    0x10003754   Section        0  iusefp.o(.text)
    .text                                    0x10003754   Section        0  fepilogue.o(.text)
    .text                                    0x100037d6   Section        0  depilogue.o(.text)
    .text                                    0x10003894   Section        0  dfixul.o(.text)
    .text                                    0x100038d4   Section       40  cdrcmple.o(.text)
    .text                                    0x100038fc   Section       36  init.o(.text)
    i.__0vsprintf                            0x10003920   Section        0  printfa.o(i.__0vsprintf)
    i.__ARM_clz                              0x10003944   Section        0  depilogue.o(i.__ARM_clz)
    i.__ARM_common_switch8                   0x10003972   Section        0  main.o(i.__ARM_common_switch8)
    i.__scatterload_copy                     0x1000398c   Section       14  handlers.o(i.__scatterload_copy)
    i.__scatterload_null                     0x1000399a   Section        2  handlers.o(i.__scatterload_null)
    i.__scatterload_zeroinit                 0x1000399c   Section       14  handlers.o(i.__scatterload_zeroinit)
    i._fp_digits                             0x100039ac   Section        0  printfa.o(i._fp_digits)
    _fp_digits                               0x100039ad   Thumb Code   316  printfa.o(i._fp_digits)
    i._printf_core                           0x10003b04   Section        0  printfa.o(i._printf_core)
    _printf_core                             0x10003b05   Thumb Code  1754  printfa.o(i._printf_core)
    i._printf_post_padding                   0x100041f0   Section        0  printfa.o(i._printf_post_padding)
    _printf_post_padding                     0x100041f1   Thumb Code    32  printfa.o(i._printf_post_padding)
    i._printf_pre_padding                    0x10004210   Section        0  printfa.o(i._printf_pre_padding)
    _printf_pre_padding                      0x10004211   Thumb Code    44  printfa.o(i._printf_pre_padding)
    i._sputc                                 0x1000423c   Section        0  printfa.o(i._sputc)
    _sputc                                   0x1000423d   Thumb Code    10  printfa.o(i._sputc)
    .constdata                               0x10004248   Section     1064  main.o(.constdata)
    _ll_packet_length                        0x1000424b   Data          15  main.o(.constdata)
    _smp_packet_lenght                       0x1000425a   Data          22  main.o(.constdata)
    crc32tab                                 0x10004270   Data        1024  main.o(.constdata)
    .data                                    0x20003000   Section       12  timer.o(.data)
    TIMER_CTRL                               0x20003000   Data           4  timer.o(.data)
    H_TIMER_CTRL                             0x20003004   Data           4  timer.o(.data)
    htimer_callback                          0x20003008   Data           4  timer.o(.data)
    .data                                    0x2000300c   Section       72  gpio.o(.data)
    gpio_callback                            0x20003020   Data           4  gpio.o(.data)
    pinmuxtab48                              0x20003024   Data          24  gpio.o(.data)
    pinmuxtab32                              0x2000303c   Data          24  gpio.o(.data)
    .data                                    0x20003054   Section        8  uart.o(.data)
    UART_0_CTRL                              0x20003054   Data           4  uart.o(.data)
    UART_1_CTRL                              0x20003058   Data           4  uart.o(.data)
    .data                                    0x2000305c   Section        4  system_armcm0.o(.data)
    .data                                    0x20003060   Section       64  main.o(.data)
    syd_confirm                              0x20003060   Data           1  main.o(.data)
    ww_minus_cnt                             0x20003061   Data           1  main.o(.data)
    ext_uart_en                              0x20003062   Data           1  main.o(.data)
    get_bond_device_idx                      0x20003063   Data           1  main.o(.data)
    _valid_l2cap_lenght                      0x20003065   Data           1  main.o(.data)
    rssi_rx                                  0x20003067   Data           1  main.o(.data)
    p_flash_hdr                              0x20003068   Data           4  main.o(.data)
    p_lclink                                 0x2000306c   Data           4  main.o(.data)
    p_txpdu                                  0x20003070   Data           4  main.o(.data)
    p_rxbuf                                  0x20003074   Data           4  main.o(.data)
    p_flash                                  0x20003078   Data           4  main.o(.data)
    p_dump_key                               0x20003080   Data           4  main.o(.data)
    EFUSE_CTRL                               0x20003084   Data           4  main.o(.data)
    BB_CTRL                                  0x20003088   Data           4  main.o(.data)
    PW_CTRL                                  0x2000308c   Data           4  main.o(.data)
    PIN_CONFIG                               0x20003090   Data           4  main.o(.data)
    CONFIG_FLASH_SIZE                        0x20003094   Data           4  main.o(.data)
    g_evt                                    0x20003098   Data           8  main.o(.data)
    .bss                                     0x200030a0   Section       12  timer.o(.bss)
    timer_callback                           0x200030a0   Data          12  timer.o(.bss)
    .bss                                     0x200030ac   Section      128  debug.o(.bss)
    s_formatBuffer                           0x200030ac   Data         128  debug.o(.bss)
    .bss                                     0x2000312c   Section      104  main.o(.bss)
    code_hdr                                 0x2000312c   Data          87  main.o(.bss)
    smart_update_ctrol                       0x20003183   Data          17  main.o(.bss)
    STACK                                    0x20003198   Section     1024  startup_armcm0.o(STACK)

    Global Symbols

    Symbol Name                              Value     Ov Type        Size  Object(Section)

    BuildAttributes$$THM_ISAv3M$S$PE$A:L22$X:L11$S22$IEEE1$IW$USESV6$~STKCKD$USESV7$~SHL$OTIME$ROPI$EBA8$MICROLIB$REQ8$PRES8$EABIv2 0x00000000   Number         0  anon$$obj.o ABSOLUTE
    __ARM_use_no_argv                        0x00000000   Number         0  main.o ABSOLUTE
    __cpp_initialize__aeabi_                  - Undefined Weak Reference
    __cxa_finalize                            - Undefined Weak Reference
    __decompress                              - Undefined Weak Reference
    _clock_init                               - Undefined Weak Reference
    _microlib_exit                            - Undefined Weak Reference
    __Vectors_Size                           0x000000c0   Number         0  startup_armcm0.o ABSOLUTE
    __Vectors                                0x10000000   Data           4  startup_armcm0.o(RESET)
    __Vectors_End                            0x100000c0   Data           0  startup_armcm0.o(RESET)
    __main                                   0x100000c1   Thumb Code     0  entry.o(.ARM.Collect$$$$00000000)
    _main_stk                                0x100000c1   Thumb Code     0  entry2.o(.ARM.Collect$$$$00000001)
    _main_scatterload                        0x100000c5   Thumb Code     0  entry5.o(.ARM.Collect$$$$00000004)
    __main_after_scatterload                 0x100000c9   Thumb Code     0  entry5.o(.ARM.Collect$$$$00000004)
    _main_clock                              0x100000c9   Thumb Code     0  entry7b.o(.ARM.Collect$$$$00000008)
    _main_cpp_init                           0x100000c9   Thumb Code     0  entry8b.o(.ARM.Collect$$$$0000000A)
    _main_init                               0x100000c9   Thumb Code     0  entry9a.o(.ARM.Collect$$$$0000000B)
    __rt_final_cpp                           0x100000d1   Thumb Code     0  entry10a.o(.ARM.Collect$$$$0000000D)
    __rt_final_exit                          0x100000d1   Thumb Code     0  entry11a.o(.ARM.Collect$$$$0000000F)
    SysTick_Handler                          0x100000d5   Thumb Code    10  main.o(.text)
    main                                     0x100000e9   Thumb Code   114  main.o(.text)
    delay_ms                                 0x100001f9   Thumb Code    28  delay.o(.text)
    TIMER0_IRQHandler                        0x10000219   Thumb Code    56  timer.o(.text)
    TIMER1_IRQHandler                        0x10000251   Thumb Code    56  timer.o(.text)
    TIMER2_IRQHandler                        0x10000289   Thumb Code    56  timer.o(.text)
    HTIMER_IRQHandler                        0x100002c1   Thumb Code    46  timer.o(.text)
    GPIO_Set_Output                          0x10000301   Thumb Code    50  gpio.o(.text)
    GPIO_Pin_Set                             0x10000333   Thumb Code    50  gpio.o(.text)
    GPIO_Pin_Turn                            0x10000365   Thumb Code    50  gpio.o(.text)
    GPIO_IRQHandler                          0x10000397   Thumb Code   132  gpio.o(.text)
    dbg_init                                 0x1000042d   Thumb Code     8  debug.o(.text)
    dbg_printf                               0x10000435   Thumb Code    72  debug.o(.text)
    uart_0_init                              0x10000481   Thumb Code   340  uart.o(.text)
    uart_0_write                             0x100005d5   Thumb Code    40  uart.o(.text)
    uart_0_read                              0x100005fd   Thumb Code    72  uart.o(.text)
    UART0_IRQHandler                         0x10000645   Thumb Code   106  uart.o(.text)
    uart_1_read                              0x100006af   Thumb Code    72  uart.o(.text)
    UART1_IRQHandler                         0x100006f7   Thumb Code   106  uart.o(.text)
    Reset_Handler                            0x1000078d   Thumb Code     8  startup_armcm0.o(.text)
    NMI_Handler                              0x10000795   Thumb Code     2  startup_armcm0.o(.text)
    HardFault_Handler                        0x10000797   Thumb Code     2  startup_armcm0.o(.text)
    SVC_Handler                              0x10000799   Thumb Code     2  startup_armcm0.o(.text)
    PendSV_Handler                           0x1000079b   Thumb Code     2  startup_armcm0.o(.text)
    CAP_IRQHandler                           0x1000079f   Thumb Code     0  startup_armcm0.o(.text)
    GPADC_IRQHandler                         0x1000079f   Thumb Code     0  startup_armcm0.o(.text)
    HID_IRQHandler                           0x1000079f   Thumb Code     0  startup_armcm0.o(.text)
    HPWM_IRQHandler                          0x1000079f   Thumb Code     0  startup_armcm0.o(.text)
    I2C0_IRQHandler                          0x1000079f   Thumb Code     0  startup_armcm0.o(.text)
    I2C1_IRQHandler                          0x1000079f   Thumb Code     0  startup_armcm0.o(.text)
    IR_Rx_IRQHandler                         0x1000079f   Thumb Code     0  startup_armcm0.o(.text)
    IR_Tx_IRQHandler                         0x1000079f   Thumb Code     0  startup_armcm0.o(.text)
    ISO_7816_IRQHandler                      0x1000079f   Thumb Code     0  startup_armcm0.o(.text)
    LLC2_IRQHandler                          0x1000079f   Thumb Code     0  startup_armcm0.o(.text)
    LLC_IRQHandler                           0x1000079f   Thumb Code     0  startup_armcm0.o(.text)
    RTC_IRQHandler                           0x1000079f   Thumb Code     0  startup_armcm0.o(.text)
    SPIM_IRQHandler                          0x1000079f   Thumb Code     0  startup_armcm0.o(.text)
    SW_IRQHandler                            0x1000079f   Thumb Code     0  startup_armcm0.o(.text)
    TIMER3_IRQHandler                        0x1000079f   Thumb Code     0  startup_armcm0.o(.text)
    TOUCH_IRQHandler                         0x1000079f   Thumb Code     0  startup_armcm0.o(.text)
    SystemInit                               0x100007a9   Thumb Code     8  system_armcm0.o(.text)
    LLPingReq                                0x100008df   Thumb Code    26  main.o(.text)
    LLScanReqHandle                          0x100008f9   Thumb Code    58  main.o(.text)
    _BBGetMask                               0x10000c21   Thumb Code    92  main.o(.text)
    Lib_LLEvtCallback                        0x10000c7d   Thumb Code   186  main.o(.text)
    ConnectionLatencyMode                    0x10000d37   Thumb Code   112  main.o(.text)
    sw_timer_latency_callback                0x10000da7   Thumb Code    42  main.o(.text)
    TimerStart                               0x10000dd1   Thumb Code    10  main.o(.text)
    smart_latency_start                      0x10000ddb   Thumb Code   212  main.o(.text)
    smart_update_latency_updatersp           0x10000eaf   Thumb Code   162  main.o(.text)
    BBRFRead                                 0x10000f51   Thumb Code     4  main.o(.text)
    BBRFWrite                                0x10000f55   Thumb Code     6  main.o(.text)
    RCOSCCalibration                         0x10000f5b   Thumb Code    64  main.o(.text)
    RFSleep                                  0x10000f9b   Thumb Code    12  main.o(.text)
    UartEn                                   0x10000fa7   Thumb Code    32  main.o(.text)
    _SYS32kClockSwitch                       0x10000fc7   Thumb Code   270  main.o(.text)
    ClockSwitch                              0x100010d5   Thumb Code    10  main.o(.text)
    RFWakeup                                 0x100010df   Thumb Code    22  main.o(.text)
    LPOCalibration                           0x100010f5   Thumb Code   254  main.o(.text)
    smart_latency_clear                      0x100011f3   Thumb Code    12  main.o(.text)
    Lib_EvtCallback                          0x100011ff   Thumb Code   254  main.o(.text)
    _BMGetNextBondDevice                     0x100012fd   Thumb Code   144  main.o(.text)
    __LLVersionIndRxHandler                  0x100014ad   Thumb Code    66  main.o(.text)
    GetMasterSystem                          0x100014ef   Thumb Code     6  main.o(.text)
    TimerStop                                0x100014f5   Thumb Code     4  main.o(.text)
    smart_update_retry                       0x100014f9   Thumb Code   158  main.o(.text)
    sw_timer_update_callback                 0x10001597   Thumb Code    60  main.o(.text)
    smart_update_latency_updatareq           0x100015d3   Thumb Code   496  main.o(.text)
    Lib_ProtocolHookCallback                 0x100017c3   Thumb Code   116  main.o(.text)
    Lib_MiscCallback                         0x10001837   Thumb Code    14  main.o(.text)
    BleInit                                  0x10001845   Thumb Code   344  main.o(.text)
    DisConnect                               0x1000199d   Thumb Code    10  main.o(.text)
    SetDevAddr                               0x100019a7   Thumb Code    12  main.o(.text)
    GetDevAddr                               0x100019b3   Thumb Code    12  main.o(.text)
    SetLEFeature                             0x100019bf   Thumb Code    12  main.o(.text)
    SetAdvAccCode                            0x100019cb   Thumb Code    12  main.o(.text)
    SetAdvParams                             0x100019d7   Thumb Code    12  main.o(.text)
    SetAdvData                               0x100019e3   Thumb Code    12  main.o(.text)
    StartAdv                                 0x10001c1d   Thumb Code    10  main.o(.text)
    StopAdv                                  0x10001c27   Thumb Code    24  main.o(.text)
    StopAdv_Noreset                          0x10001c3f   Thumb Code    38  main.o(.text)
    SetScanParams                            0x10001c65   Thumb Code    10  main.o(.text)
    _BBSetScan                               0x10001c6f   Thumb Code    46  main.o(.text)
    _GAPStartScan                            0x10001c9d   Thumb Code   254  main.o(.text)
    StartScan                                0x10001d9b   Thumb Code    10  main.o(.text)
    StopScan                                 0x10001da5   Thumb Code    10  main.o(.text)
    SetSecParams                             0x10001daf   Thumb Code    12  main.o(.text)
    SetConnectionUpdate                      0x10001dbb   Thumb Code    12  main.o(.text)
    GetLinkParameters                        0x10001dc7   Thumb Code    12  main.o(.text)
    SetWinWideMinusCnt                       0x10001dd3   Thumb Code     8  main.o(.text)
    SetPasskey                               0x10001ddb   Thumb Code    12  main.o(.text)
    SecurityReq                              0x10001de7   Thumb Code    12  main.o(.text)
    SetEvtCallback                           0x10001df3   Thumb Code    54  main.o(.text)
    GetGATTReportHandle                      0x10001e29   Thumb Code    10  main.o(.text)
    SetGATTReadRsp                           0x10001e33   Thumb Code    12  main.o(.text)
    CheckFIFOFull                            0x10001e3f   Thumb Code    18  main.o(.text)
    GATTDataSend                             0x10001e51   Thumb Code    86  main.o(.text)
    ATTCSetCallback                          0x10001ea7   Thumb Code     4  main.o(.text)
    ATTCMTUReq                               0x10001eab   Thumb Code    24  main.o(.text)
    ATTCFindInfoReq                          0x10001ec3   Thumb Code    28  main.o(.text)
    ATTCFindByTypeValueReq                   0x10001edf   Thumb Code    40  main.o(.text)
    ATTCReadByTypeReq                        0x10001f07   Thumb Code    36  main.o(.text)
    ATTCReadReq                              0x10001f2b   Thumb Code    24  main.o(.text)
    ATTCReadBlobReq                          0x10001f43   Thumb Code    28  main.o(.text)
    ATTCReadMultipleReq                      0x10001f5f   Thumb Code    28  main.o(.text)
    ATTCReadByGroupTypeReq                   0x10001f7b   Thumb Code    34  main.o(.text)
    ATTCWriteReq                             0x10001f9d   Thumb Code    32  main.o(.text)
    ATTCWriteCmdReq                          0x10001fbd   Thumb Code    32  main.o(.text)
    ATTCPrepareWriteReq                      0x10001fdd   Thumb Code    36  main.o(.text)
    ATTCExecuteWriteReq                      0x10002001   Thumb Code    24  main.o(.text)
    ATTCConfirmation                         0x10002019   Thumb Code    20  main.o(.text)
    _SYSClockSwitch                          0x1000202d   Thumb Code    86  main.o(.text)
    MCUClockSwitch                           0x10002083   Thumb Code     2  main.o(.text)
    GetMCUClock                              0x10002085   Thumb Code    14  main.o(.text)
    GetClock                                 0x10002093   Thumb Code    16  main.o(.text)
    WakeupConfig                             0x100020a3   Thumb Code    12  main.o(.text)
    LLSleep                                  0x100020af   Thumb Code    12  main.o(.text)
    Rand                                     0x100020bb   Thumb Code     4  main.o(.text)
    DelayUS                                  0x100020bf   Thumb Code     4  main.o(.text)
    DelayMS                                  0x100020c3   Thumb Code     6  main.o(.text)
    GetCompanyID                             0x100020c9   Thumb Code    18  main.o(.text)
    GetQFNType                               0x100020db   Thumb Code    20  main.o(.text)
    RFRead                                   0x100020ef   Thumb Code    70  main.o(.text)
    RFWrite                                  0x10002135   Thumb Code     8  main.o(.text)
    lib_check_ble_fsm_state                  0x1000213d   Thumb Code    26  main.o(.text)
    SystemSleep                              0x10002157   Thumb Code    18  main.o(.text)
    SystemPowerDown                          0x10002169   Thumb Code    78  main.o(.text)
    SystemReset                              0x100021b7   Thumb Code    12  main.o(.text)
    CapdetEn                                 0x100021c3   Thumb Code    10  main.o(.text)
    PowerDownLPOEn                           0x100021cd   Thumb Code    12  main.o(.text)
    SetBondManagerIndex                      0x100021d9   Thumb Code    12  main.o(.text)
    GetBondDevice                            0x100021e5   Thumb Code     6  main.o(.text)
    AddBondDevice                            0x100021eb   Thumb Code    12  main.o(.text)
    DelAllBondDevice                         0x100021f7   Thumb Code    10  main.o(.text)
    DelBondDevice                            0x10002201   Thumb Code    12  main.o(.text)
    ReadProfileData                          0x1000220d   Thumb Code     6  main.o(.text)
    WriteProfileData                         0x10002213   Thumb Code     6  main.o(.text)
    EraseFlashData                           0x10002219   Thumb Code    78  main.o(.text)
    ReadFlashData                            0x10002267   Thumb Code    56  main.o(.text)
    WriteFlashData                           0x1000229f   Thumb Code    56  main.o(.text)
    CodeErase                                0x100022d7   Thumb Code   100  main.o(.text)
    CodeErase_sector                         0x1000233b   Thumb Code    72  main.o(.text)
    _FMCodeWrite                             0x10002383   Thumb Code    58  main.o(.text)
    CodeWrite                                0x100023bd   Thumb Code    30  main.o(.text)
    CodeUpdate                               0x100023db   Thumb Code    10  main.o(.text)
    FlashDataUpdate                          0x100023e5   Thumb Code   124  main.o(.text)
    ble_sched_execute                        0x10002461   Thumb Code   150  main.o(.text)
    ble_sched_finish                         0x100024f7   Thumb Code     4  main.o(.text)
    syd52832_chip_confirm                    0x100024fb   Thumb Code    26  main.o(.text)
    gap_s_smart_update_latency               0x10002515   Thumb Code   246  main.o(.text)
    eFuseManual                              0x1000260b   Thumb Code    28  main.o(.text)
    GPADC_Manual_Calibration                 0x10002627   Thumb Code    34  main.o(.text)
    GPADC_Get_Calibration                    0x10002649   Thumb Code    22  main.o(.text)
    GAPGetUartEn                             0x1000265f   Thumb Code     6  main.o(.text)
    GAPUartEn                                0x10002665   Thumb Code     6  main.o(.text)
    GAPBBDelayUS                             0x1000266b   Thumb Code     4  main.o(.text)
    GAPBBDelayMS                             0x1000266f   Thumb Code     6  main.o(.text)
    GAPGetRFAutoSleep                        0x10002675   Thumb Code     4  main.o(.text)
    GAPSetRFAutoSleep                        0x10002679   Thumb Code     6  main.o(.text)
    Setting4kUpdate                          0x1000267f   Thumb Code   116  main.o(.text)
    SetDevAddr_toflash                       0x100026f3   Thumb Code    72  main.o(.text)
    gap_s_verdor_datas_get                   0x1000273b   Thumb Code    28  main.o(.text)
    gap_s_verdor_datas_set                   0x10002757   Thumb Code    66  main.o(.text)
    gap_s_is_ll_start_enc                    0x10002799   Thumb Code    26  main.o(.text)
    GAPBBTXFIFO0Write                        0x100027b3   Thumb Code     4  main.o(.text)
    flash_peotect_key_confirm                0x100027b7   Thumb Code   148  main.o(.text)
    swd_lock                                 0x1000284b   Thumb Code    36  main.o(.text)
    flash_data_offect_get                    0x1000286f   Thumb Code    52  main.o(.text)
    EraseCodeB                               0x100028a3   Thumb Code    58  main.o(.text)
    ReadCodeB                                0x100028dd   Thumb Code    64  main.o(.text)
    WriteCodeB                               0x1000291d   Thumb Code    96  main.o(.text)
    ble_SetTxPower                           0x1000297d   Thumb Code   242  main.o(.text)
    flash_data_size_get                      0x10002a6f   Thumb Code    18  main.o(.text)
    code_idx_get                             0x10002a81   Thumb Code     6  main.o(.text)
    flash_data_size_set                      0x10002a87   Thumb Code   146  main.o(.text)
    Get_RSSI_Last_RX                         0x10002b19   Thumb Code    82  main.o(.text)
    APP_Read_Attribute_Encrypt               0x10002b6b   Thumb Code    62  main.o(.text)
    APP_Write_Attribute_Encrypt              0x10002ba9   Thumb Code    66  main.o(.text)
    APP_Read_Charact_Permission              0x10002beb   Thumb Code    66  main.o(.text)
    smart_latency_target                     0x10002c2d   Thumb Code    30  main.o(.text)
    smp_aes_encrypt                          0x10002c4b   Thumb Code     4  main.o(.text)
    gap_get_flash_data_info                  0x10002c4f   Thumb Code    26  main.o(.text)
    gap_set_flash_data_info                  0x10002c69   Thumb Code    70  main.o(.text)
    gap_check_dev_bonded                     0x10002caf   Thumb Code     6  main.o(.text)
    syd_set_chip_flash_all_size              0x10002cb5   Thumb Code     6  main.o(.text)
    Xtal_trim_get                            0x10002cbb   Thumb Code   106  main.o(.text)
    Xtal_trim_set                            0x10002d25   Thumb Code   164  main.o(.text)
    flash_read_sfdp                          0x10002dc9   Thumb Code    46  main.o(.text)
    syd_read_unique_id                       0x10002df7   Thumb Code    30  main.o(.text)
    ota_code_check_crc32                     0x10002e15   Thumb Code   226  main.o(.text)
    RefreshCache                             0x10002ef7   Thumb Code     6  main.o(.text)
    __aeabi_uidiv                            0x10003121   Thumb Code     0  uidiv.o(.text)
    __aeabi_uidivmod                         0x10003121   Thumb Code    44  uidiv.o(.text)
    __aeabi_idiv                             0x1000314d   Thumb Code     0  idiv.o(.text)
    __aeabi_idivmod                          0x1000314d   Thumb Code    40  idiv.o(.text)
    __aeabi_memcpy                           0x10003175   Thumb Code    36  memcpya.o(.text)
    __aeabi_memcpy4                          0x10003175   Thumb Code     0  memcpya.o(.text)
    __aeabi_memcpy8                          0x10003175   Thumb Code     0  memcpya.o(.text)
    __aeabi_memset                           0x10003199   Thumb Code    14  memseta.o(.text)
    __aeabi_memset4                          0x10003199   Thumb Code     0  memseta.o(.text)
    __aeabi_memset8                          0x10003199   Thumb Code     0  memseta.o(.text)
    __aeabi_memclr                           0x100031a7   Thumb Code     4  memseta.o(.text)
    __aeabi_memclr4                          0x100031a7   Thumb Code     0  memseta.o(.text)
    __aeabi_memclr8                          0x100031a7   Thumb Code     0  memseta.o(.text)
    _memset$wrapper                          0x100031ab   Thumb Code    18  memseta.o(.text)
    memcmp                                   0x100031bd   Thumb Code    26  memcmp.o(.text)
    __aeabi_uread4                           0x100031d7   Thumb Code    20  uread4.o(.text)
    __rt_uread4                              0x100031d7   Thumb Code     0  uread4.o(.text)
    _uread4                                  0x100031d7   Thumb Code     0  uread4.o(.text)
    __aeabi_uwrite4                          0x100031eb   Thumb Code    18  uwrite4.o(.text)
    __rt_uwrite4                             0x100031eb   Thumb Code     0  uwrite4.o(.text)
    _uwrite4                                 0x100031eb   Thumb Code     0  uwrite4.o(.text)
    __aeabi_fadd                             0x100031fd   Thumb Code   162  fadd.o(.text)
    __aeabi_fsub                             0x1000329f   Thumb Code     8  fadd.o(.text)
    __aeabi_frsub                            0x100032a7   Thumb Code     8  fadd.o(.text)
    __aeabi_dadd                             0x100032b1   Thumb Code   328  dadd.o(.text)
    __aeabi_dsub                             0x100033f9   Thumb Code    12  dadd.o(.text)
    __aeabi_drsub                            0x10003405   Thumb Code    12  dadd.o(.text)
    __aeabi_dmul                             0x10003415   Thumb Code   202  dmul.o(.text)
    __aeabi_ddiv                             0x100034e5   Thumb Code   234  ddiv.o(.text)
    __aeabi_ui2f                             0x100035d5   Thumb Code    14  ffltui.o(.text)
    __aeabi_i2d                              0x100035e5   Thumb Code    34  dflti.o(.text)
    __aeabi_ui2d                             0x1000360d   Thumb Code    24  dfltui.o(.text)
    __aeabi_d2uiz                            0x10003629   Thumb Code    50  dfixui.o(.text)
    __aeabi_f2d                              0x10003665   Thumb Code    40  f2d.o(.text)
    __aeabi_uldivmod                         0x1000368d   Thumb Code    96  uldiv.o(.text)
    __aeabi_llsl                             0x100036ed   Thumb Code    32  llshl.o(.text)
    _ll_shift_l                              0x100036ed   Thumb Code     0  llshl.o(.text)
    __aeabi_llsr                             0x1000370d   Thumb Code    34  llushr.o(.text)
    _ll_ushift_r                             0x1000370d   Thumb Code     0  llushr.o(.text)
    __aeabi_lasr                             0x1000372f   Thumb Code    38  llsshr.o(.text)
    _ll_sshift_r                             0x1000372f   Thumb Code     0  llsshr.o(.text)
    __I$use$fp                               0x10003755   Thumb Code     0  iusefp.o(.text)
    _float_round                             0x10003755   Thumb Code    16  fepilogue.o(.text)
    _float_epilogue                          0x10003765   Thumb Code   114  fepilogue.o(.text)
    _double_round                            0x100037d7   Thumb Code    26  depilogue.o(.text)
    _double_epilogue                         0x100037f1   Thumb Code   164  depilogue.o(.text)
    __aeabi_d2ulz                            0x10003895   Thumb Code    54  dfixul.o(.text)
    __aeabi_cdrcmple                         0x100038d5   Thumb Code    38  cdrcmple.o(.text)
    __scatterload                            0x100038fd   Thumb Code    28  init.o(.text)
    __scatterload_rt2                        0x100038fd   Thumb Code     0  init.o(.text)
    __0vsprintf                              0x10003921   Thumb Code    30  printfa.o(i.__0vsprintf)
    __1vsprintf                              0x10003921   Thumb Code     0  printfa.o(i.__0vsprintf)
    __2vsprintf                              0x10003921   Thumb Code     0  printfa.o(i.__0vsprintf)
    __c89vsprintf                            0x10003921   Thumb Code     0  printfa.o(i.__0vsprintf)
    vsprintf                                 0x10003921   Thumb Code     0  printfa.o(i.__0vsprintf)
    __ARM_clz                                0x10003945   Thumb Code    46  depilogue.o(i.__ARM_clz)
    __ARM_common_switch8                     0x10003973   Thumb Code    26  main.o(i.__ARM_common_switch8)
    __scatterload_copy                       0x1000398d   Thumb Code    14  handlers.o(i.__scatterload_copy)
    __scatterload_null                       0x1000399b   Thumb Code     2  handlers.o(i.__scatterload_null)
    __scatterload_zeroinit                   0x1000399d   Thumb Code    14  handlers.o(i.__scatterload_zeroinit)
    adv_chn_to_freq_idx                      0x10004248   Data           3  main.o(.constdata)
    Region$$Table$$Base                      0x10004670   Number         0  anon$$obj.o(Region$$Table)
    Region$$Table$$Limit                     0x10004690   Number         0  anon$$obj.o(Region$$Table)
    PIN_CONFIG                               0x2000300c   Data           4  gpio.o(.data)
    GPIO_CTRL                                0x20003010   Data           4  gpio.o(.data)
    GPO_CTRL                                 0x20003014   Data           4  gpio.o(.data)
    GPI_CTRL                                 0x20003018   Data           4  gpio.o(.data)
    GPIO_IRQ_CTRL                            0x2000301c   Data           4  gpio.o(.data)
    SystemCoreClock                          0x2000305c   Data           4  system_armcm0.o(.data)
    ble_rc32k_clk_lpo_ing_flag               0x20003064   Data           1  main.o(.data)
    master_system                            0x20003066   Data           1  main.o(.data)
    p_gett_db_hdr                            0x2000307c   Data           4  main.o(.data)
    __initial_sp                             0x20003598   Data           0  startup_armcm0.o(STACK)



==============================================================================

Memory Map of the image

  Image Entry point : 0x100000c1

  Load Region LR_IROM1 (Base: 0x10000000, Size: 0x00004730, Max: 0x0003f000, ABSOLUTE)

    Execution Region ER_IROM1 (Base: 0x10000000, Size: 0x00004690, Max: 0x0003f000, ABSOLUTE)

    Base Addr    Size         Type   Attr      Idx    E Section Name        Object

    0x10000000   0x000000c0   Data   RO          434    RESET               startup_armcm0.o
    0x100000c0   0x00000000   Code   RO          553  * .ARM.Collect$$$$00000000  mc_p.l(entry.o)
    0x100000c0   0x00000004   Code   RO          618    .ARM.Collect$$$$00000001  mc_p.l(entry2.o)
    0x100000c4   0x00000004   Code   RO          621    .ARM.Collect$$$$00000004  mc_p.l(entry5.o)
    0x100000c8   0x00000000   Code   RO          623    .ARM.Collect$$$$00000008  mc_p.l(entry7b.o)
    0x100000c8   0x00000000   Code   RO          625    .ARM.Collect$$$$0000000A  mc_p.l(entry8b.o)
    0x100000c8   0x00000008   Code   RO          626    .ARM.Collect$$$$0000000B  mc_p.l(entry9a.o)
    0x100000d0   0x00000000   Code   RO          628    .ARM.Collect$$$$0000000D  mc_p.l(entry10a.o)
    0x100000d0   0x00000000   Code   RO          630    .ARM.Collect$$$$0000000F  mc_p.l(entry11a.o)
    0x100000d0   0x00000004   Code   RO          619    .ARM.Collect$$$$00002712  mc_p.l(entry2.o)
    0x100000d4   0x00000124   Code   RO            3    .text               main.o
    0x100001f8   0x00000020   Code   RO           76    .text               delay.o
    0x10000218   0x000000e8   Code   RO          116    .text               timer.o
    0x10000300   0x0000012c   Code   RO          231    .text               gpio.o
    0x1000042c   0x00000054   Code   RO          332    .text               debug.o
    0x10000480   0x0000030c   Code   RO          377    .text               uart.o
    0x1000078c   0x0000001c   Code   RO          435    .text               startup_armcm0.o
    0x100007a8   0x00000010   Code   RO          442    .text               system_armcm0.o
    0x100007b8   0x00002968   Code   RO          473    .text               syd8811_ble_lib.lib(main.o)
    0x10003120   0x0000002c   Code   RO          556    .text               mc_p.l(uidiv.o)
    0x1000314c   0x00000028   Code   RO          558    .text               mc_p.l(idiv.o)
    0x10003174   0x00000024   Code   RO          560    .text               mc_p.l(memcpya.o)
    0x10003198   0x00000024   Code   RO          562    .text               mc_p.l(memseta.o)
    0x100031bc   0x0000001a   Code   RO          564    .text               mc_p.l(memcmp.o)
    0x100031d6   0x00000014   Code   RO          596    .text               mc_p.l(uread4.o)
    0x100031ea   0x00000012   Code   RO          598    .text               mc_p.l(uwrite4.o)
    0x100031fc   0x000000b2   Code   RO          600    .text               mf_p.l(fadd.o)
    0x100032ae   0x00000002   PAD
    0x100032b0   0x00000164   Code   RO          602    .text               mf_p.l(dadd.o)
    0x10003414   0x000000d0   Code   RO          604    .text               mf_p.l(dmul.o)
    0x100034e4   0x000000f0   Code   RO          606    .text               mf_p.l(ddiv.o)
    0x100035d4   0x0000000e   Code   RO          608    .text               mf_p.l(ffltui.o)
    0x100035e2   0x00000002   PAD
    0x100035e4   0x00000028   Code   RO          610    .text               mf_p.l(dflti.o)
    0x1000360c   0x0000001c   Code   RO          612    .text               mf_p.l(dfltui.o)
    0x10003628   0x0000003c   Code   RO          614    .text               mf_p.l(dfixui.o)
    0x10003664   0x00000028   Code   RO          616    .text               mf_p.l(f2d.o)
    0x1000368c   0x00000060   Code   RO          635    .text               mc_p.l(uldiv.o)
    0x100036ec   0x00000020   Code   RO          637    .text               mc_p.l(llshl.o)
    0x1000370c   0x00000022   Code   RO          639    .text               mc_p.l(llushr.o)
    0x1000372e   0x00000026   Code   RO          641    .text               mc_p.l(llsshr.o)
    0x10003754   0x00000000   Code   RO          643    .text               mc_p.l(iusefp.o)
    0x10003754   0x00000082   Code   RO          644    .text               mf_p.l(fepilogue.o)
    0x100037d6   0x000000be   Code   RO          646    .text               mf_p.l(depilogue.o)
    0x10003894   0x00000040   Code   RO          650    .text               mf_p.l(dfixul.o)
    0x100038d4   0x00000028   Code   RO          652    .text               mf_p.l(cdrcmple.o)
    0x100038fc   0x00000024   Code   RO          654    .text               mc_p.l(init.o)
    0x10003920   0x00000024   Code   RO          575    i.__0vsprintf       mc_p.l(printfa.o)
    0x10003944   0x0000002e   Code   RO          648    i.__ARM_clz         mf_p.l(depilogue.o)
    0x10003972   0x0000001a   Code   RO          493    i.__ARM_common_switch8  syd8811_ble_lib.lib(main.o)
    0x1000398c   0x0000000e   Code   RO          660    i.__scatterload_copy  mc_p.l(handlers.o)
    0x1000399a   0x00000002   Code   RO          661    i.__scatterload_null  mc_p.l(handlers.o)
    0x1000399c   0x0000000e   Code   RO          662    i.__scatterload_zeroinit  mc_p.l(handlers.o)
    0x100039aa   0x00000002   PAD
    0x100039ac   0x00000158   Code   RO          576    i._fp_digits        mc_p.l(printfa.o)
    0x10003b04   0x000006ec   Code   RO          577    i._printf_core      mc_p.l(printfa.o)
    0x100041f0   0x00000020   Code   RO          578    i._printf_post_padding  mc_p.l(printfa.o)
    0x10004210   0x0000002c   Code   RO          579    i._printf_pre_padding  mc_p.l(printfa.o)
    0x1000423c   0x0000000a   Code   RO          581    i._sputc            mc_p.l(printfa.o)
    0x10004246   0x00000002   PAD
    0x10004248   0x00000428   Data   RO          475    .constdata          syd8811_ble_lib.lib(main.o)
    0x10004670   0x00000020   Data   RO          658    Region$$Table       anon$$obj.o


    Execution Region RW_IRAM1 (Base: 0x20003000, Size: 0x00000598, Max: 0x00005000, ABSOLUTE)

    Base Addr    Size         Type   Attr      Idx    E Section Name        Object

    0x20003000   0x0000000c   Data   RW          128    .data               timer.o
    0x2000300c   0x00000048   Data   RW          241    .data               gpio.o
    0x20003054   0x00000008   Data   RW          382    .data               uart.o
    0x2000305c   0x00000004   Data   RW          443    .data               system_armcm0.o
    0x20003060   0x00000040   Data   RW          476    .data               syd8811_ble_lib.lib(main.o)
    0x200030a0   0x0000000c   Zero   RW          127    .bss                timer.o
    0x200030ac   0x00000080   Zero   RW          334    .bss                debug.o
    0x2000312c   0x00000068   Zero   RW          474    .bss                syd8811_ble_lib.lib(main.o)
    0x20003194   0x00000004   PAD
    0x20003198   0x00000400   Zero   RW          432    STACK               startup_armcm0.o


==============================================================================

Image component sizes


      Code (inc. data)   RO Data    RW Data    ZI Data      Debug   Object Name

        84          4          0          0        128       2062   debug.o
        32          4          0          0          0      29711   delay.o
       300         18          0         72          0       1752   gpio.o
       292         48          0          0          0      42579   main.o
        28          8        192          0       1024        652   startup_armcm0.o
        16          8          0          4          0        731   system_armcm0.o
       232         18          0         12         12       9362   timer.o
       780         18          0          8          0       2429   uart.o

    ----------------------------------------------------------------------
      1764        126        224         96       1164      89278   Object Totals
         0          0         32          0          0          0   (incl. Generated)
         0          0          0          0          0          0   (incl. Padding)

    ----------------------------------------------------------------------

      Code (inc. data)   RO Data    RW Data    ZI Data      Debug   Library Member Name

         0          0          0          0          0          0   entry.o
         0          0          0          0          0          0   entry10a.o
         0          0          0          0          0          0   entry11a.o
         8          4          0          0          0          0   entry2.o
         4          0          0          0          0          0   entry5.o
         0          0          0          0          0          0   entry7b.o
         0          0          0          0          0          0   entry8b.o
         8          4          0          0          0          0   entry9a.o
        30          0          0          0          0          0   handlers.o
        40          0          0          0          0         72   idiv.o
        36          8          0          0          0         68   init.o
         0          0          0          0          0          0   iusefp.o
        32          0          0          0          0         68   llshl.o
        38          0          0          0          0         68   llsshr.o
        34          0          0          0          0         68   llushr.o
        26          0          0          0          0         72   memcmp.o
        36          0          0          0          0         60   memcpya.o
        36          0          0          0          0        100   memseta.o
      2238         96          0          0          0        460   printfa.o
        44          0          0          0          0         72   uidiv.o
        96          0          0          0          0         84   uldiv.o
        20          0          0          0          0         60   uread4.o
        18          0          0          0          0         60   uwrite4.o
        40          2          0          0          0         68   cdrcmple.o
       356          4          0          0          0        140   dadd.o
       240          6          0          0          0         84   ddiv.o
       236          0          0          0          0        216   depilogue.o
        60         10          0          0          0         68   dfixui.o
        64         10          0          0          0         68   dfixul.o
        40          6          0          0          0         68   dflti.o
        28          4          0          0          0         68   dfltui.o
       208          6          0          0          0         88   dmul.o
        40          0          0          0          0         60   f2d.o
       178          0          0          0          0        108   fadd.o
       130          0          0          0          0        144   fepilogue.o
        14          0          0          0          0         68   ffltui.o
     10626        506       1064         64        104     110733   main.o

    ----------------------------------------------------------------------
     15012        666       1064         64        108     113293   Library Totals
         8          0          0          0          4          0   (incl. Padding)

    ----------------------------------------------------------------------

      Code (inc. data)   RO Data    RW Data    ZI Data      Debug   Library Name

      2744        112          0          0          0       1312   mc_p.l
      1634         48          0          0          0       1248   mf_p.l
     10626        506       1064         64        104     110733   syd8811_ble_lib.lib

    ----------------------------------------------------------------------
     15012        666       1064         64        108     113293   Library Totals

    ----------------------------------------------------------------------

==============================================================================


      Code (inc. data)   RO Data    RW Data    ZI Data      Debug   

     16776        792       1288        160       1272     200955   Grand Totals
     16776        792       1288        160       1272     200955   ELF Image Totals
     16776        792       1288        160          0          0   ROM Totals

==============================================================================

    Total RO  Size (Code + RO Data)                18064 (  17.64kB)
    Total RW  Size (RW Data + ZI Data)              1432 (   1.40kB)
    Total ROM Size (Code + RO Data + RW Data)      18224 (  17.80kB)

==============================================================================

