:020000041000EA
:10000000F0420020ED170010F5170010490700100E
:1000100000000000000000000000000000000000E0
:10002000000000000000000000000000F9170010B0
:100030000000000000000000FB170010FD1700107A
:1000400000000000FF1700108F3C0010FF17001089
:10005000FF170010FF17001091110010BB110010C6
:100060003D350010ED350010CD360010FF170010A3
:1000700021100010FF170010FF170010FF170010CD
:10008000FF170010FF170010FF170010FF170010D8
:10009000FF170010FF170010FF170010FF170010C8
:1000A0000000000000000000000000000000000050
:1000B0000000000000000000000000000000000040
:1000C0000348854604F09EF9004800477B0600106F
:1000D000F0420020F8B50027FC4800970068FF2197
:1000E00020303D463C463E46017041709F22827062
:1000F000CF22C270017138460122811F0B0004F02B
:10010000AAF90B070707070C0C0C0C0C10100C00BD
:10011000114681400D430C4303E0114681400F43DB
:100120000E43401CC0B22028E7D3284600F0C2FE90
:100130002946002000F08BFE2846A04300F028FF4F
:10014000204600F03DFF3846009900F0CBFE3146D6
:10015000002000F049FEF8BD70B586B00020694669
:100160000872072048741920800148821E20888266
:1001700002A802F039FA684602F024FA6946D44827
:100180004E78C6728D780573CC7844730B7983737F
:100190004A79C273897901741B3006714571847183
:1001A000C37102724172024614231B211B3802F0F4
:1001B00021FAC8490120087506B070BD0EB50028A7
:1001C00002D001280FD106E010206946C880C8205F
:1001D0004881002006E050206946C8804B20C000BE
:1001E00048810A200881C0206946087104204871AE
:1001F00001A802F0B4FE6946488900900B89CA88BC
:10020000B5A1002001F04BFA0EBDB14910B50C3973
:100210008878401CC0B28870032808D3002048703A
:100220000120FFF7CBFFFF20013003F0C3F810BD22
:100230003EB5A74C0C3CE278D2070ED001246A46AA
:100240001480032555801F259580148103460A4696
:100250006946204602F08DFB3EBD00203EBD9C4A13
:1002600010B50C3A9088401C81B2A748918009C80B
:10027000984205D1032903D90020507003F09EF95C
:1002800010BDF0B5A04E85B035687468A54231D078
:100290008F4F0C3F7878002807D10120787000201C
:1002A000B8809A49A32003F059F901239B02A54283
:1002B00001D32D1B01E0281BC518142D1CD31F468C
:1002C000834900200C398880914B69461A5D641C73
:1002D0000A54BC4200D30024401CC0B21428F5D3F9
:1002E00014216846FFF7A4FF002803D0143D746072
:1002F000142DE5D205B0F0BD002DFBD0B888032841
:10030000F8D30020694608E0814A125D641C0A5453
:100310009C4200D30024401CC0B2A842F4D3E9B2EE
:100320006846FFF785FF002800D074600020B88081
:10033000E0E7F0B504468DB0401C03F034FDC11F6A
:10034000FF39FA3919D0FF2101310027884239D10C
:10035000402000F04DFE0822611D03A803F0F6FCCA
:100360006846C0891521490288421AD169A003C88C
:10037000019100900820694621E0802000F038FEBD
:1003800021460E221531684603F0E0FC1E22611D55
:1003900004A803F0DBFC04AD0FCD00F0DAF90DB0DA
:1003A000F0BD5E498842FAD16846077001976946F8
:1003B00001A8029700F010FC684601A9007802F03D
:1003C000C9FAECE7424E01210C3E02281FD04E4DE7
:1003D00004282DD04A03641C904256D160792279BA
:1003E000000210430128DAD1607A237A02023046F3
:1003F0001A43C078012A38D08843F070002001F0F9
:100400005AFDFF20013000F0DBFD45A139E03170DD
:10041000FF20B770013003F006F80120400200F021
:10042000B7FD0623A21D44A1002001F044F9B6E760
:10043000627945A1002001F032F9F77037706868E1
:10044000012464022860204602F0B4FFFFF784FE16
:1004500002F0E4F9204600F0B3FD601000F0B0FDBA
:10046000002001F028FD3FA10BE00843F0700120BF
:1004700001F021FD68682860FF20013000F088FD50
:100480003DA1002001F00BF989E70121C903884251
:100490001AD16079217900020843030003F0DBFFE1
:1004A0000605929496989A0479E739A1002001F004
:1004B000F6F8684602F0F2F96846438802883AA1E5
:1004C000002001F0ECF86AE786E0000058300020D8
:1004D0000C30002000000240736D6172745F706127
:1004E00072616D7320696E74657276616C3A2578FD
:1004F000206C6174656E63793A2578207376746F29
:100500003A25780D0A000000243500205F02001013
:10051000243100205359445F5541525401FF0000DB
:1005200055415254206E6F74696679204469736135
:10053000626C6564210D0A00436F6E6E65637465BD
:100540006420616464723A00446973636F6E6E651F
:10055000637465642C7265736F6E3A30782530323F
:10056000780D0A00737461727420616476204020F3
:1005700064697363210D0A0055415254206E6F74F3
:1005800069667920456E61626C6564210D0A000020
:1005900075706461746520727370204143434550E7
:1005A0005445440D0A000000696E74657276616CF2
:1005B0003A2578206C6174656E63793A25780D0A66
:1005C00000000000A3A15CE7A8A15AE7ADA158E78D
:1005D000B2A156E7B6A154E70121090488420DD122
:1005E00001A802F05BF96846008900906846C3885C
:1005F0008288B4A1002001F052F8D0E60128FCD195
:1006000002F00CF9CBE6F8B5B64C207800281BD0E8
:100610000026B54D012818D001277F0202281ED0E0
:10062000032811D12670384602F0C4FEAFA1002085
:1006300001F035F87D20C00000F0E8F9AFA10020FE
:1006400001F02DF802F019FBF8BD00F0FBF9B0A1A4
:10065000002001F024F8022020702E70F8BD2878C8
:10066000401CC0B228702028F8D9ACA1002001F0AD
:1006700016F8384602F09EFEF8BD72B600F0AFF8EC
:10068000002002F07DFA01F0F3FB002001F092FC63
:10069000FF20F53002F0DCFC01F09DFC00F09CFE38
:1006A000A1A3A4A2A6A1002000F0F9FFAA4902205C
:1006B00002F012FF00F0ACFDA849012003F0D3FACC
:1006C00000F0C4FDFFF706FD00F0E8FCA44800219F
:1006D0000160416002F0A2F862B601277F02A14CDE
:1006E000A14DA24E02F0E3FB00F05FF82068002865
:1006F00013D0800508D5FFF786FF384602F045FE87
:100700009BA1002000F0CBFF2088C00505D5FFF796
:100710007CFDFF20013002F038FE286800280AD056
:10072000400708D501F057FC95A1002000F0B7FF65
:10073000042003F00FF9F078C00702D0FFF7A1FD05
:10074000D0E702F068FACDE791A1002000F0A7FF02
:10075000FEE70FB4F8B569464A8B897F06A8022ADE
:1007600009D0904B9A4202D1C01D00F082F9F8BC2A
:1007700008BC04B018477A4B17241A6862438A4CA5
:10078000A154012207E08518AE791D6817277D4323
:100790002D19AE54521C9142F5D21868401C1860B5
:1007A0003228E4D300201860E1E7F8B56C4C2568E6
:1007B0006068A84212D07C4E00276068A8420DD025
:1007C00017214843315C8019401C00F00EF9606825
:1007D000401C60603228F0D36760EEE7F8BD10B5CA
:1007E00088B001F098FE012002F084F85F480830DC
:1007F00002F0AAF803206A46107300245473917B18
:10080000FB228143491C11406A4691731021D17328
:100810001474507403A802F035F8C02005906348A2
:10082000069005A802F075F8002002F038FAFFF7EC
:1008300093FC6A461470D470147101205070947047
:10084000D11D800203F0B9FA684602F0A9F908B098
:1008500010BD000075706461746520727370205261
:10086000454A45435445440D0A00000075706461D3
:100870007465207273702054494D45524F55540D84
:100880000A000000757064617465207273702053F3
:100890005543434545440D0A00000000456E616222
:1008A0006C65206C6174656E63790D0A0000000050
:1008B00044697361626C65206C6174656E63790D67
:1008C0000A000000434F4E4E5F5550444154455F6F
:1008D000434F4D503A2025642C2025642C2025645C
:1008E0000D0A00003C3000203D3000204F544120D4
:1008F00066696E6973680D0A0000000053746172C6
:10090000742052657365742031303030730D0A00E5
:100910004F54412073746172740D0A004F5441208A
:100920006661696C650D0A0031373A32373A353203
:100930000000000041756720323820323031390024
:10094000537964383831315F554152542025733A18
:1009500025730D0A00000000DC3900200C3A00204D
:10096000AC390020EC3000200431002000300020A1
:100970004556545F31535F4F54410D0A000000004B
:100980005254434556545F313835530D0A00000028
:100990004552523A20486172644661756C74210D6B
:1009A0000A00000001FF00002C3500203303001076
:1009B000FEB501A9684600F0D1FB002001266A4679
:1009C000104901AC104DB60213780BE00F68225CA1
:1009D000EA550A68521C0A60B24201D300220A603A
:1009E000401CC0B29842F1D3FEBD70B50D4606461C
:1009F000002404E0305D00F0A6FB641CE4B2AC42CD
:100A0000F8D370BD24350020243100200022064B8D
:100A100006E00021491C89B29942FBD3521C92B2D4
:100A20008242F6D3704700008C0A000010B5AA4B32
:100A30000E241B691C70541C5C709870D81C03F049
:100A400085F910BD08B502F09DF9002069460870CF
:100A500001221620FFF7EAFF08BD00229E49002868
:100A600001D00A704A704A80CA808A800A81CA60AE
:100A70007047FEB5984C0E4661880025002905D0C8
:100A80002178002902D0657000216DE001781139CC
:100A90000B0003F0E0FC06111C214B46041B002058
:100AA000FFF78CFB8DA1002000F0F9FD0120400232
:100AB00002F0B9FC012007E00020FFF77FFB8BA1CB
:100AC000002000F0ECFD04202070E560FEBD801CDD
:100AD00000F094F805201EE0871CC01C03F063F9A9
:100AE00001463A78864802F0BBFA0646781C03F0C5
:100AF0005AF9034638780090324682A1002000F06F
:100B0000CEFD002E09D068460571012201A91820EA
:100B1000FFF78CFF06202070FEBD0120694608719A
:100B2000F3E7801C00F0A0F80320F4E7C179827994
:100B30000F0217436780417A027A0E021643E6805D
:100B4000801C03F030F9E060A580258102463B4619
:100B500072A10020009600F0A2FDFEBD425C238938
:100B6000D218491C228189B2B142F7D381070AD039
:100B700001463246764803F0E9F8A188E068744AF5
:100B80004018314605E0A288E1688B1802463146DC
:100B9000184602F077F9A088801981B2A180608898
:100BA0008142DAD32289E088824204D1002000F019
:100BB0004CF868A103E0012000F047F869A100208B
:100BC00000F06DFDE38822896AA1002000F067FD36
:100BD0000020FFF742FFFEBD70B53F4C0D46216976
:100BE0004A7821461431921C03F0B0F8206940780D
:100BF000801C287000206061A06170BD38B504467B
:100C000040782178000208430121090388421BD85B
:100C1000A27882188A4201D9091AA1703849A278AB
:100C20004018E11C03F092F86078217802020A4330
:100C3000A3785BA1002000F032FD00206946087017
:100C400001221720FFF7F2FE38BD1CB56B46597024
:100C5000090A9970DA70110A19711870052269462B
:100C60001420FFF7E3FE1CBD38B504463848203099
:100C70000179002905D02038006A354A400102F088
:100C800001F9204603F08FF8617922790B021343B2
:100C900002464AA1002000F002FD204603F083F83E
:100CA000617922790B02134302460021084602F0C3
:100CB000F9F80446024647A1002000F0F0FC002CA1
:100CC00007D000206946087001221820FFF7AEFE09
:100CD00038BD0120F6E700003C300020434D445F62
:100CE00046575F45524153450D0A0000344B53456A
:100CF0005454494E475F4552415345200D0A000068
:100D00004A070020436F64655570646174653D2532
:100D1000642025782025780D0A000000434D445FAB
:100D200046575F57524954455F5354415254206FC0
:100D300066667365743A25782C73697A653A257806
:100D400020636865636B73756D3A25780D0A000042
:100D5000B439002073656374696F6E204F4B212096
:100D60000000000073656374696F6E206661696CD2
:100D7000652120006F74615F726563656976655FE8
:100D8000636865636B3A2578206F74615F73656390
:100D900074696F6E5F636865636B3A25780D0A004E
:100DA000636D64344B53455454494E4757726974CC
:100DB000652025782025780D0A0000006F746120D9
:100DC000737A3A257820636865636B73756D3A258D
:100DD00078200000436F64655570646174657632F5
:100DE000303D25640D0A0000F0B5AA4C221D944642
:100DF000002829D0012826D1A74B002B23D0002082
:100E000001228240114207D01F5C01252668BD40A7
:100E10002E432660914302D0401C1828F0D318209E
:100E200001252A4682402B46114209D064460646D7
:100E30002478183EB3401C4363461C70914302D093
:100E4000401C2028EDD3F0BD934B183BD5E7F0B5FF
:100E5000904C221D9446002829D0012826D18E4B83
:100E6000002B23D0002001228240114207D01F5CBA
:100E700001252668BD40AE432660914302D0401C48
:100E80001828F0D3182001252A4682402B4611420B
:100E900009D0644626780446183CA3409E43634626
:100EA0001E70914302D0401C2028EDD3F0BD7A4B38
:100EB000183BD5E7784910B530394A68147821468F
:100EC0005478240221439478D378240421431B06C8
:100ED000194381431170080A5070080C9070080E75
:100EE000D07010BD70B56C4E303E73681D782A46C8
:100EF0005D782D022A439D78DC782D042A43240650
:100F0000224302431A70140A5C70140C9C70120E77
:100F1000DA70F3681D782A465D782D022A439D78A1
:100F2000DC782D042A432406224302431A70140A53
:100F30005C70140C9C70120EDA7008229C182578D4
:100F40002A4665782D022A43A578E4782D042A43A1
:100F50002406224382431A72100A5872100C9872A7
:100F6000100ED87208201A181478204654782402DB
:100F700020439478D2782404204312061043084377
:100F80001872010A5972010C9972000ED87270BD64
:100F9000414910B530398A681478214654782402C2
:100FA00021439478D378240421431B061943014339
:100FB0001170080A5070080C9070080ED07010BDA7
:100FC000354910B530398A6814782146547824029E
:100FD00021439478D378240421431B061943814389
:100FE0001170080A5070080C9070080ED07010BD77
:100FF000294910B530398A6814782146547824027A
:1010000021439478D378240421431B06194341409B
:101010001170080A5070080C9070080ED07010BD46
:1010200010B51D4C1820303C236919180A78104659
:101030004A78120210438A78C978120410430906CC
:10104000084310215A181378194653781B02194384
:101050009378D2781B04194312061143884318D0A1
:101060006069002800D08047216918200A18137889
:10107000184653781B0218439378D2781B04184300
:10108000120610430870020A4A70020C8A70000EA1
:10109000C87010BD8010005088300020F8B552484C
:1010A0000068C17B89098901C91CC173017C890958
:1010B0008901091D017420308178DF22114081707F
:1010C0008378BF210B408370484C206883785B088D
:1010D0005B00837003781B091B01083303700378DE
:1010E0005B065B0E037003780B400370C37810251A
:1010F0002B43C370837804252B438370857820238A
:101100001D4385708678EF252E408670867880276F
:101110003E43867086780E408670017829400170C3
:101120000178114001708178022211438170C178E9
:101130001943C170062000F04DF82068817808221C
:1011400011438170F8BD2949096848700878800604
:10115000FCD50878DF2210400870704738B50022AF
:101160006C462270214B1B680DE01C798C546D4637
:10117000521C2C78D2B2641C2C702C78641C2C70FD
:101180002C78641C2C70DC78E407EED0027038BD3B
:1011900010B5164C20680178C90605D50178EF22F4
:1011A00011400170FFF704FC20688178890703D59E
:1011B000817802221143817010BD10B50B48406840
:1011C0000178C90605D50178EF2211400170FFF7BB
:1011D000EFFB10BD002805DBC106C90E01208840C9
:1011E000034908607047000058300020A0300020FC
:1011F00000E100E00F48FF22016801321143016065
:1012000070470C4801220168520211430160704787
:1012100010B57D242401FF200023074A2146013018
:1012200002F016F801200023044A2146400202F091
:101230000FF810BDEC300020F51100100312001063
:1012400008480422016811430160704710B500236B
:10125000054AB921042002F00EFB042002F0B7FB7E
:1012600010BD0000043100204112001010B5604C88
:101270000120206160615FA0A06120464830E061EC
:10128000012080020021A1622062616259A0E16216
:1012900020635B48606321641020E163A0636164A4
:1012A00058A1E01D02F076FD57A1204602F072FD24
:1012B0002020A07110BDF7B5054682B00020009037
:1012C000EC6817462869A04201D9061B02E0A9680C
:1012D000201A0E1AA868761E001BB04200D80646D7
:1012E000BE4200D33E46686832460019039902F0B8
:1012F0002DFD0098BF1B801900900398A419801938
:101300000390A868A04200D10024EC60002FD9D13E
:10131000009805B0F0BDF7B50446C7688068E1687D
:10132000C51B606816464018B54205D9019902F000
:101330000DFDB819E060FEBD2A46019902F006FDD8
:101340000198761B41193246606802F0FFFCE660A6
:10135000FEBD70B50E461821484325491446451870
:10136000E86A1835002804D001280FD0022805D1DA
:1013700013E0284600F031F8A04201D2002411E029
:10138000224631462846FFF7C6FF0BE0284600F00C
:1013900024F8A042F4D20446F2E731462846FFF78B
:1013A0008AFF0446204670BDF8B50746104815462A
:1013B00000780E46002801D1FFF758FFEFF31084A4
:1013C000012080F310882A4631463846FFF7C1FFD6
:1013D000E1B281F31088F8BD48E70269C1688A422A
:1013E00003D88068401A801800E0501A401E7047E9
:1013F000243A00205465726D696E616C0000000033
:101400006C3E00205254540053454747455200005B
:1014100010B5044680686368421C934205D3236874
:101420001954A260E068401CE060A26860688242D3
:1014300009D121682069FFF7B7FFA168884203D06E
:101440000020C043E06010BD0020A06010BDFFB5CB
:1014500081B001261F4635460A9C029802E002F040
:101460004BFC6D1C03998842F9D2AF4200D93D462E
:101470000B98C00718D1002C16D00B98800701D507
:10148000002F02D0202000900CE03020FBE7641EEB
:1014900000990198FFF7BCFF0198C06800283DDB68
:1014A000002C01D0A542F2D30198C068002835DB9A
:1014B000012F01D97F1E06E03146029802F01CFC84
:1014C0000399884202D303984643F1E7C14F31465E
:1014D000029802F011FC0146029A7143511A0291DE
:1014E000395C0198FFF794FF0198C068002805DB7C
:1014F0003046039902F000FC0600E8D10B98C007C3
:101500000CD0002C0AD0A54208D22021641E0198DC
:10151000FFF77EFF0198C0680028F2DA05B0F0BD41
:10152000F7B598B007A802904020039000200C4621
:101530000490189915460826069105902178641C98
:10154000002970D0252907D002A8FFF761FF059870
:101550000028F3DA1BB0F0BD012200201346022759
:10156000217823291BD02B2916D02D2902D03029F0
:1015700006D101E0184300E03843641C002AEFD193
:10158000002122781346303B0A2B0AD20A23594302
:1015900089183039641CF4E704210843EDE730432F
:1015A000EBE70023D7B22E2F0AD1641C227817460E
:1015B000303F0A2F04D20A277B439B18303BF4E7C5
:1015C0006C2A0DD0682A0BD0702A48D00BDC252A53
:1015D0004FD0582A28D0632A0CD0642A4DD10EE06F
:1015E0006278641CECE7732A2AD0752A13D0782A13
:1015F00043D119E02868011D296001783AE02A6882
:10160000171D2F601768009101900A22394602A821
:1016100000F07BF831E02A68171D2F6017680A2256
:101620000091019007E02AE02A68171D2F601768D3
:10163000102200910190394602A8FFF708FF1CE034
:101640002868011D2960076839787F1C002914D09B
:1016500002A8FFF7DDFE05980028F5DA0DE02868FE
:101660000823011D296001680020102200960190C6
:10167000E2E7252102A8FFF7CBFE641C67E70028FC
:1016800000DC67E70498002804D0024607A91898F0
:10169000FFF78AFE04990598401805905AE70FB4A1
:1016A00008B504A900916A460399FFF739FF01B014
:1016B00008BC04B01847FFB5002481B01D4616468B
:1016C000002902D00198FFF7EAFF01277F0713E006
:1016D000600704D1A2B240A10198FFF7E0FF325D9C
:1016E0003FA10198FFF7DBFF6007F84203D13EA15D
:1016F0000198FFF7D4FF641CAC42E9DB600703D01C
:1017000039A10198FFF7CBFF08E7FFB583B00E467C
:1017100070420D9F0C9C0090002900DB08460125BB
:1017200002E002F0FFFA6D1C05998842F9DA06988A
:10173000A84200D90546002C04D0002E01DB780712
:1017400000D5641EB80702D50698002810D0F80707
:101750000ED1002C0CD0A5420AD22021641E039881
:10176000FFF756FE0398C0680028F2DA07B0F0BD14
:101770000398C0680028F9DB002E02DA2D21009EB4
:1017800002E0780707D52B210398FFF741FE039865
:10179000C0680028EADBB807800F022810D106983D
:1017A00000280DD1002C0BD0A54209D23021641E97
:1017B0000398FFF72DFE0398C0680028F2DAD5E7FA
:1017C000019700943146069B059A0398FFF73FFE68
:1017D000CCE700008E4400105B253034785D20009B
:1017E00025303278200000000D0A000004488047B0
:1017F00004480047FEE7FEE7FEE7FEE7FEE7FEE7F8
:1018000009180010C1000010024901480860704723
:101810000024F400AC300020F1B5F84880470746BA
:10182000F74880470646F54C0120183CA047F44D88
:1018300000200C35A847F349009888473046A84750
:101840003846A047F8BDF0B5EF4DF048A96885B01F
:101850000818044602F0A7FA2146401C02F0ADFA2F
:101860000024E94801258668E8480C3831180391BE
:10187000487C097C00020843A540284202903BD0E6
:101880000B2060438119E14800910930081801904C
:1018900002F089FA0746DD48301802F084FA8742E0
:1018A0002AD10F21009889014018007D00280CD012
:1018B000D64A00990D3A8A18517D127D09021143CA
:1018C0007818019902F079FA05E002980399A84383
:1018D0000874000A4874CD4800990D30081802F0C9
:1018E00062FA002808D0022D19D0042D17D0082D37
:1018F00015D0102D1AD08047641CE4B20A2CB0D346
:10190000C1488168C1480C380918487C097C00022C
:101910000843800501D1BE48804705B0F0BDBD49F0
:10192000012088470028E7D0222005E0B94901209E
:1019300088470028E0D03B20FFF76EFFDCE7F0B5DA
:1019400085B00020694608730872B34F0874B34E1F
:10195000AD4CB847019004AB02AA03A9206901F07D
:101960002BFC0028D9D00820B047002803D0022043
:10197000B04700280FD06846007A012811D0A0682F
:101980002569407A012826D00228E2D1A44A2846B7
:1019900001999047DDE7012168460172007C00282B
:1019A00015D02521A06849014118497B002908D09C
:1019B0009649D4314018417B027B08029949104373
:1019C00088476846964A017B96322069E1E73D20C8
:1019D000FFF722FFA1E728780007000F0528B8D1FC
:1019E0008D49EE31A81C8847287887224006C10F10
:1019F000A06811540622A91C883002F0A7F93721EB
:101A0000E06802F0BCF9A4E7F0B5824999B004207F
:101A1000884700280ED07F4904201A3188477C4926
:101A20001F20AC318847804880471620FFF7F4FE1E
:101A300019B0F0BD7D488047002810D0724DAC68C9
:101A4000A1790807F4D5E079C2071CD0784920466F
:101A500098308847A868C179490849001FE0734E4B
:101A6000714F714DB2361C376C46103507E0684631
:101A7000B0470128DCD168460178601CB847A84708
:101A80000028F4D0D4E782070BD5694A20461C32DF
:101A90008E30811C9047A868FD22C17923E0C17176
:101AA000C6E7420708D5624920466031A83088471A
:101AB000A868FB22C17916E00207F726002A09DA96
:101AC0005B4A21464232A07A0B319047A868C1791F
:101AD0003140E4E7C00608D5554968467C3188475F
:101AE000A868EF22C1791140D9E720463140FF3084
:101AF000A1712130017D0026002910D006752146F4
:101B0000072287310CA802F021F921460DA82A22CC
:101B10008E31033002F01AF946490CA8884701209B
:101B20006946087048708E70A96800A82A220330A0
:101B30008E3102F00BF92D2208213F4C6B4600201C
:101B4000A04775E730490128C9690FD0022811D094
:101B5000042812D0082813D0102814D0202815D01B
:101B6000402816D0802818D0012070478878C007F8
:101B7000C00F7047887880070DE0887840070AE03A
:101B80008878000707E08878C00604E08878800637
:101B900001E088784006C00F70478878C009704718
:101BA00010B50178012920D1401C02F0FCF8164A3A
:101BB00010285BD00EDC012818D002283ED0042863
:101BC00044D0082811D1FFF7BDFF00280DD10D48E2
:101BD000563809E0202859D0402806D1FFF7B2FF37
:101BE000002802D10748801E804710BD0120FFF762
:101BF000A9FF0028F9D1FFF707FF10BDBF6500005E
:101C0000776A0000CF160000B0300020CE0300003D
:101C100001120000F50A0000495700007919000080
:101C20008B1E00002B620000BD600000054E00000E
:101C300027260000DF470000A13E00000220FFF73A
:101C400081FF0028D9D1FFF77AFE10BD0420FFF7ED
:101C500079FF0028F9D19068407A012803D0022842
:101C6000F3D1FE48C0E7FD48AE38BDE71020FFF7CE
:101C700069FF0028E9D1D0692030407D400701D5B7
:101C80003E2000E00820FFF7C7FD10BD2020FFF731
:101C900059FF0028F9D1F248A6E710B500280ED068
:101CA000F04AD1698B7E082423438B7660310B7E0A
:101CB00052785B095B01D206D20E13430B76EA49D8
:101CC0008847012010BDE74880682330417C027CB2
:101CD000080210430BD0E54948780A780002104307
:101CE000032210430870000A48700120D5E77047AE
:101CF00030B4DD4C6C34A44630BC6047F8B5DB48EA
:101D0000407A000663D5D748866830462330417C48
:101D1000007C0F02D54907434878097804020C4338
:101D2000002F01D1600752D5D04DA87B697B0002FE
:101D30006D1C08434BD0002F49D0687929790002E7
:101D400008432ED12136707C317C0002084302F01A
:101D500045FA0022C64B02F045F902F04DFA80B276
:101D60007843642101F0DEFF4004010C2971080A68
:101D700068710A204143707D327D00021043814228
:101D800006D30A21401E01F0CDFF2871000A6871B8
:101D9000687929790002084303D1012028710020C5
:101DA0006871B248A10709D502218C4301210C4377
:101DB0000470210A41700020FFF76FFF68792A79CB
:101DC00001021143AB4B00224020FFF791FFF8BD09
:101DD0001CB5A6494A7A002A3AD04A780B781202F2
:101DE0001A43D30634D443780478180220430128D8
:101DF0002ED1C878401E0006000EC87029D00846B3
:101E00008B78017AC27909021143027BC47A1202EB
:101E10002243C01C012B24D0521A0272120A4272B1
:101E20001206037A120C1A43531A69460B804A8031
:101E30008E498A7B497B12020A4369468A80417B2C
:101E4000027B080210436946C8808B496846884770
:101E50001CBD887AC870402002430A70100A48707E
:101E60001CBD5218D9E7854A1047844A20321047D2
:101E700038B5002421467F20FFF7F7FF00213B20E3
:101E8000FFF7F3FF29213B20FFF7EFFF69463B20D7
:101E9000FFF7E9FF68460078800701D5012038BDCB
:101EA000641CA4B2FF2CF1D9002038BD10B57448D1
:101EB0008047012010BD10B56A49724A8870002819
:101EC00007D188688078022803D00020904701203D
:101ED00010BD0120FAE710B5624C0128A168887096
:101EE00004D0002836D002284BD05EE0606A01465C
:101EF00020310A78520852000A700A78FD231A40ED
:101F00000A700178890989011C31017041788909B9
:101F100089011C31417000217F20FFF7A6FF0321BA
:101F20002120FFF7A2FF1F210320FFF79EFF7D2046
:101F30005249C0008031884702217F20FFF795FF7A
:101F400001210020FFF791FF00217F20FFF78DFF87
:101F50000F2127E000217F20FFF787FF00210420C9
:101F6000FFF783FF02217F20FFF77FFF0021084654
:101F7000FFF77BFF00217F20FFF777FF0021032081
:101F800011E002217F20FFF770FF03210020FFF7FF
:101F90006CFF00217F20FFF768FF00210320FFF77F
:101FA00064FF00210420FFF760FFA078FFF783FFA4
:101FB000012010BD10B5FFF78EFF012010BD304885
:101FC00010B50C3080472748006A017ADF221140A3
:101FD0000172012010BDFEB52A4818308047214CFF
:101FE0000190206A817A007ACF07FF0F002672B62F
:101FF000800702D00126FFF7E2FF1A48006A817AC3
:102000004908490081721F49012088470220FFF7D3
:1020100062FF1A49642066318847002469460C70C3
:10202000254601217F20FFF720FF00210A20FFF72E
:102030001CFF22210A20FFF718FF69460A20FFF73C
:1020400012FF684600784007EFD469460A20FFF780
:102050000AFF6846007840071CD515E027150000E8
:10206000C1160000B03000203F440000D33E0020E5
:102070000000F43FC71C001033420000C56100009F
:1020800007470000A765000068460078000706D4EF
:10209000012504E0641CFA48A4B28442D5D3F9496E
:1020A000642088470020FFF716FFF749019888470A
:1020B000F648006A817A4908490039438172002E46
:1020C00001D0F348804762B6002D01D00120FEBD4B
:1020D0000020FEBD10B51121EE4801F050FE10BDEC
:1020E00070B50446401C01F05EFE022818D004289A
:1020F00019D001214904884244D125462035687B06
:10210000092301070209090F0020072A19D0032A11
:102110001DD0022A22D0012A26D0002A2AD02FE060
:10212000FFF7D8FF37E0D948FF2180680122353119
:102130000A548078002801D1FFF74DFFFFF798FE81
:1021400029E0581A062148434121C94304E0581A9E
:10215000062148433521C943081A10E0581A0621C0
:1021600048432321C943F7E7581A0621484317215A
:10217000C943F1E7581A06214843801D404240B246
:10218000687308E040281DD00121C903884202D1AC
:10219000601DFFF71DFEBF4948780978000208431B
:1021A000800607D5601C01F0FEFD0005000F01D080
:1021B000FFF7A4FDB5482C3001F0F5FD014620469F
:1021C000884770BDB148283001F0EDFD4006E2D5EA
:1021D00070BDB14908471CB5AE4808210170002107
:1021E00041700146087BCA7A0002C91C10432FD0F7
:1021F0004A790B7912021A43821A92B26B461A80FC
:1022000058800623062A01D26A461380062801D286
:1022100068464380487B097B000208436946C880C2
:102220009C48817B427B080210436946888097481E
:1022300080682330417C027C0802104302D00020D9
:10224000FFF72BFD9549684688479349402088470A
:102250001CBD904948780A7800021043C2050CD58D
:10226000FF22013290430870000A48700879401E2E
:102270000006000E087109D0ADE72022104310229D
:102280009043042210430870000A48707047FEB55E
:10229000804D0446687829780002084300077DD500
:1022A0007F48804769782A780902114308229143C0
:1022B00029700A0A6A706B7A064628461A066ED595
:1022C000A27967791202651C3A43704FE41C002A18
:1022D00077D01022114301700A0A427088065ED43A
:1022E000687929790002084332D001F077FF019123
:1022F0000090607821780002084301F06FFF694C7C
:102300000022234601F06EFE019B009A01F06AFE56
:1023100001910090B8682130417C027C0802104392
:1023200001F05CFF0022234601F05CFE07460C46EC
:10233000687A297A00020843801B01F03BFF3A4685
:10234000234601F04FFE019B009A01F099FD24E025
:10235000607821780002084301F024FF0446B86841
:102360002130417C027C0802104301F01BFF214612
:1023700001F02CFD01F05EFF00224A4B01F032FE1D
:1023800007460C46687A297A00020843801B01F050
:1023900011FF3A46234601F025FE02E06EE064E0BC
:1023A0000FE00022404B01F085FE01F025FF010403
:1023B000090C00D101213D4B00228020FFF798FC41
:1023C00053E09A0651D58278012A4ED18A064CD420
:1023D000FF223048013211430170090A41706078D0
:1023E0002178000208432B490A7BCB7A110219435A
:1023F00088423AD901F0D6FE0446B8682130417CC3
:10240000027C0802104301F0CDFE214601F0DEFC03
:1024100001F010FF0022234B01F0E4FD07460C46BB
:10242000687A297A00020843801B01F0C3FE3A460D
:10243000234601F0D7FD00221B4B01F03BFE01F0CB
:10244000DBFE0104090C00D10121184B0022802081
:10245000FFF74EFC0F484178027809021143FF2232
:10246000013211430170090A417003206946088155
:10247000022291030E4C02AB0020A047FEBD0000DB
:10248000FFFF00002B620000A7650000B0300020B5
:1024900007470000D33E0020B34400003342000051
:1024A000BF5500000000F43F0000594053220010C7
:1024B000A13E000010B50446007800280ED1A17896
:1024C0006278080210430AD0012807D1F649201D7E
:1024D0008847002802D12820FFF79EF910BDF34954
:1024E000201D8847002802D12820FFF795F9201DDC
:1024F000FFF7CDFEEE480121836806220904002083
:10250000EC4C3133A04710BD10B50078012801D143
:10251000FFF799F910BD30B5E74885B08047012134
:102520007F20FFF7A2FC69465020FFF79CFC68461D
:102530000078042801D0E1488047FFF74CFDFFF701
:1025400097FC0124684644800480DD480190DD4901
:102550006846884768460470447000244480DA481E
:102560000190D348D94B806808226946C01801F011
:10257000EDFB0121D64D4020A84701218020A8472E
:1025800001212020A84703216846018041808480E2
:10259000C480048144818481C481CE48C9490490A7
:1025A0006846A2398847012005B030BDC24810B541
:1025B0000A308047012010BDBF4910B52831884737
:1025C000012010BDBC4910B55E318847012010BD07
:1025D000B94910B56A318847012010BDB64910B518
:1025E00078318847012010BDB34910B5883188473C
:1025F000012010BD10B5AF4C383CA047012010BDE4
:10260000F8B5AB4CB449A06837308847E0683B2345
:102610000178BF250A09A16812015B5C1B071B0F2B
:102620001A4302701207120F012A79D00B46403369
:102630005A781B7812021A430B4642331A70120A58
:102640005A7002788B7A2A409B011A435206520E26
:10265000027066235B5C42789B1D92099B06920187
:102660009B0E1A4342700622801C0B3101F06EFB58
:10267000A1686620425C002A04D0E0686731083017
:1026800001F064FBA068002120304177E068934AA4
:1026900041788906890E891C9047E06801780A090B
:1026A0001201121D0270A1682A408B7ADB075B0EB3
:1026B0001A43027046235B5C42789B1D92099B067D
:1026C00092019B0E1A4342700622801C0B3101F0CE
:1026D0003DFBA1684620425C002A04D0E0684731F7
:1026E000083001F033FBE0687C4A41782C328906DF
:1026F000890E891C9047A56801272E462036F07E5A
:1027000001283BD000284CD002284AD0062848D0C7
:102710000023684C1A4601211846A047F8BDFFE780
:102720000A464032137953718B7A0278DB072A40CC
:102730005B0E1A43027087235B5C5206520EDB016C
:102740001A43027042780B31920992010C324270A6
:102750000622801C01F0FAFAE068A168062208301F
:10276000883101F0F3FAA16803223D2042545A4A0D
:102770008720405C323A8831904787E74035687956
:1027800000280AD028200621E269937EFD242340F8
:1027900093761775737F327F3AE001206F7101469F
:1027A000F2E72C4642346078217802020A4316D0C0
:1027B0002235697F19202B7F80010902424319438A
:1027C00001208904890C009105D0104601F094FA8B
:1027D000401C7F2809D8C5B22770380A0CE0380A97
:1027E000277060700125009507E07F2529467E301F
:1027F00001F082FA2070000A60702D48C069817E65
:102800000222114381760775737F327F0099284633
:102810002F4CFE34A047324880477FE710B5FFF7C2
:10282000EFFE012010BD10B52E49032008702E497F
:1028300064208847214810308047012010BD72B6BF
:1028400000211B4AD0694175037C01210B430374AD
:10285000906845221154423001700021417062B6E7
:102860000120704710B521498847012010BD1F483D
:1028700010B55C308047012010BD10B51C48804762
:10288000012010BD1A4910B508318847012010BD3C
:10289000174910B516318847012010BD144910B5ED
:1028A00078318847012010BD475F00005D5B000064
:1028B000B0300020A13E0000793D0000F746000046
:1028C000092500102F440000A11B0010CE020000BB
:1028D00061550000B5240010B1570000D960000018
:1028E0009D560000000002404562000001410000CA
:1028F0001D420000F74948700120704710B5F649A5
:102900008847012010BDF44A10B5083290470120D5
:1029100010BD7CB5054601F046FAEE490446283163
:1029200001F04BFA281D01F03EFAEA492C3101F082
:1029300044FA40208443E948E749019000946846FE
:102940001031884701207CBDE34910B58A318847A2
:10295000012010BDE04A10B592329047012010BD11
:1029600010B5DF488047022801D9002010BD0120A2
:1029700010BDF8B50E460746DA491C46154601203B
:10298000884700280AD0D6488047022807D923461E
:10299000D14C2A4631463846A234A047BEE6002034
:1029A000BCE6D149084710B50446CE490120884706
:1029B000002803D0CC4920460831884710BD70B5A7
:1029C0000546C84A0C4601209047002804D0C64A54
:1029D000214628462232904770BDFFB50F4681B090
:1029E000C0491D46164601200A9C8847002807D08A
:1029F0000094BD4C2B463246394644340198A047DA
:102A000005B0F0BDF8B50E460746B6491C4615465A
:102A100001208847002806D02346B34C2A46314679
:102A200038467C34A04779E610B50446AD4901200C
:102A30008847002803D0AC492046AC31884710BDF8
:102A400070B50546A74A0C4601209047002804D0DF
:102A5000A54A21462846C632904770BD70B5054646
:102A6000A04A0C4601209047002804D09E4A2146E7
:102A70002846E832904770BDF8B50E46074699499A
:102A80001C46154601208847002805D02346974C50
:102A90002A4631463846A04740E670B50D46064600
:102AA0009049144601208847002805D08F4B2246C4
:102AB000294630463033984770BD70B50D460646FE
:102AC0008849144601208847002805D0874B2246B4
:102AD000294630465C33984770BDF8B50E46074628
:102AE00080491C46154601208847002806D0234609
:102AF0007E4C2A46314638468834A0470EE610B54B
:102B00000446784901208847002803D077492046A9
:102B1000B831884710BD10B5724901208847002898
:102B200002D07248CC30804710BD70B5694D044664
:102B3000082804D0A868407808280DD014E00021A7
:102B40007F20FFF792F901214020FFF78EF9286AD4
:102B50000178C908C9000EE000217F20FFF785F940
:102B600000214020FFF781F9286A01786207C9082F
:102B7000C900520F11430170A8684470012070BD54
:102B8000D3E710B504465A4880472070012010BD95
:102B900010B504465648801D80472070012010BDA6
:102BA000534910B51C318847012010BD504810B55D
:102BB00072308047012010BD4E4800474E490847FB
:102BC0004D491A31084708B54C4968468847684658
:102BD000C0788007C00F08BD08B5484968468847D7
:102BE0006846C078C00900D0012008BD10B5FFF7C5
:102BF0003AF910BD10B5FFF738F910BD3548C06976
:102C0000C07B052805D0062803D00F2801D000205E
:102C100070470120704710B5FFF7F0FF002802D180
:102C2000334852308047012010BD10B52949012298
:102C3000C8694275437CDB09DB019B1C4374931E0E
:102C400083741B0AC374096ACB7AEF242340CB72C6
:102C50004B7B93434B738B7A13438B72817E02239E
:102C600019438176017C11430174234905201A31EF
:102C7000884723488047012010BD214810B51230F5
:102C80008047012010BD1D4910B57E3188470120C5
:102C900010BD1A4910B596318847012010BD18495A
:102CA00010B558318847012010BD1549AC3108478F
:102CB000134910B5FA318847012010BD10B51148ED
:102CC0008047012010BD0F4810B518308047012003
:102CD00010BD0000B0300020A3420000E120001031
:102CE0002B4E0000F50A0000B73A0000BB3B000085
:102CF0009F440000FB5F00002B6200004D65000058
:102D0000E546000003480000F64B1847F54B363304
:102D1000184770B50446F4480D464068283001F065
:102D200042F8002805D072B60019F04A29469047AB
:102D300062B670BD70B50446EB48154640680E4655
:102D4000283001F030F8002807D072B60019E74BA0
:102D50002A463146EA3B984762B670BD70B50446D4
:102D6000E148154640680E46283001F01CF800285E
:102D700007D072B60019DD4B2A463146823B984790
:102D800062B670BD70B5002472B6D74D68680A305F
:102D900001F009F8D54B5721D54AEA3B984762B66E
:102DA000D348D24E007800280DD001281ED024E050
:102DB00072B6143000F0F7FF210340180121B0472C
:102DC00062B6641CE4B26868C17B827B090211436D
:102DD000A142EDD811E072B6103000F0E4FF2103FB
:102DE00040180121B04762B6641CE4B26868C17B38
:102DF000827B09021143A142EDD8012070BDF8B5D4
:102E00000F46054672B6B84C60680A3000F0CBFF3A
:102E1000B64B5721B64AEA3B984762B6B448B34E20
:102E20000078002802D0012804D00CE072B6606857
:102E3000143002E072B66068103000F0B4FF401940
:102E40003946B04762B6012068E4F8B50446A848A0
:102E50000F460178A448A54D4068823D16460029DA
:102E600002D0012903D00BE072B6143001E072B633
:102E7000103000F098FF001932463946A84762B674
:102E800001204BE430B4984B5C68E37BA47B1B02CD
:102E900023431B03834202D230BC0020704730BC66
:102EA000C9B2D2E730B4934CA44630BC6047F8B501
:102EB000914880478E4C5734607A002840D00006F5
:102EC000042500280FDA60782178000208434007C3
:102ED00009D5FEF713FF6078217800020843A84364
:102EE0002070000A60706078217800020843834FE8
:102EF000834E41060CD5402188432070000A607043
:102F000002206946088002466B4639460020B047D9
:102F10006078217800020843C10711D040084000C2
:102F20002070010A6170800702D56846058002E0C2
:102F300005206946088002226B4639460020B047CA
:102F40006BE47048004738B5674C2078002804D1FE
:102F50006D496846884701202070012038BD70B552
:102F60000278002A4BD0624957314A7242788A72FD
:102F7000002A01D0042A01D904228A72C2788478F6
:102F800013025B4A23435732D3721C0A14734479E9
:102F9000057924022C4315466C73240AAC73C4795A
:102FA000857920022843D073000A10744E48082502
:102FB0008068D21C2130447C007C24020443012020
:102FC000A342887008D91B1B07E01071000A01E0BA
:102FD0001571280A507107E0E31A8C7AA3420ADAC5
:102FE0001071000A50718B72887AC8700871FFF7EF
:102FF000F2F8012070BDE400A342E9DAE5E7002021
:1030000070BD394989690870020A4A70020C8A70D9
:10301000000EC870487A022210434872704738B5D3
:103020000446002000903849684688470099F820F7
:103030008143E006000E08430090FFF7E2FF38BD31
:1030400031487230004730495A3108472F49084704
:103050002E491A3108472E4800472D490C310847A0
:10306000F8B500260B4604460125304631462D03AF
:10307000675C491CBE19A942FAD30021675C491C50
:103080007840A942FAD39E422AD1904228D1164EC6
:1030900070680A3000F087FE144B5721144AEA3B4F
:1030A000984770680A3000F07EFE001957221049D8
:1030B00000F04CFE70681C3000F075FEB16800191D
:1030C00007220A3100F042FE0121084A0020904701
:1030D000064B002022462946823B984701205DE4AA
:1030E00000205BE4A5480000B030002043540000FD
:1030F0007C3E00207B4A00005B4600000080000010
:10310000A13E0000F94B00004D6500002B6200005D
:10311000776A000070B501264A4C360305464A4BD3
:1031200031460020626998474849284688476068C8
:103130001C3000F038FE616907224018A1680A318E
:1031400000F004FE404A01210020EA3290473E4B45
:103150000020314668336269984770BD10B5044657
:10316000384840680A3000F01EFE1021364B2246D7
:1031700057309847ACE570B50126324C360305460A
:10318000314B31460020626998472F4A01210020C7
:10319000EA32904760680A3000F005FE616910224B
:1031A00057314018294600F0D1FD274B0020314609
:1031B00068336269984770BDF0B5224C0025E46918
:1031C000E678360701D50020F0BD00BF6D1CEDB2DA
:1031D000642DFAD3254640356E7CB607FCD4002515
:1031E0002646C036377947556D1CEDB2022DF9D30E
:1031F00046780125F709002F08D0F606F60E0E7066
:10320000157042785206D20F1A7004E0B3069B0E76
:103210000B70002313700B4B0A78DB69801CC033E2
:10322000272A0CD20022C03403E026798654521C8F
:10323000D2B20E789642F8D85D720120F0BD5D7270
:10324000C1E70000B030002059530000A13D00004C
:1032500070B51E46002913D0FE4DAC696B699C42C7
:103260000ED205C408467D21490148437D21083C12
:1032700000F042FDA0602673002060611834AC614C
:1032800070BD884200D30846704710B5F14C6068A5
:103290002030017CC9070FD0017C49084900017426
:1032A000082000F02CFA60682030417C0122114394
:1032B00041743220FFF7CAFE10BD70B5E54C0646DA
:1032C00060680D462030017CC90706D0017C4908A2
:1032D000490001743220FFF7B9FE6268203216758A
:1032E000300A5075300C9075300ED075107C10215E
:1032F00008431074907C400840009074D6480560E4
:10330000507C012528435074082000F0EFF96068D4
:103310002030017C2943017470BDCEE770B5CD4DDE
:1033200018212878AE68484369690C1A2869801901
:1033300028610020C043A86018E0207B002814D03A
:103340002069B04204D16068002807D0804705E0BA
:10335000801B206102D0A168884201D9A068206149
:10336000A968884200D90846A86018346869844270
:10337000E3D3A868002805D0411C03D0B749FFF764
:10338000CCFF70BDFFF781FF70BDB249CA688243B0
:10339000CA607047AF484068014644310A78104619
:1033A0004A78120210438A78C97812041043090639
:1033B00008437047F8B50546FFF7ECFFA54A91684A
:1033C0000E1A0020C04316619060107818215369CE
:1033D0004843191A002718E00868A84202D10F7361
:1033E0004F6111E0087B00280ED00869801B08613E
:1033F00002D08C68A04201D98868086104469068B0
:10340000844200D82046906018319942E4D39068F5
:10341000002805D0411C03D09049FFF77EFFF8BD7E
:10342000FFF733FFF8BDF8B58A4B05461878182129
:1034300048435969081A06E00268AA4202D1027B91
:10344000002A34D118308842F6D3FFF7A3FF9968D9
:103450000E1A0020C0431E6198601978182041435D
:103460005869411A012718E00A68AA4203D18A68FC
:103470000A610F730BE00A7B002A0DD00A69921BC8
:103480000A6102D08C68A24201D98A680A619C68EC
:10349000A24200D814469C6018318142E4D3986857
:1034A000002805D0411C03D06C49FFF736FFF8BD5A
:1034B000FFF7EBFEF8BD674918220B7853434A69C2
:1034C000D11A05E00B68834201D1087B704718319F
:1034D0009142F7D3FF20704770B50D460446FFF7C1
:1034E00032FD002808D05B48182104704C43611954
:1034F00085614161FFF7C9FE70BD56494A681146B2
:1035000020310875030A4B75030C8B75000EC875C6
:103510008B7C012003438B744B7C03434B740B7CEB
:1035200003430B742032D37CDB07FCD00A7C5208A7
:1035300052000A744A7C02434A7470474548406806
:103540002030C17CC90708D0417C0122114341745D
:1035500041480068002800D000477047F8B53D4C4E
:10356000074660680E462030017CFD25890700294A
:1035700005DA017C294001743220FFF767FD60689D
:1035800020300776390A4176390C8176390EC176BA
:10359000017C202211430174817C294081742E49D1
:1035A0004E60417C022529434174092000F09EF8B9
:1035B00060682030017C29430174F8BD10B5254CAA
:1035C00060682030017C89070FD5017CFD22114005
:1035D0000174092000F093F860682030417C0222D9
:1035E000114341743220FFF731FD10BD1948406886
:1035F0002030C17C890708D5417C022211434174E7
:1036000015484068002800D000477047F8B5114CB5
:10361000074660680E462030017CFB2549070029DB
:1036200005DA017C294001743220FFF70FFD606844
:1036300020300777390A4177390C8177390EC17705
:10364000017C402211430174817C2940817402492C
:103650008E6005E0E0300020E43E00201D330010C5
:10366000417C0425294341740A2000F03FF860683A
:103670002030017C29430174F8BD28480C214068A2
:10368000403041180A7810464A78120210438A786E
:10369000C9781204104309060843704710B51F4C3F
:1036A00060682030017C49070FD5017CFB22114066
:1036B00001740A2000F023F860682030417C042265
:1036C000114341743220FFF7C1FC10BD134840681C
:1036D0002030C17C490708D5417C04221143417444
:1036E0000F488068002800D000477047002805DB9D
:1036F000C106C90E012088400A49086070470028A9
:103700000ADBC106C90E01208840064980310860E5
:10371000BFF34F8FBFF36F8F70470000E030002082
:10372000E43E002000E100E018B5F8480068009091
:10373000002069460B5C0A241A0962431B070A54DD
:103740001B0FD2180A54401C0328F3DB009818BD45
:1037500008B5FFF7E9FF009068460178C078EC4AA9
:10376000401E50430A1868468178E1200001414319
:10377000684640783C23584308181118E54A1069F8
:10378000814201D3081A02E0E34B081AC018116104
:1037900008BD70B50D46002802D0DC4E083E01E0A1
:1037A000DA4E0C3E0024285D0A2100F0A5FA000143
:1037B00001432955641C032CF5DB284600F0F3FA7D
:1037C00030606420FFF742FCD0482038C17A0822DC
:1037D0001143C17270BD38B5CE4909694418CC494E
:1037E000204600F089FA421C6846C270E12508466E
:1037F0002D01294600F080FA02466846827029466B
:10380000204600F079FA08463C2100F075FA01469E
:10381000684641703C21204600F06EFA684601700F
:1038200069460020FFF7B5FF38BD38B5FFF77CFFCC
:10383000009068460178C078B54A401E50430A1887
:1038400068468178E12000014143684640783C2386
:10385000584308181118AF4BB0485A6A046891428F
:1038600001D38A1A02E0AC4D8A1A5219A2180260DA
:103870001046596238BD70B500290BD0A54D6E6950
:10388000AC69B44206D2A16005C423710020E06097
:103890001034AC6170BD884200D3084670479B4924
:1038A00020398A7A0F238343887A1A40000900015D
:1038B00010438872704770B50446400701D5FFF782
:1038C00033FFE00741D0934C182160786668484385
:1038D0006169081A03E0027B002A02D1183088428D
:1038E000F9D3884231D2FFF733FF6168E0684018AE
:1038F000E0600020C043606060781821484361693F
:103900000D1A18E0287B002814D02869B04204D191
:103910006868002807D0804705E0801B286102D036
:10392000A968884201D9A86828616168884200D9DD
:1039300008466060183560698542E3D360680028F6
:1039400004D0411C02D0FFF746FF70BD0120FFF7F5
:10395000A6FF70BD6F498A6882438A607047F8B5D8
:103960000446FFF7F5FE6B4AD06072B60021C943EA
:1039700051605178182359435369591A002717E0A9
:103980000D68A54202D10F734F6110E00D7B002D31
:103990000DD00D692D1A0D6102D08E68B54201D986
:1039A0008D680D615668B54200D9354655601831AD
:1039B0009942E5D35068002804D0411C02D0FFF79B
:1039C0000AFF02E00120FFF76AFF62B6F8BDF8B512
:1039D000504C05466078182148436169081A06E092
:1039E0000268AA4202D1027B002A38D118308842EC
:1039F000F6D3FFF7ADFEE06072B60021C943616007
:103A00006178182266695143711A012719E00A6822
:103A1000AA4203D18A680A610F730BE00A7B002A6D
:103A20000ED00A69121A0A6102D08B689A4201D933
:103A30008A680A6113466268934200D81A46626037
:103A40001831B142E3D36068002804D0411C02D091
:103A5000FFF7C1FE02E00120FFF721FF62B6F8BDCB
:103A60002C49C8617047F1B582B0FFF771FE294D4E
:103A7000E86072B60021C943696069786E691822EE
:103A800051430090741AEF6920E02068B84209D1D0
:103A90003C21029800F030F93C20401A20610120BE
:103AA00020730CE0207B00280FD021690098081AB1
:103AB000206102D0A168884201D9A06820612069F4
:103AC0006968884200D9084668601834B442DCD37B
:103AD0006868002804D0411C02D0FFF77CFE02E099
:103AE0000120FFF7DCFE62B6FEBD0A4918224B78C2
:103AF00053434A69D11A05E00B68834201D1087B20
:103B0000704718319142F7D3FF207047C010005022
:103B100080510100FC300020803A0900A8300020CC
:103B2000714908780028F0D17048C37A0122134304
:103B3000C372C37ADB07FCD10A70E6E76A49086200
:103B4000E3E76A498A7A024310078A7A000F12096A
:103B5000120102438A72D8E764498A7A1209024341
:103B600010018A7A1207120F02438A72CDE770B5EC
:103B700005460024285D0A2100F0BEF8000101433B
:103B80002955641C032CF5DB284600F00CF9574935
:103B90002039C86370BD554A138A401EDB0BDB0316
:103BA0004004400C03431382907C09070009000184
:103BB000090F08439074A8E74C48C17A04221143C6
:103BC000C172C17A4907FCD49FE7474908780128A8
:103BD0009BD14648C27A02231A43C272C27A920724
:103BE000FCD40020087090E7F3B581B0FFF7EDFF3B
:103BF000FFF7E2FF01200021C003FFF7CCFF6420A4
:103C0000FFF724FA01216846C170002484704470D3
:103C10000470FFF7ACFF344D07262C616846C67070
:103C2000172787703B244470047069460120FFF712
:103C3000B0FD6846C6708770447004706946002005
:103C4000FFF7A7FD0F20FFF787FF0F20FFF727FEE5
:103C50000120FFF776FF02982862FFF761FF2449F1
:103C600004200860FEBD70B50D460446FFF76BF9F1
:103C700000280BD01C48182144704C436119856101
:103C8000416101201B49C003FFF7AEFF70BD10B5B5
:103C90001648407A03071B0F1846FFF75DFF1248CE
:103CA000016A002901D01846884710BD0E480078E7
:103CB0002BE718B5002802D00C48183001E00B485B
:103CC000143000680090002069460B5C0A241A0931
:103CD00062431B070A541B0FD2180A54401C0328C6
:103CE000F3DB009818BD0000FC300020A01000504D
:103CF00000E100E0B738001030B50B460146002067
:103D00002022012409E00D46D5409D4205D31D46E1
:103D10009540491B2546954040191546521E002DD9
:103D2000F1DC30BD70B500242546002801DA0124FD
:103D30004042002901DA01254942FFF7DDFFAC428C
:103D400000D04042002C00D0494270BD03460B43D6
:103D50009B0703D009E008C9121F08C0042AFAD241
:103D600003E00B780370401C491C521EF9D27047C7
:103D7000D2B201E00270401C491EFBD27047002203
:103D8000F6E710B513460A4604461946FFF7F0FF5A
:103D9000204610BD03460A780270401C491C002AC8
:103DA000F9D1184670470321001D401E0378120206
:103DB0001A43491EF9D5104670470346032208707E
:103DC000000A491C521EFAD518467047F8B502463B
:103DD0004A40D40F42004B0052085B089A4202D27C
:103DE0000246084611464A0023D0C30D4A00DDB200
:103DF000120EAD1A202D35DA49020126490AF605C0
:103E00008A19002C00D0524220214F1B1146B94084
:103E10002A411018C20D9A4221D0002C17D0012D32
:103E200008DCDA05801AD20F8019D207DBB200F065
:103E300051FAF8BDDA05801A012340001B06C018AC
:103E400080185A428018CA0F1043490007E04908F9
:103E5000C2071143DA05801A80194008801800F063
:103E600031FAF8BD61000122511A001BF7E7012267
:103E7000D2075140AAE70122D2075040A6E700002E
:103E8000F0B507460846584087B0C00F0490480078
:103E90000E46590040084908BC1A884105D23846E8
:103EA00031461E4617460B4602465800400810434E
:103EB0004CD0300D039040055900400D490D059040
:103EC000401A0290402872DA18030121000B0905FC
:103ED0000843019004980092002805D001995242AD
:103EE0000020884100920190029840210A1A01990D
:103EF000009800F0B3F905460C466B4607CB00F07E
:103F0000CEF9C0197141039A0E0D0023D717564000
:103F10001A467A40164344D0049A002A2DD0029AB9
:103F2000012A039A15DC1205C01A914101263605B3
:103F3000001C7141D20F059ED20700930192029698
:103F40002A46234600F00CFA07B0F0BD3846314649
:103F5000FAE71605224A0F46B218C01AB7410121E6
:103F60000905001C4F4100187F411146181879417E
:103F7000E20F10436D19644113E0E2076D08154329
:103F80006408C2071443039A01261205C01A91411E
:103F90003605001C7141CE07400830434908C0185F
:103FA00051412A46234600F0CEF9CDE7FFE70498B9
:103FB00001224000C117121A00238B410498314698
:103FC000C417381AA141EEE730B40124E407634076
:103FD00030BC55E730B40124E407614030BC4FE702
:103FE0000000E0FFF0B51FB488B00B9909980024D9
:103FF00048400999C00F490049080991C0070B9929
:104000000090490049080B9109990898A646084371
:104010001CD00B990A98084318D009980124400035
:10402000420D4800410D099824050003000B204370
:1040300009900B980003000B20430B9050181C496B
:104040004018002201901446104605E00020014669
:104050000DB0F0BD032801DA034600E003239C46BF
:10406000C11A0AAE0AE05F0008ADED5B4F00F75BD6
:104070007D430027AA187C41491C5B1E6145F2DD87
:10408000410004AB5A522104120C0A43240C401C78
:104090000828DFDB0198029000997046019100909A
:1040A000059B049A0799069800F05AF9D0E700009A
:1040B0000DFCFFFFF0B50C465C4085B0E40FE40753
:1040C00003944C00002664085900944649080246AF
:1040D0000296224321D062460A431ED06200570D49
:1040E0004A000E032303550D012402462C492405E2
:1040F000781B1B0B360B4018234326436146009068
:104100001C46501AB44103D30098401C009002E0B2
:10411000921800985B41002803DA0020014605B0A0
:10412000F0BD0020012109050746864611E06446DE
:104130001D46141BB54106D36546521BB341744658
:1041400007430C43A646CD07400849082843921868
:104150005B4105460D43EAD11046184313D0604633
:10416000194650407140084306D06046101AB341CA
:1041700006D20122002306E000220123DB0702E031
:104180000122D2435310009874460105381C614146
:10419000029C039D0019694100F0D5F8BFE70000BB
:1041A000FD03000010B500229623114600F092F89E
:1041B00010BD00000EB5C217C10F5040CA0740180D
:1041C0000021054B0293019200910A460B4600F034
:1041D000C7F803B000BD0000330400000EB5054968
:1041E0000291002100910A460B46019100F0B8F8B7
:1041F00003B000BD330400004A0009030123090B8A
:104200001B051943094B10B5520D9A4201DA0020E3
:1042100010BD064B34339A4203DC9A1A00F02EF894
:1042200010BD03495118884010BD0000FF03000075
:10423000CDFBFFFFC20FD207400040080BD0C10DDD
:104240000723DB01C91840020905400A1143C208CF
:1042500040071143704700200146704710B5202ADF
:1042600004DB0146203A9140002010BD91402023FC
:104270009C1A0346E3401943904010BD10B5202A14
:1042800004DB0846203AD040002110BD0B46D34045
:10429000D0402024A21A91400843194610BD10B501
:1042A000202A06DBCB170846203A1041C1170B43E2
:1042B00006E00B461341D0402024A21A9140084347
:1042C000194610BD002904DA401C490001D14008FC
:1042D0004000704770B40024050C05D11024000480
:1042E00002D1002921D01124050E01D10002083489
:1042F000050F01D10001241D850F01D18000A41CF0
:10430000002801DB4000641C002908D020252E1B5A
:104310000D46F540A14000D0012129430843010684
:104320001B1B000ADB1D02D5002070BC7047DB059B
:10433000181880180029F8DA401C4900F5D170BC23
:1043400040084000704710B5002B08DA0024401CDC
:10435000614192185B411A4301D14008400010BDF1
:10436000F0B51FB482B005460C0003D0084600F03B
:104370005BF802E000F058F8203002460090214639
:104380002846FFF76BFF049B059A04460F46184327
:104390001143084314D0184610431BD00098402105
:1043A0000A1A18460599FFF769FF05460E46009A56
:1043B00005990498FFF752FF084305D0012004E057
:1043C0002046394607B0F0BD0020C11705430E4313
:1043D0002C43374300990E986305401A7905E40A87
:1043E00000220C43FD0A0A3002D500200146E9E70D
:1043F0000105101969410C9C0D9D00196941FFF7D9
:10440000A2FFDFE7064C0125064E05E0E36807CC76
:104410002B430C3C98471034B442F7D3FBF754FEBF
:10442000A0440010C04400102021020C01D0102133
:104430001046020A01D010460839020901D0104680
:10444000091F820801D01046891E420801D0881E2B
:104450007047081A704730B47446641E2578641C8F
:10446000AB4200D21D46635D5B00E31830BC1847C9
:1044700002E008C8121F08C1002AFAD1704770472D
:10448000002001E001C1121F002AFBD1704730312A
:1044900032333435363738394142434445460000DB
:1044A000C0440010003000202401000070440010BF
:1044B000E445001024310020CC110000804400109D
:1044C00000000000000000000000000002010503E1
:1044D00003010009FF00000000000000000909536B
:1044E00059445F5541525409FF000000000000008C
:1044F0000009095359445F5541525400000000001F
:10450000000000000000000000000000503000200B
:104510000000000000000000601000502410005057
:10452000141000501810005010000040000000004F
:10453000000102030405060708090A1112131415E5
:10454000161718191A1B1E1F00010203040506097D
:104550000A07081115121617181319141A1B1E1F13
:10456000D0000150E0000150000000000024F400E1
:1045700000040000ED050020DF0000208F05002072
:10458000C60500204A07002090100050000002409D
:1045900000100050601000500000000000000000FB
:1045A0000000000000100050FFFFFFFF00000000AF
:1045B00000000000000000000000000000000000FB
:1045C000FFFFFFFF000000000000000000000000EF
:1045D00000000000000000000200000000000000D9
:0445E00000000000D7
:04000005100000C126
:00000001FF
