Component: ARM Compiler 5.06 (build 20) Tool: armlink [4d35a3]

==============================================================================

Section Cross References

    main.o(.text) refers to main.o(i.__ARM_common_switch8) for __ARM_common_switch8
    main.o(.text) refers to gpio.o(.text) for GPIO_Set_Output
    main.o(.text) refers to main.o(.text) for SetAdvParams
    main.o(.text) refers to segger_rtt_printf.o(.text) for SEGGER_RTT_printf
    main.o(.text) refers to timer.o(.text) for Timer_Evt_Stop
    main.o(.text) refers to uread4.o(.text) for __aeabi_uread4
    main.o(.text) refers to memcpya.o(.text) for __aeabi_memcpy
    main.o(.text) refers to ota.o(.text) for ota_rsp
    main.o(.text) refers to uart.o(.text) for uart_0_ClrFiFo
    main.o(.text) refers to gpio.o(.data) for PIN_CONFIG
    main.o(.text) refers to main.o(.data) for .data
    main.o(.text) refers to main.o(.bss) for .bss
    main.o(.text) refers to ota.o(.data) for ota_state
    main.o(.text) refers to delay.o(.text) for delay_ms
    main.o(.text) refers to memseta.o(.text) for __aeabi_memclr4
    main.o(.text) refers to segger_rtt.o(.text) for SEGGER_RTT_Init
    main.o(.text) refers to timer_handler.o(.text) for Timer_Evt_List
    main.o(.text) refers to rtc.o(.text) for SYD_RTC_Init
==============================================================================

Removing Unused input sections from the image.

    Removing main.o(.rev16_text), (4 bytes).
    Removing main.o(.revsh_text), (4 bytes).
    Removing uart_protocol.o(.rev16_text), (4 bytes).
    Removing uart_protocol.o(.revsh_text), (4 bytes).
    Removing delay.o(.rev16_text), (4 bytes).
    Removing delay.o(.revsh_text), (4 bytes).
    Removing delay.o(.text), (24 bytes).
    Removing ota.o(.rev16_text), (4 bytes).
    Removing ota.o(.revsh_text), (4 bytes).
    Removing gpio.o(.rev16_text), (4 bytes).
    Removing gpio.o(.revsh_text), (4 bytes).
    Removing gpio.o(.text), (36 bytes).
    Removing gpio.o(.text), (52 bytes).
    Removing gpio.o(.text), (52 bytes).
    Removing gpio.o(.text), (52 bytes).
    Removing gpio.o(.text), (36 bytes).
    Removing gpio.o(.text), (120 bytes).
    Removing gpio.o(.text), (56 bytes).
==============================================================================

Image Symbol Table

    Local Symbols

    Symbol Name                              Value     Ov Type        Size  Object(Section)

    ../clib/../cmprslib/zerorunl2.c          0x00000000   Number         0  __dczerorl2.o ABSOLUTE
    ../clib/microlib/division.c              0x00000000   Number         0  idiv.o ABSOLUTE
    ../clib/microlib/division.c              0x00000000   Number         0  uidiv.o ABSOLUTE
    ../clib/microlib/division.c              0x00000000   Number         0  uldiv.o ABSOLUTE
    ../clib/microlib/init/entry.s            0x00000000   Number         0  entry2.o ABSOLUTE
    ../clib/microlib/init/entry.s            0x00000000   Number         0  entry7a.o ABSOLUTE
    ../clib/microlib/init/entry.s            0x00000000   Number         0  entry.o ABSOLUTE
    ../clib/microlib/init/entry.s            0x00000000   Number         0  entry5.o ABSOLUTE
    ../clib/microlib/init/entry.s            0x00000000   Number         0  entry10b.o ABSOLUTE
    ../clib/microlib/init/entry.s            0x00000000   Number         0  entry11b.o ABSOLUTE
    ../clib/microlib/init/entry.s            0x00000000   Number         0  entry9b.o ABSOLUTE
    ../clib/microlib/init/entry.s            0x00000000   Number         0  entry11a.o ABSOLUTE
    ../clib/microlib/init/entry.s            0x00000000   Number         0  entry10a.o ABSOLUTE
    ../clib/microlib/init/entry.s            0x00000000   Number         0  entry8b.o ABSOLUTE
    ../clib/microlib/init/entry.s            0x00000000   Number         0  entry8a.o ABSOLUTE
    ../clib/microlib/init/entry.s            0x00000000   Number         0  entry9a.o ABSOLUTE
    ../clib/microlib/init/entry.s            0x00000000   Number         0  entry7b.o ABSOLUTE
    ../clib/microlib/longlong.c              0x00000000   Number         0  llsshr.o ABSOLUTE
    ../clib/microlib/longlong.c              0x00000000   Number         0  llushr.o ABSOLUTE
    ../clib/microlib/longlong.c              0x00000000   Number         0  llshl.o ABSOLUTE
    ../clib/microlib/printf/printf.c         0x00000000   Number         0  printfa.o ABSOLUTE
    ../clib/microlib/printf/printf.c         0x00000000   Number         0  printf6.o ABSOLUTE
    ../clib/microlib/printf/printf.c         0x00000000   Number         0  printf7.o ABSOLUTE
    ../clib/microlib/printf/printf.c         0x00000000   Number         0  printf8.o ABSOLUTE
    ../clib/microlib/printf/printf.c         0x00000000   Number         0  printf2.o ABSOLUTE
    ../clib/microlib/printf/printf.c         0x00000000   Number         0  printf5.o ABSOLUTE
    ../clib/microlib/printf/printf.c         0x00000000   Number         0  printf3.o ABSOLUTE
    ../clib/microlib/printf/printf.c         0x00000000   Number         0  printf0.o ABSOLUTE
    ../clib/microlib/printf/printf.c         0x00000000   Number         0  printfb.o ABSOLUTE
    ../clib/microlib/printf/printf.c         0x00000000   Number         0  printf1.o ABSOLUTE
    ../clib/microlib/printf/printf.c         0x00000000   Number         0  printf4.o ABSOLUTE
    ../clib/microlib/printf/stubs.s          0x00000000   Number         0  stubs.o ABSOLUTE
    ../clib/microlib/stdio/fflush.c          0x00000000   Number         0  fflush.o ABSOLUTE
    ../clib/microlib/stdio/fputc.c           0x00000000   Number         0  fputc.o ABSOLUTE
    ../clib/microlib/stdio/semi.s            0x00000000   Number         0  semi.o ABSOLUTE
    ../clib/microlib/stdio/streams.c         0x00000000   Number         0  stdout.o ABSOLUTE
    ../clib/microlib/string/memcmp.c         0x00000000   Number         0  memcmp.o ABSOLUTE
    ../clib/microlib/string/memcpy.c         0x00000000   Number         0  memcpya.o ABSOLUTE
    ../clib/microlib/string/memcpy.c         0x00000000   Number         0  memcpyb.o ABSOLUTE
    ../clib/microlib/string/memset.c         0x00000000   Number         0  memseta.o ABSOLUTE
    ../clib/microlib/string/strcmp.c         0x00000000   Number         0  strcmp.o ABSOLUTE
    ../clib/microlib/string/strcpy.c         0x00000000   Number         0  strcpy.o ABSOLUTE
    ../clib/microlib/string/strlen.c         0x00000000   Number         0  strlen.o ABSOLUTE
    ../clib/microlib/stubs.s                 0x00000000   Number         0  iusefp.o ABSOLUTE
    ../clib/microlib/stubs.s                 0x00000000   Number         0  iusesemip.o ABSOLUTE
    ../clib/microlib/stubs.s                 0x00000000   Number         0  useno.o ABSOLUTE
    ../clib/microlib/unhosted.c              0x00000000   Number         0  uwrite4.o ABSOLUTE
    ../clib/microlib/unhosted.c              0x00000000   Number         0  uread4.o ABSOLUTE
    ../fplib/microlib/f2d.c                  0x00000000   Number         0  f2d.o ABSOLUTE
    ../fplib/microlib/fpadd.c                0x00000000   Number         0  dadd.o ABSOLUTE
    ../fplib/microlib/fpadd.c                0x00000000   Number         0  fadd.o ABSOLUTE
    ../fplib/microlib/fpdiv.c                0x00000000   Number         0  ddiv.o ABSOLUTE
    ../fplib/microlib/fpepilogue.c           0x00000000   Number         0  fepilogue.o ABSOLUTE
    ../fplib/microlib/fpepilogue.c           0x00000000   Number         0  depilogue.o ABSOLUTE
    ../fplib/microlib/fpfix.c                0x00000000   Number         0  dfixul.o ABSOLUTE
    ../fplib/microlib/fpfix.c                0x00000000   Number         0  dfixui.o ABSOLUTE
    ../fplib/microlib/fpflt.c                0x00000000   Number         0  dflti.o ABSOLUTE
    ../fplib/microlib/fpflt.c                0x00000000   Number         0  ffltui.o ABSOLUTE
    ../fplib/microlib/fpflt.c                0x00000000   Number         0  dfltui.o ABSOLUTE
    ../fplib/microlib/fpmul.c                0x00000000   Number         0  dmul.o ABSOLUTE
    ..\..\..\Driver\delay.c                  0x00000000   Number         0  delay.o ABSOLUTE
    ..\..\..\Driver\gpio.c                   0x00000000   Number         0  gpio.o ABSOLUTE
    ..\..\..\Rtt\SEGGER_RTT.c                0x00000000   Number         0  segger_rtt.o ABSOLUTE
    ..\..\..\Rtt\SEGGER_RTT_Syscalls_KEIL.c  0x00000000   Number         0  segger_rtt_syscalls_keil.o ABSOLUTE
    ..\..\..\Rtt\SEGGER_RTT_printf.c         0x00000000   Number         0  segger_rtt_printf.o ABSOLUTE
    ..\..\..\ble\ota.c                       0x00000000   Number         0  ota.o ABSOLUTE
    ..\\..\\..\\Driver\\delay.c              0x00000000   Number         0  delay.o ABSOLUTE
    ..\\..\\..\\Driver\\gpio.c               0x00000000   Number         0  gpio.o ABSOLUTE
    ..\\..\\..\\Rtt\\SEGGER_RTT.c            0x00000000   Number         0  segger_rtt.o ABSOLUTE
    ..\\..\\..\\Rtt\\SEGGER_RTT_Syscalls_KEIL.c 0x00000000   Number         0  segger_rtt_syscalls_keil.o ABSOLUTE
    ..\\..\\..\\Rtt\\SEGGER_RTT_printf.c     0x00000000   Number         0  segger_rtt_printf.o ABSOLUTE
    ..\\..\\..\\ble\\ota.c                   0x00000000   Number         0  ota.o ABSOLUTE
    ..\\main.c                               0x00000000   Number         0  main.o ABSOLUTE
    ..\\rtc_handler.c                        0x00000000   Number         0  rtc_handler.o ABSOLUTE
    ..\\timer_handler.c                      0x00000000   Number         0  timer_handler.o ABSOLUTE
    ..\\uart.c                               0x00000000   Number         0  uart.o ABSOLUTE
    ..\\uart_protocol.c                      0x00000000   Number         0  uart_protocol.o ABSOLUTE
    ..\main.c                                0x00000000   Number         0  main.o ABSOLUTE
    ..\rtc_handler.c                         0x00000000   Number         0  rtc_handler.o ABSOLUTE
    ..\timer_handler.c                       0x00000000   Number         0  timer_handler.o ABSOLUTE
    ..\uart.c                                0x00000000   Number         0  uart.o ABSOLUTE
    ..\uart_protocol.c                       0x00000000   Number         0  uart_protocol.o ABSOLUTE
    Driver\\rtc.c                            0x00000000   Number         0  rtc.o ABSOLUTE
    Driver\\timer.c                          0x00000000   Number         0  timer.o ABSOLUTE
    Driver\rtc.c                             0x00000000   Number         0  rtc.o ABSOLUTE
    Driver\timer.c                           0x00000000   Number         0  timer.o ABSOLUTE
    Main\\main.c                             0x00000000   Number         0  main.o ABSOLUTE
    Main\main.c                              0x00000000   Number         0  main.o ABSOLUTE
    RTE\Device\ARMCM0\startup_ARMCM0.s       0x00000000   Number         0  startup_armcm0.o ABSOLUTE
    RTE\Device\ARMCM0\system_ARMCM0.c        0x00000000   Number         0  system_armcm0.o ABSOLUTE
    RTE\\Device\\ARMCM0\\system_ARMCM0.c     0x00000000   Number         0  system_armcm0.o ABSOLUTE
    cdrcmple.s                               0x00000000   Number         0  cdrcmple.o ABSOLUTE
    dc.s                                     0x00000000   Number         0  dc.o ABSOLUTE
    handlers.s                               0x00000000   Number         0  handlers.o ABSOLUTE
    init.s                                   0x00000000   Number         0  init.o ABSOLUTE
    RESET                                    0x10000000   Section      192  startup_armcm0.o(RESET)
    .ARM.Collect$$$$00000000                 0x100000c0   Section        0  entry.o(.ARM.Collect$$$$00000000)
    .ARM.Collect$$$$00000001                 0x100000c0   Section        4  entry2.o(.ARM.Collect$$$$00000001)
    .ARM.Collect$$$$00000004                 0x100000c4   Section        4  entry5.o(.ARM.Collect$$$$00000004)
    .ARM.Collect$$$$00000008                 0x100000c8   Section        0  entry7b.o(.ARM.Collect$$$$00000008)
    .ARM.Collect$$$$0000000A                 0x100000c8   Section        0  entry8b.o(.ARM.Collect$$$$0000000A)
    .ARM.Collect$$$$0000000B                 0x100000c8   Section        8  entry9a.o(.ARM.Collect$$$$0000000B)
    .ARM.Collect$$$$0000000D                 0x100000d0   Section        0  entry10a.o(.ARM.Collect$$$$0000000D)
    .ARM.Collect$$$$0000000F                 0x100000d0   Section        0  entry11a.o(.ARM.Collect$$$$0000000F)
    .ARM.Collect$$$$00002712                 0x100000d0   Section        4  entry2.o(.ARM.Collect$$$$00002712)
    __lit__00000000                          0x100000d0   Data           4  entry2.o(.ARM.Collect$$$$00002712)
    .text                                    0x100000d4   Section        0  main.o(.text)
    __NVIC_SetPriority                       0x100000d5   Thumb Code    60  main.o(.text)
    setup_adv_data                           0x10000195   Thumb Code   100  main.o(.text)
    timer_1_callback                         0x1000029b   Thumb Code    36  main.o(.text)
    send_to_master                           0x100002bf   Thumb Code   176  main.o(.text)
    ble_gatt_write                           0x1000091d   Thumb Code   674  main.o(.text)
    sendToUart                               0x10000bbf   Thumb Code    52  main.o(.text)
    ble_init                                 0x10000bf3   Thumb Code   122  main.o(.text)
    .text                                    0x10000c7c   Section        0  uart_protocol.o(.text)
    .text                                    0x10000cd8   Section        0  delay.o(.text)
    .text                                    0x10000cf8   Section        0  ota.o(.text)
    EvtCommandComplete                       0x10000cf9   Thumb Code    24  ota.o(.text)
    Cmd4KSETTINGWrite                        0x10000f6d   Thumb Code    78  ota.o(.text)
    CmdFwWriteStart                          0x10000fbb   Thumb Code    30  ota.o(.text)
    CmdFwUpgradev20                          0x10000fd9   Thumb Code   110  ota.o(.text)
    CmdFlashdataUpgradev30                   0x10001047   Thumb Code    80  ota.o(.text)
    .text                                    0x10001208   Section        0  gpio.o(.text)
    .text                                    0x100014bc   Section        0  uart.o(.text)
    __NVIC_EnableIRQ                         0x10001603   Thumb Code    18  uart.o(.text)
    .text                                    0x10001620   Section        0  timer_handler.o(.text)
    .text                                    0x1000166c   Section        0  rtc_handler.o(.text)
    .text                                    0x10001698   Section        0  segger_rtt.o(.text)
    _DoInit                                  0x10001699   Thumb Code    74  segger_rtt.o(.text)
    _WriteBlocking                           0x100016e3   Thumb Code    96  segger_rtt.o(.text)
    _WriteNoCheck                            0x10001743   Thumb Code    60  segger_rtt.o(.text)
    _GetAvailWriteSpace                      0x10001807   Thumb Code    22  segger_rtt.o(.text)
    .text                                    0x1000183c   Section        0  segger_rtt_printf.o(.text)
    _StoreChar                               0x1000183d   Thumb Code    62  segger_rtt_printf.o(.text)
    _PrintUnsigned                           0x1000187b   Thumb Code   210  segger_rtt_printf.o(.text)
    _PrintInt                                0x10001b7d   Thumb Code   200  segger_rtt_printf.o(.text)
    .text                                    0x10001c64   Section       28  startup_armcm0.o(.text)
    .text                                    0x10001c80   Section        0  system_armcm0.o(.text)
    .text                                    0x10001c90   Section        0  main.o(.text)
    _LCDisConnect                            0x10001c91   Thumb Code    46  main.o(.text)
    _LCTimer_Handler                         0x10001cbf   Thumb Code   248  main.o(.text)
    _LCRxPkt_Handler                         0x10001e0b   Thumb Code   294  main.o(.text)
    _LCTxPkt_Handler                         0x10001f31   Thumb Code   380  main.o(.text)
    _LLENCReq                                0x10002817   Thumb Code   286  main.o(.text)
    _GAPStartAdv                             0x10002e77   Thumb Code   558  main.o(.text)
    WaitLLCOverSlpth                         0x100042a3   Thumb Code    38  main.o(.text)
    _BBRXFIFORead                            0x100042c9   Thumb Code   172  main.o(.text)
    _rom_rx_sweyntooth_protect               0x10004375   Thumb Code   150  main.o(.text)
    STKSetRand                               0x1000440b   Thumb Code    30  main.o(.text)
    AttWriteFlash                            0x10004429   Thumb Code   110  main.o(.text)
    GetOverSlpth                             0x10004497   Thumb Code    26  main.o(.text)
    .text                                    0x100044c0   Section        0  timer.o(.text)
    Timer_Evt_Trigger                        0x100045a9   Thumb Code   110  timer.o(.text)
    __NVIC_EnableIRQ                         0x10004ab9   Thumb Code    18  timer.o(.text)
    __NVIC_DisableIRQ                        0x10004acb   Thumb Code    28  timer.o(.text)
    .text                                    0x10004af4   Section        0  rtc.o(.text)
    Timer_RTCEVT_Trigger                     0x10004c83   Thumb Code   150  rtc.o(.text)
    .text                                    0x100050bc   Section        0  uidiv.o(.text)
    .text                                    0x100050e8   Section        0  idiv.o(.text)
    .text                                    0x10005110   Section        0  memcpya.o(.text)
    .text                                    0x10005134   Section        0  memseta.o(.text)
    .text                                    0x10005158   Section        0  memcmp.o(.text)
    .text                                    0x10005172   Section        0  strcpy.o(.text)
    .text                                    0x10005184   Section        0  uread4.o(.text)
    .text                                    0x10005198   Section        0  uwrite4.o(.text)
    .text                                    0x100051aa   Section        0  fadd.o(.text)
    .text                                    0x1000525c   Section        0  dadd.o(.text)
    .text                                    0x100053c0   Section        0  dmul.o(.text)
    .text                                    0x10005490   Section        0  ddiv.o(.text)
    .text                                    0x10005580   Section        0  ffltui.o(.text)
    .text                                    0x10005590   Section        0  dflti.o(.text)
    .text                                    0x100055b8   Section        0  dfltui.o(.text)
    .text                                    0x100055d4   Section        0  dfixui.o(.text)
    .text                                    0x10005610   Section        0  f2d.o(.text)
    .text                                    0x10005638   Section        0  uldiv.o(.text)
    .text                                    0x10005698   Section        0  llshl.o(.text)
    .text                                    0x100056b8   Section        0  llushr.o(.text)
    .text                                    0x100056da   Section        0  llsshr.o(.text)
    .text                                    0x10005700   Section        0  fepilogue.o(.text)
    .text                                    0x10005700   Section        0  iusefp.o(.text)
    .text                                    0x10005782   Section        0  depilogue.o(.text)
    .text                                    0x10005840   Section        0  dfixul.o(.text)
    .text                                    0x10005880   Section       40  cdrcmple.o(.text)
    .text                                    0x100058a8   Section       36  init.o(.text)
    .text                                    0x100058cc   Section        0  __dczerorl2.o(.text)
    i.__0sprintf                             0x10005924   Section        0  printfa.o(i.__0sprintf)
    i.__ARM_clz                              0x1000594c   Section        0  depilogue.o(i.__ARM_clz)
    i.__ARM_common_switch8                   0x1000597a   Section        0  main.o(i.__ARM_common_switch8)
    i.__scatterload_copy                     0x10005994   Section       14  handlers.o(i.__scatterload_copy)
    i.__scatterload_null                     0x100059a2   Section        2  handlers.o(i.__scatterload_null)
    i.__scatterload_zeroinit                 0x100059a4   Section       14  handlers.o(i.__scatterload_zeroinit)
    i._fp_digits                             0x100059b4   Section        0  printfa.o(i._fp_digits)
    _fp_digits                               0x100059b5   Thumb Code   316  printfa.o(i._fp_digits)
    i._printf_core                           0x10005b0c   Section        0  printfa.o(i._printf_core)
    _printf_core                             0x10005b0d   Thumb Code  1754  printfa.o(i._printf_core)
    i._printf_post_padding                   0x100061f8   Section        0  printfa.o(i._printf_post_padding)
    _printf_post_padding                     0x100061f9   Thumb Code    32  printfa.o(i._printf_post_padding)
    i._printf_pre_padding                    0x10006218   Section        0  printfa.o(i._printf_pre_padding)
    _printf_pre_padding                      0x10006219   Thumb Code    44  printfa.o(i._printf_pre_padding)
    i._sputc                                 0x10006244   Section        0  printfa.o(i._sputc)
    _sputc                                   0x10006245   Thumb Code    10  printfa.o(i._sputc)
    .constdata                               0x1000624e   Section    409600  main.o(.constdata)
    .constdata                               0x1006a24e   Section       16  segger_rtt_printf.o(.constdata)
    _aV2C                                    0x1006a24e   Data          16  segger_rtt_printf.o(.constdata)
    .constdata                               0x1006a25e   Section       40  main.o(.constdata)
    _ll_packet_length                        0x1006a261   Data          15  main.o(.constdata)
    _smp_packet_lenght                       0x1006a270   Data          22  main.o(.constdata)
    .data                                    0x20003000   Section       67  main.o(.data)
    latency_state                            0x20003001   Data           1  main.o(.data)
    start_tx                                 0x20003003   Data           1  main.o(.data)
    uart_delay_cnt                           0x20003004   Data           2  main.o(.data)
    g_report                                 0x20003010   Data           4  main.o(.data)
    .data                                    0x20003044   Section       28  ota.o(.data)
    EvtBuf                                   0x20003058   Data           8  ota.o(.data)
    .data                                    0x20003060   Section       72  gpio.o(.data)
    gpio_callback                            0x20003074   Data           4  gpio.o(.data)
    pinmuxtab48                              0x20003078   Data          24  gpio.o(.data)
    pinmuxtab32                              0x20003090   Data          24  gpio.o(.data)
    .data                                    0x200030a8   Section        8  uart.o(.data)
    UART_0_CTRL                              0x200030a8   Data           4  uart.o(.data)
    UART_1_CTRL                              0x200030ac   Data           4  uart.o(.data)
    .data                                    0x200030b0   Section        4  rtc_handler.o(.data)
    .data                                    0x200030b4   Section        4  system_armcm0.o(.data)
    .data                                    0x200030b8   Section       64  main.o(.data)
    syd_confirm                              0x200030b8   Data           1  main.o(.data)
    ww_minus_cnt                             0x200030b9   Data           1  main.o(.data)
    ext_uart_en                              0x200030ba   Data           1  main.o(.data)
    get_bond_device_idx                      0x200030bb   Data           1  main.o(.data)
    _valid_l2cap_lenght                      0x200030bd   Data           1  main.o(.data)
    rssi_rx                                  0x200030bf   Data           1  main.o(.data)
    p_flash_hdr                              0x200030c0   Data           4  main.o(.data)
    p_lclink                                 0x200030c4   Data           4  main.o(.data)
    p_txpdu                                  0x200030c8   Data           4  main.o(.data)
    p_rxbuf                                  0x200030cc   Data           4  main.o(.data)
    p_flash                                  0x200030d0   Data           4  main.o(.data)
    p_dump_key                               0x200030d8   Data           4  main.o(.data)
    EFUSE_CTRL                               0x200030dc   Data           4  main.o(.data)
    BB_CTRL                                  0x200030e0   Data           4  main.o(.data)
    PW_CTRL                                  0x200030e4   Data           4  main.o(.data)
    PIN_CONFIG                               0x200030e8   Data           4  main.o(.data)
    CONFIG_FLASH_SIZE                        0x200030ec   Data           4  main.o(.data)
    g_evt                                    0x200030f0   Data           8  main.o(.data)
    .data                                    0x200030f8   Section       28  timer.o(.data)
    TIMER_CTRL                               0x200030fc   Data           4  timer.o(.data)
    .data                                    0x20003114   Section       40  rtc.o(.data)
    enabled                                  0x20003114   Data           1  rtc.o(.data)
    irq_cb                                   0x20003134   Data           4  rtc.o(.data)
    .bss                                     0x2000313c   Section    10384  main.o(.bss)
    .bss                                     0x200059cc   Section       40  ota.o(.bss)
    .bss                                     0x200059f4   Section       48  timer_handler.o(.bss)
    .bss                                     0x20005a24   Section       24  rtc_handler.o(.bss)
    .bss                                     0x20005a3c   Section     1112  segger_rtt.o(.bss)
    _acUpBuffer                              0x20005a84   Data        1024  segger_rtt.o(.bss)
    _acDownBuffer                            0x20005e84   Data          16  segger_rtt.o(.bss)
    .bss                                     0x20005e94   Section      104  main.o(.bss)
    code_hdr                                 0x20005e94   Data          87  main.o(.bss)
    smart_update_ctrol                       0x20005eeb   Data          17  main.o(.bss)
    .bss                                     0x20005efc   Section       12  timer.o(.bss)
    timer_callback                           0x20005efc   Data          12  timer.o(.bss)
    STACK                                    0x20005f08   Section     1024  startup_armcm0.o(STACK)

    Global Symbols

    Symbol Name                              Value     Ov Type        Size  Object(Section)

    BuildAttributes$$THM_ISAv3M$S$PE$A:L22$X:L11$S22$IEEE1$IW$USESV6$~STKCKD$USESV7$~SHL$OTIME$ROPI$EBA8$MICROLIB$REQ8$PRES8$EABIv2 0x00000000   Number         0  anon$$obj.o ABSOLUTE
    __ARM_use_no_argv                        0x00000000   Number         0  main.o ABSOLUTE
    __use_no_errno                           0x00000000   Number         0  useno.o ABSOLUTE
    __use_no_exception_handling              0x00000000   Number         0  useno.o ABSOLUTE
    __use_no_fp                              0x00000000   Number         0  useno.o ABSOLUTE
    __use_no_heap                            0x00000000   Number         0  useno.o ABSOLUTE
    __use_no_heap_region                     0x00000000   Number         0  useno.o ABSOLUTE
    __use_no_semihosting                     0x00000000   Number         0  useno.o ABSOLUTE
    __use_no_semihosting_swi                 0x00000000   Number         0  useno.o ABSOLUTE
    __use_no_signal_handling                 0x00000000   Number         0  useno.o ABSOLUTE
    _printf_a                                0x00000000   Number         0  stubs.o ABSOLUTE
    _printf_c                                0x00000000   Number         0  stubs.o ABSOLUTE
    _printf_charcount                        0x00000000   Number         0  stubs.o ABSOLUTE
    _printf_d                                0x00000000   Number         0  stubs.o ABSOLUTE
    _printf_e                                0x00000000   Number         0  stubs.o ABSOLUTE
    _printf_f                                0x00000000   Number         0  stubs.o ABSOLUTE
    _printf_flags                            0x00000000   Number         0  stubs.o ABSOLUTE
    _printf_fp_dec                           0x00000000   Number         0  stubs.o ABSOLUTE
    _printf_fp_hex                           0x00000000   Number         0  stubs.o ABSOLUTE
    _printf_g                                0x00000000   Number         0  stubs.o ABSOLUTE
    _printf_i                                0x00000000   Number         0  stubs.o ABSOLUTE
    _printf_int_dec                          0x00000000   Number         0  stubs.o ABSOLUTE
    _printf_l                                0x00000000   Number         0  stubs.o ABSOLUTE
    _printf_lc                               0x00000000   Number         0  stubs.o ABSOLUTE
    _printf_ll                               0x00000000   Number         0  stubs.o ABSOLUTE
    _printf_lld                              0x00000000   Number         0  stubs.o ABSOLUTE
    _printf_lli                              0x00000000   Number         0  stubs.o ABSOLUTE
    _printf_llo                              0x00000000   Number         0  stubs.o ABSOLUTE
    _printf_llu                              0x00000000   Number         0  stubs.o ABSOLUTE
    _printf_llx                              0x00000000   Number         0  stubs.o ABSOLUTE
    _printf_longlong_dec                     0x00000000   Number         0  stubs.o ABSOLUTE
    _printf_longlong_hex                     0x00000000   Number         0  stubs.o ABSOLUTE
    _printf_longlong_oct                     0x00000000   Number         0  stubs.o ABSOLUTE
    _printf_ls                               0x00000000   Number         0  stubs.o ABSOLUTE
    _printf_mbtowc                           0x00000000   Number         0  stubs.o ABSOLUTE
    _printf_n                                0x00000000   Number         0  stubs.o ABSOLUTE
    _printf_o                                0x00000000   Number         0  stubs.o ABSOLUTE
    _printf_p                                0x00000000   Number         0  stubs.o ABSOLUTE
    _printf_percent                          0x00000000   Number         0  stubs.o ABSOLUTE
    _printf_pre_padding                      0x00000000   Number         0  stubs.o ABSOLUTE
    _printf_return_value                     0x00000000   Number         0  stubs.o ABSOLUTE
    _printf_s                                0x00000000   Number         0  stubs.o ABSOLUTE
    _printf_sizespec                         0x00000000   Number         0  stubs.o ABSOLUTE
    _printf_str                              0x00000000   Number         0  stubs.o ABSOLUTE
    _printf_truncate_signed                  0x00000000   Number         0  stubs.o ABSOLUTE
    _printf_truncate_unsigned                0x00000000   Number         0  stubs.o ABSOLUTE
    _printf_u                                0x00000000   Number         0  stubs.o ABSOLUTE
    _printf_wc                               0x00000000   Number         0  stubs.o ABSOLUTE
    _printf_wctomb                           0x00000000   Number         0  stubs.o ABSOLUTE
    _printf_widthprec                        0x00000000   Number         0  stubs.o ABSOLUTE
    _printf_x                                0x00000000   Number         0  stubs.o ABSOLUTE
    __cpp_initialize__aeabi_                  - Undefined Weak Reference
    __cxa_finalize                            - Undefined Weak Reference
    _clock_init                               - Undefined Weak Reference
    _microlib_exit                            - Undefined Weak Reference
    __Vectors_Size                           0x000000c0   Number         0  startup_armcm0.o ABSOLUTE
    __Vectors                                0x10000000   Data           4  startup_armcm0.o(RESET)
    __Vectors_End                            0x100000c0   Data           0  startup_armcm0.o(RESET)
    __main                                   0x100000c1   Thumb Code     0  entry.o(.ARM.Collect$$$$00000000)
    _main_stk                                0x100000c1   Thumb Code     0  entry2.o(.ARM.Collect$$$$00000001)
    _main_scatterload                        0x100000c5   Thumb Code     0  entry5.o(.ARM.Collect$$$$00000004)
    __main_after_scatterload                 0x100000c9   Thumb Code     0  entry5.o(.ARM.Collect$$$$00000004)
    _main_clock                              0x100000c9   Thumb Code     0  entry7b.o(.ARM.Collect$$$$00000008)
    _main_cpp_init                           0x100000c9   Thumb Code     0  entry8b.o(.ARM.Collect$$$$0000000A)
    _main_init                               0x100000c9   Thumb Code     0  entry9a.o(.ARM.Collect$$$$0000000B)
    __rt_final_cpp                           0x100000d1   Thumb Code     0  entry10a.o(.ARM.Collect$$$$0000000D)
    __rt_final_exit                          0x100000d1   Thumb Code     0  entry11a.o(.ARM.Collect$$$$0000000F)
    gpio_init                                0x10000111   Thumb Code   132  main.o(.text)
    BLSetConnectionUpdate                    0x100001f9   Thumb Code    78  main.o(.text)
    Connection_latency                       0x10000247   Thumb Code    38  main.o(.text)
    BLE_SendUARTData                         0x1000026d   Thumb Code    46  main.o(.text)
    ble_evt_callback                         0x1000036f   Thumb Code   692  main.o(.text)
    ota_manage                               0x10000623   Thumb Code   124  main.o(.text)
    nvic_priority                            0x1000069f   Thumb Code   188  main.o(.text)
    flash_data_check                         0x1000075b   Thumb Code   212  main.o(.text)
    main                                     0x1000082f   Thumb Code   228  main.o(.text)
    HardFault_Handler                        0x10000913   Thumb Code    10  main.o(.text)
    uartRx_callback                          0x10000c7d   Thumb Code    58  uart_protocol.o(.text)
    uart_cmd                                 0x10000cb7   Thumb Code    26  uart_protocol.o(.text)
    delay_ms                                 0x10000cd9   Thumb Code    26  delay.o(.text)
    CmdFwErase                               0x10000d11   Thumb Code    22  ota.o(.text)
    ota_variable_clear                       0x10000d27   Thumb Code    24  ota.o(.text)
    ota_cmd                                  0x10000d3f   Thumb Code   522  ota.o(.text)
    ota_rsp                                  0x10000f49   Thumb Code    36  ota.o(.text)
    PIN_Pullup_Enable                        0x10001209   Thumb Code   102  gpio.o(.text)
    PIN_Pullup_Disable                       0x1000126f   Thumb Code   102  gpio.o(.text)
    GPIO_Set_Output                          0x100012d5   Thumb Code    48  gpio.o(.text)
    GPIO_Set_Input                           0x10001305   Thumb Code   172  gpio.o(.text)
    GPIO_Pin_Set                             0x100013b1   Thumb Code    48  gpio.o(.text)
    GPIO_Pin_Clear                           0x100013e1   Thumb Code    48  gpio.o(.text)
    GPIO_Pin_Turn                            0x10001411   Thumb Code    48  gpio.o(.text)
    GPIO_IRQHandler                          0x10001441   Thumb Code   116  gpio.o(.text)
    uart_0_init                              0x100014bd   Thumb Code   170  uart.o(.text)
    uart_0_write                             0x10001567   Thumb Code    22  uart.o(.text)
    uart_0_read                              0x1000157d   Thumb Code    52  uart.o(.text)
    uart_0_ClrFiFo                           0x100015b1   Thumb Code    14  uart.o(.text)
    UART0_IRQHandler                         0x100015bf   Thumb Code    42  uart.o(.text)
    UART1_IRQHandler                         0x100015e9   Thumb Code    26  uart.o(.text)
    Timer_Evt_2s                             0x10001621   Thumb Code    14  timer_handler.o(.text)
    Timer_EVT_1S_OTA                         0x1000162f   Thumb Code    14  timer_handler.o(.text)
    Timer_Evt_List                           0x1000163d   Thumb Code    36  timer_handler.o(.text)
    RTC_Evt_185s                             0x1000166d   Thumb Code    12  rtc_handler.o(.text)
    RTC_Evt_List                             0x10001679   Thumb Code    22  rtc_handler.o(.text)
    SEGGER_RTT_WriteNoLock                   0x1000177f   Thumb Code    86  segger_rtt.o(.text)
    SEGGER_RTT_Write                         0x100017d5   Thumb Code    48  segger_rtt.o(.text)
    SEGGER_RTT_Init                          0x10001805   Thumb Code     2  segger_rtt.o(.text)
    SEGGER_RTT_vprintf                       0x1000194d   Thumb Code   452  segger_rtt_printf.o(.text)
    SEGGER_RTT_printf                        0x10001b11   Thumb Code    24  segger_rtt_printf.o(.text)
    SEGGER_RTT_hexdump                       0x10001b29   Thumb Code    84  segger_rtt_printf.o(.text)
    Reset_Handler                            0x10001c65   Thumb Code     8  startup_armcm0.o(.text)
    NMI_Handler                              0x10001c6d   Thumb Code     2  startup_armcm0.o(.text)
    SVC_Handler                              0x10001c71   Thumb Code     2  startup_armcm0.o(.text)
    PendSV_Handler                           0x10001c73   Thumb Code     2  startup_armcm0.o(.text)
    SysTick_Handler                          0x10001c75   Thumb Code     2  startup_armcm0.o(.text)
    CAP_IRQHandler                           0x10001c77   Thumb Code     0  startup_armcm0.o(.text)
    GPADC_IRQHandler                         0x10001c77   Thumb Code     0  startup_armcm0.o(.text)
    HID_IRQHandler                           0x10001c77   Thumb Code     0  startup_armcm0.o(.text)
    HPWM_IRQHandler                          0x10001c77   Thumb Code     0  startup_armcm0.o(.text)
    HTIMER_IRQHandler                        0x10001c77   Thumb Code     0  startup_armcm0.o(.text)
    I2C0_IRQHandler                          0x10001c77   Thumb Code     0  startup_armcm0.o(.text)
    I2C1_IRQHandler                          0x10001c77   Thumb Code     0  startup_armcm0.o(.text)
    IR_Rx_IRQHandler                         0x10001c77   Thumb Code     0  startup_armcm0.o(.text)
    IR_Tx_IRQHandler                         0x10001c77   Thumb Code     0  startup_armcm0.o(.text)
    ISO_7816_IRQHandler                      0x10001c77   Thumb Code     0  startup_armcm0.o(.text)
    LLC2_IRQHandler                          0x10001c77   Thumb Code     0  startup_armcm0.o(.text)
    LLC_IRQHandler                           0x10001c77   Thumb Code     0  startup_armcm0.o(.text)
    SPIM_IRQHandler                          0x10001c77   Thumb Code     0  startup_armcm0.o(.text)
    SW_IRQHandler                            0x10001c77   Thumb Code     0  startup_armcm0.o(.text)
    TIMER3_IRQHandler                        0x10001c77   Thumb Code     0  startup_armcm0.o(.text)
    TOUCH_IRQHandler                         0x10001c77   Thumb Code     0  startup_armcm0.o(.text)
    SystemInit                               0x10001c81   Thumb Code     8  system_armcm0.o(.text)
    LLPingReq                                0x10001db7   Thumb Code    26  main.o(.text)
    LLScanReqHandle                          0x10001dd1   Thumb Code    58  main.o(.text)
    _BBGetMask                               0x100020ad   Thumb Code    92  main.o(.text)
    Lib_LLEvtCallback                        0x10002109   Thumb Code   186  main.o(.text)
    ConnectionLatencyMode                    0x100021c3   Thumb Code   112  main.o(.text)
    sw_timer_latency_callback                0x10002233   Thumb Code    42  main.o(.text)
    TimerStart                               0x1000225d   Thumb Code    10  main.o(.text)
    smart_latency_start                      0x10002267   Thumb Code   212  main.o(.text)
    smart_update_latency_updatersp           0x1000233b   Thumb Code   162  main.o(.text)
    BBRFRead                                 0x100023dd   Thumb Code     4  main.o(.text)
    BBRFWrite                                0x100023e1   Thumb Code     6  main.o(.text)
    RCOSCCalibration                         0x100023e7   Thumb Code    64  main.o(.text)
    RFSleep                                  0x10002427   Thumb Code    10  main.o(.text)
    UartEn                                   0x10002431   Thumb Code    32  main.o(.text)
    _SYS32kClockSwitch                       0x10002451   Thumb Code   270  main.o(.text)
    ClockSwitch                              0x1000255f   Thumb Code    10  main.o(.text)
    RFWakeup                                 0x10002569   Thumb Code    22  main.o(.text)
    LPOCalibration                           0x1000257f   Thumb Code   254  main.o(.text)
    smart_latency_clear                      0x1000267d   Thumb Code    12  main.o(.text)
    Lib_EvtCallback                          0x10002689   Thumb Code   254  main.o(.text)
    _BMGetNextBondDevice                     0x10002787   Thumb Code   144  main.o(.text)
    __LLVersionIndRxHandler                  0x10002935   Thumb Code    66  main.o(.text)
    GetMasterSystem                          0x10002977   Thumb Code     6  main.o(.text)
    TimerStop                                0x1000297d   Thumb Code     4  main.o(.text)
    smart_update_retry                       0x10002981   Thumb Code   158  main.o(.text)
    sw_timer_update_callback                 0x10002a1f   Thumb Code    60  main.o(.text)
    smart_update_latency_updatareq           0x10002a5b   Thumb Code   496  main.o(.text)
    Lib_ProtocolHookCallback                 0x10002c4b   Thumb Code   116  main.o(.text)
    Lib_MiscCallback                         0x10002cbf   Thumb Code    14  main.o(.text)
    BleInit                                  0x10002ccd   Thumb Code   344  main.o(.text)
    DisConnect                               0x10002e25   Thumb Code    10  main.o(.text)
    SetDevAddr                               0x10002e2f   Thumb Code    12  main.o(.text)
    GetDevAddr                               0x10002e3b   Thumb Code    12  main.o(.text)
    SetLEFeature                             0x10002e47   Thumb Code    12  main.o(.text)
    SetAdvAccCode                            0x10002e53   Thumb Code    12  main.o(.text)
    SetAdvParams                             0x10002e5f   Thumb Code    12  main.o(.text)
    SetAdvData                               0x10002e6b   Thumb Code    12  main.o(.text)
    StartAdv                                 0x100030a5   Thumb Code    10  main.o(.text)
    StopAdv                                  0x100030af   Thumb Code    24  main.o(.text)
    StopAdv_Noreset                          0x100030c7   Thumb Code    38  main.o(.text)
    SetScanParams                            0x100030ed   Thumb Code    10  main.o(.text)
    _BBSetScan                               0x100030f7   Thumb Code    46  main.o(.text)
    _GAPStartScan                            0x10003125   Thumb Code   254  main.o(.text)
    StartScan                                0x10003223   Thumb Code    10  main.o(.text)
    StopScan                                 0x1000322d   Thumb Code    10  main.o(.text)
    SetSecParams                             0x10003237   Thumb Code    12  main.o(.text)
    SetConnectionUpdate                      0x10003243   Thumb Code    12  main.o(.text)
    GetLinkParameters                        0x1000324f   Thumb Code    12  main.o(.text)
    SetWinWideMinusCnt                       0x1000325b   Thumb Code     8  main.o(.text)
    SetPasskey                               0x10003263   Thumb Code    12  main.o(.text)
    SecurityReq                              0x1000326f   Thumb Code    12  main.o(.text)
    SetEvtCallback                           0x1000327b   Thumb Code    54  main.o(.text)
    GetGATTReportHandle                      0x100032b1   Thumb Code    10  main.o(.text)
    SetGATTReadRsp                           0x100032bb   Thumb Code    12  main.o(.text)
    CheckFIFOFull                            0x100032c7   Thumb Code    18  main.o(.text)
    GATTDataSend                             0x100032d9   Thumb Code    86  main.o(.text)
    ATTCSetCallback                          0x1000332f   Thumb Code     4  main.o(.text)
    ATTCMTUReq                               0x10003333   Thumb Code    24  main.o(.text)
    ATTCFindInfoReq                          0x1000334b   Thumb Code    28  main.o(.text)
    ATTCFindByTypeValueReq                   0x10003367   Thumb Code    40  main.o(.text)
    ATTCReadByTypeReq                        0x1000338f   Thumb Code    36  main.o(.text)
    ATTCReadReq                              0x100033b3   Thumb Code    24  main.o(.text)
    ATTCReadBlobReq                          0x100033cb   Thumb Code    28  main.o(.text)
    ATTCReadMultipleReq                      0x100033e7   Thumb Code    28  main.o(.text)
    ATTCReadByGroupTypeReq                   0x10003403   Thumb Code    34  main.o(.text)
    ATTCWriteReq                             0x10003425   Thumb Code    32  main.o(.text)
    ATTCWriteCmdReq                          0x10003445   Thumb Code    32  main.o(.text)
    ATTCPrepareWriteReq                      0x10003465   Thumb Code    36  main.o(.text)
    ATTCExecuteWriteReq                      0x10003489   Thumb Code    24  main.o(.text)
    ATTCConfirmation                         0x100034a1   Thumb Code    20  main.o(.text)
    _SYSClockSwitch                          0x100034b5   Thumb Code    86  main.o(.text)
    MCUClockSwitch                           0x1000350b   Thumb Code     2  main.o(.text)
    GetMCUClock                              0x1000350d   Thumb Code    14  main.o(.text)
    GetClock                                 0x1000351b   Thumb Code    16  main.o(.text)
    WakeupConfig                             0x1000352b   Thumb Code    12  main.o(.text)
    LLSleep                                  0x10003537   Thumb Code    12  main.o(.text)
    Rand                                     0x10003543   Thumb Code     4  main.o(.text)
    DelayUS                                  0x10003547   Thumb Code     4  main.o(.text)
    DelayMS                                  0x1000354b   Thumb Code     6  main.o(.text)
    GetCompanyID                             0x10003551   Thumb Code    18  main.o(.text)
    GetQFNType                               0x10003563   Thumb Code    20  main.o(.text)
    RFRead                                   0x10003577   Thumb Code    70  main.o(.text)
    RFWrite                                  0x100035bd   Thumb Code     8  main.o(.text)
    lib_check_ble_fsm_state                  0x100035c5   Thumb Code    26  main.o(.text)
    SystemSleep                              0x100035df   Thumb Code    18  main.o(.text)
    SystemPowerDown                          0x100035f1   Thumb Code    78  main.o(.text)
    SystemReset                              0x1000363f   Thumb Code    12  main.o(.text)
    CapdetEn                                 0x1000364b   Thumb Code    10  main.o(.text)
    PowerDownLPOEn                           0x10003655   Thumb Code    12  main.o(.text)
    SetBondManagerIndex                      0x10003661   Thumb Code    12  main.o(.text)
    GetBondDevice                            0x1000366d   Thumb Code     6  main.o(.text)
    AddBondDevice                            0x10003673   Thumb Code    12  main.o(.text)
    DelAllBondDevice                         0x1000367f   Thumb Code    10  main.o(.text)
    DelBondDevice                            0x10003689   Thumb Code    12  main.o(.text)
    ReadProfileData                          0x10003695   Thumb Code     6  main.o(.text)
    WriteProfileData                         0x1000369b   Thumb Code     6  main.o(.text)
    EraseFlashData                           0x100036a1   Thumb Code    78  main.o(.text)
    ReadFlashData                            0x100036ef   Thumb Code    56  main.o(.text)
    WriteFlashData                           0x10003727   Thumb Code    56  main.o(.text)
    CodeErase                                0x1000375f   Thumb Code   100  main.o(.text)
    CodeErase_sector                         0x100037c3   Thumb Code    72  main.o(.text)
    _FMCodeWrite                             0x1000380b   Thumb Code    58  main.o(.text)
    CodeWrite                                0x10003845   Thumb Code    30  main.o(.text)
    CodeUpdate                               0x10003863   Thumb Code    10  main.o(.text)
    FlashDataUpdate                          0x1000386d   Thumb Code   124  main.o(.text)
    ble_sched_execute                        0x100038e9   Thumb Code   150  main.o(.text)
    ble_sched_finish                         0x1000397f   Thumb Code     4  main.o(.text)
    syd52832_chip_confirm                    0x10003983   Thumb Code    26  main.o(.text)
    gap_s_smart_update_latency               0x1000399d   Thumb Code   246  main.o(.text)
    eFuseManual                              0x10003a93   Thumb Code    28  main.o(.text)
    GPADC_Manual_Calibration                 0x10003aaf   Thumb Code    34  main.o(.text)
    GPADC_Get_Calibration                    0x10003ad1   Thumb Code    22  main.o(.text)
    GAPGetUartEn                             0x10003ae7   Thumb Code     6  main.o(.text)
    GAPUartEn                                0x10003aed   Thumb Code     6  main.o(.text)
    GAPBBDelayUS                             0x10003af3   Thumb Code     4  main.o(.text)
    GAPBBDelayMS                             0x10003af7   Thumb Code     6  main.o(.text)
    GAPGetRFAutoSleep                        0x10003afd   Thumb Code     4  main.o(.text)
    GAPSetRFAutoSleep                        0x10003b01   Thumb Code     6  main.o(.text)
    Setting4kUpdate                          0x10003b07   Thumb Code   116  main.o(.text)
    SetDevAddr_toflash                       0x10003b7b   Thumb Code    72  main.o(.text)
    gap_s_verdor_datas_get                   0x10003bc3   Thumb Code    28  main.o(.text)
    gap_s_verdor_datas_set                   0x10003bdf   Thumb Code    66  main.o(.text)
    gap_s_is_ll_start_enc                    0x10003c21   Thumb Code    26  main.o(.text)
    GAPBBTXFIFO0Write                        0x10003c3b   Thumb Code     4  main.o(.text)
    flash_peotect_key_confirm                0x10003c3f   Thumb Code   148  main.o(.text)
    swd_lock                                 0x10003cd3   Thumb Code    36  main.o(.text)
    flash_data_offect_get                    0x10003cf7   Thumb Code    52  main.o(.text)
    EraseCodeB                               0x10003d2b   Thumb Code    58  main.o(.text)
    ReadCodeB                                0x10003d65   Thumb Code    64  main.o(.text)
    WriteCodeB                               0x10003da5   Thumb Code    96  main.o(.text)
    ble_SetTxPower                           0x10003e05   Thumb Code   248  main.o(.text)
    flash_data_size_get                      0x10003efd   Thumb Code    18  main.o(.text)
    code_idx_get                             0x10003f0f   Thumb Code     6  main.o(.text)
    flash_data_size_set                      0x10003f15   Thumb Code   146  main.o(.text)
    Get_RSSI_Last_RX                         0x10003fa7   Thumb Code    82  main.o(.text)
    APP_Read_Attribute_Encrypt               0x10003ff9   Thumb Code    62  main.o(.text)
    APP_Write_Attribute_Encrypt              0x10004037   Thumb Code    66  main.o(.text)
    APP_Read_Charact_Permission              0x10004079   Thumb Code    66  main.o(.text)
    smart_latency_target                     0x100040bb   Thumb Code    30  main.o(.text)
    smp_aes_encrypt                          0x100040d9   Thumb Code     4  main.o(.text)
    gap_get_flash_data_info                  0x100040dd   Thumb Code    26  main.o(.text)
    gap_set_flash_data_info                  0x100040f7   Thumb Code    70  main.o(.text)
    gap_check_dev_bonded                     0x1000413d   Thumb Code     6  main.o(.text)
    syd_set_chip_flash_all_size              0x10004143   Thumb Code     6  main.o(.text)
    Xtal_trim_get                            0x10004149   Thumb Code   106  main.o(.text)
    Xtal_trim_set                            0x100041b3   Thumb Code   164  main.o(.text)
    flash_read_sfdp                          0x10004257   Thumb Code    46  main.o(.text)
    syd_read_unique_id                       0x10004285   Thumb Code    30  main.o(.text)
    Timer_Evt_Creat                          0x100044c1   Thumb Code    54  timer.o(.text)
    Min                                      0x100044f7   Thumb Code     8  timer.o(.text)
    TimerDelayUS                             0x100044ff   Thumb Code    24  timer.o(.text)
    timer_0_disable                          0x10004517   Thumb Code    48  timer.o(.text)
    timer_0_enable                           0x10004547   Thumb Code    96  timer.o(.text)
    timer_0_start                            0x100045a7   Thumb Code     2  timer.o(.text)
    timer_0_get                              0x10004617   Thumb Code    92  timer.o(.text)
    Timer_Evt_Stop                           0x10004673   Thumb Code   120  timer.o(.text)
    Timer_Evt_ReSet                          0x100046eb   Thumb Code    64  timer.o(.text)
    Timer_Evt_Clr                            0x1000472b   Thumb Code    10  timer.o(.text)
    Timer_Evt_Start                          0x10004735   Thumb Code   156  timer.o(.text)
    Timer_Evt_ReStart                        0x100047d1   Thumb Code   132  timer.o(.text)
    Timer_Get_State                          0x10004855   Thumb Code    34  timer.o(.text)
    SYD_Timer_Init                           0x10004877   Thumb Code    34  timer.o(.text)
    timer_0_delay_32us                       0x10004899   Thumb Code    92  timer.o(.text)
    TIMER0_IRQHandler                        0x100048f5   Thumb Code    32  timer.o(.text)
    timer_1_enable                           0x10004915   Thumb Code    96  timer.o(.text)
    timer_1_disable                          0x10004975   Thumb Code    48  timer.o(.text)
    TIMER1_IRQHandler                        0x100049a5   Thumb Code    32  timer.o(.text)
    timer_2_enable                           0x100049c5   Thumb Code    96  timer.o(.text)
    timer_1_get                              0x10004a25   Thumb Code    34  timer.o(.text)
    timer_2_get                              0x10004a47   Thumb Code    34  timer.o(.text)
    timer_2_disable                          0x10004a69   Thumb Code    48  timer.o(.text)
    TIMER2_IRQHandler                        0x10004a99   Thumb Code    32  timer.o(.text)
    rtc_get_calendar                         0x10004af5   Thumb Code    40  rtc.o(.text)
    RTC_RUN                                  0x10004b1d   Thumb Code    66  rtc.o(.text)
    rtc_set_compare                          0x10004b5f   Thumb Code    68  rtc.o(.text)
    RTC_SET                                  0x10004ba3   Thumb Code    84  rtc.o(.text)
    RTC_Refressh                             0x10004bf7   Thumb Code    76  rtc.o(.text)
    RTC_EVT_Creat                            0x10004c43   Thumb Code    32  rtc.o(.text)
    Min_RTC                                  0x10004c63   Thumb Code     8  rtc.o(.text)
    rtc_int_disable                          0x10004c6b   Thumb Code    24  rtc.o(.text)
    RTC_EVT_Clr                              0x10004d19   Thumb Code    10  rtc.o(.text)
    RTC_EVT_Stop                             0x10004d23   Thumb Code   112  rtc.o(.text)
    RTC_EVT_Start                            0x10004d93   Thumb Code   146  rtc.o(.text)
    RTC_EVT_whole_minute_setid               0x10004e25   Thumb Code     6  rtc.o(.text)
    RTC_EVT_whole_minute_adj                 0x10004e2b   Thumb Code   132  rtc.o(.text)
    RTC_Get_State                            0x10004eaf   Thumb Code    54  rtc.o(.text)
    rtc_start                                0x10004ee5   Thumb Code    28  rtc.o(.text)
    rtc_set_interrupt_callback               0x10004f01   Thumb Code     6  rtc.o(.text)
    rtc_int_enable                           0x10004f07   Thumb Code    22  rtc.o(.text)
    rtc_int_clear                            0x10004f1d   Thumb Code    22  rtc.o(.text)
    rtc_set_calendar                         0x10004f33   Thumb Code    40  rtc.o(.text)
    rtc_set_prescaler                        0x10004f5b   Thumb Code    34  rtc.o(.text)
    rtc_clear                                0x10004f7d   Thumb Code    18  rtc.o(.text)
    rtc_stop                                 0x10004f8f   Thumb Code    30  rtc.o(.text)
    rtc_init                                 0x10004fad   Thumb Code   126  rtc.o(.text)
    SYD_RTC_Init                             0x1000502b   Thumb Code    40  rtc.o(.text)
    RTC_IRQHandler                           0x10005053   Thumb Code    30  rtc.o(.text)
    rtc_status                               0x10005071   Thumb Code     6  rtc.o(.text)
    rtc_get_compare                          0x10005077   Thumb Code    52  rtc.o(.text)
    __aeabi_uidiv                            0x100050bd   Thumb Code     0  uidiv.o(.text)
    __aeabi_uidivmod                         0x100050bd   Thumb Code    44  uidiv.o(.text)
    __aeabi_idiv                             0x100050e9   Thumb Code     0  idiv.o(.text)
    __aeabi_idivmod                          0x100050e9   Thumb Code    40  idiv.o(.text)
    __aeabi_memcpy                           0x10005111   Thumb Code    36  memcpya.o(.text)
    __aeabi_memcpy4                          0x10005111   Thumb Code     0  memcpya.o(.text)
    __aeabi_memcpy8                          0x10005111   Thumb Code     0  memcpya.o(.text)
    __aeabi_memset                           0x10005135   Thumb Code    14  memseta.o(.text)
    __aeabi_memset4                          0x10005135   Thumb Code     0  memseta.o(.text)
    __aeabi_memset8                          0x10005135   Thumb Code     0  memseta.o(.text)
    __aeabi_memclr                           0x10005143   Thumb Code     4  memseta.o(.text)
    __aeabi_memclr4                          0x10005143   Thumb Code     0  memseta.o(.text)
    __aeabi_memclr8                          0x10005143   Thumb Code     0  memseta.o(.text)
    _memset$wrapper                          0x10005147   Thumb Code    18  memseta.o(.text)
    memcmp                                   0x10005159   Thumb Code    26  memcmp.o(.text)
    strcpy                                   0x10005173   Thumb Code    18  strcpy.o(.text)
    __aeabi_uread4                           0x10005185   Thumb Code    20  uread4.o(.text)
    __rt_uread4                              0x10005185   Thumb Code     0  uread4.o(.text)
    _uread4                                  0x10005185   Thumb Code     0  uread4.o(.text)
    __aeabi_uwrite4                          0x10005199   Thumb Code    18  uwrite4.o(.text)
    __rt_uwrite4                             0x10005199   Thumb Code     0  uwrite4.o(.text)
    _uwrite4                                 0x10005199   Thumb Code     0  uwrite4.o(.text)
    __aeabi_fadd                             0x100051ab   Thumb Code   162  fadd.o(.text)
    __aeabi_fsub                             0x1000524d   Thumb Code     8  fadd.o(.text)
    __aeabi_frsub                            0x10005255   Thumb Code     8  fadd.o(.text)
    __aeabi_dadd                             0x1000525d   Thumb Code   328  dadd.o(.text)
    __aeabi_dsub                             0x100053a5   Thumb Code    12  dadd.o(.text)
    __aeabi_drsub                            0x100053b1   Thumb Code    12  dadd.o(.text)
    __aeabi_dmul                             0x100053c1   Thumb Code   202  dmul.o(.text)
    __aeabi_ddiv                             0x10005491   Thumb Code   234  ddiv.o(.text)
    __aeabi_ui2f                             0x10005581   Thumb Code    14  ffltui.o(.text)
    __aeabi_i2d                              0x10005591   Thumb Code    34  dflti.o(.text)
    __aeabi_ui2d                             0x100055b9   Thumb Code    24  dfltui.o(.text)
    __aeabi_d2uiz                            0x100055d5   Thumb Code    50  dfixui.o(.text)
    __aeabi_f2d                              0x10005611   Thumb Code    40  f2d.o(.text)
    __aeabi_uldivmod                         0x10005639   Thumb Code    96  uldiv.o(.text)
    __aeabi_llsl                             0x10005699   Thumb Code    32  llshl.o(.text)
    _ll_shift_l                              0x10005699   Thumb Code     0  llshl.o(.text)
    __aeabi_llsr                             0x100056b9   Thumb Code    34  llushr.o(.text)
    _ll_ushift_r                             0x100056b9   Thumb Code     0  llushr.o(.text)
    __aeabi_lasr                             0x100056db   Thumb Code    38  llsshr.o(.text)
    _ll_sshift_r                             0x100056db   Thumb Code     0  llsshr.o(.text)
    __I$use$fp                               0x10005701   Thumb Code     0  iusefp.o(.text)
    _float_round                             0x10005701   Thumb Code    16  fepilogue.o(.text)
    _float_epilogue                          0x10005711   Thumb Code   114  fepilogue.o(.text)
    _double_round                            0x10005783   Thumb Code    26  depilogue.o(.text)
    _double_epilogue                         0x1000579d   Thumb Code   164  depilogue.o(.text)
    __aeabi_d2ulz                            0x10005841   Thumb Code    54  dfixul.o(.text)
    __aeabi_cdrcmple                         0x10005881   Thumb Code    38  cdrcmple.o(.text)
    __scatterload                            0x100058a9   Thumb Code    28  init.o(.text)
    __scatterload_rt2                        0x100058a9   Thumb Code     0  init.o(.text)
    __decompress                             0x100058cd   Thumb Code     0  __dczerorl2.o(.text)
    __decompress1                            0x100058cd   Thumb Code    86  __dczerorl2.o(.text)
    __0sprintf                               0x10005925   Thumb Code    36  printfa.o(i.__0sprintf)
    __1sprintf                               0x10005925   Thumb Code     0  printfa.o(i.__0sprintf)
    __2sprintf                               0x10005925   Thumb Code     0  printfa.o(i.__0sprintf)
    __c89sprintf                             0x10005925   Thumb Code     0  printfa.o(i.__0sprintf)
    sprintf                                  0x10005925   Thumb Code     0  printfa.o(i.__0sprintf)
    __ARM_clz                                0x1000594d   Thumb Code    46  depilogue.o(i.__ARM_clz)
    __ARM_common_switch8                     0x1000597b   Thumb Code    26  main.o(i.__ARM_common_switch8)
    __scatterload_copy                       0x10005995   Thumb Code    14  handlers.o(i.__scatterload_copy)
    __scatterload_null                       0x100059a3   Thumb Code     2  handlers.o(i.__scatterload_null)
    __scatterload_zeroinit                   0x100059a5   Thumb Code    14  handlers.o(i.__scatterload_zeroinit)
    flashdata_arr                            0x1000624e   Data       409600  main.o(.constdata)
    adv_chn_to_freq_idx                      0x1006a25e   Data           3  main.o(.constdata)
    Region$$Table$$Base                      0x1006a288   Number         0  anon$$obj.o(Region$$Table)
    Region$$Table$$Limit                     0x1006a2a8   Number         0  anon$$obj.o(Region$$Table)
    connect_flag                             0x20003000   Data           1  main.o(.data)
    update_latency_mode                      0x20003002   Data           1  main.o(.data)
    check_addr                               0x20003008   Data           4  main.o(.data)
    write_addr                               0x2000300c   Data           4  main.o(.data)
    ADV_DATA                                 0x20003014   Data          27  main.o(.data)
    SCAN_DATA                                0x2000302f   Data          20  main.o(.data)
    ota_state                                0x20003044   Data           1  ota.o(.data)
    ota_writecnt                             0x20003045   Data           1  ota.o(.data)
    ota_section_size                         0x20003046   Data           2  ota.o(.data)
    ota_receive_size                         0x20003048   Data           2  ota.o(.data)
    ota_section_check                        0x2000304a   Data           2  ota.o(.data)
    ota_receive_check                        0x2000304c   Data           2  ota.o(.data)
    ota_section_offset                       0x20003050   Data           4  ota.o(.data)
    pevt                                     0x20003054   Data           4  ota.o(.data)
    PIN_CONFIG                               0x20003060   Data           4  gpio.o(.data)
    GPIO_CTRL                                0x20003064   Data           4  gpio.o(.data)
    GPO_CTRL                                 0x20003068   Data           4  gpio.o(.data)
    GPI_CTRL                                 0x2000306c   Data           4  gpio.o(.data)
    GPIO_IRQ_CTRL                            0x20003070   Data           4  gpio.o(.data)
    syd_history_setting_str                  0x200030b0   Data           4  rtc_handler.o(.data)
    SystemCoreClock                          0x200030b4   Data           4  system_armcm0.o(.data)
    ble_rc32k_clk_lpo_ing_flag               0x200030bc   Data           1  main.o(.data)
    master_system                            0x200030be   Data           1  main.o(.data)
    p_gett_db_hdr                            0x200030d4   Data           4  main.o(.data)
    Event_Num                                0x200030f8   Data           1  timer.o(.data)
    max_trigger_timer                        0x20003100   Data           4  timer.o(.data)
    TIMER_EVT                                0x20003104   Data           4  timer.o(.data)
    Timer_Evt_Trigger_Loop_now               0x20003108   Data           4  timer.o(.data)
    sys_timer_max_p                          0x2000310c   Data           4  timer.o(.data)
    sys_timer_current_p                      0x20003110   Data           4  timer.o(.data)
    RTC_Event_Num                            0x20003115   Data           1  rtc.o(.data)
    max_trigger_rtc                          0x20003118   Data           4  rtc.o(.data)
    RTC_EVT                                  0x2000311c   Data           4  rtc.o(.data)
    RTC_RTCEVT_Trigger_Loop_now              0x20003120   Data           4  rtc.o(.data)
    RTC_second_now                           0x20003124   Data           4  rtc.o(.data)
    sys_rtc_max_p                            0x20003128   Data           4  rtc.o(.data)
    sys_rtc_current_p                        0x2000312c   Data           4  rtc.o(.data)
    RTCEVT_whole_minute_id                   0x20003130   Data           4  rtc.o(.data)
    RTC_second_last                          0x20003138   Data           4  rtc.o(.data)
    buf_tx                                   0x2000313c   Data        4096  main.o(.bss)
    buf_rx                                   0x2000413c   Data        4096  main.o(.bss)
    uart_rx_buf                              0x2000513c   Data        1032  main.o(.bss)
    uart_tx_buf                              0x20005544   Data        1160  main.o(.bss)
    ota_w                                    0x200059cc   Data          40  ota.o(.bss)
    syd_sysTimer                             0x200059f4   Data          48  timer_handler.o(.bss)
    syd_rtc                                  0x20005a24   Data          24  rtc_handler.o(.bss)
    _SEGGER_RTT                              0x20005a3c   Data          72  segger_rtt.o(.bss)
    __initial_sp                             0x20006308   Data           0  startup_armcm0.o(STACK)



==============================================================================

Memory Map of the image

  Image Entry point : 0x100000c1

  Load Region LR_IROM1 (Base: 0x10000000, Size: 0x0006a3e4, Max: 0x0007e000, ABSOLUTE, COMPRESSED[0x0006a344])

    Execution Region ER_IROM1 (Base: 0x10000000, Size: 0x0006a2a8, Max: 0x0007e000, ABSOLUTE)

    Base Addr    Size         Type   Attr      Idx    E Section Name        Object

    0x10000000   0x000000c0   Data   RO          716    RESET               startup_armcm0.o
    0x100000c0   0x00000000   Code   RO          938  * .ARM.Collect$$$$00000000  mc_p.l(entry.o)
    0x100000c0   0x00000004   Code   RO         1247    .ARM.Collect$$$$00000001  mc_p.l(entry2.o)
    0x100000c4   0x00000004   Code   RO         1250    .ARM.Collect$$$$00000004  mc_p.l(entry5.o)
    0x100000c8   0x00000000   Code   RO         1252    .ARM.Collect$$$$00000008  mc_p.l(entry7b.o)
    0x100000c8   0x00000000   Code   RO         1254    .ARM.Collect$$$$0000000A  mc_p.l(entry8b.o)
    0x100000c8   0x00000008   Code   RO         1255    .ARM.Collect$$$$0000000B  mc_p.l(entry9a.o)
    0x100000d0   0x00000000   Code   RO         1257    .ARM.Collect$$$$0000000D  mc_p.l(entry10a.o)
    0x100000d0   0x00000000   Code   RO         1259    .ARM.Collect$$$$0000000F  mc_p.l(entry11a.o)
    0x100000d0   0x00000004   Code   RO         1248    .ARM.Collect$$$$00002712  mc_p.l(entry2.o)
    0x100000d4   0x00000ba8   Code   RO            3    .text               main.o
    0x10000c7c   0x0000005c   Code   RO          105    .text               uart_protocol.o
    0x10000cd8   0x00000020   Code   RO          132    .text               delay.o
    0x10000cf8   0x00000510   Code   RO          158    .text               ota.o
    0x10001208   0x000002b4   Code   RO          201    .text               gpio.o
    0x100014bc   0x00000164   Code   RO          277    .text               uart.o
    0x10001620   0x0000004c   Code   RO          344    .text               timer_handler.o
    0x1000166c   0x0000002c   Code   RO          377    .text               rtc_handler.o
    0x10001698   0x000001a4   Code   RO          405    .text               segger_rtt.o
    0x1000183c   0x00000428   Code   RO          574    .text               segger_rtt_printf.o
    0x10001c64   0x0000001c   Code   RO          717    .text               startup_armcm0.o
    0x10001c80   0x00000010   Code   RO          724    .text               system_armcm0.o
    0x10001c90   0x00002830   Code   RO          755    .text               syd8811_ble_lib.lib(main.o)
    0x100044c0   0x00000634   Code   RO          835    .text               Syd8811_softtimer_lib.lib(timer.o)
    0x10004af4   0x000005c8   Code   RO          903    .text               Syd8811_softtimer_lib.lib(rtc.o)
    0x100050bc   0x0000002c   Code   RO          946    .text               mc_p.l(uidiv.o)
    0x100050e8   0x00000028   Code   RO          948    .text               mc_p.l(idiv.o)
    0x10005110   0x00000024   Code   RO          950    .text               mc_p.l(memcpya.o)
    0x10005134   0x00000024   Code   RO          952    .text               mc_p.l(memseta.o)
    0x10005158   0x0000001a   Code   RO          958    .text               mc_p.l(memcmp.o)
    0x10005172   0x00000012   Code   RO          960    .text               mc_p.l(strcpy.o)
    0x10005184   0x00000014   Code   RO         1225    .text               mc_p.l(uread4.o)
    0x10005198   0x00000012   Code   RO         1227    .text               mc_p.l(uwrite4.o)
    0x100051aa   0x000000b2   Code   RO         1229    .text               mf_p.l(fadd.o)
    0x1000525c   0x00000164   Code   RO         1231    .text               mf_p.l(dadd.o)
    0x100053c0   0x000000d0   Code   RO         1233    .text               mf_p.l(dmul.o)
    0x10005490   0x000000f0   Code   RO         1235    .text               mf_p.l(ddiv.o)
    0x10005580   0x0000000e   Code   RO         1237    .text               mf_p.l(ffltui.o)
    0x1000558e   0x00000002   PAD
    0x10005590   0x00000028   Code   RO         1239    .text               mf_p.l(dflti.o)
    0x100055b8   0x0000001c   Code   RO         1241    .text               mf_p.l(dfltui.o)
    0x100055d4   0x0000003c   Code   RO         1243    .text               mf_p.l(dfixui.o)
    0x10005610   0x00000028   Code   RO         1245    .text               mf_p.l(f2d.o)
    0x10005638   0x00000060   Code   RO         1262    .text               mc_p.l(uldiv.o)
    0x10005698   0x00000020   Code   RO         1264    .text               mc_p.l(llshl.o)
    0x100056b8   0x00000022   Code   RO         1266    .text               mc_p.l(llushr.o)
    0x100056da   0x00000026   Code   RO         1268    .text               mc_p.l(llsshr.o)
    0x10005700   0x00000000   Code   RO         1270    .text               mc_p.l(iusefp.o)
    0x10005700   0x00000082   Code   RO         1272    .text               mf_p.l(fepilogue.o)
    0x10005782   0x000000be   Code   RO         1274    .text               mf_p.l(depilogue.o)
    0x10005840   0x00000040   Code   RO         1278    .text               mf_p.l(dfixul.o)
    0x10005880   0x00000028   Code   RO         1280    .text               mf_p.l(cdrcmple.o)
    0x100058a8   0x00000024   Code   RO         1282    .text               mc_p.l(init.o)
    0x100058cc   0x00000056   Code   RO         1292    .text               mc_p.l(__dczerorl2.o)
    0x10005922   0x00000002   PAD
    0x10005924   0x00000028   Code   RO         1199    i.__0sprintf        mc_p.l(printfa.o)
    0x1000594c   0x0000002e   Code   RO         1276    i.__ARM_clz         mf_p.l(depilogue.o)
    0x1000597a   0x0000001a   Code   RO           24    i.__ARM_common_switch8  main.o
    0x10005994   0x0000000e   Code   RO         1286    i.__scatterload_copy  mc_p.l(handlers.o)
    0x100059a2   0x00000002   Code   RO         1287    i.__scatterload_null  mc_p.l(handlers.o)
    0x100059a4   0x0000000e   Code   RO         1288    i.__scatterload_zeroinit  mc_p.l(handlers.o)
    0x100059b2   0x00000002   PAD
    0x100059b4   0x00000158   Code   RO         1204    i._fp_digits        mc_p.l(printfa.o)
    0x10005b0c   0x000006ec   Code   RO         1205    i._printf_core      mc_p.l(printfa.o)
    0x100061f8   0x00000020   Code   RO         1206    i._printf_post_padding  mc_p.l(printfa.o)
    0x10006218   0x0000002c   Code   RO         1207    i._printf_pre_padding  mc_p.l(printfa.o)
    0x10006244   0x0000000a   Code   RO         1209    i._sputc            mc_p.l(printfa.o)
    0x1000624e   0x00064000   Data   RO            5    .constdata          main.o
    0x1006a24e   0x00000010   Data   RO          575    .constdata          segger_rtt_printf.o
    0x1006a25e   0x00000028   Data   RO          757    .constdata          syd8811_ble_lib.lib(main.o)
    0x1006a286   0x00000002   PAD
    0x1006a288   0x00000020   Data   RO         1284    Region$$Table       anon$$obj.o


    Execution Region RW_IRAM1 (Base: 0x20003000, Size: 0x00003308, Max: 0x00005000, ABSOLUTE, COMPRESSED[0x0000009c])

    Base Addr    Size         Type   Attr      Idx    E Section Name        Object

    0x20003000   0x00000043   Data   RW            6    .data               main.o
    0x20003043   0x00000001   PAD
    0x20003044   0x0000001c   Data   RW          160    .data               ota.o
    0x20003060   0x00000048   Data   RW          209    .data               gpio.o
    0x200030a8   0x00000008   Data   RW          284    .data               uart.o
    0x200030b0   0x00000004   Data   RW          379    .data               rtc_handler.o
    0x200030b4   0x00000004   Data   RW          725    .data               system_armcm0.o
    0x200030b8   0x00000040   Data   RW          758    .data               syd8811_ble_lib.lib(main.o)
    0x200030f8   0x0000001c   Data   RW          837    .data               Syd8811_softtimer_lib.lib(timer.o)
    0x20003114   0x00000028   Data   RW          904    .data               Syd8811_softtimer_lib.lib(rtc.o)
    0x2000313c   0x00002890   Zero   RW            4    .bss                main.o
    0x200059cc   0x00000028   Zero   RW          159    .bss                ota.o
    0x200059f4   0x00000030   Zero   RW          345    .bss                timer_handler.o
    0x20005a24   0x00000018   Zero   RW          378    .bss                rtc_handler.o
    0x20005a3c   0x00000458   Zero   RW          429    .bss                segger_rtt.o
    0x20005e94   0x00000068   Zero   RW          756    .bss                syd8811_ble_lib.lib(main.o)
    0x20005efc   0x0000000c   Zero   RW          836    .bss                Syd8811_softtimer_lib.lib(timer.o)
    0x20005f08   0x00000400   Zero   RW          714    STACK               startup_armcm0.o


==============================================================================

Image component sizes


      Code (inc. data)   RO Data    RW Data    ZI Data      Debug   Object Name

        32          6          0          0          0        619   delay.o
       692          8          0         72          0       3599   gpio.o
      3010        806     409600         67      10384      53660   main.o
      1296        370          0         28         40      35477   ota.o
        44         10          0          4         24       3079   rtc_handler.o
       420         32          0          0       1112       7016   segger_rtt.o
      1064         32         16          0          0       6216   segger_rtt_printf.o
        28          8        192          0       1024        688   startup_armcm0.o
        16          8          0          4          0        807   system_armcm0.o
        76         12          0          0         48       3158   timer_handler.o
       356         12          0          8          0      10052   uart.o
        92          8          0          0          0       1319   uart_protocol.o

    ----------------------------------------------------------------------
      7126       1312     409840        184      12632     125690   Object Totals
         0          0         32          0          0          0   (incl. Generated)
         0          0          0          1          0          0   (incl. Padding)

    ----------------------------------------------------------------------

      Code (inc. data)   RO Data    RW Data    ZI Data      Debug   Library Member Name

      1480         38          0         40          0      17091   rtc.o
      1588         38          0         28         12      45840   timer.o
        86          0          0          0          0          0   __dczerorl2.o
         0          0          0          0          0          0   entry.o
         0          0          0          0          0          0   entry10a.o
         0          0          0          0          0          0   entry11a.o
         8          4          0          0          0          0   entry2.o
         4          0          0          0          0          0   entry5.o
         0          0          0          0          0          0   entry7b.o
         0          0          0          0          0          0   entry8b.o
         8          4          0          0          0          0   entry9a.o
        30          0          0          0          0          0   handlers.o
        40          0          0          0          0         72   idiv.o
        36          8          0          0          0         68   init.o
         0          0          0          0          0          0   iusefp.o
        32          0          0          0          0         68   llshl.o
        38          0          0          0          0         68   llsshr.o
        34          0          0          0          0         68   llushr.o
        26          0          0          0          0         72   memcmp.o
        36          0          0          0          0         60   memcpya.o
        36          0          0          0          0        100   memseta.o
      2242         94          0          0          0        472   printfa.o
        18          0          0          0          0         60   strcpy.o
        44          0          0          0          0         72   uidiv.o
        96          0          0          0          0         84   uldiv.o
        20          0          0          0          0         60   uread4.o
        18          0          0          0          0         60   uwrite4.o
        40          2          0          0          0         68   cdrcmple.o
       356          4          0          0          0        140   dadd.o
       240          6          0          0          0         84   ddiv.o
       236          0          0          0          0        216   depilogue.o
        60         10          0          0          0         68   dfixui.o
        64         10          0          0          0         68   dfixul.o
        40          6          0          0          0         68   dflti.o
        28          4          0          0          0         68   dfltui.o
       208          6          0          0          0         88   dmul.o
        40          0          0          0          0         60   f2d.o
       178          0          0          0          0        108   fadd.o
       130          0          0          0          0        144   fepilogue.o
        14          0          0          0          0         68   ffltui.o
     10288        502         40         64        104     109315   main.o

    ----------------------------------------------------------------------
     17848        736         42        132        116     174878   Library Totals
         6          0          2          0          0          0   (incl. Padding)

    ----------------------------------------------------------------------

      Code (inc. data)   RO Data    RW Data    ZI Data      Debug   Library Name

      3068         76          0         68         12      62931   Syd8811_softtimer_lib.lib
      2852        110          0          0          0       1384   mc_p.l
      1634         48          0          0          0       1248   mf_p.l
     10288        502         40         64        104     109315   syd8811_ble_lib.lib

    ----------------------------------------------------------------------
     17848        736         42        132        116     174878   Library Totals

    ----------------------------------------------------------------------

==============================================================================


      Code (inc. data)   RO Data    RW Data    ZI Data      Debug   

     24974       2048     409882        316      12748     298100   Grand Totals
     24974       2048     409882        156      12748     298100   ELF Image Totals (compressed)
     24974       2048     409882        156          0          0   ROM Totals

==============================================================================

    Total RO  Size (Code + RO Data)               434856 ( 424.66kB)
    Total RW  Size (RW Data + ZI Data)             13064 (  12.76kB)
    Total ROM Size (Code + RO Data + RW Data)     435012 ( 424.82kB)

==============================================================================

