:020000041000EA
:10000000405F0020611C0010691C00102B080010CC
:1000100000000000000000000000000000000000E0
:100020000000000000000000000000006D1C001037
:1000300000000000000000006F1C0010711C001088
:1000400000000000731C0010DB3E0010731C001049
:10005000731C0010731C0010371500106115001080
:10006000BB3700106738001047390010731C0010B0
:10007000C7130010731C0010731C0010731C0010B9
:10008000731C0010731C0010731C0010731C0010F4
:10009000731C0010731C0010731C0010731C0010E4
:1000A0000000000000000000000000000000000050
:1000B0000000000000000000000000000000000040
:1000C0000348854604F028FB004800470907001054
:1000D000405F0020F8B50027FC4800970068FF212A
:1000E00020303D463C463E46017041709F22827062
:1000F000CF22C270017138460122811F0B0004F02B
:1001000072FB0B070707070C0C0C0C0C10100C00F3
:10011000114681400D430C4303E0114681400F43DB
:100120000E43401CC0B22028E7D3284601F062F8F5
:100130002946002001F02AF82846A04301F0C6F81D
:10014000204601F0DAF83846009901F06AF83146A5
:10015000002000F0E7FFF8BD70B586B000206946CA
:100160000872072048741920800148821E20888266
:1001700002A802F06FFC684602F05AFC6946D448B7
:100180004E78C6728D780573CC7844730B7983737F
:100190004A79C273897901741B3006714571847183
:1001A000C37102724172024614231B211B3802F0F4
:1001B00057FCC8490120087506B070BD0EB500286F
:1001C00002D001280FD106E010206946C880C8205F
:1001D0004881002006E050206946C8804B20C000BE
:1001E00048810A200881C0206946087104204871AE
:1001F00001A803F02BF86946488900900B89CA884A
:10020000B5A1002001F085FC0EBDB14910B50C3937
:100210008878401CC0B28870032808D3002048703A
:100220000120FFF7CBFFFF20013003F002FA10BDE1
:100230003EB5A74C0C3CE278D2070ED001246A46AA
:100240001480032555801F259580148103460A4696
:100250006946204602F0B2FD3EBD00203EBD9C4AEC
:1002600010B50C3A9088401C81B2A748918009C80B
:10027000984205D1032903D90020507003F047F9B3
:1002800010BDF0B5A04E85B035687468A54231D078
:100290008F4F0C3F7878002807D10120787000201C
:1002A000B8809A49A32003F048F901239B02A54294
:1002B00001D32D1B01E0281BC518142D1CD31F468C
:1002C000834900200C398880914B69461A5D641C73
:1002D0000A54BC4200D30024401CC0B21428F5D3F9
:1002E00014216846FFF7A4FF002803D0143D746072
:1002F000142DE5D205B0F0BD002DFBD0B888032841
:10030000F8D30020694608E0814A125D641C0A5453
:100310009C4200D30024401CC0B2A842F4D3E9B2EE
:100320006846FFF785FF002800D074600020B88081
:10033000E0E7F0B504468DB0401C03F05AFEC11F43
:10034000FF39FA3919D0FF2101310027884239D10C
:10035000402000F0E9FF0822611D03A803F01CFE05
:100360006846C0891521490288421AD169A003C88C
:10037000019100900820694621E0802000F0D4FF20
:1003800021460E221531684603F006FE1E22611D2D
:1003900004A803F001FE04AD0FCD00F04BFA0DB040
:1003A000F0BD5E498842FAD16846077001976946F8
:1003B00001A8029700F09EFD684601A9007802F0AE
:1003C000EEFCECE7424E01210C3E02281FD04E4DC0
:1003D00004282DD04A03641C904256D160792279BA
:1003E000000210430128DAD1607A237A02023046F3
:1003F0001A43C078012A38D08843F070002001F0F9
:1004000090FFFF20013000F078FF45A139E0317006
:10041000FF20B770013003F045F90120400200F0E1
:1004200055FF0623A21D44A1002001F07EFBB6E784
:10043000627945A1002001F06CFBF77037706868A5
:10044000012464022860204603F0F3F8FFF784FEDD
:1004500002F01AFC204600F050FF601000F04DFF43
:10046000002001F05EFF3FA10BE00843F070012087
:1004700001F057FF68682860FF20013000F026FF78
:100480003DA1002001F045FB89E70121C903884215
:100490001AD16079217900020843030004F0A3F91E
:1004A0000605929496989A0479E739A1002001F004
:1004B00030FB684602F01CFC6846438802883AA17B
:1004C000002001F026FB6AE786E00000583000209B
:1004D0000C30002000000240736D6172745F706127
:1004E00072616D7320696E74657276616C3A2578FD
:1004F000206C6174656E63793A2578207376746F29
:100500003A25780D0A0000003C3500205F020010FB
:100510003C3100205359445F5541525401FF0000C3
:1005200055415254206E6F74696679204469736135
:10053000626C6564210D0A00436F6E6E65637465BD
:100540006420616464723A00446973636F6E6E651F
:10055000637465642C7265736F6E3A30782530323F
:10056000780D0A00737461727420616476204020F3
:1005700064697363210D0A0055415254206E6F74F3
:1005800069667920456E61626C6564210D0A000020
:1005900075706461746520727370204143434550E7
:1005A0005445440D0A000000696E74657276616CF2
:1005B0003A2578206C6174656E63793A25780D0A66
:1005C00000000000DBA15CE7E0A15AE7E5A158E7E5
:1005D000EAA156E7EEA154E70121090488420DD1B2
:1005E00001A802F085FB6846008900906846C38830
:1005F0008288ECA1002001F08CFAD0E60128FCD121
:1006000002F042FBCBE6F8B5EE4C207800281BD078
:100610000026ED4D012818D001277F0202281ED0A8
:10062000032811D12670384603F003F8E7A1002013
:1006300001F06FFA7D20C00000F072FAE7A10020FF
:1006400001F067FA02F09BFCF8BD00F089FBE8A11D
:10065000002001F05EFA022020702E70F8BD28788C
:10066000401CC0B228702028F8D9E4A1002001F075
:1006700050FA384602F0DDFFF8BD1CB5684602F0BE
:10068000D7F9E1A3E3A20621002000F034FB68467D
:100690008379E2A20621202000F02DFB68464379F1
:1006A000DEA20621302000F026FB68460379DBA29B
:1006B0000621402000F01FFB6846C378D7A2062120
:1006C000502000F018FB68468378D4A206216020F1
:1006D00000F011FB68464378D0A20621702000F09C
:1006E0000AFB1CBD1CB5684602F0A2F969464878B1
:1006F000401C4870684602F06CFEFFF7BEFF7D208C
:10070000C00000F00DFA1CBD002472B600F0D8F84D
:10071000002002F0C7FB01F0E1FD002001F080FEA7
:10072000FF20F53002F009FE01F08BFE01F08BF89E
:10073000BCA3B5A2BEA1002001F0EBF9C249022082
:1007400003F009F800F02EFFC049012003F0B1FBCF
:1007500000F046FFFFF7BEFC00F074FEBC4800212D
:100760000160416000F008FA0021BAA2084600F0DA
:10077000C2FABBA20221002000F0BDFAA2A3BCA2D3
:100780000421002000F0B7FAFFF777FF012000F006
:1007900031FD012000F09AFD0120B649000500F06E
:1007A000DAFD02F071FA62B6B34DB44EB44F02F006
:1007B000F6FC012000F0B8FD2346641CE4B297A2C9
:1007C0000021702000F097FA00F060F828680028F7
:1007D00014D0800509D5FFF716FF0120400202F072
:1007E00013FFA8A1002001F094F92888C00505D5C1
:1007F000FFF70BFDFF20013002F006FF30680028F4
:100800000AD0400708D501F01CFEA2A1002001F08B
:1008100080F9042003F0C4F9F878C00702D0FFF78C
:1008200030FDC4E702F07CFBC1E79EA1002001F08F
:1008300070F9FEE70FB4F8B569464A8B897F06A8C0
:10084000022A09D09C4B9A4202D1C01D00F09FFAA7
:10085000F8BC08BC04B018477D4B17241A686243E3
:10086000964CA154012207E08518AE791D68172720
:100870007D432D19AE54521C9142F5D21868401C8C
:1008800018603228E4D300201860E1E7F8B5704C16
:1008900025686068A84212D0884E00276068A84288
:1008A0000DD017214843315C8019401C00F027F916
:1008B0006068401C60603228F0D36760EEE7F8BDE6
:1008C00010B588B002F05DF8012002F017FA6C480C
:1008D000083002F05EFA03216A4611730024547353
:1008E000907BFB228843401C10406A469073102086
:1008F000D0731474517403A802F0EEF9C02005906F
:100900006F48069005A802F02BFA002002F049FB80
:10091000FFF722FC6A461470D470147101205070E5
:100920009070D11D000503F06EFB684602F0CAFA14
:1009300008B010BD757064617465207273702052C8
:10094000454A45435445440D0A00000075706461F2
:100950007465207273702054494D45524F55540DA3
:100960000A00000075706461746520727370205312
:100970005543434545440D0A00000000456E616241
:100980006C65206C6174656E63790D0A000000006F
:1009900044697361626C65206C6174656E63790D86
:1009A0000A000000434F4E4E5F5550444154455F8E
:1009B000434F4D503A2025642C2025642C2025647B
:1009C0000D0A00003C3000203D3000204F544120F3
:1009D00066696E6973680D0A0000000053746172E5
:1009E000742052657365742031303030730D0A0005
:1009F0004F54412073746172740D0A004F544120AA
:100A00006661696C650D0A004A756E2020372032D8
:100A1000303139004D41433A000000002530327832
:100A20000000000031343A33383A3333000000001C
:100A3000537964383831315F554152542025733A27
:100A400025730D0A00000000743A0020A43A00202B
:100A5000C439002053594420496E632E0000000021
:100A6000535944383831315F554152540000000029
:100A700025730000E5060010043100201C31002021
:100A8000003000204556545F31535F4F54410D0AEA
:100A9000000000005254434556545F313835530D21
:100AA0000A0000004552523A20486172644661755E
:100AB0006C74210D0A00000001FF00004435002085
:100AC00033030010FEB501A9684600F01AFD0020AE
:100AD00001266A46104901AC104DB60213780BE0AE
:100AE0000F68225CEA550A68521C0A60B24201D3C0
:100AF00000220A60401CC0B29842F1D3FEBD70B51E
:100B00000D460646002404E0305D00F0EFFC641C56
:100B1000E4B2AC42F8D370BD3C3500203C3100203B
:100B20000022064B06E00021491C89B29942FBD302
:100B3000521C92B28242F6D3704700008C0A000029
:100B400001B582B001200146009002AB40223C205A
:100B500000F07FFD0EBD10B50446B031C8B200F004
:100B6000E4F82009103000F0E0F82007000F012120
:100B7000084300F0DAF810BD70B50124A404204643
:100B800000F038FB204600F0B8FB0A20FFF7C8FF52
:100B9000204600F09BFB0A20FFF7C2FFA201511084
:100BA000012000F02DFDAE2000F0BFF8002000F085
:100BB000BCF8102000F0B9F8402000F0B6F8812011
:100BC00000F0B3F8CF2000F0B0F8A12000F0ADF8AD
:100BD000C82000F0AAF8A62000F0A7F8A82000F08E
:100BE000A4F83F2000F0A1F8D32000F09EF80020E8
:100BF00000F09BF8D52000F098F8802000F095F8E0
:100C0000D92000F092F8F12000F08FF8DA2000F0FF
:100C10008CF8122000F089F8DB2000F086F84020E4
:100C200000F083F8202000F080F8022000F07DF82A
:100C30008D2000F07AF8142000F077F8A42000F05E
:100C400074F8A62000F071F8AF2000F06EF80026CE
:100C500035462846B030C0B200F067F8012000F0F9
:100C600064F8102000F061F800243046FFF768FFB8
:100C7000641CE4B2802CF8D36D1CEDB2082DE8D3CF
:100C800000210846FFF767FF70BDF7B5054600274E
:100C90002CE02038C6B2782D04D901980025401CDC
:100CA000C0B2019028460199FFF755FF0024360194
:100CB00023483119405CFFF743FF641CE4B2082C61
:100CC000F6D30198401CC1B22846FFF744FF002428
:100CD0001B4831190818007AFFF732FF641CE4B290
:100CE000082CF5D308357F1CEDB2FFB20298C05D29
:100CF0000028CED1FEBD0FB470B50C46069905464E
:100D000000290ED007AA0F4803F044FDC1B200200D
:100D1000802900D980210B4A505421462846FFF7EC
:100D2000B4FF70BC08BC04B0184701B582B0012004
:100D30000146009002AB00223C2000F08AFC0EBD70
:100D400063540010CC39002010B5AA4B0E241B6947
:100D50001C70541C5C709870D81C03F01DF910BDF9
:100D600008B502F07AF900206946087001221620C1
:100D7000FFF7EAFF08BD00229E49002801D00A7053
:100D80004A704A80CA808A800A81CA607047FEB56C
:100D9000984C0E4661880025002905D0217800294D
:100DA00002D0657000216DE0017811390B0003F06D
:100DB0001AFD06111C214B46041B0020FFF7FEF90B
:100DC0008DA1002000F0A5FE0120400202F06AFC87
:100DD000012007E00020FFF7F1F98BA1002000F0CF
:100DE00098FE04202070E560FEBD801C00F094F8A1
:100DF00005201EE0871CC01C03F0FBF801463A7872
:100E0000864802F0A2FA0646781C03F0F2F8034680
:100E100038780090324682A1002000F07AFE002E41
:100E200009D068460571012201A91820FFF78CFF3F
:100E300006202070FEBD012069460871F3E7801C82
:100E400000F0A0F80320F4E7C17982790F0217437C
:100E50006780417A027A0E021643E680801C03F016
:100E6000C8F8E060A580258102463B4672A10020BB
:100E7000009600F04EFEFEBD425C2389D218491C4C
:100E8000228189B2B142F7D381070AD001463246A6
:100E9000764803F081F8A188E068744A401831462A
:100EA00005E0A288E1688B1802463146184602F038
:100EB0006FF9A088801981B2A18060888142DAD35D
:100EC0002289E088824204D1002000F04CF868A119
:100ED00003E0012000F047F869A1002000F019FEAE
:100EE000E38822896AA1002000F013FE0020FFF7AA
:100EF00042FFFEBD70B53F4C0D4621694A78214640
:100F00001431921C03F048F820694078801C287046
:100F100000206061A06170BD38B50446407821783A
:100F2000000208430121090388421BD8A2788218D5
:100F30008A4201D9091AA1703849A2784018E11CE7
:100F400003F02AF86078217802020A43A3785BA1B3
:100F5000002000F0DEFD0020694608700122172005
:100F6000FFF7F2FE38BD1CB56B465970090A99703F
:100F7000DA70110A19711870052269461420FFF7FA
:100F8000E3FE1CBD38B504463848203001790029FD
:100F900005D02038006A354A400102F0F9F82046B1
:100FA00003F027F8617922790B02134302464AA124
:100FB000002000F0AEFD204603F01BF86179227995
:100FC0000B02134302460021084602F0E3F80446F0
:100FD000024647A1002000F09CFD002C07D0002015
:100FE0006946087001221820FFF7AEFE38BD0120C7
:100FF000F6E700003C300020434D445F46575F4514
:10100000524153450D0A0000344B53455454494E48
:10101000475F4552415345200D0A00004A07002012
:10102000436F64655570646174653D25642025785F
:101030002025780D0A000000434D445F46575F5756
:10104000524954455F5354415254206F666673654C
:10105000743A25782C73697A653A25782063686537
:10106000636B73756D3A25780D0A00004C3A0020C9
:1010700073656374696F6E204F4B21200000000080
:1010800073656374696F6E206661696C6521200009
:101090006F74615F726563656976655F63686563D8
:1010A0006B3A2578206F74615F73656374696F6E46
:1010B0005F636865636B3A25780D0A00636D64347D
:1010C0004B53455454494E475772697465202578EF
:1010D0002025780D0A0000006F746120737A3A258C
:1010E0007820636865636B73756D3A25782000001E
:1010F000436F64655570646174657632303D256474
:101100000D0A000070B5CC4B00221C6801252B464F
:101110009340034202D0A154984302D0521C202A8B
:10112000F5D370BDF0B5C54C221D944600282AD0D9
:10113000012827D1C04B3033002B23D000200122BF
:101140008240114207D01F5C01252668BD402E4316
:101150002660914302D0401C1828F0D318200125A6
:101160002A4682402B46114209D06446064624781E
:10117000183EB3401C4363461C70914302D0401C90
:101180002028EDD3F0BDAC4B1833D5E7F0B5AB4C10
:10119000221D944600282AD0012827D1A64B30339F
:1011A000002B23D0002001228240114207D01F5C77
:1011B00001252668BD40AE432660914302D0401C05
:1011C0001828F0D3182001252A4682402B461142C8
:1011D00009D0644626780446183CA3409E436346E3
:1011E0001E70914302D0401C2028EDD3F0BD924BDD
:1011F0001833D5E710B590494A68147821465478D9
:10120000240221439478D378240421431B061943F4
:1012100081431170080A5070080C9070080ED0704D
:1012200010BD70B5844E73681D782A465D782D0216
:101230002A439D78DC782D042A4324062243024366
:101240001A70140A5C70140C9C70120EDA70F36839
:101250001D782A465D782D022A439D78DC782D047E
:101260002A432406224302431A70140A5C70140CA9
:101270009C70120EDA7008229C1825782A46657830
:101280002D022A43A578E4782D042A43240622431C
:1012900082431A72100A5872100C9872100ED8728B
:1012A00008201A1814782046547824022043947891
:1012B000D278240420431206104308431872010A0E
:1012C0005972010C9972000ED87270BD10B55A494E
:1012D0008A68147821465478240221439478D3787C
:1012E000240421431B06194301431170080A50705E
:1012F000080C9070080ED07010BD10B54E498A6869
:10130000147821465478240221439478D378240415
:1013100021431B06194381431170080A5070080CC1
:101320009070080ED07010BD10B543498A681478CB
:1013300021465478240221439478D378240421430D
:101340001B06194341401170080A5070080C907038
:10135000080ED07010BD70B5374C182223699D1847
:101360002E7832466E7836023243AE78ED78360407
:1013700032432D062A4302401A70150A5D70150C7F
:101380009D70120EDA7010229D182E7832466E78FB
:1013900036023243AE78ED78360432432D062A43C6
:1013A00082431A74100A5874100C9874100ED87472
:1013B00020331878400840001870616101202049EE
:1013C0000003086070BD10B51B4C18202369191864
:1013D0000A7810464A78120210438A78C9781204B3
:1013E00010430906084310215A18137819465378F8
:1013F0001B0219439378D2781B0419431206114338
:10140000884318D06069002800D0804721691820DF
:101410000A181378184653781B0218439378D27829
:101420001B041843120610430870020A4A70020C8B
:101430008A70000EC87010BD583000208010005017
:1014400000E100E070B54D480068C17B8909890161
:10145000C91CC173017C89098901091D01742030EF
:101460008178DF22114081708378BF210B40837027
:101470004348006883785B085B00837003781B092E
:101480001B010833037003785B065B0E037003785F
:101490000B400370C37810242343C3708378042463
:1014A00023438370847820231C4384708578EF2441
:1014B00025408570857880263543857085780D4078
:1014C00085700178214001700178114001708178A8
:1014D000022211438170C1781943C170294A402109
:1014E0001160817808221143817070BD2449096818
:1014F000487008788006FCD50878DF221040087014
:10150000704738B500226C4622701D4B1B680DE0F9
:101510001C798C546D46521C2C78D2B2641C2C70F1
:101520002C78641C2C702C78641C2C70DC78E407FC
:10153000EED0027038BD10B5114C20680178C90694
:1015400005D50178EF2211400170FFF7BBFA206842
:101550008178890703D5817802221143817010BDFB
:1015600010B5074840680178C90605D50178EF2213
:1015700011400170FFF7A6FA10BD0000583000209E
:10158000A030002000E100E00F48FF220168013296
:101590001143016070470C48012201685202114357
:1015A0000160704710B57D242401FF200023074A05
:1015B0002146013001F08EFF01200023044A21461C
:1015C000400201F087FF10BD043100208915001092
:1015D0009715001008480422016811430160704704
:1015E00010B50023054AB921042002F06AFA04204C
:1015F00002F013FB10BD00001C310020D5150010B7
:10160000F7B5354EDF244F25174600280FD00128A7
:101610000CD10D210198FFF775FD0E213846FFF71B
:1016200071FDF068417921404171C570FEBD002116
:101630001046FFF767FD39460020FFF773FD0B21C9
:101640000198FFF75FFD0C213846FFF75BFD30681E
:10165000E8E7F8B5204C0E469E46E16894460346FE
:10166000069A0879012580273843087188785F0039
:101670002840384388700879BF27F30738405B0E4D
:101680001843087160460870000A48704879531E74
:1016900040094001DB06DB0E1843487171462069A2
:1016A00002F07AFCE068017920221143017101798E
:1016B0000907FCD50179F722114001710179490729
:1016C00004D50179FB2211400171002501794906F9
:1016D000490E01712846F8BDAC30002010B5604CB1
:1016E0000320206160615FA0A0616148E06101208A
:1016F00040030021A162206261625AA0E16220667B
:101700005C48606621671020E166A06661675AA1A7
:10171000E01D02F065FC59A1204602F061FC20208A
:10172000A07110BDF7B5054682B000200090EC68AE
:1017300017462869A04201D9061B02E0A968201AB1
:101740000E1AA868761E001BB04200D80646BE429C
:1017500000D33E46686832460019039902F01CFC2B
:101760000098BF1B801900900398A419801903905A
:10177000A868A04200D10024EC60002FD9D10098C5
:1017800005B0F0BDF7B50446C7688068E168C51BC1
:10179000606816464018B54205D9019902F0FCFB75
:1017A000B819E060FEBD2A46019902F0F5FB0198E8
:1017B000761B41193246606802F0EEFBE660FEBD22
:1017C00070B50E4618214843254914464518E86A65
:1017D0001835002804D001280FD0022805D113E0C5
:1017E000284600F031F8A04201D2002411E0224640
:1017F00031462846FFF7C6FF0BE0284600F024F8E4
:10180000A042F4D20446F2E731462846FFF78AFFA9
:101810000446204670BDF8B50746114815460078C5
:101820000E46002801D1FFF759FFEFF31084012085
:1018300080F310882A4631463846FFF7C1FFE1B2EF
:1018400081F31088F8BD49E70269C1688A4203D86C
:101850008068401A801800E0501A401E704700004F
:10186000007F00205465726D696E616C000000009D
:10187000BC3A0020BC5A00205254540053454747FC
:101880004552000010B5044680686368421C9342CC
:1018900005D323681954A260E068401CE060A26888
:1018A0006068824209D121682069FFF7B4FFA1680E
:1018B000884203D00020C043E06010BD0020A0603B
:1018C00010BDFFB581B001261F4635460A9C02981F
:1018D00002E002F037FB6D1C03998842F9D2AF4257
:1018E00000D93D460B98C00718D1002C16D00B9894
:1018F000800701D5002F02D0202000900CE030207E
:10190000FBE7641E00990198FFF7BCFF0198C068CF
:1019100000283DDB002C01D0A542F2D30198C0681D
:10192000002835DB012F01D97F1E06E031460298E1
:1019300002F008FB0399884202D303984643F1E77B
:10194000C14F3146029802F0FDFA0146029A7143F6
:10195000511A0291395C0198FFF794FF0198C06811
:10196000002805DB3046039902F0ECFA0600E8D1C6
:101970000B98C0070CD0002C0AD0A54208D2202119
:10198000641E0198FFF77EFF0198C0680028F2DA14
:1019900005B0F0BDF7B598B007A8029040200390BD
:1019A00000200C46049018991546082606910590CB
:1019B0002178641C002970D0252907D002A8FFF7E0
:1019C00061FF05980028F3DA1BB0F0BD012200206A
:1019D00013460227217823291BD02B2916D02D2925
:1019E00002D0302906D101E0184300E03843641CDE
:1019F000002AEFD1002122781346303B0A2B0AD26D
:101A00000A23594389183039641CF4E70421084338
:101A1000EDE73043EBE70023D7B22E2F0AD1641C49
:101A200022781746303F0A2F04D20A277B439B189F
:101A3000303BF4E76C2A0DD0682A0BD0702A48D0CE
:101A40000BDC252A4FD0582A28D0632A0CD0642AD0
:101A50004DD10EE06278641CECE7732A2AD0752A17
:101A600013D0782A43D119E02868011D2960017834
:101A70003AE02A68171D2F601768009101900A222A
:101A8000394602A800F07BF831E02A68171D2F6064
:101A900017680A220091019007E02AE02A68171DC2
:101AA0002F601768102200910190394602A8FFF7B5
:101AB00008FF1CE02868011D2960076839787F1C31
:101AC000002914D002A8FFF7DDFE05980028F5DAFA
:101AD0000DE028680823011D2960016800201022FC
:101AE00000960190E2E7252102A8FFF7CBFE641CD7
:101AF00067E7002800DC67E70498002804D0024666
:101B000007A91898FFF787FE0499059840180590D3
:101B10005AE70FB408B504A900916A460399FFF784
:101B200039FF01B008BC04B01847FFB5002481B0EC
:101B30001D461646002902D00198FFF7EAFF01274B
:101B40007F0713E0600704D1A2B240A10198FFF71C
:101B5000E0FF325D3FA10198FFF7DBFF6007F8422D
:101B600003D13EA10198FFF7D4FF641CAC42E9DB2E
:101B7000600703D039A10198FFF7CBFF08E7FFB555
:101B800083B00E4670420D9F0C9C0090002900DB34
:101B90000846012502E002F0EBF96D1C0599884228
:101BA000F9DA0698A84200D90546002C04D0002E88
:101BB00001DB780700D5641EB80702D50698002817
:101BC00010D0F8070ED1002C0CD0A5420AD220214B
:101BD000641E0398FFF756FE0398C0680028F2DAE7
:101BE00007B0F0BD0398C0680028F9DB002E02DAC8
:101BF0002D21009E02E0780707D52B210398FFF7DF
:101C000041FE0398C0680028EADBB807800F02286D
:101C100010D1069800280DD1002C0BD0A54209D276
:101C20003021641E0398FFF72DFE0398C06800283A
:101C3000F2DAD5E7019700943146069B059A03989E
:101C4000FFF73FFECCE70000535A00105B2530340D
:101C5000785D200025303278200000000D0A000059
:101C60000448804704480047FEE7FEE7FEE7FEE73A
:101C7000FEE7FEE77D1C0010C1000010024901488C
:101C8000086070470024F400C4300020F1B5FA4821
:101C900080470746F94880470646F74C0120183C24
:101CA000A047F64D00200C35A847F5490098884715
:101CB0003046A8473846A047F8BDF0B5F14DF24888
:101CC000A96885B00818044602F093F92146401C23
:101CD00002F099F90024EB4801258668EA480C389F
:101CE00031180391487C097C00020843A540284232
:101CF00002903BD00B2060438119E34800910930EA
:101D00000818019002F075F90746DF48301802F014
:101D100070F987422AD10F21009889014018007D6F
:101D200000280CD0D84A00990D3A8A18517D127DAE
:101D3000090211437818019902F065F905E002984B
:101D40000399A8430874000A4874CF4800990D30DD
:101D5000081802F04EF9002808D0022D19D0042DE1
:101D600017D0082D15D0102D1AD08047641CE4B26E
:101D70000A2CB0D3C3488168C3480C380918487C82
:101D8000097C00020843800501D1C048804705B0A6
:101D9000F0BDBF49012088470028E7D0222005E098
:101DA000BB49012088470028E0D03B20FFF76EFFA9
:101DB000DCE7F0B585B00020694608730872B54FBE
:101DC0000874B54EAF4CB847019004AB02AA03A902
:101DD000206901F022FB0028D9D00820B047002854
:101DE00003D00220B04700280FD06846007A0128AF
:101DF00011D0A0682569407A012826D00228E2D1B6
:101E0000A64A284601999047DDE7012168460172FC
:101E1000007C002815D02521A06849014118497B84
:101E2000002908D09849D4314018417B027B080230
:101E30009B49104388476846984A017B963220693F
:101E4000E1E73D20FFF722FFA1E728780007000F18
:101E50000528B8D18F49EE31A81C884728788722F9
:101E60004006C10FA06811540622A91C883002F058
:101E700093F8A8E7F0B5864999B004208847002870
:101E80000ED0834904201A31884780491F20AC3185
:101E90008847844880471620FFF7F8FE19B0F0BD48
:101EA00081488047002810D0764DAC68A17908079A
:101EB000F4D5E079C2071CD07C4920469830884789
:101EC000A868C179490849001FE0774E754F754DE4
:101ED000B2361C376C46103507E06846B04701281B
:101EE000DCD168460178601CB847A8470028F4D0C8
:101EF000D4E782070BD56D4A20461C328E30811CF8
:101F00009047A868FD22C17923E0C171C6E7420766
:101F100008D5664920466031A8308847A868FB226A
:101F2000C17916E00207F726002A09DA5F4A21463E
:101F30004232A07A0B319047A868C1793140E4E77A
:101F4000C00608D5594968467C318847A868EF2201
:101F5000C1791140D9E720463140FF30A1712130CD
:101F6000017D0026002910D0067521460722873101
:101F70000CA802F011F821460DA82A228E31033058
:101F800002F00AF84A490CA88847012069460870FF
:101F900048708E70A96800A82A2203308E3101F0A3
:101FA000FBFF2D220821434C6B460020A04775E71C
:101FB00034490128C9690FD0022811D0042812D051
:101FC000082813D0102814D0202815D0402816D067
:101FD000802818D0012070478878C007C00F70474C
:101FE000887880070DE0887840070AE08878000745
:101FF00007E08878C00604E08878800601E08878E9
:102000004006C00F70478878C009704710B5017846
:10201000012920D1401C01F0ECFF1A4A10285BD0A6
:102020000EDC012818D002281ED0042844D008282D
:1020300011D1FFF7BDFF00280DD11148563809E036
:10204000202859D0402806D1FFF7B2FF002802D13E
:102050000B48801E804710BD0120FFF7A9FF002814
:10206000F9D1FFF707FF10BD0220FFF7A1FF0028FD
:10207000F9D1FFF79EFE10BDBF650000776A000032
:10208000CF160000C8300020CE030000011200006F
:10209000F50A000049570000791900008B1E000066
:1020A0002B620000BD600000054E000027260000E6
:1020B000DF470000A13E00000420FFF779FF002861
:1020C000D9D19068407A012803D00228D3D1FE48A4
:1020D000C0E7FD48AE38BDE71020FFF769FF0028D4
:1020E000C9D1D0692030407D400701D53E2000E0B5
:1020F0000820FFF7CBFD10BD2020FFF759FF002877
:10210000F9D1F248A6E710B500280ED0F04AD169FF
:102110008B7E082423438B7660310B7E52785B09DB
:102120005B01D206D20E13430B76EA4988470120A1
:1021300010BDE74880682330417C027C08021043D0
:102140000BD0E54948780A78000210430322104377
:102150000870000A48700120D5E7704730B4DD4CA4
:102160006C34A44630BC6047F8B5DB48407A0006C2
:1021700063D5D748866830462330417C007C0F0207
:10218000D54907434878097804020C43002F01D150
:10219000600752D5D04DA87B697B00026D1C0843B7
:1021A0004BD0002F49D068792979000208432ED1FD
:1021B0002136707C317C0002084302F035F90022A0
:1021C000C64B02F035F802F03DF980B27843642145
:1021D00001F0CEFE4004010C2971080A68710A2042
:1021E0004143707D327D00021043814206D30A21B3
:1021F000401E01F0BDFE2871000A687168792979D6
:102200000002084303D10120287100206871B24800
:10221000A10709D502218C4301210C430470210A36
:1022200041700020FFF76FFF68792A79010211439E
:10223000AB4B00224020FFF791FFF8BD1CB5A6492B
:102240004A7A002A3AD04A780B7812021A43D30607
:1022500034D4437804781802204301282ED1C8785A
:10226000401E0006000EC87029D008468B78017AFF
:10227000C27909021143027BC47A12022243C01CB4
:10228000012B24D0521A0272120A42721206037AE9
:10229000120C1A43531A69460B804A808E498A7B76
:1022A000497B12020A4369468A80417B027B08020D
:1022B00010436946C8808B49684688471CBD887AA8
:1022C000C870402002430A70100A48701CBD5218A2
:1022D000D9E7854A1047844A2032104738B5002490
:1022E00021467F20FFF7F7FF00213B20FFF7F3FF98
:1022F00029213B20FFF7EFFF69463B20FFF7E9FF6D
:1023000068460078800701D5012038BD641CA4B25E
:10231000FF2CF1D9002038BD10B57448804701204A
:1023200010BD10B56A49724A8870002807D18868C4
:102330008078022803D000209047012010BD0120A2
:10234000FAE710B5624C0128A168887004D0002813
:1023500036D002284BD05EE0606A014620310A7810
:10236000520852000A700A78FD231A400A70017858
:10237000890989011C3101704178890989011C3161
:10238000417000217F20FFF7A6FF03212120FFF7E6
:10239000A2FF1F210320FFF79EFF7D205249C000AE
:1023A0008031884702217F20FFF795FF012100201F
:1023B000FFF791FF00217F20FFF78DFF0F2127E01E
:1023C00000217F20FFF787FF00210420FFF783FF14
:1023D00002217F20FFF77FFF00210846FFF77BFFE8
:1023E00000217F20FFF777FF0021032011E0022169
:1023F0007F20FFF770FF03210020FFF76CFF002113
:102400007F20FFF768FF00210320FFF764FF002112
:102410000420FFF760FFA078FFF783FF012010BDC5
:1024200010B5FFF78EFF012010BD304810B50C30FD
:1024300080472748006A017ADF221140017201209B
:1024400010BDFEB52A4818308047214C0190206A03
:10245000817A007ACF07FF0F002672B6800702D07C
:102460000126FFF7E2FF1A48006A817A490849000D
:1024700081721F49012088470220FFF762FF1A4935
:10248000642066318847002469460C702546012186
:102490007F20FFF720FF00210A20FFF71CFF2221E9
:1024A0000A20FFF718FF69460A20FFF712FF684667
:1024B00000784007EFD469460A20FFF70AFF684614
:1024C000007840071CD515E027150000C116000054
:1024D000C83000203F440000235B00200000F43F90
:1024E0003321001033420000C5610000074700009F
:1024F000A765000068460078000706D4012504E0BF
:10250000641CFA48A4B28442D5D3F94964208847B0
:102510000020FFF716FFF74901988847F648006A40
:10252000817A4908490039438172002E01D0F3486D
:10253000804762B6002D01D00120FEBD0020FEBD07
:1025400010B51121EE4801F040FD10BD70B50446F4
:10255000401C01F04EFD022818D0042819D001219A
:102560004904884244D125462035687B0923010768
:102570000209090F0020072A19D0032A1DD0022AB8
:1025800022D0012A26D0002A2AD02FE0FFF7D8FF38
:1025900037E0D948FF218068012235310A5480781C
:1025A000002801D1FFF74DFFFFF798FE29E0581AE8
:1025B000062148434121C94304E0581A06214843F3
:1025C0003521C943081A10E0581A0621484323212F
:1025D000C943F7E7581A062148431721C943F1E7D1
:1025E000581A06214843801D404240B2687308E0F3
:1025F00040281DD00121C903884202D1601DFFF788
:102600001DFEBF494878097800020843800607D5B7
:10261000601C01F0EEFC0005000F01D0FFF7A4FDE7
:10262000B5482C3001F0E5FC01462046884770BDD6
:10263000B148283001F0DDFC4006E2D570BDB1495B
:1026400008471CB5AE4808210170002141700146C1
:10265000087BCA7A0002C91C10432FD04A790B7933
:1026600012021A43821A92B26B461A8058800623CD
:10267000062A01D26A461380062801D268464380A2
:10268000487B097B000208436946C8809C48817BDF
:10269000427B08021043694688809748806823304F
:1026A000417C027C0802104302D00020FFF72BFD82
:1026B0009549684688479349402088471CBD904902
:1026C00048780A7800021043C2050CD5FF22013277
:1026D00090430870000A48700879401E0006000EFA
:1026E000087109D0ADE72022104310229043042244
:1026F00010430870000A48707047FEB5804D0446CC
:10270000687829780002084300077DD57F48804714
:1027100069782A78090211430822914329700A0A2C
:102720006A706B7A064628461A066ED5A2796779D2
:102730001202651C3A43704FE41C002A77D0102225
:10274000114301700A0A427088065ED468792979BB
:102750000002084332D001F067FE019100906078DA
:1027600021780002084301F05FFE694C00222346F5
:1027700001F05EFD019B009A01F05AFD019100906D
:10278000B8682130417C027C0802104301F04CFE05
:102790000022234601F04CFD07460C46687A297A50
:1027A00000020843801B01F02BFE3A46234601F04D
:1027B0003FFD019B009A01F089FC24E060782178BC
:1027C0000002084301F014FE0446B8682130417C41
:1027D000027C0802104301F00BFE214601F01CFCB4
:1027E00001F04EFE00224A4B01F022FD07460C4646
:1027F000687A297A00020843801B01F001FE3A46FC
:10280000234601F015FD02E06EE064E00FE00022D7
:10281000404B01F075FD01F015FE0104090C00D1DB
:1028200001213D4B00228020FFF798FC53E09A06DF
:1028300051D58278012A4ED18A064CD4FF223048E5
:10284000013211430170090A417060782178000259
:1028500008432B490A7BCB7A1102194388423AD9A3
:1028600001F0C6FD0446B8682130417C027C0802B4
:10287000104301F0BDFD214601F0CEFB01F000FE4A
:102880000022234B01F0D4FC07460C46687A297AD3
:1028900000020843801B01F0B3FD3A46234601F0D5
:1028A000C7FC00221B4B01F02BFD01F0CBFD010406
:1028B000090C00D10121184B00228020FFF74EFCAB
:1028C0000F484178027809021143FF220132114377
:1028D0000170090A417003206946088102229103B0
:1028E0000E4C02AB0020A047FEBD0000FFFF000021
:1028F0002B620000A7650000C830002007470000D9
:10290000235B0020B344000033420000BF550000A9
:102910000000F43F00005940BF260010A13E000017
:1029200010B50446007800280ED1A178627808021C
:1029300010430AD0012807D1F849201D88470028F4
:1029400002D12820FFF7A2F910BDF549201D8847C4
:10295000002802D12820FFF799F9201DFFF7CDFEAE
:10296000F04801218368062209040020EE4C31332F
:10297000A04710BD10B50078012801D1FFF79DF9DF
:1029800010BD30B5E94885B0804701217F20FFF7B1
:10299000A2FC69465020FFF79CFC6846007804289A
:1029A00001D0E3488047FFF74CFDFFF797FC012477
:1029B000684644800480DF480190DF4968468847C4
:1029C00068460470447000244480DC480190D54877
:1029D000DB4B806808226946C01801F0DDFA01214E
:1029E000D84D4020A84701218020A8470121202060
:1029F000A84703216846018041808480C480048107
:102A000044818481C481D048CB4904906846A2396E
:102A10008847012005B030BDC44810B50A30804752
:102A2000012010BDC14910B528318847012010BDD3
:102A3000BE4910B55E318847012010BDBB4910B5B5
:102A40006A318847012010BDB84910B578318847F0
:102A5000012010BDB54910B588318847012010BD4F
:102A600010B5B14C383CA047012010BDF8B5AD4CB5
:102A7000B649A06837308847E0683B230178BF2516
:102A80000A09A16812015B5C1B071B0F1A43027045
:102A90001207120F012A79D00B4640335A781B785F
:102AA00012021A430B4642331A70120A5A70027805
:102AB0008B7A2A409B011A435206520E02706623FB
:102AC0005B5C42789B1D92099B0692019B0E1A4308
:102AD00042700622801C0B3101F05EFAA16866206C
:102AE000425C002A04D0E0686731083001F054FAF3
:102AF000A068002120304177E068954A4178890636
:102B0000890E891C9047E06801780A091201121D9C
:102B10000270A1682A408B7ADB075B0E1A430270B1
:102B200046235B5C42789B1D92099B0692019B0E9B
:102B30001A4342700622801C0B3101F02DFAA16865
:102B40004620425C002A04D0E0684731083001F09A
:102B500023FAE0687E4A41782C328906890E891C66
:102B60009047A56801272E462036F07E01283BD0ED
:102B700000284CD002284AD0062848D000236A4CAE
:102B80001A4601211846A047F8BDFFE70A46403221
:102B9000137953718B7A0278DB072A405B0E1A4354
:102BA000027087235B5C5206520EDB011A430270EF
:102BB00042780B31920992010C3242700622801C3D
:102BC00001F0EAF9E068A16806220830883101F0D6
:102BD000E3F9A16803223D2042545C4A8720405C0F
:102BE000323A8831904787E74035687900280AD023
:102BF00028200621E269937EFD24234093761775F1
:102C0000737F327F3AE001206F710146F2E72C4674
:102C100042346078217802020A4316D02235697F57
:102C200019202B7F800109024243194301208904A6
:102C3000890C009105D0104601F084F9401C7F28D2
:102C400009D8C5B22770380A0CE0380A27706070BE
:102C50000125009507E07F2529467E3001F072F9B5
:102C60002070000A60702F48C069817E02221143E3
:102C700081760775737F327F00992846314CFE3488
:102C8000A047344880477FE710B5FFF7EFFE0120EB
:102C900010BD72B60021234AD0694175037C012121
:102CA0000B43037490684522115442300170002197
:102CB000417062B60120704710B52749884701204E
:102CC00010BD254810B55C308047012010BD10B5FF
:102CD00022488047012010BD204910B5083188479F
:102CE000012010BD1D4910B516318847012010BDC7
:102CF0001A4910B578318847012010BD094948703C
:102D000001207047154910B586318847012010BD54
:102D1000124A10B58E329047012010BD475F000067
:102D20005D5B0000C8300020A13E0000793D00003E
:102D3000F7460000752900102F4400000D200010F8
:102D4000CE0200006155000021290010B15700009B
:102D5000D96000009D560000014100001D420000A6
:102D60007CB5054601F045F90446FB4901F04BF9F5
:102D7000281D01F03EF9F849091D01F044F94020F1
:102D80008443F6480190F64900946846884701203C
:102D90007CBDF34910B57A3188470120BDE7F04A80
:102DA00010B5823290470120B7E710B5ED48804753
:102DB000022801D90020B0E70120AEE7F8B50746A8
:102DC000E8481C4615460E468047022807D9234688
:102DD000E34C2A46314638469234A047D4E60020D8
:102DE000D2E6E1490847E04908310847DE4A223285
:102DF000104738B5049C0094DB4C4434A04738BDE0
:102E000030B4D94C7C34A44630BC6047D649AC3190
:102E10000847D54AC6321047D34AE832104730B483
:102E2000D24CA44630BC6047D04B30331847CF4B10
:102E30005C33184730B4CD4C8834A44630BC60476E
:102E4000CA49B8310847C948CC30004770B5C24DAF
:102E50000446283D082804D0A868407808280DD0EA
:102E600014E000217F20FFF736FA01214020FFF710
:102E700032FA286A0178C908C9000EE000217F20D3
:102E8000FFF729FA00214020FFF725FA286A017888
:102E90006207C908C900520F11430170A868447045
:102EA000012070BDD2E710B50446B14880472070BC
:102EB000012032E710B50446AD48801D80472070E0
:102EC00001202AE7AA4910B51C318847012024E7D0
:102ED000A74810B57230804701201EE7A54800477B
:102EE000A5490847A4491A31084708B5A3496846C7
:102EF00088476846C0788007C00F08BD08B59F495D
:102F0000684688476846C078C00900D0012008BDDF
:102F100010B5FFF7DEF900E710B5FFF7DCF9FCE6C6
:102F2000934810B5523080470120F6E68A4910B523
:102F300001222839C8694275437CDB09DB019B1CEF
:102F40004374931E83741B0AC374096ACB7AEF24FB
:102F50002340CB724B7B93434B738B7A13438B721F
:102F6000817E022319438176017C114301748249D9
:102F700005201A318847824880470120CDE68048E5
:102F800010B5123080470120C7E67C4910B57E316C
:102F900088470120C1E6794910B59631884701205C
:102FA000BBE6774910B5583188470120B5E674492A
:102FB000AC310847724910B5FA3188470120ACE6B8
:102FC00010B5704880470120A7E66E4810B518304C
:102FD00080470120A1E66B4BA2331847694BD833D9
:102FE000184770B504465C480D46283840682830BC
:102FF00000F0FFFF002805D072B60019624A29468A
:10300000904762B670BD70B50446534815462838DF
:1030100040680E46283000F0ECFF002807D072B65A
:103020000019594B2A463146EA3B984762B670BDB3
:1030300070B5044648481546283840680E46283082
:1030400000F0D7FF002807D072B600194E4B2A4671
:103050003146823B984762B670BDF8B5002472B61F
:103060003D4D283D68680A3000F0C3FF464B5721AC
:10307000464AEA3B984762B64448434E00780028E7
:1030800002D0012821D047E06968C87B897B000213
:1030900008434005070E0BE072B66868143000F074
:1030A000A8FFE10340180821B04762B6641CE4B2EF
:1030B000BC42F1D36868C17B827B090211434D0792
:1030C0006D0F29D072B614301FE06968C87B897B08
:1030D000000208434005070E0BE072B66868103026
:1030E00000F087FFE10340180821B04762B6641C76
:1030F000E4B2BC42F1D36868C17B827B0902114310
:103100004D076D0F08D072B6103000F072FFE1036A
:1031100040182946B04762B6012035E5F8B50446A7
:103120001A480F4601780C48174D2838823D4068F0
:103130001646002902D0012903D00BE072B61430E4
:1031400001E072B6103000F054FF001932463946E3
:10315000A84762B6012017E5F03000204D25001089
:10316000B34200002B4E0000B73A0000BB3B00000A
:103170009F440000FB5F00002B6200004D650000D3
:10318000E54600000348000043540000CC5A0020EC
:10319000C9B2C3E730B4C34CA44630BC6047F8B5ED
:1031A000C1488047C14C607A002840D00006042501
:1031B00000280FDA6078217800020843400709D51B
:1031C000FEF7D2FF6078217800020843A843207000
:1031D000000A60706078217800020843B44FB54E51
:1031E00041060CD5402188432070000A60700220FF
:1031F0006946088002466B4639460020B047607831
:10320000217800020843C10711D040084000207017
:10321000010A6170800702D56846058002E005203A
:103220006946088002226B4639460020B047ABE46D
:10323000A148004738B5A14C2078002804D1A04906
:103240006846884701202070012038BD70B502789B
:10325000002A49D095494A7242788A72002A01D0E0
:10326000042A01D904228A72C27884781302234383
:103270008E4A1C0AD37214734479057924022C43B4
:1032800015466C73240AAC73C479857920022843EF
:10329000D073000A1074894808258068D21C213038
:1032A000447C007C240204430120A342887008D996
:1032B0001B1B07E01071000A01E01571280A50710C
:1032C00007E0E31A8C7AA3420ADA1071000A5071FF
:1032D0008B72887AC8700871FFF7B3F9012070BD4E
:1032E000E400A342E9DAE5E7002070BD734989698B
:1032F0000870020A4A70020C8A70000EC870487A80
:10330000022210434872704738B5044600200090EE
:103310006B49684688470099F8208143E006000E13
:1033200008430090FFF7E2FF38BD65487230004760
:1033300063495A3108476349084762491A310847C7
:103340006148004760490C310847F8B500260B4634
:1033500004460125304631462D03675C491CBE19E1
:10336000A942FAD30021675C491C7840A942FAD3EC
:103370009E422CD190422AD1504E70680A3000F003
:1033800038FE4A4A514B573A5721984770680A30DD
:1033900000F02FFE454900195722573900F0FCFD77
:1033A00070681C3000F025FEB168001907220A3150
:1033B00000F0F2FD454A01210020EA329047434BDC
:1033C0000020224629466833984701205BE400200C
:1033D00059E470B50126394C360305463B4B31465E
:1033E0000020626998473A492846884760681C303F
:1033F00000F0FFFD616907224018A1680A3100F062
:10340000CBFD324A01210020EA3290472F4B0020A9
:10341000314668336269984770BDF0B5274C002586
:10342000E469E678360701D50020F0BD00BF6D1CC9
:10343000EDB2642DFAD3254640356E7CB607FCD438
:1034400000252646C036377947556D1CEDB2022D52
:10345000F9D346780125F709002F08D0F606F60EB5
:103460000E70157042785206D20F1A7004E0B3063F
:103470009B0E0B7000231370104B0A78DB69801CC5
:10348000C033272A0CD20022C03403E026798654A8
:10349000521CD2B20E789642F8D85D720120F0BD6F
:1034A0005D72C1E77B4A00005B460000235B0020A1
:1034B00000800000A13E0000F94B0000C830002051
:1034C0004D6500002B620000776A00005953000030
:1034D000A13D000070B51E46002913D0FE4DAC6919
:1034E0006B699C420ED205C408467D2149014843C0
:1034F0007D21083C00F026FDA0602673002060615D
:103500001834AC6170BD884200D30846704710B5CE
:10351000F14840682030017CC9070DD0017C490882
:10352000490001740122ED4B11021960417C1143E5
:1035300041743220FFF7FFFE10BD70B5E64E054620
:1035400070680C462030017CC90706D0017C490810
:10355000490001743220FFF7EEFE726820321575C3
:10356000280A5075280C9075280ED075107C1021F3
:1035700008431074907C400840009074D848046060
:10358000517C012001435174D44B0102803B1960EE
:10359000117C0143117470BDCFE770B5CE4D182179
:1035A0002878AE68484369690C1A2869801928612F
:1035B0000020C043A86018E0207B002814D02069B8
:1035C000B04204D16068002807D0804705E0801B26
:1035D000206102D0A168884201D9A0682061A96851
:1035E000884200D90846A860183468698442E3D349
:1035F000A868002805D0411C03D0BA49FFF7CCFFCA
:1036000070BDFFF784FF70BDB349CA688243CA60CA
:103610007047B1484068014644310A7810464A78FC
:10362000120210438A78C97812041043090608432D
:103630007047F8B50546FFF7ECFFA74A91680E1AE8
:103640000020C043166190601078182153694843E8
:10365000191A002718E00868A84202D10F734F61B9
:1036600011E0087B00280ED00869801B086102D099
:103670008C68A04201D98868086104469068844239
:1036800000D82046906018319942E4D39068002811
:1036900005D0411C03D09349FFF77EFFF8BDFFF72B
:1036A00036FFF8BDF8B58C4B05461878182148430D
:1036B0005969081A06E00268AA4202D1027B002A70
:1036C00034D118308842F6D3FFF7A3FF99680E1A59
:1036D0000020C0431E619860197818204143586942
:1036E000411A012718E00A68AA4203D18A680A61D0
:1036F0000F730BE00A7B002A0DD00A69921B0A6146
:1037000002D08C68A24201D98A680A619C68A242F0
:1037100000D814469C6018318142E4D39868002890
:1037200005D0411C03D06F49FFF736FFF8BDFFF706
:10373000EEFEF8BD684918220B7853434A69D11A46
:1037400005E00B68834201D1087B70471831914234
:10375000F7D3FF20704770B50D460446FFF76AFDAA
:10376000002808D05C48182104704C436119856119
:103770004161FFF7CCFE70BD57494A6811462031C0
:103780000875030A4B75030C8B75000EC8758B7C8E
:10379000012003438B744B7C03434B740B7C03432A
:1037A0000B742032D37CDB07FCD00A7C5208520019
:1037B0000A744A7C02434A74704747484068203084
:1037C000C17CC90708D0417C01221143417444489F
:1037D0000068002800D000477047F8B53E4F064605
:1037E00078680D462030017CFD248907002905DA20
:1037F000017C214001743220FFF79DFD7A68203260
:103800001676300A5076300C9076300ED076107CDA
:10381000202108431074907C20409074304845600B
:10382000517C0220014351742C4B0102803B1960F2
:10383000117C01431174F8BD10B527484068203051
:10384000017C89070ED5017CFD2211400174012104
:10385000224A49021160417C022211434174322004
:10386000FFF769FD10BD1C4840682030C17C890706
:1038700008D5417C02221143417419484068002850
:1038800000D000477047F8B5134F064678680D46DC
:103890002030017CFB244907002905DA017C214006
:1038A00001743220FFF747FD7A6820321677300A1C
:1038B0005077300C9077300ED077107C4021084341
:1038C0001074907C2040907405488560517C0420E1
:1038D00001435174010207E0F830002080E100E06C
:1038E000345B00209B3500101F4B803B1960117C1E
:1038F00001431174F8BD1D480C2140684030411847
:103900000A7810464A78120210438A78C97812045D
:10391000104309060843704710B51448406820302A
:10392000017C49070ED5017CFB2211400174012165
:103930000D4A89021160417C0422114341743220F6
:10394000FFF7F9FC10BD094840682030C17C4907E9
:1039500008D5417C04221143417405488068002841
:1039600000D000477047000080E100E0F830002000
:10397000345B002018B5F8480068009000206946C4
:103980000B5C0A241A0962431B070A541B0FD21846
:103990000A54401C0328F3DB009818BD08B5FFF754
:1039A000E9FF009068460178C078EC4A401E504319
:1039B0000A1868468178E120000141436846407852
:1039C0003C23584308181118E54A1069814201D375
:1039D000081A02E0E34B081AC018116108BD70B55F
:1039E0000D46002802D0DC4E083E01E0DA4E0C3EC7
:1039F0000024285D0A2100F0A5FA000101432955A1
:103A0000641C032CF5DB284600F0F3FA30606420D8
:103A1000FFF791FCD0482038C17A08221143C172C7
:103A200070BD38B5CE4909694418CC49204600F02C
:103A300089FA421C6846C270E12508462D012946D4
:103A400000F080FA0246684682702946204600F05F
:103A500079FA08463C2100F075FA01466846417043
:103A60003C21204600F06EFA68460170694600204D
:103A7000FFF7B5FF38BD38B5FFF77CFF009068460B
:103A80000178C078B54A401E50430A1868468178CC
:103A9000E12000014143684640783C235843081820
:103AA0001118AF4BB0485A6A0468914201D38A1A80
:103AB00002E0AC4D8A1A5219A218026010465962EF
:103AC00038BD70B500290BD0A54D6E69AC69B44204
:103AD00006D2A16005C423710020E0601034AC61FF
:103AE00070BD884200D3084670479B4920398A7AC6
:103AF0000F238343887A1A4000090001104388721B
:103B0000704770B50446400701D5FFF733FFE00763
:103B100041D0934C18216078666848436169081A5F
:103B200003E0027B002A02D118308842F9D3884290
:103B300031D2FFF733FF6168E0684018E060002091
:103B4000C043606060781821484361690D1A18E02D
:103B5000287B002814D02869B04204D16868002866
:103B600007D0804705E0801B286102D0A968884201
:103B700001D9A86828616168884200D90846606058
:103B8000183560698542E3D36068002804D0411C81
:103B900002D0FFF746FF70BD0120FFF7A6FF70BD02
:103BA0006F498A6882438A607047F8B50446FFF718
:103BB000F5FE6B4AD06072B60021C943516051785E
:103BC000182359435369591A002717E00D68A54275
:103BD00002D10F734F6110E00D7B002D0DD00D69E8
:103BE0002D1A0D6102D08E68B54201D98D680D6124
:103BF0005668B54200D93546556018319942E5D32B
:103C00005068002804D0411C02D0FFF70AFF02E0F0
:103C10000120FFF76AFF62B6F8BDF8B5504C0546C3
:103C20006078182148436169081A06E00268AA42D0
:103C300002D1027B002A38D118308842F6D3FFF730
:103C4000ADFEE06072B60021C94361606178182260
:103C500066695143711A012719E00A68AA4203D123
:103C60008A680A610F730BE00A7B002A0ED00A698A
:103C7000121A0A6102D08B689A4201D98A680A61D5
:103C800013466268934200D81A4662601831B14206
:103C9000E3D36068002804D0411C02D0FFF7C1FEC6
:103CA00002E00120FFF721FF62B6F8BD2C49C86190
:103CB0007047F1B582B0FFF771FE294DE86072B62A
:103CC0000021C943696069786E69182251430090E8
:103CD000741AEF6920E02068B84209D13C210298AB
:103CE00000F030F93C20401A2061012020730CE0E4
:103CF000207B00280FD021690098081A206102D08B
:103D0000A168884201D9A068206120696968884259
:103D100000D9084668601834B442DCD368680028CB
:103D200004D0411C02D0FFF77CFE02E00120FFF727
:103D3000DCFE62B6FEBD0A4918224B7853434A693D
:103D4000D11A05E00B68834201D1087B7047183116
:103D50009142F7D3FF207047C010005080510100FE
:103D600014310020803A0900A830002071490878F9
:103D70000028F0D17048C37A01221343C372C37A7A
:103D8000DB07FCD10A70E6E76A490862E3E76A49A3
:103D90008A7A024310078A7A000F1209120102433D
:103DA0008A72D8E764498A7A1209024310018A7A32
:103DB0001207120F02438A72CDE770B50546002440
:103DC000285D0A2100F0BEF8000101432955641C5A
:103DD000032CF5DB284600F00CF957492039C8635D
:103DE00070BD554A138A401EDB0BDB034004400CB8
:103DF00003431382907C090700090001090F08435F
:103E00009074A8E74C48C17A04221143C172C17A68
:103E10004907FCD49FE74749087801289BD14648C9
:103E2000C27A02231A43C272C27A9207FCD40020DB
:103E3000087090E7F3B581B0FFF7EDFFFFF7E2FF01
:103E400001200021C003FFF7CCFF6420FFF773FAC5
:103E500001216846C1700024847044700470FFF72B
:103E6000ACFF344D07262C616846C6701727877053
:103E70003B244470047069460120FFF7B0FD68469A
:103E8000C67087704470047069460020FFF7A7FD74
:103E90000F20FFF787FF0F20FFF727FE0120FFF716
:103EA00076FF02982862FFF761FF2449042008602A
:103EB000FEBD70B50D460446FFF7BCF900280BD0D7
:103EC0001C48182144704C436119856141610120EF
:103ED0001B49C003FFF7AEFF70BD10B51648407A0E
:103EE00003071B0F1846FFF75DFF1248016A002900
:103EF00001D01846884710BD0E4800782BE718B54A
:103F0000002802D00C48183001E00B48143000683B
:103F10000090002069460B5C0A241A0962431B07C3
:103F20000A541B0FD2180A54401C0328F3DB0098D4
:103F300018BD000014310020A010005000E100E086
:103F4000033B001030B50B4601460020202201241F
:103F500009E00D46D5409D4205D31D469540491BBD
:103F60002546954040191546521E002DF1DC30BD06
:103F700070B500242546002801DA012440420029BA
:103F800001DA01254942FFF7DDFFAC4200D0404293
:103F9000002C00D0494270BD03460B439B0703D061
:103FA00009E008C9121F08C0042AFAD203E00B78FE
:103FB0000370401C491C521EF9D27047D2B201E076
:103FC0000270401C491EFBD270470022F6E710B574
:103FD00013460A4604461946FFF7F0FF204610BD77
:103FE00003460A780270401C491C002AF9D1184681
:103FF00070470321001D401E037812021A43491E18
:10400000F9D510467047034603220870000A491C80
:10401000521EFAD518467047F8B502464A40D40FEA
:1040200042004B0052085B089A4202D20246084600
:1040300011464A0023D0C30D4A00DDB2120EAD1A5C
:10404000202D35DA49020126490AF6058A19002C85
:1040500000D0524220214F1B1146B9402A4110186E
:10406000C20D9A4221D0002C17D0012D08DCDA05B0
:10407000801AD20F8019D207DBB200F081FAF8BDA6
:10408000DA05801A012340001B06C01880185A4226
:104090008018CA0F1043490007E04908C2071143BE
:1040A000DA05801A80194008801800F061FAF8BD1E
:1040B00061000122511A001BF7E70122D20751408B
:1040C000AAE70122D2075040A6E70000F0B5074654
:1040D0000846584087B0C00F049048000E4659006B
:1040E00040084908BC1A884105D2384631461E4668
:1040F00017460B4602465800400810434CD0300D7E
:10410000039040055900400D490D0590401A02905A
:10411000402872DA18030121000B090508430190B9
:1041200004980092002805D001995242002088414D
:1041300000920190029840210A1A0199009800F01B
:10414000E3F905460C466B4607CB00F0FEF9C019B3
:104150007141039A0E0D0023D71756401A467A4034
:10416000164344D0049A002A2DD0029A012A039AB9
:1041700015DC1205C01A914101263605001C71415B
:10418000D20F059ED2070093019202962A4623463B
:1041900000F03CFA07B0F0BD38463146FAE71605A4
:1041A000224A0F46B218C01AB74101210905001C66
:1041B0004F4100187F41114618187941E20F104312
:1041C0006D19644113E0E2076D0815436408C207E6
:1041D0001443039A01261205C01A91413605001CAA
:1041E0007141CE07400830434908C01851412A4662
:1041F000234600F0FEF9CDE7FFE7049801224000D6
:10420000C117121A00238B4104983146C417381A7B
:10421000A141EEE730B40124E407634030BC55E728
:1042200030B40124E407614030BC4FE70000E0FFF8
:10423000F0B51FB488B00B9909980024484009993B
:10424000C00F490049080991C0070B990090490027
:1042500049080B9109990898A64608431CD00B9968
:104260000A98084318D0099801244000420D4800DC
:10427000410D099824050003000B204309900B9879
:104280000003000B20430B9050181C4940180022DB
:1042900001901446104605E0002001460DB0F0BD27
:1042A000032801DA034600E003239C46C11A0AAE44
:1042B0000AE05F0008ADED5B4F00F75B7D43002730
:1042C000AA187C41491C5B1E6145F2DD410004AB2C
:1042D0005A522104120C0A43240C401C0828DFDB2C
:1042E000019802900099704601910090059B049AF4
:1042F0000799069800F08AF9D0E700000DFCFFFF4F
:10430000F0B50C465C4085B0E40FE40703944C0024
:104310000026640859009446490802460296224342
:1043200021D062460A431ED06200570D4A000E0398
:104330002303550D012402462C492405781B1B0B31
:10434000360B401823432643614600901C46501A02
:10435000B44103D30098401C009002E092180098EA
:104360005B41002803DA0020014605B0F0BD0020C3
:10437000012109050746864611E064461D46141BC7
:10438000B54106D36546521BB341744607430C43FF
:10439000A646CD0740084908284392185B410546C8
:1043A0000D43EAD11046184313D0604619465040D9
:1043B0007140084306D06046101AB34106D201226C
:1043C000002306E000220123DB0702E00122D243A2
:1043D0005310009874460105381C6141029C039DEE
:1043E0000019694100F005F9BFE70000FD03000076
:1043F00010B500229623114600F0C2F810BD00004F
:104400000EB5C217C10F5040CA0740180021054B16
:104410000293019200910A460B4600F0F7F803B0B0
:1044200000BD0000330400000EB5054902910021D3
:1044300000910A460B46019100F0E8F803B000BD78
:10444000330400004A0009030123090B1B0519432B
:10445000094B10B5520D9A4201DA002010BD064BEF
:1044600034339A4203DC9A1A00F05EF810BD034917
:104470005118884010BD0000FF030000CDFBFFFF76
:10448000C20FD207400040080BD0C10D0723DB014B
:10449000C91840020905400A1143C20840071143E8
:1044A0007047002001467047F0B51FB40646002053
:1044B00082B005464024019100901BE001992246FC
:1044C0000F46304600F030F8049A059B801A994157
:1044D00010D310461946224600F016F8361A8F41BE
:1044E0000197224601200021009F00F00DF83818A6
:1044F0004D4100902046641E0028DFDC019B00989F
:104500002946324607B0F0BD10B5202A04DB01462B
:10451000203A9140002010BD914020239C1A034670
:10452000E3401943904010BD10B5202A04DB084633
:10453000203AD040002110BD0B46D340D04020246B
:10454000A21A91400843194610BD10B5202A06DB77
:10455000CB170846203A1041C1170B4306E00B4623
:104560001341D0402024A21A91400843194610BD9F
:10457000002904DA401C490001D14008400070477E
:1045800070B40024050C05D11024000402D10029C8
:1045900021D01124050E01D100020834050F01D1EC
:1045A0000001241D850F01D18000A41C002801DB1F
:1045B0004000641C002908D020252E1B0D46F54024
:1045C000A14000D001212943084301061B1B000A1A
:1045D000DB1D02D5002070BC7047DB051818801861
:1045E0000029F8DA401C4900F5D170BC40084000B1
:1045F000704710B5002B08DA0024401C6141921866
:104600005B411A4301D14008400010BDF0B51FB412
:1046100082B005460C0003D0084600F0CDF802E059
:1046200000F0CAF820300246009021462846FFF7E5
:104630006BFF049B059A04460F4618431143084339
:1046400014D0184610431BD0009840210A1A18466F
:104650000599FFF769FF05460E46009A05990498EB
:10466000FFF752FF084305D0012004E020463946F9
:1046700007B0F0BD0020C11705430E432C4337435C
:1046800000990E986305401A7905E40A00220C434C
:10469000FD0A0A3002D500200146E9E7010510199C
:1046A00069410C9C0D9D00196941FFF7A2FFDFE7EE
:1046B0004A0009030123090B1B0519430A4B10B5D6
:1046C000520D9A4202DA0020014610BD064B3433E7
:1046D0009A4203DC9A1AFFF727FF10BD034BD2184A
:1046E000FFF712FF10BD0000FF030000CDFBFFFF2E
:1046F00010B5002904DB0124E40740428C41214627
:10470000002B04DB1C460123DB075242A3419942E4
:1047100000D1904210BD0000064C0125064E05E078
:10472000E36807CC2B430C3C98471034B442F7D3D2
:10473000FBF7CAFC645A0010845A001070B58C183C
:104740000578401C6B075B0F01D10378401C2A11D0
:1047500006D10278401C03E006780E70401C491C0C
:104760005B1EF9D12B0705D40023521E0DD40B700C
:10477000491CFAE70378401CCB1A921C03E01D7811
:104780000D70491C5B1C521EF9D5A142D8D30020E4
:1047900070BD000037B514460846064B6A462146F0
:1047A00000F0EAF804466946002000F081FC20464B
:1047B0003EBD0000B15000102021020C01D010219C
:1047C0001046020A01D010460839020901D01046ED
:1047D000091F820801D01046891E420801D0881E98
:1047E0007047081A704730B47446641E2578641CFC
:1047F000AB4200D21D46635D5B00E31830BC184736
:1048000002E008C8121F08C1002AFAD17047704799
:10481000002001E001C1121F002AFBD170470000F7
:10482000F0B51FB484B007980699020D014314D067
:104830004A484B491018484305140F9801280E9810
:104840001CD0281A401C0024464E47490094019170
:104850000290002814DA474227E00F98012443A36E
:10486000012808D0002104980F9A84600360C26078
:10487000416009B0F0BD0E98C143F4E74042E2E761
:10488000074612E0F80707D0224633460199009800
:10489000FFF7CEFC019100902246334610461946A0
:1048A000FFF7C6FC04460E467F10002FEAD102989F
:1048B000019B0028009A0799069802DAFFF7B8FCD6
:1048C00001E0FFF71DFD04460E460022284BFFF7CE
:1048D0000FFF03D80020C043014607E00022254B0C
:1048E00020463146FFF7F2FBFFF7E2FE102409E015
:1048F000002C0ADB0A220023FFF7D6FD059B30328D
:104900001A55641E02460A43F2D11122641C059B0B
:10491000121B1C190F9B012B03D0012308430ED13E
:104920000AE0084304D011200E9000200F9084E785
:104930000E98151A6D1E0BE00E98824202DD0023C0
:104940006D1C03E0824201DA00236D1E002BEED0C5
:1049500004980F998260C16030C08AE701FCFFFFB4
:10496000104D0000000024400000F03F3000000027
:104970000000F0430000E03FFFB597B00646002579
:1049800018E2252877D100242746FD49049400E049
:104990000443761C32780120203A90400842F7D137
:1049A00030782A280ED00222307801463039092981
:1049B00016D804990A235943303940181443761CF9
:1049C0000490F1E7189802C804911890002904DABD
:1049D0000120400304434842049002200443761C13
:1049E00030782E2814D1042004437078761C2A28AD
:1049F00009D11898761C80C8189009E00A214F4305
:104A0000303FC719761C3078014630390929F5D96D
:104A100030786C2810D006DC4C281AD068280ED0CC
:104A20006A2817D104E0742813D07A2812D110E034
:104A30000120400504430CE00121090501E00321A8
:104A400009050C437178814203D101200005241827
:104A5000761C761C3078119066280BD013DC582811
:104A60007DD009DC00287BD04528F6D04628F4D03C
:104A700047281AD1A5E118E0632835D0642870D002
:104A8000652812D19DE170286CD008DC6728F1D030
:104A900069287BD06E280DD06F2806D1BAE0732824
:104AA0002ED0752871D0782859D01A9A1999904724
:104AB0006D1C7EE16002400F022809D003280DD052
:104AC0000428189801680DD00D60001D189070E141
:104AD0001898EA1701680D604A60F6E718980168AF
:104AE0000D80F2E70D70F0E718986A4601781172B0
:104AF000001D18900020507202A80090012005E0CF
:104B0000189802C8189000200091C04361070DD585
:104B1000002101E00199491C0191B94212DA814258
:104B2000F8DB009A515C0029F4D10BE0002101E090
:104B30000199491C01918142FADB019A0099895C33
:104B40000029F5D1019904981A9B471A2146384645
:104B5000199A00F097FA0199401945180BE04FE0B7
:104B60002CE113E04EE0009800990078491C009178
:104B70001A9A199990470198401E0190401CF2D151
:104B8000214638461A9B199A10E137E00A20002185
:104B9000009001916002410F022907D0189A01CAC2
:104BA0001892C2179446032908D00AE01898C01D2D
:104BB000C108C90005C91891944607E000B2C217A0
:104BC0009446042902D140B2C1178C4600226146A6
:104BD000944506DA0A460021404291418C462D2137
:104BE00002E0210504D52B216A461173012103E05F
:104BF000E10701D02021F7E7029155E00A200AE001
:104C0000102008E0102000900021042004430191AE
:104C1000082703E008200021019100906002410F65
:104C2000022907D0189A01CA189200229446032933
:104C300008D008E01898C01DC108C90005C918911E
:104C4000944603E080B2042900D1C0B20021029151
:104C5000210729D51199702906D0009A1021019BAE
:104C60004A401A4305D00EE040216A4611730121E3
:104C700008E06146014306D030216A46117311995C
:104C8000517302210291009A0821019B4A401A4364
:104C90000AD16146014301D1610705D530216A4639
:104CA000117301217F1E02911199582904D035A159
:104CB0000E910DA90D910DE037A1F9E76146019B19
:104CC000009AFFF7F1FB0E9B8C469B5C0D9A521EDF
:104CD0000D92137061460143F0D10D9805A9081A91
:104CE00020300190600703D501200004844300E0D8
:104CF00001270198874201DD381A00E00020019960
:104D000000904118029809180498401A0490E00392
:104D100006D421461A9B199A049800F0B3F9451954
:104D2000002706E003A81A9AC05D199990476D1CE8
:104D30007F1C02988742F5DBE0030CD521461A9BC5
:104D4000199A049800F09EF9451904E01A9A302047
:104D5000199990476D1C0099481E00900029F5DCB8
:104D600008E00D980D990078491C0D911A9A19992F
:104D700090476D1C0199481E01900029F1DC63E108
:104D80000928010030313233343536373839616221
:104D900063646566000000003031323334353637E5
:104DA00038394142434445460000000000F05AF9BA
:104DB0004519761C3078002800D0E2E528461BB063
:104DC000F0BD600700D406271898C01DC108C900AF
:104DD00048680A680831C30FDB071891190001D031
:104DE0009CA108E0210501D59BA104E0E10701D0C9
:104DF0009AA100E09AA1430011985B0810916528E0
:104E00000CD006DC452809D046281DD0472841D1C2
:104E100041E0662818D067283CD13CE00021112FE2
:104E200001DB112000E0781C0191009008A911A875
:104E3000FFF7F6FC139905910021119A15927F1C3A
:104E400012980197009150E00120C00703900120C3
:104E5000019008A9009711A8FFF7E2FC139A149992
:104E600005920022119B009212981593059A0192C7
:104E7000002901D0104602E0791C40180190381A30
:104E800001D5019804E04042401E0090781C01903A
:104E9000C01B029043E0012F00DA01270021112FEF
:104EA00001DD112000E038460191009008A911A809
:104EB000FFF7B6FC13990591119A002112981592EB
:104EC0000091019721070CD40599B94201DB0199A2
:104ED00000E00191012904DD159A491E515C302939
:104EE00006D0B84201DA011D05DA0121029115E070
:104EF0000199491EEDE7002805DC00994118009151
:104F00000199091A03E0019A411C914200DD0191C7
:104F10000099401A401C02900120C007039020070E
:104F200006D402990198814202DB0020C04302901E
:104F300000206946C87707AF012103980337C907E6
:104F4000884224D0022011902B2012900398002830
:104F50000CDA404203902D20129007E00A210398BA
:104F6000FEF7F0FF30317F1E039039701199481E13
:104F700011900029F2DC03980028EFD1791E1298D5
:104F800008703078202108404530BF1E387006A8D0
:104F9000C01BC01D039010980078002800D001208D
:104FA000019941180298C017091803980918049824
:104FB000401A401E0490E00306D421461A9B199A19
:104FC000049800F05FF8451910980078002803D085
:104FD0001A9A199990476D1CE00324D521461A9B13
:104FE000199A049800F04EF845191CE00098002822
:104FF00007DB00990598884203DD1598405C1999F4
:1050000001E0199930201A9A904700986D1C401CB5
:1050100000900298401E0290002804D11A9A2E2077
:10502000199990476D1C0199481E01900029DDDCFB
:1050300005E038781A9A7F1C199990476D1C0399DE
:10504000481E03900029F4DC21461A9B199A049803
:10505000ACE600002D0000002B0000002000000046
:1050600000000000F8B5044600251E4617468804D7
:1050700004D405E039462020B0476D1C641EF9D5E4
:105080002846F8BDFFB50446002581B01E46C8037A
:1050900001D5302700E02027880404D505E03846F4
:1050A0000399B0476D1C641EF9D5284605B0F0BDC4
:1050B0000A68531C0B60107070470020202020FFEE
:1050C000000000FF4020100800002060201010FFAA
:1050D0000000003F404040407800B1B100040404AB
:1050E000E424242526242424E4040404000040208D
:1050F0001B0242827E0202020B10600000BEA90069
:105100000000FC242424E4041F6484453684000049
:1051100044437848497A494C4A7948497A4740009B
:10512000CAA2001060028C00FE02F2525A5652527D
:10513000F2020004047E41300F201349817F0109EF
:10514000132000D4B400404042CC00101010907FD7
:105150009010101010000040201F20484442414091
:105160004041424C4000B4EF002424A4FEA322009E
:1051700022CC0000FF00000000080601FF0001042F
:1051800004040404FF02020200BFC600101010FF56
:10519000109008888888FF88888808000444827FE7
:1051A00001808040432C102846818000BCBC000454
:1051B000040484E43C2724242424E4040404000498
:1051C000020100FF0909090949897F00000000D395
:1051D000D00000FE225A8600FE9292929292FE0029
:1051E000000000FF04080700FF4020030C142241C8
:1051F0004000CFDE00008040201806800007182005
:105200004080000000010020702826212020243842
:105210006000010100B9AB000010129292929292CC
:1052200092121202FE0000000000003F1010101049
:105230003F0040807F000000CBBE00000000000067
:10524000000000002F000000000700070000147F8E
:10525000147F1400242A7F2A12006264081323009A
:10526000364955225000000503000000001C224171
:1052700000000041221C000014083E081400080829
:105280003E0808000000A0600000080808080800A8
:105290000060600000002010080402003E514945F3
:1052A0003E0000427F4000004261514946002141DA
:1052B000454B31001814127F100027454545390031
:1052C0003C4A494930000171090503003649494902
:1052D0003600064949291E000036360000000056F7
:1052E00036000000081422410000141414141400A5
:1052F00000412214080002015109060032495951A7
:105300003E007C1211127C007F49494936003E4123
:10531000414122007F4141221C007F49494941000F
:105320007F09090901003E4149497A007F080808C0
:105330007F0000417F4100002040413F01007F0885
:10534000142241007F40404040007F020C027F0059
:105350007F0408107F003E4141413E007F0909095A
:1053600006003E4151215E007F0919294600464949
:105370004949310001017F0101003F4040403F00A9
:105380001F2040201F003F4038403F006314081496
:105390006300070870080700615149454300007F1A
:1053A00041410000552A552A55000041417F000027
:1053B0000402010204004040404040000001020499
:1053C00000002054545478007F4844443800384446
:1053D00044442000384444487F0038545454180052
:1053E000087E0901020018A4A4A47C007F0804041C
:1053F000780000447D4000004080847D00007F10E4
:105400002844000000417F4000007C04180478001C
:105410007C0804047800384444443800FC242424E4
:10542000180018242418FC007C08040408004854C0
:1054300054542000043F444020003C4040207C0065
:105440001C2040201C003C4030403C0044281028D8
:1054500044001CA0A0A07C004464544C44141414C8
:105460001414140000000000000000000000000000
:10547000000000000000F8000000000000003330D1
:1054800000000000100C06100C06000000000000D8
:1054900000000040C07840C0784000043F04043F52
:1054A000040400007088FC08300000001820FF2170
:1054B0001E0000F008F000E018000000211C031E90
:1054C000211E0000F00888700000001E212324190E
:1054D00027211010160E0000000000000000000040
:1054E000000000000000E01804020000000007189F
:1054F00020400000020418E00000000040201807CF
:10550000000000404080F0804040000202010F0196
:10551000020200000000F0000000000101011F0174
:10552000010100000000000000000080B0700000D9
:105530000000000000000000000000000101010167
:1055400001010100000000000000000030300000F8
:1055500000000000000000806018040060180601D0
:1055600000000000E010080810E000000F102020EC
:10557000100F00001010F8000000000020203F2055
:1055800020000000700808088870000030282422DD
:105590002130000030088888483000001820202082
:1055A000110E000000C02010F800000007042424A1
:1055B0003F240000F80888880808000019212020EE
:1055C000110E0000E0108888180000000F11202044
:1055D000110E0000380808C83808000000003F001D
:1055E0000000000070880808887000001C2221213B
:1055F000221C0000E010080810E000000031222208
:10560000110F00000000C0C000000000000030309A
:10561000000000000000800000000000008060002A
:105620000000000000804020100800000102040873
:105630001020004040404040404000040404040466
:10564000040400000810204080000000201008041E
:10565000020100007048080808F000000000303621
:10566000010000C030C828E810E0000718272423F4
:10567000140B000000C038E0000000203C230202B0
:1056800027382008F8888888700000203F202020D4
:10569000110E00C030080808083800071820202024
:1056A00010080008F808080810E000203F2020201B
:1056B000100F0008F88888E8081000203F202023F9
:1056C00020180008F88888E8081000203F20000310
:1056D000000000C030080808380000071820202209
:1056E0001E020008F808000008F808203F21010108
:1056F000213F20000808F8080800000020203F2073
:1057000020000000000808F8080800C08080807FA2
:1057100000000008F888C028180800203F20012653
:1057200038200008F8080000000000203F2020205A
:1057300020300008F8F800F8F80800203F003F008B
:105740003F200008F830C00008F808203F2000077C
:10575000183F00E01008080810E0000F102020207B
:10576000100F0008F808080808F000203F21010188
:10577000010000E01008080810E0000F1824243889
:10578000504F0008F8888888887000203F20000368
:105790000C302000708808080838000038202121CB
:1057A000221C00180808F8080818000000203F20F4
:1057B00000000008F808000008F808001F2020205A
:1057C000201F000878880000C83808000007380E3D
:1057D000010000F80800F80008F800033C07000783
:1057E0003C0300081868808068180820302C0303E8
:1057F0002C30200838C800C83808000000203F209E
:1058000000000010080808C83808002038262120A9
:10581000201800000000FE020202000000007F408D
:10582000404000000C30C0000000000000000106F5
:1058300038C00000020202FE000000004040407F2D
:10584000000000000004020202040000000000004A
:1058500000000000000000000000008080808080C8
:1058600080808000020204000000000000000000B0
:1058700000000000008080808000000019242222A7
:10588000223F2008F8008080000000003F11202007
:10589000110E000000008080800000000E1120200A
:1058A000201100000000808088F800000E112020E8
:1058B000103F200000808080800000001F222222F4
:1058C000221300008080F0888888180020203F2064
:1058D0002000000000808080808000006B94949401
:1058E00093600008F8008080800000203F210000C5
:1058F000203F2000809898000000000020203F20DA
:10590000200000000000809898000000C080808087
:105910007F000008F8000080808000203F24022DD6
:10592000302000000808F8000000000020203F2080
:105930002000008080808080808000203F20003F09
:1059400020003F8080008080800000203F210000F8
:10595000203F200000808080800000001F20202049
:10596000201F00808000808000000080FFA1202098
:10597000110E000000008080808000000E112020A9
:10598000A0FF80808080008080800020203F212038
:1059900000010000008080808080000033242424E7
:1059A000241900008080E0808000000000001F209B
:1059B0002000008080000000808000001F20202048
:1059C000103F20808080000080808000010E300821
:1059D00006010080800080008080800F300C030C66
:1059E000300F0000808000808080000020312E0E6B
:1059F000312000808080000080808080818E70183F
:105A000006010000808080808080000021302C22F0
:105A100021300000000000807C0202000000000035
:105A20003F404000000000FF00000000000000FFB9
:105A30000000000002027C800000000040403F00A7
:105A40000000000006010102020404000000000042
:105A50000000003031323334353637383941424373
:105A600044454600845A0010003000203C010000EC
:105A70003C470010285B00103C3100206C4E0000B9
:105A800010480010C1170201050303018309FF0834
:105A90000B1209095359445F554152541401111313
:105AA000503082201360101B5024041A14041A185A
:105AB0000422105240581801020304050607080981
:105AC0000A1112131415161718191A1B1E1F18186D
:105AD00008090A0708111512162C1319141812D0E8
