:020000041000EA
:10000000A83E0020A1100010A91000101907001030
:1000100000000000000000000000000000000000E0
:10002000000000000000000000000000AD10001003
:100030000000000000000000AF100010B110001020
:1000400000000000B31000108F440010B310001027
:10005000B3100010B3100010C70F0010F10F001004
:10006000313D0010E13D0010D53E0010B3100010EE
:10007000450E0010B3100010B3100010B3100010A4
:10008000B3100010B3100010B3100010B310001024
:10009000B3100010B3100010B3100010B310001014
:1000A0000000000000000000000000000000000050
:1000B0000000000000000000000000000000000040
:1000C0000348854604F0A2FD004800472D060010B5
:1000D000A83E00208307FF22DB0E9A408907090E05
:1000E0009940002808DB8308FC489B001818036827
:1000F00093430B43036070470007000F08388308E1
:10010000F7489B001818C36993430B43C3617047BA
:10011000F8B50025F34800950068FF2120302F46F0
:100120002E462C46017041709F228270CF22C270F1
:1001300001712846012209282CD006DC062829D086
:10014000072827D0082806D124E00F2807D0102838
:1001500005D0152823D0114681400D430C43401C87
:10016000C0B22028E7D3384600F06CFD39460020A5
:1001700000F035FD3846B04300F0D2FD304600F0C7
:10018000E7FD2846009900F075FD2146002000F0AB
:10019000F3FCF8BD114681400F430E43DFE71146E3
:1001A0008140009B0D430C4319430091D7E770B584
:1001B00086B0002069460872072048741920800123
:1001C00048821E20888202A802F067F8684602F082
:1001D00052F86946C4484E78C6728D780573CC785B
:1001E00044730B7983734A79C273897901741B3024
:1001F000067145718471C371027241720246142303
:100200001B211B3802F04FF8B8490120087506B0D1
:1002100070BD1CB5002802D001280FD106E01020C7
:1002200069464880C820C880002006E05020694602
:1002300048804B20C000C8800A208880C0206946C2
:10024000087004204870684602F0C6FD1CBDA6492F
:1002500010B50C398878401CC0B28870032808D3C8
:10026000002048700120FFF7D4FFFF20013003F089
:100270001EFC10BD3EB59C4C0C3CE278D2070ED063
:1002800001246A461480032555801F25958014811A
:1002900003460A466946204602F03CFA3EBD00206D
:1002A0003EBD914A10B50C3A9088401C81B29048EE
:1002B000918009C8984205D1032903D900205070C4
:1002C00003F076FD10BDF0B5894E85B035687468D1
:1002D000A54231D0844F0C3F7878002807D1012007
:1002E00078700020B8808349A32003F031FD0123FA
:1002F0009B02A54201D32D1B01E0281BC518142D1C
:100300001CD31F46784900200C3988807A4B6946F7
:100310001A5D641C0A54BC4200D30024401CC0B2C5
:100320001428F5D314216846FFF7A4FF002803D052
:10033000143D7460142DE5D205B0F0BD002DFBD046
:10034000B8880328F8D30020694608E06A4A125D9D
:10035000641C0A549C4200D30024401CC0B2A84232
:10036000F4D3E9B26846FFF785FF002800D0746037
:100370000020B880E0E7F0B504468DB0401C04F0E2
:1003800016F901267602B04213D1802000F0F8FC65
:1003900021460E221531684604F0D8F81E22611D50
:1003A00004A804F0D3F804AD0FCD00F0B6F90DB0F9
:1003B000F0BDFF2101310025884225D1402000F009
:1003C000DFFC0822611D03A804F0C0F86846C0895C
:1003D00015214902884206D148A003C80191009026
:1003E000082069460DE047498842E0D1684605701B
:1003F0000195694601A8029500F097FB684601A99E
:10040000007802F078F9D2E7374B01270C3B02283D
:100410001CD0374A0428516820D07D03641CA842B0
:1004200032D160792579000228430128BFD1607A52
:10043000257A040218462C43C078012C1CD0B843FE
:10044000D870FF20013000F083FCB0E71F70FF2060
:100450009D70013003F08CFB304612E0DD701D70A2
:100460003046116003F023FBFFF7A1FE02F038F8DD
:10047000304600F06DFCE4E73843D870FF200130CF
:10048000116000F04DFC92E70121C90388428ED033
:100490004900884203D1684602F0F7F887E701284F
:1004A00085D102F01DF882E770B5174C217800293C
:1004B00012D00026154D01292AD001204002022920
:1004C0002CD0032908D1267003F0F1FA7D20C0005A
:1004D00000F0EAF902F0D1FA70BD000000E400E09B
:1004E00000ED00E0583000200C30002000000240F9
:1004F00034350020A3020010343100205359445FEA
:100500005541525401FF00003C3000203D30002096
:1005100000F0E6F9022020702E70DDE72978491CF2
:10052000C9B229702029D7D903F0C1FAD4E710B590
:10053000BA481821006841180A7810464A78120211
:1005400010438A78C97812041043090608438002D0
:100550000DD502F0E6FC002804D1012001F086F957
:1005600000F02AFDAE488022C1781143C17010BD51
:1005700010B502210120FFF7ADFD02210846FFF76B
:10058000A9FD02210320FFF7A5FD02210420FFF7AA
:10059000A1FD02210520FFF79DFD00210620FFF7A8
:1005A00099FD02210720FFF795FD02210820FFF7A2
:1005B00091FD02210920FFF78DFD02210A20FFF79E
:1005C00089FD02210B20FFF785FD02210C20FFF79A
:1005D00081FD02210D20FFF77DFD02210E20FFF796
:1005E00079FD00210F20FFF775FD02211020FFF794
:1005F00071FD02211120FFF76DFD02211220FFF78E
:1006000069FD02211320FFF765FD02211420FFF789
:1006100061FD02211520FFF75DFD02211620FFF785
:1006200059FD02211720FFF755FD10BD72B600F0ED
:10063000BAF8FFF79DFF002002F085F901F0F1F80C
:10064000002001F0AAF9FF20F53002F072FC01F061
:10065000B4F97449022003F02CFB00F0F3FC72495A
:10066000012003F000FF00F00BFDFFF751FD00F04B
:1006700029FC01206D49400500F0ABFB6C490020CE
:100680000860486001F02CFF62B66A4F6A4D6B4EFD
:10069000634C02F047FB0120400500F089FB002875
:1006A0000AD1E0784006400EE07002F03AFC0128E2
:1006B00002D1002001F0DAF800F05BF83878012868
:1006C00001D1FFF7F1FE2868002810D0800505D57C
:1006D000FFF7EAFE0120400203F045FA2888C00532
:1006E00005D5FFF7B4FDFF20013003F03CFA306878
:1006F000002806D0400704D501F05FF9042003F07C
:1007000029FDE078C00701D0FFF7DDFDE0780006A5
:10071000BFD402F082F9BCE7FEE70FB4F8B5694632
:100720004A8B897F06A8022A09D0454B9A4202D1FA
:10073000C01D00F0ECF8F8BC08BC04B018473C4BF6
:1007400017241A6862433F4CA154012207E0851820
:10075000AE791D6817277D432D19AE54521C914266
:10076000F5D21868401C18603228E4D300201860C5
:10077000E1E7F8B52E4C25686068A84212D0314EEA
:1007800000276068A8420DD017214843315C8019CA
:10079000401C00F078F86068401C60603228F0D39C
:1007A0006760EEE7F8BD10B588B001F0ADFC012040
:1007B00001F071FF1A48083001F098FF03216A46E2
:1007C000117300245473907BFB228843401C10401B
:1007D0006A4690731020D0731474517403A801F00A
:1007E00048FFC02005901848069005A801F063FF57
:1007F000002002F053F9FFF7DAFC6A461470D47057
:100800000120107150709070D11D400503F0D9FE89
:10081000684602F0A8F808B010BD0000683000205B
:1008200000300020EC3900201C3A00202F05001079
:10083000BC3900203C300020FC3000201431002066
:1008400001FF00003C35002077030010FEB501A930
:10085000684600F097FB002001266A46104901AC6B
:10086000104DB60213780BE00F68225CEA550A6857
:10087000521C0A60B24201D300220A60401CC0B27E
:100880009842F1D3FEBD70B50D460646002404E043
:10089000305D00F06CFB641CE4B2AC42F8D370BD78
:1008A00034350020343100200022064B06E00021C0
:1008B000491C89B29942FBD3521C92B28242F6D3B0
:1008C000704700008C0A000010B5A84B0E241B696D
:1008D0001C70541C5C709870D81C03F037FE10BD5F
:1008E00008B502F05AF90020694608700122162066
:1008F000FFF7EAFF08BD00229C49002801D00A70DA
:100900004A704A80CA808A800A81CA607047F8B5F6
:10091000964C0E4661880025002905D02278002AD1
:1009200002D065700021B2E001780126152967D058
:1009300008DC112923D0122928D0132949D01429E1
:1009400023D184E001277F02162910D0202974D0FA
:1009500023297CD0242918D1871C384603F027FE90
:1009600079793A790902114302F09EF960E000209A
:10097000FFF74FFC384603F0FBF8267004E0002038
:10098000FFF747FC04207AE0E560F8BDC178827883
:100990000902114301221203801C914217D8837867
:1009A000CB18934201D9511A8170417806780B0215
:1009B0006F4933435B188278C11C184603F0C6FDAB
:1009C00068460570012269461720FFF77DFF052064
:1009D00012E0871CC01C03F0EAFD01463A78644827
:1009E00002F0AFFA0028684608D0057001460122DF
:1009F0001820FFF769FF06202070F8BD0670F5E7A4
:100A0000871C5C480179002906D02038006A594AC1
:100A10004001203A02F034F9384603F0C8FD7979F4
:100A20003A790B02134302460021084602F037F9D7
:100A30000028684603D0057002E019E007E0067060
:100A4000014601221820FFF73FFF0320D4E7C179B8
:100A50008279090211436180417A027A09021143C5
:100A6000E180801C03F0A3FDE060A5802581F8BD36
:100A70000020FFF7CEFB384603F07AF807202070FD
:100A800082E7435C25895B19491C238189B2B14205
:100A9000F7D381071DD0014636483246203803F08F
:100AA00055FD2078022806D0012804D0082809D056
:100AB000072807D025E0A188E0682E4A4018203A90
:100AC000314616E0A188E0682A4A4018203A3146AB
:100AD00015E0264BD9689B88CB18022A06D0012A3C
:100AE00004D0082A08D0072A06D00AE00246314678
:100AF000184602F0C5F804E002463146184602F0F6
:100B000030F8A088801981B2A18060888142AED37C
:100B10002289E088824201D1002000E0012000F01B
:100B200016F80020FFF7E7FEF8BD70B50F4C0D4634
:100B300021694A7821461431921C03F007FD20698F
:100B40004078801C287000206061A06170BD1CB5D9
:100B50006B465970090A9970DA70110A1971187088
:100B6000052269461420FFF7AFFE1CBD3C30002073
:100B70004A070020E4390020F0B5CF4C221D9446EE
:100B8000002829D0012826D1CC4B002B23D00020CF
:100B900001228240114207D01F5C01252668BD401A
:100BA0002E432660914302D0401C1828F0D3182011
:100BB00001252A4682402B46114209D0644606464A
:100BC0002478183EB3401C4363461C70914302D006
:100BD000401C2028EDD3F0BDB84B183BD5E7F0B54D
:100BE000B54C221D9446002829D0012826D1B34BAC
:100BF000002B23D0002001228240114207D01F5C2D
:100C000001252668BD40AE432660914302D0401CBA
:100C10001828F0D3182001252A4682402B4611427D
:100C200009D0644626780446183CA3409E43634698
:100C30001E70914302D0401C2028EDD3F0BD9F4B85
:100C4000183BD5E79D4910B530394A6814782146DC
:100C50005478240221439478D378240421431B063A
:100C6000194381431170080A5070080C9070080EE7
:100C7000D07010BD70B5914E303E73681D782A4615
:100C80005D782D022A439D78DC782D042A432406C2
:100C9000224302431A70140A5C70140C9C70120EEA
:100CA000DA70F3681D782A465D782D022A439D7814
:100CB000DC782D042A432406224302431A70140AC6
:100CC0005C70140C9C70120EDA7008229C18257847
:100CD0002A4665782D022A43A578E4782D042A4314
:100CE0002406224382431A72100A5872100C98721A
:100CF000100ED87208201A1814782046547824024E
:100D000020439478D27824042043120610430843E9
:100D10001872010A5972010C9972000ED87270BDD6
:100D2000664910B530398A6814782146547824020F
:100D300021439478D378240421431B0619430143AB
:100D40001170080A5070080C9070080ED07010BD19
:100D50005A4910B530398A681478214654782402EB
:100D600021439478D378240421431B0619438143FB
:100D70001170080A5070080C9070080ED07010BDE9
:100D80004E4910B530398A681478214654782402C7
:100D900021439478D378240421431B06194341400E
:100DA0001170080A5070080C9070080ED07010BDB9
:100DB00042493039C9680A1D1378194653781B0215
:100DC00019439378D2781B04194312061143084043
:100DD000704770B5394C1822303C23699D182E7825
:100DE00032466E7836023243AE78ED7836043243BE
:100DF0002D062A4302401A70150A5D70150C9D706D
:100E0000120EDA7010229D182E7832466E78360255
:100E10003243AE78ED78360432432D062A438243BE
:100E20001A74100A5874100C9874100ED874203369
:100E300018784008400018706161012020490003C3
:100E4000086070BD10B51D4C1820303C236919187E
:100E50000A7810464A78120210438A78C978120438
:100E600010430906084310215A181378194653787D
:100E70001B0219439378D2781B04194312061143BD
:100E8000884318D06069002800D080472169182065
:100E90000A181378184653781B0218439378D278AF
:100EA0001B041843120610430870020A4A70020C11
:100EB0008A70000EC87010BD80100050883000206D
:100EC00000E100E0F8B555480068C17B8909890157
:100ED000C91CC173017C89098901091D0174203075
:100EE0008178DF22114081708378BF210B408370AD
:100EF0004B4C206883785B085B00837003781B0988
:100F00001B010833037003785B065B0E03700378E4
:100F10000B400370C37810252B43C37083780425DE
:100F20002B438370857820231D4385708678EF25B9
:100F30002E408670867880273E43867086780E40E5
:100F40008670017829400170017811400170817824
:100F5000022211438170C1781943C170062000F04C
:100F600054F820688178082211438170F8BD2C491B
:100F70000968487008788006FCD50878DF221040A0
:100F80000870704738B500226C462270244B1B68ED
:100F90000DE01C798C546D46521C2C78D2B2641C26
:100FA0002C702C78641C2C702C78641C2C70DC78D1
:100FB000E407EED0027038BD19480068C1782022DD
:100FC0001143C170704710B5154C20680178C906EF
:100FD00005D50178EF2211400170FFF737FC20683A
:100FE0008178890703D5817802221143817010BD71
:100FF00010B50B4840680178C90605D50178EF2285
:1010000011400170FFF722FC10BD002805DBC1066E
:10101000C90E0120884003490860704758300020FD
:10102000A030002000E100E00F48FF2201680132FB
:101030001143016070470C480122016852021143BC
:101040000160704710B57D242401FF200023074A6A
:101050002146013002F052FC01200023044A2146BF
:10106000400202F04BFC10BDFC30002029100010A3
:1010700037100010084804220168114301607047CE
:1010800010B50023054AB921042002F0F8FF04201E
:1010900003F09DF810BD0000143100207510001001
:1010A0000448804704480047FEE7FEE7FEE7FEE706
:1010B000FEE7FEE7BD100010C10000100249014824
:1010C000086070470024F400AC300020F1B5F64809
:1010D00080470746F54880470646F34C0120183CF8
:1010E000A047F24D00200C35A847F14900988847E9
:1010F0003046A8473846A047F8BDF0B5ED4DEE485C
:10110000E96885B00818044603F051FA2146401CEE
:1011100003F057FA0024E7480125C668E6480C3872
:1011200031180391487C097C00020843A5402842FD
:1011300002903BD00B2060438119DF4800910930B9
:101140000818019003F033FA0746DB48301803F023
:101150002EFA87422AD10F21009889014018007D7C
:1011600000280CD0D44A00990D3A8A18517D127D7E
:10117000090211437818019903F023FA05E0029857
:101180000399A8430874000A4874CB4800990D30AD
:10119000081803F00CFA002808D0022D19D0042DED
:1011A00017D0082D15D0102D1AD08047641CE4B23A
:1011B0000A2CB0D3BF48C168BF480C380918487C16
:1011C000097C00020843800501D1BC48804705B076
:1011D000F0BDBB49012088470028E7D0222005E068
:1011E000B749012088470028E0D03B20FFF76EFF79
:1011F000DCE710B5AF4912200969887072B6012189
:10120000AE4A0320B43A904762B610BD10B50C4602
:1012100001788CB00A07120F69460A700178CA0972
:1012200069464A70811C00A80622023003F08EF93C
:1012300008A90C72012129220905A24C6B46002045
:10124000A0470CB010BDFEB50020694608710870BB
:101250009D4F08729D4E974CB847E07102AB6A46AD
:1012600001A9606902F04EFA00284ED00820B0476C
:10127000002803D00220B04700280FD0684600782D
:10128000012811D0E0686569407A01283ED0022823
:10129000E2D18F4AE17928469047DDE7012168468F
:1012A0000170007A00282DD02521E06849014118FD
:1012B000497B6569002908D07F49D4314018417BBA
:1012C000027B0802834910438847284602F070FADF
:1012D0000028C1D068467E4A0179963260699047FD
:1012E0002878C0438007B7D1A8781228B4D12169E3
:1012F0001320887072B60121704A0320B43A9047D7
:1013000062B6A9E73D20FFF7E1FEFEBD28780007A1
:10131000000F052806D003289ED1E1792846FFF763
:1013200075FF99E7687E297E00020843062805D3E9
:10133000687F297F000208430A2803D25C491220F3
:10134000884789E76049EE31A81C884728788722BA
:101350004006C10FE06811540622A91C883003F032
:10136000F5F83721206903F00AF975E7F0B554491B
:1013700099B00420884700280ED0514904201A3122
:1013800088474E491F20AC31884753488047162074
:10139000FFF79CFE19B0F0BD50488047002810D0E0
:1013A000444DEC68A1790807F4D5E079C2071CD058
:1013B0004B49204698308847E868C1794908490078
:1013C0001FE0464E444F444DB2361C376C46103534
:1013D00007E06846B0470128DCD168460178601C08
:1013E000B847A8470028F4D0D4E782070BD53C4A79
:1013F00020461C328E30811C9047E868FD22C1795E
:1014000023E0C171C6E7420708D53549204660315F
:10141000A8308847E868FB22C17916E00207F72662
:10142000002A09DA2E4A21464232A07A0B3190472F
:10143000E868C1793140E4E7C00608D52849684624
:101440007C318847E868EF22C1791140D9E720460E
:101450003140FF30A1712130017D0026002910D0DC
:1014600006752146072287310CA803F06FF8214644
:101470000DA82A228E31033003F068F819490CA810
:10148000884701206946087048708E70E96800A896
:101490002A2203308E3103F059F82D220821094CFD
:1014A0006B460020A04775E7BF650000776A000023
:1014B000CF160000B0300020CE0300000112000063
:1014C000F50A0000A13E000049570000791900000C
:1014D0008B1E00002B620000BD600000054E000066
:1014E00027260000DF470000FE490128896A0FD047
:1014F000022811D0042812D0082813D0102814D0A4
:10150000202815D0402816D0802818D001207047F8
:101510008878C007C00F7047887880070DE088780A
:1015200040070AE08878000707E08878C00604E0F2
:101530008878800601E088784006C00F7047887878
:10154000C009704710B5017801291FD1401C03F074
:101550002EF8E44A10283AD00DDC012817D00228D2
:101560001DD0042823D0082810D1FFF7BDFF002884
:101570000CD1DD4809E0202839D0402806D1FFF7FA
:10158000B3FF002802D1D8485430804710BD012055
:10159000FFF7AAFF0028F9D1FFF7E8FE10BD0220EF
:1015A000FFF7A2FF0028F9D1FFF74DFE10BD042080
:1015B000FFF79AFF0028F9D1D068407A012803D0BC
:1015C0000228F3D1C948E0E7C848AE38DDE710206B
:1015D000FFF78AFF0028E9D1906A2030407D40075C
:1015E00001D53E2000E00820FFF770FD10BD20204F
:1015F000FFF77AFF0028F9D1BB484830C5E770B53E
:1016000010250826B74C002821D0A06A817E3143DE
:101610008176014660310A7E637852095201DB0609
:10162000DB0E1A430A762030427B067B1302E26807
:1016300033432332547C167C22023243934214D02B
:101640000273120A4273C87D2843C8750DE002F088
:1016500046F8A06A0022014620310A734A736030BE
:10166000C17D2943C175A2480677012070BD9D4800
:10167000C0682330417C027C080210430BD09D4996
:1016800048780A7800021043032210430870000AC9
:1016900048700120B3E7704730B4974CA44630BC83
:1016A0006047F8B59348407A000663D58D48C66810
:1016B00030462330417C007C0F028E490743487836
:1016C000097804020C43002F01D1600752D5894DDF
:1016D000A87B697B00026D1C08434BD0002F49D0CA
:1016E00068792979000208432ED12136707C317C3B
:1016F0000002084303F076F90022804B03F076F8ED
:1017000003F07EF980B27843642102F00BFF4004BD
:10171000010C2971080A68710A204143707D327DED
:1017200000021043814206D30A21401E02F0FAFE55
:101730002871000A6871687929790002084303D189
:1017400001202871002068716A48A10709D502218B
:101750008C4301210C430470210A41700020FFF7E3
:101760004EFF68792A7901021143654B002240201F
:10177000FFF792FFF8BD1CB55E494A7A002A40D0B7
:101780004A780B7812021A43D3063AD44378047885
:1017900018022043012834D1C878401E0006000EEC
:1017A000C8702FD08B780846017BC47A0A02224386
:1017B000017AC47909022143C01C012B2AD0521A94
:1017C0000272120A42721206037A120C1A43521A59
:1017D00069460A80427A017A120612140A4369465F
:1017E0004A8044498A7B497B12020A4369468A80BF
:1017F000417B027B080210436946C8804149684624
:1018000088471CBD887AC870402002430A70100ABD
:1018100048701CBD5218D3E73B4A10473A4A203261
:10182000104738B5002469460C7021467F20FFF729
:10183000F5FF00213B20FFF7F1FF29213B20FFF7B7
:10184000EDFF69463B20FFF7E7FF68460078800719
:1018500001D5012038BD641CA4B2FF2CF1D90020B1
:1018600038BD10B529488047012010BD10B51D496D
:10187000274A8870002807D1C8688078022803D0DA
:1018800000209047012010BD0120FAE710B5154C4B
:101890000128E168887004D000284ED0022863D067
:1018A00076E0206B014620310A78520852000A7017
:1018B0000A78FD231A400A700178890989011C31D0
:1018C00001704178890989011C31417000217F2014
:1018D000FFF7A4FF03212120FFF7A0FF1F21032012
:1018E00018E00000B0300020791600002715000035
:1018F000200002408B3A0020AB4400000000F43F7F
:101900006F16001033420000C56100000747000059
:10191000A7650000FFF782FFFC49322088470221BB
:101920007F20FFF77BFF01210020FFF777FF0021D9
:101930007F20FFF773FF0F2127E000217F20FFF7B3
:101940006DFF00210420FFF769FF02217F20FFF7D0
:1019500065FF00210846FFF761FF00217F20FFF7A8
:101960005DFF0021032011E002217F20FFF756FFD9
:1019700003210020FFF752FF00217F20FFF74EFFD9
:1019800000210320FFF74AFF00210420FFF746FF54
:10199000A078FFF76BFF012010BD10B5FFF776FFB1
:1019A000012010BD10B5DA488047DA48C06A017AD4
:1019B000DF2211400172012010BDFEB5D54C01207F
:1019C0002071D54880470190E06A817A007ACF077C
:1019D000FF0F0026C506D149ED0E487809780002B0
:1019E0000843800608D5A06A2030417B027B0802AC
:1019F000104301D0FFF755FEA80702D00126FFF7DC
:101A0000D1FFC448C06A817A490849008172C2493D
:101A10000120183988470220FFF738FFBB496420AE
:101A20001A398847002469460C70254601217F2019
:101A3000FFF7F4FE00210A20FFF7F0FE22210A2022
:101A4000FFF7ECFE69460A20FFF7E6FE68460078DD
:101A50004007EFD469460A20FFF7DEFE68460078AB
:101A6000400705D568460078000706D4012504E044
:101A7000641CAB48A4B28442ECD3A44964201A3954
:101A800088470020FFF702FFA349019818398847CB
:101A9000A04CE06A817A4908490039438172002EDE
:101AA00002D09B480C38804700202071002D01D0C7
:101AB0000120FEBD0020FEBD10B51121974802F0A7
:101AC0005EFD10BD70B50446401C02F070FD02289A
:101AD00018D0042819D00121490488424AD125464A
:101AE0002035687B092301070209090F0020072A16
:101AF0001FD0032A23D0022A28D0012A2CD0002A62
:101B000030D035E0FFF7D8FF3DE0824D0121E86895
:101B1000FF302130017501F096FEE86880780028DA
:101B200004D12879002801D1FFF747FFFFF779FE9C
:101B300029E0581A062148434121C94304E0581AB4
:101B4000062148433521C943081A10E0581A0621D6
:101B500048432321C943F7E7581A06214843172170
:101B6000C943F1E7581A06214843801D404240B25C
:101B7000687308E040281DD00121C903884202D1C2
:101B8000601DFFF7F8FD65494878097800020843B1
:101B9000800607D5601C02F00AFD0005000F01D089
:101BA000FFF77FFD5B483C3002F001FD0146204617
:101BB000884770BD5748383002F0F9FC4006E2D53E
:101BC00070BDF0B5534C0646E0688DB0FF30213053
:101BD000407C0D46002829D0002D26D072B6A06882
:101BE000183002F0E4FCE1683222FF312131897CB7
:101BF0004C4B514340186A463221984762B6002E3A
:101C000004D0E068FF302130807C3070E7680A2122
:101C1000FF372137B87C401C02F06EFCB974E078C5
:101C2000401CC0B2E0700A2802D900200DB0F0BDFF
:101C3000684600780128D1D100A907222846013141
:101C400002F084FC2A22E81D02A902F07FFC012098
:101C5000ECE7F0B5054634498DB0202088472D4C7F
:101C60000426E16820690F4686700822C01CC9312D
:101C7000BD3702F06BFC2069042239460B3002F0BC
:101C800065FC0D21294A03209047E0682946082277
:101C90000A31C13002F05AFCE068294604221231B0
:101CA000B93002F053FC287A214F002802D1687A1B
:101CB00000281FD00020E070E0682A7A01468030BA
:101CC000837B9A420AD16A7AC07B824206D108227B
:101CD0002846903102F05EFC00282DD06946002095
:101CE000FFF76FFF01283BD006220021114B012096
:101CF00098479BE7E068022281791143024681718F
:101D0000C132FF3011461030B84726E0456200006E
:101D100013470000B0300020BF6500008B3A002060
:101D2000FFFF000059530000050B00004D1100009B
:101D300019220000D9190000E06881790246314378
:101D40008171C13211469830B847E068803080799F
:101D5000012802D1FE4902208847FE48804765E7F6
:101D6000E06801A92A228E30033102F0EFFBA3E7DD
:101D70007CB5451C8078297800020843F64C02287F
:101D800010D00F2810D001211D2810D0FF381028A6
:101D90000DD0F24A69460120904768782978000200
:101DA000084302E0032000E00220A0717CBDA17185
:101DB0007CBDE94880797047E94908471CB5E94886
:101DC0000821017000214170017BC27A0902C01C08
:101DD000114341D04279037912021A43891A0BB296
:101DE0006A461380417A027A0906091411436A4649
:101DF000518019220624D201062B02DA6B461C8080
:101E000003E0934201DD6B461A80062902DA694637
:101E10004C8003E0914201DD69464A80417B027BB0
:101E2000080210436946C880CE48817B427B080285
:101E3000104369468880C848C0682330417C027CD2
:101E40000802104302D00020FFF7D9FBC6496846BC
:101E50008847C349402088471CBDC24948780A7852
:101E600000021043C2050CD5FF22013290430870D6
:101E7000000A48700879401E0006000E087109D05B
:101E80009CE7202210431022904304221043087044
:101E9000000A48707047FEB5B24D0446687829784C
:101EA0000002084300077DD5B048804769782A784A
:101EB000090211430822914329700A0A6A706B7A59
:101EC000064628461A066ED5A27967791202651C65
:101ED0003A43A14FE41C002A77D01022114301702D
:101EE0000A0A427088065ED468792979000208439C
:101EF00032D002F077FD01910090607821780002E5
:101F0000084302F06FFD9A4C0022234602F06EFC5B
:101F1000019B009A02F06AFC01910090F868213060
:101F2000417C027C0802104302F05CFD0022234643
:101F300002F05CFC07460C46687A297A00020843E6
:101F4000801B02F03BFD3A46234602F04FFC019B0A
:101F5000009A02F099FB24E060782178000208439F
:101F600002F024FD0446F8682130417C027C08021E
:101F7000104302F01BFD214602F02CFB02F05EFD37
:101F800000227B4B02F032FC07460C46687A297A25
:101F900000020843801B02F011FD3A46234602F07E
:101FA00025FC02E06EE064E00FE00022714B02F0DD
:101FB00085FC02F025FD0104090C00D101216E4BC6
:101FC00000228020FFF768FB53E09A0651D5827803
:101FD000012A4ED18A064CD4FF22624801321143B5
:101FE0000170090A417060782178000208435D4958
:101FF0000A7BCB7A1102194388423AD902F0D6FC07
:102000000446F8682130417C027C0802104302F04B
:10201000CDFC214602F0DEFA02F010FD0022544B06
:1020200002F0E4FB07460C46687A297A000208436E
:10203000801B02F0C3FC3A46234602F0D7FB002285
:102040004C4B02F03BFC02F0DBFC0104090C00D11C
:102050000121494B00228020FFF71EFB41484178B7
:10206000027809021143FF22013211430170090A6B
:102070004170032069460881022291033F4C02AB64
:102080000020A047FEBD10B50446007800280DD101
:10209000A17862780802104309D001281ED00328D5
:1020A00027D00C2802D1201DFFF762FE10BD01F0E1
:1020B00016FB3349201D8847002802D12820FFF74E
:1020C00005F8201DFFF7E7FE23480121C36806221B
:1020D00009040020294C3133A04710BD01F0FFFA5C
:1020E0002849201D88470028F7D12820FEF7EEFF59
:1020F00010BD201DFFF7ADFD10BD10B50078012803
:1021000001D1FEF7FAFF10BDF0B51F4885B080473A
:1021100001217F20FFF782FB69465020FFF77CFBFF
:1021200068460078042801D018488047FFF779FBFB
:10213000094CE0688078012866D002287ED0FFF73D
:102140003CFC01256846458005801148019021E04E
:10215000050B0000791A0000B03000201F1D0000A0
:10216000B34400008B3A002033420000BF5500000A
:102170000000F43F000059405B1E0010A13E00002B
:102180005D5B0000475F0000793D0000F7460000FE
:10219000FB200010FE496846884768460570457078
:1021A00000254580FB480190FB4BE068082269460A
:1021B000C01802F0CBF90121F84E4020B0470121B0
:1021C0008020B04701212020B047FF210C31684614
:1021D00001800B2141808580C580058145818581F5
:1021E000C581EF48EA4904906846A2398847A0684B
:1021F0000A3002F0DCF9EC4BEA4A5721984701F02B
:1022000022FB012005B0F0BDE84880470090E06A5D
:10221000067A817ACD07817AED0F490849008172EB
:10222000E24F0120183FB847B00701D0FFF7BAFBD3
:102230000220FFF72BFB6420DD4900E00CE088471B
:102240000120FFF723FB0098B847E06A817A49082C
:1022500049002943817274E70220FFF717FB70E7FA
:1022600010B5D4488047012010BDD24910B51E31A9
:102270008847012010BDCF4910B55431884701204F
:1022800010BDCC4910B560318847012010BDC94947
:1022900010B56E318847012010BDC64910B57E319A
:1022A0008847012010BD10B5C24CE634A04701207C
:1022B00010BDF8B5C04CC149E06837308847206987
:1022C0003B230178BF250A09E16812015B5C1B070B
:1022D0001B0F1A4302701207120F012A79D00B4606
:1022E00040335A781B7812021A430B4642331A7055
:1022F000120A5A7002788B7A2A409B011A435206BE
:10230000520E027066235B5C42789B1D92099B060D
:1023100092019B0E1A4342700622801C0B3102F080
:1023200015F9E1686620425C002A04D02069673113
:10233000083002F00BF9E068002120304177206975
:102340009F4A41788906890E891C90472069017847
:102350000A091201121D0270E1682A408B7ADB071C
:102360005B0E1A43027046235B5C42789B1D920908
:102370009B0692019B0E1A4342700622801C0B3171
:1023800002F0E4F8E1684620425C002A04D02069AB
:102390004731083002F0DAF82069894A41782C3256
:1023A0008906890E891C9047E0680127054620357B
:1023B000E97E01293BD000294CD002294AD00629C8
:1023C00048D000237F4C1A4601211846A047F8BD8B
:1023D000FFE70A464032137953718B7A0278DB07A4
:1023E0002A405B0E1A43027087235B5C5206520E32
:1023F000DB011A43027042780B31920992010C32D0
:1024000042700622801C02F0A1F82069E1680622D1
:102410000830883102F09AF8E16803223D204254E6
:10242000664A8720405C323A8831904787E74030DF
:10243000417900290AD028200621A26A937EFD2432
:102440002340937617756B7F2A7F43E04771012005
:102450000146F2E706464236717832780B021343A2
:1024600017D0192189014B432230417F047F080294
:10247000204301228004800C009006D001461846BB
:1024800002F03AF8421C7F2A10D8D4B23770380ACA
:1024900014E03770390A71702230417F027F0802E0
:1024A000104301248004800C009008E07F24104633
:1024B00021467E3002F020F83070000A70703E48ED
:1024C000806A817E02221143817607756B7F2A7FA5
:1024D00000992046314CFE34A0473B48804776E7C0
:1024E00010B5FFF7E6FE012010BD10B537490320F7
:1024F00008702F4964201A318847354880470120E9
:1025000010BD72B600212C4A906A4175037C0121EE
:102510000B430374D06845221154423001700021EE
:10252000417062B60120704710B52A4988470120E2
:1025300010BDF0B5204CA56A2C4660342678FD27E6
:10254000C0073E40800F06432670A170627062355E
:102550002B71180A687105982071000A6071F0BD2E
:10256000F8B5154D1549E868373088471120EF68F0
:10257000002480013D186E79A8790321401C01F0E8
:10258000BBFF01208840A971064228D1641C23E0CA
:102590002F44000045150010CE02000061550000D8
:1025A00087200010343A002059530000BF65000016
:1025B0002B620000833D0000B0300020B1570000C6
:1025C000D9600000A13E00009D56000000000240BE
:1025D0000747000001410000E4B2032CCCD31125D1
:1025E000AD017C19607B217B00020843A91C7F1888
:1025F000010AF24E3873797300280BD0607A227A80
:10260000010219201143800101F076FF0206120E2B
:1026100004D004E001203873002078730122787A16
:10262000397A000208430090607A217A03020B4352
:10263000A079E349095CE079FFF77BFFF0680021AE
:1026400040190171C170017441748178002901D071
:10265000082901D908218170DA488047B7E610B50A
:10266000FFF77EFF012010BD10B5D748804701203D
:1026700010BDD54910B508318847012010BDD24999
:1026800010B516318847012010BDCF4910B57831FB
:102690008847012010BDC949487001207047CA49C8
:1026A00010B586318847012010BDC74A10B58E325B
:1026B0009047012010BD7CB5054601F078FFBF4969
:1026C0000446383101F07DFF281D01F070FFBB4941
:1026D0003C3101F076FF40208443BC48BA49019068
:1026E000009468469631884701207CBD10B5B849F2
:1026F0008847012010BDB64A10B508329047012026
:1027000010BD10B5B3488047022801D9002010BD84
:10271000012010BDF8B50E46AF4907464878097844
:10272000000208431C461546800609D5A348806A66
:102730002030417B027B0802104301D0FEF7B1FF3D
:10274000A6490120884700280CD0A24880470228CB
:1027500009D972B623469E4C2A463146384618346B
:10276000A04762B633E6002031E69D49084710B520
:1027700004469A4901208847002803D098492046FA
:102780000831884710BD70B50546944A0C460120B3
:102790009047002804D0924A21462846223290478A
:1027A00070BDFFB50F4681B08C491D46164601200D
:1027B0000A9C8847002807D00094894C2B46324653
:1027C000394644340198A0471CE5F8B50E46074643
:1027D00082491C46154601208847002806D023461A
:1027E0007F4C2A46314638467C34A047EFE510B589
:1027F00004467A4901208847002803D078492046BA
:10280000AC31884710BD70B50546744A0C460120AE
:102810009047002804D0724A21462846C632904785
:1028200070BD70B505466D4A0C46012090470028E2
:1028300004D06B4A21462846E832904770BDF8B56F
:102840000E46074665491C46154601208847002864
:1028500005D02346634C2A4631463846A047B6E5A4
:1028600070B50D4606465D4914460120884700288C
:1028700005D05C4B2246294630463033984770BD20
:1028800070B50D4606465549144601208847002874
:1028900005D0544B2246294630465C33984770BDDC
:1028A000F8B50E4607464D491C4615460120884797
:1028B000002806D023464B4C2A46314638468834F9
:1028C000A04784E510B50446444901208847002804
:1028D00003D044492046B831884710BD10B53F4960
:1028E00001208847002802D03E48CC30804710BDE8
:1028F00070B5324D0446082804D0E86840780828AE
:102900000DD014E000217F20FEF788FF0121402038
:10291000FEF784FFE86A0178C908C9000EE00021CB
:102920007F20FEF77BFF00214020FEF777FFE86A5B
:1029300001786207C908C900520F11430170E868A5
:102940004470012070BDD3E710B504462648804787
:102950002070012010BD10B504462348801D80471B
:102960002070012010BD204910B51C31884701207E
:1029700010BD1D4810B572308047012010BD1B48A6
:1029800000471B4908471A491A31084708B5194931
:10299000684688476846C0788007C00F08BD08B5FC
:1029A0001449684688476846C078C00900D00120AD
:1029B00008BD10B5FEF730FF10BD0000B03000209C
:1029C000EC4C0010255700001D420000C51A0010F5
:1029D0002D4300002B4E00008B3A0020F50A00002A
:1029E000B73A0000BB3B00009F440000FB5F0000C3
:1029F0002B6200004D65000010B5FEF70FFFDBE70E
:102A0000FE48806AC07B052805D0062803D00F2821
:102A100001D0002070470120704710B5FFF7F0FF8C
:102A2000002801D1F64880470120C5E710B5F349D9
:102A30000122886A4275437CDB09DB019B1C4374DD
:102A4000931E83741B0AC374C96ACB7AEF24234094
:102A5000CB724B7B93434B738B7A13438B72817E88
:102A6000022319438176017C11430174E549052055
:102A70008847E548804701209EE7E34810B51230BB
:102A80008047012098E710B5E0498847012093E787
:102A9000DE4910B51831884701208DE7DA4910B5B5
:102AA00058318847012087E7D749AC310847D649D4
:102AB00010B5FA31884701207EE710B5D448804729
:102AC000012079E7D24810B518308047012073E71C
:102AD000CF4BA2331847CE4BD8331847F8B507462B
:102AE000C648002680680D463446283001F05FFD58
:102AF0002903C9194118C148406B814211D90020EE
:102B000065E472B6BD488068283001F050FD2103AD
:102B1000C9194018BF4A01219047064662B6641C95
:102B2000E4B2AC42EDD3304651E4F8B5B34D0446BF
:102B3000A86817460E46283001F039FD0146A21953
:102B400080186A6B90420AD8002908D072B608191A
:102B5000B04B3A463146EA3B984762B637E400202C
:102B600035E4F8B5A54D0446A86817460E4628304A
:102B700001F01DFD0146A21980186A6B90420AD827
:102B8000002908D072B60819A24B3A463146823B5A
:102B9000984762B61BE4002019E470B59E480024F3
:102BA00000789C4E954D00280DD001281ED024E0C1
:102BB00072B6143001F0FBFC210340180121B0472C
:102BC00062B6641CE4B2A868C17B827B090211432F
:102BD000A142EDD811E072B6103001F0E8FC2103FB
:102BE00040180121B04762B6641CE4B2A868C17BFA
:102BF000827B09021143A142EDD8012070BD70B55E
:102C000004460D46000B42197C488068C17B837BDB
:102C1000090219438A4201D9002070BD7E497D4EC8
:102C20000978002902D0012903D00AE072B61430D5
:102C300001E072B6103001F0BAFC00192946B04725
:102C400062B6012070BDF8B5044673480F4601789E
:102C50006A48704D8068823D1646002902D00129DD
:102C600003D00BE072B6143001E072B6103001F000
:102C70009EFC001932463946A84762B601202EE470
:102C800030B45E4B9C68E37BA47B1B0223431B0395
:102C9000834202D230BC0020704730BCD3E730B44E
:102CA0005E4CA44630BC6047F3B5544889B0806898
:102CB0000024283001F07BFC0746099846090025CE
:102CC00011E072B66801534BC01920216A46EA3BF5
:102CD000984762B6002069460A5C401C121994B2FB
:102CE0002028F9D36D1CB542EBD30998C606F60E21
:102CF00072B631466801474BC0196A46EA3B9847AD
:102D000062B60020694603E00A5C121994B2401CC6
:102D1000B042F9D30A98844202D101200BB0F0BD31
:102D20000020FBE7F8B538488A3880473A4C5734DA
:102D3000607A002840D00006042500280FDA607869
:102D4000217800020843400709D5FEF7AAFC607805
:102D5000217800020843A8432070000A6070607860
:102D60002178000208432E4F2E4E41060CD54021FB
:102D700088432070000A607002206946088002467D
:102D80006B4639460020B04760782178000208433E
:102D9000C10711D0400840002070010A617080070F
:102DA00002D56846058002E00520694608800222B7
:102DB0006B4639460020B04750E41B48004738B501
:102DC0000E4C2078002805D1104968467E39884786
:102DD00001202070012038BDF8B50278002A74D097
:102DE0000D4957314A7242788A72002A01D0042A6A
:102DF00001D904228A72C278847817E0B0300020AA
:102E0000F144000045620000E5460000CB6500008B
:102E10000348000043540000343A00207B4A00007D
:102E200000800000A13E0000F94B00001302234384
:102E3000FB4A1C0AD37214734479057924022C438B
:102E400015466C73240AAC73C47985792002284333
:102E5000D073000A1074F3480827C068D21C2130D0
:102E6000447C007C240204430120A34214D90025A1
:102E70008D701B1B8C7AA34204DA1071000A50710A
:102E80008B7216E0E400A34202DA1071000A01E03E
:102E90001771380A50710CE088708E7AE51AB542C5
:102EA0000FDA060A107156719C4201D1887200E057
:102EB0008D72887AC8700871FEF780FF012051E496
:102EC00003E0F3009D42E3DADFE700204AE4D5495E
:102ED000496A0870020A4A70020C8A70000EC870B3
:102EE000487A022210434872704738B504460020E1
:102EF0000090CD49684688470099F8208143E00654
:102F0000000E08430090FFF7E2FF38BD08B500202F
:102F10000090C5496846884700980006C00E00909A
:102F200008BDC14872300047BF495A310847BF4900
:102F30000847BE491A310847BD480047BC490C3113
:102F40000847F8B500260B460446012530463146B1
:102F50002D03675C491CBE19A942FAD30021675CA6
:102F6000491C7840A942FAD39E4222D1904220D1F6
:102F7000AC4EB0680A3001F01AFBA949001957227B
:102F8000573901F0E3FAB0681C3001F010FBF1682A
:102F9000001907220A3101F0D9FA0121A54A0020BF
:102FA0009047A44B002022462946823B98470120A7
:102FB0001CE400201AE470B501260546994C36033E
:102FC0009C4B00203146EA3BA26998479A49284623
:102FD0008847A0681C3001F0EAFAA169072240186E
:102FE000E1680A3101F0B2FA0121924A00209047CB
:102FF000904B00203146823BA269984770BD10B5C6
:103000000446884880680A3001F0D1FA894B1021C3
:10301000EA3B224657309847CEE470B50126054674
:10302000804C3603834B00203146EA3BA269984727
:103030000121804A00209047A0680A3001F0B7FAC9
:10304000A169102257314018294601F07FFA794BC7
:1030500000203146823BA269984770BD71484069A3
:103060000178C943890702D18078062801D0002061
:10307000704701207047714A1047F3B581B00600D0
:1030800025D0684F386A0446C17980790D0205431E
:10309000E01C01F08CFA0102A07801430C46002DDF
:1030A00017D0002C15D00121624B09030020EA3B08
:1030B000BA699847B8680A3001F079FAB969673196
:1030C000405C401CC7B2032F05D90220FEBD012081
:1030D000FEBD0420FEBDB54204D10298844201D158
:1030E0000020FEBD0121534A002090474D4CA068AE
:1030F0000A3001F05CFAA2694E4B11466731475421
:10310000012109030020823B98470320FEBD08B53A
:1031100045496846884700984108C90701D0002002
:1031200008BD02210843404900902831884701200A
:1031300008BD3B480121573802783A4809078068A2
:10314000002A03D0012A07D000207047C27B837B6E
:1031500010021843400304E0C27B837B1002184333
:1031600000034018704770B504462D480D46573887
:1031700001782C480126B6038068002903D0012974
:1031800003D0002070BD143000E0103001F00FFAC1
:10319000801972B60019274A2946904762B670BD59
:1031A000F8B505461E480F46573801781D480124DA
:1031B000A40380681646002903D0012903D000200B
:1031C0009EE4143000E0103001F0F1F9001972B6FD
:1031D0004019184B32463946EA3B984762B68FE4AD
:1031E000F8B505460E480F46573801780D480124BA
:1031F000A40380681646002903D0012903D00020CB
:103200007EE4143000E0103001F0D1F9001972B6FC
:103210004019084B32463946823B984762B66FE404
:103220008B3A0020B03000204D6500002B6200007A
:10323000776A000043540000A13D0000D9600000FF
:1032400010B5030001F036FD09060C16202A343EA5
:10325000415B770001217F20FEF7E0FA882104E03E
:1032600001217F20FEF7DAFA8A216120FEF7D6FAE3
:1032700081215DE001217F20FEF7D0FA8A216120C3
:10328000FEF7CCFA832153E001217F20FEF7C6FA36
:103290008A216120FEF7C2FA872149E001217F20BF
:1032A000FEF7BCFA8A216120FEF7B8FA8F213FE0D1
:1032B00001217F20FEF7B2FA8A216120FEF7AEFAE3
:1032C0009F2135E001217F202BE000217F20FEF7A8
:1032D000A5FA02213020FEF7A1FA01217F20FEF796
:1032E0009DFA1F216320FEF799FA03216D20FEF756
:1032F00095FA8A216120FEF791FAB02118E00021A9
:103300007F20FEF78BFA02213020FEF787FA012199
:103310007F20FEF783FA1F216320FEF77FFA072143
:103320006D20FEF77BFA8A216120FEF777FABF2134
:103330006520FEF773FA6FE610B5F74CA0682830E9
:1033400001F035F9616B081A66E6F44800787047B9
:10335000F8B50546F04EF148B269007814460028E9
:1033600001D0002016E4280502D02805000D2D1AF2
:1033700072B601210903EA4F0020B84762B6706BAC
:103380002146401B283101F01CF90546204610302B
:1033900001F00DF90090281A4108009808182146FC
:1033A000143101F00EF901460098081A0001000CD2
:1033B000A073000AE07372B60121D94A0020EA32F4
:1033C000904762B672B60121D54B090300206833DD
:1033D000B269984731210020B268B84762B601202F
:1033E0004DE4CD48CC4BC079DB7902091B0709209D
:1033F0001B0FC01A062300215843072A08D0032AAE
:1034000009D0022A0BD0012A0CD0002A0DD00FE0DF
:103410004121C94301E03521C943081A07E02321AE
:10342000C943FAE71721C943F7E7801D404241B27B
:10343000C8B27047F3B5BB4EBB4F8DB005460024F4
:1034400032226B4621460320B04768464088A84296
:1034500006D1684601790E98017001200FB0F0BDC9
:10346000B84204D068460088001984B2E8E700201A
:10347000F4E7F3B5AB4EAC4F8DB0054600243222D5
:103480006B4621460320B04768464088A84208D1D1
:10349000241DA1B2012203200E9B00F0E3F90120BC
:1034A000DCE7B84204D068460088001984B2E6E739
:1034B0000020D3E7F3B59B4E9B4F8DB0054600240B
:1034C00032226B4621460220B04768468178427816
:1034D00008021043A84205D1684641790E98017050
:1034E0000120BBE7B84204D068460078001984B2D6
:1034F000E6E70020B2E7894910B5573148780978E6
:1035000000020843800603D5FEF7CBF8012083E5CF
:10351000002081E5854B184710B504467E48806839
:103520000A3001F044F808217D4B22466730984765
:1035300072E570B5054672B6774C01263603784BB6
:1035400031460020A2699847754A01210020EA32DD
:103550009047A0680A3001F02AF8A1690822673173
:103560004018294600F0F2FF6D4B002031466833C9
:10357000A269984762B670BD6D4908200847664940
:1035800048637047FEB5644D0027A868801D01F0B0
:103590000EF8634E01AA0621B047002823D000246C
:1035A0001CE0A868801D01F002F861006118891D07
:1035B00040186A460321B047002814D068460078B6
:1035C000032809D1684640787F2801D169468F7861
:1035D000012F01D1572807D0641CA4B26846008986
:1035E000A042DED80020FEBD68468078FEBDF1B561
:1035F000494E84B0B0680027801D00F0D8FF484DC8
:1036000001AA0621A847002823D000241CE0B068A6
:10361000801D00F0CCFF61006118891D40186A46CA
:103620000321A847002814D068460078032809D150
:10363000684640787F2801D169468F78012F01D1F3
:10364000572808D0641CA4B268460089A042DED87E
:10365000002005B0F0BD72B601273F0339460020B7
:10366000B269A8472E4A01210020EA329047B0688B
:10367000801D00F09CFFB269049983186000201837
:1036800008301954264B002039466833984762B6F3
:10369000DFE77FB50D464B21090608430290002461
:1036A00024480394804700940194224C0121052072
:1036B0002B4602AAA83CA0471E481C3080477FBD6D
:1036C0007FB5064600246D4629192046FFF7E1FF25
:1036D000285D3055641CE4B20F2CF5D37FBD10B5C6
:1036E00000F0F7F8002804D000F0F3F80128FBD030
:1036F00092E400F0EEF80028FBD000F0EAF8012890
:10370000FBD089E4F0B5044C0025A46AE6783607BE
:1037100012D50020F0BD0000B0300020343A002067
:1037200059530000C9280000FFFF000019220000C3
:10373000791900001D50000000BF6D1CEDB2642D12
:10374000FAD3254640356E7CB607FCD400252646C4
:10375000C036377947556D1CEDB2022DF9D3467846
:103760000125F709002F08D0F606F60E0E70157029
:1037700042785206D20F1A7004E0B3069B0E0B700B
:1037800000231370594B0A789B6A801CC033272A88
:103790000CD20022C03403E026798654521CD2B2E7
:1037A0000E789642F8D85D720120B3E75D72B0E7FB
:1037B00010B5027800219207920F4C4B012A39D0A4
:1037C000022A0CD0032A33D182780E2A2FD84078CF
:1037D000474BC0069A5CC00E904228D028E0427841
:1037E000D206D20E042A07D9C27884781202224364
:1037F000172A01D8012200E000225A71002A17D0AE
:103800004179027909021143052910D006290ED108
:10381000C1788278090211438079354A40000F321D
:1038200080184038C08F814201D0002100E0012182
:10383000084680E559790029F7D04078C006C00EC7
:103840001728F4D9F1E770B52A4D0024274EA84770
:10385000F1680919FF310131641CE4B2C873102CFE
:10386000F5D370BDFFB5214C0200E06981B01E4662
:103870000D4606D0012A06D0022A06D0032A06D019
:1038800009E0001D04E0083002E00C3000E01030D8
:1038900000F08DFE01464D1972B601273F03164B0D
:1038A00039460020A269984762B6A069314640199E
:1038B000039A00F04BFE72B601210F4A0020EA3253
:1038C00090470D4B002039466833A269984762B68D
:1038D000BFE60648816A0A466032907C927C60317D
:1038E00001E0887C8A7C9042FBD17047B030002098
:1038F000EF4C0010FB5F00005953000070B51E46EE
:10390000002915D0FE4DAC696B699C4210D205C4EC
:103910000846083C01F066F8FA4AFB4B00F066FFE7
:1039200001F06EF8A0602673002060611834AC616D
:1039300070BD884200D308467047002206E000218F
:10394000491C89B21829FBD3521C92B28242F6D389
:10395000704710B5EA4C60682030017CC9070FD071
:10396000017C490849000174082000F0CCFA606825
:103970002030417C0122114341743220FFF7DDFFEA
:1039800010BD70B5DE4C0D46616803462031087CE1
:10399000C00706D0087C4008400008743220FFF7BA
:1039A000CCFF626820321375180A5075180C907598
:1039B000180ED075107CEF2108401074907C4008E0
:1039C00040009074D1480560507C01252843507414
:1039D000082000F08FFA60682030017C29430174D0
:1039E00070BDCEE770B5C64D18212878AE68484343
:1039F00069690C1A2869801928610020C043A860F1
:103A000018E0207B002814D02069B04204D16068FF
:103A1000002807D0804705E0801B206102D0A16804
:103A2000884201D9A0682061A968884200D9084667
:103A3000A860183468698442E3D3A868002805D0D8
:103A4000411C03D0B249FFF7CCFF70BDFFF781FFE7
:103A500070BDF0B5AA48AF4D416840310B791846AA
:103A60004B791B0218438B79CA791B041843120641
:103A70000E79104332464E79360232438E79CB7935
:103A8000360432431B060F791A433B464F793F02F7
:103A90003B438F79CE793F043B4336063343641C66
:103AA000904201D19A4201D0AC42D7D3F0BDF8B5D3
:103AB0000446FFF7CEFF924A91680B1A1361002368
:103AC000884200D913610020C0439060117818200B
:103AD000414350691769411A17E00D68A54202D1A8
:103AE0000B734B6110E00D7B002D0DD00D69ED1BAC
:103AF0000D6102D08E68B54201D98D680D6196685E
:103B0000B54200D82E46966018318142E5D39068C0
:103B1000002805D0411C03D07D49FFF762FFF8BDA6
:103B2000FFF717FFF8BDF3B581B00646FFF7BFFFFB
:103B3000734818220178456951436C1A714F0FE0A0
:103B40002068B0420BD1A0682061029800F04AFFC3
:103B50003A466D4B00F04AFE00F052FFA060183468
:103B6000AC42EDD3FEBD6649CA688243CA60704765
:103B7000F8B5634C05462078182148436169081A56
:103B800006E00268AA4202D1027B002A3AD118302C
:103B90008842F6D3FFF75DFFA1680A1A22618842C6
:103BA00001D9002020610020C043A06020781821A6
:103BB00063694843191A0127266919E00868A84271
:103BC00003D1886808610F730BE0087B00280ED0D2
:103BD0000869801B086102D08A68904201D9886810
:103BE00008610246A068824200D81046A0601831E1
:103BF0009942E3D3A068002805D0411C03D0444972
:103C0000FFF7EFFEF8BDFFF7A4FEF8BDF8B53C4C9A
:103C10000546E068A843E060FFF71BFFA1680A1AA9
:103C20002261884201D9002020610020C043A060A9
:103C30002178182063694143591A0127266919E040
:103C40000868A84203D1886808610F730BE0087BFD
:103C500000280ED00869801B086102D08A68904253
:103C600001D9886808610246A068824200D81046DF
:103C7000A06018319942E3D3A068002805D0411C08
:103C800003D02349FFF7ADFEF8BDFFF762FEF8BD94
:103C90001B4918220B7853434A69D11A05E00B6877
:103CA000834201D1087B704718319142F7D3FF203E
:103CB000704770B50D460446FFF781F8002808D01C
:103CC0000F48182104704C43611985614161FFF769
:103CD00040FE70BD0A494A68114620310875030A42
:103CE0004B75030C8B75000EC8758B7C012003434C
:103CF0008B744B7C03434B740B7C03430B740BE0C2
:103D0000F0300020FCA9F1D24D6240409C3A0020E6
:103D1000E5390010FF3F00002032D37CDB07FCD0E8
:103D20000A7C520852000A744A7C02434A74704763
:103D30007C4840682030C17CC90708D0417C012202
:103D40001143417478480068002800D0004770474C
:103D500070B5744C064660680D462030017CFD232A
:103D60008907002905DA017C194001743220FFF728
:103D7000E4FD626820321676300A5076300C907678
:103D8000300ED076107C202108431074907C1840AF
:103D9000907465484560507C022528435074092082
:103DA00000F0A8F860682030017C2943017470BDE0
:103DB00010B55C4C60682030017C89070FD5017C10
:103DC000FD2211400174092000F09DF86068203048
:103DD000417C0222114341743220FFF7AEFD10BD39
:103DE000504840682030C17C890708D5417C0222B8
:103DF000114341744C484068002800D00047704788
:103E000070B5484C064660680D462030017CFB23A7
:103E10004907002905DA017C194001743220FFF7B7
:103E20008CFD626820321677300A5077300C90771C
:103E3000300ED077107C402108431074907C1840DD
:103E4000907439488560507C0425284350740A20BA
:103E500000F050F860682030017C2943017470BD87
:103E6000304808214068403041180A7810464A78A6
:103E7000120210438A78C9781204104309060843D5
:103E8000704728480C214068403041180A78104695
:103E90004A78120210438A78C9781204104309063E
:103EA0000843704710B51F4C60682030017C4907FB
:103EB0000FD5017CFB22114001740A2000F023F889
:103EC00060682030417C0422114341743220FFF7A6
:103ED00034FD10BD134840682030C17C490708D527
:103EE000417C0422114341740F488068002800D0AF
:103EF00000477047002805DBC106C90E0120884035
:103F00000A490860704700280ADBC106C90E012073
:103F10008840064980310860BFF34F8FBFF36F8F31
:103F200070470000F03000209C3A002000E100E0E3
:103F300018B5F64800680090002069460B5C0A241A
:103F40001A0962431B070A541B0FD2180A54401C5B
:103F50000328F3DB009818BD08B5FFF7E9FF0090D0
:103F600068460178C078EA4A401E50430A186846FD
:103F70008178E12000014143684640783C23584362
:103F800008181118E34A1069814201D3081A02E0A7
:103F9000E14B081AC018116108BD70B50D46002824
:103FA00002D0DA4E083E01E0D84E0C3E0024285DD7
:103FB0000A2100F0A1FA000101432955641C032CD9
:103FC000F5DB284600F0F3FA30606420FFF7B5FC1B
:103FD000CE482038C17A08221143C17270BD38B56D
:103FE000CC4909694418CA49204600F085FA421CA8
:103FF0006846C270E12508462D01294600F07CFA8A
:104000000246684682702946204600F075FA084646
:104010003C2100F071FA0146684641703C2120467F
:1040200000F06AFA6846017069460020FFF7B5FFA4
:1040300038BD38B5FFF77CFF009068460178C0783E
:10404000B34A401E50430A1868468178E1200001B7
:104050004143684640783C23584308181118AD4B3B
:10406000AE485A6A0468914201D38A1A02E0AA4D06
:104070008A1A5219A21802601046596238BD70B5EA
:1040800000290BD0A34D6E69AC69B44206D2A16081
:1040900005C423710020E0601034AC6170BD88421B
:1040A00000D308467047994920398A7A0F23834301
:1040B000887A1A400009000110438872704770B571
:1040C000C00742D0934C1821607866684843616904
:1040D000081A0A4603E0037B002B02D118309042F5
:1040E000F9D3884231D2FFF737FFE16860680818DA
:1040F000E0600020C043606061781820414360693F
:10410000451A18E0287B002814D02869B04204D151
:104110006868002807D0804705E0801B286102D02E
:10412000A968884201D9A86828616168884200D9D5
:1041300008466060183560698542E3D360680028EE
:1041400004D0411C02D0FFF74AFF70BD0120FFF7E9
:10415000AAFF70BD6F498A6882438A607047F8B5CC
:104160000446FFF7F9FE6B4AD06072B60021C943DE
:1041700051605178182359435369591A002717E0A1
:104180000D68A54202D10F734F6110E00D7B002D29
:104190000DD00D692D1A0D6102D08E68B54201D97E
:1041A0008D680D615668B54200D9354655601831A5
:1041B0009942E5D35068002804D0411C02D0FFF793
:1041C0000EFF02E00120FFF76EFF62B6F8BDF8B502
:1041D000504C05466078182148436169081A06E08A
:1041E0000268AA4202D1027B002A38D118308842E4
:1041F000F6D3FFF7B1FEE06072B60021C9436160FB
:104200006178182266695143711A012719E00A681A
:10421000AA4203D18A680A610F730BE00A7B002A65
:104220000ED00A69121A0A6102D08B689A4201D92B
:104230008A680A6113466268934200D81A4662602F
:104240001831B142E3D36068002804D0411C02D089
:10425000FFF7C5FE02E00120FFF725FF62B6F8BDBB
:104260002C49C8617047F1B582B0FFF775FE294D42
:10427000E86072B60021C943696069786E691822E6
:1042800051430090741AEF6920E02068B84209D1C8
:104290003C21029800F030F93C20401A20610120B6
:1042A00020730CE0207B00280FD021690098081AA9
:1042B000206102D0A168884201D9A06820612069EC
:1042C0006968884200D9084668601834B442DCD373
:1042D0006868002804D0411C02D0FFF780FE02E08D
:1042E0000120FFF7E0FE62B6FEBD0A4918224B78B6
:1042F00053434A69D11A05E00B68834201D1087B18
:10430000704718319142F7D3FF207047C01000501A
:10431000805101000C310020803A0900A8300020B3
:1043200071490878002808D17048C37A01221343E4
:10433000C372C37ADB07FCD10A7070476A4908620E
:1043400070476A498A7A024310078A7A000F120975
:10435000120102438A72704764498A7A1209024341
:1043600010018A7A1207120F02438A72704770B5E1
:1043700005460024285D0A2100F0BEF80001014333
:104380002955641C032CF5DB284600F010F9574929
:104390002039C86370BD554A138A401EDB0BDB030E
:1043A0004004400C03431382907C0907000900017C
:1043B000090F0843907470474C48C17A0422114396
:1043C000C172C17A4907FCD470474749087801286F
:1043D00009D14648C27A02231A43C272C27A9207AE
:1043E000FCD4002008707047F3B581B0FFF7EDFFF3
:1043F000FFF7E2FF01200021C003FFF7CCFF64209C
:10440000FFF79BFA01216846C17000248470447054
:104410000470FFF7ACFF344D07262C616846C67068
:10442000172787703B244470047069460120FFF70A
:10443000B4FD6846C67087704470047069460020F9
:10444000FFF7ABFD0F20FFF787FF0F20FFF72BFED5
:104450000120FFF776FF02982862FFF761FF2449E9
:1044600004200860FEBD70B50D460446FEF7A7FCAB
:1044700000280BD01C48182144704C4361198561F9
:10448000416101201B49C003FFF7AEFF70BD10B5AD
:104490001648407A03071B0F1846FFF75DFF1248C6
:1044A000016A002901D01846884710BD0E480078DF
:1044B000704718B5002802D00C48183001E00B48AE
:1044C000143000680090002069460B5C0A241A0929
:1044D00062431B070A541B0FD2180A54401C0328BE
:1044E000F3DB009818BD00000C310020A010005034
:1044F00000E100E0BF40001030B50B46014600204F
:104500002022012409E00D46D5409D4205D31D46D9
:104510009540491B2546954040191546521E002DD1
:10452000F1DC30BD70B500242546002801DA0124F5
:104530004042002901DA01254942FFF7DDFFAC4284
:1045400000D04042002C00D0494270BD03460B43CE
:104550009B0703D009E008C9121F08C0042AFAD239
:1045600003E00B780370401C491C521EF9D27047BF
:10457000D2B201E00270401C491EFBD270470022FB
:10458000F6E710B513460A4604461946FFF7F0FF52
:10459000204610BD30B504460020034600E05B1CF9
:1045A000934203D2E05CCD5C401BF8D030BD0321C8
:1045B000001D401E037812021A43491EF9D5104609
:1045C0007047034603220870000A491C521EFAD5A0
:1045D00018467047F8B502464A40D40F42004B00D7
:1045E00052085B089A4202D20246084611464A0027
:1045F00023D0C30D4A00DDB2120EAD1A202D35DADC
:1046000049020126490AF6058A19002C00D05242B7
:1046100020214F1B1146B9402A411018C20D9A4261
:1046200021D0002C17D0012D08DCDA05801AD20F1A
:104630008019D207DBB200F051FAF8BDDA05801A12
:10464000012340001B06C01880185A428018CA0F68
:104650001043490007E04908C2071143DA05801AF0
:1046600080194008801800F031FAF8BD610001227D
:10467000511A001BF7E70122D2075140AAE7012295
:10468000D2075040A6E70000F0B50746084658405C
:1046900087B0C00F049048000E46590040084908F2
:1046A000BC1A884105D2384631461E4617460B468D
:1046B00002465800400810434CD0300D039040058E
:1046C0005900400D490D0590401A0290402872DAB9
:1046D00018030121000B090508430190049800927A
:1046E000002805D001995242002088410092019093
:1046F000029840210A1A0199009800F0B3F9054682
:104700000C466B4607CB00F0CEF9C0197141039AF5
:104710000E0D0023D71756401A467A40164344D050
:10472000049A002A2DD0029A012A039A15DC120558
:10473000C01A914101263605001C7141D20F059E19
:10474000D2070093019202962A46234600F00CFA03
:1047500007B0F0BD38463146FAE71605224A0F4643
:10476000B218C01AB74101210905001C4F410018B9
:104770007F41114618187941E20F10436D196441C9
:1047800013E0E2076D0815436408C2071443039A57
:1047900001261205C01A91413605001C7141CE0751
:1047A000400830434908C01851412A46234600F0CA
:1047B000CEF9CDE7FFE7049801224000C117121A95
:1047C00000238B4104983146C417381AA141EEE703
:1047D00030B40124E407634030BC55E730B4012411
:1047E000E407614030BC4FE70000E0FFF0B51FB4C4
:1047F00088B00B990998002448400999C00F4900D6
:1048000049080991C0070B990090490049080B918C
:1048100009990898A64608431CD00B990A980843A2
:1048200018D0099801244000420D4800410D099814
:1048300024050003000B204309900B980003000B94
:1048400020430B9050181C49401800220190144638
:10485000104605E0002001460DB0F0BD032801DA46
:10486000034600E003239C46C11A0AAE0AE05F003B
:1048700008ADED5B4F00F75B7D430027AA187C4134
:10488000491C5B1E6145F2DD410004AB5A52210414
:10489000120C0A43240C401C0828DFDB019802900C
:1048A0000099704601910090059B049A079906981B
:1048B00000F05AF9D0E700000DFCFFFFF0B50C4600
:1048C0005C4085B0E40FE40703944C0000266408C4
:1048D00059009446490802460296224321D0624676
:1048E0000A431ED06200570D4A000E032303550DE4
:1048F000012402462C492405781B1B0B360B40185B
:1049000023432643614600901C46501AB44103D30A
:104910000098401C009002E0921800985B4100282B
:1049200003DA0020014605B0F0BD00200121090591
:104930000746864611E064461D46141BB54106D362
:104940006546521BB341744607430C43A646CD0748
:1049500040084908284392185B4105460D43EAD1B7
:104960001046184313D06046194650407140084322
:1049700006D06046101AB34106D20122002306E099
:1049800000220123DB0702E00122D24353100098EA
:1049900074460105381C6141029C039D0019694160
:1049A00000F0D5F8BFE70000FD03000010B50022BD
:1049B0009623114600F092F810BD00000EB5C21704
:1049C000C10F5040CA0740180021054B02930192C5
:1049D00000910A460B4600F0C7F803B000BD000086
:1049E000330400000EB505490291002100910A46EA
:1049F0000B46019100F0B8F803B000BD330400008D
:104A00004A0009030123090B1B051943094B10B583
:104A1000520D9A4201DA002010BD064B34339A42FF
:104A200003DC9A1A00F02EF810BD03495118884093
:104A300010BD0000FF030000CDFBFFFFC20FD20737
:104A4000400040080BD0C10D0723DB01C91840020C
:104A50000905400A1143C20840071143704700206E
:104A60000146704710B5202A04DB0146203A9140E8
:104A7000002010BD914020239C1A0346E3401943B7
:104A8000904010BD10B5202A04DB0846203AD040E3
:104A9000002110BD0B46D340D0402024A21A9140E3
:104AA0000843194610BD10B5202A06DBCB1708466F
:104AB000203A1041C1170B4306E00B461341D0408A
:104AC0002024A21A91400843194610BD002904DA97
:104AD000401C490001D140084000704770B40024D8
:104AE000050C05D11024000402D1002921D0112485
:104AF000050E01D100020834050F01D10001241D6B
:104B0000850F01D18000A41C002801DB4000641C3B
:104B1000002908D020252E1B0D46F540A14000D0CD
:104B200001212943084301061B1B000ADB1D02D596
:104B3000002070BC7047DB05181880180029F8DACF
:104B4000401C4900F5D170BC40084000704710B5CA
:104B5000002B08DA0024401C614192185B411A4383
:104B600001D14008400010BDF0B51FB482B0054629
:104B70000C0003D0084600F086F802E000F083F84D
:104B800020300246009021462846FFF76BFF049B29
:104B9000059A04460F4618431143084314D018469B
:104BA00010431BD0009840210A1A18460599FFF7B8
:104BB00069FF05460E46009A05990498FFF752FFD3
:104BC000084305D0012004E02046394607B0F0BD77
:104BD0000020C11705430E432C43374300990E981C
:104BE0006305401A7905E40A00220C43FD0A0A30E5
:104BF00002D500200146E9E70105101969410C9C26
:104C00000D9D00196941FFF7A2FFDFE7064C012562
:104C1000064E05E0E36807CC2B430C3C9847103464
:104C2000B442F7D3FBF750FA144D0010344D001086
:104C300070B58C180578401C6B075B0F01D10378A9
:104C4000401C2A1106D10278401C03E006780E7041
:104C5000401C491C5B1EF9D12B0705D40023521EB2
:104C60000DD40B70491CFAE70378401CCB1A921C38
:104C700003E01D780D70491C5B1C521EF9D5A14242
:104C8000D8D3002070BD2021020C01D01021104685
:104C9000020A01D010460839020901D01046091F46
:104CA000820801D01046891E420801D0881E704734
:104CB000081A704730B47446641E2578641CAB42F1
:104CC00000D21D46635D5B00E31830BC184702E06C
:104CD00008C8121F08C1002AFAD170477047002087
:104CE00001E001C1121F002AFBD170472526270CC5
:104CF0000802170D0101020909010106020007005F
:104D0000070011001100020011000B001100080043
:104D100011000200344D001000300020340100006A
:104D2000304C0010D04D001034310020740D0000C4
:104D3000DE4C0010C1170201050303018309FF08BF
:104D40000B1209095359445F554152541401111370
:104D5000503082201360101B5024041A14041A18B7
:104D600004221052405818010203040506070809DE
:104D70000A1112131415161718191A1B1E1F1818CA
:104D800008090A0708111512162C1319141812D045
:104D90001C0150E004512324F4620413ED05232088
:104DA000DF1B208F081AC604134A0714201E061B97
:104DB0002014141A907019CE12401908298821E283
:104DC0000819141AFF010114091618B20200000094
:04000005100000C126
:00000001FF
