Component: ARM Compiler 5.06 (build 20) Tool: armlink [4d35a3]

==============================================================================

Section Cross References

    main.o(.text) refers to main.o(.text) for SetAdvParams
    main.o(.text) refers to debug.o(.text) for dbg_hexdump
    main.o(.text) refers to ota.o(.text) for ota_rsp
    main.o(.text) refers to uread4.o(.text) for __aeabi_uread4
    main.o(.text) refers to memcpya.o(.text) for __aeabi_memcpy
    main.o(.text) refers to main.o(i.__ARM_common_switch8) for __ARM_common_switch8
    main.o(.text) refers to gpio.o(.text) for GPIO_Set_Output
    main.o(.text) refers to main.o(.data) for .data
    main.o(.text) refers to gpio.o(.data) for PIN_CONFIG
    main.o(.text) refers to timer.o(.text) for Timer_Evt_Stop
    main.o(.text) refers to delay.o(.text) for delay_ms
    main.o(.text) refers to timer_handler.o(.text) for Timer_Evt_List
    main.o(.text) refers to rtc.o(.text) for SYD_RTC_Init
    main.o(.text) refers to rtc_handler.o(.text) for RTC_Evt_List
    main.o(.text) refers to uart.o(.text) for uart_0_init
    main.o(.text) refers to memseta.o(.text) for __aeabi_memclr
    main.o(.text) refers to uart_ota.o(.text) for uart_slave_ota_handle
    main.o(.text) refers to uwrite4.o(.text) for __aeabi_uwrite4
==============================================================================

Removing Unused input sections from the image.

    Removing main.o(.rev16_text), (4 bytes).
    Removing main.o(.revsh_text), (4 bytes).
    Removing main.o(.data), (1 bytes).
    Removing main.o(.data), (2 bytes).
    Removing main.o(.data), (1 bytes).
    Removing uart.o(.rev16_text), (4 bytes).
    Removing uart.o(.revsh_text), (4 bytes).
    Removing delay.o(.rev16_text), (4 bytes).
    Removing delay.o(.revsh_text), (4 bytes).
    Removing uart_ota.o(.rev16_text), (4 bytes).
    Removing uart_ota.o(.revsh_text), (4 bytes).
    Removing ota.o(.rev16_text), (4 bytes).
    Removing ota.o(.revsh_text), (4 bytes).
    Removing gpio.o(.rev16_text), (4 bytes).
    Removing gpio.o(.revsh_text), (4 bytes).
    Removing timer_handler.o(.rev16_text), (4 bytes).
    Removing timer_handler.o(.revsh_text), (4 bytes).
    Removing rtc_handler.o(.rev16_text), (4 bytes).
==============================================================================

Image Symbol Table

    Local Symbols

    Symbol Name                              Value     Ov Type        Size  Object(Section)

    ../clib/../cmprslib/zerorunl2.c          0x00000000   Number         0  __dczerorl2.o ABSOLUTE
    ../clib/microlib/division.c              0x00000000   Number         0  uldiv.o ABSOLUTE
    ../clib/microlib/division.c              0x00000000   Number         0  uidiv.o ABSOLUTE
    ../clib/microlib/division.c              0x00000000   Number         0  idiv.o ABSOLUTE
    ../clib/microlib/init/entry.s            0x00000000   Number         0  entry11a.o ABSOLUTE
    ../clib/microlib/init/entry.s            0x00000000   Number         0  entry7a.o ABSOLUTE
    ../clib/microlib/init/entry.s            0x00000000   Number         0  entry8b.o ABSOLUTE
    ../clib/microlib/init/entry.s            0x00000000   Number         0  entry5.o ABSOLUTE
    ../clib/microlib/init/entry.s            0x00000000   Number         0  entry10a.o ABSOLUTE
    ../clib/microlib/init/entry.s            0x00000000   Number         0  entry11b.o ABSOLUTE
    ../clib/microlib/init/entry.s            0x00000000   Number         0  entry10b.o ABSOLUTE
    ../clib/microlib/init/entry.s            0x00000000   Number         0  entry9b.o ABSOLUTE
    ../clib/microlib/init/entry.s            0x00000000   Number         0  entry2.o ABSOLUTE
    ../clib/microlib/init/entry.s            0x00000000   Number         0  entry7b.o ABSOLUTE
    ../clib/microlib/init/entry.s            0x00000000   Number         0  entry8a.o ABSOLUTE
    ../clib/microlib/init/entry.s            0x00000000   Number         0  entry.o ABSOLUTE
    ../clib/microlib/init/entry.s            0x00000000   Number         0  entry9a.o ABSOLUTE
    ../clib/microlib/longlong.c              0x00000000   Number         0  llsshr.o ABSOLUTE
    ../clib/microlib/longlong.c              0x00000000   Number         0  llushr.o ABSOLUTE
    ../clib/microlib/longlong.c              0x00000000   Number         0  llshl.o ABSOLUTE
    ../clib/microlib/printf/printf.c         0x00000000   Number         0  printfa.o ABSOLUTE
    ../clib/microlib/stdio/fputc.c           0x00000000   Number         0  fputc.o ABSOLUTE
    ../clib/microlib/stdio/semi.s            0x00000000   Number         0  semi.o ABSOLUTE
    ../clib/microlib/stdio/streams.c         0x00000000   Number         0  stdout.o ABSOLUTE
    ../clib/microlib/string/memcmp.c         0x00000000   Number         0  memcmp.o ABSOLUTE
    ../clib/microlib/string/memcpy.c         0x00000000   Number         0  memcpyb.o ABSOLUTE
    ../clib/microlib/string/memcpy.c         0x00000000   Number         0  memcpya.o ABSOLUTE
    ../clib/microlib/string/memset.c         0x00000000   Number         0  memseta.o ABSOLUTE
    ../clib/microlib/stubs.s                 0x00000000   Number         0  iusesemip.o ABSOLUTE
    ../clib/microlib/stubs.s                 0x00000000   Number         0  iusefp.o ABSOLUTE
    ../clib/microlib/unhosted.c              0x00000000   Number         0  uread4.o ABSOLUTE
    ../clib/microlib/unhosted.c              0x00000000   Number         0  uwrite4.o ABSOLUTE
    ../fplib/microlib/f2d.c                  0x00000000   Number         0  f2d.o ABSOLUTE
    ../fplib/microlib/fpadd.c                0x00000000   Number         0  dadd.o ABSOLUTE
    ../fplib/microlib/fpadd.c                0x00000000   Number         0  fadd.o ABSOLUTE
    ../fplib/microlib/fpdiv.c                0x00000000   Number         0  ddiv.o ABSOLUTE
    ../fplib/microlib/fpepilogue.c           0x00000000   Number         0  depilogue.o ABSOLUTE
    ../fplib/microlib/fpepilogue.c           0x00000000   Number         0  fepilogue.o ABSOLUTE
    ../fplib/microlib/fpfix.c                0x00000000   Number         0  dfixui.o ABSOLUTE
    ../fplib/microlib/fpfix.c                0x00000000   Number         0  dfixul.o ABSOLUTE
    ../fplib/microlib/fpflt.c                0x00000000   Number         0  ffltui.o ABSOLUTE
    ../fplib/microlib/fpflt.c                0x00000000   Number         0  dflti.o ABSOLUTE
    ../fplib/microlib/fpflt.c                0x00000000   Number         0  dfltui.o ABSOLUTE
    ../fplib/microlib/fpmul.c                0x00000000   Number         0  dmul.o ABSOLUTE
    ..\..\..\Driver\debug.c                  0x00000000   Number         0  debug.o ABSOLUTE
    ..\..\..\Driver\delay.c                  0x00000000   Number         0  delay.o ABSOLUTE
    ..\..\..\Driver\gpio.c                   0x00000000   Number         0  gpio.o ABSOLUTE
    ..\..\..\Rtt\SEGGER_RTT.c                0x00000000   Number         0  segger_rtt.o ABSOLUTE
    ..\..\..\Rtt\SEGGER_RTT_Syscalls_KEIL.c  0x00000000   Number         0  segger_rtt_syscalls_keil.o ABSOLUTE
    ..\..\..\Rtt\SEGGER_RTT_printf.c         0x00000000   Number         0  segger_rtt_printf.o ABSOLUTE
    ..\..\..\ble\ota.c                       0x00000000   Number         0  ota.o ABSOLUTE
    ..\\..\\..\\Driver\\debug.c              0x00000000   Number         0  debug.o ABSOLUTE
    ..\\..\\..\\Driver\\delay.c              0x00000000   Number         0  delay.o ABSOLUTE
    ..\\..\\..\\Driver\\gpio.c               0x00000000   Number         0  gpio.o ABSOLUTE
    ..\\..\\..\\Rtt\\SEGGER_RTT.c            0x00000000   Number         0  segger_rtt.o ABSOLUTE
    ..\\..\\..\\Rtt\\SEGGER_RTT_Syscalls_KEIL.c 0x00000000   Number         0  segger_rtt_syscalls_keil.o ABSOLUTE
    ..\\..\\..\\Rtt\\SEGGER_RTT_printf.c     0x00000000   Number         0  segger_rtt_printf.o ABSOLUTE
    ..\\..\\..\\ble\\ota.c                   0x00000000   Number         0  ota.o ABSOLUTE
    ..\\main.c                               0x00000000   Number         0  main.o ABSOLUTE
    ..\\rtc_handler.c                        0x00000000   Number         0  rtc_handler.o ABSOLUTE
    ..\\timer_handler.c                      0x00000000   Number         0  timer_handler.o ABSOLUTE
    ..\\uart.c                               0x00000000   Number         0  uart.o ABSOLUTE
    ..\\uart_ota.c                           0x00000000   Number         0  uart_ota.o ABSOLUTE
    ..\main.c                                0x00000000   Number         0  main.o ABSOLUTE
    ..\rtc_handler.c                         0x00000000   Number         0  rtc_handler.o ABSOLUTE
    ..\timer_handler.c                       0x00000000   Number         0  timer_handler.o ABSOLUTE
    ..\uart.c                                0x00000000   Number         0  uart.o ABSOLUTE
    ..\uart_ota.c                            0x00000000   Number         0  uart_ota.o ABSOLUTE
    Driver\\rtc.c                            0x00000000   Number         0  rtc.o ABSOLUTE
    Driver\\timer.c                          0x00000000   Number         0  timer.o ABSOLUTE
    Driver\rtc.c                             0x00000000   Number         0  rtc.o ABSOLUTE
    Driver\timer.c                           0x00000000   Number         0  timer.o ABSOLUTE
    Main\\main.c                             0x00000000   Number         0  main.o ABSOLUTE
    Main\main.c                              0x00000000   Number         0  main.o ABSOLUTE
    RTE\Device\ARMCM0\startup_ARMCM0.s       0x00000000   Number         0  startup_armcm0.o ABSOLUTE
    RTE\Device\ARMCM0\system_ARMCM0.c        0x00000000   Number         0  system_armcm0.o ABSOLUTE
    RTE\\Device\\ARMCM0\\system_ARMCM0.c     0x00000000   Number         0  system_armcm0.o ABSOLUTE
    cdrcmple.s                               0x00000000   Number         0  cdrcmple.o ABSOLUTE
    dc.s                                     0x00000000   Number         0  dc.o ABSOLUTE
    handlers.s                               0x00000000   Number         0  handlers.o ABSOLUTE
    init.s                                   0x00000000   Number         0  init.o ABSOLUTE
    RESET                                    0x10000000   Section      192  startup_armcm0.o(RESET)
    .ARM.Collect$$$$00000000                 0x100000c0   Section        0  entry.o(.ARM.Collect$$$$00000000)
    .ARM.Collect$$$$00000001                 0x100000c0   Section        4  entry2.o(.ARM.Collect$$$$00000001)
    .ARM.Collect$$$$00000004                 0x100000c4   Section        4  entry5.o(.ARM.Collect$$$$00000004)
    .ARM.Collect$$$$00000008                 0x100000c8   Section        0  entry7b.o(.ARM.Collect$$$$00000008)
    .ARM.Collect$$$$0000000A                 0x100000c8   Section        0  entry8b.o(.ARM.Collect$$$$0000000A)
    .ARM.Collect$$$$0000000B                 0x100000c8   Section        8  entry9a.o(.ARM.Collect$$$$0000000B)
    .ARM.Collect$$$$0000000D                 0x100000d0   Section        0  entry10a.o(.ARM.Collect$$$$0000000D)
    .ARM.Collect$$$$0000000F                 0x100000d0   Section        0  entry11a.o(.ARM.Collect$$$$0000000F)
    .ARM.Collect$$$$00002712                 0x100000d0   Section        4  entry2.o(.ARM.Collect$$$$00002712)
    __lit__00000000                          0x100000d0   Data           4  entry2.o(.ARM.Collect$$$$00002712)
    .text                                    0x100000d4   Section        0  main.o(.text)
    setup_adv_data                           0x100000d5   Thumb Code    92  main.o(.text)
    ble_gatt_read                            0x100001a9   Thumb Code   228  main.o(.text)
    ble_init                                 0x10000893   Thumb Code   114  main.o(.text)
    .text                                    0x10000a10   Section        0  uart.o(.text)
    __NVIC_EnableIRQ                         0x10000cf5   Thumb Code    18  uart.o(.text)
    __NVIC_DisableIRQ                        0x10000d07   Thumb Code    28  uart.o(.text)
    .text                                    0x10000d38   Section        0  delay.o(.text)
    .text                                    0x10000d70   Section        0  uart_ota.o(.text)
    uart_master_ota_cmd_write                0x10000dd5   Thumb Code   210  uart_ota.o(.text)
    Uart_Slave_OTA_CMD_Complete              0x10000fb9   Thumb Code    30  uart_ota.o(.text)
    Uart_Slave_OTA_Cmd_Upgrade               0x10000fd7   Thumb Code    96  uart_ota.o(.text)
    .text                                    0x100011f0   Section        0  ota.o(.text)
    EvtCommandComplete                       0x100011f1   Thumb Code    24  ota.o(.text)
    Cmd4KSETTINGWrite                        0x10001455   Thumb Code    76  ota.o(.text)
    CmdFwWriteStart                          0x100014a1   Thumb Code    30  ota.o(.text)
    CmdFwUpgradev20                          0x100014bf   Thumb Code   106  ota.o(.text)
    CmdFlashdataUpgradev30                   0x10001529   Thumb Code    76  ota.o(.text)
    .text                                    0x100016e4   Section        0  gpio.o(.text)
    .text                                    0x10001b34   Section        0  timer_handler.o(.text)
    .text                                    0x10001b80   Section        0  rtc_handler.o(.text)
    .text                                    0x10001bac   Section        0  debug.o(.text)
    .text                                    0x10001c24   Section       28  startup_armcm0.o(.text)
    .text                                    0x10001c40   Section        0  system_armcm0.o(.text)
    .text                                    0x10001c58   Section        0  main.o(.text)
    _LCDisConnect                            0x10001c59   Thumb Code    46  main.o(.text)
    _LCTimer_Handler                         0x10001c87   Thumb Code   248  main.o(.text)
    _LCRxPkt_Handler                         0x10001dd3   Thumb Code   294  main.o(.text)
    _LCTxPkt_Handler                         0x10001ef9   Thumb Code   380  main.o(.text)
    _LLENCReq                                0x100027df   Thumb Code   286  main.o(.text)
    _GAPStartAdv                             0x10002e3f   Thumb Code   558  main.o(.text)
    WaitLLCOverSlpth                         0x1000426b   Thumb Code    38  main.o(.text)
    _BBRXFIFORead                            0x10004291   Thumb Code   172  main.o(.text)
    _rom_rx_sweyntooth_protect               0x1000433d   Thumb Code   150  main.o(.text)
    STKSetRand                               0x100043d3   Thumb Code    30  main.o(.text)
    AttWriteFlash                            0x100043f1   Thumb Code   110  main.o(.text)
    GetOverSlpth                             0x1000445f   Thumb Code    26  main.o(.text)
    .text                                    0x10004488   Section        0  timer.o(.text)
    Timer_Evt_Trigger                        0x10004571   Thumb Code   110  timer.o(.text)
    __NVIC_EnableIRQ                         0x10004a81   Thumb Code    18  timer.o(.text)
    __NVIC_DisableIRQ                        0x10004a93   Thumb Code    28  timer.o(.text)
    .text                                    0x10004abc   Section        0  rtc.o(.text)
    Timer_RTCEVT_Trigger                     0x10004c4b   Thumb Code   150  rtc.o(.text)
    .text                                    0x10005084   Section        0  uidiv.o(.text)
    .text                                    0x100050b0   Section        0  idiv.o(.text)
    .text                                    0x100050d8   Section        0  memcpya.o(.text)
    .text                                    0x100050fc   Section        0  memseta.o(.text)
    .text                                    0x10005120   Section        0  memcmp.o(.text)
    .text                                    0x1000513a   Section        0  uread4.o(.text)
    .text                                    0x1000514e   Section        0  uwrite4.o(.text)
    .text                                    0x10005160   Section        0  fadd.o(.text)
    .text                                    0x10005214   Section        0  dadd.o(.text)
    .text                                    0x10005378   Section        0  dmul.o(.text)
    .text                                    0x10005448   Section        0  ddiv.o(.text)
    .text                                    0x10005538   Section        0  ffltui.o(.text)
    .text                                    0x10005548   Section        0  dflti.o(.text)
    .text                                    0x10005570   Section        0  dfltui.o(.text)
    .text                                    0x1000558c   Section        0  dfixui.o(.text)
    .text                                    0x100055c8   Section        0  f2d.o(.text)
    .text                                    0x100055f0   Section        0  uldiv.o(.text)
    .text                                    0x10005650   Section        0  llshl.o(.text)
    .text                                    0x10005670   Section        0  llushr.o(.text)
    .text                                    0x10005692   Section        0  llsshr.o(.text)
    .text                                    0x100056b8   Section        0  iusefp.o(.text)
    .text                                    0x100056b8   Section        0  fepilogue.o(.text)
    .text                                    0x1000573a   Section        0  depilogue.o(.text)
    .text                                    0x100057f8   Section        0  dfixul.o(.text)
    .text                                    0x10005838   Section       40  cdrcmple.o(.text)
    .text                                    0x10005860   Section       36  init.o(.text)
    .text                                    0x10005884   Section        0  __dczerorl2.o(.text)
    i.__0vsprintf                            0x100058dc   Section        0  printfa.o(i.__0vsprintf)
    i.__ARM_clz                              0x10005900   Section        0  depilogue.o(i.__ARM_clz)
    i.__ARM_common_switch8                   0x1000592e   Section        0  main.o(i.__ARM_common_switch8)
    i.__scatterload_copy                     0x10005948   Section       14  handlers.o(i.__scatterload_copy)
    i.__scatterload_null                     0x10005956   Section        2  handlers.o(i.__scatterload_null)
    i.__scatterload_zeroinit                 0x10005958   Section       14  handlers.o(i.__scatterload_zeroinit)
    i._fp_digits                             0x10005968   Section        0  printfa.o(i._fp_digits)
    _fp_digits                               0x10005969   Thumb Code   316  printfa.o(i._fp_digits)
    i._printf_core                           0x10005ac0   Section        0  printfa.o(i._printf_core)
    _printf_core                             0x10005ac1   Thumb Code  1754  printfa.o(i._printf_core)
    i._printf_post_padding                   0x100061ac   Section        0  printfa.o(i._printf_post_padding)
    _printf_post_padding                     0x100061ad   Thumb Code    32  printfa.o(i._printf_post_padding)
    i._printf_pre_padding                    0x100061cc   Section        0  printfa.o(i._printf_pre_padding)
    _printf_pre_padding                      0x100061cd   Thumb Code    44  printfa.o(i._printf_pre_padding)
    i._sputc                                 0x100061f8   Section        0  printfa.o(i._sputc)
    _sputc                                   0x100061f9   Thumb Code    10  printfa.o(i._sputc)
    .constdata                               0x10006202   Section    20556  main.o(.constdata)
    .constdata                               0x1000b24e   Section       40  main.o(.constdata)
    _ll_packet_length                        0x1000b251   Data          15  main.o(.constdata)
    _smp_packet_lenght                       0x1000b260   Data          22  main.o(.constdata)
    .data                                    0x20003000   Section       54  main.o(.data)
    start_tx                                 0x20003002   Data           1  main.o(.data)
    g_report                                 0x2000300c   Data           4  main.o(.data)
    dev_addr                                 0x20003010   Data           7  main.o(.data)
    .data                                    0x20003038   Section        8  uart.o(.data)
    UART_0_CTRL                              0x20003038   Data           4  uart.o(.data)
    UART_1_CTRL                              0x2000303c   Data           4  uart.o(.data)
    .data                                    0x20003040   Section        2  uart_ota.o(.data)
    .data                                    0x20003044   Section       28  ota.o(.data)
    EvtBuf                                   0x20003058   Data           8  ota.o(.data)
    .data                                    0x20003060   Section       72  gpio.o(.data)
    gpio_callback                            0x20003074   Data           4  gpio.o(.data)
    pinmuxtab48                              0x20003078   Data          24  gpio.o(.data)
    pinmuxtab32                              0x20003090   Data          24  gpio.o(.data)
    .data                                    0x200030a8   Section        4  rtc_handler.o(.data)
    .data                                    0x200030ac   Section        4  system_armcm0.o(.data)
    .data                                    0x200030b0   Section       64  main.o(.data)
    syd_confirm                              0x200030b0   Data           1  main.o(.data)
    ww_minus_cnt                             0x200030b1   Data           1  main.o(.data)
    ext_uart_en                              0x200030b2   Data           1  main.o(.data)
    get_bond_device_idx                      0x200030b3   Data           1  main.o(.data)
    _valid_l2cap_lenght                      0x200030b5   Data           1  main.o(.data)
    rssi_rx                                  0x200030b7   Data           1  main.o(.data)
    p_flash_hdr                              0x200030b8   Data           4  main.o(.data)
    p_lclink                                 0x200030bc   Data           4  main.o(.data)
    p_txpdu                                  0x200030c0   Data           4  main.o(.data)
    p_rxbuf                                  0x200030c4   Data           4  main.o(.data)
    p_flash                                  0x200030c8   Data           4  main.o(.data)
    p_dump_key                               0x200030d0   Data           4  main.o(.data)
    EFUSE_CTRL                               0x200030d4   Data           4  main.o(.data)
    BB_CTRL                                  0x200030d8   Data           4  main.o(.data)
    PW_CTRL                                  0x200030dc   Data           4  main.o(.data)
    PIN_CONFIG                               0x200030e0   Data           4  main.o(.data)
    CONFIG_FLASH_SIZE                        0x200030e4   Data           4  main.o(.data)
    g_evt                                    0x200030e8   Data           8  main.o(.data)
    .data                                    0x200030f0   Section       28  timer.o(.data)
    TIMER_CTRL                               0x200030f4   Data           4  timer.o(.data)
    .data                                    0x2000310c   Section       40  rtc.o(.data)
    enabled                                  0x2000310c   Data           1  rtc.o(.data)
    irq_cb                                   0x2000312c   Data           4  rtc.o(.data)
    .bss                                     0x20003134   Section      515  uart.o(.bss)
    .bss                                     0x20003337   Section       24  uart_ota.o(.bss)
    .bss                                     0x20003350   Section       40  ota.o(.bss)
    .bss                                     0x20003378   Section       48  timer_handler.o(.bss)
    .bss                                     0x200033a8   Section       24  rtc_handler.o(.bss)
    .bss                                     0x200033c0   Section      128  debug.o(.bss)
    s_formatBuffer                           0x200033c0   Data         128  debug.o(.bss)
    .bss                                     0x20003440   Section      104  main.o(.bss)
    code_hdr                                 0x20003440   Data          87  main.o(.bss)
    smart_update_ctrol                       0x20003497   Data          17  main.o(.bss)
    .bss                                     0x200034a8   Section       12  timer.o(.bss)
    timer_callback                           0x200034a8   Data          12  timer.o(.bss)
    STACK                                    0x200034b8   Section     4096  startup_armcm0.o(STACK)

    Global Symbols

    Symbol Name                              Value     Ov Type        Size  Object(Section)

    BuildAttributes$$THM_ISAv3M$S$PE$A:L22$X:L11$S22$IEEE1$IW$USESV6$~STKCKD$USESV7$~SHL$OTIME$ROPI$EBA8$MICROLIB$REQ8$PRES8$EABIv2 0x00000000   Number         0  anon$$obj.o ABSOLUTE
    __ARM_use_no_argv                        0x00000000   Number         0  main.o ABSOLUTE
    __cpp_initialize__aeabi_                  - Undefined Weak Reference
    __cxa_finalize                            - Undefined Weak Reference
    _clock_init                               - Undefined Weak Reference
    _microlib_exit                            - Undefined Weak Reference
    __Vectors_Size                           0x000000c0   Number         0  startup_armcm0.o ABSOLUTE
    __Vectors                                0x10000000   Data           4  startup_armcm0.o(RESET)
    __Vectors_End                            0x100000c0   Data           0  startup_armcm0.o(RESET)
    __main                                   0x100000c1   Thumb Code     0  entry.o(.ARM.Collect$$$$00000000)
    _main_stk                                0x100000c1   Thumb Code     0  entry2.o(.ARM.Collect$$$$00000001)
    _main_scatterload                        0x100000c5   Thumb Code     0  entry5.o(.ARM.Collect$$$$00000004)
    __main_after_scatterload                 0x100000c9   Thumb Code     0  entry5.o(.ARM.Collect$$$$00000004)
    _main_clock                              0x100000c9   Thumb Code     0  entry7b.o(.ARM.Collect$$$$00000008)
    _main_cpp_init                           0x100000c9   Thumb Code     0  entry8b.o(.ARM.Collect$$$$0000000A)
    _main_init                               0x100000c9   Thumb Code     0  entry9a.o(.ARM.Collect$$$$0000000B)
    __rt_final_cpp                           0x100000d1   Thumb Code     0  entry10a.o(.ARM.Collect$$$$0000000D)
    __rt_final_exit                          0x100000d1   Thumb Code     0  entry11a.o(.ARM.Collect$$$$0000000F)
    BLSetConnectionUpdate                    0x10000131   Thumb Code    74  main.o(.text)
    BLE_SendData                             0x1000017b   Thumb Code    46  main.o(.text)
    ble_evt_callback                         0x1000028d   Thumb Code   452  main.o(.text)
    gpio_init                                0x10000451   Thumb Code   624  main.o(.text)
    ota_manage                               0x100006c1   Thumb Code   108  main.o(.text)
    gpio_callback                            0x1000072d   Thumb Code     2  main.o(.text)
    main                                     0x1000072f   Thumb Code   348  main.o(.text)
    HardFault_Handler                        0x1000088b   Thumb Code     8  main.o(.text)
    uart_0_init                              0x10000a11   Thumb Code   172  uart.o(.text)
    uart_0_write                             0x10000abd   Thumb Code    22  uart.o(.text)
    uart_0_read                              0x10000ad3   Thumb Code    52  uart.o(.text)
    uart_0_close                             0x10000b07   Thumb Code    22  uart.o(.text)
    UART0_IRQHandler                         0x10000b1d   Thumb Code    34  uart.o(.text)
    uart_1_init                              0x10000b3f   Thumb Code   172  uart.o(.text)
    uart_1_write                             0x10000beb   Thumb Code    22  uart.o(.text)
    uart_1_read                              0x10000c01   Thumb Code    58  uart.o(.text)
    uart_1_close                             0x10000c3b   Thumb Code    22  uart.o(.text)
    uart_send                                0x10000c51   Thumb Code    38  uart.o(.text)
    UART1_IRQHandler                         0x10000c77   Thumb Code   126  uart.o(.text)
    delay_ms                                 0x10000d39   Thumb Code    26  delay.o(.text)
    delay_us                                 0x10000d53   Thumb Code    24  delay.o(.text)
    uart_slave_ota_handle                    0x10000d71   Thumb Code   100  uart_ota.o(.text)
    uart_master_ota_init                     0x10000ea7   Thumb Code    96  uart_ota.o(.text)
    uart_master_ota_start                    0x10000f07   Thumb Code    48  uart_ota.o(.text)
    uart_master_ota_handle                   0x10000f37   Thumb Code   130  uart_ota.o(.text)
    CmdFwErase                               0x10001209   Thumb Code    22  ota.o(.text)
    ota_variable_clear                       0x1000121f   Thumb Code    24  ota.o(.text)
    ota_cmd                                  0x10001237   Thumb Code   506  ota.o(.text)
    ota_rsp                                  0x10001431   Thumb Code    36  ota.o(.text)
    PIN_Set_GPIO                             0x100016e5   Thumb Code    32  gpio.o(.text)
    PIN_Pullup_Enable                        0x10001705   Thumb Code   104  gpio.o(.text)
    PIN_Pullup_Disable                       0x1000176d   Thumb Code   104  gpio.o(.text)
    GPIO_Set_Output                          0x100017d5   Thumb Code    46  gpio.o(.text)
    GPIO_Set_Input                           0x10001803   Thumb Code   170  gpio.o(.text)
    GPIO_Set_Input_DIR                       0x100018ad   Thumb Code    46  gpio.o(.text)
    GPIO_Input_Enable                        0x100018db   Thumb Code    46  gpio.o(.text)
    GPIO_Input_Disable                       0x10001909   Thumb Code    46  gpio.o(.text)
    GPIO_Pin_Set                             0x10001937   Thumb Code    46  gpio.o(.text)
    GPIO_Pin_Clear                           0x10001965   Thumb Code    46  gpio.o(.text)
    GPIO_Pin_Turn                            0x10001993   Thumb Code    46  gpio.o(.text)
    GPIO_Pin_Read                            0x100019c1   Thumb Code    32  gpio.o(.text)
    io_irq_enable                            0x100019e1   Thumb Code   112  gpio.o(.text)
    io_irq_disable                           0x10001a51   Thumb Code    50  gpio.o(.text)
    io_irq_disable_all                       0x10001a83   Thumb Code    48  gpio.o(.text)
    GPIO_IRQHandler                          0x10001ab3   Thumb Code   128  gpio.o(.text)
    Timer_Evt_2s                             0x10001b35   Thumb Code    14  timer_handler.o(.text)
    Timer_EVT_1S_OTA                         0x10001b43   Thumb Code    14  timer_handler.o(.text)
    Timer_Evt_List                           0x10001b51   Thumb Code    36  timer_handler.o(.text)
    RTC_Evt_185s                             0x10001b81   Thumb Code    12  rtc_handler.o(.text)
    RTC_Evt_List                             0x10001b8d   Thumb Code    22  rtc_handler.o(.text)
    dbg_init                                 0x10001bad   Thumb Code     8  debug.o(.text)
    dbg_printf                               0x10001bb5   Thumb Code    54  debug.o(.text)
    dbg_hexdump                              0x10001beb   Thumb Code    40  debug.o(.text)
    Reset_Handler                            0x10001c25   Thumb Code     8  startup_armcm0.o(.text)
    NMI_Handler                              0x10001c2d   Thumb Code     2  startup_armcm0.o(.text)
    SVC_Handler                              0x10001c31   Thumb Code     2  startup_armcm0.o(.text)
    PendSV_Handler                           0x10001c33   Thumb Code     2  startup_armcm0.o(.text)
    SysTick_Handler                          0x10001c35   Thumb Code     2  startup_armcm0.o(.text)
    CAP_IRQHandler                           0x10001c37   Thumb Code     0  startup_armcm0.o(.text)
    GPADC_IRQHandler                         0x10001c37   Thumb Code     0  startup_armcm0.o(.text)
    HID_IRQHandler                           0x10001c37   Thumb Code     0  startup_armcm0.o(.text)
    HPWM_IRQHandler                          0x10001c37   Thumb Code     0  startup_armcm0.o(.text)
    HTIMER_IRQHandler                        0x10001c37   Thumb Code     0  startup_armcm0.o(.text)
    I2C0_IRQHandler                          0x10001c37   Thumb Code     0  startup_armcm0.o(.text)
    I2C1_IRQHandler                          0x10001c37   Thumb Code     0  startup_armcm0.o(.text)
    IR_Rx_IRQHandler                         0x10001c37   Thumb Code     0  startup_armcm0.o(.text)
    IR_Tx_IRQHandler                         0x10001c37   Thumb Code     0  startup_armcm0.o(.text)
    ISO_7816_IRQHandler                      0x10001c37   Thumb Code     0  startup_armcm0.o(.text)
    LLC2_IRQHandler                          0x10001c37   Thumb Code     0  startup_armcm0.o(.text)
    LLC_IRQHandler                           0x10001c37   Thumb Code     0  startup_armcm0.o(.text)
    SPIM_IRQHandler                          0x10001c37   Thumb Code     0  startup_armcm0.o(.text)
    SW_IRQHandler                            0x10001c37   Thumb Code     0  startup_armcm0.o(.text)
    TIMER3_IRQHandler                        0x10001c37   Thumb Code     0  startup_armcm0.o(.text)
    TOUCH_IRQHandler                         0x10001c37   Thumb Code     0  startup_armcm0.o(.text)
    SystemCoreClockUpdate                    0x10001c41   Thumb Code     8  system_armcm0.o(.text)
    SystemInit                               0x10001c49   Thumb Code     8  system_armcm0.o(.text)
    LLPingReq                                0x10001d7f   Thumb Code    26  main.o(.text)
    LLScanReqHandle                          0x10001d99   Thumb Code    58  main.o(.text)
    _BBGetMask                               0x10002075   Thumb Code    92  main.o(.text)
    Lib_LLEvtCallback                        0x100020d1   Thumb Code   186  main.o(.text)
    ConnectionLatencyMode                    0x1000218b   Thumb Code   112  main.o(.text)
    sw_timer_latency_callback                0x100021fb   Thumb Code    42  main.o(.text)
    TimerStart                               0x10002225   Thumb Code    10  main.o(.text)
    smart_latency_start                      0x1000222f   Thumb Code   212  main.o(.text)
    smart_update_latency_updatersp           0x10002303   Thumb Code   162  main.o(.text)
    BBRFRead                                 0x100023a5   Thumb Code     4  main.o(.text)
    BBRFWrite                                0x100023a9   Thumb Code     6  main.o(.text)
    RCOSCCalibration                         0x100023af   Thumb Code    64  main.o(.text)
    RFSleep                                  0x100023ef   Thumb Code    10  main.o(.text)
    UartEn                                   0x100023f9   Thumb Code    32  main.o(.text)
    _SYS32kClockSwitch                       0x10002419   Thumb Code   270  main.o(.text)
    ClockSwitch                              0x10002527   Thumb Code    10  main.o(.text)
    RFWakeup                                 0x10002531   Thumb Code    22  main.o(.text)
    LPOCalibration                           0x10002547   Thumb Code   254  main.o(.text)
    smart_latency_clear                      0x10002645   Thumb Code    12  main.o(.text)
    Lib_EvtCallback                          0x10002651   Thumb Code   254  main.o(.text)
    _BMGetNextBondDevice                     0x1000274f   Thumb Code   144  main.o(.text)
    __LLVersionIndRxHandler                  0x100028fd   Thumb Code    66  main.o(.text)
    GetMasterSystem                          0x1000293f   Thumb Code     6  main.o(.text)
    TimerStop                                0x10002945   Thumb Code     4  main.o(.text)
    smart_update_retry                       0x10002949   Thumb Code   158  main.o(.text)
    sw_timer_update_callback                 0x100029e7   Thumb Code    60  main.o(.text)
    smart_update_latency_updatareq           0x10002a23   Thumb Code   496  main.o(.text)
    Lib_ProtocolHookCallback                 0x10002c13   Thumb Code   116  main.o(.text)
    Lib_MiscCallback                         0x10002c87   Thumb Code    14  main.o(.text)
    BleInit                                  0x10002c95   Thumb Code   344  main.o(.text)
    DisConnect                               0x10002ded   Thumb Code    10  main.o(.text)
    SetDevAddr                               0x10002df7   Thumb Code    12  main.o(.text)
    GetDevAddr                               0x10002e03   Thumb Code    12  main.o(.text)
    SetLEFeature                             0x10002e0f   Thumb Code    12  main.o(.text)
    SetAdvAccCode                            0x10002e1b   Thumb Code    12  main.o(.text)
    SetAdvParams                             0x10002e27   Thumb Code    12  main.o(.text)
    SetAdvData                               0x10002e33   Thumb Code    12  main.o(.text)
    StartAdv                                 0x1000306d   Thumb Code    10  main.o(.text)
    StopAdv                                  0x10003077   Thumb Code    24  main.o(.text)
    StopAdv_Noreset                          0x1000308f   Thumb Code    38  main.o(.text)
    SetScanParams                            0x100030b5   Thumb Code    10  main.o(.text)
    _BBSetScan                               0x100030bf   Thumb Code    46  main.o(.text)
    _GAPStartScan                            0x100030ed   Thumb Code   254  main.o(.text)
    StartScan                                0x100031eb   Thumb Code    10  main.o(.text)
    StopScan                                 0x100031f5   Thumb Code    10  main.o(.text)
    SetSecParams                             0x100031ff   Thumb Code    12  main.o(.text)
    SetConnectionUpdate                      0x1000320b   Thumb Code    12  main.o(.text)
    GetLinkParameters                        0x10003217   Thumb Code    12  main.o(.text)
    SetWinWideMinusCnt                       0x10003223   Thumb Code     8  main.o(.text)
    SetPasskey                               0x1000322b   Thumb Code    12  main.o(.text)
    SecurityReq                              0x10003237   Thumb Code    12  main.o(.text)
    SetEvtCallback                           0x10003243   Thumb Code    54  main.o(.text)
    GetGATTReportHandle                      0x10003279   Thumb Code    10  main.o(.text)
    SetGATTReadRsp                           0x10003283   Thumb Code    12  main.o(.text)
    CheckFIFOFull                            0x1000328f   Thumb Code    18  main.o(.text)
    GATTDataSend                             0x100032a1   Thumb Code    86  main.o(.text)
    ATTCSetCallback                          0x100032f7   Thumb Code     4  main.o(.text)
    ATTCMTUReq                               0x100032fb   Thumb Code    24  main.o(.text)
    ATTCFindInfoReq                          0x10003313   Thumb Code    28  main.o(.text)
    ATTCFindByTypeValueReq                   0x1000332f   Thumb Code    40  main.o(.text)
    ATTCReadByTypeReq                        0x10003357   Thumb Code    36  main.o(.text)
    ATTCReadReq                              0x1000337b   Thumb Code    24  main.o(.text)
    ATTCReadBlobReq                          0x10003393   Thumb Code    28  main.o(.text)
    ATTCReadMultipleReq                      0x100033af   Thumb Code    28  main.o(.text)
    ATTCReadByGroupTypeReq                   0x100033cb   Thumb Code    34  main.o(.text)
    ATTCWriteReq                             0x100033ed   Thumb Code    32  main.o(.text)
    ATTCWriteCmdReq                          0x1000340d   Thumb Code    32  main.o(.text)
    ATTCPrepareWriteReq                      0x1000342d   Thumb Code    36  main.o(.text)
    ATTCExecuteWriteReq                      0x10003451   Thumb Code    24  main.o(.text)
    ATTCConfirmation                         0x10003469   Thumb Code    20  main.o(.text)
    _SYSClockSwitch                          0x1000347d   Thumb Code    86  main.o(.text)
    MCUClockSwitch                           0x100034d3   Thumb Code     2  main.o(.text)
    GetMCUClock                              0x100034d5   Thumb Code    14  main.o(.text)
    GetClock                                 0x100034e3   Thumb Code    16  main.o(.text)
    WakeupConfig                             0x100034f3   Thumb Code    12  main.o(.text)
    LLSleep                                  0x100034ff   Thumb Code    12  main.o(.text)
    Rand                                     0x1000350b   Thumb Code     4  main.o(.text)
    DelayUS                                  0x1000350f   Thumb Code     4  main.o(.text)
    DelayMS                                  0x10003513   Thumb Code     6  main.o(.text)
    GetCompanyID                             0x10003519   Thumb Code    18  main.o(.text)
    GetQFNType                               0x1000352b   Thumb Code    20  main.o(.text)
    RFRead                                   0x1000353f   Thumb Code    70  main.o(.text)
    RFWrite                                  0x10003585   Thumb Code     8  main.o(.text)
    lib_check_ble_fsm_state                  0x1000358d   Thumb Code    26  main.o(.text)
    SystemSleep                              0x100035a7   Thumb Code    18  main.o(.text)
    SystemPowerDown                          0x100035b9   Thumb Code    78  main.o(.text)
    SystemReset                              0x10003607   Thumb Code    12  main.o(.text)
    CapdetEn                                 0x10003613   Thumb Code    10  main.o(.text)
    PowerDownLPOEn                           0x1000361d   Thumb Code    12  main.o(.text)
    SetBondManagerIndex                      0x10003629   Thumb Code    12  main.o(.text)
    GetBondDevice                            0x10003635   Thumb Code     6  main.o(.text)
    AddBondDevice                            0x1000363b   Thumb Code    12  main.o(.text)
    DelAllBondDevice                         0x10003647   Thumb Code    10  main.o(.text)
    DelBondDevice                            0x10003651   Thumb Code    12  main.o(.text)
    ReadProfileData                          0x1000365d   Thumb Code     6  main.o(.text)
    WriteProfileData                         0x10003663   Thumb Code     6  main.o(.text)
    EraseFlashData                           0x10003669   Thumb Code    78  main.o(.text)
    ReadFlashData                            0x100036b7   Thumb Code    56  main.o(.text)
    WriteFlashData                           0x100036ef   Thumb Code    56  main.o(.text)
    CodeErase                                0x10003727   Thumb Code   100  main.o(.text)
    CodeErase_sector                         0x1000378b   Thumb Code    72  main.o(.text)
    _FMCodeWrite                             0x100037d3   Thumb Code    58  main.o(.text)
    CodeWrite                                0x1000380d   Thumb Code    30  main.o(.text)
    CodeUpdate                               0x1000382b   Thumb Code    10  main.o(.text)
    FlashDataUpdate                          0x10003835   Thumb Code   124  main.o(.text)
    ble_sched_execute                        0x100038b1   Thumb Code   150  main.o(.text)
    ble_sched_finish                         0x10003947   Thumb Code     4  main.o(.text)
    syd52832_chip_confirm                    0x1000394b   Thumb Code    26  main.o(.text)
    gap_s_smart_update_latency               0x10003965   Thumb Code   246  main.o(.text)
    eFuseManual                              0x10003a5b   Thumb Code    28  main.o(.text)
    GPADC_Manual_Calibration                 0x10003a77   Thumb Code    34  main.o(.text)
    GPADC_Get_Calibration                    0x10003a99   Thumb Code    22  main.o(.text)
    GAPGetUartEn                             0x10003aaf   Thumb Code     6  main.o(.text)
    GAPUartEn                                0x10003ab5   Thumb Code     6  main.o(.text)
    GAPBBDelayUS                             0x10003abb   Thumb Code     4  main.o(.text)
    GAPBBDelayMS                             0x10003abf   Thumb Code     6  main.o(.text)
    GAPGetRFAutoSleep                        0x10003ac5   Thumb Code     4  main.o(.text)
    GAPSetRFAutoSleep                        0x10003ac9   Thumb Code     6  main.o(.text)
    Setting4kUpdate                          0x10003acf   Thumb Code   116  main.o(.text)
    SetDevAddr_toflash                       0x10003b43   Thumb Code    72  main.o(.text)
    gap_s_verdor_datas_get                   0x10003b8b   Thumb Code    28  main.o(.text)
    gap_s_verdor_datas_set                   0x10003ba7   Thumb Code    66  main.o(.text)
    gap_s_is_ll_start_enc                    0x10003be9   Thumb Code    26  main.o(.text)
    GAPBBTXFIFO0Write                        0x10003c03   Thumb Code     4  main.o(.text)
    flash_peotect_key_confirm                0x10003c07   Thumb Code   148  main.o(.text)
    swd_lock                                 0x10003c9b   Thumb Code    36  main.o(.text)
    flash_data_offect_get                    0x10003cbf   Thumb Code    52  main.o(.text)
    EraseCodeB                               0x10003cf3   Thumb Code    58  main.o(.text)
    ReadCodeB                                0x10003d2d   Thumb Code    64  main.o(.text)
    WriteCodeB                               0x10003d6d   Thumb Code    96  main.o(.text)
    ble_SetTxPower                           0x10003dcd   Thumb Code   248  main.o(.text)
    flash_data_size_get                      0x10003ec5   Thumb Code    18  main.o(.text)
    code_idx_get                             0x10003ed7   Thumb Code     6  main.o(.text)
    flash_data_size_set                      0x10003edd   Thumb Code   146  main.o(.text)
    Get_RSSI_Last_RX                         0x10003f6f   Thumb Code    82  main.o(.text)
    APP_Read_Attribute_Encrypt               0x10003fc1   Thumb Code    62  main.o(.text)
    APP_Write_Attribute_Encrypt              0x10003fff   Thumb Code    66  main.o(.text)
    APP_Read_Charact_Permission              0x10004041   Thumb Code    66  main.o(.text)
    smart_latency_target                     0x10004083   Thumb Code    30  main.o(.text)
    smp_aes_encrypt                          0x100040a1   Thumb Code     4  main.o(.text)
    gap_get_flash_data_info                  0x100040a5   Thumb Code    26  main.o(.text)
    gap_set_flash_data_info                  0x100040bf   Thumb Code    70  main.o(.text)
    gap_check_dev_bonded                     0x10004105   Thumb Code     6  main.o(.text)
    syd_set_chip_flash_all_size              0x1000410b   Thumb Code     6  main.o(.text)
    Xtal_trim_get                            0x10004111   Thumb Code   106  main.o(.text)
    Xtal_trim_set                            0x1000417b   Thumb Code   164  main.o(.text)
    flash_read_sfdp                          0x1000421f   Thumb Code    46  main.o(.text)
    syd_read_unique_id                       0x1000424d   Thumb Code    30  main.o(.text)
    Timer_Evt_Creat                          0x10004489   Thumb Code    54  timer.o(.text)
    Min                                      0x100044bf   Thumb Code     8  timer.o(.text)
    TimerDelayUS                             0x100044c7   Thumb Code    24  timer.o(.text)
    timer_0_disable                          0x100044df   Thumb Code    48  timer.o(.text)
    timer_0_enable                           0x1000450f   Thumb Code    96  timer.o(.text)
    timer_0_start                            0x1000456f   Thumb Code     2  timer.o(.text)
    timer_0_get                              0x100045df   Thumb Code    92  timer.o(.text)
    Timer_Evt_Stop                           0x1000463b   Thumb Code   120  timer.o(.text)
    Timer_Evt_ReSet                          0x100046b3   Thumb Code    64  timer.o(.text)
    Timer_Evt_Clr                            0x100046f3   Thumb Code    10  timer.o(.text)
    Timer_Evt_Start                          0x100046fd   Thumb Code   156  timer.o(.text)
    Timer_Evt_ReStart                        0x10004799   Thumb Code   132  timer.o(.text)
    Timer_Get_State                          0x1000481d   Thumb Code    34  timer.o(.text)
    SYD_Timer_Init                           0x1000483f   Thumb Code    34  timer.o(.text)
    timer_0_delay_32us                       0x10004861   Thumb Code    92  timer.o(.text)
    TIMER0_IRQHandler                        0x100048bd   Thumb Code    32  timer.o(.text)
    timer_1_enable                           0x100048dd   Thumb Code    96  timer.o(.text)
    timer_1_disable                          0x1000493d   Thumb Code    48  timer.o(.text)
    TIMER1_IRQHandler                        0x1000496d   Thumb Code    32  timer.o(.text)
    timer_2_enable                           0x1000498d   Thumb Code    96  timer.o(.text)
    timer_1_get                              0x100049ed   Thumb Code    34  timer.o(.text)
    timer_2_get                              0x10004a0f   Thumb Code    34  timer.o(.text)
    timer_2_disable                          0x10004a31   Thumb Code    48  timer.o(.text)
    TIMER2_IRQHandler                        0x10004a61   Thumb Code    32  timer.o(.text)
    rtc_get_calendar                         0x10004abd   Thumb Code    40  rtc.o(.text)
    RTC_RUN                                  0x10004ae5   Thumb Code    66  rtc.o(.text)
    rtc_set_compare                          0x10004b27   Thumb Code    68  rtc.o(.text)
    RTC_SET                                  0x10004b6b   Thumb Code    84  rtc.o(.text)
    RTC_Refressh                             0x10004bbf   Thumb Code    76  rtc.o(.text)
    RTC_EVT_Creat                            0x10004c0b   Thumb Code    32  rtc.o(.text)
    Min_RTC                                  0x10004c2b   Thumb Code     8  rtc.o(.text)
    rtc_int_disable                          0x10004c33   Thumb Code    24  rtc.o(.text)
    RTC_EVT_Clr                              0x10004ce1   Thumb Code    10  rtc.o(.text)
    RTC_EVT_Stop                             0x10004ceb   Thumb Code   112  rtc.o(.text)
    RTC_EVT_Start                            0x10004d5b   Thumb Code   146  rtc.o(.text)
    RTC_EVT_whole_minute_setid               0x10004ded   Thumb Code     6  rtc.o(.text)
    RTC_EVT_whole_minute_adj                 0x10004df3   Thumb Code   132  rtc.o(.text)
    RTC_Get_State                            0x10004e77   Thumb Code    54  rtc.o(.text)
    rtc_start                                0x10004ead   Thumb Code    28  rtc.o(.text)
    rtc_set_interrupt_callback               0x10004ec9   Thumb Code     6  rtc.o(.text)
    rtc_int_enable                           0x10004ecf   Thumb Code    22  rtc.o(.text)
    rtc_int_clear                            0x10004ee5   Thumb Code    22  rtc.o(.text)
    rtc_set_calendar                         0x10004efb   Thumb Code    40  rtc.o(.text)
    rtc_set_prescaler                        0x10004f23   Thumb Code    34  rtc.o(.text)
    rtc_clear                                0x10004f45   Thumb Code    18  rtc.o(.text)
    rtc_stop                                 0x10004f57   Thumb Code    30  rtc.o(.text)
    rtc_init                                 0x10004f75   Thumb Code   126  rtc.o(.text)
    SYD_RTC_Init                             0x10004ff3   Thumb Code    40  rtc.o(.text)
    RTC_IRQHandler                           0x1000501b   Thumb Code    30  rtc.o(.text)
    rtc_status                               0x10005039   Thumb Code     6  rtc.o(.text)
    rtc_get_compare                          0x1000503f   Thumb Code    52  rtc.o(.text)
    __aeabi_uidiv                            0x10005085   Thumb Code     0  uidiv.o(.text)
    __aeabi_uidivmod                         0x10005085   Thumb Code    44  uidiv.o(.text)
    __aeabi_idiv                             0x100050b1   Thumb Code     0  idiv.o(.text)
    __aeabi_idivmod                          0x100050b1   Thumb Code    40  idiv.o(.text)
    __aeabi_memcpy                           0x100050d9   Thumb Code    36  memcpya.o(.text)
    __aeabi_memcpy4                          0x100050d9   Thumb Code     0  memcpya.o(.text)
    __aeabi_memcpy8                          0x100050d9   Thumb Code     0  memcpya.o(.text)
    __aeabi_memset                           0x100050fd   Thumb Code    14  memseta.o(.text)
    __aeabi_memset4                          0x100050fd   Thumb Code     0  memseta.o(.text)
    __aeabi_memset8                          0x100050fd   Thumb Code     0  memseta.o(.text)
    __aeabi_memclr                           0x1000510b   Thumb Code     4  memseta.o(.text)
    __aeabi_memclr4                          0x1000510b   Thumb Code     0  memseta.o(.text)
    __aeabi_memclr8                          0x1000510b   Thumb Code     0  memseta.o(.text)
    _memset$wrapper                          0x1000510f   Thumb Code    18  memseta.o(.text)
    memcmp                                   0x10005121   Thumb Code    26  memcmp.o(.text)
    __aeabi_uread4                           0x1000513b   Thumb Code    20  uread4.o(.text)
    __rt_uread4                              0x1000513b   Thumb Code     0  uread4.o(.text)
    _uread4                                  0x1000513b   Thumb Code     0  uread4.o(.text)
    __aeabi_uwrite4                          0x1000514f   Thumb Code    18  uwrite4.o(.text)
    __rt_uwrite4                             0x1000514f   Thumb Code     0  uwrite4.o(.text)
    _uwrite4                                 0x1000514f   Thumb Code     0  uwrite4.o(.text)
    __aeabi_fadd                             0x10005161   Thumb Code   162  fadd.o(.text)
    __aeabi_fsub                             0x10005203   Thumb Code     8  fadd.o(.text)
    __aeabi_frsub                            0x1000520b   Thumb Code     8  fadd.o(.text)
    __aeabi_dadd                             0x10005215   Thumb Code   328  dadd.o(.text)
    __aeabi_dsub                             0x1000535d   Thumb Code    12  dadd.o(.text)
    __aeabi_drsub                            0x10005369   Thumb Code    12  dadd.o(.text)
    __aeabi_dmul                             0x10005379   Thumb Code   202  dmul.o(.text)
    __aeabi_ddiv                             0x10005449   Thumb Code   234  ddiv.o(.text)
    __aeabi_ui2f                             0x10005539   Thumb Code    14  ffltui.o(.text)
    __aeabi_i2d                              0x10005549   Thumb Code    34  dflti.o(.text)
    __aeabi_ui2d                             0x10005571   Thumb Code    24  dfltui.o(.text)
    __aeabi_d2uiz                            0x1000558d   Thumb Code    50  dfixui.o(.text)
    __aeabi_f2d                              0x100055c9   Thumb Code    40  f2d.o(.text)
    __aeabi_uldivmod                         0x100055f1   Thumb Code    96  uldiv.o(.text)
    __aeabi_llsl                             0x10005651   Thumb Code    32  llshl.o(.text)
    _ll_shift_l                              0x10005651   Thumb Code     0  llshl.o(.text)
    __aeabi_llsr                             0x10005671   Thumb Code    34  llushr.o(.text)
    _ll_ushift_r                             0x10005671   Thumb Code     0  llushr.o(.text)
    __aeabi_lasr                             0x10005693   Thumb Code    38  llsshr.o(.text)
    _ll_sshift_r                             0x10005693   Thumb Code     0  llsshr.o(.text)
    __I$use$fp                               0x100056b9   Thumb Code     0  iusefp.o(.text)
    _float_round                             0x100056b9   Thumb Code    16  fepilogue.o(.text)
    _float_epilogue                          0x100056c9   Thumb Code   114  fepilogue.o(.text)
    _double_round                            0x1000573b   Thumb Code    26  depilogue.o(.text)
    _double_epilogue                         0x10005755   Thumb Code   164  depilogue.o(.text)
    __aeabi_d2ulz                            0x100057f9   Thumb Code    54  dfixul.o(.text)
    __aeabi_cdrcmple                         0x10005839   Thumb Code    38  cdrcmple.o(.text)
    __scatterload                            0x10005861   Thumb Code    28  init.o(.text)
    __scatterload_rt2                        0x10005861   Thumb Code     0  init.o(.text)
    __decompress                             0x10005885   Thumb Code     0  __dczerorl2.o(.text)
    __decompress1                            0x10005885   Thumb Code    86  __dczerorl2.o(.text)
    __0vsprintf                              0x100058dd   Thumb Code    30  printfa.o(i.__0vsprintf)
    __1vsprintf                              0x100058dd   Thumb Code     0  printfa.o(i.__0vsprintf)
    __2vsprintf                              0x100058dd   Thumb Code     0  printfa.o(i.__0vsprintf)
    __c89vsprintf                            0x100058dd   Thumb Code     0  printfa.o(i.__0vsprintf)
    vsprintf                                 0x100058dd   Thumb Code     0  printfa.o(i.__0vsprintf)
    __ARM_clz                                0x10005901   Thumb Code    46  depilogue.o(i.__ARM_clz)
    __ARM_common_switch8                     0x1000592f   Thumb Code    26  main.o(i.__ARM_common_switch8)
    __scatterload_copy                       0x10005949   Thumb Code    14  handlers.o(i.__scatterload_copy)
    __scatterload_null                       0x10005957   Thumb Code     2  handlers.o(i.__scatterload_null)
    __scatterload_zeroinit                   0x10005959   Thumb Code    14  handlers.o(i.__scatterload_zeroinit)
    uart_ota_test                            0x10006202   Data       20556  main.o(.constdata)
    adv_chn_to_freq_idx                      0x1000b24e   Data           3  main.o(.constdata)
    Region$$Table$$Base                      0x1000b278   Number         0  anon$$obj.o(Region$$Table)
    Region$$Table$$Limit                     0x1000b298   Number         0  anon$$obj.o(Region$$Table)
    connect_flag                             0x20003000   Data           1  main.o(.data)
    update_latency_mode                      0x20003001   Data           1  main.o(.data)
    wechat_tx                                0x20003003   Data           1  main.o(.data)
    battery_value                            0x20003004   Data           1  main.o(.data)
    SCAN_DATA                                0x20003005   Data           1  main.o(.data)
    ADV_DATA_SZ                              0x20003006   Data           2  main.o(.data)
    SCAN_DATA_SZ                             0x20003008   Data           2  main.o(.data)
    ADV_DATA                                 0x20003017   Data          31  main.o(.data)
    uart_ota_state                           0x20003040   Data           1  uart_ota.o(.data)
    uart_master_ota_flag                     0x20003041   Data           1  uart_ota.o(.data)
    ota_state                                0x20003044   Data           1  ota.o(.data)
    ota_writecnt                             0x20003045   Data           1  ota.o(.data)
    ota_section_size                         0x20003046   Data           2  ota.o(.data)
    ota_receive_size                         0x20003048   Data           2  ota.o(.data)
    ota_section_check                        0x2000304a   Data           2  ota.o(.data)
    ota_receive_check                        0x2000304c   Data           2  ota.o(.data)
    ota_section_offset                       0x20003050   Data           4  ota.o(.data)
    pevt                                     0x20003054   Data           4  ota.o(.data)
    PIN_CONFIG                               0x20003060   Data           4  gpio.o(.data)
    GPIO_CTRL                                0x20003064   Data           4  gpio.o(.data)
    GPO_CTRL                                 0x20003068   Data           4  gpio.o(.data)
    GPI_CTRL                                 0x2000306c   Data           4  gpio.o(.data)
    GPIO_IRQ_CTRL                            0x20003070   Data           4  gpio.o(.data)
    syd_history_setting_str                  0x200030a8   Data           4  rtc_handler.o(.data)
    SystemCoreClock                          0x200030ac   Data           4  system_armcm0.o(.data)
    ble_rc32k_clk_lpo_ing_flag               0x200030b4   Data           1  main.o(.data)
    master_system                            0x200030b6   Data           1  main.o(.data)
    p_gett_db_hdr                            0x200030cc   Data           4  main.o(.data)
    Event_Num                                0x200030f0   Data           1  timer.o(.data)
    max_trigger_timer                        0x200030f8   Data           4  timer.o(.data)
    TIMER_EVT                                0x200030fc   Data           4  timer.o(.data)
    Timer_Evt_Trigger_Loop_now               0x20003100   Data           4  timer.o(.data)
    sys_timer_max_p                          0x20003104   Data           4  timer.o(.data)
    sys_timer_current_p                      0x20003108   Data           4  timer.o(.data)
    RTC_Event_Num                            0x2000310d   Data           1  rtc.o(.data)
    max_trigger_rtc                          0x20003110   Data           4  rtc.o(.data)
    RTC_EVT                                  0x20003114   Data           4  rtc.o(.data)
    RTC_RTCEVT_Trigger_Loop_now              0x20003118   Data           4  rtc.o(.data)
    RTC_second_now                           0x2000311c   Data           4  rtc.o(.data)
    sys_rtc_max_p                            0x20003120   Data           4  rtc.o(.data)
    sys_rtc_current_p                        0x20003124   Data           4  rtc.o(.data)
    RTCEVT_whole_minute_id                   0x20003128   Data           4  rtc.o(.data)
    RTC_second_last                          0x20003130   Data           4  rtc.o(.data)
    uart_rx_buff                             0x20003134   Data         259  uart.o(.bss)
    uart_tx_buff                             0x20003237   Data         256  uart.o(.bss)
    ota_fw_info                              0x20003337   Data          24  uart_ota.o(.bss)
    ota_w                                    0x20003350   Data          40  ota.o(.bss)
    syd_sysTimer                             0x20003378   Data          48  timer_handler.o(.bss)
    syd_rtc                                  0x200033a8   Data          24  rtc_handler.o(.bss)
    __initial_sp                             0x200044b8   Data           0  startup_armcm0.o(STACK)



==============================================================================

Memory Map of the image

  Image Entry point : 0x100000c1

  Load Region LR_IROM1 (Base: 0x10000000, Size: 0x0000b3cc, Max: 0x0003f000, ABSOLUTE, COMPRESSED[0x0000b338])

    Execution Region ER_IROM1 (Base: 0x10000000, Size: 0x0000b298, Max: 0x0003f000, ABSOLUTE)

    Base Addr    Size         Type   Attr      Idx    E Section Name        Object

    0x10000000   0x000000c0   Data   RO          399    RESET               startup_armcm0.o
    0x100000c0   0x00000000   Code   RO          615  * .ARM.Collect$$$$00000000  mc_p.l(entry.o)
    0x100000c0   0x00000004   Code   RO          680    .ARM.Collect$$$$00000001  mc_p.l(entry2.o)
    0x100000c4   0x00000004   Code   RO          683    .ARM.Collect$$$$00000004  mc_p.l(entry5.o)
    0x100000c8   0x00000000   Code   RO          685    .ARM.Collect$$$$00000008  mc_p.l(entry7b.o)
    0x100000c8   0x00000000   Code   RO          687    .ARM.Collect$$$$0000000A  mc_p.l(entry8b.o)
    0x100000c8   0x00000008   Code   RO          688    .ARM.Collect$$$$0000000B  mc_p.l(entry9a.o)
    0x100000d0   0x00000000   Code   RO          690    .ARM.Collect$$$$0000000D  mc_p.l(entry10a.o)
    0x100000d0   0x00000000   Code   RO          692    .ARM.Collect$$$$0000000F  mc_p.l(entry11a.o)
    0x100000d0   0x00000004   Code   RO          681    .ARM.Collect$$$$00002712  mc_p.l(entry2.o)
    0x100000d4   0x0000093c   Code   RO            3    .text               main.o
    0x10000a10   0x00000328   Code   RO          105    .text               uart.o
    0x10000d38   0x00000038   Code   RO          149    .text               delay.o
    0x10000d70   0x00000480   Code   RO          169    .text               uart_ota.o
    0x100011f0   0x000004f4   Code   RO          196    .text               ota.o
    0x100016e4   0x0000044e   Code   RO          232    .text               gpio.o
    0x10001b32   0x00000002   PAD
    0x10001b34   0x0000004c   Code   RO          261    .text               timer_handler.o
    0x10001b80   0x0000002c   Code   RO          294    .text               rtc_handler.o
    0x10001bac   0x00000078   Code   RO          322    .text               debug.o
    0x10001c24   0x0000001c   Code   RO          400    .text               startup_armcm0.o
    0x10001c40   0x00000018   Code   RO          406    .text               system_armcm0.o
    0x10001c58   0x00002830   Code   RO          432    .text               syd8811_ble_lib.lib(main.o)
    0x10004488   0x00000634   Code   RO          512    .text               Syd8811_softtimer_lib.lib(timer.o)
    0x10004abc   0x000005c8   Code   RO          580    .text               Syd8811_softtimer_lib.lib(rtc.o)
    0x10005084   0x0000002c   Code   RO          618    .text               mc_p.l(uidiv.o)
    0x100050b0   0x00000028   Code   RO          620    .text               mc_p.l(idiv.o)
    0x100050d8   0x00000024   Code   RO          622    .text               mc_p.l(memcpya.o)
    0x100050fc   0x00000024   Code   RO          624    .text               mc_p.l(memseta.o)
    0x10005120   0x0000001a   Code   RO          626    .text               mc_p.l(memcmp.o)
    0x1000513a   0x00000014   Code   RO          658    .text               mc_p.l(uread4.o)
    0x1000514e   0x00000012   Code   RO          660    .text               mc_p.l(uwrite4.o)
    0x10005160   0x000000b2   Code   RO          662    .text               mf_p.l(fadd.o)
    0x10005212   0x00000002   PAD
    0x10005214   0x00000164   Code   RO          664    .text               mf_p.l(dadd.o)
    0x10005378   0x000000d0   Code   RO          666    .text               mf_p.l(dmul.o)
    0x10005448   0x000000f0   Code   RO          668    .text               mf_p.l(ddiv.o)
    0x10005538   0x0000000e   Code   RO          670    .text               mf_p.l(ffltui.o)
    0x10005546   0x00000002   PAD
    0x10005548   0x00000028   Code   RO          672    .text               mf_p.l(dflti.o)
    0x10005570   0x0000001c   Code   RO          674    .text               mf_p.l(dfltui.o)
    0x1000558c   0x0000003c   Code   RO          676    .text               mf_p.l(dfixui.o)
    0x100055c8   0x00000028   Code   RO          678    .text               mf_p.l(f2d.o)
    0x100055f0   0x00000060   Code   RO          697    .text               mc_p.l(uldiv.o)
    0x10005650   0x00000020   Code   RO          699    .text               mc_p.l(llshl.o)
    0x10005670   0x00000022   Code   RO          701    .text               mc_p.l(llushr.o)
    0x10005692   0x00000026   Code   RO          703    .text               mc_p.l(llsshr.o)
    0x100056b8   0x00000000   Code   RO          705    .text               mc_p.l(iusefp.o)
    0x100056b8   0x00000082   Code   RO          706    .text               mf_p.l(fepilogue.o)
    0x1000573a   0x000000be   Code   RO          708    .text               mf_p.l(depilogue.o)
    0x100057f8   0x00000040   Code   RO          712    .text               mf_p.l(dfixul.o)
    0x10005838   0x00000028   Code   RO          714    .text               mf_p.l(cdrcmple.o)
    0x10005860   0x00000024   Code   RO          716    .text               mc_p.l(init.o)
    0x10005884   0x00000056   Code   RO          728    .text               mc_p.l(__dczerorl2.o)
    0x100058da   0x00000002   PAD
    0x100058dc   0x00000024   Code   RO          637    i.__0vsprintf       mc_p.l(printfa.o)
    0x10005900   0x0000002e   Code   RO          710    i.__ARM_clz         mf_p.l(depilogue.o)
    0x1000592e   0x0000001a   Code   RO           26    i.__ARM_common_switch8  main.o
    0x10005948   0x0000000e   Code   RO          722    i.__scatterload_copy  mc_p.l(handlers.o)
    0x10005956   0x00000002   Code   RO          723    i.__scatterload_null  mc_p.l(handlers.o)
    0x10005958   0x0000000e   Code   RO          724    i.__scatterload_zeroinit  mc_p.l(handlers.o)
    0x10005966   0x00000002   PAD
    0x10005968   0x00000158   Code   RO          638    i._fp_digits        mc_p.l(printfa.o)
    0x10005ac0   0x000006ec   Code   RO          639    i._printf_core      mc_p.l(printfa.o)
    0x100061ac   0x00000020   Code   RO          640    i._printf_post_padding  mc_p.l(printfa.o)
    0x100061cc   0x0000002c   Code   RO          641    i._printf_pre_padding  mc_p.l(printfa.o)
    0x100061f8   0x0000000a   Code   RO          643    i._sputc            mc_p.l(printfa.o)
    0x10006202   0x0000504c   Data   RO            4    .constdata          main.o
    0x1000b24e   0x00000028   Data   RO          434    .constdata          syd8811_ble_lib.lib(main.o)
    0x1000b276   0x00000002   PAD
    0x1000b278   0x00000020   Data   RO          720    Region$$Table       anon$$obj.o


    Execution Region RW_IRAM1 (Base: 0x20003000, Size: 0x000014b8, Max: 0x00005000, ABSOLUTE, COMPRESSED[0x000000a0])

    Base Addr    Size         Type   Attr      Idx    E Section Name        Object

    0x20003000   0x00000036   Data   RW            5    .data               main.o
    0x20003036   0x00000002   PAD
    0x20003038   0x00000008   Data   RW          107    .data               uart.o
    0x20003040   0x00000002   Data   RW          171    .data               uart_ota.o
    0x20003042   0x00000002   PAD
    0x20003044   0x0000001c   Data   RW          198    .data               ota.o
    0x20003060   0x00000048   Data   RW          233    .data               gpio.o
    0x200030a8   0x00000004   Data   RW          296    .data               rtc_handler.o
    0x200030ac   0x00000004   Data   RW          407    .data               system_armcm0.o
    0x200030b0   0x00000040   Data   RW          435    .data               syd8811_ble_lib.lib(main.o)
    0x200030f0   0x0000001c   Data   RW          514    .data               Syd8811_softtimer_lib.lib(timer.o)
    0x2000310c   0x00000028   Data   RW          581    .data               Syd8811_softtimer_lib.lib(rtc.o)
    0x20003134   0x00000203   Zero   RW          106    .bss                uart.o
    0x20003337   0x00000018   Zero   RW          170    .bss                uart_ota.o
    0x2000334f   0x00000001   PAD
    0x20003350   0x00000028   Zero   RW          197    .bss                ota.o
    0x20003378   0x00000030   Zero   RW          262    .bss                timer_handler.o
    0x200033a8   0x00000018   Zero   RW          295    .bss                rtc_handler.o
    0x200033c0   0x00000080   Zero   RW          323    .bss                debug.o
    0x20003440   0x00000068   Zero   RW          433    .bss                syd8811_ble_lib.lib(main.o)
    0x200034a8   0x0000000c   Zero   RW          513    .bss                Syd8811_softtimer_lib.lib(timer.o)
    0x200034b4   0x00000004   PAD
    0x200034b8   0x00001000   Zero   RW          397    STACK               startup_armcm0.o


==============================================================================

Image component sizes


      Code (inc. data)   RO Data    RW Data    ZI Data      Debug   Object Name

       120         18          0          0        128       2354   debug.o
        56          6          0          0          0        832   delay.o
      1102         12          0         72          0      12794   gpio.o
      2390        750      20556         54          0      50981   main.o
      1268        368          0         28         40       6101   ota.o
        44         10          0          4         24       2951   rtc_handler.o
        28          8        192          0       4096        656   startup_armcm0.o
        24          8          0          4          0        865   system_armcm0.o
        76         12          0          0         48       3030   timer_handler.o
       808         22          0          8        515      41868   uart.o
      1152        442          0          2         24       4904   uart_ota.o

    ----------------------------------------------------------------------
      7070       1656      20780        176       4876     127336   Object Totals
         0          0         32          0          0          0   (incl. Generated)
         2          0          0          4          1          0   (incl. Padding)

    ----------------------------------------------------------------------

      Code (inc. data)   RO Data    RW Data    ZI Data      Debug   Library Member Name

      1480         38          0         40          0      17091   rtc.o
      1588         38          0         28         12      45840   timer.o
        86          0          0          0          0          0   __dczerorl2.o
         0          0          0          0          0          0   entry.o
         0          0          0          0          0          0   entry10a.o
         0          0          0          0          0          0   entry11a.o
         8          4          0          0          0          0   entry2.o
         4          0          0          0          0          0   entry5.o
         0          0          0          0          0          0   entry7b.o
         0          0          0          0          0          0   entry8b.o
         8          4          0          0          0          0   entry9a.o
        30          0          0          0          0          0   handlers.o
        40          0          0          0          0         72   idiv.o
        36          8          0          0          0         68   init.o
         0          0          0          0          0          0   iusefp.o
        32          0          0          0          0         68   llshl.o
        38          0          0          0          0         68   llsshr.o
        34          0          0          0          0         68   llushr.o
        26          0          0          0          0         72   memcmp.o
        36          0          0          0          0         60   memcpya.o
        36          0          0          0          0        100   memseta.o
      2238         96          0          0          0        460   printfa.o
        44          0          0          0          0         72   uidiv.o
        96          0          0          0          0         84   uldiv.o
        20          0          0          0          0         60   uread4.o
        18          0          0          0          0         60   uwrite4.o
        40          2          0          0          0         68   cdrcmple.o
       356          4          0          0          0        140   dadd.o
       240          6          0          0          0         84   ddiv.o
       236          0          0          0          0        216   depilogue.o
        60         10          0          0          0         68   dfixui.o
        64         10          0          0          0         68   dfixul.o
        40          6          0          0          0         68   dflti.o
        28          4          0          0          0         68   dfltui.o
       208          6          0          0          0         88   dmul.o
        40          0          0          0          0         60   f2d.o
       178          0          0          0          0        108   fadd.o
       130          0          0          0          0        144   fepilogue.o
        14          0          0          0          0         68   ffltui.o
     10288        502         40         64        104     109315   main.o

    ----------------------------------------------------------------------
     17828        738         42        132        120     174806   Library Totals
         8          0          2          0          4          0   (incl. Padding)

    ----------------------------------------------------------------------

      Code (inc. data)   RO Data    RW Data    ZI Data      Debug   Library Name

      3068         76          0         68         12      62931   Syd8811_softtimer_lib.lib
      2830        112          0          0          0       1312   mc_p.l
      1634         48          0          0          0       1248   mf_p.l
     10288        502         40         64        104     109315   syd8811_ble_lib.lib

    ----------------------------------------------------------------------
     17828        738         42        132        120     174806   Library Totals

    ----------------------------------------------------------------------

==============================================================================


      Code (inc. data)   RO Data    RW Data    ZI Data      Debug   

     24898       2394      20822        308       4996     299718   Grand Totals
     24898       2394      20822        160       4996     299718   ELF Image Totals (compressed)
     24898       2394      20822        160          0          0   ROM Totals

==============================================================================

    Total RO  Size (Code + RO Data)                45720 (  44.65kB)
    Total RW  Size (RW Data + ZI Data)              5304 (   5.18kB)
    Total ROM Size (Code + RO Data + RW Data)      45880 (  44.80kB)

==============================================================================

