Component: ARM Compiler 5.06 (build 20) Tool: armlink [4d35a3]

==============================================================================

Section Cross References

    main.o(.text) refers to pwm.o(.text) for pwm_enable
    main.o(.text) refers to main.o(.text) for BleInit
    main.o(.text) refers to debug.o(.text) for dbg_init
    main.o(.text) refers to gpio.o(.text) for PIN_Set_GPIO
    debug.o(.text) refers to uart.o(.text) for uart_0_init
    debug.o(.text) refers to printfa.o(i.__0vsprintf) for __c89vsprintf
    debug.o(.text) refers to debug.o(.bss) for s_formatBuffer
    uart.o(.text) refers to gpio.o(.data) for PIN_CONFIG
    uart.o(.text) refers to uart.o(.data) for UART_0_CTRL
    gpio.o(.text) refers to gpio.o(.data) for PIN_CONFIG
    pwm.o(.text) refers to debug.o(.text) for dbg_printf
    pwm.o(.text) refers to pwm.o(.data) for compare
    startup_armcm0.o(RESET) refers to startup_armcm0.o(STACK) for __initial_sp
    startup_armcm0.o(RESET) refers to startup_armcm0.o(.text) for Reset_Handler
    startup_armcm0.o(RESET) refers to uart.o(.text) for UART0_IRQHandler
    startup_armcm0.o(RESET) refers to gpio.o(.text) for GPIO_IRQHandler
    startup_armcm0.o(RESET) refers to pwm.o(.text) for HPWM_IRQHandler
    startup_armcm0.o(.text) refers to system_armcm0.o(.text) for SystemInit
==============================================================================

Removing Unused input sections from the image.

    Removing main.o(.rev16_text), (4 bytes).
    Removing main.o(.revsh_text), (4 bytes).
    Removing debug.o(.rev16_text), (4 bytes).
    Removing debug.o(.revsh_text), (4 bytes).
    Removing uart.o(.rev16_text), (4 bytes).
    Removing uart.o(.revsh_text), (4 bytes).
    Removing gpio.o(.rev16_text), (4 bytes).
    Removing gpio.o(.revsh_text), (4 bytes).
    Removing pwm.o(.rev16_text), (4 bytes).
    Removing pwm.o(.revsh_text), (4 bytes).
    Removing startup_armcm0.o(HEAP), (3072 bytes).
    Removing system_armcm0.o(.rev16_text), (4 bytes).
    Removing system_armcm0.o(.revsh_text), (4 bytes).
    Removing main.o(.rev16_text), (4 bytes).
    Removing main.o(.revsh_text), (4 bytes).

15 unused section(s) (total 3128 bytes) removed from the image.

==============================================================================

Image Symbol Table

    Local Symbols

    Symbol Name                              Value     Ov Type        Size  Object(Section)

    ../clib/microlib/division.c              0x00000000   Number         0  idiv.o ABSOLUTE
    ../clib/microlib/division.c              0x00000000   Number         0  uldiv.o ABSOLUTE
    ../clib/microlib/division.c              0x00000000   Number         0  uidiv.o ABSOLUTE
    ../clib/microlib/init/entry.s            0x00000000   Number         0  entry8b.o ABSOLUTE
    ../clib/microlib/init/entry.s            0x00000000   Number         0  entry9a.o ABSOLUTE
    ../clib/microlib/init/entry.s            0x00000000   Number         0  entry9b.o ABSOLUTE
    ../clib/microlib/init/entry.s            0x00000000   Number         0  entry10a.o ABSOLUTE
    ../clib/microlib/init/entry.s            0x00000000   Number         0  entry10b.o ABSOLUTE
    ../clib/microlib/init/entry.s            0x00000000   Number         0  entry11a.o ABSOLUTE
    ../clib/microlib/init/entry.s            0x00000000   Number         0  entry7b.o ABSOLUTE
    ../clib/microlib/init/entry.s            0x00000000   Number         0  entry2.o ABSOLUTE
    ../clib/microlib/init/entry.s            0x00000000   Number         0  entry11b.o ABSOLUTE
    ../clib/microlib/init/entry.s            0x00000000   Number         0  entry5.o ABSOLUTE
    ../clib/microlib/init/entry.s            0x00000000   Number         0  entry.o ABSOLUTE
    ../clib/microlib/init/entry.s            0x00000000   Number         0  entry7a.o ABSOLUTE
    ../clib/microlib/init/entry.s            0x00000000   Number         0  entry8a.o ABSOLUTE
    ../clib/microlib/longlong.c              0x00000000   Number         0  llshl.o ABSOLUTE
    ../clib/microlib/longlong.c              0x00000000   Number         0  llsshr.o ABSOLUTE
    ../clib/microlib/longlong.c              0x00000000   Number         0  llushr.o ABSOLUTE
    ../clib/microlib/printf/printf.c         0x00000000   Number         0  printfa.o ABSOLUTE
    ../clib/microlib/stdio/fputc.c           0x00000000   Number         0  fputc.o ABSOLUTE
    ../clib/microlib/stdio/semi.s            0x00000000   Number         0  semi.o ABSOLUTE
    ../clib/microlib/stdio/streams.c         0x00000000   Number         0  stdout.o ABSOLUTE
    ../clib/microlib/string/memcmp.c         0x00000000   Number         0  memcmp.o ABSOLUTE
    ../clib/microlib/string/memcpy.c         0x00000000   Number         0  memcpya.o ABSOLUTE
    ../clib/microlib/string/memcpy.c         0x00000000   Number         0  memcpyb.o ABSOLUTE
    ../clib/microlib/string/memset.c         0x00000000   Number         0  memseta.o ABSOLUTE
    ../clib/microlib/stubs.s                 0x00000000   Number         0  iusefp.o ABSOLUTE
    ../clib/microlib/stubs.s                 0x00000000   Number         0  iusesemip.o ABSOLUTE
    ../clib/microlib/unhosted.c              0x00000000   Number         0  uread4.o ABSOLUTE
    ../clib/microlib/unhosted.c              0x00000000   Number         0  uwrite4.o ABSOLUTE
    ../fplib/microlib/f2d.c                  0x00000000   Number         0  f2d.o ABSOLUTE
    ../fplib/microlib/fpadd.c                0x00000000   Number         0  fadd.o ABSOLUTE
    ../fplib/microlib/fpadd.c                0x00000000   Number         0  dadd.o ABSOLUTE
    ../fplib/microlib/fpdiv.c                0x00000000   Number         0  ddiv.o ABSOLUTE
    ../fplib/microlib/fpepilogue.c           0x00000000   Number         0  fepilogue.o ABSOLUTE
    ../fplib/microlib/fpepilogue.c           0x00000000   Number         0  depilogue.o ABSOLUTE
    ../fplib/microlib/fpfix.c                0x00000000   Number         0  dfixui.o ABSOLUTE
    ../fplib/microlib/fpfix.c                0x00000000   Number         0  dfixul.o ABSOLUTE
    ../fplib/microlib/fpflt.c                0x00000000   Number         0  dfltui.o ABSOLUTE
    ../fplib/microlib/fpflt.c                0x00000000   Number         0  dflti.o ABSOLUTE
    ../fplib/microlib/fpflt.c                0x00000000   Number         0  ffltui.o ABSOLUTE
    ../fplib/microlib/fpmul.c                0x00000000   Number         0  dmul.o ABSOLUTE
    ..\..\..\Driver\debug.c                  0x00000000   Number         0  debug.o ABSOLUTE
    ..\..\..\Driver\gpio.c                   0x00000000   Number         0  gpio.o ABSOLUTE
    ..\..\..\Driver\pwm.c                    0x00000000   Number         0  pwm.o ABSOLUTE
    ..\..\..\Driver\uart.c                   0x00000000   Number         0  uart.o ABSOLUTE
    ..\\..\\..\\Driver\\debug.c              0x00000000   Number         0  debug.o ABSOLUTE
    ..\\..\\..\\Driver\\gpio.c               0x00000000   Number         0  gpio.o ABSOLUTE
    ..\\..\\..\\Driver\\pwm.c                0x00000000   Number         0  pwm.o ABSOLUTE
    ..\\..\\..\\Driver\\uart.c               0x00000000   Number         0  uart.o ABSOLUTE
    ..\\main.c                               0x00000000   Number         0  main.o ABSOLUTE
    ..\main.c                                0x00000000   Number         0  main.o ABSOLUTE
    Main\\main.c                             0x00000000   Number         0  main.o ABSOLUTE
    Main\main.c                              0x00000000   Number         0  main.o ABSOLUTE
    RTE\Device\ARMCM0\startup_ARMCM0.s       0x00000000   Number         0  startup_armcm0.o ABSOLUTE
    RTE\Device\ARMCM0\system_ARMCM0.c        0x00000000   Number         0  system_armcm0.o ABSOLUTE
    RTE\\Device\\ARMCM0\\system_ARMCM0.c     0x00000000   Number         0  system_armcm0.o ABSOLUTE
    cdrcmple.s                               0x00000000   Number         0  cdrcmple.o ABSOLUTE
    dc.s                                     0x00000000   Number         0  dc.o ABSOLUTE
    handlers.s                               0x00000000   Number         0  handlers.o ABSOLUTE
    init.s                                   0x00000000   Number         0  init.o ABSOLUTE
    RESET                                    0x10000000   Section      192  startup_armcm0.o(RESET)
    .ARM.Collect$$$$00000000                 0x100000c0   Section        0  entry.o(.ARM.Collect$$$$00000000)
    .ARM.Collect$$$$00000001                 0x100000c0   Section        4  entry2.o(.ARM.Collect$$$$00000001)
    .ARM.Collect$$$$00000004                 0x100000c4   Section        4  entry5.o(.ARM.Collect$$$$00000004)
    .ARM.Collect$$$$00000008                 0x100000c8   Section        0  entry7b.o(.ARM.Collect$$$$00000008)
    .ARM.Collect$$$$0000000A                 0x100000c8   Section        0  entry8b.o(.ARM.Collect$$$$0000000A)
    .ARM.Collect$$$$0000000B                 0x100000c8   Section        8  entry9a.o(.ARM.Collect$$$$0000000B)
    .ARM.Collect$$$$0000000D                 0x100000d0   Section        0  entry10a.o(.ARM.Collect$$$$0000000D)
    .ARM.Collect$$$$0000000F                 0x100000d0   Section        0  entry11a.o(.ARM.Collect$$$$0000000F)
    .ARM.Collect$$$$00002712                 0x100000d0   Section        4  entry2.o(.ARM.Collect$$$$00002712)
    __lit__00000000                          0x100000d0   Data           4  entry2.o(.ARM.Collect$$$$00002712)
    .text                                    0x100000d4   Section        0  main.o(.text)
    .text                                    0x10000258   Section        0  debug.o(.text)
    .text                                    0x100002e8   Section        0  uart.o(.text)
    __NVIC_DisableIRQ                        0x100002e9   Thumb Code    50  uart.o(.text)
    __NVIC_EnableIRQ                         0x100007bd   Thumb Code    26  uart.o(.text)
    .text                                    0x100007e0   Section        0  gpio.o(.text)
    .text                                    0x10000d6c   Section        0  pwm.o(.text)
    .text                                    0x1000115c   Section       28  startup_armcm0.o(.text)
    .text                                    0x10001178   Section        0  system_armcm0.o(.text)
    .text                                    0x10001190   Section        0  main.o(.text)
    _LCDisConnect                            0x10001191   Thumb Code    46  main.o(.text)
    _LCTimer_Handler                         0x100011bf   Thumb Code   248  main.o(.text)
    _LCRxPkt_Handler                         0x1000130b   Thumb Code   294  main.o(.text)
    _LCTxPkt_Handler                         0x10001431   Thumb Code   380  main.o(.text)
    _LLENCReq                                0x10001d17   Thumb Code   286  main.o(.text)
    _GAPStartAdv                             0x10002377   Thumb Code   558  main.o(.text)
    WaitLLCOverSlpth                         0x100037a3   Thumb Code    38  main.o(.text)
    _BBRXFIFORead                            0x100037c9   Thumb Code   172  main.o(.text)
    _rom_rx_sweyntooth_protect               0x10003875   Thumb Code   150  main.o(.text)
    STKSetRand                               0x1000390b   Thumb Code    30  main.o(.text)
    AttWriteFlash                            0x10003929   Thumb Code   110  main.o(.text)
    GetOverSlpth                             0x10003997   Thumb Code    26  main.o(.text)
    .text                                    0x100039c0   Section        0  uidiv.o(.text)
    .text                                    0x100039ec   Section        0  idiv.o(.text)
    .text                                    0x10003a14   Section        0  memcpya.o(.text)
    .text                                    0x10003a38   Section        0  memseta.o(.text)
    .text                                    0x10003a5c   Section        0  memcmp.o(.text)
    .text                                    0x10003a76   Section        0  uread4.o(.text)
    .text                                    0x10003a8a   Section        0  uwrite4.o(.text)
    .text                                    0x10003a9c   Section        0  fadd.o(.text)
    .text                                    0x10003b50   Section        0  dadd.o(.text)
    .text                                    0x10003cb4   Section        0  dmul.o(.text)
    .text                                    0x10003d84   Section        0  ddiv.o(.text)
    .text                                    0x10003e74   Section        0  ffltui.o(.text)
    .text                                    0x10003e84   Section        0  dflti.o(.text)
    .text                                    0x10003eac   Section        0  dfltui.o(.text)
    .text                                    0x10003ec8   Section        0  dfixui.o(.text)
    .text                                    0x10003f04   Section        0  f2d.o(.text)
    .text                                    0x10003f2c   Section        0  uldiv.o(.text)
    .text                                    0x10003f8c   Section        0  llshl.o(.text)
    .text                                    0x10003fac   Section        0  llushr.o(.text)
    .text                                    0x10003fce   Section        0  llsshr.o(.text)
    .text                                    0x10003ff4   Section        0  fepilogue.o(.text)
    .text                                    0x10003ff4   Section        0  iusefp.o(.text)
    .text                                    0x10004076   Section        0  depilogue.o(.text)
    .text                                    0x10004134   Section        0  dfixul.o(.text)
    .text                                    0x10004174   Section       40  cdrcmple.o(.text)
    .text                                    0x1000419c   Section       36  init.o(.text)
    i.__0vsprintf                            0x100041c0   Section        0  printfa.o(i.__0vsprintf)
    i.__ARM_clz                              0x100041e4   Section        0  depilogue.o(i.__ARM_clz)
    i.__ARM_common_switch8                   0x10004212   Section        0  main.o(i.__ARM_common_switch8)
    i.__scatterload_copy                     0x1000422c   Section       14  handlers.o(i.__scatterload_copy)
    i.__scatterload_null                     0x1000423a   Section        2  handlers.o(i.__scatterload_null)
    i.__scatterload_zeroinit                 0x1000423c   Section       14  handlers.o(i.__scatterload_zeroinit)
    i._fp_digits                             0x1000424c   Section        0  printfa.o(i._fp_digits)
    _fp_digits                               0x1000424d   Thumb Code   316  printfa.o(i._fp_digits)
    i._printf_core                           0x100043a4   Section        0  printfa.o(i._printf_core)
    _printf_core                             0x100043a5   Thumb Code  1754  printfa.o(i._printf_core)
    i._printf_post_padding                   0x10004a90   Section        0  printfa.o(i._printf_post_padding)
    _printf_post_padding                     0x10004a91   Thumb Code    32  printfa.o(i._printf_post_padding)
    i._printf_pre_padding                    0x10004ab0   Section        0  printfa.o(i._printf_pre_padding)
    _printf_pre_padding                      0x10004ab1   Thumb Code    44  printfa.o(i._printf_pre_padding)
    i._sputc                                 0x10004adc   Section        0  printfa.o(i._sputc)
    _sputc                                   0x10004add   Thumb Code    10  printfa.o(i._sputc)
    .constdata                               0x10004ae6   Section       40  main.o(.constdata)
    _ll_packet_length                        0x10004ae9   Data          15  main.o(.constdata)
    _smp_packet_lenght                       0x10004af8   Data          22  main.o(.constdata)
    .data                                    0x20003000   Section        8  uart.o(.data)
    UART_0_CTRL                              0x20003000   Data           4  uart.o(.data)
    UART_1_CTRL                              0x20003004   Data           4  uart.o(.data)
    .data                                    0x20003008   Section       72  gpio.o(.data)
    gpio_callback                            0x2000301c   Data           4  gpio.o(.data)
    pinmuxtab48                              0x20003020   Data          24  gpio.o(.data)
    pinmuxtab32                              0x20003038   Data          24  gpio.o(.data)
    .data                                    0x20003050   Section        8  pwm.o(.data)
    compare                                  0x20003050   Data           2  pwm.o(.data)
    t                                        0x20003054   Data           4  pwm.o(.data)
    .data                                    0x20003058   Section        4  system_armcm0.o(.data)
    .data                                    0x2000305c   Section       64  main.o(.data)
    syd_confirm                              0x2000305c   Data           1  main.o(.data)
    ww_minus_cnt                             0x2000305d   Data           1  main.o(.data)
    ext_uart_en                              0x2000305e   Data           1  main.o(.data)
    get_bond_device_idx                      0x2000305f   Data           1  main.o(.data)
    _valid_l2cap_lenght                      0x20003061   Data           1  main.o(.data)
    rssi_rx                                  0x20003063   Data           1  main.o(.data)
    p_flash_hdr                              0x20003064   Data           4  main.o(.data)
    p_lclink                                 0x20003068   Data           4  main.o(.data)
    p_txpdu                                  0x2000306c   Data           4  main.o(.data)
    p_rxbuf                                  0x20003070   Data           4  main.o(.data)
    p_flash                                  0x20003074   Data           4  main.o(.data)
    p_dump_key                               0x2000307c   Data           4  main.o(.data)
    EFUSE_CTRL                               0x20003080   Data           4  main.o(.data)
    BB_CTRL                                  0x20003084   Data           4  main.o(.data)
    PW_CTRL                                  0x20003088   Data           4  main.o(.data)
    PIN_CONFIG                               0x2000308c   Data           4  main.o(.data)
    CONFIG_FLASH_SIZE                        0x20003090   Data           4  main.o(.data)
    g_evt                                    0x20003094   Data           8  main.o(.data)
    .bss                                     0x2000309c   Section      128  debug.o(.bss)
    s_formatBuffer                           0x2000309c   Data         128  debug.o(.bss)
    .bss                                     0x2000311c   Section      104  main.o(.bss)
    code_hdr                                 0x2000311c   Data          87  main.o(.bss)
    smart_update_ctrol                       0x20003173   Data          17  main.o(.bss)
    STACK                                    0x20003188   Section     1024  startup_armcm0.o(STACK)

    Global Symbols

    Symbol Name                              Value     Ov Type        Size  Object(Section)

    BuildAttributes$$THM_ISAv3M$S$PE$A:L22$X:L11$S22$IEEE1$IW$USESV6$~STKCKD$USESV7$~SHL$OTIME$ROPI$EBA8$MICROLIB$REQ8$PRES8$EABIv2 0x00000000   Number         0  anon$$obj.o ABSOLUTE
    __ARM_use_no_argv                        0x00000000   Number         0  main.o ABSOLUTE
    __cpp_initialize__aeabi_                  - Undefined Weak Reference
    __cxa_finalize                            - Undefined Weak Reference
    __decompress                              - Undefined Weak Reference
    _clock_init                               - Undefined Weak Reference
    _microlib_exit                            - Undefined Weak Reference
    __Vectors_Size                           0x000000c0   Number         0  startup_armcm0.o ABSOLUTE
    __Vectors                                0x10000000   Data           4  startup_armcm0.o(RESET)
    __Vectors_End                            0x100000c0   Data           0  startup_armcm0.o(RESET)
    __main                                   0x100000c1   Thumb Code     0  entry.o(.ARM.Collect$$$$00000000)
    _main_stk                                0x100000c1   Thumb Code     0  entry2.o(.ARM.Collect$$$$00000001)
    _main_scatterload                        0x100000c5   Thumb Code     0  entry5.o(.ARM.Collect$$$$00000004)
    __main_after_scatterload                 0x100000c9   Thumb Code     0  entry5.o(.ARM.Collect$$$$00000004)
    _main_clock                              0x100000c9   Thumb Code     0  entry7b.o(.ARM.Collect$$$$00000008)
    _main_cpp_init                           0x100000c9   Thumb Code     0  entry8b.o(.ARM.Collect$$$$0000000A)
    _main_init                               0x100000c9   Thumb Code     0  entry9a.o(.ARM.Collect$$$$0000000B)
    __rt_final_cpp                           0x100000d1   Thumb Code     0  entry10a.o(.ARM.Collect$$$$0000000D)
    __rt_final_exit                          0x100000d1   Thumb Code     0  entry11a.o(.ARM.Collect$$$$0000000F)
    LPWM_Init                                0x100000d5   Thumb Code   118  main.o(.text)
    HPWM_Handler                             0x1000014b   Thumb Code    82  main.o(.text)
    main                                     0x1000019d   Thumb Code   130  main.o(.text)
    dbg_init                                 0x10000259   Thumb Code     8  debug.o(.text)
    dbg_printf                               0x10000261   Thumb Code    72  debug.o(.text)
    dbg_hexdump                              0x100002a9   Thumb Code    46  debug.o(.text)
    uart_0_init                              0x1000031b   Thumb Code   340  uart.o(.text)
    uart_0_write                             0x1000046f   Thumb Code    40  uart.o(.text)
    uart_0_read                              0x10000497   Thumb Code    72  uart.o(.text)
    uart_0_close                             0x100004df   Thumb Code    26  uart.o(.text)
    UART0_IRQHandler                         0x100004f9   Thumb Code   106  uart.o(.text)
    uart_1_init                              0x10000563   Thumb Code   340  uart.o(.text)
    uart_1_write                             0x100006b7   Thumb Code    58  uart.o(.text)
    uart_1_read                              0x100006f1   Thumb Code    72  uart.o(.text)
    uart_1_close                             0x10000739   Thumb Code    26  uart.o(.text)
    UART1_IRQHandler                         0x10000753   Thumb Code   106  uart.o(.text)
    PIN_Set_GPIO                             0x100007e1   Thumb Code    50  gpio.o(.text)
    PIN_Pullup_Enable                        0x10000813   Thumb Code   150  gpio.o(.text)
    PIN_Pullup_Disable                       0x100008a9   Thumb Code   148  gpio.o(.text)
    GPIO_Set_Output                          0x1000093d   Thumb Code    50  gpio.o(.text)
    GPIO_Set_Input                           0x1000096f   Thumb Code   200  gpio.o(.text)
    GPIO_Set_Input_DIR                       0x10000a37   Thumb Code    50  gpio.o(.text)
    GPIO_Input_Enable                        0x10000a69   Thumb Code    50  gpio.o(.text)
    GPIO_Input_Disable                       0x10000a9b   Thumb Code    50  gpio.o(.text)
    GPIO_Pin_Set                             0x10000acd   Thumb Code    50  gpio.o(.text)
    GPIO_Pin_Clear                           0x10000aff   Thumb Code    50  gpio.o(.text)
    GPIO_Pin_Turn                            0x10000b31   Thumb Code    50  gpio.o(.text)
    GPIO_Pin_Read                            0x10000b63   Thumb Code    34  gpio.o(.text)
    io_irq_enable                            0x10000b85   Thumb Code   192  gpio.o(.text)
    io_irq_disable                           0x10000c45   Thumb Code    52  gpio.o(.text)
    io_irq_disable_all                       0x10000c79   Thumb Code   100  gpio.o(.text)
    GPIO_IRQHandler                          0x10000cdd   Thumb Code   132  gpio.o(.text)
    pwm_enable                               0x10000d6d   Thumb Code   192  pwm.o(.text)
    pwm_disable                              0x10000e2d   Thumb Code    72  pwm.o(.text)
    Hpwm_Stop                                0x10000e75   Thumb Code    16  pwm.o(.text)
    Hpwm_Init                                0x10000e85   Thumb Code   408  pwm.o(.text)
    Hpwm_Set_duty                            0x1000101d   Thumb Code   114  pwm.o(.text)
    Hpwm_Set_period                          0x1000108f   Thumb Code    18  pwm.o(.text)
    Hpwm_Set_mode                            0x100010a1   Thumb Code    20  pwm.o(.text)
    Hpwm_Start                               0x100010b5   Thumb Code    16  pwm.o(.text)
    HPWM_IRQHandler                          0x100010c5   Thumb Code    84  pwm.o(.text)
    Reset_Handler                            0x1000115d   Thumb Code     8  startup_armcm0.o(.text)
    NMI_Handler                              0x10001165   Thumb Code     2  startup_armcm0.o(.text)
    HardFault_Handler                        0x10001167   Thumb Code     2  startup_armcm0.o(.text)
    SVC_Handler                              0x10001169   Thumb Code     2  startup_armcm0.o(.text)
    PendSV_Handler                           0x1000116b   Thumb Code     2  startup_armcm0.o(.text)
    SysTick_Handler                          0x1000116d   Thumb Code     2  startup_armcm0.o(.text)
    CAP_IRQHandler                           0x1000116f   Thumb Code     0  startup_armcm0.o(.text)
    GPADC_IRQHandler                         0x1000116f   Thumb Code     0  startup_armcm0.o(.text)
    HID_IRQHandler                           0x1000116f   Thumb Code     0  startup_armcm0.o(.text)
    HTIMER_IRQHandler                        0x1000116f   Thumb Code     0  startup_armcm0.o(.text)
    I2C0_IRQHandler                          0x1000116f   Thumb Code     0  startup_armcm0.o(.text)
    I2C1_IRQHandler                          0x1000116f   Thumb Code     0  startup_armcm0.o(.text)
    IR_Rx_IRQHandler                         0x1000116f   Thumb Code     0  startup_armcm0.o(.text)
    IR_Tx_IRQHandler                         0x1000116f   Thumb Code     0  startup_armcm0.o(.text)
    ISO_7816_IRQHandler                      0x1000116f   Thumb Code     0  startup_armcm0.o(.text)
    LLC2_IRQHandler                          0x1000116f   Thumb Code     0  startup_armcm0.o(.text)
    LLC_IRQHandler                           0x1000116f   Thumb Code     0  startup_armcm0.o(.text)
    RTC_IRQHandler                           0x1000116f   Thumb Code     0  startup_armcm0.o(.text)
    SPIM_IRQHandler                          0x1000116f   Thumb Code     0  startup_armcm0.o(.text)
    SW_IRQHandler                            0x1000116f   Thumb Code     0  startup_armcm0.o(.text)
    TIMER0_IRQHandler                        0x1000116f   Thumb Code     0  startup_armcm0.o(.text)
    TIMER1_IRQHandler                        0x1000116f   Thumb Code     0  startup_armcm0.o(.text)
    TIMER2_IRQHandler                        0x1000116f   Thumb Code     0  startup_armcm0.o(.text)
    TIMER3_IRQHandler                        0x1000116f   Thumb Code     0  startup_armcm0.o(.text)
    TOUCH_IRQHandler                         0x1000116f   Thumb Code     0  startup_armcm0.o(.text)
    SystemCoreClockUpdate                    0x10001179   Thumb Code     8  system_armcm0.o(.text)
    SystemInit                               0x10001181   Thumb Code     8  system_armcm0.o(.text)
    LLPingReq                                0x100012b7   Thumb Code    26  main.o(.text)
    LLScanReqHandle                          0x100012d1   Thumb Code    58  main.o(.text)
    _BBGetMask                               0x100015ad   Thumb Code    92  main.o(.text)
    Lib_LLEvtCallback                        0x10001609   Thumb Code   186  main.o(.text)
    ConnectionLatencyMode                    0x100016c3   Thumb Code   112  main.o(.text)
    sw_timer_latency_callback                0x10001733   Thumb Code    42  main.o(.text)
    TimerStart                               0x1000175d   Thumb Code    10  main.o(.text)
    smart_latency_start                      0x10001767   Thumb Code   212  main.o(.text)
    smart_update_latency_updatersp           0x1000183b   Thumb Code   162  main.o(.text)
    BBRFRead                                 0x100018dd   Thumb Code     4  main.o(.text)
    BBRFWrite                                0x100018e1   Thumb Code     6  main.o(.text)
    RCOSCCalibration                         0x100018e7   Thumb Code    64  main.o(.text)
    RFSleep                                  0x10001927   Thumb Code    10  main.o(.text)
    UartEn                                   0x10001931   Thumb Code    32  main.o(.text)
    _SYS32kClockSwitch                       0x10001951   Thumb Code   270  main.o(.text)
    ClockSwitch                              0x10001a5f   Thumb Code    10  main.o(.text)
    RFWakeup                                 0x10001a69   Thumb Code    22  main.o(.text)
    LPOCalibration                           0x10001a7f   Thumb Code   254  main.o(.text)
    smart_latency_clear                      0x10001b7d   Thumb Code    12  main.o(.text)
    Lib_EvtCallback                          0x10001b89   Thumb Code   254  main.o(.text)
    _BMGetNextBondDevice                     0x10001c87   Thumb Code   144  main.o(.text)
    __LLVersionIndRxHandler                  0x10001e35   Thumb Code    66  main.o(.text)
    GetMasterSystem                          0x10001e77   Thumb Code     6  main.o(.text)
    TimerStop                                0x10001e7d   Thumb Code     4  main.o(.text)
    smart_update_retry                       0x10001e81   Thumb Code   158  main.o(.text)
    sw_timer_update_callback                 0x10001f1f   Thumb Code    60  main.o(.text)
    smart_update_latency_updatareq           0x10001f5b   Thumb Code   496  main.o(.text)
    Lib_ProtocolHookCallback                 0x1000214b   Thumb Code   116  main.o(.text)
    Lib_MiscCallback                         0x100021bf   Thumb Code    14  main.o(.text)
    BleInit                                  0x100021cd   Thumb Code   344  main.o(.text)
    DisConnect                               0x10002325   Thumb Code    10  main.o(.text)
    SetDevAddr                               0x1000232f   Thumb Code    12  main.o(.text)
    GetDevAddr                               0x1000233b   Thumb Code    12  main.o(.text)
    SetLEFeature                             0x10002347   Thumb Code    12  main.o(.text)
    SetAdvAccCode                            0x10002353   Thumb Code    12  main.o(.text)
    SetAdvParams                             0x1000235f   Thumb Code    12  main.o(.text)
    SetAdvData                               0x1000236b   Thumb Code    12  main.o(.text)
    StartAdv                                 0x100025a5   Thumb Code    10  main.o(.text)
    StopAdv                                  0x100025af   Thumb Code    24  main.o(.text)
    StopAdv_Noreset                          0x100025c7   Thumb Code    38  main.o(.text)
    SetScanParams                            0x100025ed   Thumb Code    10  main.o(.text)
    _BBSetScan                               0x100025f7   Thumb Code    46  main.o(.text)
    _GAPStartScan                            0x10002625   Thumb Code   254  main.o(.text)
    StartScan                                0x10002723   Thumb Code    10  main.o(.text)
    StopScan                                 0x1000272d   Thumb Code    10  main.o(.text)
    SetSecParams                             0x10002737   Thumb Code    12  main.o(.text)
    SetConnectionUpdate                      0x10002743   Thumb Code    12  main.o(.text)
    GetLinkParameters                        0x1000274f   Thumb Code    12  main.o(.text)
    SetWinWideMinusCnt                       0x1000275b   Thumb Code     8  main.o(.text)
    SetPasskey                               0x10002763   Thumb Code    12  main.o(.text)
    SecurityReq                              0x1000276f   Thumb Code    12  main.o(.text)
    SetEvtCallback                           0x1000277b   Thumb Code    54  main.o(.text)
    GetGATTReportHandle                      0x100027b1   Thumb Code    10  main.o(.text)
    SetGATTReadRsp                           0x100027bb   Thumb Code    12  main.o(.text)
    CheckFIFOFull                            0x100027c7   Thumb Code    18  main.o(.text)
    GATTDataSend                             0x100027d9   Thumb Code    86  main.o(.text)
    ATTCSetCallback                          0x1000282f   Thumb Code     4  main.o(.text)
    ATTCMTUReq                               0x10002833   Thumb Code    24  main.o(.text)
    ATTCFindInfoReq                          0x1000284b   Thumb Code    28  main.o(.text)
    ATTCFindByTypeValueReq                   0x10002867   Thumb Code    40  main.o(.text)
    ATTCReadByTypeReq                        0x1000288f   Thumb Code    36  main.o(.text)
    ATTCReadReq                              0x100028b3   Thumb Code    24  main.o(.text)
    ATTCReadBlobReq                          0x100028cb   Thumb Code    28  main.o(.text)
    ATTCReadMultipleReq                      0x100028e7   Thumb Code    28  main.o(.text)
    ATTCReadByGroupTypeReq                   0x10002903   Thumb Code    34  main.o(.text)
    ATTCWriteReq                             0x10002925   Thumb Code    32  main.o(.text)
    ATTCWriteCmdReq                          0x10002945   Thumb Code    32  main.o(.text)
    ATTCPrepareWriteReq                      0x10002965   Thumb Code    36  main.o(.text)
    ATTCExecuteWriteReq                      0x10002989   Thumb Code    24  main.o(.text)
    ATTCConfirmation                         0x100029a1   Thumb Code    20  main.o(.text)
    _SYSClockSwitch                          0x100029b5   Thumb Code    86  main.o(.text)
    MCUClockSwitch                           0x10002a0b   Thumb Code     2  main.o(.text)
    GetMCUClock                              0x10002a0d   Thumb Code    14  main.o(.text)
    GetClock                                 0x10002a1b   Thumb Code    16  main.o(.text)
    WakeupConfig                             0x10002a2b   Thumb Code    12  main.o(.text)
    LLSleep                                  0x10002a37   Thumb Code    12  main.o(.text)
    Rand                                     0x10002a43   Thumb Code     4  main.o(.text)
    DelayUS                                  0x10002a47   Thumb Code     4  main.o(.text)
    DelayMS                                  0x10002a4b   Thumb Code     6  main.o(.text)
    GetCompanyID                             0x10002a51   Thumb Code    18  main.o(.text)
    GetQFNType                               0x10002a63   Thumb Code    20  main.o(.text)
    RFRead                                   0x10002a77   Thumb Code    70  main.o(.text)
    RFWrite                                  0x10002abd   Thumb Code     8  main.o(.text)
    lib_check_ble_fsm_state                  0x10002ac5   Thumb Code    26  main.o(.text)
    SystemSleep                              0x10002adf   Thumb Code    18  main.o(.text)
    SystemPowerDown                          0x10002af1   Thumb Code    78  main.o(.text)
    SystemReset                              0x10002b3f   Thumb Code    12  main.o(.text)
    CapdetEn                                 0x10002b4b   Thumb Code    10  main.o(.text)
    PowerDownLPOEn                           0x10002b55   Thumb Code    12  main.o(.text)
    SetBondManagerIndex                      0x10002b61   Thumb Code    12  main.o(.text)
    GetBondDevice                            0x10002b6d   Thumb Code     6  main.o(.text)
    AddBondDevice                            0x10002b73   Thumb Code    12  main.o(.text)
    DelAllBondDevice                         0x10002b7f   Thumb Code    10  main.o(.text)
    DelBondDevice                            0x10002b89   Thumb Code    12  main.o(.text)
    ReadProfileData                          0x10002b95   Thumb Code     6  main.o(.text)
    WriteProfileData                         0x10002b9b   Thumb Code     6  main.o(.text)
    EraseFlashData                           0x10002ba1   Thumb Code    78  main.o(.text)
    ReadFlashData                            0x10002bef   Thumb Code    56  main.o(.text)
    WriteFlashData                           0x10002c27   Thumb Code    56  main.o(.text)
    CodeErase                                0x10002c5f   Thumb Code   100  main.o(.text)
    CodeErase_sector                         0x10002cc3   Thumb Code    72  main.o(.text)
    _FMCodeWrite                             0x10002d0b   Thumb Code    58  main.o(.text)
    CodeWrite                                0x10002d45   Thumb Code    30  main.o(.text)
    CodeUpdate                               0x10002d63   Thumb Code    10  main.o(.text)
    FlashDataUpdate                          0x10002d6d   Thumb Code   124  main.o(.text)
    ble_sched_execute                        0x10002de9   Thumb Code   150  main.o(.text)
    ble_sched_finish                         0x10002e7f   Thumb Code     4  main.o(.text)
    syd52832_chip_confirm                    0x10002e83   Thumb Code    26  main.o(.text)
    gap_s_smart_update_latency               0x10002e9d   Thumb Code   246  main.o(.text)
    eFuseManual                              0x10002f93   Thumb Code    28  main.o(.text)
    GPADC_Manual_Calibration                 0x10002faf   Thumb Code    34  main.o(.text)
    GPADC_Get_Calibration                    0x10002fd1   Thumb Code    22  main.o(.text)
    GAPGetUartEn                             0x10002fe7   Thumb Code     6  main.o(.text)
    GAPUartEn                                0x10002fed   Thumb Code     6  main.o(.text)
    GAPBBDelayUS                             0x10002ff3   Thumb Code     4  main.o(.text)
    GAPBBDelayMS                             0x10002ff7   Thumb Code     6  main.o(.text)
    GAPGetRFAutoSleep                        0x10002ffd   Thumb Code     4  main.o(.text)
    GAPSetRFAutoSleep                        0x10003001   Thumb Code     6  main.o(.text)
    Setting4kUpdate                          0x10003007   Thumb Code   116  main.o(.text)
    SetDevAddr_toflash                       0x1000307b   Thumb Code    72  main.o(.text)
    gap_s_verdor_datas_get                   0x100030c3   Thumb Code    28  main.o(.text)
    gap_s_verdor_datas_set                   0x100030df   Thumb Code    66  main.o(.text)
    gap_s_is_ll_start_enc                    0x10003121   Thumb Code    26  main.o(.text)
    GAPBBTXFIFO0Write                        0x1000313b   Thumb Code     4  main.o(.text)
    flash_peotect_key_confirm                0x1000313f   Thumb Code   148  main.o(.text)
    swd_lock                                 0x100031d3   Thumb Code    36  main.o(.text)
    flash_data_offect_get                    0x100031f7   Thumb Code    52  main.o(.text)
    EraseCodeB                               0x1000322b   Thumb Code    58  main.o(.text)
    ReadCodeB                                0x10003265   Thumb Code    64  main.o(.text)
    WriteCodeB                               0x100032a5   Thumb Code    96  main.o(.text)
    ble_SetTxPower                           0x10003305   Thumb Code   248  main.o(.text)
    flash_data_size_get                      0x100033fd   Thumb Code    18  main.o(.text)
    code_idx_get                             0x1000340f   Thumb Code     6  main.o(.text)
    flash_data_size_set                      0x10003415   Thumb Code   146  main.o(.text)
    Get_RSSI_Last_RX                         0x100034a7   Thumb Code    82  main.o(.text)
    APP_Read_Attribute_Encrypt               0x100034f9   Thumb Code    62  main.o(.text)
    APP_Write_Attribute_Encrypt              0x10003537   Thumb Code    66  main.o(.text)
    APP_Read_Charact_Permission              0x10003579   Thumb Code    66  main.o(.text)
    smart_latency_target                     0x100035bb   Thumb Code    30  main.o(.text)
    smp_aes_encrypt                          0x100035d9   Thumb Code     4  main.o(.text)
    gap_get_flash_data_info                  0x100035dd   Thumb Code    26  main.o(.text)
    gap_set_flash_data_info                  0x100035f7   Thumb Code    70  main.o(.text)
    gap_check_dev_bonded                     0x1000363d   Thumb Code     6  main.o(.text)
    syd_set_chip_flash_all_size              0x10003643   Thumb Code     6  main.o(.text)
    Xtal_trim_get                            0x10003649   Thumb Code   106  main.o(.text)
    Xtal_trim_set                            0x100036b3   Thumb Code   164  main.o(.text)
    flash_read_sfdp                          0x10003757   Thumb Code    46  main.o(.text)
    syd_read_unique_id                       0x10003785   Thumb Code    30  main.o(.text)
    __aeabi_uidiv                            0x100039c1   Thumb Code     0  uidiv.o(.text)
    __aeabi_uidivmod                         0x100039c1   Thumb Code    44  uidiv.o(.text)
    __aeabi_idiv                             0x100039ed   Thumb Code     0  idiv.o(.text)
    __aeabi_idivmod                          0x100039ed   Thumb Code    40  idiv.o(.text)
    __aeabi_memcpy                           0x10003a15   Thumb Code    36  memcpya.o(.text)
    __aeabi_memcpy4                          0x10003a15   Thumb Code     0  memcpya.o(.text)
    __aeabi_memcpy8                          0x10003a15   Thumb Code     0  memcpya.o(.text)
    __aeabi_memset                           0x10003a39   Thumb Code    14  memseta.o(.text)
    __aeabi_memset4                          0x10003a39   Thumb Code     0  memseta.o(.text)
    __aeabi_memset8                          0x10003a39   Thumb Code     0  memseta.o(.text)
    __aeabi_memclr                           0x10003a47   Thumb Code     4  memseta.o(.text)
    __aeabi_memclr4                          0x10003a47   Thumb Code     0  memseta.o(.text)
    __aeabi_memclr8                          0x10003a47   Thumb Code     0  memseta.o(.text)
    _memset$wrapper                          0x10003a4b   Thumb Code    18  memseta.o(.text)
    memcmp                                   0x10003a5d   Thumb Code    26  memcmp.o(.text)
    __aeabi_uread4                           0x10003a77   Thumb Code    20  uread4.o(.text)
    __rt_uread4                              0x10003a77   Thumb Code     0  uread4.o(.text)
    _uread4                                  0x10003a77   Thumb Code     0  uread4.o(.text)
    __aeabi_uwrite4                          0x10003a8b   Thumb Code    18  uwrite4.o(.text)
    __rt_uwrite4                             0x10003a8b   Thumb Code     0  uwrite4.o(.text)
    _uwrite4                                 0x10003a8b   Thumb Code     0  uwrite4.o(.text)
    __aeabi_fadd                             0x10003a9d   Thumb Code   162  fadd.o(.text)
    __aeabi_fsub                             0x10003b3f   Thumb Code     8  fadd.o(.text)
    __aeabi_frsub                            0x10003b47   Thumb Code     8  fadd.o(.text)
    __aeabi_dadd                             0x10003b51   Thumb Code   328  dadd.o(.text)
    __aeabi_dsub                             0x10003c99   Thumb Code    12  dadd.o(.text)
    __aeabi_drsub                            0x10003ca5   Thumb Code    12  dadd.o(.text)
    __aeabi_dmul                             0x10003cb5   Thumb Code   202  dmul.o(.text)
    __aeabi_ddiv                             0x10003d85   Thumb Code   234  ddiv.o(.text)
    __aeabi_ui2f                             0x10003e75   Thumb Code    14  ffltui.o(.text)
    __aeabi_i2d                              0x10003e85   Thumb Code    34  dflti.o(.text)
    __aeabi_ui2d                             0x10003ead   Thumb Code    24  dfltui.o(.text)
    __aeabi_d2uiz                            0x10003ec9   Thumb Code    50  dfixui.o(.text)
    __aeabi_f2d                              0x10003f05   Thumb Code    40  f2d.o(.text)
    __aeabi_uldivmod                         0x10003f2d   Thumb Code    96  uldiv.o(.text)
    __aeabi_llsl                             0x10003f8d   Thumb Code    32  llshl.o(.text)
    _ll_shift_l                              0x10003f8d   Thumb Code     0  llshl.o(.text)
    __aeabi_llsr                             0x10003fad   Thumb Code    34  llushr.o(.text)
    _ll_ushift_r                             0x10003fad   Thumb Code     0  llushr.o(.text)
    __aeabi_lasr                             0x10003fcf   Thumb Code    38  llsshr.o(.text)
    _ll_sshift_r                             0x10003fcf   Thumb Code     0  llsshr.o(.text)
    __I$use$fp                               0x10003ff5   Thumb Code     0  iusefp.o(.text)
    _float_round                             0x10003ff5   Thumb Code    16  fepilogue.o(.text)
    _float_epilogue                          0x10004005   Thumb Code   114  fepilogue.o(.text)
    _double_round                            0x10004077   Thumb Code    26  depilogue.o(.text)
    _double_epilogue                         0x10004091   Thumb Code   164  depilogue.o(.text)
    __aeabi_d2ulz                            0x10004135   Thumb Code    54  dfixul.o(.text)
    __aeabi_cdrcmple                         0x10004175   Thumb Code    38  cdrcmple.o(.text)
    __scatterload                            0x1000419d   Thumb Code    28  init.o(.text)
    __scatterload_rt2                        0x1000419d   Thumb Code     0  init.o(.text)
    __0vsprintf                              0x100041c1   Thumb Code    30  printfa.o(i.__0vsprintf)
    __1vsprintf                              0x100041c1   Thumb Code     0  printfa.o(i.__0vsprintf)
    __2vsprintf                              0x100041c1   Thumb Code     0  printfa.o(i.__0vsprintf)
    __c89vsprintf                            0x100041c1   Thumb Code     0  printfa.o(i.__0vsprintf)
    vsprintf                                 0x100041c1   Thumb Code     0  printfa.o(i.__0vsprintf)
    __ARM_clz                                0x100041e5   Thumb Code    46  depilogue.o(i.__ARM_clz)
    __ARM_common_switch8                     0x10004213   Thumb Code    26  main.o(i.__ARM_common_switch8)
    __scatterload_copy                       0x1000422d   Thumb Code    14  handlers.o(i.__scatterload_copy)
    __scatterload_null                       0x1000423b   Thumb Code     2  handlers.o(i.__scatterload_null)
    __scatterload_zeroinit                   0x1000423d   Thumb Code    14  handlers.o(i.__scatterload_zeroinit)
    adv_chn_to_freq_idx                      0x10004ae6   Data           3  main.o(.constdata)
    Region$$Table$$Base                      0x10004b10   Number         0  anon$$obj.o(Region$$Table)
    Region$$Table$$Limit                     0x10004b30   Number         0  anon$$obj.o(Region$$Table)
    PIN_CONFIG                               0x20003008   Data           4  gpio.o(.data)
    GPIO_CTRL                                0x2000300c   Data           4  gpio.o(.data)
    GPO_CTRL                                 0x20003010   Data           4  gpio.o(.data)
    GPI_CTRL                                 0x20003014   Data           4  gpio.o(.data)
    GPIO_IRQ_CTRL                            0x20003018   Data           4  gpio.o(.data)
    SystemCoreClock                          0x20003058   Data           4  system_armcm0.o(.data)
    ble_rc32k_clk_lpo_ing_flag               0x20003060   Data           1  main.o(.data)
    master_system                            0x20003062   Data           1  main.o(.data)
    p_gett_db_hdr                            0x20003078   Data           4  main.o(.data)
    __initial_sp                             0x20003588   Data           0  startup_armcm0.o(STACK)



==============================================================================

Memory Map of the image

  Image Entry point : 0x100000c1

  Load Region LR_IROM1 (Base: 0x10000000, Size: 0x00004bcc, Max: 0x0003f000, ABSOLUTE)

    Execution Region ER_IROM1 (Base: 0x10000000, Size: 0x00004b30, Max: 0x0003f000, ABSOLUTE)

    Base Addr    Size         Type   Attr      Idx    E Section Name        Object

    0x10000000   0x000000c0   Data   RO          203    RESET               startup_armcm0.o
    0x100000c0   0x00000000   Code   RO          319  * .ARM.Collect$$$$00000000  mc_p.l(entry.o)
    0x100000c0   0x00000004   Code   RO          384    .ARM.Collect$$$$00000001  mc_p.l(entry2.o)
    0x100000c4   0x00000004   Code   RO          387    .ARM.Collect$$$$00000004  mc_p.l(entry5.o)
    0x100000c8   0x00000000   Code   RO          389    .ARM.Collect$$$$00000008  mc_p.l(entry7b.o)
    0x100000c8   0x00000000   Code   RO          391    .ARM.Collect$$$$0000000A  mc_p.l(entry8b.o)
    0x100000c8   0x00000008   Code   RO          392    .ARM.Collect$$$$0000000B  mc_p.l(entry9a.o)
    0x100000d0   0x00000000   Code   RO          394    .ARM.Collect$$$$0000000D  mc_p.l(entry10a.o)
    0x100000d0   0x00000000   Code   RO          396    .ARM.Collect$$$$0000000F  mc_p.l(entry11a.o)
    0x100000d0   0x00000004   Code   RO          385    .ARM.Collect$$$$00002712  mc_p.l(entry2.o)
    0x100000d4   0x00000184   Code   RO            3    .text               main.o
    0x10000258   0x00000090   Code   RO           76    .text               debug.o
    0x100002e8   0x000004f8   Code   RO          108    .text               uart.o
    0x100007e0   0x0000058c   Code   RO          143    .text               gpio.o
    0x10000d6c   0x000003f0   Code   RO          172    .text               pwm.o
    0x1000115c   0x0000001c   Code   RO          204    .text               startup_armcm0.o
    0x10001178   0x00000018   Code   RO          210    .text               system_armcm0.o
    0x10001190   0x00002830   Code   RO          239    .text               syd8811_ble_lib.lib(main.o)
    0x100039c0   0x0000002c   Code   RO          322    .text               mc_p.l(uidiv.o)
    0x100039ec   0x00000028   Code   RO          324    .text               mc_p.l(idiv.o)
    0x10003a14   0x00000024   Code   RO          326    .text               mc_p.l(memcpya.o)
    0x10003a38   0x00000024   Code   RO          328    .text               mc_p.l(memseta.o)
    0x10003a5c   0x0000001a   Code   RO          330    .text               mc_p.l(memcmp.o)
    0x10003a76   0x00000014   Code   RO          362    .text               mc_p.l(uread4.o)
    0x10003a8a   0x00000012   Code   RO          364    .text               mc_p.l(uwrite4.o)
    0x10003a9c   0x000000b2   Code   RO          366    .text               mf_p.l(fadd.o)
    0x10003b4e   0x00000002   PAD
    0x10003b50   0x00000164   Code   RO          368    .text               mf_p.l(dadd.o)
    0x10003cb4   0x000000d0   Code   RO          370    .text               mf_p.l(dmul.o)
    0x10003d84   0x000000f0   Code   RO          372    .text               mf_p.l(ddiv.o)
    0x10003e74   0x0000000e   Code   RO          374    .text               mf_p.l(ffltui.o)
    0x10003e82   0x00000002   PAD
    0x10003e84   0x00000028   Code   RO          376    .text               mf_p.l(dflti.o)
    0x10003eac   0x0000001c   Code   RO          378    .text               mf_p.l(dfltui.o)
    0x10003ec8   0x0000003c   Code   RO          380    .text               mf_p.l(dfixui.o)
    0x10003f04   0x00000028   Code   RO          382    .text               mf_p.l(f2d.o)
    0x10003f2c   0x00000060   Code   RO          401    .text               mc_p.l(uldiv.o)
    0x10003f8c   0x00000020   Code   RO          403    .text               mc_p.l(llshl.o)
    0x10003fac   0x00000022   Code   RO          405    .text               mc_p.l(llushr.o)
    0x10003fce   0x00000026   Code   RO          407    .text               mc_p.l(llsshr.o)
    0x10003ff4   0x00000000   Code   RO          409    .text               mc_p.l(iusefp.o)
    0x10003ff4   0x00000082   Code   RO          410    .text               mf_p.l(fepilogue.o)
    0x10004076   0x000000be   Code   RO          412    .text               mf_p.l(depilogue.o)
    0x10004134   0x00000040   Code   RO          416    .text               mf_p.l(dfixul.o)
    0x10004174   0x00000028   Code   RO          418    .text               mf_p.l(cdrcmple.o)
    0x1000419c   0x00000024   Code   RO          420    .text               mc_p.l(init.o)
    0x100041c0   0x00000024   Code   RO          341    i.__0vsprintf       mc_p.l(printfa.o)
    0x100041e4   0x0000002e   Code   RO          414    i.__ARM_clz         mf_p.l(depilogue.o)
    0x10004212   0x0000001a   Code   RO          259    i.__ARM_common_switch8  syd8811_ble_lib.lib(main.o)
    0x1000422c   0x0000000e   Code   RO          426    i.__scatterload_copy  mc_p.l(handlers.o)
    0x1000423a   0x00000002   Code   RO          427    i.__scatterload_null  mc_p.l(handlers.o)
    0x1000423c   0x0000000e   Code   RO          428    i.__scatterload_zeroinit  mc_p.l(handlers.o)
    0x1000424a   0x00000002   PAD
    0x1000424c   0x00000158   Code   RO          342    i._fp_digits        mc_p.l(printfa.o)
    0x100043a4   0x000006ec   Code   RO          343    i._printf_core      mc_p.l(printfa.o)
    0x10004a90   0x00000020   Code   RO          344    i._printf_post_padding  mc_p.l(printfa.o)
    0x10004ab0   0x0000002c   Code   RO          345    i._printf_pre_padding  mc_p.l(printfa.o)
    0x10004adc   0x0000000a   Code   RO          347    i._sputc            mc_p.l(printfa.o)
    0x10004ae6   0x00000028   Data   RO          241    .constdata          syd8811_ble_lib.lib(main.o)
    0x10004b0e   0x00000002   PAD
    0x10004b10   0x00000020   Data   RO          424    Region$$Table       anon$$obj.o


    Execution Region RW_IRAM1 (Base: 0x20003000, Size: 0x00000588, Max: 0x00005000, ABSOLUTE)

    Base Addr    Size         Type   Attr      Idx    E Section Name        Object

    0x20003000   0x00000008   Data   RW          109    .data               uart.o
    0x20003008   0x00000048   Data   RW          144    .data               gpio.o
    0x20003050   0x00000008   Data   RW          173    .data               pwm.o
    0x20003058   0x00000004   Data   RW          211    .data               system_armcm0.o
    0x2000305c   0x00000040   Data   RW          242    .data               syd8811_ble_lib.lib(main.o)
    0x2000309c   0x00000080   Zero   RW           77    .bss                debug.o
    0x2000311c   0x00000068   Zero   RW          240    .bss                syd8811_ble_lib.lib(main.o)
    0x20003184   0x00000004   PAD
    0x20003188   0x00000400   Zero   RW          201    STACK               startup_armcm0.o


==============================================================================

Image component sizes


      Code (inc. data)   RO Data    RW Data    ZI Data      Debug   Object Name

       144         18          0          0        128       2330   debug.o
      1420         44          0         72          0      12522   gpio.o
       388         58          0          0          0      36286   main.o
      1008         68          0          8          0       4112   pwm.o
        28          8        192          0       1024        636   startup_armcm0.o
        24          8          0          4          0        821   system_armcm0.o
      1272         28          0          8          0      50848   uart.o

    ----------------------------------------------------------------------
      4284        232        224         92       1152     107555   Object Totals
         0          0         32          0          0          0   (incl. Generated)
         0          0          0          0          0          0   (incl. Padding)

    ----------------------------------------------------------------------

      Code (inc. data)   RO Data    RW Data    ZI Data      Debug   Library Member Name

         0          0          0          0          0          0   entry.o
         0          0          0          0          0          0   entry10a.o
         0          0          0          0          0          0   entry11a.o
         8          4          0          0          0          0   entry2.o
         4          0          0          0          0          0   entry5.o
         0          0          0          0          0          0   entry7b.o
         0          0          0          0          0          0   entry8b.o
         8          4          0          0          0          0   entry9a.o
        30          0          0          0          0          0   handlers.o
        40          0          0          0          0         72   idiv.o
        36          8          0          0          0         68   init.o
         0          0          0          0          0          0   iusefp.o
        32          0          0          0          0         68   llshl.o
        38          0          0          0          0         68   llsshr.o
        34          0          0          0          0         68   llushr.o
        26          0          0          0          0         72   memcmp.o
        36          0          0          0          0         60   memcpya.o
        36          0          0          0          0        100   memseta.o
      2238         96          0          0          0        460   printfa.o
        44          0          0          0          0         72   uidiv.o
        96          0          0          0          0         84   uldiv.o
        20          0          0          0          0         60   uread4.o
        18          0          0          0          0         60   uwrite4.o
        40          2          0          0          0         68   cdrcmple.o
       356          4          0          0          0        140   dadd.o
       240          6          0          0          0         84   ddiv.o
       236          0          0          0          0        216   depilogue.o
        60         10          0          0          0         68   dfixui.o
        64         10          0          0          0         68   dfixul.o
        40          6          0          0          0         68   dflti.o
        28          4          0          0          0         68   dfltui.o
       208          6          0          0          0         88   dmul.o
        40          0          0          0          0         60   f2d.o
       178          0          0          0          0        108   fadd.o
       130          0          0          0          0        144   fepilogue.o
        14          0          0          0          0         68   ffltui.o
     10314        502         40         64        104     109387   main.o

    ----------------------------------------------------------------------
     14698        662         42         64        108     111947   Library Totals
         6          0          2          0          4          0   (incl. Padding)

    ----------------------------------------------------------------------

      Code (inc. data)   RO Data    RW Data    ZI Data      Debug   Library Name

      2744        112          0          0          0       1312   mc_p.l
      1634         48          0          0          0       1248   mf_p.l
     10314        502         40         64        104     109387   syd8811_ble_lib.lib

    ----------------------------------------------------------------------
     14698        662         42         64        108     111947   Library Totals

    ----------------------------------------------------------------------

==============================================================================


      Code (inc. data)   RO Data    RW Data    ZI Data      Debug   

     18982        894        266        156       1260     217798   Grand Totals
     18982        894        266        156       1260     217798   ELF Image Totals
     18982        894        266        156          0          0   ROM Totals

==============================================================================

    Total RO  Size (Code + RO Data)                19248 (  18.80kB)
    Total RW  Size (RW Data + ZI Data)              1416 (   1.38kB)
    Total ROM Size (Code + RO Data + RW Data)      19404 (  18.95kB)

==============================================================================

