:020000041000EA
:10000000B87300207D3B0010853B0010873B00103B
:1000100000000000000000000000000000000000E0
:100020000000000000000000000000009F3A0010E7
:10003000000000000000000003010010473B00101A
:10004000330E00108F3B00108F3B00108F3B0010D1
:100050008F3B00108F3B0010D51000108F3B00101D
:100060008F3B00108F3B00108F3B00108F3B001028
:100070008F3B00108F3B00108F3B00108F3B001018
:100080008F3B00108F3B00108F3B00108F3B001008
:100090008F3B00108F3B00108F3B00108F3B0010F8
:1000A0008F3B00102F1300108F3B00108F3B001070
:1000B0008F3B00108F3B00108F3B00108F3B0010D8
:1000C0000348854606F09AFA00480047FF010010F1
:1000D000B8730020064B19680868203080F309883F
:1000E000022080F314883FBCAE4662B600BD00001B
:1000F00080300020EFF3108072B6704780F31088D4
:100100007047EFF309800E4B1A6820381060F0C07A
:1001100044464D4656465F46F0C008B572B602F0FA
:10012000EBFA62B60CBC116808681030F0C8A04643
:10013000A946B246BB4680F309882038F0C8184764
:100140008030002010B500F0C9FB012004F0A2F8B7
:1001500038A000F0C7FB012000F0B6FC0121002010
:1001600000F068FC012000F05EFD10BD00BFFF2024
:10017000F53002F0DFF9012000F087FD36A000F035
:10018000B1FBF4E708B502F059FC009000BF384914
:10019000684602F07FF937A000F0A4FBF7E71FB52F
:1001A00001243BA000F09EFB00200423019002905C
:1001B000009303900346802238A13A4801F053FF90
:1001C0000446012C02D138A000F08CFB0020032350
:1001D00001900290009303900346802238A13A4890
:1001E00001F041FF0446012C02D138A000F07AFB57
:1001F0003CA000F077FB41A000F074FB1FBD10B5E0
:1002000072B600F07DFA002004F088FF04F01DF8BB
:10021000002004F0BEF804F0CDF8FFF793FF38A0FB
:1002200000F060FB62B6FFF7BAFF02F0DAFB0020D5
:1002300010BD00000D0A5359443838313120556142
:100240007274206465627567206D6F6465207465E3
:1002500073742E0D0A0000000D0A5461736B312077
:10026000765461736B44656C61790D0A000000007F
:10027000B80B00000D0A5461736B32207654617321
:100280006B44656C6179556E74696C0D0A000000F1
:10029000496E6974207461736B0D0A005461736B4D
:1002A000310000006D0100104372656174652054D7
:1002B00061736B312053756363657373210D0A009D
:1002C0005461736B32000000850100104372656158
:1002D0007465205461736B32205375636365737367
:1002E000210D0A000D0A5359443838313120667205
:1002F000656552544F532053746172740D0A0000A7
:10030000626F6172642068617264776172652069EE
:100310006E69740D0A00000000B585B000200090E1
:1003200000216846017107214173C821C181022162
:10033000018201A804F025FCFE4804F010FCFD48F1
:100340004078FD49C873FB4880780874F948C07844
:100350004874F84800798874F6484079C874F548BC
:100360008079087501236A461C21F34804F00FFCCC
:1003700005B000BD70473EB505460C46EF48007815
:10038000012827D1EE480078002813D0ED496846AF
:100390000180EC491F3941802C218180022101819B
:1003A000142C00DD14242B4622466946022004F05A
:1003B000AEFD3EBD012168460180032141801F2121
:1003C0008180012101812B4622466946012004F0EB
:1003D0009EFDEEE70020ECE713B582B06846408949
:1003E00015214902884209D1D7A003C80191009084
:1003F00005246946204604F07BFD89E06846408973
:10040000D349884208D1D3A000680190022401A9F1
:10041000204604F06DFD7BE068464089CC492831D8
:10042000884209D1CCA103C90191009008246946F2
:10043000204604F05DFD6BE068464089C4492331E5
:10044000884209D1C6A103C90191009007246946D9
:10045000204604F04DFD5BE068464089BC492431EC
:10046000884209D1C0A103C90191009005246946C1
:10047000204604F03DFD4BE068464089B4492631F2
:10048000884208D1BAA000680190042401A920463E
:1004900004F02EFD3CE068464089AD492531884294
:1004A00008D1B4A000680190042401A9204604F0FA
:1004B0001FFD2DE068464089A5492731884208D1B3
:1004C000ADA000680190042401A9204604F010FDAD
:1004D0001EE0684640899E494F31884209D1A7A154
:1004E00003C90191009007246946204604F000FDED
:1004F0000EE06846408993491E39884207D1A1A081
:1005000000680190042101A8FFF735FF00E000BF5B
:100510001FBD7047F0B58DB00446601C05F0DBFCD4
:10052000012805D104F06FFC97A000F0DBF9E5E0AD
:10053000601C05F0D0FC022813D100207F49087010
:100540000120964908700020954908709549087067
:100550000622A11D94A000F0E9F90120FFF70AFF8F
:10056000CCE0601C05F0B7FC04280BD100208B49BF
:10057000087072490870617991A000F0B3F904F035
:1005800042FCBBE0601C05F0A6FC01214903884247
:100590003CD1A1796279080210436A49884205D0AA
:1005A000A179627908021043012816D1217AE279F3
:1005B000080210432D28BAD1A17A627A08021043AA
:1005C000012806D186A000F08DF901205B49087052
:1005D00094E000205949087090E0A17962790802FE
:1005E00010430128A3D1217AE279080210432D2873
:1005F0009DD1A17A627A08021043012802D15049A4
:1006000008707BE000204E49087077E0601C05F020
:1006100062FC0121490288420FD10E222146153188
:10062000684605F027FC1E22611D05A805F022FC86
:1006300005A80FC8FFF76DFF60E0601C05F04BFCDC
:10064000FF210131884209D10822611D0BA805F064
:1006500011FC0C990B98FFF7BFFE4FE0601C05F0F2
:100660003AFC01210903884248D0601C05F033FCA4
:1006700001218903884203D15EA000F033F93DE0F7
:10068000601C05F028FC0121C903884236D1A179FC
:10069000627908021043030006F017F80604080CFC
:1006A000102D2E2F58A000F01DF926E05CA000F0C0
:1006B00019F922E060A000F015F91EE00BA804F083
:1006C000E1FB63A000F00EF96946888D05F002FE9B
:1006D000074605F047FE0022634B0991089005F09C
:1006E00019FD05460B466946C88D2A4600905FA055
:1006F00000F0F8F801E000E000BF00BF0DB0F0BD71
:1007000000B589B004F0C9F908A804F0ECFB002199
:10071000684601764176807E81088900491C6846DA
:100720008176807E04218843011D684681761021F0
:10073000C176ABE0283000200530002000300020DA
:1007400001300020E7FE00005541525446000000F1
:10075000012A0000FFFF000053594420496E632E18
:10076000424C4520312E3000312E302E300000001A
:10077000322E3030332E3030342E3030023A0905EC
:100780000A020000000103044741505F4556545FD0
:100790004144565F454E440D0A00000002300020DF
:1007A00004300020033000204741505F4556545F1D
:1007B000434F4E4E454354454420616464723A00B1
:1007C0004741505F4556545F444953434F4E4E4551
:1007D000435445442825303278290D0A0000000092
:1007E00073746172745F747820656E61626C650DFC
:1007F0000A0000004741505F4556545F454E435F35
:1008000053544152540D0A000D0A757064617465A9
:10081000207273702041434345505445442E0000DC
:10082000757064617465207273702052454A454347
:100830005445442E000000005570646174652072B8
:1008400073702054494D45524F55542E00000000FE
:100850000D0A75706461746520727370205355437E
:10086000434545442E0000000000F43F0D0A696E28
:1008700074657276616C3A25666D732C206C6174B8
:10088000656E63793A25642E0D0A00000021017718
:100890000321417706A804F0E9FAC02004900E482D
:1008A000059004A804F004FB002004F0E5FCFFF729
:1008B00033FD002168460171C1710172012141714E
:1008C000817102A903310120000505F00EFB01A88A
:1008D00004F034FC09B000BD1505001010B500F09F
:1008E0000AFB10BD0FB438B5002500240498002879
:1008F00003D138BC08BC04B0184705A800901748BD
:10090000009A049905F0B8FEC5B200200090802D31
:1009100000DD8025002405E01049085D00F095FB0E
:10092000601CC4B2AC42F7DB00BFE2E7F8B5054695
:100930000E4617460024002D02D02846FFF7D2FFAE
:10094000002404E0315D06A0FFF7CCFF641CBC422C
:10095000F8DB05A0FFF7C6FFF8BD00002C31002032
:1009600025303278200000000D0A000010B5024644
:10097000002010E0012383401340002B0AD0FD4BE0
:100980001B6819540123834014469C432246002AC5
:1009900000D102E0401C2028ECD300BF10BDFCB504
:1009A0000346F54C221D019200220092002B02D139
:1009B000F24A009203E0012B01D1F14A0092009A21
:1009C000002A36D0002013E0012282400D46154057
:1009D000002D0CD02568009E375C0126BE403543B3
:1009E00025600D4695432946002900D102E0401CB0
:1009F0001828E9D300BF182017E0012585402A46B2
:100A00000D461540002D0FD0019D2D780646183E4D
:100A10000127B7403D43EEB2019D2E700D46954330
:100A20002946002900D102E0401C2028E5D300BF60
:100A300000BFFCBDFCB50346CF4C221D0192002235
:100A40000092002B02D1CD4A009203E0012B01D18C
:100A5000CB4A0092009A002A35D0002013E00122F0
:100A600082400D461540002D0CD02568009E375C55
:100A70000126BE40B54325600D4695432946002911
:100A800000D102E0401C1828E9D300BF182016E06E
:100A9000012585402A460D461540002D0ED0019DAA
:100AA0002D780646183E0127B740BD43019E35709C
:100AB0000D4695432946002900D102E0401C20281C
:100AC000E6D300BF00BFFCBDAE4909680A461378F3
:100AD000194653781B02194393781B041943D278A3
:100AE000120611438143A74A126811700B0A537012
:100AF0000B0C9370090ED170704710B5A14A1268A3
:100B000013461C7822465C78240222439C782404F5
:100B10002243DB781B061A4302439A4B1B681A7068
:100B2000140A5C70140C9C70120EDA70964A1268EB
:100B300013461C7822465C78240222439C782404C5
:100B40002243DB781B061A4302438F4B1B681A7043
:100B5000140A5C70140C9C70120EDA708A4A1268C7
:100B60000823D3181C7822465C78240222439C7800
:100B700024042243DB781B061A438243824B1B6802
:100B80001A72140A5C72140C9C72120EDA727E4A8B
:100B900012680823D3181C7822465C78240222436A
:100BA0009C7824042243DB781B061A430A43764BC5
:100BB0001B681A72140A5C72140C9C72120EDA72A0
:100BC00010BD714909680A461378194653781B020B
:100BD000194393781B041943D27812061143014339
:100BE000694A126811700B0A53700B0C9370090E4E
:100BF000D1707047644909680A46137819465378DA
:100C00001B02194393781B041943D278120611432F
:100C100081435D4A126811700B0A53700B0C93707C
:100C2000090ED1707047594909680A461378194668
:100C300053781B02194393781B041943D278120688
:100C400011430143514A126811700B0A53700B0C87
:100C50009370090ED17070474C4909680A461378A1
:100C6000194653781B02194393781B041943D27811
:100C7000120611438143454A126811700B0A5370E2
:100C80000B0C9370090ED1707047404909680A46F1
:100C90001378194653781B02194393781B041943A0
:100CA000D278120611434140384A126811700B0A7B
:100CB00053700B0C9370090ED17070470146324887
:100CC0000068021D1378184653781B021843937866
:100CD0001B041843D278120610430840704710B521
:100CE0000A462B4909681823CB181C7821465C78E2
:100CF000240221439C7824042143DB781B061943FA
:100D00000140234B1B6819700C0A5C700C0C9C7022
:100D1000090ED9701E4909681023CB181C7821468A
:100D20005C78240221439C7824042143DB781B0651
:100D300019438143164B1B6819740C0A5C740C0C24
:100D40009C74090ED9741249096820310978490840
:100D500049000F4B1B68203319700E490A600C21A3
:100D6000002905DBCC06E40E0123A3400A4C2360D6
:100D700000BF10BD303000208010005048300020EF
:100D800060300020343000203C300020383000201B
:100D9000403000204430002000E100E0464909686E
:100DA00010228A181378194653781B021943937836
:100DB0001B041943D2781206114301433E4A1268BC
:100DC00011740B0A53740B0C9374090ED174704791
:100DD0000C20002815DBC206D20E01219140374AB3
:100DE000116000BF00BF00BFBFF34F8F00BF00BF47
:100DF00000BF00BF00BF00BFBFF36F8F00BF00BFC9
:100E000000BF00BF0020C0432B4909680874020AD4
:100E10004A74020C8A74000EC87427480068203097
:100E2000007840084000401C2349096820310870C0
:100E3000704710B520480068182141180A781046FC
:100E40004A78120210438A7812041043C9780906BE
:100E500008431949096810228A18137819465378EB
:100E60001B02194393781B041943D27812061143CD
:100E7000884300281ED012480068002802D010487D
:100E8000006880470C480068182141180A7810460D
:100E90004A78120210438A7812041043C97809066E
:100EA0000843054909680870020A4A70020C8A70F2
:100EB000000EC87010BD00004030002080E100E04E
:100EC00044300020002815DBC206D20E01219140DB
:100ED000FA4A116000BF00BF00BFBFF34F8F00BFD1
:100EE00000BF00BF00BF00BF00BFBFF36F8F00BFD8
:100EF00000BF00BF704710B5F1480068C07B800993
:100F00008001C01CEE490968C873ED480068007C88
:100F100080098001001DEA4909680874E8480068F2
:100F20002030807820218843E54909682031887085
:100F3000E34800682030807840218843E049096810
:100F400020318870DF480068807840084000DD4923
:100F500009688870DB4800680078000900010830E3
:100F6000D84909680870D74800680078802188430C
:100F7000D44909680870D348006800784021884344
:100F80004030D04909680870CE480068C078102108
:100F900088431030CB490968C870CA480068807817
:100FA00004218843001DC74909688870C548006846
:100FB000807820218843C34909688870C148006847
:100FC000807810218843BF4909688870BD4800684F
:100FD000807880218843BB4909688870B9480068D7
:100FE000807840218843B74909688870B54800680F
:100FF000007810218843B34909680870B148006837
:10100000007820218843AF4909680870AD4800681E
:10101000807802218843801CAA4909688870A94801
:101020000068C078202188432030A6490968C8702C
:10103000062000F0B1F9A3480068807808218843B1
:101040000830A0490968887010BD9E490968487039
:1010500000BF9C49096809788906C90F0029F8D0A2
:1010600098490968097820229143964A12681170BC
:10107000704718B5024600200023009314E0914BFE
:101080001B681B790B54431CD8B26B461B785B1C46
:10109000DCB200946B461B785B1CDCB200946B46A0
:1010A0001B785B1CDCB20094864B1B68DB78DB078B
:1010B000DB0F002BE3D0107018BD10B5814800681D
:1010C0008078082188437F49096888700620FFF7E7
:1010D000F9FE10BD0CB57B4800680078C006C00F53
:1010E00000280CD0774800680078102188437549A3
:1010F00009680870694601A8FFF7BBFF00BF714887
:10110000006800788006C00F002807D06D4800688E
:101110000078202188436B49096808706948006895
:1011200080788007C00F002808D066480068807863
:1011300002218843801C6349096888700CBD10B582
:101140005F480068407980098001401D5C4909685A
:1011500048715B480068807980098001801D58498A
:10116000096888715648006820300078202188433B
:1011700053490968203108705148006820300078D0
:10118000402188434E490968203108704E48006864
:101190008078400840004C49096888704A480068D7
:1011A000007800090001083047490968087046487E
:1011B00000680078802188434349096808704248E4
:1011C000006800784021884340303F490968087032
:1011D0003D480068C0781021884310303A490968BA
:1011E000C87039480068807804218843001D36495A
:1011F0000968887034480068807820218843324923
:1012000009688870304800688078102188432E492A
:10121000096888702C4800688078802188432A49B2
:1012200009688870284800688078402188432649EA
:101230000968887024480068007810218843224992
:1012400009680870204800680078202188431E49FA
:10125000096808701C480068807802218843801C57
:1012600019490968887018480068C07820218843A7
:10127000203015490968C870072000F08DF8124821
:10128000006880780821884308300F490968887011
:1012900010BD0D490968487000BF0B4909680978FD
:1012A0008906C90F0029F8D0074909680978202262
:1012B0009143054A126811707047000080E100E018
:1012C00030300020783000207C30002018B50246F5
:1012D00000200023009314E0344B1B681B790B544F
:1012E000431CD8B26B461B785B1CDCB200946B4687
:1012F0001B785B1CDCB200946B461B785B1CDCB279
:1013000000942A4B1B68DB78DB07DB0F002BE3D054
:10131000107018BD10B525480068807808218843F2
:101320002249096888700720FFF7CCFD10BD0CB575
:101330001E4800680078C006C00F00280CD01B486B
:1013400000680078102188431849096808706946C8
:1013500001A8FFF7BBFF00BF1448006800788006B3
:10136000C00F002807D0114800680078202188436A
:101370000E49096808700D48006880788007C00F22
:10138000002808D009480068807802218843801C22
:101390000649096888700CBD002805DBC206D20E1C
:1013A00001219140024A1160704700007C3000200A
:1013B00000E100E00146083141600021C94381603D
:1013C00001460831C16001610021016070470021C0
:1013D0000161704742684A6093688B609368596006
:1013E0009160086103685B1C0360704710B502469A
:1013F0000B685C1C002C01D1106907E01046083016
:1014000000E04068446824689C42FAD944684C6013
:101410004C68A160886041600A611468641C1460B3
:1014200010BD01460A694B68886898608B684868F7
:1014300058605068884201D1886850600020086177
:101440001068401E106010687047000070B50546B7
:101450000E462C46002C02D172B600BFFEE702F009
:1014600055FB216CE06B4843216840186060002008
:10147000A0632068A060E06B401E216C4843216897
:101480004018E0600020C0436064A064002E10D1CA
:101490002069002801D1012000E00020002810D19F
:1014A0002046103001F08AFB01280AD102F025FB0A
:1014B00007E020461030FFF77DFF20462430FFF77D
:1014C00079FF02F02EFB012070BDFEB507460D46E8
:1014D00000200090002F01D0012000E00020002813
:1014E00002D172B600BFFEE7002D02D100200190AC
:1014F00003E038466843401C01900199084650308B
:1015000002F0DCF90646002E10D03446002D01D141
:10151000246002E0304650302060E76325640121FA
:101520002046FFF793FF0020E06400940098002815
:1015300002D172B600BFFEE70098FEBDF8B50446C2
:101540000E4615460027206C002809D12068002887
:1015500031D1606801F079FC0746002060602AE024
:10156000002D0FD13146226CA06804F083FC216C61
:10157000A0684018A0606168A06888421BD32068FA
:10158000A06018E03146226CE06804F073FC216C26
:10159000E068401AE0602168E068884203D2216C6C
:1015A0006068401AE060022D05D1A06B002802D0CF
:1015B000A06B401EA063A06B401CA0633846F8BD22
:1015C00073B50D460098C46C0026002C02D172B68B
:1015D00000BFFEE7A06BE16B884201D2012000E072
:1015E0000020002802D172B600BFFEE7A06BE16BBD
:1015F00088421CD22A4669462046FFF79FFF0646CE
:10160000A06C401C00280FD1606A002801D1012085
:1016100000E0002000280AD12046243001F0CEFA54
:10162000002804D0012602E0A06C401CA0643046D3
:101630007CBD10B5044602F069FA20E0E06C002899
:1016400008D000212046FFF7BBFF012814D101F08C
:101650008CFB11E0606A002801D1012000E000202D
:10166000002808D12046243001F0A8FA002803D031
:1016700001F07BFB00E005E0A06C401EA064A06CC4
:101680000028DBDC00BF0020C043A06402F049FA60
:1016900002F03CFA14E02069002801D1012000E0AA
:1016A000002000280BD12046103001F087FA0028D6
:1016B00001D001F05AFB606C401E606400E002E063
:1016C000606C0028E7DC00BF0020C043606402F0CB
:1016D00028FA10BD70B5054602F018FAA86BE96B40
:1016E000884201D1012400E0002402F01AFA2046C9
:1016F00070BDFFB583B006461D46002002903446FB
:10170000002C02D172B600BFFEE70498002802D177
:10171000206C002801D1012000E00020002802D127
:1017200072B600BFFEE7022D02D1E06B012801D1A5
:10173000012000E00020002802D172B600BFFEE7C1
:1017400001F035FB002802D10598002801D10120C5
:1017500000E00020002802D172B600BFFEE700BF03
:1017600002F0D4F9A06BE16B884201D3022D2BD19A
:101770002A4620460499FFF7E1FE0746E06C002860
:1017800008D029462046FFF71BFF012817D102F099
:10179000B4F914E0606A002801D1012000E00020C3
:1017A000002808D12046243001F008FA012806D18B
:1017B00002F0A3F903E0002F01D002F09EF902F03D
:1017C000B0F9012007B0F0BD0598002803D102F060
:1017D000A8F90020F6E70298002804D1684601F035
:1017E00083FA0120029002F09CF900F04DFE02F015
:1017F0008DF9606C401C002800D16064A06C401C16
:10180000002800D1A06402F08CF905A9684601F017
:1018100077FA002819D12046FFF75CFF00280ED088
:1018200020461030059901F054F92046FFF701FFDA
:1018300000F07DFD002893D102F05FF990E720468B
:10184000FFF7F7FE00F073FD8AE72046FFF7F1FE91
:1018500000F06DFD0020B5E770B50546502002F0A0
:101860002DF80446002C1CD0002060602060A06091
:10187000E060A0630120E06300202064401E6064FB
:10188000A0640020E06420461030FFF793FD20465E
:101890002430FFF78FFD00231A4619462046FFF734
:1018A00028FF002C02D172B600BFFEE7204670BDB3
:1018B00070B506463446002C02D172B600BFFEE772
:1018C00001F072FA616888420DD1E068401EE06064
:1018D000E068002805D100231A4619462046FFF784
:1018E00008FF012500E00025284670BD70B50546BB
:1018F00002F00CF9A86B002801D1012400E00024BB
:1019000002F00FF9204670BD70B504460D46206CFC
:1019100000280ED0216CE0684018E0606168E06843
:10192000884201D32068E0602846226CE16804F018
:10193000A1FA70BDFFB583B005460E4600200290A7
:101940002C46002C02D172B600BFFEE7002E02D159
:10195000206C002801D1012000E00020002802D1E5
:1019600072B600BFFEE701F022FA002802D1059806
:10197000002801D1012000E00020002802D172B629
:1019800000BFFEE700BF02F0C1F8A06B002837D00F
:10199000E76831462046FFF7B7FF0698002819D1BF
:1019A000A06B401EA0632068002802D101F097FAC6
:1019B00060602069002801D1012000E0002000289B
:1019C00019D12046103001F0F9F8012813D102F0A6
:1019D00094F810E0E760606A002801D1012000E07F
:1019E0000020002807D12046243001F0E7F8002825
:1019F00001D002F082F802F094F8012007B0F0BDA7
:101A00000598002803D102F08CF80020F6E7029830
:101A1000002804D1684601F067F90120029002F025
:101A200080F800F031FD02F071F8606C401C002875
:101A300000D16064A06C401C002800D1A06402F0BA
:101A400070F805A9684601F05BF9002823D120460B
:101A5000FFF74CFF002818D02068002806D102F0BC
:101A600055F8606801F0B1F902F05BF820462430C7
:101A7000059901F02EF82046FFF7DBFD00F057FC3A
:101A8000002880D102F039F87DE72046FFF7D1FD2C
:101A900000F04DFC77E72046FFF7CBFD00F047FC58
:101AA0000020ABE7F8B506460F463446002C02D1BD
:101AB00072B600BFFEE701F077F96168884204D191
:101AC000E068401CE06001250BE000233A4619461F
:101AD0002046FFF72FFF0546012D02D1E068401C8C
:101AE000E0602846F8BD70B505460E46002D01D0D1
:101AF000012000E00020002802D172B600BFFEE7FE
:101B0000AE4201D8012000E00020002802D172B6C8
:101B100000BFFEE7022200212846FFF7D6FC04465C
:101B2000002C00D0A663002C02D172B600BFFEE7E5
:101B3000204670BDFFB583B0074615461E463C469D
:101B4000002C02D172B600BFFEE70498002802D133
:101B5000206C002801D1012000E00020002802D1E3
:101B600072B600BFFEE7022E02D1E06B012801D160
:101B7000012000E00020002802D172B600BFFEE77D
:101B8000FEF7B8FA0190A06BE16B884201D3022EF8
:101B90002ED1324620460499FFF7D0FCA06C401CA1
:101BA00000281FD1E06C002809D031462046FFF7FD
:101BB00007FD012819D1002D17D0286015E0606AB3
:101BC000002801D1012000E0002000280DD120468E
:101BD000243000F0F3FF002807D0002D05D00120AD
:101BE000286002E0A06C401CA0640120029001E08B
:101BF000002002900198FEF781FA029807B0F0BD2C
:101C0000F8B506460D463446002C02D172B600BF28
:101C1000FEE7206C002801D1012000E00020002810
:101C200002D172B600BFFEE72068002802D16068CA
:101C3000002801D1012000E00020002802D172B666
:101C400000BFFEE7FEF756FA0090A06BE16B8842FA
:101C50002BD2A06B401CA063A06C401C00281FD19D
:101C6000E06C002809D000212046FFF7A9FC0128DC
:101C700019D1002D17D0286015E0606A002801D125
:101C8000012000E0002000280DD12046243000F083
:101C900095FF002807D0002D05D00120286002E024
:101CA000A06C401CA064012700E000270098FEF70C
:101CB00025FA3846F8BDF7B582B0054616462C46DB
:101CC000002C02D172B600BFFEE70398002802D1B3
:101CD000206C002801D1012000E00020002802D162
:101CE00072B600BFFEE7FEF705FA0190A06B002870
:101CF00022D020460399FFF707FEA06B401EA06389
:101D0000606C401C002812D12069002801D10120FC
:101D100000E0002000280DD12046103000F04EFFDA
:101D2000002807D0002E05D00120306002E0606C52
:101D3000401C6064012700E000270198FEF7DEF9EF
:101D4000384605B0F0BDF3B581B005462C46002CF1
:101D500002D172B600BFFEE70298002802D1206CC3
:101D6000002801D1012000E00020002802D172B635
:101D700000BFFEE7206C002801D0012000E0002019
:101D8000002802D172B600BFFEE7FEF7B3F900905B
:101D9000A06B002807D0E76820460299FFF7B4FD42
:101DA000E760012600E000260098FEF7A7F930461C
:101DB000FEBD70B50446002C02D172B600BFFEE72E
:101DC00001F0A4FEA56B01F0ACFE284670BD70B515
:101DD00004462546002D02D172B600BFFEE701F091
:101DE00095FEA96BE86B461A01F09BFE304670BD6C
:101DF0000146002902D172B600BFFEE7886B70472A
:101E000010B5014600200BE0C2005C4BD2185268AE
:101E10008A4204D10022C300584CE25002E0401C28
:101E20000A28F1D300BF10BD70B504462546002D29
:101E300002D172B600BFFEE72846FFF7E1FF284651
:101E400001F0C0FD70BD0146002902D172B600BF8D
:101E5000FEE78A6B002A01D1012000E000207047D4
:101E60000146002902D172B600BFFEE78A6BCB6B38
:101E70009A4201D1012000E00020704710B50246CF
:101E800000200BE0C3003D4CE358002B05D1C300FC
:101E9000E150C3001B195A6002E0401C0A28F1D32C
:101EA00000BF10BD70B505460E462C4601F02EFE53
:101EB000606C401C002800D16064A06C401C0028AD
:101EC00000D1A06401F02DFEA06B002804D13146A2
:101ED0002046243000F058FE2046FFF7AAFB70BDD4
:101EE00070B50446002204212046FFF7EEFA0546AD
:101EF000284670BD70B504460E4601F007FEE06C42
:101F0000002801D0002506E0A06B002801D00025A4
:101F100001E0E664012501F004FE284670BDF8B535
:101F200005460F462E46F06CB84201D000240BE067
:101F3000B06B002801D0002406E001F0E7FD00208E
:101F4000F06401F0EEFD01242046F8BD38B50546E9
:101F50000C46002000900023224669462846FFF7E1
:101F6000E9FC009838BD38B50446002000900022F6
:101F700069462046FFF79FFE009838BDAC3100202F
:101F800010B5002406E014216143FE4A8818FFF7CB
:101F900011FA641C0A2CF6D3FB48FFF70BFAFB4836
:101FA000FFF708FAFA48FFF705FAFA48FFF702FACE
:101FB000F948FFF7FFF9F448F8490860F348F84991
:101FC000086010BDF8B504460F461546002608E027
:101FD000B95D204634308155B85D002800D102E05B
:101FE000761C052EF4D300BF0021382001550A2DA0
:101FF00000D30925E562E56300202064201DFFF77A
:10200000E6F920461830FFF7E2F924610A20401B68
:10201000A061646200206064002148200155F8BD81
:10202000F8B505460F46002F03D1A80001F046FC85
:1020300000E038460646002E0BD04C2001F03EFC56
:102040000446002C01D0266304E0304601F0BAFCBF
:1020500000E00024002C04D0A900A522206B03F08E
:102060001BFF2046F8BDFFB583B016460C9D0398B4
:10207000002802D172B600BFFEE70A2D01D201206E
:1020800000E00020002802D172B600BFFEE7304613
:102090000E99FFF7C5FF0446002C5FD0701E80002C
:1020A000216B081802900298800880000290029824
:1020B0008007800F002801D1012000E000200028C7
:1020C00002D172B600BFFEE700962A4620460F9B5B
:1020D0000499FFF777FF069A0399029801F0D2FC62
:1020E00020600D98002801D00D98046001F00EFDCD
:1020F000AC480068401CAB490860AB480068002849
:1021000008D1A94804600846006801280DD1FFF7EE
:1021100037FF0AE0A5480068002806D1A2480068F9
:10212000C06AA84201D8A0480460A1480068401CC9
:102130009F4908609F49E06A0968884202D99D4921
:10214000E06A08601422E16A51438E4A8818211D12
:10215000FFF740F9012701F0E4FC01E00027FF430D
:10216000012F0AD191480068002806D08E480068E7
:10217000C06AA84201D201F0C0FC384607B0F0BDE9
:10218000864909680968002901D1012100E0002180
:10219000002904D00021C943874A116006E07F4925
:1021A0000968C968C868844A41681160704770B599
:1021B000054601F0ABFC002D02D17B48006800E031
:1021C00028460446201DFFF72CF9A06A002803D0FA
:1021D00020461830FFF725F9211D6E48FFF7FAF861
:1021E00076480068401C7549086071480068401CCA
:1021F0006F49086001F095FC6C480068002818D011
:102200006948006884420ED16D480068002801D1F9
:10221000012000E00020002802D172B600BFFEE7D6
:1022200001F06BFC05E001F071FCFFF7A9FF01F084
:1022300078FC70BDF8B50020009061480068002867
:1022400068D160480068401C5E490860084606681E
:10225000002E1CD1514800680068002801D10120DF
:1022600000E00020002802D172B600BFFEE74B4814
:1022700007684B4800684949086049480760524868
:102280000068401C50490860FFF77AFF00BF4A48C9
:10229000006886423DD300BF4048006800680028BF
:1022A00001D1012000E00020002804D00020C0431C
:1022B000414908602CE039480068C068C468656816
:1022C000AE4202D23C48056022E0201DFFF7A9F88B
:1022D000A06A002803D020461830FFF7A2F835493D
:1022E000E06A0968884202D93249E06A086014222B
:1022F000E16A5143234A8818211DFFF76BF82A49E8
:10230000E06A0968C96A8842C6D301200090C3E721
:1023100000BF04E02D480068401C2C4908602C4890
:102320000068002801D0012000900098F8BD70B529
:10233000002523480068002802D172B600BFFEE7DE
:1023400001F0E4FB1E480068401E1D490860084675
:102350000068002875D113480068002871D04BE050
:102360000B48C068C46820461830FFF75AF8201D93
:10237000FFF757F80F49E06A096888422BD90D49E1
:10238000E06A27E0FC310020C4320020D83200206F
:10239000EC32002000330020143300208430002071
:1023A000883000209430002080300020A0300020B1
:1023B000B03000209C300020B43000208C30002051
:1023C000B830002098300020AC300020A43000202D
:1023D000A830002008601422E16A5143F94A8818A5
:1023E000211DFEF7F7FFF849E06A0968C96A8842CB
:1023F00002D30120F5490860F5480068002801D1A2
:10240000012000E000200028AAD0F248006800283F
:1024100010D00BE0FFF70EFF002802D00120EB499F
:102420000860EC480068401EEA490860E948006816
:102430000028EFD1E5480068012802D1012501F00C
:102440005CFB01F06EFB284670BD10B50446DE480B
:1024500000684460E0480068844207D2DA480168B6
:10246000091DDE480068FEF7C1FF0CE0D648016890
:10247000091DDB480068FEF7B9FFDA4800688442AE
:1024800001D2D848046010BDD7480068401CD64926
:1024900008607047FEB504460E4600200190002CEF
:1024A00002D172B600BFFEE7002E01D0012000E08D
:1024B0000020002802D172B600BFFEE7CA480068BB
:1024C000002801D1012000E00020002802D172B6CE
:1024D00000BFFEE7FFF7D8FFBF4800680090206804
:1024E000851921680098814208D92068A8420DD931
:1024F000009885420AD90120019007E02068A8428F
:1025000002D80098854201D90120019025600198E8
:10251000002807D0AC480068001DFEF782FF28465F
:10252000FFF793FFFFF703FF0746002F01D101F0EC
:10253000E4FAFEBD70B504460026002C1BD0AA4864
:102540000068002801D1012000E00020002802D10D
:1025500072B600BFFEE7FFF797FF9F4800680519B6
:1025600099480068001DFEF75CFF2846FFF76DFFE5
:10257000FFF7DDFE0646002E01D101F0BEFA70BD68
:10258000F8B507463E46002E02D172B600BFFEE700
:102590008D480068864201D100241EE001F0B6FAA1
:1025A000756901F0BEFA8E480068854203D08B48F9
:1025B0000068854201D102240FE08C48854206D193
:1025C000B06A002801D1032407E0022405E088480E
:1025D000854201D1042400E001242046F8BD70B5F5
:1025E000044601F093FA002C02D17748006800E01D
:1025F00020460646F56A01F094FA284670BDF8B503
:102600000446FDF777FD0746002C02D16E480068AE
:1026100000E020460646F56A3846FDF76FFD28467D
:10262000F8BDFEB507460D46002000900A2D01D2E8
:10263000012000E00020002802D172B600BFFEE7B2
:102640000A2D00D3092501F061FA002F02D15E485E
:10265000006800E038460446E66BAE4249D0B54219
:102660000BD95948006884420DD057480068C06AA9
:10267000A84208D80120009005E053480068844231
:1026800001D101200090E06A0190E16AE06B88428C
:1026900000D1E562E563A069C00FC007002802D140
:1026A0000A20401BA0616169142201985043454AE9
:1026B0008018814201D1012000E00020002812D0C2
:1026C000201DFEF7AEFE4B49E06A0968884202D938
:1026D0004849E06A08601422E16A5143394A88187F
:1026E000211DFEF777FE0098012801D101F005FABF
:1026F00000BF01F016FAFEBD3B480068002803D079
:1027000001203249086032E00020304908600BE0C7
:1027100038480068002802D172B600BFFEE735488D
:102720000068401E3349086032480068142148435D
:1027300024490858002801D1012000E00020002889
:10274000E6D12C490968142251431E4A8818416871
:10275000496841600146083142688A4202D14168B5
:10276000496841604168C968174A116000BF7047F5
:1027700070B5054601F0CAF9002D02D11248006873
:1027800000E028460446201DFEF74BFEA06A002804
:1027900003D020461830FEF744FE211D1348FEF7F3
:1027A00019FE01F0BEF90848006884423CD1124885
:1027B000006800282BD00C48006800281ED101209A
:1027C0001DE00000FC31002080300020A8300020F7
:1027D000EC320020A4300020983000208830002007
:1027E00084300020B4300020B830002014330020A2
:1027F000003300209C300020A03000200020002862
:1028000002D172B600BFFEE701F077F916E0FE488C
:102810000068FE490968884203D10020FC4908602D
:102820000CE0FFF769FF09E0FA480068002805D0CE
:1028300001F06CF9FFF7A4FC01F073F970BD10B55D
:10284000024600201146002A02D172B600BFFEE700
:10285000ED4C4B69A34201D1012300E00023002B82
:1028600011D0ED4C8B6AA34201D1012300E000237B
:10287000002B08D18B6A002B01D1012300E000233B
:10288000002B00D0012010BD70B505462C46002D50
:1028900002D172B600BFFEE7002C27D0DC480068EA
:1028A000844223D001F032F92046FFF7C8FF012807
:1028B0001AD1201DFEF7B5FDD849E06A09688842A3
:1028C00002D9D649E06A08601422E16A5143D44A29
:1028D0008818211DFEF77EFDCD49E06A0968C96AA6
:1028E000884201D301F009F901F01BF970BDF8B578
:1028F000054600262C46002D02D172B600BFFEE729
:10290000FDF7F8FB07462046FFF799FF012823D182
:10291000C448006800281AD1BD49E06A0968C96A3C
:10292000884200D30126201DFEF77BFDBB49E06AEB
:102930000968884202D9B949E06A08601422E16A4C
:102940005143B74A8818211DFEF744FD04E0214693
:102950001831B148FEF73EFD3846FDF7CFFB304653
:10296000F8BD10B50446206B01F02CF8204601F0AC
:1029700029F810BD70B525E0FFF786FDAA4800686C
:10298000002801D1012000E000200546FFF7CFFC20
:10299000002D17D101F0BAF8A348C068C468201D03
:1029A000FEF73FFD99480068401E984908609F481F
:1029B0000068401E9D49086001F0B3F82046FFF70B
:1029C000D0FF00BF994800680028D5D170BD00BF76
:1029D000FFF7D0FF924800680128F9D901F08DF87F
:1029E000F6E71FB50020924A00900290034601923C
:1029F000039080228FA19148FFF735FB0446012CFC
:102A000002D100F020FE0446012C09D172B601204B
:102A10008049086000208A49086001F047F804E016
:102A2000002C02D172B600BFFEE71FBD10B572B612
:102A300000207849086001F051F810BD10B501F090
:102A400065F87F48046801F06CF8204610BD70B549
:102A5000FDF750FB05467A4804682846FDF74EFB13
:102A6000204670BD6948006870470146002902D1C0
:102A70006748006800E008460246002A02D172B6A4
:102A800000BFFEE7104634307047694800680028F0
:102A900001D0012000E00020002802D172B600BF62
:102AA000FEE7634800687047654909680918654A88
:102AB0001268914201D8012100E00021002902D1D1
:102AC00072B600BFFEE75E49096809185C4A1160EA
:102AD000704770B505460C46002D02D172B600BF96
:102AE000FEE74B48016818312846FEF77FFC48484E
:102AF0000068001DFEF795FC601C002806D14448C4
:102B00000168091D4048FEF765FC05E04C48006877
:102B100006193046FFF799FC70BDF8B505460E461C
:102B20001446002D02D172B600BFFEE73D48006892
:102B3000002801D0012000E00020002802D172B658
:102B400000BFFEE70120C0073043314909688861B2
:102B50002F48016818312846FEF73CFC2C480068D5
:102B6000001DFEF75EFC601C002806D128480168A5
:102B7000091D2548FEF72EFC05E0314800680719BD
:102B80003846FFF762FCF8BD70B504460D46002CD0
:102B900002D172B600BFFEE71D4801681831204619
:102BA000FEF718FC1A480068001DFEF73AFC24489E
:102BB000006846193046FFF748FC70BD70B5064600
:102BC000F068C468002C02D172B600BFFEE7204650
:102BD0001830FEF726FC13480068002834D1201D69
:102BE000FEF71FFC0D49E06A0968884202D90B49CB
:102BF000E06A08601422E16A5143094A8818211DDD
:102C0000FEF7E8FB25E0000014330020943000209C
:102C100080300020A0300020EC3200209C300020CA
:102C2000FC310020B8300020003300208C30002020
:102C30009030002049444C4500000000CF2900108E
:102C400098300020B430002021461831FB48FEF7B0
:102C5000C1FBFB49E06A0968C96A884204D90125B9
:102C60000120F849086000E00025284670BDF8B54D
:102C700005460F46F4480068002801D0012000E016
:102C80000020002802D172B600BFFEE70120C00775
:102C900038432860EC68002C02D172B600BFFEE712
:102CA0002846FEF7BEFB201DFEF7BBFBE749E06AA6
:102CB0000968884202D9E549E06A08601422E16A9D
:102CC0005143E34A8818211DFEF784FBDC49E06A82
:102CD0000968C96A884204D901260120D9490860D7
:102CE00000E000263046F8BD002802D172B600BFD1
:102CF000FEE7D84909680160D74909684160704713
:102D000070B504460D46002C02D172B600BFFEE736
:102D1000002D02D172B600BFFEE700F0F7FECE48EC
:102D200002682868401C002801D1002619E0C94922
:102D300020680968884204D06068904201D8012662
:102D40000FE06068101A2968884209D22868616813
:102D5000511A401A28602046FFF7C6FF002600E0FF
:102D6000012600F0DEFE304670BD0120B549086046
:102D700070470246002101E0521C491C1078A5282A
:102D8000FAD0890888B27047F8B50446002C02D101
:102D9000AB48006800E0204607463D6B2846FFF739
:102DA000E8FF06463046F8BDA54908687047AB49BC
:102DB0000968002901D1012006E0A349096800291A
:102DC00001D1022000E00020704770B505462C4676
:102DD000002D39D09A49E06A0968C96A884233D21D
:102DE000A069C00FC007002805D195480068C06AD7
:102DF0000A21081AA0611422E06A5043944A8018FC
:102E00006169814201D1012000E00020002817D033
:102E1000201DFEF706FB8A480068C06AE0628B4905
:102E2000E06A0968884202D98849E06A0860142289
:102E3000E16A5143864A8818211DFEF7CBFA03E068
:102E40007F480068C06AE06270BD70B505462C46D8
:102E50000026002D35D07A480068844201D1012037
:102E600000E00020002802D172B600BFFEE7206C0F
:102E7000002802D172B600BFFEE7206C401E20641D
:102E8000E16BE06A88421CD0206C002819D1201D1B
:102E9000FEF7C7FAE06BE0620A21E06A081AA06157
:102EA0006A49E06A0968884202D96849E06A0860AC
:102EB0001422E16A5143664A8818211DFEF78AFAF6
:102EC0000126304670BD5E49096888695C49096819
:102ED000C96A0A22511A5A4A1268916170475848C1
:102EE0000068002806D05649096808464030096C39
:102EF000491C0160524800687047F8B506460C4608
:102F000000F004FE4E480068406C00281DD10121ED
:102F10004B48006840300172002C16D048480068C9
:102F2000001DFEF77EFA601C002806D144480168A7
:102F3000091D4B48FEF74EFA05E04748006807199F
:102F40003846FFF782FA00F0D8FD00F0EAFD00F005
:102F5000DDFD3B480068456C002D0DD0002E04D0EF
:102F6000002037490968486406E035490968084681
:102F70004430496C491E01600021314800684030EE
:102F8000017200F0CEFD2846F8BDFFB581B00746BE
:102F900015461C4600F0BAFD294800684030007A0A
:102FA000022825D02649096808464430496CB943AF
:102FB000016001212248006840300172002C17D0C6
:102FC0001F480068001DFEF72CFA601C002806D17F
:102FD0001B480168091D2248FEF7FCF906E01E485F
:102FE0000068001900900098FFF72FFA00F085FDA7
:102FF00000F097FD00F08AFD002D03D01048006816
:10300000406C28600E4800684030007A012801D1E9
:10301000002608E00A490968084644304A6C0299CB
:103020008A43026001260021054800684030017291
:1030300000F077FD304605B0F0BD0000EC32002016
:1030400080300020A8300020B83000209C300020C4
:10305000FC310020AC30002098300020A03000204F
:1030600014330020FFB583B007460D4616460120F5
:103070000190002F02D172B600BFFEE73C4600F07F
:1030800045FD0698002802D0616C06980160482032
:10309000005D0290022148200155330003F015FB2A
:1030A000051604080C0E1700606C284360640EE0DF
:1030B000606C401C60640AE0656408E002980228C5
:1030C00001D0656401E00020019000E000BF00BF76
:1030D0000298012825D1201DFEF7A3F97049E06A66
:1030E0000968884202D96E49E06A08601422E16AE0
:1030F00051436C4A8818211DFEF76CF9A06A00281C
:1031000001D1012000E00020002802D172B600BFEA
:10311000FEE76549E06A0968C96A884201D900F09A
:10312000ECFC00F0FEFC019807B0F0BDFFB583B0E9
:1031300005460E46174601200190002D02D172B6B9
:1031400000BFFEE72C46FCF7D5FF00904820005D4D
:1031500002900221482001553B0003F0B6FA051603
:1031600004080C0E1700606C304360640EE0606C65
:10317000401C60640AE0666408E00298022801D0FE
:10318000666401E00020019000E000BF00BF0298EB
:10319000012833D1A06A002801D1012000E00020DD
:1031A000002802D172B600BFFEE740480068002840
:1031B00013D1201DFEF735F93949E06A09688842C4
:1031C00002D93749E06A08601422E16A5143354A5E
:1031D0008818211DFEF7FEF804E021461831344816
:1031E000FEF7F8F83049E06A0968C96A884205D9EB
:1031F0000698002802D00121069801600098FCF78B
:103200007DFF019807B0F0BDF8B505460E46002DCC
:1032100002D172B600BFFEE72C46FCF76BFF0090B0
:103220004820075D02210155606C401C6064012F3D
:1032300031D1A06A002801D1012000E0002000283F
:1032400002D172B600BFFEE718480068002813D10B
:10325000201DFEF7E6F81249E06A0968884202D9A3
:103260000F49E06A08601422E16A51430D4A881848
:10327000211DFEF7AFF804E0214618310C48FEF797
:10328000A9F80949E06A0968C96A884203D9002E89
:1032900001D0012030600098FCF730FFF8BD00003D
:1032A0009C300020FC31002080300020B83000200D
:1032B000EC320020F8B504460D4616461F460020A5
:1032C000009065602461B5420CD8F01BA16988426A
:1032D00002D30120009011E0211DF9480068FEF79B
:1032E00085F80BE0BE4204D2BD4202D3012000901B
:1032F00004E0211DF3480068FEF778F80098F8BD57
:10330000F0B585B005460C4616461F4600200490D1
:10331000ED480068002822D0009401960295062C02
:1033200015DAFFF744FD022808D100236946E64874
:103330000A9A0068FEF7DDF9049010E000231A46AF
:103340006946E1480068FEF7D4F9049007E00023DD
:103350003A466946DC480068FEF7ECFB04900498A6
:1033600005B0F0BDFEB52BE0D6480068C068056822
:10337000D4480068C068C468201DFEF752F8204693
:10338000616A8847E06901281AD1A0694619AE42EE
:1033900007D966602461211DCA480068FEF726F837
:1033A0000EE0002003462A46014600902046FFF723
:1033B000A7FF0746002F02D172B600BFFEE700BF8D
:1033C000C04800680068002801D1012000E000200A
:1033D0000028C9D0BB4800680190B9480068B949C5
:1033E0000860B74901980860FEBD70B50446FFF754
:1033F00025FB0546B5480068854204D2FFF7B2FFB9
:103400000120206001E000202060B04805602846CF
:1034100070BDF0B587B06EE0039800280ADA04AFFB
:10342000002F02D172B600BFFEE73A68B96878682B
:10343000904700BF039800285DDB059C6069002869
:1034400001D1012000E00020002802D1201DFDF75D
:10345000E8FF02A8FFF7C9FF05460398030003F041
:1034600034F90A0A06082C2E4407092D2F4800BFFC
:1034700000BF00BF00BF0498A269811803462A4616
:103480002046FFF717FF012816D12046616A8847BA
:10349000E069012810D1002000900498A169421829
:1034A000002319462046FFF72BFF0646002E02D1C7
:1034B00072B600BFFEE700BF1CE000BF1AE000BF0D
:1034C0000498A061A069002801D0012000E000203C
:1034D000002802D172B600BFFEE7A06941192B4651
:1034E0002A462046FFF7E6FE04E0204600F06AFA8E
:1034F00000E000BF00BF00231A4603A9724800681D
:10350000FEF718FA002887D107B0F0BDF8B50546D8
:103510000F466C480068C068C468201DFDF781FF35
:10352000E069012817D1A06941192B463A46204687
:10353000FFF7C0FE01280ED1002003462A460146AF
:1035400000902046FFF7DCFE0646002E02D172B640
:1035500000BFFEE700BF2046616A8847F8BDF8B5A6
:1035600004460E46FEF790FF6846FFF73EFF05460D
:103570000098002816D1002E08D1AC4206D8FEF7DC
:10358000D6FE29462046FFF7C1FF0DE0611B4E48DD
:103590000068FEF787FCFEF7CAFE002804D100F0A1
:1035A000ACFA01E0FEF7C3FEF8BD0146454A1268D9
:1035B0001268002A01D1012200E000220A600A6894
:1035C000002A04D13F4A1268D268106800E0002047
:1035D000704708B500BF6846FFF7E7FF044620467E
:1035E0000099FFF7BCFFFFF714FFF4E710B500F0F8
:1035F0008DFA35480068002822D13548FDF7DAFEFB
:103600003448FDF7D7FE32482E49086031482C492E
:103610000860002210212020FDF757FF2A4908608A
:1036200008460068002802D172B600BFFEE72648AF
:103630000068002804D028A123480068FEF71EFC7B
:1036400000F06FFA10BD1FB50024FFF7CFFF1E4832
:10365000006800280DD00020214A05230290009325
:1036600001920390034650221EA12048FEF7FBFC66
:103670000446002C02D172B600BFFEE7204604B01B
:1036800010BDFFB581B006460D461746002D01D18D
:10369000002411E0282000F011F90446002C0BD082
:1036A000FFF7A4FF2660A561E761049820620A98ED
:1036B0006062201DFDF78BFE002D19D0012018E05F
:1036C000C0300020BC300020C4300020CC300020AE
:1036D000283300203C330020546D7251000000005C
:1036E000C8300020546D722053766300D33500102B
:1036F0000020002802D172B600BFFEE7204605B0C8
:10370000F0BD3B480068002801D0012000E0002007
:10371000002802D172B600BFFEE735480068704746
:1037200001460A461068704770B50446264600F008
:10373000EDF97069002801D1012000E0002001218D
:1037400005464D4000F0EDF9284670BD70B50446C1
:103750002646002C02D172B600BFFEE700F0D6F973
:10376000356A00F0DEF9284670BD70B504460D4696
:103770002646002C02D172B600BFFEE700F0C6F963
:10378000356200F0CEF970BDF0B585B004460D4647
:1037900016461F460120C0430190029403950496EB
:1037A00000233A4601A913480068FEF7C3F90090C8
:1037B000009805B0F0BDFFB585B004460D4616462D
:1037C0000C480068002802D172B600BFFEE7002056
:1037D000C0430190029403950496002301A9054873
:1037E000089A0068FDF785FF0746384609B0F0BD26
:1037F000C8300020C430002010B50146934800E0D6
:10380000006803688B42FBD3024643689B188B42D7
:1038100004D143684C681B19436001460A464B6853
:103820009B180468A34211D1894C03682468A34201
:1038300008D04B68046864681B194B6003681B68F8
:103840000B6005E0824B1B680B6001E003680B60B6
:10385000884200D0016010BD30B501235B037D4874
:103860008407A40F002C05D0C01C80088000794C70
:10387000041B1B1B0246754C22600024734D6C60B8
:10388000D018083880088000714C20600024704DEA
:103890002D686C606E4D2D682C601146441A4C608A
:1038A0006B4C24680C606C4D4C682C606B4D4C6804
:1038B0002C600124E4076A4D2C6030BDF8B5044645
:1038C00000200090FEF7E0FD61480068002801D16B
:1038D000FFF7C2FF624800682040002861D1002C39
:1038E00015D00834A007800F002810D0A007800F43
:1038F0000421081A0419A007800F002801D1012013
:1039000000E00020002802D172B600BFFEE7002CC4
:1039100047D052480068844243D84C4E3046056830
:1039200001E02E462D686868A04202D2286800286F
:10393000F7D147480068854233D03068083000909E
:10394000286830606868001B102813D92F19B80741
:10395000800F002801D1012000E00020002802D1C2
:1039600072B600BFFEE76868001B78606C6038467E
:10397000FFF742FF394968680968081A3749086043
:103980000846006834490968884203D23348006811
:103990003149086032496868096808436860002056
:1039A0002860FEF7C4FC00988007800F002801D132
:1039B000012000E00020002802D172B600BFFEE71F
:1039C0000098F8BD70B506463546002E35D0083D46
:1039D0002C462349606809680840002801D001206E
:1039E00000E00020002802D172B600BFFEE7206888
:1039F000002801D1012000E00020002802D172B689
:103A000000BFFEE71649606809680840002814D026
:103A10002068002811D112496068096888436060F5
:103A2000FEF732FD0D496068096840180B490860CF
:103A30002046FFF7E1FEFEF77AFC70BD07480068FC
:103A4000704705480068704770470000D03000207C
:103A5000D830002050330020E0300020DC3000203F
:103A6000E430002040480068401C002801D10120BB
:103A700000E00020002802D172B600BFFEE772B657
:103A800000BFFEE7001F01231B060360001F01604B
:103A9000001F364B036014380260203870477047AF
:103AA00033483449486107200861704710B53248EF
:103AB000006AFF21090408432F4908620846006A8A
:103AC000FF21090608432C490862FFF7E9FF00209F
:103AD00025490860FCF7FEFA002010BD2248006866
:103AE0007D21C900884201D1012000E0002000288A
:103AF00002D172B600BFFEE77047012000071E49E1
:103B00004860BFF34F8FBFF36F8F704772B6164890
:103B10000068401C14490860BFF34F8FBFF36F8FDC
:103B2000704711480068002802D172B600BFFEE756
:103B30000D480068401E0C490860084600680028CF
:103B400000D162B6704710B5FCF7D4FA0446FEF710
:103B500071FB002803D00120000707494860204678
:103B6000FCF7CCFA10BD0000E8300020653A0010E8
:103B7000FFF9000000E000E000ED00E004488047AD
:103B800004480047FEE7FEE7FEE7FEE7FEE7FEE744
:103B9000A13B0010C10000100348044908607047B1
:103BA00001480249086070470090D003EC300020C3
:103BB000F1B5F84880470746F74880470646F54C78
:103BC0000120183CA047F44D00200C35A847F349CC
:103BD000009888473046A8473846A047F8BDF0B55A
:103BE000EF4DF048E96885B00818044602F073F913
:103BF0002146401C02F079F90024E9480125C668F5
:103C0000E8480C3831180391487C097C00020843CD
:103C1000A540284202903BD00B2060438119E14827
:103C2000009109300818019002F055F90746DD4867
:103C3000301802F050F987422AD10F2100988901EB
:103C40004018007D00280CD0D64A00990D3A8A18F9
:103C5000517D127D090211437818019902F045F94E
:103C600005E002980399A8430874000A4874CD48F7
:103C700000990D30081802F02EF9002808D0022D06
:103C800019D0042D17D0082D15D0102D1AD080472B
:103C9000641CE4B20A2CB0D3C148C168C1480C38D6
:103CA0000918487C097C00020843800501D1BE4800
:103CB000804705B0F0BDBD49012088470028E7D006
:103CC000222005E0B949012088470028E0D03B20A8
:103CD000FFF76EFFDCE7FEB500206946087108704B
:103CE000B34F0872B34EAE4CB847207102AB6A4670
:103CF00001A9606901F0EDFF002836D00820B04727
:103D0000002803D00220B04700280FD06846007872
:103D1000012811D0E0686569407A012826D0022880
:103D2000E2D1A54A217928469047DDE7012168467E
:103D30000170007A002815D02521E068490141185A
:103D4000497B002908D09749D4314018417B027B38
:103D500008029A49104388476846974A0179963283
:103D60006069E1E73D20FFF723FFFEBD28780007EB
:103D7000000F0528B8D18E49EE31A81C8847287855
:103D800087224006C10FE06811540622A91C883022
:103D900002F070F83721206902F085F8A4E7F0B549
:103DA000824999B00420884700280ED07F4904201A
:103DB0001A3188477C491F20AC31884780488047AA
:103DC0001620FFF7F5FE19B0F0BD7E4880470028A9
:103DD00010D0734DEC68A1790807F4D5E079C207DB
:103DE0001CD07949204698308847E868C17949084D
:103DF00049001FE0734E724F714DB2361C376C464E
:103E0000103507E06846B0470128DCD168460178E4
:103E1000601CB847A8470028F4D0D4E782070BD528
:103E2000694A20461C328E30811C9047E868FD228A
:103E3000C17923E0C171C6E7420708D5624920462F
:103E40006031A8308847E868FB22C17916E0020794
:103E5000F726002A09DA5C4A21464232A07A0B3161
:103E60009047E868C1793140E4E7C00608D5564973
:103E700068467C318847E868EF22C1791140D9E76C
:103E800020463140FF30A1712130017D00260029FC
:103E900010D006752146072287310CA801F0EAFFF1
:103EA00021460DA82A228E31033001F0E3FF474955
:103EB0000CA8884701206946087048708E70E96830
:103EC00000A82A2203308E3101F0D4FF2D220821D0
:103ED0003F4C6B460020A04775E731490128896AAD
:103EE0000FD0022811D0042812D0082813D010288F
:103EF00014D0202815D0402816D0802818D00120B2
:103F000070478878C007C00F7047887880070DE039
:103F1000887840070AE08878000707E08878C006BC
:103F200004E08878800601E088784006C00F70477A
:103F30008878C009704710B50178012920D1401C4C
:103F400001F0C9FF164A10285CD00EDC012818D0F9
:103F500002283FD0042845D0082811D1FFF7BDFF23
:103F600000280DD10D48563809E020285AD04028A5
:103F700006D1FFF7B2FF002802D10848801E804713
:103F800010BD0120FFF7A9FF0028F9D1FFF707FFB7
:103F900010BD0000BF650000776A0000CF1600006A
:103FA000F0300020CE03000001120000F50A0000EE
:103FB00049570000791900008B1E00002B62000099
:103FC000BD600000054E000027260000DF4700000E
:103FD000A13E00000220FFF780FF0028D8D1FFF7A4
:103FE0007AFE10BD0420FFF778FF0028F9D1D068D1
:103FF000407A012803D00228F3D1FE48BFE7FD48EC
:10400000AE38BCE71020FFF768FF0028E9D1906ABE
:104010002030407D400701D53E2000E00820FFF71A
:10402000C7FD10BD2020FFF758FF0028F9D1F24846
:10403000A5E770B510250826F04C002821D0A06A0D
:10404000817E31438176014660310A7E6378520970
:104050005201DB06DB0E1A430A762030427B067BD8
:104060001302E26833432332547C167C220232432B
:10407000934214D00273120A4273C87D2843C87554
:104080000DE001F013FEA06A0022014620310A7300
:104090004A736030C17D2943C175D9480677012034
:1040A00070BDD648C0682330417C027C08021043B2
:1040B0000BD0D44948780A780002104303221043F9
:1040C0000870000A48700120B3E7704730B4CE4C46
:1040D000A44630BC6047F8B5CA48407A000663D5AC
:1040E000C648C66830462330417C007C0F02C54973
:1040F00007434878097804020C43002F01D1600778
:1041000052D5C04DA87B697B00026D1C08434BD083
:10411000002F49D068792979000208432ED1213631
:10412000707C317C0002084302F0F0F80022B74BAB
:1041300001F0F0FF02F0F8F880B27843642101F05A
:1041400085FE4004010C2971080A68710A20414368
:10415000707D327D00021043814206D30A21401E49
:1041600001F074FE2871000A6871687929790002EB
:10417000084303D10120287100206871A148A107DC
:1041800009D502218C4301210C430470210A41709E
:104190000020FFF74EFF68792A79010211439C4BFA
:1041A00000224020FFF792FFF8BD1CB595494A7ADE
:1041B000002A3AD04A780B7812021A43D30634D434
:1041C000437804781802204301282ED1C878401E75
:1041D0000006000EC87029D008468B78017AC27993
:1041E00009021143027BC47A12022243C01C012B34
:1041F00024D0521A0272120A42721206037A120C68
:104200001A43531A69460B804A807E498A7B497B50
:1042100012020A4369468A80417B027B08021043EE
:104220006946C8807B49684688471CBD887AC87043
:10423000402002430A70100A48701CBD5218D9E78A
:10424000754A1047744A2032104738B50024694631
:104250000C7021467F20FFF7F5FF00213B20FFF780
:10426000F1FF29213B20FFF7EDFF69463B20FFF7D7
:10427000E7FF68460078800701D5012038BD641C3F
:10428000A4B2FF2CF1D9002038BD10B56348804797
:10429000012010BD10B55949614A8870002807D126
:1042A000C8688078022803D000209047012010BD04
:1042B0000120FAE710B5514C0128E168887004D05C
:1042C000002836D002284BD05EE0206B014620311A
:1042D0000A78520852000A700A78FD231A400A70C0
:1042E0000178890989011C310170417889098901A6
:1042F0001C31417000217F20FFF7A4FF0321212002
:10430000FFF7A0FF1F210320FFF79CFF7D204249FC
:10431000C0008031884702217F20FFF793FF0121F1
:104320000020FFF78FFF00217F20FFF78BFF0F2179
:1043300027E000217F20FFF785FF00210420FFF701
:1043400081FF02217F20FFF77DFF00210846FFF754
:1043500079FF00217F20FFF775FF0021032011E086
:1043600002217F20FFF76EFF03210020FFF76AFF85
:1043700000217F20FFF766FF00210320FFF762FF87
:1043800000210420FFF75EFFA078FFF783FF0120E4
:1043900010BD10B5FFF78EFF012010BD1F4810B5EE
:1043A0000C3080471548C06A017ADF221140017243
:1043B000012010BDFEB51A48183080470F4C0190FF
:1043C000E06A817A007ACF07FF0F0026800702D0CB
:1043D0000126FFF7E3FF0948C06A817A49084900CE
:1043E00081720F49012088470220FFF763FF642094
:1043F000094917E027150000C1160000F030002021
:1044000020000240A7530020AB4400000000F43F0E
:10441000A340001033420000C561000007470000C0
:10442000A765000066318847002469460C70254660
:1044300001217F20FFF706FF00210A20FFF702FF7E
:1044400022210A20FFF7FEFE69460A20FFF7F8FE48
:10445000684600784007EFD469460A20FFF7F0FE6F
:1044600068460078400705D568460078000706D4FE
:10447000012504E0641CFF48A4B28442ECD3FE4949
:10448000642088470020FFF715FFFC490198884702
:10449000FB48C06A817A4908490039438172002E7D
:1044A00001D0F8488047002D01D00120FEBD00203A
:1044B000FEBD10B51121F44801F0F5FC10BD70B53A
:1044C0000446401C01F007FD022818D0042819D02A
:1044D00001214904884247D125462035687B0923BC
:1044E00001070209090F0020072A1CD0032A20D047
:1044F000022A25D0012A29D0002A2DD032E0FFF748
:10450000D8FF3AE0DE4D0121E868FF302130017527
:1045100001F024FCE8688078002801D1FFF74AFF09
:10452000FFF793FE29E0581A062148434121C94369
:1045300004E0581A062148433521C943081A10E0FF
:10454000581A062148432321C943F7E7581A062180
:1045500048431721C943F1E7581A06214843801DF3
:10456000404240B2687308E040281DD00121C903D1
:10457000884202D1601DFFF718FEC34948780978C8
:1045800000020843800607D5601C01F0A4FC00056A
:10459000000F01D0FFF79FFDB948383001F09BFCB8
:1045A00001462046884770BDB548343001F093FC81
:1045B0004006E2D570BDF0B5B14C0646E0688DB05E
:1045C000FF302130407C0D46002829D0002D26D018
:1045D00072B6A068183001F07EFCE1683222FF312B
:1045E0002131897CA94B514340186A4632219847B2
:1045F00062B6002E04D0E068FF302130807C30703D
:10460000E7680A21FF372137B87C401C01F008FC1D
:10461000B974E078401CC0B2E0700A2802D90020CA
:104620000DB0F0BD684600780128D1D100A907225D
:104630002846013101F01EFC2A22E81D02A901F0E2
:1046400019FC0120ECE7F0B5054691498DB020201A
:1046500088478B4C0426E16820690F468670082243
:10466000C01CC931BD3701F005FC20690422394660
:104670000B3001F0FFFB0D21864A03209047E068D4
:10468000294608220A31C13001F0F4FBE0682946CE
:1046900004221231B93001F0EDFB287A7E4F002858
:1046A00002D1687A00281FD00020E070E0682A7AE2
:1046B00001468030837B9A420AD16A7AC07B82426B
:1046C00006D108222846903101F0F8FB002817D0C7
:1046D00069460020FFF76FFF012826D0062200213F
:1046E0006E4B012098479BE7E068022281791143D5
:1046F00002468171C132FF3011461030B84710E0D8
:10470000E0688179024631438171C13211469830A7
:10471000B847E06880308079012802D15C490220E6
:1047200088475E48A03080477AE7E06801A92A22DE
:104730008E30033101F09EFBB8E7594908471CB59C
:10474000514808210170002141700146087BCA7A56
:104750000002C91C10432FD04A790B7912021A4368
:10476000821A92B26B461A8058800623062A01D21A
:104770006A461380062801D268464380487B097B3D
:10478000000208436946C8803F48817B427B08029B
:104790001043694688803A48C0682330417C027CD7
:1047A0000802104302D00020FFF743FC3D49684651
:1047B00088473B49402088471CBD334948780A78E0
:1047C00000021043C2050CD5FF220132904308704D
:1047D000000A48700879401E0006000E087109D0D2
:1047E000ADE72022104310229043042210430870AA
:1047F000000A48707047FEB5234D04466878297852
:1048000000020843000776D52748804769782A7850
:10481000090211430822914329700A0A6A706B7ACF
:10482000064628461A0667D5A27967791202651CE2
:104830003A43134FE41C002A7ED01022114301702A
:104840000A0A4270880657D4687929790002084319
:1048500053D001F05BFD0191009060782178000257
:10486000084301F053FD114C0022234601F052FC95
:10487000019B1DE0FFFF00002B620000A765000008
:10488000F030002007470000A753002059530000D4
:10489000050B00004D11000019220000D91900007D
:1048A000B344000033420000BF5500000000F43F55
:1048B000009A01F02FFC01910090F8682130417CB2
:1048C000027C0802104301F021FD0022234601F082
:1048D00021FC07460C46687A297A00020843801BAF
:1048E00001F000FD3A46234601F014FC019B009ABA
:1048F00001F05EFB28E094E08AE060782178000215
:10490000084301F0E7FC0446F8682130417C027C52
:104910000802104301F0DEFC214601F0EFFA01F03D
:1049200021FD0022FC4B01F0F5FB07460C46687A9E
:10493000297A0002084300E016E0801B01F0D2FC57
:104940003A46234601F0E6FB0022F44B01F04AFC14
:1049500001F0EAFC0104090C00D10121F04B002216
:104960008020FFF7B3FB53E09A0651D58278012AE5
:104970004ED18A064CD4FF22EA480132114301701D
:10498000090A41706078217800020843E5490A7BF2
:10499000CB7A1102194388423AD901F09BFC0446B4
:1049A000F8682130417C027C0802104301F092FC3F
:1049B000214601F0A3FA01F0D5FC0022D64B01F00C
:1049C000A9FB07460C46687A297A00020843801B37
:1049D00001F088FC3A46234601F09CFB0022CF4BB5
:1049E00001F000FC01F0A0FC0104090C00D1012140
:1049F000CB4B00228020FFF769FBCA484178027840
:104A000009021143FF22013211430170090A41706A
:104A100003206946088102229103C34C02AB0020A7
:104A2000A047FEBD10B50446007800280BD1A17840
:104A300062780802104307D001281CD0032802D155
:104A4000201DFFF700FE10BD01F030F9B749201D11
:104A50008847002802D12820FFF7AAF8201DFFF779
:104A6000CAFEB3480121C368062209040020AE4CE7
:104A70003133A04710BD01F019F9AE49201D884718
:104A80000028F7D12820FFF793F810BD10B5007863
:104A9000012801D1FFF7A3F810BD70B5A64886B074
:104AA000804701217F20FFF7CDFB69465020FFF7AB
:104AB000C7FB68460078042801D0A0488047FFF76C
:104AC00079FCFFF7C2FB01246846448004809C48BF
:104AD00001909C49684688476846047044700024E9
:104AE00044809948924D0190984BE86808226946A5
:104AF000C01801F0BFF90121954E4020B0470121B7
:104B00008020B04701212020B0470B21684601805A
:104B100041808480C480048144818481C4818D4823
:104B2000884904906846A2398847A8680A3001F08D
:104B3000D2F97C4A884B573A5721984701F00EF931
:104B4000012006B070BD7C4810B50A3080470120B6
:104B500010BD794910B528318847012010BD76492C
:104B600010B55E318847012010BD734910B56A3118
:104B70008847012010BD704910B578318847012061
:104B800010BD6D4910B588318847012010BD10B5A2
:104B9000654C383CA047012010BDF8B5644C6F4906
:104BA000E0683730884720693B230178BF250A0930
:104BB000E16812015B5C1B071B0F1A4302701207AE
:104BC000120F012A79D00B4640335A781B78120213
:104BD0001A430B4642331A70120A5A7002788B7AC3
:104BE0002A409B011A435206520E027066235B5CF8
:104BF00042789B1D92099B0692019B0E1A434270BC
:104C00000622801C0B3101F035F9E1686620425C18
:104C1000002A04D020696731083001F02BF9E068E0
:104C200000212030417720694D4A41788906890E5C
:104C3000891C9047206901780A091201121D02702F
:104C4000E1682A408B7ADB075B0E1A430270462329
:104C50005B5C42789B1D92099B0692019B0E1A4356
:104C600042700622801C0B3101F004F9E1684620F5
:104C7000425C002A04D020694731083001F0FAF87C
:104C80002069374A41782C328906890E891C904761
:104C9000E56801272E462036F07E012862D00028E4
:104CA00074D0022872D0062870D000231E4C1A46F9
:104CB00001211846A047F8BDFFE70A4640321379A4
:104CC00053718B7A0278DB072A405B0E1A4302701D
:104CD00087235B5C5206520EDB011A430270427856
:104CE0000B31920992010C3242700622801C01F0B5
:104CF000C1F82069E16806220830883101F0BAF86D
:104D0000E16803223D204254144A8720405C323A35
:104D10008831904787E725E00000F43F00005940C4
:104D2000BB470010A7530020A13E00005D5B0000C0
:104D3000F0300020475F0000793D0000F74600009A
:104D40008D4A00102F440000373F0010CE020000B3
:104D500061550000254A001059530000B15700006A
:104D6000D96000004035687900280BD02820062142
:104D7000A26A937EFD24234093761775737F327F5A
:104D80003BE003E001206F710146F1E72C4642341D
:104D90006078217802020A4316D02235697F1920F3
:104DA0002B7F800109024243194301208904890CA9
:104DB000009105D0104601F033F8401C7F2809D837
:104DC000C5B22770380A0CE0380A277060700125D8
:104DD000009507E07F2529467E3001F021F82070FC
:104DE000000A6070F848806A817E02221143817651
:104DF0000775737F327F00992846F44CA047F3482B
:104E00003E30804757E710B5FFF7C7FE012010BDC1
:104E100010B5EF4903200870EE4964208847EE483A
:104E20008047012010BD72B60021E74A906A4175A3
:104E3000037C01210B430374D06845221154423096
:104E400001700021417062B60120704710B5E3493E
:104E50008847012010BDE14810B55C308047012033
:104E600010BD10B5DE488047012010BDDC4910B5EB
:104E700008318847012010BDD94910B5163188473F
:104E8000012010BDD64910B578318847012010BDEA
:104E9000CD49487001207047D14910B58631884707
:104EA000012010BDCE4A10B58E329047012010BDB2
:104EB0007CB5054601F00FF8C3490446343101F0D2
:104EC00014F8281D01F007F8BF49383101F00DF83A
:104ED00040208443C348C2490190009468469631FB
:104EE000884701207CBD10B5BF498847012010BD0F
:104EF000BD4A10B508329047012010BD10B5BB481F
:104F00008047022801D9002010BD012010BDF8B54E
:104F10000E460746B6491C4615460120884700281C
:104F20000AD0B2488047022807D92346AE4C2A4609
:104F3000314638461834A047BDE60020BBE6AD49EF
:104F4000084710B50446AA4901208847002803D025
:104F5000A84920460831884710BD70B50546A44AC7
:104F60000C4601209047002804D0A24A214628463A
:104F70002232904770BDFFB50F4681B09C491D4657
:104F8000164601200A9C8847002807D00094994CB7
:104F90002B463246394644340198A04705B0F0BD4F
:104FA000F8B50E46074692491C461546012088472B
:104FB000002806D023468F4C2A46314638467C349A
:104FC000A04778E610B504468949012088470028A3
:104FD00003D088492046AC31884710BD70B50546DE
:104FE000834A0C4601209047002804D0814A21467C
:104FF0002846C632904770BD70B505467C4A0C46BF
:1050000001209047002804D07A4A21462846E832F9
:10501000904770BDF8B50E46074675491C461546C3
:1050200001208847002805D02346734C2A46314684
:105030003846A0473FE670B50D4606466C49144613
:1050400001208847002805D06B4B22462946304670
:105050003033984770BD70B50D4606466449144616
:1050600001208847002805D0634B22462946304658
:105070005C33984770BDF8B50E4607465C491C4640
:10508000154601208847002806D023465A4C2A4658
:10509000314638468834A0470DE610B504465449D9
:1050A00001208847002803D053492046B83188475B
:1050B00010BD10B54E4901208847002802D04E4847
:1050C000CC30804710BD70B53F4D0446082804D051
:1050D000E868407808280DD014E000217F20FFF711
:1050E000B1F801214020FFF7ADF8E86A0178C9085E
:1050F000C9000EE000217F20FFF7A4F80021402026
:10510000FFF7A0F8E86A01786207C908C900520FE2
:1051100011430170E8684470012070BDD3E710B5F9
:105120000446364880472070012010BD10B5044663
:105130003248801D80472070012010BD2F4910B5D6
:105140001C318847012010BD2C4810B572308047B3
:10515000012010BD2A4800471E491A3908471D4939
:10516000084708B52749684688476846C0788007D9
:10517000C00F08BD08B52349684688476846C0780F
:10518000C00900D0012008BD10B5FFF759F810BDC7
:1051900010B5FFF757F810BD0B48806AC07B052893
:1051A00005D0062803D00F2801D000207047012029
:1051B000704710B5FFF7F0FF002802D10F485230BA
:1051C0008047012010BD0000F03000205F56000035
:1051D0000000024045620000074700000141000056
:1051E0001D420000BF4400102D4300002B4E000064
:1051F000F50A0000B73A0000BB3B00009F440000E6
:10520000FB5F00004D65000010B5FF490122886A70
:105210004275437CDB09DB019B1C4374931E837442
:105220001B0AC374C96ACB7AEF242340CB724B7B31
:1052300093434B738B7A13438B72817E0223194302
:105240008176017C11430174F04905208847F048BC
:1052500080470120B6E7EE4810B5123080470120A4
:10526000B0E710B5EB4988470120ABE7E94910B535
:10527000183188470120A5E7E54910B5583188471E
:1052800001209FE7E249AC310847E14910B5FA3106
:105290008847012096E710B5DF488047012091E755
:1052A000DD4810B51830804701208BE7DA4BA23378
:1052B0001847D94BD8331847F8B50746D2480026C7
:1052C00080680D463446283000F005FE2903C919D0
:1052D00040180121C904884211D90020EBE472B6BC
:1052E000C9488068283000F0F6FD2103C91940182C
:1052F000CA4A01219047064662B6641CE4B2AC4239
:10530000EDD33046D7E470B50446BF4816468068F2
:105310000D46283000F0DFFD0346611940180121D9
:10532000C90488420AD8002B08D072B61819BB4BA2
:1053300032462946EA3B984762B670BD002070BDF0
:1053400070B50446B048164680680D46283000F017
:10535000C2FD0346611940180121C90488420AD8D8
:10536000002B08D072B61819AC4B32462946823B46
:10537000984762B670BD002070BD70B5A848002483
:105380000078A64EA04D00280DD001281ED024E0A4
:1053900072B6143000F09FFD210340180121B04780
:1053A00062B6641CE4B2A868C17B827B0902114327
:1053B000A142EDD811E072B6103000F08CFD21034F
:1053C00040180121B04762B6641CE4B2A868C17BF2
:1053D000827B09021143A142EDD8012070BD70B556
:1053E00004460D46000B421987488068C17B837BC9
:1053F000090219438A4201D9002070BD8849874EAD
:105400000978002902D0012903D00AE072B61430CD
:1054100001E072B6103000F05EFD00192946B04779
:1054200062B6012070BDF8B504467D480F4601788C
:1054300075487A4D8068823D1646002902D00129C0
:1054400003D00BE072B6143001E072B6103000F0F9
:1054500042FD001932463946A84762B601202AE4C7
:1054600030B4694B9C68E37BA47B1B0223431B0382
:10547000834202D230BC0020704730BCC9B2D2E7B0
:1054800030B4684CA44630BC6047F3B55E4889B080
:1054900080680024283000F01EFD07460998460960
:1054A000002511E072B668015C4BC01920216A46E4
:1054B000EA3B984762B6002069460A5C401C121914
:1054C00094B22028F9D36D1CB542EBD30998C606D7
:1054D000F60E72B631466801504BC0196A46EA3B77
:1054E000984762B60020694603E00A5C121994B23C
:1054F000401CB042F9D30A98844202D101200BB07B
:10550000F0BD0020FBE7F8B541488A388047444C9D
:105510005734607A002840D00006042500280FDAAE
:105520006078217800020843400709D5FEF7D3FDD3
:105530006078217800020843A8432070000A607058
:105540006078217800020843374F384E41060CD569
:10555000402188432070000A60700220694608805C
:1055600002466B4639460020B04760782178000239
:105570000843C10711D0400840002070010A617043
:10558000800702D56846058002E00520694608804C
:1055900002226B4639460020B04733E424480047D6
:1055A00038B5194C2078002805D11A4968467E394B
:1055B000884701202070012038BD70B50278002A8C
:1055C00062D0174957314A7242788A72002A01D054
:1055D000042A01D904228A72C27884781302104AFC
:1055E00023435732D3721C0A147344790579240279
:1055F0002C4315466C73240AAC73C4798579200258
:105600002843D073000A15E0F03000204562000006
:10561000E5460000CB65000003480000435400004D
:10562000505300207B4A000000800000A13E000093
:10563000F94B00001074FA480825C068D21C2130CC
:10564000447C007C240204430120A342887008D9D2
:105650001B1B07E01071000A01E01571280A507148
:1056600007E0E31A8C7AA3420ADA1071000A50713B
:105670008B72887AC8700871FFF761F8012070BDDD
:10568000E400A342E9DAE5E7002070BDE449496A95
:105690000870020A4A70020C8A70000EC870487ABC
:1056A000022210434872704738B50446002000902B
:1056B000DC49684688470099F8208143E006000EDF
:1056C00008430090FFF7E2FF38BD08B500200090C6
:1056D000D4496846884700980006C00E009008BD6F
:1056E000D04872300047CF495A310847CE49084761
:1056F000CD491A310847CD480047CC490C310847FD
:10570000F8B500260B4604460125304631462D03E8
:10571000675C491CBE19A942FAD30021675C491C89
:105720007840A942FAD39E4221D190421FD1BC4E6B
:10573000B0680A3000F0CFFB00195722BC4900F0D6
:1057400099FBB0681C3000F0C6FBF1680019072215
:105750000A3100F08FFB0121B64A00209047B54B7B
:10576000002022462946823B9847012029E4002058
:1057700027E470B501260546A94C3603AD4B002041
:105780003146EA3BA2699847AB4928468847A0685A
:105790001C3000F0A0FBA16907224018E1680A3123
:1057A00000F068FB0121A34A00209047A14B002094
:1057B0003146823BA269984770BD10B504469848AF
:1057C00080680A3000F087FB9A4B1021EA3B2246A2
:1057D00057309847F6E470B501260546904C3603DD
:1057E000944B00203146EA3BA26998470121914A37
:1057F00000209047A0680A3000F06DFBA1691022DC
:1058000057314018294600F035FB8A4B00203146BD
:10581000823BA269984770BD814840690178C943BD
:10582000890702D18078062801D000207047012026
:105830007047824A1047F3B581B0060025D0784FF3
:10584000386A0446C17980790D020543E01C00F0F6
:1058500042FB0102A07801430C46002D17D0002C1A
:1058600015D00121734B09030020EA3BBA69984720
:10587000B8680A3000F02FFBB9696731405C401C02
:10588000C7B2032F05D90220FEBD0120FEBD0420B2
:10589000FEBDB54204D10298844201D10020FEBD74
:1058A0000121644A002090475D4CA0680A3000F056
:1058B00012FBA2695F4B114667314754012109036E
:1058C0000020823B98470320FEBD59480121027801
:1058D000534809078068002A03D0012A07D0002016
:1058E0007047C27B837B10021843400304E0C27BF5
:1058F000837B1002184300034018704770B50446BC
:105900004B480D46017846480126B60380680029B9
:1059100003D0012903D0002070BD143000E0103006
:1059200000F0D9FA801972B60019424A2946904708
:1059300062B670BDF8B505463D480F460178384857
:105940000124A40380681646002903D0012903D04E
:105950000020C3E4143000E0103000F0BCFA00195D
:1059600072B64019334B32463946EA3B984762B625
:10597000B4E4F8B505462E480F46017828480124BE
:10598000A40380681646002903D0012903D0002013
:10599000A4E4143000E0103000F09DFA001972B653
:1059A0004019244B32463946823B984762B695E40B
:1059B00010B5030000F089FE09060C16202A444E9B
:1059C000516B870001217F20FEF73CFC882104E019
:1059D00001217F20FEF736FC8A216120FEF732FC90
:1059E00081216DE001217F20FEF72CFC8A216120BE
:1059F000FEF728FC832163E001217F20FEF722FCD3
:105A00008A216120FEF71EFC872159E001217F20B9
:105A1000FEF718FC8A216120FEF714FC8F214FE06D
:105A2000F03000204D6500002B620000776A000016
:105A30005053002043540000A13D0000D9600000F5
:105A400001217F20FEF7FEFB8A216120FEF7FAFB91
:105A50009F2135E001217F202BE000217F20FEF7F0
:105A6000F1FB02213020FEF7EDFB01217F20FEF744
:105A7000E9FB1F216320FEF7E5FB03216D20FEF704
:105A8000E1FB8A216120FEF7DDFBB02118E0002157
:105A90007F20FEF7D7FB02213020FEF7D3FB012148
:105AA0007F20FEF7CFFB1F216320FEF7CBFB0721F2
:105AB0006D20FEF7C7FB8A216120FEF7C3FBBF21E3
:105AC0006520FEF7BFFB85E610B5CE48806828301C
:105AD00000F001FA0121C904081A7BE6CA480078DF
