:020000041000EA
:10000000A0350020010E0010090E00100B0E00108C
:1000100000000000000000000000000000000000E0
:100020000000000000000000000000000D0E0010A5
:1000300000000000000000000F0E0010110E001064
:1000400000000000130E0010130E0010130E00101D
:10005000130E0010130E001061070010130800109B
:100060006104001099040010D1040010130E001058
:10007000BB030010130E0010130E0010130E00101F
:10008000F90C0010130E0010130E0010130E0010C8
:10009000130E0010130E001009050010130E0010AF
:1000A0000000000000000000000000000000000050
:1000B0000000000000000000000000000000000040
:1000C0000348854603F0F4FB00480047D5000010C4
:1000D000A035002072B601F01EFE00F035FA0120B6
:1000E00001F016FA00210120000500F085F8012139
:1000F0000905084600F0E4F801210905002000F098
:1001000094F80120000500F03FF91AA21CA11FA0DD
:1001100000F01EFA02F017FC0446214623A000F06E
:1001200017FA002C03D1122002F0FCFB02E020465B
:1001300002F0F8FB012000F0C9FB62B6062020495E
:1001400008700846007800F0A9FB00F0B6FD0FE04B
:100150001C48007801280BD100201A4908701AA009
:1001600000F0F6F900F0A9FD7D20C00000F034F8A1
:10017000EEE7000031373A32343A353700000000FC
:100180004A756C20313320323032300053594438B4
:1001900038313120475041444320746573742064E2
:1001A000656D6F2025733A25730D0A00465420476C
:1001B00070616463205472696D3A25780D0A0000FD
:1001C000643000200030002047504144435F737486
:1001D0006172740D0A000000002108E0002201E0B5
:1001E000531C9AB2034B9A42FADB4B1C99B28142E0
:1001F000F4DB70478C0A000010B50246002010E0C6
:10020000012383401340002B0AD08D4B1B681954E7
:100210000123834014469C432246002A00D102E079
:10022000401C2028ECD300BF10BDFCB50346854C14
:10023000221D019200220092002B02D1824A0092DC
:1002400003E0012B01D1814A0092009A002A36D0A6
:10025000002013E0012282400D461540002D0CD0F5
:100260002568009E375C0126BE40354325600D465B
:1002700095432946002900D102E0401C1828E9D303
:1002800000BF182017E0012585402A460D4615407D
:10029000002D0FD0019D2D780646183E0127B7404E
:1002A0003D43EEB2019D2E700D469543294600292F
:1002B00000D102E0401C2028E5D300BF00BFFCBDF8
:1002C00010B5634A126813461C7822465C782402F3
:1002D00022439C7824042243DB781B061A43024302
:1002E0005B4B1B681A70140A5C70140C9C70120E25
:1002F000DA70584A126813461C7822465C78240249
:1003000022439C7824042243DB781B061A430243D1
:10031000504B1B681A70140A5C70140C9C70120EFF
:10032000DA704C4A12680823D3181C7822465C788D
:10033000240222439C7824042243DB781B061A43C0
:100340008243444B1B681A72140A5C72140C9C7230
:10035000120EDA723F4A12680823D3181C7822461C
:100360005C78240222439C7824042243DB781B0619
:100370001A430A43374B1B681A72140A5C72140C36
:100380009C72120EDA7210BD324909680A4613785F
:10039000194653781B02194393781B041943D278EA
:1003A0001206114301432B4A126811700B0A537055
:1003B0000B0C9370090ED170704710B52648006879
:1003C000182141180A7810464A78120210438A7898
:1003D00012041043C978090608431F49096810220E
:1003E0008A181378194653781B02194393781B0413
:1003F0001943D27812061143884300281ED01748AB
:100400000068002802D0154800688047124800683C
:10041000182141180A7810464A78120210438A7847
:1004200012041043C978090608430B49096808708B
:10043000020A4A70020C8A70000EC87010BD0000DB
:1004400004300020801000501C3000203430002088
:100450000830002010300020143000201830002018
:1004600010B5354800682030C07CC007C00F002898
:1004700011D0314800682030407C40084000401CCA
:100480002D490968203148742C480068002802D0A2
:100490002A490868804710BD10B5274800682030F9
:1004A000C07C8007C00F002811D02348006820308E
:1004B000407C02218843801C1F4909682031487410
:1004C0001E484068002802D01C494868804710BD7B
:1004D00010B5194800682030C07C4007C00F0028C4
:1004E00011D0154800682030407C04218843001D4D
:1004F000114909682031487410488068002802D0EA
:100500000E498868804710BD10B50D480068007D11
:10051000C407E40F0A480068007D40084000401C02
:1005200007490968087507480068002802D005488F
:100530000068804710BD00004C300020A83000202B
:10054000503000205430002010B500F027F810BDC6
:100550000FB438B5002500240498002803D138BC16
:1005600008BC04B0184705A800900B48009A0499ED
:1005700003F0B0F9C5B200200090802D00DD802589
:10058000002405E00449085D00F0B2F8601CC4B224
:10059000AC42F7DB00BFE2E7B430002010B5BB4847
:1005A0000068C07B80098001C01CB8490968C87315
:1005B000B6480068007C80098001001DB3490968C5
:1005C0000874B24800682030807820218843AF4901
:1005D000096820318870AD4800682030807840215B
:1005E0008843AA49096820318870A9480068807842
:1005F00040084000A64909688870A548006800784E
:10060000000900010830A24909680870A048006884
:100610000078802188439E49096808709C480068DA
:10062000007840218843403099490968087098480B
:100630000068C07810218843103095490968C87057
:1006400093480068807804218843001D9049096818
:1006500088708F4800688078202188438C49096819
:1006600088708B4800688078102188438849096821
:1006700088708748006880788021884384490968A9
:1006800088708348006880784021884380490968E1
:1006900088707F4800680078102188437C49096889
:1006A00008707B48006800782021884378490968F1
:1006B000087077480068807802218843801C74495C
:1006C0000968887072480068C0782021884320300B
:1006D0006F490968C870062000F0D0F86C480068BF
:1006E000807808218843083069490968887010BDFE
:1006F00067490968487000BF654909680978890633
:10070000C90F0029F8D0624909680978202291436D
:100710005F4A12681170704718B502460020002326
:10072000009314E05A4B1B681B790B54431CD8B23E
:100730006B461B785B1CDCB200946B461B785B1C21
:10074000DCB200946B461B785B1CDCB20094504B0F
:100750001B68DB78DB07DB0F002BE3D0107018BDC4
:100760000CB54B4800680078C006C00F00280CD0BC
:100770004748006800781021884345490968087097
:10078000694601A8FFF7C8FF00BF4148006800782C
:100790008006C00F002807D03D480068007820215F
:1007A00088433B49096808703948006880788007A9
:1007B000C00F002808D0364800688078022188439E
:1007C000801C3349096888700CBD18B502460020AA
:1007D0000023009314E02F4B1B681B790B54431C20
:1007E000D8B26B461B785B1CDCB200946B461B785E
:1007F0005B1CDCB200946B461B785B1CDCB2009483
:10080000244B1B68DB78DB07DB0F002BE3D0107079
:1008100018BD0CB51F4800680078C006C00F00283E
:100820000CD01C48006800781021884319490968D9
:100830000870694601A8FFF7C8FF00BF15480068A7
:1008400000788006C00F002807D0124800680078A2
:10085000202188430F49096808700E480068807895
:100860008007C00F002808D00A480068807802215D
:100870008843801C0749096888700CBDC206D20EE7
:1008800001219140044A11607047000004300020AB
:10089000583000205C30002000E100E00A2814DC21
:1008A000FE49096860310870020A4A70020C8A70B9
:1008B000020ECA70F9490968097A09090901020793
:1008C000120F1143F54A12681172704700B50346C2
:1008D000F3480068807880098001F14909688870D0
:1008E000F0480068007804218843001DED4909683C
:1008F0000870ED480068007804218843EA490968D7
:100900000870E74800682030007804218843E449F3
:10091000096820310870E248006880788009800109
:100920001C30DF4909688870DD480068C07880099C
:100930008001DB490968C870DA480068007808213E
:1009400088430830D74909680870D748006800789C
:1009500008218843D44909680870D14800682030CC
:10096000007808218843CE49096820310870CC48B6
:100970000068C078800980011C30C9490968C870C6
:10098000C7480068007980098001C5490968087175
:10099000C44800680078102188431030C1490968B4
:1009A0000870C1480068007810218843BE49096872
:1009B0000870BB4800682030007810218843B8498F
:1009C000096820310870B648006800798009800104
:1009D0001C30B34909680871B14800684079800942
:1009E0008001AF4909684871AE480068007820214D
:1009F00088432030AB4909680870AB48006800782C
:100A000020218843A84909680870A548006820305B
:100A1000007820218843A249096820310870A04845
:100A200000684079800980011C309D49096848713F
:100A30009B480068007F8009800199490968087710
:100A400098480068C078102188431030954909689B
:100A5000C87095480068C078102188439249096899
:100A6000C8708F48006820300079102188438C4975
:100A70000968203108718A480068007F8009800178
:100A80001C3087490968087785480068407F8009DD
:100A9000800183490968487782480068C07820212E
:100AA000884320307F490968C8707F480068C07853
:100AB000202188437C490968C87079480068203043
:100AC00000792021884376490968203108717448EB
:100AD0000068407F800980011C30714909684877AF
:100AE0006F480068807F800980016D4909688877B8
:100AF0006C480068C07840218843403069490968E3
:100B0000C87069480068C078402188436649096810
:100B1000C8706348006820300079402188436049EC
:100B20000968203108715E480068807F8009800173
:100B30001C305B490968887759480068C07F800984
:100B4000800157490968C87756480068C0788021F5
:100B50008843803053490968C87053480068C0789A
:100B60008021884350490968C8704D48006820308A
:100B70000079802188434A49096820310871484832
:100B80000068C07F800980011C3045490968C8772A
:100B9000424800684030007F800980011F303F4993
:100BA0000968403108773D4800684030007B4008C4
:100BB0004000401C394909684031087337480068D3
:100BC0004030007A00090001401C34490968403176
:100BD0000872012131480068203001710021417103
:100BE00032480078FFF75AFE2C480068007D400824
:100BF00040002A4909680875284800682030007FAD
:100C00008009800118302549096820310877234878
:100C100000684030007880098001001D1F49096884
:100C200040310870012B12D11C4800684030007917
:100C3000C008C000C01D194909684031087107216A
:100C400016480068203001720021417210E01348FC
:100C5000006840300079C008C000401C0F49096896
:100C60004031087100210D48006820300172417246
:100C70000A480068007C4008400008490968087478
:100C800006480068007F40084000401C034909688E
:100C90000877102001218140054A0BE060300020D8
:100CA0000430002008300020103000206430002084
:100CB00000E100E0116000BF00BD41480068403025
:100CC000007B40084000401C3D49096840310873E2
:100CD0003B480068007940084000401C38490968DA
:100CE00008717047364800686030417B027B08021B
:100CF00010438005800D7047F0B587B0304800681C
:100D0000007CC007C00F002857D00027FFF7EAFF7C
:100D100004462B480068007C4008400028490968C8
:100D20000874274800684030007B40084000244990
:100D30000968403108732348044023480078082894
:100D400016D1204602F004FC019002F049FC1F4A33
:100D50001F4B0391029002F01BFB054600221D4B26
:100D600002F07EFB0591049002F04EFC074615E070
:100D7000204602F0EDFB019002F032FC0546134ADA
:100D8000134B02F005FB0022134B0391029002F07B
:100D900067FB0591049002F037FC0746384602F0E5
:100DA0001FFC224601910090074801780BA0FFF735
:100DB000CFFB01201149087000BF07B0F0BD000053
:100DC00060300020FEFF000064300020CDCCCCCC91
:100DD000CCCC0C4000307E400000904063683A2547
:100DE00030326420616463203A20253034782076E4
:100DF00061743A2025342E33660D0A00003000203D
:100E00000448804704480047FEE7FEE7FEE7FEE7A8
:100E1000FEE7FEE71D0E0010C10000100148024968
:100E2000086070470024F40068300020F1B5F848ED
:100E300080470746F74880470646F54C0120183C96
:100E4000A047F44D00200C35A847F3490098884787
:100E50003046A8473846A047F8BDF0B5EF4DF048FA
:100E6000E96885B00818044602F073F92146401C71
:100E700002F079F90024E9480125C668E8480C38F1
:100E800031180391487C097C00020843A5402842A0
:100E900002903BD00B2060438119E148009109305A
:100EA0000818019002F055F90746DD48301802F0A5
:100EB00050F987422AD10F21009889014018007DFE
:100EC00000280CD0D64A00990D3A8A18517D127D1F
:100ED000090211437818019902F045F905E00298DA
:100EE0000399A8430874000A4874CD4800990D304E
:100EF000081802F02EF9002808D0022D19D0042D70
:100F000017D0082D15D0102D1AD08047641CE4B2DC
:100F10000A2CB0D3C148C168C1480C380918487CB4
:100F2000097C00020843800501D1BE48804705B016
:100F3000F0BDBD49012088470028E7D0222005E008
:100F4000B949012088470028E0D03B20FFF76EFF19
:100F5000DCE7FEB50020694608710870B34F0872DF
:100F6000B34EAE4CB847207102AB6A4601A9606926
:100F700001F0EDFF002836D00820B047002803D04C
:100F80000220B04700280FD068460078012811D011
:100F9000E0686569407A012826D00228E2D1A54A96
:100FA000217928469047DDE7012168460170007AE3
:100FB000002815D02521E06849014118497B002906
:100FC00008D09749D4314018417B027B08029A49E6
:100FD000104388476846974A017996326069E1E78D
:100FE0003D20FFF723FFFEBD28780007000F0528EE
:100FF000B8D18E49EE31A81C884728788722400650
:10100000C10FE06811540622A91C883002F070F864
:101010003721206902F085F8A4E7F0B5824999B03C
:101020000420884700280ED07F4904201A318847C1
:101030007C491F20AC318847804880471620FFF745
:10104000F5FE19B0F0BD7E488047002810D0734DE2
:10105000EC68A1790807F4D5E079C2071CD079497A
:10106000204698308847E868C179490849001FE060
:10107000734E724F714DB2361C376C46103507E017
:101080006846B0470128DCD168460178601CB84743
:10109000A8470028F4D0D4E782070BD5694A204638
:1010A0001C328E30811C9047E868FD22C17923E014
:1010B000C171C6E7420708D5624920466031A830B1
:1010C0008847E868FB22C17916E00207F726002A64
:1010D00009DA5C4A21464232A07A0B319047E8682F
:1010E000C1793140E4E7C00608D5564968467C31ED
:1010F0008847E868EF22C1791140D9E7204631409E
:10110000FF30A1712130017D0026002910D0067525
:101110002146072287310CA801F0EAFF21460DA8DD
:101120002A228E31033001F0E3FF47490CA888479B
:1011300001206946087048708E70E96800A82A226C
:1011400003308E3101F0D4FF2D2208213F4C6B4635
:101150000020A04775E731490128896A0FD002288D
:1011600011D0042812D0082813D0102814D0202819
:1011700015D0402816D0802818D0012070478878D4
:10118000C007C00F7047887880070DE08878400757
:101190000AE08878000707E08878C00604E08878CD
:1011A000800601E088784006C00F70478878C00943
:1011B000704710B50178012920D1401C01F0C9FF0A
:1011C000164A10285CD00EDC012818D002283FD027
:1011D000042845D0082811D1FFF7BDFF00280DD104
:1011E0000D48563809E020285AD0402806D1FFF78C
:1011F000B2FF002802D10848801E804710BD0120A0
:10120000FFF7A9FF0028F9D1FFF707FF10BD000085
:10121000BF650000776A0000CF1600006C30002028
:10122000CE03000001120000F50A0000495700003B
:10123000791900008B1E00002B620000BD600000C9
:10124000054E000027260000DF470000A13E0000F9
:101250000220FFF780FF0028D8D1FFF77AFE10BDEB
:101260000420FFF778FF0028F9D1D068407A0128E0
:1012700003D00228F3D1FE48BFE7FD48AE38BCE7F3
:101280001020FFF768FF0028E9D1906A2030407DE8
:10129000400701D53E2000E00820FFF7C7FD10BD44
:1012A0002020FFF758FF0028F9D1F248A5E770B5D4
:1012B00010250826F04C002821D0A06A817E3143F9
:1012C0008176014660310A7E637852095201DB065D
:1012D000DB0E1A430A762030427B067B1302E2685B
:1012E00033432332547C167C22023243934214D07F
:1012F0000273120A4273C87D2843C8750DE001F0DD
:1013000013FEA06A0022014620310A734A7360303E
:10131000C17D2943C175D9480677012070BDD648E3
:10132000C0682330417C027C080210430BD0D449B2
:1013300048780A7800021043032210430870000A1C
:1013400048700120B3E7704730B4CE4CA44630BC9F
:101350006047F8B5CA48407A000663D5C648C668F3
:1013600030462330417C007C0F02C5490743487852
:10137000097804020C43002F01D1600752D5C04DFB
:10138000A87B697B00026D1C08434BD0002F49D01D
:1013900068792979000208432ED12136707C317C8E
:1013A0000002084302F0F0F80022B74B01F0F0FF12
:1013B00002F0F8F880B27843642101F085FE400421
:1013C000010C2971080A68710A204143707D327D41
:1013D00000021043814206D30A21401E01F074FE30
:1013E0002871000A6871687929790002084303D1DD
:1013F0000120287100206871A148A10709D50221A8
:101400008C4301210C430470210A41700020FFF736
:101410004EFF68792A79010211439C4B002240203B
:10142000FFF792FFF8BD1CB595494A7A002A3AD0D9
:101430004A780B7812021A43D30634D443780478DE
:101440001802204301282ED1C878401E0006000E45
:10145000C87029D008468B78017AC27909021143F5
:10146000027BC47A12022243C01C012B24D0521AE0
:101470000272120A42721206037A120C1A43531AAB
:1014800069460B804A807E498A7B497B12020A4367
:1014900069468A80417B027B080210436946C88006
:1014A0007B49684688471CBD887AC8704020024343
:1014B0000A70100A48701CBD5218D9E7754A1047C7
:1014C000744A2032104738B5002469460C70214612
:1014D0007F20FFF7F5FF00213B20FFF7F1FF2921D7
:1014E0003B20FFF7EDFF69463B20FFF7E7FF68462B
:1014F0000078800701D5012038BD641CA4B2FF2C00
:10150000F1D9002038BD10B563488047012010BDD7
:1015100010B55949614A8870002807D1C868807899
:10152000022803D000209047012010BD0120FAE7D7
:1015300010B5514C0128E168887004D0002836D0DD
:1015400002284BD05EE0206B014620310A78520819
:1015500052000A700A78FD231A400A70017889093E
:1015600089011C3101704178890989011C31417060
:1015700000217F20FFF7A4FF03212120FFF7A0FF18
:101580001F210320FFF79CFF7D204249C0008031CE
:10159000884702217F20FFF793FF01210020FFF7FA
:1015A0008FFF00217F20FFF78BFF0F2127E0002115
:1015B0007F20FFF785FF00210420FFF781FF022134
:1015C0007F20FFF77DFF00210846FFF779FF00210C
:1015D0007F20FFF775FF0021032011E002217F200B
:1015E000FFF76EFF03210020FFF76AFF00217F2035
:1015F000FFF766FF00210320FFF762FF00210420B0
:10160000FFF75EFFA078FFF783FF012010BD10B544
:10161000FFF78EFF012010BD1F4810B50C3080472A
:101620001548C06A017ADF2211400172012010BD05
:10163000FEB51A48183080470F4C0190E06A817A55
:10164000007ACF07FF0F0026800702D00126FFF7A0
:10165000E3FF0948C06A817A4908490081720F494D
:10166000012088470220FFF763FF6420094917E043
:1016700027150000C11600006C3000202000024039
:101680008B310020AB4400000000F43F1F1300101A
:1016900033420000C561000007470000A765000055
:1016A00066318847002469460C70254601217F2059
:1016B000FFF706FF00210A20FFF702FF22210A2080
:1016C000FFF7FEFE69460A20FFF7F8FE684600783D
:1016D0004007EFD469460A20FFF7F0FE684600781D
:1016E000400705D568460078000706D4012504E0C8
:1016F000641CFF48A4B28442ECD3FE4964208847AE
:101700000020FFF715FFFC4901988847FB48C06A95
:10171000817A4908490039438172002E01D0F84886
:101720008047002D01D00120FEBD0020FEBD10B578
:101730001121F44801F0F5FC10BD70B50446401CC1
:1017400001F007FD022818D0042819D0012149040E
:10175000884247D125462035687B092301070209C5
:10176000090F0020072A1CD0032A20D0022A25D0E6
:10177000012A29D0002A2DD032E0FFF7D8FF3AE025
:10178000DE4D0121E868FF302130017501F024FCB5
:10179000E8688078002801D1FFF74AFFFFF793FE41
:1017A00029E0581A062148434121C94304E0581A48
:1017B000062148433521C943081A10E0581A06216A
:1017C00048432321C943F7E7581A06214843172104
:1017D000C943F1E7581A06214843801D404240B2F0
:1017E000687308E040281DD00121C903884202D156
:1017F000601DFFF718FEC3494878097800020843C6
:10180000800607D5601C01F0A4FC0005000F01D084
:10181000FFF79FFDB948383001F09BFC0146204698
:10182000884770BDB548343001F093FC4006E2D5DE
:1018300070BDF0B5B14C0646E0688DB0FF30213088
:10184000407C0D46002829D0002D26D072B6A06815
:10185000183001F07EFCE1683222FF312131897CB1
:10186000A94B514340186A463221984762B6002E70
:1018700004D0E068FF302130807C3070E7680A21B6
:10188000FF372137B87C401C01F008FCB974E078C0
:10189000401CC0B2E0700A2802D900200DB0F0BD93
:1018A000684600780128D1D100A9072228460131D5
:1018B00001F01EFC2A22E81D02A901F019FC0120FA
:1018C000ECE7F0B5054691498DB0202088478B4C58
:1018D0000426E16820690F4686700822C01CC931C1
:1018E000BD3701F005FC2069042239460B3001F0B8
:1018F000FFFB0D21864A03209047E0682946082215
:101900000A31C13001F0F4FBE068294604221231AB
:10191000B93001F0EDFB287A7E4F002802D1687AB9
:1019200000281FD00020E070E0682A7A014680304D
:10193000837B9A420AD16A7AC07B824206D108220E
:101940002846903101F0F8FB002817D069460020A6
:10195000FFF76FFF012826D0062200216E4B0120E1
:1019600098479BE7E0680222817911430246817122
:10197000C132FF3011461030B84710E0E06881797D
:10198000024631438171C13211469830B847E06850
:1019900080308079012802D15C49022088475E4866
:1019A000A03080477AE7E06801A92A228E3003310F
:1019B00001F09EFBB8E7594908471CB5514808217A
:1019C0000170002141700146087BCA7A0002C91CDF
:1019D00010432FD04A790B7912021A43821A92B21D
:1019E0006B461A8058800623062A01D26A46138065
:1019F000062801D268464380487B097B00020843E1
:101A00006946C8803F48817B427B08021043694693
:101A100088803A48C0682330417C027C0802104329
:101A200002D00020FFF743FC3D49684688473B4908
:101A3000402088471CBD334948780A78000210438B
:101A4000C2050CD5FF22013290430870000A48708D
:101A50000879401E0006000E087109D0ADE720226B
:101A6000104310229043042210430870000A48706B
:101A70007047FEB5234D0446687829780002084374
:101A8000000776D52748804769782A7809021143EC
:101A90000822914329700A0A6A706B7A0646284622
:101AA0001A0667D5A27967791202651C3A43134F6B
:101AB000E41C002A7ED01022114301700A0A4270F1
:101AC000880657D4687929790002084353D001F079
:101AD0005BFD01910090607821780002084301F0DD
:101AE00053FD114C0022234601F052FC019B1DE0E6
:101AF000FFFF00002B620000A76500006C30002093
:101B0000074700008B31002059530000050B0000EF
:101B10004D11000019220000D9190000B344000043
:101B200033420000BF5500000000F43F009A01F06E
:101B30002FFC01910090F8682130417C027C080262
:101B4000104301F021FD0022234601F021FC07464D
:101B50000C46687A297A00020843801B01F000FDD8
:101B60003A46234601F014FC019B009A01F05EFB0B
:101B700028E094E08AE0607821780002084301F0D0
:101B8000E7FC0446F8682130417C027C08021043DF
:101B900001F0DEFC214601F0EFFA01F021FD002208
:101BA000FC4B01F0F5FB07460C46687A297A0002E7
:101BB000084300E016E0801B01F0D2FC3A462346C1
:101BC00001F0E6FB0022F44B01F04AFC01F0EAFCD4
:101BD0000104090C00D10121F04B00228020FFF705
:101BE000B3FB53E09A0651D58278012A4ED18A067A
:101BF0004CD4FF22EA48013211430170090A4170B6
:101C00006078217800020843E5490A7BCB7A11020B
:101C1000194388423AD901F09BFC0446F868213008
:101C2000417C027C0802104301F092FC214601F045
:101C3000A3FA01F0D5FC0022D64B01F0A9FB074620
:101C40000C46687A297A00020843801B01F088FC60
:101C50003A46234601F09CFB0022CF4B01F000FCEA
:101C600001F0A0FC0104090C00D10121CB4B0022A2
:101C70008020FFF769FBCA484178027809021143C6
:101C8000FF22013211430170090A417003206946A5
:101C9000088102229103C34C02AB0020A047FEBD85
:101CA00010B50446007800280BD1A17862780802AC
:101CB000104307D001281CD0032802D1201DFFF7B4
:101CC00000FE10BD01F030F9B749201D88470028FB
:101CD00002D12820FFF7AAF8201DFFF7CAFEB3485B
:101CE0000121C368062209040020AE4C3133A0470D
:101CF00010BD01F019F9AE49201D88470028F7D121
:101D00002820FFF793F810BD10B50078012801D105
:101D1000FFF7A3F810BD70B5A64886B08047012133
:101D20007F20FFF7CDFB69465020FFF7C7FB6846D1
:101D30000078042801D0A0488047FFF779FCFFF71E
:101D4000C2FB01246846448004809C4801909C4961
:101D50006846884768460470447000244480994867
:101D6000924D0190984BE86808226946C01801F02E
:101D7000BFF90121954E4020B04701218020B04796
:101D800001212020B0470B216846018041808480DA
:101D9000C480048144818481C4818D488849049031
:101DA0006846A2398847A8680A3001F0D2F97C4A0F
:101DB000884B573A5721984701F00EF9012006B099
:101DC00070BD7C4810B50A308047012010BD7949AC
:101DD00010B528318847012010BD764910B55E3115
:101DE0008847012010BD734910B56A31884701202A
:101DF00010BD704910B578318847012010BD6D497C
:101E000010B588318847012010BD10B5654C383CAD
:101E1000A047012010BDF8B5644C6F49E068373029
:101E2000884720693B230178BF250A09E168120130
:101E30005B5C1B071B0F1A4302701207120F012A6B
:101E400079D00B4640335A781B7812021A430B465E
:101E500042331A70120A5A7002788B7A2A409B0118
:101E60001A435206520E027066235B5C42789B1D39
:101E700092099B0692019B0E1A4342700622801C17
:101E80000B3101F035F9E1686620425C002A04D08C
:101E900020696731083001F02BF9E068002120301B
:101EA000417720694D4A41788906890E891C9047FF
:101EB000206901780A091201121D0270E1682A40A6
:101EC0008B7ADB075B0E1A43027046235B5C427819
:101ED0009B1D92099B0692019B0E1A43427006229B
:101EE000801C0B3101F004F9E1684620425C002AB5
:101EF00004D020694731083001F0FAF82069374AE8
:101F000041782C328906890E891C9047E5680127A3
:101F10002E462036F07E012862D0002874D0022898
:101F200072D0062870D000231E4C1A460121184694
:101F3000A047F8BDFFE70A464032137953718B7A08
:101F40000278DB072A405B0E1A43027087235B5C32
:101F50005206520EDB011A43027042780B3192098D
:101F600092010C3242700622801C01F0C1F82069F7
:101F7000E16806220830883101F0BAF8E1680322EE
:101F80003D204254144A8720405C323A88319047C1
:101F900087E725E00000F43F00005940371A0010A1
:101FA0008B310020A13E00005D5B00006C30002002
:101FB000475F0000793D0000F7460000091D001052
:101FC0002F440000B3110010CE0200006155000044
:101FD000A11C001059530000B1570000D960000047
:101FE0004035687900280BD028200621A26A937E0C
:101FF000FD24234093761775737F327F3BE003E027
:1020000001206F710146F1E72C4642346078217857
:1020100002020A4316D02235697F19202B7F8001E6
:1020200009024243194301208904890C009105D01B
:10203000104601F033F8401C7F2809D8C5B227703C
:10204000380A0CE0380A277060700125009507E017
:102050007F2529467E3001F021F82070000A60704B
:10206000F848806A817E0222114381760775737F6A
:10207000327F00992846F44CA047F3483E30804711
:1020800057E710B5FFF7C7FE012010BD10B5EF49A7
:1020900003200870EE4964208847EE4880470120FD
:1020A00010BD72B60021E74A906A4175037C012198
:1020B0000B430374D0684522115442300170002153
:1020C000417062B60120704710B5E349884701208E
:1020D00010BDE14810B55C308047012010BD10B53F
:1020E000DE488047012010BDDC4910B50831884723
:1020F000012010BDD94910B516318847012010BD07
:10210000D64910B578318847012010BDCD494870B7
:1021100001207047D14910B586318847012010BD94
:10212000CE4A10B58E329047012010BD7CB50546D1
:1021300001F00FF8C3490446343101F014F8281DAA
:1021400001F007F8BF49383101F00DF84020844311
:10215000C348C249019000946846963188470120DF
:102160007CBD10B5BF498847012010BDBD4A10B5E0
:1021700008329047012010BD10B5BB4880470228A7
:1021800001D9002010BD012010BDF8B50E4607464C
:10219000B6491C4615460120884700280AD0B24897
:1021A0008047022807D92346AE4C2A463146384696
:1021B0001834A047BDE60020BBE6AD49084710B57E
:1021C0000446AA4901208847002803D0A849204690
:1021D0000831884710BD70B50546A44A0C46012059
:1021E0009047002804D0A24A214628462232904730
:1021F00070BDFFB50F4681B09C491D4616460120B3
:102200000A9C8847002807D00094994C2B463246F8
:10221000394644340198A04705B0F0BDF8B50E46E4
:10222000074692491C46154601208847002806D0DB
:1022300023468F4C2A46314638467C34A04778E600
:1022400010B50446894901208847002803D08849F1
:102250002046AC31884710BD70B50546834A0C4610
:1022600001209047002804D0814A21462846C632E2
:10227000904770BD70B505467C4A0C4601209047DA
:10228000002804D07A4A21462846E832904770BD9B
:10229000F8B50E46074675491C4615460120884785
:1022A000002805D02346734C2A4631463846A047BD
:1022B0003FE670B50D4606466C4914460120884736
:1022C000002805D06B4B22462946304630339847CC
:1022D00070BD70B50D460646644914460120884716
:1022E000002805D0634B2246294630465C33984788
:1022F00070BDF8B50E4607465C491C4615460120E0
:102300008847002806D023465A4C2A46314638468C
:102310008834A0470DE610B504465449012088478B
:10232000002803D053492046B831884710BD10B566
:102330004E4901208847002802D04E48CC308047C3
:1023400010BD70B53F4D0446082804D0E8684078B9
:1023500008280DD014E000217F20FFF7B1F80121FB
:102360004020FFF7ADF8E86A0178C908C9000EE01F
:1023700000217F20FFF7A4F800214020FFF7A0F8FC
:10238000E86A01786207C908C900520F1143017059
:10239000E8684470012070BDD3E710B504463648A4
:1023A00080472070012010BD10B504463248801DC2
:1023B00080472070012010BD2F4910B51C3188477F
:1023C000012010BD2C4810B572308047012010BD8F
:1023D0002A4800471E491A3908471D49084708B5C9
:1023E0002749684688476846C0788007C00F08BDFF
:1023F00008B52349684688476846C078C00900D0B8
:10240000012008BD10B5FFF759F810BD10B5FFF752
:1024100057F810BD0B48806AC07B052805D00628F8
:1024200003D00F2801D0002070470120704710B55D
:10243000FFF7F0FF002802D10F48523080470120FB
:1024400010BD00006C3000205F560000000002400C
:102450004562000007470000014100001D420000E6
:102460003B1700102D4300002B4E0000F50A000022
:10247000B73A0000BB3B00009F440000FB5F000038
:102480004D65000010B5FF490122886A4275437C02
:10249000DB09DB019B1C4374931E83741B0AC3740A
:1024A000C96ACB7AEF242340CB724B7B93434B73A7
:1024B0008B7A13438B72817E022319438176017CD0
:1024C00011430174F04905208847F04880470120F6
:1024D000B6E7EE4810B5123080470120B0E710B5DE
:1024E000EB4988470120ABE7E94910B51831884727
:1024F0000120A5E7E54910B55831884701209FE73D
:10250000E249AC310847E14910B5FA31884701206A
:1025100096E710B5DF488047012091E7DD4810B508
:102520001830804701208BE7DA4BA2331847D94B8C
:10253000D8331847F8B50746D248002680680D46BC
:102540003446283000F005FE2903C919401801213E
:10255000C904884211D90020EBE472B6C9488068EA
:10256000283000F0F6FD2103C9194018CA4A01219C
:102570009047064662B6641CE4B2AC42EDD33046E6
:10258000D7E470B50446BF48164680680D4628302B
:1025900000F0DFFD0346611940180121C90488429B
:1025A0000AD8002B08D072B61819BB4B3246294600
:1025B000EA3B984762B670BD002070BD70B5044616
:1025C000B048164680680D46283000F0C2FD03462C
:1025D000611940180121C90488420AD8002B08D08B
:1025E00072B61819AC4B32462946823B984762B600
:1025F00070BD002070BD70B5A84800240078A64EBC
:10260000A04D00280DD001281ED024E072B6143051
:1026100000F09FFD210340180121B04762B6641C01
:10262000E4B2A868C17B827B09021143A142EDD8C4
:1026300011E072B6103000F08CFD2103401801212A
:10264000B04762B6641CE4B2A868C17B827B090211
:102650001143A142EDD8012070BD70B504460D466E
:10266000000B421987488068C17B837B09021943AC
:102670008A4201D9002070BD8849874E0978002917
:1026800002D0012903D00AE072B6143001E072B61C
:10269000103000F05EFD00192946B04762B60120F7
:1026A00070BDF8B504467D480F46017875487A4DEF
:1026B0008068823D1646002902D0012903D00BE034
:1026C00072B6143001E072B6103000F042FD00190D
:1026D00032463946A84762B601202AE430B4694B35
:1026E0009C68E37BA47B1B0223431B03834202D22F
:1026F00030BC0020704730BCC9B2D2E730B4684C5F
:10270000A44630BC6047F3B55E4889B080680024B9
:10271000283000F01EFD074609984609002511E003
:1027200072B668015C4BC01920216A46EA3B9847A3
:1027300062B6002069460A5C401C121994B2202837
:10274000F9D36D1CB542EBD30998C606F60E72B6E6
:1027500031466801504BC0196A46EA3B984762B659
:102760000020694603E00A5C121994B2401CB04292
:10277000F9D30A98844202D101200BB0F0BD0020A9
:10278000FBE7F8B541488A388047444C5734607AB3
:10279000002840D00006042500280FDA6078217850
:1027A00000020843400709D5FEF7D3FD6078217881
:1027B00000020843A8432070000A60706078217806
:1027C00000020843374F384E41060CD5402188435C
:1027D0002070000A607002206946088002466B463D
:1027E00039460020B0476078217800020843C107CD
:1027F00011D0400840002070010A6170800702D5A6
:102800006846058002E005206946088002226B4682
:1028100039460020B04733E42448004738B5194C06
:102820002078002805D11A4968467E39884701205A
:102830002070012038BD70B50278002A62D0174997
:1028400057314A7242788A72002A01D0042A01D98B
:1028500004228A72C27884781302104A23435732C2
:10286000D3721C0A14734479057924022C4315464B
:102870006C73240AAC73C479857920022843D07321
:10288000000A15E06C30002045620000E5460000BB
:10289000CB650000034800004354000034310020A1
:1028A0007B4A000000800000A13E0000F94B0000C0
:1028B0001074FA480825C068D21C2130447C007C82
:1028C000240204430120A342887008D91B1B07E09F
:1028D0001071000A01E01571280A507107E0E31A2F
:1028E0008C7AA3420ADA1071000A50718B72887ACE
:1028F000C8700871FFF761F8012070BDE400A342C1
:10290000E9DAE5E7002070BDE449496A0870020A87
:102910004A70020C8A70000EC870487A0222104376
:102920004872704738B5044600200090DC4968467C
:1029300088470099F8208143E006000E0843009084
:10294000FFF7E2FF38BD08B500200090D449684683
:10295000884700980006C00E009008BDD04872302D
:102960000047CF495A310847CE490847CD491A3167
:102970000847CD480047CC490C310847F8B5002638
:102980000B4604460125304631462D03675C491C41
:10299000BE19A942FAD30021675C491C7840A942BC
:1029A000FAD39E4221D190421FD1BC4EB0680A306A
:1029B00000F0CFFB00195722BC4900F099FBB0682A
:1029C0001C3000F0C6FBF168001907220A3100F044
:1029D0008FFB0121B64A00209047B54B00202246CC
:1029E0002946823B9847012029E4002027E470B55E
:1029F00001260546A94C3603AD4B00203146EA3B83
:102A0000A2699847AB4928468847A0681C3000F067
:102A1000A0FBA16907224018E1680A3100F068FBB9
:102A20000121A34A00209047A14B00203146823B60
:102A3000A269984770BD10B50446984880680A306E
:102A400000F087FB9A4B1021EA3B2246573098470B
:102A5000F6E470B501260546904C3603944B0020F1
:102A60003146EA3BA26998470121914A00209047EC
:102A7000A0680A3000F06DFBA169102257314018A0
:102A8000294600F035FB8A4B00203146823BA26983
:102A9000984770BD814840690178C943890702D1D0
:102AA0008078062801D00020704701207047824AB4
:102AB0001047F3B581B0060025D0784F386A044638
:102AC000C17980790D020543E01C00F042FB010250
:102AD000A07801430C46002D17D0002C15D0012101
:102AE000734B09030020EA3BBA699847B8680A307B
:102AF00000F02FFBB9696731405C401CC7B2032F5F
:102B000005D90220FEBD0120FEBD0420FEBDB54258
:102B100004D10298844201D10020FEBD0121644A03
:102B2000002090475D4CA0680A3000F012FBA269BB
:102B30005F4B114667314754012109030020823B56
:102B400098470320FEBD59480121027853480907E0
:102B50008068002A03D0012A07D000207047C27B7A
:102B6000837B10021843400304E0C27B837B100286
:102B7000184300034018704770B504464B480D4693
:102B8000017846480126B6038068002903D0012950
:102B900003D0002070BD143000E0103000F0D9FAEE
:102BA000801972B60019424A2946904762B670BD34
:102BB000F8B505463D480F46017838480124A4037E
:102BC00080681646002903D0012903D00020C3E401
:102BD000143000E0103000F0BCFA001972B6401951
:102BE000334B32463946EA3B984762B6B4E4F8B50F
:102BF00005462E480F46017828480124A403806822
:102C00001646002903D0012903D00020A4E4143083
:102C100000E0103000F09DFA001972B64019244B04
:102C200032463946823B984762B695E410B50300B8
:102C300000F079FE09060C16202A444E516B8700DD
:102C400001217F20FEF73CFC882104E001217F2048
:102C5000FEF736FC8A216120FEF732FC81216DE00F
:102C600001217F20FEF72CFC8A216120FEF728FC41
:102C7000832163E001217F20FEF722FC8A2161206D
:102C8000FEF71EFC872159E001217F20FEF718FC8A
:102C90008A216120FEF714FC8F214FE06C30002068
:102CA0004D6500002B620000776A0000343100207F
:102CB00043540000A13D0000D960000001217F20A5
:102CC000FEF7FEFB8A216120FEF7FAFB9F2135E02B
:102CD00001217F202BE000217F20FEF7F1FB022164
:102CE0003020FEF7EDFB01217F20FEF7E9FB1F21DD
:102CF0006320FEF7E5FB03216D20FEF7E1FB8A214F
:102D00006120FEF7DDFBB02118E000217F20FEF7F7
:102D1000D7FB02213020FEF7D3FB01217F20FEF7F5
:102D2000CFFB1F216320FEF7CBFB07216D20FEF7B1
:102D3000C7FB8A216120FEF7C3FBBF216520FEF798
:102D4000BFFB85E610B5CE488068283000F001FA58
:102D50000121C904081A7BE6CA4800787047F8B513
:102D60000546C74EC748B26900781446002801D00E
:102D7000002005E4280502D02805000D2D1A72B6A2
:102D800001210903C04F0020B84762B60120C004EA
:102D90002146401B283100F0E6F905462046103058
:102DA00000F0D7F90090281A410800980818214629
:102DB000143100F0D8F901460098081A0001000CFF
:102DC000A073000AE07372B60121AF4A0020EA3214
:102DD000904762B672B60121AB4B090300206833FD
:102DE000B269984731210020B268B84762B6012025
:102DF00073E4A348A24B00791B7902091B07092041
:102E00001B0FC01A062300215843072A08D0032AA3
:102E100009D0022A0BD0012A0CD0002A0DD00FE0D5
:102E20004121C94301E03521C943081A07E02321A4
:102E3000C943FAE71721C943F7E7801D404241B271
:102E4000C8B27047F3B5914E914F8DB0054600243E
:102E500032226B4621460320B04768464088A8428C
:102E600006D1684601790E98017001200FB0F0BDBF
:102E7000B84204D068460088001984B2E8E7002010
:102E8000F4E7F3B5814E824F8DB00546002432221F
:102E90006B4621460320B04768464088A84208D1C7
:102EA000241DA1B2012203200E9B00F0A4F80120F2
:102EB000DCE7B84204D068460088001984B2E6E72F
:102EC0000020D3E7F3B5714E714F8DB00546002455
:102ED00032226B4621460220B0476846817842780C
:102EE00008021043A84205D1684641790E98017046
:102EF0000120BBE7B84204D068460078001984B2CC
:102F0000E6E70020B2E75F4910B557314878097805
:102F100000020843800603D5FEF71BFA012097E55F
:102F2000002095E55B4B184710B500F09CF8002891
:102F300004D000F098F80128FBD089E500F093F860
:102F40000028FBD000F08FF80128FBD080E5F0B519
:102F50004B4C0025A46AE678360701D50020F0BD69
:102F600000BF6D1CEDB2642DFAD3254640356E7C52
:102F7000B607FCD400252646C036377947556D1C68
:102F8000EDB2022DF9D346780125F709002F08D0BC
:102F9000F606F60E0E70157042785206D20F1A70B1
:102FA00004E0B3069B0E0B7000231370344B0A78B9
:102FB0009B6A801CC033272A0CD20022C03403E055
:102FC00026798654521CD2B20E789642F8D85D7299
:102FD0000120F0BD5D72C1E770B52F4D0024284E71
:102FE000A847F1680919FF310131641CE4B2C873C4
:102FF000102CF5D370BDFFB5214C0200E06981B003
:103000001E460D4606D0012A06D0022A06D0032A03
:1030100006D009E0001D04E0083002E00C3000E0BA
:10302000103000F096F801464D1972B601273F03A3
:10303000154B39460020A269984762B6A06931460F
:103040004019039A00F054F872B601210E4A00208C
:10305000EA3290470C4B002039466833A269984702
:1030600062B605B0F0BD0648816A0A466032907CBF
:10307000927C603101E0887C8A7C9042FBD1704771
:103080006C3000203431002059530000C928000062
:10309000FFFF000019220000FB5F000030B50B4667
:1030A000014600202022012409E00D46D5409D4222
:1030B00005D31D469540491B2546954040191546A8
:1030C000521E002DF1DC30BD70B5002425460028CD
:1030D00001DA01244042002901DA01254942FFF7C3
:1030E000DDFFAC4200D04042002C00D0494270BD10
:1030F00003460B439B0703D009E008C9121F08C011
:10310000042AFAD203E00B780370401C491C521EBB
:10311000F9D27047D2B201E00270401C491EFBD2C6
:1031200070470022F6E710B513460A4604461946D2
:10313000FFF7F0FF204610BD30B5044600200346DF
:1031400000E05B1C934203D2E05CCD5C401BF8D0F6
:1031500030BD0321001D401E037812021A43491E90
:10316000F9D510467047034603220870000A491C2F
:10317000521EFAD518467047F8B502464A40D40F99
:1031800042004B0052085B089A4202D202460846AF
:1031900011464A0023D0C30D4A00DDB2120EAD1A0B
:1031A000202D35DA49020126490AF6058A19002C34
:1031B00000D0524220214F1B1146B9402A4110181D
:1031C000C20D9A4221D0002C17D0012D08DCDA055F
:1031D000801AD20F8019D207DBB200F09DFAF8BD39
:1031E000DA05801A012340001B06C01880185A42D5
:1031F0008018CA0F1043490007E04908C20711436D
:10320000DA05801A80194008801800F07DFAF8BDB0
:1032100061000122511A001BF7E70122D207514039
:10322000AAE70122D2075040A6E70000F0B5074602
:103230000846584087B0C00F049048000E46590019
:1032400040084908BC1A884105D2384631461E4616
:1032500017460B4602465800400810434CD0300D2C
:10326000039040055900400D490D0590401A029009
:10327000402872DA18030121000B09050843019068
:1032800004980092002805D00199524200208841FC
:1032900000920190029840210A1A0199009800F0CA
:1032A000FFF905460C466B4607CB00F01AFAC01929
:1032B0007141039A0E0D0023D71756401A467A40E3
:1032C000164344D0049A002A2DD0029A012A039A68
:1032D00015DC1205C01A914101263605001C71410A
:1032E000D20F059ED2070093019202962A462346EA
:1032F00000F058FA07B0F0BD38463146FAE7160537
:10330000224A0F46B218C01AB74101210905001C14
:103310004F4100187F41114618187941E20F1043C0
:103320006D19644113E0E2076D0815436408C20794
:103330001443039A01261205C01A91413605001C58
:103340007141CE07400830434908C01851412A4610
:10335000234600F01AFACDE7FFE704980122400067
:10336000C117121A00238B4104983146C417381A2A
:10337000A141EEE730B40124E407634030BC55E7D7
:1033800030B40124E407614030BC4FE70000E0FFA7
:10339000F0B51FB488B00B990998002448400999EA
:1033A000C00F490049080991C0070B9900904900D6
:1033B00049080B9109990898A64608431CD00B9917
:1033C0000A98084318D0099801244000420D48008B
:1033D000410D099824050003000B204309900B9828
:1033E0000003000B20430B9050181C49401800228A
:1033F00001901446104605E0002001460DB0F0BDD6
:10340000032801DA034600E003239C46C11A0AAEF2
:103410000AE05F0008ADED5B4F00F75B7D430027DE
:10342000AA187C41491C5B1E6145F2DD410004ABDA
:103430005A522104120C0A43240C401C0828DFDBDA
:10344000019802900099704601910090059B049AA2
:103450000799069800F0A6F9D0E700000DFCFFFFE1
:10346000F0B50C465C4085B0E40FE40703944C00D3
:1034700000266408590094464908024602962243F1
:1034800021D062460A431ED06200570D4A000E0347
:103490002303550D012402462C492405781B1B0BE0
:1034A000360B401823432643614600901C46501AB1
:1034B000B44103D30098401C009002E09218009899
:1034C0005B41002803DA0020014605B0F0BD002072
:1034D000012109050746864611E064461D46141B76
:1034E000B54106D36546521BB341744607430C43AE
:1034F000A646CD0740084908284392185B41054677
:103500000D43EAD11046184313D060461946504087
:103510007140084306D06046101AB34106D201221A
:10352000002306E000220123DB0702E00122D24350
:103530005310009874460105381C6141029C039D9C
:103540000019694100F021F9BFE70000FD03000008
:1035500010B500229623114600F0DEF810BD0000E1
:103560000EB5C217C10F5040CA0740180021054BC5
:103570000293019200910A460B4600F013F903B042
:1035800000BD0000330400000EB505490291002182
:1035900000910A460B46019100F004F903B000BD0A
:1035A000330400004A0009030123090B1B051943DA
:1035B000094B10B5520D9A4201DA002010BD064B9E
:1035C00034339A4203DC9A1A00F07AF810BD0349AA
:1035D0005118884010BD0000FF030000CDFBFFFF25
:1035E000C20FD207400040080BD0C10D0723DB01FA
:1035F000C91840020905400A1143C2084007114397
:103600007047002001467047CB0FDB07490010B51B
:10361000490802460A4307D00A0D07240903E401BA
:10362000090B121B002A01DC002010BDC900440F49
:103630000C43C100E018D205801800F065F810BDF9
:10364000F0B51FB40646002082B005464024019123
:1036500000901BE0019922460F46304600F030F8FA
:10366000049A059B801A994110D3104619462246A8
:1036700000F016F8361A8F410197224601200021EA
:10368000009F00F00DF838184D4100902046641E50
:103690000028DFDC019B00982946324607B0F0BDC8
:1036A00010B5202A04DB0146203A9140002010BDCD
:1036B000914020239C1A0346E3401943904010BDDB
:1036C00010B5202A04DB0846203AD040002110BD66
:1036D0000B46D340D0402024A21A914008431946FB
:1036E00010BD10B5202A06DBCB170846203A104142
:1036F000C1170B4306E00B461341D0402024A21A09
:1037000091400843194610BD002904DA401C4900C5
:1037100001D140084000704770B40024050C05D169
:103720001024000402D1002921D01124050E01D15A
:1037300000020834050F01D10001241D850F01D1BD
:103740008000A41C002801DB4000641C002908D074
:1037500020252E1B0D46F540A14000D00121294314
:10376000084301061B1B000ADB1D02D5002070BCAC
:103770007047DB05181880180029F8DA401C49004A
:10378000F5D170BC40084000704710B5002B08DA36
:103790000024401C614192185B411A4301D140084A
:1037A000400010BDF0B51FB482B005460C0003D038
:1037B000084600F0A1F802E000F09EF82030024632
:1037C000009021462846FFF76BFF049B059A0446AC
:1037D0000F4618431143084314D0184610431BD01A
:1037E000009840210A1A18460599FFF769FF054617
:1037F0000E46009A05990498FFF752FF084305D03A
:10380000012004E02046394607B0F0BD0020C11772
:1038100005430E432C43374300990E986305401A25
:103820007905E40A00220C43FD0A0A3002D5002083
:103830000146E9E70105101969410C9C0D9D00192D
:103840006941FFF7A2FFDFE74A0009030123090BE3
:103850001B0519430A4B10B5520D9A4202DA00209B
:10386000014610BD064B34339A4203DC9A1AFFF727
:1038700027FF10BD034BD218FFF712FF10BD000049
:10388000FF030000CDFBFFFF10B5002904DB01247E
:10389000E40740428C412146002B04DB1C460123F7
:1038A000DB075242A341994200D1904210BD000073
:1038B000064C0125064E05E0E36807CC2B430C3C83
:1038C00098471034B442F7D3FCF7FEFBFC410010DC
:1038D0001C42001037B514460846064B6A4621467E
:1038E00000F0EAF804466946002000F081FC20461A
:1038F0003EBD0000F14100102021020C01D010213A
:103900001046020A01D010460839020901D01046BB
:10391000091F820801D01046891E420801D0881E66
:103920007047081A704730B47446641E2578641CCA
:10393000AB4200D21D46635D5B00E31830BC184704
:1039400002E008C8121F08C1002AFAD17047704768
:10395000002001E001C1121F002AFBD170470000C6
:10396000F0B51FB484B007980699020D014314D036
:103970004A484B491018484305140F9801280E98DF
:103980001CD0281A401C0024464E4749009401913F
:103990000290002814DA474227E00F98012443A33D
:1039A000012808D0002104980F9A84600360C26047
:1039B000416009B0F0BD0E98C143F4E74042E2E730
:1039C000074612E0F80707D02246334601990098CF
:1039D000FFF7DEFC0191009022463346104619465F
:1039E000FFF7D6FC04460E467F10002FEAD102985E
:1039F000019B0028009A0799069802DAFFF7C8FC95
:103A000001E0FFF72DFD04460E460022284BFFF78C
:103A10003BFF03D80020C043014607E00022254BAE
:103A200020463146FFF702FCFFF70EFF102409E0A5
:103A3000002C0ADB0A220023FFF702FE059B30322E
:103A40001A55641E02460A43F2D11122641C059BDA
:103A5000121B1C190F9B012B03D0012308430ED10D
:103A60000AE0084304D011200E9000200F9084E754
:103A70000E98151A6D1E0BE00E98824202DD00238F
:103A80006D1C03E0824201DA00236D1E002BEED094
:103A900004980F998260C16030C08AE701FCFFFF83
:103AA000104D0000000024400000F03F30000000F6
:103AB0000000F0430000E03FFFB597B00646002548
:103AC00018E2252877D100242746FD49049400E018
:103AD0000443761C32780120203A90400842F7D106
:103AE00030782A280ED00222307801463039092950
:103AF00016D804990A235943303940181443761CC8
:103B00000490F1E7189802C804911890002904DA8B
:103B10000120400304434842049002200443761CE1
:103B200030782E2814D1042004437078761C2A287B
:103B300009D11898761C80C8189009E00A214F43D3
:103B4000303FC719761C3078014630390929F5D93C
:103B500030786C2810D006DC4C281AD068280ED09B
:103B60006A2817D104E0742813D07A2812D110E003
:103B70000120400504430CE00121090501E0032177
:103B800009050C437178814203D1012000052418F6
:103B9000761C761C3078119066280BD013DC5828E0
:103BA0007DD009DC00287BD04528F6D04628F4D00B
:103BB00047281AD1A5E118E0632835D0642870D0D1
:103BC000652812D19DE170286CD008DC6728F1D0FF
:103BD00069287BD06E280DD06F2806D1BAE07328F3
:103BE0002ED0752871D0782859D01A9A19999047F3
:103BF0006D1C7EE16002400F022809D003280DD021
:103C00000428189801680DD00D60001D189070E10F
:103C10001898EA1701680D604A60F6E7189801687D
:103C20000D80F2E70D70F0E718986A46017811727E
:103C3000001D18900020507202A80090012005E09D
:103C4000189802C8189000200091C04361070DD554
:103C5000002101E00199491C0191B94212DA814227
:103C6000F8DB009A515C0029F4D10BE0002101E05F
:103C70000199491C01918142FADB019A0099895C02
:103C80000029F5D1019904981A9B471A2146384614
:103C9000199A00F097FA0199401945180BE04FE086
:103CA0002CE113E04EE0009800990078491C009147
:103CB0001A9A199990470198401E0190401CF2D120
:103CC000214638461A9B199A10E137E00A20002154
:103CD000009001916002410F022907D0189A01CA91
:103CE0001892C2179446032908D00AE01898C01DFC
:103CF000C108C90005C91891944607E000B2C2176F
:103D00009446042902D140B2C1178C460022614674
:103D1000944506DA0A460021404291418C462D2105
:103D200002E0210504D52B216A461173012103E02D
:103D3000E10701D02021F7E7029155E00A200AE0CF
:103D4000102008E01020009000210420044301917D
:103D5000082703E008200021019100906002410F34
:103D6000022907D0189A01CA189200229446032902
:103D700008D008E01898C01DC108C90005C91891ED
:103D8000944603E080B2042900D1C0B20021029120
:103D9000210729D51199702906D0009A1021019B7D
:103DA0004A401A4305D00EE040216A4611730121B2
:103DB00008E06146014306D030216A46117311992B
:103DC000517302210291009A0821019B4A401A4333
:103DD0000AD16146014301D1610705D530216A4608
:103DE000117301217F1E02911199582904D035A128
:103DF0000E910DA90D910DE037A1F9E76146019BE8
:103E0000009AFFF71DFC0E9B8C469B5C0D9A521E80
:103E10000D92137061460143F0D10D9805A9081A5F
:103E200020300190600703D501200004844300E0A6
:103E300001270198874201DD381A00E0002001992E
:103E400000904118029809180498401A0490E00361
:103E500006D421461A9B199A049800F0B3F9451923
:103E6000002706E003A81A9AC05D199990476D1CB7
:103E70007F1C02988742F5DBE0030CD521461A9B94
:103E8000199A049800F09EF9451904E01A9A302016
:103E9000199990476D1C0099481E00900029F5DC87
:103EA00008E00D980D990078491C0D911A9A1999FE
:103EB00090476D1C0199481E01900029F1DC63E1D7
:103EC00009280100303132333435363738396162F0
:103ED00063646566000000003031323334353637B4
:103EE00038394142434445460000000000F05AF989
:103EF0004519761C3078002800D0E2E528461BB032
:103F0000F0BD600700D406271898C01DC108C9007D
:103F100048680A680831C30FDB071891190001D0FF
:103F20009CA108E0210501D59BA104E0E10701D097
:103F30009AA100E09AA1430011985B0810916528AE
:103F40000CD006DC452809D046281DD0472841D191
:103F500041E0662818D067283CD13CE00021112FB1
:103F600001DB112000E0781C0191009008A911A844
:103F7000FFF7F6FC139905910021119A15927F1C09
:103F800012980197009150E00120C0070390012092
:103F9000019008A9009711A8FFF7E2FC139A149961
:103FA00005920022119B009212981593059A019296
:103FB000002901D0104602E0791C40180190381AFF
:103FC00001D5019804E04042401E0090781C019009
:103FD000C01B029043E0012F00DA01270021112FBE
:103FE00001DD112000E038460191009008A911A8D8
:103FF000FFF7B6FC13990591119A002112981592BA
:104000000091019721070CD40599B94201DB019970
:1040100000E00191012904DD159A491E515C302907
:1040200006D0B84201DA011D05DA0121029115E03E
:104030000199491EEDE7002805DC0099411800911F
:104040000199091A03E0019A411C914200DD019196
:104050000099401A401C02900120C00703902007DD
:1040600006D402990198814202DB0020C0430290ED
:1040700000206946C87707AF012103980337C907B5
:10408000884224D0022011902B20129003980028FF
:104090000CDA404203902D20129007E00A21039889
:1040A000FEF7FCFF30317F1E039039701199481ED6
:1040B00011900029F2DC03980028EFD1791E1298A4
:1040C00008703078202108404530BF1E387006A89F
:1040D000C01BC01D039010980078002800D001205C
:1040E000019941180298C0170918039809180498F3
:1040F000401A401E0490E00306D421461A9B199AE8
:10410000049800F05FF8451910980078002803D053
:104110001A9A199990476D1CE00324D521461A9BE1
:10412000199A049800F04EF845191CE000980028F0
:1041300007DB00990598884203DD1598405C1999C2
:1041400001E0199930201A9A904700986D1C401C84
:1041500000900298401E0290002804D11A9A2E2046
:10416000199990476D1C0199481E01900029DDDCCA
:1041700005E038781A9A7F1C199990476D1C0399AD
:10418000481E03900029F4DC21461A9B199A0498D2
:10419000ACE600002D0000002B0000002000000015
:1041A00000000000F8B5044600251E4617468804A6
:1041B00004D405E039462020B0476D1C641EF9D5B3
:1041C0002846F8BDFFB50446002581B01E46C80349
:1041D00001D5302700E02027880404D505E03846C3
:1041E0000399B0476D1C641EF9D5284605B0F0BD93
:1041F0000A68531C0B601070704700001C420010CE
:1042000000300020A800000040390010C442001017
:10421000A8300020F8040000503900100000000011
:10422000601000502410005014100050181000505E
:104230001000004000000000000102030405060712
:1042400008090A1112131415161718191A1B1E1F24
:1042500000010203040506090A07081115121617C2
:10426000181319141A1B1E1F00100050C003015010
:1042700000000000D0000150E00001500003015098
:10428000000000000024F400000400000000000012
:10429000ED050020DF0000208F050020C60500206E
:1042A0004A0700201E060020140000209010005035
:1042B000000002400010005060100050000000009C
:0442C00000000000FA
:04000005100000C126
:00000001FF
