:020000041000EA
:10000000A85E00201D190010251900101D08001001
:1000100000000000000000000000000000000000E0
:10002000000000000000000000000000291900107E
:1000300000000000000000002B1900102D19001016
:10004000000000002F1900108B3B00102F1900102A
:100050002F1900102F190010CF120010F9120010E4
:100060006B34001017350010F73500102F190010F1
:100070005F1100102F1900102F1900102F190010F8
:100080002F1900102F1900102F1900102F19001010
:100090002F1900102F1900102F1900102F19001000
:1000A0000000000000000000000000000000000050
:1000B0000000000000000000000000000000000040
:1000C0000348854604F01CF9004800470507001066
:1000D000A85E0020F8B50025FB4800950068FF21C8
:1000E00020302F462E462C46017041709F22827090
:1000F000CF22C2700171284601220F280DD004DCE6
:10010000022825D0082804D122E0102805D015287F
:1001100023D0114681400D430C43401CC0B220281F
:10012000EBD3384600F030FF3946002000F0F8FEEF
:100130003846B04300F09DFF304600F0B1FF28463E
:10014000009900F03CFF2146002000F0B5FEF8BD0C
:10015000114681400F430E43DFE711468140009B6B
:100160000D430C4319430091D7E770B586B00020CA
:1001700069460872072048741920800148821E20B1
:10018000888202A802F0C4FA684602F0AFFA694613
:10019000CE484E78C6728D780573CC7844730B794F
:1001A00083734A79C273897901741B300671457172
:1001B0008471C37102724172024614231B211B38E1
:1001C00002F0ACFAC2490120087506B070BD0EB548
:1001D000002802D001280FD106E010206946C8800F
:1001E000C8204881002006E050206946C8804B2086
:1001F000C00048810A200881C02069460871042097
:10020000487101A802F07DFE6946488900900B897B
:10021000CA88B0A1002001F0DAFA0EBDAB4910B5D2
:100220000C398878401CC0B28870032808D300209D
:1002300048700120FFF7CBFFFF20013003F051F899
:1002400010BD3EB5A14C0C3CE278D2070ED0012483
:100250006A461480032555801F2595801481034626
:100260000A466946204602F006FC3EBD00203EBD1F
:10027000964A10B50C3A9088401C81B2A1489180F2
:1002800009C8984205D1032903D90020507002F013
:1002900096FF10BDF0B59B4E85B035687468A542D9
:1002A00031D08A4F0C3F7878002807D10120787030
:1002B0000020B8809449A32002F097FF01239B02FD
:1002C000A54201D32D1B01E0281BC518142D1CD3FA
:1002D0001F467E4900200C3988808C4B69461A5D88
:1002E000641C0A54BC4200D30024401CC0B2142831
:1002F000F5D314216846FFF7A4FF002803D0143D6E
:100300007460142DE5D205B0F0BD002DFBD0B88887
:100310000328F8D30020694608E07C4A125D641C7B
:100320000A549C4200D30024401CC0B2A842F4D31B
:10033000E9B26846FFF785FF002800D0746000200E
:10034000B880E0E7F0B504468DB0401C03F0A9FC8E
:10035000C11FFF39FA3916D0FF220132002790421F
:1003600033D10822611D03A803F06EFC6846C089E2
:1003700015214902884217D165A003C80191009058
:10038000082069461EE021460E221531684603F01A
:100390005BFC1E22611D04A803F056FC04AD0FCDCA
:1003A00000F041FA0DB0F0BD5B498842FAD16846D1
:1003B00007700197694601A8029700F065FC68463E
:1003C00001A9007802F048FBECE7404E01210C3E09
:1003D000022818D04B4D042821D04A03641C9042B7
:1003E00039D160792279000210430128DAD1607A8C
:1003F000237A020230461A43C078012A22D0884369
:10040000F07046A123E03170B770104602F0A2FFF1
:100410000623A21D47A1002001F0E5F9C2E7627999
:1004200048A1002001F0D3F9F770377068682860A0
:100430000120400202F055FFFFF797FE02F082FA1A
:1004400047A104E00843F07068684AA128600020D2
:1004500001F0BDF9A6E70121C903884224D16079E2
:10046000217900020843030003F073FF0605141608
:10047000181A1C0496E745A1002001F0A8F9684667
:1004800002F08DFA68464388028846A1002001F0F8
:100490009EF987E74AA1DAE74FA1D8E754A1D6E74A
:1004A00059A1D4E75DA1D2E701210904884209D10D
:1004B00001A802F074FA6846008900906846C38873
:1004C0008288B5E0B9E00000583000200C300020F0
:1004D00000000240736D6172745F706172616D73D0
:1004E00020696E74657276616C3A2578206C61744F
:1004F000656E63793A2578207376746F3A25780DA6
:100500000A00000024350020710200102431002070
:100510005359445F5541525401FF00005541525414
:10052000206E6F746966792044697361626C6564DA
:10053000210D0A00436F6E6E65637465642061640B
:1005400064723A00446973636F6E6E6563746564C8
:100550002C7265736F6E3A3078253032780D0A0050
:1005600073746172742061647620402064697363DF
:10057000210D0A0055415254206E6F74696679202E
:10058000456E61626C6564210D0A000075706461DE
:100590007465207273702041434345505445440DA7
:1005A0000A000000696E74657276616C3A257820E5
:1005B0006C6174656E63793A25780D0A000000005D
:1005C000757064617465207273702052454A4543AA
:1005D0005445440D0A000000757064617465207212
:1005E00073702054494D45524F55540D0A00000078
:1005F0007570646174652072737020535543434570
:1006000045440D0A00000000456E61626C65206C77
:100610006174656E63790D0A0000000044697361BE
:10062000626C65206C6174656E63790D0A00000070
:10063000BDA1002001F0CBF8B4E60128FCD102F006
:1006400081F9AFE6F8B5C04C207800281BD0002611
:10065000BE4D012818D001277F0202281ED0032892
:1006600011D12670384602F03CFEB9A1002001F0FD
:10067000AEF87D20C00000F021FAB9A1002001F001
:10068000A6F802F0D7FAF8BD00F034FAB9A10020BC
:1006900001F09DF8022020702E70F8BD2878401CD3
:1006A000C0B228702028F8D9B5A1002001F08FF839
:1006B000384602F016FEF8BD10B5B448182100689F
:1006C00041180A7810464A78120210438A78C9788D
:1006D0001204104309060843800212D5ACA1002081
:1006E00001F075F802F07CFC002805D1ADA101F005
:1006F0006EF8012001F073FCAE488022C1781143EE
:10070000C17010BD72B600F0D4F8002002F026FAD5
:1007100001F042FC002001F0E1FCFF20F53002F086
:1007200067FC01F0ECFC00F0ECFEA3A3A5A2A8A1DD
:10073000002001F04CF8AC49022002F064FE00F009
:10074000FDFDAA49012003F00CFA00F015FEFFF7A9
:10075000C1FC00F043FD0120A549400500F0C7FCA5
:10076000A44900200860486002F0ECF862B6764FB9
:10077000A14DA24E8F4C02F04CFB0120400500F031
:10078000A6FC002812D1E0789DA14006400EE07042
:10079000002001F01CF802F023FC012806D19CA1E6
:1007A000002001F014F8002001F019FC00F067F8B7
:1007B0003878012801D1FFF745FF2868002814D0B8
:1007C000800509D5FFF73EFF0120400202F074FDCD
:1007D00093A1002000F0FBFF2888C00505D5FFF796
:1007E0001DFDFF20013002F067FD306800280AD0AF
:1007F000400708D501F083FC8DA1002000F0E7FF41
:10080000042003F025F8E078C00701D0FFF742FD8F
:10081000E0780006AFD402F0DFF9ACE788A1002051
:1008200000F0D5FFFEE70FB4F8B569464A8B897F23
:1008300006A8022A09D0874B9A4202D1C01D00F0B7
:1008400070F9F8BC08BC04B018476A4B17241A6842
:100850006243814CA154012207E08518AE791D68DE
:1008600017277D432D19AE54521C9142F5D21868BA
:10087000401C18603228E4D300201860E1E7F8B586
:100880005C4C25686068A84212D0734E00276068EF
:10089000A8420DD017214843315C8019401C00F05C
:1008A000FCF86068401C60603228F0D36760EEE7B7
:1008B000F8BD10B588B001F0C2FE012002F075F855
:1008C0003C48083002F0C2F803216A461173002444
:1008D0005473907BFB228843401C10406A469073FF
:1008E0001020D0731474517403A802F04CF8C02087
:1008F00005905A48069005A802F067F8002002F01B
:10090000ABF9FFF732FC6A461470D4701471012001
:1009100050709070D11D400503F0CDF9684602F08B
:100920002DF908B010BD0000434F4E4E5F555044A6
:100930004154455F434F4D503A2025642C20256497
:100940002C2025640D0A00003C3000203D300020A2
:100950004F54412066696E6973680D0A00000000FB
:100960005374617274205265736574203130303075
:10097000730D0A004F54412073746172740D0A00A4
:100980004F5441206661696C650D0A006830002093
:1009900057414B4555505F50494E20646F776E0D5F
:1009A0000A00000055617274456E287472756529DD
:1009B0000D0A00000030002031393A30333A333527
:1009C000000000004A756E2032312032303139008B
:1009D000537964383831315F554152542025733A88
:1009E00025730D0A00000000DC3900200C3A0020BD
:1009F000B9060010AC390020EC3000200431002092
:100A000057414B4555505F50494E2055500D0A00F7
:100A100055617274456E2866616C7365290D0A0014
:100A20004556545F31535F4F54410D0A000000009A
:100A30005254434556545F313835530D0A00000077
:100A40004552523A20486172644661756C74210DBA
:100A50000A00000001FF00002C35002045030010B3
:100A6000FEB501A9684600F018FC002001266A4680
:100A7000104901AC104DB60213780BE00F68225CF0
:100A8000EA550A68521C0A60B24201D300220A6089
:100A9000401CC0B29842F1D3FEBD70B50D4606466B
:100AA000002404E0305D00F0EDFB641CE4B2AC42D5
:100AB000F8D370BD24350020243100200022064BDD
:100AC00006E00021491C89B29942FBD3521C92B224
:100AD0008242F6D3704700008C0A000010B5AA4B82
:100AE0000E241B691C70541C5C709870D81C03F099
:100AF000ABF810BD08B502F008F90020694608708F
:100B000001221620FFF7EAFF08BD00229E490028B7
:100B100001D00A704A704A80CA808A800A81CA60FD
:100B20007047FEB5984C0E4661880025002905D017
:100B30002178002902D0657000216DE0017811391B
:100B40000B0003F006FC06111C214B46041B002081
:100B5000FFF73DFB8DA1002000F039FE012040028F
:100B600002F0F8FB012007E00020FFF730FB8BA12B
:100B7000002000F02CFE04202070E560FEBD801CEB
:100B800000F094F805201EE0871CC01C03F089F8D3
:100B900001463A78864802F033FA0646781C03F09C
:100BA00080F8034638780090324682A1002000F099
:100BB0000EFE002E09D068460571012201A91820F9
:100BC000FFF78CFF06202070FEBD012069460871EA
:100BD000F3E7801C00F0A0F80320F4E7C1798279E4
:100BE0000F0217436780417A027A0E021643E680AD
:100BF000801C03F056F8E060A580258102463B4644
:100C000072A10020009600F0E2FDFEBD425C238947
:100C1000D218491C228189B2B142F7D381070AD088
:100C200001463246764803F00FF8A188E068744A1E
:100C30004018314605E0A288E1688B18024631462B
:100C4000184602F0DFF8A088801981B2A180608880
:100C50008142DAD32289E088824204D1002000F068
:100C60004CF868A103E0012000F047F869A10020DA
:100C700000F0ADFDE38822896AA1002000F0A7FD05
:100C80000020FFF742FFFEBD70B53F4C0D462169C5
:100C90004A7821461431921C02F0D6FF2069407830
:100CA000801C287000206061A06170BD38B50446CA
:100CB00040782178000208430121090388421BD8AB
:100CC000A27882188A4201D9091AA1703849A278FB
:100CD0004018E11C02F0B8FF6078217802020A4354
:100CE000A3785BA1002000F072FD00206946087027
:100CF00001221720FFF7F2FE38BD1CB56B46597074
:100D0000090A9970DA70110A19711870052269467A
:100D10001420FFF7E3FE1CBD38B5044638482030E8
:100D20000179002905D02038006A354A400102F0D7
:100D300069F8204602F0B5FF617922790B0213436E
:100D400002464AA1002000F042FD204602F0A9FF21
:100D5000617922790B02134302460021084602F012
:100D600053F80446024647A1002000F030FD002C55
:100D700007D000206946087001221820FFF7AEFE58
:100D800038BD0120F6E700003C300020434D445FB1
:100D900046575F45524153450D0A0000344B5345B9
:100DA0005454494E475F4552415345200D0A0000B7
:100DB0004A070020436F64655570646174653D2582
:100DC000642025782025780D0A000000434D445FFB
:100DD00046575F57524954455F5354415254206F10
:100DE00066667365743A25782C73697A653A257856
:100DF00020636865636B73756D3A25780D0A000092
:100E0000B439002073656374696F6E204F4B2120E5
:100E10000000000073656374696F6E206661696C21
:100E2000652120006F74615F726563656976655F37
:100E3000636865636B3A2578206F74615F736563DF
:100E400074696F6E5F636865636B3A25780D0A009D
:100E5000636D64344B53455454494E47577269741B
:100E6000652025782025780D0A0000006F74612028
:100E7000737A3A257820636865636B73756D3A25DC
:100E800078200000436F6465557064617465763244
:100E9000303D25640D0A000070B5CD4B00221C6862
:100EA00001252B469340034202D0A154984302D01F
:100EB000521C202AF5D370BDF0B5C64C221D9446B5
:100EC00000282AD0012827D1C14B3033002B23D052
:100ED000002001228240114207D01F5C01252668B4
:100EE000BD402E432660914302D0401C1828F0D309
:100EF000182001252A4682402B46114209D064461B
:100F000006462478183EB3401C4363461C70914348
:100F100002D0401C2028EDD3F0BDAD4B1833D5E7EF
:100F2000F0B5AC4C221D944600282AD0012827D1C8
:100F3000A74B3033002B23D00020012282401142E6
:100F400007D01F5C01252668BD40AE432660914353
:100F500002D0401C1828F0D3182001252A468240D0
:100F60002B46114209D0644626780446183CA3401B
:100F70009E4363461E70914302D0401C2028EDD34F
:100F8000F0BD934B1833D5E710B504460021FFF7A9
:100F900083FF8F4842681378194653781B02194320
:100FA0009378D0781B04194300060143A1431170C4
:100FB000080A5070080C9070080ED07010BD70B503
:100FC0000D4604460021FFF767FF814E70680378E5
:100FD0001A4643781B021A438378C1781B041A43CC
:100FE00009060A4322430270110A4170110C8170F4
:100FF000110EC170F1680B781A464B781B021A4328
:101000008B78C8781B041A430006024322430A70F7
:10101000100A4870100C8870100EC87008200A184A
:101020001378184653781B0218439378D2781B0420
:10103000184312061043A0430872020A4A72020CB7
:101040008A72000EC87208200A181378184653785E
:101050001B0218439378D2781B04184312061043DE
:1010600028430872020A4A72020C8A72000EC87281
:1010700070BD10B556498A68147821465478240208
:1010800021439478D378240421431B061943014358
:101090001170080A5070080C9070080ED07010BDC6
:1010A00010B54B498A6814782146547824022143AC
:1010B0009478D378240421431B061943814311708B
:1010C000080A5070080C9070080ED07010BD40498E
:1010D000C9680A1D1378194653781B02194393787F
:1010E000D2781B041943120611430840704770B5AB
:1010F000374C182223699D182E7832466E783602B6
:101100003243AE78ED78360432432D062A4302404E
:101110001A70150A5D70150C9D70120EDA7010228F
:101120009D182E7832466E7836023243AE78ED78CE
:10113000360432432D062A4382431A74100A587427
:10114000100C9874100ED8742033187840084000A2
:1011500018706161012020490003086070BD10B55E
:101160001B4C1820236919180A7810464A78120275
:1011700010438A78C97812041043090608431021E5
:101180005A181378194653781B0219439378D2786A
:101190001B04194312061143884318D060690028C4
:1011A00000D08047216918200A1813781846537810
:1011B0001B0218439378D2781B041843120610437D
:1011C0000870020A4A70020C8A70000EC87010BDC6
:1011D000583000208010005000E100E070B54D480C
:1011E0000068C17B89098901C91CC173017C890917
:1011F0008901091D017420308178DF22114081703E
:101200008378BF210B4083704348006883785B0874
:101210005B00837003781B091B010833037003789C
:101220005B065B0E037003780B400370C3781024D9
:101230002343C3708378042423438370847820235A
:101240001C4384708578EF2425408570857880263E
:101250003543857085780D40857001782140017097
:101260000178114001708178022211438170C178A8
:101270001943C170294A4021116081780822114325
:10128000817070BD24490968487008788006FCD5D3
:101290000878DF2210400870704738B500226C468D
:1012A00022701D4B1B680DE01C798C546D46521C3E
:1012B0002C78D2B2641C2C702C78641C2C702C7886
:1012C000641C2C70DC78E407EED0027038BD10B5D9
:1012D000114C20680178C90605D50178EF2211402C
:1012E0000170FFF7BDFB20688178890703D58178FD
:1012F00002221143817010BD10B507484068017883
:10130000C90605D50178EF2211400170FFF7A8FB4F
:1013100010BD000058300020A030002000E100E0A7
:101320000F48FF22016801321143016070470C48E9
:1013300001220168520211430160704710B57D24FB
:101340002401FF200023074A2146013001F01AFF43
:1013500001200023044A2146400201F013FF10BD82
:10136000EC300020211300102F1300100848042235
:10137000016811430160704710B50023054AB92187
:10138000042002F0F6F9042002F09FFA10BD0000DC
:10139000043100206D13001010B5604C0320206153
:1013A00060615FA0A0616148E0610120400300210D
:1013B000A162206261625AA0E16220665C486066B8
:1013C00021671020E166A06661675AA1E01D02F066
:1013D0005FFC59A1204602F05BFC2020A07110BDEB
:1013E000F7B5054682B000200090EC6817462869E2
:1013F000A04201D9061B02E0A968201A0E1AA868AB
:10140000761E001BB04200D80646BE4200D33E46C0
:10141000686832460019039902F016FC0098BF1B59
:10142000801900900398A41980190390A868A0421D
:1014300000D10024EC60002FD9D1009805B0F0BD98
:10144000F7B50446C7688068E168C51B6068164642
:101450004018B54205D9019902F0F6FBB819E060D1
:10146000FEBD2A46019902F0EFFB0198761B411957
:101470003246606802F0E8FBE660FEBD70B50E46DD
:1014800018214843254914464518E86A18350028AC
:1014900004D001280FD0022805D113E0284600F01F
:1014A00031F8A04201D2002411E0224631462846FC
:1014B000FFF7C6FF0BE0284600F024F8A042F4D264
:1014C0000446F2E731462846FFF78AFF04462046E5
:1014D00070BDF8B507461148154600780E4600283D
:1014E00001D1FFF759FFEFF31084012080F310883A
:1014F0002A4631463846FFF7C1FFE1B281F3108832
:10150000F8BD49E70269C1688A4203D88068401A79
:10151000801800E0501A401E70470000007F002035
:101520005465726D696E616C00000000243A002001
:10153000245A002052545400534547474552000056
:1015400010B5044680686368421C934205D3236843
:101550001954A260E068401CE060A26860688242A2
:1015600009D121682069FFF7B4FFA168884203D040
:101570000020C043E06010BD0020A06010BDFFB59A
:1015800081B001261F4635460A9C029802E002F00F
:1015900031FB6D1C03998842F9D2AF4200D93D4618
:1015A0000B98C00718D1002C16D00B98800701D5D6
:1015B000002F02D0202000900CE03020FBE7641EBA
:1015C00000990198FFF7BCFF0198C06800283DDB37
:1015D000002C01D0A542F2D30198C068002835DB69
:1015E000012F01D97F1E06E03146029802F002FB6E
:1015F0000399884202D303984643F1E7C14F31462D
:10160000029802F0F7FA0146029A7143511A0291C8
:10161000395C0198FFF794FF0198C068002805DB4A
:101620003046039902F0E6FA0600E8D10B98C007AD
:101630000CD0002C0AD0A54208D22021641E0198AB
:10164000FFF77EFF0198C0680028F2DA05B0F0BD10
:10165000F7B598B007A802904020039000200C46F0
:101660000490189915460826069105902178641C67
:10167000002970D0252907D002A8FFF761FF05983F
:101680000028F3DA1BB0F0BD012200201346022728
:10169000217823291BD02B2916D02D2902D03029BF
:1016A00006D101E0184300E03843641C002AEFD162
:1016B000002122781346303B0A2B0AD20A235943D1
:1016C00089183039641CF4E704210843EDE73043FE
:1016D000EBE70023D7B22E2F0AD1641C22781746DD
:1016E000303F0A2F04D20A277B439B18303BF4E794
:1016F0006C2A0DD0682A0BD0702A48D00BDC252A22
:101700004FD0582A28D0632A0CD0642A4DD10EE03D
:101710006278641CECE7732A2AD0752A13D0782AE1
:1017200043D119E02868011D296001783AE02A6850
:10173000171D2F601768009101900A22394602A8F0
:1017400000F07BF831E02A68171D2F6017680A2225
:101750000091019007E02AE02A68171D2F601768A2
:10176000102200910190394602A8FFF708FF1CE003
:101770002868011D2960076839787F1C002914D06A
:1017800002A8FFF7DDFE05980028F5DA0DE02868CD
:101790000823011D29600168002010220096019095
:1017A000E2E7252102A8FFF7CBFE641C67E70028CB
:1017B00000DC67E70498002804D0024607A91898BF
:1017C000FFF787FE04990598401805905AE70FB473
:1017D00008B504A900916A460399FFF739FF01B0E3
:1017E00008BC04B01847FFB5002481B01D4616465A
:1017F000002902D00198FFF7EAFF01277F0713E0D5
:10180000600704D1A2B240A10198FFF7E0FF325D6A
:101810003FA10198FFF7DBFF6007F84203D13EA12B
:101820000198FFF7D4FF641CAC42E9DB600703D0EA
:1018300039A10198FFF7CBFF08E7FFB583B00E464B
:1018400070420D9F0C9C0090002900DB084601258A
:1018500002E002F0E5F96D1C05998842F9DA069874
:10186000A84200D90546002C04D0002E01DB7807E1
:1018700000D5641EB80702D50698002810D0F807D6
:101880000ED1002C0CD0A5420AD22021641E039850
:10189000FFF756FE0398C0680028F2DA07B0F0BDE3
:1018A0000398C0680028F9DB002E02DA2D21009E83
:1018B00002E0780707D52B210398FFF741FE039834
:1018C000C0680028EADBB807800F022810D106980C
:1018D00000280DD1002C0BD0A54209D23021641E66
:1018E0000398FFF72DFE0398C0680028F2DAD5E7C9
:1018F000019700943146069B059A0398FFF73FFE37
:10190000CCE700008A4300105B253034785D20006E
:1019100025303278200000000D0A0000044880477E
:1019200004480047FEE7FEE7FEE7FEE7FEE7FEE7C6
:1019300039190010C10000100249014808607047C1
:101940000024F400AC300020F1B5FA488047074687
:10195000F94880470646F74C0120183CA047F64D51
:1019600000200C35A847F549009888473046A8471D
:101970003846A047F8BDF0B5F14DF248A96885B0EA
:101980000818044602F08DF92146401C02F093F934
:101990000024EB4801258668EA480C383118039189
:1019A000487C097C00020843A540284202903BD0B5
:1019B0000B2060438119E348009109300818019019
:1019C00002F06FF90746DF48301802F06AF98742E3
:1019D0002AD10F21009889014018007D00280CD0E1
:1019E000D84A00990D3A8A18517D127D0902114397
:1019F0007818019902F05FF905E002980399A8436D
:101A00000874000A4874CF4800990D30081802F095
:101A100048F9002808D0022D19D0042D17D0082D20
:101A200015D0102D1AD08047641CE4B20A2CB0D314
:101A3000C3488168C3480C380918487C097C0002F7
:101A40000843800501D1C048804705B0F0BDBF49BB
:101A5000012088470028E7D0222005E0BB4901206B
:101A600088470028E0D03B20FFF76EFFDCE7F0B5A9
:101A700085B00020694608730872B54F0874B54EEA
:101A8000AF4CB847019004AB02AA03A9206901F04A
:101A90001FFB0028D9D00820B047002803D002201F
:101AA000B04700280FD06846007A012811D0A068FE
:101AB0002569407A012826D00228E2D1A64A284684
:101AC00001999047DDE7012168460172007C0028FA
:101AD00015D02521A06849014118497B002908D06B
:101AE0009849D4314018417B027B08029B4910433E
:101AF00088476846984A017B96322069E1E73D2095
:101B0000FFF722FFA1E728780007000F0528B8D1CA
:101B10008F49EE31A81C8847287887224006C10FDC
:101B2000A06811540622A91C883002F08DF8A8E79D
:101B3000F0B5864999B00420884700280ED0834923
:101B400004201A31884780491F20AC3188478448D7
:101B500080471620FFF7F8FE19B0F0BD8148804796
:101B6000002810D0764DAC68A1790807F4D5E0794B
:101B7000C2071CD07C49204698308847A868C179A4
:101B8000490849001FE0774E754F754DB2361C3736
:101B90006C46103507E06846B0470128DCD168463E
:101BA0000178601CB847A8470028F4D0D4E7820722
:101BB0000BD56D4A20461C328E30811C9047A86898
:101BC000FD22C17923E0C171C6E7420708D5664905
:101BD00020466031A8308847A868FB22C17916E00A
:101BE0000207F726002A09DA5F4A21464232A07A24
:101BF0000B319047A868C1793140E4E7C00608D5A9
:101C0000594968467C318847A868EF22C17911405C
:101C1000D9E720463140FF30A1712130017D0026F7
:101C2000002910D006752146072287310CA802F042
:101C30000BF821460DA82A228E31033002F004F859
:101C40004A490CA8884701206946087048708E7080
:101C5000A96800A82A2203308E3101F0F5FF2D2259
:101C60000821434C6B460020A04775E73449012802
:101C7000C9690FD0022811D0042812D0082813D027
:101C8000102814D0202815D0402816D0802818D02D
:101C9000012070478878C007C00F70478878800798
:101CA0000DE0887840070AE08878000707E0887828
:101CB000C00604E08878800601E088784006C00FFE
:101CC00070478878C009704710B50178012920D184
:101CD000401C01F0E6FF1A4A10285BD00EDC0128F8
:101CE00018D002281ED0042844D0082811D1FFF7AC
:101CF000BDFF00280DD11148563809E0202859D0E1
:101D0000402806D1FFF7B2FF002802D10B48801E01
:101D1000804710BD0120FFF7A9FF0028F9D1FFF788
:101D200007FF10BD0220FFF7A1FF0028F9D1FFF740
:101D30009EFE10BDBF650000776A0000CF16000050
:101D4000B0300020CE03000001120000F50A0000B0
:101D500049570000791900008B1E00002B6200001B
:101D6000BD600000054E000027260000DF47000090
:101D7000A13E00000420FFF779FF0028D9D1906828
:101D8000407A012803D00228D3D1FE48C0E7FD489D
:101D9000AE38BDE71020FFF769FF0028C9D1D06930
:101DA0002030407D400701D53E2000E00820FFF7AD
:101DB000CBFD10BD2020FFF759FF0028F9D1F248D4
:101DC000A6E710B500280ED0F04AD1698B7E082412
:101DD00023438B7660310B7E52785B095B01D20620
:101DE000D20E13430B76EA498847012010BDE7481D
:101DF00080682330417C027C080210430BD0E54907
:101E000048780A7800021043032210430870000A41
:101E100048700120D5E7704730B4DD4C6C34A446DF
:101E200030BC6047F8B5DB48407A000663D5D74838
:101E3000866830462330417C007C0F02D549074339
:101E40004878097804020C43002F01D1600752D56D
:101E5000D04DA87B697B00026D1C08434BD0002F3E
:101E600049D068792979000208432ED12136707C47
:101E7000317C0002084302F02FF90022C64B02F029
:101E80002FF802F037F980B27843642101F0C8FEE0
:101E90004004010C2971080A68710A204143707DD1
:101EA000327D00021043814206D30A21401E01F018
:101EB000B7FE2871000A6871687929790002084321
:101EC00003D10120287100206871B248A10709D50B
:101ED00002218C4301210C430470210A417000202F
:101EE000FFF76FFF68792A7901021143AB4B00229B
:101EF0004020FFF791FFF8BD1CB5A6494A7A002A99
:101F00003AD04A780B7812021A43D30634D4437875
:101F100004781802204301282ED1C878401E0006FC
:101F2000000EC87029D008468B78017AC279090260
:101F30001143027BC47A12022243C01C012B24D01D
:101F4000521A0272120A42721206037A120C1A43D1
:101F5000531A69460B804A808E498A7B497B12025C
:101F60000A4369468A80417B027B08021043694626
:101F7000C8808B49684688471CBD887AC870402055
:101F800002430A70100A48701CBD5218D9E7854AEE
:101F90001047844A2032104738B5002421467F205C
:101FA000FFF7F7FF00213B20FFF7F3FF29213B203C
:101FB000FFF7EFFF69463B20FFF7E9FF684600782F
:101FC000800701D5012038BD641CA4B2FF2CF1D9D3
:101FD000002038BD10B574488047012010BD10B5F1
:101FE0006A49724A8870002807D188688078022878
:101FF00003D000209047012010BD0120FAE710B562
:10200000624C0128A168887004D0002836D00228CC
:102010004BD05EE0606A014620310A7852085200D7
:102020000A700A78FD231A400A700178890989012B
:102030001C3101704178890989011C3141700021EE
:102040007F20FFF7A6FF03212120FFF7A2FF1F211A
:102050000320FFF79EFF7D205249C0008031884752
:1020600002217F20FFF795FF01210020FFF791FF5C
:1020700000217F20FFF78DFF0F2127E000217F2027
:10208000FFF787FF00210420FFF783FF02217F2055
:10209000FFF77FFF00210846FFF77BFF00217F202D
:1020A000FFF777FF0021032011E002217F20FFF7D7
:1020B00070FF03210020FFF76CFF00217F20FFF756
:1020C00068FF00210320FFF764FF00210420FFF7D1
:1020D00060FFA078FFF783FF012010BD10B5FFF768
:1020E0008EFF012010BD304810B50C3080472748C6
:1020F000006A017ADF2211400172012010BDFEB595
:102100002A4818308047214C0190206A817A007A51
:10211000CF07FF0F002672B6800702D00126FFF717
:10212000E2FF1A48006A817A4908490081721F4912
:10213000012088470220FFF762FF1A4964206631B8
:102140008847002469460C70254601217F20FFF74F
:1021500020FF00210A20FFF71CFF22210A20FFF7A1
:1021600018FF69460A20FFF712FF6846007840070B
:10217000EFD469460A20FFF70AFF68460078400757
:102180001CD515E027150000C1160000B030002056
:102190003F4400008B5A00200000F43FEF1D001068
:1021A00033420000C561000007470000A76500003A
:1021B00068460078000706D4012504E0641CFA484C
:1021C000A4B28442D5D3F949642088470020FFF7A0
:1021D00016FFF74901988847F648006A817A49084E
:1021E000490039438172002E01D0F348804762B61E
:1021F000002D01D00120FEBD0020FEBD10B5112133
:10220000EE4801F03AFD10BD70B50446401C01F0E7
:1022100048FD022818D0042819D001214904884219
:1022200044D125462035687B092301070209090F9F
:102230000020072A19D0032A1DD0022A22D0012A01
:1022400026D0002A2AD02FE0FFF7D8FF37E0D94860
:10225000FF218068012235310A548078002801D19D
:10226000FFF74DFFFFF798FE29E0581A0621484373
:102270004121C94304E0581A062148433521C94386
:10228000081A10E0581A062148432321C943F7E7EA
:10229000581A062148431721C943F1E7581A062165
:1022A0004843801D404240B2687308E040281DD07A
:1022B0000121C903884202D1601DFFF71DFEBF49FD
:1022C0004878097800020843800607D5601C01F0B1
:1022D000E8FC0005000F01D0FFF7A4FDB5482C3045
:1022E00001F0DFFC01462046884770BDB148283028
:1022F00001F0D7FC4006E2D570BDB14908471CB5D6
:10230000AE4808210170002141700146087BCA7A5D
:102310000002C91C10432FD04A790B7912021A43CC
:10232000821A92B26B461A8058800623062A01D27E
:102330006A461380062801D268464380487B097BA1
:10234000000208436946C8809C48817B427B0802A2
:10235000104369468880974880682330417C027C1E
:102360000802104302D00020FFF72BFD9549684674
:1023700088479349402088471CBD904948780A788F
:1023800000021043C2050CD5FF22013290430870B1
:10239000000A48700879401E0006000E087109D036
:1023A000ADE720221043102290430422104308700E
:1023B000000A48707047FEB5804D04466878297859
:1023C0000002084300077DD57F48804769782A7856
:1023D000090211430822914329700A0A6A706B7A34
:1023E000064628461A066ED5A27967791202651C40
:1023F0003A43704FE41C002A77D010221143017039
:102400000A0A427088065ED4687929790002084376
:1024100032D001F061FE01910090607821780002D5
:10242000084301F059FE694C0022234601F058FD93
:10243000019B009A01F054FD01910090B868213091
:10244000417C027C0802104301F046FE0022234634
:1024500001F046FD07460C46687A297A00020843D7
:10246000801B01F025FE3A46234601F039FD019B11
:10247000009A01F083FC24E0607821780002084390
:1024800001F00EFE0446B8682130417C027C08024F
:10249000104301F005FE214601F016FC01F048FE54
:1024A00000224A4B01F01CFD07460C46687A297A47
:1024B00000020843801B01F0FBFD3A46234601F071
:1024C0000FFD02E06EE064E00FE00022404B01F0FF
:1024D0006FFD01F00FFE0104090C00D101213D4BFD
:1024E00000228020FFF798FC53E09A0651D58278AD
:1024F000012A4ED18A064CD4FF22304801321143C2
:102500000170090A417060782178000208432B4964
:102510000A7BCB7A1102194388423AD901F0C0FDF7
:102520000446B8682130417C027C0802104301F067
:10253000B7FD214601F0C8FB01F0FAFD0022234B54
:1025400001F0CEFC07460C46687A297A000208435F
:10255000801B01F0ADFD3A46234601F0C1FC00228C
:102560001B4B01F025FD01F0C5FD0104090C00D154
:102570000121184B00228020FFF74EFC0F484178C4
:10258000027809021143FF22013211430170090A46
:102590004170032069460881022291030E4C02AB70
:1025A0000020A047FEBD0000FFFF00002B620000DE
:1025B000A7650000B0300020074700008B5A0020BC
:1025C000B344000033420000BF5500000000F43F58
:1025D000000059407B230010A13E000010B50446C6
:1025E000007800280ED1A1786278080210430AD042
:1025F000012807D1FE49201D8847002802D1282044
:10260000FFF7A2F910BDFB49201D8847002802D121
:102610002820FFF799F9201DFFF7CDFEF64801218C
:102620008368062209040020F44C3133A04710BD12
:1026300010B50078012801D1FFF79DF910BD30B524
:10264000EF4885B0804701217F20FFF7A2FC694653
:102650005020FFF79CFC68460078042801D0E94828
:102660008047FFF74CFDFFF797FC01246846448044
:102670000480E5480190E54968468847684604704B
:10268000447000244480E2480190DB48E14B8068BC
:1026900008226946C01801F0D7FA0121DE4D40201A
:1026A000A84701218020A84701212020A847032115
:1026B0006846018041808480C48004814481848193
:1026C000C481D648D14904906846A2398847012080
:1026D00005B030BDCA4810B50A308047012010BD92
:1026E000C74910B528318847012010BDC44910B52D
:1026F0005E318847012010BDC14910B56A31884755
:10270000012010BDBE4910B578318847012010BDA9
:10271000BB4910B588318847012010BD10B5B74CB2
:10272000383CA047012010BDF8B5B34CBC49A068A7
:1027300037308847E0683B230178BF250A09A16844
:1027400012015B5C1B071B0F1A4302701207120F6A
:10275000012A79D00B4640335A781B7812021A436B
:102760000B4642331A70120A5A7002788B7A2A404A
:102770009B011A435206520E027066235B5C42783C
:102780009B1D92099B0692019B0E1A4342700622E2
:10279000801C0B3101F058FAA1686620425C002AC7
:1027A00004D0E0686731083001F04EFAA0680021DB
:1027B00020304177E0689B4A41788906890E891C60
:1027C0009047E06801780A091201121D0270A168A1
:1027D0002A408B7ADB075B0E1A43027046235B5C50
:1027E00042789B1D92099B0692019B0E1A434270F0
:1027F0000622801C0B3101F027FAA1684620425CBA
:10280000002A04D0E0684731083001F01DFAE06882
:10281000844A41782C328906890E891C9047A56824
:1028200001272E462036F07E01283BD000284CD0D0
:1028300002284AD0062848D00023704C1A460121AD
:102840001846A047F8BDFFE70A4640321379537196
:102850008B7A0278DB072A405B0E1A4302708723CB
:102860005B5C5206520EDB011A43027042780B3158
:10287000920992010C3242700622801C01F0E4F9A8
:10288000E068A16806220830883101F0DDF9A1680E
:1028900003223D204254624A8720405C323A88310C
:1028A000904787E74035687900280AD0282006211C
:1028B000E269937EFD24234093761775737F327F00
:1028C0003AE001206F710146F2E72C46423460780D
:1028D000217802020A4316D02235697F19202B7F06
:1028E000800109024243194301208904890C0091A7
:1028F00005D0104601F07EF9401C7F2809D8C5B2EA
:102900002770380A0CE0380A27706070012500959E
:1029100007E07F2529467E3001F06CF92070000A1F
:1029200060703548C069817E022211438176077547
:10293000737F327F00992846374CFE34A0473A48CF
:1029400080477FE710B5FFF7EFFE012010BD10B5FF
:1029500036490320087036496420884729481030DA
:102960008047012010BD10B532498847012010BDB5
:10297000304810B55C308047012010BD10B52E489E
:102980008047012010BD2C4910B50831884701202F
:1029900010BD294910B516318847012010BD2649C0
:1029A00010B578318847012010BD134948700120C7
:1029B0007047214910B586318847012010BD1E4A55
:1029C00010B58E329047012010BD7CB5054601F050
:1029D00068F909490446283101F06DF9281D01F014
:1029E00060F905492C3101F066F94020844325E067
:1029F000475F00005D5B0000B0300020A13E00009A
:102A0000793D0000F7460000312600102F440000F9
:102A1000C91C0010CE02000061550000DD25001029
:102A2000B1570000D96000009D5600000000024030
:102A300045620000014100001D420000FE48019077
:102A4000FE4900946846884701207CBDFB4910B5CB
:102A50007A318847012010BDF84A10B5823290477C
:102A6000012010BD10B5F6488047022801D900208A
:102A700010BD012010BDF8B50746F1481C461546AB
:102A80000E468047022807D92346EC4C2A46314699
:102A900038469234A047D5E60020D3E6E9490847F6
:102AA000E84908310847E74A2232104738B5049C04
:102AB0000094E44C4434A04738BD30B4E14C7C343D
:102AC000A44630BC6047DF49AC310847DD4AC63216
:102AD0001047DC4AE832104730B4DB4CA44630BC27
:102AE0006047D94B30331847D74B5C33184730B465
:102AF000D54C8834A44630BC6047D349B831084728
:102B0000D148CC30004770B5D04D0446082804D0D9
:102B1000A868407808280DD014E000217F20FFF736
:102B200038FA01214020FFF734FA286A0178C908F1
:102B3000C9000EE000217F20FFF72BFA0021402082
:102B4000FFF727FA286A01786207C908C900520FFF
:102B500011430170A8684470012070BDD3E710B51F
:102B60000446BB4880472070012010BD10B50446C4
:102B7000B748801D80472070012010BDB44910B5B2
:102B80001C318847012010BDB14810B57230804714
:102B9000012010BDAF480047AF490847AE491A3180
:102BA000084708B5AD49684688476846C078800739
:102BB000C00F08BD08B5A949684688476846C0786F
:102BC000C00900D0012008BD10B5FFF7E0F910BD25
:102BD00010B5FFF7DEF910BD9D4810B552308047A3
:102BE000012010BD10B599490122C8694275437C86
:102BF000DB09DB019B1C4374931E83741B0AC374A3
:102C0000096ACB7AEF242340CB724B7B93434B73FF
:102C10008B7A13438B72817E022319438176017C68
:102C2000114301748C4905201A3188478C4880472C
:102C3000012010BD8A4810B512308047012010BD18
:102C4000864910B57E318847012010BD834910B5F3
:102C500096318847012010BD814910B55831884709
:102C6000012010BD7E49AC3108477D4910B5FA31CD
:102C70008847012010BD10B57A488047012010BD5B
:102C8000784810B518308047012010BD754BA2332D
:102C90001847744BD833184770B504466B480D4637
:102CA0004068283000F0FDFF002805D072B60019FA
:102CB0006D4A2946904762B670BD70B504466348B8
:102CC000154640680E46283000F0EBFF002807D07C
:102CD00072B60019644B2A463146EA3B984762B601
:102CE00070BD70B504465948154640680E462830F8
:102CF00000F0D7FF002807D072B600195A4B2A46B9
:102D00003146823B984762B670BDF8B5002472B672
:102D10004E4D68680A3000F0C4FF534B5721534AA8
:102D2000EA3B984762B651484F4E0078002802D0DF
:102D3000012821D047E06968C87B897B00020843ED
:102D40004005070E0BE072B66868143000F0A9FF6A
:102D5000E10340180821B04762B6641CE4B2BC42EB
:102D6000F1D36868C17B827B090211434D076D0F67
:102D700029D072B614301FE06968C87B897B0002D5
:102D800008434005070E0BE072B66868103000F08B
:102D900088FFE10340180821B04762B6641CE4B222
:102DA000BC42F1D36868C17B827B090211434D07A5
:102DB0006D0F08D072B6103000F073FFE1034018B9
:102DC0002946B04762B601203CE5F8B504462748DD
:102DD0000F4601781D48244D4068823D1646002963
:102DE00002D0012903D00BE072B6143001E072B6B4
:102DF000103000F056FF001932463946A84762B637
:102E000001201FE5C9B2E0E730B4194CA44630BC3C
:102E10006047F8B512488A388047144C5734607AB6
:102E200000285FD00006042500282EDA607821787B
:102E30000002084340071DE009220010B3420000D1
:102E40002B4E0000B73A0000BB3B0000B030002022
:102E50009F440000FB5F00002B6200004D650000F6
:102E6000E54600000348000043540000345A0020A7
:102E70007B4A000009D5FEF7D5FF60782178000273
:102E80000843A8432070000A60706078217800022F
:102E90000843B24FB24E41060CD540218843207002
:102EA000000A607002206946088002466B46394677
:102EB0000020B0476078217800020843C10711D094
:102EC000400840002070010A6170800702D5684602
:102ED000058002E005206946088002226B463946DB
:102EE0000020B047AEE49F48004738B59E4C20789C
:102EF000002804D19D4968468847012020700120A0
:102F000038BD70B50278002A49D099494A72427892
:102F10008A72002A01D0042A01D904228A72C27856
:102F2000847813022343924A1C0AD372147344799F
:102F3000057924022C4315466C73240AAC73C479BA
:102F4000857920022843D073000A1074864808252A
:102F50008068D21C2130447C007C24020443012080
:102F6000A342887008D91B1B07E01071000A01E01A
:102F70001571280A507107E0E31A8C7AA3420ADA25
:102F80001071000A50718B72887AC8700871FFF74F
:102F9000B6F9012070BDE400A342E9DAE5E70020BC
:102FA00070BD714989690870020A4A70020C8A7002
:102FB000000EC870487A022210434872704738B534
:102FC0000446002000906949684688470099F82027
:102FD0008143E006000E08430090FFF7E2FF38BD92
:102FE00062487230004761495A31084761490847D1
:102FF00060491A310847604800475F490C3108476B
:10300000F8B500260B4604460125304631462D030F
:10301000675C491CBE19A942FAD30021675C491CB0
:103020007840A942FAD39E422CD190422AD14E4EEA
:1030300070680A3000F035FE4D4A504B573A572120
:10304000984770680A3000F02CFE49490019572251
:10305000573900F0F9FD70681C3000F022FEB168AD
:10306000001907220A3100F0EFFD444A0121002037
:10307000EA329047414B0020224629466833984760
:1030800001205EE400205CE470B50126364C360376
:1030900005463A4B31460020626998473849284630
:1030A000884760681C3000F0FCFD61690722401809
:1030B000A1680A3100F0C8FD304A01210020EA323F
:1030C00090472E4B0020314668336269984770BDA7
:1030D000F0B5254C0025E469E678360701D50020D7
:1030E000F0BD00BF6D1CEDB2642DFAD3254640350E
:1030F0006E7CB607FCD400252646C0363779475586
:103100006D1CEDB2022DF9D346780125F709002F89
:1031100008D0F606F60E0E70157042785206D20FE1
:103120001A7004E0B3069B0E0B70002313700E4B55
:103130000A78DB69801CC033272A0CD20022C034F5
:1031400003E026798654521CD2B20E789642F8D803
:103150005D720120F0BD5D72C1E7000000800000DB
:10316000A13E0000F94B0000B03000204D6500008A
:103170008B5A00202B620000776A00005953000030
:10318000A13D000070B51E46002913D0FE4DAC696C
:103190006B699C420ED205C408467D214901484313
:1031A0007D21083C00F026FDA060267300206061B0
:1031B0001834AC6170BD884200D30846704710B522
:1031C000F14840682030017CC9070DD0017C4908D6
:1031D000490001740122ED4B11021960417C114339
:1031E00041743220FFF702FF10BD70B5E64E054670
:1031F00070680C462030017CC90706D0017C490864
:10320000490001743220FFF7F1FE72682032157513
:10321000280A5075280C9075280ED075107C102146
:1032200008431074907C400840009074D8480460B3
:10323000517C012001435174D44B0102803B196041
:10324000117C0143117470BDCFE770B5CE4D1821CC
:103250002878AE68484369690C1A28698019286182
:103260000020C043A86018E0207B002814D020690B
:10327000B04204D16068002807D0804705E0801B79
:10328000206102D0A168884201D9A0682061A968A4
:10329000884200D90846A860183468698442E3D39C
:1032A000A868002805D0411C03D0BA49FFF7CCFF1D
:1032B00070BDFFF784FF70BDB349CA688243CA601E
:1032C0007047B1484068014644310A7810464A7850
:1032D000120210438A78C978120410430906084381
:1032E0007047F8B50546FFF7ECFFA74A91680E1A3C
:1032F0000020C0431661906010781821536948433C
:10330000191A002718E00868A84202D10F734F610C
:1033100011E0087B00280ED00869801B086102D0EC
:103320008C68A04201D9886808610446906884428C
:1033300000D82046906018319942E4D39068002864
:1033400005D0411C03D09349FFF77EFFF8BDFFF77E
:1033500036FFF8BDF8B58C4B054618781821484360
:103360005969081A06E00268AA4202D1027B002AC3
:1033700034D118308842F6D3FFF7A3FF99680E1AAC
:103380000020C0431E619860197818204143586995
:10339000411A012718E00A68AA4203D18A680A6123
:1033A0000F730BE00A7B002A0DD00A69921B0A6199
:1033B00002D08C68A24201D98A680A619C68A24244
:1033C00000D814469C6018318142E4D398680028E4
:1033D00005D0411C03D06F49FFF736FFF8BDFFF75A
:1033E000EEFEF8BD684918220B7853434A69D11A9A
:1033F00005E00B68834201D1087B70471831914288
:10340000F7D3FF20704770B50D460446FFF76DFDFA
:10341000002808D05C48182104704C43611985616C
:103420004161FFF7CCFE70BD57494A681146203113
:103430000875030A4B75030C8B75000EC8758B7CE1
:10344000012003438B744B7C03434B740B7C03437D
:103450000B742032D37CDB07FCD00A7C520852006C
:103460000A744A7C02434A747047474840682030D7
:10347000C17CC90708D0417C0122114341744448F2
:103480000068002800D000477047F8B53E4F064658
:1034900078680D462030017CFD248907002905DA73
:1034A000017C214001743220FFF7A0FD7A682032B0
:1034B0001676300A5076300C9076300ED076107C2E
:1034C000202108431074907C20409074304845605F
:1034D000517C0220014351742C4B0102803B196046
:1034E000117C01431174F8BD10B5274840682030A5
:1034F000017C89070ED5017CFD2211400174012158
:10350000224A49021160417C022211434174322057
:10351000FFF76CFD10BD1C4840682030C17C890756
:1035200008D5417C022211434174194840680028A3
:1035300000D000477047F8B5134F064678680D462F
:103540002030017CFB244907002905DA017C214059
:1035500001743220FFF74AFD7A6820321677300A6C
:103560005077300C9077300ED077107C4021084394
:103570001074907C2040907405488560517C042034
:1035800001435174010207E0E030002080E100E0D7
:103590009C5A00204B3200101F4B803B1960117C5D
:1035A00001431174F8BD1D480C214068403041189A
:1035B0000A7810464A78120210438A78C9781204B1
:1035C000104309060843704710B51448406820307E
:1035D000017C49070ED5017CFB22114001740121B9
:1035E0000D4A89021160417C04221143417432204A
:1035F000FFF7FCFC10BD094840682030C17C49073A
:1036000008D5417C04221143417405488068002894
:1036100000D000477047000080E100E0E03000206B
:103620009C5A002018B5F8480068009000206946B0
:103630000B5C0A241A0962431B070A541B0FD21899
:103640000A54401C0328F3DB009818BD08B5FFF7A7
:10365000E9FF009068460178C078EC4A401E50436C
:103660000A1868468178E1200001414368464078A5
:103670003C23584308181118E54A1069814201D3C8
:10368000081A02E0E34B081AC018116108BD70B5B2
:103690000D46002802D0DC4E083E01E0DA4E0C3E1A
:1036A0000024285D0A2100F0A5FA000101432955F4
:1036B000641C032CF5DB284600F0F3FA306064202C
:1036C000FFF794FCD0482038C17A08221143C17218
:1036D00070BD38B5CE4909694418CC49204600F080
:1036E00089FA421C6846C270E12508462D01294628
:1036F00000F080FA0246684682702946204600F0B3
:1037000079FA08463C2100F075FA01466846417096
:103710003C21204600F06EFA6846017069460020A0
:10372000FFF7B5FF38BD38B5FFF77CFF009068465E
:103730000178C078B54A401E50430A18684681781F
:10374000E12000014143684640783C235843081873
:103750001118AF4BB0485A6A0468914201D38A1AD3
:1037600002E0AC4D8A1A5219A21802601046596242
:1037700038BD70B500290BD0A54D6E69AC69B44257
:1037800006D2A16005C423710020E0601034AC6152
:1037900070BD884200D3084670479B4920398A7A19
:1037A0000F238343887A1A4000090001104388726E
:1037B000704770B50446400701D5FFF733FFE007B7
:1037C00041D0934C18216078666848436169081AB3
:1037D00003E0027B002A02D118308842F9D38842E4
:1037E00031D2FFF733FF6168E0684018E0600020E5
:1037F000C043606060781821484361690D1A18E081
:10380000287B002814D02869B04204D168680028B9
:1038100007D0804705E0801B286102D0A968884254
:1038200001D9A86828616168884200D908466060AB
:10383000183560698542E3D36068002804D0411CD4
:1038400002D0FFF746FF70BD0120FFF7A6FF70BD55
:103850006F498A6882438A607047F8B50446FFF76B
:10386000F5FE6B4AD06072B60021C94351605178B1
:10387000182359435369591A002717E00D68A542C8
:1038800002D10F734F6110E00D7B002D0DD00D693B
:103890002D1A0D6102D08E68B54201D98D680D6177
:1038A0005668B54200D93546556018319942E5D37E
:1038B0005068002804D0411C02D0FFF70AFF02E044
:1038C0000120FFF76AFF62B6F8BDF8B5504C054617
:1038D0006078182148436169081A06E00268AA4224
:1038E00002D1027B002A38D118308842F6D3FFF784
:1038F000ADFEE06072B60021C943616061781822B4
:1039000066695143711A012719E00A68AA4203D176
:103910008A680A610F730BE00A7B002A0ED00A69DD
:10392000121A0A6102D08B689A4201D98A680A6128
:1039300013466268934200D81A4662601831B14259
:10394000E3D36068002804D0411C02D0FFF7C1FE19
:1039500002E00120FFF721FF62B6F8BD2C49C861E3
:103960007047F1B582B0FFF771FE294DE86072B67D
:103970000021C943696069786E691822514300903B
:10398000741AEF6920E02068B84209D13C210298FE
:1039900000F030F93C20401A2061012020730CE037
:1039A000207B00280FD021690098081A206102D0DE
:1039B000A168884201D9A0682061206969688842AD
:1039C00000D9084668601834B442DCD3686800281F
:1039D00004D0411C02D0FFF77CFE02E00120FFF77B
:1039E000DCFE62B6FEBD0A4918224B7853434A6991
:1039F000D11A05E00B68834201D1087B704718316A
:103A00009142F7D3FF207047C01000508051010051
:103A1000FC300020803A0900A83000207149087865
:103A20000028F0D17048C37A01221343C372C37ACD
:103A3000DB07FCD10A70E6E76A490862E3E76A49F6
:103A40008A7A024310078A7A000F12091201024390
:103A50008A72D8E764498A7A1209024310018A7A85
:103A60001207120F02438A72CDE770B50546002493
:103A7000285D0A2100F0BEF8000101432955641CAD
:103A8000032CF5DB284600F00CF957492039C863B0
:103A900070BD554A138A401EDB0BDB034004400C0B
:103AA00003431382907C090700090001090F0843B2
:103AB0009074A8E74C48C17A04221143C172C17ABC
:103AC0004907FCD49FE74749087801289BD146481D
:103AD000C27A02231A43C272C27A9207FCD400202F
:103AE000087090E7F3B581B0FFF7EDFFFFF7E2FF55
:103AF00001200021C003FFF7CCFF6420FFF776FA16
:103B000001216846C1700024847044700470FFF77E
:103B1000ACFF344D07262C616846C67017278770A6
:103B20003B244470047069460120FFF7B0FD6846ED
:103B3000C67087704470047069460020FFF7A7FDC7
:103B40000F20FFF787FF0F20FFF727FE0120FFF769
:103B500076FF02982862FFF761FF2449042008607D
:103B6000FEBD70B50D460446FFF7BFF900280BD027
:103B70001C48182144704C43611985614161012042
:103B80001B49C003FFF7AEFF70BD10B51648407A61
:103B900003071B0F1846FFF75DFF1248016A002953
:103BA00001D01846884710BD0E4800782BE718B59D
:103BB000002802D00C48183001E00B48143000688F
:103BC0000090002069460B5C0A241A0962431B0717
:103BD0000A541B0FD2180A54401C0328F3DB009828
:103BE00018BD0000FC300020A010005000E100E0F3
:103BF000B337001030B50B460146002020220124C7
:103C000009E00D46D5409D4205D31D469540491B10
:103C10002546954040191546521E002DF1DC30BD59
:103C200070B500242546002801DA0124404200290D
:103C300001DA01254942FFF7DDFFAC4200D04042E6
:103C4000002C00D0494270BD03460B439B0703D0B4
:103C500009E008C9121F08C0042AFAD203E00B7851
:103C60000370401C491C521EF9D27047D2B201E0C9
:103C70000270401C491EFBD270470022F6E710B5C7
:103C800013460A4604461946FFF7F0FF204610BDCA
:103C900003460A780270401C491C002AF9D11846D4
:103CA00070470321001D401E037812021A43491E6B
:103CB000F9D510467047034603220870000A491CD4
:103CC000521EFAD518467047F8B502464A40D40F3E
:103CD00042004B0052085B089A4202D20246084654
:103CE00011464A0023D0C30D4A00DDB2120EAD1AB0
:103CF000202D35DA49020126490AF6058A19002CD9
:103D000000D0524220214F1B1146B9402A411018C1
:103D1000C20D9A4221D0002C17D0012D08DCDA0503
:103D2000801AD20F8019D207DBB200F051FAF8BD29
:103D3000DA05801A012340001B06C01880185A4279
:103D40008018CA0F1043490007E04908C207114311
:103D5000DA05801A80194008801800F031FAF8BDA1
:103D600061000122511A001BF7E70122D2075140DE
:103D7000AAE70122D2075040A6E70000F0B50746A7
:103D80000846584087B0C00F049048000E465900BE
:103D900040084908BC1A884105D2384631461E46BB
:103DA00017460B4602465800400810434CD0300DD1
:103DB000039040055900400D490D0590401A0290AE
:103DC000402872DA18030121000B0905084301900D
:103DD00004980092002805D00199524200208841A1
:103DE00000920190029840210A1A0199009800F06F
:103DF000B3F905460C466B4607CB00F0CEF9C01967
:103E00007141039A0E0D0023D71756401A467A4087
:103E1000164344D0049A002A2DD0029A012A039A0C
:103E200015DC1205C01A914101263605001C7141AE
:103E3000D20F059ED2070093019202962A4623468E
:103E400000F00CFA07B0F0BD38463146FAE7160527
:103E5000224A0F46B218C01AB74101210905001CB9
:103E60004F4100187F41114618187941E20F104365
:103E70006D19644113E0E2076D0815436408C20739
:103E80001443039A01261205C01A91413605001CFD
:103E90007141CE07400830434908C01851412A46B5
:103EA000234600F0CEF9CDE7FFE704980122400059
:103EB000C117121A00238B4104983146C417381ACF
:103EC000A141EEE730B40124E407634030BC55E77C
:103ED00030B40124E407614030BC4FE70000E0FF4C
:103EE000F0B51FB488B00B9909980024484009998F
:103EF000C00F490049080991C0070B99009049007B
:103F000049080B9109990898A64608431CD00B99BB
:103F10000A98084318D0099801244000420D48002F
:103F2000410D099824050003000B204309900B98CC
:103F30000003000B20430B9050181C49401800222E
:103F400001901446104605E0002001460DB0F0BD7A
:103F5000032801DA034600E003239C46C11A0AAE97
:103F60000AE05F0008ADED5B4F00F75B7D43002783
:103F7000AA187C41491C5B1E6145F2DD410004AB7F
:103F80005A522104120C0A43240C401C0828DFDB7F
:103F9000019802900099704601910090059B049A47
:103FA0000799069800F05AF9D0E700000DFCFFFFD2
:103FB000F0B50C465C4085B0E40FE40703944C0078
:103FC0000026640859009446490802460296224396
:103FD00021D062460A431ED06200570D4A000E03EC
:103FE0002303550D012402462C492405781B1B0B85
:103FF000360B401823432643614600901C46501A56
:10400000B44103D30098401C009002E0921800983D
:104010005B41002803DA0020014605B0F0BD002016
:10402000012109050746864611E064461D46141B1A
:10403000B54106D36546521BB341744607430C4352
:10404000A646CD0740084908284392185B4105461B
:104050000D43EAD11046184313D06046194650402C
:104060007140084306D06046101AB34106D20122BF
:10407000002306E000220123DB0702E00122D243F5
:104080005310009874460105381C6141029C039D41
:104090000019694100F0D5F8BFE70000FD030000FA
:1040A00010B500229623114600F092F810BD0000D2
:1040B0000EB5C217C10F5040CA0740180021054B6A
:1040C0000293019200910A460B4600F0C7F803B034
:1040D00000BD0000330400000EB505490291002127
:1040E00000910A460B46019100F0B8F803B000BDFC
:1040F000330400004A0009030123090B1B0519437F
:10410000094B10B5520D9A4201DA002010BD064B42
:1041100034339A4203DC9A1A00F02EF810BD03499A
:104120005118884010BD0000FF030000CDFBFFFFC9
:10413000C20FD207400040080BD0C10D0723DB019E
:10414000C91840020905400A1143C208400711433B
:10415000704700200146704710B5202A04DB014655
:10416000203A9140002010BD914020239C1A034624
:10417000E3401943904010BD10B5202A04DB0846E7
:10418000203AD040002110BD0B46D340D04020241F
:10419000A21A91400843194610BD10B5202A06DB2B
:1041A000CB170846203A1041C1170B4306E00B46D7
:1041B0001341D0402024A21A91400843194610BD53
:1041C000002904DA401C490001D140084000704732
:1041D00070B40024050C05D11024000402D100297C
:1041E00021D01124050E01D100020834050F01D1A0
:1041F0000001241D850F01D18000A41C002801DBD3
:104200004000641C002908D020252E1B0D46F540D7
:10421000A14000D001212943084301061B1B000ACD
:10422000DB1D02D5002070BC7047DB051818801814
:104230000029F8DA401C4900F5D170BC4008400064
:10424000704710B5002B08DA0024401C6141921819
:104250005B411A4301D14008400010BDF0B51FB4C6
:1042600082B005460C0003D0084600F05BF802E07F
:1042700000F058F820300246009021462846FFF70B
:104280006BFF049B059A04460F46184311430843ED
:1042900014D0184610431BD0009840210A1A184623
:1042A0000599FFF769FF05460E46009A059904989F
:1042B000FFF752FF084305D0012004E020463946AD
:1042C00007B0F0BD0020C11705430E432C43374310
:1042D00000990E986305401A7905E40A00220C4300
:1042E000FD0A0A3002D500200146E9E70105101950
:1042F00069410C9C0D9D00196941FFF7A2FFDFE7A2
:10430000064C0125064E05E0E36807CC2B430C3C28
:1043100098471034B442F7D3FBF7D6FE9C43001005
:10432000BC4300102021020C01D010211046020ACB
:1043300001D010460839020901D01046091F820831
:1043400001D01046891E420801D0881E7047081A05
:10435000704730B47446641E2578641CAB4200D2AA
:104360001D46635D5B00E31830BC184702E008C8D7
:10437000121F08C1002AFAD170477047002001E0DF
:1043800001C1121F002AFBD170473031323334355E
:10439000363738394142434445460000BC4300109B
:1043A00000300020240100006C430010E0440010A5
:1043B00024310020844E00007C43001000000000E7
:1043C00000000000000000000201050303010009D5
:1043D000FF000000000000000009095359445F5528
:1043E00041525409FF000000000000000009095379
:1043F00059445F5541525400000000000000000085
:10440000000000000000000050300020000000000C
:1044100000000000601000502410005014100050E4
:1044200018100050100000400000000000010203BE
:104430000405060708090A1112131415161718198E
:104440001A1B1E1F00010203040506090A070811B2
:1044500015121617181319141A1B1E1FD00001501D
:10446000E0000150000000000024F40000040000FF
:10447000ED050020DF0000208F050020C60500208C
:104480004A07002090100050000002400010005029
:10449000601000500000000000000000000000005C
:1044A00000100050FFFFFFFF0000000000000000B0
:1044B000000000000000000000000000FFFFFFFF00
:1044C00000000000000000000000000000000000EC
:1044D00000000000020000000000000000000000DA
:04000005100000C126
:00000001FF
