:020000041000EA
:100000008035002001090010090900100B090010BB
:1000100000000000000000000000000000000000E0
:100020000000000000000000000000000D090010AA
:1000300000000000000000000F090010110900106E
:10004000000000001309001013090010130900102C
:100050001309001013090010C507001077080010DD
:1000600013090010130900101309001013090010E0
:100070005D0500101309001013090010130900108A
:1000800013090010130900101309001013090010C0
:1000900013090010130900101309001013090010B0
:1000A0000000000000000000000000000000000050
:1000B0000000000000000000000000000000000040
:1000C0000348854603F09EF8004800474B010010A6
:1000D0008035002070B504460D4601217F2000F0D8
:1000E0006FFF2946572000F06BFF01217F2000F0B1
:1000F00067FF2146002000F063FF634840786349B2
:1001000008700D20604948700846C0786049087042
:1001100080205D49C87028205E49087270BD242087
:100120005C49087204200872594800785649C87022
:100130005648007848705848006800780221884383
:10014000801C554909680870704700262824062538
:1001500072B601F064FB00F036FF002001F0BDFE36
:10016000002000F0D4FF00F0E3FF00F0CBF8012006
:1001700000F04EFF49A24CA14EA000F0C7F80021AC
:100180001D20000500F0F8F81D210905084600F0C3
:1001900057F91D210905002000F007F91D20000571
:1001A00000F0B2F962B621460020FFF793FF28461F
:1001B00002F0D3FA67E00120000500F0BEF9002844
:1001C00015D0FFF7ACFF052000F0C6F8701C46B252
:1001D000272E00DD0026E1B2F0B2FFF77BFF3146AB
:1001E0003DA000F093F87D20C00000F0B5F801209C
:1001F000800500F0A2F9002814D0601C44B27F2CC6
:1002000000DD002401217F2000F0DAFEE1B257205A
:1002100000F0D6FE214635A000F078F87D20C00021
:1002200000F09AF80120C00500F087F9002814D0EA
:10023000601E44B2002C00DA7F2401217F2000F0F0
:10024000BFFEE1B2572000F0BBFE214627A000F020
:100250005DF87D20C00000F07FF80120000600F06E
:100260006CF900280FD0681E45B2002D00DA082571
:10027000E8B202F072FA29461EA000F047F87D208D
:10028000C00000F069F896E7000003400430002049
:1002900005300020001000500030002032333A3585
:1002A000353A333400000000466562203137203291
:1002B00030323000535944383831312064746D2065
:1002C000436172726965722064656D6F2025733AAF
:1002D00025730D0A0000000044544D54785F4361BB
:1002E00072726965723A25780D0A000063323A2508
:1002F000780D0A0074785F706F7765723A25780D13
:100300000A00000010B500F07BF910BD0FB438B53D
:10031000002500240498002803D138BC08BC04B090
:10032000184705A800900B48009A049902F07CFF3A
:10033000C5B200200090802D00DD8025002405E05E
:100340000449085D00F006FA601CC4B2AC42F7DB59
:1003500000BFE2E794300020002108E0002201E025
:10036000531C9AB2034B9A42FADB4B1C99B281425E
:10037000F4DB70478C0A000010B50246002010E044
:10038000012383401340002B0AD0954B1B6819545E
:100390000123834014469C432246002A00D102E0F8
:1003A000401C2028ECD300BF10BDFCB503468D4C8B
:1003B000221D019200220092002B02D18A4A009253
:1003C00003E0012B01D1894A0092009A002A36D01D
:1003D000002013E0012282400D461540002D0CD074
:1003E0002568009E375C0126BE40354325600D46DA
:1003F00095432946002900D102E0401C1828E9D382
:1004000000BF182017E0012585402A460D461540FB
:10041000002D0FD0019D2D780646183E0127B740CC
:100420003D43EEB2019D2E700D46954329460029AD
:1004300000D102E0401C2028E5D300BF00BFFCBD76
:1004400010B56B4A126813461C7822465C78240269
:1004500022439C7824042243DB781B061A43024380
:10046000634B1B681A70140A5C70140C9C70120E9B
:10047000DA70604A126813461C7822465C782402BF
:1004800022439C7824042243DB781B061A43024350
:10049000584B1B681A70140A5C70140C9C70120E76
:1004A000DA70544A12680823D3181C7822465C7804
:1004B000240222439C7824042243DB781B061A433F
:1004C00082434C4B1B681A72140A5C72140C9C72A7
:1004D000120EDA72474A12680823D3181C78224693
:1004E0005C78240222439C7824042243DB781B0698
:1004F0001A430A433F4B1B681A72140A5C72140CAD
:100500009C72120EDA7210BD3A4909680A461378D5
:10051000194653781B02194393781B041943D27868
:10052000120611430143334A126811700B0A5370CB
:100530000B0C9370090ED170704701462D4800686E
:10054000021D1378184653781B02184393781B0436
:100550001843D278120610430840704710B5264859
:100560000068182141180A7810464A781202104390
:100570008A7812041043C978090608431E4909689D
:1005800010228A181378194653781B02194393785E
:100590001B041943D27812061143884300281ED049
:1005A00016480068002802D01448006880471248A6
:1005B0000068182141180A7810464A781202104340
:1005C0008A7812041043C978090608430A49096861
:1005D0000870020A4A70020C8A70000EC87010BDC2
:1005E00008300020801000502030002038300020DB
:1005F0000C30002014300020183000201C30002067
:1006000010B5BB480068C07B80098001C01CB84998
:100610000968C873B6480068007C80098001001D25
:10062000B34909680874B2480068203080782021F6
:100630008843AF49096820318870AD480068203090
:10064000807840218843AA49096820318870A948E8
:100650000068807840084000A64909688870A5486D
:1006600000680078000900010830A2490968087094
:10067000A04800680078802188439E490968087076
:100680009C480068007840218843403099490968B7
:10069000087098480068C078102188431030954948
:1006A0000968C87093480068807804218843001D59
:1006B0009049096888708F480068807820218843B5
:1006C0008C49096888708B480068807810218843BD
:1006D0008849096888708748006880788021884345
:1006E000844909688870834800688078402188437D
:1006F0008049096888707F48006800781021884325
:100700007C49096808707B4800680078202188438C
:100710007849096808707748006880780221884322
:10072000801C74490968887072480068C07820216C
:10073000884320306F490968C870062000F0D0F85F
:100740006C48006880780821884308306949096846
:10075000887010BD67490968487000BF654909681D
:1007600009788906C90F0029F8D062490968097813
:10077000202291435F4A12681170704718B50246F3
:1007800000200023009314E05A4B1B681B790B5484
:10079000431CD8B26B461B785B1CDCB200946B46E2
:1007A0001B785B1CDCB200946B461B785B1CDCB2D4
:1007B0000094504B1B68DB78DB07DB0F002BE3D08A
:1007C000107018BD0CB54B4800680078C006C00F0B
:1007D00000280CD04748006800781021884345491C
:1007E00009680870694601A8FFF7C8FF00BF4148C3
:1007F000006800788006C00F002807D03D480068D8
:100800000078202188433B4909680870394800680E
:1008100080788007C00F002808D0364800688078AC
:1008200002218843801C3349096888700CBD18B5C3
:10083000024600200023009314E02F4B1B681B7915
:100840000B54431CD8B26B461B785B1CDCB2009483
:100850006B461B785B1CDCB200946B461B785B1C00
:10086000DCB20094244B1B68DB78DB07DB0F002B2A
:10087000E3D0107018BD0CB51F4800680078C006A2
:10088000C00F00280CD01C48006800781021884355
:10089000194909680870694601A8FFF7C8FF00BF39
:1008A0001548006800788006C00F002807D012485D
:1008B00000680078202188430F49096808700E48B5
:1008C000006880788007C00F002808D00A480068B8
:1008D000807802218843801C0749096888700CBD14
:1008E000C206D20E01219140044A116070470000F7
:1008F00008300020503000205430002000E100E09B
:100900000448804704480047FEE7FEE7FEE7FEE7AD
:10091000FEE7FEE71D090010C10000100148024972
:10092000086070470024F40058300020F1B5F84802
:1009300080470746F74880470646F54C0120183C9B
:10094000A047F44D00200C35A847F349009888478C
:100950003046A8473846A047F8BDF0B5EF4DF048FF
:10096000E96885B00818044602F0B9F82146401C31
:1009700002F0BFF80024E9480125C668E8480C38B1
:1009800031180391487C097C00020843A5402842A5
:1009900002903BD00B2060438119E148009109305F
:1009A0000818019002F09BF80746DD48301802F065
:1009B00096F887422AD10F21009889014018007DBE
:1009C00000280CD0D64A00990D3A8A18517D127D24
:1009D000090211437818019902F08BF805E002989A
:1009E0000399A8430874000A4874CD4800990D3053
:1009F000081802F074F8002808D0022D19D0042D30
:100A000017D0082D15D0102D1AD08047641CE4B2E1
:100A10000A2CB0D3C148C168C1480C380918487CB9
:100A2000097C00020843800501D1BE48804705B01B
:100A3000F0BDBD49012088470028E7D0222005E00D
:100A4000B949012088470028E0D03B20FFF76EFF1E
:100A5000DCE7FEB50020694608710870B34F0872E4
:100A6000B34EAE4CB847207102AB6A4601A960692B
:100A700001F082FF002836D00820B047002803D0BC
:100A80000220B04700280FD068460078012811D016
:100A9000E0686569407A012826D00228E2D1A54A9B
:100AA000217928469047DDE7012168460170007AE8
:100AB000002815D02521E06849014118497B00290B
:100AC00008D09749D4314018417B027B08029A49EB
:100AD000104388476846974A017996326069E1E792
:100AE0003D20FFF723FFFEBD28780007000F0528F3
:100AF000B8D18E49EE31A81C884728788722400655
:100B0000C10FE06811540622A91C883001F0B6FF1D
:100B10003721206901F0CBFFA4E7F0B5824999B0F5
:100B20000420884700280ED07F4904201A318847C6
:100B30007C491F20AC318847804880471620FFF74A
:100B4000F5FE19B0F0BD7E488047002810D0734DE7
:100B5000EC68A1790807F4D5E079C2071CD079497F
:100B6000204698308847E868C179490849001FE065
:100B7000734E724F714DB2361C376C46103507E01C
:100B80006846B0470128DCD168460178601CB84748
:100B9000A8470028F4D0D4E782070BD5694A20463D
:100BA0001C328E30811C9047E868FD22C17923E019
:100BB000C171C6E7420708D5624920466031A830B6
:100BC0008847E868FB22C17916E00207F726002A69
:100BD00009DA5C4A21464232A07A0B319047E86834
:100BE000C1793140E4E7C00608D5564968467C31F2
:100BF0008847E868EF22C1791140D9E720463140A3
:100C0000FF30A1712130017D0026002910D006752A
:100C10002146072287310CA801F030FF21460DA89C
:100C20002A228E31033001F029FF47490CA888475A
:100C300001206946087048708E70E96800A82A2271
:100C400003308E3101F01AFF2D2208213F4C6B46F4
:100C50000020A04775E731490128496A0FD00228D2
:100C600011D0042812D0082813D0102814D020281E
:100C700015D0402816D0802818D0012070478878D9
:100C8000C007C00F7047887880070DE0887840075C
:100C90000AE08878000707E08878C00604E08878D2
:100CA000800601E088784006C00F70478878C00948
:100CB000704710B50178012920D1401C01F00FFFC9
:100CC000164A10285CD00EDC012818D002283FD02C
:100CD000042845D0082811D1FFF7BDFF00280DD109
:100CE0000D48563809E020285AD0402806D1FFF791
:100CF000B2FF002802D10848801E804710BD0120A5
:100D0000FFF7A9FF0028F9D1FFF707FF10BD00008A
:100D1000BF650000776A0000CF1600005C3000203D
:100D2000CE03000001120000F50A00004957000040
:100D3000791900008B1E00002B620000BD600000CE
:100D4000054E000027260000DF470000A13E0000FE
:100D50000220FFF780FF0028D8D1FFF77AFE10BDF0
:100D60000420FFF778FF0028F9D1D068407A0128E5
:100D700003D00228F3D1FE48BFE7FD48AE38BCE7F8
:100D80001020FFF768FF0028E9D1506A2030407D2D
:100D9000400701D53E2000E00820FFF7C7FD10BD49
:100DA0002020FFF758FF0028F9D1F248A5E770B5D9
:100DB00010250826F04C002821D0606A817E31433E
:100DC0008176014660310A7E637852095201DB0662
:100DD000DB0E1A430A762030427B067B1302E26860
:100DE00033432332547C167C22023243934214D084
:100DF0000273120A4273C87D2843C8750DE001F0E2
:100E0000A8FD606A0022014620310A734A736030EF
:100E1000C17D2943C175D9480677012070BDD648E8
:100E2000C0682330417C027C080210430BD0D449B7
:100E300048780A7800021043032210430870000A21
:100E400048700120B3E7704730B4CE4CA44630BCA4
:100E50006047F8B5CA48407A000663D5C648C668F8
:100E600030462330417C007C0F02C5490743487857
:100E7000097804020C43002F01D1600752D5C04D00
:100E8000A87B697B00026D1C08434BD0002F49D022
:100E900068792979000208432ED12136707C317C93
:100EA0000002084302F036F80022B74B01F036FF8B
:100EB00002F03EF880B27843642101F0CBFD40049B
:100EC000010C2971080A68710A204143707D327D46
:100ED00000021043814206D30A21401E01F0BAFDF0
:100EE0002871000A6871687929790002084303D1E2
:100EF0000120287100206871A148A10709D50221AD
:100F00008C4301210C430470210A41700020FFF73B
:100F10004EFF68792A79010211439C4B0022402040
:100F2000FFF792FFF8BD1CB595494A7A002A3AD0DE
:100F30004A780B7812021A43D30634D443780478E3
:100F40001802204301282ED1C878401E0006000E4A
:100F5000C87029D008468B78017AC27909021143FA
:100F6000027BC47A12022243C01C012B24D0521AE5
:100F70000272120A42721206037A120C1A43531AB0
:100F800069460B804A807E498A7B497B12020A436C
:100F900069468A80417B027B080210436946C8800B
:100FA0007B49684688471CBD887AC8704020024348
:100FB0000A70100A48701CBD5218D9E7754A1047CC
:100FC000744A2032104738B5002469460C70214617
:100FD0007F20FFF7F5FF00213B20FFF7F1FF2921DC
:100FE0003B20FFF7EDFF69463B20FFF7E7FF684630
:100FF0000078800701D5012038BD641CA4B2FF2C05
:10100000F1D9002038BD10B563488047012010BDDC
:1010100010B55949614A8870002807D1C86880789E
:10102000022803D000209047012010BD0120FAE7DC
:1010300010B5514C0128E168887004D0002836D0E2
:1010400002284BD05EE0E06A014620310A7852085F
:1010500052000A700A78FD231A400A700178890943
:1010600089011C3101704178890989011C31417065
:1010700000217F20FFF7A4FF03212120FFF7A0FF1D
:101080001F210320FFF79CFF7D204249C0008031D3
:10109000884702217F20FFF793FF01210020FFF7FF
:1010A0008FFF00217F20FFF78BFF0F2127E000211A
:1010B0007F20FFF785FF00210420FFF781FF022139
:1010C0007F20FFF77DFF00210846FFF779FF002111
:1010D0007F20FFF775FF0021032011E002217F2010
:1010E000FFF76EFF03210020FFF76AFF00217F203A
:1010F000FFF766FF00210320FFF762FF00210420B5
:10110000FFF75EFFA078FFF783FF012010BD10B549
:10111000FFF78EFF012010BD1F4810B50C3080472F
:101120001548806A017ADF2211400172012010BD4A
:10113000FEB51A48183080470F4C0190A06A817A9A
:10114000007ACF07FF0F002672B6800702D0012673
:10115000FFF7E2FF0848806A817A490849008172F6
:101160000E49012088470220FFF762FF642017E044
:1011700027150000C11600005C300020200002404E
:101180006B310020AB4400000000F43F1F0E001044
:1011900033420000C561000007470000A76500005A
:1011A000F84966318847002469460C7025460121BC
:1011B0007F20FFF705FF00210A20FFF701FF222112
:1011C0000A20FFF7FDFE69460A20FFF7F7FE684692
:1011D00000784007EFD469460A20FFF7EFFE684623
:1011E0000078400705D568460078000706D4012539
:1011F00004E0641CE448A4B28442ECD3E1496420D6
:10120000663188470020FFF713FFE04901988847BF
:10121000DF48806A817A4908490039438172002E8B
:1012200001D0DC48804762B6002D01D00120FEBD10
:101230000020FEBD10B51121D74801F038FC10BDCB
:1012400070B50446401C01F04AFC022818D004285E
:1012500019D001214904884244D125462035687BB4
:10126000092301070209090F0020072A19D0032AC0
:101270001DD0022A22D0012A26D0002A2AD02FE00F
:10128000FFF7D8FF37E0C248FF21C068012235319F
:101290000A548078002801D1FFF74AFFFFF793FE38
:1012A00029E0581A062148434121C94304E0581A4D
:1012B000062148433521C943081A10E0581A06216F
:1012C00048432321C943F7E7581A06214843172109
:1012D000C943F1E7581A06214843801D404240B2F5
:1012E000687308E040281DD00121C903884202D15B
:1012F000601DFFF718FEA8494878097800020843E6
:10130000800607D5601C01F0EAFB0005000F01D044
:10131000FFF79FFD9E48343001F0E1FB0146204677
:10132000884770BD9A48303001F0D9FB4006E2D5BD
:1013300070BDF0B5964C0646E0688DB0FF302130A8
:10134000407C0D46002829D0002D26D072B6A0681A
:10135000183001F0C4FBE1683222FF312131897C71
:101360008E4B514340186A463221984762B6002E90
:1013700004D0E068FF302130807C3070E7680A21BB
:10138000FF372137B87C401C01F04EFBB974E07880
:10139000401CC0B2E0700A2802D900200DB0F0BD98
:1013A000684600780128D1D100A9072228460131DA
:1013B00001F064FB2A22E81D02A901F05FFB012075
:1013C000ECE7F0B5054676498DB020208847704C93
:1013D0000426E16820690F4686700822C01CC931C6
:1013E000BD3701F04BFB2069042239460B3001F078
:1013F00045FB0D216B4A03209047E06829460822EF
:101400000A31C13001F03AFBE0682946042212316A
:10141000B93001F033FB287A634F002802D1687A93
:1014200000281FD00020E070E0682A7A0146803052
:10143000837B9A420AD16A7AC07B824206D1082213
:101440002846903101F03EFB002817D06946002065
:10145000FFF76FFF012826D006220021534B012001
:1014600098479BE7E0680222817911430246817127
:10147000C132FF3011461030B84710E0E068817982
:10148000024631438171C13211469830B847E06855
:1014900080308079012802D14149022088474348A1
:1014A000A03080477AE7E16807226846873101F07B
:1014B00009FB0028B8D1E06801A92A228E30033147
:1014C00001F0DCFAB0E73A4908471CB53248082178
:1014D0000170002141700146087BCA7A0002C91CD4
:1014E00010432FD04A790B7912021A43821A92B212
:1014F0006B461A8058800623062A01D26A4613805A
:10150000062801D268464380487B097B00020843D5
:101510006946C8802048817B427B080210436946A7
:1015200088801B48C0682330417C027C080210433D
:1015300002D00020FFF73BFC1E49684688471C4943
:10154000402088471CBD144948780A78000210439F
:10155000C2050CD5FF22013290430870000A487082
:101560000879401E0006000E087109D0ADE7202260
:10157000104310229043042210430870000A487060
:1015800070470000C5610000FFFF0000A765000074
:101590005C300020074700006B31002059530000E9
:1015A000050B00004D11000019220000D9190000A0
:1015B000B344000033420000FEB5FF4D0446687896
:1015C00029780002084300077ED5FC4880476978E7
:1015D0002A78090211430822914329700A0A6A7085
:1015E0006B7A064628461A066FD5A27967791202E9
:1015F000651C3A43F24FE41C002A77D010221143B5
:1016000001700A0A427088065FD46879297900025D
:10161000084332D001F07EFC01910090607821787F
:101620000002084301F076FCE64C0022234601F05C
:1016300075FB019B009A01F071FB01910090F86825
:101640002130417C027C0802104301F063FC00223F
:10165000234601F063FB07460C46687A297A0002AC
:101660000843801B01F042FC3A46234601F056FB3A
:10167000019B009A01F0A0FA24E060782178000232
:10168000084301F02BFC0446F8682130417C027CC1
:101690000802104301F022FC214601F033FA01F068
:1016A00065FC0022C74B01F039FB07460C46687AFF
:1016B000297A00020843801B01F018FC3A462346B1
:1016C00001F02CFB002202E06DE063E00EE0BE4B77
:1016D00001F08CFB01F02CFC0104090C00D101216C
:1016E000BA4B00228020FFF7AFFB53E09A0651D59A
:1016F0008278012A4ED18A064CD4FF22AE480132AC
:1017000011430170090A4170607821780002084392
:10171000A9490A7BCB7A1102194388423AD901F0D0
:10172000DDFB0446F8682130417C027C080210434E
:1017300001F0D4FB214601F0E5F901F017FC00228D
:10174000A04B01F0EBFA07460C46687A297A0002B2
:101750000843801B01F0CAFB3A46234601F0DEFA3B
:101760000022994B01F042FB01F0E2FB0104090C5D
:1017700000D10121954B00228020FFF765FB8E48A8
:101780004178027809021143FF22013211430170AE
:10179000090A4170032069460881022291038C4C9A
:1017A00002AB0020A047FEBD10B50446007800281B
:1017B0000BD1A17862780802104307D001281CD011
:1017C000032802D1201DFFF7FCFD10BD01F0C1F878
:1017D0008049201D8847002802D12820FFF7A6F85D
:1017E000201DFFF7E9FE76480121C368062209049F
:1017F0000020774C3133A04710BD01F0AAF876499C
:10180000201D88470028F7D12820FFF78FF810BD4A
:1018100010B50078012801D1FFF79FF810BD70B511
:101820006E4886B0804701217F20FFF7C9FB6946DB
:101830005020FFF7C3FB68460078042801D06848B1
:101840008047FFF775FCFFF7BEFB01246846448024
:10185000048064480190644968468847684604707B
:101860004470002444806148554D0190604BE86805
:1018700008226946C01801F001F9504E01214020AC
:101880005E3EB04701218020B04701212020B047B3
:101890000B216846018041808480C480048144819A
:1018A0008481C4815348504904906846A2398847CE
:1018B000A8680A3001F013F93F4A4F4B573A5721B5
:1018C0009847012006B070BD444810B50A308047E3
:1018D000012010BD414910B528318847012010BDB5
:1018E0003E4910B55E318847012010BD3B4910B517
:1018F0006A318847012010BD384910B578318847D2
:10190000012010BD354910B588318847012010BD30
:1019100010B52F4C383CA047012010BDF8B5284C1D
:101920003649E0683730884720693B230178BF2576
:101930000A09E16812015B5C1B071B0F1A43027066
:101940001207120F012A7DD00B4640335A781B78BC
:1019500012021A430B4642331A70120A5A70027866
:101960008B7A2A409B011A435206520E027066235C
:101970005B5C42789B1D92099B0692019B0E1A4369
:1019800042700622801C0B3101F078F8E168662075
:10199000425C002A04D020696731083001F06EF8FB
:1019A000E0680021203041772069154A4178890696
:1019B000890E891C904725E06B310020BF5500003F
:1019C0005C3000200000F43F000059404715001033
:1019D000A13E00005D5B0000475F0000793D000014
:1019E000F7460000111800102F440000B30C00103F
:1019F000CE020000A917001059530000B157000093
:101A0000D9600000206901780A091201121D0270D4
:101A1000E1682A408B7ADB075B0E1A43027046238B
:101A20005B5C42789B1D92099B0692019B0E1A43B8
:101A300042700622801C0B3101F020F8E16846203C
:101A4000425C00E021E0002A04D0206947310830E0
:101A500001F014F82069FB4A41788906890E891C37
:101A60009047E56801272E462036F07E012839D0C0
:101A700000284AD0022848D0062846D00023F24C3D
:101A80001A4601211846A047F8BD0A46403213798C
:101A900053718B7A0278DB072A405B0E1A4302707F
:101AA00087235B5C5206520EDB011A4302704278B8
:101AB0000B31920992010C3242700622801C00F018
:101AC000DDFF2069E16806220830883100F0D6FF8A
:101AD000E16803223D2042548720405CDB4A883184
:101AE000904761E74035687900280AD02820062110
:101AF000626A937EFD24234093761775737F327F4D
:101B00003AE001206F710146F2E72C4642346078DA
:101B1000217802020A4316D02235697F19202B7FD3
:101B2000800109024243194301208904890C009174
:101B300005D0104600F078FF401C7F2809D8C5B2B8
:101B40002770380A0CE0380A27706070012500956C
:101B500007E07F2529467E3000F066FF2070000AEE
:101B60006070BB48406A817E02221143817607750E
:101B7000737F327F00992846B64CA047B5483E3067
:101B80008047F8BD10B5FFF7C9FE012010BD10B5A4
:101B9000B14903200870B14964208847B0488047A4
:101BA000012010BD72B60021A94A506A4175037C1C
:101BB00001210B430374D068452211544230017057
:101BC0000021417062B60120DAE410B5A5498847CA
:101BD000012010BDA34810B55C308047012010BD26
:101BE00010B5A1488047012010BD9F4910B50831AC
:101BF0008847012010BD9C4910B516318847012047
:101C000010BD994910B578318847012010BD904921
:101C100048700120B4E4944910B58631884701200A
:101C200010BD914A10B58E329047012010BD7CB591
:101C3000054600F054FF86490446303100F059FF54
:101C4000281D00F04CFF8249343100F052FF402043
:101C500084438648844901900094684696318847B9
:101C600001207CBD10B582498847012010BD804A03
:101C700010B508329047012010BD10B57D4880474F
:101C8000022801D9002010BD012010BDF8B50E4674
:101C9000074679491C4615460120884700280AD086
:101CA00074488047022807D92346714C2A4631469A
:101CB00038461834A047F8BD0020F8BD6F490847E2
:101CC00010B504466C4901208847002803D06B49B1
:101CD00020460831884710BD70B50546664A0C4657
:101CE00001209047002804D0644A21462846223229
:101CF000904770BDFFB50F4681B05F491D4616463F
:101D000001200A9C8847002807D000945B4C2B4692
:101D10003246394644340198A04705B0F0BDF8B5C5
:101D20000E46074654491C461546012088470028A0
:101D300006D02346514C2A46314638467C34A047CB
:101D4000F8BD10B504464C4901208847002803D04F
:101D50004A492046AC31884710BD70B50546464A11
:101D60000C4601209047002804D0444A21462846CA
:101D7000C632904770BD70B505463F4A0C460120FB
:101D80009047002804D03D4A21462846E832904733
:101D900070BDF8B50E46074637491C46154601206A
:101DA0008847002805D02346354C2A463146384618
:101DB000A047F8BD70B50D4606462F4914460120D0
:101DC0008847002805D02E4B22462946304630331E
:101DD000984770BD70B50D46064627491446012048
:101DE0008847002805D0264B2246294630465C33DA
:101DF000984770BDF8B50E4607461F491C46154664
:101E000001208847002806D023461D4C2A4631462B
:101E100038468834A047F8BD10B50446164901205D
:101E20008847002803D016492046B831884710BD9E
:101E300010B5114901208847002802D01048CC3045
:101E4000804710BD05610000A13E00007F570000E3
:101E50005C3000205F560000000002404562000038
:101E600007470000014100001D4200004112001020
:101E70002D4300002B4E0000F50A0000B73A000089
:101E8000BB3B000070B5F94D0446082804D0E86853
:101E9000407808280DD014E000217F20FFF790F84B
:101EA00001214020FFF78CF8A86A0178C908C90011
:101EB0000EE000217F20FFF783F800214020FFF78C
:101EC0007FF8A86A01786207C908C900520F114358
:101ED0000170E8684470012070BDD3E710B5044676
:101EE000E348804720700120ABE710B50446E04886
:101EF000801D804720700120A3E7DD4910B51C310B
:101F0000884701209DE7DA4810B5723080470120EC
:101F100097E7D8480047D8490847D7491A310847B2
:101F200008B5D649684688476846C0788007C00F1C
:101F300008BD08B5D149684688476846C078C009D9
:101F400000D0012008BD10B5FFF738F879E710B5CB
:101F5000FFF736F875E7C548406AC07B052805D00D
:101F6000062803D00F2801D000202DE601202BE603
:101F700010B5FFF7F0FF002802D1BD48523080476E
:101F800001205EE710B5B9490122486A4275437CD9
:101F9000DB09DB019B1C4374931E83741B0AC3740F
:101FA000896ACB7AEF242340CB724B7B93434B73EC
:101FB0008B7A13438B72817E022319438176017CD5
:101FC00011430174AC4905201A318847AC48804759
:101FD000012036E7AA4810B512308047012030E7CB
:101FE000A64910B57E31884701202AE7A34910B5DC
:101FF00096318847012024E7A14910B55831884718
:1020000001201EE79E49AC3108479D4910B5FA31C1
:102010008847012015E710B59A488047012010E74E
:10202000984810B51830804701200AE7954BA23335
:102030001847944BD8331847F8B507468B48002605
:1020400080680D463446283000F049FD2903C9193F
:1020500040180121C904884211D90020F8BD72B688
:1020600082488068283000F03AFD2103C9194018E1
:10207000854A01219047064662B6641CE4B2AC4230
:10208000EDD33046F8BD70B50446784816468068F2
:102090000D46283000F023FD034661194018012148
:1020A000C90488420AD8002B08D072B61819764B9A
:1020B00032462946EA3B984762B670BD002070BDA3
:1020C00070B504466948164680680D46283000F011
:1020D00006FD0346611940180121C90488420AD847
:1020E000002B08D072B61819674B32462946823B3E
:1020F000984762B670BD002070BD70B5634800247B
:102100000078614E594D00280DD001281ED024E0E2
:1021100072B6143000F0E3FC210340180121B047EF
:1021200062B6641CE4B2A868C17B827B09021143D9
:10213000A142EDD811E072B6103000F0D0FC2103BE
:1021400040180121B04762B6641CE4B2A868C17BA4
:10215000827B09021143A142EDD8012070BD70B508
:1021600004460D46000B421940488068C17B837BC2
:10217000090219438A4201D9002070BD4349424EE9
:102180000978002902D0012903D00AE072B6143080
:1021900001E072B6103000F0A2FC00192946B047E9
:1021A00062B6012070BDF8B5044638480F46017884
:1021B0002E48354D8068823D1646002902D00129FF
:1021C00003D00BE072B6143001E072B6103000F0AC
:1021D00086FC001932463946A84762B60120F8BD90
:1021E00030B4224B9C68E37BA47B1B0223431B037C
:1021F000834202D230BC0020704730BCC9B2D2E763
:1022000030B4234CA44630BC6047F3B5174889B0BE
:1022100080680024283000F062FC074609984609CF
:10222000002511E072B66801174BC01920216A46DB
:10223000EA3B984762B6002069460A5C401C1219C6
:1022400094B22028F9D36D1CB542EBD30998C60689
:10225000F60E72B6314668010B4BC0196A46EA3B6E
:10226000984762B60020694618E000005C30002004
:102270009F440000FB5F00002B6200004D650000E2
:10228000E5460000034800004354000014310020DC
:102290007B4A00000A5C121994B2401CB042F9D388
:1022A0000A98844202D101200BB0F0BD0020FBE768
:1022B000F8B5F8488047F84C607A002840D000060E
:1022C000042500280FDA60782178000208434007CF
:1022D00009D5FEF7BEFD6078217800020843A843C7
:1022E0002070000A60706078217800020843EB4F8C
:1022F000EB4E41060CD5402188432070000A6070E7
:1023000002206946088002466B4639460020B047E5
:102310006078217800020843C10711D040084000CE
:102320002070010A6170800702D56846058002E0CE
:1023300005206946088002226B4639460020B047D6
:10234000F8BDD848004738B5D74C2078002804D1CC
:10235000D6496846884701202070012038BD70B5F5
:102360000278002A49D0CC494A7242788A72002AFF
:1023700001D0042A01D904228A72C2788478130217
:102380002343C54A1C0AD372147344790579240285
:102390002C4315466C73240AAC73C47985792002EA
:1023A0002843D073000A1074BF480825C068D21CA7
:1023B0002130447C007C240204430120A342887025
:1023C00008D91B1B07E01071000A01E01571280AEB
:1023D000507107E0E31A8C7AA3420ADA1071000AFE
:1023E00050718B72887AC8700871FFF76EF80120FF
:1023F00070BDE400A342E9DAE5E7002070BDAA4918
:10240000096A0870020A4A70020C8A70000EC870CD
:10241000487A022210434872A7E538B504460020E6
:102420000090A249684688470099F8208143E00659
:10243000000E08430090FFF7E2FF38BD08B500200A
:1024400000909A496846884700980006C00E0090A0
:1024500008BD96487230004794495A31084794495C
:10246000084793491A3108479248004791490C316F
:102470000847F8B500260B4604460125304631468C
:102480002D03675C491CBE19A942FAD30021675C81
:10249000491C7840A942FAD39E4222D1904220D1D1
:1024A000814EB0680A3000F01AFB7B4900195722B0
:1024B000573900F0E3FAB0681C3000F010FBF16807
:1024C000001907220A3100F0D9FA01217A4A0020C6
:1024D0009047794B002022462946823B98470120AD
:1024E000F8BD0020F8BD70B5012605466E4C3603D8
:1024F000714B00203146EA3BA26998476F49284654
:102500008847A0681C3000F0EAFAA1690722401849
:10251000E1680A3100F0B2FA0121674A00209047D1
:10252000654B00203146823BA269984770BD10B5CB
:1025300004465D4880680A3000F0D1FA5E4B1021F5
:10254000EA3B2246573098477BE470B501260546A2
:10255000554C3603584B00203146EA3BA269984758
:102560000121554A00209047A0680A3000F0B7FAD0
:10257000A169102257314018294600F07FFA4E4BCE
:1025800000203146823BA269984770BD46484069A9
:102590000178C943890702D18078062801D000203C
:1025A000E3E40120E1E4464A1047F3B581B00600B8
:1025B00025D03D4FF8690446C17980790D02054365
:1025C000E01C00F08CFA0102A07801430C46002DBB
:1025D00017D0002C15D00121374B09030020EA3B0E
:1025E000BA699847B8680A3000F079FAB969673172
:1025F000405C401CC7B2032F05D90220FEBD01205C
:10260000FEBD0420FEBDB54204D10298844201D132
:102610000020FEBD0121284A00209047224CA068DE
:102620000A3000F05CFAA269234B11466731475427
:10263000012109030020823B98470320FEBD164874
:10264000012157380278184809078068002A03D00A
:10265000012A07D0002088E4C27B837B1002184344
:10266000400304E0C27B837B100218430003401840
:102670007BE470B5044608480D46573801780A488F
:102680000126B603806800291CD001291CD0002037
:1026900070BD00005B4600006B3100200080000030
:1026A000A13E0000F94B00005C3000204D650000A9
:1026B0002B620000776A000043540000A13D000037
:1026C000D9600000143000E0103000F008FA8019E2
:1026D00072B60019D14A2946904762B6D8E7F8B5D4
:1026E0000546CF480F460178CE480124A4038068F0
:1026F0001646002903D0012903D00020F8BD14306C
:1027000000E0103000F0EBF9001972B64019C34B2D
:1027100032463946EA3B984762B6F8BDF8B50546F9
:10272000BF480F460178BF480124A40380681646BD
:10273000002903D0012903D00020F8BD143000E0A7
:10274000103000F0CCF9001972B64019B34B324684
:102750003946823B984762B6F8BD10B5030000F0D9
:102760008CFD09060C16202A343E415B77000121BE
:102770007F20FEF725FC882104E001217F20FEF761
:102780001FFC8A216120FEF71BFC81215DE00121F5
:102790007F20FEF715FC8A216120FEF711FC8321C2
:1027A00053E001217F20FEF70BFC8A216120FEF718
:1027B00007FC872149E001217F20FEF701FC8A21E7
:1027C0006120FEF7FDFB8F213FE001217F20FEF716
:1027D000F7FB8A216120FEF7F3FB9F2135E0012101
:1027E0007F202BE000217F20FEF7EAFB0221302032
:1027F000FEF7E6FB01217F20FEF7E2FB1F216320AD
:10280000FEF7DEFB03216D20FEF7DAFB8A21612053
:10281000FEF7D6FBB02118E000217F20FEF7D0FBA9
:1028200002213020FEF7CCFB01217F20FEF7C8FB00
:102830001F216320FEF7C4FB07216D20FEF7C0FBBC
:102840008A216120FEF7BCFBBF216520FEF7B8FBA3
:102850007AE610B573488068283000F040F901210D
:10286000C904081A70E66E480078D5E5F8B5054643
:102870006C4E6B48B26900781446002801D00020E5
:10288000F8BD280502D02805000D2D1A72B60121C9
:10289000624F09030020EA3FB84762B60120C00436
:1028A0002146401B283100F024F90546204610300F
:1028B00000F015F90090281A4108009808182146E0
:1028C000143100F016F901460098081A0001000CB6
:1028D000A073000AE07372B60121504A00209047AD
:1028E00062B672B601214D4B09030020823BB269EA
:1028F000984731210020B268B84762B60120F8BD80
:102900004848484B00791B7902091B0709201B0F17
:10291000C01A062300215843072A08D0032A09D0E9
:10292000022A0BD0012A0CD0002A0DD00FE0412141
:10293000C94301E03521C943081A07E02321C943EF
:10294000FAE71721C943F7E7801D404241B2C8B2F8
:1029500062E510B500F055F8002804D000F051F8F9
:102960000128FBD0F0E500F04CF80028FBD000F087
:1029700048F80128FBD0E7E5F0B52A4C0025646A49
:10298000E678360701D50020F0BD00BF6D1CEDB222
:10299000642DFAD3254640356E7CB607FCD400255D
:1029A0002646C036377947556D1CEDB2022DF9D356
:1029B00046780125F709002F08D0F606F60E0E70AE
:1029C000157042785206D20F1A7004E0B3069B0EBF
:1029D0000B7000231370134B0A785B6A801CC033A2
:1029E000272A0CD20022C03403E026798654521CD8
:1029F000D2B20E789642F8D85D720120F0BD5D72B9
:102A0000C1E70848416A0A466032907C927C603196
:102A100001E0887C8A7C9042FBD1FDE443540000B5
:102A2000143100205C30002030B50B4601460020F8
:102A30002022012409E00D46D5409D4205D31D46C4
:102A40009540491B2546954040191546521E002DBC
:102A5000F1DC30BD70B500242546002801DA0124E0
:102A60004042002901DA01254942FFF7DDFFAC426F
:102A700000D04042002C00D0494270BD03460B43B9
:102A80009B0703D009E008C9121F08C0042AFAD224
:102A900003E00B780370401C491C521EF9D27047AA
:102AA000D2B201E00270401C491EFBD270470022E6
:102AB000F6E710B513460A4604461946FFF7F0FF3D
:102AC000204610BD30B504460020034600E05B1CE4
:102AD000934203D2E05CCD5C401BF8D030BD0321B3
:102AE000001D401E037812021A43491EF9D51046F4
:102AF0007047034603220870000A491C521EFAD58B
:102B000018467047F8B502464A40D40F42004B00C1
:102B100052085B089A4202D20246084611464A0011
:102B200023D0C30D4A00DDB2120EAD1A202D35DAC6
:102B300049020126490AF6058A19002C00D05242A2
:102B400020214F1B1146B9402A411018C20D9A424C
:102B500021D0002C17D0012D08DCDA05801AD20F05
:102B60008019D207DBB200F081FAF8BDDA05801ACD
:102B7000012340001B06C01880185A428018CA0F53
:102B80001043490007E04908C2071143DA05801ADB
:102B900080194008801800F061FAF8BD6100012238
:102BA000511A001BF7E70122D2075140AAE7012280
:102BB000D2075040A6E70000F0B507460846584047
:102BC00087B0C00F049048000E46590040084908DD
:102BD000BC1A884105D2384631461E4617460B4678
:102BE00002465800400810434CD0300D0390400579
:102BF0005900400D490D0590401A0290402872DAA4
:102C000018030121000B0905084301900498009264
:102C1000002805D00199524200208841009201907D
:102C2000029840210A1A0199009800F0E3F905463C
:102C30000C466B4607CB00F0FEF9C0197141039AB0
:102C40000E0D0023D71756401A467A40164344D03B
:102C5000049A002A2DD0029A012A039A15DC120543
:102C6000C01A914101263605001C7141D20F059E04
:102C7000D2070093019202962A46234600F03CFABE
:102C800007B0F0BD38463146FAE71605224A0F462E
:102C9000B218C01AB74101210905001C4F410018A4
:102CA0007F41114618187941E20F10436D196441B4
:102CB00013E0E2076D0815436408C2071443039A42
:102CC00001261205C01A91413605001C7141CE073C
:102CD000400830434908C01851412A46234600F0B5
:102CE000FEF9CDE7FFE7049801224000C117121A50
:102CF00000238B4104983146C417381AA141EEE7EE
:102D000030B40124E407634030BC55E730B40124FB
:102D1000E407614030BC4FE70000E0FFF0B51FB4AE
:102D200088B00B990998002448400999C00F4900C0
:102D300049080991C0070B990090490049080B9177
:102D400009990898A64608431CD00B990A9808438D
:102D500018D0099801244000420D4800410D0998FF
:102D600024050003000B204309900B980003000B7F
:102D700020430B9050181C49401800220190144623
:102D8000104605E0002001460DB0F0BD032801DA31
:102D9000034600E003239C46C11A0AAE0AE05F0026
:102DA00008ADED5B4F00F75B7D430027AA187C411F
:102DB000491C5B1E6145F2DD410004AB5A522104FF
:102DC000120C0A43240C401C0828DFDB01980290F7
:102DD0000099704601910090059B049A0799069806
:102DE00000F08AF9D0E700000DFCFFFFF0B50C46BB
:102DF0005C4085B0E40FE40703944C0000266408AF
:102E000059009446490802460296224321D0624660
:102E10000A431ED06200570D4A000E032303550DCE
:102E2000012402462C492405781B1B0B360B401845
:102E300023432643614600901C46501AB44103D3F5
:102E40000098401C009002E0921800985B41002816
:102E500003DA0020014605B0F0BD0020012109057C
:102E60000746864611E064461D46141BB54106D34D
:102E70006546521BB341744607430C43A646CD0733
:102E800040084908284392185B4105460D43EAD1A2
:102E90001046184313D0604619465040714008430D
:102EA00006D06046101AB34106D20122002306E084
:102EB00000220123DB0702E00122D24353100098D5
:102EC00074460105381C6141029C039D001969414B
:102ED00000F005F9BFE70000FD03000010B5002277
:102EE0009623114600F0C2F810BD00000EB5C217BF
:102EF000C10F5040CA0740180021054B02930192B0
:102F000000910A460B4600F0F7F803B000BD000040
:102F1000330400000EB505490291002100910A46D4
:102F20000B46019100F0E8F803B000BD3304000047
:102F30004A0009030123090B1B051943094B10B56E
:102F4000520D9A4201DA002010BD064B34339A42EA
:102F500003DC9A1A00F05EF810BD0349511888404E
:102F600010BD0000FF030000CDFBFFFFC20FD20722
:102F7000400040080BD0C10D0723DB01C9184002F7
:102F80000905400A1143C208400711437047002059
:102F900001467047F0B51FB40646002082B00546D2
:102FA0004024019100901BE0019922460F463046D3
:102FB00000F030F8049A059B801A994110D310460E
:102FC0001946224600F016F8361A8F41019722461C
:102FD00001200021009F00F00DF838184D410090AD
:102FE0002046641E0028DFDC019B009829463246FB
:102FF00007B0F0BD10B5202A04DB0146203A91400D
:10300000002010BD914020239C1A0346E340194341
:10301000904010BD10B5202A04DB0846203AD0406D
:10302000002110BD0B46D340D0402024A21A91406D
:103030000843194610BD10B5202A06DBCB170846F9
:10304000203A1041C1170B4306E00B461341D04014
:103050002024A21A91400843194610BD002904DA21
:10306000401C490001D140084000704770B4002462
:10307000050C05D11024000402D1002921D011240F
:10308000050E01D100020834050F01D10001241DF5
:10309000850F01D18000A41C002801DB4000641CC6
:1030A000002908D020252E1B0D46F540A14000D058
:1030B00001212943084301061B1B000ADB1D02D521
:1030C000002070BC7047DB05181880180029F8DA5A
:1030D000401C4900F5D170BC40084000704710B555
:1030E000002B08DA0024401C614192185B411A430E
:1030F00001D14008400010BDF0B51FB482B00546B4
:103100000C0003D0084600F0A1F802E000F09EF8A1
:1031100020300246009021462846FFF76BFF049BB3
:10312000059A04460F4618431143084314D0184625
:1031300010431BD0009840210A1A18460599FFF742
:1031400069FF05460E46009A05990498FFF752FF5D
:10315000084305D0012004E02046394607B0F0BD01
:103160000020C11705430E432C43374300990E98A6
:103170006305401A7905E40A00220C43FD0A0A306F
:1031800002D500200146E9E70105101969410C9CB0
:103190000D9D00196941FFF7A2FFDFE74A0009030F
:1031A0000123090B1B0519430A4B10B5520D9A4216
:1031B00002DA0020014610BD064B34339A4203DC8C
:1031C0009A1AFFF727FF10BD034BD218FFF712FF23
:1031D00010BD0000FF030000CDFBFFFF10B500296C
:1031E00004DB0124E40740428C412146002B04DB30
:1031F0001C460123DB075242A341994200D1904271
:1032000010BD0000064C0125064E05E0E36807CC22
:103210002B430C3C98471034B442F7D3FCF754FFCF
:10322000503B0010703B001037B514460846064B63
:103230006A46214600F0EAF804466946002000F09C
:1032400081FC20463EBD0000453B00102021020CC1
:1032500001D010211046020A01D010460839020997
:1032600001D01046091F820801D01046891E42086D
:1032700001D0881E7047081A704730B47446641E27
:103280002578641CAB4200D21D46635D5B00E318E9
:1032900030BC184702E008C8121F08C1002AFAD142
:1032A00070477047002001E001C1121F002AFBD1C6
:1032B00070470000F0B51FB484B007980699020D5E
:1032C000014314D04A484B491018484305140F983D
:1032D00001280E981CD0281A401C0024464E47494D
:1032E000009401910290002814DA474227E00F98D9
:1032F000012443A3012808D0002104980F9A846078
:103300000360C260416009B0F0BD0E98C143F4E7AC
:103310004042E2E7074612E0F80707D0224633466C
:1033200001990098FFF7FAFC01910090224633467C
:1033300010461946FFF7F2FC04460E467F10002F98
:10334000EAD10298019B0028009A0799069802DAB0
:10335000FFF7E4FC01E0FFF749FD04460E460022BA
:10336000284BFFF73BFF03D80020C043014607E08E
:103370000022254B20463146FFF71EFCFFF70EFFCB
:10338000102409E0002C0ADB0A220023FFF702FECA
:10339000059B30321A55641E02460A43F2D11122AF
:1033A000641C059B121B1C190F9B012B03D00123CE
:1033B00008430ED10AE0084304D011200E900020EB
:1033C0000F9084E70E98151A6D1E0BE00E9882423E
:1033D00002DD00236D1C03E0824201DA00236D1E32
:1033E000002BEED004980F998260C16030C08AE74C
:1033F00001FCFFFF104D0000000024400000F03FE2
:10340000300000000000F0430000E03FFFB597B03F
:103410000646002518E2252877D100242746FD49D5
:10342000049400E00443761C32780120203A904056
:103430000842F7D130782A280ED00222307801468F
:103440003039092916D804990A23594330394018CC
:103450001443761C0490F1E7189802C80491189060
:10346000002904DA0120400304434842049002206A
:103470000443761C30782E2814D10420044370783D
:10348000761C2A2809D11898761C80C8189009E063
:103490000A214F43303FC719761C30780146303936
:1034A0000929F5D930786C2810D006DC4C281AD0C0
:1034B00068280ED06A2817D104E0742813D07A281F
:1034C00012D110E00120400504430CE00121090560
:1034D00001E0032109050C437178814203D10120E9
:1034E00000052418761C761C3078119066280BD0C5
:1034F00013DC58287DD009DC00287BD04528F6D085
:103500004628F4D047281AD1A5E118E0632835D021
:10351000642870D0652812D19DE170286CD008DC39
:103520006728F1D069287BD06E280DD06F2806D18E
:10353000BAE073282ED0752871D0782859D01A9AFD
:10354000199990476D1C7EE16002400F022809D056
:1035500003280DD00428189801680DD00D60001DB7
:10356000189070E11898EA1701680D604A60F6E754
:10357000189801680D80F2E70D70F0E718986A4618
:1035800001781172001D18900020507202A800905E
:10359000012005E0189802C8189000200091C0434F
:1035A00061070DD5002101E00199491C0191B94243
:1035B00012DA8142F8DB009A515C0029F4D10BE069
:1035C000002101E00199491C01918142FADB019A35
:1035D0000099895C0029F5D1019904981A9B471A32
:1035E00021463846199A00F097FA01994019451872
:1035F0000BE04FE02CE113E04EE0009800990078DA
:10360000491C00911A9A199990470198401E0190FF
:10361000401CF2D1214638461A9B199A10E137E036
:103620000A200021009001916002410F022907D079
:10363000189A01CA1892C2179446032908D00AE0C2
:103640001898C01DC108C90005C91891944607E023
:1036500000B2C2179446042902D140B2C1178C4669
:1036600000226146944506DA0A4600214042914113
:103670008C462D2102E0210504D52B216A461173C9
:10368000012103E0E10701D02021F7E7029155E095
:103690000A200AE0102008E01020009000210420F9
:1036A00004430191082703E00820002101910090C4
:1036B0006002410F022907D0189A01CA189200220D
:1036C0009446032908D008E01898C01DC108C90015
:1036D00005C91891944603E080B2042900D1C0B214
:1036E00000210291210729D51199702906D0009A4D
:1036F0001021019B4A401A4305D00EE040216A4642
:103700001173012108E06146014306D030216A4669
:1037100011731199517302210291009A0821019BA2
:103720004A401A430AD16146014301D1610705D5D8
:1037300030216A46117301217F1E02911199582987
:1037400004D035A10E910DA90D910DE037A1F9E737
:103750006146019B009AFFF71DFC0E9B8C469B5C0B
:103760000D9A521E0D92137061460143F0D10D98CF
:1037700005A9081A20300190600703D50120000434
:10378000844300E001270198874201DD381A00E0F8
:103790000020019900904118029809180498401AD5
:1037A0000490E00306D421461A9B199A049800F06D
:1037B000B3F94519002706E003A81A9AC05D1999C4
:1037C00090476D1C7F1C02988742F5DBE0030CD507
:1037D00021461A9B199A049800F09EF9451904E0B5
:1037E0001A9A3020199990476D1C0099481E009034
:1037F0000029F5DC08E00D980D990078491C0D9121
:103800001A9A199990476D1C0199481E0190002938
:10381000F1DC63E1092801003031323334353637C9
:10382000383961626364656600000000303132330C
:1038300034353637383941424344454600000000AC
:1038400000F05AF94519761C3078002800D0E2E5DE
:1038500028461BB0F0BD600700D406271898C01D8D
:10386000C108C90048680A680831C30FDB0718910E
:10387000190001D09CA108E0210501D59BA104E01D
:10388000E10701D09AA100E09AA1430011985B08DA
:10389000109165280CD006DC452809D046281DD09B
:1038A000472841D141E0662818D067283CD13CE048
:1038B0000021112F01DB112000E0781C0191009004
:1038C00008A911A8FFF7F6FC139905910021119A98
:1038D00015927F1C12980197009150E00120C007BB
:1038E00003900120019008A9009711A8FFF7E2FCBE
:1038F000139A149905920022119B00921298159325
:10390000059A0192002901D0104602E0791C401866
:103910000190381A01D5019804E04042401E009001
:10392000781C0190C01B029043E0012F00DA0127B0
:103930000021112F01DD112000E038460191009097
:1039400008A911A8FFF7B6FC13990591119A002157
:10395000129815920091019721070CD40599B9424C
:1039600001DB019900E00191012904DD159A491E4E
:10397000515C302906D0B84201DA011D05DA012177
:10398000029115E00199491EEDE7002805DC009938
:10399000411800910199091A03E0019A411C9142D2
:1039A00000DD01910099401A401C02900120C007DF
:1039B0000390200706D402990198814202DB00207F
:1039C000C043029000206946C87707AF01210398E1
:1039D0000337C907884224D0022011902B2012906F
:1039E000039800280CDA404203902D20129007E043
:1039F0000A210398FFF718F830317F1E03903970C1
:103A00001199481E11900029F2DC03980028EFD18B
:103A1000791E129808703078202108404530BF1E6A
:103A2000387006A8C01BC01D0390109800780028AD
:103A300000D00120019941180298C0170918039875
:103A400009180498401A401E0490E00306D4214649
:103A50001A9B199A049800F05FF84519109800789D
:103A6000002803D01A9A199990476D1CE00324D5B9
:103A700021461A9B199A049800F04EF845191CE04B
:103A80000098002807DB00990598884203DD159807
:103A9000405C199901E0199930201A9A90470098D2
:103AA0006D1C401C00900298401E0290002804D11A
:103AB0001A9A2E20199990476D1C0199481E019061
:103AC0000029DDDC05E038781A9A7F1C19999047A7
:103AD0006D1C0399481E03900029F4DC21461A9BB3
:103AE000199A0498ACE600002D0000002B0000009D
:103AF0002000000000000000F8B5044600251E4626
:103B00001746880404D405E039462020B0476D1CD0
:103B1000641EF9D52846F8BDFFB50446002581B0DE
:103B20001E46C80301D5302700E02027880404D5AD
:103B300005E038460399B0476D1C641EF9D5284648
:103B400005B0F0BD0A68531C0B6010707047000090
:103B5000703B0010003000209400000094320010F0
:103B6000043C001094300020EC040000A43200104B
:103B700000000240000000006010005024100050BF
:103B800014100050181000501000004000000000F9
:103B9000000102030405060708090A11121314158F
:103BA000161718191A1B1E1F000102030405060927
:103BB0000A07081115121617181319141A1B1E1FBD
:103BC000D0000150E00001500024F4000004000087
:103BD00000000000ED050020DF0000208F05002020
:103BE000C60500204A070020140000209010005055
:103BF0000000024000100050601000500000000063
:043C000000000000C0
:04000005100000C126
:00000001FF
