:020000041000EA
:1000000018430020011A0010091A00108F07001071
:1000100000000000000000000000000000000000E0
:100020000000000000000000000000000D1A001099
:1000300000000000000000000F1A0010111A00104C
:1000400000000000131A0010EF4D0010131A0010EA
:10005000131A0010131A0010391300106313001044
:10006000914600104147001035480010131A001047
:10007000C9110010131A0010131A0010131A0010DF
:10008000131A0010131A0010131A0010131A00107C
:10009000131A0010131A0010131A0010131A00106C
:1000A0000000000000000000000000000000000050
:1000B0000000000000000000000000000000000040
:1000C0000348854605F0BEFA004800479506001033
:1000D00018430020F8B50027FC4800970068FF216E
:1000E00020303D463C463E46017041709F22827062
:1000F000CF22C270017138460122811F0B0005F02A
:100100000AFB0B070707070C0C0C0C0C10100C005B
:10011000114681400D430C4303E0114681400F43DB
:100120000E43401CC0B22028E7D3284600F096FFBB
:100130002946002000F05FFF2846A04300F0FCFFA6
:10014000204601F011F83846009900F09FFF314633
:10015000002000F01DFFF8BD70B586B00020694694
:100160000872072048741920800148821E20888266
:1001700002A802F042FD684602F02DFD6946D4480F
:100180004E78C6728D780573CC7844730B7983737F
:100190004A79C273897901741B3006714571847183
:1001A000C37102724172024614231B211B3802F0F4
:1001B0002AFDC8490120087506B070BD0EB500289B
:1001C00002D001280FD106E010206946C880C8205F
:1001D0004881002006E050206946C8804B20C000BE
:1001E00048810A200881C0206946087104204871AE
:1001F00001A803F0A1FA6946488900900B89CA88D2
:10020000B5A1002001F052FB0EBDB14910B50C396B
:100210008878401CC0B28870032808D3002048703A
:100220000120FFF7CBFFFF20013004F0F0F810BDF4
:100230003EB5A74C0C3CE278D2070ED001246A46AA
:100240001480032555801F259580148103460A4696
:100250006946204602F00EFF3EBD00203EBD9C4A8E
:1002600010B50C3A9088401C81B2A748918009C80B
:10027000984205D1032903D90020507004F048FAB0
:1002800010BDF0B5A04E85B035687468A54231D078
:100290008F4F0C3F7878002807D10120787000201C
:1002A000B8809A49A32004F003FA01239B02A542D7
:1002B00001D32D1B01E0281BC518142D1CD31F468C
:1002C000834900200C398880914B69461A5D641C73
:1002D0000A54BC4200D30024401CC0B21428F5D3F9
:1002E00014216846FFF7A4FF002803D0143D746072
:1002F000142DE5D205B0F0BD002DFBD0B888032841
:10030000F8D30020694608E0814A125D641C0A5453
:100310009C4200D30024401CC0B2A842F4D3E9B2EE
:100320006846FFF785FF002800D074600020B88081
:10033000E0E7F0B504468DB0401C04F0F1FDC11FAC
:10034000FF39FA3919D0FF2101310027884239D10C
:10035000402000F021FF0822611D03A804F0A6FD43
:100360006846C0891521490288421AD169A003C88C
:10037000019100900820694621E0802000F00CFFE8
:1003800021460E221531684604F090FD1E22611DA3
:1003900004A804F08BFD04AD0FCD00F0FDF90DB005
:1003A000F0BD5E498842FAD16846077001976946F8
:1003B00001A8029700F08CFC684601A9007802F0C1
:1003C0004AFEECE7424E01210C3E02281FD04E4D62
:1003D00004282DD04A03641C904256D160792279BA
:1003E000000210430128DAD1607A237A02023046F3
:1003F0001A43C078012A38D08843F070002001F0F9
:10040000E5FEFF20013000F0AFFE45A139E031707C
:10041000FF20B770013004F05BF80120400200F0CB
:100420008BFE0623A21D44A1002001F04BFAB6E783
:10043000627945A1002001F039FAF77037706868D9
:10044000012464022860204603F0E1FFFFF784FEE8
:1004500002F0F6FC204600F087FE601000F084FEFB
:10046000002001F0B3FE3FA10BE00843F070012033
:1004700001F0ACFE68682860FF20013000F05CFEEF
:100480003DA1002001F012FA89E70121C903884249
:100490001AD16079217900020843030005F03BF985
:1004A0000605929496989A0479E739A1002001F004
:1004B000FDF9684602F099FD6846438802883AA132
:1004C000002001F0F3F96AE786E0000058300020D0
:1004D0000C30002000000240736D6172745F706127
:1004E00072616D7320696E74657276616C3A2578FD
:1004F000206C6174656E63793A2578207376746F29
:100500003A25780D0A000000343500205F02001003
:10051000343100205359445F5541525401FF0000CB
:1005200055415254206E6F74696679204469736135
:10053000626C6564210D0A00436F6E6E65637465BD
:100540006420616464723A00446973636F6E6E651F
:10055000637465642C7265736F6E3A30782530323F
:10056000780D0A00737461727420616476204020F3
:1005700064697363210D0A0055415254206E6F74F3
:1005800069667920456E61626C6564210D0A000020
:1005900075706461746520727370204143434550E7
:1005A0005445440D0A000000696E74657276616CF2
:1005B0003A2578206C6174656E63793A25780D0A66
:1005C00000000000B4A15CE7B9A15AE7BEA158E75A
:1005D000C3A156E7C7A154E70121090488420DD100
:1005E00001A802F002FD6846008900906846C388B1
:1005F0008288C5A1002001F059F9D0E60128FCD17C
:1006000002F01EFCCBE6F8B5C74C2078002821D0BC
:1006100001270026C54D7F02030005F07CF8091B69
:10062000060E1C1B1B1B2F0E1B0000F035FAC0A171
:10063000002001F03BF9022029E02878401CC0B2DC
:100640002870202806D9BDA1002001F02FF93846D6
:1006500003F0DDFEF8BD2670384603F0D8FEBAA1DF
:10066000002001F023F97D20C00000F0F9F9BAA1C3
:10067000002001F01BF902F0B0FEF8BD1E210020A1
:1006800002F0DCFEAAA1002001F010F90820207081
:100690002E70F8BD72B600F0C5F8002002F003FE1F
:1006A00001F06FFD002001F028FEFF20F53003F07F
:1006B000F0F801F032FE00F073FFACA3AEA2B1A1DE
:1006C000002001F0F3F8B549022003F0A2FF00F08A
:1006D00073FEB349022004F076FB00F091FEFFF7B1
:1006E000F9FC00F0AFFDAF4800210160416002F06D
:1006F000A7FB62B6AC4DAD4E8B4CAD4F02F0C2FFC6
:1007000000F076F82078012801D0072801D1FFF702
:100710007AFF2868002814D0800509D5FFF773FFF9
:100720000120400203F0CFFEA2A1002001F0BEF89C
:100730002888C00505D5FFF768FDFF20013003F0CC
:10074000C2FE3068002814D0C00706D09DA100204A
:1007500001F0ACF8012004F0ADF93078400708D57D
:1007600001F0DBFD9BA1002001F0A0F8042004F0C3
:10077000A1F92078012801D1FFF745FFF878C007DB
:1007800002D0FFF77EFDB9E702F0F7FDB6E795A1CD
:10079000002001F08BF8FEE70FB4F8B569464A8BEC
:1007A000897F06A8022A09D0934B9A4202D1C01D24
:1007B00000F089F9F8BC08BC04B01847794B17243D
:1007C0001A6862438D4CA154012207E08518AE7966
:1007D0001D6817277D432D19AE54521C9142F5D246
:1007E0001868401C18603228E4D300201860E1E744
:1007F000F8B56C4C25686068A84212D07F4E00277F
:100800006068A8420DD017214843315C8019401C14
:1008100000F015F96068401C60603228F0D3676012
:10082000EEE7F8BD10B588B002F01EF9012002F025
:10083000E2FB5F48083002F009FC03216A461173AD
:1008400000245473907BFB228843401C10406A466E
:1008500090731020D0731474517403A802F0B9FB84
:10086000C02005906648069005A802F0D4FB002041
:1008700002F0C4FDFFF770FC6A461470D470147166
:10088000547001209470D11D800204F053FB68461F
:1008900002F019FD08B010BD7570646174652072B6
:1008A00073702052454A45435445440D0A000000E8
:1008B000757064617465207273702054494D45529F
:1008C0004F55540D0A000000757064617465207204
:1008D000737020535543434545440D0A0000000002
:1008E000456E61626C65206C6174656E63790D0A9A
:1008F0000000000044697361626C65206C6174657E
:100900006E63790D0A000000434F4E4E5F55504410
:100910004154455F434F4D503A2025642C202564B7
:100920002C2025640D0A00003C3000203D300020C2
:100930004F54412073746172740D0A004F5441206A
:100940006661696C650D0A004F54412066696E69E5
:1009500073680D0A000000005374617274205265C0
:100960007365742031303030730D0A0031333A33FF
:10097000303A3031000000004170722031392032AD
:1009800030323200537964383831315F5541525436
:100990002025733A25730D0A00000000EC39002071
:1009A0001C3A0020BC390020FC300020143100200B
:1009B000003000204556545F31535F4F54410D0ABB
:1009C000000000005254434556545F3130530D0A25
:1009D000000000005254434556545F313835530DE2
:1009E0000A0000004552523A20486172644661751F
:1009F0006C74210D0A00000001FF00003C3500204E
:100A000033030010FEB501A9684600F07BFC00200E
:100A100001266A46104901AC104DB60213780BE06E
:100A20000F68225CEA550A68521C0A60B24201D380
:100A300000220A60401CC0B29842F1D3FEBD70B5DE
:100A40000D460646002404E0305D00F050FC641CB6
:100A5000E4B2AC42F8D370BD34350020343100200C
:100A60000022064B06E00021491C89B29942FBD3C3
:100A7000521C92B28242F6D3704700008C0A0000EA
:100A800010B5E74B0E241B691C70541C5C709870E9
:100A9000D81C04F00BFA10BD08B502F02EFD0020A2
:100AA0006946087001221620FFF7EAFF08BD002200
:100AB000DB49002801D00A704A704A80CA808A80C7
:100AC0000A81CA607047FEB5D54D0E46698800247C
:100AD000002905D02A78002A02D06C7000219FE0FE
:100AE0000178032615296DD01CDC112935D0122977
:100AF0003ED0132941D0142922D1C17982790E0226
:100B000016436E80417A027A0F021743EF80801CF1
:100B100004F006FAE860AC802C8133460246C1A19D
:100B2000009773E001277F0216290AD020294DD0B3
:100B3000232957D0242903D1801C00F048F92E70B6
:100B4000FEBD0020FFF73AFBC3A1002000F0AEFE7F
:100B5000384603F0BDFC012007E00020FFF72EFB24
:100B6000C1A1002000F0A2FE04202870EC60FEBDB0
:100B7000801C00F0BFF805201EE0871CC01C04F09C
:100B8000CFF901463A78BD4802F08BFE0646781C44
:100B900004F0C6F90346387800903246B8A1002028
:100BA00000F084FE002E09D068460471012201A9DC
:100BB0001820FFF765FF06202870FEBD012069465A
:100BC0000871F3E7801C00F0CBF8B8E70020FFF7CE
:100BD000F5FAB1A1002000F069FE384603F078FC78
:100BE0000720C2E7C17982790E0216436E80417AEE
:100BF000027A0F021743EF80801C04F091F9E8603D
:100C0000AC802C8133460246A8A10097002000F05A
:100C10004DFEFEBD435C2C891B19491C2B8189B2FA
:100C2000B142F7D381071AD001463246AD4804F0ED
:100C30003DF92878022806D0012804D0082808D0D9
:100C4000072806D023E0A988E868A64A401831465C
:100C500015E0A988E868A34A4018314615E0704BB2
:100C6000D9689B88CB18022A06D0012A04D0082A0A
:100C700008D0072A06D00AE002463146184602F09C
:100C8000AFFC04E002463146184602F01AFCA88880
:100C9000801981B2A98068888142BAD32A89E888FC
:100CA000824204D1002000F04CF88FA103E0012023
:100CB00000F047F890A1002000F0F8FDEB882A89A9
:100CC00091A1002000F0F2FD0020FFF7F0FEFEBD34
:100CD00070B5534C0D4621694A7821461431921C57
:100CE00004F0E4F820694078801C287000206061DE
:100CF000A06170BD38B504464078217800020843F1
:100D00000121090388421BD8A27882188A4201D99E
:100D1000091AA1705949A2784018E11C04F0C6F8DC
:100D20006078217802020A43A37882A1002000F0B3
:100D3000BDFD00206946087001221720FFF7A0FEC4
:100D400038BD1CB56B465970090A9970DA70110AE2
:100D500019711870052269461420FFF791FE1CBD19
:100D600038B504465F4820300179002905D0203885
:100D7000006A5C4A400102F033FC204604F0D0F8DF
:100D8000617922790B021343024671A1002000F021
:100D90008DFD204604F0C4F8617922790B021343DB
:100DA00002460021084602F02AFC044602466EA1D3
:100DB000002000F07BFD002C07D000206946087061
:100DC00001221820FFF75CFE38BD0120F6E738B598
:100DD000044604F0A5F8617922790B021343024618
:100DE0005BA1002000F062FD204604F099F86179D3
:100DF00022790902114302F007FC044602465FA172
:100E0000002000F053FD002C07D000206946087038
:100E100001221820FFF734FE38BD0120F6E700005C
:100E20003C300020434D445F46575F57524954457C
:100E30005F5354415254206F66667365743A257847
:100E40002C73697A653A257820636865636B7375DE
:100E50006D3A25780D0A0000434D445F46575F45C3
:100E6000524153450D0A0000344B53455454494EEA
:100E7000475F4552415345200D0A00004A070020B4
:100E8000436F64655570646174653D256420257801
:100E90002025780D0A000000464C41534844415437
:100EA000415F4552415345200D0A0000464C4153D5
:100EB00048444154415F57524954455F535441524D
:100EC00054206F66667365743A25782C73697A6569
:100ED0003A257820636865636B73756D3A25780DE4
:100EE0000A000000C439002073656374696F6E20C6
:100EF0004F4B21200000000073656374696F6E2002
:100F00006661696C652120006F74615F726563655D
:100F10006976655F636865636B3A2578206F7461F5
:100F20005F73656374696F6E5F636865636B3A25B1
:100F3000780D0A00636D64344B53455454494E4751
:100F400057726974652025782025780D0A00000005
:100F50006F746120737A3A257820636865636B73D8
:100F6000756D3A2578200000436F646555706461A3
:100F700074657632303D25640D0A0000436F646568
:100F80005570646174657633303D25640D0A000048
:100F9000F0B5AA4C221D9446002829D0012826D15C
:100FA000A74B002B23D0002001228240114207D002
:100FB0001F5C01252668BD402E432660914302D068
:100FC000401C1828F0D3182001252A4682402B46C1
:100FD000114209D0644606462478183EB3401C43AB
:100FE00063461C70914302D0401C2028EDD3F0BD15
:100FF000934B183BD5E7F0B5904C221D9446002842
:1010000029D0012826D18E4B002B23D0002001228D
:101010008240114207D01F5C01252668BD40AE43C7
:101020002660914302D0401C1828F0D318200125D7
:101030002A4682402B46114209D06446267804464F
:10104000183CA3409E4363461E70914302D0401C4F
:101050002028EDD3F0BD7A4B183BD5E7784910B581
:1010600030394A6814782146547824022143947810
:10107000D378240421431B06194381431170080AC5
:101080005070080C9070080ED07010BD70B56C4E8A
:10109000303E73681D782A465D782D022A439D787C
:1010A000DC782D042A432406224302431A70140AD2
:1010B0005C70140C9C70120EDA70F3681D782A466E
:1010C0005D782D022A439D78DC782D042A4324067E
:1010D000224302431A70140A5C70140C9C70120EA6
:1010E000DA7008229C1825782A4665782D022A4352
:1010F000A578E4782D042A432406224382431A72F9
:10110000100A5872100C9872100ED87208201A1813
:10111000147820465478240220439478D27824040A
:1011200020431206104308431872010A5972010C39
:101130009972000ED87270BD414910B530398A6875
:10114000147821465478240221439478D3782404D7
:1011500021431B06194301431170080A5070080C03
:101160009070080ED07010BD354910B530398A68BE
:10117000147821465478240221439478D3782404A7
:1011800021431B06194381431170080A5070080C53
:101190009070080ED07010BD294910B530398A689A
:1011A000147821465478240221439478D378240477
:1011B00021431B06194341401170080A5070080C66
:1011C0009070080ED07010BD10B51D4C1820303C2A
:1011D000236919180A7810464A78120210438A784F
:1011E000C978120410430906084310215A181378CD
:1011F000194653781B0219439378D2781B0419437C
:1012000012061143884318D06069002800D0804737
:10121000216918200A181378184653781B021843BE
:101220009378D2781B041843120610430870020A00
:101230004A70020C8A70000EC87010BD80100050F9
:1012400088300020F8B552480068C17B89098901BF
:10125000C91CC173017C89098901091D01742030F1
:101260008178DF22114081708378BF210B40837029
:10127000484C206883785B085B00837003781B0907
:101280001B010833037003785B065B0E0370037861
:101290000B400370C37810252B43C370837804255B
:1012A0002B438370857820231D4385708678EF2536
:1012B0002E408670867880273E43867086780E4062
:1012C00086700178294001700178114001708178A1
:1012D000022211438170C1781943C170062000F0C9
:1012E0004DF820688178082211438170F8BD2949A2
:1012F0000968487008788006FCD50878DF2210401D
:101300000870704738B500226C462270214B1B686C
:101310000DE01C798C546D46521C2C78D2B2641CA2
:101320002C702C78641C2C702C78641C2C70DC784D
:10133000E407EED0027038BD10B5164C2068017875
:10134000C90605D50178EF2211400170FFF75AFB5D
:1013500020688178890703D5817802221143817042
:1013600010BD10B50B4840680178C90605D5017855
:10137000EF2211400170FFF745FB10BD002805DB8F
:10138000C106C90E0120884003490860704700006B
:1013900058300020A030002000E100E00F48FF227C
:1013A000016801321143016070470C480122016855
:1013B000520211430160704710B57D242401FF20C3
:1013C0000023074A2146013002F048FF0120002394
:1013D000044A2146400202F041FF10BDFC300020CB
:1013E0009D130010AB1300100F4801220168114338
:1013F000016070470C480422016811430160704786
:1014000010B50023094A0A21012003F0E8FA00235D
:10141000074AB921042003F0E2FA012003F087FB18
:10142000042003F084FB10BD14310020E9130010E8
:10143000F513001010B5604C0120206160615FA0C1
:10144000A06120464830E061012080020021A162B5
:101450002062616259A0E16220635B48606321649D
:101460001020E163A063616458A1E01D03F04FFD0B
:1014700057A1204603F04BFD2020A07110BDF7B509
:10148000054682B000200090EC6817462869A0420B
:1014900001D9061B02E0A968201A0E1AA868761E58
:1014A000001BB04200D80646BE4200D33E466868E4
:1014B00032460019039903F0F9FC0098BF1B80190C
:1014C00000900398A41980190390A868A04200D145
:1014D0000024EC60002FD9D1009805B0F0BDF7B51D
:1014E0000446C7688068E168C51B606816464018F6
:1014F000B54205D9019903F0D9FCB819E060FEBDE9
:101500002A46019903F0D2FC0198761B4119324614
:10151000606803F0CBFCE660FEBD70B50E46182196
:101520004843254914464518E86A1835002804D070
:1015300001280FD0022805D113E0284600F031F829
:10154000A04201D2002411E0224631462846FFF78E
:10155000C6FF0BE0284600F024F8A042F4D204466F
:10156000F2E731462846FFF78AFF0446204670BD61
:10157000F8B507461048154600780E46002801D1F8
:10158000FFF758FFEFF31084012080F310882A46FC
:1015900031463846FFF7C1FFE1B281F31088F8BD4C
:1015A00048E70269C1688A4203D88068401A8018F7
:1015B00000E0501A401E70474C3A00205465726D8E
:1015C000696E616C00000000943E0020525454008B
:1015D000534547474552000010B50446806863688C
:1015E000421C934205D323681954A260E068401C52
:1015F000E060A2686068824209D121682069FFF733
:10160000B7FFA168884203D00020C043E06010BD4E
:101610000020A06010BDFFB581B001261F463546F1
:101620000A9C029802E003F017FC6D1C03998842A3
:10163000F9D2AF4200D93D460B98C00718D1002C13
:1016400016D00B98800701D5002F02D020200090E3
:101650000CE03020FBE7641E00990198FFF7BCFF07
:101660000198C06800283DDB002C01D0A542F2D3D0
:101670000198C068002835DB012F01D97F1E06E0E4
:101680003146029803F0E8FB0399884202D303989D
:101690004643F1E7D24F3146029803F0DDFB0146A5
:1016A000029A7143511A0291395C0198FFF794FF35
:1016B0000198C068002805DB3046039903F0CCFB95
:1016C0000600E8D10B98C0070CD0002C0AD0A54228
:1016D00008D22021641E0198FFF77EFF0198C068A0
:1016E0000028F2DA05B0F0BDF7B59AB007A802906D
:1016F0004020039000200C461A99154604900826B5
:10170000069105902178641C00296ED0252907D008
:1017100002A8FFF761FF05980028F3DA1DB0F0BDBD
:101720000122002013460227217823291BD02B29D0
:1017300016D02D2902D0302906D101E0184300E04F
:101740003843641C002AEFD1002122781346303B35
:101750000A2B0AD20A23594389183039641CF4E74A
:1017600004210843EDE73043EBE70023D7B22E2FE7
:101770000AD1641C22781746303F0A2F04D20A2768
:101780007B439B18303BF4E76C2A0CD0682A0AD0C4
:10179000662A3FD00FDC582A30D007DC252A6FD0CC
:1017A000462A71D136E06278641CEDE7632A0BD0DB
:1017B000642A69D10DE0702A57D0732A46D0752A61
:1017C00014D0782A60D119E02868011D29600178B9
:1017D00057E02A68171D2F601768009101900A22B0
:1017E000394602A800F098F84EE04FE02A68171D2D
:1017F0002F6017680A220091019006E02A68171DE1
:101800002F601768102200910190394602A8FFF757
:1018100002FF39E00020179018901990286817AF40
:10182000C01DC008C0000146083129600CC86DA168
:10183000384603F045FF39787F1C002924D002A8E0
:10184000FFF7CAFE05980028F5DA1DE02868011D9B
:101850002960076839787F1C002915D002A8FFF796
:10186000BBFE05980028F5DA0EE028680823011D64
:10187000296001680020102200960190C6E7FFE76A
:10188000252102A8FFF7A8FE641C44E7002800DC1D
:1018900044E70498002804D0024607A91A98FFF7E5
:1018A00067FE049905984018059037E70FB408B50E
:1018B00004A900916A460399FFF716FF01B008BC1E
:1018C00004B01847FFB5002481B01D461646002914
:1018D00002D00198FFF7EAFF01277F0713E06007B6
:1018E00004D1A2B241A10198FFF7E0FF325D41A10E
:1018F0000198FFF7DBFF6007F84203D13FA1019891
:10190000FFF7D4FF641CAC42E9DB600703D03BA1C6
:101910000198FFF7CBFFE5E6FFB583B00E467042B6
:101920000D9F0C9C0090002900DB0846012502E079
:1019300003F0A8FA6D1C05998842F9DA0698A842C6
:1019400000D90546002C04D0002E01DB780700D515
:10195000641EB80702D50698002810D0F8070ED1EB
:10196000002C0CD0A5420AD22021641E0398FFF758
:1019700033FE0398C0680028F2DA07B0F0BD039880
:10198000C0680028F9DB002E02DA2D21009E02E05B
:10199000780707D52B210398FFF71EFE0398C06830
:1019A0000028EADBB807800F022810D1069800282B
:1019B0000DD1002C0BD0A54209D23021641E039812
:1019C000FFF70AFE0398C0680028F2DAD5E701970E
:1019D00000943146069B059A0398FFF71CFECCE75E
:1019E000EA5F001025342E33660000005B2530349A
:1019F000785D200025303278200000000D0A0000BC
:101A00000448804704480047FEE7FEE7FEE7FEE79C
:101A1000FEE7FEE71D1A0010C10000100249014850
:101A2000086070470024F400AC300020F1B5F6489F
:101A300080470746F54880470646F34C0120183C8E
:101A4000A047F24D00200C35A847F149009888477F
:101A50003046A8473846A047F8BDF0B5ED4DEE48F2
:101A6000E96885B00818044603F05AFA2146401C7C
:101A700003F060FA0024E7480125C668E6480C3800
:101A800031180391487C097C00020843A540284294
:101A900002903BD00B2060438119DF480091093050
:101AA0000818019003F03CFA0746DB48301803F0B1
:101AB00037FA87422AD10F21009889014018007D0A
:101AC00000280CD0D44A00990D3A8A18517D127D15
:101AD000090211437818019903F02CFA05E00298E5
:101AE0000399A8430874000A4874CB4800990D3044
:101AF000081803F015FA002808D0022D19D0042D7B
:101B000017D0082D15D0102D1AD08047641CE4B2D0
:101B10000A2CB0D3BF48C168BF480C380918487CAC
:101B2000097C00020843800501D1BC48804705B00C
:101B3000F0BDBB49012088470028E7D0222005E0FE
:101B4000B749012088470028E0D03B20FFF76EFF0F
:101B5000DCE710B5AF4912200969887072B601211F
:101B6000AE4A0320B43A904762B610BD10B50C4699
:101B700001788CB00A07120F69460A700178CA0909
:101B800069464A70811C00A80622023003F08EF9D3
:101B900008A90C72012129220905A24C6B460020DC
:101BA000A0470CB010BDFEB5002069460871087052
:101BB0009D4F08729D4E974CB847E07102AB6A4644
:101BC00001A9606902F04EFA00284ED00820B04703
:101BD000002803D00220B04700280FD068460078C4
:101BE000012811D0E0686569407A01283ED00228BA
:101BF000E2D18F4AE17928469047DDE70121684626
:101C00000170007A00282DD02521E0684901411893
:101C1000497B6569002908D07F49D4314018417B50
:101C2000027B0802834910438847284602F070FA75
:101C30000028C1D068467E4A017996326069904793
:101C40002878C0438007B7D1A8781228B4D1216979
:101C50001320887072B60121704A0320B43A90476D
:101C600062B6A9E73D20FFF7E1FEFEBD2878000738
:101C7000000F052806D003289ED1E1792846FFF7FA
:101C800075FF99E7687E297E00020843062805D380
:101C9000687F297F000208430A2803D25C4912208A
:101CA000884789E76049EE31A81C88472878872251
:101CB0004006C10FE06811540622A91C883003F0C9
:101CC000F5F83721206903F00AF975E7F0B55449B2
:101CD00099B00420884700280ED0514904201A31B9
:101CE00088474E491F20AC3188475348804716200B
:101CF000FFF79CFE19B0F0BD50488047002810D077
:101D0000444DEC68A1790807F4D5E079C2071CD0EE
:101D10004B49204698308847E868C179490849000E
:101D20001FE0464E444F444DB2361C376C461035CA
:101D300007E06846B0470128DCD168460178601C9E
:101D4000B847A8470028F4D0D4E782070BD53C4A0F
:101D500020461C328E30811C9047E868FD22C179F4
:101D600023E0C171C6E7420708D5354920466031F6
:101D7000A8308847E868FB22C17916E00207F726F9
:101D8000002A09DA2E4A21464232A07A0B319047C6
:101D9000E868C1793140E4E7C00608D528496846BB
:101DA0007C318847E868EF22C1791140D9E72046A5
:101DB0003140FF30A1712130017D0026002910D073
:101DC00006752146072287310CA803F06FF82146DB
:101DD0000DA82A228E31033003F068F819490CA8A7
:101DE000884701206946087048708E70E96800A82D
:101DF0002A2203308E3103F059F82D220821094C94
:101E00006B460020A04775E7BF650000776A0000B9
:101E1000CF160000B0300020CE03000001120000F9
:101E2000F50A0000A13E00004957000079190000A2
:101E30008B1E00002B620000BD600000054E0000FC
:101E400027260000DF470000FE490128896A0FD0DD
:101E5000022811D0042812D0082813D0102814D03A
:101E6000202815D0402816D0802818D0012070478F
:101E70008878C007C00F7047887880070DE08878A1
:101E800040070AE08878000707E08878C00604E089
:101E90008878800601E088784006C00F704788780F
:101EA000C009704710B5017801291FD1401C03F00B
:101EB00037F8E44A10283AD00DDC012817D0022860
:101EC0001DD0042823D0082810D1FFF7BDFF00281B
:101ED0000CD1DD4809E0202839D0402806D1FFF791
:101EE000B3FF002802D1D8485430804710BD0120EC
:101EF000FFF7AAFF0028F9D1FFF7E8FE10BD022086
:101F0000FFF7A2FF0028F9D1FFF74DFE10BD042016
:101F1000FFF79AFF0028F9D1D068407A012803D052
:101F20000228F3D1C948E0E7C848AE38DDE7102001
:101F3000FFF78AFF0028E9D1906A2030407D4007F2
:101F400001D53E2000E00820FFF770FD10BD2020E5
:101F5000FFF77AFF0028F9D1BB484830C5E770B5D4
:101F600010250826B74C002821D0A06A817E314375
:101F70008176014660310A7E637852095201DB06A0
:101F8000DB0E1A430A762030427B067B1302E2689E
:101F900033432332547C167C22023243934214D0C2
:101FA0000273120A4273C87D2843C8750DE002F01F
:101FB00046F8A06A0022014620310A734A73603055
:101FC000C17D2943C175A2480677012070BD9D4897
:101FD000C0682330417C027C080210430BD09D492D
:101FE00048780A7800021043032210430870000A60
:101FF00048700120B3E7704730B4974CA44630BC1A
:102000006047F8B59348407A000663D58D48C668A6
:1020100030462330417C007C0F028E4907434878CC
:10202000097804020C43002F01D1600752D5894D75
:10203000A87B697B00026D1C08434BD0002F49D060
:1020400068792979000208432ED12136707C317CD1
:102050000002084303F07EF90022804B03F07EF873
:1020600003F086F980B27843642102F00BFF40044C
:10207000010C2971080A68710A204143707D327D84
:1020800000021043814206D30A21401E02F0FAFEEC
:102090002871000A6871687929790002084303D120
:1020A00001202871002068716A48A10709D5022122
:1020B0008C4301210C430470210A41700020FFF77A
:1020C0004EFF68792A7901021143654B00224020B6
:1020D000FFF792FFF8BD1CB55E494A7A002A40D04E
:1020E0004A780B7812021A43D3063AD4437804781C
:1020F00018022043012834D1C878401E0006000E83
:10210000C8702FD08B780846017BC47A0A0222431C
:10211000017AC47909022143C01C012B2AD0521A2A
:102120000272120A42721206037A120C1A43521AEF
:1021300069460A80427A017A120612140A436946F5
:102140004A8044498A7B497B12020A4369468A8055
:10215000417B027B080210436946C88041496846BA
:1021600088471CBD887AC870402002430A70100A54
:1021700048701CBD5218D3E73B4A10473A4A2032F8
:10218000104738B5002469460C7021467F20FFF7C0
:10219000F5FF00213B20FFF7F1FF29213B20FFF74E
:1021A000EDFF69463B20FFF7E7FF684600788007B0
:1021B00001D5012038BD641CA4B2FF2CF1D9002048
:1021C00038BD10B529488047012010BD10B51D4904
:1021D000274A8870002807D1C8688078022803D071
:1021E00000209047012010BD0120FAE710B5154CE2
:1021F0000128E168887004D000284ED0022863D0FE
:1022000076E0206B014620310A78520852000A70AD
:102210000A78FD231A400A700178890989011C3166
:1022200001704178890989011C31417000217F20AA
:10223000FFF7A4FF03212120FFF7A0FF1F210320A8
:1022400018E00000B03000207916000027150000CB
:1022500020000240FB3E0020AB4400000000F43FA1
:10226000CF1F001033420000C56100000747000087
:10227000A7650000FFF782FFFC4932208847022152
:102280007F20FFF77BFF01210020FFF777FF002170
:102290007F20FFF773FF0F2127E000217F20FFF74A
:1022A0006DFF00210420FFF769FF02217F20FFF767
:1022B00065FF00210846FFF761FF00217F20FFF73F
:1022C0005DFF0021032011E002217F20FFF756FF70
:1022D00003210020FFF752FF00217F20FFF74EFF70
:1022E00000210320FFF74AFF00210420FFF746FFEB
:1022F000A078FFF76BFF012010BD10B5FFF776FF48
:10230000012010BD10B5DA488047DA48C06A017A6A
:10231000DF2211400172012010BDFEB5D54C012015
:102320002071D54880470190E06A817A007ACF0712
:10233000FF0F0026C506D149ED0E48780978000246
:102340000843800608D5A06A2030417B027B080242
:10235000104301D0FFF755FEA80702D00126FFF772
:10236000D1FFC448C06A817A490849008172C249D4
:102370000120183988470220FFF738FFBB49642045
:102380001A398847002469460C70254601217F20B0
:10239000FFF7F4FE00210A20FFF7F0FE22210A20B9
:1023A000FFF7ECFE69460A20FFF7E6FE6846007874
:1023B0004007EFD469460A20FFF7DEFE6846007842
:1023C000400705D568460078000706D4012504E0DB
:1023D000641CAB48A4B28442ECD3A44964201A39EB
:1023E00088470020FFF702FFA34901981839884762
:1023F000A04CE06A817A4908490039438172002E75
:1024000002D09B480C38804700202071002D01D05D
:102410000120FEBD0020FEBD10B51121974802F03D
:102420005EFD10BD70B50446401C02F079FD022827
:1024300018D0042819D00121490488424AD12546E0
:102440002035687B092301070209090F0020072AAC
:102450001FD0032A23D0022A28D0012A2CD0002AF8
:1024600030D035E0FFF7D8FF3DE0824D0121E8682C
:10247000FF302130017501F096FEE8688078002871
:1024800004D12879002801D1FFF747FFFFF779FE33
:1024900029E0581A062148434121C94304E0581A4B
:1024A000062148433521C943081A10E0581A06216D
:1024B00048432321C943F7E7581A06214843172107
:1024C000C943F1E7581A06214843801D404240B2F3
:1024D000687308E040281DD00121C903884202D159
:1024E000601DFFF7F8FD6549487809780002084348
:1024F000800607D5601C02F013FD0005000F01D017
:10250000FFF77FFD5B483C3002F00AFD01462046A4
:10251000884770BD5748383002F002FD4006E2D5CA
:1025200070BDF0B5534C0646E0688DB0FF302130E9
:10253000407C0D46002829D0002D26D072B6A06818
:10254000183002F0EDFCE1683222FF312131897C44
:102550004C4B514340186A463221984762B6002ED0
:1025600004D0E068FF302130807C3070E7680A21B9
:10257000FF372137B87C401C02F06EFCB974E0785C
:10258000401CC0B2E0700A2802D900200DB0F0BD96
:10259000684600780128D1D100A9072228460131D8
:1025A00002F084FC2A22E81D02A902F07FFC01202F
:1025B000ECE7F0B5054634498DB0202088472D4C16
:1025C0000426E16820690F4686700822C01CC931C4
:1025D000BD3702F06BFC2069042239460B3002F053
:1025E00065FC0D21294A03209047E068294608220E
:1025F0000A31C13002F05AFCE06829460422123147
:10260000B93002F053FC287A214F002802D1687AB1
:1026100000281FD00020E070E0682A7A0146803050
:10262000837B9A420AD16A7AC07B824206D1082211
:102630002846903102F05EFC00282DD0694600202B
:10264000FFF76FFF01283BD006220021114B01202C
:1026500098479BE7E0680222817911430246817125
:10266000C132FF3011461030B84726E04562000005
:1026700013470000B0300020BF650000FB3E002083
:10268000FFFF000059530000050B00004D11000032
:1026900019220000D9190000E0688179024631430F
:1026A0008171C13211469830B847E0688030807936
:1026B000012802D1FE4902208847FE48804765E78D
:1026C000E06801A92A228E30033102F0EFFBA3E774
:1026D0007CB5451C8078297800020843F64C022816
:1026E00010D00F2810D001211D2810D0FF3810283D
:1026F0000DD0F24A69460120904768782978000297
:10270000084302E0032000E00220A0717CBDA1711B
:102710007CBDE94880797047E94908471CB5E9481C
:102720000821017000214170017BC27A0902C01C9E
:10273000114341D04279037912021A43891A0BB22C
:102740006A461380417A027A0906091411436A46DF
:10275000518019220624D201062B02DA6B461C8016
:1027600003E0934201DD6B461A80062902DA6946CE
:102770004C8003E0914201DD69464A80417B027B47
:10278000080210436946C880CE48817B427B08021C
:10279000104369468880C848C0682330417C027C69
:1027A0000802104302D00020FFF7D9FBC649684653
:1027B0008847C349402088471CBDC24948780A78E9
:1027C00000021043C2050CD5FF220132904308706D
:1027D000000A48700879401E0006000E087109D0F2
:1027E0009CE72022104310229043042210430870DB
:1027F000000A48707047FEB5B24D044668782978E3
:102800000002084300077DD5B048804769782A78E0
:10281000090211430822914329700A0A6A706B7AEF
:10282000064628461A066ED5A27967791202651CFB
:102830003A43A14FE41C002A77D0102211430170C3
:102840000A0A427088065ED4687929790002084332
:1028500032D002F07FFD0191009060782178000273
:10286000084302F077FD9A4C0022234602F076FCE2
:10287000019B009A02F072FC01910090F8682130EF
:10288000417C027C0802104302F064FD00222346D2
:1028900002F064FC07460C46687A297A0002084375
:1028A000801B02F043FD3A46234602F057FC019B91
:1028B000009A02F0A1FB24E060782178000208432E
:1028C00002F02CFD0446F8682130417C027C0802AD
:1028D000104302F023FD214602F035FB02F066FDB5
:1028E00000227B4B02F03AFC07460C46687A297AB4
:1028F00000020843801B02F019FD3A46234602F00D
:102900002DFC02E06EE064E00FE00022714B02F06B
:102910008DFC02F02DFD0104090C00D101216E4B4C
:1029200000228020FFF768FB53E09A0651D5827899
:10293000012A4ED18A064CD4FF226248013211434B
:102940000170090A417060782178000208435D49EE
:102950000A7BCB7A1102194388423AD902F0DEFC95
:102960000446F8682130417C027C0802104302F0E2
:10297000D5FC214602F0E7FA02F018FD0022544B84
:1029800002F0ECFB07460C46687A297A00020843FD
:10299000801B02F0CBFC3A46234602F0DFFB00220C
:1029A0004C4B02F043FC02F0E3FC0104090C00D1A3
:1029B0000121494B00228020FFF71EFB414841784E
:1029C000027809021143FF22013211430170090A02
:1029D0004170032069460881022291033F4C02ABFB
:1029E0000020A047FEBD10B50446007800280DD198
:1029F000A17862780802104309D001281ED003286C
:102A000027D00C2802D1201DFFF762FE10BD01F077
:102A100016FB3349201D8847002802D12820FFF7E4
:102A200005F8201DFFF7E7FE23480121C3680622B1
:102A300009040020294C3133A04710BD01F0FFFAF2
:102A40002849201D88470028F7D12820FEF7EEFFEF
:102A500010BD201DFFF7ADFD10BD10B50078012899
:102A600001D1FEF7FAFF10BDF0B51F4885B08047D1
:102A700001217F20FFF782FB69465020FFF77CFB96
:102A800068460078042801D018488047FFF779FB92
:102A9000094CE0688078012866D002287ED0FFF7D4
:102AA0003CFC01256846458005801148019021E0E5
:102AB000050B0000791A0000B03000201F1D000037
:102AC000B3440000FB3E002033420000BF5500002D
:102AD0000000F43F00005940BB270010A13E000059
:102AE0005D5B0000475F0000793D0000F746000095
:102AF0005B2A0010FE4968468847684605704570A5
:102B000000254580FB480190FB4BE06808226946A0
:102B1000C01802F0CBF90121F84E4020B047012146
:102B20008020B04701212020B047FF210C316846AA
:102B300001800B2141808580C5800581458185818B
:102B4000C581EF48EA4904906846A2398847A068E1
:102B50000A3002F0E5F9EC4BEA4A5721984701F0B8
:102B600022FB012005B0F0BDE84880470090E06AF4
:102B7000067A817ACD07817AED0F49084900817282
:102B8000E24F0120183FB847B00701D0FFF7BAFB6A
:102B90000220FFF72BFB6420DD4900E00CE08847B2
:102BA0000120FFF723FB0098B847E06A817A4908C3
:102BB00049002943817274E70220FFF717FB70E791
:102BC00010B5D4488047012010BDD24910B51E3140
:102BD0008847012010BDCF4910B5543188470120E6
:102BE00010BDCC4910B560318847012010BDC949DE
:102BF00010B56E318847012010BDC64910B57E3131
:102C00008847012010BD10B5C24CE634A047012012
:102C100010BDF8B5C04CC149E0683730884720691D
:102C20003B230178BF250A09E16812015B5C1B07A1
:102C30001B0F1A4302701207120F012A79D00B469C
:102C400040335A781B7812021A430B4642331A70EB
:102C5000120A5A7002788B7A2A409B011A43520654
:102C6000520E027066235B5C42789B1D92099B06A4
:102C700092019B0E1A4342700622801C0B3102F017
:102C800015F9E1686620425C002A04D020696731AA
:102C9000083002F00BF9E06800212030417720690C
:102CA0009F4A41788906890E891C904720690178DE
:102CB0000A091201121D0270E1682A408B7ADB07B3
:102CC0005B0E1A43027046235B5C42789B1D92099F
:102CD0009B0692019B0E1A4342700622801C0B3108
:102CE00002F0E4F8E1684620425C002A04D0206942
:102CF0004731083002F0DAF82069894A41782C32ED
:102D00008906890E891C9047E06801270546203511
:102D1000E97E01293BD000294CD002294AD006295E
:102D200048D000237F4C1A4601211846A047F8BD21
:102D3000FFE70A464032137953718B7A0278DB073A
:102D40002A405B0E1A43027087235B5C5206520EC8
:102D5000DB011A43027042780B31920992010C3266
:102D600042700622801C02F0A1F82069E168062268
:102D70000830883102F09AF8E16803223D2042547D
:102D8000664A8720405C323A8831904787E7403076
:102D9000417900290AD028200621A26A937EFD24C9
:102DA0002340937617756B7F2A7F43E0477101209C
:102DB0000146F2E706464236717832780B02134339
:102DC00017D0192189014B432230417F047F08022B
:102DD000204301228004800C009006D00146184652
:102DE00002F03AF8421C7F2A10D8D4B23770380A61
:102DF00014E03770390A71702230417F027F080277
:102E0000104301248004800C009008E07F241046C9
:102E100021467E3002F020F83070000A70703E4883
:102E2000806A817E02221143817607756B7F2A7F3B
:102E300000992046314CFE34A0473B48804776E756
:102E400010B5FFF7E6FE012010BD10B5374903208D
:102E500008702F4964201A3188473548804701207F
:102E600010BD72B600212C4A906A4175037C012185
:102E70000B430374D0684522115442300170002185
:102E8000417062B60120704710B52A498847012079
:102E900010BDF0B5204CA56A2C4660342678FD277D
:102EA000C0073E40800F06432670A17062706235F5
:102EB0002B71180A687105982071000A6071F0BDC5
:102EC000F8B5154D1549E868373088471120EF6887
:102ED000002480013D186E79A8790321401C01F07F
:102EE000BBFF01208840A971064228D1641C23E061
:102EF0002F440000A51E0010CE0200006155000006
:102F0000E7290010A43E002059530000BF650000CF
:102F10002B620000833D0000B0300020B15700005C
:102F2000D9600000A13E00009D5600000000024054
:102F30000747000001410000E4B2032CCCD3112567
:102F4000AD017C19607B217B00020843A91C7F181E
:102F5000010AF24E3873797300280BD0607A227A16
:102F6000010219201143800101F076FF0206120EC2
:102F700004D004E001203873002078730122787AAD
:102F8000397A000208430090607A217A03020B43E9
:102F9000A079E349095CE079FFF77BFFF068002145
:102FA00040190171C170017441748178002901D008
:102FB000082901D908218170DA488047B7E610B5A1
:102FC000FFF77EFF012010BD10B5D74880470120D4
:102FD00010BDD54910B508318847012010BDD24930
:102FE00010B516318847012010BDCF4910B5783192
:102FF0008847012010BDC949487001207047CA495F
:1030000010B586318847012010BDC74A10B58E32F1
:103010009047012010BD7CB5054601F081FFBF49F6
:103020000446383101F086FF281D01F079FFBB49C5
:103030003C3101F07FFF40208443BC48BA490190F5
:10304000009468469631884701207CBD10B5B84988
:103050008847012010BDB64A10B5083290470120BC
:1030600010BD10B5B3488047022801D9002010BD1B
:10307000012010BDF8B50E46AF49074648780978DB
:10308000000208431C461546800609D5A348806AFD
:103090002030417B027B0802104301D0FEF7B1FFD4
:1030A000A6490120884700280CD0A2488047022862
:1030B00009D972B623469E4C2A4631463846183402
:1030C000A04762B633E6002031E69D49084710B5B7
:1030D00004469A4901208847002803D09849204691
:1030E0000831884710BD70B50546944A0C4601204A
:1030F0009047002804D0924A214628462232904721
:1031000070BDFFB50F4681B08C491D4616460120A3
:103110000A9C8847002807D00094894C2B463246E9
:10312000394644340198A0471CE5F8B50E460746D9
:1031300082491C46154601208847002806D02346B0
:103140007F4C2A46314638467C34A047EFE510B51F
:1031500004467A4901208847002803D07849204650
:10316000AC31884710BD70B50546744A0C46012045
:103170009047002804D0724A21462846C63290471C
:1031800070BD70B505466D4A0C4601209047002879
:1031900004D06B4A21462846E832904770BDF8B506
:1031A0000E46074665491C461546012088470028FB
:1031B00005D02346634C2A4631463846A047B6E53B
:1031C00070B50D4606465D49144601208847002823
:1031D00005D05C4B2246294630463033984770BDB7
:1031E00070B50D460646554914460120884700280B
:1031F00005D0544B2246294630465C33984770BD73
:10320000F8B50E4607464D491C461546012088472D
:10321000002806D023464B4C2A463146384688348F
:10322000A04784E510B5044644490120884700289A
:1032300003D044492046B831884710BD10B53F49F6
:1032400001208847002802D03E48CC30804710BD7E
:1032500070B5324D0446082804D0E8684078082844
:103260000DD014E000217F20FEF788FF01214020CF
:10327000FEF784FFE86A0178C908C9000EE0002162
:103280007F20FEF77BFF00214020FEF777FFE86AF2
:1032900001786207C908C900520F11430170E8683C
:1032A0004470012070BDD3E710B50446264880471E
:1032B0002070012010BD10B504462348801D8047B2
:1032C0002070012010BD204910B51C318847012015
:1032D00010BD1D4810B572308047012010BD1B483D
:1032E00000471B4908471A491A31084708B51949C8
:1032F000684688476846C0788007C00F08BD08B593
:103300001449684688476846C078C00900D0012043
:1033100008BD10B5FEF730FF10BD0000B030002032
:10332000FA5F0010255700001D4200002524001000
:103330002D4300002B4E0000FB3E0020F50A00004C
:10334000B73A0000BB3B00009F440000FB5F000059
:103350002B6200004D65000010B5FEF70FFFDBE7A4
:10336000FE48806AC07B052805D0062803D00F28B8
:1033700001D0002070470120704710B5FFF7F0FF23
:10338000002801D1F64880470120C5E710B5F34970
:103390000122886A4275437CDB09DB019B1C437474
:1033A000931E83741B0AC374C96ACB7AEF2423402B
:1033B000CB724B7B93434B738B7A13438B72817E1F
:1033C000022319438176017C11430174E5490520EC
:1033D0008847E548804701209EE7E34810B5123052
:1033E0008047012098E710B5E0498847012093E71E
:1033F000DE4910B51831884701208DE7DA4910B54C
:1034000058318847012087E7D749AC310847D6496A
:1034100010B5FA31884701207EE710B5D4488047BF
:10342000012079E7D24810B518308047012073E7B2
:10343000CF4BA2331847CE4BD8331847F8B50746C1
:10344000C648002680680D463446283001F068FDE5
:103450002903C9194118C148406B814211D9002084
:1034600065E472B6BD488068283001F059FD21033B
:10347000C9194018BF4A01219047064662B6641C2C
:10348000E4B2AC42EDD3304651E4F8B5B34D044656
:10349000A86817460E46283001F042FD0146A219E1
:1034A00080186A6B90420AD8002908D072B60819B1
:1034B000B04B3A463146EA3B984762B637E40020C3
:1034C00035E4F8B5A54D0446A86817460E462830E1
:1034D00001F026FD0146A21980186A6B90420AD8B5
:1034E000002908D072B60819A24B3A463146823BF1
:1034F000984762B61BE4002019E470B59E4800248A
:1035000000789C4E954D00280DD001281ED024E057
:1035100072B6143001F004FD210340180121B047B8
:1035200062B6641CE4B2A868C17B827B09021143C5
:10353000A142EDD811E072B6103001F0F1FC210388
:1035400040180121B04762B6641CE4B2A868C17B90
:10355000827B09021143A142EDD8012070BD70B5F4
:1035600004460D46000B42197C488068C17B837B72
:10357000090219438A4201D9002070BD7E497D4E5F
:103580000978002902D0012903D00AE072B614306C
:1035900001E072B6103001F0C3FC00192946B047B3
:1035A00062B6012070BDF8B5044673480F46017835
:1035B0006A48704D8068823D1646002902D0012974
:1035C00003D00BE072B6143001E072B6103001F097
:1035D000A7FC001932463946A84762B601202EE4FE
:1035E00030B45E4B9C68E37BA47B1B0223431B032C
:1035F000834202D230BC0020704730BCD3E730B4E5
:103600005E4CA44630BC6047F3B5544889B080682E
:103610000024283001F084FC07460998460900255B
:1036200011E072B66801534BC01920216A46EA3B8B
:10363000984762B6002069460A5C401C121994B291
:103640002028F9D36D1CB542EBD30998C606F60EB7
:1036500072B631466801474BC0196A46EA3B984743
:1036600062B60020694603E00A5C121994B2401C5D
:10367000B042F9D30A98844202D101200BB0F0BDC8
:103680000020FBE7F8B538488A3880473A4C573471
:10369000607A002840D00006042500280FDA607800
:1036A000217800020843400709D5FEF7AAFC60789C
:1036B000217800020843A8432070000A60706078F7
:1036C0002178000208432E4F2E4E41060CD5402192
:1036D00088432070000A6070022069460880024614
:1036E0006B4639460020B0476078217800020843D5
:1036F000C10711D0400840002070010A61708007A6
:1037000002D56846058002E005206946088002224D
:103710006B4639460020B04750E41B48004738B597
:103720000E4C2078002805D1104968467E3988471C
:1037300001202070012038BDF8B50278002A74D02D
:103740000D4957314A7242788A72002A01D0042A00
:1037500001D904228A72C278847817E0B030002040
:10376000F144000045620000E5460000CB65000022
:103770000348000043540000A43E00207B4A0000A0
:1037800000800000A13E0000F94B0000130223431B
:10379000FB4A1C0AD37214734479057924022C4322
:1037A00015466C73240AAC73C479857920022843CA
:1037B000D073000A1074F3480827C068D21C213067
:1037C000447C007C240204430120A34214D9002538
:1037D0008D701B1B8C7AA34204DA1071000A5071A1
:1037E0008B7216E0E400A34202DA1071000A01E0D5
:1037F0001771380A50710CE088708E7AE51AB5425C
:103800000FDA060A107156719C4201D1887200E0ED
:103810008D72887AC8700871FEF780FF012051E42C
:1038200003E0F3009D42E3DADFE700204AE4D549F4
:10383000496A0870020A4A70020C8A70000EC87049
:10384000487A022210434872704738B50446002077
:103850000090CD49684688470099F8208143E006EA
:10386000000E08430090FFF7E2FF38BD08B50020C6
:103870000090C5496846884700980006C00E009031
:1038800008BDC14872300047BF495A310847BF4997
:103890000847BE491A310847BD480047BC490C31AA
:1038A0000847F8B500260B46044601253046314648
:1038B0002D03675C491CBE19A942FAD30021675C3D
:1038C000491C7840A942FAD39E4222D1904220D18D
:1038D000AC4EB0680A3001F023FBA9490019572209
:1038E000573901F0E3FAB0681C3001F019FBF168B8
:1038F000001907220A3101F0D9FA0121A54A002056
:103900009047A44B002022462946823B984701203D
:103910001CE400201AE470B501260546994C3603D4
:103920009C4B00203146EA3BA26998479A492846B9
:103930008847A0681C3001F0F3FAA16907224018FB
:10394000E1680A3101F0B2FA0121924A0020904761
:10395000904B00203146823BA269984770BD10B55C
:103960000446884880680A3001F0DAFA894B102151
:10397000EA3B224657309847CEE470B5012605460B
:10398000804C3603834B00203146EA3BA2699847BE
:103990000121804A00209047A0680A3001F0C0FA57
:1039A000A169102257314018294601F07FFA794B5E
:1039B00000203146823BA269984770BD714840693A
:1039C0000178C943890702D18078062801D00020F8
:1039D000704701207047714A1047F3B581B0060067
:1039E00025D0684F386A0446C17980790D020543B5
:1039F000E01C01F095FA0102A07801430C46002D6D
:103A000017D0002C15D00121624B09030020EA3B9E
:103A1000BA699847B8680A3001F082FAB969673123
:103A2000405C401CC7B2032F05D90220FEBD012017
:103A3000FEBD0420FEBDB54204D10298844201D1EE
:103A40000020FEBD0121534A002090474D4CA06844
:103A50000A3001F065FAA2694E4B114667314754AE
:103A6000012109030020823B98470320FEBD08B5D1
:103A700045496846884700984108C90701D0002099
:103A800008BD0221084340490090283188470120A1
:103A900008BD3B480121573802783A480907806839
:103AA000002A03D0012A07D000207047C27B837B05
:103AB00010021843400304E0C27B837B10021843CA
:103AC00000034018704770B504462D480D4657381E
:103AD00001782C480126B6038068002903D001290B
:103AE00003D0002070BD143000E0103001F018FA4F
:103AF000801972B60019274A2946904762B670BDF0
:103B0000F8B505461E480F46573801781D48012470
:103B1000A40380681646002903D0012903D00020A1
:103B20009EE4143000E0103001F0FAF9001972B68A
:103B30004019184B32463946EA3B984762B68FE443
:103B4000F8B505460E480F46573801780D48012450
:103B5000A40380681646002903D0012903D0002061
:103B60007EE4143000E0103001F0DAF9001972B68A
:103B70004019084B32463946823B984762B66FE49B
:103B8000FB3E0020B03000204D6500002B6200009D
:103B9000776A000043540000A13D0000D960000096
:103BA00010B5030001F0B7FD09060C16202A343EBB
:103BB000415B770001217F20FEF7E0FA882104E0D5
:103BC00001217F20FEF7DAFA8A216120FEF7D6FA7A
:103BD00081215DE001217F20FEF7D0FA8A2161205A
:103BE000FEF7CCFA832153E001217F20FEF7C6FACD
:103BF0008A216120FEF7C2FA872149E001217F2056
:103C0000FEF7BCFA8A216120FEF7B8FA8F213FE067
:103C100001217F20FEF7B2FA8A216120FEF7AEFA79
:103C20009F2135E001217F202BE000217F20FEF73E
:103C3000A5FA02213020FEF7A1FA01217F20FEF72C
:103C40009DFA1F216320FEF799FA03216D20FEF7EC
:103C500095FA8A216120FEF791FAB02118E000213F
:103C60007F20FEF78BFA02213020FEF787FA012130
:103C70007F20FEF783FA1F216320FEF77FFA0721DA
:103C80006D20FEF77BFA8A216120FEF777FABF21CB
:103C90006520FEF773FA6FE610B5F74CA068283080
:103CA00001F03EF9616B081A66E6F4480078704747
:103CB000F8B50546F04EF148B26900781446002880
:103CC00001D0002016E4280502D02805000D2D1A89
:103CD00072B601210903EA4F0020B84762B6706B43
:103CE0002146401B283101F025F9054620461030B9
:103CF00001F016F90090281A41080098081821468A
:103D0000143101F017F901460098081A0001000C5F
:103D1000A073000AE07372B60121D94A0020EA328A
:103D2000904762B672B60121D54B09030020683373
:103D3000B269984731210020B268B84762B60120C5
:103D40004DE4CD48CC4BC079DB7902091B07092033
:103D50001B0FC01A062300215843072A08D0032A44
:103D600009D0022A0BD0012A0CD0002A0DD00FE076
:103D70004121C94301E03521C943081A07E0232145
:103D8000C943FAE71721C943F7E7801D404241B212
:103D9000C8B27047F3B5BB4EBB4F8DB0054600248B
:103DA00032226B4621460320B04768464088A8422D
:103DB00006D1684601790E98017001200FB0F0BD60
:103DC000B84204D068460088001984B2E8E70020B1
:103DD000F4E7F3B5AB4EAC4F8DB00546002432226C
:103DE0006B4621460320B04768464088A84208D168
:103DF000241DA1B2012203200E9B00F0E3F9012053
:103E0000DCE7B84204D068460088001984B2E6E7CF
:103E10000020D3E7F3B59B4E9B4F8DB005460024A1
:103E200032226B4621460220B047684681784278AC
:103E300008021043A84205D1684641790E980170E6
:103E40000120BBE7B84204D068460078001984B26C
:103E5000E6E70020B2E7894910B55731487809787C
:103E600000020843800603D5FEF7CBF8012083E566
:103E7000002081E5854B184710B504467E488068D0
:103E80000A3001F04DF808217D4B224667309847F3
:103E900072E570B5054672B6774C01263603784B4D
:103EA00031460020A2699847754A01210020EA3274
:103EB0009047A0680A3001F033F8A1690822673101
:103EC0004018294600F0F2FF6D4B00203146683360
:103ED000A269984762B670BD6D49082008476649D7
:103EE00048637047FEB5644D0027A868801D01F047
:103EF00017F8634E01AA0621B047002823D00024FA
:103F00001CE0A868801D01F00BF861006118891D94
:103F100040186A460321B047002814D0684600784C
:103F2000032809D1684640787F2801D169468F78F7
:103F3000012F01D1572807D0641CA4B2684600891C
:103F4000A042DED80020FEBD68468078FEBDF1B5F7
:103F5000494E84B0B0680027801D00F0E1FF484D55
:103F600001AA0621A847002823D000241CE0B0683D
:103F7000801D00F0D5FF61006118891D40186A4658
:103F80000321A847002814D068460078032809D1E7
:103F9000684640787F2801D169468F78012F01D18A
:103FA000572808D0641CA4B268460089A042DED815
:103FB000002005B0F0BD72B601273F03394600204E
:103FC000B269A8472E4A01210020EA329047B06822
:103FD000801D00F0A5FFB2690499831860002018C5
:103FE00008301954264B002039466833984762B68A
:103FF000DFE77FB50D464B210906084302900024F8
:1040000024480394804700940194224C0121052008
:104010002B4602AAA83CA0471E481C3080477FBD03
:104020007FB5064600246D4629192046FFF7E1FFBB
:10403000285D3055641CE4B20F2CF5D37FBD10B55C
:1040400000F0F7F8002804D000F0F3F80128FBD0C6
:1040500092E400F0EEF80028FBD000F0EAF8012826
:10406000FBD089E4F0B5044C0025A46AE678360755
:1040700012D50020F0BD0000B0300020A43E00208A
:1040800059530000C9280000FFFF0000192200005A
:10409000791900001D50000000BF6D1CEDB2642DA9
:1040A000FAD3254640356E7CB607FCD4002526465B
:1040B000C036377947556D1CEDB2022DF9D34678DD
:1040C0000125F709002F08D0F606F60E0E701570C0
:1040D00042785206D20F1A7004E0B3069B0E0B70A2
:1040E00000231370594B0A789B6A801CC033272A1F
:1040F0000CD20022C03403E026798654521CD2B27E
:104100000E789642F8D85D720120B3E75D72B0E791
:1041100010B5027800219207920F4C4B012A39D03A
:10412000022A0CD0032A33D182780E2A2FD8407865
:10413000474BC0069A5CC00E904228D028E04278D7
:10414000D206D20E042A07D9C278847812022243FA
:10415000172A01D8012200E000225A71002A17D044
:104160004179027909021143052910D006290ED19F
:10417000C1788278090211438079354A40000F32B4
:1041800080184038C08F814201D0002100E0012119
:10419000084680E559790029F7D04078C006C00E5E
:1041A0001728F4D9F1E770B52A4D0024274EA84707
:1041B000F1680919FF310131641CE4B2C873102C95
:1041C000F5D370BDFFB5214C0200E06981B01E46F9
:1041D0000D4606D0012A06D0022A06D0032A06D0B0
:1041E00009E0001D04E0083002E00C3000E010306F
:1041F00000F096FE01464D1972B601273F03164B9B
:1042000039460020A269984762B6A0693146401934
:10421000039A00F04BFE72B601210F4A0020EA32E9
:1042200090470D4B002039466833A269984762B623
:10423000BFE60648816A0A466032907C927C603113
:1042400001E0887C8A7C9042FBD17047B03000202E
:10425000FD5F0010FB5F00005953000070B51E4663
:10426000002915D0FE4DAC696B699C4210D205C483
:104270000846083C01F06EF8FA4AFB4B00F06EFF6E
:1042800001F076F8A0602673002060611834AC61FC
:1042900070BD884200D308467047002206E0002126
:1042A000491C89B21829FBD3521C92B28242F6D320
:1042B000704710B5EA4C60682030017CC9070FD008
:1042C000017C490849000174082000F0CCFA6068BC
:1042D0002030417C0122114341743220FFF7DDFF81
:1042E00010BD70B5DE4C0D46616803462031087C78
:1042F000C00706D0087C4008400008743220FFF751
:10430000CCFF626820321375180A5075180C90752E
:10431000180ED075107CEF2108401074907C400876
:1043200040009074D1480560507C012528435074AA
:10433000082000F08FFA60682030017C2943017466
:1043400070BDCEE770B5C64D18212878AE684843D9
:1043500069690C1A2869801928610020C043A86087
:1043600018E0207B002814D02069B04204D1606896
:10437000002807D0804705E0801B206102D0A1689B
:10438000884201D9A0682061A968884200D90846FE
:10439000A860183468698442E3D3A868002805D06F
:1043A000411C03D0B249FFF7CCFF70BDFFF781FF7E
:1043B00070BDF0B5AA48AF4D416840310B79184641
:1043C0004B791B0218438B79CA791B0418431206D8
:1043D0000E79104332464E79360232438E79CB79CC
:1043E000360432431B060F791A433B464F793F028E
:1043F0003B438F79CE793F043B4336063343641CFD
:10440000904201D19A4201D0AC42D7D3F0BDF8B569
:104410000446FFF7CEFF924A91680B1A13610023FE
:10442000884200D913610020C043906011781820A1
:10443000414350691769411A17E00D68A54202D13E
:104440000B734B6110E00D7B002D0DD00D69ED1B42
:104450000D6102D08E68B54201D98D680D619668F4
:10446000B54200D82E46966018318142E5D3906857
:10447000002805D0411C03D07D49FFF762FFF8BD3D
:10448000FFF717FFF8BDF3B581B00646FFF7BFFF92
:10449000734818220178456951436C1A714F0FE037
:1044A0002068B0420BD1A0682061029800F052FF52
:1044B0003A466D4B00F052FE00F05AFFA0601834EF
:1044C000AC42EDD3FEBD6649CA688243CA607047FC
:1044D000F8B5634C05462078182148436169081AED
:1044E00006E00268AA4202D1027B002A3AD11830C3
:1044F0008842F6D3FFF75DFFA1680A1A226188425D
:1045000001D9002020610020C043A060207818213C
:1045100063694843191A0127266919E00868A84207
:1045200003D1886808610F730BE0087B00280ED068
:104530000869801B086102D08A68904201D98868A6
:1045400008610246A068824200D81046A060183177
:104550009942E3D3A068002805D0411C03D0444908
:10456000FFF7EFFEF8BDFFF7A4FEF8BDF8B53C4C31
:104570000546E068A843E060FFF71BFFA1680A1A40
:104580002261884201D9002020610020C043A06040
:104590002178182063694143591A0127266919E0D7
:1045A0000868A84203D1886808610F730BE0087B94
:1045B00000280ED00869801B086102D08A689042EA
:1045C00001D9886808610246A068824200D8104676
:1045D000A06018319942E3D3A068002805D0411C9F
:1045E00003D02349FFF7ADFEF8BDFFF762FEF8BD2B
:1045F0001B4918220B7853434A69D11A05E00B680E
:10460000834201D1087B704718319142F7D3FF20D4
:10461000704770B50D460446FFF781F8002808D0B2
:104620000F48182104704C43611985614161FFF7FF
:1046300040FE70BD0A494A68114620310875030AD8
:104640004B75030C8B75000EC8758B7C01200343E2
:104650008B744B7C03434B740B7C03430B740BE058
:10466000F0300020FCA9F1D24D6240400C3F002008
:1046700045430010FF3F00002032D37CDB07FCD015
:104680000A7C520852000A744A7C02434A747047FA
:104690007C4840682030C17CC90708D0417C012299
:1046A0001143417478480068002800D000477047E3
:1046B00070B5744C064660680D462030017CFD23C1
:1046C0008907002905DA017C194001743220FFF7BF
:1046D000E4FD626820321676300A5076300C90760F
:1046E000300ED076107C202108431074907C184046
:1046F000907465484560507C022528435074092019
:1047000000F0A8F860682030017C2943017470BD76
:1047100010B55C4C60682030017C89070FD5017CA6
:10472000FD2211400174092000F09DF860682030DE
:10473000417C0222114341743220FFF7AEFD10BDCF
:10474000504840682030C17C890708D5417C02224E
:10475000114341744C484068002800D0004770471E
:1047600070B5484C064660680D462030017CFB233E
:104770004907002905DA017C194001743220FFF74E
:104780008CFD626820321677300A5077300C9077B3
:10479000300ED077107C402108431074907C184074
:1047A000907439488560507C0425284350740A2051
:1047B00000F050F860682030017C2943017470BD1E
:1047C000304808214068403041180A7810464A783D
:1047D000120210438A78C97812041043090608436C
:1047E000704728480C214068403041180A7810462C
:1047F0004A78120210438A78C978120410430906D5
:104800000843704710B51F4C60682030017C490791
:104810000FD5017CFB22114001740A2000F023F81F
:1048200060682030417C0422114341743220FFF73C
:1048300034FD10BD134840682030C17C490708D5BD
:10484000417C0422114341740F488068002800D045
:1048500000477047002805DBC106C90E01208840CB
:104860000A490860704700280ADBC106C90E01200A
:104870008840064980310860BFF34F8FBFF36F8FC8
:1048800070470000F03000200C3F002000E100E005
:1048900018B5F64800680090002069460B5C0A24B1
:1048A0001A0962431B070A541B0FD2180A54401CF2
:1048B0000328F3DB009818BD08B5FFF7E9FF009067
:1048C00068460178C078EA4A401E50430A18684694
:1048D0008178E12000014143684640783C235843F9
:1048E00008181118E34A1069814201D3081A02E03E
:1048F000E14B081AC018116108BD70B50D460028BB
:1049000002D0DA4E083E01E0D84E0C3E0024285D6D
:104910000A2100F0A1FA000101432955641C032C6F
:10492000F5DB284600F0FCFA30606420FFF7B5FCA8
:10493000CE482038C17A08221143C17270BD38B503
:10494000CC4909694418CA49204600F085FA421C3E
:104950006846C270E12508462D01294600F07CFA20
:104960000246684682702946204600F075FA0846DD
:104970003C2100F071FA0146684641703C21204616
:1049800000F06AFA6846017069460020FFF7B5FF3B
:1049900038BD38B5FFF77CFF009068460178C078D5
:1049A000B34A401E50430A1868468178E12000014E
:1049B0004143684640783C23584308181118AD4BD2
:1049C000AE485A6A0468914201D38A1A02E0AA4D9D
:1049D0008A1A5219A21802601046596238BD70B581
:1049E00000290BD0A34D6E69AC69B44206D2A16018
:1049F00005C423710020E0601034AC6170BD8842B2
:104A000000D308467047994920398A7A0F23834397
:104A1000887A1A400009000110438872704770B507
:104A2000C00742D0934C182160786668484361699A
:104A3000081A0A4603E0037B002B02D1183090428B
:104A4000F9D3884231D2FFF737FFE1686068081870
:104A5000E0600020C04360606178182041436069D5
:104A6000451A18E0287B002814D02869B04204D1E8
:104A70006868002807D0804705E0801B286102D0C5
:104A8000A968884201D9A86828616168884200D96C
:104A900008466060183560698542E3D36068002885
:104AA00004D0411C02D0FFF74AFF70BD0120FFF780
:104AB000AAFF70BD6F498A6882438A607047F8B563
:104AC0000446FFF7F9FE6B4AD06072B60021C94375
:104AD00051605178182359435369591A002717E038
:104AE0000D68A54202D10F734F6110E00D7B002DC0
:104AF0000DD00D692D1A0D6102D08E68B54201D915
:104B00008D680D615668B54200D93546556018313B
:104B10009942E5D35068002804D0411C02D0FFF729
:104B20000EFF02E00120FFF76EFF62B6F8BDF8B598
:104B3000504C05466078182148436169081A06E020
:104B40000268AA4202D1027B002A38D1183088427A
:104B5000F6D3FFF7B1FEE06072B60021C943616091
:104B60006178182266695143711A012719E00A68B1
:104B7000AA4203D18A680A610F730BE00A7B002AFC
:104B80000ED00A69121A0A6102D08B689A4201D9C2
:104B90008A680A6113466268934200D81A466260C6
:104BA0001831B142E3D36068002804D0411C02D020
:104BB000FFF7C5FE02E00120FFF725FF62B6F8BD52
:104BC0002C49C8617047F1B582B0FFF775FE294DD9
:104BD000E86072B60021C943696069786E6918227D
:104BE00051430090741AEF6920E02068B84209D15F
:104BF0003C21029800F030F93C20401A206101204D
:104C000020730CE0207B00280FD021690098081A3F
:104C1000206102D0A168884201D9A0682061206982
:104C20006968884200D9084668601834B442DCD309
:104C30006868002804D0411C02D0FFF780FE02E023
:104C40000120FFF7E0FE62B6FEBD0A4918224B784C
:104C500053434A69D11A05E00B68834201D1087BAE
:104C6000704718319142F7D3FF207047C0100050B1
:104C7000805101000C310020803A0900A83000204A
:104C800071490878002808D17048C37A012213437B
:104C9000C372C37ADB07FCD10A7070476A490862A5
:104CA00070476A498A7A024310078A7A000F12090C
:104CB000120102438A72704764498A7A12090243D8
:104CC00010018A7A1207120F02438A72704770B578
:104CD00005460024285D0A2100F0BEF800010143CA
:104CE0002955641C032CF5DB284600F019F95749B7
:104CF0002039C86370BD554A138A401EDB0BDB03A5
:104D00004004400C03431382907C09070009000112
:104D1000090F0843907470474C48C17A042211432C
:104D2000C172C17A4907FCD4704747490878012805
:104D300009D14648C27A02231A43C272C27A920744
:104D4000FCD4002008707047F3B581B0FFF7EDFF89
:104D5000FFF7E2FF01200021C003FFF7CCFF642032
:104D6000FFF79BFA01216846C170002484704470EB
:104D70000470FFF7ACFF344D07262C616846C670FF
:104D8000172787703B244470047069460120FFF7A1
:104D9000B4FD6846C6708770447004706946002090
:104DA000FFF7ABFD0F20FFF787FF0F20FFF72BFE6C
:104DB0000120FFF776FF02982862FFF761FF244980
:104DC00004200860FEBD70B50D460446FEF7A7FC42
:104DD00000280BD01C48182144704C436119856190
:104DE000416101201B49C003FFF7AEFF70BD10B544
:104DF0001648407A03071B0F1846FFF75DFF12485D
:104E0000016A002901D01846884710BD0E48007875
:104E1000704718B5002802D00C48183001E00B4844
:104E2000143000680090002069460B5C0A241A09BF
:104E300062431B070A541B0FD2180A54401C032854
:104E4000F3DB009818BD00000C310020A0100050CA
:104E500000E100E01F4A001030B50B46014600207B
:104E60002022012409E00D46D5409D4205D31D4670
:104E70009540491B2546954040191546521E002D68
:104E8000F1DC30BD70B500242546002801DA01248C
:104E90004042002901DA01254942FFF7DDFFAC421B
:104EA00000D04042002C00D0494270BD03460B4365
:104EB0009B0703D009E008C9121F08C0042AFAD2D0
:104EC00003E00B780370401C491C521EF9D2704756
:104ED000D2B201E00270401C491EFBD27047002292
:104EE000F6E710B513460A4604461946FFF7F0FFE9
:104EF000204610BD30B504460020034600E05B1C90
:104F0000934203D2E05CCD5C401BF8D030BD034639
:104F10000A780270401C491C002AF9D118467047D3
:104F20000321001D401E037812021A43491EF9D5C1
:104F300010467047034603220870000A491C521E9F
:104F4000FAD518467047F8B502464A40D40F4200D9
:104F50004B0052085B089A4202D2024608461146AC
:104F60004A0023D0C30D4A00DDB2120EAD1A202D27
:104F700035DA49020126490AF6058A19002C00D0C3
:104F8000524220214F1B1146B9402A411018C20D30
:104F90009A4221D0002C17D0012D08DCDA05801AA6
:104FA000D20F8019D207DBB200F080FAF8BDDA0523
:104FB000801A012340001B06C01880185A4280182E
:104FC000CA0F1043490007E04908C2071143DA0538
:104FD000801A80194008801800F060FAF8BD61005E
:104FE0000122511A001BF7E70122D2075140AAE71C
:104FF0000122D2075040A6E7F0B5074608465840C0
:1050000087B0C00F049048000E4659004008490878
:10501000BC1A884105D2384631461E4617460B4613
:1050200002465800400810434CD0300D0390400514
:105030005900400D490D0590401A0290402872DA3F
:1050400018030121000B0905084301900498009200
:10505000002805D001995242002088410092019019
:10506000029840210A1A0199009800F0E3F90546D8
:105070000C466B4607CB00F0FEF9C0197141039A4C
:105080000E0D0023D71756401A467A40164344D0D7
:10509000049A002A2DD0029A012A039A15DC1205DF
:1050A000C01A914101263605001C7141D20F059EA0
:1050B000D2070093019202962A46234600F03CFA5A
:1050C00007B0F0BD38463146FAE71605224A0F46CA
:1050D000B218C01AB74101210905001C4F41001840
:1050E0007F41114618187941E20F10436D19644150
:1050F00013E0E2076D0815436408C2071443039ADE
:1051000001261205C01A91413605001C7141CE07D7
:10511000400830434908C01851412A46234600F050
:10512000FEF9CDE7FFE7049801224000C117121AEB
:1051300000238B4104983146C417381AA141EEE789
:1051400030B40124E407634030BC55E730B4012497
:10515000E407614030BC4FE70000E0FFF0B51FB44A
:1051600088B00B990998002448400999C00F49005C
:1051700049080991C0070B990090490049080B9113
:1051800009990898A64608431CD00B990A98084329
:1051900018D0099801244000420D4800410D09989B
:1051A00024050003000B204309900B980003000B1B
:1051B00020430B9050181C494018002201901446BF
:1051C000104605E0002001460DB0F0BD032801DACD
:1051D000034600E003239C46C11A0AAE0AE05F00C2
:1051E00008ADED5B4F00F75B7D430027AA187C41BB
:1051F000491C5B1E6145F2DD410004AB5A5221049B
:10520000120C0A43240C401C0828DFDB0198029092
:105210000099704601910090059B049A07990698A1
:1052200000F08AF9D0E700000DFCFFFFF0B50C4656
:105230005C4085B0E40FE40703944C00002664084A
:1052400059009446490802460296224321D06246FC
:105250000A431ED06200570D4A000E032303550D6A
:10526000012402462C492405781B1B0B360B4018E1
:1052700023432643614600901C46501AB44103D391
:105280000098401C009002E0921800985B410028B2
:1052900003DA0020014605B0F0BD00200121090518
:1052A0000746864611E064461D46141BB54106D3E9
:1052B0006546521BB341744607430C43A646CD07CF
:1052C00040084908284392185B4105460D43EAD13E
:1052D0001046184313D060461946504071400843A9
:1052E00006D06046101AB34106D20122002306E020
:1052F00000220123DB0702E00122D2435310009871
:1053000074460105381C6141029C039D00196941E6
:1053100000F005F9BFE70000FD03000010B5002212
:105320009623114600F0C2F810BD00000EB5C2175A
:10533000C10F5040CA0740180021054B029301924B
:1053400000910A460B4600F0F7F803B000BD0000DC
:10535000330400000EB505490291002100910A4670
:105360000B46019100F0E8F803B000BD33040000E3
:105370004A0009030123090B1B051943094B10B50A
:10538000520D9A4201DA002010BD064B34339A4286
:1053900003DC9A1A00F05EF810BD034951188840EA
:1053A00010BD0000FF030000CDFBFFFFC20FD207BE
:1053B000400040080BD0C10D0723DB01C918400293
:1053C0000905400A1143C2084007114370470020F5
:1053D00001467047F0B51FB40646002082B005466E
:1053E0004024019100901BE0019922460F4630466F
:1053F00000F030F8049A059B801A994110D31046AA
:105400001946224600F016F8361A8F4101972246B7
:1054100001200021009F00F00DF838184D41009048
:105420002046641E0028DFDC019B00982946324696
:1054300007B0F0BD10B5202A04DB0146203A9140A8
:10544000002010BD914020239C1A0346E3401943DD
:10545000904010BD10B5202A04DB0846203AD04009
:10546000002110BD0B46D340D0402024A21A914009
:105470000843194610BD10B5202A06DBCB17084695
:10548000203A1041C1170B4306E00B461341D040B0
:105490002024A21A91400843194610BD002904DABD
:1054A000401C490001D140084000704770B40024FE
:1054B000050C05D11024000402D1002921D01124AB
:1054C000050E01D100020834050F01D10001241D91
:1054D000850F01D18000A41C002801DB4000641C62
:1054E000002908D020252E1B0D46F540A14000D0F4
:1054F00001212943084301061B1B000ADB1D02D5BD
:10550000002070BC7047DB05181880180029F8DAF5
:10551000401C4900F5D170BC40084000704710B5F0
:10552000002B08DA0024401C614192185B411A43A9
:1055300001D14008400010BDF0B51FB482B005464F
:105540000C0003D0084600F0CFF802E000F0CCF8E1
:1055500020300246009021462846FFF76BFF049B4F
:10556000059A04460F4618431143084314D01846C1
:1055700010431BD0009840210A1A18460599FFF7DE
:1055800069FF05460E46009A05990498FFF752FFF9
:10559000084305D0012004E02046394607B0F0BD9D
:1055A0000020C11705430E432C43374300990E9842
:1055B0006305401A7905E40A00220C43FD0A0A300B
:1055C00002D500200146E9E70105101969410C9C4C
:1055D0000D9D00196941FFF7A2FFDFE74A000903AB
:1055E0000123090B1B0519430A4B10B5520D9A42B2
:1055F00002DA0020014610BD064B34339A4203DC28
:105600009A1AFFF727FF10BD034BD218FFF712FFBE
:1056100010BD0000FF030000CDFBFFFF10B5002907
:1056200004DB0124E40740428C412146002B04DBCB
:105630001C460123DB075242A341994200D190420C
:1056400010BD0000064C0125064E05E0E36807CCBE
:105650002B430C3C98471034B442F7D3FAF734FD8F
:10566000246000104460001070B58C180578401C50
:105670006B075B0F01D10378401C2A1106D1027819
:10568000401C03E006780E70401C491C5B1EF9D1DB
:105690002B0705D40023521E0DD40B70491CFAE7CA
:1056A0000378401CCB1A921C03E01D780D70491C36
:1056B0005B1C521EF9D5A142D8D3002070BD00005A
:1056C0000FB410B504A9074B02AA039800F0ECF838
:1056D000044602A9002000F083FC204610BC08BC50
:1056E00004B01847E15F00102021020C01D0102106
:1056F0001046020A01D010460839020901D01046AE
:10570000091F820801D01046891E420801D0881E58
:105710007047081A704730B47446641E2578641CBC
:10572000AB4200D21D46635D5B00E31830BC1847F6
:1057300002E008C8121F08C1002AFAD1704770475A
:10574000002001E001C1121F002AFBD170470000B8
:10575000F0B51FB484B007980699020D014314D028
:105760004A484B491018484305140F9801280E98D1
:105770001CD0281A401C0024464E47490094019131
:105780000290002814DA474227E00F98012443A32F
:10579000012808D0002104980F9A84600360C26039
:1057A000416009B0F0BD0E98C143F4E74042E2E722
:1057B000074612E0F80707D02246334601990098C1
:1057C000FFF7CCFC01910090224633461046194663
:1057D000FFF7C4FC04460E467F10002FEAD1029862
:1057E000019B0028009A0799069802DAFFF7B6FC99
:1057F00001E0FFF71BFD04460E460022284BFFF791
:105800000DFF03D80020C043014607E00022254BCE
:1058100020463146FFF7F0FBFFF7E0FE102409E0D9
:10582000002C0ADB0A220023FFF7D4FD059B30324F
:105830001A55641E02460A43F2D11122641C059BCC
:10584000121B1C190F9B012B03D0012308430ED1FF
:105850000AE0084304D011200E9000200F9084E746
:105860000E98151A6D1E0BE00E98824202DD002381
:105870006D1C03E0824201DA00236D1E002BEED086
:1058800004980F998260C16030C08AE701FCFFFF75
:10589000104D0000000024400000F03F30000000E8
:1058A0000000F0430000E03FFFB597B0064600253A
:1058B00018E2252877D100242746FD49049400E00A
:1058C0000443761C32780120203A90400842F7D1F8
:1058D00030782A280ED00222307801463039092942
:1058E00016D804990A235943303940181443761CBA
:1058F0000490F1E7189802C804911890002904DA7E
:105900000120400304434842049002200443761CD3
:1059100030782E2814D1042004437078761C2A286D
:1059200009D11898761C80C8189009E00A214F43C5
:10593000303FC719761C3078014630390929F5D92E
:1059400030786C2810D006DC4C281AD068280ED08D
:105950006A2817D104E0742813D07A2812D110E0F5
:105960000120400504430CE00121090501E0032169
:1059700009050C437178814203D1012000052418E8
:10598000761C761C3078119066280BD013DC5828D2
:105990007DD009DC00287BD04528F6D04628F4D0FD
:1059A00047281AD1A5E118E0632835D0642870D0C3
:1059B000652812D19DE170286CD008DC6728F1D0F1
:1059C00069287BD06E280DD06F2806D1BAE07328E5
:1059D0002ED0752871D0782859D01A9A19999047E5
:1059E0006D1C7EE16002400F022809D003280DD013
:1059F0000428189801680DD00D60001D189070E102
:105A00001898EA1701680D604A60F6E7189801686F
:105A10000D80F2E70D70F0E718986A460178117270
:105A2000001D18900020507202A80090012005E08F
:105A3000189802C8189000200091C04361070DD546
:105A4000002101E00199491C0191B94212DA814219
:105A5000F8DB009A515C0029F4D10BE0002101E051
:105A60000199491C01918142FADB019A0099895CF4
:105A70000029F5D1019904981A9B471A2146384606
:105A8000199A00F097FA0199401945180BE04FE078
:105A90002CE113E04EE0009800990078491C009139
:105AA0001A9A199990470198401E0190401CF2D112
:105AB000214638461A9B199A10E137E00A20002146
:105AC000009001916002410F022907D0189A01CA83
:105AD0001892C2179446032908D00AE01898C01DEE
:105AE000C108C90005C91891944607E000B2C21761
:105AF0009446042902D140B2C1178C460022614667
:105B0000944506DA0A460021404291418C462D21F7
:105B100002E0210504D52B216A461173012103E01F
:105B2000E10701D02021F7E7029155E00A200AE0C1
:105B3000102008E01020009000210420044301916F
:105B4000082703E008200021019100906002410F26
:105B5000022907D0189A01CA1892002294460329F4
:105B600008D008E01898C01DC108C90005C91891DF
:105B7000944603E080B2042900D1C0B20021029112
:105B8000210729D51199702906D0009A1021019B6F
:105B90004A401A4305D00EE040216A4611730121A4
:105BA00008E06146014306D030216A46117311991D
:105BB000517302210291009A0821019B4A401A4325
:105BC0000AD16146014301D1610705D530216A46FA
:105BD000117301217F1E02911199582904D035A11A
:105BE0000E910DA90D910DE037A1F9E76146019BDA
:105BF000009AFFF7EFFB0E9B8C469B5C0D9A521EA2
:105C00000D92137061460143F0D10D9805A9081A51
:105C100020300190600703D501200004844300E098
:105C200001270198874201DD381A00E00020019920
:105C300000904118029809180498401A0490E00353
:105C400006D421461A9B199A049800F0B3F9451915
:105C5000002706E003A81A9AC05D199990476D1CA9
:105C60007F1C02988742F5DBE0030CD521461A9B86
:105C7000199A049800F09EF9451904E01A9A302008
:105C8000199990476D1C0099481E00900029F5DC79
:105C900008E00D980D990078491C0D911A9A1999F0
:105CA00090476D1C0199481E01900029F1DC63E1C9
:105CB00009280100303132333435363738396162E2
:105CC00063646566000000003031323334353637A6
:105CD00038394142434445460000000000F05AF97B
:105CE0004519761C3078002800D0E2E528461BB024
:105CF000F0BD600700D406271898C01DC108C90070
:105D000048680A680831C30FDB071891190001D0F1
:105D10009CA108E0210501D59BA104E0E10701D089
:105D20009AA100E09AA1430011985B0810916528A0
:105D30000CD006DC452809D046281DD0472841D183
:105D400041E0662818D067283CD13CE00021112FA3
:105D500001DB112000E0781C0191009008A911A836
:105D6000FFF7F6FC139905910021119A15927F1CFB
:105D700012980197009150E00120C0070390012084
:105D8000019008A9009711A8FFF7E2FC139A149953
:105D900005920022119B009212981593059A019288
:105DA000002901D0104602E0791C40180190381AF1
:105DB00001D5019804E04042401E0090781C0190FB
:105DC000C01B029043E0012F00DA01270021112FB0
:105DD00001DD112000E038460191009008A911A8CA
:105DE000FFF7B6FC13990591119A002112981592AC
:105DF0000091019721070CD40599B94201DB019963
:105E000000E00191012904DD159A491E515C3029F9
:105E100006D0B84201DA011D05DA0121029115E030
:105E20000199491EEDE7002805DC00994118009111
:105E30000199091A03E0019A411C914200DD019188
:105E40000099401A401C02900120C00703902007CF
:105E500006D402990198814202DB0020C0430290DF
:105E600000206946C87707AF012103980337C907A7
:105E7000884224D0022011902B20129003980028F1
:105E80000CDA404203902D20129007E00A2103987B
:105E9000FEF7E2FF30317F1E039039701199481EE2
:105EA00011900029F2DC03980028EFD1791E129896
:105EB00008703078202108404530BF1E387006A891
:105EC000C01BC01D039010980078002800D001204E
:105ED000019941180298C0170918039809180498E5
:105EE000401A401E0490E00306D421461A9B199ADA
:105EF000049800F05FF8451910980078002803D046
:105F00001A9A199990476D1CE00324D521461A9BD3
:105F1000199A049800F04EF845191CE000980028E2
:105F200007DB00990598884203DD1598405C1999B4
:105F300001E0199930201A9A904700986D1C401C76
:105F400000900298401E0290002804D11A9A2E2038
:105F5000199990476D1C0199481E01900029DDDCBC
:105F600005E038781A9A7F1C199990476D1C03999F
:105F7000481E03900029F4DC21461A9B199A0498C4
:105F8000ACE600002D0000002B0000002000000007
:105F900000000000F8B5044600251E461746880498
:105FA00004D405E039462020B0476D1C641EF9D5A5
:105FB0002846F8BDFFB50446002581B01E46C8033B
:105FC00001D5302700E02027880404D505E03846B5
:105FD0000399B0476D1C641EF9D5284605B0F0BD85
:105FE0000A68531C0B6010707047303132333435FF
:105FF000363738394142434445462526270C0802A6
:10600000170D01010209090101060200070007003E
:1060100011001100020011000B0011000800110016
:106020000200000044600010003000203401000035
:1060300068560010E060001034310020E4110000C8
:1060400040570010C1170201050303018309FF082F
:106050000B1209095359445F55415254140111134D
:10606000503082201360101B5024041A14041A1894
:1060700004221052405818010203040506070809BB
:106080000A1112131415161718191A1B1E1F1818A7
:1060900008090A0708111512162C1319141812D022
:1060A0001C0150E004512324F4620413ED05232065
:1060B000DF1B208F081AC604134A0714201E061B74
:1060C0002014141A907019CE12401908298821E260
:1060D0000819141AFF010114091618B20200000071
:04000005100000C126
:00000001FF
