:020000041000EA
:1000000090430020891900109119001085070010F5
:1000100000000000000000000000000000000000E0
:100020000000000000000000000000009519001012
:10003000000000000000000097190010991900103E
:10004000000000009B190010B74700109B1900101A
:100050009B1900109B1900101F130010491300106A
:100060006540001015410010F54100109B1900106B
:10007000B11100109B1900109B1900109B19001062
:100080009B1900109B1900109B1900109B19001060
:100090009B1900109B1900109B1900109B19001050
:1000A0000000000000000000000000000000000050
:1000B0000000000000000000000000000000000040
:1000C0000348854604F0D2FF00480047950600101B
:1000D00090430020F8B50027FC4800970068FF21F6
:1000E00020303D463C463E46017041709F22827062
:1000F000CF22C270017138460122811F0B0004F02B
:10010000F0FF0B070707070C0C0C0C0C10100C0071
:10011000114681400D430C4303E0114681400F43DB
:100120000E43401CC0B22028E7D3284600F08AFFC7
:100130002946002000F053FF2846A04300F0F0FFBE
:10014000204601F005F83846009900F093FF31464B
:10015000002000F011FFF8BD70B586B000206946A0
:100160000872072048741920800148821E20888266
:1001700002A802F01DFC684602F008FC6946D4485B
:100180004E78C6728D780573CC7844730B7983737F
:100190004A79C273897901741B3006714571847183
:1001A000C37102724172024614231B211B3802F0F4
:1001B00005FCC8490120087506B070BD0EB50028C1
:1001C00002D001280FD106E010206946C880C8205F
:1001D0004881002006E050206946C8804B20C000BE
:1001E00048810A200881C0206946087104204871AE
:1001F00001A803F054FA6946488900900B89CA881F
:10020000B5A1002001F019FB0EBDB14910B50C39A4
:100210008878401CC0B28870032808D3002048703A
:100220000120FFF7CBFFFF20013003F057FE10BD88
:100230003EB5A74C0C3CE278D2070ED001246A46AA
:100240001480032555801F259580148103460A4696
:100250006946204602F0D9FD3EBD00203EBD9C4AC5
:1002600010B50C3A9088401C81B2A748918009C80B
:10027000984205D1032903D90020507003F032FFC2
:1002800010BDF0B5A04E85B035687468A54231D078
:100290008F4F0C3F7878002807D10120787000201C
:1002A000B8809A49A32003F0EDFE01239B02A542EA
:1002B00001D32D1B01E0281BC518142D1CD31F468C
:1002C000834900200C398880914B69461A5D641C73
:1002D0000A54BC4200D30024401CC0B21428F5D3F9
:1002E00014216846FFF7A4FF002803D0143D746072
:1002F000142DE5D205B0F0BD002DFBD0B888032841
:10030000F8D30020694608E0814A125D641C0A5453
:100310009C4200D30024401CC0B2A842F4D3E9B2EE
:100320006846FFF785FF002800D074600020B88081
:10033000E0E7F0B504468DB0401C04F004FBC11F9B
:10034000FF39FA3919D0FF2101310027884239D10C
:10035000402000F015FF0822611D03A804F0C6FA32
:100360006846C0891521490288421AD169A003C88C
:10037000019100900820694621E0802000F000FFF4
:1003800021460E221531684604F0B0FA1E22611D86
:1003900004A804F0ABFA04AD0FCD00F0F8F90DB0ED
:1003A000F0BD5E498842FAD16846077001976946F8
:1003B00001A8029700F080FC684601A9007802F0CD
:1003C00015FDECE7424E01210C3E02281FD04E4D98
:1003D00004282DD04A03641C904256D160792279BA
:1003E000000210430128DAD1607A237A02023046F3
:1003F0001A43C078012A38D08843F070002001F0F9
:10040000AAFEFF20013000F0A3FE45A139E03170C3
:10041000FF20B770013003F09AFD0120400200F088
:100420007FFE0623A21D44A1002001F012FAB6E7C8
:10043000627945A1002001F000FAF7703770686812
:10044000012464022860204603F048FDFFF784FE83
:1004500002F050FC204600F07BFE601000F078FEB9
:10046000002001F078FE3FA10BE00843F07001206E
:1004700001F071FE68682860FF20013000F050FE36
:100480003DA1002001F0D9F989E70121C903884283
:100490001AD16079217900020843030004F021FE9B
:1004A0000605929496989A0479E739A1002001F004
:1004B000C4F9684602F064FC6846438802883AA1A1
:1004C000002001F0BAF96AE786E000005830002009
:1004D0000C30002000000240736D6172745F706127
:1004E00072616D7320696E74657276616C3A2578FD
:1004F000206C6174656E63793A2578207376746F29
:100500003A25780D0A000000283500205F0200100F
:10051000283100205359445F5541525401FF0000D7
:1005200055415254206E6F74696679204469736135
:10053000626C6564210D0A00436F6E6E65637465BD
:100540006420616464723A00446973636F6E6E651F
:10055000637465642C7265736F6E3A30782530323F
:10056000780D0A00737461727420616476204020F3
:1005700064697363210D0A0055415254206E6F74F3
:1005800069667920456E61626C6564210D0A000020
:1005900075706461746520727370204143434550E7
:1005A0005445440D0A000000696E74657276616CF2
:1005B0003A2578206C6174656E63793A25780D0A66
:1005C00000000000B2A15CE7B7A15AE7BCA158E760
:1005D000C1A156E7C5A154E70121090488420DD104
:1005E00001A802F0CDFB6846008900906846C388E8
:1005F0008288C3A1002001F020F9D0E60128FCD1B7
:1006000002F078FBCBE6F8B5C54C2078002821D065
:1006100001270026C34D7F02030004F062FD091B81
:10062000060E1C1B1B1B2F0E1B0000F031FABEA177
:10063000002001F002F9022029E02878401CC0B215
:100640002870202806D9BBA1002001F0F6F8384612
:1006500003F044FCF8BD2670384603F03FFCB8A117
:10066000002001F0EAF87D20C00000F0F5F9B8A103
:10067000002001F0E2F802F09AFDF8BD1E210020F2
:1006800002F0C7FDA8A1002001F0D7F808202070D3
:100690002E70F8BD72B600F0C0F8002002F00AFD1E
:1006A00001F034FD002001F0D5FDFF20F53003F00E
:1006B00075F801F031FE00F05DFFAAA3ACA2AFA176
:1006C000002001F0BAF8B349022003F099FC00F0D1
:1006D0005DFEB149022004F05AF800F07BFEFFF7FE
:1006E000F9FC00F0A3FDAD4800210160416002F07B
:1006F00001FB62B68A4EAA4DAA4CAB4F02F074FFC2
:1007000000F071F83078012801D0072801D1FFF7F7
:100710007AFF2868002814D0800509D5FFF773FFF9
:100720000120400203F0C5FBA0A1002001F085F8E4
:100730002888C00505D5FFF768FDFF20013003F0CC
:10074000B8FB2068002814D0C00706D09BA1002069
:1007500001F073F8012003F091FE2078400708D5DE
:1007600001F0DAFD99A1002001F067F8042003F000
:1007700085FEF878C00702D0FFF783FDBEE702F0E0
:10078000E4FCBBE795A1002001F057F8FEE70FB4A9
:10079000F8B569464A8B897F06A8022A09D0944B8E
:1007A0009A4202D1C01D00F08AF9F8BC08BC04B01E
:1007B00018477A4B17241A6862438E4CA1540122C1
:1007C00007E08518AE791D6817277D432D19AE54B3
:1007D000521C9142F5D21868401C18603228E4D3AC
:1007E00000201860E1E7F8B56C4C25686068A84205
:1007F00012D0804E00276068A8420DD017214843D0
:10080000315C8019401C00F016F96068401C606083
:100810003228F0D36760EEE7F8BD10B588B002F07B
:100820004FF8012002F0B2FA5F48083002F0D9FA1E
:1008300003216A46117300245473907BFB22884382
:10084000401C10406A4690731020D0731474517489
:1008500003A802F089FAC02005906748069005A811
:1008600002F0A4FA002002F0B4FCFFF775FC6A461F
:100870001470D4701471547001209470D11D8002D2
:1008800004F06BF8684602F025FC08B010BD0000CB
:10089000757064617465207273702052454A4543D7
:1008A0005445440D0A00000075706461746520723F
:1008B00073702054494D45524F55540D0A000000A5
:1008C000757064617465207273702053554343459D
:1008D00045440D0A00000000456E61626C65206CA5
:1008E0006174656E63790D0A0000000044697361EC
:1008F000626C65206C6174656E63790D0A0000009E
:10090000434F4E4E5F5550444154455F434F4D5009
:100910003A2025642C2025642C2025640D0A000033
:100920003C3000203D3000204F54412073746172F0
:10093000740D0A004F5441206661696C650D0A0010
:100940004F54412066696E6973680D0A000000000B
:100950005374617274205265736574203130303085
:10096000730D0A0032313A35323A32380000000055
:100970004E6F76203133203230313900537964386C
:100980003831315F554152542025733A25730D0A91
:1009900000000000E0390020103A0020B0390020AB
:1009A000F030002008310020003000204556545F10
:1009B00031535F4F54410D0A00000000525443452B
:1009C00056545F3130530D0A000000005254434525
:1009D00056545F313835530D0A0000004552523AE3
:1009E00020486172644661756C74210D0A00000034
:1009F00001FF00003035002033030010FEB501A9CF
:100A0000684600F072FC002001266A46104901ACDD
:100A1000104DB60213780BE00F68225CEA550A68A5
:100A2000521C0A60B24201D300220A60401CC0B2CC
:100A30009842F1D3FEBD70B50D460646002404E091
:100A4000305D00F047FC641CE4B2AC42F8D370BDEA
:100A500028350020283100200022064B06E0002126
:100A6000491C89B29942FBD3521C92B28242F6D3FE
:100A7000704700008C0A000010B5E34B0E241B6980
:100A80001C70541C5C709870D81C03F02FFF10BDB4
:100A900008B502F020FC00206946087001221620EB
:100AA000FFF7EAFF08BD0022D749002801D00A70ED
:100AB0004A704A80CA808A800A81CA607047FEB53F
:100AC000D14D0E4669880024002905D02A78002AD5
:100AD00002D06C7000219FE00178032615296DD0AB
:100AE0001CDC112935D012293ED0132941D01429FC
:100AF00022D1C17982790E0216436E80417A027A40
:100B00000F021743EF80801C03F01DFFE860AC80EC
:100B10002C8133460246BDA1009773E001277F0276
:100B200016290AD020294DD0232957D0242903D1B2
:100B3000801C00F040F92E70FEBD0020FFF73EFB48
:100B4000BFA1002000F079FE384603F000FA012032
:100B500007E00020FFF732FBBDA1002000F06DFE92
:100B600004202870EC60FEBD801C00F0B7F8052062
:100B70001EE0871CC01C03F0E6FE01463A78B94827
:100B800002F014FE0646781C03F0DDFE03463878BA
:100B900000903246B4A1002000F04FFE002E09D094
:100BA00068460471012201A91820FFF765FF06209D
:100BB0002870FEBD012069460871F3E7801C00F033
:100BC000C3F8B8E70020FFF7F9FAADA1002000F064
:100BD00034FE384603F0BBF90720C2E7C1798279B9
:100BE0000E0216436E80417A027A0F021743EF809D
:100BF000801C03F0A8FEE860AC802C8133460246DE
:100C0000A4A10097002000F018FEFEBD435C2C89D3
:100C10001B19491C2B8189B2B142F7D3810716D029
:100C200001463246A94803F061FE2878022802D026
:100C3000082806D01FE0A988E868A44A4018314671
:100C400011E0A988E868A14A4018314611E06E4BCE
:100C5000D9689B88CB18022A02D0082A06D00AE05D
:100C600002463146184602F0CDFB04E0024631460A
:100C7000184602F00EFBA888801981B2A980688806
:100C80008142C2D32A89E888824204D1002000F040
:100C90004CF88FA103E0012000F047F890A100205C
:100CA00000F0CBFDEB882A8991A1002000F0C5FD62
:100CB0000020FFF7F8FEFEBD70B5534C0D462169CC
:100CC0004A7821461431921C03F010FE20694078C6
:100CD000801C287000206061A06170BD38B504469A
:100CE00040782178000208430121090388421BD87B
:100CF000A27882188A4201D9091AA1705949A278AA
:100D00004018E11C03F0F2FD6078217802020A43EA
:100D1000A37882A1002000F090FD002069460870B1
:100D200001221720FFF7A8FE38BD1CB56B4659708D
:100D3000090A9970DA70110A19711870052269464A
:100D40001420FFF799FE1CBD38B504465F482030DB
:100D50000179002905D02038006A5C4A400102F080
:100D600051FB204603F0EFFD617922790B0213431A
:100D7000024671A1002000F060FD204603F0E3FD73
:100D8000617922790B02134302460021084602F0E2
:100D900049FB044602466EA1002000F04EFD002CE7
:100DA00007D000206946087001221820FFF764FE72
:100DB00038BD0120F6E738B5044603F0C4FD61797B
:100DC00022790B02134302465BA1002000F035FD9F
:100DD000204603F0B8FD617922790902114302F03F
:100DE00026FB044602465FA1002000F026FD002CF1
:100DF00007D000206946087001221820FFF73CFE4A
:100E000038BD0120F6E700003C300020434D445F30
:100E100046575F57524954455F5354415254206FCF
:100E200066667365743A25782C73697A653A257815
:100E300020636865636B73756D3A25780D0A000051
:100E4000434D445F46575F45524153450D0A0000EC
:100E5000344B53455454494E475F45524153452006
:100E60000D0A00004A070020436F646555706461F5
:100E700074653D25642025782025780D0A00000042
:100E8000464C415348444154415F455241534520EB
:100E90000D0A0000464C415348444154415F5752AB
:100EA0004954455F5354415254206F6666736574CC
:100EB0003A25782C73697A653A25782063686563EA
:100EC0006B73756D3A25780D0A000000B839002063
:100ED00073656374696F6E204F4B21200000000022
:100EE00073656374696F6E206661696C65212000AB
:100EF0006F74615F726563656976655F636865637A
:100F00006B3A2578206F74615F73656374696F6EE7
:100F10005F636865636B3A25780D0A00636D64341E
:100F20004B53455454494E47577269746520257890
:100F30002025780D0A0000006F746120737A3A252D
:100F40007820636865636B73756D3A2578200000BF
:100F5000436F64655570646174657632303D256415
:100F60000D0A0000436F64655570646174657633E3
:100F7000303D25640D0A0000F0B5AA4C221D9446B0
:100F8000002829D0012826D1A74B002B23D00020F0
:100F900001228240114207D01F5C01252668BD4016
:100FA0002E432660914302D0401C1828F0D318200D
:100FB00001252A4682402B46114209D06446064646
:100FC0002478183EB3401C4363461C70914302D002
:100FD000401C2028EDD3F0BD934B183BD5E7F0B56E
:100FE000904C221D9446002829D0012826D18E4BF2
:100FF000002B23D0002001228240114207D01F5C29
:1010000001252668BD40AE432660914302D0401CB6
:101010001828F0D3182001252A4682402B46114279
:1010200009D0644626780446183CA3409E43634694
:101030001E70914302D0401C2028EDD3F0BD7A4BA6
:10104000183BD5E7784910B530394A6814782146FD
:101050005478240221439478D378240421431B0636
:10106000194381431170080A5070080C9070080EE3
:10107000D07010BD70B56C4E303E73681D782A4636
:101080005D782D022A439D78DC782D042A432406BE
:10109000224302431A70140A5C70140C9C70120EE6
:1010A000DA70F3681D782A465D782D022A439D7810
:1010B000DC782D042A432406224302431A70140AC2
:1010C0005C70140C9C70120EDA7008229C18257843
:1010D0002A4665782D022A43A578E4782D042A4310
:1010E0002406224382431A72100A5872100C987216
:1010F000100ED87208201A1814782046547824024A
:1011000020439478D27824042043120610430843E5
:101110001872010A5972010C9972000ED87270BDD2
:10112000414910B530398A68147821465478240230
:1011300021439478D378240421431B0619430143A7
:101140001170080A5070080C9070080ED07010BD15
:10115000354910B530398A6814782146547824020C
:1011600021439478D378240421431B0619438143F7
:101170001170080A5070080C9070080ED07010BDE5
:10118000294910B530398A681478214654782402E8
:1011900021439478D378240421431B06194341400A
:1011A0001170080A5070080C9070080ED07010BDB5
:1011B00010B51D4C1820303C236919180A781046C8
:1011C0004A78120210438A78C9781204104309063B
:1011D000084310215A181378194653781B021943F3
:1011E0009378D2781B04194312061143884318D010
:1011F0006069002800D08047216918200A181378F8
:10120000184653781B0218439378D2781B0418436E
:10121000120610430870020A4A70020C8A70000E0F
:10122000C87010BD801000508830002070B54D4847
:101230000068C17B89098901C91CC173017C8909C6
:101240008901091D017420308178DF2211408170ED
:101250008378BF210B4083704348006883785B0824
:101260005B00837003781B091B010833037003784C
:101270005B065B0E037003780B400370C378102489
:101280002343C3708378042423438370847820230A
:101290001C4384708578EF242540857085788026EE
:1012A0003543857085780D40857001782140017047
:1012B0000178114001708178022211438170C17858
:1012C0001943C170294A40211160817808221143D5
:1012D000817070BD24490968487008788006FCD583
:1012E0000878DF2210400870704738B500226C463D
:1012F00022701D4B1B680DE01C798C546D46521CEE
:101300002C78D2B2641C2C702C78641C2C702C7835
:10131000641C2C70DC78E407EED0027038BD10B588
:10132000114C20680178C90605D50178EF221140DB
:101330000170FFF763FB20688178890703D5817806
:1013400002221143817010BD10B507484068017832
:10135000C90605D50178EF2211400170FFF74EFB59
:1013600010BD000058300020A030002000E100E057
:101370000F48FF22016801321143016070470C4899
:1013800001220168520211430160704710B57D24AB
:101390002401FF200023074A2146013002F0ECFC23
:1013A00001200023044A2146400202F0E5FC10BD62
:1013B000F0300020711300107F1300100F4801223D
:1013C00001681143016070470C4804220168114311
:1013D0000160704710B50023094A0A21012002F07C
:1013E000DEFF0023074AB921042002F0D8FF0120C4
:1013F00003F081F8042003F07EF810BD08310020CE
:10140000BD130010C913001010B5604C01202061FD
:1014100060615FA0A06120464830E0610120800249
:101420000021A1622062616259A0E16220635B48F1
:10143000606321641020E163A063616458A1E01D32
:1014400003F078FA57A1204603F074FA2020A07127
:1014500010BDF7B5054682B000200090EC68174635
:101460002869A04201D9061B02E0A968201A0E1AB9
:10147000A868761E001BB04200D80646BE4200D3C4
:101480003E46686832460019039903F02FFA009827
:10149000BF1B801900900398A41980190390A868B5
:1014A000A04200D10024EC60002FD9D1009805B0F3
:1014B000F0BDF7B50446C7688068E168C51B606881
:1014C00016464018B54205D9019903F00FFAB8192C
:1014D000E060FEBD2A46019903F008FA0198761BE8
:1014E00041193246606803F001FAE660FEBD70B54E
:1014F0000E4618214843254914464518E86A183510
:10150000002804D001280FD0022805D113E0284676
:1015100000F031F8A04201D2002411E02246314609
:101520002846FFF7C6FF0BE0284600F024F8A0424B
:10153000F4D20446F2E731462846FFF78AFF044614
:10154000204670BDF8B507461048154600780E468F
:10155000002801D1FFF758FFEFF31084012080F33A
:1015600010882A4631463846FFF7C1FFE1B281F3C1
:101570001088F8BD48E70269C1688A4203D88068CC
:10158000401A801800E0501A401E7047403A002070
:101590005465726D696E616C00000000883E002029
:1015A00052545400534547474552000010B5044675
:1015B00080686368421C934205D323681954A26073
:1015C000E068401CE060A2686068824209D121683E
:1015D0002069FFF7B7FFA168884203D00020C0430D
:1015E000E06010BD0020A06010BDFFB581B00126F5
:1015F0001F4635460A9C029802E003F04DF96D1C27
:1016000003998842F9D2AF4200D93D460B98C007F2
:1016100018D1002C16D00B98800701D5002F02D0CE
:10162000202000900CE03020FBE7641E0099019818
:10163000FFF7BCFF0198C06800283DDB002C01D0FB
:10164000A542F2D30198C068002835DB012F01D9EB
:101650007F1E06E03146029803F01EF90399884286
:1016600002D303984643F1E7C14F3146029803F095
:1016700013F90146029A7143511A0291395C01989B
:10168000FFF794FF0198C068002805DB30460399F6
:1016900003F002F90600E8D10B98C0070CD0002C2B
:1016A0000AD0A54208D22021641E0198FFF77EFFD0
:1016B0000198C0680028F2DA05B0F0BDF7B598B01F
:1016C00007A802904020039000200C46049018992F
:1016D00015460826069105902178641C002970D0D3
:1016E000252907D002A8FFF761FF05980028F3DA43
:1016F0001BB0F0BD012200201346022721782329C8
:101700001BD02B2916D02D2902D0302906D101E07B
:10171000184300E03843641C002AEFD100212278EE
:101720001346303B0A2B0AD20A2359438918303911
:10173000641CF4E704210843EDE73043EBE70023A2
:10174000D7B22E2F0AD1641C22781746303F0A2FB9
:1017500004D20A277B439B18303BF4E76C2A0DD058
:10176000682A0BD0702A48D00BDC252A4FD0582A83
:1017700028D0632A0CD0642A4DD10EE06278641C14
:10178000ECE7732A2AD0752A13D0782A43D119E0BE
:101790002868011D296001783AE02A68171D2F602A
:1017A0001768009101900A22394602A800F07BF8E0
:1017B00031E02A68171D2F6017680A2200910190F6
:1017C00007E02AE02A68171D2F6017681022009191
:1017D0000190394602A8FFF708FF1CE02868011DA8
:1017E0002960076839787F1C002914D002A8FFF708
:1017F000DDFE05980028F5DA0DE028680823011DB4
:10180000296001680020102200960190E2E725215E
:1018100002A8FFF7CBFE641C67E7002800DC67E73F
:101820000498002804D0024607A91898FFF78AFEFA
:1018300004990598401805905AE70FB408B504A913
:1018400000916A460399FFF739FF01B008BC04B064
:101850001847FFB5002481B01D461646002902D066
:101860000198FFF7EAFF01277F0713E0600704D123
:10187000A2B240A10198FFF7E0FF325D3FA10198BD
:10188000FFF7DBFF6007F84203D13EA10198FFF7A5
:10189000D4FF641CAC42E9DB600703D039A1019896
:1018A000FFF7CBFF08E7FFB583B00E4670420D9FF0
:1018B0000C9C0090002900DB0846012502E003F0A3
:1018C00001F86D1C05998842F9DA0698A84200D9FA
:1018D0000546002C04D0002E01DB780700D5641EDD
:1018E000B80702D50698002810D0F8070ED1002CB2
:1018F0000CD0A5420AD22021641E0398FFF756FEA1
:101900000398C0680028F2DA07B0F0BD0398C068F9
:101910000028F9DB002E02DA2D21009E02E0780774
:1019200007D52B210398FFF741FE0398C0680028D4
:10193000EADBB807800F022810D1069800280DD1E5
:10194000002C0BD0A54209D23021641E0398FFF76A
:101950002DFE0398C0680028F2DAD5E701970094BD
:101960003146069B059A0398FFF73FFECCE700003F
:10197000B65900105B253034785D20002530327870
:10198000200000000D0A000004488047044800477A
:10199000FEE7FEE7FEE7FEE7FEE7FEE7A51900101B
:1019A000C100001002490148086070470024F4009B
:1019B000AC300020F1B5FA4880470746F948804727
:1019C0000646F74C0120183CA047F64D00200C3588
:1019D000A847F549009888473046A8473846A047A9
:1019E000F8BDF0B5F14DF248A96885B00818044675
:1019F00002F0A9FF2146401C02F0AFFF0024EB4893
:101A000001258668EA480C3831180391487C097C26
:101A100000020843A540284202903BD00B206043BF
:101A20008119E348009109300818019002F08BFFFA
:101A30000746DF48301802F086FF87422AD10F217F
:101A4000009889014018007D00280CD0D84A0099E0
:101A50000D3A8A18517D127D0902114378180199B7
:101A600002F07BFF05E002980399A8430874000A7E
:101A70004874CF4800990D30081802F064FF002820
:101A800008D0022D19D0042D1BD0082D22D0102DE6
:101A900022D08047641CE4B20A2CB0D3C3488168CA
:101AA000C3480C380918487C097C000208438005AB
:101AB00001D1C048804705B0F0BDBFA002E02220A0
:101AC00013E0C4A002F0B2FEC949012088470028F3
:101AD000F5D1DFE7C7A0F5E7CCA002F0A7FEC44927
:101AE000012088470028D5D03B20FFF763FFD1E7CE
:101AF000F0B585B00020694608730872CC4F0874B1
:101B0000CC4EAA4CB847019004AB02AA03A92069A5
:101B100002F094F80028CED00820B047002803D067
:101B20000220B04700280FD06846007A012811D063
:101B3000A0682569407A012826D00228E2D1BE4A51
:101B4000284601999047DDE7012168460172007C33
:101B5000002815D02521A06849014118497B00299A
:101B600008D09349D4314018417B027B0802B34925
:101B7000104388476846B04A017B96322069E1E706
:101B80003D20FFF717FF96E728780007000F05288C
:101B9000B8D1A749EE31A81C88472878872240068B
:101BA000C10FA06811540622A91C883002F09EFEC5
:101BB0003721E06802F0B3FEA4E7F0B58C4999B094
:101BC0000420884700280ED0894904201A3188470C
:101BD00078491F20AC318847994880471620FFF785
:101BE000E9FE19B0F0BD97488047002810D06F4D2E
:101BF000AC68A1790807F4D5E079C2071CD09249F6
:101C0000204698308847A868C179490849001FE0F4
:101C10008C4E8B4F8A4DB2361C376C46103507E020
:101C20006846B0470128DCD168460178601CB84797
:101C3000A8470028F4D0D4E782070BD5824A204673
:101C40001C328E30811C9047A868FD22C17923E0A8
:101C5000C171C6E7420708D57B4920466031A830EC
:101C60008847A868FB22C17916E00207F726002AF8
:101C700009DA754A21464232A07A0B319047A868AA
:101C8000C1793140E4E7C00608D56F4968467C3128
:101C90008847A868EF22C1791140D9E72046314032
:101CA000FF30A1712130017D0026002910D006757A
:101CB0002146072287310CA802F018FE21460DA804
:101CC0002A228E31033002F011FE60490CA88847A9
:101CD00001206946087048708E70A96800A82A2201
:101CE00003308E3102F002FE2D220821584C6B4643
:101CF0000020A04775E72D490128096A0FD0022866
:101D000011D0042812D0082813D0102814D020286D
:101D100015D0402816D0802818D001207047887828
:101D2000C007C00F7047887880070DE088784007AB
:101D30000AE08878000707E08878C00604E0887821
:101D4000800601E088784006C00F70478878C00997
:101D5000704710B50178012920D1401C02F0F3FD35
:101D6000124A10281BD00EDC012877D002287DD023
:101D7000042871D0082811D1FFF7BDFF00280DD12C
:101D80000948563809E0202867D0402806D1FFF7D7
:101D9000B2FF002802D10448801E804710BD7DE0BC
:101DA000BF650000776A0000CF160000B030002049
:101DB000CE030000011200006C69623A204C4C20F6
:101DC0005465726D696E6174652054696D656F75D7
:101DD000740D0A006C69623A204C4C20566572738F
:101DE000696F6E2054696D656F75740D0A0000008F
:101DF000F50A00006C69623A204C4C20456E632065
:101E000054696D656F75740D0A0000006C69623A63
:101E1000204C3263617020436F6E6E557064617444
:101E2000655265712054696D656F75740D0A000007
:101E300049570000791900008B1E00002B6200003A
:101E4000BD600000054E000027260000DF470000AF
:101E5000A13E000002E009E010E02FE00120FFF7C2
:101E60004AFF00289AD1FFF7A8FE97E70220FFF764
:101E700042FF002892D1FFF73BFE8FE70420FFF7D7
:101E80003AFF00288AD19068407A012803D00228BE
:101E900084D1F94881E7F848AE387EE71020FFF793
:101EA0002AFF0028E1D1106A2030407D400701D58B
:101EB0003E2000E00820FFF77DFD6FE72020FFF7C0
:101EC0001AFF0028D1D1ED4867E770B51025082624
:101ED000EB4C002821D0206A817E31438176014677
:101EE00060310A7E637852095201DB06DB0E1A4329
:101EF0000A762030427B067B1302A26833432332EA
:101F0000547C167C22023243934214D00273120A8C
:101F10004273C87D2843C8750DE001F07CFE206A3D
:101F20000022014620310A734A736030C17D294383
:101F3000C175D4480677012070BD10B5D0488068BF
:101F40002330417C027C080210430FD0CEA002F067
:101F50006DFCD34948780A780002104303221043ED
:101F60000870000A48700120FFF7AFFF16E730B491
:101F7000CC4CA44630BC6047F8B5C948407A00064E
:101F800070D5BF48866830462330417C007C0F0204
:101F9000C34907434878097805020D43002F01D152
:101FA00068075FD5BE4CA07B617B0002641C0843C0
:101FB00058D0002F56D060792179000208432ED1E5
:101FC0002136707C317C0002084302F0D7FE0022EB
:101FD000B54B02F0D7FD02F0DFFE80B278436421FA
:101FE00002F070FC4004010C2171080A60710A20A3
:101FF0004143707D327D00021043814206D30A21A5
:10200000401E02F05FFC2071000A60716079217946
:102010000002084303D10120207100206071A04814
:10202000A9070FD502218D4301210D430570290A0F
:1020300041700020FFF749FF6079227901021143C6
:102040009AA004E060792279010211439EA002F077
:10205000EDFB6079227901021143A24B002240205E
:10206000FFF785FFF8BD1CB58D494A7A002A3DD09F
:102070004A780B7812021A43D30637D4437804788F
:1020800018022043012831D1C878401E0006000EF6
:10209000C8702CD008468B78017AC27909021143A6
:1020A000027BC47A12022243C01C012B27D0521A91
:1020B0000272120A42721206037A120C1A43531A5F
:1020C00069460B804A8076498A7B497B12020A4323
:1020D00069468A80417B027B080210436946C880BA
:1020E00081A002F0A3FB8849684688471CBD887A16
:1020F000C870402002430A70100A48701CBD521874
:10210000D6E7824A1047814A2032104738B500246A
:1021100069460C7021467F20FFF7F5FF00213B2028
:10212000FFF7F1FF29213B20FFF7EDFF69463B2038
:10213000FFF7E7FF68460078800701D5012038BD2A
:10214000641CA4B2FF2CF1D9002038BD10B5704832
:102150008047012022E610B549496E4A8870002860
:1021600007D188688078022803D00020904701209A
:1021700014E60120FAE710B5414C0128A1688870E7
:1021800004D0002836D002284BD05EE0A06A014679
:1021900020310A78520852000A700A78FD231A404A
:1021A0000A700178890989011C3101704178890917
:1021B00089011C31417000217F20FFF7A4FF03211A
:1021C0002120FFF7A0FF1F210320FFF79CFF7D20A8
:1021D0004E49C0008031884702217F20FFF793FFDE
:1021E00001210020FFF78FFF00217F20FFF78BFFE9
:1021F0000F2127E000217F20FFF785FF0021042029
:10220000FFF781FF02217F20FFF77DFF00210846B5
:10221000FFF779FF00217F20FFF775FF00210320E2
:1022200011E002217F20FFF76EFF03210020FFF75E
:102230006AFF00217F20FFF766FF00210320FFF7E0
:1022400062FF00210420FFF75EFFA078FFF783FF05
:102250000120A3E510B5FFF78EFF01209EE52C4875
:1022600010B50C3080470648406A017ADF221140E1
:102270000172012092E5000027150000C116000040
:10228000B0300020200002404C69623A456E616225
:102290006C65206C6174656E63790D0A0000000046
:1022A000EF3E0020AB4400000000F43F4C69623A6E
:1022B00044697361626C65206C6174656E63793A20
:1022C00025780D0A000000004C69623A4578746573
:1022D0006E73696F6E2074696D65723A25780D0AA8
:1022E000000000003B1F00104C69623A6D6173747E
:1022F00065722072656A6563742020434F4E4E20DC
:10230000504152414D0D0A0033420000C5610000AA
:1023100007470000A7650000FEB5FE488047FE4C59
:102320000190606A817A007ACF07FF0F002672B6AB
:10233000800702D00126FFF792FFF748406A817AB2
:10234000490849008172F349012018398847022061
:10235000FFF711FFF14964208847002469460C709B
:10236000254601217F20FFF7CEFE00210A20FFF73E
:10237000CAFE22210A20FFF7C6FE69460A20FFF79F
:10238000C0FE684600784007EFD469460A20FFF790
:10239000B8FE68460078400705D568460078000713
:1023A00006D4012504E0641CDD48A4B28442ECD3C9
:1023B000DA49642088470020FFF7DDFED5490198FF
:1023C00018398847D448406A817A49084900394316
:1023D0008172002E01D0D348804762B6002D01D013
:1023E0000120FEBD0020FEBD10B51121CE4802F037
:1023F00096FAD3E470B50446401C02F0A4FA022811
:1024000018D0042819D001214904884244D1254616
:102410002035687B092301070209090F0020072ADC
:1024200019D0032A1DD0022A22D0012A26D0002A40
:102430002AD02FE0FFF7D8FF37E0B748FF218068A8
:10244000012235310A548078002801D1FFF764FF5A
:10245000FFF75CFE29E0581A062148434121C94391
:1024600004E0581A062148433521C943081A10E0F0
:10247000581A062148432321C943F7E7581A062171
:1024800048431721C943F1E7581A06214843801DE4
:10249000404240B2687308E0402821D00121C903BE
:1024A000884202D1601DFFF7DEFD9F494878097818
:1024B0000002084380060BD5601C02F044FA0105B7
:1024C000090F05D0014699A002F0B0F9FFF754FDBD
:1024D0009148303002F037FA01462046884770BDF7
:1024E0008D482C3002F02FFA4006DED570BD97499A
:1024F00008471CB58C480821017000214170014635
:10250000087BCA7A0002C91C10432FD04A790B7984
:1025100012021A43821A92B26B461A80588006231E
:10252000062A01D26A461380062801D268464380F3
:10253000487B097B000208436946C8807A48817B52
:10254000427B0802104369468880734880682330C4
:10255000417C027C0802104302D00020FFF7B5FC4A
:102560007B49684688477949402088471CBD6E49A9
:1025700048780A7800021043C2050CD5FF220132C8
:1025800090430870000A48700879401E0006000E4B
:10259000087109D0ADE72022104310229043042295
:1025A00010430870000A48707047F0B55E4C05464D
:1025B000607821780002084389B000077ED565481D
:1025C00080476178227809021143082291432170E3
:1025D0000A0A6270637A064620461A066FD5AA79FF
:1025E0006F7912026C1C3A434B4FED1C002A76D0D7
:1025F0001022114301700A0A427088065FD4607984
:1026000021790002084331D002F0B8FB009102901A
:10261000687829780002084302F0B0FB00224E4B94
:1026200002F0B0FA009B029A02F0ACFA054604915F
:10263000B8682130417C027C0802104302F09EFB06
:102640000022454B02F09EFA07460191607A217AFA
:1026500000020843801B02F07DFB3A46019B02F01A
:1026600091FA2A46049B02F0DBF924E06878297885
:102670000002084302F066FB0546B8682130417C41
:10268000027C0802104302F05DFB294602F06EF95D
:1026900002F0A0FB0022304B02F074FA07460D4610
:1026A000607A217A00020843801B02F053FB3A460D
:1026B0002B4602F067FA0022284B02E0A3E08FE0ED
:1026C0000DE002F0C7FA02F067FB0104090C00D12B
:1026D0000121234B00228020FFF749FC8AE09A0663
:1026E0007ED58278012A7BD18A0679D4FF220E48D2
:1026F000013211430170090A41706878297800029B
:102700000843094904900A7BCB7A11021943884295
:1027100070D927E0BF650000B03000202B620000B8
:10272000FFFF000007470000EF3E00204C69623ABF
:10273000534D415254204C4154454E43592054412D
:10274000524745542025780D0A000000B34400008C
:1027500033420000BF5500000000F43F0000594024
:102760006F25001002F0EEFA0546B8682130417C72
:10277000007C0F020743384602F0E4FA294602F0D3
:10278000F5F802F027FB0022F64B02F0FBF90546B4
:102790000791607A217A000208430590801B02F0BD
:1027A000D9FA2A46079B02F0EDF90022EE4B02F01F
:1027B00051FA02F0F1FA0404240C00D1012400972C
:1027C00001943146E948049B059A02F02FF8E84B42
:1027D000002221468020FFF7CAFBE648417800E04E
:1027E00008E0027809021143FF220132114301700F
:1027F000090A417003206946088402229103DE4CD5
:1028000008AB0020A04709B0F0BD70B504460078C1
:10281000002825D1A178627808021043651DD74EA3
:1028200000281ED001281BD101F0F5F9D449201D44
:102830008847002814D168792A790102306A114347
:1028400020304278037812021A438B1A42780078BB
:1028500012020243CBA001F0E9FF2820FFF7AAF8FB
:1028600070BD01F0D8F9D049201D8847002814D147
:10287000687A2A7A0102306A11432030427803785C
:1028800012021A438B1A4278007812020243C7A040
:1028900001F0CCFF2820FFF78DF8201DFFF785FE03
:1028A0000121B368062209040020B34C3133A0474C
:1028B00070BD10B50078012801D1FFF792F849E406
:1028C00070B586B0C2A001F0B1FFC54880470121B4
:1028D0007F20FFF718FC69465020FFF712FC68467E
:1028E0000078042804D0BFA001F0A0FFC4488047AE
:1028F000FFF712FDFFF70AFC0124684644800480BC
:10290000C0480190C04968468847684604704470D2
:1029100000244480BD48994D0190BD4BA868082211
:102920006946C01801F0E2FF0121BA4E4020B047CD
:1029300001218020B04701212020B04703216846B3
:10294000018041808480C480048144818481C48169
:10295000B148AD4904906846A239884768680A3092
:1029600001F0F1FF834AAD4B573A572198470120B8
:1029700006B070BD9A4810B50A308047012068E45F
:10298000974910B528318847012062E4944910B571
:102990005E31884701205CE4914910B56A3188476F
:1029A000012056E48E4910B578318847012050E463
:1029B0008B4910B58831884701204AE410B56E4C28
:1029C000383CA047012044E4F8B56C4C9449A06819
:1029D00037308847E0683B230178BF250A09A168A2
:1029E00012015B5C1B071B0F1A4302701207120FC8
:1029F000012A7BD00B4640335A781B7812021A43C7
:102A00000B4642331A70120A5A7002788B7A2A40A7
:102A10009B011A435206520E027066235B5C427899
:102A20009B1D92099B0692019B0E1A43427006223F
:102A3000801C0B3101F05AFFA1686620425C002A1D
:102A400004D0E0686731083001F050FFA068002131
:102A500020304177E068734A41788906890E891CE5
:102A60009047E06801780A091201121D0270A168FE
:102A70002A408B7ADB075B0E1A43027046235B5CAD
:102A800042789B1D92099B0692019B0E1A4342704D
:102A90000622801C0B3101F029FFA1684620425C10
:102AA000002A04D0E0684731083001F01FFFE068D9
:102AB0005C4A41782C328906890E891C9047A568AA
:102AC0003B20405D012601283ED0002849D0022845
:102AD00047D0062845D054A001F0A8FE0023264C7C
:102AE0001A4601211846A047F8BDFFE70A464032C2
:102AF000137953718B7A0278DB072A405B0E1A43F5
:102B0000027087235B5C5206520EDB011A4302708F
:102B100042780B31920992010C3242700622801CDD
:102B200001F0E4FEE068A16806220830883101F077
:102B3000DDFEA16803223D204254394A8720405CD3
:102B4000323A8831904785E728464030427921461D
:102B5000002A71D0282706240D4641793B4622469B
:102B60006BE07EE00000F43F00005940C8590010BF
:102B70006F250010EF3E0020A13E0000B030002085
:102B8000475F00006C69623A636820696E73742065
:102B900025303478202C2025303478202C20253006
:102BA0003478200D0A0000005D5B00006C69623A19
:102BB000636F20696E73742025303478202C2025B3
:102BC000303478202C2025303478200D0A00000085
:102BD0006C69623A426C65496E69740D0A000000C6
:102BE000793D00006C69623A2052455345545F5468
:102BF0005950455F57525F52465F4552520D0A0089
:102C0000F7460000B32800102F440000531D0010A9
:102C1000CE020000615500000B280010595300003F
:102C2000B1570000D96000006C69623A2053746F9C
:102C30007020300D0A0000000FE0F7A001F0F6FD53
:102C4000286A817EFD22114081760675A86821469A
:102C50002030437F027F384646E0012746713C46DC
:102C60007AE72C4642346078217802020A4316D073
:102C70002235697F19202B7F8001090242431943C5
:102C800001208F04BF0C06D03946104601F004FE27
:102C9000401C7F2809D8C5B22670300A0CE0300AE3
:102CA0002670012560702F4607E07F2529467E307B
:102CB00001F0F2FD2070000A607000062278010C1D
:102CC00011432B463A46DFA001F0B0FDE848006A08
:102CD000817E0222114381760675E5483946806877
:102CE0002030437F027F2846E24CA047E1483E3037
:102CF0008047F9E610B5FFF767FE0120DFE510B564
:102D0000DDA001F093FDE04903200870DF49642055
:102D10008847DF4880470120D1E510B5D6A001F0F3
:102D200085FD72B60021D24A106A4175037C0121EB
:102D30000B43037490684522115442300170002106
:102D4000417062B60120BAE510B5D249884701202A
:102D5000B5E5D04810B55C3080470120AFE510B52F
:102D6000CD4880470120AAE5CB4910B508318847F6
:102D70000120A4E5C84910B51631884701209EE519
:102D8000C54910B578318847012098E5B8494870A1
:102D900001207047C04910B58631884701208EE573
:102DA000BD4A10B58E329047012088E57CB50546B6
:102DB00001F0C9FDAE4904462C3101F0CEFD281DBD
:102DC00001F0C1FDAA49303101F0C7FD4020844324
:102DD000B248B14901900094684696318847012075
:102DE0007CBD10B5AE498847012068E5AC4A10B5F6
:102DF00008329047012062E510B5AA4880470228B2
:102E000001D900205BE5012059E5F8B50E460746DB
:102E1000A5491C4615460120884700280AD0A1482C
:102E20008047022807D923469D4C2A46314638461A
:102E30001834A04758E6002056E69C49084710B5CC
:102E40000446994901208847002803D09749204625
:102E50000831884733E570B50546934A0C46012092
:102E60009047002804D0914A2146284622329047B4
:102E700070BDFFB50F4681B08B491D461646012037
:102E80000A9C8847002807D00094884C2B4632467D
:102E9000394644340198A04705B0F0BDF8B50E4658
:102EA000074681491C46154601208847002806D060
:102EB00023467E4C2A46314638467C34A04713E6EA
:102EC00010B50446784901208847002803D0774987
:102ED0002046AC318847F2E470B50546724A0C468C
:102EE00001209047002804D0704A21462846C63267
:102EF000904770BD70B505466B4A0C46012090475F
:102F0000002804D0694A21462846E832904770BD1F
:102F1000F8B50E46074664491C4615460120884709
:102F2000002805D02346624C2A4631463846A04741
:102F3000DAE570B50D4606465B4914460120884720
:102F4000002805D05A4B2246294630463033984750
:102F500070BD70B50D46064653491446012088479A
:102F6000002805D0524B2246294630465C3398470C
:102F700070BDF8B50E4607464B491C461546012064
:102F80008847002806D02346494C2A463146384611
:102F90008834A047A8E510B5044643490120884776
:102FA000002803D042492046B831884787E410B54D
:102FB0003D4901208847002802D03D48CC30804759
:102FC0007DE470B52A4D0446082804D0A8684078EE
:102FD00008280DD014E000217F20FFF794F801218C
:102FE0004020FFF790F8686A0178C908C9000EE030
:102FF00000217F20FFF787F800214020FFF783F8AA
:10300000686A01786207C908C900520F114301704C
:10301000A8684470012070BD6C69623A2041445632
:103020005F44495228746F3D253034782C206974F0
:10303000763D253034782C20636E743D2564290D4F
:103040000A0000006C69623A204144565F494E44D0
:1030500028746F3D253034782C206974763D2530F6
:1030600034782C20636E743D2564290D0A0000001D
:10307000B03000205F5600006C69623A2053746FD4
:10308000704164760D0A00000000024045620000B5
:1030900007470000014100001D420000F523001019
:1030A0002D4300002B4E0000F50A0000B73A000047
:1030B000BB3B000085E710B50446FB488047207005
:1030C00001205CE410B50446F748801D804720705D
:1030D000012054E4F44910B51C31884701204EE426
:1030E000F14810B572308047012048E4EF480047AE
:1030F000EF490847EE491A31084708B5ED496846D7
:1031000088476846C0788007C00F08BD08B5E94900
:10311000684688476846C078C00900D0012008BDCD
:1031200010B5FEF7EEFF2AE410B5FEF7ECFF26E43B
:10313000E148006AC07B052805D0062803D00F2887
:1031400001D0002070470120704710B5FFF7F0FF55
:10315000002802D1D4485230804701200FE410B536
:10316000D5490122086A4275437CDB09DB019B1CBF
:103170004374931E83741B0AC374496ACB7AEF2489
:103180002340CB724B7B93434B738B7A13438B72ED
:10319000817E022319438176017C11430174C44965
:1031A00005201A318847C5488047012005E4C348F7
:1031B00010B512308047012005E4BE4910B57E31BC
:1031C000884701209AE5BB4910B596318847012010
:1031D00094E5BA4910B55831884701208EE5B749C2
:1031E000AC310847B54910B5FA318847012085E56B
:1031F00010B5B3488047012080E5B14810B51830BC
:10320000804701207AE5AE4BA2331847AC4BD83348
:10321000184770B50446A8480E464068283001F0AB
:1032200092FB054632462146A6A001F0FFFA002D8A
:103230000BD072B62819AD4A31469047044662B6A3
:10324000ABA001F0F3FA2046E5E60020E3E6F8B58E
:1032500005469948164640680F46283001F073FB32
:10326000044633463A462946A7A001F0DFFA002C6F
:103270000DD072B660199D4B32463946EA3B9847ED
:10328000044662B6ABA001F0D1FA20462CE400203F
:103290002AE4F8B505468848164640680F462830A7
:1032A00001F051FB044633463A462946A7A001F0F7
:1032B000BDFA002C0DD072B660198C4B32463946DF
:1032C000823B9847044662B6ACA001F0AFFA2046B4
:1032D0000AE4002008E4F8B5AE4800240078834EE4
:1032E000754D002816D0012830D036E0143001F09A
:1032F0002AFB2703C1190122A7A001F097FA72B691
:103300006868143001F01FFBC0190121B04762B694
:10331000641CE4B26868C17B827B09021143A1424C
:10332000E4D81AE0103001F00EFB2703C119012286
:1033300099A001F07BFA72B66868103001F003FBC7
:10334000C0190121B04762B6641CE4B26868C17B51
:10335000827B09021143A142E4D80120C9E4F8B5F7
:1033600004460E46000B544D82196868C17B837B6E
:10337000090219438A4201D90020BAE485495B4F0A
:103380000978002902D001290CD01CE0143001F08A
:10339000DAFA0119324686A001F048FA72B6686876
:1033A00014300AE0103001F0CEFA0119324686A03E
:1033B00001F03CFA72B66868103001F0C4FA0019E6
:1033C0003146B84762B6012093E4F8B50446714827
:1033D0000F4601783848454D4068823D1646002921
:1033E00002D0012903D00BE072B6143001E072B6AE
:1033F000103001F0A8FA001932463946A84762B6E3
:10340000012076E430B42C4B5C68E37BA47B1B0288
:1034100023431B03834202D230BC0020704730BCE0
:10342000C9B2D2E730B46E4CA44630BC6047F3B5A5
:10343000214889B040680024283001F084FA07460A
:1034400009984609002511E072B66801274BC0199A
:1034500020216A46EA3B984762B6002069460A5C2A
:10346000401C121994B22028F9D36D1CB542EBD33D
:103470000998C606F60E72B6314668011B4BC01994
:103480006A46EA3B984762B60020694603E00A5C58
:10349000121994B2401CB042F9D30A98844202D166
:1034A00001200BB0F0BD9DE09F440000FB5F0000D9
:1034B0002B6200004D650000B0300020E5460000A2
:1034C000034800004C69623A3E3E457261736546AE
:1034D0006C6173684461746120616464723A257838
:1034E000206E756D3A25780D0A00000043540000E7
:1034F0004C69623A3C3C4572617365466C61736825
:10350000446174610D0A00004C69623A3E3E5265A6
:103510006164466C617368446174612061646472C3
:103520003A2578206C656E3A2578206275663A25D2
:10353000780D0A004C69623A3C3C52656164466C05
:10354000617368446174610D0A0000004C69623A5D
:103550003E3E5772697465466C617368446174617C
:1035600020616464723A2578206C656E3A25782073
:103570006275663A25780D0A000000004C69623ACF
:103580003C3C5772697465466C6173684461746150
:103590000D0A0000983E00204C69623A436F646552
:1035A00045726173653A25782025780D0A00000080
:1035B0004C69623A436F64654572617365313A25BF
:1035C000782025780D0A00004C69623A436F6465E3
:1035D0004572617365303A25782025780D0A000020
:1035E0007B4A000000205CE7F8B5FC488047FC4CB3
:1035F000607A002840D00006042500280FDA6078A1
:10360000217800020843400709D5FEF7B5FC607831
:10361000217800020843A8432070000A6070607897
:10362000217800020843EF4FEF4E41060CD54021B0
:1036300088432070000A60700220694608800246B4
:103640006B4639460020B047607821780002084375
:10365000C10711D0400840002070010A6170800746
:1036600002D56846058002E00520694608800222EE
:103670006B4639460020B04721E4DC48004738B5A6
:10368000DB4C2078002808D1DA4968468847DAA060
:10369000009901F0CBF801202070012038BD70B5F1
:1036A0000278002A49D0CE494A7242788A72002AAA
:1036B00001D0042A01D904228A72C27884781302C4
:1036C0002343C74A1C0AD372147344790579240230
:1036D0002C4315466C73240AAC73C4798579200297
:1036E0002843D073000A1074C14808258068D21C92
:1036F0002130447C007C240204430120A3428870D2
:1037000008D91B1B07E01071000A01E01571280A97
:10371000507107E0E31A8C7AA3420ADA1071000AAA
:1037200050718B72887AC8700871FEF7E2FE012032
:1037300071E4E400A342E9DAE5E700206BE4AC4978
:10374000C9690870020A4A70020C8A70000EC870BB
:10375000487A022210434872704738B50446002068
:103760000090A44968468847A7A0009901F05EF838
:10377000009AF8208243E006010E1143A6A00091B2
:1037800001F054F80098FFF7DAFF38BD994872301D
:10379000004798495A310847A3490847A2491A31B6
:1037A0000847A2480047A1490C310847F8B5002650
:1037B0000B4604460125304631462D03675C491C03
:1037C000BE19A942FAD30021675C491C7840A9427E
:1037D000FAD39E4222D1904220D1854E70680A30A1
:1037E00001F0B1F87E4900195722573901F07EF8EF
:1037F00070681C3001F0A7F8B168001907220A317F
:1038000001F074F801218A4A00209047884B00207B
:1038100022462946823B9847012037E5002035E5BE
:1038200070B501260546724C3603814B00203146A7
:10383000EA3B626998477F492846884760681C30A0
:1038400001F081F8616907224018A1680A3101F08E
:103850004DF80121764A00209047754B00203146F3
:10386000823B62699847EFE410B5044660484068BF
:103870000A3001F068F86E4B1021EA3B22465730BF
:1038800098471EE470B501260546594C3603684B2F
:1038900000203146EA3B626998470121644A0020D2
:1038A000904760680A3001F04EF861691022573184
:1038B0004018294601F01AF85D4B00203146823B42
:1038C00062699847C0E44A4800690178C94389079A
:1038D00002D18078062801D000207047012070476F
:1038E000554A1047F3B581B006002DD0404FBC6952
:1038F000E079A17905020D43E01C01F024F8A178DC
:10390000000208430446024629464CA000F08EFF00
:10391000002D1BD0002C19D00121454B090300209C
:10392000EA3B7A69984778680A3001F00CF87969BF
:103930006731475C47A0394600F078FF7F1CFFB233
:10394000032F05D90220FEBD0120FEBD0420FEBDCF
:10395000B54204D10298844201D10020FEBD01216C
:10396000334A00209047224C60680A3000F0EBFF99
:1039700062692F4B1146673147540121090300202A
:10398000823B98470320FEBD154801215738027835
:10399000174809074068002A03D0012A07D00020F1
:1039A0007047C27B837B10021843400304E0C27B54
:1039B000837B1002184300034018704770B505461A
:1039C00007480E465738017809480124A403406887
:1039D000002947D0012947D0002035E45B4600008C
:1039E000EF3E002000800000A13E0000F94B0000E7
:1039F000B03000204D6500004C69623A6368697020
:103A00003A25780D0A0000006C69623A65667573A4
:103A1000653A2578200000006C69623A6D616E7528
:103A2000616C3A25780D0A002B620000776A00006D
:103A300043540000A13D0000D96000004C69623A87
:103A4000746D703A257820746D70313A25780D0ABE
:103A5000000000004C69623A636E743A25780D0AE2
:103A600000000000143000E0103000F06CFF04197A
:103A700033462A4621469AA000F0D8FE72B6601955
:103A8000A44A3146904762B652E6F8B50546A248C8
:103A90000E460178A1480124A40340681746002976
:103AA00003D0012903D0002012E4143000E01030CC
:103AB00000F049FF041933462A46214698A000F039
:103AC000B5FE72B66019934B3A463146EA3B9847C9
:103AD00062B643E4F8B505468F480E4601788F4834
:103AE0000124A40340681746002903D0012903D00C
:103AF000002033E4143000E0103000F024FF0419FB
:103B000033462A46214691A000F090FE72B6601915
:103B1000804B3A463146823B984762B61EE410B568
:103B2000030001F0DEFA09060C16202A343E415B40
:103B3000770001217F20FEF7E6FA882104E00121C9
:103B40007F20FEF7E0FA8A216120FEF7DCFA81216E
:103B50005DE001217F20FEF7D6FA8A216120FEF781
:103B6000D2FA832153E001217F20FEF7CCFA8A218B
:103B70006120FEF7C8FA872149E001217F20FEF786
:103B8000C2FA8A216120FEF7BEFA8F213FE00121AF
:103B90007F20FEF7B8FA8A216120FEF7B4FA9F2150
:103BA00035E001217F202BE000217F20FEF7ABFADA
:103BB00002213020FEF7A7FA01217F20FEF7A3FAA9
:103BC0001F216320FEF79FFA03216D20FEF79BFA69
:103BD0008A216120FEF797FAB02118E000217F20AA
:103BE000FEF791FA02213020FEF78DFA01217F20A5
:103BF000FEF789FA1F216320FEF785FA07216D2061
:103C0000FEF781FA8A216120FEF77DFABF21652047
:103C1000FEF779FA35E610B500F055F8002804D023
:103C200000F051F80128FBD02BE600F04CF80028FA
:103C3000FBD000F048F80128FBD022E6F0B5374C65
:103C40000025246AE678360701D500202AE400BF63
:103C50006D1CEDB2642DFAD3254640356E7CB60757
:103C6000FCD400252646C036377947556D1CEDB289
:103C7000022DF9D346780125F709002F08D0F60662
:103C8000F60E0E70157042785206D20F1A7004E0CC
:103C9000B3069B0E0B7000231370204B0A781B6A2F
:103CA000801CC033272A0CD20022C03403E02679BE
:103CB0008654521CD2B20E789642F8D85D7201201A
:103CC000C4E75D72C1E71548016A0A466032907C1C
:103CD000927C603101E0887C8A7C9042FBD1704705
:103CE0004C69623A4572617365436F646542206254
:103CF000617365416464723A257820616464723A44
:103D0000257820736563746F725F6E756D3A2578E0
:103D10000D0A000043540000983E0020B0300020FF
:103D20004C69623A52656164436F64654220626126
:103D30007365416464723A257820616464723A253F
:103D400078206C656E3A25780D0A00004C69623A5D
:103D50005772697465436F6465422062617365419F
:103D60006464723A257820616464723A2578206C24
:103D7000656E3A25780D0A0070B51E46002913D0ED
:103D8000FE4DAC696B699C420ED205C408467D218C
:103D9000490148437D21083C00F07EFDA060267368
:103DA000002060611834AC6170BD884200D30846C1
:103DB000704710B5F14C60682030017CC9070FD006
:103DC000017C490849000174082000F02CFA606861
:103DD0002030417C0122114341743220FFF7DCFC8A
:103DE00010BD70B5E54C064660680D462030017C7C
:103DF000C90706D0017C4908490001743220FFF749
:103E0000CBFC626820321675300A5075300C907504
:103E1000300ED075107C102108431074907C40083F
:103E200040009074D6480560507C012528435074AA
:103E3000082000F0EFF960682030017C294301740C
:103E400070BDCEE770B5CD4D18212878AE684843D7
:103E500069690C1A2869801928610020C043A8608C
:103E600018E0207B002814D02069B04204D160689B
:103E7000002807D0804705E0801B206102D0A168A0
:103E8000884201D9A0682061A968884200D9084603
:103E9000A860183468698442E3D3A868002805D074
:103EA000411C03D0B749FFF7CCFF70BDFFF781FF7E
:103EB00070BDB249CA688243CA607047AF48406863
:103EC000014644310A7810464A78120210438A7833
:103ED000C97812041043090608437047F8B505462F
:103EE000FFF7ECFFA54A91680E1A0020C043166147
:103EF00090601078182153694843191A002718E078
:103F00000868A84202D10F734F6111E0087B0028B6
:103F10000ED00869801B086102D08C68A04201D9CC
:103F20008868086104469068844200D82046906002
:103F300018319942E4D39068002805D0411C03D081
:103F40009049FFF77EFFF8BDFFF733FFF8BDF8B5E6
:103F50008A4B05461878182148435969081A06E023
:103F60000268AA4202D1027B002A34D1183088426A
:103F7000F6D3FFF7A3FF99680E1A0020C0431E6115
:103F800098601978182041435869411A012718E0B0
:103F90000A68AA4203D18A680A610F730BE00A7BA0
:103FA000002A0DD00A69921B0A6102D08C68A242D5
:103FB00001D98A680A619C68A24200D814469C60B4
:103FC00018318142E4D39868002805D0411C03D001
:103FD0006C49FFF736FFF8BDFFF7EBFEF8BD674908
:103FE00018220B7853434A69D11A05E00B688342C3
:103FF00001D1087B704718319142F7D3FF207047F9
:1040000070B50D460446FFF73AFB002808D05B4820
:10401000182104704C43611985614161FFF7C9FEA5
:1040200070BD56494A68114620310875030A4B7520
:10403000030C8B75000EC8758B7C012003438B74B9
:104040004B7C03434B740B7C03430B742032D37CB7
:10405000DB07FCD00A7C520852000A744A7C0243F7
:104060004A747047454840682030C17CC90708D071
:10407000417C01221143417441480068002800D06E
:1040800000477047F8B53D4C074660680E46203043
:10409000017CFD258907002905DA017C294001748E
:1040A0003220FFF779FB606820300776390A4176C5
:1040B000390C8176390EC176017C202211430174BE
:1040C000817C294081742E494E60417C0225294320
:1040D0004174092000F09EF860682030017C29437B
:1040E0000174F8BD10B5254C60682030017C89074B
:1040F0000FD5017CFD2211400174092000F093F8D6
:1041000060682030417C0222114341743220FFF765
:1041100043FB10BD194840682030C17C890708D591
:10412000417C02221143417415484068002800D0A8
:1041300000477047F8B5114C074660680E462030BE
:10414000017CFB254907002905DA017C294001741F
:104150003220FFF721FB606820300777390A41776A
:10416000390C8177390EC177017C402211430174EB
:10417000817C2940817402498E6005E0E430002092
:10418000003F0020453E0010417C04252943417436
:104190000A2000F03FF860682030017C2943017458
:1041A000F8BD28480C214068403041180A78104674
:1041B0004A78120210438A78C9781204104309061B
:1041C0000843704710B51F4C60682030017C4907D8
:1041D0000FD5017CFB22114001740A2000F023F866
:1041E00060682030417C0422114341743220FFF783
:1041F000D3FA10BD134840682030C17C490708D568
:10420000417C0422114341740F488068002800D08B
:1042100000477047002805DBC106C90E0120884011
:104220000A490860704700280ADBC106C90E012050
:104230008840064980310860BFF34F8FBFF36F8F0E
:1042400070470000E4300020003F002000E100E063
:1042500018B5F84800680090002069460B5C0A24F5
:104260001A0962431B070A541B0FD2180A54401C38
:104270000328F3DB009818BD08B5FFF7E9FF0090AD
:1042800068460178C078EC4A401E50430A186846D8
:104290008178E12000014143684640783C2358433F
:1042A00008181118E54A1069814201D3081A02E082
:1042B000E34B081AC018116108BD70B50D460028FF
:1042C00002D0DC4E083E01E0DA4E0C3E0024285DB0
:1042D0000A2100F0E1FA000101432955641C032C76
:1042E000F5DB284600F02FFB30606420FFF754FA1E
:1042F000D0482038C17A08221143C17270BD38B548
:10430000CE4909694418CC49204600F0C5FA421C40
:104310006846C270E12508462D01294600F0BCFA26
:104320000246684682702946204600F0B5FA0846E3
:104330003C2100F0B1FA0146684641703C2120461C
:1043400000F0AAFA6846017069460020FFF7B5FF41
:1043500038BD38B5FFF77CFF009068460178C0781B
:10436000B54A401E50430A1868468178E120000192
:104370004143684640783C23584308181118AF4B16
:10438000B0485A6A0468914201D38A1A02E0AC4DDF
:104390008A1A5219A21802601046596238BD70B5C7
:1043A00000290BD0A54D6E69AC69B44206D2A1605C
:1043B00005C423710020E0601034AC6170BD8842F8
:1043C00000D3084670479B4920398A7A0F238343DC
:1043D000887A1A400009000110438872704770B54E
:1043E0000446400701D5FFF733FFE00741D0934C67
:1043F00018216078666848436169081A03E0027B07
:10440000002A02D118308842F9D3884231D2FFF70E
:1044100033FF6168E0684018E0600020C0436060DE
:1044200060781821484361690D1A18E0287B00283C
:1044300014D02869B04204D16868002807D08047AA
:1044400005E0801B286102D0A968884201D9A868CC
:1044500028616168884200D9084660601835606943
:104460008542E3D36068002804D0411C02D0FFF7E6
:1044700046FF70BD0120FFF7A6FF70BD6F498A6837
:1044800082438A607047F8B50446FFF7F5FE6B4A31
:10449000D06072B60021C943516051781823594346
:1044A0005369591A002717E00D68A54202D10F730E
:1044B0004F6110E00D7B002D0DD00D692D1A0D619F
:1044C00002D08E68B54201D98D680D615668B5423B
:1044D00000D93546556018319942E5D35068002817
:1044E00004D0411C02D0FFF70AFF02E00120FFF7D1
:1044F0006AFF62B6F8BDF8B5504C054660781821E1
:1045000048436169081A06E00268AA4202D1027BA8
:10451000002A38D118308842F6D3FFF7ADFEE060AC
:1045200072B60021C94361606178182266695143FF
:10453000711A012719E00A68AA4203D18A680A6140
:104540000F730BE00A7B002A0ED00A69121A0A6167
:1045500002D08B689A4201D98A680A611346626860
:10456000934200D81A4662601831B142E3D36068C2
:10457000002804D0411C02D0FFF7C1FE02E0012058
:10458000FFF721FF62B6F8BD2C49C8617047F1B54D
:1045900082B0FFF771FE294DE86072B60021C94371
:1045A000696069786E69182251430090741AEF6946
:1045B00020E02068B84209D13C21029800F06CF953
:1045C0003C20401A2061012020730CE0207B002851
:1045D0000FD021690098081A206102D0A168884292
:1045E00001D9A068206120696968884200D908461D
:1045F00068601834B442DCD36868002804D0411CD9
:1046000002D0FFF77CFE02E00120FFF7DCFE62B67D
:10461000FEBD0A4918224B7853434A69D11A05E076
:104620000B68834201D1087B704718319142F7D360
:10463000FF207047C0100050805101000031002061
:10464000803A0900A8300020714908780028F0D18C
:104650007048C37A01221343C372C37ADB07FCD1CB
:104660000A70E6E76A490862E3E76A498A7A024320
:1046700010078A7A000F1209120102438A72D8E7E2
:1046800064498A7A1209024310018A7A1207120FCA
:1046900002438A72CDE770B505460024285D0A21E1
:1046A00000F0FAF8000101432955641C032CF5DBE6
:1046B000284600F048F957492039C86370BD554A6B
:1046C000138A401EDB0BDB034004400C03431382C0
:1046D000907C090700090001090F08439074A8E7BE
:1046E0004C48C17A04221143C172C17A4907FCD4F3
:1046F0009FE74749087801289BD14648C27A0223A0
:104700001A43C272C27A9207FCD40020087090E764
:10471000F3B581B0FFF7EDFFFFF7E2FF01200021C5
:10472000C003FFF7CCFF6420FFF736F8012168468D
:10473000C1700024847044700470FFF7ACFF344DE6
:1047400007262C616846C670172787703B24447083
:10475000047069460120FFF7B0FD6846C670877097
:104760004470047069460020FFF7A7FD0F20FFF793
:1047700087FF0F20FFF727FE0120FFF776FF029843
:104780002862FFF761FF244904200860FEBD70B570
:104790000D460446FEF773FF00280BD01C48182175
:1047A00044704C4361198561416101201B49C0037C
:1047B000FFF7AEFF70BD10B51648407A03071B0F18
:1047C0001846FFF75DFF1248016A002901D018461C
:1047D000884710BD0E4800782BE718B5002802D096
:1047E0000C48183001E00B4814300068009000209D
:1047F00069460B5C0A241A0962431B070A541B0F03
:10480000D2180A54401C0328F3DB009818BD00009E
:1048100000310020A010005000E100E0DF43001054
:1048200010B508210020FCF701FD10BD0FB410B534
:10483000029900290AD003AA134800F029FCC1B24A
:10484000802900D980211048FCF744FD10BC08BC29
:1048500004B0184770B515460E46002472B60028FD
:1048600008D0FFF7E3FF05E0315D08A0FFF7DEFFAA
:10487000641CA4B2AC42F7D3600702D005A0FFF7D6
:10488000D5FF62B670BD00000C3F002025303278A5
:10489000200000000D0A000030B50B460146002044
:1048A0002022012409E00D46D5409D4205D31D4636
:1048B0009540491B2546954040191546521E002D2E
:1048C000F1DC30BD70B500242546002801DA012452
:1048D0004042002901DA01254942FFF7DDFFAC42E1
:1048E00000D04042002C00D0494270BD03460B432B
:1048F0009B0703D009E008C9121F08C0042AFAD296
:1049000003E00B780370401C491C521EF9D270471B
:10491000D2B201E00270401C491EFBD27047002257
:10492000F6E710B513460A4604461946FFF7F0FFAE
:10493000204610BD03460A780270401C491C002A1C
:10494000F9D1184670470321001D401E037812025A
:104950001A43491EF9D510467047034603220870D2
:10496000000A491C521EFAD518467047F8B502468F
:104970004A40D40F42004B0052085B089A4202D2D0
:104980000246084611464A0023D0C30D4A00DDB254
:10499000120EAD1A202D35DA49020126490AF60514
:1049A0008A19002C00D0524220214F1B1146B940D9
:1049B0002A411018C20D9A4221D0002C17D0012D87
:1049C00008DCDA05801AD20F8019D207DBB200F0BA
:1049D00081FAF8BDDA05801A012340001B06C018D1
:1049E00080185A428018CA0F1043490007E049084E
:1049F000C2071143DA05801A80194008801800F0B8
:104A000061FAF8BD61000122511A001BF7E701228B
:104A1000D2075140AAE70122D2075040A6E7000082
:104A2000F0B507460846584087B0C00F04904800CC
:104A30000E46590040084908BC1A884105D238463C
:104A400031461E4617460B460246580040081043A2
:104A50004CD0300D039040055900400D490D059094
:104A6000401A0290402872DA18030121000B090550
:104A70000843019004980092002805D00199524201
:104A80000020884100920190029840210A1A019961
:104A9000009800F0E3F905460C466B4607CB00F0A2
:104AA000FEF9C0197141039A0E0D0023D717564025
:104AB0001A467A40164344D0049A002A2DD0029A0E
:104AC000012A039A15DC1205C01A91410126360508
:104AD000001C7141D20F059ED207009301920296ED
:104AE0002A46234600F03CFA07B0F0BD384631466E
:104AF000FAE71605224A0F46B218C01AB74101213B
:104B00000905001C4F4100187F41114618187941D2
:104B1000E20F10436D19644113E0E2076D0815437D
:104B20006408C2071443039A01261205C01A914172
:104B30003605001C7141CE07400830434908C018B3
:104B400051412A46234600F0FEF9CDE7FFE70498DD
:104B500001224000C117121A00238B4104983146EC
:104B6000C417381AA141EEE730B40124E4076340CA
:104B700030BC55E730B40124E407614030BC4FE756
:104B80000000E0FFF0B51FB488B00B99099800242D
:104B900048400999C00F490049080991C0070B997D
:104BA0000090490049080B9109990898A6460843C6
:104BB0001CD00B990A98084318D00998012440008A
:104BC000420D4800410D099824050003000B2043C5
:104BD00009900B980003000B20430B9050181C49C0
:104BE0004018002201901446104605E000200146BE
:104BF0000DB0F0BD032801DA034600E003239C4614
:104C0000C11A0AAE0AE05F0008ADED5B4F00F75B2A
:104C10007D430027AA187C41491C5B1E6145F2DDDB
:104C2000410004AB5A522104120C0A43240C401CCC
:104C30000828DFDB019802900099704601910090EE
:104C4000059B049A0799069800F08AF9D0E70000BE
:104C50000DFCFFFFF0B50C465C4085B0E40FE407A7
:104C600003944C0000266408590094464908024603
:104C70000296224321D062460A431ED06200570D9D
:104C80004A000E032303550D012402462C49240536
:104C9000781B1B0B360B40182343264361460090BC
:104CA0001C46501AB44103D30098401C009002E007
:104CB000921800985B41002803DA0020014605B0F5
:104CC000F0BD0020012109050746864611E0644633
:104CD0001D46141BB54106D36546521BB3417446AD
:104CE00007430C43A646CD074008490828439218BD
:104CF0005B4105460D43EAD11046184313D0604688
:104D0000194650407140084306D06046101AB3411E
:104D100006D20122002306E000220123DB0702E085
:104D20000122D2435310009874460105381C61419A
:104D3000029C039D0019694100F005F9BFE70000DE
:104D4000FD03000010B500229623114600F0C2F8C2
:104D500010BD00000EB5C217C10F5040CA07401861
:104D60000021054B0293019200910A460B4600F088
:104D7000F7F803B000BD0000330400000EB505498C
:104D80000291002100910A460B46019100F0E8F8DB
:104D900003B000BD330400004A0009030123090BDE
:104DA0001B051943094B10B5520D9A4201DA002038
:104DB00010BD064B34339A4203DC9A1A00F05EF8B9
:104DC00010BD03495118884010BD0000FF030000CA
:104DD000CDFBFFFFC20FD207400040080BD0C10D32
:104DE0000723DB01C91840020905400A1143C20824
:104DF000400711437047002001467047F0B51FB4CB
:104E00000646002082B005464024019100901BE038
:104E1000019922460F46304600F030F8049A059B6F
:104E2000801A994110D310461946224600F016F810
:104E3000361A8F410197224601200021009F00F081
:104E40000DF838184D4100902046641E0028DFDC24
:104E5000019B00982946324607B0F0BD10B5202AC4
:104E600004DB0146203A9140002010BD91402023F0
:104E70009C1A0346E3401943904010BD10B5202A08
:104E800004DB0846203AD040002110BD0B46D34039
:104E9000D0402024A21A91400843194610BD10B5F5
:104EA000202A06DBCB170846203A1041C1170B43D6
:104EB00006E00B461341D0402024A21A914008433B
:104EC000194610BD002904DA401C490001D14008F0
:104ED0004000704770B40024050C05D11024000474
:104EE00002D1002921D01124050E01D1000208347D
:104EF000050F01D10001241D850F01D18000A41CE4
:104F0000002801DB4000641C002908D020252E1B4E
:104F10000D46F540A14000D0012129430843010678
:104F20001B1B000ADB1D02D5002070BC7047DB058F
:104F3000181880180029F8DA401C4900F5D170BC17
:104F400040084000704710B5002B08DA0024401CD0
:104F5000614192185B411A4301D14008400010BDE5
:104F6000F0B51FB482B005460C0003D0084600F02F
:104F7000A1F802E000F09EF82030024600902146A1
:104F80002846FFF76BFF049B059A04460F4618431B
:104F90001143084314D0184610431BD000984021F9
:104FA0000A1A18460599FFF769FF05460E46009A4A
:104FB00005990498FFF752FF084305D0012004E04B
:104FC0002046394607B0F0BD0020C11705430E4307
:104FD0002C43374300990E986305401A7905E40A7B
:104FE00000220C43FD0A0A3002D500200146E9E701
:104FF0000105101969410C9C0D9D00196941FFF7CD
:10500000A2FFDFE74A0009030123090B1B0519432F
:105010000A4B10B5520D9A4202DA0020014610BD2B
:10502000064B34339A4203DC9A1AFFF727FF10BD70
:10503000034BD218FFF712FF10BD0000FF03000062
:10504000CDFBFFFF10B5002904DB0124E40740423B
:105050008C412146002B04DB1C460123DB07524216
:10506000A341994200D1904210BD0000064C012599
:10507000064E05E0E36807CC2B430C3C9847103400
:10508000B442F7D3FBF720F8105A0010305A001042
:1050900037B514460846064B6A46214600F0EAF842
:1050A00004466946002000F081FC20463EBD000019
:1050B000AD5900102021020C01D010211046020A27
:1050C00001D010460839020901D01046091F820894
:1050D00001D01046891E420801D0881E7047081A68
:1050E000704730B47446641E2578641CAB4200D20D
:1050F0001D46635D5B00E31830BC184702E008C83A
:10510000121F08C1002AFAD170477047002001E041
:1051100001C1121F002AFBD170470000F0B51FB477
:1051200084B007980699020D014314D04A484B49B0
:105130001018484305140F9801280E981CD0281AFF
:10514000401C0024464E47490094019102900028DB
:1051500014DA474227E00F98012443A3012808D01E
:10516000002104980F9A84600360C260416009B016
:10517000F0BD0E98C143F4E74042E2E7074612E073
:10518000F80707D02246334601990098FFF7FAFC4A
:10519000019100902246334610461946FFF7F2FC73
:1051A00004460E467F10002FEAD10298019B00288A
:1051B000009A0799069802DAFFF7E4FC01E0FFF78E
:1051C00049FD04460E460022284BFFF73BFF03D85B
:1051D0000020C043014607E00022254B204631460F
:1051E000FFF71EFCFFF70EFF102409E0002C0ADB7E
:1051F0000A220023FFF702FE059B30321A55641E77
:1052000002460A43F2D11122641C059B121B1C1991
:105210000F9B012B03D0012308430ED10AE0084362
:1052200004D011200E9000200F9084E70E98151ADC
:105230006D1E0BE00E98824202DD00236D1C03E020
:10524000824201DA00236D1E002BEED004980F99E4
:105250008260C16030C08AE701FCFFFF104D000092
:10526000000024400000F03F300000000000F04348
:105270000000E03FFFB597B00646002518E225285C
:1052800077D100242746FD49049400E00443761CAE
:1052900032780120203A90400842F7D130782A280D
:1052A0000ED00222307801463039092916D80499E7
:1052B0000A235943303940181443761C0490F1E70F
:1052C000189802C804911890002904DA01204003BC
:1052D00004434842049002200443761C30782E2870
:1052E00014D1042004437078761C2A2809D1189818
:1052F000761C80C8189009E00A214F43303FC71937
:10530000761C3078014630390929F5D930786C2877
:1053100010D006DC4C281AD068280ED06A2817D185
:1053200004E0742813D07A2812D110E0012040053F
:1053300004430CE00121090501E0032109050C43A8
:105340007178814203D1012000052418761C761C57
:105350003078119066280BD013DC58287DD009DCFA
:1053600000287BD04528F6D04628F4D047281AD10B
:10537000A5E118E0632835D0642870D0652812D1E3
:105380009DE170286CD008DC6728F1D069287BD0BB
:105390006E280DD06F2806D1BAE073282ED075285C
:1053A00071D0782859D01A9A199990476D1C7EE1CE
:1053B0006002400F022809D003280DD00428189855
:1053C00001680DD00D60001D189070E11898EA1763
:1053D00001680D604A60F6E7189801680D80F2E7F1
:1053E0000D70F0E718986A4601781172001D189048
:1053F0000020507202A80090012005E0189802C811
:10540000189000200091C04361070DD5002101E0F4
:105410000199491C0191B94212DA8142F8DB009AE4
:10542000515C0029F4D10BE0002101E00199491CF5
:1054300001918142FADB019A0099895C0029F5D13A
:10544000019904981A9B471A21463846199A00F088
:1054500097FA0199401945180BE04FE02CE113E051
:105460004EE0009800990078491C00911A9A199909
:1054700090470198401E0190401CF2D121463846C9
:105480001A9B199A10E137E00A200021009001913F
:105490006002410F022907D0189A01CA1892C21758
:1054A0009446032908D00AE01898C01DC108C90015
:1054B00005C91891944607E000B2C2179446042922
:1054C00002D140B2C1178C4600226146944506DAEB
:1054D0000A460021404291418C462D2102E02105DF
:1054E00004D52B216A461173012103E0E10701D0A5
:1054F0002021F7E7029155E00A200AE0102008E099
:10550000102000900021042004430191082703E0AB
:1055100008200021019100906002410F022907D06C
:10552000189A01CA189200229446032908D008E06C
:105530001898C01DC108C90005C91891944603E018
:1055400080B2042900D1C0B200210291210729D5DF
:105550001199702906D0009A1021019B4A401A43E4
:1055600005D00EE040216A461173012108E0614632
:10557000014306D030216A461173119951730221FB
:105580000291009A0821019B4A401A430AD16146C0
:10559000014301D1610705D530216A46117301210C
:1055A0007F1E02911199582904D035A10E910DA9A1
:1055B0000D910DE037A1F9E76146019B009AFFF7D5
:1055C0001DFC0E9B8C469B5C0D9A521E0D92137017
:1055D00061460143F0D10D9805A9081A20300190C9
:1055E000600703D501200004844300E001270198EF
:1055F000874201DD381A00E000200199009041182F
:10560000029809180498401A0490E00306D4214631
:105610001A9B199A049800F0B3F94519002706E07F
:1056200003A81A9AC05D199990476D1C7F1C0298B7
:105630008742F5DBE0030CD521461A9B199A0498A2
:1056400000F09EF9451904E01A9A30201999904704
:105650006D1C0099481E00900029F5DC08E00D98AB
:105660000D990078491C0D911A9A199990476D1C53
:105670000199481E01900029F1DC63E1092801002D
:1056800030313233343536373839616263646566B8
:10569000000000003031323334353637383941427A
:1056A000434445460000000000F05AF94519761CB5
:1056B0003078002800D0E2E528461BB0F0BD600736
:1056C00000D406271898C01DC108C90048680A6898
:1056D0000831C30FDB071891190001D09CA108E025
:1056E000210501D59BA104E0E10701D09AA100E0CA
:1056F0009AA1430011985B08109165280CD006DC34
:10570000452809D046281DD0472841D141E06628C8
:1057100018D067283CD13CE00021112F01DB11207B
:1057200000E0781C0191009008A911A8FFF7F6FC91
:10573000139905910021119A15927F1C12980197D7
:10574000009150E00120C00703900120019008A9BA
:10575000009711A8FFF7E2FC139A14990592002212
:10576000119B009212981593059A0192002901D07D
:10577000104602E0791C40180190381A01D50198B2
:1057800004E04042401E0090781C0190C01B029033
:1057900043E0012F00DA01270021112F01DD112044
:1057A00000E038460191009008A911A8FFF7B6FC67
:1057B00013990591119A0021129815920091019761
:1057C00021070CD40599B94201DB019900E0019150
:1057D000012904DD159A491E515C302906D0B842D2
:1057E00001DA011D05DA0121029115E00199491E36
:1057F000EDE7002805DC0099411800910199091A8C
:1058000003E0019A411C914200DD01910099401A88
:10581000401C02900120C0070390200706D4029983
:105820000198814202DB0020C043029000206946BB
:10583000C87707AF012103980337C907884224D0EE
:10584000022011902B201290039800280CDA40427D
:1058500003902D20129007E00A210398FFF71CF80F
:1058600030317F1E039039701199481E1190002924
:10587000F2DC03980028EFD1791E12980870307876
:10588000202108404530BF1E387006A8C01BC01D2F
:10589000039010980078002800D001200199411849
:1058A0000298C0170918039809180498401A401E56
:1058B0000490E00306D421461A9B199A049800F03C
:1058C0005FF8451910980078002803D01A9A1999A2
:1058D00090476D1CE00324D521461A9B199A049821
:1058E00000F04EF845191CE00098002807DB0099ED
:1058F0000598884203DD1598405C199901E01999D3
:1059000030201A9A904700986D1C401C0090029815
:10591000401E0290002804D11A9A2E20199990470F
:105920006D1C0199481E01900029DDDC05E03878E6
:105930001A9A7F1C199990476D1C0399481E039071
:105940000029F4DC21461A9B199A0498ACE6000061
:105950002D0000002B0000002000000000000000CF
:10596000F8B5044600251E461746880404D405E011
:1059700039462020B0476D1C641EF9D52846F8BD75
:10598000FFB50446002581B01E46C80301D5302767
:1059900000E02027880404D505E038460399B04785
:1059A0006D1C641EF9D5284605B0F0BD0A68531C6D
:1059B0000B60107070473031323334353637383938
:1059C00041424344454600004C69623A7265747234
:1059D0007920457674436E743A257820496E737445
:1059E000616E743A257820696E74657276616C3ADE
:1059F00025782070696E74657276616C3A2578201E
:105A000074696D65725F6C6F6F703A25780D0A006E
:105A1000305A00100030002028010000FC50001017
:105A2000585B001028310020681200000C51001053
:105A3000000000000000000000000000020105035B
:105A400003010009FF0000000000000000090953E5
:105A500059445F5541525409FF0000000000000006
:105A60000009095359445F55415254000000000099
:105A70000000000000000000000000005030002086
:105A800000000000000000006010005024100050D2
:105A900014100050181000501000004000000000CA
:105AA000000102030405060708090A111213141560
:105AB000161718191A1B1E1F0001020304050609F8
:105AC0000A07081115121617181319141A1B1E1F8E
:105AD000D0000150E0000150000000000024F4005C
