:020000041000EA
:1000000078350020D5100010DD100010DF10001032
:1000100000000000000000000000000000000000E0
:10002000000000000000000000000000E1100010CF
:100030000000000000000000E3100010E5100010B8
:1000400000000000E7100010E7100010E71000109B
:10005000E7100010E7100010C70400101D07001083
:10006000E7100010E7100010E7100010E710001074
:10007000410C0010E7100010E7100010E71000100E
:10008000E7100010E7100010E7100010E710001054
:10009000E710001037100010E7100010E7100010F4
:1000A0000000000000000000000000000000000050
:1000B0000000000000000000000000000000000040
:1000C0000348854603F01EF8004800479D010010D4
:1000D0007835002000B585B0002001900290039093
:1000E00004900221684681741021417120218171A0
:1000F000018180218172C17204980090002001A9C1
:100100000EC900F0E5FD0321684681741421417396
:1001100004218173142101730421C1730498009098
:10012000012001A90EC900F0D3FD012168468174A8
:100130007D210174FA21417404980090022001A9E4
:100140000EC900F0C5FD05B000BD1CB5062168460E
:100150008170002141706421818001210170C17092
:10016000C18000F041FE0221684601700121C1708A
:10017000C18000F039FE0421684601700121C17080
:10018000C18000F031FE0821684601700121C17074
:10019000C18000F029FE00F046FF1CBD72B601F0E0
:1001A0002EFE002002F0BAF801F0D6FA002001F08D
:1001B00075FB01F084FB00F04FF8012001F0EFFA2D
:1001C00017A21AA11CA000F04BF80F21022000F08A
:1001D000EDFA1021480400F0E9FA1121202000F086
:1001E000E5FAFFF777FF1721402000F0DFFA18212A
:1001F000802000F0DBFA1921FF20013000F0D6FA50
:100200001A210120400200F0D1FAFFF79EFF04A25C
:1002100006A109A000F024F862B600BFFEE70000C6
:1002200031313A32343A3437000000004A756E20DA
:100230003236203230313900535944383831312088
:1002400050574D20746573742064656D6F2025735D
:100250003A25730D0A00000010B500F045F810BDF6
:100260000FB438B5002500240498002803D138BC09
:1002700008BC04B0184705A800901748009A0499D4
:1002800002F052FFC5B200200090802D00DD8025D5
:10029000002405E01049085D00F0D0F8601CC4B2ED
:1002A000AC42F7DB00BFE2E7F8B505460E4617465D
:1002B0000024002D02D02846FFF7D2FF002404E0DE
:1002C000315D06A0FFF7CCFF641CBC42F8DB05A043
:1002D000FFF7C6FFF8BD00008C30002025303278D3
:1002E000200000000D0A000010B5FE480068C07B29
:1002F00080098001C01CFB490968C873F94800687F
:10030000007C80098001001DF64909680874F548E1
:1003100000682030807820218843F2490968203124
:100320008870F04800682030807840218843ED498B
:10033000096820318870EC480068807840084000E7
:10034000E94909688870E8480068007800090001F8
:100350000830E54909680870E348006800788021A2
:100360008843E14909680870DF4800680078402147
:1003700088434030DC4909680870DB480068C07871
:10038000102188431030D8490968C870D6480068E1
:10039000807804218843001DD34909688870D248B9
:1003A0000068807820218843CF4909688870CE484A
:1003B0000068807810218843CB4909688870CA4852
:1003C0000068807880218843C74909688870C648DA
:1003D0000068807840218843C34909688870C24812
:1003E0000068007810218843BF4909680870BE483A
:1003F0000068007820218843BB4909680870BA4822
:100400000068807802218843801CB7490968887099
:10041000B5480068C078202188432030B249096877
:10042000C870062000F0AFF9AF4800688078082156
:1004300088430830AC490968887010BDAA4909682A
:10044000487000BFA849096809788906C90F0029C2
:10045000F8D0A5490968097820229143A24A126878
:100460001170704718B5024600200023009314E075
:100470009D4B1B681B790B54431CD8B26B461B78F1
:100480005B1CDCB200946B461B785B1CDCB20094F6
:100490006B461B785B1CDCB20094934B1B68DB78CB
:1004A000DB07DB0F002BE3D0107018BD10B58E48B2
:1004B00000688078082188438B4909688870062085
:1004C00000F068F910BD0CB5874800680078C006D8
:1004D000C00F00280CD084480068007810218843A1
:1004E000814909680870694601A8FFF7BBFF00BF92
:1004F0007D48006800788006C00F002807D07A4841
:100500000068007820218843774909680870764898
:10051000006880788007C00F002808D07248006803
:10052000807802218843801C6F49096888700CBD5F
:1005300010B56C480068407980098001401D694908
:100540000968487167480068807980098001801DCA
:100550006449096888716348006820300078202168
:10056000884360490968203108705E48006820307F
:100570000078402188435B490968203108705B4856
:1005800000688078400840005849096888705748DA
:1005900000680078000900010830544909680870B3
:1005A00052480068007880218843504909680870E3
:1005B0004E48006800784021884340304B49096824
:1005C00008704A480068C0781021884310304749B5
:1005D0000968C87045480068807804218843001D78
:1005E0004249096888704148006880782021884322
:1005F0003E49096888703D4800688078102188432A
:100600003A490968887039480068807880218843B1
:1006100036490968887035480068807840218843E9
:100620003249096888703148006800781021884391
:100630002E49096808702D480068007820218843F9
:100640002A4909680870294800688078022188438F
:10065000801C26490968887024480068C0782021D9
:100660008843203021490968C870072000F08BF8C2
:100670001E48006880780821884308301B490968B3
:10068000887010BD19490968487000BF174909688A
:1006900009788906C90F0029F8D014490968097832
:1006A00020229143114A12681170704718B5024612
:1006B00000200023009314E00C4B1B681B790B54A3
:1006C000431CD8B26B461B785B1CDCB200946B46B3
:1006D0001B785B1CDCB200946B461B785B1CDCB2A5
:1006E000009405E008300020003000200430002095
:1006F0002C4B1B68DB78DB07DB0F002BDCD010708A
:1007000018BD10B52748006880780821884325491E
:1007100009688870072000F03DF810BD0CB521482D
:1007200000680078C006C00F00280CD01D48006883
:100730000078102188431B4909680870694601A8A0
:10074000FFF7B4FF00BF1748006800788006C00FAD
:10075000002807D0134800680078202188431149F9
:10076000096808700F48006880788007C00F00286B
:1007700008D00C480068807802218843801C094911
:10078000096888700CBDC206D20E01219140064A4C
:1007900011607047C206D20E01219140024A803298
:1007A000116070470430002000E100E010B50246FF
:1007B000002010E0012383401340002B0AD0FB4BA4
:1007C0001B6819540123834014469C432246002A87
:1007D00000D102E0401C2028ECD300BF10BDFCB5C6
:1007E0000346F34C221D019200220092002B02D1FD
:1007F000F04A009203E0012B01D1EF4A0092009AE7
:10080000002A36D0002013E0012282400D46154018
:10081000002D0CD02568009E375C0126BE40354374
:1008200025600D4695432946002900D102E0401C71
:100830001828E9D300BF182017E0012585402A4673
:100840000D461540002D0FD0019D2D780646183E0F
:100850000127B7403D43EEB2019D2E700D469543F2
:100860002946002900D102E0401C2028E5D300BF22
:1008700000BFFCBDFCB50346CD4C221D01920022F9
:100880000092002B02D1CB4A009203E0012B01D150
:10089000C94A0092009A002A35D0002013E00122B4
:1008A00082400D461540002D0CD02568009E375C17
:1008B0000126BE40B54325600D46954329460029D3
:1008C00000D102E0401C1828E9D300BF182016E030
:1008D000012585402A460D461540002D0ED0019D6C
:1008E0002D780646183E0127B740BD43019E35705E
:1008F0000D4695432946002900D102E0401C2028DE
:10090000E6D300BF00BFFCBDAC4909680A461378B6
:10091000194653781B02194393781B041943D27864
:10092000120611438143A54A126811700B0A5370D5
:100930000B0C9370090ED170704710B59F4A126866
:1009400013461C7822465C78240222439C782404B7
:100950002243DB781B061A430243984B1B681A702C
:10096000140A5C70140C9C70120EDA70944A1268AF
:1009700013461C7822465C78240222439C78240487
:100980002243DB781B061A4302438D4B1B681A7007
:10099000140A5C70140C9C70120EDA70884A12688B
:1009A0000823D3181C7822465C78240222439C78C2
:1009B00024042243DB781B061A438243804B1B68C6
:1009C0001A72140A5C72140C9C72120EDA727C4A4F
:1009D00012680823D3181C7822465C78240222432C
:1009E0009C7824042243DB781B061A430A43744B89
:1009F0001B681A72140A5C72140C9C72120EDA7262
:100A000010BD6F4909680A461378194653781B02CE
:100A1000194393781B041943D278120611430143FA
:100A2000674A126811700B0A53700B0C9370090E11
:100A3000D1707047624909680A461378194653789D
:100A40001B02194393781B041943D27812061143F1
:100A500081435B4A126811700B0A53700B0C937040
:100A6000090ED1707047574909680A46137819462C
:100A700053781B02194393781B041943D27812064A
:100A8000114301434F4A126811700B0A53700B0C4B
:100A90009370090ED17070474A4909680A46137865
:100AA000194653781B02194393781B041943D278D3
:100AB000120611438143434A126811700B0A5370A6
:100AC0000B0C9370090ED17070473E4909680A46B5
:100AD0001378194653781B02194393781B04194362
:100AE000D278120611434140364A126811700B0A3F
:100AF00053700B0C9370090ED1707047014630484B
:100B00000068021D1378184653781B021843937827
:100B10001B041843D278120610430840704710B5E2
:100B20000A46294909681823CB181C7821465C78A5
:100B3000240221439C7824042143DB781B061943BB
:100B40000140214B1B6819700C0A5C700C0C9C70E6
:100B5000090ED9701C4909681023CB181C7821464E
:100B60005C78240221439C7824042143DB781B0613
:100B700019438143144B1B6819740C0A5C740C0CE8
:100B80009C74090ED9741049096820310978490804
:100B900049000D4B1B68203319700C490A600C2169
:100BA00001238B400A4C236000BF10BD0830002099
:100BB0008010005020300020383000200C30002001
:100BC0001430002010300020183000201C3000208D
:100BD00000E100E03B49096810228A1813781946A1
:100BE00053781B02194393781B041943D2781206D9
:100BF00011430143334A126811740B0A53740B0CEE
:100C00009374090ED17470470C20012181402E4A43
:100C1000116000BF50172B4909680874020A4A7412
:100C2000020C8A74000EC8742648006820300078D0
:100C300040084000401C2349096820310870704773
:100C400010B520480068182141180A7810464A78E3
:100C5000120210438A7812041043C9780906084327
:100C60001849096810228A181378194653781B020C
:100C7000194393781B041943D27812061143884311
:100C800000281ED011480068002802D00F480068D4
:100C900080470C480068182141180A7810464A78A5
:100CA000120210438A7812041043C97809060843D7
:100CB000044909680870020A4A70020C8A70000E22
:100CC000C87010BD1830002080E100E01C3000200A
:100CD0000FB410B504460020002C02D0012C05D121
:100CE00001E0EA4805E0E9480C3002E0E748183046
:100CF00000BF00BF817A302291436A46927E120182
:100D000030231A40114381726A46917E012904D032
:100D1000022909D003292CD118E06946497E417285
:100D20006946097EC17224E06946497B01706946C3
:100D3000897B41706946098A8170090AC1706946D8
:100D4000897C01716946C97C417112E06946497D1F
:100D5000C1716946897D0172817A0A091201694669
:100D6000C97D0907090F0A4382726946097D8171AD
:100D700000BF00BF817A4022914340318172817A65
:100D8000802291438031817210BC08BC04B01847A6
:100D9000002804D001280BD002281BD111E0BB4948
:100DA0001439897F80229143B84A143A917711E02F
:100DB000B6490C31897A80229143B44A0C3291723F
:100DC00008E0B2490C31897D80229143AF4A0C3250
:100DD000917500BF00BF7047AD48007840084000E3
:100DE000401CAB490870704700B50246FFF7F4FF9E
:100DF000A748203000790009000191780907090F00
:100E00000843A34920310871A148007F40084000F1
:100E10005178C907C90F08439D49087790889C49B4
:100E2000203108801078012804D0022828D0042816
:100E300073D14BE0D088964920310882D0780028C1
:100E40000DD1097B0E231940084691492031097BB9
:100E50000909090101438E4B203319730FE08C49B6
:100E60002031097B012319430807000F88492031ED
:100E7000097B090909010143854B2033197371E08E
:100E8000D088834920314882D07800280DD1097B51
:100E90000D23194008467E492031097B09090901C3
:100EA00001437B4B203319730FE079492031097BD3
:100EB000022319430807000F75492031097B0909EE
:100EC00009010143724B203319734BE0D0887049FC
:100ED00020318882D07800280DD1097B0B2319405E
:100EE00008466B492031097B090909010143684B18
:100EF000203319730FE066492031097B042319431D
:100F00000807000F62492031097B090909010143E3
:100F10005F4B2033197325E0FFE7D0885C4920310F
:100F2000C882D07800280CD1097B4807400F584967
:100F30002031097B090909010143554B20331973FD
:100F40000FE053492031097B082319430807000F9C
:100F50004F492031097B0909090101434C4B2033DA
:100F6000197300BF00BF4A48007C80088000C01C85
:100F7000474908740846007D80088000C01C087539
:100F8000152001218140434B196000BF00BD404A3C
:100F9000127FD207D20F002A0AD13D4A203212888E
:100FA0008A4210DC3A4A20321288521E91B20AE07C
:100FB000374A20321288521E8A4204DC344A2032D8
:100FC0001288921E91B2C207D20F002A02D0304A74
:100FD0002032118202220240002A02D02C4A203202
:100FE000518204220240002A02D0294A20329182F2
:100FF00008220240002A02D0254A2032D1827047BE
:1010000023492031098A814202DC214920310880AC
:1010100070471F49097F49084900C207D20F114391
:101020001B4A117770471A48007940084000401C5D
:1010300017490871704710B517A0FFF711F9144848
:10104000007CC007C00F002815D018480088401C3D
:10105000164908800E48203000880988884205D14A
:1010600001201249088012A0FFF7FAF80F48018802
:101070000F20FFF78CFF0648007C0548007C8008A5
:101080008000C01C0249087410BD000054000150CB
:101090008002015000E100E04850574D5F49525135
:1010A00048616E646C65720D0A00000050300020CB
:1010B000434F554E5445525F544F502043616E206C
:1010C00073746F702070776D207468657265210D80
:1010D0000A0000000448804704480047FEE7FEE796
:1010E000FEE7FEE7FEE7FEE7F9100010C100001082
:1010F0000348044908607047014802490860704786
:101100000024F40058300020F1B5FA488047074623
:10111000F94880470646F74C0120183CA047F64D99
:1011200000200C35A847F549009888473046A84765
:101130003846A047F8BDF0B5F14DF248A96885B032
:101140000818044601F04CFC2146401C01F052FCFA
:101150000024EB4801258668EA480C3831180391D1
:10116000487C097C00020843A540284202903BD0FD
:101170000B2060438119E348009109300818019061
:1011800001F02EFC0746DF48301801F029FC8742A9
:101190002AD10F21009889014018007D00280CD029
:1011A000D84A00990D3A8A18517D127D09021143DF
:1011B0007818019901F01EFC05E002980399A843F4
:1011C0000874000A4874CF4800990D30081801F0DF
:1011D00007FC002808D0022D19D0042D17D0082DA7
:1011E00015D0102D1AD08047641CE4B20A2CB0D35D
:1011F000C3488168C3480C380918487C097C000240
:101200000843800501D1C048804705B0F0BDBF4903
:10121000012088470028E7D0222005E0BB490120B3
:1012200088470028E0D03B20FFF76EFFDCE7F0B5F1
:1012300085B00020694608730872B54F0874B54E32
:10124000AF4CB847019004AB02AA03A9206901F092
:101250001FFB0028D9D00820B047002803D0022067
:10126000B04700280FD06846007A012811D0A06846
:101270002569407A012826D00228E2D1A64A2846CC
:1012800001999047DDE7012168460172007C002842
:1012900015D02521A06849014118497B002908D0B3
:1012A0009849D4314018417B027B08029B49104386
:1012B00088476846984A017B96322069E1E73D20DD
:1012C000FFF722FFA1E728780007000F0528B8D113
:1012D0008F49EE31A81C8847287887224006C10F25
:1012E000A06811540622A91C883001F055FBA8E71C
:1012F000F0B5864999B00420884700280ED083496C
:1013000004201A31884780491F20AC31884784481F
:1013100080471620FFF7F8FE19B0F0BD81488047DE
:10132000002810D0764DAC68A1790807F4D5E07993
:10133000C2071CD07C49204698308847A868C179EC
:10134000490849001FE0774E754F754DB2361C377E
:101350006C46103507E06846B0470128DCD1684686
:101360000178601CB847A8470028F4D0D4E782076A
:101370000BD56D4A20461C328E30811C9047A868E0
:10138000FD22C17923E0C171C6E7420708D566494D
:1013900020466031A8308847A868FB22C17916E052
:1013A0000207F726002A09DA5F4A21464232A07A6C
:1013B0000B319047A868C1793140E4E7C00608D5F1
:1013C000594968467C318847A868EF22C1791140A5
:1013D000D9E720463140FF30A1712130017D002640
:1013E000002910D006752146072287310CA801F08C
:1013F000D3FA21460DA82A228E31033001F0CCFA0F
:101400004A490CA8884701206946087048708E70C8
:10141000A96800A82A2203308E3101F0BDFA2D22DE
:101420000821434C6B460020A04775E7344901284A
:10143000C9690FD0022811D0042812D0082813D06F
:10144000102814D0202815D0402816D0802818D075
:10145000012070478878C007C00F704788788007E0
:101460000DE0887840070AE08878000707E0887870
:10147000C00604E08878800601E088784006C00F46
:1014800070478878C009704710B50178012920D1CC
:10149000401C01F0A5FA1A4A10285BD00EDC012886
:1014A00018D002281ED0042844D0082811D1FFF7F4
:1014B000BDFF00280DD11148563809E0202859D029
:1014C000402806D1FFF7B2FF002802D10B48801E4A
:1014D000804710BD0120FFF7A9FF0028F9D1FFF7D1
:1014E00007FF10BD0220FFF7A1FF0028F9D1FFF789
:1014F0009EFE10BDBF650000776A0000CF16000099
:101500005C300020CE03000001120000F50A00004C
:1015100049570000791900008B1E00002B62000063
:10152000BD600000054E000027260000DF470000D8
:10153000A13E00000420FFF779FF0028D9D1906870
:10154000407A012803D00228D3D1FE48C0E7FD48E5
:10155000AE38BDE71020FFF769FF0028C9D1D06978
:101560002030407D400701D53E2000E00820FFF7F5
:10157000CBFD10BD2020FFF759FF0028F9D1F2481C
:10158000A6E710B500280ED0F04AD1698B7E08245A
:1015900023438B7660310B7E52785B095B01D20668
:1015A000D20E13430B76EA498847012010BDE74865
:1015B00080682330417C027C080210430BD0E5494F
:1015C00048780A7800021043032210430870000A8A
:1015D00048700120D5E7704730B4DD4C6C34A44628
:1015E00030BC6047F8B5DB48407A000663D5D74881
:1015F000866830462330417C007C0F02D549074382
:101600004878097804020C43002F01D1600752D5B5
:10161000D04DA87B697B00026D1C08434BD0002F86
:1016200049D068792979000208432ED12136707C8F
:10163000317C0002084301F0EDFB0022C64B01F0B3
:10164000EDFA01F0F5FB80B27843642101F090F9E6
:101650004004010C2971080A68710A204143707D19
:10166000327D00021043814206D30A21401E01F060
:101670007FF92871000A68716879297900020843A6
:1016800003D10120287100206871B248A10709D553
:1016900002218C4301210C430470210A4170002077
:1016A000FFF76FFF68792A7901021143AB4B0022E3
:1016B0004020FFF791FFF8BD1CB5A6494A7A002AE1
:1016C0003AD04A780B7812021A43D30634D44378BE
:1016D00004781802204301282ED1C878401E000645
:1016E000000EC87029D008468B78017AC2790902A9
:1016F0001143027BC47A12022243C01C012B24D066
:10170000521A0272120A42721206037A120C1A4319
:10171000531A69460B804A808E498A7B497B1202A4
:101720000A4369468A80417B027B0802104369466E
:10173000C8808B49684688471CBD887AC87040209D
:1017400002430A70100A48701CBD5218D9E7854A36
:101750001047844A2032104738B5002421467F20A4
:10176000FFF7F7FF00213B20FFF7F3FF29213B2084
:10177000FFF7EFFF69463B20FFF7E9FF6846007877
:10178000800701D5012038BD641CA4B2FF2CF1D91B
:10179000002038BD10B574488047012010BD10B539
:1017A0006A49724A8870002807D1886880780228C0
:1017B00003D000209047012010BD0120FAE710B5AA
:1017C000624C0128A168887004D0002836D0022815
:1017D0004BD05EE0606A014620310A785208520020
:1017E0000A700A78FD231A400A7001788909890174
:1017F0001C3101704178890989011C314170002137
:101800007F20FFF7A6FF03212120FFF7A2FF1F2162
:101810000320FFF79EFF7D205249C000803188479A
:1018200002217F20FFF795FF01210020FFF791FFA4
:1018300000217F20FFF78DFF0F2127E000217F206F
:10184000FFF787FF00210420FFF783FF02217F209D
:10185000FFF77FFF00210846FFF77BFF00217F2075
:10186000FFF777FF0021032011E002217F20FFF71F
:1018700070FF03210020FFF76CFF00217F20FFF79E
:1018800068FF00210320FFF764FF00210420FFF719
:1018900060FFA078FFF783FF012010BD10B5FFF7B0
:1018A0008EFF012010BD304810B50C30804727480E
:1018B000006A017ADF2211400172012010BDFEB5DD
:1018C0002A4818308047214C0190206A817A007A9A
:1018D000CF07FF0F002672B6800702D00126FFF760
:1018E000E2FF1A48006A817A4908490081721F495B
:1018F000012088470220FFF762FF1A496420663101
:101900008847002469460C70254601217F20FFF797
:1019100020FF00210A20FFF71CFF22210A20FFF7E9
:1019200018FF69460A20FFF712FF68460078400753
:10193000EFD469460A20FFF70AFF6846007840079F
:101940001CD515E027150000C11600005C300020F2
:101950003F440000633100200000F43FAF15001049
:1019600033420000C561000007470000A765000082
:1019700068460078000706D4012504E0641CFA4894
:10198000A4B28442D5D3F949642088470020FFF7E8
:1019900016FFF74901988847F648006A817A490896
:1019A000490039438172002E01D0F348804762B666
:1019B000002D01D00120FEBD0020FEBD10B511217B
:1019C000EE4801F002F810BD70B50446401C01F06D
:1019D00007F8022818D0042819D0012149048842A8
:1019E00044D125462035687B092301070209090FE8
:1019F0000020072A19D0032A1DD0022A22D0012A4A
:101A000026D0002A2AD02FE0FFF7D8FF37E0D948A8
:101A1000FF218068012235310A548078002801D1E5
:101A2000FFF74DFFFFF798FE29E0581A06214843BB
:101A30004121C94304E0581A062148433521C943CE
:101A4000081A10E0581A062148432321C943F7E732
:101A5000581A062148431721C943F1E7581A0621AD
:101A60004843801D404240B2687308E040281DD0C2
:101A70000121C903884202D1601DFFF71DFEBF4945
:101A80004878097800020843800607D5601C00F0FA
:101A9000A7FF0005000F01D0FFF7A4FDB5482C30CB
:101AA00000F09EFF01462046884770BDB1482830AF
:101AB00000F096FF4006E2D570BDB14908471CB55D
:101AC000AE4808210170002141700146087BCA7AA6
:101AD0000002C91C10432FD04A790B7912021A4315
:101AE000821A92B26B461A8058800623062A01D2C7
:101AF0006A461380062801D268464380487B097BEA
:101B0000000208436946C8809C48817B427B0802EA
:101B1000104369468880974880682330417C027C66
:101B20000802104302D00020FFF72BFD95496846BC
:101B300088479349402088471CBD904948780A78D7
:101B400000021043C2050CD5FF22013290430870F9
:101B5000000A48700879401E0006000E087109D07E
:101B6000ADE7202210431022904304221043087056
:101B7000000A48707047FEB5804D044668782978A1
:101B80000002084300077DD57F48804769782A789E
:101B9000090211430822914329700A0A6A706B7A7C
:101BA000064628461A066ED5A27967791202651C88
:101BB0003A43704FE41C002A77D010221143017081
:101BC0000A0A427088065ED46879297900020843BF
:101BD00032D001F01FF90191009060782178000265
:101BE000084301F017F9694C0022234601F016F86A
:101BF000019B009A01F012F801910090B868213021
:101C0000417C027C0802104301F004F900222346C3
:101C100001F004F807460C46687A297A0002084366
:101C2000801B01F0E3F83A46234600F0F7FF019BE2
:101C3000009A00F041FF24E0607821780002084318
:101C400001F0CCF80446B8682130417C027C0802DF
:101C5000104301F0C3F8214600F0D5FE01F006F96B
:101C600000224A4B00F0DAFF07460C46687A297AD0
:101C700000020843801B01F0B9F83A46234600F001
:101C8000CDFF02E06EE064E00FE00022404B01F087
:101C90002DF801F0CDF80104090C00D101213D4BD4
:101CA00000228020FFF798FC53E09A0651D58278F5
:101CB000012A4ED18A064CD4FF223048013211430A
:101CC0000170090A417060782178000208432B49AD
:101CD0000A7BCB7A1102194388423AD901F07EF887
:101CE0000446B8682130417C027C0802104301F0B0
:101CF00075F8214600F087FE01F0B8F80022234B6A
:101D000000F08CFF07460C46687A297A00020843E7
:101D1000801B01F06BF83A46234600F07FFF00225B
:101D20001B4B00F0E3FF01F083F80104090C00D124
:101D30000121184B00228020FFF74EFC0F4841780C
:101D4000027809021143FF22013211430170090A8E
:101D50004170032069460881022291030E4C02ABB8
:101D60000020A047FEBD0000FFFF00002B62000026
:101D7000A76500005C3000200747000063310020A9
:101D8000B344000033420000BF5500000000F43FA0
:101D9000000059403B1B0010A13E000010B5044656
:101DA000007800280ED1A1786278080210430AD08A
:101DB000012807D1FE49201D8847002802D128208C
:101DC000FFF7A2F910BDFB49201D8847002802D16A
:101DD0002820FFF799F9201DFFF7CDFEF6480121D5
:101DE0008368062209040020F44C3133A04710BD5B
:101DF00010B50078012801D1FFF79DF910BD30B56D
:101E0000EF4885B0804701217F20FFF7A2FC69469B
:101E10005020FFF79CFC68460078042801D0E94870
:101E20008047FFF74CFDFFF797FC0124684644808C
:101E30000480E5480190E549684688476846047093
:101E4000447000244480E2480190DB48E14B806804
:101E500008226946C01800F09FFD0121DE4D402098
:101E6000A84701218020A84701212020A84703215D
:101E70006846018041808480C480048144818481DB
:101E8000C481D648D14904906846A23988470120C8
:101E900005B030BDCA4810B50A308047012010BDDA
:101EA000C74910B528318847012010BDC44910B575
:101EB0005E318847012010BDC14910B56A3188479D
:101EC000012010BDBE4910B578318847012010BDF2
:101ED000BB4910B588318847012010BD10B5B74CFB
:101EE000383CA047012010BDF8B5B34CBC49A068F0
:101EF00037308847E0683B230178BF250A09A1688D
:101F000012015B5C1B071B0F1A4302701207120FB2
:101F1000012A79D00B4640335A781B7812021A43B3
:101F20000B4642331A70120A5A7002788B7A2A4092
:101F30009B011A435206520E027066235B5C427884
:101F40009B1D92099B0692019B0E1A43427006222A
:101F5000801C0B3100F020FDA1686620425C002A45
:101F600004D0E0686731083000F016FDA068002159
:101F700020304177E0689B4A41788906890E891CA8
:101F80009047E06801780A091201121D0270A168E9
:101F90002A408B7ADB075B0E1A43027046235B5C98
:101FA00042789B1D92099B0692019B0E1A43427038
:101FB0000622801C0B3100F0EFFCA1684620425C39
:101FC000002A04D0E0684731083000F0E5FCE06802
:101FD000844A41782C328906890E891C9047A5686D
:101FE00001272E462036F07E01283BD000284CD019
:101FF00002284AD0062848D00023704C1A460121F6
:102000001846A047F8BDFFE70A46403213795371DE
:102010008B7A0278DB072A405B0E1A430270872313
:102020005B5C5206520EDB011A43027042780B31A0
:10203000920992010C3242700622801C00F0ACFC26
:10204000E068A16806220830883100F0A5FCA1688C
:1020500003223D204254624A8720405C323A883154
:10206000904787E74035687900280AD02820062164
:10207000E269937EFD24234093761775737F327F48
:102080003AE001206F710146F2E72C464234607855
:10209000217802020A4316D02235697F19202B7F4E
:1020A000800109024243194301208904890C0091EF
:1020B00005D0104600F046FC401C7F2809D8C5B268
:1020C0002770380A0CE0380A2770607001250095E7
:1020D00007E07F2529467E3000F034FC2070000A9E
:1020E00060703548C069817E022211438176077590
:1020F000737F327F00992846374CFE34A0473A4818
:1021000080477FE710B5FFF7EFFE012010BD10B547
:102110003649032008703649642088472948103022
:102120008047012010BD10B532498847012010BDFD
:10213000304810B55C308047012010BD10B52E48E6
:102140008047012010BD2C4910B508318847012077
:1021500010BD294910B516318847012010BD264908
:1021600010B578318847012010BD1349487001200F
:102170007047214910B586318847012010BD1E4A9D
:1021800010B58E329047012010BD7CB5054600F099
:1021900027FC09490446283100F02CFC281D00F0DA
:1021A0001FFC05492C3100F025FC4020844325E02C
:1021B000475F00005D5B00005C300020A13E000036
:1021C000793D0000F7460000F11D00102F4400008B
:1021D00089140010CE020000615500009D1D001002
:1021E000B1570000D96000009D5600000000024079
:1021F00045620000014100001D420000FE480190C0
:10220000FE4900946846884701207CBDFB4910B513
:102210007A318847012010BDF84A10B582329047C4
:10222000012010BD10B5F6488047022801D90020D2
:1022300010BD012010BDF8B50746F1481C461546F3
:102240000E468047022807D92346EC4C2A463146E1
:1022500038469234A047D5E60020D3E6E94908473E
:10226000E84908310847E74A2232104738B5049C4C
:102270000094E44C4434A04738BD30B4E14C7C3485
:10228000A44630BC6047DF49AC310847DD4AC6325E
:102290001047DC4AE832104730B4DB4CA44630BC6F
:1022A0006047D94B30331847D74B5C33184730B4AD
:1022B000D54C8834A44630BC6047D349B831084770
:1022C000D148CC30004770B5D04D0446082804D022
:1022D000A868407808280DD014E000217F20FFF77F
:1022E00038FA01214020FFF734FA286A0178C9083A
:1022F000C9000EE000217F20FFF72BFA00214020CB
:10230000FFF727FA286A01786207C908C900520F47
:1023100011430170A8684470012070BDD3E710B567
:102320000446BB4880472070012010BD10B504460C
:10233000B748801D80472070012010BDB44910B5FA
:102340001C318847012010BDB14810B5723080475C
:10235000012010BDAF480047AF490847AE491A31C8
:10236000084708B5AD49684688476846C078800781
:10237000C00F08BD08B5A949684688476846C078B7
:10238000C00900D0012008BD10B5FFF7E0F910BD6D
:1023900010B5FFF7DEF910BD9D4810B552308047EB
:1023A000012010BD10B599490122C8694275437CCE
:1023B000DB09DB019B1C4374931E83741B0AC374EB
:1023C000096ACB7AEF242340CB724B7B93434B7348
:1023D0008B7A13438B72817E022319438176017CB1
:1023E000114301748C4905201A3188478C48804775
:1023F000012010BD8A4810B512308047012010BD61
:10240000864910B57E318847012010BD834910B53B
:1024100096318847012010BD814910B55831884751
:10242000012010BD7E49AC3108477D4910B5FA3115
:102430008847012010BD10B57A488047012010BDA3
:10244000784810B518308047012010BD754BA23375
:102450001847744BD833184770B504466B480D467F
:102460004068283000F0BCFA002805D072B6001988
:102470006D4A2946904762B670BD70B50446634800
:10248000154640680E46283000F0AAFA002807D00A
:1024900072B60019644B2A463146EA3B984762B649
:1024A00070BD70B504465948154640680E46283040
:1024B00000F096FA002807D072B600195A4B2A4647
:1024C0003146823B984762B670BDF8B5002472B6BB
:1024D0004E4D68680A3000F083FA534B5721534A37
:1024E000EA3B984762B651484F4E0078002802D028
:1024F000012821D047E06968C87B897B0002084336
:102500004005070E0BE072B66868143000F068FAF8
:10251000E10340180821B04762B6641CE4B2BC4233
:10252000F1D36868C17B827B090211434D076D0FAF
:1025300029D072B614301FE06968C87B897B00021D
:1025400008434005070E0BE072B66868103000F0D3
:1025500047FAE10340180821B04762B6641CE4B2B0
:10256000BC42F1D36868C17B827B090211434D07ED
:102570006D0F08D072B6103000F032FAE103401847
:102580002946B04762B601203CE5F8B50446274825
:102590000F4601781D48244D4068823D16460029AB
:1025A00002D0012903D00BE072B6143001E072B6FC
:1025B000103000F015FA001932463946A84762B6C5
:1025C00001201FE5C9B2E0E730B4194CA44630BC85
:1025D0006047F8B512488A388047144C5734607AFF
:1025E00000285FD00006042500282EDA60782178C4
:1025F0000002084340071DE0C9190010B342000063
:102600002B4E0000B73A0000BB3B00005C300020BE
:102610009F440000FB5F00002B6200004D6500003E
:10262000E546000003480000435400000C31002040
:102630007B4A000009D5FEF7D5FF607821780002BB
:102640000843A8432070000A607060782178000277
:102650000843B24FB24E41060CD54021884320704A
:10266000000A607002206946088002466B463946BF
:102670000020B0476078217800020843C10711D0DC
:10268000400840002070010A6170800702D568464A
:10269000058002E005206946088002226B46394623
:1026A0000020B047AEE49F48004738B59E4C2078E4
:1026B000002804D19D4968468847012020700120E8
:1026C00038BD70B50278002A49D099494A724278DB
:1026D0008A72002A01D0042A01D904228A72C2789F
:1026E000847813022343924A1C0AD37214734479E8
:1026F000057924022C4315466C73240AAC73C47903
:10270000857920022843D073000A10748648082572
:102710008068D21C2130447C007C240204430120C8
:10272000A342887008D91B1B07E01071000A01E062
:102730001571280A507107E0E31A8C7AA3420ADA6D
:102740001071000A50718B72887AC8700871FFF797
:10275000B6F9012070BDE400A342E9DAE5E7002004
:1027600070BD714989690870020A4A70020C8A704A
:10277000000EC870487A022210434872704738B57C
:102780000446002000906949684688470099F8206F
:102790008143E006000E08430090FFF7E2FF38BDDA
:1027A00062487230004761495A3108476149084719
:1027B00060491A310847604800475F490C310847B3
:1027C000F8B500260B4604460125304631462D0358
:1027D000675C491CBE19A942FAD30021675C491CF9
:1027E0007840A942FAD39E422CD190422AD14E4E33
:1027F00070680A3000F0F4F84D4A504B573A5721B0
:10280000984770680A3000F0EBF8494900195722E0
:10281000573900F0C1F870681C3000F0E1F8B16879
:10282000001907220A3100F0B7F8444A01210020BC
:10283000EA329047414B00202246294668339847A8
:1028400001205EE400205CE470B50126364C3603BE
:1028500005463A4B31460020626998473849284678
:10286000884760681C3000F0BBF861690722401897
:10287000A1680A3100F090F8304A01210020EA32C4
:1028800090472E4B0020314668336269984770BDEF
:10289000F0B5254C0025E469E678360701D500201F
:1028A000F0BD00BF6D1CEDB2642DFAD32546403556
:1028B0006E7CB607FCD400252646C03637794755CE
:1028C0006D1CEDB2022DF9D346780125F709002FD2
:1028D00008D0F606F60E0E70157042785206D20F2A
:1028E0001A7004E0B3069B0E0B70002313700E4B9E
:1028F0000A78DB69801CC033272A0CD20022C0343E
:1029000003E026798654521CD2B20E789642F8D84B
:102910005D720120F0BD5D72C1E700000080000023
:10292000A13E0000F94B00005C3000204D65000026
:10293000633100202B620000776A000059530000C9
:10294000A13D000030B50B460146002020220124A5
:1029500009E00D46D5409D4205D31D469540491BD3
:102960002546954040191546521E002DF1DC30BD1C
:1029700070B500242546002801DA012440420029D0
:1029800001DA01254942FFF7DDFFAC4200D04042A9
:10299000002C00D0494270BD03460B439B0703D077
:1029A00009E008C9121F08C0042AFAD203E00B7814
:1029B0000370401C491C521EF9D27047D2B201E08C
:1029C0000270401C491EFBD270470022F6E710B58A
:1029D00013460A4604461946FFF7F0FF204610BD8D
:1029E0000321001D401E037812021A43491EF9D527
:1029F00010467047034603220870000A491C521E05
:102A0000FAD518467047F8B502464A40D40F42003E
:102A10004B0052085B089A4202D202460846114611
:102A20004A0023D0C30D4A00DDB2120EAD1A202D8C
:102A300035DA49020126490AF6058A19002C00D028
:102A4000524220214F1B1146B9402A411018C20D95
:102A50009A4221D0002C17D0012D08DCDA05801A0B
:102A6000D20F8019D207DBB200F080FAF8BDDA0588
:102A7000801A012340001B06C01880185A42801893
:102A8000CA0F1043490007E04908C2071143DA059D
:102A9000801A80194008801800F060FAF8BD6100C3
:102AA0000122511A001BF7E70122D2075140AAE781
:102AB0000122D2075040A6E7F0B507460846584025
:102AC00087B0C00F049048000E46590040084908DE
:102AD000BC1A884105D2384631461E4617460B4679
:102AE00002465800400810434CD0300D039040057A
:102AF0005900400D490D0590401A0290402872DAA5
:102B000018030121000B0905084301900498009265
:102B1000002805D00199524200208841009201907E
:102B2000029840210A1A0199009800F0E3F905463D
:102B30000C466B4607CB00F0FEF9C0197141039AB1
:102B40000E0D0023D71756401A467A40164344D03C
:102B5000049A002A2DD0029A012A039A15DC120544
:102B6000C01A914101263605001C7141D20F059E05
:102B7000D2070093019202962A46234600F03CFABF
:102B800007B0F0BD38463146FAE71605224A0F462F
:102B9000B218C01AB74101210905001C4F410018A5
:102BA0007F41114618187941E20F10436D196441B5
:102BB00013E0E2076D0815436408C2071443039A43
:102BC00001261205C01A91413605001C7141CE073D
:102BD000400830434908C01851412A46234600F0B6
:102BE000FEF9CDE7FFE7049801224000C117121A51
:102BF00000238B4104983146C417381AA141EEE7EF
:102C000030B40124E407634030BC55E730B40124FC
:102C1000E407614030BC4FE70000E0FFF0B51FB4AF
:102C200088B00B990998002448400999C00F4900C1
:102C300049080991C0070B990090490049080B9178
:102C400009990898A64608431CD00B990A9808438E
:102C500018D0099801244000420D4800410D099800
:102C600024050003000B204309900B980003000B80
:102C700020430B9050181C49401800220190144624
:102C8000104605E0002001460DB0F0BD032801DA32
:102C9000034600E003239C46C11A0AAE0AE05F0027
:102CA00008ADED5B4F00F75B7D430027AA187C4120
:102CB000491C5B1E6145F2DD410004AB5A52210400
:102CC000120C0A43240C401C0828DFDB01980290F8
:102CD0000099704601910090059B049A0799069807
:102CE00000F08AF9D0E700000DFCFFFFF0B50C46BC
:102CF0005C4085B0E40FE40703944C0000266408B0
:102D000059009446490802460296224321D0624661
:102D10000A431ED06200570D4A000E032303550DCF
:102D2000012402462C492405781B1B0B360B401846
:102D300023432643614600901C46501AB44103D3F6
:102D40000098401C009002E0921800985B41002817
:102D500003DA0020014605B0F0BD0020012109057D
:102D60000746864611E064461D46141BB54106D34E
:102D70006546521BB341744607430C43A646CD0734
:102D800040084908284392185B4105460D43EAD1A3
:102D90001046184313D0604619465040714008430E
:102DA00006D06046101AB34106D20122002306E085
:102DB00000220123DB0702E00122D24353100098D6
:102DC00074460105381C6141029C039D001969414C
:102DD00000F005F9BFE70000FD03000010B5002278
:102DE0009623114600F0C2F810BD00000EB5C217C0
:102DF000C10F5040CA0740180021054B02930192B1
:102E000000910A460B4600F0F7F803B000BD000041
:102E1000330400000EB505490291002100910A46D5
:102E20000B46019100F0E8F803B000BD3304000048
:102E30004A0009030123090B1B051943094B10B56F
:102E4000520D9A4201DA002010BD064B34339A42EB
:102E500003DC9A1A00F05EF810BD0349511888404F
:102E600010BD0000FF030000CDFBFFFFC20FD20723
:102E7000400040080BD0C10D0723DB01C9184002F8
:102E80000905400A1143C20840071143704700205A
:102E900001467047F0B51FB40646002082B00546D3
:102EA0004024019100901BE0019922460F463046D4
:102EB00000F030F8049A059B801A994110D310460F
:102EC0001946224600F016F8361A8F41019722461D
:102ED00001200021009F00F00DF838184D410090AE
:102EE0002046641E0028DFDC019B009829463246FC
:102EF00007B0F0BD10B5202A04DB0146203A91400E
:102F0000002010BD914020239C1A0346E340194342
:102F1000904010BD10B5202A04DB0846203AD0406E
:102F2000002110BD0B46D340D0402024A21A91406E
:102F30000843194610BD10B5202A06DBCB170846FA
:102F4000203A1041C1170B4306E00B461341D04015
:102F50002024A21A91400843194610BD002904DA22
:102F6000401C490001D140084000704770B4002463
:102F7000050C05D11024000402D1002921D0112410
:102F8000050E01D100020834050F01D10001241DF6
:102F9000850F01D18000A41C002801DB4000641CC7
:102FA000002908D020252E1B0D46F540A14000D059
:102FB00001212943084301061B1B000ADB1D02D522
:102FC000002070BC7047DB05181880180029F8DA5B
:102FD000401C4900F5D170BC40084000704710B556
:102FE000002B08DA0024401C614192185B411A430F
:102FF00001D14008400010BDF0B51FB482B00546B5
:103000000C0003D0084600F0A1F802E000F09EF8A2
:1030100020300246009021462846FFF76BFF049BB4
:10302000059A04460F4618431143084314D0184626
:1030300010431BD0009840210A1A18460599FFF743
:1030400069FF05460E46009A05990498FFF752FF5E
:10305000084305D0012004E02046394607B0F0BD02
:103060000020C11705430E432C43374300990E98A7
:103070006305401A7905E40A00220C43FD0A0A3070
:1030800002D500200146E9E70105101969410C9CB1
:103090000D9D00196941FFF7A2FFDFE74A00090310
:1030A0000123090B1B0519430A4B10B5520D9A4217
:1030B00002DA0020014610BD064B34339A4203DC8D
:1030C0009A1AFFF727FF10BD034BD218FFF712FF24
:1030D00010BD0000FF030000CDFBFFFF10B500296D
:1030E00004DB0124E40740428C412146002B04DB31
:1030F0001C460123DB075242A341994200D1904272
:1031000010BD0000064C0125064E05E0E36807CC23
:103110002B430C3C98471034B442F7D3FCF7D4FF50
:10312000343A0010543A001037B514460846064B9E
:103130006A46214600F0DCF804466946002000F0AB
:1031400073FC20463EBD0000293A00102021020CED
:1031500001D010211046020A01D010460839020998
:1031600001D01046091F820801D01046891E42086E
:1031700001D0881E7047081A704702E008C8121F65
:1031800008C1002AFAD170477047002001E001C150
:10319000121F002AFBD17047F0B51FB484B0079806
:1031A0000699020D014314D04A484B491018484370
:1031B00005140F9801280E981CD0281A401C0024D2
:1031C000464E4749009401910290002814DA474284
:1031D00027E00F98012443A3012808D00021049878
:1031E0000F9A84600360C260416009B0F0BD0E9820
:1031F000C143F4E74042E2E7074612E0F80707D090
:103200002246334601990098FFF708FD019100908E
:103210002246334610461946FFF700FD04460E4687
:103220007F10002FEAD10298019B0028009A07998D
:10323000069802DAFFF7F2FC01E0FFF757FD0446BB
:103240000E460022284BFFF749FF03D80020C04359
:10325000014607E00022254B20463146FFF72CFCB3
:10326000FFF71CFF102409E0002C0ADB0A220023D0
:10327000FFF710FE059B30321A55641E02460A43C2
:10328000F2D11122641C059B121B1C190F9B012BF0
:1032900003D0012308430ED10AE0084304D01120D3
:1032A0000E9000200F9084E70E98151A6D1E0BE00B
:1032B0000E98824202DD00236D1C03E0824201DA97
:1032C00000236D1E002BEED004980F998260C16020
:1032D00030C08AE701FCFFFF104D000000002440D1
:1032E0000000F03F300000000000F0430000E03F2D
:1032F000FFB597B00646002518E2252877D10024AF
:103300002746FD49049400E00443761C32780120EE
:10331000203A90400842F7D130782A280ED0022275
:10332000307801463039092916D804990A235943BF
:10333000303940181443761C0490F1E7189802C8FD
:1033400004911890002904DA012040030443484204
:10335000049002200443761C30782E2814D10420D7
:1033600004437078761C2A2809D11898761C80C8E6
:10337000189009E00A214F43303FC719761C307876
:10338000014630390929F5D930786C2810D006DC8F
:103390004C281AD068280ED06A2817D104E0742867
:1033A00013D07A2812D110E00120400504430CE02C
:1033B0000121090501E0032109050C4371788142CF
:1033C00003D1012000052418761C761C307811905A
:1033D00066280BD013DC58287DD009DC00287BD070
:1033E0004528F6D04628F4D047281AD1A5E118E0A0
:1033F000632835D0642870D0652812D19DE17028EB
:103400006CD008DC6728F1D069287BD06E280DD0FD
:103410006F2806D1BAE073282ED0752871D078288D
:1034200059D01A9A199990476D1C7EE16002400F9D
:10343000022809D003280DD00428189801680DD05F
:103440000D60001D189070E11898EA1701680D6072
:103450004A60F6E7189801680D80F2E70D70F0E712
:1034600018986A4601781172001D18900020507259
:1034700002A80090012005E0189802C818900020CA
:103480000091C04361070DD5002101E00199491C5D
:103490000191B94212DA8142F8DB009A515C0029AD
:1034A000F4D10BE0002101E00199491C0191814216
:1034B000FADB019A0099895C0029F5D101990498F9
:1034C0001A9B471A21463846199A00F097FA019933
:1034D000401945180BE04FE02CE113E04EE0009856
:1034E00000990078491C00911A9A199990470198FF
:1034F000401E0190401CF2D1214638461A9B199A71
:1035000010E137E00A200021009001916002410F94
:10351000022907D0189A01CA1892C21794460329A3
:1035200008D00AE01898C01DC108C90005C9189143
:10353000944607E000B2C2179446042902D140B273
:10354000C1178C4600226146944506DA0A460021DE
:10355000404291418C462D2102E0210504D52B21CA
:103560006A461173012103E0E10701D02021F7E74A
:10357000029155E00A200AE0102008E01020009097
:103580000021042004430191082703E008200021C2
:10359000019100906002410F022907D0189A01CAD8
:1035A000189200229446032908D008E01898C01DFC
:1035B000C108C90005C91891944603E080B20429E6
:1035C00000D1C0B200210291210729D5119970299B
:1035D00006D0009A1021019B4A401A4305D00EE004
:1035E00040216A461173012108E06146014306D07B
:1035F00030216A4611731199517302210291009A88
:103600000821019B4A401A430AD16146014301D176
:10361000610705D530216A46117301217F1E029191
:103620001199582904D035A10E910DA90D910DE0E5
:1036300037A1F9E76146019B009AFFF72BFC0E9B2F
:103640008C469B5C0D9A521E0D921370614601438D
:10365000F0D10D9805A9081A20300190600703D514
:1036600001200004844300E001270198874201DD26
:10367000381A00E0002001990090411802980918BA
:103680000498401A0490E00306D421461A9B199A24
:10369000049800F0B3F94519002706E003A81A9A28
:1036A000C05D199990476D1C7F1C02988742F5DB1D
:1036B000E0030CD521461A9B199A049800F09EF954
:1036C000451904E01A9A3020199990476D1C009909
:1036D000481E00900029F5DC08E00D980D9900784F
:1036E000491C0D911A9A199990476D1C0199481E11
:1036F00001900029F1DC63E1092801003031323307
:10370000343536373839616263646566000000001D
:103710003031323334353637383941424344454607
:103720000000000000F05AF94519761C3078002896
:1037300000D0E2E528461BB0F0BD600700D40627A4
:103740001898C01DC108C90048680A680831C30F2D
:10375000DB071891190001D09CA108E0210501D5D3
:103760009BA104E0E10701D09AA100E09AA14300E7
:1037700011985B08109165280CD006DC452809D00B
:1037800046281DD0472841D141E0662818D0672837
:103790003CD13CE00021112F01DB112000E0781C1E
:1037A0000191009008A911A8FFF7F6FC1399059163
:1037B0000021119A15927F1C12980197009150E0F8
:1037C0000120C00703900120019008A9009711A8CB
:1037D000FFF7E2FC139A149905920022119B0092C4
:1037E00012981593059A0192002901D0104602E023
:1037F000791C40180190381A01D5019804E0404224
:10380000401E0090781C0190C01B029043E0012FE5
:1038100000DA01270021112F01DD112000E03846D8
:103820000191009008A911A8FFF7B6FC1399059122
:10383000119A0021129815920091019721070CD43A
:103840000599B94201DB019900E00191012904DDEC
:10385000159A491E515C302906D0B84201DA011D83
:1038600005DA0121029115E00199491EEDE70028D2
:1038700005DC0099411800910199091A03E0019AA9
:10388000411C914200DD01910099401A401C0290B8
:103890000120C0070390200706D4029901988142B5
:1038A00002DB0020C043029000206946C87707AFC2
:1038B000012103980337C907884224D002201190C0
:1038C0002B201290039800280CDA404203902D2000
:1038D000129007E00A210398FFF734F830317F1E79
:1038E000039039701199481E11900029F2DC039859
:1038F0000028EFD1791E12980870307820210840F6
:103900004530BF1E387006A8C01BC01D039010981C
:103910000078002800D00120019941180298C017B2
:103920000918039809180498401A401E0490E003EF
:1039300006D421461A9B199A049800F05FF845199D
:1039400010980078002803D01A9A199990476D1C96
:10395000E00324D521461A9B199A049800F04EF8EA
:1039600045191CE00098002807DB0099059888425B
:1039700003DD1598405C199901E0199930201A9AD5
:10398000904700986D1C401C00900298401E0290C9
:10399000002804D11A9A2E20199990476D1C01997C
:1039A000481E01900029DDDC05E038781A9A7F1C5A
:1039B000199990476D1C0399481E03900029F4DC67
:1039C00021461A9B199A0498ACE600002D000000CD
:1039D0002B0000002000000000000000F8B50446A5
:1039E00000251E461746880404D405E039462020E9
:1039F000B0476D1C641EF9D52846F8BDFFB50446D6
:103A0000002581B01E46C80301D5302700E02027DD
:103A1000880404D505E038460399B0476D1C641E40
:103A2000F9D5284605B0F0BD0A68531C0B6010702C
:103A300070470000543A0010003000208C00000055
:103A40007A310010E03A00108C300020EC040000C5
:103A50008A310010D0000150E00001506010005089
:103A60002410005014100050181000501000004096
:103A700000000000000102030405060708090A11FE
:103A800012131415161718191A1B1E1F0001020312
:103A9000040506090A070811151216171813191438
:103AA0001A1B1E1F01000000000000000024F4008B
:103AB00000040000ED050020DF0000208F0500203D
:103AC000C60500204A070020901000500000024068
:103AD00000100050601000500000000000000000C6
:04000005100000C126
:00000001FF
