Component: ARM Compiler 5.06 (build 20) Tool: armlink [4d35a3]

==============================================================================

Section Cross References

    main.o(.text) refers to main.o(.text) for BleInit
    main.o(.text) refers to i2c.o(.text) for i2c_Init
    main.o(.text) refers to gsensor.o(.text) for kx022_init
    main.o(.text) refers to fflti.o(.text) for __aeabi_i2f
    main.o(.text) refers to fmul.o(.text) for __aeabi_fmul
    main.o(.text) refers to fdiv.o(.text) for __aeabi_fdiv
    main.o(.text) refers to delay.o(.text) for delay_ms
    gpio.o(.text) refers to gpio.o(.data) for PIN_CONFIG
    gpio.o(.text) refers to gpio.o(.data) for pinmuxtab48
    gpio.o(.text) refers to gpio.o(.data) for GPIO_CTRL
    gpio.o(.text) refers to gpio.o(.data) for GPIO_CTRL
    gpio.o(.text) refers to gpio.o(.data) for GPIO_CTRL
    gpio.o(.text) refers to gpio.o(.data) for GPI_CTRL
    gpio.o(.text) refers to gpio.o(.data) for GPI_CTRL
    gpio.o(.text) refers to gpio.o(.data) for GPO_CTRL
    gpio.o(.text) refers to gpio.o(.data) for GPO_CTRL
    gpio.o(.text) refers to gpio.o(.data) for GPO_CTRL
    gpio.o(.text) refers to gpio.o(.data) for GPI_CTRL
==============================================================================

Removing Unused input sections from the image.

    Removing main.o(.rev16_text), (4 bytes).
    Removing main.o(.revsh_text), (4 bytes).
    Removing delay.o(.rev16_text), (4 bytes).
    Removing delay.o(.revsh_text), (4 bytes).
    Removing delay.o(.text), (26 bytes).
    Removing gpio.o(.rev16_text), (4 bytes).
    Removing gpio.o(.revsh_text), (4 bytes).
    Removing gpio.o(.text), (160 bytes).
    Removing gpio.o(.text), (56 bytes).
    Removing gpio.o(.text), (208 bytes).
    Removing gpio.o(.text), (56 bytes).
    Removing gpio.o(.text), (56 bytes).
    Removing gpio.o(.text), (56 bytes).
    Removing gpio.o(.text), (56 bytes).
    Removing gpio.o(.text), (56 bytes).
    Removing gpio.o(.text), (56 bytes).
    Removing gpio.o(.text), (40 bytes).
    Removing gpio.o(.text), (172 bytes).
==============================================================================

Image Symbol Table

    Local Symbols

    Symbol Name                              Value     Ov Type        Size  Object(Section)

    ../clib/microlib/division.c              0x00000000   Number         0  idiv.o ABSOLUTE
    ../clib/microlib/division.c              0x00000000   Number         0  uidiv.o ABSOLUTE
    ../clib/microlib/init/entry.s            0x00000000   Number         0  entry11a.o ABSOLUTE
    ../clib/microlib/init/entry.s            0x00000000   Number         0  entry7b.o ABSOLUTE
    ../clib/microlib/init/entry.s            0x00000000   Number         0  entry2.o ABSOLUTE
    ../clib/microlib/init/entry.s            0x00000000   Number         0  entry7a.o ABSOLUTE
    ../clib/microlib/init/entry.s            0x00000000   Number         0  entry5.o ABSOLUTE
    ../clib/microlib/init/entry.s            0x00000000   Number         0  entry10b.o ABSOLUTE
    ../clib/microlib/init/entry.s            0x00000000   Number         0  entry.o ABSOLUTE
    ../clib/microlib/init/entry.s            0x00000000   Number         0  entry10a.o ABSOLUTE
    ../clib/microlib/init/entry.s            0x00000000   Number         0  entry9b.o ABSOLUTE
    ../clib/microlib/init/entry.s            0x00000000   Number         0  entry9a.o ABSOLUTE
    ../clib/microlib/init/entry.s            0x00000000   Number         0  entry11b.o ABSOLUTE
    ../clib/microlib/init/entry.s            0x00000000   Number         0  entry8b.o ABSOLUTE
    ../clib/microlib/init/entry.s            0x00000000   Number         0  entry8a.o ABSOLUTE
    ../clib/microlib/longlong.c              0x00000000   Number         0  llshl.o ABSOLUTE
    ../clib/microlib/longlong.c              0x00000000   Number         0  llsshr.o ABSOLUTE
    ../clib/microlib/longlong.c              0x00000000   Number         0  llushr.o ABSOLUTE
    ../clib/microlib/string/memcmp.c         0x00000000   Number         0  memcmp.o ABSOLUTE
    ../clib/microlib/string/memcpy.c         0x00000000   Number         0  memcpyb.o ABSOLUTE
    ../clib/microlib/string/memcpy.c         0x00000000   Number         0  memcpya.o ABSOLUTE
    ../clib/microlib/string/memset.c         0x00000000   Number         0  memseta.o ABSOLUTE
    ../clib/microlib/stubs.s                 0x00000000   Number         0  iusefp.o ABSOLUTE
    ../clib/microlib/unhosted.c              0x00000000   Number         0  uread4.o ABSOLUTE
    ../clib/microlib/unhosted.c              0x00000000   Number         0  uwrite4.o ABSOLUTE
    ../fplib/microlib/d2f.c                  0x00000000   Number         0  d2f.o ABSOLUTE
    ../fplib/microlib/f2d.c                  0x00000000   Number         0  f2d.o ABSOLUTE
    ../fplib/microlib/fpadd.c                0x00000000   Number         0  fadd.o ABSOLUTE
    ../fplib/microlib/fpadd.c                0x00000000   Number         0  dadd.o ABSOLUTE
    ../fplib/microlib/fpdiv.c                0x00000000   Number         0  fdiv.o ABSOLUTE
    ../fplib/microlib/fpdiv.c                0x00000000   Number         0  ddiv.o ABSOLUTE
    ../fplib/microlib/fpepilogue.c           0x00000000   Number         0  depilogue.o ABSOLUTE
    ../fplib/microlib/fpepilogue.c           0x00000000   Number         0  fepilogue.o ABSOLUTE
    ../fplib/microlib/fpfix.c                0x00000000   Number         0  dfixui.o ABSOLUTE
    ../fplib/microlib/fpflt.c                0x00000000   Number         0  ffltui.o ABSOLUTE
    ../fplib/microlib/fpflt.c                0x00000000   Number         0  fflti.o ABSOLUTE
    ../fplib/microlib/fpflt.c                0x00000000   Number         0  dflti.o ABSOLUTE
    ../fplib/microlib/fpflt.c                0x00000000   Number         0  dfltui.o ABSOLUTE
    ../fplib/microlib/fpmul.c                0x00000000   Number         0  fmul.o ABSOLUTE
    ../fplib/microlib/fpmul.c                0x00000000   Number         0  dmul.o ABSOLUTE
    ..\..\..\Driver\debug.c                  0x00000000   Number         0  debug.o ABSOLUTE
    ..\..\..\Driver\delay.c                  0x00000000   Number         0  delay.o ABSOLUTE
    ..\..\..\Driver\gpadc.c                  0x00000000   Number         0  gpadc.o ABSOLUTE
    ..\..\..\Driver\gpio.c                   0x00000000   Number         0  gpio.o ABSOLUTE
    ..\..\..\Driver\i2c.c                    0x00000000   Number         0  i2c.o ABSOLUTE
    ..\..\..\Driver\timer.c                  0x00000000   Number         0  timer.o ABSOLUTE
    ..\..\..\Driver\uart.c                   0x00000000   Number         0  uart.o ABSOLUTE
    ..\..\..\Driver\wdt.c                    0x00000000   Number         0  wdt.o ABSOLUTE
    ..\\..\\..\\Driver\\debug.c              0x00000000   Number         0  debug.o ABSOLUTE
    ..\\..\\..\\Driver\\delay.c              0x00000000   Number         0  delay.o ABSOLUTE
    ..\\..\\..\\Driver\\gpadc.c              0x00000000   Number         0  gpadc.o ABSOLUTE
    ..\\..\\..\\Driver\\gpio.c               0x00000000   Number         0  gpio.o ABSOLUTE
    ..\\..\\..\\Driver\\i2c.c                0x00000000   Number         0  i2c.o ABSOLUTE
    ..\\..\\..\\Driver\\timer.c              0x00000000   Number         0  timer.o ABSOLUTE
    ..\\..\\..\\Driver\\uart.c               0x00000000   Number         0  uart.o ABSOLUTE
    ..\\..\\..\\Driver\\wdt.c                0x00000000   Number         0  wdt.o ABSOLUTE
    ..\\gsensor.c                            0x00000000   Number         0  gsensor.o ABSOLUTE
    ..\\main.c                               0x00000000   Number         0  main.o ABSOLUTE
    ..\gsensor.c                             0x00000000   Number         0  gsensor.o ABSOLUTE
    ..\main.c                                0x00000000   Number         0  main.o ABSOLUTE
    Main\\main.c                             0x00000000   Number         0  main.o ABSOLUTE
    Main\main.c                              0x00000000   Number         0  main.o ABSOLUTE
    RTE\Device\ARMCM0\startup_ARMCM0.s       0x00000000   Number         0  startup_armcm0.o ABSOLUTE
    RTE\Device\ARMCM0\system_ARMCM0.c        0x00000000   Number         0  system_armcm0.o ABSOLUTE
    RTE\\Device\\ARMCM0\\system_ARMCM0.c     0x00000000   Number         0  system_armcm0.o ABSOLUTE
    dc.s                                     0x00000000   Number         0  dc.o ABSOLUTE
    handlers.s                               0x00000000   Number         0  handlers.o ABSOLUTE
    init.s                                   0x00000000   Number         0  init.o ABSOLUTE
    RESET                                    0x10000000   Section      192  startup_armcm0.o(RESET)
    .ARM.Collect$$$$00000000                 0x100000c0   Section        0  entry.o(.ARM.Collect$$$$00000000)
    .ARM.Collect$$$$00000001                 0x100000c0   Section        4  entry2.o(.ARM.Collect$$$$00000001)
    .ARM.Collect$$$$00000004                 0x100000c4   Section        4  entry5.o(.ARM.Collect$$$$00000004)
    .ARM.Collect$$$$00000008                 0x100000c8   Section        0  entry7b.o(.ARM.Collect$$$$00000008)
    .ARM.Collect$$$$0000000A                 0x100000c8   Section        0  entry8b.o(.ARM.Collect$$$$0000000A)
    .ARM.Collect$$$$0000000B                 0x100000c8   Section        8  entry9a.o(.ARM.Collect$$$$0000000B)
    .ARM.Collect$$$$0000000D                 0x100000d0   Section        0  entry10a.o(.ARM.Collect$$$$0000000D)
    .ARM.Collect$$$$0000000F                 0x100000d0   Section        0  entry11a.o(.ARM.Collect$$$$0000000F)
    .ARM.Collect$$$$00002712                 0x100000d0   Section        4  entry2.o(.ARM.Collect$$$$00002712)
    __lit__00000000                          0x100000d0   Data           4  entry2.o(.ARM.Collect$$$$00002712)
    .text                                    0x100000d4   Section        0  main.o(.text)
    .text                                    0x1000017c   Section        0  delay.o(.text)
    .text                                    0x1000019c   Section        0  gpio.o(.text)
    .text                                    0x10000300   Section        0  timer.o(.text)
    .text                                    0x100003e8   Section        0  uart.o(.text)
    .text                                    0x10000554   Section        0  gpadc.o(.text)
    .text                                    0x100005f0   Section        0  i2c.o(.text)
    .text                                    0x10000848   Section        0  gsensor.o(.text)
    .text                                    0x10000928   Section       28  startup_armcm0.o(.text)
    .text                                    0x10000944   Section        0  system_armcm0.o(.text)
    .text                                    0x10000954   Section        0  main.o(.text)
    _LCDisConnect                            0x10000955   Thumb Code    46  main.o(.text)
    _LCTimer_Handler                         0x10000983   Thumb Code   248  main.o(.text)
    _LCRxPkt_Handler                         0x10000acf   Thumb Code   294  main.o(.text)
    _LCTxPkt_Handler                         0x10000bf5   Thumb Code   380  main.o(.text)
    _LLENCReq                                0x100014db   Thumb Code   286  main.o(.text)
    _GAPStartAdv                             0x10001b3b   Thumb Code   558  main.o(.text)
    WaitLLCOverSlpth                         0x10002f67   Thumb Code    38  main.o(.text)
    _BBRXFIFORead                            0x10002f8d   Thumb Code   172  main.o(.text)
    _rom_rx_sweyntooth_protect               0x10003039   Thumb Code   150  main.o(.text)
    STKSetRand                               0x100030cf   Thumb Code    30  main.o(.text)
    AttWriteFlash                            0x100030ed   Thumb Code   110  main.o(.text)
    GetOverSlpth                             0x1000315b   Thumb Code    26  main.o(.text)
    .text                                    0x10003184   Section        0  uidiv.o(.text)
    .text                                    0x100031b0   Section        0  idiv.o(.text)
    .text                                    0x100031d8   Section        0  memcpya.o(.text)
    .text                                    0x100031fc   Section        0  memseta.o(.text)
    .text                                    0x10003220   Section        0  memcmp.o(.text)
    .text                                    0x1000323a   Section        0  uread4.o(.text)
    .text                                    0x1000324e   Section        0  uwrite4.o(.text)
    .text                                    0x10003260   Section        0  fadd.o(.text)
    .text                                    0x10003312   Section        0  fmul.o(.text)
    .text                                    0x1000338c   Section        0  fdiv.o(.text)
    .text                                    0x10003408   Section        0  dadd.o(.text)
    .text                                    0x1000356c   Section        0  dmul.o(.text)
    .text                                    0x1000363c   Section        0  ddiv.o(.text)
    .text                                    0x1000372c   Section        0  fflti.o(.text)
    .text                                    0x10003742   Section        0  ffltui.o(.text)
    .text                                    0x10003750   Section        0  dflti.o(.text)
    .text                                    0x10003778   Section        0  dfltui.o(.text)
    .text                                    0x10003794   Section        0  dfixui.o(.text)
    .text                                    0x100037d0   Section        0  f2d.o(.text)
    .text                                    0x100037f8   Section        0  d2f.o(.text)
    .text                                    0x10003830   Section        0  llshl.o(.text)
    .text                                    0x10003850   Section        0  llushr.o(.text)
    .text                                    0x10003872   Section        0  llsshr.o(.text)
    .text                                    0x10003898   Section        0  fepilogue.o(.text)
    .text                                    0x10003898   Section        0  iusefp.o(.text)
    .text                                    0x1000391a   Section        0  depilogue.o(.text)
    .text                                    0x100039d8   Section       36  init.o(.text)
    i.__ARM_clz                              0x100039fc   Section        0  depilogue.o(i.__ARM_clz)
    i.__ARM_common_switch8                   0x10003a2a   Section        0  main.o(i.__ARM_common_switch8)
    i.__scatterload_copy                     0x10003a44   Section       14  handlers.o(i.__scatterload_copy)
    i.__scatterload_null                     0x10003a52   Section        2  handlers.o(i.__scatterload_null)
    i.__scatterload_zeroinit                 0x10003a54   Section       14  handlers.o(i.__scatterload_zeroinit)
    .constdata                               0x10003a62   Section        6  gsensor.o(.constdata)
    .constdata                               0x10003a68   Section       40  main.o(.constdata)
    _ll_packet_length                        0x10003a6b   Data          15  main.o(.constdata)
    _smp_packet_lenght                       0x10003a7a   Data          22  main.o(.constdata)
    .data                                    0x20003000   Section       72  gpio.o(.data)
    gpio_callback                            0x20003014   Data           4  gpio.o(.data)
    pinmuxtab48                              0x20003018   Data          24  gpio.o(.data)
    pinmuxtab32                              0x20003030   Data          24  gpio.o(.data)
    .data                                    0x20003048   Section       12  timer.o(.data)
    TIMER_CTRL                               0x20003048   Data           4  timer.o(.data)
    H_TIMER_CTRL                             0x2000304c   Data           4  timer.o(.data)
    htimer_callback                          0x20003050   Data           4  timer.o(.data)
    .data                                    0x20003054   Section        8  uart.o(.data)
    UART_0_CTRL                              0x20003054   Data           4  uart.o(.data)
    UART_1_CTRL                              0x20003058   Data           4  uart.o(.data)
    .data                                    0x2000305c   Section        4  gpadc.o(.data)
    .data                                    0x20003060   Section       24  i2c.o(.data)
    I2C_0_CTRL                               0x20003060   Data           4  i2c.o(.data)
    I2C_0_TXD                                0x20003064   Data           4  i2c.o(.data)
    I2C_0_RXD                                0x20003068   Data           4  i2c.o(.data)
    I2C_1_CTRL                               0x2000306c   Data           4  i2c.o(.data)
    I2C_1_TXD                                0x20003070   Data           4  i2c.o(.data)
    I2C_1_RXD                                0x20003074   Data           4  i2c.o(.data)
    .data                                    0x20003078   Section        4  system_armcm0.o(.data)
    .data                                    0x2000307c   Section       64  main.o(.data)
    syd_confirm                              0x2000307c   Data           1  main.o(.data)
    ww_minus_cnt                             0x2000307d   Data           1  main.o(.data)
    ext_uart_en                              0x2000307e   Data           1  main.o(.data)
    get_bond_device_idx                      0x2000307f   Data           1  main.o(.data)
    _valid_l2cap_lenght                      0x20003081   Data           1  main.o(.data)
    rssi_rx                                  0x20003083   Data           1  main.o(.data)
    p_flash_hdr                              0x20003084   Data           4  main.o(.data)
    p_lclink                                 0x20003088   Data           4  main.o(.data)
    p_txpdu                                  0x2000308c   Data           4  main.o(.data)
    p_rxbuf                                  0x20003090   Data           4  main.o(.data)
    p_flash                                  0x20003094   Data           4  main.o(.data)
    p_dump_key                               0x2000309c   Data           4  main.o(.data)
    EFUSE_CTRL                               0x200030a0   Data           4  main.o(.data)
    BB_CTRL                                  0x200030a4   Data           4  main.o(.data)
    PW_CTRL                                  0x200030a8   Data           4  main.o(.data)
    PIN_CONFIG                               0x200030ac   Data           4  main.o(.data)
    CONFIG_FLASH_SIZE                        0x200030b0   Data           4  main.o(.data)
    g_evt                                    0x200030b4   Data           8  main.o(.data)
    .bss                                     0x200030bc   Section       12  timer.o(.bss)
    timer_callback                           0x200030bc   Data          12  timer.o(.bss)
    .bss                                     0x200030c8   Section      104  main.o(.bss)
    code_hdr                                 0x200030c8   Data          87  main.o(.bss)
    smart_update_ctrol                       0x2000311f   Data          17  main.o(.bss)
    STACK                                    0x20003130   Section     1024  startup_armcm0.o(STACK)

    Global Symbols

    Symbol Name                              Value     Ov Type        Size  Object(Section)

    BuildAttributes$$THM_ISAv3M$S$PE$A:L22$X:L11$S22$IEEE1$IW$USESV6$~STKCKD$USESV7$~SHL$OTIME$ROPI$EBA8$MICROLIB$REQ8$PRES8$EABIv2 0x00000000   Number         0  anon$$obj.o ABSOLUTE
    __ARM_use_no_argv                        0x00000000   Number         0  main.o ABSOLUTE
    __cpp_initialize__aeabi_                  - Undefined Weak Reference
    __cxa_finalize                            - Undefined Weak Reference
    __decompress                              - Undefined Weak Reference
    _clock_init                               - Undefined Weak Reference
    _microlib_exit                            - Undefined Weak Reference
    __Vectors_Size                           0x000000c0   Number         0  startup_armcm0.o ABSOLUTE
    __Vectors                                0x10000000   Data           4  startup_armcm0.o(RESET)
    __Vectors_End                            0x100000c0   Data           0  startup_armcm0.o(RESET)
    __main                                   0x100000c1   Thumb Code     0  entry.o(.ARM.Collect$$$$00000000)
    _main_stk                                0x100000c1   Thumb Code     0  entry2.o(.ARM.Collect$$$$00000001)
    _main_scatterload                        0x100000c5   Thumb Code     0  entry5.o(.ARM.Collect$$$$00000004)
    __main_after_scatterload                 0x100000c9   Thumb Code     0  entry5.o(.ARM.Collect$$$$00000004)
    _main_clock                              0x100000c9   Thumb Code     0  entry7b.o(.ARM.Collect$$$$00000008)
    _main_cpp_init                           0x100000c9   Thumb Code     0  entry8b.o(.ARM.Collect$$$$0000000A)
    _main_init                               0x100000c9   Thumb Code     0  entry9a.o(.ARM.Collect$$$$0000000B)
    __rt_final_cpp                           0x100000d1   Thumb Code     0  entry10a.o(.ARM.Collect$$$$0000000D)
    __rt_final_exit                          0x100000d1   Thumb Code     0  entry11a.o(.ARM.Collect$$$$0000000F)
    main                                     0x100000d5   Thumb Code   162  main.o(.text)
    delay_ms                                 0x1000017d   Thumb Code    28  delay.o(.text)
    PIN_Set_GPIO                             0x1000019d   Thumb Code    50  gpio.o(.text)
    PIN_Pullup_Enable                        0x100001cf   Thumb Code   150  gpio.o(.text)
    GPIO_IRQHandler                          0x10000265   Thumb Code   132  gpio.o(.text)
    TIMER0_IRQHandler                        0x10000301   Thumb Code    56  timer.o(.text)
    TIMER1_IRQHandler                        0x10000339   Thumb Code    56  timer.o(.text)
    TIMER2_IRQHandler                        0x10000371   Thumb Code    56  timer.o(.text)
    HTIMER_IRQHandler                        0x100003a9   Thumb Code    46  timer.o(.text)
    uart_0_read                              0x100003e9   Thumb Code    72  uart.o(.text)
    UART0_IRQHandler                         0x10000431   Thumb Code   106  uart.o(.text)
    uart_1_read                              0x1000049b   Thumb Code    72  uart.o(.text)
    UART1_IRQHandler                         0x100004e3   Thumb Code   106  uart.o(.text)
    GPADC_get_value                          0x10000555   Thumb Code    20  gpadc.o(.text)
    GPADC_IRQHandler                         0x10000569   Thumb Code   116  gpadc.o(.text)
    i2c_Init                                 0x100005f1   Thumb Code   116  i2c.o(.text)
    i2c_0_write                              0x10000665   Thumb Code   232  i2c.o(.text)
    i2c_0_read                               0x1000074d   Thumb Code   234  i2c.o(.text)
    kx022_write_reg                          0x10000849   Thumb Code    30  gsensor.o(.text)
    kx022_read_reg                           0x10000867   Thumb Code    34  gsensor.o(.text)
    kx022_read_nreg                          0x10000889   Thumb Code    24  gsensor.o(.text)
    kx022_init                               0x100008a1   Thumb Code    68  gsensor.o(.text)
    gensor_read_xyz                          0x100008e5   Thumb Code    64  gsensor.o(.text)
    Reset_Handler                            0x10000929   Thumb Code     8  startup_armcm0.o(.text)
    NMI_Handler                              0x10000931   Thumb Code     2  startup_armcm0.o(.text)
    HardFault_Handler                        0x10000933   Thumb Code     2  startup_armcm0.o(.text)
    SVC_Handler                              0x10000935   Thumb Code     2  startup_armcm0.o(.text)
    PendSV_Handler                           0x10000937   Thumb Code     2  startup_armcm0.o(.text)
    SysTick_Handler                          0x10000939   Thumb Code     2  startup_armcm0.o(.text)
    CAP_IRQHandler                           0x1000093b   Thumb Code     0  startup_armcm0.o(.text)
    HID_IRQHandler                           0x1000093b   Thumb Code     0  startup_armcm0.o(.text)
    HPWM_IRQHandler                          0x1000093b   Thumb Code     0  startup_armcm0.o(.text)
    I2C0_IRQHandler                          0x1000093b   Thumb Code     0  startup_armcm0.o(.text)
    I2C1_IRQHandler                          0x1000093b   Thumb Code     0  startup_armcm0.o(.text)
    IR_Rx_IRQHandler                         0x1000093b   Thumb Code     0  startup_armcm0.o(.text)
    IR_Tx_IRQHandler                         0x1000093b   Thumb Code     0  startup_armcm0.o(.text)
    ISO_7816_IRQHandler                      0x1000093b   Thumb Code     0  startup_armcm0.o(.text)
    LLC2_IRQHandler                          0x1000093b   Thumb Code     0  startup_armcm0.o(.text)
    LLC_IRQHandler                           0x1000093b   Thumb Code     0  startup_armcm0.o(.text)
    RTC_IRQHandler                           0x1000093b   Thumb Code     0  startup_armcm0.o(.text)
    SPIM_IRQHandler                          0x1000093b   Thumb Code     0  startup_armcm0.o(.text)
    SW_IRQHandler                            0x1000093b   Thumb Code     0  startup_armcm0.o(.text)
    TIMER3_IRQHandler                        0x1000093b   Thumb Code     0  startup_armcm0.o(.text)
    TOUCH_IRQHandler                         0x1000093b   Thumb Code     0  startup_armcm0.o(.text)
    SystemInit                               0x10000945   Thumb Code     8  system_armcm0.o(.text)
    LLPingReq                                0x10000a7b   Thumb Code    26  main.o(.text)
    LLScanReqHandle                          0x10000a95   Thumb Code    58  main.o(.text)
    _BBGetMask                               0x10000d71   Thumb Code    92  main.o(.text)
    Lib_LLEvtCallback                        0x10000dcd   Thumb Code   186  main.o(.text)
    ConnectionLatencyMode                    0x10000e87   Thumb Code   112  main.o(.text)
    sw_timer_latency_callback                0x10000ef7   Thumb Code    42  main.o(.text)
    TimerStart                               0x10000f21   Thumb Code    10  main.o(.text)
    smart_latency_start                      0x10000f2b   Thumb Code   212  main.o(.text)
    smart_update_latency_updatersp           0x10000fff   Thumb Code   162  main.o(.text)
    BBRFRead                                 0x100010a1   Thumb Code     4  main.o(.text)
    BBRFWrite                                0x100010a5   Thumb Code     6  main.o(.text)
    RCOSCCalibration                         0x100010ab   Thumb Code    64  main.o(.text)
    RFSleep                                  0x100010eb   Thumb Code    10  main.o(.text)
    UartEn                                   0x100010f5   Thumb Code    32  main.o(.text)
    _SYS32kClockSwitch                       0x10001115   Thumb Code   270  main.o(.text)
    ClockSwitch                              0x10001223   Thumb Code    10  main.o(.text)
    RFWakeup                                 0x1000122d   Thumb Code    22  main.o(.text)
    LPOCalibration                           0x10001243   Thumb Code   254  main.o(.text)
    smart_latency_clear                      0x10001341   Thumb Code    12  main.o(.text)
    Lib_EvtCallback                          0x1000134d   Thumb Code   254  main.o(.text)
    _BMGetNextBondDevice                     0x1000144b   Thumb Code   144  main.o(.text)
    __LLVersionIndRxHandler                  0x100015f9   Thumb Code    66  main.o(.text)
    GetMasterSystem                          0x1000163b   Thumb Code     6  main.o(.text)
    TimerStop                                0x10001641   Thumb Code     4  main.o(.text)
    smart_update_retry                       0x10001645   Thumb Code   158  main.o(.text)
    sw_timer_update_callback                 0x100016e3   Thumb Code    60  main.o(.text)
    smart_update_latency_updatareq           0x1000171f   Thumb Code   496  main.o(.text)
    Lib_ProtocolHookCallback                 0x1000190f   Thumb Code   116  main.o(.text)
    Lib_MiscCallback                         0x10001983   Thumb Code    14  main.o(.text)
    BleInit                                  0x10001991   Thumb Code   344  main.o(.text)
    DisConnect                               0x10001ae9   Thumb Code    10  main.o(.text)
    SetDevAddr                               0x10001af3   Thumb Code    12  main.o(.text)
    GetDevAddr                               0x10001aff   Thumb Code    12  main.o(.text)
    SetLEFeature                             0x10001b0b   Thumb Code    12  main.o(.text)
    SetAdvAccCode                            0x10001b17   Thumb Code    12  main.o(.text)
    SetAdvParams                             0x10001b23   Thumb Code    12  main.o(.text)
    SetAdvData                               0x10001b2f   Thumb Code    12  main.o(.text)
    StartAdv                                 0x10001d69   Thumb Code    10  main.o(.text)
    StopAdv                                  0x10001d73   Thumb Code    24  main.o(.text)
    StopAdv_Noreset                          0x10001d8b   Thumb Code    38  main.o(.text)
    SetScanParams                            0x10001db1   Thumb Code    10  main.o(.text)
    _BBSetScan                               0x10001dbb   Thumb Code    46  main.o(.text)
    _GAPStartScan                            0x10001de9   Thumb Code   254  main.o(.text)
    StartScan                                0x10001ee7   Thumb Code    10  main.o(.text)
    StopScan                                 0x10001ef1   Thumb Code    10  main.o(.text)
    SetSecParams                             0x10001efb   Thumb Code    12  main.o(.text)
    SetConnectionUpdate                      0x10001f07   Thumb Code    12  main.o(.text)
    GetLinkParameters                        0x10001f13   Thumb Code    12  main.o(.text)
    SetWinWideMinusCnt                       0x10001f1f   Thumb Code     8  main.o(.text)
    SetPasskey                               0x10001f27   Thumb Code    12  main.o(.text)
    SecurityReq                              0x10001f33   Thumb Code    12  main.o(.text)
    SetEvtCallback                           0x10001f3f   Thumb Code    54  main.o(.text)
    GetGATTReportHandle                      0x10001f75   Thumb Code    10  main.o(.text)
    SetGATTReadRsp                           0x10001f7f   Thumb Code    12  main.o(.text)
    CheckFIFOFull                            0x10001f8b   Thumb Code    18  main.o(.text)
    GATTDataSend                             0x10001f9d   Thumb Code    86  main.o(.text)
    ATTCSetCallback                          0x10001ff3   Thumb Code     4  main.o(.text)
    ATTCMTUReq                               0x10001ff7   Thumb Code    24  main.o(.text)
    ATTCFindInfoReq                          0x1000200f   Thumb Code    28  main.o(.text)
    ATTCFindByTypeValueReq                   0x1000202b   Thumb Code    40  main.o(.text)
    ATTCReadByTypeReq                        0x10002053   Thumb Code    36  main.o(.text)
    ATTCReadReq                              0x10002077   Thumb Code    24  main.o(.text)
    ATTCReadBlobReq                          0x1000208f   Thumb Code    28  main.o(.text)
    ATTCReadMultipleReq                      0x100020ab   Thumb Code    28  main.o(.text)
    ATTCReadByGroupTypeReq                   0x100020c7   Thumb Code    34  main.o(.text)
    ATTCWriteReq                             0x100020e9   Thumb Code    32  main.o(.text)
    ATTCWriteCmdReq                          0x10002109   Thumb Code    32  main.o(.text)
    ATTCPrepareWriteReq                      0x10002129   Thumb Code    36  main.o(.text)
    ATTCExecuteWriteReq                      0x1000214d   Thumb Code    24  main.o(.text)
    ATTCConfirmation                         0x10002165   Thumb Code    20  main.o(.text)
    _SYSClockSwitch                          0x10002179   Thumb Code    86  main.o(.text)
    MCUClockSwitch                           0x100021cf   Thumb Code     2  main.o(.text)
    GetMCUClock                              0x100021d1   Thumb Code    14  main.o(.text)
    GetClock                                 0x100021df   Thumb Code    16  main.o(.text)
    WakeupConfig                             0x100021ef   Thumb Code    12  main.o(.text)
    LLSleep                                  0x100021fb   Thumb Code    12  main.o(.text)
    Rand                                     0x10002207   Thumb Code     4  main.o(.text)
    DelayUS                                  0x1000220b   Thumb Code     4  main.o(.text)
    DelayMS                                  0x1000220f   Thumb Code     6  main.o(.text)
    GetCompanyID                             0x10002215   Thumb Code    18  main.o(.text)
    GetQFNType                               0x10002227   Thumb Code    20  main.o(.text)
    RFRead                                   0x1000223b   Thumb Code    70  main.o(.text)
    RFWrite                                  0x10002281   Thumb Code     8  main.o(.text)
    lib_check_ble_fsm_state                  0x10002289   Thumb Code    26  main.o(.text)
    SystemSleep                              0x100022a3   Thumb Code    18  main.o(.text)
    SystemPowerDown                          0x100022b5   Thumb Code    78  main.o(.text)
    SystemReset                              0x10002303   Thumb Code    12  main.o(.text)
    CapdetEn                                 0x1000230f   Thumb Code    10  main.o(.text)
    PowerDownLPOEn                           0x10002319   Thumb Code    12  main.o(.text)
    SetBondManagerIndex                      0x10002325   Thumb Code    12  main.o(.text)
    GetBondDevice                            0x10002331   Thumb Code     6  main.o(.text)
    AddBondDevice                            0x10002337   Thumb Code    12  main.o(.text)
    DelAllBondDevice                         0x10002343   Thumb Code    10  main.o(.text)
    DelBondDevice                            0x1000234d   Thumb Code    12  main.o(.text)
    ReadProfileData                          0x10002359   Thumb Code     6  main.o(.text)
    WriteProfileData                         0x1000235f   Thumb Code     6  main.o(.text)
    EraseFlashData                           0x10002365   Thumb Code    78  main.o(.text)
    ReadFlashData                            0x100023b3   Thumb Code    56  main.o(.text)
    WriteFlashData                           0x100023eb   Thumb Code    56  main.o(.text)
    CodeErase                                0x10002423   Thumb Code   100  main.o(.text)
    CodeErase_sector                         0x10002487   Thumb Code    72  main.o(.text)
    _FMCodeWrite                             0x100024cf   Thumb Code    58  main.o(.text)
    CodeWrite                                0x10002509   Thumb Code    30  main.o(.text)
    CodeUpdate                               0x10002527   Thumb Code    10  main.o(.text)
    FlashDataUpdate                          0x10002531   Thumb Code   124  main.o(.text)
    ble_sched_execute                        0x100025ad   Thumb Code   150  main.o(.text)
    ble_sched_finish                         0x10002643   Thumb Code     4  main.o(.text)
    syd52832_chip_confirm                    0x10002647   Thumb Code    26  main.o(.text)
    gap_s_smart_update_latency               0x10002661   Thumb Code   246  main.o(.text)
    eFuseManual                              0x10002757   Thumb Code    28  main.o(.text)
    GPADC_Manual_Calibration                 0x10002773   Thumb Code    34  main.o(.text)
    GPADC_Get_Calibration                    0x10002795   Thumb Code    22  main.o(.text)
    GAPGetUartEn                             0x100027ab   Thumb Code     6  main.o(.text)
    GAPUartEn                                0x100027b1   Thumb Code     6  main.o(.text)
    GAPBBDelayUS                             0x100027b7   Thumb Code     4  main.o(.text)
    GAPBBDelayMS                             0x100027bb   Thumb Code     6  main.o(.text)
    GAPGetRFAutoSleep                        0x100027c1   Thumb Code     4  main.o(.text)
    GAPSetRFAutoSleep                        0x100027c5   Thumb Code     6  main.o(.text)
    Setting4kUpdate                          0x100027cb   Thumb Code   116  main.o(.text)
    SetDevAddr_toflash                       0x1000283f   Thumb Code    72  main.o(.text)
    gap_s_verdor_datas_get                   0x10002887   Thumb Code    28  main.o(.text)
    gap_s_verdor_datas_set                   0x100028a3   Thumb Code    66  main.o(.text)
    gap_s_is_ll_start_enc                    0x100028e5   Thumb Code    26  main.o(.text)
    GAPBBTXFIFO0Write                        0x100028ff   Thumb Code     4  main.o(.text)
    flash_peotect_key_confirm                0x10002903   Thumb Code   148  main.o(.text)
    swd_lock                                 0x10002997   Thumb Code    36  main.o(.text)
    flash_data_offect_get                    0x100029bb   Thumb Code    52  main.o(.text)
    EraseCodeB                               0x100029ef   Thumb Code    58  main.o(.text)
    ReadCodeB                                0x10002a29   Thumb Code    64  main.o(.text)
    WriteCodeB                               0x10002a69   Thumb Code    96  main.o(.text)
    ble_SetTxPower                           0x10002ac9   Thumb Code   248  main.o(.text)
    flash_data_size_get                      0x10002bc1   Thumb Code    18  main.o(.text)
    code_idx_get                             0x10002bd3   Thumb Code     6  main.o(.text)
    flash_data_size_set                      0x10002bd9   Thumb Code   146  main.o(.text)
    Get_RSSI_Last_RX                         0x10002c6b   Thumb Code    82  main.o(.text)
    APP_Read_Attribute_Encrypt               0x10002cbd   Thumb Code    62  main.o(.text)
    APP_Write_Attribute_Encrypt              0x10002cfb   Thumb Code    66  main.o(.text)
    APP_Read_Charact_Permission              0x10002d3d   Thumb Code    66  main.o(.text)
    smart_latency_target                     0x10002d7f   Thumb Code    30  main.o(.text)
    smp_aes_encrypt                          0x10002d9d   Thumb Code     4  main.o(.text)
    gap_get_flash_data_info                  0x10002da1   Thumb Code    26  main.o(.text)
    gap_set_flash_data_info                  0x10002dbb   Thumb Code    70  main.o(.text)
    gap_check_dev_bonded                     0x10002e01   Thumb Code     6  main.o(.text)
    syd_set_chip_flash_all_size              0x10002e07   Thumb Code     6  main.o(.text)
    Xtal_trim_get                            0x10002e0d   Thumb Code   106  main.o(.text)
    Xtal_trim_set                            0x10002e77   Thumb Code   164  main.o(.text)
    flash_read_sfdp                          0x10002f1b   Thumb Code    46  main.o(.text)
    syd_read_unique_id                       0x10002f49   Thumb Code    30  main.o(.text)
    __aeabi_uidiv                            0x10003185   Thumb Code     0  uidiv.o(.text)
    __aeabi_uidivmod                         0x10003185   Thumb Code    44  uidiv.o(.text)
    __aeabi_idiv                             0x100031b1   Thumb Code     0  idiv.o(.text)
    __aeabi_idivmod                          0x100031b1   Thumb Code    40  idiv.o(.text)
    __aeabi_memcpy                           0x100031d9   Thumb Code    36  memcpya.o(.text)
    __aeabi_memcpy4                          0x100031d9   Thumb Code     0  memcpya.o(.text)
    __aeabi_memcpy8                          0x100031d9   Thumb Code     0  memcpya.o(.text)
    __aeabi_memset                           0x100031fd   Thumb Code    14  memseta.o(.text)
    __aeabi_memset4                          0x100031fd   Thumb Code     0  memseta.o(.text)
    __aeabi_memset8                          0x100031fd   Thumb Code     0  memseta.o(.text)
    __aeabi_memclr                           0x1000320b   Thumb Code     4  memseta.o(.text)
    __aeabi_memclr4                          0x1000320b   Thumb Code     0  memseta.o(.text)
    __aeabi_memclr8                          0x1000320b   Thumb Code     0  memseta.o(.text)
    _memset$wrapper                          0x1000320f   Thumb Code    18  memseta.o(.text)
    memcmp                                   0x10003221   Thumb Code    26  memcmp.o(.text)
    __aeabi_uread4                           0x1000323b   Thumb Code    20  uread4.o(.text)
    __rt_uread4                              0x1000323b   Thumb Code     0  uread4.o(.text)
    _uread4                                  0x1000323b   Thumb Code     0  uread4.o(.text)
    __aeabi_uwrite4                          0x1000324f   Thumb Code    18  uwrite4.o(.text)
    __rt_uwrite4                             0x1000324f   Thumb Code     0  uwrite4.o(.text)
    _uwrite4                                 0x1000324f   Thumb Code     0  uwrite4.o(.text)
    __aeabi_fadd                             0x10003261   Thumb Code   162  fadd.o(.text)
    __aeabi_fsub                             0x10003303   Thumb Code     8  fadd.o(.text)
    __aeabi_frsub                            0x1000330b   Thumb Code     8  fadd.o(.text)
    __aeabi_fmul                             0x10003313   Thumb Code   122  fmul.o(.text)
    __aeabi_fdiv                             0x1000338d   Thumb Code   124  fdiv.o(.text)
    __aeabi_dadd                             0x10003409   Thumb Code   328  dadd.o(.text)
    __aeabi_dsub                             0x10003551   Thumb Code    12  dadd.o(.text)
    __aeabi_drsub                            0x1000355d   Thumb Code    12  dadd.o(.text)
    __aeabi_dmul                             0x1000356d   Thumb Code   202  dmul.o(.text)
    __aeabi_ddiv                             0x1000363d   Thumb Code   234  ddiv.o(.text)
    __aeabi_i2f                              0x1000372d   Thumb Code    22  fflti.o(.text)
    __aeabi_ui2f                             0x10003743   Thumb Code    14  ffltui.o(.text)
    __aeabi_i2d                              0x10003751   Thumb Code    34  dflti.o(.text)
    __aeabi_ui2d                             0x10003779   Thumb Code    24  dfltui.o(.text)
    __aeabi_d2uiz                            0x10003795   Thumb Code    50  dfixui.o(.text)
    __aeabi_f2d                              0x100037d1   Thumb Code    40  f2d.o(.text)
    __aeabi_d2f                              0x100037f9   Thumb Code    56  d2f.o(.text)
    __aeabi_llsl                             0x10003831   Thumb Code    32  llshl.o(.text)
    _ll_shift_l                              0x10003831   Thumb Code     0  llshl.o(.text)
    __aeabi_llsr                             0x10003851   Thumb Code    34  llushr.o(.text)
    _ll_ushift_r                             0x10003851   Thumb Code     0  llushr.o(.text)
    __aeabi_lasr                             0x10003873   Thumb Code    38  llsshr.o(.text)
    _ll_sshift_r                             0x10003873   Thumb Code     0  llsshr.o(.text)
    __I$use$fp                               0x10003899   Thumb Code     0  iusefp.o(.text)
    _float_round                             0x10003899   Thumb Code    16  fepilogue.o(.text)
    _float_epilogue                          0x100038a9   Thumb Code   114  fepilogue.o(.text)
    _double_round                            0x1000391b   Thumb Code    26  depilogue.o(.text)
    _double_epilogue                         0x10003935   Thumb Code   164  depilogue.o(.text)
    __scatterload                            0x100039d9   Thumb Code    28  init.o(.text)
    __scatterload_rt2                        0x100039d9   Thumb Code     0  init.o(.text)
    __ARM_clz                                0x100039fd   Thumb Code    46  depilogue.o(i.__ARM_clz)
    __ARM_common_switch8                     0x10003a2b   Thumb Code    26  main.o(i.__ARM_common_switch8)
    __scatterload_copy                       0x10003a45   Thumb Code    14  handlers.o(i.__scatterload_copy)
    __scatterload_null                       0x10003a53   Thumb Code     2  handlers.o(i.__scatterload_null)
    __scatterload_zeroinit                   0x10003a55   Thumb Code    14  handlers.o(i.__scatterload_zeroinit)
    kx022_init_data                          0x10003a62   Data           6  gsensor.o(.constdata)
    adv_chn_to_freq_idx                      0x10003a68   Data           3  main.o(.constdata)
    Region$$Table$$Base                      0x10003a90   Number         0  anon$$obj.o(Region$$Table)
    Region$$Table$$Limit                     0x10003ab0   Number         0  anon$$obj.o(Region$$Table)
    PIN_CONFIG                               0x20003000   Data           4  gpio.o(.data)
    GPIO_CTRL                                0x20003004   Data           4  gpio.o(.data)
    GPO_CTRL                                 0x20003008   Data           4  gpio.o(.data)
    GPI_CTRL                                 0x2000300c   Data           4  gpio.o(.data)
    GPIO_IRQ_CTRL                            0x20003010   Data           4  gpio.o(.data)
    GPADC                                    0x2000305c   Data           4  gpadc.o(.data)
    SystemCoreClock                          0x20003078   Data           4  system_armcm0.o(.data)
    ble_rc32k_clk_lpo_ing_flag               0x20003080   Data           1  main.o(.data)
    master_system                            0x20003082   Data           1  main.o(.data)
    p_gett_db_hdr                            0x20003098   Data           4  main.o(.data)
    __initial_sp                             0x20003530   Data           0  startup_armcm0.o(STACK)



==============================================================================

Memory Map of the image

  Image Entry point : 0x100000c1

  Load Region LR_IROM1 (Base: 0x10000000, Size: 0x00003b6c, Max: 0x0003f000, ABSOLUTE)

    Execution Region ER_IROM1 (Base: 0x10000000, Size: 0x00003ab0, Max: 0x0003f000, ABSOLUTE)

    Base Addr    Size         Type   Attr      Idx    E Section Name        Object

    0x10000000   0x000000c0   Data   RO          605    RESET               startup_armcm0.o
    0x100000c0   0x00000000   Code   RO          725  * .ARM.Collect$$$$00000000  mc_p.l(entry.o)
    0x100000c0   0x00000004   Code   RO          770    .ARM.Collect$$$$00000001  mc_p.l(entry2.o)
    0x100000c4   0x00000004   Code   RO          773    .ARM.Collect$$$$00000004  mc_p.l(entry5.o)
    0x100000c8   0x00000000   Code   RO          775    .ARM.Collect$$$$00000008  mc_p.l(entry7b.o)
    0x100000c8   0x00000000   Code   RO          777    .ARM.Collect$$$$0000000A  mc_p.l(entry8b.o)
    0x100000c8   0x00000008   Code   RO          778    .ARM.Collect$$$$0000000B  mc_p.l(entry9a.o)
    0x100000d0   0x00000000   Code   RO          780    .ARM.Collect$$$$0000000D  mc_p.l(entry10a.o)
    0x100000d0   0x00000000   Code   RO          782    .ARM.Collect$$$$0000000F  mc_p.l(entry11a.o)
    0x100000d0   0x00000004   Code   RO          771    .ARM.Collect$$$$00002712  mc_p.l(entry2.o)
    0x100000d4   0x000000a8   Code   RO            3    .text               main.o
    0x1000017c   0x00000020   Code   RO           79    .text               delay.o
    0x1000019c   0x00000164   Code   RO          114    .text               gpio.o
    0x10000300   0x000000e8   Code   RO          229    .text               timer.o
    0x100003e8   0x0000016c   Code   RO          368    .text               uart.o
    0x10000554   0x0000009c   Code   RO          444    .text               gpadc.o
    0x100005f0   0x00000258   Code   RO          539    .text               i2c.o
    0x10000848   0x000000e0   Code   RO          576    .text               gsensor.o
    0x10000928   0x0000001c   Code   RO          606    .text               startup_armcm0.o
    0x10000944   0x00000010   Code   RO          613    .text               system_armcm0.o
    0x10000954   0x00002830   Code   RO          644    .text               syd8811_ble_lib.lib(main.o)
    0x10003184   0x0000002c   Code   RO          728    .text               mc_p.l(uidiv.o)
    0x100031b0   0x00000028   Code   RO          730    .text               mc_p.l(idiv.o)
    0x100031d8   0x00000024   Code   RO          732    .text               mc_p.l(memcpya.o)
    0x100031fc   0x00000024   Code   RO          734    .text               mc_p.l(memseta.o)
    0x10003220   0x0000001a   Code   RO          736    .text               mc_p.l(memcmp.o)
    0x1000323a   0x00000014   Code   RO          740    .text               mc_p.l(uread4.o)
    0x1000324e   0x00000012   Code   RO          742    .text               mc_p.l(uwrite4.o)
    0x10003260   0x000000b2   Code   RO          744    .text               mf_p.l(fadd.o)
    0x10003312   0x0000007a   Code   RO          746    .text               mf_p.l(fmul.o)
    0x1000338c   0x0000007c   Code   RO          748    .text               mf_p.l(fdiv.o)
    0x10003408   0x00000164   Code   RO          750    .text               mf_p.l(dadd.o)
    0x1000356c   0x000000d0   Code   RO          752    .text               mf_p.l(dmul.o)
    0x1000363c   0x000000f0   Code   RO          754    .text               mf_p.l(ddiv.o)
    0x1000372c   0x00000016   Code   RO          756    .text               mf_p.l(fflti.o)
    0x10003742   0x0000000e   Code   RO          758    .text               mf_p.l(ffltui.o)
    0x10003750   0x00000028   Code   RO          760    .text               mf_p.l(dflti.o)
    0x10003778   0x0000001c   Code   RO          762    .text               mf_p.l(dfltui.o)
    0x10003794   0x0000003c   Code   RO          764    .text               mf_p.l(dfixui.o)
    0x100037d0   0x00000028   Code   RO          766    .text               mf_p.l(f2d.o)
    0x100037f8   0x00000038   Code   RO          768    .text               mf_p.l(d2f.o)
    0x10003830   0x00000020   Code   RO          784    .text               mc_p.l(llshl.o)
    0x10003850   0x00000022   Code   RO          786    .text               mc_p.l(llushr.o)
    0x10003872   0x00000026   Code   RO          788    .text               mc_p.l(llsshr.o)
    0x10003898   0x00000000   Code   RO          790    .text               mc_p.l(iusefp.o)
    0x10003898   0x00000082   Code   RO          791    .text               mf_p.l(fepilogue.o)
    0x1000391a   0x000000be   Code   RO          793    .text               mf_p.l(depilogue.o)
    0x100039d8   0x00000024   Code   RO          797    .text               mc_p.l(init.o)
    0x100039fc   0x0000002e   Code   RO          795    i.__ARM_clz         mf_p.l(depilogue.o)
    0x10003a2a   0x0000001a   Code   RO          665    i.__ARM_common_switch8  syd8811_ble_lib.lib(main.o)
    0x10003a44   0x0000000e   Code   RO          800    i.__scatterload_copy  mc_p.l(handlers.o)
    0x10003a52   0x00000002   Code   RO          801    i.__scatterload_null  mc_p.l(handlers.o)
    0x10003a54   0x0000000e   Code   RO          802    i.__scatterload_zeroinit  mc_p.l(handlers.o)
    0x10003a62   0x00000006   Data   RO          578    .constdata          gsensor.o
    0x10003a68   0x00000028   Data   RO          646    .constdata          syd8811_ble_lib.lib(main.o)
    0x10003a90   0x00000020   Data   RO          799    Region$$Table       anon$$obj.o


    Execution Region RW_IRAM1 (Base: 0x20003000, Size: 0x00000530, Max: 0x00005000, ABSOLUTE)

    Base Addr    Size         Type   Attr      Idx    E Section Name        Object

    0x20003000   0x00000048   Data   RW          128    .data               gpio.o
    0x20003048   0x0000000c   Data   RW          241    .data               timer.o
    0x20003054   0x00000008   Data   RW          374    .data               uart.o
    0x2000305c   0x00000004   Data   RW          445    .data               gpadc.o
    0x20003060   0x00000018   Data   RW          542    .data               i2c.o
    0x20003078   0x00000004   Data   RW          614    .data               system_armcm0.o
    0x2000307c   0x00000040   Data   RW          647    .data               syd8811_ble_lib.lib(main.o)
    0x200030bc   0x0000000c   Zero   RW          240    .bss                timer.o
    0x200030c8   0x00000068   Zero   RW          645    .bss                syd8811_ble_lib.lib(main.o)
    0x20003130   0x00000400   Zero   RW          603    STACK               startup_armcm0.o


==============================================================================

Image component sizes


      Code (inc. data)   RO Data    RW Data    ZI Data      Debug   Object Name

        32          4          0          0          0      29683   delay.o
       156         20          0          4          0       1363   gpadc.o
       356         24          0         72          0      12904   gpio.o
       224          4          6          0          0       2226   gsensor.o
       600         18          0         24          0       2218   i2c.o
       168          6          0          0          0      34287   main.o
        28          8        192          0       1024        636   startup_armcm0.o
        16          8          0          4          0        707   system_armcm0.o
       232         18          0         12         12       1590   timer.o
       364          8          0          8          0       1836   uart.o

    ----------------------------------------------------------------------
      2176        118        230        124       1036      87450   Object Totals
         0          0         32          0          0          0   (incl. Generated)
         0          0          0          0          0          0   (incl. Padding)

    ----------------------------------------------------------------------

      Code (inc. data)   RO Data    RW Data    ZI Data      Debug   Library Member Name

         0          0          0          0          0          0   entry.o
         0          0          0          0          0          0   entry10a.o
         0          0          0          0          0          0   entry11a.o
         8          4          0          0          0          0   entry2.o
         4          0          0          0          0          0   entry5.o
         0          0          0          0          0          0   entry7b.o
         0          0          0          0          0          0   entry8b.o
         8          4          0          0          0          0   entry9a.o
        30          0          0          0          0          0   handlers.o
        40          0          0          0          0         72   idiv.o
        36          8          0          0          0         68   init.o
         0          0          0          0          0          0   iusefp.o
        32          0          0          0          0         68   llshl.o
        38          0          0          0          0         68   llsshr.o
        34          0          0          0          0         68   llushr.o
        26          0          0          0          0         72   memcmp.o
        36          0          0          0          0         60   memcpya.o
        36          0          0          0          0        100   memseta.o
        44          0          0          0          0         72   uidiv.o
        20          0          0          0          0         60   uread4.o
        18          0          0          0          0         60   uwrite4.o
        56          0          0          0          0         68   d2f.o
       356          4          0          0          0        140   dadd.o
       240          6          0          0          0         84   ddiv.o
       236          0          0          0          0        216   depilogue.o
        60         10          0          0          0         68   dfixui.o
        40          6          0          0          0         68   dflti.o
        28          4          0          0          0         68   dfltui.o
       208          6          0          0          0         88   dmul.o
        40          0          0          0          0         60   f2d.o
       178          0          0          0          0        108   fadd.o
       124          0          0          0          0         72   fdiv.o
       130          0          0          0          0        144   fepilogue.o
        22          0          0          0          0         68   fflti.o
        14          0          0          0          0         68   ffltui.o
       122          0          0          0          0         72   fmul.o
     10314        502         40         64        104     109387   main.o

    ----------------------------------------------------------------------
     12578        554         40         64        104     111547   Library Totals
         0          0          0          0          0          0   (incl. Padding)

    ----------------------------------------------------------------------

      Code (inc. data)   RO Data    RW Data    ZI Data      Debug   Library Name

       410         16          0          0          0        768   mc_p.l
      1854         36          0          0          0       1392   mf_p.l
     10314        502         40         64        104     109387   syd8811_ble_lib.lib

    ----------------------------------------------------------------------
     12578        554         40         64        104     111547   Library Totals

    ----------------------------------------------------------------------

==============================================================================


      Code (inc. data)   RO Data    RW Data    ZI Data      Debug   

     14754        672        270        188       1140     197521   Grand Totals
     14754        672        270        188       1140     197521   ELF Image Totals
     14754        672        270        188          0          0   ROM Totals

==============================================================================

    Total RO  Size (Code + RO Data)                15024 (  14.67kB)
    Total RW  Size (RW Data + ZI Data)              1328 (   1.30kB)
    Total ROM Size (Code + RO Data + RW Data)      15212 (  14.86kB)

==============================================================================

