Component: ARM Compiler 5.06 update 6 (build 750) Tool: armlink [4d35ed]

==============================================================================

Section Cross References

    main.o(.text) refers to queue.o(.text) for xQueueGenericSendFromISR
    main.o(.text) refers to gpio.o(.text) for GPIO_Set_Output
    main.o(.text) refers to segger_rtt_printf.o(.text) for SEGGER_RTT_printf
    main.o(.text) refers to tasks.o(.text) for xTaskGenericCreate
    main.o(.text) refers to ble.o(.text) for ble_init
    main.o(.text) refers to main.o(.text) for MCUClockSwitch
    main.o(.text) refers to segger_rtt.o(.text) for SEGGER_RTT_Init
    main.o(.text) refers to app_timer.o(.text) for timers_init
    main.o(.text) refers to main.o(.data) for queue_msg_hal_array
    main.o(.text) refers to gpio.o(.data) for GPIO_IRQ_CTRL
    main.o(.text) refers to softtimer_task.o(.text) for SofttimerTask
    app_timer.o(.text) refers to main.o(.text) for vTaskSendQueueEvt
    app_timer.o(.text) refers to timer.o(.text) for SYD_Timer_Init
    app_timer.o(.text) refers to rtc.o(.text) for SYD_RTC_Init
    app_timer.o(.text) refers to app_timer.o(.bss) for syd_sysTimer
    softtimer_task.o(.text) refers to queue.o(.text) for xQueueGenericCreate
    softtimer_task.o(.text) refers to ble.o(.text) for BLSetConnectionUpdate
    softtimer_task.o(.text) refers to timer.o(.text) for Timer_Evt_Stop
==============================================================================

Removing Unused input sections from the image.

    Removing main.o(.rev16_text), (4 bytes).
    Removing main.o(.revsh_text), (4 bytes).
    Removing app_timer.o(.rev16_text), (4 bytes).
    Removing app_timer.o(.revsh_text), (4 bytes).
    Removing softtimer_task.o(.rev16_text), (4 bytes).
    Removing softtimer_task.o(.revsh_text), (4 bytes).
    Removing ble.o(.rev16_text), (4 bytes).
    Removing ble.o(.revsh_text), (4 bytes).
    Removing ota.o(.rev16_text), (4 bytes).
    Removing ota.o(.revsh_text), (4 bytes).
    Removing debug.o(.rev16_text), (4 bytes).
    Removing debug.o(.revsh_text), (4 bytes).
    Removing gpio.o(.rev16_text), (4 bytes).
    Removing gpio.o(.revsh_text), (4 bytes).
    Removing uart.o(.rev16_text), (4 bytes).
    Removing uart.o(.revsh_text), (4 bytes).
    Removing event_groups.o(.text), (970 bytes).
    Removing tasks.o(.rev16_text), (4 bytes).
==============================================================================

Image Symbol Table

    Local Symbols

    Symbol Name                              Value     Ov Type        Size  Object(Section)

    ../clib/../cmprslib/zerorunl2.c          0x00000000   Number         0  __dczerorl2.o ABSOLUTE
    ../clib/microlib/division.c              0x00000000   Number         0  uldiv.o ABSOLUTE
    ../clib/microlib/division.c              0x00000000   Number         0  idiv.o ABSOLUTE
    ../clib/microlib/division.c              0x00000000   Number         0  uidiv.o ABSOLUTE
    ../clib/microlib/init/entry.s            0x00000000   Number         0  entry.o ABSOLUTE
    ../clib/microlib/init/entry.s            0x00000000   Number         0  entry5.o ABSOLUTE
    ../clib/microlib/init/entry.s            0x00000000   Number         0  entry11b.o ABSOLUTE
    ../clib/microlib/init/entry.s            0x00000000   Number         0  entry11a.o ABSOLUTE
    ../clib/microlib/init/entry.s            0x00000000   Number         0  entry8b.o ABSOLUTE
    ../clib/microlib/init/entry.s            0x00000000   Number         0  entry2.o ABSOLUTE
    ../clib/microlib/init/entry.s            0x00000000   Number         0  entry10b.o ABSOLUTE
    ../clib/microlib/init/entry.s            0x00000000   Number         0  entry10a.o ABSOLUTE
    ../clib/microlib/init/entry.s            0x00000000   Number         0  entry9a.o ABSOLUTE
    ../clib/microlib/init/entry.s            0x00000000   Number         0  entry7a.o ABSOLUTE
    ../clib/microlib/init/entry.s            0x00000000   Number         0  entry8a.o ABSOLUTE
    ../clib/microlib/init/entry.s            0x00000000   Number         0  entry7b.o ABSOLUTE
    ../clib/microlib/init/entry.s            0x00000000   Number         0  entry9b.o ABSOLUTE
    ../clib/microlib/longlong.c              0x00000000   Number         0  llushr.o ABSOLUTE
    ../clib/microlib/longlong.c              0x00000000   Number         0  llsshr.o ABSOLUTE
    ../clib/microlib/longlong.c              0x00000000   Number         0  llshl.o ABSOLUTE
    ../clib/microlib/printf/printf.c         0x00000000   Number         0  printf3.o ABSOLUTE
    ../clib/microlib/printf/printf.c         0x00000000   Number         0  printf2.o ABSOLUTE
    ../clib/microlib/printf/printf.c         0x00000000   Number         0  printfb.o ABSOLUTE
    ../clib/microlib/printf/printf.c         0x00000000   Number         0  printf0.o ABSOLUTE
    ../clib/microlib/printf/printf.c         0x00000000   Number         0  printf1.o ABSOLUTE
    ../clib/microlib/printf/printf.c         0x00000000   Number         0  printf8.o ABSOLUTE
    ../clib/microlib/printf/printf.c         0x00000000   Number         0  printf7.o ABSOLUTE
    ../clib/microlib/printf/printf.c         0x00000000   Number         0  printf6.o ABSOLUTE
    ../clib/microlib/printf/printf.c         0x00000000   Number         0  printf5.o ABSOLUTE
    ../clib/microlib/printf/printf.c         0x00000000   Number         0  printf4.o ABSOLUTE
    ../clib/microlib/printf/printf.c         0x00000000   Number         0  printfa.o ABSOLUTE
    ../clib/microlib/printf/stubs.s          0x00000000   Number         0  stubs.o ABSOLUTE
    ../clib/microlib/stdio/fflush.c          0x00000000   Number         0  fflush.o ABSOLUTE
    ../clib/microlib/stdio/fputc.c           0x00000000   Number         0  fputc.o ABSOLUTE
    ../clib/microlib/stdio/semi.s            0x00000000   Number         0  semi.o ABSOLUTE
    ../clib/microlib/stdio/streams.c         0x00000000   Number         0  stdout.o ABSOLUTE
    ../clib/microlib/string/memcmp.c         0x00000000   Number         0  memcmp.o ABSOLUTE
    ../clib/microlib/string/memcpy.c         0x00000000   Number         0  memcpya.o ABSOLUTE
    ../clib/microlib/string/memcpy.c         0x00000000   Number         0  memcpyb.o ABSOLUTE
    ../clib/microlib/string/memset.c         0x00000000   Number         0  memseta.o ABSOLUTE
    ../clib/microlib/string/strcmp.c         0x00000000   Number         0  strcmp.o ABSOLUTE
    ../clib/microlib/string/strcpy.c         0x00000000   Number         0  strcpy.o ABSOLUTE
    ../clib/microlib/string/strlen.c         0x00000000   Number         0  strlen.o ABSOLUTE
    ../clib/microlib/stubs.s                 0x00000000   Number         0  useno.o ABSOLUTE
    ../clib/microlib/stubs.s                 0x00000000   Number         0  iusefp.o ABSOLUTE
    ../clib/microlib/stubs.s                 0x00000000   Number         0  iusesemip.o ABSOLUTE
    ../clib/microlib/unhosted.c              0x00000000   Number         0  uread4.o ABSOLUTE
    ../clib/microlib/unhosted.c              0x00000000   Number         0  uwrite4.o ABSOLUTE
    ../fplib/microlib/f2d.c                  0x00000000   Number         0  f2d.o ABSOLUTE
    ../fplib/microlib/fpadd.c                0x00000000   Number         0  fadd.o ABSOLUTE
    ../fplib/microlib/fpadd.c                0x00000000   Number         0  dadd.o ABSOLUTE
    ../fplib/microlib/fpdiv.c                0x00000000   Number         0  ddiv.o ABSOLUTE
    ../fplib/microlib/fpepilogue.c           0x00000000   Number         0  depilogue.o ABSOLUTE
    ../fplib/microlib/fpepilogue.c           0x00000000   Number         0  fepilogue.o ABSOLUTE
    ../fplib/microlib/fpfix.c                0x00000000   Number         0  dfixui.o ABSOLUTE
    ../fplib/microlib/fpfix.c                0x00000000   Number         0  dfixul.o ABSOLUTE
    ../fplib/microlib/fpflt.c                0x00000000   Number         0  dflti.o ABSOLUTE
    ../fplib/microlib/fpflt.c                0x00000000   Number         0  ffltui.o ABSOLUTE
    ../fplib/microlib/fpflt.c                0x00000000   Number         0  dfltui.o ABSOLUTE
    ../fplib/microlib/fpmul.c                0x00000000   Number         0  dmul.o ABSOLUTE
    ..\..\..\Driver\debug.c                  0x00000000   Number         0  debug.o ABSOLUTE
    ..\..\..\Driver\gpio.c                   0x00000000   Number         0  gpio.o ABSOLUTE
    ..\..\..\Driver\uart.c                   0x00000000   Number         0  uart.o ABSOLUTE
    ..\..\..\FreeRTOS\portable\ARM\SYD8811\port.c 0x00000000   Number         0  port.o ABSOLUTE
    ..\..\..\FreeRTOS\source\croutine.c      0x00000000   Number         0  croutine.o ABSOLUTE
    ..\..\..\FreeRTOS\source\event_groups.c  0x00000000   Number         0  event_groups.o ABSOLUTE
    ..\..\..\FreeRTOS\source\list.c          0x00000000   Number         0  list.o ABSOLUTE
    ..\..\..\FreeRTOS\source\portable\MemMang\heap_4.c 0x00000000   Number         0  heap_4.o ABSOLUTE
    ..\..\..\FreeRTOS\source\queue.c         0x00000000   Number         0  queue.o ABSOLUTE
    ..\..\..\FreeRTOS\source\tasks.c         0x00000000   Number         0  tasks.o ABSOLUTE
    ..\..\..\FreeRTOS\source\timers.c        0x00000000   Number         0  timers.o ABSOLUTE
    ..\..\..\Rtt\SEGGER_RTT.c                0x00000000   Number         0  segger_rtt.o ABSOLUTE
    ..\..\..\Rtt\SEGGER_RTT_Syscalls_KEIL.c  0x00000000   Number         0  segger_rtt_syscalls_keil.o ABSOLUTE
    ..\..\..\Rtt\SEGGER_RTT_printf.c         0x00000000   Number         0  segger_rtt_printf.o ABSOLUTE
    ..\\..\\..\\Driver\\debug.c              0x00000000   Number         0  debug.o ABSOLUTE
    ..\\..\\..\\Driver\\gpio.c               0x00000000   Number         0  gpio.o ABSOLUTE
    ..\\..\\..\\Driver\\uart.c               0x00000000   Number         0  uart.o ABSOLUTE
    ..\\..\\..\\FreeRTOS\\portable\\ARM\\SYD8811\\port.c 0x00000000   Number         0  port.o ABSOLUTE
    ..\\..\\..\\FreeRTOS\\source\\tasks.c    0x00000000   Number         0  tasks.o ABSOLUTE
    ..\\..\\..\\Rtt\\SEGGER_RTT.c            0x00000000   Number         0  segger_rtt.o ABSOLUTE
    ..\\..\\..\\Rtt\\SEGGER_RTT_Syscalls_KEIL.c 0x00000000   Number         0  segger_rtt_syscalls_keil.o ABSOLUTE
    ..\\..\\..\\Rtt\\SEGGER_RTT_printf.c     0x00000000   Number         0  segger_rtt_printf.o ABSOLUTE
    ..\\application\\app_timer.c             0x00000000   Number         0  app_timer.o ABSOLUTE
    ..\\application\\ble.c                   0x00000000   Number         0  ble.o ABSOLUTE
    ..\\application\\ota.c                   0x00000000   Number         0  ota.o ABSOLUTE
    ..\\main.c                               0x00000000   Number         0  main.o ABSOLUTE
    ..\\task\\softtimer_task.c               0x00000000   Number         0  softtimer_task.o ABSOLUTE
    ..\application\app_timer.c               0x00000000   Number         0  app_timer.o ABSOLUTE
    ..\application\ble.c                     0x00000000   Number         0  ble.o ABSOLUTE
    ..\application\ota.c                     0x00000000   Number         0  ota.o ABSOLUTE
    ..\main.c                                0x00000000   Number         0  main.o ABSOLUTE
    ..\task\softtimer_task.c                 0x00000000   Number         0  softtimer_task.o ABSOLUTE
    Driver\\rtc.c                            0x00000000   Number         0  rtc.o ABSOLUTE
    Driver\\timer.c                          0x00000000   Number         0  timer.o ABSOLUTE
    Driver\rtc.c                             0x00000000   Number         0  rtc.o ABSOLUTE
    Driver\timer.c                           0x00000000   Number         0  timer.o ABSOLUTE
    Main\\main.c                             0x00000000   Number         0  main.o ABSOLUTE
    Main\main.c                              0x00000000   Number         0  main.o ABSOLUTE
    RTE\Device\ARMCM0\startup_ARMCM0.s       0x00000000   Number         0  startup_armcm0.o ABSOLUTE
    RTE\Device\ARMCM0\system_ARMCM0.c        0x00000000   Number         0  system_armcm0.o ABSOLUTE
    RTE\\Device\\ARMCM0\\system_ARMCM0.c     0x00000000   Number         0  system_armcm0.o ABSOLUTE
    cdrcmple.s                               0x00000000   Number         0  cdrcmple.o ABSOLUTE
    dc.s                                     0x00000000   Number         0  dc.o ABSOLUTE
    handlers.s                               0x00000000   Number         0  handlers.o ABSOLUTE
    init.s                                   0x00000000   Number         0  init.o ABSOLUTE
    RESET                                    0x10000000   Section      192  startup_armcm0.o(RESET)
    .ARM.Collect$$$$00000000                 0x100000c0   Section        0  entry.o(.ARM.Collect$$$$00000000)
    .ARM.Collect$$$$00000001                 0x100000c0   Section        4  entry2.o(.ARM.Collect$$$$00000001)
    .ARM.Collect$$$$00000004                 0x100000c4   Section        4  entry5.o(.ARM.Collect$$$$00000004)
    .ARM.Collect$$$$00000008                 0x100000c8   Section        0  entry7b.o(.ARM.Collect$$$$00000008)
    .ARM.Collect$$$$0000000A                 0x100000c8   Section        0  entry8b.o(.ARM.Collect$$$$0000000A)
    .ARM.Collect$$$$0000000B                 0x100000c8   Section        8  entry9a.o(.ARM.Collect$$$$0000000B)
    .ARM.Collect$$$$0000000D                 0x100000d0   Section        0  entry10a.o(.ARM.Collect$$$$0000000D)
    .ARM.Collect$$$$0000000F                 0x100000d0   Section        0  entry11a.o(.ARM.Collect$$$$0000000F)
    .ARM.Collect$$$$00002712                 0x100000d0   Section        4  entry2.o(.ARM.Collect$$$$00002712)
    __lit__00000000                          0x100000d0   Data           4  entry2.o(.ARM.Collect$$$$00002712)
    .emb_text                                0x100000d4   Section      112  port.o(.emb_text)
    .text                                    0x10000144   Section        0  main.o(.text)
    gpio_callback                            0x10000189   Thumb Code   124  main.o(.text)
    .text                                    0x10000538   Section        0  app_timer.o(.text)
    ota_manage_timer_evt_irq_handle          0x10000549   Thumb Code    16  app_timer.o(.text)
    task_180s_rtc_evt_irq_handle             0x1000057f   Thumb Code    16  app_timer.o(.text)
    task_10s_rtc_evt_irq_handle              0x1000058f   Thumb Code    16  app_timer.o(.text)
    .text                                    0x100005ec   Section        0  softtimer_task.o(.text)
    .text                                    0x100006cc   Section        0  ble.o(.text)
    setup_adv_data                           0x100006cd   Thumb Code    94  ble.o(.text)
    ble_gatt_read                            0x10000847   Thumb Code   382  ble.o(.text)
    ble_gatt_write                           0x100009c5   Thumb Code    40  ble.o(.text)
    .text                                    0x10000fb8   Section        0  ota.o(.text)
    EvtCommandComplete                       0x10000fb9   Thumb Code    46  ota.o(.text)
    Cmd4KSETTINGWrite                        0x10000ffd   Thumb Code   120  ota.o(.text)
    CmdFwWriteStart                          0x10001075   Thumb Code    36  ota.o(.text)
    Cmd4KSETTINGUpgrade                      0x10001099   Thumb Code    80  ota.o(.text)
    CmdFwUpgradev20                          0x100010e9   Thumb Code   134  ota.o(.text)
    CmdFlashdataUpgradev30                   0x1000116f   Thumb Code   104  ota.o(.text)
    .text                                    0x100016a8   Section        0  gpio.o(.text)
    .text                                    0x10001c98   Section        0  uart.o(.text)
    __NVIC_DisableIRQ                        0x10001c99   Thumb Code    50  uart.o(.text)
    __NVIC_EnableIRQ                         0x1000216d   Thumb Code    26  uart.o(.text)
    .text                                    0x10002190   Section        0  list.o(.text)
    .text                                    0x10002228   Section        0  queue.o(.text)
    prvCopyDataToQueue                       0x10002319   Thumb Code   132  queue.o(.text)
    prvNotifyQueueSetContainer               0x1000239d   Thumb Code   114  queue.o(.text)
    prvUnlockQueue                           0x1000240f   Thumb Code   162  queue.o(.text)
    prvIsQueueFull                           0x100024b1   Thumb Code    30  queue.o(.text)
    prvIsQueueEmpty                          0x100026c9   Thumb Code    28  queue.o(.text)
    prvCopyDataFromQueue                     0x100026e5   Thumb Code    44  queue.o(.text)
    .text                                    0x10002d5c   Section        0  tasks.o(.text)
    prvInitialiseTaskLists                   0x10002d5d   Thumb Code    68  tasks.o(.text)
    prvInitialiseTCBVariables                0x10002da1   Thumb Code    92  tasks.o(.text)
    prvAllocateTCBAndStack                   0x10002dfd   Thumb Code    70  tasks.o(.text)
    prvResetNextTaskUnblockTime              0x10002f5d   Thumb Code    46  tasks.o(.text)
    prvAddCurrentTaskToDelayedList           0x10003227   Thumb Code    62  tasks.o(.text)
    prvTaskIsTaskSuspended                   0x1000361b   Thumb Code    74  tasks.o(.text)
    prvGetExpectedIdleTime                   0x10003749   Thumb Code    38  tasks.o(.text)
    prvDeleteTCB                             0x1000376f   Thumb Code    18  tasks.o(.text)
    prvCheckTasksWaitingTermination          0x10003781   Thumb Code    90  tasks.o(.text)
    prvIdleTask                              0x100037db   Thumb Code    82  tasks.o(.text)
    prvTaskCheckFreeStackSpace               0x10003bdb   Thumb Code    22  tasks.o(.text)
    .text                                    0x10004124   Section        0  timers.o(.text)
    prvInsertTimerInActiveList               0x10004125   Thumb Code    76  timers.o(.text)
    prvSwitchTimerLists                      0x100041d5   Thumb Code   134  timers.o(.text)
    prvSampleTimeNow                         0x1000425b   Thumb Code    40  timers.o(.text)
    prvProcessReceivedCommands               0x10004283   Thumb Code   250  timers.o(.text)
    prvProcessExpiredTimer                   0x1000437d   Thumb Code    82  timers.o(.text)
    prvProcessTimerOrBlockTask               0x100043cf   Thumb Code    76  timers.o(.text)
    prvGetNextExpireTime                     0x1000441b   Thumb Code    40  timers.o(.text)
    prvTimerTask                             0x10004443   Thumb Code    26  timers.o(.text)
    prvCheckForValidListAndQueue             0x1000445d   Thumb Code    90  timers.o(.text)
    .text                                    0x10004668   Section        0  heap_4.o(.text)
    prvInsertBlockIntoFreeList               0x10004669   Thumb Code    96  heap_4.o(.text)
    prvHeapInit                              0x100046c9   Thumb Code   100  heap_4.o(.text)
    .text                                    0x100048d4   Section        0  port.o(.text)
    prvTaskExitError                         0x100048d5   Thumb Code    32  port.o(.text)
    prvSetupTimerInterrupt                   0x10004931   Thumb Code    12  port.o(.text)
    .text                                    0x100049e8   Section        0  segger_rtt.o(.text)
    _DoInit                                  0x100049e9   Thumb Code    74  segger_rtt.o(.text)
    _WriteBlocking                           0x10004a33   Thumb Code   122  segger_rtt.o(.text)
    _WriteNoCheck                            0x10004aad   Thumb Code    74  segger_rtt.o(.text)
    _PostTerminalSwitch                      0x10004af7   Thumb Code    32  segger_rtt.o(.text)
    _GetAvailWriteSpace                      0x10004b17   Thumb Code    28  segger_rtt.o(.text)
    .text                                    0x10005514   Section        0  segger_rtt_printf.o(.text)
    _StoreChar                               0x10005515   Thumb Code    68  segger_rtt_printf.o(.text)
    _PrintUnsigned                           0x10005559   Thumb Code   280  segger_rtt_printf.o(.text)
    _PrintInt                                0x10005671   Thumb Code   270  segger_rtt_printf.o(.text)
    .text                                    0x10005ab8   Section       28  startup_armcm0.o(.text)
    .text                                    0x10005ad4   Section        0  system_armcm0.o(.text)
    .text                                    0x10005aec   Section        0  main.o(.text)
    _LCDisConnect                            0x10005aed   Thumb Code    46  main.o(.text)
    _LCTimer_Handler                         0x10005b1b   Thumb Code   248  main.o(.text)
    _LCRxPkt_Handler                         0x10005c67   Thumb Code   370  main.o(.text)
    _LCTxPkt_Handler                         0x10005dd9   Thumb Code   380  main.o(.text)
    _LLENCReq                                0x100066c1   Thumb Code   288  main.o(.text)
    _GAPStartAdv                             0x10006d23   Thumb Code   558  main.o(.text)
    WaitLLCOverSlpth                         0x10008231   Thumb Code    38  main.o(.text)
    _BBRXFIFORead                            0x10008257   Thumb Code   138  main.o(.text)
    _rom_rx_sweyntooth_protect               0x100082e1   Thumb Code   150  main.o(.text)
    STKSetRand                               0x10008377   Thumb Code    30  main.o(.text)
    AttWriteFlash                            0x10008395   Thumb Code   110  main.o(.text)
    crc32_fun                                0x10008403   Thumb Code    36  main.o(.text)
    GetOverSlpth                             0x10008427   Thumb Code    26  main.o(.text)
    .text                                    0x10008454   Section        0  timer.o(.text)
    Timer_Evt_Trigger                        0x1000853d   Thumb Code   110  timer.o(.text)
    __NVIC_EnableIRQ                         0x10008a4d   Thumb Code    18  timer.o(.text)
    __NVIC_DisableIRQ                        0x10008a5f   Thumb Code    28  timer.o(.text)
    .text                                    0x10008a88   Section        0  rtc.o(.text)
    Timer_RTCEVT_Trigger                     0x10008c17   Thumb Code   150  rtc.o(.text)
    .text                                    0x10009050   Section        0  uidiv.o(.text)
    .text                                    0x1000907c   Section        0  idiv.o(.text)
    .text                                    0x100090a4   Section        0  memcpya.o(.text)
    .text                                    0x100090c8   Section        0  memseta.o(.text)
    .text                                    0x100090ec   Section        0  strlen.o(.text)
    .text                                    0x100090fa   Section        0  memcmp.o(.text)
    .text                                    0x10009114   Section        0  strcpy.o(.text)
    .text                                    0x10009126   Section        0  uread4.o(.text)
    .text                                    0x1000913a   Section        0  uwrite4.o(.text)
    .text                                    0x1000914c   Section        0  fadd.o(.text)
    .text                                    0x10009200   Section        0  dadd.o(.text)
    .text                                    0x10009364   Section        0  dmul.o(.text)
    .text                                    0x10009434   Section        0  ddiv.o(.text)
    .text                                    0x10009524   Section        0  ffltui.o(.text)
    .text                                    0x10009534   Section        0  dflti.o(.text)
    .text                                    0x1000955c   Section        0  dfltui.o(.text)
    .text                                    0x10009578   Section        0  dfixui.o(.text)
    .text                                    0x100095b4   Section        0  f2d.o(.text)
    .text                                    0x100095dc   Section        0  uldiv.o(.text)
    .text                                    0x1000963c   Section        0  llshl.o(.text)
    .text                                    0x1000965c   Section        0  llushr.o(.text)
    .text                                    0x1000967e   Section        0  llsshr.o(.text)
    .text                                    0x100096a4   Section        0  iusefp.o(.text)
    .text                                    0x100096a4   Section        0  fepilogue.o(.text)
    .text                                    0x10009726   Section        0  depilogue.o(.text)
    .text                                    0x100097e4   Section        0  dfixul.o(.text)
    .text                                    0x10009824   Section       40  cdrcmple.o(.text)
    .text                                    0x1000984c   Section       36  init.o(.text)
    .text                                    0x10009870   Section        0  __dczerorl2.o(.text)
    i.__0sprintf                             0x100098c8   Section        0  printfa.o(i.__0sprintf)
    i.__ARM_clz                              0x100098f0   Section        0  depilogue.o(i.__ARM_clz)
    i.__ARM_common_switch8                   0x1000991e   Section        0  main.o(i.__ARM_common_switch8)
    i.__scatterload_copy                     0x10009938   Section       14  handlers.o(i.__scatterload_copy)
    i.__scatterload_null                     0x10009946   Section        2  handlers.o(i.__scatterload_null)
    i.__scatterload_zeroinit                 0x10009948   Section       14  handlers.o(i.__scatterload_zeroinit)
    i._fp_digits                             0x10009958   Section        0  printfa.o(i._fp_digits)
    _fp_digits                               0x10009959   Thumb Code   344  printfa.o(i._fp_digits)
    i._printf_core                           0x10009acc   Section        0  printfa.o(i._printf_core)
    _printf_core                             0x10009acd   Thumb Code  1754  printfa.o(i._printf_core)
    i._printf_post_padding                   0x1000a1b8   Section        0  printfa.o(i._printf_post_padding)
    _printf_post_padding                     0x1000a1b9   Thumb Code    32  printfa.o(i._printf_post_padding)
    i._printf_pre_padding                    0x1000a1d8   Section        0  printfa.o(i._printf_pre_padding)
    _printf_pre_padding                      0x1000a1d9   Thumb Code    44  printfa.o(i._printf_pre_padding)
    i._sputc                                 0x1000a204   Section        0  printfa.o(i._sputc)
    _sputc                                   0x1000a205   Thumb Code    10  printfa.o(i._sputc)
    .constdata                               0x1000a20e   Section       16  segger_rtt_printf.o(.constdata)
    _aV2C                                    0x1000a20e   Data          16  segger_rtt_printf.o(.constdata)
    .constdata                               0x1000a220   Section     1064  main.o(.constdata)
    _ll_packet_length                        0x1000a223   Data          15  main.o(.constdata)
    _smp_packet_lenght                       0x1000a232   Data          22  main.o(.constdata)
    crc32tab                                 0x1000a248   Data        1024  main.o(.constdata)
    .data                                    0x20003000   Section        8  main.o(.data)
    .data                                    0x20003008   Section        4  app_timer.o(.data)
    .data                                    0x2000300c   Section       49  ble.o(.data)
    start_tx                                 0x2000300c   Data           1  ble.o(.data)
    wechat_tx                                0x2000300d   Data           1  ble.o(.data)
    dev_addr                                 0x20003036   Data           7  ble.o(.data)
    .data                                    0x20003040   Section       28  ota.o(.data)
    EvtBuf                                   0x20003050   Data           8  ota.o(.data)
    .data                                    0x2000305c   Section       72  gpio.o(.data)
    gpio_callback                            0x20003070   Data           4  gpio.o(.data)
    pinmuxtab48                              0x20003074   Data          24  gpio.o(.data)
    pinmuxtab32                              0x2000308c   Data          24  gpio.o(.data)
    .data                                    0x200030a4   Section        8  uart.o(.data)
    UART_0_CTRL                              0x200030a4   Data           4  uart.o(.data)
    UART_1_CTRL                              0x200030a8   Data           4  uart.o(.data)
    .data                                    0x200030ac   Section       60  tasks.o(.data)
    pxDelayedTaskList                        0x200030b0   Data           4  tasks.o(.data)
    pxOverflowDelayedTaskList                0x200030b4   Data           4  tasks.o(.data)
    uxTasksDeleted                           0x200030b8   Data           4  tasks.o(.data)
    xIdleTaskHandle                          0x200030bc   Data           4  tasks.o(.data)
    uxCurrentNumberOfTasks                   0x200030c0   Data           4  tasks.o(.data)
    xTickCount                               0x200030c4   Data           4  tasks.o(.data)
    uxTopReadyPriority                       0x200030c8   Data           4  tasks.o(.data)
    xSchedulerRunning                        0x200030cc   Data           4  tasks.o(.data)
    uxPendedTicks                            0x200030d0   Data           4  tasks.o(.data)
    xYieldPending                            0x200030d4   Data           4  tasks.o(.data)
    xNumOfOverflows                          0x200030d8   Data           4  tasks.o(.data)
    uxTaskNumber                             0x200030dc   Data           4  tasks.o(.data)
    xNextTaskUnblockTime                     0x200030e0   Data           4  tasks.o(.data)
    uxSchedulerSuspended                     0x200030e4   Data           4  tasks.o(.data)
    .data                                    0x200030e8   Section       20  timers.o(.data)
    pxCurrentTimerList                       0x200030e8   Data           4  timers.o(.data)
    pxOverflowTimerList                      0x200030ec   Data           4  timers.o(.data)
    xTimerQueue                              0x200030f0   Data           4  timers.o(.data)
    xTimerTaskHandle                         0x200030f4   Data           4  timers.o(.data)
    xLastTime                                0x200030f8   Data           4  timers.o(.data)
    .data                                    0x200030fc   Section       24  heap_4.o(.data)
    xStart                                   0x200030fc   Data           8  heap_4.o(.data)
    pxEnd                                    0x20003104   Data           4  heap_4.o(.data)
    xFreeBytesRemaining                      0x20003108   Data           4  heap_4.o(.data)
    xMinimumEverFreeBytesRemaining           0x2000310c   Data           4  heap_4.o(.data)
    xBlockAllocatedBit                       0x20003110   Data           4  heap_4.o(.data)
    .data                                    0x20003114   Section        4  port.o(.data)
    uxCriticalNesting                        0x20003114   Data           4  port.o(.data)
    .data                                    0x20003118   Section       17  segger_rtt.o(.data)
    _aTerminalId                             0x20003118   Data          16  segger_rtt.o(.data)
    _ActiveTerminal                          0x20003128   Data           1  segger_rtt.o(.data)
    .data                                    0x2000312c   Section        4  system_armcm0.o(.data)
    .data                                    0x20003130   Section       64  main.o(.data)
    syd_confirm                              0x20003130   Data           1  main.o(.data)
    ww_minus_cnt                             0x20003131   Data           1  main.o(.data)
    ext_uart_en                              0x20003132   Data           1  main.o(.data)
    get_bond_device_idx                      0x20003133   Data           1  main.o(.data)
    _valid_l2cap_lenght                      0x20003135   Data           1  main.o(.data)
    rssi_rx                                  0x20003137   Data           1  main.o(.data)
    p_flash_hdr                              0x20003138   Data           4  main.o(.data)
    p_lclink                                 0x2000313c   Data           4  main.o(.data)
    p_txpdu                                  0x20003140   Data           4  main.o(.data)
    p_rxbuf                                  0x20003144   Data           4  main.o(.data)
    p_flash                                  0x20003148   Data           4  main.o(.data)
    p_dump_key                               0x20003150   Data           4  main.o(.data)
    EFUSE_CTRL                               0x20003154   Data           4  main.o(.data)
    BB_CTRL                                  0x20003158   Data           4  main.o(.data)
    PW_CTRL                                  0x2000315c   Data           4  main.o(.data)
    PIN_CONFIG                               0x20003160   Data           4  main.o(.data)
    CONFIG_FLASH_SIZE                        0x20003164   Data           4  main.o(.data)
    g_evt                                    0x20003168   Data           8  main.o(.data)
    .data                                    0x20003170   Section       28  timer.o(.data)
    TIMER_CTRL                               0x20003174   Data           4  timer.o(.data)
    .data                                    0x2000318c   Section       40  rtc.o(.data)
    enabled                                  0x2000318c   Data           1  rtc.o(.data)
    irq_cb                                   0x200031ac   Data           4  rtc.o(.data)
    .bss                                     0x200031b4   Section       96  app_timer.o(.bss)
    .bss                                     0x20003214   Section       40  ota.o(.bss)
    .bss                                     0x2000323c   Section       80  queue.o(.bss)
    .bss                                     0x2000328c   Section      300  tasks.o(.bss)
    pxReadyTasksLists                        0x2000328c   Data         200  tasks.o(.bss)
    xDelayedTaskList1                        0x20003354   Data          20  tasks.o(.bss)
    xDelayedTaskList2                        0x20003368   Data          20  tasks.o(.bss)
    xPendingReadyList                        0x2000337c   Data          20  tasks.o(.bss)
    xTasksWaitingTermination                 0x20003390   Data          20  tasks.o(.bss)
    xSuspendedTaskList                       0x200033a4   Data          20  tasks.o(.bss)
    .bss                                     0x200033b8   Section       40  timers.o(.bss)
    xActiveTimerList1                        0x200033b8   Data          20  timers.o(.bss)
    xActiveTimerList2                        0x200033cc   Data          20  timers.o(.bss)
    .bss                                     0x200033e0   Section     8192  heap_4.o(.bss)
    ucHeap                                   0x200033e0   Data        8192  heap_4.o(.bss)
    .bss                                     0x200053e0   Section     1112  segger_rtt.o(.bss)
    _acUpBuffer                              0x20005428   Data        1024  segger_rtt.o(.bss)
    _acDownBuffer                            0x20005828   Data          16  segger_rtt.o(.bss)
    .bss                                     0x20005838   Section      104  main.o(.bss)
    code_hdr                                 0x20005838   Data          87  main.o(.bss)
    smart_update_ctrol                       0x2000588f   Data          17  main.o(.bss)
    .bss                                     0x200058a0   Section       12  timer.o(.bss)
    timer_callback                           0x200058a0   Data          12  timer.o(.bss)
    STACK                                    0x200058b0   Section     3072  startup_armcm0.o(STACK)

    Global Symbols

    Symbol Name                              Value     Ov Type        Size  Object(Section)

    BuildAttributes$$THM_ISAv3M$S$PE$A:L22$X:L11$S22$IEEE1$IW$USESV6$~STKCKD$USESV7$~SHL$OTIME$ROPI$EBA8$MICROLIB$REQ8$PRES8$EABIv2 0x00000000   Number         0  anon$$obj.o ABSOLUTE
    __ARM_use_no_argv                        0x00000000   Number         0  main.o ABSOLUTE
    __use_no_errno                           0x00000000   Number         0  useno.o ABSOLUTE
    __use_no_exception_handling              0x00000000   Number         0  useno.o ABSOLUTE
    __use_no_fp                              0x00000000   Number         0  useno.o ABSOLUTE
    __use_no_heap                            0x00000000   Number         0  useno.o ABSOLUTE
    __use_no_heap_region                     0x00000000   Number         0  useno.o ABSOLUTE
    __use_no_semihosting                     0x00000000   Number         0  useno.o ABSOLUTE
    __use_no_semihosting_swi                 0x00000000   Number         0  useno.o ABSOLUTE
    __use_no_signal_handling                 0x00000000   Number         0  useno.o ABSOLUTE
    _printf_a                                0x00000000   Number         0  stubs.o ABSOLUTE
    _printf_c                                0x00000000   Number         0  stubs.o ABSOLUTE
    _printf_charcount                        0x00000000   Number         0  stubs.o ABSOLUTE
    _printf_d                                0x00000000   Number         0  stubs.o ABSOLUTE
    _printf_e                                0x00000000   Number         0  stubs.o ABSOLUTE
    _printf_f                                0x00000000   Number         0  stubs.o ABSOLUTE
    _printf_flags                            0x00000000   Number         0  stubs.o ABSOLUTE
    _printf_fp_dec                           0x00000000   Number         0  stubs.o ABSOLUTE
    _printf_fp_hex                           0x00000000   Number         0  stubs.o ABSOLUTE
    _printf_g                                0x00000000   Number         0  stubs.o ABSOLUTE
    _printf_i                                0x00000000   Number         0  stubs.o ABSOLUTE
    _printf_int_dec                          0x00000000   Number         0  stubs.o ABSOLUTE
    _printf_l                                0x00000000   Number         0  stubs.o ABSOLUTE
    _printf_lc                               0x00000000   Number         0  stubs.o ABSOLUTE
    _printf_ll                               0x00000000   Number         0  stubs.o ABSOLUTE
    _printf_lld                              0x00000000   Number         0  stubs.o ABSOLUTE
    _printf_lli                              0x00000000   Number         0  stubs.o ABSOLUTE
    _printf_llo                              0x00000000   Number         0  stubs.o ABSOLUTE
    _printf_llu                              0x00000000   Number         0  stubs.o ABSOLUTE
    _printf_llx                              0x00000000   Number         0  stubs.o ABSOLUTE
    _printf_longlong_dec                     0x00000000   Number         0  stubs.o ABSOLUTE
    _printf_longlong_hex                     0x00000000   Number         0  stubs.o ABSOLUTE
    _printf_longlong_oct                     0x00000000   Number         0  stubs.o ABSOLUTE
    _printf_ls                               0x00000000   Number         0  stubs.o ABSOLUTE
    _printf_mbtowc                           0x00000000   Number         0  stubs.o ABSOLUTE
    _printf_n                                0x00000000   Number         0  stubs.o ABSOLUTE
    _printf_o                                0x00000000   Number         0  stubs.o ABSOLUTE
    _printf_p                                0x00000000   Number         0  stubs.o ABSOLUTE
    _printf_percent                          0x00000000   Number         0  stubs.o ABSOLUTE
    _printf_pre_padding                      0x00000000   Number         0  stubs.o ABSOLUTE
    _printf_return_value                     0x00000000   Number         0  stubs.o ABSOLUTE
    _printf_s                                0x00000000   Number         0  stubs.o ABSOLUTE
    _printf_sizespec                         0x00000000   Number         0  stubs.o ABSOLUTE
    _printf_str                              0x00000000   Number         0  stubs.o ABSOLUTE
    _printf_truncate_signed                  0x00000000   Number         0  stubs.o ABSOLUTE
    _printf_truncate_unsigned                0x00000000   Number         0  stubs.o ABSOLUTE
    _printf_u                                0x00000000   Number         0  stubs.o ABSOLUTE
    _printf_wc                               0x00000000   Number         0  stubs.o ABSOLUTE
    _printf_wctomb                           0x00000000   Number         0  stubs.o ABSOLUTE
    _printf_widthprec                        0x00000000   Number         0  stubs.o ABSOLUTE
    _printf_x                                0x00000000   Number         0  stubs.o ABSOLUTE
    __cpp_initialize__aeabi_                  - Undefined Weak Reference
    __cxa_finalize                            - Undefined Weak Reference
    _clock_init                               - Undefined Weak Reference
    _microlib_exit                            - Undefined Weak Reference
    __Vectors_Size                           0x000000c0   Number         0  startup_armcm0.o ABSOLUTE
    __Vectors                                0x10000000   Data           4  startup_armcm0.o(RESET)
    __Vectors_End                            0x100000c0   Data           0  startup_armcm0.o(RESET)
    __main                                   0x100000c1   Thumb Code     0  entry.o(.ARM.Collect$$$$00000000)
    _main_stk                                0x100000c1   Thumb Code     0  entry2.o(.ARM.Collect$$$$00000001)
    _main_scatterload                        0x100000c5   Thumb Code     0  entry5.o(.ARM.Collect$$$$00000004)
    __main_after_scatterload                 0x100000c9   Thumb Code     0  entry5.o(.ARM.Collect$$$$00000004)
    _main_clock                              0x100000c9   Thumb Code     0  entry7b.o(.ARM.Collect$$$$00000008)
    _main_cpp_init                           0x100000c9   Thumb Code     0  entry8b.o(.ARM.Collect$$$$0000000A)
    _main_init                               0x100000c9   Thumb Code     0  entry9a.o(.ARM.Collect$$$$0000000B)
    __rt_final_cpp                           0x100000d1   Thumb Code     0  entry10a.o(.ARM.Collect$$$$0000000D)
    __rt_final_exit                          0x100000d1   Thumb Code     0  entry11a.o(.ARM.Collect$$$$0000000F)
    __asm___6_port_c_39a90d8d__prvPortStartFirstTask 0x100000d5   Thumb Code    28  port.o(.emb_text)
    ulSetInterruptMaskFromISR                0x100000f5   Thumb Code     8  port.o(.emb_text)
    vClearInterruptMaskFromISR               0x100000fd   Thumb Code     6  port.o(.emb_text)
    PendSV_Handler                           0x10000103   Thumb Code    62  port.o(.emb_text)
    vTaskSendQueueEvt                        0x10000145   Thumb Code    68  main.o(.text)
    board_init                               0x10000205   Thumb Code   252  main.o(.text)
    Button_LED_Task                          0x10000301   Thumb Code   158  main.o(.text)
    vStartThreadTasks                        0x1000039f   Thumb Code   102  main.o(.text)
    main                                     0x10000405   Thumb Code    86  main.o(.text)
    connection_latency_timer_evt_irq_handle  0x10000539   Thumb Code    16  app_timer.o(.text)
    timers_init                              0x10000559   Thumb Code    38  app_timer.o(.text)
    rtcs_init                                0x1000059f   Thumb Code    48  app_timer.o(.text)
    SofttimerTask                            0x100005ed   Thumb Code   132  softtimer_task.o(.text)
    BLE_SendData                             0x1000072b   Thumb Code    98  ble.o(.text)
    BLSetConnectionUpdate                    0x1000078d   Thumb Code   186  ble.o(.text)
    ble_evt_callback                         0x100009ed   Thumb Code   866  ble.o(.text)
    ble_init                                 0x10000d4f   Thumb Code   126  ble.o(.text)
    ota_manage                               0x10000dcd   Thumb Code   180  ble.o(.text)
    CmdFwErase                               0x10000fe7   Thumb Code    22  ota.o(.text)
    ota_variable_clear                       0x100011d7   Thumb Code    38  ota.o(.text)
    ota_cmd                                  0x100011fd   Thumb Code  1042  ota.o(.text)
    ota_rsp                                  0x1000160f   Thumb Code    42  ota.o(.text)
    PIN_Set_GPIO                             0x100016a9   Thumb Code    50  gpio.o(.text)
    PIN_Pullup_Enable                        0x100016db   Thumb Code   150  gpio.o(.text)
    PIN_Pullup_Disable                       0x10001771   Thumb Code   148  gpio.o(.text)
    GPIO_Set_Output                          0x10001805   Thumb Code    50  gpio.o(.text)
    GPIO_Set_Input                           0x10001837   Thumb Code   200  gpio.o(.text)
    GPIO_Set_Input_DIR                       0x100018ff   Thumb Code    50  gpio.o(.text)
    GPIO_Input_Enable                        0x10001931   Thumb Code    50  gpio.o(.text)
    GPIO_Input_Disable                       0x10001963   Thumb Code    50  gpio.o(.text)
    GPIO_Pin_Set                             0x10001995   Thumb Code    50  gpio.o(.text)
    GPIO_Pin_Clear                           0x100019c7   Thumb Code    50  gpio.o(.text)
    GPIO_Pin_Turn                            0x100019f9   Thumb Code    50  gpio.o(.text)
    GPIO_Pin_Read                            0x10001a2b   Thumb Code    34  gpio.o(.text)
    GPIO_Pin_Pol_Read                        0x10001a4d   Thumb Code   132  gpio.o(.text)
    io_irq_enable                            0x10001ad1   Thumb Code   158  gpio.o(.text)
    io_irq_disable                           0x10001b6f   Thumb Code    52  gpio.o(.text)
    io_irq_disable_all                       0x10001ba3   Thumb Code   100  gpio.o(.text)
    GPIO_IRQHandler                          0x10001c07   Thumb Code   132  gpio.o(.text)
    uart_0_init                              0x10001ccb   Thumb Code   340  uart.o(.text)
    uart_0_write                             0x10001e1f   Thumb Code    40  uart.o(.text)
    uart_0_read                              0x10001e47   Thumb Code    72  uart.o(.text)
    uart_0_close                             0x10001e8f   Thumb Code    26  uart.o(.text)
    UART0_IRQHandler                         0x10001ea9   Thumb Code   106  uart.o(.text)
    uart_1_init                              0x10001f13   Thumb Code   340  uart.o(.text)
    uart_1_write                             0x10002067   Thumb Code    58  uart.o(.text)
    uart_1_read                              0x100020a1   Thumb Code    72  uart.o(.text)
    uart_1_close                             0x100020e9   Thumb Code    26  uart.o(.text)
    UART1_IRQHandler                         0x10002103   Thumb Code   106  uart.o(.text)
    vListInitialise                          0x10002191   Thumb Code    26  list.o(.text)
    vListInitialiseItem                      0x100021ab   Thumb Code     6  list.o(.text)
    vListInsertEnd                           0x100021b1   Thumb Code    24  list.o(.text)
    vListInsert                              0x100021c9   Thumb Code    54  list.o(.text)
    uxListRemove                             0x100021ff   Thumb Code    40  list.o(.text)
    xQueueGenericReset                       0x10002229   Thumb Code   126  queue.o(.text)
    xQueueGenericCreate                      0x100022a7   Thumb Code   114  queue.o(.text)
    xQueueGenericSend                        0x100024cf   Thumb Code   358  queue.o(.text)
    xQueueCreateMutex                        0x10002635   Thumb Code    88  queue.o(.text)
    xQueueGiveMutexRecursive                 0x1000268d   Thumb Code    60  queue.o(.text)
    xQueueGenericReceive                     0x10002711   Thumb Code   368  queue.o(.text)
    xQueueTakeMutexRecursive                 0x10002881   Thumb Code    66  queue.o(.text)
    xQueueCreateCountingSemaphore            0x100028c3   Thumb Code    78  queue.o(.text)
    xQueueGenericSendFromISR                 0x10002911   Thumb Code   204  queue.o(.text)
    xQueueGiveFromISR                        0x100029dd   Thumb Code   182  queue.o(.text)
    xQueueReceiveFromISR                     0x10002a93   Thumb Code   144  queue.o(.text)
    xQueuePeekFromISR                        0x10002b23   Thumb Code   108  queue.o(.text)
    uxQueueMessagesWaiting                   0x10002b8f   Thumb Code    28  queue.o(.text)
    uxQueueSpacesAvailable                   0x10002bab   Thumb Code    34  queue.o(.text)
    uxQueueMessagesWaitingFromISR            0x10002bcd   Thumb Code    16  queue.o(.text)
    vQueueUnregisterQueue                    0x10002bdd   Thumb Code    40  queue.o(.text)
    vQueueDelete                             0x10002c05   Thumb Code    30  queue.o(.text)
    xQueueIsQueueEmptyFromISR                0x10002c23   Thumb Code    26  queue.o(.text)
    xQueueIsQueueFullFromISR                 0x10002c3d   Thumb Code    28  queue.o(.text)
    vQueueAddToRegistry                      0x10002c59   Thumb Code    40  queue.o(.text)
    vQueueWaitForMessageRestricted           0x10002c81   Thumb Code    60  queue.o(.text)
    xQueueCreateSet                          0x10002cbd   Thumb Code    20  queue.o(.text)
    xQueueAddToSet                           0x10002cd1   Thumb Code    42  queue.o(.text)
    xQueueRemoveFromSet                      0x10002cfb   Thumb Code    46  queue.o(.text)
    xQueueSelectFromSet                      0x10002d29   Thumb Code    26  queue.o(.text)
    xQueueSelectFromSetFromISR               0x10002d43   Thumb Code    22  queue.o(.text)
    xTaskGenericCreate                       0x10002e43   Thumb Code   282  tasks.o(.text)
    vTaskDelete                              0x10002f8b   Thumb Code   134  tasks.o(.text)
    xTaskIncrementTick                       0x10003011   Thumb Code   250  tasks.o(.text)
    xTaskResumeAll                           0x1000310b   Thumb Code   284  tasks.o(.text)
    vTaskSuspendAll                          0x10003265   Thumb Code    12  tasks.o(.text)
    vTaskDelayUntil                          0x10003271   Thumb Code   160  tasks.o(.text)
    vTaskDelay                               0x10003311   Thumb Code    76  tasks.o(.text)
    eTaskGetState                            0x1000335d   Thumb Code    94  tasks.o(.text)
    uxTaskPriorityGet                        0x100033bb   Thumb Code    32  tasks.o(.text)
    uxTaskPriorityGetFromISR                 0x100033db   Thumb Code    36  tasks.o(.text)
    vTaskPrioritySet                         0x100033ff   Thumb Code   214  tasks.o(.text)
    vTaskSwitchContext                       0x100034d5   Thumb Code   120  tasks.o(.text)
    vTaskSuspend                             0x1000354d   Thumb Code   206  tasks.o(.text)
    vTaskResume                              0x10003665   Thumb Code   102  tasks.o(.text)
    xTaskResumeFromISR                       0x100036cb   Thumb Code   116  tasks.o(.text)
    vPortSuppressTicksAndSleep               0x1000373f   Thumb Code    10  tasks.o(.text)
    vTaskStartScheduler                      0x1000382d   Thumb Code    74  tasks.o(.text)
    vTaskEndScheduler                        0x10003877   Thumb Code    16  tasks.o(.text)
    xTaskGetTickCount                        0x10003887   Thumb Code    18  tasks.o(.text)
    xTaskGetTickCountFromISR                 0x10003899   Thumb Code    22  tasks.o(.text)
    uxTaskGetNumberOfTasks                   0x100038af   Thumb Code     6  tasks.o(.text)
    pcTaskGetTaskName                        0x100038b5   Thumb Code    32  tasks.o(.text)
    xTaskGetIdleTaskHandle                   0x100038d5   Thumb Code    30  tasks.o(.text)
    vTaskStepTick                            0x100038f3   Thumb Code    42  tasks.o(.text)
    vTaskPlaceOnEventList                    0x1000391d   Thumb Code    72  tasks.o(.text)
    vTaskPlaceOnUnorderedEventList           0x10003965   Thumb Code   176  tasks.o(.text)
    vTaskPlaceOnEventListRestricted          0x10003a15   Thumb Code    52  tasks.o(.text)
    xTaskRemoveFromEventList                 0x10003a49   Thumb Code   116  tasks.o(.text)
    xTaskRemoveFromUnorderedEventList        0x10003abd   Thumb Code   122  tasks.o(.text)
    vTaskSetTimeOutState                     0x10003b37   Thumb Code    24  tasks.o(.text)
    xTaskCheckForTimeOut                     0x10003b4f   Thumb Code   106  tasks.o(.text)
    vTaskMissedYield                         0x10003bb9   Thumb Code     8  tasks.o(.text)
    eTaskConfirmSleepModeStatus              0x10003bc1   Thumb Code    26  tasks.o(.text)
    uxTaskGetStackHighWaterMark              0x10003bf1   Thumb Code    32  tasks.o(.text)
    xTaskGetCurrentTaskHandle                0x10003c11   Thumb Code     6  tasks.o(.text)
    xTaskGetSchedulerState                   0x10003c17   Thumb Code    28  tasks.o(.text)
    vTaskPriorityInherit                     0x10003c33   Thumb Code   128  tasks.o(.text)
    xTaskPriorityDisinherit                  0x10003cb3   Thumb Code   124  tasks.o(.text)
    uxTaskResetEventItemValue                0x10003d2f   Thumb Code    24  tasks.o(.text)
    pvTaskIncrementMutexHeldCount            0x10003d47   Thumb Code    28  tasks.o(.text)
    ulTaskNotifyTake                         0x10003d63   Thumb Code   144  tasks.o(.text)
    xTaskNotifyWait                          0x10003df3   Thumb Code   218  tasks.o(.text)
    xTaskGenericNotify                       0x10003ecd   Thumb Code   200  tasks.o(.text)
    xTaskNotifyFromISR                       0x10003f95   Thumb Code   220  tasks.o(.text)
    vTaskNotifyGiveFromISR                   0x10004071   Thumb Code   150  tasks.o(.text)
    xTimerGenericCommand                     0x10004171   Thumb Code   100  timers.o(.text)
    xTimerCreateTimerTask                    0x100044b7   Thumb Code    60  timers.o(.text)
    xTimerCreate                             0x100044f3   Thumb Code   128  timers.o(.text)
    xTimerGetTimerDaemonTaskHandle           0x10004573   Thumb Code    30  timers.o(.text)
    pcTimerGetTimerName                      0x10004591   Thumb Code     8  timers.o(.text)
    xTimerIsTimerActive                      0x10004599   Thumb Code    36  timers.o(.text)
    pvTimerGetTimerID                        0x100045bd   Thumb Code    30  timers.o(.text)
    vTimerSetTimerID                         0x100045db   Thumb Code    30  timers.o(.text)
    xTimerPendFunctionCallFromISR            0x100045f9   Thumb Code    46  timers.o(.text)
    xTimerPendFunctionCall                   0x10004627   Thumb Code    58  timers.o(.text)
    pvPortMalloc                             0x1000472d   Thumb Code   264  heap_4.o(.text)
    vPortFree                                0x10004835   Thumb Code   120  heap_4.o(.text)
    xPortGetFreeHeapSize                     0x100048ad   Thumb Code     6  heap_4.o(.text)
    xPortGetMinimumEverFreeHeapSize          0x100048b3   Thumb Code     6  heap_4.o(.text)
    vPortInitialiseBlocks                    0x100048b9   Thumb Code     2  heap_4.o(.text)
    pxPortInitialiseStack                    0x100048f5   Thumb Code    26  port.o(.text)
    SVC_Handler                              0x1000490f   Thumb Code     2  port.o(.text)
    xPortSysTickHandler                      0x10004911   Thumb Code    32  port.o(.text)
    xPortStartScheduler                      0x1000493d   Thumb Code    48  port.o(.text)
    vPortEndScheduler                        0x1000496d   Thumb Code    30  port.o(.text)
    vPortYield                               0x1000498b   Thumb Code    18  port.o(.text)
    vPortEnterCritical                       0x1000499d   Thumb Code    22  port.o(.text)
    vPortExitCritical                        0x100049b3   Thumb Code    36  port.o(.text)
    SEGGER_RTT_ReadNoLock                    0x10004b33   Thumb Code   168  segger_rtt.o(.text)
    SEGGER_RTT_Read                          0x10004bdb   Thumb Code    50  segger_rtt.o(.text)
    SEGGER_RTT_WriteWithOverwriteNoLock      0x10004c0d   Thumb Code   170  segger_rtt.o(.text)
    SEGGER_RTT_WriteSkipNoLock               0x10004cb7   Thumb Code   178  segger_rtt.o(.text)
    SEGGER_RTT_WriteNoLock                   0x10004d69   Thumb Code   170  segger_rtt.o(.text)
    SEGGER_RTT_Write                         0x10004e13   Thumb Code    66  segger_rtt.o(.text)
    SEGGER_RTT_WriteString                   0x10004e55   Thumb Code    26  segger_rtt.o(.text)
    SEGGER_RTT_PutCharSkipNoLock             0x10004e6f   Thumb Code    50  segger_rtt.o(.text)
    SEGGER_RTT_PutCharSkip                   0x10004ea1   Thumb Code    94  segger_rtt.o(.text)
    SEGGER_RTT_PutChar                       0x10004eff   Thumb Code   108  segger_rtt.o(.text)
    SEGGER_RTT_GetKey                        0x10004f6b   Thumb Code    32  segger_rtt.o(.text)
    SEGGER_RTT_WaitKey                       0x10004f8b   Thumb Code    14  segger_rtt.o(.text)
    SEGGER_RTT_HasKey                        0x10004f99   Thumb Code    38  segger_rtt.o(.text)
    SEGGER_RTT_HasData                       0x10004fbf   Thumb Code    22  segger_rtt.o(.text)
    SEGGER_RTT_AllocDownBuffer               0x10004fd5   Thumb Code   164  segger_rtt.o(.text)
    SEGGER_RTT_AllocUpBuffer                 0x10005079   Thumb Code   164  segger_rtt.o(.text)
    SEGGER_RTT_ConfigUpBuffer                0x1000511d   Thumb Code   142  segger_rtt.o(.text)
    SEGGER_RTT_ConfigDownBuffer              0x100051ab   Thumb Code   146  segger_rtt.o(.text)
    SEGGER_RTT_SetNameUpBuffer               0x1000523d   Thumb Code    80  segger_rtt.o(.text)
    SEGGER_RTT_SetNameDownBuffer             0x1000528d   Thumb Code    78  segger_rtt.o(.text)
    SEGGER_RTT_SetFlagsUpBuffer              0x100052db   Thumb Code    82  segger_rtt.o(.text)
    SEGGER_RTT_SetFlagsDownBuffer            0x1000532d   Thumb Code    80  segger_rtt.o(.text)
    SEGGER_RTT_Init                          0x1000537d   Thumb Code     8  segger_rtt.o(.text)
    SEGGER_RTT_SetTerminal                   0x10005385   Thumb Code   140  segger_rtt.o(.text)
    SEGGER_RTT_TerminalOut                   0x10005411   Thumb Code   248  segger_rtt.o(.text)
    SEGGER_RTT_vprintf                       0x1000577f   Thumb Code   646  segger_rtt_printf.o(.text)
    SEGGER_RTT_printf                        0x10005a05   Thumb Code    36  segger_rtt_printf.o(.text)
    SEGGER_RTT_hexdump                       0x10005a29   Thumb Code   122  segger_rtt_printf.o(.text)
    Reset_Handler                            0x10005ab9   Thumb Code     8  startup_armcm0.o(.text)
    NMI_Handler                              0x10005ac1   Thumb Code     2  startup_armcm0.o(.text)
    HardFault_Handler                        0x10005ac3   Thumb Code     2  startup_armcm0.o(.text)
    SysTick_Handler                          0x10005ac9   Thumb Code     2  startup_armcm0.o(.text)
    CAP_IRQHandler                           0x10005acb   Thumb Code     0  startup_armcm0.o(.text)
    GPADC_IRQHandler                         0x10005acb   Thumb Code     0  startup_armcm0.o(.text)
    HID_IRQHandler                           0x10005acb   Thumb Code     0  startup_armcm0.o(.text)
    HPWM_IRQHandler                          0x10005acb   Thumb Code     0  startup_armcm0.o(.text)
    HTIMER_IRQHandler                        0x10005acb   Thumb Code     0  startup_armcm0.o(.text)
    I2C0_IRQHandler                          0x10005acb   Thumb Code     0  startup_armcm0.o(.text)
    I2C1_IRQHandler                          0x10005acb   Thumb Code     0  startup_armcm0.o(.text)
    IR_Rx_IRQHandler                         0x10005acb   Thumb Code     0  startup_armcm0.o(.text)
    IR_Tx_IRQHandler                         0x10005acb   Thumb Code     0  startup_armcm0.o(.text)
    ISO_7816_IRQHandler                      0x10005acb   Thumb Code     0  startup_armcm0.o(.text)
    LLC2_IRQHandler                          0x10005acb   Thumb Code     0  startup_armcm0.o(.text)
    LLC_IRQHandler                           0x10005acb   Thumb Code     0  startup_armcm0.o(.text)
    SPIM_IRQHandler                          0x10005acb   Thumb Code     0  startup_armcm0.o(.text)
    SW_IRQHandler                            0x10005acb   Thumb Code     0  startup_armcm0.o(.text)
    TIMER3_IRQHandler                        0x10005acb   Thumb Code     0  startup_armcm0.o(.text)
    TOUCH_IRQHandler                         0x10005acb   Thumb Code     0  startup_armcm0.o(.text)
    SystemCoreClockUpdate                    0x10005ad5   Thumb Code     8  system_armcm0.o(.text)
    SystemInit                               0x10005add   Thumb Code     8  system_armcm0.o(.text)
    LLPingReq                                0x10005c13   Thumb Code    26  main.o(.text)
    LLScanReqHandle                          0x10005c2d   Thumb Code    58  main.o(.text)
    _BBGetMask                               0x10005f55   Thumb Code    92  main.o(.text)
    Lib_LLEvtCallback                        0x10005fb1   Thumb Code   186  main.o(.text)
    ConnectionLatencyMode                    0x1000606b   Thumb Code   112  main.o(.text)
    sw_timer_latency_callback                0x100060db   Thumb Code    42  main.o(.text)
    TimerStart                               0x10006105   Thumb Code    10  main.o(.text)
    smart_latency_start                      0x1000610f   Thumb Code   212  main.o(.text)
    smart_update_latency_updatersp           0x100061e3   Thumb Code   162  main.o(.text)
    BBRFRead                                 0x10006285   Thumb Code     4  main.o(.text)
    BBRFWrite                                0x10006289   Thumb Code     6  main.o(.text)
    RCOSCCalibration                         0x1000628f   Thumb Code    64  main.o(.text)
    RFSleep                                  0x100062cf   Thumb Code    12  main.o(.text)
    UartEn                                   0x100062db   Thumb Code    32  main.o(.text)
    _SYS32kClockSwitch                       0x100062fb   Thumb Code   270  main.o(.text)
    ClockSwitch                              0x10006409   Thumb Code    10  main.o(.text)
    RFWakeup                                 0x10006413   Thumb Code    22  main.o(.text)
    LPOCalibration                           0x10006429   Thumb Code   254  main.o(.text)
    smart_latency_clear                      0x10006527   Thumb Code    12  main.o(.text)
    Lib_EvtCallback                          0x10006533   Thumb Code   254  main.o(.text)
    _BMGetNextBondDevice                     0x10006631   Thumb Code   144  main.o(.text)
    __LLVersionIndRxHandler                  0x100067e1   Thumb Code    66  main.o(.text)
    GetMasterSystem                          0x10006823   Thumb Code     6  main.o(.text)
    TimerStop                                0x10006829   Thumb Code     4  main.o(.text)
    smart_update_retry                       0x1000682d   Thumb Code   158  main.o(.text)
    sw_timer_update_callback                 0x100068cb   Thumb Code    60  main.o(.text)
    smart_update_latency_updatareq           0x10006907   Thumb Code   496  main.o(.text)
    Lib_ProtocolHookCallback                 0x10006af7   Thumb Code   116  main.o(.text)
    Lib_MiscCallback                         0x10006b6b   Thumb Code    14  main.o(.text)
    BleInit                                  0x10006b79   Thumb Code   344  main.o(.text)
    DisConnect                               0x10006cd1   Thumb Code    10  main.o(.text)
    SetDevAddr                               0x10006cdb   Thumb Code    12  main.o(.text)
    GetDevAddr                               0x10006ce7   Thumb Code    12  main.o(.text)
    SetLEFeature                             0x10006cf3   Thumb Code    12  main.o(.text)
    SetAdvAccCode                            0x10006cff   Thumb Code    12  main.o(.text)
    SetAdvParams                             0x10006d0b   Thumb Code    12  main.o(.text)
    SetAdvData                               0x10006d17   Thumb Code    12  main.o(.text)
    StartAdv                                 0x10006f51   Thumb Code    10  main.o(.text)
    StopAdv                                  0x10006f5b   Thumb Code    24  main.o(.text)
    StopAdv_Noreset                          0x10006f73   Thumb Code    38  main.o(.text)
    SetScanParams                            0x10006f99   Thumb Code    10  main.o(.text)
    _BBSetScan                               0x10006fa3   Thumb Code    46  main.o(.text)
    _GAPStartScan                            0x10006fd1   Thumb Code   254  main.o(.text)
    StartScan                                0x100070cf   Thumb Code    10  main.o(.text)
    StopScan                                 0x100070d9   Thumb Code    10  main.o(.text)
    SetSecParams                             0x100070e3   Thumb Code    12  main.o(.text)
    SetConnectionUpdate                      0x100070ef   Thumb Code    12  main.o(.text)
    GetLinkParameters                        0x100070fb   Thumb Code    12  main.o(.text)
    SetWinWideMinusCnt                       0x10007107   Thumb Code     8  main.o(.text)
    SetPasskey                               0x1000710f   Thumb Code    12  main.o(.text)
    SecurityReq                              0x1000711b   Thumb Code    12  main.o(.text)
    SetEvtCallback                           0x10007127   Thumb Code    54  main.o(.text)
    GetGATTReportHandle                      0x1000715d   Thumb Code    10  main.o(.text)
    SetGATTReadRsp                           0x10007167   Thumb Code    12  main.o(.text)
    CheckFIFOFull                            0x10007173   Thumb Code    18  main.o(.text)
    GATTDataSend                             0x10007185   Thumb Code    86  main.o(.text)
    ATTCSetCallback                          0x100071db   Thumb Code     4  main.o(.text)
    ATTCMTUReq                               0x100071df   Thumb Code    24  main.o(.text)
    ATTCFindInfoReq                          0x100071f7   Thumb Code    28  main.o(.text)
    ATTCFindByTypeValueReq                   0x10007213   Thumb Code    40  main.o(.text)
    ATTCReadByTypeReq                        0x1000723b   Thumb Code    36  main.o(.text)
    ATTCReadReq                              0x1000725f   Thumb Code    24  main.o(.text)
    ATTCReadBlobReq                          0x10007277   Thumb Code    28  main.o(.text)
    ATTCReadMultipleReq                      0x10007293   Thumb Code    28  main.o(.text)
    ATTCReadByGroupTypeReq                   0x100072af   Thumb Code    34  main.o(.text)
    ATTCWriteReq                             0x100072d1   Thumb Code    32  main.o(.text)
    ATTCWriteCmdReq                          0x100072f1   Thumb Code    32  main.o(.text)
    ATTCPrepareWriteReq                      0x10007311   Thumb Code    36  main.o(.text)
    ATTCExecuteWriteReq                      0x10007335   Thumb Code    24  main.o(.text)
    ATTCConfirmation                         0x1000734d   Thumb Code    20  main.o(.text)
    _SYSClockSwitch                          0x10007361   Thumb Code    86  main.o(.text)
    MCUClockSwitch                           0x100073b7   Thumb Code     2  main.o(.text)
    GetMCUClock                              0x100073b9   Thumb Code    14  main.o(.text)
    GetClock                                 0x100073c7   Thumb Code    16  main.o(.text)
    WakeupConfig                             0x100073d7   Thumb Code    12  main.o(.text)
    LLSleep                                  0x100073e3   Thumb Code    12  main.o(.text)
    Rand                                     0x100073ef   Thumb Code     4  main.o(.text)
    DelayUS                                  0x100073f3   Thumb Code     4  main.o(.text)
    DelayMS                                  0x100073f7   Thumb Code     6  main.o(.text)
    GetCompanyID                             0x100073fd   Thumb Code    18  main.o(.text)
    GetQFNType                               0x1000740f   Thumb Code    20  main.o(.text)
    RFRead                                   0x10007423   Thumb Code    70  main.o(.text)
    RFWrite                                  0x10007469   Thumb Code     8  main.o(.text)
    lib_check_ble_fsm_state                  0x10007471   Thumb Code    26  main.o(.text)
    SystemSleep                              0x1000748b   Thumb Code    18  main.o(.text)
    SystemPowerDown                          0x1000749d   Thumb Code    78  main.o(.text)
    SystemReset                              0x100074eb   Thumb Code    12  main.o(.text)
    CapdetEn                                 0x100074f7   Thumb Code    10  main.o(.text)
    PowerDownLPOEn                           0x10007501   Thumb Code    12  main.o(.text)
    SetBondManagerIndex                      0x1000750d   Thumb Code    12  main.o(.text)
    GetBondDevice                            0x10007519   Thumb Code     6  main.o(.text)
    AddBondDevice                            0x1000751f   Thumb Code    12  main.o(.text)
    DelAllBondDevice                         0x1000752b   Thumb Code    10  main.o(.text)
    DelBondDevice                            0x10007535   Thumb Code    12  main.o(.text)
    ReadProfileData                          0x10007541   Thumb Code     6  main.o(.text)
    WriteProfileData                         0x10007547   Thumb Code     6  main.o(.text)
    EraseFlashData                           0x1000754d   Thumb Code    78  main.o(.text)
    ReadFlashData                            0x1000759b   Thumb Code    56  main.o(.text)
    WriteFlashData                           0x100075d3   Thumb Code    56  main.o(.text)
    CodeErase                                0x1000760b   Thumb Code   100  main.o(.text)
    CodeErase_sector                         0x1000766f   Thumb Code    72  main.o(.text)
    _FMCodeWrite                             0x100076b7   Thumb Code    58  main.o(.text)
    CodeWrite                                0x100076f1   Thumb Code    30  main.o(.text)
    CodeUpdate                               0x1000770f   Thumb Code    10  main.o(.text)
    FlashDataUpdate                          0x10007719   Thumb Code   124  main.o(.text)
    ble_sched_execute                        0x10007795   Thumb Code   150  main.o(.text)
    ble_sched_finish                         0x1000782b   Thumb Code     4  main.o(.text)
    syd52832_chip_confirm                    0x1000782f   Thumb Code    26  main.o(.text)
    gap_s_smart_update_latency               0x10007849   Thumb Code   246  main.o(.text)
    eFuseManual                              0x1000793f   Thumb Code    28  main.o(.text)
    GPADC_Manual_Calibration                 0x1000795b   Thumb Code    34  main.o(.text)
    GPADC_Get_Calibration                    0x1000797d   Thumb Code    22  main.o(.text)
    GAPGetUartEn                             0x10007993   Thumb Code     6  main.o(.text)
    GAPUartEn                                0x10007999   Thumb Code     6  main.o(.text)
    GAPBBDelayUS                             0x1000799f   Thumb Code     4  main.o(.text)
    GAPBBDelayMS                             0x100079a3   Thumb Code     6  main.o(.text)
    GAPGetRFAutoSleep                        0x100079a9   Thumb Code     4  main.o(.text)
    GAPSetRFAutoSleep                        0x100079ad   Thumb Code     6  main.o(.text)
    Setting4kUpdate                          0x100079b3   Thumb Code   116  main.o(.text)
    SetDevAddr_toflash                       0x10007a27   Thumb Code    72  main.o(.text)
    gap_s_verdor_datas_get                   0x10007a6f   Thumb Code    28  main.o(.text)
    gap_s_verdor_datas_set                   0x10007a8b   Thumb Code    66  main.o(.text)
    gap_s_is_ll_start_enc                    0x10007acd   Thumb Code    26  main.o(.text)
    GAPBBTXFIFO0Write                        0x10007ae7   Thumb Code     4  main.o(.text)
    flash_peotect_key_confirm                0x10007aeb   Thumb Code   148  main.o(.text)
    swd_lock                                 0x10007b7f   Thumb Code    36  main.o(.text)
    flash_data_offect_get                    0x10007ba3   Thumb Code    52  main.o(.text)
    EraseCodeB                               0x10007bd7   Thumb Code    58  main.o(.text)
    ReadCodeB                                0x10007c11   Thumb Code    64  main.o(.text)
    WriteCodeB                               0x10007c51   Thumb Code    96  main.o(.text)
    ble_SetTxPower                           0x10007cb1   Thumb Code   242  main.o(.text)
    flash_data_size_get                      0x10007da3   Thumb Code    18  main.o(.text)
    code_idx_get                             0x10007db5   Thumb Code     6  main.o(.text)
    flash_data_size_set                      0x10007dbb   Thumb Code   146  main.o(.text)
    Get_RSSI_Last_RX                         0x10007e4d   Thumb Code    82  main.o(.text)
    APP_Read_Attribute_Encrypt               0x10007e9f   Thumb Code    62  main.o(.text)
    APP_Write_Attribute_Encrypt              0x10007edd   Thumb Code    66  main.o(.text)
    APP_Read_Charact_Permission              0x10007f1f   Thumb Code    66  main.o(.text)
    smart_latency_target                     0x10007f61   Thumb Code    30  main.o(.text)
    smp_aes_encrypt                          0x10007f7f   Thumb Code     4  main.o(.text)
    gap_get_flash_data_info                  0x10007f83   Thumb Code    26  main.o(.text)
    gap_set_flash_data_info                  0x10007f9d   Thumb Code    70  main.o(.text)
    gap_check_dev_bonded                     0x10007fe3   Thumb Code     6  main.o(.text)
    syd_set_chip_flash_all_size              0x10007fe9   Thumb Code     6  main.o(.text)
    Xtal_trim_get                            0x10007fef   Thumb Code   106  main.o(.text)
    Xtal_trim_set                            0x10008059   Thumb Code   164  main.o(.text)
    flash_read_sfdp                          0x100080fd   Thumb Code    46  main.o(.text)
    syd_read_unique_id                       0x1000812b   Thumb Code    30  main.o(.text)
    ota_code_check_crc32                     0x10008149   Thumb Code   226  main.o(.text)
    RefreshCache                             0x1000822b   Thumb Code     6  main.o(.text)
    Timer_Evt_Creat                          0x10008455   Thumb Code    54  timer.o(.text)
    Min                                      0x1000848b   Thumb Code     8  timer.o(.text)
    TimerDelayUS                             0x10008493   Thumb Code    24  timer.o(.text)
    timer_0_disable                          0x100084ab   Thumb Code    48  timer.o(.text)
    timer_0_enable                           0x100084db   Thumb Code    96  timer.o(.text)
    timer_0_start                            0x1000853b   Thumb Code     2  timer.o(.text)
    timer_0_get                              0x100085ab   Thumb Code    92  timer.o(.text)
    Timer_Evt_Stop                           0x10008607   Thumb Code   120  timer.o(.text)
    Timer_Evt_ReSet                          0x1000867f   Thumb Code    64  timer.o(.text)
    Timer_Evt_Clr                            0x100086bf   Thumb Code    10  timer.o(.text)
    Timer_Evt_Start                          0x100086c9   Thumb Code   156  timer.o(.text)
    Timer_Evt_ReStart                        0x10008765   Thumb Code   132  timer.o(.text)
    Timer_Get_State                          0x100087e9   Thumb Code    34  timer.o(.text)
    SYD_Timer_Init                           0x1000880b   Thumb Code    34  timer.o(.text)
    timer_0_delay_32us                       0x1000882d   Thumb Code    92  timer.o(.text)
    TIMER0_IRQHandler                        0x10008889   Thumb Code    32  timer.o(.text)
    timer_1_enable                           0x100088a9   Thumb Code    96  timer.o(.text)
    timer_1_disable                          0x10008909   Thumb Code    48  timer.o(.text)
    TIMER1_IRQHandler                        0x10008939   Thumb Code    32  timer.o(.text)
    timer_2_enable                           0x10008959   Thumb Code    96  timer.o(.text)
    timer_1_get                              0x100089b9   Thumb Code    34  timer.o(.text)
    timer_2_get                              0x100089db   Thumb Code    34  timer.o(.text)
    timer_2_disable                          0x100089fd   Thumb Code    48  timer.o(.text)
    TIMER2_IRQHandler                        0x10008a2d   Thumb Code    32  timer.o(.text)
    rtc_get_calendar                         0x10008a89   Thumb Code    40  rtc.o(.text)
    RTC_RUN                                  0x10008ab1   Thumb Code    66  rtc.o(.text)
    rtc_set_compare                          0x10008af3   Thumb Code    68  rtc.o(.text)
    RTC_SET                                  0x10008b37   Thumb Code    84  rtc.o(.text)
    RTC_Refressh                             0x10008b8b   Thumb Code    76  rtc.o(.text)
    RTC_EVT_Creat                            0x10008bd7   Thumb Code    32  rtc.o(.text)
    Min_RTC                                  0x10008bf7   Thumb Code     8  rtc.o(.text)
    rtc_int_disable                          0x10008bff   Thumb Code    24  rtc.o(.text)
    RTC_EVT_Clr                              0x10008cad   Thumb Code    10  rtc.o(.text)
    RTC_EVT_Stop                             0x10008cb7   Thumb Code   112  rtc.o(.text)
    RTC_EVT_Start                            0x10008d27   Thumb Code   146  rtc.o(.text)
    RTC_EVT_whole_minute_setid               0x10008db9   Thumb Code     6  rtc.o(.text)
    RTC_EVT_whole_minute_adj                 0x10008dbf   Thumb Code   132  rtc.o(.text)
    RTC_Get_State                            0x10008e43   Thumb Code    54  rtc.o(.text)
    rtc_start                                0x10008e79   Thumb Code    28  rtc.o(.text)
    rtc_set_interrupt_callback               0x10008e95   Thumb Code     6  rtc.o(.text)
    rtc_int_enable                           0x10008e9b   Thumb Code    22  rtc.o(.text)
    rtc_int_clear                            0x10008eb1   Thumb Code    22  rtc.o(.text)
    rtc_set_calendar                         0x10008ec7   Thumb Code    40  rtc.o(.text)
    rtc_set_prescaler                        0x10008eef   Thumb Code    34  rtc.o(.text)
    rtc_clear                                0x10008f11   Thumb Code    18  rtc.o(.text)
    rtc_stop                                 0x10008f23   Thumb Code    30  rtc.o(.text)
    rtc_init                                 0x10008f41   Thumb Code   126  rtc.o(.text)
    SYD_RTC_Init                             0x10008fbf   Thumb Code    40  rtc.o(.text)
    RTC_IRQHandler                           0x10008fe7   Thumb Code    30  rtc.o(.text)
    rtc_status                               0x10009005   Thumb Code     6  rtc.o(.text)
    rtc_get_compare                          0x1000900b   Thumb Code    52  rtc.o(.text)
    __aeabi_uidiv                            0x10009051   Thumb Code     0  uidiv.o(.text)
    __aeabi_uidivmod                         0x10009051   Thumb Code    44  uidiv.o(.text)
    __aeabi_idiv                             0x1000907d   Thumb Code     0  idiv.o(.text)
    __aeabi_idivmod                          0x1000907d   Thumb Code    40  idiv.o(.text)
    __aeabi_memcpy                           0x100090a5   Thumb Code    36  memcpya.o(.text)
    __aeabi_memcpy4                          0x100090a5   Thumb Code     0  memcpya.o(.text)
    __aeabi_memcpy8                          0x100090a5   Thumb Code     0  memcpya.o(.text)
    __aeabi_memset                           0x100090c9   Thumb Code    14  memseta.o(.text)
    __aeabi_memset4                          0x100090c9   Thumb Code     0  memseta.o(.text)
    __aeabi_memset8                          0x100090c9   Thumb Code     0  memseta.o(.text)
    __aeabi_memclr                           0x100090d7   Thumb Code     4  memseta.o(.text)
    __aeabi_memclr4                          0x100090d7   Thumb Code     0  memseta.o(.text)
    __aeabi_memclr8                          0x100090d7   Thumb Code     0  memseta.o(.text)
    _memset$wrapper                          0x100090db   Thumb Code    18  memseta.o(.text)
    strlen                                   0x100090ed   Thumb Code    14  strlen.o(.text)
    memcmp                                   0x100090fb   Thumb Code    26  memcmp.o(.text)
    strcpy                                   0x10009115   Thumb Code    18  strcpy.o(.text)
    __aeabi_uread4                           0x10009127   Thumb Code    20  uread4.o(.text)
    __rt_uread4                              0x10009127   Thumb Code     0  uread4.o(.text)
    _uread4                                  0x10009127   Thumb Code     0  uread4.o(.text)
    __aeabi_uwrite4                          0x1000913b   Thumb Code    18  uwrite4.o(.text)
    __rt_uwrite4                             0x1000913b   Thumb Code     0  uwrite4.o(.text)
    _uwrite4                                 0x1000913b   Thumb Code     0  uwrite4.o(.text)
    __aeabi_fadd                             0x1000914d   Thumb Code   162  fadd.o(.text)
    __aeabi_fsub                             0x100091ef   Thumb Code     8  fadd.o(.text)
    __aeabi_frsub                            0x100091f7   Thumb Code     8  fadd.o(.text)
    __aeabi_dadd                             0x10009201   Thumb Code   328  dadd.o(.text)
    __aeabi_dsub                             0x10009349   Thumb Code    12  dadd.o(.text)
    __aeabi_drsub                            0x10009355   Thumb Code    12  dadd.o(.text)
    __aeabi_dmul                             0x10009365   Thumb Code   202  dmul.o(.text)
    __aeabi_ddiv                             0x10009435   Thumb Code   234  ddiv.o(.text)
    __aeabi_ui2f                             0x10009525   Thumb Code    14  ffltui.o(.text)
    __aeabi_i2d                              0x10009535   Thumb Code    34  dflti.o(.text)
    __aeabi_ui2d                             0x1000955d   Thumb Code    24  dfltui.o(.text)
    __aeabi_d2uiz                            0x10009579   Thumb Code    50  dfixui.o(.text)
    __aeabi_f2d                              0x100095b5   Thumb Code    40  f2d.o(.text)
    __aeabi_uldivmod                         0x100095dd   Thumb Code    96  uldiv.o(.text)
    __aeabi_llsl                             0x1000963d   Thumb Code    32  llshl.o(.text)
    _ll_shift_l                              0x1000963d   Thumb Code     0  llshl.o(.text)
    __aeabi_llsr                             0x1000965d   Thumb Code    34  llushr.o(.text)
    _ll_ushift_r                             0x1000965d   Thumb Code     0  llushr.o(.text)
    __aeabi_lasr                             0x1000967f   Thumb Code    38  llsshr.o(.text)
    _ll_sshift_r                             0x1000967f   Thumb Code     0  llsshr.o(.text)
    __I$use$fp                               0x100096a5   Thumb Code     0  iusefp.o(.text)
    _float_round                             0x100096a5   Thumb Code    16  fepilogue.o(.text)
    _float_epilogue                          0x100096b5   Thumb Code   114  fepilogue.o(.text)
    _double_round                            0x10009727   Thumb Code    26  depilogue.o(.text)
    _double_epilogue                         0x10009741   Thumb Code   164  depilogue.o(.text)
    __aeabi_d2ulz                            0x100097e5   Thumb Code    54  dfixul.o(.text)
    __aeabi_cdrcmple                         0x10009825   Thumb Code    38  cdrcmple.o(.text)
    __scatterload                            0x1000984d   Thumb Code    28  init.o(.text)
    __scatterload_rt2                        0x1000984d   Thumb Code     0  init.o(.text)
    __decompress                             0x10009871   Thumb Code     0  __dczerorl2.o(.text)
    __decompress1                            0x10009871   Thumb Code    86  __dczerorl2.o(.text)
    __0sprintf                               0x100098c9   Thumb Code    36  printfa.o(i.__0sprintf)
    __1sprintf                               0x100098c9   Thumb Code     0  printfa.o(i.__0sprintf)
    __2sprintf                               0x100098c9   Thumb Code     0  printfa.o(i.__0sprintf)
    __c89sprintf                             0x100098c9   Thumb Code     0  printfa.o(i.__0sprintf)
    sprintf                                  0x100098c9   Thumb Code     0  printfa.o(i.__0sprintf)
    __ARM_clz                                0x100098f1   Thumb Code    46  depilogue.o(i.__ARM_clz)
    __ARM_common_switch8                     0x1000991f   Thumb Code    26  main.o(i.__ARM_common_switch8)
    __scatterload_copy                       0x10009939   Thumb Code    14  handlers.o(i.__scatterload_copy)
    __scatterload_null                       0x10009947   Thumb Code     2  handlers.o(i.__scatterload_null)
    __scatterload_zeroinit                   0x10009949   Thumb Code    14  handlers.o(i.__scatterload_zeroinit)
    adv_chn_to_freq_idx                      0x1000a220   Data           3  main.o(.constdata)
    Region$$Table$$Base                      0x1000a648   Number         0  anon$$obj.o(Region$$Table)
    Region$$Table$$Limit                     0x1000a668   Number         0  anon$$obj.o(Region$$Table)
    queue_msg_hal_array                      0x20003000   Data           8  main.o(.data)
    syd_history_setting_str                  0x20003008   Data           4  app_timer.o(.data)
    connect_flag                             0x2000300e   Data           1  ble.o(.data)
    update_latency_mode                      0x2000300f   Data           1  ble.o(.data)
    latency_state                            0x20003010   Data           1  ble.o(.data)
    ADV_DATA                                 0x20003011   Data          31  ble.o(.data)
    ADV_DATA_SZ                              0x20003030   Data           2  ble.o(.data)
    SCAN_DATA                                0x20003032   Data           1  ble.o(.data)
    SCAN_DATA_SZ                             0x20003034   Data           2  ble.o(.data)
    ota_state                                0x20003040   Data           1  ota.o(.data)
    ota_writecnt                             0x20003041   Data           1  ota.o(.data)
    ota_section_size                         0x20003042   Data           2  ota.o(.data)
    ota_receive_size                         0x20003044   Data           2  ota.o(.data)
    ota_section_check                        0x20003046   Data           2  ota.o(.data)
    ota_receive_check                        0x20003048   Data           2  ota.o(.data)
    ota_section_offset                       0x2000304c   Data           4  ota.o(.data)
    pevt                                     0x20003058   Data           4  ota.o(.data)
    PIN_CONFIG                               0x2000305c   Data           4  gpio.o(.data)
    GPIO_CTRL                                0x20003060   Data           4  gpio.o(.data)
    GPO_CTRL                                 0x20003064   Data           4  gpio.o(.data)
    GPI_CTRL                                 0x20003068   Data           4  gpio.o(.data)
    GPIO_IRQ_CTRL                            0x2000306c   Data           4  gpio.o(.data)
    pxCurrentTCB                             0x200030ac   Data           4  tasks.o(.data)
    SystemCoreClock                          0x2000312c   Data           4  system_armcm0.o(.data)
    ble_rc32k_clk_lpo_ing_flag               0x20003134   Data           1  main.o(.data)
    master_system                            0x20003136   Data           1  main.o(.data)
    p_gett_db_hdr                            0x2000314c   Data           4  main.o(.data)
    Event_Num                                0x20003170   Data           1  timer.o(.data)
    max_trigger_timer                        0x20003178   Data           4  timer.o(.data)
    TIMER_EVT                                0x2000317c   Data           4  timer.o(.data)
    Timer_Evt_Trigger_Loop_now               0x20003180   Data           4  timer.o(.data)
    sys_timer_max_p                          0x20003184   Data           4  timer.o(.data)
    sys_timer_current_p                      0x20003188   Data           4  timer.o(.data)
    RTC_Event_Num                            0x2000318d   Data           1  rtc.o(.data)
    max_trigger_rtc                          0x20003190   Data           4  rtc.o(.data)
    RTC_EVT                                  0x20003194   Data           4  rtc.o(.data)
    RTC_RTCEVT_Trigger_Loop_now              0x20003198   Data           4  rtc.o(.data)
    RTC_second_now                           0x2000319c   Data           4  rtc.o(.data)
    sys_rtc_max_p                            0x200031a0   Data           4  rtc.o(.data)
    sys_rtc_current_p                        0x200031a4   Data           4  rtc.o(.data)
    RTCEVT_whole_minute_id                   0x200031a8   Data           4  rtc.o(.data)
    RTC_second_last                          0x200031b0   Data           4  rtc.o(.data)
    syd_sysTimer                             0x200031b4   Data          48  app_timer.o(.bss)
    syd_rtc                                  0x200031e4   Data          48  app_timer.o(.bss)
    ota_w                                    0x20003214   Data          40  ota.o(.bss)
    xQueueRegistry                           0x2000323c   Data          80  queue.o(.bss)
    _SEGGER_RTT                              0x200053e0   Data          72  segger_rtt.o(.bss)
    __initial_sp                             0x200064b0   Data           0  startup_armcm0.o(STACK)



==============================================================================

Memory Map of the image

  Image Entry point : 0x100000c1

  Load Region LR_IROM1 (Base: 0x10000000, Size: 0x0000a81c, Max: 0x0003f000, ABSOLUTE, COMPRESSED[0x0000a71c])

    Execution Region ER_IROM1 (Exec base: 0x10000000, Load base: 0x10000000, Size: 0x0000a668, Max: 0x0003f000, ABSOLUTE)

    Exec Addr    Load Addr    Size         Type   Attr      Idx    E Section Name        Object

    0x10000000   0x10000000   0x000000c0   Data   RO          643    RESET               startup_armcm0.o
    0x100000c0   0x100000c0   0x00000000   Code   RO          881  * .ARM.Collect$$$$00000000  mc_p.l(entry.o)
    0x100000c0   0x100000c0   0x00000004   Code   RO         1190    .ARM.Collect$$$$00000001  mc_p.l(entry2.o)
    0x100000c4   0x100000c4   0x00000004   Code   RO         1193    .ARM.Collect$$$$00000004  mc_p.l(entry5.o)
    0x100000c8   0x100000c8   0x00000000   Code   RO         1195    .ARM.Collect$$$$00000008  mc_p.l(entry7b.o)
    0x100000c8   0x100000c8   0x00000000   Code   RO         1197    .ARM.Collect$$$$0000000A  mc_p.l(entry8b.o)
    0x100000c8   0x100000c8   0x00000008   Code   RO         1198    .ARM.Collect$$$$0000000B  mc_p.l(entry9a.o)
    0x100000d0   0x100000d0   0x00000000   Code   RO         1200    .ARM.Collect$$$$0000000D  mc_p.l(entry10a.o)
    0x100000d0   0x100000d0   0x00000000   Code   RO         1202    .ARM.Collect$$$$0000000F  mc_p.l(entry11a.o)
    0x100000d0   0x100000d0   0x00000004   Code   RO         1191    .ARM.Collect$$$$00002712  mc_p.l(entry2.o)
    0x100000d4   0x100000d4   0x00000070   Code   RO          511    .emb_text           port.o
    0x10000144   0x10000144   0x000003f4   Code   RO            3    .text               main.o
    0x10000538   0x10000538   0x000000b4   Code   RO          132    .text               app_timer.o
    0x100005ec   0x100005ec   0x000000e0   Code   RO          167    .text               softtimer_task.o
    0x100006cc   0x100006cc   0x000008ec   Code   RO          194    .text               ble.o
    0x10000fb8   0x10000fb8   0x000006f0   Code   RO          238    .text               ota.o
    0x100016a8   0x100016a8   0x000005f0   Code   RO          299    .text               gpio.o
    0x10001c98   0x10001c98   0x000004f8   Code   RO          334    .text               uart.o
    0x10002190   0x10002190   0x00000096   Code   RO          418    .text               list.o
    0x10002226   0x10002226   0x00000002   PAD
    0x10002228   0x10002228   0x00000b34   Code   RO          430    .text               queue.o
    0x10002d5c   0x10002d5c   0x000013c8   Code   RO          453    .text               tasks.o
    0x10004124   0x10004124   0x00000544   Code   RO          481    .text               timers.o
    0x10004668   0x10004668   0x0000026c   Code   RO          496    .text               heap_4.o
    0x100048d4   0x100048d4   0x00000114   Code   RO          514    .text               port.o
    0x100049e8   0x100049e8   0x00000b2c   Code   RO          539    .text               segger_rtt.o
    0x10005514   0x10005514   0x000005a4   Code   RO          569    .text               segger_rtt_printf.o
    0x10005ab8   0x10005ab8   0x0000001c   Code   RO          644    .text               startup_armcm0.o
    0x10005ad4   0x10005ad4   0x00000018   Code   RO          650    .text               system_armcm0.o
    0x10005aec   0x10005aec   0x00002968   Code   RO          676    .text               syd8811_ble_lib.lib(main.o)
    0x10008454   0x10008454   0x00000634   Code   RO          778    .text               Syd8811_softtimer_lib.lib(timer.o)
    0x10008a88   0x10008a88   0x000005c8   Code   RO          846    .text               Syd8811_softtimer_lib.lib(rtc.o)
    0x10009050   0x10009050   0x0000002c   Code   RO          889    .text               mc_p.l(uidiv.o)
    0x1000907c   0x1000907c   0x00000028   Code   RO          891    .text               mc_p.l(idiv.o)
    0x100090a4   0x100090a4   0x00000024   Code   RO          893    .text               mc_p.l(memcpya.o)
    0x100090c8   0x100090c8   0x00000024   Code   RO          895    .text               mc_p.l(memseta.o)
    0x100090ec   0x100090ec   0x0000000e   Code   RO          897    .text               mc_p.l(strlen.o)
    0x100090fa   0x100090fa   0x0000001a   Code   RO          901    .text               mc_p.l(memcmp.o)
    0x10009114   0x10009114   0x00000012   Code   RO          903    .text               mc_p.l(strcpy.o)
    0x10009126   0x10009126   0x00000014   Code   RO         1168    .text               mc_p.l(uread4.o)
    0x1000913a   0x1000913a   0x00000012   Code   RO         1170    .text               mc_p.l(uwrite4.o)
    0x1000914c   0x1000914c   0x000000b2   Code   RO         1172    .text               mf_p.l(fadd.o)
    0x100091fe   0x100091fe   0x00000002   PAD
    0x10009200   0x10009200   0x00000164   Code   RO         1174    .text               mf_p.l(dadd.o)
    0x10009364   0x10009364   0x000000d0   Code   RO         1176    .text               mf_p.l(dmul.o)
    0x10009434   0x10009434   0x000000f0   Code   RO         1178    .text               mf_p.l(ddiv.o)
    0x10009524   0x10009524   0x0000000e   Code   RO         1180    .text               mf_p.l(ffltui.o)
    0x10009532   0x10009532   0x00000002   PAD
    0x10009534   0x10009534   0x00000028   Code   RO         1182    .text               mf_p.l(dflti.o)
    0x1000955c   0x1000955c   0x0000001c   Code   RO         1184    .text               mf_p.l(dfltui.o)
    0x10009578   0x10009578   0x0000003c   Code   RO         1186    .text               mf_p.l(dfixui.o)
    0x100095b4   0x100095b4   0x00000028   Code   RO         1188    .text               mf_p.l(f2d.o)
    0x100095dc   0x100095dc   0x00000060   Code   RO         1205    .text               mc_p.l(uldiv.o)
    0x1000963c   0x1000963c   0x00000020   Code   RO         1207    .text               mc_p.l(llshl.o)
    0x1000965c   0x1000965c   0x00000022   Code   RO         1209    .text               mc_p.l(llushr.o)
    0x1000967e   0x1000967e   0x00000026   Code   RO         1211    .text               mc_p.l(llsshr.o)
    0x100096a4   0x100096a4   0x00000000   Code   RO         1213    .text               mc_p.l(iusefp.o)
    0x100096a4   0x100096a4   0x00000082   Code   RO         1215    .text               mf_p.l(fepilogue.o)
    0x10009726   0x10009726   0x000000be   Code   RO         1217    .text               mf_p.l(depilogue.o)
    0x100097e4   0x100097e4   0x00000040   Code   RO         1221    .text               mf_p.l(dfixul.o)
    0x10009824   0x10009824   0x00000028   Code   RO         1223    .text               mf_p.l(cdrcmple.o)
    0x1000984c   0x1000984c   0x00000024   Code   RO         1225    .text               mc_p.l(init.o)
    0x10009870   0x10009870   0x00000056   Code   RO         1234    .text               mc_p.l(__dczerorl2.o)
    0x100098c6   0x100098c6   0x00000002   PAD
    0x100098c8   0x100098c8   0x00000028   Code   RO         1142    i.__0sprintf        mc_p.l(printfa.o)
    0x100098f0   0x100098f0   0x0000002e   Code   RO         1219    i.__ARM_clz         mf_p.l(depilogue.o)
    0x1000991e   0x1000991e   0x0000001a   Code   RO          697    i.__ARM_common_switch8  syd8811_ble_lib.lib(main.o)
    0x10009938   0x10009938   0x0000000e   Code   RO         1228    i.__scatterload_copy  mc_p.l(handlers.o)
    0x10009946   0x10009946   0x00000002   Code   RO         1229    i.__scatterload_null  mc_p.l(handlers.o)
    0x10009948   0x10009948   0x0000000e   Code   RO         1230    i.__scatterload_zeroinit  mc_p.l(handlers.o)
    0x10009956   0x10009956   0x00000002   PAD
    0x10009958   0x10009958   0x00000174   Code   RO         1147    i._fp_digits        mc_p.l(printfa.o)
    0x10009acc   0x10009acc   0x000006ec   Code   RO         1148    i._printf_core      mc_p.l(printfa.o)
    0x1000a1b8   0x1000a1b8   0x00000020   Code   RO         1149    i._printf_post_padding  mc_p.l(printfa.o)
    0x1000a1d8   0x1000a1d8   0x0000002c   Code   RO         1150    i._printf_pre_padding  mc_p.l(printfa.o)
    0x1000a204   0x1000a204   0x0000000a   Code   RO         1152    i._sputc            mc_p.l(printfa.o)
    0x1000a20e   0x1000a20e   0x00000010   Data   RO          570    .constdata          segger_rtt_printf.o
    0x1000a21e   0x1000a21e   0x00000002   PAD
    0x1000a220   0x1000a220   0x00000428   Data   RO          678    .constdata          syd8811_ble_lib.lib(main.o)
    0x1000a648   0x1000a648   0x00000020   Data   RO         1227    Region$$Table       anon$$obj.o


    Execution Region RW_IRAM1 (Exec base: 0x20003000, Load base: 0x1000a668, Size: 0x000034b0, Max: 0x00005000, ABSOLUTE, COMPRESSED[0x000000b4])

    Exec Addr    Load Addr    Size         Type   Attr      Idx    E Section Name        Object

    0x20003000   COMPRESSED   0x00000008   Data   RW            4    .data               main.o
    0x20003008   COMPRESSED   0x00000004   Data   RW          134    .data               app_timer.o
    0x2000300c   COMPRESSED   0x00000031   Data   RW          195    .data               ble.o
    0x2000303d   COMPRESSED   0x00000003   PAD
    0x20003040   COMPRESSED   0x0000001c   Data   RW          240    .data               ota.o
    0x2000305c   COMPRESSED   0x00000048   Data   RW          300    .data               gpio.o
    0x200030a4   COMPRESSED   0x00000008   Data   RW          335    .data               uart.o
    0x200030ac   COMPRESSED   0x0000003c   Data   RW          455    .data               tasks.o
    0x200030e8   COMPRESSED   0x00000014   Data   RW          483    .data               timers.o
    0x200030fc   COMPRESSED   0x00000018   Data   RW          498    .data               heap_4.o
    0x20003114   COMPRESSED   0x00000004   Data   RW          515    .data               port.o
    0x20003118   COMPRESSED   0x00000011   Data   RW          541    .data               segger_rtt.o
    0x20003129   COMPRESSED   0x00000003   PAD
    0x2000312c   COMPRESSED   0x00000004   Data   RW          651    .data               system_armcm0.o
    0x20003130   COMPRESSED   0x00000040   Data   RW          679    .data               syd8811_ble_lib.lib(main.o)
    0x20003170   COMPRESSED   0x0000001c   Data   RW          780    .data               Syd8811_softtimer_lib.lib(timer.o)
    0x2000318c   COMPRESSED   0x00000028   Data   RW          847    .data               Syd8811_softtimer_lib.lib(rtc.o)
    0x200031b4        -       0x00000060   Zero   RW          133    .bss                app_timer.o
    0x20003214        -       0x00000028   Zero   RW          239    .bss                ota.o
    0x2000323c        -       0x00000050   Zero   RW          431    .bss                queue.o
    0x2000328c        -       0x0000012c   Zero   RW          454    .bss                tasks.o
    0x200033b8        -       0x00000028   Zero   RW          482    .bss                timers.o
    0x200033e0        -       0x00002000   Zero   RW          497    .bss                heap_4.o
    0x200053e0        -       0x00000458   Zero   RW          540    .bss                segger_rtt.o
    0x20005838        -       0x00000068   Zero   RW          677    .bss                syd8811_ble_lib.lib(main.o)
    0x200058a0        -       0x0000000c   Zero   RW          779    .bss                Syd8811_softtimer_lib.lib(timer.o)
    0x200058ac   COMPRESSED   0x00000004   PAD
    0x200058b0        -       0x00000c00   Zero   RW          641    STACK               startup_armcm0.o


==============================================================================

Image component sizes


      Code (inc. data)   RO Data    RW Data    ZI Data      Debug   Object Name

       180         30          0          4         96       4533   app_timer.o
      2284        610          0         49          0       5075   ble.o
         0          0          0          0          0       6476   croutine.o
         0          0          0          0          0       3992   event_groups.o
      1520         42          0         72          0      52916   gpio.o
       620         26          0         24       8192       3796   heap_4.o
       150          0          0          0          0       1938   list.o
      1012        222          0          8          0      26408   main.o
      1776        432          0         28         40       6005   ota.o
       388         28          0          4          0       3826   port.o
      2868          4          0          0         80      18544   queue.o
      2860         56          0         17       1112      15999   segger_rtt.o
      1444         34         16          0          0       5566   segger_rtt_printf.o
       224         92          0          0          0        592   softtimer_task.o
        28          8        192          0       3072        652   startup_armcm0.o
        24          8          0          4          0        853   system_armcm0.o
      5064        290          0         60        300      23251   tasks.o
      1348         68          0         20         40       8881   timers.o
      1272         28          0          8          0      10952   uart.o

    ----------------------------------------------------------------------
     23064       1978        242        304      12932     200255   Object Totals
         0          0         32          0          0          0   (incl. Generated)
         2          0          2          6          0          0   (incl. Padding)

    ----------------------------------------------------------------------

      Code (inc. data)   RO Data    RW Data    ZI Data      Debug   Library Member Name

      1480         38          0         40          0      17091   rtc.o
      1588         38          0         28         12      45840   timer.o
        86          0          0          0          0          0   __dczerorl2.o
         0          0          0          0          0          0   entry.o
         0          0          0          0          0          0   entry10a.o
         0          0          0          0          0          0   entry11a.o
         8          4          0          0          0          0   entry2.o
         4          0          0          0          0          0   entry5.o
         0          0          0          0          0          0   entry7b.o
         0          0          0          0          0          0   entry8b.o
         8          4          0          0          0          0   entry9a.o
        30          0          0          0          0          0   handlers.o
        40          0          0          0          0         72   idiv.o
        36          8          0          0          0         68   init.o
         0          0          0          0          0          0   iusefp.o
        32          0          0          0          0         68   llshl.o
        38          0          0          0          0         68   llsshr.o
        34          0          0          0          0         68   llushr.o
        26          0          0          0          0         72   memcmp.o
        36          0          0          0          0         60   memcpya.o
        36          0          0          0          0        100   memseta.o
      2270         94          0          0          0        472   printfa.o
        18          0          0          0          0         60   strcpy.o
        14          0          0          0          0         60   strlen.o
        44          0          0          0          0         72   uidiv.o
        96          0          0          0          0         84   uldiv.o
        20          0          0          0          0         60   uread4.o
        18          0          0          0          0         60   uwrite4.o
        40          2          0          0          0         68   cdrcmple.o
       356          4          0          0          0        140   dadd.o
       240          6          0          0          0         84   ddiv.o
       236          0          0          0          0        216   depilogue.o
        60         10          0          0          0         68   dfixui.o
        64         10          0          0          0         68   dfixul.o
        40          6          0          0          0         68   dflti.o
        28          4          0          0          0         68   dfltui.o
       208          6          0          0          0         88   dmul.o
        40          0          0          0          0         60   f2d.o
       178          0          0          0          0        108   fadd.o
       130          0          0          0          0        144   fepilogue.o
        14          0          0          0          0         68   ffltui.o
     10626        506       1064         64        104     113781   main.o

    ----------------------------------------------------------------------
     18230        740       1064        132        120     179404   Library Totals
         8          0          0          0          4          0   (incl. Padding)

    ----------------------------------------------------------------------

      Code (inc. data)   RO Data    RW Data    ZI Data      Debug   Library Name

      3068         76          0         68         12      62931   Syd8811_softtimer_lib.lib
      2894        110          0          0          0       1444   mc_p.l
      1634         48          0          0          0       1248   mf_p.l
     10626        506       1064         64        104     113781   syd8811_ble_lib.lib

    ----------------------------------------------------------------------
     18230        740       1064        132        120     179404   Library Totals

    ----------------------------------------------------------------------

==============================================================================


      Code (inc. data)   RO Data    RW Data    ZI Data      Debug   

     41294       2718       1306        436      13052     376611   Grand Totals
     41294       2718       1306        180      13052     376611   ELF Image Totals (compressed)
     41294       2718       1306        180          0          0   ROM Totals

==============================================================================

    Total RO  Size (Code + RO Data)                42600 (  41.60kB)
    Total RW  Size (RW Data + ZI Data)             13488 (  13.17kB)
    Total ROM Size (Code + RO Data + RW Data)      42780 (  41.78kB)

==============================================================================

