Component: ARM Compiler 5.06 (build 20) Tool: armlink [4d35a3]

==============================================================================

Section Cross References

    main.o(.text) refers to main.o(i.__ARM_common_switch8) for __ARM_common_switch8
    main.o(.text) refers to gpio.o(.text) for GPIO_Set_Output
    main.o(.text) refers to main.o(.text) for SetAdvParams
    main.o(.text) refers to segger_rtt_printf.o(.text) for SEGGER_RTT_printf
    main.o(.text) refers to timer.o(.text) for Timer_Evt_Stop
    main.o(.text) refers to uread4.o(.text) for __aeabi_uread4
    main.o(.text) refers to memcpya.o(.text) for __aeabi_memcpy
    main.o(.text) refers to ota.o(.text) for ota_rsp
    main.o(.text) refers to gpio.o(.data) for PIN_CONFIG
    main.o(.text) refers to main.o(.data) for .data
    main.o(.text) refers to main.o(.bss) for .bss
    main.o(.text) refers to delay.o(.text) for delay_ms
    main.o(.text) refers to segger_rtt.o(.text) for SEGGER_RTT_Init
    main.o(.text) refers to timer_handler.o(.text) for Timer_Evt_List
    main.o(.text) refers to rtc.o(.text) for SYD_RTC_Init
    main.o(.text) refers to rtc_handler.o(.text) for RTC_Evt_List
    main.o(.text) refers to uart.o(.text) for uart_0_init
    main.o(.text) refers to uart_protocol.o(.text) for uart_cmd
==============================================================================

Removing Unused input sections from the image.

    Removing main.o(.rev16_text), (4 bytes).
    Removing main.o(.revsh_text), (4 bytes).
    Removing uart_protocol.o(.rev16_text), (4 bytes).
    Removing uart_protocol.o(.revsh_text), (4 bytes).
    Removing delay.o(.rev16_text), (4 bytes).
    Removing delay.o(.revsh_text), (4 bytes).
    Removing delay.o(.text), (24 bytes).
    Removing ota.o(.rev16_text), (4 bytes).
    Removing ota.o(.revsh_text), (4 bytes).
    Removing gpio.o(.rev16_text), (4 bytes).
    Removing gpio.o(.revsh_text), (4 bytes).
    Removing gpio.o(.text), (36 bytes).
    Removing gpio.o(.text), (52 bytes).
    Removing gpio.o(.text), (52 bytes).
    Removing gpio.o(.text), (52 bytes).
    Removing gpio.o(.text), (36 bytes).
    Removing gpio.o(.text), (120 bytes).
    Removing gpio.o(.text), (56 bytes).
==============================================================================

Image Symbol Table

    Local Symbols

    Symbol Name                              Value     Ov Type        Size  Object(Section)

    ../clib/../cmprslib/zerorunl2.c          0x00000000   Number         0  __dczerorl2.o ABSOLUTE
    ../clib/microlib/division.c              0x00000000   Number         0  uidiv.o ABSOLUTE
    ../clib/microlib/division.c              0x00000000   Number         0  uldiv.o ABSOLUTE
    ../clib/microlib/division.c              0x00000000   Number         0  idiv.o ABSOLUTE
    ../clib/microlib/init/entry.s            0x00000000   Number         0  entry10b.o ABSOLUTE
    ../clib/microlib/init/entry.s            0x00000000   Number         0  entry.o ABSOLUTE
    ../clib/microlib/init/entry.s            0x00000000   Number         0  entry2.o ABSOLUTE
    ../clib/microlib/init/entry.s            0x00000000   Number         0  entry7a.o ABSOLUTE
    ../clib/microlib/init/entry.s            0x00000000   Number         0  entry5.o ABSOLUTE
    ../clib/microlib/init/entry.s            0x00000000   Number         0  entry7b.o ABSOLUTE
    ../clib/microlib/init/entry.s            0x00000000   Number         0  entry8a.o ABSOLUTE
    ../clib/microlib/init/entry.s            0x00000000   Number         0  entry11b.o ABSOLUTE
    ../clib/microlib/init/entry.s            0x00000000   Number         0  entry11a.o ABSOLUTE
    ../clib/microlib/init/entry.s            0x00000000   Number         0  entry10a.o ABSOLUTE
    ../clib/microlib/init/entry.s            0x00000000   Number         0  entry9b.o ABSOLUTE
    ../clib/microlib/init/entry.s            0x00000000   Number         0  entry9a.o ABSOLUTE
    ../clib/microlib/init/entry.s            0x00000000   Number         0  entry8b.o ABSOLUTE
    ../clib/microlib/longlong.c              0x00000000   Number         0  llushr.o ABSOLUTE
    ../clib/microlib/longlong.c              0x00000000   Number         0  llsshr.o ABSOLUTE
    ../clib/microlib/longlong.c              0x00000000   Number         0  llshl.o ABSOLUTE
    ../clib/microlib/printf/printf.c         0x00000000   Number         0  printf8.o ABSOLUTE
    ../clib/microlib/printf/printf.c         0x00000000   Number         0  printf5.o ABSOLUTE
    ../clib/microlib/printf/printf.c         0x00000000   Number         0  printf2.o ABSOLUTE
    ../clib/microlib/printf/printf.c         0x00000000   Number         0  printf7.o ABSOLUTE
    ../clib/microlib/printf/printf.c         0x00000000   Number         0  printfa.o ABSOLUTE
    ../clib/microlib/printf/printf.c         0x00000000   Number         0  printf4.o ABSOLUTE
    ../clib/microlib/printf/printf.c         0x00000000   Number         0  printf3.o ABSOLUTE
    ../clib/microlib/printf/printf.c         0x00000000   Number         0  printf6.o ABSOLUTE
    ../clib/microlib/printf/printf.c         0x00000000   Number         0  printf1.o ABSOLUTE
    ../clib/microlib/printf/printf.c         0x00000000   Number         0  printf0.o ABSOLUTE
    ../clib/microlib/printf/printf.c         0x00000000   Number         0  printfb.o ABSOLUTE
    ../clib/microlib/printf/stubs.s          0x00000000   Number         0  stubs.o ABSOLUTE
    ../clib/microlib/stdio/fflush.c          0x00000000   Number         0  fflush.o ABSOLUTE
    ../clib/microlib/stdio/fputc.c           0x00000000   Number         0  fputc.o ABSOLUTE
    ../clib/microlib/stdio/semi.s            0x00000000   Number         0  semi.o ABSOLUTE
    ../clib/microlib/stdio/streams.c         0x00000000   Number         0  stdout.o ABSOLUTE
    ../clib/microlib/string/memcmp.c         0x00000000   Number         0  memcmp.o ABSOLUTE
    ../clib/microlib/string/memcpy.c         0x00000000   Number         0  memcpya.o ABSOLUTE
    ../clib/microlib/string/memcpy.c         0x00000000   Number         0  memcpyb.o ABSOLUTE
    ../clib/microlib/string/memset.c         0x00000000   Number         0  memseta.o ABSOLUTE
    ../clib/microlib/string/strcmp.c         0x00000000   Number         0  strcmp.o ABSOLUTE
    ../clib/microlib/string/strcpy.c         0x00000000   Number         0  strcpy.o ABSOLUTE
    ../clib/microlib/string/strlen.c         0x00000000   Number         0  strlen.o ABSOLUTE
    ../clib/microlib/stubs.s                 0x00000000   Number         0  iusesemip.o ABSOLUTE
    ../clib/microlib/stubs.s                 0x00000000   Number         0  iusefp.o ABSOLUTE
    ../clib/microlib/stubs.s                 0x00000000   Number         0  useno.o ABSOLUTE
    ../clib/microlib/unhosted.c              0x00000000   Number         0  uread4.o ABSOLUTE
    ../clib/microlib/unhosted.c              0x00000000   Number         0  uwrite4.o ABSOLUTE
    ../fplib/microlib/f2d.c                  0x00000000   Number         0  f2d.o ABSOLUTE
    ../fplib/microlib/fpadd.c                0x00000000   Number         0  dadd.o ABSOLUTE
    ../fplib/microlib/fpadd.c                0x00000000   Number         0  fadd.o ABSOLUTE
    ../fplib/microlib/fpdiv.c                0x00000000   Number         0  ddiv.o ABSOLUTE
    ../fplib/microlib/fpepilogue.c           0x00000000   Number         0  depilogue.o ABSOLUTE
    ../fplib/microlib/fpepilogue.c           0x00000000   Number         0  fepilogue.o ABSOLUTE
    ../fplib/microlib/fpfix.c                0x00000000   Number         0  dfixui.o ABSOLUTE
    ../fplib/microlib/fpfix.c                0x00000000   Number         0  dfixul.o ABSOLUTE
    ../fplib/microlib/fpflt.c                0x00000000   Number         0  ffltui.o ABSOLUTE
    ../fplib/microlib/fpflt.c                0x00000000   Number         0  dfltui.o ABSOLUTE
    ../fplib/microlib/fpflt.c                0x00000000   Number         0  dflti.o ABSOLUTE
    ../fplib/microlib/fpmul.c                0x00000000   Number         0  dmul.o ABSOLUTE
    ..\..\..\Driver\delay.c                  0x00000000   Number         0  delay.o ABSOLUTE
    ..\..\..\Driver\gpio.c                   0x00000000   Number         0  gpio.o ABSOLUTE
    ..\..\..\Rtt\SEGGER_RTT.c                0x00000000   Number         0  segger_rtt.o ABSOLUTE
    ..\..\..\Rtt\SEGGER_RTT_Syscalls_KEIL.c  0x00000000   Number         0  segger_rtt_syscalls_keil.o ABSOLUTE
    ..\..\..\Rtt\SEGGER_RTT_printf.c         0x00000000   Number         0  segger_rtt_printf.o ABSOLUTE
    ..\..\..\ble\ota.c                       0x00000000   Number         0  ota.o ABSOLUTE
    ..\\..\\..\\Driver\\delay.c              0x00000000   Number         0  delay.o ABSOLUTE
    ..\\..\\..\\Driver\\gpio.c               0x00000000   Number         0  gpio.o ABSOLUTE
    ..\\..\\..\\Rtt\\SEGGER_RTT.c            0x00000000   Number         0  segger_rtt.o ABSOLUTE
    ..\\..\\..\\Rtt\\SEGGER_RTT_Syscalls_KEIL.c 0x00000000   Number         0  segger_rtt_syscalls_keil.o ABSOLUTE
    ..\\..\\..\\Rtt\\SEGGER_RTT_printf.c     0x00000000   Number         0  segger_rtt_printf.o ABSOLUTE
    ..\\..\\..\\ble\\ota.c                   0x00000000   Number         0  ota.o ABSOLUTE
    ..\\main.c                               0x00000000   Number         0  main.o ABSOLUTE
    ..\\rtc_handler.c                        0x00000000   Number         0  rtc_handler.o ABSOLUTE
    ..\\timer_handler.c                      0x00000000   Number         0  timer_handler.o ABSOLUTE
    ..\\uart.c                               0x00000000   Number         0  uart.o ABSOLUTE
    ..\\uart_protocol.c                      0x00000000   Number         0  uart_protocol.o ABSOLUTE
    ..\main.c                                0x00000000   Number         0  main.o ABSOLUTE
    ..\rtc_handler.c                         0x00000000   Number         0  rtc_handler.o ABSOLUTE
    ..\timer_handler.c                       0x00000000   Number         0  timer_handler.o ABSOLUTE
    ..\uart.c                                0x00000000   Number         0  uart.o ABSOLUTE
    ..\uart_protocol.c                       0x00000000   Number         0  uart_protocol.o ABSOLUTE
    Driver\\rtc.c                            0x00000000   Number         0  rtc.o ABSOLUTE
    Driver\\timer.c                          0x00000000   Number         0  timer.o ABSOLUTE
    Driver\rtc.c                             0x00000000   Number         0  rtc.o ABSOLUTE
    Driver\timer.c                           0x00000000   Number         0  timer.o ABSOLUTE
    Main\\main.c                             0x00000000   Number         0  main.o ABSOLUTE
    Main\main.c                              0x00000000   Number         0  main.o ABSOLUTE
    RTE\Device\ARMCM0\startup_ARMCM0.s       0x00000000   Number         0  startup_armcm0.o ABSOLUTE
    RTE\Device\ARMCM0\system_ARMCM0.c        0x00000000   Number         0  system_armcm0.o ABSOLUTE
    RTE\\Device\\ARMCM0\\system_ARMCM0.c     0x00000000   Number         0  system_armcm0.o ABSOLUTE
    cdrcmple.s                               0x00000000   Number         0  cdrcmple.o ABSOLUTE
    dc.s                                     0x00000000   Number         0  dc.o ABSOLUTE
    handlers.s                               0x00000000   Number         0  handlers.o ABSOLUTE
    init.s                                   0x00000000   Number         0  init.o ABSOLUTE
    RESET                                    0x10000000   Section      192  startup_armcm0.o(RESET)
    .ARM.Collect$$$$00000000                 0x100000c0   Section        0  entry.o(.ARM.Collect$$$$00000000)
    .ARM.Collect$$$$00000001                 0x100000c0   Section        4  entry2.o(.ARM.Collect$$$$00000001)
    .ARM.Collect$$$$00000004                 0x100000c4   Section        4  entry5.o(.ARM.Collect$$$$00000004)
    .ARM.Collect$$$$00000008                 0x100000c8   Section        0  entry7b.o(.ARM.Collect$$$$00000008)
    .ARM.Collect$$$$0000000A                 0x100000c8   Section        0  entry8b.o(.ARM.Collect$$$$0000000A)
    .ARM.Collect$$$$0000000B                 0x100000c8   Section        8  entry9a.o(.ARM.Collect$$$$0000000B)
    .ARM.Collect$$$$0000000D                 0x100000d0   Section        0  entry10a.o(.ARM.Collect$$$$0000000D)
    .ARM.Collect$$$$0000000F                 0x100000d0   Section        0  entry11a.o(.ARM.Collect$$$$0000000F)
    .ARM.Collect$$$$00002712                 0x100000d0   Section        4  entry2.o(.ARM.Collect$$$$00002712)
    __lit__00000000                          0x100000d0   Data           4  entry2.o(.ARM.Collect$$$$00002712)
    .text                                    0x100000d4   Section        0  main.o(.text)
    setup_adv_data                           0x10000159   Thumb Code   100  main.o(.text)
    timer_1_callback                         0x1000025f   Thumb Code    36  main.o(.text)
    send_to_master                           0x10000283   Thumb Code   176  main.o(.text)
    ble_gatt_write                           0x10000781   Thumb Code    88  main.o(.text)
    sendToUart                               0x100007d9   Thumb Code    52  main.o(.text)
    ble_init                                 0x1000080d   Thumb Code   116  main.o(.text)
    .text                                    0x100009f8   Section        0  uart_protocol.o(.text)
    .text                                    0x10000a54   Section        0  delay.o(.text)
    .text                                    0x10000a74   Section        0  ota.o(.text)
    EvtCommandComplete                       0x10000a75   Thumb Code    24  ota.o(.text)
    Cmd4KSETTINGWrite                        0x10000ce9   Thumb Code    78  ota.o(.text)
    CmdFwWriteStart                          0x10000d37   Thumb Code    30  ota.o(.text)
    CmdFwUpgradev20                          0x10000d55   Thumb Code   110  ota.o(.text)
    CmdFlashdataUpgradev30                   0x10000dc3   Thumb Code    80  ota.o(.text)
    .text                                    0x10000f84   Section        0  gpio.o(.text)
    .text                                    0x10001238   Section        0  uart.o(.text)
    __NVIC_EnableIRQ                         0x10001371   Thumb Code    18  uart.o(.text)
    .text                                    0x10001390   Section        0  timer_handler.o(.text)
    .text                                    0x100013dc   Section        0  rtc_handler.o(.text)
    .text                                    0x10001428   Section        0  segger_rtt.o(.text)
    _DoInit                                  0x10001429   Thumb Code    74  segger_rtt.o(.text)
    _WriteBlocking                           0x10001473   Thumb Code    96  segger_rtt.o(.text)
    _WriteNoCheck                            0x100014d3   Thumb Code    60  segger_rtt.o(.text)
    _GetAvailWriteSpace                      0x10001597   Thumb Code    22  segger_rtt.o(.text)
    .text                                    0x100015cc   Section        0  segger_rtt_printf.o(.text)
    _StoreChar                               0x100015cd   Thumb Code    62  segger_rtt_printf.o(.text)
    _PrintUnsigned                           0x1000160b   Thumb Code   210  segger_rtt_printf.o(.text)
    _PrintInt                                0x1000190d   Thumb Code   200  segger_rtt_printf.o(.text)
    .text                                    0x100019f4   Section       28  startup_armcm0.o(.text)
    .text                                    0x10001a10   Section        0  system_armcm0.o(.text)
    .text                                    0x10001a20   Section        0  main.o(.text)
    _LCDisConnect                            0x10001a21   Thumb Code    46  main.o(.text)
    _LCTimer_Handler                         0x10001a4f   Thumb Code   248  main.o(.text)
    _LCRxPkt_Handler                         0x10001b9b   Thumb Code   294  main.o(.text)
    _LCTxPkt_Handler                         0x10001cc1   Thumb Code   380  main.o(.text)
    _LLENCReq                                0x100025a7   Thumb Code   286  main.o(.text)
    _GAPStartAdv                             0x10002c07   Thumb Code   558  main.o(.text)
    WaitLLCOverSlpth                         0x10004033   Thumb Code    38  main.o(.text)
    _BBRXFIFORead                            0x10004059   Thumb Code   172  main.o(.text)
    _rom_rx_sweyntooth_protect               0x10004105   Thumb Code   150  main.o(.text)
    STKSetRand                               0x1000419b   Thumb Code    30  main.o(.text)
    AttWriteFlash                            0x100041b9   Thumb Code   110  main.o(.text)
    GetOverSlpth                             0x10004227   Thumb Code    26  main.o(.text)
    .text                                    0x10004250   Section        0  timer.o(.text)
    Timer_Evt_Trigger                        0x10004339   Thumb Code   110  timer.o(.text)
    __NVIC_EnableIRQ                         0x10004849   Thumb Code    18  timer.o(.text)
    __NVIC_DisableIRQ                        0x1000485b   Thumb Code    28  timer.o(.text)
    .text                                    0x10004884   Section        0  rtc.o(.text)
    Timer_RTCEVT_Trigger                     0x10004a13   Thumb Code   150  rtc.o(.text)
    .text                                    0x10004e4c   Section        0  uidiv.o(.text)
    .text                                    0x10004e78   Section        0  idiv.o(.text)
    .text                                    0x10004ea0   Section        0  memcpya.o(.text)
    .text                                    0x10004ec4   Section        0  memseta.o(.text)
    .text                                    0x10004ee8   Section        0  memcmp.o(.text)
    .text                                    0x10004f02   Section        0  strcpy.o(.text)
    .text                                    0x10004f14   Section        0  uread4.o(.text)
    .text                                    0x10004f28   Section        0  uwrite4.o(.text)
    .text                                    0x10004f3a   Section        0  fadd.o(.text)
    .text                                    0x10004fec   Section        0  dadd.o(.text)
    .text                                    0x10005150   Section        0  dmul.o(.text)
    .text                                    0x10005220   Section        0  ddiv.o(.text)
    .text                                    0x10005310   Section        0  ffltui.o(.text)
    .text                                    0x10005320   Section        0  dflti.o(.text)
    .text                                    0x10005348   Section        0  dfltui.o(.text)
    .text                                    0x10005364   Section        0  dfixui.o(.text)
    .text                                    0x100053a0   Section        0  f2d.o(.text)
    .text                                    0x100053c8   Section        0  uldiv.o(.text)
    .text                                    0x10005428   Section        0  llshl.o(.text)
    .text                                    0x10005448   Section        0  llushr.o(.text)
    .text                                    0x1000546a   Section        0  llsshr.o(.text)
    .text                                    0x10005490   Section        0  iusefp.o(.text)
    .text                                    0x10005490   Section        0  fepilogue.o(.text)
    .text                                    0x10005512   Section        0  depilogue.o(.text)
    .text                                    0x100055d0   Section        0  dfixul.o(.text)
    .text                                    0x10005610   Section       40  cdrcmple.o(.text)
    .text                                    0x10005638   Section       36  init.o(.text)
    .text                                    0x1000565c   Section        0  __dczerorl2.o(.text)
    i.__0sprintf                             0x100056b4   Section        0  printfa.o(i.__0sprintf)
    i.__ARM_clz                              0x100056dc   Section        0  depilogue.o(i.__ARM_clz)
    i.__ARM_common_switch8                   0x1000570a   Section        0  main.o(i.__ARM_common_switch8)
    i.__scatterload_copy                     0x10005724   Section       14  handlers.o(i.__scatterload_copy)
    i.__scatterload_null                     0x10005732   Section        2  handlers.o(i.__scatterload_null)
    i.__scatterload_zeroinit                 0x10005734   Section       14  handlers.o(i.__scatterload_zeroinit)
    i._fp_digits                             0x10005744   Section        0  printfa.o(i._fp_digits)
    _fp_digits                               0x10005745   Thumb Code   316  printfa.o(i._fp_digits)
    i._printf_core                           0x1000589c   Section        0  printfa.o(i._printf_core)
    _printf_core                             0x1000589d   Thumb Code  1754  printfa.o(i._printf_core)
    i._printf_post_padding                   0x10005f88   Section        0  printfa.o(i._printf_post_padding)
    _printf_post_padding                     0x10005f89   Thumb Code    32  printfa.o(i._printf_post_padding)
    i._printf_pre_padding                    0x10005fa8   Section        0  printfa.o(i._printf_pre_padding)
    _printf_pre_padding                      0x10005fa9   Thumb Code    44  printfa.o(i._printf_pre_padding)
    i._sputc                                 0x10005fd4   Section        0  printfa.o(i._sputc)
    _sputc                                   0x10005fd5   Thumb Code    10  printfa.o(i._sputc)
    .constdata                               0x10005fde   Section       16  segger_rtt_printf.o(.constdata)
    _aV2C                                    0x10005fde   Data          16  segger_rtt_printf.o(.constdata)
    .constdata                               0x10005fee   Section       40  main.o(.constdata)
    _ll_packet_length                        0x10005ff1   Data          15  main.o(.constdata)
    _smp_packet_lenght                       0x10006000   Data          22  main.o(.constdata)
    .data                                    0x20003000   Section       59  main.o(.data)
    latency_state                            0x20003001   Data           1  main.o(.data)
    start_tx                                 0x20003003   Data           1  main.o(.data)
    uart_delay_cnt                           0x20003004   Data           2  main.o(.data)
    g_report                                 0x20003008   Data           4  main.o(.data)
    .data                                    0x2000303c   Section       28  ota.o(.data)
    EvtBuf                                   0x20003050   Data           8  ota.o(.data)
    .data                                    0x20003058   Section       72  gpio.o(.data)
    gpio_callback                            0x2000306c   Data           4  gpio.o(.data)
    pinmuxtab48                              0x20003070   Data          24  gpio.o(.data)
    pinmuxtab32                              0x20003088   Data          24  gpio.o(.data)
    .data                                    0x200030a0   Section        8  uart.o(.data)
    UART_0_CTRL                              0x200030a0   Data           4  uart.o(.data)
    UART_1_CTRL                              0x200030a4   Data           4  uart.o(.data)
    .data                                    0x200030a8   Section        4  rtc_handler.o(.data)
    .data                                    0x200030ac   Section        4  system_armcm0.o(.data)
    .data                                    0x200030b0   Section       64  main.o(.data)
    syd_confirm                              0x200030b0   Data           1  main.o(.data)
    ww_minus_cnt                             0x200030b1   Data           1  main.o(.data)
    ext_uart_en                              0x200030b2   Data           1  main.o(.data)
    get_bond_device_idx                      0x200030b3   Data           1  main.o(.data)
    _valid_l2cap_lenght                      0x200030b5   Data           1  main.o(.data)
    rssi_rx                                  0x200030b7   Data           1  main.o(.data)
    p_flash_hdr                              0x200030b8   Data           4  main.o(.data)
    p_lclink                                 0x200030bc   Data           4  main.o(.data)
    p_txpdu                                  0x200030c0   Data           4  main.o(.data)
    p_rxbuf                                  0x200030c4   Data           4  main.o(.data)
    p_flash                                  0x200030c8   Data           4  main.o(.data)
    p_dump_key                               0x200030d0   Data           4  main.o(.data)
    EFUSE_CTRL                               0x200030d4   Data           4  main.o(.data)
    BB_CTRL                                  0x200030d8   Data           4  main.o(.data)
    PW_CTRL                                  0x200030dc   Data           4  main.o(.data)
    PIN_CONFIG                               0x200030e0   Data           4  main.o(.data)
    CONFIG_FLASH_SIZE                        0x200030e4   Data           4  main.o(.data)
    g_evt                                    0x200030e8   Data           8  main.o(.data)
    .data                                    0x200030f0   Section       28  timer.o(.data)
    TIMER_CTRL                               0x200030f4   Data           4  timer.o(.data)
    .data                                    0x2000310c   Section       40  rtc.o(.data)
    enabled                                  0x2000310c   Data           1  rtc.o(.data)
    irq_cb                                   0x2000312c   Data           4  rtc.o(.data)
    .bss                                     0x20003134   Section     2192  main.o(.bss)
    .bss                                     0x200039c4   Section       40  ota.o(.bss)
    .bss                                     0x200039ec   Section       48  timer_handler.o(.bss)
    .bss                                     0x20003a1c   Section       48  rtc_handler.o(.bss)
    .bss                                     0x20003a4c   Section     1112  segger_rtt.o(.bss)
    _acUpBuffer                              0x20003a94   Data        1024  segger_rtt.o(.bss)
    _acDownBuffer                            0x20003e94   Data          16  segger_rtt.o(.bss)
    .bss                                     0x20003ea4   Section      104  main.o(.bss)
    code_hdr                                 0x20003ea4   Data          87  main.o(.bss)
    smart_update_ctrol                       0x20003efb   Data          17  main.o(.bss)
    .bss                                     0x20003f0c   Section       12  timer.o(.bss)
    timer_callback                           0x20003f0c   Data          12  timer.o(.bss)
    STACK                                    0x20003f18   Section     1024  startup_armcm0.o(STACK)

    Global Symbols

    Symbol Name                              Value     Ov Type        Size  Object(Section)

    BuildAttributes$$THM_ISAv3M$S$PE$A:L22$X:L11$S22$IEEE1$IW$USESV6$~STKCKD$USESV7$~SHL$OTIME$ROPI$EBA8$MICROLIB$REQ8$PRES8$EABIv2 0x00000000   Number         0  anon$$obj.o ABSOLUTE
    __ARM_use_no_argv                        0x00000000   Number         0  main.o ABSOLUTE
    __use_no_errno                           0x00000000   Number         0  useno.o ABSOLUTE
    __use_no_exception_handling              0x00000000   Number         0  useno.o ABSOLUTE
    __use_no_fp                              0x00000000   Number         0  useno.o ABSOLUTE
    __use_no_heap                            0x00000000   Number         0  useno.o ABSOLUTE
    __use_no_heap_region                     0x00000000   Number         0  useno.o ABSOLUTE
    __use_no_semihosting                     0x00000000   Number         0  useno.o ABSOLUTE
    __use_no_semihosting_swi                 0x00000000   Number         0  useno.o ABSOLUTE
    __use_no_signal_handling                 0x00000000   Number         0  useno.o ABSOLUTE
    _printf_a                                0x00000000   Number         0  stubs.o ABSOLUTE
    _printf_c                                0x00000000   Number         0  stubs.o ABSOLUTE
    _printf_charcount                        0x00000000   Number         0  stubs.o ABSOLUTE
    _printf_d                                0x00000000   Number         0  stubs.o ABSOLUTE
    _printf_e                                0x00000000   Number         0  stubs.o ABSOLUTE
    _printf_f                                0x00000000   Number         0  stubs.o ABSOLUTE
    _printf_flags                            0x00000000   Number         0  stubs.o ABSOLUTE
    _printf_fp_dec                           0x00000000   Number         0  stubs.o ABSOLUTE
    _printf_fp_hex                           0x00000000   Number         0  stubs.o ABSOLUTE
    _printf_g                                0x00000000   Number         0  stubs.o ABSOLUTE
    _printf_i                                0x00000000   Number         0  stubs.o ABSOLUTE
    _printf_int_dec                          0x00000000   Number         0  stubs.o ABSOLUTE
    _printf_l                                0x00000000   Number         0  stubs.o ABSOLUTE
    _printf_lc                               0x00000000   Number         0  stubs.o ABSOLUTE
    _printf_ll                               0x00000000   Number         0  stubs.o ABSOLUTE
    _printf_lld                              0x00000000   Number         0  stubs.o ABSOLUTE
    _printf_lli                              0x00000000   Number         0  stubs.o ABSOLUTE
    _printf_llo                              0x00000000   Number         0  stubs.o ABSOLUTE
    _printf_llu                              0x00000000   Number         0  stubs.o ABSOLUTE
    _printf_llx                              0x00000000   Number         0  stubs.o ABSOLUTE
    _printf_longlong_dec                     0x00000000   Number         0  stubs.o ABSOLUTE
    _printf_longlong_hex                     0x00000000   Number         0  stubs.o ABSOLUTE
    _printf_longlong_oct                     0x00000000   Number         0  stubs.o ABSOLUTE
    _printf_ls                               0x00000000   Number         0  stubs.o ABSOLUTE
    _printf_mbtowc                           0x00000000   Number         0  stubs.o ABSOLUTE
    _printf_n                                0x00000000   Number         0  stubs.o ABSOLUTE
    _printf_o                                0x00000000   Number         0  stubs.o ABSOLUTE
    _printf_p                                0x00000000   Number         0  stubs.o ABSOLUTE
    _printf_percent                          0x00000000   Number         0  stubs.o ABSOLUTE
    _printf_pre_padding                      0x00000000   Number         0  stubs.o ABSOLUTE
    _printf_return_value                     0x00000000   Number         0  stubs.o ABSOLUTE
    _printf_s                                0x00000000   Number         0  stubs.o ABSOLUTE
    _printf_sizespec                         0x00000000   Number         0  stubs.o ABSOLUTE
    _printf_str                              0x00000000   Number         0  stubs.o ABSOLUTE
    _printf_truncate_signed                  0x00000000   Number         0  stubs.o ABSOLUTE
    _printf_truncate_unsigned                0x00000000   Number         0  stubs.o ABSOLUTE
    _printf_u                                0x00000000   Number         0  stubs.o ABSOLUTE
    _printf_wc                               0x00000000   Number         0  stubs.o ABSOLUTE
    _printf_wctomb                           0x00000000   Number         0  stubs.o ABSOLUTE
    _printf_widthprec                        0x00000000   Number         0  stubs.o ABSOLUTE
    _printf_x                                0x00000000   Number         0  stubs.o ABSOLUTE
    __cpp_initialize__aeabi_                  - Undefined Weak Reference
    __cxa_finalize                            - Undefined Weak Reference
    _clock_init                               - Undefined Weak Reference
    _microlib_exit                            - Undefined Weak Reference
    __Vectors_Size                           0x000000c0   Number         0  startup_armcm0.o ABSOLUTE
    __Vectors                                0x10000000   Data           4  startup_armcm0.o(RESET)
    __Vectors_End                            0x100000c0   Data           0  startup_armcm0.o(RESET)
    __main                                   0x100000c1   Thumb Code     0  entry.o(.ARM.Collect$$$$00000000)
    _main_stk                                0x100000c1   Thumb Code     0  entry2.o(.ARM.Collect$$$$00000001)
    _main_scatterload                        0x100000c5   Thumb Code     0  entry5.o(.ARM.Collect$$$$00000004)
    __main_after_scatterload                 0x100000c9   Thumb Code     0  entry5.o(.ARM.Collect$$$$00000004)
    _main_clock                              0x100000c9   Thumb Code     0  entry7b.o(.ARM.Collect$$$$00000008)
    _main_cpp_init                           0x100000c9   Thumb Code     0  entry8b.o(.ARM.Collect$$$$0000000A)
    _main_init                               0x100000c9   Thumb Code     0  entry9a.o(.ARM.Collect$$$$0000000B)
    __rt_final_cpp                           0x100000d1   Thumb Code     0  entry10a.o(.ARM.Collect$$$$0000000D)
    __rt_final_exit                          0x100000d1   Thumb Code     0  entry11a.o(.ARM.Collect$$$$0000000F)
    gpio_init                                0x100000d5   Thumb Code   132  main.o(.text)
    BLSetConnectionUpdate                    0x100001bd   Thumb Code    78  main.o(.text)
    Connection_latency                       0x1000020b   Thumb Code    38  main.o(.text)
    BLE_SendUARTData                         0x10000231   Thumb Code    46  main.o(.text)
    ble_evt_callback                         0x10000333   Thumb Code   740  main.o(.text)
    ota_manage                               0x10000617   Thumb Code   116  main.o(.text)
    main                                     0x1000068b   Thumb Code   236  main.o(.text)
    HardFault_Handler                        0x10000777   Thumb Code    10  main.o(.text)
    uartRx_callback                          0x100009f9   Thumb Code    58  uart_protocol.o(.text)
    uart_cmd                                 0x10000a33   Thumb Code    26  uart_protocol.o(.text)
    delay_ms                                 0x10000a55   Thumb Code    26  delay.o(.text)
    CmdFwErase                               0x10000a8d   Thumb Code    22  ota.o(.text)
    ota_variable_clear                       0x10000aa3   Thumb Code    24  ota.o(.text)
    ota_cmd                                  0x10000abb   Thumb Code   522  ota.o(.text)
    ota_rsp                                  0x10000cc5   Thumb Code    36  ota.o(.text)
    PIN_Pullup_Enable                        0x10000f85   Thumb Code   102  gpio.o(.text)
    PIN_Pullup_Disable                       0x10000feb   Thumb Code   102  gpio.o(.text)
    GPIO_Set_Output                          0x10001051   Thumb Code    48  gpio.o(.text)
    GPIO_Set_Input                           0x10001081   Thumb Code   172  gpio.o(.text)
    GPIO_Pin_Set                             0x1000112d   Thumb Code    48  gpio.o(.text)
    GPIO_Pin_Clear                           0x1000115d   Thumb Code    48  gpio.o(.text)
    GPIO_Pin_Turn                            0x1000118d   Thumb Code    48  gpio.o(.text)
    GPIO_IRQHandler                          0x100011bd   Thumb Code   116  gpio.o(.text)
    uart_0_init                              0x10001239   Thumb Code   170  uart.o(.text)
    uart_0_write                             0x100012e3   Thumb Code    22  uart.o(.text)
    uart_0_read                              0x100012f9   Thumb Code    52  uart.o(.text)
    UART0_IRQHandler                         0x1000132d   Thumb Code    42  uart.o(.text)
    UART1_IRQHandler                         0x10001357   Thumb Code    26  uart.o(.text)
    Timer_Evt_2s                             0x10001391   Thumb Code    14  timer_handler.o(.text)
    Timer_EVT_1S_OTA                         0x1000139f   Thumb Code    14  timer_handler.o(.text)
    Timer_Evt_List                           0x100013ad   Thumb Code    36  timer_handler.o(.text)
    RTC_Evt_10S                              0x100013dd   Thumb Code    12  rtc_handler.o(.text)
    RTC_Evt_185s                             0x100013e9   Thumb Code    12  rtc_handler.o(.text)
    RTC_Evt_List                             0x100013f5   Thumb Code    40  rtc_handler.o(.text)
    SEGGER_RTT_WriteNoLock                   0x1000150f   Thumb Code    86  segger_rtt.o(.text)
    SEGGER_RTT_Write                         0x10001565   Thumb Code    48  segger_rtt.o(.text)
    SEGGER_RTT_Init                          0x10001595   Thumb Code     2  segger_rtt.o(.text)
    SEGGER_RTT_vprintf                       0x100016dd   Thumb Code   452  segger_rtt_printf.o(.text)
    SEGGER_RTT_printf                        0x100018a1   Thumb Code    24  segger_rtt_printf.o(.text)
    SEGGER_RTT_hexdump                       0x100018b9   Thumb Code    84  segger_rtt_printf.o(.text)
    Reset_Handler                            0x100019f5   Thumb Code     8  startup_armcm0.o(.text)
    NMI_Handler                              0x100019fd   Thumb Code     2  startup_armcm0.o(.text)
    SVC_Handler                              0x10001a01   Thumb Code     2  startup_armcm0.o(.text)
    PendSV_Handler                           0x10001a03   Thumb Code     2  startup_armcm0.o(.text)
    SysTick_Handler                          0x10001a05   Thumb Code     2  startup_armcm0.o(.text)
    CAP_IRQHandler                           0x10001a07   Thumb Code     0  startup_armcm0.o(.text)
    GPADC_IRQHandler                         0x10001a07   Thumb Code     0  startup_armcm0.o(.text)
    HID_IRQHandler                           0x10001a07   Thumb Code     0  startup_armcm0.o(.text)
    HPWM_IRQHandler                          0x10001a07   Thumb Code     0  startup_armcm0.o(.text)
    HTIMER_IRQHandler                        0x10001a07   Thumb Code     0  startup_armcm0.o(.text)
    I2C0_IRQHandler                          0x10001a07   Thumb Code     0  startup_armcm0.o(.text)
    I2C1_IRQHandler                          0x10001a07   Thumb Code     0  startup_armcm0.o(.text)
    IR_Rx_IRQHandler                         0x10001a07   Thumb Code     0  startup_armcm0.o(.text)
    IR_Tx_IRQHandler                         0x10001a07   Thumb Code     0  startup_armcm0.o(.text)
    ISO_7816_IRQHandler                      0x10001a07   Thumb Code     0  startup_armcm0.o(.text)
    LLC2_IRQHandler                          0x10001a07   Thumb Code     0  startup_armcm0.o(.text)
    LLC_IRQHandler                           0x10001a07   Thumb Code     0  startup_armcm0.o(.text)
    SPIM_IRQHandler                          0x10001a07   Thumb Code     0  startup_armcm0.o(.text)
    SW_IRQHandler                            0x10001a07   Thumb Code     0  startup_armcm0.o(.text)
    TIMER3_IRQHandler                        0x10001a07   Thumb Code     0  startup_armcm0.o(.text)
    TOUCH_IRQHandler                         0x10001a07   Thumb Code     0  startup_armcm0.o(.text)
    SystemInit                               0x10001a11   Thumb Code     8  system_armcm0.o(.text)
    LLPingReq                                0x10001b47   Thumb Code    26  main.o(.text)
    LLScanReqHandle                          0x10001b61   Thumb Code    58  main.o(.text)
    _BBGetMask                               0x10001e3d   Thumb Code    92  main.o(.text)
    Lib_LLEvtCallback                        0x10001e99   Thumb Code   186  main.o(.text)
    ConnectionLatencyMode                    0x10001f53   Thumb Code   112  main.o(.text)
    sw_timer_latency_callback                0x10001fc3   Thumb Code    42  main.o(.text)
    TimerStart                               0x10001fed   Thumb Code    10  main.o(.text)
    smart_latency_start                      0x10001ff7   Thumb Code   212  main.o(.text)
    smart_update_latency_updatersp           0x100020cb   Thumb Code   162  main.o(.text)
    BBRFRead                                 0x1000216d   Thumb Code     4  main.o(.text)
    BBRFWrite                                0x10002171   Thumb Code     6  main.o(.text)
    RCOSCCalibration                         0x10002177   Thumb Code    64  main.o(.text)
    RFSleep                                  0x100021b7   Thumb Code    10  main.o(.text)
    UartEn                                   0x100021c1   Thumb Code    32  main.o(.text)
    _SYS32kClockSwitch                       0x100021e1   Thumb Code   270  main.o(.text)
    ClockSwitch                              0x100022ef   Thumb Code    10  main.o(.text)
    RFWakeup                                 0x100022f9   Thumb Code    22  main.o(.text)
    LPOCalibration                           0x1000230f   Thumb Code   254  main.o(.text)
    smart_latency_clear                      0x1000240d   Thumb Code    12  main.o(.text)
    Lib_EvtCallback                          0x10002419   Thumb Code   254  main.o(.text)
    _BMGetNextBondDevice                     0x10002517   Thumb Code   144  main.o(.text)
    __LLVersionIndRxHandler                  0x100026c5   Thumb Code    66  main.o(.text)
    GetMasterSystem                          0x10002707   Thumb Code     6  main.o(.text)
    TimerStop                                0x1000270d   Thumb Code     4  main.o(.text)
    smart_update_retry                       0x10002711   Thumb Code   158  main.o(.text)
    sw_timer_update_callback                 0x100027af   Thumb Code    60  main.o(.text)
    smart_update_latency_updatareq           0x100027eb   Thumb Code   496  main.o(.text)
    Lib_ProtocolHookCallback                 0x100029db   Thumb Code   116  main.o(.text)
    Lib_MiscCallback                         0x10002a4f   Thumb Code    14  main.o(.text)
    BleInit                                  0x10002a5d   Thumb Code   344  main.o(.text)
    DisConnect                               0x10002bb5   Thumb Code    10  main.o(.text)
    SetDevAddr                               0x10002bbf   Thumb Code    12  main.o(.text)
    GetDevAddr                               0x10002bcb   Thumb Code    12  main.o(.text)
    SetLEFeature                             0x10002bd7   Thumb Code    12  main.o(.text)
    SetAdvAccCode                            0x10002be3   Thumb Code    12  main.o(.text)
    SetAdvParams                             0x10002bef   Thumb Code    12  main.o(.text)
    SetAdvData                               0x10002bfb   Thumb Code    12  main.o(.text)
    StartAdv                                 0x10002e35   Thumb Code    10  main.o(.text)
    StopAdv                                  0x10002e3f   Thumb Code    24  main.o(.text)
    StopAdv_Noreset                          0x10002e57   Thumb Code    38  main.o(.text)
    SetScanParams                            0x10002e7d   Thumb Code    10  main.o(.text)
    _BBSetScan                               0x10002e87   Thumb Code    46  main.o(.text)
    _GAPStartScan                            0x10002eb5   Thumb Code   254  main.o(.text)
    StartScan                                0x10002fb3   Thumb Code    10  main.o(.text)
    StopScan                                 0x10002fbd   Thumb Code    10  main.o(.text)
    SetSecParams                             0x10002fc7   Thumb Code    12  main.o(.text)
    SetConnectionUpdate                      0x10002fd3   Thumb Code    12  main.o(.text)
    GetLinkParameters                        0x10002fdf   Thumb Code    12  main.o(.text)
    SetWinWideMinusCnt                       0x10002feb   Thumb Code     8  main.o(.text)
    SetPasskey                               0x10002ff3   Thumb Code    12  main.o(.text)
    SecurityReq                              0x10002fff   Thumb Code    12  main.o(.text)
    SetEvtCallback                           0x1000300b   Thumb Code    54  main.o(.text)
    GetGATTReportHandle                      0x10003041   Thumb Code    10  main.o(.text)
    SetGATTReadRsp                           0x1000304b   Thumb Code    12  main.o(.text)
    CheckFIFOFull                            0x10003057   Thumb Code    18  main.o(.text)
    GATTDataSend                             0x10003069   Thumb Code    86  main.o(.text)
    ATTCSetCallback                          0x100030bf   Thumb Code     4  main.o(.text)
    ATTCMTUReq                               0x100030c3   Thumb Code    24  main.o(.text)
    ATTCFindInfoReq                          0x100030db   Thumb Code    28  main.o(.text)
    ATTCFindByTypeValueReq                   0x100030f7   Thumb Code    40  main.o(.text)
    ATTCReadByTypeReq                        0x1000311f   Thumb Code    36  main.o(.text)
    ATTCReadReq                              0x10003143   Thumb Code    24  main.o(.text)
    ATTCReadBlobReq                          0x1000315b   Thumb Code    28  main.o(.text)
    ATTCReadMultipleReq                      0x10003177   Thumb Code    28  main.o(.text)
    ATTCReadByGroupTypeReq                   0x10003193   Thumb Code    34  main.o(.text)
    ATTCWriteReq                             0x100031b5   Thumb Code    32  main.o(.text)
    ATTCWriteCmdReq                          0x100031d5   Thumb Code    32  main.o(.text)
    ATTCPrepareWriteReq                      0x100031f5   Thumb Code    36  main.o(.text)
    ATTCExecuteWriteReq                      0x10003219   Thumb Code    24  main.o(.text)
    ATTCConfirmation                         0x10003231   Thumb Code    20  main.o(.text)
    _SYSClockSwitch                          0x10003245   Thumb Code    86  main.o(.text)
    MCUClockSwitch                           0x1000329b   Thumb Code     2  main.o(.text)
    GetMCUClock                              0x1000329d   Thumb Code    14  main.o(.text)
    GetClock                                 0x100032ab   Thumb Code    16  main.o(.text)
    WakeupConfig                             0x100032bb   Thumb Code    12  main.o(.text)
    LLSleep                                  0x100032c7   Thumb Code    12  main.o(.text)
    Rand                                     0x100032d3   Thumb Code     4  main.o(.text)
    DelayUS                                  0x100032d7   Thumb Code     4  main.o(.text)
    DelayMS                                  0x100032db   Thumb Code     6  main.o(.text)
    GetCompanyID                             0x100032e1   Thumb Code    18  main.o(.text)
    GetQFNType                               0x100032f3   Thumb Code    20  main.o(.text)
    RFRead                                   0x10003307   Thumb Code    70  main.o(.text)
    RFWrite                                  0x1000334d   Thumb Code     8  main.o(.text)
    lib_check_ble_fsm_state                  0x10003355   Thumb Code    26  main.o(.text)
    SystemSleep                              0x1000336f   Thumb Code    18  main.o(.text)
    SystemPowerDown                          0x10003381   Thumb Code    78  main.o(.text)
    SystemReset                              0x100033cf   Thumb Code    12  main.o(.text)
    CapdetEn                                 0x100033db   Thumb Code    10  main.o(.text)
    PowerDownLPOEn                           0x100033e5   Thumb Code    12  main.o(.text)
    SetBondManagerIndex                      0x100033f1   Thumb Code    12  main.o(.text)
    GetBondDevice                            0x100033fd   Thumb Code     6  main.o(.text)
    AddBondDevice                            0x10003403   Thumb Code    12  main.o(.text)
    DelAllBondDevice                         0x1000340f   Thumb Code    10  main.o(.text)
    DelBondDevice                            0x10003419   Thumb Code    12  main.o(.text)
    ReadProfileData                          0x10003425   Thumb Code     6  main.o(.text)
    WriteProfileData                         0x1000342b   Thumb Code     6  main.o(.text)
    EraseFlashData                           0x10003431   Thumb Code    78  main.o(.text)
    ReadFlashData                            0x1000347f   Thumb Code    56  main.o(.text)
    WriteFlashData                           0x100034b7   Thumb Code    56  main.o(.text)
    CodeErase                                0x100034ef   Thumb Code   100  main.o(.text)
    CodeErase_sector                         0x10003553   Thumb Code    72  main.o(.text)
    _FMCodeWrite                             0x1000359b   Thumb Code    58  main.o(.text)
    CodeWrite                                0x100035d5   Thumb Code    30  main.o(.text)
    CodeUpdate                               0x100035f3   Thumb Code    10  main.o(.text)
    FlashDataUpdate                          0x100035fd   Thumb Code   124  main.o(.text)
    ble_sched_execute                        0x10003679   Thumb Code   150  main.o(.text)
    ble_sched_finish                         0x1000370f   Thumb Code     4  main.o(.text)
    syd52832_chip_confirm                    0x10003713   Thumb Code    26  main.o(.text)
    gap_s_smart_update_latency               0x1000372d   Thumb Code   246  main.o(.text)
    eFuseManual                              0x10003823   Thumb Code    28  main.o(.text)
    GPADC_Manual_Calibration                 0x1000383f   Thumb Code    34  main.o(.text)
    GPADC_Get_Calibration                    0x10003861   Thumb Code    22  main.o(.text)
    GAPGetUartEn                             0x10003877   Thumb Code     6  main.o(.text)
    GAPUartEn                                0x1000387d   Thumb Code     6  main.o(.text)
    GAPBBDelayUS                             0x10003883   Thumb Code     4  main.o(.text)
    GAPBBDelayMS                             0x10003887   Thumb Code     6  main.o(.text)
    GAPGetRFAutoSleep                        0x1000388d   Thumb Code     4  main.o(.text)
    GAPSetRFAutoSleep                        0x10003891   Thumb Code     6  main.o(.text)
    Setting4kUpdate                          0x10003897   Thumb Code   116  main.o(.text)
    SetDevAddr_toflash                       0x1000390b   Thumb Code    72  main.o(.text)
    gap_s_verdor_datas_get                   0x10003953   Thumb Code    28  main.o(.text)
    gap_s_verdor_datas_set                   0x1000396f   Thumb Code    66  main.o(.text)
    gap_s_is_ll_start_enc                    0x100039b1   Thumb Code    26  main.o(.text)
    GAPBBTXFIFO0Write                        0x100039cb   Thumb Code     4  main.o(.text)
    flash_peotect_key_confirm                0x100039cf   Thumb Code   148  main.o(.text)
    swd_lock                                 0x10003a63   Thumb Code    36  main.o(.text)
    flash_data_offect_get                    0x10003a87   Thumb Code    52  main.o(.text)
    EraseCodeB                               0x10003abb   Thumb Code    58  main.o(.text)
    ReadCodeB                                0x10003af5   Thumb Code    64  main.o(.text)
    WriteCodeB                               0x10003b35   Thumb Code    96  main.o(.text)
    ble_SetTxPower                           0x10003b95   Thumb Code   248  main.o(.text)
    flash_data_size_get                      0x10003c8d   Thumb Code    18  main.o(.text)
    code_idx_get                             0x10003c9f   Thumb Code     6  main.o(.text)
    flash_data_size_set                      0x10003ca5   Thumb Code   146  main.o(.text)
    Get_RSSI_Last_RX                         0x10003d37   Thumb Code    82  main.o(.text)
    APP_Read_Attribute_Encrypt               0x10003d89   Thumb Code    62  main.o(.text)
    APP_Write_Attribute_Encrypt              0x10003dc7   Thumb Code    66  main.o(.text)
    APP_Read_Charact_Permission              0x10003e09   Thumb Code    66  main.o(.text)
    smart_latency_target                     0x10003e4b   Thumb Code    30  main.o(.text)
    smp_aes_encrypt                          0x10003e69   Thumb Code     4  main.o(.text)
    gap_get_flash_data_info                  0x10003e6d   Thumb Code    26  main.o(.text)
    gap_set_flash_data_info                  0x10003e87   Thumb Code    70  main.o(.text)
    gap_check_dev_bonded                     0x10003ecd   Thumb Code     6  main.o(.text)
    syd_set_chip_flash_all_size              0x10003ed3   Thumb Code     6  main.o(.text)
    Xtal_trim_get                            0x10003ed9   Thumb Code   106  main.o(.text)
    Xtal_trim_set                            0x10003f43   Thumb Code   164  main.o(.text)
    flash_read_sfdp                          0x10003fe7   Thumb Code    46  main.o(.text)
    syd_read_unique_id                       0x10004015   Thumb Code    30  main.o(.text)
    Timer_Evt_Creat                          0x10004251   Thumb Code    54  timer.o(.text)
    Min                                      0x10004287   Thumb Code     8  timer.o(.text)
    TimerDelayUS                             0x1000428f   Thumb Code    24  timer.o(.text)
    timer_0_disable                          0x100042a7   Thumb Code    48  timer.o(.text)
    timer_0_enable                           0x100042d7   Thumb Code    96  timer.o(.text)
    timer_0_start                            0x10004337   Thumb Code     2  timer.o(.text)
    timer_0_get                              0x100043a7   Thumb Code    92  timer.o(.text)
    Timer_Evt_Stop                           0x10004403   Thumb Code   120  timer.o(.text)
    Timer_Evt_ReSet                          0x1000447b   Thumb Code    64  timer.o(.text)
    Timer_Evt_Clr                            0x100044bb   Thumb Code    10  timer.o(.text)
    Timer_Evt_Start                          0x100044c5   Thumb Code   156  timer.o(.text)
    Timer_Evt_ReStart                        0x10004561   Thumb Code   132  timer.o(.text)
    Timer_Get_State                          0x100045e5   Thumb Code    34  timer.o(.text)
    SYD_Timer_Init                           0x10004607   Thumb Code    34  timer.o(.text)
    timer_0_delay_32us                       0x10004629   Thumb Code    92  timer.o(.text)
    TIMER0_IRQHandler                        0x10004685   Thumb Code    32  timer.o(.text)
    timer_1_enable                           0x100046a5   Thumb Code    96  timer.o(.text)
    timer_1_disable                          0x10004705   Thumb Code    48  timer.o(.text)
    TIMER1_IRQHandler                        0x10004735   Thumb Code    32  timer.o(.text)
    timer_2_enable                           0x10004755   Thumb Code    96  timer.o(.text)
    timer_1_get                              0x100047b5   Thumb Code    34  timer.o(.text)
    timer_2_get                              0x100047d7   Thumb Code    34  timer.o(.text)
    timer_2_disable                          0x100047f9   Thumb Code    48  timer.o(.text)
    TIMER2_IRQHandler                        0x10004829   Thumb Code    32  timer.o(.text)
    rtc_get_calendar                         0x10004885   Thumb Code    40  rtc.o(.text)
    RTC_RUN                                  0x100048ad   Thumb Code    66  rtc.o(.text)
    rtc_set_compare                          0x100048ef   Thumb Code    68  rtc.o(.text)
    RTC_SET                                  0x10004933   Thumb Code    84  rtc.o(.text)
    RTC_Refressh                             0x10004987   Thumb Code    76  rtc.o(.text)
    RTC_EVT_Creat                            0x100049d3   Thumb Code    32  rtc.o(.text)
    Min_RTC                                  0x100049f3   Thumb Code     8  rtc.o(.text)
    rtc_int_disable                          0x100049fb   Thumb Code    24  rtc.o(.text)
    RTC_EVT_Clr                              0x10004aa9   Thumb Code    10  rtc.o(.text)
    RTC_EVT_Stop                             0x10004ab3   Thumb Code   112  rtc.o(.text)
    RTC_EVT_Start                            0x10004b23   Thumb Code   146  rtc.o(.text)
    RTC_EVT_whole_minute_setid               0x10004bb5   Thumb Code     6  rtc.o(.text)
    RTC_EVT_whole_minute_adj                 0x10004bbb   Thumb Code   132  rtc.o(.text)
    RTC_Get_State                            0x10004c3f   Thumb Code    54  rtc.o(.text)
    rtc_start                                0x10004c75   Thumb Code    28  rtc.o(.text)
    rtc_set_interrupt_callback               0x10004c91   Thumb Code     6  rtc.o(.text)
    rtc_int_enable                           0x10004c97   Thumb Code    22  rtc.o(.text)
    rtc_int_clear                            0x10004cad   Thumb Code    22  rtc.o(.text)
    rtc_set_calendar                         0x10004cc3   Thumb Code    40  rtc.o(.text)
    rtc_set_prescaler                        0x10004ceb   Thumb Code    34  rtc.o(.text)
    rtc_clear                                0x10004d0d   Thumb Code    18  rtc.o(.text)
    rtc_stop                                 0x10004d1f   Thumb Code    30  rtc.o(.text)
    rtc_init                                 0x10004d3d   Thumb Code   126  rtc.o(.text)
    SYD_RTC_Init                             0x10004dbb   Thumb Code    40  rtc.o(.text)
    RTC_IRQHandler                           0x10004de3   Thumb Code    30  rtc.o(.text)
    rtc_status                               0x10004e01   Thumb Code     6  rtc.o(.text)
    rtc_get_compare                          0x10004e07   Thumb Code    52  rtc.o(.text)
    __aeabi_uidiv                            0x10004e4d   Thumb Code     0  uidiv.o(.text)
    __aeabi_uidivmod                         0x10004e4d   Thumb Code    44  uidiv.o(.text)
    __aeabi_idiv                             0x10004e79   Thumb Code     0  idiv.o(.text)
    __aeabi_idivmod                          0x10004e79   Thumb Code    40  idiv.o(.text)
    __aeabi_memcpy                           0x10004ea1   Thumb Code    36  memcpya.o(.text)
    __aeabi_memcpy4                          0x10004ea1   Thumb Code     0  memcpya.o(.text)
    __aeabi_memcpy8                          0x10004ea1   Thumb Code     0  memcpya.o(.text)
    __aeabi_memset                           0x10004ec5   Thumb Code    14  memseta.o(.text)
    __aeabi_memset4                          0x10004ec5   Thumb Code     0  memseta.o(.text)
    __aeabi_memset8                          0x10004ec5   Thumb Code     0  memseta.o(.text)
    __aeabi_memclr                           0x10004ed3   Thumb Code     4  memseta.o(.text)
    __aeabi_memclr4                          0x10004ed3   Thumb Code     0  memseta.o(.text)
    __aeabi_memclr8                          0x10004ed3   Thumb Code     0  memseta.o(.text)
    _memset$wrapper                          0x10004ed7   Thumb Code    18  memseta.o(.text)
    memcmp                                   0x10004ee9   Thumb Code    26  memcmp.o(.text)
    strcpy                                   0x10004f03   Thumb Code    18  strcpy.o(.text)
    __aeabi_uread4                           0x10004f15   Thumb Code    20  uread4.o(.text)
    __rt_uread4                              0x10004f15   Thumb Code     0  uread4.o(.text)
    _uread4                                  0x10004f15   Thumb Code     0  uread4.o(.text)
    __aeabi_uwrite4                          0x10004f29   Thumb Code    18  uwrite4.o(.text)
    __rt_uwrite4                             0x10004f29   Thumb Code     0  uwrite4.o(.text)
    _uwrite4                                 0x10004f29   Thumb Code     0  uwrite4.o(.text)
    __aeabi_fadd                             0x10004f3b   Thumb Code   162  fadd.o(.text)
    __aeabi_fsub                             0x10004fdd   Thumb Code     8  fadd.o(.text)
    __aeabi_frsub                            0x10004fe5   Thumb Code     8  fadd.o(.text)
    __aeabi_dadd                             0x10004fed   Thumb Code   328  dadd.o(.text)
    __aeabi_dsub                             0x10005135   Thumb Code    12  dadd.o(.text)
    __aeabi_drsub                            0x10005141   Thumb Code    12  dadd.o(.text)
    __aeabi_dmul                             0x10005151   Thumb Code   202  dmul.o(.text)
    __aeabi_ddiv                             0x10005221   Thumb Code   234  ddiv.o(.text)
    __aeabi_ui2f                             0x10005311   Thumb Code    14  ffltui.o(.text)
    __aeabi_i2d                              0x10005321   Thumb Code    34  dflti.o(.text)
    __aeabi_ui2d                             0x10005349   Thumb Code    24  dfltui.o(.text)
    __aeabi_d2uiz                            0x10005365   Thumb Code    50  dfixui.o(.text)
    __aeabi_f2d                              0x100053a1   Thumb Code    40  f2d.o(.text)
    __aeabi_uldivmod                         0x100053c9   Thumb Code    96  uldiv.o(.text)
    __aeabi_llsl                             0x10005429   Thumb Code    32  llshl.o(.text)
    _ll_shift_l                              0x10005429   Thumb Code     0  llshl.o(.text)
    __aeabi_llsr                             0x10005449   Thumb Code    34  llushr.o(.text)
    _ll_ushift_r                             0x10005449   Thumb Code     0  llushr.o(.text)
    __aeabi_lasr                             0x1000546b   Thumb Code    38  llsshr.o(.text)
    _ll_sshift_r                             0x1000546b   Thumb Code     0  llsshr.o(.text)
    __I$use$fp                               0x10005491   Thumb Code     0  iusefp.o(.text)
    _float_round                             0x10005491   Thumb Code    16  fepilogue.o(.text)
    _float_epilogue                          0x100054a1   Thumb Code   114  fepilogue.o(.text)
    _double_round                            0x10005513   Thumb Code    26  depilogue.o(.text)
    _double_epilogue                         0x1000552d   Thumb Code   164  depilogue.o(.text)
    __aeabi_d2ulz                            0x100055d1   Thumb Code    54  dfixul.o(.text)
    __aeabi_cdrcmple                         0x10005611   Thumb Code    38  cdrcmple.o(.text)
    __scatterload                            0x10005639   Thumb Code    28  init.o(.text)
    __scatterload_rt2                        0x10005639   Thumb Code     0  init.o(.text)
    __decompress                             0x1000565d   Thumb Code     0  __dczerorl2.o(.text)
    __decompress1                            0x1000565d   Thumb Code    86  __dczerorl2.o(.text)
    __0sprintf                               0x100056b5   Thumb Code    36  printfa.o(i.__0sprintf)
    __1sprintf                               0x100056b5   Thumb Code     0  printfa.o(i.__0sprintf)
    __2sprintf                               0x100056b5   Thumb Code     0  printfa.o(i.__0sprintf)
    __c89sprintf                             0x100056b5   Thumb Code     0  printfa.o(i.__0sprintf)
    sprintf                                  0x100056b5   Thumb Code     0  printfa.o(i.__0sprintf)
    __ARM_clz                                0x100056dd   Thumb Code    46  depilogue.o(i.__ARM_clz)
    __ARM_common_switch8                     0x1000570b   Thumb Code    26  main.o(i.__ARM_common_switch8)
    __scatterload_copy                       0x10005725   Thumb Code    14  handlers.o(i.__scatterload_copy)
    __scatterload_null                       0x10005733   Thumb Code     2  handlers.o(i.__scatterload_null)
    __scatterload_zeroinit                   0x10005735   Thumb Code    14  handlers.o(i.__scatterload_zeroinit)
    adv_chn_to_freq_idx                      0x10005fee   Data           3  main.o(.constdata)
    Region$$Table$$Base                      0x10006018   Number         0  anon$$obj.o(Region$$Table)
    Region$$Table$$Limit                     0x10006038   Number         0  anon$$obj.o(Region$$Table)
    connect_flag                             0x20003000   Data           1  main.o(.data)
    update_latency_mode                      0x20003002   Data           1  main.o(.data)
    ADV_DATA                                 0x2000300c   Data          27  main.o(.data)
    SCAN_DATA                                0x20003027   Data          20  main.o(.data)
    ota_state                                0x2000303c   Data           1  ota.o(.data)
    ota_writecnt                             0x2000303d   Data           1  ota.o(.data)
    ota_section_size                         0x2000303e   Data           2  ota.o(.data)
    ota_receive_size                         0x20003040   Data           2  ota.o(.data)
    ota_section_check                        0x20003042   Data           2  ota.o(.data)
    ota_receive_check                        0x20003044   Data           2  ota.o(.data)
    ota_section_offset                       0x20003048   Data           4  ota.o(.data)
    pevt                                     0x2000304c   Data           4  ota.o(.data)
    PIN_CONFIG                               0x20003058   Data           4  gpio.o(.data)
    GPIO_CTRL                                0x2000305c   Data           4  gpio.o(.data)
    GPO_CTRL                                 0x20003060   Data           4  gpio.o(.data)
    GPI_CTRL                                 0x20003064   Data           4  gpio.o(.data)
    GPIO_IRQ_CTRL                            0x20003068   Data           4  gpio.o(.data)
    syd_history_setting_str                  0x200030a8   Data           4  rtc_handler.o(.data)
    SystemCoreClock                          0x200030ac   Data           4  system_armcm0.o(.data)
    ble_rc32k_clk_lpo_ing_flag               0x200030b4   Data           1  main.o(.data)
    master_system                            0x200030b6   Data           1  main.o(.data)
    p_gett_db_hdr                            0x200030cc   Data           4  main.o(.data)
    Event_Num                                0x200030f0   Data           1  timer.o(.data)
    max_trigger_timer                        0x200030f8   Data           4  timer.o(.data)
    TIMER_EVT                                0x200030fc   Data           4  timer.o(.data)
    Timer_Evt_Trigger_Loop_now               0x20003100   Data           4  timer.o(.data)
    sys_timer_max_p                          0x20003104   Data           4  timer.o(.data)
    sys_timer_current_p                      0x20003108   Data           4  timer.o(.data)
    RTC_Event_Num                            0x2000310d   Data           1  rtc.o(.data)
    max_trigger_rtc                          0x20003110   Data           4  rtc.o(.data)
    RTC_EVT                                  0x20003114   Data           4  rtc.o(.data)
    RTC_RTCEVT_Trigger_Loop_now              0x20003118   Data           4  rtc.o(.data)
    RTC_second_now                           0x2000311c   Data           4  rtc.o(.data)
    sys_rtc_max_p                            0x20003120   Data           4  rtc.o(.data)
    sys_rtc_current_p                        0x20003124   Data           4  rtc.o(.data)
    RTCEVT_whole_minute_id                   0x20003128   Data           4  rtc.o(.data)
    RTC_second_last                          0x20003130   Data           4  rtc.o(.data)
    uart_rx_buf                              0x20003134   Data        1032  main.o(.bss)
    uart_tx_buf                              0x2000353c   Data        1160  main.o(.bss)
    ota_w                                    0x200039c4   Data          40  ota.o(.bss)
    syd_sysTimer                             0x200039ec   Data          48  timer_handler.o(.bss)
    syd_rtc                                  0x20003a1c   Data          48  rtc_handler.o(.bss)
    _SEGGER_RTT                              0x20003a4c   Data          72  segger_rtt.o(.bss)
    __initial_sp                             0x20004318   Data           0  startup_armcm0.o(STACK)



==============================================================================

Memory Map of the image

  Image Entry point : 0x100000c1

  Load Region LR_IROM1 (Base: 0x10000000, Size: 0x0000616c, Max: 0x0003f000, ABSOLUTE, COMPRESSED[0x000060d4])

    Execution Region ER_IROM1 (Base: 0x10000000, Size: 0x00006038, Max: 0x0003f000, ABSOLUTE)

    Base Addr    Size         Type   Attr      Idx    E Section Name        Object

    0x10000000   0x000000c0   Data   RO          709    RESET               startup_armcm0.o
    0x100000c0   0x00000000   Code   RO          931  * .ARM.Collect$$$$00000000  mc_p.l(entry.o)
    0x100000c0   0x00000004   Code   RO         1240    .ARM.Collect$$$$00000001  mc_p.l(entry2.o)
    0x100000c4   0x00000004   Code   RO         1243    .ARM.Collect$$$$00000004  mc_p.l(entry5.o)
    0x100000c8   0x00000000   Code   RO         1245    .ARM.Collect$$$$00000008  mc_p.l(entry7b.o)
    0x100000c8   0x00000000   Code   RO         1247    .ARM.Collect$$$$0000000A  mc_p.l(entry8b.o)
    0x100000c8   0x00000008   Code   RO         1248    .ARM.Collect$$$$0000000B  mc_p.l(entry9a.o)
    0x100000d0   0x00000000   Code   RO         1250    .ARM.Collect$$$$0000000D  mc_p.l(entry10a.o)
    0x100000d0   0x00000000   Code   RO         1252    .ARM.Collect$$$$0000000F  mc_p.l(entry11a.o)
    0x100000d0   0x00000004   Code   RO         1241    .ARM.Collect$$$$00002712  mc_p.l(entry2.o)
    0x100000d4   0x00000924   Code   RO            3    .text               main.o
    0x100009f8   0x0000005c   Code   RO          101    .text               uart_protocol.o
    0x10000a54   0x00000020   Code   RO          125    .text               delay.o
    0x10000a74   0x00000510   Code   RO          151    .text               ota.o
    0x10000f84   0x000002b4   Code   RO          194    .text               gpio.o
    0x10001238   0x00000158   Code   RO          270    .text               uart.o
    0x10001390   0x0000004c   Code   RO          337    .text               timer_handler.o
    0x100013dc   0x0000004c   Code   RO          370    .text               rtc_handler.o
    0x10001428   0x000001a4   Code   RO          398    .text               segger_rtt.o
    0x100015cc   0x00000428   Code   RO          567    .text               segger_rtt_printf.o
    0x100019f4   0x0000001c   Code   RO          710    .text               startup_armcm0.o
    0x10001a10   0x00000010   Code   RO          717    .text               system_armcm0.o
    0x10001a20   0x00002830   Code   RO          748    .text               syd8811_ble_lib.lib(main.o)
    0x10004250   0x00000634   Code   RO          828    .text               Syd8811_softtimer_lib.lib(timer.o)
    0x10004884   0x000005c8   Code   RO          896    .text               Syd8811_softtimer_lib.lib(rtc.o)
    0x10004e4c   0x0000002c   Code   RO          939    .text               mc_p.l(uidiv.o)
    0x10004e78   0x00000028   Code   RO          941    .text               mc_p.l(idiv.o)
    0x10004ea0   0x00000024   Code   RO          943    .text               mc_p.l(memcpya.o)
    0x10004ec4   0x00000024   Code   RO          945    .text               mc_p.l(memseta.o)
    0x10004ee8   0x0000001a   Code   RO          951    .text               mc_p.l(memcmp.o)
    0x10004f02   0x00000012   Code   RO          953    .text               mc_p.l(strcpy.o)
    0x10004f14   0x00000014   Code   RO         1218    .text               mc_p.l(uread4.o)
    0x10004f28   0x00000012   Code   RO         1220    .text               mc_p.l(uwrite4.o)
    0x10004f3a   0x000000b2   Code   RO         1222    .text               mf_p.l(fadd.o)
    0x10004fec   0x00000164   Code   RO         1224    .text               mf_p.l(dadd.o)
    0x10005150   0x000000d0   Code   RO         1226    .text               mf_p.l(dmul.o)
    0x10005220   0x000000f0   Code   RO         1228    .text               mf_p.l(ddiv.o)
    0x10005310   0x0000000e   Code   RO         1230    .text               mf_p.l(ffltui.o)
    0x1000531e   0x00000002   PAD
    0x10005320   0x00000028   Code   RO         1232    .text               mf_p.l(dflti.o)
    0x10005348   0x0000001c   Code   RO         1234    .text               mf_p.l(dfltui.o)
    0x10005364   0x0000003c   Code   RO         1236    .text               mf_p.l(dfixui.o)
    0x100053a0   0x00000028   Code   RO         1238    .text               mf_p.l(f2d.o)
    0x100053c8   0x00000060   Code   RO         1255    .text               mc_p.l(uldiv.o)
    0x10005428   0x00000020   Code   RO         1257    .text               mc_p.l(llshl.o)
    0x10005448   0x00000022   Code   RO         1259    .text               mc_p.l(llushr.o)
    0x1000546a   0x00000026   Code   RO         1261    .text               mc_p.l(llsshr.o)
    0x10005490   0x00000000   Code   RO         1263    .text               mc_p.l(iusefp.o)
    0x10005490   0x00000082   Code   RO         1265    .text               mf_p.l(fepilogue.o)
    0x10005512   0x000000be   Code   RO         1267    .text               mf_p.l(depilogue.o)
    0x100055d0   0x00000040   Code   RO         1271    .text               mf_p.l(dfixul.o)
    0x10005610   0x00000028   Code   RO         1273    .text               mf_p.l(cdrcmple.o)
    0x10005638   0x00000024   Code   RO         1275    .text               mc_p.l(init.o)
    0x1000565c   0x00000056   Code   RO         1285    .text               mc_p.l(__dczerorl2.o)
    0x100056b2   0x00000002   PAD
    0x100056b4   0x00000028   Code   RO         1192    i.__0sprintf        mc_p.l(printfa.o)
    0x100056dc   0x0000002e   Code   RO         1269    i.__ARM_clz         mf_p.l(depilogue.o)
    0x1000570a   0x0000001a   Code   RO           23    i.__ARM_common_switch8  main.o
    0x10005724   0x0000000e   Code   RO         1279    i.__scatterload_copy  mc_p.l(handlers.o)
    0x10005732   0x00000002   Code   RO         1280    i.__scatterload_null  mc_p.l(handlers.o)
    0x10005734   0x0000000e   Code   RO         1281    i.__scatterload_zeroinit  mc_p.l(handlers.o)
    0x10005742   0x00000002   PAD
    0x10005744   0x00000158   Code   RO         1197    i._fp_digits        mc_p.l(printfa.o)
    0x1000589c   0x000006ec   Code   RO         1198    i._printf_core      mc_p.l(printfa.o)
    0x10005f88   0x00000020   Code   RO         1199    i._printf_post_padding  mc_p.l(printfa.o)
    0x10005fa8   0x0000002c   Code   RO         1200    i._printf_pre_padding  mc_p.l(printfa.o)
    0x10005fd4   0x0000000a   Code   RO         1202    i._sputc            mc_p.l(printfa.o)
    0x10005fde   0x00000010   Data   RO          568    .constdata          segger_rtt_printf.o
    0x10005fee   0x00000028   Data   RO          750    .constdata          syd8811_ble_lib.lib(main.o)
    0x10006016   0x00000002   PAD
    0x10006018   0x00000020   Data   RO         1277    Region$$Table       anon$$obj.o


    Execution Region RW_IRAM1 (Base: 0x20003000, Size: 0x00001318, Max: 0x00005000, ABSOLUTE, COMPRESSED[0x0000009c])

    Base Addr    Size         Type   Attr      Idx    E Section Name        Object

    0x20003000   0x0000003b   Data   RW            5    .data               main.o
    0x2000303b   0x00000001   PAD
    0x2000303c   0x0000001c   Data   RW          153    .data               ota.o
    0x20003058   0x00000048   Data   RW          202    .data               gpio.o
    0x200030a0   0x00000008   Data   RW          277    .data               uart.o
    0x200030a8   0x00000004   Data   RW          372    .data               rtc_handler.o
    0x200030ac   0x00000004   Data   RW          718    .data               system_armcm0.o
    0x200030b0   0x00000040   Data   RW          751    .data               syd8811_ble_lib.lib(main.o)
    0x200030f0   0x0000001c   Data   RW          830    .data               Syd8811_softtimer_lib.lib(timer.o)
    0x2000310c   0x00000028   Data   RW          897    .data               Syd8811_softtimer_lib.lib(rtc.o)
    0x20003134   0x00000890   Zero   RW            4    .bss                main.o
    0x200039c4   0x00000028   Zero   RW          152    .bss                ota.o
    0x200039ec   0x00000030   Zero   RW          338    .bss                timer_handler.o
    0x20003a1c   0x00000030   Zero   RW          371    .bss                rtc_handler.o
    0x20003a4c   0x00000458   Zero   RW          422    .bss                segger_rtt.o
    0x20003ea4   0x00000068   Zero   RW          749    .bss                syd8811_ble_lib.lib(main.o)
    0x20003f0c   0x0000000c   Zero   RW          829    .bss                Syd8811_softtimer_lib.lib(timer.o)
    0x20003f18   0x00000400   Zero   RW          707    STACK               startup_armcm0.o


==============================================================================

Image component sizes


      Code (inc. data)   RO Data    RW Data    ZI Data      Debug   Object Name

        32          6          0          0          0        611   delay.o
       692          8          0         72          0       3575   gpio.o
      2366        648          0         59       2192      52099   main.o
      1296        370          0         28         40      35441   ota.o
        76         12          0          4         48       3151   rtc_handler.o
       420         32          0          0       1112       6988   segger_rtt.o
      1064         32         16          0          0       6200   segger_rtt_printf.o
        28          8        192          0       1024        680   startup_armcm0.o
        16          8          0          4          0        791   system_armcm0.o
        76         12          0          0         48       3130   timer_handler.o
       344         14          0          8          0       9929   uart.o
        92          8          0          0          0       1307   uart_protocol.o

    ----------------------------------------------------------------------
      6502       1158        240        176       4464     123902   Object Totals
         0          0         32          0          0          0   (incl. Generated)
         0          0          0          1          0          0   (incl. Padding)

    ----------------------------------------------------------------------

      Code (inc. data)   RO Data    RW Data    ZI Data      Debug   Library Member Name

      1480         38          0         40          0      17091   rtc.o
      1588         38          0         28         12      45840   timer.o
        86          0          0          0          0          0   __dczerorl2.o
         0          0          0          0          0          0   entry.o
         0          0          0          0          0          0   entry10a.o
         0          0          0          0          0          0   entry11a.o
         8          4          0          0          0          0   entry2.o
         4          0          0          0          0          0   entry5.o
         0          0          0          0          0          0   entry7b.o
         0          0          0          0          0          0   entry8b.o
         8          4          0          0          0          0   entry9a.o
        30          0          0          0          0          0   handlers.o
        40          0          0          0          0         72   idiv.o
        36          8          0          0          0         68   init.o
         0          0          0          0          0          0   iusefp.o
        32          0          0          0          0         68   llshl.o
        38          0          0          0          0         68   llsshr.o
        34          0          0          0          0         68   llushr.o
        26          0          0          0          0         72   memcmp.o
        36          0          0          0          0         60   memcpya.o
        36          0          0          0          0        100   memseta.o
      2242         94          0          0          0        472   printfa.o
        18          0          0          0          0         60   strcpy.o
        44          0          0          0          0         72   uidiv.o
        96          0          0          0          0         84   uldiv.o
        20          0          0          0          0         60   uread4.o
        18          0          0          0          0         60   uwrite4.o
        40          2          0          0          0         68   cdrcmple.o
       356          4          0          0          0        140   dadd.o
       240          6          0          0          0         84   ddiv.o
       236          0          0          0          0        216   depilogue.o
        60         10          0          0          0         68   dfixui.o
        64         10          0          0          0         68   dfixul.o
        40          6          0          0          0         68   dflti.o
        28          4          0          0          0         68   dfltui.o
       208          6          0          0          0         88   dmul.o
        40          0          0          0          0         60   f2d.o
       178          0          0          0          0        108   fadd.o
       130          0          0          0          0        144   fepilogue.o
        14          0          0          0          0         68   ffltui.o
     10288        502         40         64        104     109315   main.o

    ----------------------------------------------------------------------
     17848        736         42        132        116     174878   Library Totals
         6          0          2          0          0          0   (incl. Padding)

    ----------------------------------------------------------------------

      Code (inc. data)   RO Data    RW Data    ZI Data      Debug   Library Name

      3068         76          0         68         12      62931   Syd8811_softtimer_lib.lib
      2852        110          0          0          0       1384   mc_p.l
      1634         48          0          0          0       1248   mf_p.l
     10288        502         40         64        104     109315   syd8811_ble_lib.lib

    ----------------------------------------------------------------------
     17848        736         42        132        116     174878   Library Totals

    ----------------------------------------------------------------------

==============================================================================


      Code (inc. data)   RO Data    RW Data    ZI Data      Debug   

     24350       1894        282        308       4580     296312   Grand Totals
     24350       1894        282        156       4580     296312   ELF Image Totals (compressed)
     24350       1894        282        156          0          0   ROM Totals

==============================================================================

    Total RO  Size (Code + RO Data)                24632 (  24.05kB)
    Total RW  Size (RW Data + ZI Data)              4888 (   4.77kB)
    Total ROM Size (Code + RO Data + RW Data)      24788 (  24.21kB)

==============================================================================

