:020000040000FA
:10000000A8040020D5000000DD000000DF00000093
:1000100000000000000000000000000000000000E0
:10002000000000000000000000000000E1000000EF
:100030000000000000000000E3000000E5000000F8
:1000400000000000E70000000000000000000000C9
:10005000E7000000E7000000D108000041090000AF
:10006000E7000000E7000000E7000000E7000000F4
:100070005506000000000000000000000000000025
:100080000000000000000000000000000000000070
:100090000000000000000000000000000000000060
:1000A0000000000000000000000000000000000050
:1000B0000000000000000000000000000000000040
:1000C0000348854600F020FA004800474513000029
:1000D000A80400200448804704480047FEE7FEE7E4
:1000E000FEE7FEE7FEE7FEE7C1080000C1000000F2
:1000F00030B50B46014600202022012409E00D46C0
:10010000D5409D4205D31D469540491B2546954047
:1001100040191546521E002DF1DC30BDF0B51FB45C
:100120000646002082B005464024019100901BE065
:10013000019922460F46304600F008FA049A059BC2
:10014000801A994110D310461946224600F0EEF964
:10015000361A8F410197224601200021009F00F0AE
:10016000E5F938184D4100902046641E0028DFDC78
:10017000019B00982946324607B0F0BDF0B507460E
:100180000846584087B0C00F049048000E465900FA
:1001900040084908BC1A884105D2384631461E46F7
:1001A00017460B4602465800400810434CD0300D0D
:1001B000039040055900400D490D0590401A0290EA
:1001C000402872DA18030121000B09050843019049
:1001D00004980092002805D00199524200208841DD
:1001E00000920190029840210A1A0199009800F0AB
:1001F0009DF905460C466B4607CB00F0B8F9C019CF
:100200007141039A0E0D0023D71756401A467A40C3
:10021000164344D0049A002A2DD0029A012A039A48
:1002200015DC1205C01A914101263605001C7141EA
:10023000D20F059ED2070093019202962A462346CA
:1002400000F0B5F907B0F0BD38463146FAE71605BB
:10025000224A0F46B218C01AB74101210905001CF5
:100260004F4100187F41114618187941E20F1043A1
:100270006D19644113E0E2076D0815436408C20775
:100280001443039A01261205C01A91413605001C39
:100290007141CE07400830434908C01851412A46F1
:1002A000234600F077F9CDE7FFE7049801224000EC
:1002B000C117121A00238B4104983146C417381A0B
:1002C000A141EEE730B40124E407634030BC55E7B8
:1002D00030B40124E407614030BC4FE70000E0FF88
:1002E000F0B51FB488B00B990998002448400999CB
:1002F000C00F490049080991C0070B9900904900B7
:1003000049080B9109990898A64608431CD00B99F7
:100310000A98084318D0099801244000420D48006B
:10032000410D099824050003000B204309900B9808
:100330000003000B20430B9050181C49401800226A
:1003400001901446104605E0002001460DB0F0BDB6
:10035000032801DA034600E003239C46C11A0AAED3
:100360000AE05F0008ADED5B4F00F75B7D430027BF
:10037000AA187C41491C5B1E6145F2DD410004ABBB
:100380005A522104120C0A43240C401C0828DFDBBB
:10039000019802900099704601910090059B049A83
:1003A0000799069800F003F9D0E700000DFCFFFF65
:1003B000F0B50C465C4085B0E40FE40703944C00B4
:1003C00000266408590094464908024602962243D2
:1003D00021D062460A431ED06200570D4A000E0328
:1003E0002303550D012402462C492405781B1B0BC1
:1003F000360B401823432643614600901C46501A92
:10040000B44103D30098401C009002E09218009879
:100410005B41002803DA0020014605B0F0BD002052
:10042000012109050746864611E064461D46141B56
:10043000B54106D36546521BB341744607430C438E
:10044000A646CD0740084908284392185B41054657
:100450000D43EAD11046184313D060461946504068
:100460007140084306D06046101AB34106D20122FB
:10047000002306E000220123DB0702E00122D24331
:100480005310009874460105381C6141029C039D7D
:100490000019694100F07EF8BFE70000FD0300008D
:1004A0004A0009030123090B1B0519430A4B10B528
:1004B000520D9A4202DA0020014610BD064B343339
:1004C0009A4203DC9A1A00F041F810BD034BD2188F
:1004D00000F02CF810BD0000FF030000CDFBFFFF73
:1004E00010B5002904DB0124E40740428C41214679
:1004F000002B04DB1C460123DB075242A341994237
:1005000000D1904210BD0000064C0125064E05E0CA
:10051000E36807CC2B430C3C98471034B442F7D324
:10052000FFF7D2FDEC1500000C16000010B5202AD4
:1005300004DB0146203A9140002010BD9140202369
:100540009C1A0346E3401943904010BD10B5202A81
:1005500004DB0846203AD040002110BD0B46D340B2
:10056000D0402024A21A91400843194610BD10B56E
:10057000202A06DBCB170846203A1041C1170B434F
:1005800006E00B461341D0402024A21A91400843B4
:10059000194610BD10B5002B08DA0024401C61413B
:1005A00092185B411A4301D14008400010BDF0B5DC
:1005B0001FB482B005460C0003D0084600F002FAD2
:1005C00002E000F0FFF92030024600902146284664
:1005D000FFF7ACFF049B059A04460F4618431143EE
:1005E000084314D0184610431BD0009840210A1A23
:1005F00018460599FFF7AAFF05460E46009A059989
:100600000498FFF793FF084305D0012004E020463B
:10061000394607B0F0BD0020C11705430E432C43F7
:10062000374300990E986305401A7905E40A0022C1
:100630000C43FD0A0A3002D500200146E9E7010516
:10064000101969410C9C0D9D00196941FFF7A2FF2B
:10065000DFE7000010B520480068182141180A782B
:1006600010464A78120210438A7812041043C9785F
:10067000090608431849096810228A181378194690
:1006800053781B02194393781B041943D27812063E
:100690001143884300281ED010480068002802D06B
:1006A0000E48006880470C480068182141180A78F5
:1006B00010464A78120210438A7812041043C9780F
:1006C00009060843044909680870020A4A70020CC6
:1006D0008A70000EC87010BD180000201C00002099
:1006E0000C4909680A461378194653781B021943C6
:1006F00093781B041943D278120611434140054AEE
:10070000126811700B0A53700B0C9370090ED170A4
:1007100070470000100000200C4909680A46137851
:10072000194653781B02194393781B041943D27856
:10073000120611438143054A126811700B0A537067
:100740000B0C9370090ED170704700000C00002054
:10075000012809D10321084A117504215175052189
:1007600011700621517005E00021034A1175517581
:100770001170517070470000601000500146002059
:1007800000BF11E0012282400A40002A0BD0002263
:10079000074B1B681A54012282400B4693431946AB
:1007A000002900D102E0401C2028EBD300BF704795
:1007B0000800002070B5284C246840346479640631
:1007C000620F254C24684034A379234C24684034BC
:1007D00024782025AC4320341F4D2D6840352C70E3
:1007E0001D4C2468403464797025AC4310341A4D94
:1007F0002D6840356C71184C24684034A071164C3B
:1008000024684034647964086400641C124D2D68C7
:1008100040356C7100BF104C246840346479E407A3
:10082000E40F002CF7D10C4C24684034247B0C706E
:10083000094C2468403464797025AC431501702656
:1008400035402C43044D2D6840356C71024C2468B2
:100850004034A37170BD00002000002010B5174B7C
:100860001B6840331B782024A3432033134C246897
:1008700040342370114B1B686033DB7F5B085B00E7
:100880005B1C0E4C24686034E3770C4B1B68803390
:1008900019540FE0002202E000BF531CDAB20A2A0A
:1008A000FADB064B1B6860331B7FDB07DB0F002B7B
:1008B00000D000E0EEE700BF10BD000020000020E7
:1008C00001480249086070470024F4002400002019
:1008D00010B51A480068007818480068007880064B
:1008E000C00F002810D015480068007820218843E8
:1008F000124909680870542010490968487032206C
:1009000000F010FD00BFFEE70C480068807880070B
:10091000C00F002811D00948006880780221884360
:10092000801C064909688870322000F0FBFC5020CA
:1009300002490968487000BFFEE710BD00000020B2
:1009400010B51648006800781448006800788006E2
:10095000C00F002807D01148006800782021884384
:100960000E49096808700D48006880788007C00F3C
:10097000002811D009480068807802218843801C33
:10098000064909688870322000F0CCFC50200349E9
:100990000968487000BFFEE710BD00000400002099
:1009A00037B514460846064B6A46214600F0EEF875
:1009B00004466946002000F085FC20463EBD00004C
:1009C000C51200002021020C01D010211046020A9D
:1009D00001D010460839020901D01046091F8208CB
:1009E00001D01046891E420801D0881E7047081A9F
:1009F00070470000002809DB00BF00BFC206D20E0E
:100A000001219140024A116000BF00BF7047000001
:100A100000E100E002E008C8121F08C1002AFAD174
:100A200070477047002001E001C1121F002AFBD16E
:100A300070470000F0B51FB484B007980699020D06
:100A4000014314D04A484B491018484305140F98E5
:100A500001280E981CD0281A401C0024464E4749F5
:100A6000009401910290002814DA474227E00F9881
:100A7000012443A3012808D0002104980F9A846020
:100A80000360C260416009B0F0BD0E98C143F4E755
:100A90004042E2E7074612E0F80707D02246334615
:100AA00001990098FFF71CFC019100902246334603
:100AB00010461946FFF714FC04460E467F10002F1F
:100AC000EAD10298019B0028009A0799069802DA59
:100AD000FFF706FC01E0FFF76BFC04460E46002220
:100AE000284BFFF7FDFC03D80020C043014607E078
:100AF0000022254B20463146FFF740FBFFF7D0FC94
:100B0000102409E0002C0ADB0A220023FFF706FB71
:100B1000059B30321A55641E02460A43F2D1112257
:100B2000641C059B121B1C190F9B012B03D0012376
:100B300008430ED10AE0084304D011200E90002093
:100B40000F9084E70E98151A6D1E0BE00E988242E6
:100B500002DD00236D1C03E0824201DA00236D1EDA
:100B6000002BEED004980F998260C16030C08AE7F4
:100B700001FCFFFF104D0000000024400000F03F8A
:100B8000300000000000F0430000E03FFFB597B0E8
:100B90000646002518E2252877D100242746FD497E
:100BA000049400E00443761C32780120203A9040FF
:100BB0000842F7D130782A280ED002223078014638
:100BC0003039092916D804990A2359433039401875
:100BD0001443761C0490F1E7189802C80491189009
:100BE000002904DA01204003044348420490022013
:100BF0000443761C30782E2814D1042004437078E6
:100C0000761C2A2809D11898761C80C8189009E00B
:100C10000A214F43303FC719761C307801463039DE
:100C20000929F5D930786C2810D006DC4C281AD068
:100C300068280ED06A2817D104E0742813D07A28C7
:100C400012D110E00120400504430CE00121090508
:100C500001E0032109050C437178814203D1012091
:100C600000052418761C761C3078119066280BD06D
:100C700013DC58287DD009DC00287BD04528F6D02D
:100C80004628F4D047281AD1A5E118E0632835D0CA
:100C9000642870D0652812D19DE170286CD008DCE2
:100CA0006728F1D069287BD06E280DD06F2806D137
:100CB000BAE073282ED0752871D0782859D01A9AA6
:100CC000199990476D1C7EE16002400F022809D0FF
:100CD00003280DD00428189801680DD00D60001D60
:100CE000189070E11898EA1701680D604A60F6E7FD
:100CF000189801680D80F2E70D70F0E718986A46C1
:100D000001781172001D18900020507202A8009006
:100D1000012005E0189802C8189000200091C043F7
:100D200061070DD5002101E00199491C0191B942EB
:100D300012DA8142F8DB009A515C0029F4D10BE011
:100D4000002101E00199491C01918142FADB019ADD
:100D50000099895C0029F5D1019904981A9B471ADA
:100D600021463846199A00F097FA0199401945181A
:100D70000BE04FE02CE113E04EE000980099007882
:100D8000491C00911A9A199990470198401E0190A8
:100D9000401CF2D1214638461A9B199A10E137E0DF
:100DA0000A200021009001916002410F022907D022
:100DB000189A01CA1892C2179446032908D00AE06B
:100DC0001898C01DC108C90005C91891944607E0CC
:100DD00000B2C2179446042902D140B2C1178C4612
:100DE00000226146944506DA0A46002140429141BC
:100DF0008C462D2102E0210504D52B216A46117372
:100E0000012103E0E10701D02021F7E7029155E03D
:100E10000A200AE0102008E01020009000210420A1
:100E200004430191082703E008200021019100906C
:100E30006002410F022907D0189A01CA18920022B5
:100E40009446032908D008E01898C01DC108C900BD
:100E500005C91891944603E080B2042900D1C0B2BC
:100E600000210291210729D51199702906D0009AF5
:100E70001021019B4A401A4305D00EE040216A46EA
:100E80001173012108E06146014306D030216A4612
:100E900011731199517302210291009A0821019B4B
:100EA0004A401A430AD16146014301D1610705D581
:100EB00030216A46117301217F1E02911199582930
:100EC00004D035A10E910DA90D910DE037A1F9E7E0
:100ED0006146019B009AFFF721F90E9B8C469B5CB3
:100EE0000D9A521E0D92137061460143F0D10D9878
:100EF00005A9081A20300190600703D501200004DD
:100F0000844300E001270198874201DD381A00E0A0
:100F10000020019900904118029809180498401A7D
:100F20000490E00306D421461A9B199A049800F015
:100F3000B3F94519002706E003A81A9AC05D19996C
:100F400090476D1C7F1C02988742F5DBE0030CD5AF
:100F500021461A9B199A049800F09EF9451904E05D
:100F60001A9A3020199990476D1C0099481E0090DC
:100F70000029F5DC08E00D980D990078491C0D91C9
:100F80001A9A199990476D1C0199481E01900029E1
:100F9000F1DC63E109280100303132333435363772
:100FA00038396162636465660000000030313233B5
:100FB0003435363738394142434445460000000055
:100FC00000F05AF94519761C3078002800D0E2E587
:100FD00028461BB0F0BD600700D406271898C01D36
:100FE000C108C90048680A680831C30FDB071891B7
:100FF000190001D09CA108E0210501D59BA104E0C6
:10100000E10701D09AA100E09AA1430011985B0882
:10101000109165280CD006DC452809D046281DD043
:10102000472841D141E0662818D067283CD13CE0F0
:101030000021112F01DB112000E0781C01910090AC
:1010400008A911A8FFF7F6FC139905910021119A40
:1010500015927F1C12980197009150E00120C00763
:1010600003900120019008A9009711A8FFF7E2FC66
:10107000139A149905920022119B009212981593CD
:10108000059A0192002901D0104602E0791C40180F
:101090000190381A01D5019804E04042401E0090AA
:1010A000781C0190C01B029043E0012F00DA012759
:1010B0000021112F01DD112000E038460191009040
:1010C00008A911A8FFF7B6FC13990591119A002100
:1010D000129815920091019721070CD40599B942F5
:1010E00001DB019900E00191012904DD159A491EF7
:1010F000515C302906D0B84201DA011D05DA012120
:10110000029115E00199491EEDE7002805DC0099E0
:10111000411800910199091A03E0019A411C91427A
:1011200000DD01910099401A401C02900120C00787
:101130000390200706D402990198814202DB002027
:10114000C043029000206946C87707AF0121039889
:101150000337C907884224D0022011902B20129017
:10116000039800280CDA404203902D20129007E0EB
:101170000A210398FEF7BCFF30317F1E03903970BF
:101180001199481E11900029F2DC03980028EFD134
:10119000791E129808703078202108404530BF1E13
:1011A000387006A8C01BC01D039010980078002856
:1011B00000D00120019941180298C017091803981E
:1011C00009180498401A401E0490E00306D42146F2
:1011D0001A9B199A049800F05FF845191098007846
:1011E000002803D01A9A199990476D1CE00324D562
:1011F00021461A9B199A049800F04EF845191CE0F4
:101200000098002807DB00990598884203DD1598AF
:10121000405C199901E0199930201A9A904700987A
:101220006D1C401C00900298401E0290002804D1C2
:101230001A9A2E20199990476D1C0199481E019009
:101240000029DDDC05E038781A9A7F1C199990474F
:101250006D1C0399481E03900029F4DC21461A9B5B
:10126000199A0498ACE600002D0000002B00000045
:101270002000000000000000F8B5044600251E46CE
:101280001746880404D405E039462020B0476D1C79
:10129000641EF9D52846F8BDFFB50446002581B087
:1012A0001E46C80301D5302700E02027880404D556
:1012B00005E038460399B0476D1C641EF9D52846F1
:1012C00005B0F0BD0A68531C0B601070704710B574
:1012D00000F0DAF810BD00000FB438B50025002486
:1012E0000498002803D138BC08BC04B0184705A8EE
:1012F00000900B48009A0499FFF752FBC5B20020FA
:101300000090802D00DD8025002405E00449085D63
:1013100000F056F9601CC4B2AC42F7DB00BFE2E754
:1013200028000020002108E0002201E0531C9AB2AE
:10133000034B9A42FADB4B1C99B28142F4DB7047B3
:101340008C0A000008B50024002000900120FFF75F
:10135000FFF9FFF7BCFF8020FFF710FA8020FFF7AE
:10136000DBF900BF04E08020FFF7BAF9601CC4B2CB
:101370000A2CF8DB37480068007E800980011B30AA
:1013800034490968087633480068407E8009800146
:101390001B303049096848762E480068807E8009F5
:1013A00080011B302B49096888762BA0FFF794FF3A
:1013B0000120FFF7B7FF4F212020FFF74FFA002150
:1013C0002120FFF74BFA80212220FFF747FA012066
:1013D000FFF7A8FF21212320FFF740FA0120FFF7A4
:1013E000A1FF00212420FFF739FA80212520FFF7F3
:1013F00035FA10213820FFF731FA1A213A20FFF789
:101400002DFA0C213B20FFF729FA03213C20FFF79E
:1014100025FA20213D20FFF721FA1AE08020FFF76E
:101420005FF969460F20FFF7C5F9684602780F217A
:1014300011A0FFF751FF69462320FFF7BBF968466B
:10144000027823210CA0FFF747FF7D20C000FFF7A3
:1014500069FFE3E708000020666C61736820636140
:101460006368652064736C6565702074657374319E
:1014700032330D0A000000007276616C3A25782044
:1014800025780D0A0000000010B54B480068007870
:1014900080098001401D4849096808704648006875
:1014A000407880098001801D43490968487043489D
:1014B00000688078400840004049096888703F48CB
:1014C000006800780009000108303C49096808708C
:1014D0003A480068007880218843384909680870D4
:1014E0003648006800784021884340303349096815
:1014F000087032480068C0781021884310302F49A6
:101500000968C8702D480068807804218843001D50
:101510002A49096888702948006880781021884322
:10152000264909688870254800688078202188430A
:10153000203022490968887020480068807840215E
:1015400088431E49096888701C480068807880219B
:1015500088431A4909688870184800680078102183
:1015600088431649096808701448006800782021EB
:101570008843124909680870104800688078022181
:101580008843801C0D49096888700C480068C07841
:1015900020218843203009490968C8700720FFF7D7
:1015A00029FA0648006880780821884308300349F2
:1015B0000968887010BD00000800002004000020A9
:1015C00009490968487000BF074909680978890610
:1015D000C90F0029F8D004490968097820229143ED
:1015E000014A126811707047040000200C160000B8
:1015F0000000002028000000140A0000341600003B
:101600002800002080040000240A0000D0000150BF
:10161000E0000150601000502410005014100050E1
:1016200018100050100000400000000000000040B2
:041630000024F4009E
:04000005000000C136
:00000001FF
