:020000041000EA
:10000000B8440020251C00102D1C00108B08001087
:1000100000000000000000000000000000000000E0
:10002000000000000000000000000000311C001073
:100030000000000000000000331C0010351C001000
:1000400000000000371C00101B500010371C00106F
:10005000371C0010371C00101D0B0010770C00100F
:10006000BD4800106D490010614A0010371C001097
:10007000B31A0010371C0010371C0010371C00107A
:10008000371C0010371C0010371C0010371C0010E4
:10009000371C0010371C0010371C0010371C0010D4
:1000A0000000000000000000000000000000000050
:1000B0000000000000000000000000000000000040
:1000C0000348854605F0CCFB004800472F07001089
:1000D000B84400201FB500206A46107007215172F5
:1000E000192189015181FD4991811072684602F000
:1000F0009AFEFB4802F085FEF9494A78C81DC27392
:100100008A780274CA7842740A7982744A79C2740D
:100110008A7902750622F3A0491C01F066FDF048B9
:100120001038037A8179421D173002F082FE1FBD1C
:100130001CB5002802D001280FD106E01020694626
:100140004880C820C880002006E0502069464880CA
:100150004B20C000C8800A208880C02069460870F3
:1001600004204870684603F0FDFB6946CB888A8806
:100170004988E0A001F01EFD1CBD3EB5D84C103CE6
:10018000A278012A01D000203EBD01246A461480D5
:10019000032555801F259580148103460A4669462C
:1001A000204603F07DF83EBD03B583B06846C089A4
:1001B00015214902884201D1DAA010E0DB498842CA
:1001C00008D1DBA0006800900220694603F059F8CE
:1001D00005B000BDD5492831884205D1D5A003C856
:1001E000009001910820F0E7D0492331884201D1E5
:1001F000D2A023E0CD492431884205D1D1A003C843
:10020000009001910520E0E7C8492631884201D1DC
:10021000CEA00AE0C5492531884201D1CCA004E036
:10022000C2492731884204D1CAA000680090042046
:10023000CBE7BE494F31884205D1C7A003C8009023
:1002400001910720C1E7C649884207D1C5A00068CF
:10025000009004216846FFF790FFB9E7C0493831A4
:1002600088420CD100206A461070019002906946C5
:1002700001A801F0DDF86A4601A91078A6E7BA499D
:100280008842A5D196490C3901209FE7F0B5044674
:1002900089B0401C04F051FF012821D0904D002668
:1002A0000127103D022821D0042828D07A03611CA0
:1002B00090425BD148790A790002104301282AD084
:1002C000A74A1E3290423BD1487A097A000208437D
:1002D000800733D0A5A001F06DFCEF7009B0F0BD30
:1002E000FFF7F8FE02F0C2FEA5A087E0AE702F7007
:1002F000012000F094FF0622A11DA5A070E02E7041
:10030000AE7002F0B3FE012000F089FF6179A6A073
:1003100001F050FCE2E7207AE27900021043202845
:10032000DCD1487A097A00020843800704D0A5A0EE
:1003300001F040FCAF70D1E7AE70CFE7EE70CDE7D3
:10034000894A9042CAD1487A097A00020843C00714
:10035000C4D069460A804A8026208880604B0122EA
:100360000F810C3B104602F09BFFB7E7C21FFF3A1C
:10037000FA3A0DD0C21FF93A35D001221203904249
:10038000ACD0082839D0920090423AD192A035E002
:100390001E22611D684604F09FFE684640886C4638
:1003A000022809D06E493831884297D16E70A17900
:1003B000E01D00F040FF91E7E079A1280CD1207A00
:1003C000012809D1607A012806D1A07A012803D139
:1003D000002102F030FF6F7068468279E11D83A032
:1003E00001F003FC7AE70822611D684604F074FE00
:1003F00001990098FFF7D8FE70E77EA001F0DAFBC4
:100400006CE70122D203904284D148790979000235
:100410000843030005F08BFA0605121416181A0497
:100420005CE77AA001F0C6FB684602F0F4FE68467D
:10043000428801887BA001F0BDFB4FE780A0DDE78B
:1004400085A0DBE78AA0D9E78FA0D7E793A0D5E7FF
:10045000F8B50025964800950068FF2120302F460A
:100460002C462E46017041709F228270CF22C270AE
:1004700001712846012214282ED008DC062810D04D
:1004800007280ED00F280CD0102806D109E0162816
:1004900022D0172820D018281ED0114681400D43A5
:1004A0000C43401CC0B22028E5D3009801F092F91B
:1004B0000020009901F05AF90098B84301F03BFA86
:1004C000384601F04FFA3146284601F09AF92146A4
:1004D000002001F017F9F8BDECE00000FF3F00003C
:1004E0001030002064657669636520616464723A47
:1004F00000000000736D6172745F706172616D73F2
:1005000020696E74657276616C3A2578206C61742E
:10051000656E63793A2578207376746F3A25780D85
:100520000A0000005359445F55415254012A00000B
:10053000FFFF000053594420496E632E424C452072
:10054000312E3000312E302E30000000322E30306F
:10055000332E303056303031023A09050A0200009D
:10056000C9FE0000000103040F18000077656368EE
:1005700061745F747820656E61626C650D0A0000BD
:10058000526553746172744164760D0A0000000074
:100590004741505F4556545F434F4E4E4543544587
:1005A0004420616464723A004741505F4556545F8D
:1005B000444953434F4E4E45435445442025780DFE
:1005C0000A00000073746172745F747820656E6154
:1005D000626C650D0A0000004741505F4556545F4C
:1005E000454E435F53544152540D0A006D73673AB0
:1005F0000D0A00004741505F4556545F5041495233
:10060000494E475F434F4D500D0A000075706461BD
:100610007465207273702041434345505445440D26
:100620000A000000696E74657276616C3A25782064
:100630006C6174656E63793A25780D0A00000000DC
:10064000757064617465207273702052454A454329
:100650005445440D0A000000757064617465207291
:1006600073702054494D45524F55540D0A000000F7
:1006700075706461746520727370205355434345EF
:1006800045440D0A00000000456E61626C65206CF7
:100690006174656E63790D0A00000000446973613E
:1006A000626C65206C6174656E63790D0A000000F0
:1006B00060300020114681400D430C430E43F0E6AC
:1006C000F8B5904C2078002819D000268E4D0128CE
:1006D00016D001277F0202281BD003280FD12670D5
:1006E000384603F0AAFF89A001F064FA7D20C0001B
:1006F00000F022FB89A001F05DFA02F084FFEAE637
:1007000000F082FD8AA001F055FA022020702E70C0
:10071000E1E62878401CC0B228702028EFD987A0D5
:1007200001F048FA384603F088FFD4E6704772B605
:1007300000F0AFF8002002F0CCFE01F038FE0020FF
:1007400001F0F1FEFF20F53003F0B9F901F0FBFEF6
:100750007D49022004F073F801F0FAF97B49012089
:1007600004F047FC01F012FAFFF772FE012001F0DD
:1007700031F8012001F0DFF801F039FE01F016FA3E
:10078000012001F039FE72A274A177A001F012FAE3
:1007900000F03EF900F0D3F9FF210431794804F06C
:1007A000B4FC62B6774D01263605774C774F03F0DF
:1007B0007FF8A878022818D12A78E91C74A001F0E3
:1007C00014FA2878401EC1B2281D00F0D1FA7448EE
:1007D0000078002805D02978281D491EC9B200F0EC
:1007E000AAFB0421674804F090FC304601F0E8F8C9
:1007F000002821D0052000F09FFA304601F0E0F8F3
:10080000002819D067A001F0D5F9FF2104315D4817
:1008100004F07BFC304601F0D3F80028FAD1FF2029
:10082000F53000F089FA6349634800F03CFB00F0C2
:100830006AFB62A001F0BEF92068002811D0800593
:1008400008D5FFF73DFF0120400203F052FF61A0F1
:1008500001F0B0F92088C00503D5FF20013003F076
:1008600048FF3868002809D0400707D501F06BFE23
:100870005CA001F09FF9042004F032FA21480078CE
:10088000012894D1FFF71CFF91E75AA001F092F9DB
:10089000FEE710B588B002F0FDF9012002F0C1FCBE
:1008A000594802F0E9FC03216A461173002454738D
:1008B000907BFB228843401C10406A4690731020B6
:1008C000D0731474517403A802F099FCC0200590F1
:1008D0004E48069005A802F0B4FC002002F0A4FEE9
:1008E000FFF7F8FB6A461470D47014710120507041
:1008F0009070D11D000504F02AFC684602F0F9FD55
:1009000008B010BD44300020453000204F54412035
:1009100066696E6973680D0A0000000053746172A5
:10092000742052657365742031303030730D0A00C5
:100930004F54412073746172740D0A004F5441206A
:100940006661696C650D0A0078330020A8330020C9
:1009500031333A32343A33330000000041707220B0
:100960003139203230323200537964383831312015
:1009700055415254204F5441202025733A25730D80
:100980000A00000034310020FC3000201431002027
:100990007561727420727820646174610D0A0000C0
:1009A000413000204B4559312050726573730D0A58
:1009B000000000004C5000000262001055415254EB
:1009C000204D4153544552204F544120537461727D
:1009D000740D0A004556545F31535F4F54410D0A60
:1009E000000000005254434556545F313835530DD2
:1009F0000A0000004552523A20486172644661750F
:100A00006C74210D0A0000000C3000208D020010D3
:100A1000F8B5C4480068C17B89098901C91CC17344
:100A2000017C89098901091D017420308278DF2148
:100A30000A4082708378BF2213408370BA4C2068CA
:100A400083785B085B00837003781B091B01083304
:100A5000037003785B065B0E0370037840252B431D
:100A60000370C37810252B43C370837804252B4370
:100A70008370857820231D4385708678EF252E406E
:100A80008670867880273E4386708678164086700A
:100A900002782A40027002780A40027081780222AD
:100AA00011438170C1781943C170062000F022F90A
:100AB00020688178082211438170F8BD9A4909683D
:100AC000487008788006FCD50878DF22104008704E
:100AD000704738B500226C462270934B1B680DE0BE
:100AE0001C798C546D46521C2C78D2B2641C2C702C
:100AF0002C78641C2C702C78641C2C70DC78E40737
:100B0000EED0027038BD10B5874800688178F722B2
:100B100011408170062000F0F6F810BD8248006890
:100B20000178C90603D50178EF2211400170817860
:100B3000890703D58178022211438170704770B50F
:100B400078480068817989098901491D8171C179D5
:100B500089098901891DC17120300278BF210A40AD
:100B6000027002785206520E02706F4C60688278F2
:100B70005208520082700278120912010832027083
:100B800002785206520E027002780A400270C27851
:100B900010231A43C270827804231A438270837828
:100BA0002022134383708578EF231D40857085785C
:100BB00080263543857085780D4085700178194011
:100BC00001700178DF2319400170817802231943F5
:100BD0008170C1781143C170072000F08BF8606804
:100BE000817808221143817070BD4F49496848706F
:100BF00008788006FCD50878DF221040087070471E
:100C000038B500226C462270474B5B6810E01C79B7
:100C10008C546D46521C2C78D2B2641C2C702C78EB
:100C2000641C2C702C78641C2C702C78641C2C7028
:100C3000DC78E407EBD0027038BD10B53A48406864
:100C40008178F72211408170072000F05CF810BD18
:100C500070B54C1C354D0A4601462C70681C04F0DA
:100C60003BFA002304E0E85CFFF7BFFF5B1C9BB28C
:100C7000A342F8D370BDFCB52B4840680178C90683
:100C800037D50178EF221140017001A96846FFF7BE
:100C9000B7FF274A9078022701AC002806D0907849
:100CA000012826D1694600200D781BE069460879A5
:100CB0001070002050700D7807E0235C51785618B2
:100CC000491C5170F370401CC0B2A842F5D30120FA
:100CD000907009E0235C51785618491C5170F370EC
:100CE000401CC0B2A842F5D350781178884200D198
:100CF0009770FCBD002805DBC106C90E01208840A5
:100D00000C490860704700280ADBC106C90E0120A3
:100D10008840084980310860BFF34F8FBFF36F8F61
:100D2000704700006030002038300020373200204B
:100D30003431002000E100E000220C4B06E00021ED
:100D4000491C89B29942FBD3521C92B28242F6D31B
:100D50007047002206E00021491C89B20229FBD31A
:100D6000521C92B28242F6D3704700008C0A0000F7
:100D700070B504460078B04D16280CD0172815D051
:100D8000182807D1ADA000F015FFA01C00F023F932
:100D90000320287070BDAFA000F00CFF02F0C3FC70
:100DA0000146162000F008F90120F2E7ADA000F09E
:100DB00001FFA41C204604F0C0F9617922790902E0
:100DC0001143A21D02F022FD0146172000F0F4F8A5
:100DD0000220DEE7F0B5C5B08821684604F095F939
:100DE0001720694608708024A44804F0A6F9064636
:100DF000A248001F04F0A1F90546AE4234D29F4933
:100E0000F001083904F0A3F9314622909B4E681E88
:100E1000361D6F4602AD81420ED13046143804F0C3
:100E20008CF94406640EB91C229804F090F96946C6
:100E3000CC80A01D487007E0B91C229804F087F907
:100E40006846C480A21D4270304604F076F901461F
:100E5000229822460918284604F03EF96846407850
:100E6000801CC1B268461AE0AE421AD1882122A87D
:100E700004F04BF9182020A90872862048727F4898
:100E8000103804F05AF922A9023104F060F97B48C5
:100E90000C3804F052F920A9C881882122A8FFF754
:100EA000D7FE45B0F0BDF8B50D46074662490024AF
:100EB00072484C701821103804F027F96F493846F1
:100EC000091D04F044F96D492846103904F03FF932
:100ED0006A4E103E08E0301D04F02FF9395D4018CD
:100EE000311D04F034F9641CAC42F4D36349E809C1
:100EF000091F0C4604F02BF9690603D02146401C5B
:100F000004F025F9F8BD30B54B4CA3B0607800284B
:100F10000FD18821684604F0F8F816206946087059
:100F20000220487001254D8004216846FFF790FE9D
:100F3000657023B030BD70B5044600780E2812D11C
:100F4000A07802263C4D16280ED0172816D0182857
:100F500009D14BA000F02EFEE078012826D050A049
:100F600000F028FE6E7070BD55A000F023FEE07802
:100F7000012801D058A0F3E75DA006E062A000F0D0
:100F800019FEE078012805D066A000F013FEFFF7F7
:100F900021FF70BD6AA000F00DFE3848044604F041
:100FA000CCF82146401C04F0D2F8F0E76CA000F029
:100FB00001FE0320687070BD08B5002200920E2269
:100FC0006B461A7002225A709870D97004216846D4
:100FD000FFF73EFE08BD10B5044604F0AEF801462A
:100FE00067A000F0E7FD60792279010211436AA051
:100FF00000F0E0FD204604F0A0F8617922790B02B0
:10100000134302460021084602F00FFC0446014645
:101010001820FFF7D1FF012C03D067A000F0CAFD14
:1010200010BD6AA000F0C6FDFF202D30FFF784FE42
:1010300002F0E9FA10BD0000403000205541525442
:101040005F4F54415F434D445F55504752414445C3
:101050000D0A0000434D445F46575F4552415345DA
:101060000D0A0000554152545F4F54415F434D44B7
:101070005F57524954450D0A0000000047330020D5
:10108000554152545F4F54415F434D445F55504763
:10109000524144452052455455524E0D0A0000001D
:1010A000554152545F4F54415F434D445F55504743
:1010B00052414445206661696C65640D0A00000078
:1010C000434D445F46575F45524153452052455476
:1010D00055524E0D0A000000434D445F46575F4590
:1010E00052415345206661696C65640D0A00000039
:1010F000434D445F46575F455241534520737563E6
:10110000636573730D0A0000554152545F4F54419B
:101110005F434D445F575249544520524554555200
:101120004E0D0A00554152545F4F54415F434D44A8
:101130005F5752495445206661696C65640D0A0029
:10114000554152545F4F54415F434D445F5752499C
:10115000544520737563636573730D0A00000000C6
:10116000554152545F4F54415F434D445F55504782
:101170005241444520737563636573730D0A000023
:10118000705F636D642D3E737A2D2D2D2D2D3E30B5
:1011900078253038780D0A00705F636D642D3E63EA
:1011A0006865636B73756D2D2D2D2D2D3E30782563
:1011B0003038780D0A00000055415254204F5441F8
:1011C000204661696C65640D0A0000005541525467
:1011D000204F544120535543434553532C205265CF
:1011E000736574204D435520696E670D0A00000039
:1011F00010B5E04B0E241B691C70541C5C70987079
:10120000D81C03F069FF10BD08B502F08CFA00206D
:101210006946087001221620FFF7EAFF08BD002288
:10122000D449002801D00A704A704A80CA808A8056
:101230000A81CA607047F8B5CE4D0E466988002411
:10124000002905D02A78002A02D06C70002199E08C
:1012500001780326152969D01CDC112934D0122904
:101260003CD013293FD0142922D1C17982790E02B2
:1012700016436E80417A027A0F021743EF80801C7A
:1012800003F05BFFE860AC8001462C813B463246B0
:10129000B9A06EE001277F0216290AD0202949D083
:1012A000232952D0242903D1801C00F03DF92E704F
:1012B000F8BD0020FEF73CFFBCA000F07BFC3846E8
:1012C00003F01CFA012006E00020FEF731FFBBA06E
:1012D00000F070FC04202870EC60F8BD801C00F069
:1012E000B9F805201CE0871CC01C03F026FF01464E
:1012F0003A78B74802F0EBFB0646781C03F01DFF76
:1013000002463B783146B3A000F054FC002E09D0D1
:1013100068460470012269461820FFF769FF06201D
:101320002870F8BD012069460870F3E7801C00F0C2
:10133000C6F8BCE70020FEF7FBFEACA000F03AFCCC
:10134000384603F0DBF90720C5E7C17982790E0240
:1013500016436E80417A027A0F021743EF80801C99
:1013600003F0EBFEE860AC8001462C813B46324640
:10137000A3A000F01FFCF8BD435C2C891B19491C7D
:101380002B8189B2B142F7D381071AD00146324688
:10139000A94803F0A1FE2878022806D0012804D02D
:1013A000082808D0072806D023E0A988E868A24AC0
:1013B0004018314615E0A988E8689F4A4018314630
:1013C00015E06C4BD9689B88CB18022A06D0012AFD
:1013D00004D0082A08D0072A06D00AE0024631467F
:1013E000184602F013FA04E002463146184602F0AD
:1013F0007EF9A888801981B2A98068888142BAD311
:101400002A89E888824204D1002000F049F88BA0A4
:1014100003E0012000F044F88CA000F0CBFBEA8848
:1014200029898EA000F0C6FB0020FFF7F8FEF8BD6A
:1014300070B5504C0D4621694A7821461431921CF2
:1014400003F04AFE20694078801C2870002060610B
:10145000A06170BD38B50446407821780002084389
:101460000121090388421AD8A27882188A4201D938
:10147000091AA1705649A2784018E11C03F02CFE0D
:10148000607823780102A27819437FA000F092FBD4
:1014900000206946087001221720FFF7A9FE38BD19
:1014A0001CB56B465970090A9970DA70110A1971E6
:1014B0001870052269461420FFF79AFE1CBD38B546
:1014C00004465D4820300179002905D02038006AA3
:1014D000594A400102F09AF9204603F02EFE617944
:1014E00023790A0201461A436EA000F063FB2046EE
:1014F00003F023FE617922790B0213430246002197
:10150000084602F092F9044601466CA000F052FB36
:10151000002C07D000206946087001221820FFF730
:1015200067FE38BD0120F6E738B5044603F005FE36
:10153000617923790A0201461A435AA000F03AFB66
:10154000204603F0FAFD617922790902114302F085
:1015500071F9044601465EA000F02CFB002C07D078
:1015600000206946087001221820FFF741FE38BDAF
:101570000120F6E744300020434D445F46575F5753
:10158000524954455F5354415254206F6666736507
:10159000743A25782C73697A653A257820636865F2
:1015A000636B73756D3A25780D0A0000434D445FF7
:1015B00046575F45524153450D0A0000344B534591
:1015C0005454494E475F4552415345200D0A00008F
:1015D0004A070020436F64655570646174653D255A
:1015E000642025782025780D0A000000464C4153E0
:1015F00048444154415F4552415345200D0A000083
:10160000464C415348444154415F57524954455F09
:101610005354415254206F66667365743A25782C92
:1016200073697A653A257820636865636B73756DB5
:101630003A25780D0A00000050330020736563746A
:10164000696F6E204F4B21200000000073656374AA
:10165000696F6E206661696C652120006F74615F3F
:10166000726563656976655F636865636B3A257863
:10167000206F74615F73656374696F6E5F63686523
:10168000636B3A25780D0A00636D64344B534554FF
:1016900054494E4757726974652025782025780D86
:1016A0000A0000006F746120737A3A25782063681D
:1016B00065636B73756D3A2578200000436F646530
:1016C0005570646174657632303D25640D0A000002
:1016D000436F64655570646174657633303D25648D
:1016E0000D0A000070B5FF4B00221C6801252B4637
:1016F0009340034202D0A154984302D0521C202AA6
:10170000F5D370BDF0B5F84C221D944600282AD0C0
:10171000012827D1F34B3033002B23D000200122A6
:101720008240114207D01F5C01252668BD402E4330
:101730002660914302D0401C1828F0D318200125C0
:101740002A4682402B46114209D064460646247838
:10175000183EB3401C4363461C70914302D0401CAA
:101760002028EDD3F0BDDF4B1833D5E7F0B5DE4CC4
:10177000221D944600282AD0012827D1D94B303386
:10178000002B23D0002001228240114207D01F5C91
:1017900001252668BD40AE432660914302D0401C1F
:1017A0001828F0D3182001252A4682402B461142E2
:1017B00009D0644626780446183CA3409E436346FD
:1017C0001E70914302D0401C2028EDD3F0BDC54BC4
:1017D0001833D5E710B5C3494A68147821465478C0
:1017E000240221439478D378240421431B0619430F
:1017F00081431170080A5070080C9070080ED07068
:1018000010BD70B5B74E73681D782A465D782D02FD
:101810002A439D78DC782D042A4324062243024380
:101820001A70140A5C70140C9C70120EDA70F36853
:101830001D782A465D782D022A439D78DC782D0498
:101840002A432406224302431A70140A5C70140CC3
:101850009C70120EDA7008229C1825782A4665784A
:101860002D022A43A578E4782D042A432406224336
:1018700082431A72100A5872100C9872100ED872A5
:1018800008201A18147820465478240220439478AB
:10189000D278240420431206104308431872010A28
:1018A0005972010C9972000ED87270BD10B58D4935
:1018B0004A68147821465478240221439478D378D6
:1018C000240421431B06194301431170080A507078
:1018D000080C9070080ED07010BD10B58149CA6810
:1018E000147821465478240221439478D378240430
:1018F00021431B06194301431170080A5070080C5C
:101900009070080ED07010BD10B57649CA68147872
:1019100021465478240221439478D3782404214327
:101920001B06194381431170080A5070080C90700F
:10193000080ED07010BD10B56A498A681478214627
:101940005478240221439478D378240421431B063D
:10195000194301431170080A5070080C9070080E6A
:10196000D07010BD10B55F498A681478214654784C
:10197000240221439478D378240421431B0619437D
:1019800081431170080A5070080C9070080ED070D6
:1019900010BD10B553498A68147821465478240242
:1019A00021439478D378240421431B0619434140F2
:1019B0001170080A5070080C9070080ED07010BD9D
:1019C0004849C9680A1D1378194653781B02194300
:1019D0009378D2781B0419431206114308407047CC
:1019E00070B5404C182223699D182E7832466E78C7
:1019F00036023243AE78ED78360432432D062A4360
:101A000002401A70150A5D70150C9D70120EDA7086
:101A100010229D182E7832466E7836023243AE7808
:101A2000ED78360432432D062A4382431A74100A95
:101A30005874100C9874100ED8742033187840081D
:101A4000400018706161012028490003086070BDE2
:101A500010B524490A69102153181C7821465C7876
:101A6000240221439C78DB78240421431B0619437C
:101A700001431174080A5074080C9074080ED07455
:101A800010BD01221949100380310860BFF34F8F48
:101A9000BFF36F8F13484917006901740B0A437431
:101AA0000B0C8374090EC17420300178114301704E
:101AB000704710B50B4C1820236919180A78104686
:101AC0004A78120210438A78C97812041043090632
:101AD000084310215A181378194653781B021943EA
:101AE000937805E0603000208010005000E100E0B5
:101AF0001B04D278194312061143884318D0606939
:101B0000002800D08047216918200A181378184649
:101B100053781B0218439378D2781B04184312069B
:101B200010430870020A4A70020C8A70000EC870D6
:101B300010BD00000F48FF2201680132114301600F
:101B400070470C480122016852021143016070473E
:101B500010B57D242401FF200023074A21460130CF
:101B600002F092FC01200023044A2146400202F0C8
:101B70008BFC10BDFC300020351B0010431B0010F7
:101B800008480422016811430160704710B5002322
:101B9000054AB921042003F038F8042003F0DDF8E9
:101BA00010BD000014310020811B001010B5FEF79D
:101BB0002FFF10BD0FB470B504990024002910D078
:101BC00005AA144803F08AFEC5B2802D00D98025ED
:101BD000104E04E0305DFEF771FF641CE4B2AC42CD
:101BE000F8D370BC08BC04B0184770B50024154683
:101BF0000E46002807D0FFF7DDFF04E0315D06A0A8
:101C0000FFF7D8FF641CAC42F8DB05A0FFF7D2FF5A
:101C100070BD0000C0330020253032782000000065
:101C20000D0A00000448804704480047FEE7FEE72D
:101C3000FEE7FEE7FEE7FEE7491C0010C1000010CA
:101C4000044903480860704702490148086070472A
:101C50000024F400AC300020F1B5F6488047074678
:101C6000F54880470646F34C0120183CA047F24D4A
:101C700000200C35A847F149009888473046A8470E
:101C80003846A047F8BDF0B5ED4DEE48E96885B09F
:101C90000818044603F051FA2146401C03F057FA95
:101CA0000024E7480125C668E6480C38311803913E
:101CB000487C097C00020843A540284202903BD0A2
:101CC0000B2060438119DF4800910930081801900A
:101CD00003F033FA0746DB48301803F02EFA874248
:101CE0002AD10F21009889014018007D00280CD0CE
:101CF000D44A00990D3A8A18517D127D0902114388
:101D00007818019903F023FA05E002980399A84393
:101D10000874000A4874CB4800990D30081803F085
:101D20000CFA002808D0022D19D0042D17D0082D48
:101D300015D0102D1AD08047641CE4B20A2CB0D301
:101D4000BF48C168BF480C380918487C097C0002AC
:101D50000843800501D1BC48804705B0F0BDBB49B0
:101D6000012088470028E7D0222005E0B74901205C
:101D700088470028E0D03B20FFF76EFFDCE710B576
:101D8000AF4912200969887072B60121AE4A03205A
:101D9000B43A904762B610BD10B50C4601788CB0CD
:101DA0000A07120F69460A700178CA0969464A7023
:101DB000811C00A80622023003F08EF908A90C72DB
:101DC000012129220905A24C6B460020A0470CB036
:101DD00010BDFEB500206946087108709D4F08725D
:101DE0009D4E974CB847E07102AB6A4601A9606905
:101DF00002F04EFA00284ED00820B047002803D049
:101E00000220B04700280FD068460078012811D082
:101E1000E0686569407A01283ED00228E2D18F4A05
:101E2000E17928469047DDE7012168460170007A94
:101E300000282DD02521E06849014118497B6569BA
:101E4000002908D07F49D4314018417B027B080229
:101E5000834910438847284602F070FA0028C1D011
:101E600068467E4A01799632606990472878C04377
:101E70008007B7D1A8781228B4D1216913208870BF
:101E800072B60121704A0320B43A904762B6A9E7BE
:101E90003D20FFF7E1FEFEBD28780007000F052872
:101EA00006D003289ED1E1792846FFF775FF99E710
:101EB000687E297E00020843062805D3687F297FB3
:101EC000000208430A2803D25C491220884789E7A8
:101ED0006049EE31A81C8847287887224006C10F48
:101EE000E06811540622A91C883003F0F5F8372168
:101EF000206903F00AF975E7F0B5544999B0042058
:101F0000884700280ED0514904201A3188474E498D
:101F10001F20AC318847534880471620FFF79CFEAE
:101F200019B0F0BD50488047002810D0444DEC68EF
:101F3000A1790807F4D5E079C2071CD04B492046A7
:101F400098308847E868C179490849001FE0464E43
:101F5000444F444DB2361C376C46103507E0684696
:101F6000B0470128DCD168460178601CB847A84713
:101F70000028F4D0D4E782070BD53C4A20461C3217
:101F80008E30811C9047E868FD22C17923E0C17141
:101F9000C6E7420708D5354920466031A830884752
:101FA000E868FB22C17916E00207F726002A09DA61
:101FB0002E4A21464232A07A0B319047E868C17917
:101FC0003140E4E7C00608D5284968467C31884797
:101FD000E868EF22C1791140D9E720463140FF304F
:101FE000A1712130017D0026002910D006752146FF
:101FF000072287310CA803F06FF821460DA82A228A
:102000008E31033003F068F819490CA88847012085
:102010006946087048708E70E96800A82A2203306B
:102020008E3103F059F82D220821094C6B4600200F
:10203000A04775E7BF650000776A0000CF16000073
:10204000B0300020CE03000001120000F50A0000AD
:10205000A13E000049570000791900008B1E0000C6
:102060002B620000BD600000054E00002726000026
:10207000DF470000FE490128896A0FD0022811D0ED
:10208000042812D0082813D0102814D0202815D0E6
:10209000402816D0802818D0012070478878C007C3
:1020A000C00F7047887880070DE0887840070AE005
:1020B0008878000707E08878C00604E08878800602
:1020C00001E088784006C00F70478878C0097047E3
:1020D00010B5017801291FD1401C03F02EF8E44A05
:1020E00010283AD00DDC012817D002281DD0042872
:1020F00023D0082810D1FFF7BDFF00280CD1DD4800
:1021000009E0202839D0402806D1FFF7B3FF002886
:1021100002D1D8485430804710BD0120FFF7AAFFF4
:102120000028F9D1FFF7E8FE10BD0220FFF7A2FF5B
:102130000028F9D1FFF74DFE10BD0420FFF79AFFEC
:102140000028F9D1D068407A012803D00228F3D1C1
:10215000C948E0E7C848AE38DDE71020FFF78AFF3E
:102160000028E9D1906A2030407D400701D53E200B
:1021700000E00820FFF770FD10BD2020FFF77AFF78
:102180000028F9D1BB484830C5E770B510250826AE
:10219000B74C002821D0A06A817E31438176014668
:1021A00060310A7E637852095201DB06DB0E1A4366
:1021B0000A762030427B067B1302E26833432332E7
:1021C000547C167C22023243934214D00273120ACA
:1021D0004273C87D2843C8750DE002F046F8A06A36
:1021E0000022014620310A734A736030C17D2943C1
:1021F000C175A2480677012070BD9D48C068233094
:10220000417C027C080210430BD09D4948780A7833
:1022100000021043032210430870000A4870012096
:10222000B3E7704730B4974CA44630BC6047F8B56C
:102230009348407A000663D58D48C66830462330FF
:10224000417C007C0F028E490743487809780402DC
:102250000C43002F01D1600752D5894DA87B697BC3
:1022600000026D1C08434BD0002F49D068792979B2
:10227000000208432ED12136707C317C00020843D5
:1022800003F076F90022804B03F076F803F07EF934
:1022900080B27843642102F00BFF4004010C2971E5
:1022A000080A68710A204143707D327D00021043A4
:1022B000814206D30A21401E02F0FAFE2871000A6C
:1022C0006871687929790002084303D101202871D7
:1022D000002068716A48A10709D502218C430121B9
:1022E0000C430470210A41700020FFF74EFF68790B
:1022F0002A7901021143654B00224020FFF792FF2B
:10230000F8BD1CB55E494A7A002A40D04A780B785D
:1023100012021A43D3063AD44378047818022043B1
:10232000012834D1C878401E0006000EC8702FD096
:102330008B780846017BC47A0A022243017AC47969
:1023400009022143C01C012B2AD0521A0272120A20
:1023500042721206037A120C1A43521A69460A8014
:10236000427A017A120612140A4369464A804449A5
:102370008A7B497B12020A4369468A80417B027B41
:10238000080210436946C8804149684688471CBD19
:10239000887AC870402002430A70100A48701CBD39
:1023A0005218D3E73B4A10473A4A2032104738B513
:1023B000002469460C7021467F20FFF7F5FF0021BD
:1023C0003B20FFF7F1FF29213B20FFF7EDFF694696
:1023D0003B20FFF7E7FF68460078800701D5012022
:1023E00038BD641CA4B2FF2CF1D9002038BD10B553
:1023F00029488047012010BD10B51D49274A887023
:10240000002807D1C8688078022803D000209047B0
:10241000012010BD0120FAE710B5154C0128E16834
:10242000887004D000284ED0022863D076E0206B5C
:10243000014620310A78520852000A700A78FD23BA
:102440001A400A700178890989011C3101704178AC
:10245000890989011C31417000217F20FFF7A4FF09
:1024600003212120FFF7A0FF1F21032018E0000017
:10247000B03000207916000027150000200002402F
:1024800097340020AB4400000000F43FFB21001013
:1024900033420000C561000007470000A765000047
:1024A000FFF782FFFC493220884702217F20FFF797
:1024B0007BFF01210020FFF777FF00217F20FFF73E
:1024C00073FF0F2127E000217F20FFF76DFF002120
:1024D0000420FFF769FF02217F20FFF765FF00213D
:1024E0000846FFF761FF00217F20FFF75DFF002115
:1024F000032011E002217F20FFF756FF0321002077
:10250000FFF752FF00217F20FFF74EFF002103203D
:10251000FFF74AFF00210420FFF746FFA078FFF7EE
:102520006BFF012010BD10B5FFF776FF012010BD35
:1025300010B5DA488047DA48C06A017ADF221140D4
:102540000172012010BDFEB5D54C01202071D54887
:1025500080470190E06A817A007ACF07FF0F00265A
:10256000C506D149ED0E4878097800020843800677
:1025700008D5A06A2030417B027B0802104301D0BD
:10258000FFF755FEA80702D00126FFF7D1FFC44888
:10259000C06A817A490849008172C249012018390C
:1025A00088470220FFF738FFBB4964201A39884763
:1025B000002469460C70254601217F20FFF7F4FEB8
:1025C00000210A20FFF7F0FE22210A20FFF7ECFE8F
:1025D00069460A20FFF7E6FE684600784007EFD418
:1025E00069460A20FFF7DEFE68460078400705D5F9
:1025F00068460078000706D4012504E0641CAB4857
:10260000A4B28442ECD3A44964201A39884700203C
:10261000FFF702FFA349019818398847A04CE06AE8
:10262000817A4908490039438172002E02D09B48C3
:102630000C38804700202071002D01D00120FEBD04
:102640000020FEBD10B51121974802F05EFD10BDBF
:1026500070B50446401C02F070FD022818D0042812
:1026600019D00121490488424AD125462035687B8A
:10267000092301070209090F0020072A1FD0032A96
:1026800023D0022A28D0012A2CD0002A30D035E0CD
:10269000FFF7D8FF3DE0824D0121E868FF3021308F
:1026A000017501F096FEE8688078002804D1287949
:1026B000002801D1FFF747FFFFF779FE29E0581AFC
:1026C000062148434121C94304E0581A06214843E2
:1026D0003521C943081A10E0581A0621484323211E
:1026E000C943F7E7581A062148431721C943F1E7C0
:1026F000581A06214843801D404240B2687308E0E2
:1027000040281DD00121C903884202D1601DFFF776
:10271000F8FD65494878097800020843800607D526
:10272000601C02F00AFD0005000F01D0FFF77FFDDD
:102730005B483C3002F001FD01462046884770BDF1
:102740005748383002F0F9FC4006E2D570BDF0B5CC
:10275000534C0646E0688DB0FF302130407C0D467A
:10276000002829D0002D26D072B6A068183002F0BB
:10277000E4FCE1683222FF312131897C4C4B51432A
:1027800040186A463221984762B6002E04D0E068AD
:10279000FF302130807C3070E7680A21FF37213715
:1027A000B87C401C02F06EFCB974E078401CC0B2EA
:1027B000E0700A2802D900200DB0F0BD684600780C
:1027C0000128D1D100A907222846013102F084FC5A
:1027D0002A22E81D02A902F07FFC0120ECE7F0B5F7
:1027E000054634498DB0202088472D4C0426E168E9
:1027F00020690F4686700822C01CC931BD3702F01F
:102800006BFC2069042239460B3002F065FC0D2177
:10281000294A03209047E068294608220A31C1303E
:1028200002F05AFCE068294604221231B93002F065
:1028300053FC287A214F002802D1687A00281FD043
:102840000020E070E0682A7A01468030837B9A425B
:102850000AD16A7AC07B824206D10822284690318A
:1028600002F05EFC00282DD069460020FFF76FFFC4
:1028700001283BD006220021114B012098479BE7FD
:10288000E06802228179114302468171C132FF3032
:1028900011461030B84726E045620000134700009B
:1028A000B0300020BF65000097340020FFFF00001B
:1028B00059530000050B00004D11000019220000C3
:1028C000D9190000E0688179024631438171C13233
:1028D00011469830B847E06880308079012802D1ED
:1028E000FE4902208847FE48804765E7E06801A965
:1028F0002A228E30033102F0EFFBA3E77CB5451CA2
:102900008078297800020843F64C022810D00F285E
:1029100010D001211D2810D0FF3810280DD0F24A08
:10292000694601209047687829780002084302E050
:10293000032000E00220A0717CBDA1717CBDE948AC
:1029400080797047E94908471CB5E94808210170BA
:1029500000214170017BC27A0902C01C114341D0A1
:102960004279037912021A43891A0BB26A4613801C
:10297000417A027A0906091411436A4651801922E4
:102980000624D201062B02DA6B461C8003E0934238
:1029900001DD6B461A80062902DA69464C8003E0A5
:1029A000914201DD69464A80417B027B0802104367
:1029B0006946C880CE48817B427B08021043694645
:1029C0008880C848C0682330417C027C08021043DC
:1029D00002D00020FFF7D9FBC64968468847C349A3
:1029E000402088471CBDC24948780A78000210433D
:1029F000C2050CD5FF22013290430870000A4870CE
:102A00000879401E0006000E087109D09CE72022BC
:102A1000104310229043042210430870000A4870AB
:102A20007047FEB5B24D0446687829780002084325
:102A300000077DD5B048804769782A78090211439C
:102A40000822914329700A0A6A706B7A0646284662
:102A50001A066ED5A27967791202651C3A43A14F16
:102A6000E41C002A77D01022114301700A0A427038
:102A700088065ED4687929790002084332D002F0D2
:102A800077FD01910090607821780002084302F000
:102A90006FFD9A4C0022234602F06EFC019B009AC7
:102AA00002F06AFC01910090F8682130417C027CC0
:102AB0000802104302F05CFD0022234602F05CFC99
:102AC00007460C46687A297A00020843801B02F008
:102AD0003BFD3A46234602F04FFC019B009A02F070
:102AE00099FB24E0607821780002084302F024FD7D
:102AF0000446F8682130417C027C0802104302F051
:102B00001BFD214602F02CFB02F05EFD00227B4BF8
:102B100002F032FC07460C46687A297A0002084324
:102B2000801B02F011FD3A46234602F025FC02E02C
:102B30006EE064E00FE00022714B02F085FC02F0D1
:102B400025FD0104090C00D101216E4B00228020DB
:102B5000FFF768FB53E09A0651D58278012A4ED1DF
:102B60008A064CD4FF226248013211430170090ADF
:102B7000417060782178000208435D490A7BCB7A76
:102B80001102194388423AD902F0D6FC0446F8688B
:102B90002130417C027C0802104302F0CDFC21462A
:102BA00002F0DEFA02F010FD0022544B02F0E4FBCA
:102BB00007460C46687A297A00020843801B02F017
:102BC000C3FC3A46234602F0D7FB00224C4B02F0EE
:102BD0003BFC02F0DBFC0104090C00D10121494B54
:102BE00000228020FFF71EFB41484178027809024D
:102BF0001143FF22013211430170090A4170032081
:102C000069460881022291033F4C02AB0020A04795
:102C1000FEBD10B50446007800280DD1A178627879
:102C20000802104309D001281ED0032827D00C2801
:102C300002D1201DFFF762FE10BD01F016FB3349E3
:102C4000201D8847002802D12820FFF705F8201D05
:102C5000FFF7E7FE23480121C3680622090400208C
:102C6000294C3133A04710BD01F0FFFA2849201D3F
:102C700088470028F7D12820FEF7EEFF10BD201D61
:102C8000FFF7ADFD10BD10B50078012801D1FEF7AA
:102C9000FAFF10BDF0B51F4885B0804701217F20A5
:102CA000FFF782FB69465020FFF77CFB68460078FF
:102CB000042801D018488047FFF779FB094CE068E9
:102CC0008078012866D002287ED0FFF73CFC0125E1
:102CD0006846458005801148019021E0050B000001
:102CE000791A0000B03000201F1D0000B34400001E
:102CF0009734002033420000BF5500000000F43F2D
:102D000000005940E7290010A13E00005D5B000073
:102D1000475F0000793D0000F7460000872C001057
:102D2000FE4968468847684605704570002545801D
:102D3000FB480190FB4BE06808226946C01802F08E
:102D4000CBF90121F84E4020B04701218020B04747
:102D500001212020B047FF210C31684601800B2162
:102D600041808580C580058145818581C581EF4889
:102D7000EA4904906846A2398847A0680A3002F000
:102D8000DCF9EC4BEA4A5721984701F022FB01207D
:102D900005B0F0BDE84880470090E06A067A817A85
:102DA000CD07817AED0F490849008172E24F012079
:102DB000183FB847B00701D0FFF7BAFB0220FFF772
:102DC0002BFB6420DD4900E00CE088470120FFF781
:102DD00023FB0098B847E06A817A490849002943F3
:102DE000817274E70220FFF717FB70E710B5D44833
:102DF0008047012010BDD24910B51E3188470120FF
:102E000010BDCF4910B554318847012010BDCC49C1
:102E100010B560318847012010BDC94910B56E3129
:102E20008847012010BDC64910B57E318847012072
:102E300010BD10B5C24CE634A047012010BDF8B556
:102E4000C04CC149E0683730884720693B2301788E
:102E5000BF250A09E16812015B5C1B071B0F1A43BF
:102E600002701207120F012A79D00B4640335A78AC
:102E70001B7812021A430B4642331A70120A5A7018
:102E800002788B7A2A409B011A435206520E027036
:102E900066235B5C42789B1D92099B0692019B0E08
:102EA0001A4342700622801C0B3102F015F9E168CA
:102EB0006620425C002A04D020696731083002F0A5
:102EC0000BF9E06800212030417720699F4A417862
:102ED0008906890E891C9047206901780A09120128
:102EE000121D0270E1682A408B7ADB075B0E1A43E1
:102EF000027046235B5C42789B1D92099B069201FF
:102F00009B0E1A4342700622801C0B3102F0E4F83B
:102F1000E1684620425C002A04D02069473108302D
:102F200002F0DAF82069894A41782C328906890E44
:102F3000891C9047E068012705462035E97E012974
:102F40003BD000294CD002294AD0062948D0002382
:102F50007F4C1A4601211846A047F8BDFFE70A46F4
:102F60004032137953718B7A0278DB072A405B0E6B
:102F70001A43027087235B5C5206520EDB011A4330
:102F8000027042780B31920992010C324270062293
:102F9000801C02F0A1F82069E1680622083088311F
:102FA00002F09AF8E16803223D204254664A8720E5
:102FB000405C323A8831904787E7403041790029B8
:102FC0000AD028200621A26A937EFD24234093760E
:102FD00017756B7F2A7F43E0477101200146F2E7B6
:102FE00006464236717832780B02134317D0192106
:102FF00089014B432230417F047F08022043012294
:103000008004800C009006D00146184602F03AF881
:10301000421C7F2A10D8D4B23770380A14E03770B7
:10302000390A71702230417F027F08021043012467
:103030008004800C009008E07F24104621467E30FA
:1030400002F020F83070000A70703E48806A817E7D
:1030500002221143817607756B7F2A7F00992046F3
:10306000314CFE34A0473B48804776E710B5FFF768
:10307000E6FE012010BD10B53749032008702F4926
:1030800064201A31884735488047012010BD72B648
:1030900000212C4A906A4175037C01210B43037483
:1030A000D06845221154423001700021417062B64F
:1030B0000120704710B52A498847012010BDF0B59E
:1030C000204CA56A2C4660342678FD27C0073E4078
:1030D000800F06432670A170627062352B71180A4A
:1030E000687105982071000A6071F0BDF8B5154D42
:1030F0001549E868373088471120EF6800248001BF
:103100003D186E79A8790321401C01F0BBFF012016
:103110008840A971064228D1641C23E02F44000096
:10312000D1200010CE02000061550000132C0010C9
:103130004034002059530000BF6500002B6200009E
:10314000833D0000B0300020B1570000D96000007E
:10315000A13E00009D56000000000240074700000D
:1031600001410000E4B2032CCCD31125AD017C1940
:10317000607B217B00020843A91C7F18010AF24EE4
:103180003873797300280BD0607A227A01021920F3
:103190001143800101F076FF0206120E04D004E014
:1031A00001203873002078730122787A397A00027E
:1031B00008430090607A217A03020B43A079E34927
:1031C000095CE079FFF77BFFF0680021401901718D
:1031D000C170017441748178002901D0082901D996
:1031E00008218170DA488047B7E610B5FFF77EFF07
:1031F000012010BD10B5D7488047012010BDD5492A
:1032000010B508318847012010BDD24910B51631DC
:103210008847012010BDCF4910B57831884701207B
:1032200010BDC949487001207047CA4910B58631A0
:103230008847012010BDC74A10B58E329047012043
:1032400010BD7CB5054601F078FFBF490446383112
:1032500001F07DFF281D01F070FFBB493C3101F0FA
:1032600076FF40208443BC48BA49019000946846E8
:103270009631884701207CBD10B5B84988470120A8
:1032800010BDB64A10B508329047012010BD10B5E8
:10329000B3488047022801D9002010BD012010BD8D
:1032A000F8B50E46AF49074648780978000208434A
:1032B0001C461546800609D5A348806A2030417B0C
:1032C000027B0802104301D0FEF7B1FFA64901209E
:1032D000884700280CD0A2488047022809D972B636
:1032E00023469E4C2A46314638461834A04762B6DB
:1032F00033E6002031E69D49084710B504469A4957
:1033000001208847002803D0984920460831884783
:1033100010BD70B50546944A0C4601209047002820
:1033200004D0924A214628462232904770BDFFB50C
:103330000F4681B08C491D46164601200A9C8847DD
:10334000002807D00094894C2B4632463946443435
:103350000198A0471CE5F8B50E46074682491C4671
:10336000154601208847002806D023467F4C2A4670
:10337000314638467C34A047EFE510B504467A491B
:1033800001208847002803D078492046AC3188477F
:1033900010BD70B50546744A0C46012090470028C0
:1033A00004D0724A21462846C632904770BD70B597
:1033B00005466D4A0C4601209047002804D06B4A10
:1033C00021462846E832904770BDF8B50E460746BC
:1033D00065491C46154601208847002805D023462C
:1033E000634C2A4631463846A047B6E570B50D46CF
:1033F00006465D49144601208847002805D05C4BED
:103400002246294630463033984770BD70B50D4688
:1034100006465549144601208847002805D0544BDC
:103420002246294630465C33984770BDF8B50E46B3
:1034300007464D491C46154601208847002806D0FE
:1034400023464B4C2A46314638468834A04784E50B
:1034500010B50446444901208847002803D0444958
:103460002046B831884710BD10B53F490120884734
:10347000002802D03E48CC30804710BD70B5324D98
:103480000446082804D0E868407808280DD014E0E5
:1034900000217F20FEF788FF01214020FEF784FFF6
:1034A000E86A0178C908C9000EE000217F20FEF714
:1034B0007BFF00214020FEF777FFE86A0178620772
:1034C000C908C900520F11430170E8684470012017
:1034D00070BDD3E710B50446264880472070012010
:1034E00010BD10B504462348801D80472070012080
:1034F00010BD204910B51C318847012010BD1D4862
:1035000010B572308047012010BD1B4800471B4991
:1035100008471A491A31084708B5194968468847C3
:103520006846C0788007C00F08BD08B514496846D2
:1035300088476846C078C00900D0012008BD10B592
:10354000FEF730FF10BD0000B03000204EB200107A
:10355000255700001D420000512600102D43000099
:103560002B4E000097340020F50A0000B73A000007
:10357000BB3B00009F440000FB5F00002B6200008B
:103580004D65000010B5FEF70FFFDBE7FE48806ACF
:10359000C07B052805D0062803D00F2801D00020C5
:1035A00070470120704710B5FFF7F0FF002801D1E8
:1035B000F64880470120C5E710B5F3490122886A23
:1035C0004275437CDB09DB019B1C4374931E8374AF
:1035D0001B0AC374C96ACB7AEF242340CB724B7B9E
:1035E00093434B738B7A13438B72817E022319436F
:1035F0008176017C11430174E54905208847E5483F
:10360000804701209EE7E34810B512308047012033
:1036100098E710B5E0498847012093E7DE4910B5E7
:103620001831884701208DE7DA4910B558318847AD
:10363000012087E7D749AC310847D64910B5FA31A0
:10364000884701207EE710B5D4488047012079E7FC
:10365000D24810B518308047012073E7CF4BA23312
:103660001847CE4BD8331847F8B50746C64800264A
:1036700080680D463446283001F05FFD2903C919E2
:103680004118C148406B814211D9002065E472B6EF
:10369000BD488068283001F050FD2103C919401849
:1036A000BF4A01219047064662B6641CE4B2AC42B0
:1036B000EDD3304651E4F8B5B34D0446A86817463B
:1036C0000E46283001F039FD0146A21980186A6BB8
:1036D00090420AD8002908D072B60819B04B3A4671
:1036E0003146EA3B984762B637E4002035E4F8B546
:1036F000A54D0446A86817460E46283001F01DFD6A
:103700000146A21980186A6B90420AD8002908D095
:1037100072B60819A24B3A463146823B984762B6C8
:103720001BE4002019E470B59E48002400789C4EEC
:10373000954D00280DD001281ED024E072B614301B
:1037400001F0FBFC210340180121B04762B6641C64
:10375000E4B2A868C17B827B09021143A142EDD883
:1037600011E072B6103001F0E8FC2103401801218D
:10377000B04762B6641CE4B2A868C17B827B0902D0
:103780001143A142EDD8012070BD70B504460D462D
:10379000000B42197C488068C17B837B0902194376
:1037A0008A4201D9002070BD7E497D4E09780029EA
:1037B00002D0012903D00AE072B6143001E072B6DB
:1037C000103001F0BAFC00192946B04762B601205A
:1037D00070BDF8B5044673480F4601786A48704DCD
:1037E0008068823D1646002902D0012903D00BE0F3
:1037F00072B6143001E072B6103001F09EFC001970
:1038000032463946A84762B601202EE430B45E4BFA
:103810009C68E37BA47B1B0223431B03834202D2ED
:1038200030BC0020704730BCD3E730B45E4CA446B7
:1038300030BC6047F3B5544889B080680024283014
:1038400001F07BFC074609984609002511E072B695
:103850006801534BC01920216A46EA3B984762B67B
:10386000002069460A5C401C121994B22028F9D342
:103870006D1CB542EBD30998C606F60E72B63146FA
:103880006801474BC0196A46EA3B984762B6002078
:10389000694603E00A5C121994B2401CB042F9D3A5
:1038A0000A98844202D101200BB0F0BD0020FBE752
:1038B000F8B538488A3880473A4C5734607A00283F
:1038C00040D00006042500280FDA60782178000235
:1038D0000843400709D5FEF7AAFC6078217800026A
:1038E0000843A8432070000A6070607821780002C5
:1038F00008432E4F2E4E41060CD5402188432070A0
:10390000000A607002206946088002466B4639460C
:103910000020B0476078217800020843C10711D029
:10392000400840002070010A6170800702D5684697
:10393000058002E005206946088002226B46394670
:103940000020B04750E41B48004738B50E4C2078A3
:10395000002805D1104968467E398847012020702B
:10396000012038BDF8B50278002A74D00D495731CE
:103970004A7242788A72002A01D0042A01D90422AC
:103980008A72C278847817E0B0300020F1440000D9
:1039900045620000E5460000CB65000003480000DA
:1039A00043540000403400207B4A000000800000A7
:1039B000A13E0000F94B000013022343FB4A1C0AFE
:1039C000D37214734479057924022C4315466C7321
:1039D000240AAC73C479857920022843D073000A85
:1039E0001074F3480827C068D21C2130447C007C46
:1039F000240204430120A34214D900258D701B1B0F
:103A00008C7AA34204DA1071000A50718B7216E0AE
:103A1000E400A34202DA1071000A01E01771380ACB
:103A200050710CE088708E7AE51AB5420FDA060AFA
:103A3000107156719C4201D1887200E08D72887AB3
:103A4000C8700871FEF780FF012051E403E0F30025
:103A50009D42E3DADFE700204AE4D549496A08706D
:103A6000020A4A70020C8A70000EC870487A02225C
:103A700010434872704738B5044600200090CD4985
:103A8000684688470099F8208143E006000E084305
:103A90000090FFF7E2FF38BD08B500200090C5494F
:103AA0006846884700980006C00E009008BDC148CF
:103AB00072300047BF495A310847BF490847BE49DD
:103AC0001A310847BD480047BC490C310847F8B5D2
:103AD00000260B4604460125304631462D03675C1F
:103AE000491CBE19A942FAD30021675C491C7840E1
:103AF000A942FAD39E4222D1904220D1AC4EB06866
:103B00000A3001F01AFBA94900195722573901F070
:103B1000E3FAB0681C3001F010FBF16800190722CD
:103B20000A3101F0D9FA0121A54A00209047A44B9F
:103B3000002022462946823B984701201CE40020B1
:103B40001AE470B501260546994C36039C4B0020BB
:103B50003146EA3BA26998479A4928468847A068B7
:103B60001C3001F0EAFAA16907224018E1680A3125
:103B700001F0B2FA0121924A00209047904B0020B8
:103B80003146823BA269984770BD10B5044688480B
:103B900080680A3001F0D1FA894B1021EA3B2246B5
:103BA00057309847CEE470B501260546804C360361
:103BB000834B00203146EA3BA26998470121804AA5
:103BC00000209047A0680A3001F0B7FAA1691022DE
:103BD00057314018294601F07FFA794B00203146D1
:103BE000823BA269984770BD714840690178C9431A
:103BF000890702D18078062801D000207047012073
:103C00007047714A1047F3B581B0060025D0684F60
:103C1000386A0446C17980790D020543E01C01F041
:103C20008CFA0102A07801430C46002D17D0002C1D
:103C300015D00121624B09030020EA3BBA6998477D
:103C4000B8680A3001F079FAB9696731405C401C04
:103C5000C7B2032F05D90220FEBD0120FEBD0420FE
:103C6000FEBDB54204D10298844201D10020FEBDC0
:103C70000121534A002090474D4CA0680A3001F0C2
:103C80005CFAA2694E4B1146673147540121090382
:103C90000020823B98470320FEBD08B54549684691
:103CA000884700984108C90701D0002008BD0221BB
:103CB00008434049009028318847012008BD3B480F
:103CC0000121573802783A4809078068002A03D052
:103CD000012A07D000207047C27B837B1002184363
:103CE000400304E0C27B837B1002184300034018AA
:103CF000704770B504462D480D46573801782C485A
:103D00000126B6038068002903D0012903D00020D2
:103D100070BD143000E0103001F00FFA801972B657
:103D20000019274A2946904762B670BDF8B5054686
:103D30001E480F46573801781D480124A4038068A7
:103D40001646002903D0012903D000209EE4143038
:103D500000E0103001F0F1F9001972B64019184B6B
:103D600032463946EA3B984762B68FE4F8B50546D5
:103D70000E480F46573801780D480124A403806887
:103D80001646002903D0012903D000207EE4143018
:103D900000E0103001F0D1F9001972B64019084B5B
:103DA00032463946823B984762B66FE4973400202A
:103DB000B03000204D6500002B620000776A0000E3
:103DC00043540000A13D0000D960000010B503007D
:103DD00001F0ADFD09060C16202A343E415B770048
:103DE00001217F20FEF7E0FA882104E001217F20F5
:103DF000FEF7DAFA8A216120FEF7D6FA81215DE02A
:103E000001217F20FEF7D0FA8A216120FEF7CCFA4B
:103E1000832153E001217F20FEF7C6FA8A21612029
:103E2000FEF7C2FA872149E001217F20FEF7BCFAA4
:103E30008A216120FEF7B8FA8F213FE001217F201F
:103E4000FEF7B2FA8A216120FEF7AEFA9F2135E033
:103E500001217F202BE000217F20FEF7A5FA02211F
:103E60003020FEF7A1FA01217F20FEF79DFA1F21E5
:103E70006320FEF799FA03216D20FEF795FA8A2157
:103E80006120FEF791FAB02118E000217F20FEF7B3
:103E90008BFA02213020FEF787FA01217F20FEF7FE
:103EA00083FA1F216320FEF77FFA07216D20FEF7BA
:103EB0007BFA8A216120FEF777FABF216520FEF7A1
:103EC00073FA6FE610B5F74CA068283001F035F9A9
:103ED000616B081A66E6F44800787047F8B5054645
:103EE000F04EF148B26900781446002801D0002055
:103EF00016E4280502D02805000D2D1A72B60121FE
:103F00000903EA4F0020B84762B6706B2146401B98
:103F1000283101F01CF905462046103001F00DF95A
:103F20000090281A4108009808182146143101F021
:103F30000EF901460098081A0001000CA073000A4F
:103F4000E07372B60121D94A0020EA32904762B686
:103F500072B60121D54B090300206833B269984736
:103F600031210020B268B84762B601204DE4CD4847
:103F7000CC4BC079DB7902091B0709201B0FC01A43
:103F8000062300215843072A08D0032A09D0022A11
:103F90000BD0012A0CD0002A0DD00FE04121C943DB
:103FA00001E03521C943081A07E02321C943FAE794
:103FB0001721C943F7E7801D404241B2C8B270479C
:103FC000F3B5BB4EBB4F8DB00546002432226B4685
:103FD00021460320B04768464088A84206D168467B
:103FE00001790E98017001200FB0F0BDB84204D0E5
:103FF00068460088001984B2E8E70020F4E7F3B5CA
:10400000AB4EAC4F8DB00546002432226B462146A4
:104010000320B04768464088A84208D1241DA1B2B9
:10402000012203200E9B00F0E3F90120DCE7B842F7
:1040300004D068460088001984B2E6E70020D3E780
:10404000F3B59B4E9B4F8DB00546002432226B4644
:1040500021460220B0476846817842780802104322
:10406000A84205D1684641790E9801700120BBE74E
:10407000B84204D068460078001984B2E6E7002010
:10408000B2E7894910B557314878097800020843EA
:10409000800603D5FEF7CBF8012083E5002081E5FB
:1040A000854B184710B504467E4880680A3001F0F9
:1040B00044F808217D4B22466730984772E570B579
:1040C000054672B6774C01263603784B3146002000
:1040D000A2699847754A01210020EA329047A068FA
:1040E0000A3001F02AF8A1690822673140182946F0
:1040F00000F0F2FF6D4B002031466833A26998470B
:1041000062B670BD6D49082008476649486370472C
:10411000FEB5644D0027A868801D01F00EF8634EBF
:1041200001AA0621B047002823D000241CE0A8687B
:10413000801D01F002F861006118891D40186A466F
:104140000321B047002814D068460078032809D11D
:10415000684640787F2801D169468F78012F01D1C8
:10416000572807D0641CA4B268460089A042DED854
:104170000020FEBD68468078FEBDF1B5494E84B092
:10418000B0680027801D00F0D8FF484D01AA062125
:10419000A847002823D000241CE0B068801D00F050
:1041A000CCFF61006118891D40186A460321A847A9
:1041B000002814D068460078032809D16846407862
:1041C0007F2801D169468F78012F01D1572808D067
:1041D000641CA4B268460089A042DED8002005B065
:1041E000F0BD72B601273F0339460020B269A847E7
:1041F0002E4A01210020EA329047B068801D00F06D
:104200009CFFB26904998318600020180830195483
:10421000264B002039466833984762B6DFE77FB502
:104220000D464B21090608430290002424480394BC
:10423000804700940194224C012105202B4602AABC
:10424000A83CA0471E481C3080477FBD7FB506466E
:1042500000246D4629192046FFF7E1FF285D3055FF
:10426000641CE4B20F2CF5D37FBD10B500F0F7F855
:10427000002804D000F0F3F80128FBD092E400F00D
:10428000EEF80028FBD000F0EAF80128FBD089E422
:10429000F0B5044C0025A46AE678360712D5002054
:1042A000F0BD0000B0300020403400205953000021
:1042B000C9280000FFFF0000192200007919000042
:1042C0001D50000000BF6D1CEDB2642DFAD32546D1
:1042D00040356E7CB607FCD400252646C0363779BB
:1042E00047556D1CEDB2022DF9D346780125F7092B
:1042F000002F08D0F606F60E0E70157042785206A2
:10430000D20F1A7004E0B3069B0E0B7000231370DB
:10431000594B0A789B6A801CC033272A0CD2002292
:10432000C03403E026798654521CD2B20E789642ED
:10433000F8D85D720120B3E75D72B0E710B502787E
:1043400000219207920F4C4B012A39D0022A0CD03F
:10435000032A33D182780E2A2FD84078474BC006E3
:104360009A5CC00E904228D028E04278D206D20E45
:10437000042A07D9C278847812022243172A01D866
:10438000012200E000225A71002A17D041790279F7
:1043900009021143052910D006290ED1C17882786F
:1043A000090211438079354A40000F3280184038A5
:1043B000C08F814201D0002100E00121084680E544
:1043C00059790029F7D04078C006C00E1728F4D9D3
:1043D000F1E770B52A4D0024274EA847F168091966
:1043E000FF310131641CE4B2C873102CF5D370BDE9
:1043F000FFB5214C0200E06981B01E460D4606D093
:10440000012A06D0022A06D0032A06D009E0001DA0
:1044100004E0083002E00C3000E0103000F08DFEC7
:1044200001464D1972B601273F03164B394600204D
:10443000A269984762B6A06931464019039A00F014
:104440004BFE72B601210F4A0020EA3290470D4B15
:10445000002039466833A269984762B6BFE606482D
:10446000816A0A466032907C927C603101E0887CEF
:104470008A7C9042FBD17047B030002051B20010CE
:10448000FB5F00005953000070B51E46002915D08F
:10449000FE4DAC696B699C4210D205C40846083CCD
:1044A00001F066F8FA4AFB4B00F066FF01F06EF887
:1044B000A0602673002060611834AC6170BD884232
:1044C00000D308467047002206E00021491C89B24B
:1044D0001829FBD3521C92B28242F6D3704710B512
:1044E000EA4C60682030017CC9070FD0017C490884
:1044F00049000174082000F0CCFA60682030417C4B
:104500000122114341743220FFF7DDFF10BD70B569
:10451000DE4C0D46616803462031087CC00706D09A
:10452000087C4008400008743220FFF7CCFF626826
:1045300020321375180A5075180C9075180ED07526
:10454000107CEF2108401074907C4008400090746B
:10455000D1480560507C012528435074082000F0A4
:104560008FFA60682030017C2943017470BDCEE76A
:1045700070B5C64D18212878AE68484369690C1A91
:104580002869801928610020C043A86018E0207BBA
:10459000002814D02069B04204D16068002807D0F8
:1045A000804705E0801B206102D0A168884201D9C4
:1045B000A0682061A968884200D90846A86018341C
:1045C00068698442E3D3A868002805D0411C03D061
:1045D000B249FFF7CCFF70BDFFF781FF70BDF0B5AA
:1045E000AA48AF4D416840310B7918464B791B0200
:1045F00018438B79CA791B04184312060E791043AD
:1046000032464E79360232438E79CB7936043243C4
:104610001B060F791A433B464F793F023B438F7984
:10462000CE793F043B4336063343641C904201D1AC
:104630009A4201D0AC42D7D3F0BDF8B50446FFF79B
:10464000CEFF924A91680B1A13610023884200D969
:1046500013610020C04390601178182041435069D5
:104660001769411A17E00D68A54202D10B734B611F
:1046700010E00D7B002D0DD00D69ED1B0D6102D0FA
:104680008E68B54201D98D680D619668B54200D833
:104690002E46966018318142E5D39068002805D0F7
:1046A000411C03D07D49FFF762FFF8BDFFF717FFFC
:1046B000F8BDF3B581B00646FFF7BFFF7348182277
:1046C0000178456951436C1A714F0FE02068B04280
:1046D0000BD1A0682061029800F04AFF3A466D4B6A
:1046E00000F04AFE00F052FFA0601834AC42EDD357
:1046F000FEBD6649CA688243CA607047F8B5634C1C
:1047000005462078182148436169081A06E00268C6
:10471000AA4202D1027B002A3AD118308842F6D34D
:10472000FFF75DFFA1680A1A2261884201D90020C3
:1047300020610020C043A0602078182163694843AD
:10474000191A0127266919E00868A84203D1886868
:1047500008610F730BE0087B00280ED00869801BEE
:10476000086102D08A68904201D9886808610246CF
:10477000A068824200D81046A06018319942E3D365
:10478000A068002805D0411C03D04449FFF7EFFE84
:10479000F8BDFFF7A4FEF8BDF8B53C4C0546E0684F
:1047A000A843E060FFF71BFFA1680A1A2261884254
:1047B00001D9002020610020C043A060217818208A
:1047C00063694143591A0127266919E00868A8421C
:1047D00003D1886808610F730BE0087B00280ED0B6
:1047E0000869801B086102D08A68904201D98868F4
:1047F00008610246A068824200D81046A0601831C5
:104800009942E3D3A068002805D0411C03D0234976
:10481000FFF7ADFEF8BDFFF762FEF8BD1B49182299
:104820000B7853434A69D11A05E00B68834201D1E2
:10483000087B704718319142F7D3FF20704770B55D
:104840000D460446FFF781F8002808D00F481821CC
:1048500004704C43611985614161FFF740FE70BDF2
:104860000A494A68114620310875030A4B75030C42
:104870008B75000EC8758B7C012003438B744B7CB9
:1048800003434B740B7C03430B740BE0F0300020AC
:10489000FCA9F1D24D624040A834002071450010BF
:1048A000FF3F00002032D37CDB07FCD00A7C52089B
:1048B00052000A744A7C02434A7470477C4840683C
:1048C0002030C17CC90708D0417C012211434174CA
:1048D00078480068002800D00047704770B5744CD5
:1048E000064660680D462030017CFD2389070029BB
:1048F00005DA017C194001743220FFF7E4FD62689B
:1049000020321676300A5076300C9076300ED07603
:10491000107C202108431074907C184090746548E6
:104920004560507C022528435074092000F0A8F807
:1049300060682030017C2943017470BD10B55C4C67
:1049400060682030017C89070FD5017CFD22114071
:104950000174092000F09DF860682030417C02223B
:10496000114341743220FFF7AEFD10BD504840683E
:104970002030C17C890708D5417C02221143417453
:104980004C484068002800D00047704770B5484C3C
:10499000064660680D462030017CFB23490700294C
:1049A00005DA017C194001743220FFF78CFD626842
:1049B00020321677300A5077300C9077300ED0774F
:1049C000107C402108431074907C18409074394842
:1049D0008560507C0425284350740A2000F050F86C
:1049E00060682030017C2943017470BD3048082183
:1049F0004068403041180A7810464A781202104345
:104A00008A78C97812041043090608437047284879
:104A10000C214068403041180A7810464A7812024A
:104A200010438A78C9781204104309060843704776
:104A300010B51F4C60682030017C49070FD5017C00
:104A4000FB22114001740A2000F023F86068203036
:104A5000417C0422114341743220FFF734FD10BD24
:104A6000134840682030C17C490708D5417C0422A6
:104A7000114341740F488068002800D000477047F8
:104A8000002805DBC106C90E012088400A490860DC
:104A9000704700280ADBC106C90E0120884006497C
:104AA00080310860BFF34F8FBFF36F8F70470000F6
:104AB000F0300020A834002000E100E018B5F648EE
:104AC00000680090002069460B5C0A241A096243C2
:104AD0001B070A541B0FD2180A54401C0328F3DB8F
:104AE000009818BD08B5FFF7E9FF00906846017807
:104AF000C078EA4A401E50430A1868468178E1208F
:104B000000014143684640783C2358430818111877
:104B1000E34A1069814201D3081A02E0E14B081A06
:104B2000C018116108BD70B50D46002802D0DA4EDC
:104B3000083E01E0D84E0C3E0024285D0A2100F01A
:104B4000A1FA000101432955641C032CF5DB28461A
:104B500000F0F3FA30606420FFF7B5FCCE4820384F
:104B6000C17A08221143C17270BD38B5CC490969B8
:104B70004418CA49204600F085FA421C6846C270B3
:104B8000E12508462D01294600F07CFA02466846D8
:104B900082702946204600F075FA08463C2100F054
:104BA00071FA0146684641703C21204600F06AFADD
:104BB0006846017069460020FFF7B5FF38BD38B57B
:104BC000FFF77CFF009068460178C078B34A401E2A
:104BD00050430A1868468178E12000014143684645
:104BE00040783C23584308181118AD4BAE485A6A18
:104BF0000468914201D38A1A02E0AA4D8A1A521916
:104C0000A21802601046596238BD70B500290BD059
:104C1000A34D6E69AC69B44206D2A16005C423718C
:104C20000020E0601034AC6170BD884200D30846BB
:104C30007047994920398A7A0F238343887A1A402A
:104C40000009000110438872704770B5C00742D058
:104C5000934C18216078666848436169081A0A46CF
:104C600003E0037B002B02D118309042F9D3884235
:104C700031D2FFF737FFE16860680818E060002074
:104C8000C04360606178182041436069451A18E0AC
:104C9000287B002814D02869B04204D16868002815
:104CA00007D0804705E0801B286102D0A9688842B0
:104CB00001D9A86828616168884200D90846606007
:104CC000183560698542E3D36068002804D0411C30
:104CD00002D0FFF74AFF70BD0120FFF7AAFF70BDA9
:104CE0006F498A6882438A607047F8B50446FFF7C7
:104CF000F9FE6B4AD06072B60021C9435160517809
:104D0000182359435369591A002717E00D68A54223
:104D100002D10F734F6110E00D7B002D0DD00D6996
:104D20002D1A0D6102D08E68B54201D98D680D61D2
:104D30005668B54200D93546556018319942E5D3D9
:104D40005068002804D0411C02D0FFF70EFF02E09B
:104D50000120FFF76EFF62B6F8BDF8B5504C05466E
:104D60006078182148436169081A06E00268AA427F
:104D700002D1027B002A38D118308842F6D3FFF7DF
:104D8000B1FEE06072B60021C9436160617818220B
:104D900066695143711A012719E00A68AA4203D1D2
:104DA0008A680A610F730BE00A7B002A0ED00A6939
:104DB000121A0A6102D08B689A4201D98A680A6184
:104DC00013466268934200D81A4662601831B142B5
:104DD000E3D36068002804D0411C02D0FFF7C5FE71
:104DE00002E00120FFF725FF62B6F8BD2C49C8613B
:104DF0007047F1B582B0FFF775FE294DE86072B6D5
:104E00000021C943696069786E6918225143009096
:104E1000741AEF6920E02068B84209D13C21029859
:104E200000F030F93C20401A2061012020730CE092
:104E3000207B00280FD021690098081A206102D039
:104E4000A168884201D9A068206120696968884208
:104E500000D9084668601834B442DCD3686800287A
:104E600004D0411C02D0FFF780FE02E00120FFF7D2
:104E7000E0FE62B6FEBD0A4918224B7853434A69E8
:104E8000D11A05E00B68834201D1087B70471831C5
:104E90009142F7D3FF207047C010005080510100AD
:104EA0000C310020803A0900A830002071490878B0
:104EB000002808D17048C37A01221343C372C37A11
:104EC000DB07FCD10A7070476A49086270476A497B
:104ED0008A7A024310078A7A000F120912010243EC
:104EE0008A72704764498A7A1209024310018A7AE9
:104EF0001207120F02438A72704770B505460024EC
:104F0000285D0A2100F0BEF8000101432955641C08
:104F1000032CF5DB284600F010F957492039C86307
:104F200070BD554A138A401EDB0BDB034004400C66
:104F300003431382907C090700090001090F08430D
:104F4000907470474C48C17A04221143C172C17AEF
:104F50004907FCD4704747490878012809D14648D9
:104F6000C27A02231A43C272C27A9207FCD400208A
:104F700008707047F3B581B0FFF7EDFFFFF7E2FF70
:104F800001200021C003FFF7CCFF6420FFF79BFA4C
:104F900001216846C1700024847044700470FFF7DA
:104FA000ACFF344D07262C616846C6701727877002
:104FB0003B244470047069460120FFF7B4FD684645
:104FC000C67087704470047069460020FFF7ABFD1F
:104FD0000F20FFF787FF0F20FFF72BFE0120FFF7C1
:104FE00076FF02982862FFF761FF244904200860D9
:104FF000FEBD70B50D460446FEF7A7FC00280BD099
:105000001C48182144704C4361198561416101209D
:105010001B49C003FFF7AEFF70BD10B51648407ABC
:1050200003071B0F1846FFF75DFF1248016A0029AE
:1050300001D01846884710BD0E480078704718B553
:10504000002802D00C48183001E00B4814300068EA
:105050000090002069460B5C0A241A0962431B0772
:105060000A541B0FD2180A54401C0328F3DB009883
:1050700018BD00000C310020A010005000E100E03D
:105080004B4C001030B50B46014600202022012475
:1050900009E00D46D5409D4205D31D469540491B6C
:1050A0002546954040191546521E002DF1DC30BDB5
:1050B00070B500242546002801DA01244042002969
:1050C00001DA01254942FFF7DDFFAC4200D0404242
:1050D000002C00D0494270BD03460B439B0703D010
:1050E00009E008C9121F08C0042AFAD203E00B78AD
:1050F0000370401C491C521EF9D27047D2B201E025
:105100000270401C491EFBD270470022F6E710B522
:1051100013460A4604461946FFF7F0FF204610BD25
:1051200030B504460020034600E05B1C934203D2E6
:10513000E05CCD5C401BF8D030BD0321001D401E5B
:10514000037812021A43491EF9D5104670470346E8
:1051500003220870000A491C521EFAD518467047EF
:10516000F8B502464A40D40F42004B0052085B0893
:105170009A4202D20246084611464A0023D0C30D85
:105180004A00DDB2120EAD1A202D35DA4902012691
:10519000490AF6058A19002C00D0524220214F1BE3
:1051A0001146B9402A411018C20D9A4221D0002C54
:1051B00017D0012D08DCDA05801AD20F8019D2072A
:1051C000DBB200F081FAF8BDDA05801A0123400055
:1051D0001B06C01880185A428018CA0F1043490095
:1051E00007E04908C2071143DA05801A8019400810
:1051F000801800F061FAF8BD61000122511A001B0D
:10520000F7E70122D2075140AAE70122D207504016
:10521000A6E70000F0B507460846584087B0C00F23
:10522000049048000E46590040084908BC1A8841BD
:1052300005D2384631461E4617460B4602465800F0
:10524000400810434CD0300D039040055900400DEC
:10525000490D0590401A0290402872DA1803012186
:10526000000B09050843019004980092002805D01E
:1052700001995242002088410092019002984021F9
:105280000A1A0199009800F0E3F905460C466B46AE
:1052900007CB00F0FEF9C0197141039A0E0D0023EF
:1052A000D71756401A467A40164344D0049A002A2B
:1052B0002DD0029A012A039A15DC1205C01A9141D9
:1052C00001263605001C7141D20F059ED2070093BE
:1052D000019202962A46234600F03CFA07B0F0BD40
:1052E00038463146FAE71605224A0F46B218C01A68
:1052F000B74101210905001C4F4100187F411146AB
:1053000018187941E20F10436D19644113E0E20768
:105310006D0815436408C2071443039A0126120559
:10532000C01A91413605001C7141CE074008304338
:105330004908C01851412A46234600F0FEF9CDE73E
:10534000FFE7049801224000C117121A00238B4185
:1053500004983146C417381AA141EEE730B401244D
:10536000E407634030BC55E730B40124E4076140F2
:1053700030BC4FE70000E0FFF0B51FB488B00B99D8
:105380000998002448400999C00F4900490809912B
:10539000C0070B990090490049080B91099908989A
:1053A000A64608431CD00B990A98084318D00998C0
:1053B00001244000420D4800410D099824050003D6
:1053C000000B204309900B980003000B20430B9027
:1053D00050181C494018002201901446104605E060
:1053E000002001460DB0F0BD032801DA034600E0BD
:1053F00003239C46C11A0AAE0AE05F0008ADED5BCC
:105400004F00F75B7D430027AA187C41491C5B1EB7
:105410006145F2DD410004AB5A522104120C0A43EB
:10542000240C401C0828DFDB01980290009970468C
:1054300001910090059B049A0799069800F08AF95B
:10544000D0E700000DFCFFFFF0B50C465C4085B0D6
:10545000E40FE40703944C000026640859009446C6
:10546000490802460296224321D062460A431ED0D2
:105470006200570D4A000E032303550D0124024616
:105480002C492405781B1B0B360B4018234326435D
:10549000614600901C46501AB44103D30098401C4A
:1054A000009002E0921800985B41002803DA002087
:1054B000014605B0F0BD00200121090507468646DA
:1054C00011E064461D46141BB54106D36546521BC8
:1054D000B341744607430C43A646CD07400849082C
:1054E000284392185B4105460D43EAD11046184304
:1054F00013D06046194650407140084306D06046BC
:10550000101AB34106D20122002306E00022012333
:10551000DB0702E00122D2435310009874460105D4
:10552000381C6141029C039D0019694100F005F996
:10553000BFE70000FD03000010B5002296231146CE
:1055400000F0C2F810BD00000EB5C217C10F5040E8
:10555000CA0740180021054B0293019200910A46A8
:105560000B4600F0F7F803B000BD00003304000064
:105570000EB505490291002100910A460B460191A2
:1055800000F0E8F803B000BD330400004A0009034E
:105590000123090B1B051943094B10B5520D9A4203
:1055A00001DA002010BD064B34339A4203DC9A1A0C
:1055B00000F05EF810BD03495118884010BD00008E
:1055C000FF030000CDFBFFFFC20FD20740004008E1
:1055D0000BD0C10D0723DB01C91840020905400AA1
:1055E0001143C2084007114370470020014670472D
:1055F000F0B51FB40646002082B005464024019154
:1056000000901BE0019922460F46304600F030F82A
:10561000049A059B801A994110D3104619462246D8
:1056200000F016F8361A8F4101972246012000211A
:10563000009F00F00DF838184D4100902046641E80
:105640000028DFDC019B00982946324607B0F0BDF8
:1056500010B5202A04DB0146203A9140002010BDFD
:10566000914020239C1A0346E3401943904010BD0B
:1056700010B5202A04DB0846203AD040002110BD96
:105680000B46D340D0402024A21A9140084319462B
:1056900010BD10B5202A06DBCB170846203A104172
:1056A000C1170B4306E00B461341D0402024A21A39
:1056B00091400843194610BD002904DA401C4900F6
:1056C00001D140084000704770B40024050C05D19A
:1056D0001024000402D1002921D01124050E01D18B
:1056E00000020834050F01D10001241D850F01D1EE
:1056F0008000A41C002801DB4000641C002908D0A5
:1057000020252E1B0D46F540A14000D00121294344
:10571000084301061B1B000ADB1D02D5002070BCDC
:105720007047DB05181880180029F8DA401C49007A
:10573000F5D170BC40084000704710B5002B08DA66
:105740000024401C614192185B411A4301D140087A
:10575000400010BDF0B51FB482B005460C0003D068
:10576000084600F0CDF802E000F0CAF8203002460A
:10577000009021462846FFF76BFF049B059A0446DC
:105780000F4618431143084314D0184610431BD04A
:10579000009840210A1A18460599FFF769FF054647
:1057A0000E46009A05990498FFF752FF084305D06A
:1057B000012004E02046394607B0F0BD0020C117A3
:1057C00005430E432C43374300990E986305401A56
:1057D0007905E40A00220C43FD0A0A3002D50020B4
:1057E0000146E9E70105101969410C9C0D9D00195E
:1057F0006941FFF7A2FFDFE74A0009030123090B14
:105800001B0519430A4B10B5520D9A4202DA0020CB
:10581000014610BD064B34339A4203DC9A1AFFF757
:1058200027FF10BD034BD218FFF712FF10BD000079
:10583000FF030000CDFBFFFF10B5002904DB0124AE
:10584000E40740428C412146002B04DB1C46012327
:10585000DB075242A341994200D1904210BD0000A3
:10586000064C0125064E05E0E36807CC2B430C3CB3
:1058700098471034B442F7D3FAF726FC78B20010F8
:1058800098B2001070B58C180578401C6B075B0F40
:1058900001D10378401C2A1106D10278401C03E094
:1058A00006780E70401C491C5B1EF9D12B0705D4ED
:1058B0000023521E0DD40B70491CFAE70378401CDC
:1058C000CB1A921C03E01D780D70491C5B1C521E04
:1058D000F9D5A142D8D3002070BD000037B51446D9
:1058E0000846064B6A46214600F0EAF80446694637
:1058F000002000F081FC20463EBD0000F961001050
:105900002021020C01D010211046020A01D01046BD
:105910000839020901D01046091F820801D010463B
:10592000891E420801D0881E7047081A704730B49B
:105930007446641E2578641CAB4200D21D46635D2C
:105940005B00E31830BC184702E008C8121F08C10A
:10595000002AFAD170477047002001E001C1121FF0
:10596000002AFBD170470000F0B51FB484B007983F
:105970000699020D014314D04A484B491018484378
:1059800005140F9801280E981CD0281A401C0024DA
:10599000464E4749009401910290002814DA47428C
:1059A00027E00F98012443A3012808D00021049880
:1059B0000F9A84600360C260416009B0F0BD0E9828
:1059C000C143F4E74042E2E7074612E0F80707D098
:1059D0002246334601990098FFF7CEFC01910090D2
:1059E0002246334610461946FFF7C6FC04460E46CB
:1059F0007F10002FEAD10298019B0028009A079996
:105A0000069802DAFFF7B8FC01E0FFF71DFD044637
:105A10000E460022284BFFF70FFF03D80020C0439B
:105A2000014607E00022254B20463146FFF7F2FBF6
:105A3000FFF7E2FE102409E0002C0ADB0A22002313
:105A4000FFF7D6FD059B30321A55641E02460A4305
:105A5000F2D11122641C059B121B1C190F9B012BF8
:105A600003D0012308430ED10AE0084304D01120DB
:105A70000E9000200F9084E70E98151A6D1E0BE013
:105A80000E98824202DD00236D1C03E0824201DA9F
:105A900000236D1E002BEED004980F998260C16028
:105AA00030C08AE701FCFFFF104D000000002440D9
:105AB0000000F03F300000000000F0430000E03F35
:105AC000FFB597B00646002518E2252877D10024B7
:105AD0002746FD49049400E00443761C32780120F7
:105AE000203A90400842F7D130782A280ED002227E
:105AF000307801463039092916D804990A235943C8
:105B0000303940181443761C0490F1E7189802C805
:105B100004911890002904DA01204003044348420C
:105B2000049002200443761C30782E2814D10420DF
:105B300004437078761C2A2809D11898761C80C8EE
:105B4000189009E00A214F43303FC719761C30787E
:105B5000014630390929F5D930786C2810D006DC97
:105B60004C281AD068280ED06A2817D104E074286F
:105B700013D07A2812D110E00120400504430CE034
:105B80000121090501E0032109050C4371788142D7
:105B900003D1012000052418761C761C3078119062
:105BA00066280BD013DC58287DD009DC00287BD078
:105BB0004528F6D04628F4D047281AD1A5E118E0A8
:105BC000632835D0642870D0652812D19DE17028F3
:105BD0006CD008DC6728F1D069287BD06E280DD006
:105BE0006F2806D1BAE073282ED0752871D0782896
:105BF00059D01A9A199990476D1C7EE16002400FA6
:105C0000022809D003280DD00428189801680DD067
:105C10000D60001D189070E11898EA1701680D607A
:105C20004A60F6E7189801680D80F2E70D70F0E71A
:105C300018986A4601781172001D18900020507261
:105C400002A80090012005E0189802C818900020D2
:105C50000091C04361070DD5002101E00199491C65
:105C60000191B94212DA8142F8DB009A515C0029B5
:105C7000F4D10BE0002101E00199491C019181421E
:105C8000FADB019A0099895C0029F5D10199049801
:105C90001A9B471A21463846199A00F097FA01993B
:105CA000401945180BE04FE02CE113E04EE000985E
:105CB00000990078491C00911A9A19999047019807
:105CC000401E0190401CF2D1214638461A9B199A79
:105CD00010E137E00A200021009001916002410F9D
:105CE000022907D0189A01CA1892C21794460329AC
:105CF00008D00AE01898C01DC108C90005C918914C
:105D0000944607E000B2C2179446042902D140B27B
:105D1000C1178C4600226146944506DA0A460021E6
:105D2000404291418C462D2102E0210504D52B21D2
:105D30006A461173012103E0E10701D02021F7E752
:105D4000029155E00A200AE0102008E0102000909F
:105D50000021042004430191082703E008200021CA
:105D6000019100906002410F022907D0189A01CAE0
:105D7000189200229446032908D008E01898C01D04
:105D8000C108C90005C91891944603E080B20429EE
:105D900000D1C0B200210291210729D511997029A3
:105DA00006D0009A1021019B4A401A4305D00EE00C
:105DB00040216A461173012108E06146014306D083
:105DC00030216A4611731199517302210291009A90
:105DD0000821019B4A401A430AD16146014301D17F
:105DE000610705D530216A46117301217F1E02919A
:105DF0001199582904D035A10E910DA90D910DE0EE
:105E000037A1F9E76146019B009AFFF7F1FB0E9B72
:105E10008C469B5C0D9A521E0D9213706146014395
:105E2000F0D10D9805A9081A20300190600703D51C
:105E300001200004844300E001270198874201DD2E
:105E4000381A00E0002001990090411802980918C2
:105E50000498401A0490E00306D421461A9B199A2C
:105E6000049800F0B3F94519002706E003A81A9A30
:105E7000C05D199990476D1C7F1C02988742F5DB25
:105E8000E0030CD521461A9B199A049800F09EF95C
:105E9000451904E01A9A3020199990476D1C009911
:105EA000481E00900029F5DC08E00D980D99007857
:105EB000491C0D911A9A199990476D1C0199481E19
:105EC00001900029F1DC63E109280100303132330F
:105ED0003435363738396162636465660000000026
:105EE0003031323334353637383941424344454610
:105EF0000000000000F05AF94519761C307800289F
:105F000000D0E2E528461BB0F0BD600700D40627AC
:105F10001898C01DC108C90048680A680831C30F35
:105F2000DB071891190001D09CA108E0210501D5DB
:105F30009BA104E0E10701D09AA100E09AA14300EF
:105F400011985B08109165280CD006DC452809D013
:105F500046281DD0472841D141E0662818D067283F
:105F60003CD13CE00021112F01DB112000E0781C26
:105F70000191009008A911A8FFF7F6FC139905916B
:105F80000021119A15927F1C12980197009150E000
:105F90000120C00703900120019008A9009711A8D3
:105FA000FFF7E2FC139A149905920022119B0092CC
:105FB00012981593059A0192002901D0104602E02B
:105FC000791C40180190381A01D5019804E040422C
:105FD000401E0090781C0190C01B029043E0012FEE
:105FE00000DA01270021112F01DD112000E03846E1
:105FF0000191009008A911A8FFF7B6FC139905912B
:10600000119A0021129815920091019721070CD442
:106010000599B94201DB019900E00191012904DDF4
:10602000159A491E515C302906D0B84201DA011D8B
:1060300005DA0121029115E00199491EEDE70028DA
:1060400005DC0099411800910199091A03E0019AB1
:10605000411C914200DD01910099401A401C0290C0
:106060000120C0070390200706D4029901988142BD
:1060700002DB0020C043029000206946C87707AFCA
:10608000012103980337C907884224D002201190C8
:106090002B201290039800280CDA404203902D2008
:1060A000129007E00A210398FEF7ECFF30317F1EC3
:1060B000039039701199481E11900029F2DC039861
:1060C0000028EFD1791E12980870307820210840FE
:1060D0004530BF1E387006A8C01BC01D0390109825
:1060E0000078002800D00120019941180298C017BB
:1060F0000918039809180498401A401E0490E003F8
:1061000006D421461A9B199A049800F05FF84519A5
:1061100010980078002803D01A9A199990476D1C9E
:10612000E00324D521461A9B199A049800F04EF8F2
:1061300045191CE00098002807DB00990598884263
:1061400003DD1598405C199901E0199930201A9ADD
:10615000904700986D1C401C00900298401E0290D1
:10616000002804D11A9A2E20199990476D1C019984
:10617000481E01900029DDDC05E038781A9A7F1C62
:10618000199990476D1C0399481E03900029F4DC6F
:1061900021461A9B199A0498ACE600002D000000D5
:1061A0002B0000002000000000000000F8B50446AD
:1061B00000251E461746880404D405E039462020F1
:1061C000B0476D1C641EF9D52846F8BDFFB50446DE
:1061D000002581B01E46C80301D5302700E02027E6
:1061E000880404D505E038460399B0476D1C641E49
:1061F000F9D5284605B0F0BD0A68531C0B60107035
:106200007047C0440020851A00108D1A00108508C0
:10621000001000000000000000000000000000006E
:106220000000000000000000000000000000911AC3
:1062300000100000000000000000931A0010951AE2
:10624000001000000000971A0010773D0010971A08
:106250000010971A0010971A0010F11700104B1930
:1062600000105736001003370010E3370010971A5C
:106270000010A1110010971A0010971A0010971A19
:106280000010971A0010971A0010971A0010971A0A
:106290000010971A0010971A0010971A0010971AFA
:1062A00000100000000000000000000000000000DE
:1062B00000000000000000000000000000000000DE
:1062C00000000348854604F06CFA004800472F0799
:1062D0000010C04400201FB500206A46107007213E
:1062E0005172192189015181FD49918110726846CD
:1062F00002F0C7FBFB4802F0B2FBF9494A78C81D1F
:10630000C2738A780274CA7842740A7982744A79AC
:10631000C2748A7902750622F3A0491C01F096FC2A
:10632000F0481038037A8179421D173002F0AFFB34
:106330001FBD1CB5002802D001280FD106E0102097
:1063400069464880C820C880002006E05020694681
:1063500048804B20C000C8800A208880C020694641
:10636000087004204870684602F090FF6946CB88A8
:106370008A884988E0A001F04EFC1CBD3EB5D84C8F
:10638000103CA278012A01D000203EBD01246A46BB
:106390001480032555801F259580148103460A46E5
:1063A0006946204602F020FD3EBD03B583B0684635
:1063B000C08915214902884201D1DAA010E0DB49E9
:1063C000884208D1DBA0006800900220694602F0F4
:1063D000FCFC05B000BDD5492831884205D1D5A0C7
:1063E00003C8009001910820F0E7D049233188428A
:1063F00001D1D2A023E0CD492431884205D1D1A0DA
:1064000003C8009001910520E0E7C8492631884281
:1064100001D1CEA00AE0C5492531884201D1CCA0E6
:1064200004E0C2492731884204D1CAA00068009024
:106430000420CBE7BE494F31884205D1C7A003C82D
:10644000009001910720C1E7C649884207D1C5A045
:106450000068009004216846FFF790FFB9E7C04943
:10646000383188420CD100206A46107001900290A9
:10647000694601A800F0C0FC6A4601A91078A6E7A9
:10648000BA498842A5D196490C3901209FE7F0B559
:10649000044689B0401C03F0F2FD012821D0904D44
:1064A00000260127103D022821D0042828D07A0395
:1064B000611C90425BD148790A790002104301289F
:1064C0002AD0A74A1E3290423BD1487A097A00026C
:1064D0000843800733D0A5A001F09DFBEF7009B001
:1064E000F0BDFFF7F8FE02F0E6FBA5A087E0AE7076
:1064F0002F70012000F0C8FB0622A11DA5A070E0AE
:106500002E70AE7002F0D7FB012000F0BDFB617968
:10651000A6A001F080FBE2E7207AE27900021043B6
:106520002028DCD1487A097A00020843800704D089
:10653000A5A001F070FBAF70D1E7AE70CFE7EE70B1
:10654000CDE7894A9042CAD1487A097A00020843C5
:10655000C007C4D069460A804A8026208880604BE4
:1065600001220F810C3B104602F03EFCB7E7C21F30
:10657000FF3AFA3A0DD0C21FF93A35D00122120380
:106580009042ACD0082839D0920090423AD192A0E3
:1065900035E01E22611D684603F04DFD68464088C7
:1065A0006C46022809D06E493831884297D16E7006
:1065B000A179E01D00F074FB91E7E079A1280CD1EE
:1065C000207A012809D1607A012806D1A07A012811
:1065D00003D1002102F0ACFB6F7068468279E11DA7
:1065E00083A001F033FB7AE70822611D684603F0BF
:1065F00022FD01990098FFF7D8FE70E77EA001F018
:106600000AFB6CE70122D203904284D148790979D0
:1066100000020843030004F0FFF8060512141618E0
:106620001A045CE77AA001F0F6FA684602F070FB03
:106630006846428801887BA001F0EDFA4FE780A010
:10664000DDE785A0DBE78AA0D9E78FA0D7E793A095
:10665000D5E7F8B50025964800950068FF21203061
:106660002F462C462E46017041709F228270CF2209
:10667000C27001712846012214282ED008DC062899
:1066800010D007280ED00F280CD0102806D109E012
:10669000162822D0172820D018281ED01146814055
:1066A0000D430C43401CC0B22028E5D3009800F0F5
:1066B00020FD0020009900F0E8FC0098B84300F0AD
:1066C000B2FD384600F0C6FD3146284600F028FDF0
:1066D0002146002000F0A5FCF8BDECE00000FF3FE3
:1066E0000000103000206465766963652061646491
:1066F000723A00000000736D6172745F70617261C4
:106700006D7320696E74657276616C3A2578206CC1
:106710006174656E63793A2578207376746F3A25D3
:10672000780D0A0000005359445F55415254012A24
:106730000000FFFF000053594420496E632E424C75
:106740004520312E3000312E302E30000000322E08
:106750003030332E303056303031023A09050A02DB
:106760000000C9FE0000000103040F180000776557
:10677000636861745F747820656E61626C650D0A90
:106780000000526553746172744164760D0A000012
:1067900000004741505F4556545F434F4E4E4543BE
:1067A00054454420616464723A004741505F455645
:1067B000545F444953434F4E4E454354454420256E
:1067C000780D0A00000073746172745F747820653C
:1067D0006E61626C650D0A0000004741505F4556CE
:1067E000545F454E435F53544152540D0A006D733C
:1067F000673A0D0A00004741505F4556545F5041CB
:106800004952494E475F434F4D500D0A0000757085
:106810006461746520727370204143434550544550
:10682000440D0A000000696E74657276616C3A2549
:1068300078206C6174656E63793A25780D0A0000E2
:106840000000757064617465207273702052454A4F
:1068500045435445440D0A00000075706461746539
:10686000207273702054494D45524F55540D0A0003
:106870000000757064617465207273702053554315
:10688000434545440D0A00000000456E61626C6599
:10689000206C6174656E63790D0A00000000446924
:1068A0007361626C65206C6174656E63790D0A00BA
:1068B000000054300020114681400D430C430E432C
:1068C000F0E6F8B58F4C2078002819D000268D4DC1
:1068D000012816D001277F0202281BD003280FD1E0
:1068E0002670384602F0F4FE88A001F094F97D206D
:1068F000C00000F096F988A001F08DF902F053FB7A
:10690000EAE600F0B6F989A001F085F902202070CE
:106910002E70E1E62878401CC0B228702028EFD9FC
:1069200086A001F078F9384602F0D2FED4E670472E
:1069300072B600F0ACF8002002F0C9FA01F0E5FCF4
:10694000002001F084FDFF20F53002F016FD01F07B
:106950008FFD7C49022002F04DFF00F070FD7A4966
:10696000022003F0F5FA00F08EFDFFF772FE012021
:1069700000F0BFFB012000F056FC01F0E4FC01F048
:1069800046F9012001F0E4FC71A273A176A001F0A8
:1069900042F900F0A8FF01F03DF8FF2104317B48E7
:1069A00003F062FB62B6794D01263605794C794FCA
:1069B00002F015FCA878022818D12A78E91C76A0E4
:1069C00001F044F92878401EC1B2281D00F075FD81
:1069D00076480078002805D02978281D491EC9B2BC
:1069E00000F04FFE0421694803F03EFB304600F002
:1069F0005FFC00281BD0052000F013F9304600F0A2
:106A000057FC002813D069A001F005F9FF210431DB
:106A10005F4803F029FB304600F04AFC0028FAD119
:106A2000FF20F53000F0FDF865A001F0F4F82068D3
:106A3000002811D0800508D5FFF743FF0120400250
:106A400002F031FE64A001F0E6F82088C00503D50D
:106A5000FF20013002F027FE38680028A8D0C007C8
:106A600005D060A001F0D7F8012003F0E8F83878ED
:106A700040079DD501F0FCFC5FA001F0CCF804209C
:106A800003F0DDF894E75FA001F0C5F8FEE710B56C
:106A900088B001F08DFF012002F040F95F4802F05C
:106AA0008EF903216A46117300245473907BFB22F4
:106AB0008843401C10406A4690731020D0731474B1
:106AC000517403A802F018F9C020059054480690AC
:106AD00005A802F033F9002002F077FAFFF7FBFB7C
:106AE0006A461470D4701471012050709070D11DDA
:106AF000000503F0CEFA684602F0F9F908B010BDBF
:106B0000000038300020393000204F5441206669A1
:106B10006E6973680D0A000000005374617274207E
:106B200052657365742031303030730D0A004F5454
:106B3000412073746172740D0A004F5441206661E4
:106B4000696C650D0A004C3100207C310020323028
:106B50003A33393A33380000000041756720313349
:106B60002032303139005379643838313120554181
:106B70005254204F54412074657374204657204C62
:106B80004F472025733A25730D0A00000000C431D9
:106B90000020EC30002004310020756172742072F6
:106BA0007820646174610D0A0000A13000204B451B
:106BB00059312050726573730D0A00000000554171
:106BC0005254204D4153544552204F544120537448
:106BD0006172740D0A004556545F31535F4F544142
:106BE0000D0A000000005254434556545F313053A3
:106BF0000D0A000000005254434556545F313835A9
:106C0000530D0A0000004552523A20486172644612
:106C100061756C74210D0A0000000C3000208D029B
:106C2000001000220C4B06E00021491C89B2994259
:106C3000FBD3521C92B28242F6D37047002206E088
:106C40000021491C89B20229FBD3521C92B2824214
:106C5000F6D3704700008C0A000010B5A54B0E2437
:106C60001B691C70541C5C709870D81C03F0E3F90D
:106C700010BD08B502F002FA002069460870012232
:106C80001620FFF7EAFF08BD00229949002801D02D
:106C90000A704A704A80CA808A800A81CA60704736
:106CA000F8B5934C0E4661880025002905D021785F
:106CB000002902D06570002168E0017811390B00CD
:106CC00003F0AAFD06101A1F474204190020FFF71F
:106CD00030FB88A000F09FFF0120400202F031FD50
:106CE000012006E00020FFF724FB86A000F093FFC0
:106CF00004202070E560F8BD801C00F08FF80520AE
:106D00001CE0871CC01C03F0BAF901463A7882489F
:106D100002F03BFB0646781C03F0B1F902463B78D3
:106D200031467EA000F077FF002E09D0684605703E
:106D3000012269461820FFF790FF06202070F8BD59
:106D4000012069460870F3E7801C00F09CF80320DE
:106D5000F4E7C17982790F0217436780417A027A9A
:106D60000E021643E680801C03F089F9E060A580DE
:106D70000146258133463A466FA000F04CFFF8BD2E
:106D8000425C2389D218491C228189B2B142F7D3CF
:106D900081070AD001463246744803F04CF9A188B5
:106DA000E068714A4018314605E0A288E1688B1816
:106DB00002463146184602F0E1F9A088801981B2F6
:106DC000A18060888142DAD32289E088824204D19E
:106DD000002000F049F865A003E0012000F044F82D
:106DE00067A000F018FFE288218968A000F013FF77
:106DF0000020FFF749FFF8BD70B53D4C0D462169F5
:106E00004A7821461431921C03F015F92069407824
:106E1000801C287000206061A06170BD38B50446F8
:106E200040782178000208430121090388421AD8DA
:106E3000A27882188A4201D9091AA1703749A2782A
:106E40004018E11C03F0F7F8607823780102A2787B
:106E5000194359A000F0DFFE0020694608700122A6
:106E60001720FFF7FAFE38BD1CB56B465970090AAA
:106E70009970DA70110A1971187005226946142088
:106E8000FFF7EBFE1CBD38B50446374820300179CA
:106E9000002905D02038006A344A400102F06EF91A
:106EA000204603F0ECF8617923790A0201461A437F
:106EB00049A000F0B0FE204603F0E1F861792279A4
:106EC0000B02134302460021084602F083F90446F0
:106ED000014646A000F09FFE002C07D00020694626
:106EE000087001221820FFF7B8FE38BD0120F6E730
:106EF000000038300020434D445F46575F45524103
:106F000053450D0A0000344B53455454494E475FD6
:106F10004552415345200D0A00004A070020436FA7
:106F200064655570646174653D256420257820256D
:106F3000780D0A000000434D445F46575F575249A1
:106F400054455F5354415254206F66667365743ADA
:106F500025782C73697A653A257820636865636BB8
:106F600073756D3A25780D0A000024310020736591
:106F70006374696F6E204F4B212000000000736521
:106F80006374696F6E206661696C652120006F749F
:106F9000615F726563656976655F636865636B3AB7
:106FA0002578206F74615F73656374696F6E5F63CA
:106FB0006865636B3A25780D0A00636D64344B5342
:106FC000455454494E4757726974652025782025E9
:106FD000780D0A0000006F746120737A3A257820DA
:106FE000636865636B73756D3A2578200000436FA5
:106FF00064655570646174657632303D25640D0AB0
:10700000000070B5FF4B00221C6801252B46934001
:10701000034202D0A154984302D0521C202AF5D337
:1070200070BDF0B5F84C221D944600282AD00128E6
:1070300027D1F34B3033002B23D000200122824094
:10704000114207D01F5C01252668BD402E432660F3
:10705000914302D0401C1828F0D3182001252A465D
:1070600082402B46114209D0644606462478183ED9
:10707000B3401C4363461C70914302D0401C20283F
:10708000EDD3F0BDDF4B1833D5E7F0B5DE4C221D54
:10709000944600282AD0012827D1D94B3033002B21
:1070A00023D0002001228240114207D01F5C01251D
:1070B0002668BD40AE432660914302D0401C18288C
:1070C000F0D3182001252A4682402B46114209D0D0
:1070D000644626780446183CA3409E4363461E70CF
:1070E000914302D0401C2028EDD3F0BDC54B18338E
:1070F000D5E710B5C3494A6814782146547824026C
:1071000021439478D378240421431B0619438143F7
:107110001170080A5070080C9070080ED07010BDE5
:1071200070B5B74E73681D782A465D782D022A43E4
:107130009D78DC782D042A432406224302431A70EA
:10714000140A5C70140C9C70120EDA70F3681D78CF
:107150002A465D782D022A439D78DC782D042A4347
:107160002406224302431A70140A5C70140C9C70AB
:10717000120EDA7008229C1825782A4665782D02AE
:107180002A43A578E4782D042A4324062243824327
:107190001A72100A5872100C9872100ED8720820C9
:1071A0001A18147820465478240220439478D27810
:1071B000240420431206104308431872010A59722E
:1071C000010C9972000ED87270BD10B58D49CA6855
:1071D000147821465478240221439478D3782404E7
:1071E00021431B06194301431170080A5070080C13
:1071F0009070080ED07010BD10B58149CA6814781F
:1072000021465478240221439478D37824042143DE
:107210001B06194381431170080A5070080C9070C6
:10722000080ED07010BD10B576498A6814782146D2
:107230005478240221439478D378240421431B06F4
:10724000194301431170080A5070080C9070080E21
:10725000D07010BD10B56A498A68147821465478F8
:10726000240221439478D378240421431B06194334
:1072700081431170080A5070080C9070080ED0708D
:1072800010BD10B55F498A681478214654782402ED
:1072900021439478D378240421431B0619434140A9
:1072A0001170080A5070080C9070080ED07010BD54
:1072B0005449C9680A1D1378194653781B021943AB
:1072C0009378D2781B041943120611430840704783
:1072D00070B54B4C182223699D182E7832466E7873
:1072E00036023243AE78ED78360432432D062A4317
:1072F00002401A70150A5D70150C9D70120EDA703E
:1073000010229D182E7832466E7836023243AE78BF
:10731000ED78360432432D062A4382431A74100A4C
:107320005874100C9874100ED874203318784008D4
:10733000400018706161012034490003086070BD8D
:1073400010B52F490A69102153181C7821465C7822
:10735000240221439C78DB78240421431B06194333
:1073600001431174080A5074080C9074080ED0740C
:1073700010BD01222549100380310860BFF34F8FF3
:10738000BFF36F8F1F484917006901740B0A4374DC
:107390000B0C8374090EC174203001781143017005
:1073A000704710B5174C1820236919180A78104631
:1073B0004A78120210438A78C978120410430906E9
:1073C000084310215A181378194653781B021943A1
:1073D0009378D2781B0419431206114388431FD0B7
:1073E0006069002800D08047216918200A181378A6
:1073F000184653781B0218439378D2781B0418431D
:1074000005E0543000208010005000E100E012063A
:1074100010430870020A4A70020C8A70000EC8708D
:1074200010BD0F48FF22016801321143016070470F
:107430000C4801220168520211430160704710B5E7
:107440007D242401FF200023074A2146013002F059
:1074500090F801200023044A2146400202F089F8F6
:1074600010BDEC300020211200102F1200100F4828
:10747000012201681143016070470C480422016831
:1074800011430160704710B50023094A0A21012009
:1074900002F066FB0023074AB921042002F060FBDA
:1074A000012002F009FC042002F006FC10BD0431AA
:1074B00000206D1200107912001070B5044600789B
:1074C000A94D16280CD0172815D0182807D1A6A02A
:1074D00000F0A1FBA01C00F024F90320287070BD6F
:1074E000A8A000F098FB01F0C9FD0146162000F0AD
:1074F00009F90120F2E7A6A000F08DFBA41C2046AC
:1075000002F0BDFD6179227909021143A21D01F04B
:1075100035FE0146172000F0F5F80220DEE7F0B551
:10752000C5B08821684602F09FFD172069460870A3
:1075300080249D4802F0A3FD06469B48001F02F0F0
:107540009EFD0546AE4235D29849F001083902F059
:10755000A0FD31462290944E681E361D6F4602AD46
:1075600081420ED13046143802F089FD4406640E83
:10757000B91C229802F08DFD6946CC80A01D487090
:1075800007E0B91C229802F084FD6846C480A21D61
:107590004270304602F073FD014622982246800078
:1075A0000918284602F047FD68464078801CC1B2A1
:1075B00068461AE0AE421AD1882122A802F054FD92
:1075C000182020A90872862048727748103802F0E7
:1075D00056FD22A9023102F05CFD73480C3802F01E
:1075E0004EFD20A9C881882122A800F09CFA45B050
:1075F000F0BDF8B50D4607465B4900246B484C705A
:107600001821103802F030FD68493846091D02F093
:1076100040FD65492846103902F03BFD634E103E9F
:1076200008E0301D02F02BFD395D4018311D02F0DD
:1076300030FD641CAC42F4D35C49E809091F0C46D8
:1076400002F027FD690603D02146401C02F021FD0F
:10765000F8BD30B5444CA3B0607800280FD1882124
:10766000684602F001FD1620694608700220487045
:1076700001254D800421684600F055FA657023B05D
:1076800030BD70B5044600780E2812D1A0780226CD
:10769000354D16280ED0172816D0182809D143A02A
:1076A00000F0B9FAE078012826D048A000F0B3FA3B
:1076B0006E7070BD4EA000F0AEFAE078012801D0E7
:1076C00051A0F3E756A006E05BA000F0A4FAE07832
:1076D000012805D05FA000F09EFAFFF720FF70BDE3
:1076E00063A000F098FA3048044602F0C8FC214636
:1076F000401C02F0CEFCF0E765A000F08CFA0320FD
:10770000687070BD08B5002200920E226B461A7098
:1077100002225A709870D9700421684600F003FA6A
:1077200008BD10B5044602F0AAFC617922790B026B
:10773000134302460021084601F04CFD0446014671
:107740001820FFF7DFFF012C03D058A000F063FAE8
:1077500010BD5BA000F05FFAFF202D30FFF761FA4B
:1077600001F021FC10BDA0300020554152545F4F64
:1077700054415F434D445F555047524144450D0AC3
:107780000000434D445F46575F45524153450D0A43
:107790000000554152545F4F54415F434D445F5781
:1077A000524954450D0A00000000BC3100205541EB
:1077B00052545F4F54415F434D445F5550475241CF
:1077C00044452052455455524E0D0A000000554183
:1077D00052545F4F54415F434D445F5550475241AF
:1077E0004445206661696C65640D0A000000434DE4
:1077F000445F46575F4552415345205245545552C8
:107800004E0D0A000000434D445F46575F4552410C
:107810005345206661696C65640D0A000000434DA4
:10782000445F46575F455241534520737563636516
:1078300073730D0A0000554152545F4F54415F432A
:107840004D445F57524954452052455455524E0DB0
:107850000A00554152545F4F54415F434D445F57B6
:1078600052495445206661696C65640D0A005541B2
:1078700052545F4F54415F434D445F575249544502
:1078800020737563636573730D0A00000000554132
:1078900052545F4F54415F434D445F5550475241EE
:1078A000444520737563636573730D0A0000554189
:1078B0005254204F5441204661696C65640D0A00A2
:1078C000000055415254204F5441205355434345E5
:1078D00053532C205265736574204D435520696EB7
:1078E000670D0A000000F8B5C4480068C17B89092B
:1078F0008901C91CC173017C89098901091D0174B1
:1079000020308278DF210A4082708378BF221340C2
:107910008370BA4C206883785B085B0083700378BF
:107920001B091B010833037003785B065B0E0370B1
:10793000037840252B430370C37810252B43C37075
:10794000837804252B438370857820231D4385701D
:107950008678EF252E408670867880273E43867095
:1079600086781640867002782A40027002780A40B3
:1079700002708178022211438170C1781943C1706D
:10798000062000F022F920688178082211438170D6
:10799000F8BD9A490968487008788006FCD50878CF
:1079A000DF2210400870704738B500226C46227004
:1079B000934B1B680DE01C798C546D46521C2C783F
:1079C000D2B2641C2C702C78641C2C702C78641C33
:1079D0002C70DC78E407EED0027038BD10B5874813
:1079E00000688178F72211408170062000F0F6F8D7
:1079F00010BD824800680178C90603D50178EF22DE
:107A0000114001708178890703D5817802221143E2
:107A10008170704770B5784800688179890989015B
:107A2000491D8171C17989098901891DC171203080
:107A30000278BF210A40027002785206520E02708C
:107A40006F4C606882785208520082700278120986
:107A500012010832027002785206520E0270027849
:107A60000A400270C27810231A43C270827804233D
:107A70001A43827083782022134383708578EF2322
:107A80001D408570857880263543857085780D404A
:107A900085700178194001700178DF231940017069
:107AA0008178022319438170C1781143C170072086
:107AB00000F08BF86068817808221143817070BDF6
:107AC0004F494968487008788006FCD50878DF225D
:107AD00010400870704738B500226C462270474B42
:107AE0005B6810E01C798C546D46521C2C78D2B225
:107AF000641C2C702C78641C2C702C78641C2C70EA
:107B00002C78641C2C70DC78E407EBD0027038BD54
:107B100010B53A4840688178F722114081700720FB
:107B200000F05CF810BD70B54C1C354D0A4601469E
:107B30002C70681C02F07FFA002304E0E85CFFF779
:107B4000BFFF5B1C9BB2A342F8D370BDFCB52B48B2
:107B500040680178C90637D50178EF2211400170DD
:107B600001A96846FFF7B7FF274A9078022701ACC2
:107B7000002806D09078012826D1694600200D788B
:107B80001BE0694608791070002050700D7807E0FE
:107B9000235C51785618491C5170F370401CC0B2D8
:107BA000A842F5D30120907009E0235C5178561863
:107BB000491C5170F370401CC0B2A842F5D35078F4
:107BC0001178884200D19770FCBD002805DBC10602
:107BD000C90E012088400C490860704700280ADB64
:107BE000C106C90E01208840084980310860BFF3F2
:107BF0004F8FBFF36F8F7047000054300020A430C8
:107C00000020C7320020C431002000E100E010B5A0
:107C1000FFF769FE10BD0FB470B504990024002968
:107C200010D005AA144802F0CEFDC5B2802D00D9AF
:107C30008025104E04E0305DFFF7ABFE641CE4B21B
:107C4000AC42F8D370BC08BC04B0184770B500242F
:107C500015460E46002807D0FFF7DDFF04E0315D32
:107C600006A0FFF7D8FF641CAC42F8DB05A0FFF7C5
:107C7000D2FF70BD0000C7330020253032782000CD
:107C800000000D0A00000448804704480047FEE752
:107C9000FEE7FEE7FEE7FEE7FEE7A91A0010C100D7
:107CA0000010044903480860704702490148086011
:107CB00070470024F400AC300020F1B5FA4880474A
:107CC0000746F94880470646F74C0120183CA04774
:107CD000F64D00200C35A847F549009888473046F6
:107CE000A8473846A047F8BDF0B5F14DF248A9685D
:107CF00085B00818044602F0C2F92146401C02F083
:107D0000C8F90024EB4801258668EA480C38311888
:107D10000391487C097C00020843A5402842029058
:107D20003BD00B2060438119E348009109300818CB
:107D3000019002F0A4F90746DF48301802F09FF9DD
:107D400087422AD10F21009889014018007D002820
:107D50000CD0D84A00990D3A8A18517D127D09023B
:107D600011437818019902F094F905E002980399FB
:107D7000A8430874000A4874CF4800990D300818C9
:107D800002F07DF9002808D0022D19D0042D17D05B
:107D9000082D15D0102D1AD08047641CE4B20A2C8F
:107DA000B0D3C3488168C3480C380918487C097CA3
:107DB00000020843800501D1C048804705B0F0BDEE
:107DC000BF49012088470028E7D0222005E0BB49B1
:107DD000012088470028E0D03B20FFF76EFFDCE75A
:107DE000F0B585B00020694608730872B54F087475
:107DF000B54EAF4CB847019004AB02AA03A9206965
:107E000001F059FB0028D9D00820B047002803D042
:107E10000220B04700280FD06846007A012811D010
:107E2000A0682569407A012826D00228E2D1A64A16
:107E3000284601999047DDE7012168460172007CE0
:107E4000002815D02521A06849014118497B002947
:107E500008D09849D4314018417B027B08029B49E5
:107E6000104388476846984A017B96322069E1E7CB
:107E70003D20FFF722FFA1E728780007000F052823
:107E8000B8D18F49EE31A81C884728788722400650
:107E9000C10FA06811540622A91C883002F0CBF84B
:107EA000A8E7F0B5864999B00420884700280ED08D
:107EB000834904201A31884780491F20AC31884704
:107EC000844880471620FFF7F8FE19B0F0BD8148BE
:107ED0008047002810D0764DAC68A1790807F4D50A
:107EE000E079C2071CD07C49204698308847A868B2
:107EF000C179490849001FE0774E754F754DB2367C
:107F00001C376C46103507E06846B0470128DCD1C5
:107F100068460178601CB847A8470028F4D0D4E729
:107F200082070BD56D4A20461C328E30811C90474B
:107F3000A868FD22C17923E0C171C6E7420708D5D0
:107F4000664920466031A8308847A868FB22C1797D
:107F500016E00207F726002A09DA5F4A2146423274
:107F6000A07A0B319047A868C1793140E4E7C00698
:107F700008D5594968467C318847A868EF22C179FD
:107F80001140D9E720463140FF30A1712130017DF9
:107F90000026002910D006752146072287310CA83B
:107FA00002F049F821460DA82A228E31033002F052
:107FB00042F84A490CA88847012069460870487071
:107FC0008E70A96800A82A2203308E3102F033F89F
:107FD0002D220821434C6B460020A04775E7344909
:107FE0000128C9690FD0022811D0042812D008280E
:107FF00013D0102814D0202815D0402816D080285F
:1080000018D0012070478878C007C00F7047887863
:1080100080070DE0887840070AE08878000707E0CD
:108020008878C00604E08878800601E088784006F9
:10803000C00F70478878C009704710B501780129D2
:1080400020D1401C02F01BF81A4A10285BD00EDC2D
:10805000012818D002281ED0042844D0082811D1A5
:10806000FFF7BDFF00280DD11148563809E0202840
:1080700059D0402806D1FFF7B2FF002802D10B48A3
:10808000801E804710BD0120FFF7A9FF0028F9D10D
:10809000FFF707FF10BD0220FFF7A1FF0028F9D16D
:1080A000FFF79EFE10BDBF650000776A0000CF1687
:1080B0000000B0300020CE03000001120000F50ADD
:1080C000000049570000791900008B1E00002B6248
:1080D0000000BD600000054E000027260000DF47BD
:1080E0000000A13E00000420FFF779FF0028D9D14D
:1080F0009068407A012803D00228D3D1FE48C0E717
:10810000FD48AE38BDE71020FFF769FF0028C9D150
:10811000D0692030407D400701D53E2000E0082096
:10812000FFF7CBFD10BD2020FFF759FF0028F9D144
:10813000F248A6E710B500280ED0F04AD1698B7E30
:10814000082423438B7660310B7E52785B095B01F8
:10815000D206D20E13430B76EA498847012010BDA0
:10816000E74880682330417C027C080210430BD032
:10817000E54948780A78000210430322104308704A
:10818000000A48700120D5E7704730B4DD4C6C34EC
:10819000A44630BC6047F8B5DB48407A000663D59A
:1081A000D748866830462330417C007C0F02D54991
:1081B00007434878097804020C43002F01D1600777
:1081C00052D5D04DA87B697B00026D1C08434BD073
:1081D000002F49D068792979000208432ED1213631
:1081E000707C317C0002084302F063F90022C64B28
:1081F00002F063F802F06BF980B27843642101F079
:1082000006FF4004010C2971080A68710A204143E5
:10821000707D327D00021043814206D30A21401E48
:1082200001F0F5FE2871000A687168792979000269
:10823000084303D10120287100206871B248A107CA
:1082400009D502218C4301210C430470210A41709D
:108250000020FFF76FFF68792A7901021143AB4BC9
:1082600000224020FFF791FFF8BD1CB5A6494A7ACD
:10827000002A3AD04A780B7812021A43D30634D433
:10828000437804781802204301282ED1C878401E74
:108290000006000EC87029D008468B78017AC27992
:1082A00009021143027BC47A12022243C01C012B33
:1082B00024D0521A0272120A42721206037A120C67
:1082C0001A43531A69460B804A808E498A7B497B40
:1082D00012020A4369468A80417B027B08021043EE
:1082E0006946C8808B49684688471CBD887AC87033
:1082F000402002430A70100A48701CBD5218D9E78A
:10830000854A1047844A2032104738B50024214658
:108310007F20FFF7F7FF00213B20FFF7F3FF292124
:108320003B20FFF7EFFF69463B20FFF7E9FF684678
:108330000078800701D5012038BD641CA4B2FF2C51
:10834000F1D9002038BD10B574488047012010BD18
:1083500010B56A49724A8870002807D18868807809
:10836000022803D000209047012010BD0120FAE729
:1083700010B5624C0128A168887004D0002836D05E
:1083800002284BD05EE0606A014620310A7852082C
:1083900052000A700A78FD231A400A700178890990
:1083A00089011C3101704178890989011C314170B2
:1083B00000217F20FFF7A6FF03212120FFF7A2FF66
:1083C0001F210320FFF79EFF7D205249C00080310E
:1083D000884702217F20FFF795FF01210020FFF74A
:1083E00091FF00217F20FFF78DFF0F2127E0002163
:1083F0007F20FFF787FF00210420FFF783FF022182
:108400007F20FFF77FFF00210846FFF77BFF002159
:108410007F20FFF777FF0021032011E002217F205A
:10842000FFF770FF03210020FFF76CFF00217F2082
:10843000FFF768FF00210320FFF764FF00210420FD
:10844000FFF760FFA078FFF783FF012010BD10B594
:10845000FFF78EFF012010BD304810B50C3080476B
:108460002748006A017ADF2211400172012010BD05
:10847000FEB52A4818308047214C0190206A817A45
:10848000007ACF07FF0F002672B6800702D00126C0
:10849000FFF7E2FF1A48006A817A490849008172B1
:1084A0001F49012088470220FFF762FF1A49642014
:1084B00066318847002469460C70254601217F20DB
:1084C000FFF720FF00210A20FFF71CFF22210A20CE
:1084D000FFF718FF69460A20FFF712FF6846007889
:1084E0004007EFD469460A20FFF70AFF6846007884
:1084F00040071CD515E027150000C1160000B0305C
:1085000000203F4400009E3400200000F43F5F1F25
:10851000001033420000C561000007470000A76556
:10852000000068460078000706D4012504E0641CBA
:10853000FA48A4B28442D5D3F94964208847002080
:10854000FFF716FFF74901988847F648006A817AD5
:108550004908490039438172002E01D0F348804711
:1085600062B6002D01D00120FEBD0020FEBD10B579
:108570001121EE4801F078FD10BD70B50446401C95
:1085800001F07DFD022818D0042819D001214904EA
:10859000884244D125462035687B0923010702091A
:1085A000090F0020072A19D0032A1DD0022A22D041
:1085B000012A26D0002A2AD02FE0FFF7D8FF37E083
:1085C000D948FF218068012235310A54807800287B
:1085D00001D1FFF74DFFFFF798FE29E0581A062159
:1085E00048434121C94304E0581A06214843352134
:1085F000C943081A10E0581A062148432321C943E9
:10860000F7E7581A062148431721C943F1E7581ADA
:1086100006214843801D404240B2687308E040286C
:108620001DD00121C903884202D1601DFFF71DFE44
:10863000BF494878097800020843800607D5601CC6
:1086400001F01DFD0005000F01D0FFF7A4FDB548A6
:108650002C3001F014FD01462046884770BDB1481A
:10866000283001F00CFD4006E2D570BDB149084745
:108670001CB5AE4808210170002141700146087BFD
:10868000CA7A0002C91C10432FD04A790B79120212
:108690001A43821A92B26B461A8058800623062A21
:1086A00001D26A461380062801D268464380487B7F
:1086B000097B000208436946C8809C48817B427B55
:1086C0000802104369468880974880682330417CBF
:1086D000027C0802104302D00020FFF72BFD9549D1
:1086E000684688479349402088471CBD9049487890
:1086F0000A7800021043C2050CD5FF2201329043D4
:108700000870000A48700879401E0006000E0871C3
:1087100009D0ADE7202210431022904304221043D9
:108720000870000A48707047FEB5804D04466878AE
:1087300029780002084300077DD57F488047697883
:108740002A78090211430822914329700A0A6A70A3
:108750006B7A064628461A066ED5A2796779120208
:10876000651C3A43704FE41C002A77D01022114355
:1087700001700A0A427088065ED46879297900027D
:10878000084332D001F095FE019100906078217885
:108790000002084301F08DFE694C0022234601F0DF
:1087A0008CFD019B009A01F088FD01910090B86852
:1087B0002130417C027C0802104301F07AFE002245
:1087C000234601F07AFD07460C46687A297A0002B2
:1087D0000843801B01F059FE3A46234601F06DFD27
:1087E000019B009A01F0B7FC24E060782178000238
:1087F000084301F042FE0446B8682130417C027C07
:108800000802104301F039FE214601F04BFC01F053
:108810007CFE00224A4B01F050FD07460C46687A68
:10882000297A00020843801B01F02FFE3A462346B6
:1088300001F043FD02E06EE064E00FE00022404BF7
:1088400001F0A3FD01F043FE0104090C00D1012158
:108850003D4B00228020FFF798FC53E09A0651D54B
:108860008278012A4ED18A064CD4FF223048013248
:1088700011430170090A41706078217800020843B1
:108880002B490A7BCB7A1102194388423AD901F06D
:10889000F4FD0446B8682130417C027C0802104394
:1088A00001F0EBFD214601F0FDFB01F02EFE002260
:1088B000234B01F002FD07460C46687A297A000234
:1088C0000843801B01F0E1FD3A46234601F0F5FC28
:1088D00000221B4B01F059FD01F0F9FD0104090CC8
:1088E00000D10121184B00228020FFF74EFC0F48D9
:1088F0004178027809021143FF22013211430170CD
:10890000090A4170032069460881022291030E4C36
:1089100002AB0020A047FEBD0000FFFF00002B625D
:108920000000A7650000B0300020074700009E341B
:108930000020B344000033420000BF550000000097
:10894000F43F00005940EB240010A13E000010B598
:108950000446007800280ED1A178627808021043FE
:108960000AD0012807D1FE49201D8847002802D1DE
:108970002820FFF7A2F910BDFB49201D88470028D9
:1089800002D12820FFF799F9201DFFF7CDFEF64808
:1089900001218368062209040020F44C3133A047EA
:1089A00010BD10B50078012801D1FFF79DF910BD69
:1089B00030B5EF4885B0804701217F20FFF7A2FC4A
:1089C00069465020FFF79CFC68460078042801D0D7
:1089D000E9488047FFF74CFDFFF797FC0124684604
:1089E00044800480E5480190E54968468847684628
:1089F0000470447000244480E2480190DB48E14B5D
:108A0000806808226946C01801F015FB0121DE4D7F
:108A10004020A84701218020A84701212020A84705
:108A200003216846018041808480C48004814481A0
:108A30008481C481D648D14904906846A2398847C8
:108A4000012005B030BDCA4810B50A30804701206A
:108A500010BDC74910B528318847012010BDC44951
:108A600010B55E318847012010BDC14910B56A318B
:108A70008847012010BDBE4910B5783188470120D4
:108A800010BDBB4910B588318847012010BD10B515
:108A9000B74C383CA047012010BDF8B5B34CBC49D9
:108AA000A06837308847E0683B230178BF250A0972
:108AB000A16812015B5C1B071B0F1A4302701207AF
:108AC000120F012A79D00B4640335A781B781202D4
:108AD0001A430B4642331A70120A5A7002788B7A84
:108AE0002A409B011A435206520E027066235B5CB9
:108AF00042789B1D92099B0692019B0E1A4342707D
:108B00000622801C0B3101F096FAA1686620425CB7
:108B1000002A04D0E0686731083001F08CFAA068C0
:108B2000002120304177E0689B4A41788906890E10
:108B3000891C9047E06801780A091201121D027031
:108B4000A1682A408B7ADB075B0E1A43027046232A
:108B50005B5C42789B1D92099B0692019B0E1A4317
:108B600042700622801C0B3101F065FAA168462094
:108B7000425C002A04D0E0684731083001F05BFA1B
:108B8000E068844A41782C328906890E891C904716
:108B9000A56801272E462036F07E01283BD000280C
:108BA0004CD002284AD0062848D00023704C1A46E0
:108BB00001211846A047F8BDFFE70A464032137965
:108BC00053718B7A0278DB072A405B0E1A430270DE
:108BD00087235B5C5206520EDB011A430270427817
:108BE0000B31920992010C3242700622801C01F076
:108BF00022FAE068A16806220830883101F01BFAE9
:108C0000A16803223D204254624A8720405C323AE8
:108C10008831904787E74035687900280AD02820B6
:108C20000621E269937EFD24234093761775737FB6
:108C3000327F3AE001206F710146F2E72C46423460
:108C40006078217802020A4316D02235697F192004
:108C50002B7F800109024243194301208904890CBA
:108C6000009105D0104601F0BCF9401C7F2809D8BE
:108C7000C5B22770380A0CE0380A277060700125E9
:108C8000009507E07F2529467E3001F0AAF9207083
:108C9000000A60703548C069817E022211438176E6
:108CA0000775737F327F00992846374CFE34A04702
:108CB0003A4880477FE710B5FFF7EFFE012010BD6F
:108CC00010B5364903200870364964208847294882
:108CD00010308047012010BD10B53249884701206F
:108CE00010BD304810B55C308047012010BD10B574
:108CF0002E488047012010BD2C4910B50831884707
:108D0000012010BD294910B516318847012010BD3A
:108D1000264910B578318847012010BD13494870A5
:108D200001207047214910B586318847012010BDC8
:108D30001E4A10B58E329047012010BD7CB5054605
:108D400001F09DF909490446283101F0A2F9281DD6
:108D500001F095F905492C3101F09BF9402084433D
:108D600025E0475F00005D5B0000B0300020A13EC1
:108D70000000793D0000F7460000A12700102F44B5
:108D80000000391E0010CE020000615500004D2782
:108D90000010B1570000D96000009D56000000008F
:108DA000024045620000014100001D420000F948F8
:108DB0000190F94900946846884701207CBDF64936
:108DC00010B57A318847012010BDF34A10B58232C0
:108DD0009047012010BD10B5F1488047022801D905
:108DE000002010BD012010BDF8B50746EC481C4618
:108DF00015460E468047022807D92346E74C2A46E7
:108E0000314638469234A047D5E60020D3E6E449FF
:108E10000847E34908310847E24A2232104738B58B
:108E2000049C0094DF4C4434A04738BD30B4DC4C83
:108E30007C34A44630BC6047DA49AC310847D84A94
:108E4000C6321047D74AE832104730B4D64CA44651
:108E500030BC6047D44B30331847D24B5C33184793
:108E600030B4D04C8834A44630BC6047CE49B831C9
:108E70000847CC48CC30004770B5CB4D0446082895
:108E800004D0A868407808280DD014E000217F2085
:108E9000FFF738FA01214020FFF734FA286A0178F9
:108EA000C908C9000EE000217F20FFF72BFA00213E
:108EB0004020FFF727FA286A01786207C908C9002D
:108EC000520F11430170A8684470012070BDD3E7B0
:108ED00010B50446B64880472070012010BD10B57B
:108EE0000446B248801D80472070012010BDAF4964
:108EF00010B51C318847012010BDAC4810B5723048
:108F00008047012010BDAA480047AA490847A9493F
:108F10001A31084708B5A849684688476846C078A6
:108F20008007C00F08BD08B5A44968468847684651
:108F3000C078C00900D0012008BD10B5FFF7E0F9E6
:108F400010BD10B5FFF7DEF910BD984810B55230CE
:108F50008047012010BD10B594490122C8694275AF
:108F6000437CDB09DB019B1C4374931E83741B0A47
:108F7000C374096ACB7AEF242340CB724B7B9343B3
:108F80004B738B7A13438B72817E02231943817654
:108F9000017C11430174874905201A3188478748AD
:108FA0008047012010BD854810B512308047012050
:108FB00010BD814910B57E318847012010BD7E4922
:108FC00010B596318847012010BD7C4910B5583145
:108FD0008847012010BD7949AC310847784910B560
:108FE000FA318847012010BD10B57548804701202F
:108FF00010BD734810B518308047012010BD704B6C
:10900000A23318476F4BD833184770B504466648EB
:109010000D464068283001F032F8002805D072B6BD
:109020000019684A2946904762B670BD70B504467B
:109030005E48154640680E46283001F020F80028AA
:1090400007D072B600195F4B2A463146EA3B984773
:1090500062B670BD70B504465448154640680E4669
:10906000283001F00CF8002807D072B60019554BD3
:109070002A463146823B984762B670BD70B50024DF
:1090800072B6494D68680A3000F0F9FF4E4B57211F
:109090004E4AEA3B984762B64C484A4E0078002850
:1090A0000DD001281ED024E072B6143000F0E7FF86
:1090B000210340180121B04762B6641CE4B268681D
:1090C000C17B827B09021143A142EDD811E072B647
:1090D000103000F0D4FF210340180121B04762B6E0
:1090E000641CE4B26868C17B827B09021143A1421F
:1090F000EDD8012070BDF8B50F46054672B62A4C72
:1091000060680A3000F0BBFF2F4B57212F4AEA3B23
:10911000984762B62D482B4E0078002802D00128CF
:1091200004D00CE072B66068143002E072B6606879
:10913000103000F0A4FF40193946B04762B6012054
:1091400039E5F8B5044620480F46017817481D4D0B
:109150004068823D1646002902D0012903D00BE069
:1091600072B6143001E072B6103000F088FF0019BA
:1091700032463946A84762B601201CE530B40A4B96
:109180005C68E37BA47B1B0223431B0383421ED248
:1091900030BC0020704779230010B34200002B4EF2
:1091A0000000B73A0000BB3B0000B03000209F44F5
:1091B0000000FB5F00002B6200004D650000E546EB
:1091C000000003480000435400004734002030BC36
:1091D000C9B2B6E730B4DA4CA44630BC6047F8B543
:1091E000D9488047D94C607A002840D00006042531
:1091F00000280FDA6078217800020843400709D57B
:10920000FEF7C9FF6078217800020843A843207068
:10921000000A60706078217800020843CC4FCC4E81
:1092200041060CD5402188432070000A607002205E
:109230006946088002466B4639460020B047607890
:10924000217800020843C10711D040084000207077
:10925000010A6170800702D56846058002E005209A
:109260006946088002226B4639460020B047A2E4D6
:10927000B948004738B5B84C2078002804D1B74920
:109280006846884701202070012038BD70B50278FB
:10929000002A49D0AD494A7242788A72002A01D028
:1092A000042A01D904228A72C278847813022343E3
:1092B000A64A1C0AD37214734479057924022C43FC
:1092C00015466C73240AAC73C4798579200228434F
:1092D000D073000A1074A04808258068D21C213081
:1092E000447C007C240204430120A342887008D9F6
:1092F0001B1B07E01071000A01E01571280A50716C
:1093000007E0E31A8C7AA3420ADA1071000A50715E
:109310008B72887AC8700871FFF7AAF9012070BDB6
:10932000E400A342E9DAE5E7002070BD8B498969D2
:109330000870020A4A70020C8A70000EC870487ADF
:10934000022210434872704738B50446002000904E
:109350008349684688470099F8208143E006000E5B
:1093600008430090FFF7E2FF38BD7C4872300047A9
:109370007B495A3108477A49084779491A310847E1
:109380007948004778490C310847F8B500260B4664
:1093900004460125304631462D03675C491CBE1941
:1093A000A942FAD30021675C491C7840A942FAD34C
:1093B0009E422CD190422AD1684E70680A3000F04B
:1093C0005EFE614A694B573A5721984770680A30E8
:1093D00000F055FE5D4900195722573900F02BFE69
:1093E00070681C3000F04BFEB168001907220A318A
:1093F00000F021FE5D4A01210020EA3290475A4BDD
:1094000000202246294668339847012052E4002074
:1094100050E470B50126504C36030546534B314697
:1094200000206269984751492846884760681C3087
:1094300000F025FE616907224018A1680A3100F09A
:10944000FAFD494A01210020EA329047474B0020AB
:10945000314668336269984770BD10B504463E488E
:1094600040680A3000F00BFE10213F4B2246573077
:10947000984710BD70B50126384C360305463A4B67
:109480003146002062699847384A01210020EA32BB
:10949000904760680A3000F0F2FD61691022573190
:1094A0004018294600F0C7FD304B00203146683394
:1094B0006269984770BDF0B5284C0025E469E678EC
:1094C000360701D50020F0BD00BF6D1CEDB2642D44
:1094D000FAD3254640356E7CB607FCD400252646D7
:1094E000C036377947556D1CEDB2022DF9D3467859
:1094F0000125F709002F08D0F606F60E0E7015703C
:1095000042785206D20F1A7004E0B3069B0E0B701D
:1095100000231370114B0A78DB69801CC033272AA3
:109520000CD20022C03403E026798654521CD2B2F9
:109530000E789642F8D85D720120F0BD5D72C1E7E9
:1095400000007B4A00005B4600009E340020008043
:109550000000A13E0000F94B0000B03000204D6536
:1095600000002B620000776A000059530000A13D03
:10957000000070B51E46002913D0FE4DAC696B6922
:109580009C420ED205C408467D21490148437D21F5
:10959000083C00F026FDA0602673002060611834AE
:1095A000AC6170BD884200D30846704710B5F148E1
:1095B00040682030017CC9070DD0017C4908490072
:1095C00001740122ED4B11021960417C1143417479
:1095D0003220FFF7D0FE10BD70B5E64E054670682C
:1095E0000C462030017CC90706D0017C490849009F
:1095F00001743220FFF7BFFE726820321575280A09
:109600005075280C9075280ED075107C10210843D9
:109610001074907C400840009074D8480460517CDD
:10962000012001435174D44B0102803B1960117C2D
:109630000143117470BDCFE770B5CE4D1821287865
:10964000AE68484369690C1A2869801928610020AE
:10965000C043A86018E0207B002814D02069B042E5
:1096600004D16068002807D0804705E0801B206196
:1096700002D0A168884201D9A0682061A968884207
:1096800000D90846A860183468698442E3D3A86802
:10969000002805D0411C03D0BA49FFF7CCFF70BDAC
:1096A000FFF784FF70BDB349CA688243CA60704740
:1096B000B1484068014644310A7810464A7812029F
:1096C00010438A78C978120410430906084370478A
:1096D000F8B50546FFF7ECFFA74A91680E1A00207F
:1096E000C043166190601078182153694843191AD5
:1096F000002718E00868A84202D10F734F6111E0FB
:10970000087B00280ED00869801B086102D08C6895
:10971000A04201D98868086104469068844200D854
:109720002046906018319942E4D39068002805D013
:10973000411C03D09349FFF77EFFF8BDFFF736FFCA
:10974000F8BDF8B58C4B054618781821484359697F
:10975000081A06E00268AA4202D1027B002A34D12C
:1097600018308842F6D3FFF7A3FF99680E1A00203D
:10977000C0431E6198601978182041435869411A06
:10978000012718E00A68AA4203D18A680A610F73A8
:109790000BE00A7B002A0DD00A69921B0A6102D0F5
:1097A0008C68A24201D98A680A619C68A24200D8EA
:1097B00014469C6018318142E4D39868002805D093
:1097C000411C03D06F49FFF736FFF8BDFFF7EEFEEF
:1097D000F8BD684918220B7853434A69D11A05E04D
:1097E0000B68834201D1087B704718319142F7D34F
:1097F000FF20704770B50D460446FFF73BFD00287B
:1098000008D05C48182104704C436119856141619E
:10981000FFF7CCFE70BD57494A68114620310875E4
:10982000030A4B75030C8B75000EC8758B7C0120E9
:1098300003438B744B7C03434B740B7C03430B74CB
:109840002032D37CDB07FCD00A7C520852000A7419
:109850004A7C02434A747047474840682030C17CC4
:10986000C90708D0417C0122114341744448006873
:10987000002800D000477047F8B53E4F064678688C
:109880000D462030017CFD248907002905DA017C82
:10989000214001743220FFF76EFD7A68203216767F
:1098A000300A5076300C9076300ED076107C202125
:1098B00008431074907C2040907430484560517C7F
:1098C0000220014351742C4B0102803B1960117C32
:1098D00001431174F8BD10B5274840682030017C61
:1098E00089070ED5017CFD22114001740121224A15
:1098F00049021160417C0222114341743220FFF77A
:109900003AFD10BD1C4840682030C17C890708D54D
:10991000417C02221143417419484068002800D05C
:1099200000477047F8B5134F064678680D4620305B
:10993000017CFB244907002905DA017C21400174E0
:109940003220FFF718FD7A6820321677300A5077F8
:10995000300C9077300ED077107C40210843107483
:10996000907C2040907405488560517C0420014320
:109970005174010207E0E030002080E100E0B034E3
:109980000020373400101F4B803B1960117C0143CD
:109990001174F8BD1D480C214068403041180A7808
:1099A00010464A78120210438A78C978120410438C
:1099B00009060843704710B5144840682030017C00
:1099C00049070ED5017CFB221140017401210D4A8B
:1099D00089021160417C0422114341743220FFF757
:1099E000CAFC10BD094840682030C17C490708D531
:1099F000417C04221143417405488068002800D04E
:109A000000477047000080E100E0E0300020B03403
:109A1000002018B5F84800680090002069460B5CEB
:109A20000A241A0962431B070A541B0FD2180A544E
:109A3000401C0328F3DB009818BD08B5FFF7E9FFC9
:109A4000009068460178C078EC4A401E50430A18DE
:109A500068468178E12000014143684640783C2314
:109A6000584308181118E54A1069814201D3081AB1
:109A700002E0E34B081AC018116108BD70B50D462D
:109A8000002802D0DC4E083E01E0DA4E0C3E0024F5
:109A9000285D0A2100F0A5FA000101432955641C44
:109AA000032CF5DB284600F0EAFA30606420FFF76B
:109AB00062FCD0482038C17A08221143C17270BDBF
:109AC00038B5CE4909694418CC49204600F089FAD6
:109AD000421C6846C270E12508462D01294600F067
:109AE00080FA0246684682702946204600F079FADC
:109AF00008463C2100F075FA0146684641703C2159
:109B0000204600F06EFA6846017069460020FFF7B3
:109B1000B5FF38BD38B5FFF77CFF00906846017887
:109B2000C078B54A401E50430A1868468178E12043
:109B300000014143684640783C23584308181118F7
:109B4000AF4BB0485A6A0468914201D38A1A02E0C6
:109B5000AC4D8A1A5219A21802601046596238BDDB
:109B600070B500290BD0A54D6E69AC69B44206D220
:109B7000A16005C423710020E0601034AC6170BDA9
:109B8000884200D3084670479B4920398A7A0F23C0
:109B90008343887A1A400009000110438872704795
:109BA00070B50446400701D5FFF733FFE00741D009
:109BB000934C18216078666848436169081A03E08D
:109BC000027B002A02D118308842F9D3884231D270
:109BD000FFF733FF6168E0684018E0600020C04391
:109BE000606060781821484361690D1A18E0287B8D
:109BF000002814D02869B04204D16868002807D032
:109C0000804705E0801B286102D0A968884201D9FD
:109C1000A86828616168884200D9084660601835E4
:109C200060698542E3D36068002804D0411C02D0FB
:109C3000FFF746FF70BD0120FFF7A6FF70BD6F491B
:109C40008A6882438A607047F8B50446FFF7F5FEDC
:109C50006B4AD06072B60021C94351605178182315
:109C600059435369591A002717E00D68A54202D1DC
:109C70000F734F6110E00D7B002D0DD00D692D1A73
:109C80000D6102D08E68B54201D98D680D615668AC
:109C9000B54200D93546556018319942E5D3506830
:109CA000002804D0411C02D0FFF70AFF02E0012087
:109CB000FFF76AFF62B6F8BDF8B5504C054660780C
:109CC000182148436169081A06E00268AA4202D1D5
:109CD000027B002A38D118308842F6D3FFF7ADFE58
:109CE000E06072B60021C94361606178182266693C
:109CF0005143711A012719E00A68AA4203D18A6800
:109D00000A610F730BE00A7B002A0ED00A69121A4F
:109D10000A6102D08B689A4201D98A680A611346A7
:109D20006268934200D81A4662601831B142E3D3A8
:109D30006068002804D0411C02D0FFF7C1FE02E099
:109D40000120FFF721FF62B6F8BD2C49C8617047BA
:109D5000F1B582B0FFF771FE294DE86072B60021BF
:109D6000C943696069786E69182251430090741A7A
:109D7000EF6920E02068B84209D13C21029800F048
:109D800030F93C20401A2061012020730CE0207B38
:109D900000280FD021690098081A206102D0A1681C
:109DA000884201D9A068206120696968884200D989
:109DB000084668601834B442DCD36868002804D0D0
:109DC000411C02D0FFF77CFE02E00120FFF7DCFE21
:109DD00062B6FEBD0A4918224B7853434A69D11A2C
:109DE00005E00B68834201D1087B7047183191422E
:109DF000F7D3FF207047C010005080510100FC30A5
:109E00000020803A09009C30002071490878002821
:109E1000F0D17048C37A01221343C372C37ADB07BF
:109E2000FCD10A70E6E76A490862E3E76A498A7A80
:109E3000024310078A7A000F1209120102438A7244
:109E4000D8E764498A7A1209024310018A7A120714
:109E5000120F02438A72CDE770B505460024285DD3
:109E60000A2100F0BEF8000101432955641C032CAF
:109E7000F5DB284600F003F957492039C86370BD67
:109E8000554A138A401EDB0BDB034004400C03439E
:109E90001382907C090700090001090F08439074A0
:109EA000A8E74C48C17A04221143C172C17A49071C
:109EB000FCD49FE74749087801289BD14648C27ADD
:109EC00002231A43C272C27A9207FCD4002008709F
:109ED00090E7F3B581B0FFF7EDFFFFF7E2FF012058
:109EE0000021C003FFF7CCFF6420FFF744FA0121F3
:109EF0006846C1700024847044700470FFF7ACFFA2
:109F0000344D07262C616846C670172787703B249E
:109F10004470047069460120FFF7B0FD6846C670C2
:109F200087704470047069460020FFF7A7FD0F207A
:109F3000FFF787FF0F20FFF727FE0120FFF776FFCF
:109F400002982862FFF761FF244904200860FEBDE3
:109F500070B50D460446FFF78DF900280BD01C485C
:109F6000182144704C4361198561416101201B49EE
:109F7000C003FFF7AEFF70BD10B51648407A030767
:109F80001B0F1846FFF75DFF1248016A002901D038
:109F90001846884710BD0E4800782BE718B50028F2
:109FA00002D00C48183001E00B48143000680090D3
:109FB000002069460B5C0A241A0962431B070A54F5
:109FC0001B0FD2180A54401C0328F3DB009818BD5D
:109FD0000000FC300020A010005000E100E09F399C
:109FE000001030B50B46014600202022012409E074
:109FF0000D46D5409D4205D31D469540491B25463B
:10A00000954040191546521E002DF1DC30BD70B54B
:10A0100000242546002801DA01244042002901DA03
:10A0200001254942FFF7DDFFAC4200D04042002C41
:10A0300000D0494270BD03460B439B0703D009E0A3
:10A0400008C9121F08C0042AFAD203E00B78037073
:10A05000401C491C521EF9D27047D2B201E0027076
:10A06000401C491EFBD270470022F6E710B513468C
:10A070000A4604461946FFF7F0FF204610BD0321AB
:10A08000001D401E037812021A43491EF9D51046DE
:10A090007047034603220870000A491C521EFAD575
:10A0A00018467047F8B502464A40D40F42004B00AC
:10A0B00052085B089A4202D20246084611464A00FC
:10A0C00023D0C30D4A00DDB2120EAD1A202D35DAB1
:10A0D00049020126490AF6058A19002C00D052428D
:10A0E00020214F1B1146B9402A411018C20D9A4237
:10A0F00021D0002C17D0012D08DCDA05801AD20FF0
:10A100008019D207DBB200F080FAF8BDDA05801AB8
:10A11000012340001B06C01880185A428018CA0F3D
:10A120001043490007E04908C2071143DA05801AC5
:10A1300080194008801800F060FAF8BD6100012223
:10A14000511A001BF7E70122D2075140AAE701226A
:10A15000D2075040A6E7F0B507460846584087B0FA
:10A16000C00F049048000E46590040084908BC1A28
:10A17000884105D2384631461E4617460B460246F0
:10A180005800400810434CD0300D03904005590052
:10A19000400D490D0590401A0290402872DA1803CC
:10A1A0000121000B09050843019004980092002842
:10A1B00005D00199524200208841009201900298F6
:10A1C00040210A1A0199009800F0E3F905460C466F
:10A1D0006B4607CB00F0FEF9C0197141039A0E0DD2
:10A1E0000023D71756401A467A40164344D0049AA3
:10A1F000002A2DD0029A012A039A15DC1205C01AF2
:10A20000914101263605001C7141D20F059ED207EF
:10A210000093019202962A46234600F03CFA07B0CA
:10A22000F0BD38463146FAE71605224A0F46B21805
:10A23000C01AB74101210905001C4F4100187F4198
:10A24000114618187941E20F10436D19644113E06B
:10A25000E2076D0815436408C2071443039A0126F8
:10A260001205C01A91413605001C7141CE07400805
:10A2700030434908C01851412A46234600F0FEF9F0
:10A28000CDE7FFE7049801224000C117121A00230E
:10A290008B4104983146C417381AA141EEE730B417
:10A2A0000124E407634030BC55E730B40124E407DF
:10A2B000614030BC4FE70000E0FFF0B51FB488B04C
:10A2C0000B990998002448400999C00F4900490892
:10A2D0000991C0070B990090490049080B91099911
:10A2E0000898A64608431CD00B990A98084318D032
:10A2F000099801244000420D4800410D09982405A9
:10A300000003000B204309900B980003000B20432F
:10A310000B9050181C49401800220190144610461A
:10A3200005E0002001460DB0F0BD032801DA034628
:10A3300000E003239C46C11A0AAE0AE05F0008ADA4
:10A34000ED5B4F00F75B7D430027AA187C41491C59
:10A350005B1E6145F2DD410004AB5A522104120C30
:10A360000A43240C401C0828DFDB01980290009966
:10A37000704601910090059B049A0799069800F099
:10A380008AF9D0E700000DFCFFFFF0B50C465C40F9
:10A3900085B0E40FE40703944C00002664085900DC
:10A3A0009446490802460296224321D062460A4357
:10A3B0001ED06200570D4A000E032303550D0124E1
:10A3C00002462C492405781B1B0B360B40182343EF
:10A3D0002643614600901C46501AB44103D30098AE
:10A3E000401C009002E0921800985B41002803DABC
:10A3F0000020014605B0F0BD0020012109050746F7
:10A40000864611E064461D46141BB54106D36546D9
:10A41000521BB341744607430C43A646CD07400880
:10A420004908284392185B4105460D43EAD110467E
:10A43000184313D06046194650407140084306D077
:10A440006046101AB34106D20122002306E0002222
:10A450000123DB0702E00122D24353100098744627
:10A460000105381C6141029C039D0019694100F0FF
:10A4700005F9BFE70000FD03000010B50022962398
:10A48000114600F0C2F810BD00000EB5C217C10F92
:10A490005040CA0740180021054B029301920091D9
:10A4A0000A460B4600F0F7F803B000BD0000330485
:10A4B00000000EB505490291002100910A460B46A5
:10A4C000019100F0E8F803B000BD330400004A0039
:10A4D00009030123090B1B051943094B10B5520D44
:10A4E0009A4201DA002010BD064B34339A4203DC55
:10A4F0009A1A00F05EF810BD03495118884010BD4B
:10A500000000FF030000CDFBFFFFC20FD207400099
:10A5100040080BD0C10D0723DB01C9184002090513
:10A52000400A1143C208400711437047002001460A
:10A530007047F0B51FB40646002082B0054640249F
:10A54000019100901BE0019922460F46304600F031
:10A5500030F8049A059B801A994110D31046194689
:10A56000224600F016F8361A8F4101972246012044
:10A570000021009F00F00DF838184D410090204652
:10A58000641E0028DFDC019B00982946324607B094
:10A59000F0BD10B5202A04DB0146203A914000208E
:10A5A00010BD914020239C1A0346E340194390407C
:10A5B00010BD10B5202A04DB0846203AD040002107
:10A5C00010BD0B46D340D0402024A21A914008432E
:10A5D000194610BD10B5202A06DBCB170846203AD5
:10A5E0001041C1170B4306E00B461341D040202415
:10A5F000A21A91400843194610BD002904DA401CF4
:10A60000490001D140084000704770B40024050C97
:10A6100005D11024000402D1002921D01124050EF7
:10A6200001D100020834050F01D10001241D850F5E
:10A6300001D18000A41C002801DB4000641C00291B
:10A6400008D020252E1B0D46F540A14000D0012149
:10A650002943084301061B1B000ADB1D02D500200D
:10A6600070BC7047DB05181880180029F8DA401C08
:10A670004900F5D170BC40084000704710B5002B70
:10A6800008DA0024401C614192185B411A4301D151
:10A690004008400010BDF0B51FB482B005460C0064
:10A6A00003D0084600F0A1F802E000F09EF8203048
:10A6B0000246009021462846FFF76BFF049B059A4F
:10A6C00004460F4618431143084314D0184610435C
:10A6D0001BD0009840210A1A18460599FFF769FF18
:10A6E00005460E46009A05990498FFF752FF084365
:10A6F00005D0012004E02046394607B0F0BD002017
:10A70000C11705430E432C43374300990E98630548
:10A71000401A7905E40A00220C43FD0A0A3002D5EA
:10A7200000200146E9E70105101969410C9C0D9DC7
:10A7300000196941FFF7A2FFDFE74A00090301237F
:10A74000090B1B0519430A4B10B5520D9A4202DA48
:10A750000020014610BD064B34339A4203DC9A1A9E
:10A76000FFF727FF10BD034BD218FFF712FF10BDF4
:10A770000000FF030000CDFBFFFF10B5002904DB44
:10A780000124E40740428C412146002B04DB1C4697
:10A790000123DB075242A341994200D1904210BDF0
:10A7A0000000064C0125064E05E0E36807CC2B436C
:10A7B0000C3C98471034B442F7D3FBF786FD084FA2
:10A7C0000010284F001037B514460846064B6A465D
:10A7D000214600F0F8F804466946002000F08FFC9E
:10A7E00020463EBD0000FD4E00102021020C01D08D
:10A7F00010211046020A01D010460839020901D082
:10A800001046091F820801D01046891E420801D057
:10A81000881E7047081A704730B47446641E257845
:10A82000641CAB4200D21D46635D5B00E31830BC84
:10A83000184702E008C8121F08C1002AFAD1704761
:10A840007047002001E001C1121F002AFBD17047B0
:10A850000000F0B51FB486B00998089A030D0021D6
:10A86000024314D05148514A181850430514119806
:10A87000012810981AD0281A401C00264D4F4D4927
:10A88000009601910490002812DA444211E01198D8
:10A89000012449A3012801D11098C1430698119AB7
:10A8A00084600360C26041600BB0F0BD4042E4E7E9
:10A8B0000446210500203F4A001C514103910290AB
:10A8C00012E0E00707D032463B4601990098FFF7B7
:10A8D000F4FC0191009032463B4610461946FFF7C2
:10A8E000ECFC06460F466410002CEAD10498039B4A
:10A8F0000028029A0999089806DAFFF7DEFC019B06
:10A90000009AFFF7DAFC05E0FFF73FFD019B009A94
:10A91000FFF73BFD04460E460022284BFFF72DFFB4
:10A9200003D80020C043014607E00022254B204603
:10A930003146FFF710FCFFF700FF102409E0002C60
:10A940000ADB0A220023FFF7F4FD079B30321A5579
:10A95000641E02460A43F2D11122641C079B121B9B
:10A960001C19119B012B03D0012308430ED10AE0CF
:10A97000084304D0112010900020119077E7109820
:10A98000151A6D1E0BE01098824202DD00236D1C2B
:10A9900003E0824201DA00236D1E002BEED0069800
:10A9A00011998260C16030C07EE701FCFFFF104D4D
:10A9B0000000000014400000F03F300000000000E4
:10A9C000F0430000E03FFFB597B00646002518E2CF
:10A9D000252877D100242746FD49049400E004434C
:10A9E000761C32780120203A90400842F7D1307826
:10A9F0002A280ED00222307801463039092916D88B
:10AA000004990A235943303940181443761C0490A2
:10AA1000F1E7189802C804911890002904DA01207F
:10AA2000400304434842049002200443761C3078DB
:10AA30002E2814D1042004437078761C2A2809D1CA
:10AA40001898761C80C8189009E00A214F43303FBF
:10AA5000C719761C3078014630390929F5D9307884
:10AA60006C2810D006DC4C281AD068280ED06A2832
:10AA700017D104E0742813D07A2812D110E00120F5
:10AA8000400504430CE00121090501E0032109050B
:10AA90000C437178814203D1012000052418761CF3
:10AAA000761C3078119066280BD013DC58287DD0A6
:10AAB00009DC00287BD04528F6D04628F4D047286A
:10AAC0001AD1A5E118E0632835D0642870D0652834
:10AAD00012D19DE170286CD008DC6728F1D069287C
:10AAE0007BD06E280DD06F2806D1BAE073282ED007
:10AAF000752871D0782859D01A9A199990476D1CE9
:10AB00007EE16002400F022809D003280DD00428FE
:10AB1000189801680DD00D60001D189070E118980C
:10AB2000EA1701680D604A60F6E7189801680D8021
:10AB3000F2E70D70F0E718986A4601781172001D6F
:10AB400018900020507202A80090012005E018988B
:10AB500002C8189000200091C04361070DD5002164
:10AB600001E00199491C0191B94212DA8142F8DBF6
:10AB7000009A515C0029F4D10BE0002101E0019919
:10AB8000491C01918142FADB019A0099895C0029F4
:10AB9000F5D1019904981A9B471A21463846199A0B
:10ABA00000F097FA0199401945180BE04FE02CE1AD
:10ABB00013E04EE0009800990078491C00911A9A21
:10ABC000199990470198401E0190401CF2D12146EE
:10ABD00038461A9B199A10E137E00A2000210090AC
:10ABE00001916002410F022907D0189A01CA1892F8
:10ABF000C2179446032908D00AE01898C01DC1085E
:10AC0000C90005C91891944607E000B2C2179446DE
:10AC1000042902D140B2C1178C46002261469445F6
:10AC200006DA0A460021404291418C462D2102E07D
:10AC3000210504D52B216A461173012103E0E107A8
:10AC400001D02021F7E7029155E00A200AE0102008
:10AC500008E01020009000210420044301910827FF
:10AC600003E008200021019100906002410F0229B9
:10AC700007D0189A01CA189200229446032908D0D6
:10AC800008E01898C01DC108C90005C9189194466C
:10AC900003E080B2042900D1C0B200210291210753
:10ACA00029D51199702906D0009A1021019B4A409C
:10ACB0001A4305D00EE040216A461173012108E0D5
:10ACC0006146014306D030216A46117311995173D0
:10ACD00002210291009A0821019B4A401A430AD19D
:10ACE0006146014301D1610705D530216A461173E0
:10ACF00001217F1E02911199582904D035A10E918E
:10AD00000DA90D910DE037A1F9E76146019B009A6D
:10AD1000FFF70FFC0E9B8C469B5C0D9A521E0D920A
:10AD2000137061460143F0D10D9805A9081A20302F
:10AD30000190600703D501200004844300E001274F
:10AD40000198874201DD381A00E000200199009047
:10AD50004118029809180498401A0490E00306D498
:10AD600021461A9B199A049800F0B3F94519002757
:10AD700006E003A81A9AC05D199990476D1C7F1CC4
:10AD800002988742F5DBE0030CD521461A9B199AFD
:10AD9000049800F09EF9451904E01A9A3020199998
:10ADA00090476D1C0099481E00900029F5DC08E0D2
:10ADB0000D980D990078491C0D911A9A1999904790
:10ADC0006D1C0199481E01900029F1DC63E10928FE
:10ADD00001003031323334353637383961626364DB
:10ADE000656600000000303132333435363738398B
:10ADF0004142434445460000000000F05AF945191D
:10AE0000761C3078002800D0E2E528461BB0F0BD63
:10AE1000600700D406271898C01DC108C9004868FB
:10AE20000A680831C30FDB071891190001D09CA1F3
:10AE300008E0210501D59BA104E0E10701D09AA11A
:10AE400000E09AA1430011985B08109165280CD08E
:10AE500006DC452809D046281DD0472841D141E0CD
:10AE6000662818D067283CD13CE00021112F01DB77
:10AE7000112000E0781C0191009008A911A8FFF7AB
:10AE8000E8FC139905910021119A15927F1C1298E4
:10AE90000197009150E00120C0070390012001902C
:10AEA00008A9009711A8FFF7D4FC139A14990592EA
:10AEB0000022119B009212981593059A0192002985
:10AEC00001D0104602E0791C40180190381A01D5D3
:10AED000019804E04042401E0090781C0190C01B85
:10AEE000029043E0012F00DA01270021112F01DD3C
:10AEF000112000E038460191009008A911A8FFF741
:10AF0000A8FC13990591119A0021129815920091AD
:10AF1000019721070CD40599B94201DB019900E0A2
:10AF20000191012904DD159A491E515C302906D092
:10AF3000B84201DA011D05DA0121029115E00199FB
:10AF4000491EEDE7002805DC0099411800910199A0
:10AF5000091A03E0019A411C914200DD0191009918
:10AF6000401A401C02900120C0070390200706D41D
:10AF700002990198814202DB0020C0430290002028
:10AF80006946C87707AF012103980337C90788428C
:10AF900024D0022011902B201290039800280CDA64
:10AFA000404203902D20129007E00A210398FFF7FA
:10AFB00018F830317F1E039039701199481E119096
:10AFC0000029F2DC03980028EFD1791E129808704E
:10AFD0003078202108404530BF1E387006A8C01BBD
:10AFE000C01D039010980078002800D0012001991E
:10AFF00041180298C0170918039809180498401AB4
:10B00000401E0490E00306D421461A9B199A049826
:10B0100000F05FF8451910980078002803D01A9ABC
:10B02000199990476D1CE00324D521461A9B199A63
:10B03000049800F04EF845191CE00098002807DB42
:10B0400000990598884203DD1598405C199901E044
:10B05000199930201A9A904700986D1C401C009056
:10B060000298401E0290002804D11A9A2E201999A5
:10B0700090476D1C0199481E01900029DDDC05E018
:10B0800038781A9A7F1C199990476D1C0399481EAD
:10B0900003900029F4DC21461A9B199A0498ACE627
:10B0A00000002D0000002B00000020000000000028
:10B0B0000000F8B5044600251E461746880404D44F
:10B0C00005E039462020B0476D1C641EF9D528469E
:10B0D000F8BDFFB50446002581B01E46C80301D562
:10B0E000302700E02027880404D505E0384603997E
:10B0F000B0476D1C641EF9D5284605B0F0BD0A683E
:10B10000531C0B60107070470000284F0010003077
:10B11000002024010000304600104C500010243163
:10B1200000209C13000040460010000000000000BA
:10B130001F000000000000000000000000000000F0
:10B1400000031900000201050303010009FF0000CC
:10B1500000000000000009095359445F5541525452
:10B1600000000000000000000000000000000000DF
:10B1700000004C30002000000000000000006010C3
:10B1800000502410005014100050181000501000EF
:10B190000040000000000001020304050607080942
:10B1A0000A1112131415161718191A1B1E1F000165
:10B1B0000203040506090A070811151216171813C9
:10B1C00019141A1B1E1F0000000000000000D00010
:10B1D0000150E00001500024F40000040000ED05DF
:10B1E0000020DF0000208F050020C60500204A0750
:10B1F000002090100050000002400010005060102D
:10B2000000500000000000000000000000000010DE
:10B210000050FFFFFFFF00000000000000000000E2
:10B2200000000000000000000000FFFFFFFF000022
:10B23000000000000000000000000000000000000E
:10B2400000000200000000000000000000002526B1
:10B25000270C0802170D010102090901010602006D
:10B260000700070011001100020011000B0011007F
:10B27000080011000200000098B200100030002009
:10B28000340100008458001038B30010343100201D
:10B2900084130000585900106102101F230319176E
:10B2A0000201050303018309FF200B0909535944D7
:10B2B0005F5541525412D01C0150E0040114135840
:10B2C0003082201360101B5024041A14041A18042E
:10B2D0002210524058180102030405060708090A03
:10B2E0001112131415161718191A1B1E1F181808F7
:10B2F000090A0708111512163C13191418412324C2
:10B30000F4620413ED052320DF1B208F081AC60406
:10B31000134A0714201E061B2014141A906819BF24
:10B3200012401908298021E20819141AFF0101149A
:08B33000091618B2020000002A
:04000005100000C126
:00000001FF
