:020000041000EA
:10000000A84400209D1A0010A51A00107F080010B7
:1000100000000000000000000000000000000000E0
:10002000000000000000000000000000A91A0010FD
:100030000000000000000000AB1A0010AD1A001014
:1000400000000000AF1A00108F3D0010AF1A001022
:10005000AF1A0010AF1A0010110B00106B0C00103B
:100060006F3600101B370010FB370010AF1A00105E
:100070002D190010AF1A0010AF1A0010AF1A00109F
:10008000AF1A0010AF1A0010AF1A0010AF1A00100C
:10009000AF1A0010AF1A0010AF1A0010AF1A0010FC
:1000A0000000000000000000000000000000000050
:1000B0000000000000000000000000000000000040
:1000C0000348854604F078FA004800472F070010DF
:1000D000A84400201FB500206A4610700721517205
:1000E000192189015181FD4991811072684602F000
:1000F000D3FBFB4802F0BEFBF9494A78C81DC27326
:100100008A780274CA7842740A7982744A79C2740D
:100110008A7902750622F3A0491C01F0A2FCF0487E
:100120001038037A8179421D173002F0BBFB1FBDE6
:100130001CB5002802D001280FD106E01020694626
:100140004880C820C880002006E0502069464880CA
:100150004B20C000C8800A208880C02069460870F3
:1001600004204870684602F09CFF6946CB888A8864
:100170004988E0A001F05AFC1CBD3EB5D84C103CAB
:10018000A278012A01D000203EBD01246A461480D5
:10019000032555801F259580148103460A4669462C
:1001A000204602F02CFD3EBD03B583B06846C089F1
:1001B00015214902884201D1DAA010E0DB498842CA
:1001C00008D1DBA0006800900220694602F008FD1B
:1001D00005B000BDD5492831884205D1D5A003C856
:1001E000009001910820F0E7D0492331884201D1E5
:1001F000D2A023E0CD492431884205D1D1A003C843
:10020000009001910520E0E7C8492631884201D1DC
:10021000CEA00AE0C5492531884201D1CCA004E036
:10022000C2492731884204D1CAA000680090042046
:10023000CBE7BE494F31884205D1C7A003C8009023
:1002400001910720C1E7C649884207D1C5A00068CF
:10025000009004216846FFF790FFB9E7C0493831A4
:1002600088420CD100206A461070019002906946C5
:1002700001A801F086F86A4601A91078A6E7BA49F4
:100280008842A5D196490C3901209FE7F0B5044674
:1002900089B0401C03F0FEFD012821D0904D0026BE
:1002A0000127103D022821D0042828D07A03611CA0
:1002B00090425BD148790A790002104301282AD084
:1002C000A74A1E3290423BD1487A097A000208437D
:1002D000800733D0A5A001F0A9FBEF7009B0F0BDF5
:1002E000FFF7F8FE02F0F2FBA5A087E0AE702F70DA
:1002F000012000F08EFF0622A11DA5A070E02E7047
:10030000AE7002F0E3FB012000F083FF6179A6A04C
:1003100001F08CFBE2E7207AE2790002104320280A
:10032000DCD1487A097A00020843800704D0A5A0EE
:1003300001F07CFBAF70D1E7AE70CFE7EE70CDE798
:10034000894A9042CAD1487A097A00020843C00714
:10035000C4D069460A804A8026208880604B0122EA
:100360000F810C3B104602F04AFCB7E7C21FFF3A70
:10037000FA3A0DD0C21FF93A35D001221203904249
:10038000ACD0082839D0920090423AD192A035E002
:100390001E22611D684603F059FD684640886C4680
:1003A000022809D06E493831884297D16E70A17900
:1003B000E01D00F03AFF91E7E079A1280CD1207A06
:1003C000012809D1607A012806D1A07A012803D139
:1003D000002102F0B8FB6F7068468279E11D83A0AE
:1003E00001F03FFB7AE70822611D684603F02EFD0D
:1003F00001990098FFF7D8FE70E77EA001F016FB88
:100400006CE70122D203904284D148790979000235
:100410000843030004F00BF90605121416181A0419
:100420005CE77AA001F002FB684602F07CFB6846BC
:10043000428801887BA001F0F9FA4FE780A0DDE750
:1004400085A0DBE78AA0D9E78FA0D7E793A0D5E7FF
:10045000F8B50025964800950068FF2120302F460A
:100460002C462E46017041709F228270CF22C270AE
:1004700001712846012214282ED008DC062810D04D
:1004800007280ED00F280CD0102806D109E0162816
:1004900022D0172820D018281ED0114681400D43A5
:1004A0000C43401CC0B22028E5D3009801F0E6F8C8
:1004B0000020009901F0AEF80098B84301F078F9F7
:1004C000384601F08CF93146284601F0EEF8214615
:1004D000002001F06BF8F8BDECE00000FF3F0000E9
:1004E0001030002064657669636520616464723A47
:1004F00000000000736D6172745F706172616D73F2
:1005000020696E74657276616C3A2578206C61742E
:10051000656E63793A2578207376746F3A25780D85
:100520000A0000005359445F55415254012A00000B
:10053000FFFF000053594420496E632E424C452072
:10054000312E3000312E302E30000000322E30306F
:10055000332E303056303031023A09050A0200009D
:10056000C9FE0000000103040F18000077656368EE
:1005700061745F747820656E61626C650D0A0000BD
:10058000526553746172744164760D0A0000000074
:100590004741505F4556545F434F4E4E4543544587
:1005A0004420616464723A004741505F4556545F8D
:1005B000444953434F4E4E45435445442025780DFE
:1005C0000A00000073746172745F747820656E6154
:1005D000626C650D0A0000004741505F4556545F4C
:1005E000454E435F53544152540D0A006D73673AB0
:1005F0000D0A00004741505F4556545F5041495233
:10060000494E475F434F4D500D0A000075706461BD
:100610007465207273702041434345505445440D26
:100620000A000000696E74657276616C3A25782064
:100630006C6174656E63793A25780D0A00000000DC
:10064000757064617465207273702052454A454329
:100650005445440D0A000000757064617465207291
:1006600073702054494D45524F55540D0A000000F7
:1006700075706461746520727370205355434345EF
:1006800045440D0A00000000456E61626C65206CF7
:100690006174656E63790D0A00000000446973613E
:1006A000626C65206C6174656E63790D0A000000F0
:1006B00060300020114681400D430C430E43F0E6AC
:1006C000F8B58D4C2078002819D000268B4D0128D4
:1006D00016D001277F0202281BD003280FD12670D5
:1006E000384602F000FF86A001F0A0F97D20C0008E
:1006F00000F01CFB86A001F099F902F05FFBEAE62E
:1007000000F07CFD87A001F091F9022020702E708E
:10071000E1E62878401CC0B228702028EFD984A0D8
:1007200001F084F9384602F0DEFED4E6704772B676
:1007300000F0A9F8002002F0D5FA01F0F1FC002049
:1007400001F090FDFF20F53002F022FD01F09BFD4D
:100750007A49022002F059FF01F036F97849012068
:1007600003F001FB01F04EF9FFF772FE012000F0EB
:1007700085FF012001F01CF801F0F0FC01F052F9B6
:10078000012001F0F0FC6FA271A174A001F04EF9FC
:1007900000F038F900F0CDF9FF210431764803F07C
:1007A0006EFB62B6744D01263605744C744F02F030
:1007B00021FCA878022818D12A78E91C71A001F040
:1007C00050F92878401EC1B2281D00F0CBFA7148BC
:1007D0000078002805D02978281D491EC9B200F0EC
:1007E000A4FB0421644803F04AFB304601F025F8DD
:1007F000002821D0052000F099FA304601F01DF8BC
:10080000002819D064A001F011F9FF2104315A48E1
:1008100003F035FB304601F010F80028FAD1FF2034
:10082000F53000F083FA6049604800F036FB00F0D4
:1008300064FB5FA001F0FAF82068002811D0800561
:1008400008D5FFF73DFF0120400202F037FE5EA011
:1008500001F0ECF82088C00503D5FF20013002F03C
:100860002DFE38680028A2D04007A0D501F00BFD6E
:1008700059A001F0DBF8042003F0ECF897E75AA048
:1008800001F0D4F8FEE710B588B001F09CFF01201C
:1008900002F04FF9594802F09DF903216A4611739D
:1008A00000245473907BFB228843401C10406A460E
:1008B00090731020D0731474517403A802F027F9B8
:1008C000C02005904E48069005A802F042F900208D
:1008D00002F086FAFFF7FEFB6A461470D4701471BA
:1008E000012050709070D11D000503F0DDFA6846BC
:1008F00002F008FA08B010BD443000204530002056
:100900004F54412066696E6973680D0A000000004B
:1009100053746172742052657365742031303030C5
:10092000730D0A004F54412073746172740D0A00F4
:100930004F5441206661696C650D0A0068330020E0
:100940009833002032303A31383A3230000000001B
:1009500041756720313520323031390053796438A0
:100960003831312055415254204F544120202573B5
:100970003A25730D0A00000024310020EC300020DD
:100980000431002075617274207278206461746192
:100990000D0A0000413000204B455931205072654E
:1009A00073730D0A000000004C500000024F00104D
:1009B00055415254204D4153544552204F544120EB
:1009C00053746172740D0A004556545F31535F4F82
:1009D00054410D0A000000005254434556545F3103
:1009E0003835530D0A0000004552523A20486172D2
:1009F000644661756C74210D0A0000000C30002003
:100A00008D020010F8B5C4480068C17B89098901CE
:100A1000C91CC173017C89098901091D0174203039
:100A20008278DF210A4082708378BF22134083706E
:100A3000BA4C206883785B085B00837003781B09DD
:100A40001B010833037003785B065B0E03700378A9
:100A500040252B430370C37810252B43C370837844
:100A600004252B438370857820231D438570867869
:100A7000EF252E408670867880273E4386708678E4
:100A80001640867002782A40027002780A4002708E
:100A90008178022211438170C1781943C170062008
:100AA00000F022F920688178082211438170F8BD96
:100AB0009A490968487008788006FCD50878DF22D2
:100AC00010400870704738B500226C462270934B76
:100AD0001B680DE01C798C546D46521C2C78D2B2E8
:100AE000641C2C702C78641C2C702C78641C2C706A
:100AF000DC78E407EED0027038BD10B58748006896
:100B00008178F72211408170062000F0F6F810BDC0
:100B1000824800680178C90603D50178EF221140A8
:100B200001708178890703D5817802221143817091
:100B3000704770B578480068817989098901491D35
:100B40008171C17989098901891DC17120300278BB
:100B5000BF210A40027002785206520E02706F4C9A
:100B6000606882785208520082700278120912017D
:100B70000832027002785206520E027002780A4061
:100B80000270C27810231A43C270827804231A4379
:100B9000827083782022134383708578EF231D4071
:100BA0008570857880263543857085780D40857001
:100BB0000178194001700178DF23194001708178B4
:100BC000022319438170C1781143C170072000F0DE
:100BD0008BF86068817808221143817070BD4F499D
:100BE0004968487008788006FCD50878DF221040F4
:100BF0000870704738B500226C462270474B5B681E
:100C000010E01C798C546D46521C2C78D2B2641CB6
:100C10002C702C78641C2C702C78641C2C702C7814
:100C2000641C2C70DC78E407EBD0027038BD10B582
:100C30003A4840688178F72211408170072000F01F
:100C40005CF810BD70B54C1C354D0A4601462C7041
:100C5000681C03F0FBF8002304E0E85CFFF7BFFF2B
:100C60005B1C9BB2A342F8D370BDFCB52B48406817
:100C70000178C90637D50178EF221140017001A92A
:100C80006846FFF7B7FF274A9078022701AC002893
:100C900006D09078012826D1694600200D781BE007
:100CA000694608791070002050700D7807E0235CC9
:100CB00051785618491C5170F370401CC0B2A842BC
:100CC000F5D30120907009E0235C51785618491C37
:100CD0005170F370401CC0B2A842F5D3507811781F
:100CE000884200D19770FCBD002805DBC106C90E03
:100CF000012088400C490860704700280ADBC106C3
:100D0000C90E01208840084980310860BFF34F8F29
:100D1000BFF36F8F70470000603000203830002034
:100D2000273200202431002000E100E000220C4B9B
:100D300006E00021491C89B29942FBD3521C92B2B1
:100D40008242F6D37047002206E00021491C89B296
:100D50000229FBD3521C92B28242F6D370470000A4
:100D60008C0A000070B504460078B04D16280CD0EF
:100D7000172815D0182807D1ADA000F057FEA01CE9
:100D800000F023F90320287070BDAFA000F04EFEE4
:100D900002F07FF80146162000F008F90120F2E782
:100DA000ADA000F043FEA41C204603F073F8617967
:100DB000227909021143A21D02F0EBF80146172027
:100DC00000F0F4F80220DEE7F0B5C5B088216846EF
:100DD00003F055F81720694608708024A44803F0F2
:100DE00059F80646A248001F03F054F80546AE42E3
:100DF00034D29F49F001083903F056F83146229069
:100E00009B4E681E361D6F4602AD81420ED13046A4
:100E1000143803F03FF84406640EB91C229803F01E
:100E200043F86946CC80A01D487007E0B91C2298A1
:100E300003F03AF86846C480A21D4270304603F0C1
:100E400029F80146229822460918284602F0FEFF9A
:100E500068464078801CC1B268461AE0AE421AD19A
:100E6000882122A803F00BF8182020A908728620F8
:100E700048727F48103803F00DF822A9023103F0C0
:100E800013F87B480C3803F005F820A9C8818821A5
:100E900022A8FFF7D7FE45B0F0BDF8B50D460746CE
:100EA0006249002472484C701821103802F0E7FFA4
:100EB0006F493846091D02F0F7FF6D492846103981
:100EC00002F0F2FF6A4E103E08E0301D02F0E2FF31
:100ED000395D4018311D02F0E7FF641CAC42F4D3C9
:100EE0006349E809091F0C4602F0DEFF690603D0DA
:100EF0002146401C02F0D8FFF8BD30B54B4CA3B0E2
:100F0000607800280FD18821684602F0B8FF1620CB
:100F1000694608700220487001254D80042168460A
:100F2000FFF790FE657023B030BD70B504460078C1
:100F30000E2812D1A07802263C4D16280ED0172874
:100F400016D0182809D14BA000F070FDE0780128D8
:100F500026D050A000F06AFD6E7070BD55A000F064
:100F600065FDE078012801D058A0F3E75DA006E018
:100F700062A000F05BFDE078012805D066A000F0DB
:100F800055FDFFF721FF70BD6AA000F04FFD384806
:100F9000044602F07FFF2146401C02F085FFF0E787
:100FA0006CA000F043FD0320687070BD08B50022FE
:100FB00000920E226B461A7002225A709870D970F5
:100FC00004216846FFF73EFE08BD10B5044602F056
:100FD00061FF014667A000F029FD607922790102D6
:100FE00011436AA000F022FD204602F053FF617910
:100FF00022790B02134302460021084601F0F5FF57
:10100000044601461820FFF7D1FF012C03D067A04A
:1010100000F00CFD10BD6AA000F008FDFF202D308F
:10102000FFF784FE01F0CAFE10BD00004030002032
:10103000554152545F4F54415F434D445F555047B3
:10104000524144450D0A0000434D445F46575F45F9
:10105000524153450D0A0000554152545F4F5441CF
:101060005F434D445F57524954450D0A000000004C
:1010700037330020554152545F4F54415F434D4434
:101080005F555047524144452052455455524E0DEC
:101090000A000000554152545F4F54415F434D4494
:1010A0005F55504752414445206661696C65640D47
:1010B0000A000000434D445F46575F455241534587
:1010C0002052455455524E0D0A000000434D445FD6
:1010D00046575F4552415345206661696C65640D12
:1010E0000A000000434D445F46575F455241534557
:1010F00020737563636573730D0A00005541525484
:101100005F4F54415F434D445F575249544520520D
:10111000455455524E0D0A00554152545F4F5441AB
:101120005F434D445F5752495445206661696C6581
:10113000640D0A00554152545F4F54415F434D4482
:101140005F575249544520737563636573730D0A85
:1011500000000000554152545F4F54415F434D44DD
:101160005F555047524144452073756363657373FF
:101170000D0A0000705F636D642D3E737A2D2D2D76
:101180002D2D3E3078253038780D0A00705F636D64
:10119000642D3E636865636B73756D2D2D2D2D2D4C
:1011A0003E3078253038780D0A0000005541525401
:1011B000204F5441204661696C65640D0A000000AF
:1011C00055415254204F54412053554343455353A6
:1011D0002C205265736574204D435520696E670D50
:1011E0000A00000010B5A54B0E241B691C70541C8E
:1011F0005C709870D81C02F029FE10BD08B501F093
:1012000048FE00206946087001221620FFF7EAFF19
:1012100008BD00229949002801D00A704A704A800E
:10122000CA808A800A81CA607047F8B5934C0E461E
:1012300061880025002905D02178002902D0657039
:10124000002168E0017811390B0003F0F0F9061075
:101250001A1F474204190020FEF76AFF88A000F019
:10126000E5FB0120400202F077F9012006E00020B2
:10127000FEF75EFF86A000F0D9FB04202070E56039
:10128000F8BD801C00F08FF805201CE0871CC01CF6
:1012900002F000FE01463A78824801F081FF0646DE
:1012A000781C02F0F7FD02463B7831467EA000F044
:1012B000BDFB002E09D06846057001226946182042
:1012C000FFF790FF06202070F8BD012069460870E6
:1012D000F3E7801C00F09CF80320F4E7C1798279E1
:1012E0000F0217436780417A027A0E021643E680A6
:1012F000801C02F0CFFDE060A580014625813346C9
:101300003A466FA000F092FBF8BD425C2389D218E8
:10131000491C228189B2B142F7D381070AD0014624
:101320003246744802F092FDA188E068714A401884
:10133000314605E0A288E1688B180246314618461E
:1013400001F027FEA088801981B2A18060888142C7
:10135000DAD32289E088824204D1002000F049F8E3
:1013600065A003E0012000F044F867A000F05EFBF8
:10137000E288218968A000F059FB0020FFF749FFAF
:10138000F8BD70B53D4C0D4621694A7821461431AF
:10139000921C02F05BFD20694078801C28700020C0
:1013A0006061A06170BD38B50446407821780002C4
:1013B00008430121090388421AD8A27882188A4278
:1013C00001D9091AA1703749A2784018E11C02F02E
:1013D0003DFD607823780102A278194359A000F0FE
:1013E00025FB00206946087001221720FFF7FAFE4E
:1013F00038BD1CB56B465970090A9970DA70110A2C
:1014000019711870052269461420FFF7EBFE1CBD08
:1014100038B50446374820300179002905D02038F6
:10142000006A344A400101F0B4FD204602F032FD6A
:10143000617923790A0201461A4349A000F0F6FABD
:10144000204602F027FD617922790B021343024600
:101450000021084601F0C9FD0446014646A000F0FF
:10146000E5FA002C07D000206946087001221820F8
:10147000FFF7B8FE38BD0120F6E700004430002039
:10148000434D445F46575F45524153450D0A0000A6
:10149000344B53455454494E475F455241534520C0
:1014A0000D0A00004A070020436F646555706461AF
:1014B00074653D25642025782025780D0A000000FC
:1014C000434D445F46575F57524954455F5354411B
:1014D0005254206F66667365743A25782C73697A66
:1014E000653A257820636865636B73756D3A257876
:1014F0000D0A00004033002073656374696F6E202D
:101500004F4B21200000000073656374696F6E20EB
:101510006661696C652120006F74615F7265636547
:101520006976655F636865636B3A2578206F7461DF
:101530005F73656374696F6E5F636865636B3A259B
:10154000780D0A00636D64344B53455454494E473B
:1015500057726974652025782025780D0A000000EF
:101560006F746120737A3A257820636865636B73C2
:10157000756D3A2578200000436F6465557064618D
:1015800074657632303D25640D0A000070B5FF4B5E
:1015900000221C6801252B469340034202D0A1542F
:1015A000984302D0521C202AF5D370BDF0B5F84CF8
:1015B000221D944600282AD0012827D1F34B30332E
:1015C000002B23D0002001228240114207D01F5C53
:1015D00001252668BD402E432660914302D0401C61
:1015E0001828F0D3182001252A4682402B461142A4
:1015F00009D0644606462478183EB3401C4363462F
:101600001C70914302D0401C2028EDD3F0BDDF4B6D
:101610001833D5E7F0B5DE4C221D944600282AD0B9
:10162000012827D1D94B3033002B23D000200122B1
:101630008240114207D01F5C01252668BD40AE43A1
:101640002660914302D0401C1828F0D318200125B1
:101650002A4682402B46114209D064462678044629
:10166000183CA3409E4363461E70914302D0401C29
:101670002028EDD3F0BDC54B1833D5E710B5C349CD
:101680004A68147821465478240221439478D37808
:10169000240421431B06194381431170080A50702A
:1016A000080C9070080ED07010BD70B5B74E7368FE
:1016B0001D782A465D782D022A439D78DC782D041A
:1016C0002A432406224302431A70140A5C70140C45
:1016D0009C70120EDA70F3681D782A465D782D0230
:1016E0002A439D78DC782D042A43240622430243B2
:1016F0001A70140A5C70140C9C70120EDA700822B6
:101700009C1825782A4665782D022A43A578E47826
:101710002D042A432406224382431A72100A587267
:10172000100C9872100ED87208201A1814782046DF
:101730005478240220439478D2782404204312065B
:10174000104308431872010A5972010C9972000E75
:10175000D87270BD10B58D49CA6814782146547886
:10176000240221439478D378240421431B0619438F
:1017700001431170080A5070080C9070080ED07068
:1017800010BD10B58149CA681478214654782402E6
:1017900021439478D378240421431B0619438143C1
:1017A0001170080A5070080C9070080ED07010BDAF
:1017B00010B576498A68147821465478240221436A
:1017C0009478D378240421431B06194301431170F4
:1017D000080A5070080C9070080ED07010BD10B53B
:1017E0006A498A68147821465478240221439478FF
:1017F000D378240421431B06194381431170080A3E
:101800005070080C9070080ED07010BD10B55F4974
:101810008A68147821465478240221439478D37836
:10182000240421431B06194341401170080A5070DB
:10183000080C9070080ED07010BD5449C9680A1D7C
:101840001378194653781B0219439378D2781B04F6
:101850001943120611430840704770B54B4C1822CB
:1018600023699D182E7832466E7836023243AE7860
:10187000ED78360432432D062A4302401A70150AC9
:101880005D70150C9D70120EDA7010229D182E7866
:1018900032466E7836023243AE78ED783604324303
:1018A0002D062A4382431A74100A5874100C987437
:1018B000100ED87420331878400840001870616109
:1018C000012034490003086070BD10B52F490A6932
:1018D000102153181C7821465C78240221439C78FF
:1018E000DB78240421431B06194301431174080AC1
:1018F0005074080C9074080ED07410BD0122254954
:10190000100380310860BFF34F8FBFF36F8F1F4804
:101910004917006901740B0A43740B0C8374090E98
:10192000C1742030017811430170704710B5174C15
:101930001820236919180A7810464A7812021043B1
:101940008A78C978120410430906084310215A18EE
:101950001378194653781B0219439378D2781B04E5
:1019600019431206114388431FD06069002800D034
:101970008047216918200A181378184653781B02EB
:1019800018439378D2781B04184305E06030002098
:101990008010005000E100E0120610430870020AB7
:1019A0004A70020C8A70000EC87010BD0F48FF22EA
:1019B000016801321143016070470C48012201683F
:1019C000520211430160704710B57D242401FF20AD
:1019D0000023074A2146013001F0D6FC01200023F4
:1019E000044A2146400201F0CFFC10BDEC3000203B
:1019F000AD190010BB1900100848042201681143FA
:101A00000160704710B50023054AB921042001F098
:101A1000B2FF042002F05BF810BD0000043100208A
:101A2000F919001010B5FEF7EDFF10BD0FB470B539
:101A300004990024002910D005AA144802F0CEFD14
:101A4000C5B2802D00D98025104E04E0305DFFF72F
:101A50002FF8641CE4B2AC42F8D370BC08BC04B0EC
:101A6000184770B5002415460E46002807D0FFF72A
:101A7000DDFF04E0315D06A0FFF7D8FF641CAC4237
:101A8000F8DB05A0FFF7D2FF70BD0000B0330020E7
:101A900025303278200000000D0A000004488047FD
:101AA00004480047FEE7FEE7FEE7FEE7FEE7FEE745
:101AB000C11A0010C10000100449034808607047B3
:101AC00002490148086070470024F400AC3000204F
:101AD000F1B5FA4880470746F94880470646F74C73
:101AE0000120183CA047F64D00200C35A847F549C9
:101AF000009888473046A8473846A047F8BDF0B55B
:101B0000F14DF248A96885B00818044602F0C2F900
:101B10002146401C02F0C8F90024EB4801258668E4
:101B2000EA480C3831180391487C097C00020843CC
:101B3000A540284202903BD00B2060438119E34826
:101B4000009109300818019002F0A4F90746DF4817
:101B5000301802F09FF987422AD10F21009889019D
:101B60004018007D00280CD0D84A00990D3A8A18F8
:101B7000517D127D090211437818019902F094F900
:101B800005E002980399A8430874000A4874CF48F6
:101B900000990D30081802F07DF9002808D0022DB8
:101BA00019D0042D17D0082D15D0102D1AD080472C
:101BB000641CE4B20A2CB0D3C3488168C3480C3813
:101BC0000918487C097C00020843800501D1C048FF
:101BD000804705B0F0BDBF49012088470028E7D005
:101BE000222005E0BB49012088470028E0D03B20A7
:101BF000FFF76EFFDCE7F0B585B00020694608739B
:101C00000872B54F0874B54EAF4CB847019004AB9D
:101C100002AA03A9206901F059FB0028D9D00820A5
:101C2000B047002803D00220B04700280FD06846F4
:101C3000007A012811D0A0682569407A012826D0B1
:101C40000228E2D1A64A284601999047DDE7012102
:101C500068460172007C002815D02521A068490142
:101C60004118497B002908D09849D4314018417B5C
:101C7000027B08029B49104388476846984A017BCB
:101C800096322069E1E73D20FFF722FFA1E728789F
:101C90000007000F0528B8D18F49EE31A81C8847EE
:101CA000287887224006C10FA06811540622A91C7B
:101CB000883002F0CBF8A8E7F0B5864999B0042047
:101CC000884700280ED0834904201A31884780496C
:101CD0001F20AC318847844880471620FFF7F8FE64
:101CE00019B0F0BD81488047002810D0764DAC680F
:101CF000A1790807F4D5E079C2071CD07C492046B9
:101D000098308847A868C179490849001FE0774E94
:101D1000754F754DB2361C376C46103507E0684676
:101D2000B0470128DCD168460178601CB847A84755
:101D30000028F4D0D4E782070BD56D4A20461C3228
:101D40008E30811C9047A868FD22C17923E0C171C3
:101D5000C6E7420708D5664920466031A830884763
:101D6000A868FB22C17916E00207F726002A09DAE3
:101D70005F4A21464232A07A0B319047A868C17968
:101D80003140E4E7C00608D5594968467C318847A8
:101D9000A868EF22C1791140D9E720463140FF30D1
:101DA000A1712130017D0026002910D00675214641
:101DB000072287310CA802F049F821460DA82A22F3
:101DC0008E31033002F042F84A490CA888470120BE
:101DD0006946087048708E70A96800A82A220330EE
:101DE0008E3102F033F82D220821434C6B4600203F
:101DF000A04775E734490128C9690FD0022811D0DE
:101E0000042812D0082813D0102814D0202815D068
:101E1000402816D0802818D0012070478878C00745
:101E2000C00F7047887880070DE0887840070AE087
:101E30008878000707E08878C00604E08878800684
:101E400001E088784006C00F70478878C009704765
:101E500010B50178012920D1401C02F01BF81A4A64
:101E600010285BD00EDC012818D002281ED00428D0
:101E700044D0082811D1FFF7BDFF00280DD111482B
:101E8000563809E0202859D0402806D1FFF7B2FF84
:101E9000002802D10B48801E804710BD0120FFF7AB
:101EA000A9FF0028F9D1FFF707FF10BD0220FFF7B7
:101EB000A1FF0028F9D1FFF79EFE10BDBF6500000D
:101EC000776A0000CF160000B0300020CE0300007B
:101ED00001120000F50A00004957000079190000BE
:101EE0008B1E00002B620000BD600000054E00004C
:101EF00027260000DF470000A13E00000420FFF776
:101F000079FF0028D9D19068407A012803D00228AF
:101F1000D3D1FE48C0E7FD48AE38BDE71020FFF73B
:101F200069FF0028C9D1D0692030407D400701D524
:101F30003E2000E00820FFF7CBFD10BD2020FFF77A
:101F400059FF0028F9D1F248A6E710B500280ED0B5
:101F5000F04AD1698B7E082423438B7660310B7E57
:101F600052785B095B01D206D20E13430B76EA4925
:101F70008847012010BDE74880682330417C027CFF
:101F8000080210430BD0E54948780A780002104354
:101F9000032210430870000A48700120D5E77047FB
:101FA00030B4DD4C6C34A44630BC6047F8B5DB4837
:101FB000407A000663D5D748866830462330417C96
:101FC000007C0F02D54907434878097804020C4386
:101FD000002F01D1600752D5D04DA87B697B00024C
:101FE0006D1C08434BD0002F49D068792979000235
:101FF00008432ED12136707C317C0002084302F068
:1020000063F90022C64B02F063F802F06BF980B26C
:102010007843642101F006FF4004010C2971080A8D
:1020200068710A204143707D327D00021043814275
:1020300006D30A21401E01F0F5FE2871000A6871DE
:10204000687929790002084303D101202871002012
:102050006871B248A10709D502218C4301210C43C4
:102060000470210A41700020FFF76FFF68792A7918
:1020700001021143AB4B00224020FFF791FFF8BD56
:102080001CB5A6494A7A002A3AD04A780B7812023F
:102090001A43D30634D44378047818022043012825
:1020A0002ED1C878401E0006000EC87029D0084600
:1020B0008B78017AC27909021143027BC47A120239
:1020C0002243C01C012B24D0521A0272120A4272FF
:1020D0001206037A120C1A43531A69460B804A807F
:1020E0008E498A7B497B12020A4369468A80417B7A
:1020F000027B080210436946C8808B4968468847BE
:102100001CBD887AC870402002430A70100A4870CB
:102110001CBD5218D9E7854A1047844A203210471F
:1021200038B5002421467F20FFF7F7FF00213B2030
:10213000FFF7F3FF29213B20FFF7EFFF69463B2024
:10214000FFF7E9FF68460078800701D5012038BD18
:10215000641CA4B2FF2CF1D9002038BD10B574481E
:102160008047012010BD10B56A49724A8870002866
:1021700007D188688078022803D00020904701208A
:1021800010BD0120FAE710B5624C0128A1688870E3
:1021900004D0002836D002284BD05EE0606A0146A9
:1021A00020310A78520852000A700A78FD231A403A
:1021B0000A700178890989011C3101704178890907
:1021C00089011C31417000217F20FFF7A6FF032108
:1021D0002120FFF7A2FF1F210320FFF79EFF7D2094
:1021E0005249C0008031884702217F20FFF795FFC8
:1021F00001210020FFF791FF00217F20FFF78DFFD5
:102200000F2127E000217F20FFF787FF0021042016
:10221000FFF783FF02217F20FFF77FFF00210846A1
:10222000FFF77BFF00217F20FFF777FF00210320CE
:1022300011E002217F20FFF770FF03210020FFF74C
:102240006CFF00217F20FFF768FF00210320FFF7CC
:1022500064FF00210420FFF760FFA078FFF783FFF1
:10226000012010BD10B5FFF78EFF012010BD3048D2
:1022700010B50C3080472748006A017ADF221140F0
:102280000172012010BDFEB52A4818308047214C4C
:102290000190206A817A007ACF07FF0F002672B67C
:1022A000800702D00126FFF7E2FF1A48006A817A10
:1022B0004908490081721F49012088470220FFF721
:1022C00062FF1A49642066318847002469460C7011
:1022D000254601217F20FFF720FF00210A20FFF77C
:1022E0001CFF22210A20FFF718FF69460A20FFF78A
:1022F00012FF684600784007EFD469460A20FFF7CE
:102300000AFF6846007840071CD515E02715000035
:10231000C1160000B03000203F4400008734002088
:102320000000F43F771F001033420000C561000039
:1023300007470000A765000068460078000706D43C
:10234000012504E0641CFA48A4B28442D5D3F949BB
:10235000642088470020FFF716FFF7490198884757
:10236000F648006A817A4908490039438172002E93
:1023700001D0F348804762B6002D01D00120FEBD98
:102380000020FEBD10B51121EE4801F078FD10BD12
:1023900070B50446401C01F07DFD022818D00428C9
:1023A00019D001214904884244D125462035687B53
:1023B000092301070209090F0020072A19D0032A5F
:1023C0001DD0022A22D0012A26D0002A2AD02FE0AE
:1023D000FFF7D8FF37E0D948FF2180680122353167
:1023E0000A548078002801D1FFF74DFFFFF798FECF
:1023F00029E0581A062148434121C94304E0581AEC
:10240000062148433521C943081A10E0581A06210D
:1024100048432321C943F7E7581A062148431721A7
:10242000C943F1E7581A06214843801D404240B293
:10243000687308E040281DD00121C903884202D1F9
:10244000601DFFF71DFEBF49487809780002084368
:10245000800607D5601C01F01DFD0005000F01D0AE
:10246000FFF7A4FDB5482C3001F014FD01462046CD
:10247000884770BDB148283001F00CFD4006E2D518
:1024800070BDB14908471CB5AE4808210170002154
:1024900041700146087BCA7A0002C91C10432FD044
:1024A0004A790B7912021A43821A92B26B461A8049
:1024B00058800623062A01D26A461380062801D2D4
:1024C00068464380487B097B000208436946C88010
:1024D0009C48817B427B080210436946888097486C
:1024E00080682330417C027C0802104302D0002027
:1024F000FFF72BFD95496846884793494020884758
:102500001CBD904948780A7800021043C2050CD5DA
:10251000FF22013290430870000A48700879401E7B
:102520000006000E087109D0ADE7202210431022EA
:102530009043042210430870000A48707047FEB5AB
:10254000804D0446687829780002084300077DD54D
:102550007F48804769782A7809021143082291430D
:1025600029700A0A6A706B7A064628461A066ED5E2
:10257000A27967791202651C3A43704FE41C002A65
:1025800077D01022114301700A0A427088065ED487
:10259000687929790002084332D001F095FE019153
:1025A0000090607821780002084301F08DFE694CAC
:1025B0000022234601F08CFD019B009A01F088FD6A
:1025C00001910090B8682130417C027C08021043E0
:1025D00001F07AFE0022234601F07AFD07460C4600
:1025E000687A297A00020843801B01F059FE3A46B6
:1025F000234601F06DFD019B009A01F0B7FC24E039
:10260000607821780002084301F042FE0446B86871
:102610002130417C027C0802104301F039FE214642
:1026200001F04BFC01F07CFE00224A4B01F050FD12
:1026300007460C46687A297A00020843801B01F09D
:102640002FFE3A46234601F043FD02E06EE064E0CF
:102650000FE00022404B01F0A3FD01F043FE010416
:10266000090C00D101213D4B00228020FFF798FC8E
:1026700053E09A0651D58278012A4ED18A064CD46D
:10268000FF223048013211430170090A417060781D
:102690002178000208432B490A7BCB7A11021943A7
:1026A00088423AD901F0F4FD0446B8682130417CF3
:1026B000027C0802104301F0EBFD214601F0FDFB16
:1026C00001F02EFE0022234B01F002FD07460C46CE
:1026D000687A297A00020843801B01F0E1FD3A463E
:1026E000234601F0F5FC00221B4B01F059FD01F0DF
:1026F000F9FD0104090C00D10121184B00228020B2
:10270000FFF74EFC0F484178027809021143FF227F
:10271000013211430170090A4170032069460881A2
:10272000022291030E4C02AB0020A047FEBD000028
:10273000FFFF00002B620000A7650000B030002002
:102740000747000087340020B344000033420000F4
:10275000BF5500000000F43F000059400325001061
:10276000A13E000010B50446007800280ED1A178E3
:102770006278080210430AD0012807D1FE49201DC3
:102780008847002802D12820FFF7A2F910BDFB4995
:10279000201D8847002802D12820FFF799F9201D25
:1027A000FFF7CDFEF64801218368062209040020C8
:1027B000F44C3133A04710BD10B50078012801D189
:1027C000FFF79DF910BD30B5EF4885B08047012176
:1027D0007F20FFF7A2FC69465020FFF79CFC68466B
:1027E0000078042801D0E9488047FFF74CFDFFF747
:1027F00097FC0124684644800480E5480190E5493F
:102800006846884768460470447000244480E24863
:102810000190DB48E14B806808226946C01801F04E
:1028200015FB0121DE4D4020A84701218020A8474B
:1028300001212020A847032168460180418084802F
:10284000C480048144818481C481D648D1490490E4
:102850006846A2398847012005B030BDCA4810B586
:102860000A308047012010BDC74910B5283188477C
:10287000012010BDC44910B55E318847012010BD4C
:10288000C14910B56A318847012010BDBE4910B555
:1028900078318847012010BDBB4910B58831884781
:1028A000012010BD10B5B74C383CA047012010BD29
:1028B000F8B5B34CBC49A06837308847E0683B2383
:1028C0000178BF250A09A16812015B5C1B071B0F79
:1028D0001A4302701207120F012A79D00B464033B7
:1028E0005A781B7812021A430B4642331A70120AA6
:1028F0005A7002788B7A2A409B011A435206520E74
:10290000027066235B5C42789B1D92099B069201D4
:102910009B0E1A4342700622801C0B3101F096FA7E
:10292000A1686620425C002A04D0E0686731083064
:1029300001F08CFAA068002120304177E0689B4AC2
:1029400041788906890E891C9047E06801780A0958
:102950001201121D0270A1682A408B7ADB075B0E00
:102960001A43027046235B5C42789B1D92099B06CA
:1029700092019B0E1A4342700622801C0B3101F01B
:1029800065FAA1684620425C002A04D0E06847311D
:10299000083001F05BFAE068844A41782C328906FD
:1029A000890E891C9047A56801272E462036F07EA7
:1029B00001283BD000284CD002284AD0062848D015
:1029C0000023704C1A4601211846A047F8BDFFE7C6
:1029D0000A464032137953718B7A0278DB072A401A
:1029E0005B0E1A43027087235B5C5206520EDB01BA
:1029F0001A43027042780B31920992010C324270F4
:102A00000622801C01F022FAE068A1680622083044
:102A1000883101F01BFAA16803223D204254624A2A
:102A20008720405C323A8831904787E740356879A3
:102A300000280AD028200621E269937EFD24234045
:102A400093761775737F327F3AE001206F710146EC
:102A5000F2E72C4642346078217802020A4316D00D
:102A60002235697F19202B7F8001090242431943D7
:102A700001208904890C009105D0104601F0BCF9B1
:102A8000401C7F2809D8C5B22770380A0CE0380AE4
:102A9000277060700125009507E07F2529467E306C
:102AA00001F0AAF92070000A60703548C069817E83
:102AB0000222114381760775737F327F0099284681
:102AC000374CFE34A0473A4880477FE710B5FFF700
:102AD000EFFE012010BD10B53649032008703649BD
:102AE00064208847294810308047012010BD10B568
:102AF00032498847012010BD304810B55C3080470E
:102B0000012010BD10B52E488047012010BD2C4972
:102B100010B508318847012010BD294910B516317C
:102B20008847012010BD264910B57831884701201B
:102B300010BD1349487001207047214910B58631F6
:102B40008847012010BD1E4A10B58E3290470120E3
:102B500010BD7CB5054601F09DF9094904462831B0
:102B600001F0A2F9281D01F095F905492C3101F079
:102B70009BF94020844325E0475F00005D5B000037
:102B8000B0300020A13E0000793D0000F746000073
:102B9000B92700102F440000511E0010CE02000083
:102BA0006155000065270010B1570000D960000092
:102BB0009D560000000002404562000001410000F7
:102BC0001D420000F9480190F94900946846884781
:102BD00001207CBDF64910B57A318847012010BD2F
:102BE000F34A10B582329047012010BD10B5F1486C
:102BF0008047022801D9002010BD012010BDF8B582
:102C00000746EC481C4615460E468047022807D961
:102C10002346E74C2A46314638469234A047D5E64B
:102C20000020D3E6E4490847E34908310847E24A6F
:102C30002232104738B5049C0094DF4C4434A0473E
:102C400038BD30B4DC4C7C34A44630BC6047DA4933
:102C5000AC310847D84AC6321047D74AE832104745
:102C600030B4D64CA44630BC6047D44B3033184700
:102C7000D24B5C33184730B4D04C8834A44630BCB7
:102C80006047CE49B8310847CC48CC30004770B5D2
:102C9000CB4D0446082804D0A868407808280DD0F9
:102CA00014E000217F20FFF738FA01214020FFF7D0
:102CB00034FA286A0178C908C9000EE000217F2093
:102CC000FFF72BFA00214020FFF727FA286A017846
:102CD0006207C908C900520F11430170A868447007
:102CE000012070BDD3E710B50446B6488047207078
:102CF000012010BD10B50446B248801D80472070E9
:102D0000012010BDAF4910B51C318847012010BD0E
:102D1000AC4810B572308047012010BDAA4800476A
:102D2000AA490847A9491A31084708B5A849684679
:102D300088476846C0788007C00F08BD08B5A44919
:102D4000684688476846C078C00900D0012008BDA1
:102D500010B5FFF7E0F910BD10B5FFF7DEF910BDB3
:102D6000984810B552308047012010BD10B59449E5
:102D70000122C8694275437CDB09DB019B1C43745B
:102D8000931E83741B0AC374096ACB7AEF24234011
:102D9000CB724B7B93434B738B7A13438B72817E45
:102DA000022319438176017C114301748749052070
:102DB0001A31884787488047012010BD854810B5E3
:102DC00012308047012010BD814910B57E318847FF
:102DD000012010BD7E4910B596318847012010BDF5
:102DE0007C4910B558318847012010BD7949AC3174
:102DF0000847784910B5FA318847012010BD10B551
:102E000075488047012010BD734810B518308047C1
:102E1000012010BD704BA23318476F4BD8331847B1
:102E200070B5044666480D464068283001F032F817
:102E3000002805D072B60019684A2946904762B644
:102E400070BD70B504465E48154640680E46283091
:102E500001F020F8002807D072B600195F4B2A460F
:102E60003146EA3B984762B670BD70B50446544897
:102E7000154640680E46283001F00CF8002807D0AF
:102E800072B60019554B2A463146823B984762B6C6
:102E900070BD70B5002472B6494D68680A3000F004
:102EA000F9FF4E4B57214E4AEA3B984762B64C48D1
:102EB0004A4E007800280DD001281ED024E072B6BA
:102EC000143000F0E7FF210340180121B04762B63B
:102ED000641CE4B26868C17B827B09021143A14291
:102EE000EDD811E072B6103000F0D4FF2103401885
:102EF0000121B04762B6641CE4B26868C17B827B82
:102F000009021143A142EDD8012070BDF8B50F466A
:102F1000054672B62A4C60680A3000F0BBFF2F4BA2
:102F200057212F4AEA3B984762B62D482B4E00782E
:102F3000002802D0012804D00CE072B6606814307A
:102F400002E072B66068103000F0A4FF4019394604
:102F5000B04762B6012039E5F8B5044620480F466F
:102F6000017817481D4D4068823D1646002902D061
:102F7000012903D00BE072B6143001E072B61030B4
:102F800000F088FF001932463946A84762B6012092
:102F90001CE530B40A4B5C68E37BA47B1B02234333
:102FA0001B0383421ED230BC0020704791230010C7
:102FB000B34200002B4E0000B73A0000BB3B0000BC
:102FC000B03000209F440000FB5F00002B62000037
:102FD0004D650000E5460000034800004354000032
:102FE0003034002030BCC9B2B6E730B4DA4CA44665
:102FF00030BC6047F8B5D9488047D94C607A002882
:1030000040D00006042500280FDA607821780002FD
:103010000843400709D5FEF7C9FF60782178000210
:103020000843A8432070000A60706078217800028D
:103030000843CC4FCC4E41060CD54021884320702C
:10304000000A607002206946088002466B463946D5
:103050000020B0476078217800020843C10711D0F2
:10306000400840002070010A6170800702D5684660
:10307000058002E005206946088002226B46394639
:103080000020B047A2E4B948004738B5B84C2078D2
:10309000002804D1B74968468847012020700120E4
:1030A00038BD70B50278002A49D0AD494A724278DD
:1030B0008A72002A01D0042A01D904228A72C278B5
:1030C000847813022343A64A1C0AD37214734479EA
:1030D000057924022C4315466C73240AAC73C47919
:1030E000857920022843D073000A1074A04808256F
:1030F0008068D21C2130447C007C240204430120DF
:10310000A342887008D91B1B07E01071000A01E078
:103110001571280A507107E0E31A8C7AA3420ADA83
:103120001071000A50718B72887AC8700871FFF7AD
:10313000AAF9012070BDE400A342E9DAE5E7002026
:1031400070BD8B4989690870020A4A70020C8A7046
:10315000000EC870487A022210434872704738B592
:103160000446002000908349684688470099F8206B
:103170008143E006000E08430090FFF7E2FF38BDF0
:103180007C48723000477B495A3108477A490847E2
:1031900079491A3108477948004778490C3108477E
:1031A000F8B500260B4604460125304631462D036E
:1031B000675C491CBE19A942FAD30021675C491C0F
:1031C0007840A942FAD39E422CD190422AD1684E2F
:1031D00070680A3000F05EFE614A694B573A572129
:1031E000984770680A3000F055FE5D490019572273
:1031F000573900F02BFE70681C3000F04BFEB168B0
:10320000001907220A3100F021FE5D4A0121002049
:10321000EA3290475A4B00202246294668339847A5
:10322000012052E4002050E470B50126504C3603D2
:103230000546534B3146002062699847514928465C
:10324000884760681C3000F025FE6169072240183D
:10325000A1680A3100F0FAFD494A01210020EA3252
:103260009047474B0020314668336269984770BDEC
:1032700010B504463E4840680A3000F00BFE1021AD
:103280003F4B22465730984710BD70B50126384C49
:10329000360305463A4B3146002062699847384A62
:1032A00001210020EA32904760680A3000F0F2FD08
:1032B0006169102257314018294600F0C7FD304B94
:1032C0000020314668336269984770BDF0B5284CDC
:1032D0000025E469E678360701D50020F0BD00BF7F
:1032E0006D1CEDB2642DFAD3254640356E7CB607D1
:1032F000FCD400252646C036377947556D1CEDB203
:10330000022DF9D346780125F709002F08D0F606DB
:10331000F60E0E70157042785206D20F1A7004E045
:10332000B3069B0E0B7000231370114B0A78DB69F8
:10333000801CC033272A0CD20022C03403E0267937
:103340008654521CD2B20E789642F8D85D72012093
:10335000F0BD5D72C1E700007B4A00005B460000E3
:103360008734002000800000A13E0000F94B0000DF
:10337000B03000204D6500002B620000776A00002D
:1033800059530000A13D000070B51E46002913D01E
:10339000FE4DAC696B699C420ED205C408467D2186
:1033A000490148437D21083C00F026FDA0602673BA
:1033B000002060611834AC6170BD884200D30846BB
:1033C000704710B5F14840682030017CC9070DD026
:1033D000017C4908490001740122ED4B110219607A
:1033E000417C114341743220FFF7D0FE10BD70B50F
:1033F000E64E054670680C462030017CC90706D0B1
:10340000017C4908490001743220FFF7BFFE726851
:1034100020321575280A5075280C9075280ED07525
:10342000107C102108431074907C40084000907478
:10343000D8480460517C012001435174D44B0102EF
:10344000803B1960117C0143117470BDCFE770B5EA
:10345000CE4D18212878AE68484369690C1A28694E
:10346000801928610020C043A86018E0207B002854
:1034700014D02069B04204D16068002807D080478A
:1034800005E0801B206102D0A168884201D9A068B4
:103490002061A968884200D90846A8601834686984
:1034A0008442E3D3A868002805D0411C03D0BA4960
:1034B000FFF7CCFF70BDFFF784FF70BDB349CA684A
:1034C0008243CA607047B1484068014644310A7877
:1034D00010464A78120210438A78C97812041043C1
:1034E000090608437047F8B50546FFF7ECFFA74A01
:1034F00091680E1A0020C043166190601078182160
:1035000053694843191A002718E00868A84202D1F5
:103510000F734F6111E0087B00280ED00869801BF3
:10352000086102D08C68A04201D98868086104460D
:103530009068844200D82046906018319942E4D3C4
:103540009068002805D0411C03D09349FFF77EFF07
:10355000F8BDFFF736FFF8BDF8B58C4B0546187877
:10356000182148435969081A06E00268AA4202D1A4
:10357000027B002A34D118308842F6D3FFF7A3FF2C
:1035800099680E1A0020C0431E61986019781820AF
:1035900041435869411A012718E00A68AA4203D139
:1035A0008A680A610F730BE00A7B002A0DD00A6952
:1035B000921B0A6102D08C68A24201D98A680A6112
:1035C0009C68A24200D814469C6018318142E4D322
:1035D0009868002805D0411C03D06F49FFF736FFDB
:1035E000F8BDFFF7EEFEF8BD684918220B7853438B
:1035F0004A69D11A05E00B68834201D1087B704704
:1036000018319142F7D3FF20704770B50D4604463C
:10361000FFF73BFD002808D05C48182104704C439C
:10362000611985614161FFF7CCFE70BD57494A6859
:10363000114620310875030A4B75030C8B75000E7B
:10364000C8758B7C012003438B744B7C03434B7404
:103650000B7C03430B742032D37CDB07FCD00A7C49
:10366000520852000A744A7C02434A747047474821
:1036700040682030C17CC90708D0417C0122114339
:10368000417444480068002800D000477047F8B5EE
:103690003E4F064678680D462030017CFD248907A0
:1036A000002905DA017C214001743220FFF76EFD0C
:1036B0007A6820321676300A5076300C9076300ECA
:1036C000D076107C202108431074907C20409074A8
:1036D00030484560517C0220014351742C4B01025B
:1036E000803B1960117C01431174F8BD10B5274867
:1036F00040682030017C89070ED5017CFD221140F5
:1037000001740121224A49021160417C02221143C5
:1037100041743220FFF73AFD10BD1C48406820304C
:10372000C17C890708D5417C0222114341741948A4
:103730004068002800D000477047F8B5134F064690
:1037400078680D462030017CFB244907002905DA02
:10375000017C214001743220FFF718FD7A68203285
:103760001677300A5077300C9077300ED077107C77
:10377000402108431074907C204090740548856077
:10378000517C042001435174010207E0E030002025
:1037900080E100E0983400204F3400101F4B803B44
:1037A0001960117C01431174F8BD1D480C2140685B
:1037B000403041180A7810464A78120210438A783D
:1037C000C9781204104309060843704710B514481D
:1037D00040682030017C49070ED5017CFB22114056
:1037E000017401210D4A89021160417C04221143B8
:1037F00041743220FFF7CAFC10BD094840682030F0
:10380000C17C490708D5417C042211434174054815
:103810008068002800D000477047000080E100E089
:10382000E03000209834002018B5F8480068009077
:10383000002069460B5C0A241A0962431B070A54DC
:103840001B0FD2180A54401C0328F3DB009818BD44
:1038500008B5FFF7E9FF009068460178C078EC4AA8
:10386000401E50430A1868468178E1200001414318
:10387000684640783C23584308181118E54A1069F7
:10388000814201D3081A02E0E34B081AC018116103
:1038900008BD70B50D46002802D0DC4E083E01E0A0
:1038A000DA4E0C3E0024285D0A2100F0A5FA000142
:1038B00001432955641C032CF5DB284600F0EAFA85
:1038C00030606420FFF762FCD0482038C17A0822BB
:1038D0001143C17270BD38B5CE4909694418CC494D
:1038E000204600F089FA421C6846C270E12508466D
:1038F0002D01294600F080FA02466846827029466A
:10390000204600F079FA08463C2100F075FA01469D
:10391000684641703C21204600F06EFA684601700E
:1039200069460020FFF7B5FF38BD38B5FFF77CFFCB
:10393000009068460178C078B54A401E50430A1886
:1039400068468178E12000014143684640783C2385
:10395000584308181118AF4BB0485A6A046891428E
:1039600001D38A1A02E0AC4D8A1A5219A2180260D9
:103970001046596238BD70B500290BD0A54D6E694F
:10398000AC69B44206D2A16005C423710020E06096
:103990001034AC6170BD884200D3084670479B4923
:1039A00020398A7A0F238343887A1A40000900015C
:1039B00010438872704770B50446400701D5FFF781
:1039C00033FFE00741D0934C182160786668484384
:1039D0006169081A03E0027B002A02D1183088428C
:1039E000F9D3884231D2FFF733FF6168E0684018AD
:1039F000E0600020C043606060781821484361693E
:103A00000D1A18E0287B002814D02869B04204D190
:103A10006868002807D0804705E0801B286102D035
:103A2000A968884201D9A86828616168884200D9DC
:103A300008466060183560698542E3D360680028F5
:103A400004D0411C02D0FFF746FF70BD0120FFF7F4
:103A5000A6FF70BD6F498A6882438A607047F8B5D7
:103A60000446FFF7F5FE6B4AD06072B60021C943E9
:103A700051605178182359435369591A002717E0A8
:103A80000D68A54202D10F734F6110E00D7B002D30
:103A90000DD00D692D1A0D6102D08E68B54201D985
:103AA0008D680D615668B54200D9354655601831AC
:103AB0009942E5D35068002804D0411C02D0FFF79A
:103AC0000AFF02E00120FFF76AFF62B6F8BDF8B511
:103AD000504C05466078182148436169081A06E091
:103AE0000268AA4202D1027B002A38D118308842EB
:103AF000F6D3FFF7ADFEE06072B60021C943616006
:103B00006178182266695143711A012719E00A6821
:103B1000AA4203D18A680A610F730BE00A7B002A6C
:103B20000ED00A69121A0A6102D08B689A4201D932
:103B30008A680A6113466268934200D81A46626036
:103B40001831B142E3D36068002804D0411C02D090
:103B5000FFF7C1FE02E00120FFF721FF62B6F8BDCA
:103B60002C49C8617047F1B582B0FFF771FE294D4D
:103B7000E86072B60021C943696069786E691822ED
:103B800051430090741AEF6920E02068B84209D1CF
:103B90003C21029800F030F93C20401A20610120BD
:103BA00020730CE0207B00280FD021690098081AB0
:103BB000206102D0A168884201D9A06820612069F3
:103BC0006968884200D9084668601834B442DCD37A
:103BD0006868002804D0411C02D0FFF77CFE02E098
:103BE0000120FFF7DCFE62B6FEBD0A4918224B78C1
:103BF00053434A69D11A05E00B68834201D1087B1F
:103C0000704718319142F7D3FF207047C010005021
:103C100080510100FC300020803A0900A8300020CB
:103C2000714908780028F0D17048C37A0122134303
:103C3000C372C37ADB07FCD10A70E6E76A490862FF
:103C4000E3E76A498A7A024310078A7A000F120969
:103C5000120102438A72D8E764498A7A1209024340
:103C600010018A7A1207120F02438A72CDE770B5EB
:103C700005460024285D0A2100F0BEF8000101433A
:103C80002955641C032CF5DB284600F003F957493D
:103C90002039C86370BD554A138A401EDB0BDB0315
:103CA0004004400C03431382907C09070009000183
:103CB000090F08439074A8E74C48C17A04221143C5
:103CC000C172C17A4907FCD49FE7474908780128A7
:103CD0009BD14648C27A02231A43C272C27A920723
:103CE000FCD40020087090E7F3B581B0FFF7EDFF3A
:103CF000FFF7E2FF01200021C003FFF7CCFF6420A3
:103D0000FFF744FA01216846C170002484704470B2
:103D10000470FFF7ACFF344D07262C616846C6706F
:103D2000172787703B244470047069460120FFF711
:103D3000B0FD6846C6708770447004706946002004
:103D4000FFF7A7FD0F20FFF787FF0F20FFF727FEE4
:103D50000120FFF776FF02982862FFF761FF2449F0
:103D600004200860FEBD70B50D460446FFF78DF9CE
:103D700000280BD01C48182144704C436119856100
:103D8000416101201B49C003FFF7AEFF70BD10B5B4
:103D90001648407A03071B0F1846FFF75DFF1248CD
:103DA000016A002901D01846884710BD0E480078E6
:103DB0002BE718B5002802D00C48183001E00B485A
:103DC000143000680090002069460B5C0A241A0930
:103DD00062431B070A541B0FD2180A54401C0328C5
:103DE000F3DB009818BD0000FC300020A01000504C
:103DF00000E100E0B739001030B50B460146002065
:103E00002022012409E00D46D5409D4205D31D46E0
:103E10009540491B2546954040191546521E002DD8
:103E2000F1DC30BD70B500242546002801DA0124FC
:103E30004042002901DA01254942FFF7DDFFAC428B
:103E400000D04042002C00D0494270BD03460B43D5
:103E50009B0703D009E008C9121F08C0042AFAD240
:103E600003E00B780370401C491C521EF9D27047C6
:103E7000D2B201E00270401C491EFBD27047002202
:103E8000F6E710B513460A4604461946FFF7F0FF59
:103E9000204610BD0321001D401E037812021A4364
:103EA000491EF9D510467047034603220870000AE0
:103EB000491C521EFAD518467047F8B502464A40CA
:103EC000D40F42004B0052085B089A4202D20246CD
:103ED000084611464A0023D0C30D4A00DDB2120E37
:103EE000AD1A202D35DA49020126490AF6058A194C
:103EF000002C00D0524220214F1B1146B9402A41CC
:103F00001018C20D9A4221D0002C17D0012D08DCC8
:103F1000DA05801AD20F8019D207DBB200F080FADE
:103F2000F8BDDA05801A012340001B06C01880186E
:103F30005A428018CA0F1043490007E04908C207D7
:103F40001143DA05801A80194008801800F060FAE1
:103F5000F8BD61000122511A001BF7E70122D207C8
:103F60005140AAE70122D2075040A6E7F0B5074624
:103F70000846584087B0C00F049048000E465900CC
:103F800040084908BC1A884105D2384631461E46C9
:103F900017460B4602465800400810434CD0300DDF
:103FA000039040055900400D490D0590401A0290BC
:103FB000402872DA18030121000B0905084301901B
:103FC00004980092002805D00199524200208841AF
:103FD00000920190029840210A1A0199009800F07D
:103FE000E3F905460C466B4607CB00F0FEF9C01915
:103FF0007141039A0E0D0023D71756401A467A4096
:10400000164344D0049A002A2DD0029A012A039A1A
:1040100015DC1205C01A914101263605001C7141BC
:10402000D20F059ED2070093019202962A4623469C
:1040300000F03CFA07B0F0BD38463146FAE7160505
:10404000224A0F46B218C01AB74101210905001CC7
:104050004F4100187F41114618187941E20F104373
:104060006D19644113E0E2076D0815436408C20747
:104070001443039A01261205C01A91413605001C0B
:104080007141CE07400830434908C01851412A46C3
:10409000234600F0FEF9CDE7FFE704980122400037
:1040A000C117121A00238B4104983146C417381ADD
:1040B000A141EEE730B40124E407634030BC55E78A
:1040C00030B40124E407614030BC4FE70000E0FF5A
:1040D000F0B51FB488B00B9909980024484009999D
:1040E000C00F490049080991C0070B990090490089
:1040F00049080B9109990898A64608431CD00B99CA
:104100000A98084318D0099801244000420D48003D
:10411000410D099824050003000B204309900B98DA
:104120000003000B20430B9050181C49401800223C
:1041300001901446104605E0002001460DB0F0BD88
:10414000032801DA034600E003239C46C11A0AAEA5
:104150000AE05F0008ADED5B4F00F75B7D43002791
:10416000AA187C41491C5B1E6145F2DD410004AB8D
:104170005A522104120C0A43240C401C0828DFDB8D
:10418000019802900099704601910090059B049A55
:104190000799069800F08AF9D0E700000DFCFFFFB0
:1041A000F0B50C465C4085B0E40FE40703944C0086
:1041B00000266408590094464908024602962243A4
:1041C00021D062460A431ED06200570D4A000E03FA
:1041D0002303550D012402462C492405781B1B0B93
:1041E000360B401823432643614600901C46501A64
:1041F000B44103D30098401C009002E0921800984C
:104200005B41002803DA0020014605B0F0BD002024
:10421000012109050746864611E064461D46141B28
:10422000B54106D36546521BB341744607430C4360
:10423000A646CD0740084908284392185B41054629
:104240000D43EAD11046184313D06046194650403A
:104250007140084306D06046101AB34106D20122CD
:10426000002306E000220123DB0702E00122D24303
:104270005310009874460105381C6141029C039D4F
:104280000019694100F005F9BFE70000FD030000D7
:1042900010B500229623114600F0C2F810BD0000B0
:1042A0000EB5C217C10F5040CA0740180021054B78
:1042B0000293019200910A460B4600F0F7F803B012
:1042C00000BD0000330400000EB505490291002135
:1042D00000910A460B46019100F0E8F803B000BDDA
:1042E000330400004A0009030123090B1B0519438D
:1042F000094B10B5520D9A4201DA002010BD064B51
:1043000034339A4203DC9A1A00F05EF810BD034978
:104310005118884010BD0000FF030000CDFBFFFFD7
:10432000C20FD207400040080BD0C10D0723DB01AC
:10433000C91840020905400A1143C2084007114349
:104340007047002001467047F0B51FB406460020B4
:1043500082B005464024019100901BE0019922465D
:104360000F46304600F030F8049A059B801A9941B8
:1043700010D310461946224600F016F8361A8F411F
:104380000197224601200021009F00F00DF8381807
:104390004D4100902046641E0028DFDC019B009800
:1043A0002946324607B0F0BD10B5202A04DB01468D
:1043B000203A9140002010BD914020239C1A0346D2
:1043C000E3401943904010BD10B5202A04DB084695
:1043D000203AD040002110BD0B46D340D0402024CD
:1043E000A21A91400843194610BD10B5202A06DBD9
:1043F000CB170846203A1041C1170B4306E00B4685
:104400001341D0402024A21A91400843194610BD00
:10441000002904DA401C490001D1400840007047DF
:1044200070B40024050C05D11024000402D1002929
:1044300021D01124050E01D100020834050F01D14D
:104440000001241D850F01D18000A41C002801DB80
:104450004000641C002908D020252E1B0D46F54085
:10446000A14000D001212943084301061B1B000A7B
:10447000DB1D02D5002070BC7047DB0518188018C2
:104480000029F8DA401C4900F5D170BC4008400012
:10449000704710B5002B08DA0024401C61419218C7
:1044A0005B411A4301D14008400010BDF0B51FB474
:1044B00082B005460C0003D0084600F0A1F802E0E7
:1044C00000F09EF820300246009021462846FFF773
:1044D0006BFF049B059A04460F461843114308439B
:1044E00014D0184610431BD0009840210A1A1846D1
:1044F0000599FFF769FF05460E46009A059904984D
:10450000FFF752FF084305D0012004E0204639465A
:1045100007B0F0BD0020C11705430E432C433743BD
:1045200000990E986305401A7905E40A00220C43AD
:10453000FD0A0A3002D500200146E9E701051019FD
:1045400069410C9C0D9D00196941FFF7A2FFDFE74F
:104550004A0009030123090B1B0519430A4B10B537
:10456000520D9A4202DA0020014610BD064B343348
:104570009A4203DC9A1AFFF727FF10BD034BD218AB
:10458000FFF712FF10BD0000FF030000CDFBFFFF8F
:1045900010B5002904DB0124E40740428C41214688
:1045A000002B04DB1C460123DB075242A341994246
:1045B00000D1904210BD0000064C0125064E05E0DA
:1045C000E36807CC2B430C3C98471034B442F7D334
:1045D000FBF77AFD509F0010709F001037B514460E
:1045E0000846064B6A46214600F0EAF8044669464A
:1045F000002000F081FC20463EBD0000F94E001076
:104600002021020C01D010211046020A01D01046D0
:104610000839020901D01046091F820801D010464E
:10462000891E420801D0881E7047081A704730B4AE
:104630007446641E2578641CAB4200D21D46635D3F
:104640005B00E31830BC184702E008C8121F08C11D
:10465000002AFAD170477047002001E001C1121F03
:10466000002AFBD170470000F0B51FB484B0079852
:104670000699020D014314D04A484B49101848438B
:1046800005140F9801280E981CD0281A401C0024ED
:10469000464E4749009401910290002814DA47429F
:1046A00027E00F98012443A3012808D00021049893
:1046B0000F9A84600360C260416009B0F0BD0E983B
:1046C000C143F4E74042E2E7074612E0F80707D0AB
:1046D0002246334601990098FFF7FAFC01910090B9
:1046E0002246334610461946FFF7F2FC04460E46B2
:1046F0007F10002FEAD10298019B0028009A0799A9
:10470000069802DAFFF7E4FC01E0FFF749FD0446F2
:104710000E460022284BFFF73BFF03D80020C04382
:10472000014607E00022254B20463146FFF71EFCDC
:10473000FFF70EFF102409E0002C0ADB0A220023F9
:10474000FFF702FE059B30321A55641E02460A43EB
:10475000F2D11122641C059B121B1C190F9B012B0B
:1047600003D0012308430ED10AE0084304D01120EE
:104770000E9000200F9084E70E98151A6D1E0BE026
:104780000E98824202DD00236D1C03E0824201DAB2
:1047900000236D1E002BEED004980F998260C1603B
:1047A00030C08AE701FCFFFF104D000000002440EC
:1047B0000000F03F300000000000F0430000E03F48
:1047C000FFB597B00646002518E2252877D10024CA
:1047D0002746FD49049400E00443761C327801200A
:1047E000203A90400842F7D130782A280ED0022291
:1047F000307801463039092916D804990A235943DB
:10480000303940181443761C0490F1E7189802C818
:1048100004911890002904DA01204003044348421F
:10482000049002200443761C30782E2814D10420F2
:1048300004437078761C2A2809D11898761C80C801
:10484000189009E00A214F43303FC719761C307891
:10485000014630390929F5D930786C2810D006DCAA
:104860004C281AD068280ED06A2817D104E0742882
:1048700013D07A2812D110E00120400504430CE047
:104880000121090501E0032109050C4371788142EA
:1048900003D1012000052418761C761C3078119075
:1048A00066280BD013DC58287DD009DC00287BD08B
:1048B0004528F6D04628F4D047281AD1A5E118E0BB
:1048C000632835D0642870D0652812D19DE1702806
:1048D0006CD008DC6728F1D069287BD06E280DD019
:1048E0006F2806D1BAE073282ED0752871D07828A9
:1048F00059D01A9A199990476D1C7EE16002400FB9
:10490000022809D003280DD00428189801680DD07A
:104910000D60001D189070E11898EA1701680D608D
:104920004A60F6E7189801680D80F2E70D70F0E72D
:1049300018986A4601781172001D18900020507274
:1049400002A80090012005E0189802C818900020E5
:104950000091C04361070DD5002101E00199491C78
:104960000191B94212DA8142F8DB009A515C0029C8
:10497000F4D10BE0002101E00199491C0191814231
:10498000FADB019A0099895C0029F5D10199049814
:104990001A9B471A21463846199A00F097FA01994E
:1049A000401945180BE04FE02CE113E04EE0009871
:1049B00000990078491C00911A9A1999904701981A
:1049C000401E0190401CF2D1214638461A9B199A8C
:1049D00010E137E00A200021009001916002410FB0
:1049E000022907D0189A01CA1892C21794460329BF
:1049F00008D00AE01898C01DC108C90005C918915F
:104A0000944607E000B2C2179446042902D140B28E
:104A1000C1178C4600226146944506DA0A460021F9
:104A2000404291418C462D2102E0210504D52B21E5
:104A30006A461173012103E0E10701D02021F7E765
:104A4000029155E00A200AE0102008E010200090B2
:104A50000021042004430191082703E008200021DD
:104A6000019100906002410F022907D0189A01CAF3
:104A7000189200229446032908D008E01898C01D17
:104A8000C108C90005C91891944603E080B2042901
:104A900000D1C0B200210291210729D511997029B6
:104AA00006D0009A1021019B4A401A4305D00EE01F
:104AB00040216A461173012108E06146014306D096
:104AC00030216A4611731199517302210291009AA3
:104AD0000821019B4A401A430AD16146014301D192
:104AE000610705D530216A46117301217F1E0291AD
:104AF0001199582904D035A10E910DA90D910DE001
:104B000037A1F9E76146019B009AFFF71DFC0E9B58
:104B10008C469B5C0D9A521E0D92137061460143A8
:104B2000F0D10D9805A9081A20300190600703D52F
:104B300001200004844300E001270198874201DD41
:104B4000381A00E0002001990090411802980918D5
:104B50000498401A0490E00306D421461A9B199A3F
:104B6000049800F0B3F94519002706E003A81A9A43
:104B7000C05D199990476D1C7F1C02988742F5DB38
:104B8000E0030CD521461A9B199A049800F09EF96F
:104B9000451904E01A9A3020199990476D1C009924
:104BA000481E00900029F5DC08E00D980D9900786A
:104BB000491C0D911A9A199990476D1C0199481E2C
:104BC00001900029F1DC63E1092801003031323322
:104BD0003435363738396162636465660000000039
:104BE0003031323334353637383941424344454623
:104BF0000000000000F05AF94519761C30780028B2
:104C000000D0E2E528461BB0F0BD600700D40627BF
:104C10001898C01DC108C90048680A680831C30F48
:104C2000DB071891190001D09CA108E0210501D5EE
:104C30009BA104E0E10701D09AA100E09AA1430002
:104C400011985B08109165280CD006DC452809D026
:104C500046281DD0472841D141E0662818D0672852
:104C60003CD13CE00021112F01DB112000E0781C39
:104C70000191009008A911A8FFF7F6FC139905917E
:104C80000021119A15927F1C12980197009150E013
:104C90000120C00703900120019008A9009711A8E6
:104CA000FFF7E2FC139A149905920022119B0092DF
:104CB00012981593059A0192002901D0104602E03E
:104CC000791C40180190381A01D5019804E040423F
:104CD000401E0090781C0190C01B029043E0012F01
:104CE00000DA01270021112F01DD112000E03846F4
:104CF0000191009008A911A8FFF7B6FC139905913E
:104D0000119A0021129815920091019721070CD455
:104D10000599B94201DB019900E00191012904DD07
:104D2000159A491E515C302906D0B84201DA011D9E
:104D300005DA0121029115E00199491EEDE70028ED
:104D400005DC0099411800910199091A03E0019AC4
:104D5000411C914200DD01910099401A401C0290D3
:104D60000120C0070390200706D4029901988142D0
:104D700002DB0020C043029000206946C87707AFDD
:104D8000012103980337C907884224D002201190DB
:104D90002B201290039800280CDA404203902D201B
:104DA000129007E00A210398FFF726F830317F1EA2
:104DB000039039701199481E11900029F2DC039874
:104DC0000028EFD1791E1298087030782021084011
:104DD0004530BF1E387006A8C01BC01D0390109838
:104DE0000078002800D00120019941180298C017CE
:104DF0000918039809180498401A401E0490E0030B
:104E000006D421461A9B199A049800F05FF84519B8
:104E100010980078002803D01A9A199990476D1CB1
:104E2000E00324D521461A9B199A049800F04EF805
:104E300045191CE00098002807DB00990598884276
:104E400003DD1598405C199901E0199930201A9AF0
:104E5000904700986D1C401C00900298401E0290E4
:104E6000002804D11A9A2E20199990476D1C019997
:104E7000481E01900029DDDC05E038781A9A7F1C75
:104E8000199990476D1C0399481E03900029F4DC82
:104E900021461A9B199A0498ACE600002D000000E8
:104EA0002B0000002000000000000000F8B50446C0
:104EB00000251E461746880404D405E03946202004
:104EC000B0476D1C641EF9D52846F8BDFFB50446F1
:104ED000002581B01E46C80301D5302700E02027F9
:104EE000880404D505E038460399B0476D1C641E5C
:104EF000F9D5284605B0F0BD0A68531C0B60107048
:104F00007047C0440020851A00108D1A00108508D3
:104F10000010000000000000000000000000000081
:104F20000000000000000000000000000000911AD6
:104F300000100000000000000000931A0010951AF5
:104F4000001000000000971A0010773D0010971A1B
:104F50000010971A0010971A0010F11700104B1943
:104F600000105736001003370010E3370010971A6F
:104F70000010A1110010971A0010971A0010971A2C
:104F80000010971A0010971A0010971A0010971A1D
:104F90000010971A0010971A0010971A0010971A0D
:104FA00000100000000000000000000000000000F1
:104FB00000000000000000000000000000000000F1
:104FC00000000348854604F06CFA004800472F07AC
:104FD0000010C04400201FB500206A461070072151
:104FE0005172192189015181FD49918110726846E0
:104FF00002F0C7FBFB4802F0B2FBF9494A78C81D32
:10500000C2738A780274CA7842740A7982744A79BF
:10501000C2748A7902750622F3A0491C01F096FC3D
:10502000F0481038037A8179421D173002F0AFFB47
:105030001FBD1CB5002802D001280FD106E01020AA
:1050400069464880C820C880002006E05020694694
:1050500048804B20C000C8800A208880C020694654
:10506000087004204870684602F090FF6946CB88BB
:105070008A884988E0A001F04EFC1CBD3EB5D84CA2
:10508000103CA278012A01D000203EBD01246A46CE
:105090001480032555801F259580148103460A46F8
:1050A0006946204602F020FD3EBD03B583B0684648
:1050B000C08915214902884201D1DAA010E0DB49FC
:1050C000884208D1DBA0006800900220694602F007
:1050D000FCFC05B000BDD5492831884205D1D5A0DA
:1050E00003C8009001910820F0E7D049233188429D
:1050F00001D1D2A023E0CD492431884205D1D1A0ED
:1051000003C8009001910520E0E7C8492631884294
:1051100001D1CEA00AE0C5492531884201D1CCA0F9
:1051200004E0C2492731884204D1CAA00068009037
:105130000420CBE7BE494F31884205D1C7A003C840
:10514000009001910720C1E7C649884207D1C5A058
:105150000068009004216846FFF790FFB9E7C04956
:10516000383188420CD100206A46107001900290BC
:10517000694601A800F0C0FC6A4601A91078A6E7BC
:10518000BA498842A5D196490C3901209FE7F0B56C
:10519000044689B0401C03F0F2FD012821D0904D57
:1051A00000260127103D022821D0042828D07A03A8
:1051B000611C90425BD148790A79000210430128B2
:1051C0002AD0A74A1E3290423BD1487A097A00027F
:1051D0000843800733D0A5A001F09DFBEF7009B014
:1051E000F0BDFFF7F8FE02F0E6FBA5A087E0AE7089
:1051F0002F70012000F0C8FB0622A11DA5A070E0C1
:105200002E70AE7002F0D7FB012000F0BDFB61797B
:10521000A6A001F080FBE2E7207AE27900021043C9
:105220002028DCD1487A097A00020843800704D09C
:10523000A5A001F070FBAF70D1E7AE70CFE7EE70C4
:10524000CDE7894A9042CAD1487A097A00020843D8
:10525000C007C4D069460A804A8026208880604BF7
:1052600001220F810C3B104602F03EFCB7E7C21F43
:10527000FF3AFA3A0DD0C21FF93A35D00122120393
:105280009042ACD0082839D0920090423AD192A0F6
:1052900035E01E22611D684603F04DFD68464088DA
:1052A0006C46022809D06E493831884297D16E7019
:1052B000A179E01D00F074FB91E7E079A1280CD101
:1052C000207A012809D1607A012806D1A07A012824
:1052D00003D1002102F0ACFB6F7068468279E11DBA
:1052E00083A001F033FB7AE70822611D684603F0D2
:1052F00022FD01990098FFF7D8FE70E77EA001F02B
:105300000AFB6CE70122D203904284D148790979E3
:1053100000020843030004F0FFF8060512141618F3
:105320001A045CE77AA001F0F6FA684602F070FB16
:105330006846428801887BA001F0EDFA4FE780A023
:10534000DDE785A0DBE78AA0D9E78FA0D7E793A0A8
:10535000D5E7F8B50025964800950068FF21203074
:105360002F462C462E46017041709F228270CF221C
:10537000C27001712846012214282ED008DC0628AC
:1053800010D007280ED00F280CD0102806D109E025
:10539000162822D0172820D018281ED01146814068
:1053A0000D430C43401CC0B22028E5D3009800F008
:1053B00020FD0020009900F0E8FC0098B84300F0C0
:1053C000B2FD384600F0C6FD3146284600F028FD03
:1053D0002146002000F0A5FCF8BDECE00000FF3FF6
:1053E00000001030002064657669636520616464A4
:1053F000723A00000000736D6172745F70617261D7
:105400006D7320696E74657276616C3A2578206CD4
:105410006174656E63793A2578207376746F3A25E6
:10542000780D0A0000005359445F55415254012A37
:105430000000FFFF000053594420496E632E424C88
:105440004520312E3000312E302E30000000322E1B
:105450003030332E303056303031023A09050A02EE
:105460000000C9FE0000000103040F18000077656A
:10547000636861745F747820656E61626C650D0AA3
:105480000000526553746172744164760D0A000025
:1054900000004741505F4556545F434F4E4E4543D1
:1054A00054454420616464723A004741505F455658
:1054B000545F444953434F4E4E4543544544202581
:1054C000780D0A00000073746172745F747820654F
:1054D0006E61626C650D0A0000004741505F4556E1
:1054E000545F454E435F53544152540D0A006D734F
:1054F000673A0D0A00004741505F4556545F5041DE
:105500004952494E475F434F4D500D0A0000757098
:105510006461746520727370204143434550544563
:10552000440D0A000000696E74657276616C3A255C
:1055300078206C6174656E63793A25780D0A0000F5
:105540000000757064617465207273702052454A62
:1055500045435445440D0A0000007570646174654C
:10556000207273702054494D45524F55540D0A0016
:105570000000757064617465207273702053554328
:10558000434545440D0A00000000456E61626C65AC
:10559000206C6174656E63790D0A00000000446937
:1055A0007361626C65206C6174656E63790D0A00CD
:1055B000000054300020114681400D430C430E433F
:1055C000F0E6F8B58F4C2078002819D000268D4DD4
:1055D000012816D001277F0202281BD003280FD1F3
:1055E0002670384602F0F4FE88A001F094F97D2080
:1055F000C00000F096F988A001F08DF902F053FB8D
:10560000EAE600F0B6F989A001F085F902202070E1
:105610002E70E1E62878401CC0B228702028EFD90F
:1056200086A001F078F9384602F0D2FED4E6704741
:1056300072B600F0ACF8002002F0C9FA01F0E5FC07
:10564000002001F084FDFF20F53002F016FD01F08E
:105650008FFD7C49022002F04DFF00F070FD7A4979
:10566000022003F0F5FA00F08EFDFFF772FE012034
:1056700000F0BFFB012000F056FC01F0E4FC01F05B
:1056800046F9012001F0E4FC71A273A176A001F0BB
:1056900042F900F0A8FF01F03DF8FF2104317B48FA
:1056A00003F062FB62B6794D01263605794C794FDD
:1056B00002F015FCA878022818D12A78E91C76A0F7
:1056C00001F044F92878401EC1B2281D00F075FD94
:1056D00076480078002805D02978281D491EC9B2CF
:1056E00000F04FFE0421694803F03EFB304600F015
:1056F0005FFC00281BD0052000F013F9304600F0B5
:1057000057FC002813D069A001F005F9FF210431EE
:105710005F4803F029FB304600F04AFC0028FAD12C
:10572000FF20F53000F0FDF865A001F0F4F82068E6
:10573000002811D0800508D5FFF743FF0120400263
:1057400002F031FE64A001F0E6F82088C00503D520
:10575000FF20013002F027FE38680028A8D0C007DB
:1057600005D060A001F0D7F8012003F0E8F8387800
:1057700040079DD501F0FCFC5FA001F0CCF80420AF
:1057800003F0DDF894E75FA001F0C5F8FEE710B57F
:1057900088B001F08DFF012002F040F95F4802F06F
:1057A0008EF903216A46117300245473907BFB2207
:1057B0008843401C10406A4690731020D0731474C4
:1057C000517403A802F018F9C020059054480690BF
:1057D00005A802F033F9002002F077FAFFF7FBFB8F
:1057E0006A461470D4701471012050709070D11DED
:1057F000000503F0CEFA684602F0F9F908B010BDD2
:10580000000038300020393000204F5441206669B4
:105810006E6973680D0A0000000053746172742091
:1058200052657365742031303030730D0A004F5467
:10583000412073746172740D0A004F5441206661F7
:10584000696C650D0A004C3100207C31002032303B
:105850003A33393A3338000000004175672031335C
:105860002032303139005379643838313120554194
:105870005254204F54412074657374204657204C75
:105880004F472025733A25730D0A00000000C431EC
:105890000020EC3000200431002075617274207209
:1058A0007820646174610D0A0000A13000204B452E
:1058B00059312050726573730D0A00000000554184
:1058C0005254204D4153544552204F54412053745B
:1058D0006172740D0A004556545F31535F4F544155
:1058E0000D0A000000005254434556545F313053B6
:1058F0000D0A000000005254434556545F313835BC
:10590000530D0A0000004552523A20486172644625
:1059100061756C74210D0A0000000C3000208D02AE
:10592000001000220C4B06E00021491C89B299426C
:10593000FBD3521C92B28242F6D37047002206E09B
:105940000021491C89B20229FBD3521C92B2824227
:10595000F6D3704700008C0A000010B5A54B0E244A
:105960001B691C70541C5C709870D81C03F0E3F920
:1059700010BD08B502F002FA002069460870012245
:105980001620FFF7EAFF08BD00229949002801D040
:105990000A704A704A80CA808A800A81CA60704749
:1059A000F8B5934C0E4661880025002905D0217872
:1059B000002902D06570002168E0017811390B00E0
:1059C00003F0AAFD06101A1F474204190020FFF732
:1059D00030FB88A000F09FFF0120400202F031FD63
:1059E000012006E00020FFF724FB86A000F093FFD3
:1059F00004202070E560F8BD801C00F08FF80520C1
:105A00001CE0871CC01C03F0BAF901463A788248B2
:105A100002F03BFB0646781C03F0B1F902463B78E6
:105A200031467EA000F077FF002E09D06846057051
:105A3000012269461820FFF790FF06202070F8BD6C
:105A4000012069460870F3E7801C00F09CF80320F1
:105A5000F4E7C17982790F0217436780417A027AAD
:105A60000E021643E680801C03F089F9E060A580F1
:105A70000146258133463A466FA000F04CFFF8BD41
:105A8000425C2389D218491C228189B2B142F7D3E2
:105A900081070AD001463246744803F04CF9A188C8
:105AA000E068714A4018314605E0A288E1688B1829
:105AB00002463146184602F0E1F9A088801981B209
:105AC000A18060888142DAD32289E088824204D1B1
:105AD000002000F049F865A003E0012000F044F840
