:020000041000EA
:10000000B0640020B95A0010C15A0010C35A001041
:1000100000000000000000000000000000000000E0
:100020000000000000000000000000000F49001068
:10003000000000000000000003010010C95A001079
:1000400000000000CB5A0010E78F0010CB5A0010C0
:10005000CB5A0010CB5A0010A91E0010032100102B
:1000600089880010398900102D8A0010CB5A0010A1
:10007000071C0010CB5A0010CB5A0010CB5A0010AE
:10008000CB5A0010CB5A0010CB5A0010CB5A00109C
:10009000CB5A0010CB5A0010CB5A0010CB5A00108C
:1000A0000000000000000000000000000000000050
:1000B0000000000000000000000000000000000040
:1000C0000348854609F0C2FB0048004705040010BC
:1000D000B0640020064B19680868203080F3098856
:1000E000022080F314883FBCAE4662B600BD00001B
:1000F000AC300020EFF3108072B6704780F31088A8
:100100007047EFF309800E4B1A6820381060F0C07A
:1001100044464D4656465F46F0C008B572B603F0F9
:10012000D9F962B60CBC116808681030F0C8A04656
:10013000A946B246BB4680F309882038F0C8184764
:10014000AC300020FEB504460D4616461F46002082
:10015000009068460571C680029700BFEFF30580E6
:10016000002808D0A100BD4A505800236A4601A9C2
:1001700002F0CEFB07E0A100B84A505800231A460F
:1001800001A902F0A4F9FEBD10B5B5480068182118
:1001900041180A7810464A78120210438A781204ED
:1001A0001043C97809060843044601200005204091
:1001B000002805D00023AA2204211846FFF7C2FF19
:1001C000012080052040002805D00023BB22052106
:1001D0001846FFF7B7FF0120C0052040002805D0D2
:1001E0000023CC2206211846FFF7ACFF01200006B1
:1001F0002040002805D00023DD2207211846FFF704
:10020000A1FF10BDF8B5002500240027002600201E
:100210000090FF21934800682030017091480068E9
:10022000203041708F48006820308170CF218D4888
:1002300000682030C170FF218A48006820300171B9
:10024000002038E0152815D008DC00280DD0012842
:100250000CD0052812D0142823D113E0162812D070
:10026000172811D018281CD10FE000BF01218140B0
:100270000C431DE0012181400C4319E00121814024
:100280000C4315E000BF00BF00BF012181400D43BA
:10029000012181400E4301218140009A11430091C8
:1002A00006E0012181400D43012181400E4300BF42
:1002B00000BF411CC8B22028C4DB204601F0A2FACE
:1002C0002146002001F054FA2146B943084601F0C6
:1002D00061FB384601F077FB2846009901F0ABFA44
:1002E0002846B0430146002001F042FA3146002082
:1002F00001F0F3F95C491D20000501F0E9FBF8BDB0
:100300001CB500220821042001F0CDFF53490860EC
:1003100000BF524900235A1E0868694602F0F8F9E6
:100320000028F6D068460078042806D0052810D0AA
:1003300006281BD0072831D124E000BF6846428838
:100340004AA1002005F05EFB00BF022001F054FB33
:1003500024E000BF6846428844A1002005F052FB1B
:1003600000BF0120400501F047FB17E000BF6846D1
:1003700042883EA1002005F045FB00BF202001F08F
:100380003BFB0BE000BF6846428838A1002005F027
:1003900039FB00BF022001F02FFB00BFB9E71FB5FA
:1003A000012400200423019002900093039003464F
:1003B000802232A1354802F044FD0446012C05D1CB
:1003C00000BF33A1002005F01DFB00BF0020042367
:1003D00001900290009303900346802235A1394892
:1003E00002F02FFD0446012C05D100BF36A10020EC
:1003F00005F008FB00BF00BF3BA1002005F002FB99
:1004000000BF1FBD10B572B600F0A1FC002006F0C1
:10041000D2FF05F03CFF002005F0F6FF06F004F8DF
:1004200004F0ACFF00BF37A1002005F0EBFA00BFDD
:10043000FFF7E8FE00F090F800F0B1F862B606F0C1
:1004400087FD00BF38A1002005F0DCFA00BFFFF7F0
:10045000A6FF03F0EBF9002010BD000000300020E3
:100460006C3000205C300020890100104D73673A29
:10047000203078253032782E0D0A000042757474D1
:100480006F6E5F4C45445F5461736B000103001055
:1004900043726561746520427574746F6E5F4C457C
:1004A000445F5461736B2053756363657373210DEF
:1004B0000A000000536F667474696D65725461734D
:1004C0006B000000ED0500104372656174652053F8
:1004D0006F667474696D65725461736B20537563D4
:1004E00063657373210D0A00535944383831312044
:1004F0006672656552544F532053746172742E0DA9
:100500000A0000000D0A5359443838313120525442
:1005100054206465627567206D6F6465207465732F
:10052000742E0D0A0000000053746172742061641F
:10053000762E0D0A0000000010B500231A46194659
:100540000120FFF7FFFD10BD10B500231A46012161
:100550000846FFF7F7FD10BD10B51D49022008F051
:1005600054F900231B4A1C49012007F073FF0023A4
:100570001A4A7D21C900022007F06CFF10BD10B59A
:1005800000231A4602210120FFF7DCFD10BD10B543
:1005900000231A4603210120FFF7D4FD10BD10B53A
:1005A0000F49022008F00BFD00230E4AB421012060
:1005B00008F011FB00230C4A0A21022008F00BFB73
:1005C000012008F0B0FB022008F0ADFB10BD0000D8
:1005D000B4310020390500107017000049050010E3
:1005E000E43100207F0500108F0500101CB50022AB
:1005F0000821042001F057FE1D49486000BF1C4936
:1006000000235A1E4868694602F082F80028F6D096
:1006100068460078002806D0012815D0022816D098
:10062000032824D11CE013480078002802D10120BF
:1006300000F0ACF8012007F0E6FF00BF0EA100209B
:1006400005F0E0F900BF12E000F0C0FB0FE005F09C
:10065000EBFE00BF11A1002005F0D4F900BF06E0B9
:1006600000BF14A1002005F0CDF900BF00BFC6E710
:100670000030002040300020434F4E4E4543544947
:100680004F4E5F4C4154454E43595F4D53475F4970
:10069000445F4556542E0D0A000000005441534B50
:1006A0005F313830535F4D53475F49445F4556547F
:1006B0002E0D0A005441534B5F3130535F4D534769
:1006C0005F49445F4556542E0D0A000000B585B0C1
:1006D0000020009000216846017107214173192113
:1006E0008901C1811E21018201A806F00EFBF74895
:1006F00006F0F9FAF5484078F549C873F348807870
:100700000874F248C0784874F04800798874EF485B
:100710004079C874ED488079087501236A461F2125
:10072000EB4806F0F8FA05B000BD3EB505460C46AC
:10073000E8480078012827D1E7480078002813D03E
:10074000E64968460180E5491F3941802C218180B6
:1007500002210181142C00DD14242B462246694617
:10076000022006F00FFD3EBD0121684601800321F5
:1007700041801F218180012101812B46224669464B
:10078000012006F0FFFCEEE70020ECE710B586B094
:100790000446D3A103C90191009004A806F0ADFC62
:1007A00000BF6846438A028ACFA1002005F02AF9DB
:1007B00000BF002C02D0012C42D123E06846408AC1
:1007C000002814D06846008A102810DD0020CD498A
:1007D0000870102168464181C821C18100218181B2
:1007E000C02101720421417202A807F02DF800BF58
:1007F000C5A1002005F006F900BF05216846FFF7F6
:1008000094FF1DE06846408A0A2818DA6846008A84
:10081000502814DA5021684641810A2181814B21F8
:10082000C900C181C02101720421417202A807F0F0
:100830000BF800BFBAA1002005F0E4F800BF00BF2C
:1008400000BF06B010BD13B584B06846408A1521BC
:100850004902884209D1B8A003C803910290082434
:1008600002A9204606F07FFCAAE06846408AB44907
:10087000884208D1B3A000680390022403A920464F
:1008800006F071FC9CE06846408AAD4928318842F8
:1008900009D1ADA103C903910290082402A9204601
:1008A00006F061FC8CE06846408AA5492331884205
:1008B00009D1A7A103C903910290072402A92046E8
:1008C00006F051FC7CE06846408A9D49243188420C
:1008D00009D1A1A103C903910290052402A92046D0
:1008E00006F041FC6CE06846408A95492631884212
:1008F00008D19BA000680390042403A9204606F0B9
:1009000032FC5DE06846408A8D492531884208D135
:1009100094A000680390042403A9204606F023FC59
:100920004EE06846408A86492731884208D18EA029
:1009300000680390042403A9204606F014FC3FE05D
:100940006846408A7E494F31884209D187A103C950
:1009500003910290072402A9204606F004FC2FE030
:100960006846408A5D491E39884207D181A00068E7
:100970000390042103A8FFF7D8FE21E06846408ACF
:1009800056491A3188420ED100210391002001906E
:10099000029003A901A800F03AFE01A96846007B75
:1009A00006F0E1FB0CE06846408A65491831884250
:1009B00006D16420039003A9012006F0D4FB00BFF8
:1009C00006B010BD0FB410B56846408943491A31CE
:1009D000884207D10020684908706846817B0F3043
:1009E00000F00CFC10BC08BC04B01847F0B58DB08A
:1009F0000446601C08F097FB012807D106F0A8FA0E
:100A000000BF5EA1002004F0FDFF9EE1601C08F025
:100A10008AFB022818D100202E49087001205C4969
:100A2000087000203749087053490870012007F00A
:100A30004BFE012000F0CFFB00BF0623A21D55A1F5
:100A4000002004F0F1FF80E1601C08F06CFB04283A
:100A500018D100204E4908701E49087000BF627905
:100A600052A104F0CFFF00BF012007F0CCFDFFF73B
:100A70002DFE06F06DFA012000F0ADFB022007F01C
:100A8000C2FD62E1601C08F04EFB0121490388426F
:100A900018D1A1796279080210431049884212D115
:100AA000A17A627A080210430221084000280BD084
:100AB00000BF46A1002004F0A5FF00BF01200649A9
:100AC000087042E1B8E095E08AE00000363000208E
:100AD000113000200C3000200D300020E7FE000017
:100AE000FC01000000000000696E74657276616CA4
:100AF0003A2578206C6174656E63793A25780D0A21
:100B0000000000001030002053657455706461745B
:100B100065206F7461206C696E6B0D0A0000000027
:100B200053657455706461746520696F73206C69D6
:100B30006E6B0D0A000000005359445F554152543A
:100B4000012A0000FFFF000053594420496E632E24
:100B5000424C4520312E3000312E302E3000000026
:100B6000322E3030332E3030342E3030023A0905F8
:100B70000A020000000103040F3000204741505FCB
:100B80004556545F4144565F454E440D0A000000EF
:100B90000E3000204741505F4556545F434F4E4E44
:100BA000454354454420616464723A004741505FB4
:100BB0004556545F444953434F4E4E454354454474
:100BC0002825303278290D0A000000007765636817
:100BD00061745F747820656E61626C650D0A000057
:100BE00000BFA7A1002004F00DFF00BF0020A9490D
:100BF0000870AAE0A1796279080210430128F8D1AF
:100C0000A17A627A08021043C007C00F002809D0F9
:100C100000BFA1A1002004F0F5FE00BF0120A34900
:100C2000087092E000BFA2A1002004F0EBFE00BF1C
:100C300000209E49087088E0601C08F074FA0121C9
:100C4000490288420FD10E2221461531684608F02C
:100C500029FA1E22611D05A808F024FA05A80FC86C
:100C6000FFF7B0FE71E0601C08F05DFAFF21013172
:100C7000884209D10822611D0BA808F013FA0C99CB
:100C80000B98FFF7E0FD60E0601C08F04CFA0121D2
:100C90000903884259D0601C08F045FA01218903F4
:100CA000884205D100BF87A1002004F0ABFE4CE0D4
:100CB000601C08F038FA0121C903884245D1A179A6
:100CC000627908021043030008F029FE06040B12A3
:100CD000193C3D3E00BF80A1002004F093FE00BF00
:100CE00032E000BF82A1002004F08CFE00BF2BE0A8
:100CF00000BF85A1002004F085FE00BF24E00BA802
:100D000006F0FBF900BF86A1002004F07BFE00BFC7
:100D100000BF6946888D08F005FC074608F04AFCCC
:100D20000022854B0991089008F01CFB05460B46F4
:100D30006946C88D2A4681A10090002004F062FE19
:100D400000BF01E000E000BF00BF0DB0F0BD00B586
:100D500089B005F011FF08A806F000FA00216846E6
:100D600001764176807E81088900491C684681763B
:100D7000807E04218843011D684681761021C1765A
:100D8000002101770321417706A806F0AAF9C020C7
:100D900004907248059004A806F0C5F9002006F0FA
:100DA000B5FBFFF793FC002168460171C171012179
:100DB00001724171817102A903311D20000508F003
:100DC000BCF901A806F007FB09B000BD10B56448E6
:100DD0000078002853D062480078030008F09FFD97
:100DE000094D0615294D4D4D3C164D0000F0FBF800
:100DF00000BF5CA1002004F005FE00BF022058499E
:100E0000087000205C49087038E000BF5A4800783C
:100E1000401C59490870084600780A2808DD00BFC0
:100E200056A1002004F0EEFD00BF022007F0EBFB0E
:100E300024E000204A490870022007F0E4FB00BFCC
:100E400052A1002004F0DEFD00BF7D20C00006F0AE
:100E5000D2FA06F04AFB11E01E21002006F076FBD4
:100E600000BF4FA1002004F0CDFD00BF08203C4989
:100E7000087000204049087000E000BF00BF10BDAE
:100E80007765636861745F74782064697361626C0C
:100E9000650D0A000D30002073746172745F747800
:100EA00020656E61626C650D0A0000000C30002048
:100EB00073746172745F74782064697361626C65C5
:100EC0000D0A00004741505F4556545F454E435F51
:100ED00053544152540D0A000D0A757064617465D3
:100EE000207273702041434345505445442E000006
:100EF000757064617465207273702052454A454371
:100F00005445442E000000005570646174652072E1
:100F100073702054494D45524F55542E0000000027
:100F20000D0A7570646174652072737020535543A7
:100F3000434545442E0000000000F43F0D0A696E51
:100F400074657276616C3A25666D732C206C6174E1
:100F5000656E63793A25642E0D0A0000ED090010D4
:100F6000403000200D0A4F544120636F64652073A8
:100F7000746172742E0D0A00413000200D0A4F5426
:100F800041206661696C2E0D0A0000000D0A4F5465
:100F9000412066696E69736865642E0D0A00000061
:100FA0004F544120466C6173682064617461207302
:100FB000746172742E0D0A0070B504460E46154613
:100FC0000E20FE4909680870681CFC4909684870D1
:100FD000FA48006884702A463146F8480068C01C08
:100FE00008F060F870BD08B506F00FFB0020009017
:100FF000012269461620FFF7DFFF08BD38B5044619
:10100000607821780002084301210903884200DD4D
:1010100038BD6078217800020843A178401801218A
:101020000903884207DD6078217800020843012126
:101030000903081AA070A27861782378090219437D
:10104000DF4BC818E11C08F02DF800BFA3786078CA
:101050002178000208430246DAA1002004F0D2FC05
:1010600000BF00200090012269461720FFF7A4FF6F
:1010700000BFCDE77CB504460D4616466846457070
:10108000290A8170C670310A01710470052269460F
:101090001420FFF791FF7CBD7CB504460025601C41
:1010A00008F041F8064622783146C54806F081FC32
:1010B000054600BF601C08F036F806462078334627
:1010C0002A46C7A10090002004F09CFC00BF002D20
:1010D00002D10120019001E000200190012201A92C
:1010E0001820FFF769FF7CBDF8B5054600BFC24870
:1010F0000079002808D0C04A1179203A126A5001BC
:10110000BD4A203A06F0F4FA00BF284608F00BF872
:101110000646687929790002084303463246B7A19A
:10112000002004F06FFC00BF284607F0FCFF0646D5
:1011300068792979000208430346324600210846AF
:1011400006F0E5FA044600BF2246B2A1002004F0F2
:1011500059FC00BF002C02D10120009001E00020CA
:101160000090012269461820FFF726FFF8BDF8B568
:10117000054600BF00BF284607F0D5FF0646687940
:10118000297900020843034632469CA1002004F05E
:1011900039FC00BF284607F0C6FF064668792A7961
:1011A000000210430146304606F0B6FA044600BF7E
:1011B00022469DA1002004F025FC00BF002C02D196
:1011C0000120009001E000200090012269461820D3
:1011D000FFF7F2FEF8BD002804D00021974A1170F5
:1011E000974A11700021974A1180974A1180974AB7
:1011F0001180974A1180974A11607047F8B50546EB
:101200000E462C468F480088002803D08B48007873
:10121000002876D12078152843D008DC112822D068
:10122000122830D0132835D014281BD140E01628BE
:1012300006D0202866D0232878D02428F5D19EE037
:101240000020FFF7A3FA00BF83A1002004F0DAFB1F
:1012500000BF022007F038FA01207849087000200A
:101260007C49086092E00020FFF790FA00BF7EA161
:10127000002004F0C7FB00BF042070490870002064
:101280007449086082E0A01CFFF7B8FE05206B4996
:1012900008707BE0A01CFFF7FFFE0620674908707E
:1012A00074E0A01CFFF720FF0320644908706DE084
:1012B000E179A2790802104362490880617A227AB2
:1012C0000802104360490880A01C07F02CFF614908
:1012D000086000205D4908805D49088000BFA01CAF
:1012E00007F021FF0746617A227A08021043009036
:1012F000544803883A4661A1002004F083FB00BFF4
:1013000044E044E00020FFF741FA00BF68A100205C
:1013100004F078FB00BF022007F0D6F90720474908
:10132000087000204B49086030E0FFE7E179A279BE
:101330000802104343490880617A227A0802104368
:1013400041490880A01C07F0EEFE424908600020D9
:101350003E4908803E49088000BFA01C07F0E3FE1C
:101360000746617A227A08021043009035480388C4
:101370003A4654A1002004F045FB00BF06E0A01C43
:10138000FFF7F5FE03202D49087000BF3EE1002065
:101390002B490870002707E0E85D2D4909884018AF
:1013A0002B490880781C87B2B742F5DB2846E9173D
:1013B000890F091889108900691A9FE058300020A8
:1013C0004A070020636D64344B53455454494E47DB
:1013D00057726974652025782025780D0A00000071
:1013E000436F64655570646174653D25642025789C
:1013F0002025780D0A000000343200206F7461202F
:10140000737A3A257820636865636B73756D3A2546
:1014100078200000436F64655570646174657632AE
:10142000303D25640D0A0000436F646555706461AA
:1014300074657633303D25640D0A0000403000208D
:10144000413000204230002046300020443000204F
:10145000483000204C300020434D445F46575F45E4
:10146000524153450D0A0000344B53455454494EE4
:10147000475F4552415345200D0A0000434D445FEC
:1014800046575F57524954455F5354415254206F59
:1014900066667365743A25782C73697A653A25789F
:1014A00020636865636B73756D3A25780D0A0000DB
:1014B000464C415348444154415F455241534520B5
:1014C0000D0A0000464C415348444154415F575275
:1014D0004954455F5354415254206F666673657496
:1014E0003A25782C73697A653A25782063686563B4
:1014F0006B73756D3A25780D0A00000029D03246CD
:1015000029464D4807F0CEFD4C480078022803D00C
:101510004A48007801280AD149490968494A12888D
:101520008818454A314606F0E3F8074635E0434857
:101530000078082803D04148007807282DD1404979
:101540000968404A128888183B4A314606F041F83B
:1015500023E03A480078022803D038480078012870
:101560000AD137490968374A128888182A4631460D
:1015700006F0BEF8074610E030480078082803D08F
:101580002E480078072808D12D4909682D4A12886D
:1015900088182A46314606F01CF82A480088801927
:1015A00028490880084600882749098888422CDB9A
:1015B000264800882649098888420CD12348028899
:1015C000204801880020FFF755FD00BF21A1002021
:1015D00004F018FA0CE01D4802881A48018801201E
:1015E000FFF748FD00BF1FA1002004F00BFA00BF69
:1015F00000BF17480388154802881EA1002004F088
:1016000001FA00BF0020FFF7E6FD00BFF8BD70B58E
:1016100005460C46224800684078821C214928462D
:1016200007F040FD1E4800684078801C20701D486F
:1016300000210160416070BD143200204030002064
:101640004C30002044300020423000204830002040
:101650004630002073656374696F6E204F4B212004
:101660000000000073656374696F6E206661696CC9
:10167000652120006F74615F726563656976655FDF
:10168000636865636B3A2578206F74615F73656387
:1016900074696F6E5F636865636B3A25780D0A0045
:1016A000583000205030002010B50246002010E0D5
:1016B000012383401340002B0AD0FD4B1B681954B3
:1016C0000123834014469C432246002A00D102E0B5
:1016D000401C2028ECD300BF10BDFCB50346F54CE0
:1016E000221D019200220092002B02D1F24A0092A8
:1016F00003E0012B01D1F14A0092009A002A36D072
:10170000002013E0012282400D461540002D0CD030
:101710002568009E375C0126BE40354325600D4696
:1017200095432946002900D102E0401C1828E9D33E
:1017300000BF182017E0012585402A460D461540B8
:10174000002D0FD0019D2D780646183E0127B74089
:101750003D43EEB2019D2E700D469543294600296A
:1017600000D102E0401C2028E5D300BF00BFFCBD33
:10177000FCB50346CF4C221D019200220092002BA3
:1017800002D1CD4A009203E0012B01D1CB4A009255
:10179000009A002A35D0002013E0012282400D4635
:1017A0001540002D0CD02568009E375C0126BE40F8
:1017B000B54325600D4695432946002900D102E036
:1017C000401C1828E9D300BF182016E001258540E9
:1017D0002A460D461540002D0ED0019D2D78064657
:1017E000183E0127B740BD43019E35700D46954315
:1017F0002946002900D102E0401C2028E6D300BF82
:1018000000BFFCBDAE4909680A46137819465378F3
:101810001B02194393781B041943D2781206114313
:101820008143A74A126811700B0A53700B0C937016
:10183000090ED170704710B5A14A126813461C7882
:1018400022465C78240222439C7824042243DB78DD
:101850001B061A4302439A4B1B681A70140A5C70E9
:10186000140C9C70120EDA70964A126813461C789B
:1018700022465C78240222439C7824042243DB78AD
:101880001B061A4302438F4B1B681A70140A5C70C4
:10189000140C9C70120EDA708A4A12680823D3184E
:1018A0001C7822465C78240222439C78240422433C
:1018B000DB781B061A438243824B1B681A72140A98
:1018C0005C72140C9C72120EDA727E4A1268082343
:1018D000D3181C7822465C78240222439C78240486
:1018E0002243DB781B061A430A43764B1B681A72A5
:1018F000140A5C72140C9C72120EDA7210BD7049DC
:1019000009680A461378194653781B0219439378DD
:101910001B041943D278120611430143684A126826
:1019200011700B0A53700B0C9370090ED170704735
:10193000644909680A461378194653781B0219430B
:1019400093781B041943D2781206114301435D4A70
:10195000126811700B0A53700B0C9370090ED17042
:101960007047584909680A461378194653781B028C
:10197000194393781B041943D2781206114381430B
:10198000504A126811700B0A53700B0C9370090EB9
:10199000D17070474C4909680A4613781946537844
:1019A0001B02194393781B041943D2781206114382
:1019B0000143454A126811700B0A53700B0C937067
:1019C000090ED1707047404909680A4613781946D4
:1019D00053781B02194393781B041943D2781206DB
:1019E00011438143384A126811700B0A53700B0C73
:1019F0009370090ED1707047334909680A4613780D
:101A0000194653781B02194393781B041943D27863
:101A10001206114341402C4A126811700B0A537090
:101A20000B0C9370090ED170704701462548006871
:101A3000021D1378184653781B02184393781B0431
:101A40001843D278120610430840704710B5044678
:101A50002046FFF7EAFF002811D01A480068082145
:101A600041180A7810464A78120210438A78120404
:101A70001043C978090608432040002816D02046A4
:101A8000FFF7D3FF002821D10E4800680821411834
:101A90000A7810464A78120210438A7812041043DA
:101AA000C97809060843204000280FD0012010BD46
:101AB0005C30002080100050743000208C300020FA
:101AC0006030002068300020643000200020EEE705
:101AD00010B50A466D4909681823CB181C782146B1
:101AE0005C78240221439C7824042143DB781B0684
:101AF00019430140654B1B6819700C0A5C700C0C93
:101B00009C70090ED970614909681023CB181C78A4
:101B100021465C78240221439C7824042143DB780D
:101B20001B0619438143594B1B6819740C0A5C74DA
:101B30000C0C9C74090ED974544909682031097839
:101B400049084900514B1B682033197050490A60FD
:101B50000C21002909DB00BF00BFCC06E40E0123E5
:101B6000A3404C4C236000BF00BF00BF10BD4749DD
:101B7000096810228A181378194653781B021943F2
:101B800093781B041943D2781206114301433F4A4C
:101B9000126811740B0A53740B0C9374090ED174F0
:101BA00070470C20002816DBC206D20E012191409E
:101BB000384A8032116000BF00BF00BFBFF34F8FB3
:101BC00000BF00BF00BF00BF00BF00BFBFF36F8FEB
:101BD00000BF00BF00BF00BF0020C0432B49096801
:101BE0000874020A4A74020C8A74000EC8742748EA
:101BF00000682030007840084000401C23490968F4
:101C000020310870704710B520480068182141182D
:101C10000A7810464A78120210438A781204104358
:101C2000C978090608431949096810228A181378E7
:101C3000194653781B02194393781B041943D27831
:101C400012061143884300281ED01148006800285E
:101C500002D00F48006880470C48006818214118DE
:101C60000A7810464A78120210438A781204104308
:101C7000C97809060843054909680870020A4A70CC
:101C8000020C8A70000EC87010BD00006C3000207D
:101C90007030002000E100E0002815DBC206D20E03
:101CA00001219140FA4A116000BF00BF00BFBFF39D
:101CB0004F8F00BF00BF00BF00BF00BF00BFBFF31A
:101CC0006F8F00BF00BF00BF704710B5F1480068BC
:101CD000C07B80098001C01CEE490968C873ED48CB
:101CE0000068007C80098001001DEA4909680874C9
:101CF000E84800682030807820218843E549096859
:101D000020318870E3480068203080784021884383
:101D1000E049096820318870DF4800688078400811
:101D20004000DD4909688870DB48006800780009D8
:101D300000010830D84909680870D7480068007861
:101D400080218843D44909680870D3480068007826
:101D5000402188434030D04909680870CE48006867
:101D6000C078102188431030CB490968C870CA4830
:101D70000068807804218843001DC749096888707D
:101D8000C5480068807820218843C3490968887065
:101D9000C1480068807810218843BF49096888706D
:101DA000BD480068807880218843BB4909688870F5
:101DB000B9480068807840218843B749096888702D
:101DC000B5480068007810218843B3490968087055
:101DD000B1480068007820218843AF49096808703D
:101DE000AD480068807802218843801CAA490968B0
:101DF0008870A9480068C078202188432030A6490F
:101E00000968C870062000F0B1F9A348006880781E
:101E1000082188430830A0490968887010BD9E4990
:101E20000968487000BF9C49096809788906C90F8C
:101E30000029F8D098490968097820229143964AE8
:101E400012681170704718B50246002000230093F5
:101E500014E0914B1B681B790B54431CD8B26B46A2
:101E60001B785B1CDCB200946B461B785B1CDCB2FD
:101E700000946B461B785B1CDCB20094864B1B689D
:101E8000DB78DB07DB0F002BE3D0107018BD10B53B
:101E9000814800688078082188437F4909688870F4
:101EA0000620FFF7F9FE10BD0CB57B4800680078EE
:101EB000C006C00F00280CD07748006800781021B9
:101EC0008843754909680870694601A8FFF7BBFF98
:101ED00000BF7148006800788006C00F002807D056
:101EE0006D4800680078202188436B4909680870B4
:101EF0006948006880788007C00F002808D06648CD
:101F00000068807802218843801C634909688870D2
:101F10000CBD10B55F480068407980098001401D04
:101F20005C49096848715B480068807980098001D4
:101F3000801D58490968887156480068203000782B
:101F400020218843534909682031087051480068AE
:101F500020300078402188434E49096820310870BC
:101F60004E4800688078400840004C4909688870F5
:101F70004A480068007800090001083047490968AC
:101F80000870464800680078802188434349096802
:101F900008704248006800784021884340303F493B
:101FA000096808703D480068C078102188431030E7
:101FB0003A490968C8703948006880780421884324
:101FC000001D3649096888703448006880782021EF
:101FD0008843324909688870304800688078102149
:101FE00088432E49096888702C48006880788021D1
:101FF00088432A4909688870284800688078402109
:1020000088432649096888702448006800781021B0
:102010008843224909680870204800680078202118
:1020200088431E49096808701C48006880780221AE
:102030008843801C19490968887018480068C0786E
:1020400020218843203015490968C870072000F016
:102050008DF81248006880780821884308300F49BD
:102060000968887010BD0D490968487000BF0B49A8
:10207000096809788906C90F0029F8D00749096855
:10208000097820229143054A1268117070470000B8
:1020900080E100E05C300020A4300020A830002067
:1020A00018B5024600200023009314E0364B1B684D
:1020B0001B790B54431CD8B26B461B785B1CDCB2FB
:1020C00000946B461B785B1CDCB200946B461B785B
:1020D0005B1CDCB200942C4B1B68DB78DB07DB0F4E
:1020E000002BE3D0107018BD10B527480068807829
:1020F000082188432449096888700720FFF7CCFD30
:1021000010BD0CB5204800680078C006C00F00283C
:102110000CD01D4800680078102188431A490968CE
:102120000870694601A8FFF7BBFF00BF16480068AA
:1021300000788006C00F002807D013480068007898
:10214000202188431049096808700F48006880788A
:102150008007C00F002808D00B4800688078022153
:102160008843801C0849096888700CBD002809DB79
:1021700000BF00BFC206D20E01219140034A116088
:1021800000BF00BF70470000A830002000E100E061
:102190000146083141600021C94381600146083190
:1021A000C160016100210160704700210161704739
:1021B00042684A6093688B609368596091600861D7
:1021C00003685B1C0360704710B502460B685C1C1B
:1021D000002C01D1106907E01046083000E040688B
:1021E000446824689C42FAD944684C604C68A160F9
:1021F000886041600A611468641C146010BD014667
:102200000A694B68886898608B68486858605068AD
:10221000884201D188685060002008611068401E23
:10222000106010687047000070B505460E462C46D9
:10223000002C02D172B600BFFEE702F0AFFB216CAA
:10224000E06B48432168401860600020A06320686C
:10225000A060E06B401E216C484321684018E0609C
:102260000020C0436064A064002E10D120690028C3
:1022700001D1012000E00020002810D120461030BC
:1022800001F0E2FB01280AD102F07FFB07E02046C3
:102290001030FFF77DFF20462430FFF779FF02F072
:1022A00088FB012070BDFEB507460D46002000905A
:1022B000002F01D0012000E00020002802D172B6DA
:1022C00000BFFEE7002D02D10020019003E0384658
:1022D0006843401C019001990846503002F026FAEC
:1022E0000646002E10D03446002D01D1246002E0B5
:1022F000304650302060E763256401212046FFF717
:1023000093FF0020E06400940098002802D172B688
:1023100000BFFEE70098FEBDF8B504460E46154620
:102320000027206C002809D12068002831D160687E
:1023300001F0BFFC0746002060602AE0002D0FD1AD
:102340003146226CA06806F0ADFE216CA0684018F2
:10235000A0606168A06888421BD32068A06018E074
:102360003146226CE06806F09DFE216CE068401A60
:10237000E0602168E068884203D2216C6068401AFE
:10238000E060022D05D1A06B002802D0A06B401E9A
:10239000A063A06B401CA0633846F8BD73B50D4622
:1023A0000098C46C0026002C02D172B600BFFEE774
:1023B000A06BE16B884201D2012000E000200028E0
:1023C00002D172B600BFFEE7A06BE16B88421CD25F
:1023D0002A4669462046FFF79FFF0646A06C401C30
:1023E00000280FD1606A002801D1012000E0002000
:1023F00000280AD12046243001F026FB002804D012
:10240000012602E0A06C401CA06430467CBD10B5E3
:10241000044602F0C3FA20E0E06C002808D0002156
:102420002046FFF7BBFF012814D101F0C5FB11E0E6
:10243000606A002801D1012000E00020002808D1B6
:102440002046243001F000FB002803D001F0B4FB4B
:1024500000E005E0A06C401EA064A06C0028DBDC5E
:1024600000BF0020C043A06402F0A3FA02F096FA75
:1024700014E02069002801D1012000E0002000289C
:102480000BD12046103001F0DFFA002801D001F016
:1024900093FB606C401E606400E002E0606C00280A
:1024A000E7DC00BF0020C043606402F082FA10BD88
:1024B00070B5054602F072FAA86BE96B884201D14B
:1024C000012400E0002402F074FA204670BDFFB53C
:1024D00083B006461D46002002903446002C02D1EF
:1024E00072B600BFFEE70498002802D1206C0028D5
:1024F00001D1012000E00020002802D172B600BF07
:10250000FEE7022D02D1E06B012801D1012000E09D
:102510000020002802D172B600BFFEE701F07BFB6D
:10252000002802D10598002801D1012000E00020F8
:10253000002802D172B600BFFEE700BF02F02EFAFB
:10254000A06BE16B884201D3022D2BD12A46204695
:102550000499FFF7E1FE0746E06C002808D0294601
:102560002046FFF71BFF012817D102F00EFA14E0F6
:10257000606A002801D1012000E00020002808D175
:102580002046243001F060FA012806D102F0FDF95E
:1025900003E0002F01D002F0F8F902F00AFA01205E
:1025A00007B0F0BD0598002803D102F002FA002020
:1025B000F6E70298002804D1684601F0BCFA012031
:1025C000029002F0F6F900F04DFE02F0E7F9606CBF
:1025D000401C002800D16064A06C401C002800D181
:1025E000A06402F0E6F905A9684601F0B0FA0028F7
:1025F00019D12046FFF75CFF00280ED0204610308E
:10260000059901F08BF92046FFF701FF00F07DFDF1
:10261000002893D102F0B9F990E72046FFF7F7FEC2
:1026200000F073FD8AE72046FFF7F1FE00F06DFD34
:102630000020B5E770B50546502002F077F8044653
:10264000002C1CD0002060602060A060E060A063CF
:102650000120E06300202064401E6064A06400202C
:10266000E06420461030FFF793FD20462430FFF74A
:102670008FFD00231A4619462046FFF728FF002C3D
:1026800002D172B600BFFEE7204670BD70B50646A7
:102690003446002C02D172B600BFFEE701F0B8FA52
:1026A000616888420DD1E068401EE060E068002863
:1026B00005D100231A4619462046FFF708FF0125D9
:1026C00000E00025284670BD70B5054602F066F9A9
:1026D000A86B002801D1012400E0002402F069F970
:1026E000204670BD70B504460D46206C00280ED003
:1026F000216CE0684018E0606168E068884201D3BE
:102700002068E0602846226CE16806F0CBFC70BDD2
:10271000FFB583B005460E46002002902C46002CE3
:1027200002D172B600BFFEE7002E02D1206C002855
:1027300001D1012000E00020002802D172B600BFC4
:10274000FEE701F068FA002802D10598002801D1BF
:10275000012000E00020002802D172B600BFFEE791
:1027600000BF02F01BF9A06B002837D0E7683146A4
:102770002046FFF7B7FF0698002819D1A06B401E2E
:10278000A0632068002802D101F0DDFA60602069B2
:10279000002801D1012000E00020002819D12046A6
:1027A000103001F051F9012813D102F0EEF810E0D9
:1027B000E760606A002801D1012000E000200028C5
:1027C00007D12046243001F03FF9002801D002F063
:1027D000DCF802F0EEF8012007B0F0BD0598002803
:1027E00003D102F0E6F80020F6E70298002804D1B1
:1027F000684601F0A0F90120029002F0DAF800F03A
:1028000031FD02F0CBF8606C401C002800D1606400
:10281000A06C401C002800D1A06402F0CAF805A9F1
:10282000684601F094F9002823D12046FFF74CFFB9
:10283000002818D02068002806D102F0AFF86068A0
:1028400001F0F7F902F0B5F820462430059901F0BF
:1028500065F82046FFF7DBFD00F057FC002880D12B
:1028600002F093F87DE72046FFF7D1FD00F04DFC24
:1028700077E72046FFF7CBFD00F047FC0020ABE7F1
:10288000F8B506460F463446002C02D172B600BF9A
:10289000FEE701F0BDF96168884204D1E068401CA0
:1028A000E06001250BE000233A4619462046FFF779
:1028B0002FFF0546012D02D1E068401CE06028464C
:1028C000F8BD70B505460E46002D01D0012000E090
:1028D0000020002802D172B600BFFEE7AE4201D848
:1028E000012000E00020002802D172B600BFFEE700
:1028F000022200212846FFF7D6FC0446002C00D017
:10290000A663002C02D172B600BFFEE7204670BD60
:10291000FFB583B0074615461E463C46002C02D143
:1029200072B600BFFEE70498002802D1206C002890
:1029300001D1012000E00020002802D172B600BFC2
:10294000FEE7022E02D1E06B012801D1012000E058
:102950000020002802D172B600BFFEE7FDF7CAFBD7
:102960000190A06BE16B884201D3022E2ED132463A
:1029700020460499FFF7D0FCA06C401C00281FD112
:10298000E06C002809D031462046FFF707FD0128FA
:1029900019D1002D17D0286015E0606A002801D1F8
:1029A000012000E0002000280DD12046243001F055
:1029B0004BF8002807D0002D05D00120286002E048
:1029C000A06C401CA0640120029001E00020029055
:1029D0000198FDF793FB029807B0F0BDF8B50646E5
:1029E0000D463446002C02D172B600BFFEE7206CC3
:1029F000002801D1012000E00020002802D172B699
:102A000000BFFEE72068002802D16068002801D1DD
:102A1000012000E00020002802D172B600BFFEE7CE
:102A2000FDF768FB0090A06BE16B88422BD2A06B96
:102A3000401CA063A06C401C00281FD1E06C002843
:102A400009D000212046FFF7A9FC012819D1002D4B
:102A500017D0286015E0606A002801D1012000E04D
:102A6000002000280DD12046243000F0EDFF002882
:102A700007D0002D05D00120286002E0A06C401C8A
:102A8000A064012700E000270098FDF737FB3846D7
:102A9000F8BDF7B582B0054616462C46002C02D18B
:102AA00072B600BFFEE70398002802D1206C002810
:102AB00001D1012000E00020002802D172B600BF41
:102AC000FEE7FDF717FB0190A06B002822D02046FF
:102AD0000399FFF707FEA06B401EA063606C401CCB
:102AE000002812D12069002801D1012000E0002037
:102AF00000280DD12046103000F0A6FF002807D096
:102B0000002E05D00120306002E0606C401C606443
:102B1000012700E000270198FDF7F0FA384605B0DC
:102B2000F0BDF3B581B005462C46002C02D172B63B
:102B300000BFFEE70298002802D1206C002801D1D6
:102B4000012000E00020002802D172B600BFFEE79D
:102B5000206C002801D0012000E00020002802D1D4
:102B600072B600BFFEE7FDF7C5FA0090A06B002823
:102B700007D0E76820460299FFF7B4FDE760012619
:102B800000E000260098FDF7B9FA3046FEBD70B5AA
:102B90000446002C02D172B600BFFEE701F0FEFE33
:102BA000A56B01F006FF284670BD70B504462546AA
:102BB000002D02D172B600BFFEE701F0EFFEA96B57
:102BC000E86B461A01F0F5FE304670BD014600295B
:102BD00002D172B600BFFEE7886B704710B50146A0
:102BE00000200BE0C2005C4BD21852688A4204D12C
:102BF0000022C300584CE25002E0401C0A28F1D3E6
:102C000000BF10BD70B504462546002D02D172B636
:102C100000BFFEE72846FFF7E1FF284601F00AFE65
:102C200070BD0146002902D172B600BFFEE78A6B73
:102C3000002A01D1012000E0002070470146002950
:102C400002D172B600BFFEE78A6BCB6B9A4201D10C
:102C5000012000E00020704710B5024600200BE084
:102C6000C3003D4CE358002B05D1C300E150C30025
:102C70001B195A6002E0401C0A28F1D300BF10BDA6
:102C800070B505460E462C4601F088FE606C401C6F
:102C9000002800D16064A06C401C002800D1A06412
:102CA00001F087FEA06B002804D131462046243075
:102CB00000F0B0FE2046FFF7AAFB70BD70B50446D9
:102CC000002204212046FFF7EEFA0546284670BD93
:102CD00070B504460E4601F061FEE06C002801D09C
:102CE000002506E0A06B002801D0002501E0E66485
:102CF000012501F05EFE284670BDF8B505460F4679
:102D00002E46F06CB84201D000240BE0B06B0028D6
:102D100001D0002406E001F041FE0020F06401F043
:102D200048FE01242046F8BD38B505460C46002073
:102D300000900023224669462846FFF7E9FC0098E8
:102D400038BD38B504460020009000226946204670
:102D5000FFF79FFE009838BD3C32002010B50024DC
:102D600006E014216143FE4A8818FFF711FA641C3B
:102D70000A2CF6D3FB48FFF70BFAFB48FFF708FADB
:102D8000FA48FFF705FAFA48FFF702FAF948FFF7A1
:102D9000FFF9F448F8490860F348F849086010BDA5
:102DA000F8B504460F461546002608E0B95D2046F2
:102DB00034308155B85D002800D102E0761C052E24
:102DC000F4D300BF0021382001550A2D00D3092576
:102DD000E562E56300202064201DFFF7E6F9204648
:102DE0001830FFF7E2F924610A20401BA0616462F9
:102DF00000206064002148200155F8BDF8B5054663
:102E00000F46002F03D1A80001F090FC00E03846E7
:102E10000646002E0BD04C2001F088FC0446002C06
:102E200001D0266304E0304601F004FD00E00024F8
:102E3000002C04D0A900A522206B06F045F92046FD
:102E4000F8BDFFB583B016460C9D0398002802D14B
:102E500072B600BFFEE70A2D01D2012000E000207B
:102E6000002802D172B600BFFEE730460E99FFF788
:102E7000C5FF0446002C5FD0701E8000216B08182F
:102E80000290029880088000029002988007800FCC
:102E9000002801D1012000E00020002802D172B6F4
:102EA00000BFFEE700962A4620460F9B0499FFF7D5
:102EB00077FF069A0399029801F01CFD20600D9897
:102EC000002801D00D98046001F068FDAC4800684E
:102ED000401CAB490860AB480068002808D1A948ED
:102EE00004600846006801280DD1FFF737FF0AE0AB
:102EF000A5480068002806D1A2480068C06AA84218
:102F000001D8A0480460A1480068401C9F4908609F
:102F10009F49E06A0968884202D99D49E06A0860D1
:102F20001422E16A51438E4A8818211DFFF740F9A7
:102F3000012701F03EFD01E00027FF43012F0AD1E8
:102F400091480068002806D08E480068C06AA842F0
:102F500001D201F01AFD384607B0F0BD8649096874
:102F60000968002901D1012100E00021002904D0D5
:102F70000021C943874A116006E07F490968C96892
:102F8000C868844A41681160704770B5054601F011
:102F900005FD002D02D17B48006800E0284604466C
:102FA000201DFFF72CF9A06A002803D02046183016
:102FB000FFF725F9211D6E48FFF7FAF876480068FB
:102FC000401C7549086071480068401C6F490860E2
:102FD00001F0EFFC6C480068002818D069480068D0
:102FE00084420ED16D480068002801D1012000E024
:102FF0000020002802D172B600BFFEE701F0C5FC38
:1030000005E001F0CBFCFFF7A9FF01F0D2FC70BD99
:10301000F8B50020009061480068002868D1604839
:103020000068401C5E49086008460668002E1CD1F6
:10303000514800680068002801D1012000E000200C
:10304000002802D172B600BFFEE74B4807684B4824
:103050000068494908604948076052480068401CB8
:1030600050490860FFF77AFF00BF4A48006886426F
:103070003DD300BF404800680068002801D101200E
:1030800000E00020002804D00020C043414908602F
:103090002CE039480068C068C4686568AE4202D256
:1030A0003C48056022E0201DFFF7A9F8A06A00282F
:1030B00003D020461830FFF7A2F83549E06A0968C6
:1030C000884202D93249E06A08601422E16A514319
:1030D000234A8818211DFFF76BF82A49E06A09681E
:1030E000C96A8842C6D301200090C3E700BF04E04C
:1030F0002D480068401C2C4908602C4800680028B6
:1031000001D0012000900098F8BD70B5002523483B
:103110000068002802D172B600BFFEE701F03EFC55
:103120001E480068401E1D490860084600680028C7
:1031300075D113480068002871D04BE00B48C06877
:10314000C46820461830FFF75AF8201DFFF757F8DB
:103150000F49E06A096888422BD90D49E06A27E0E7
:103160008C32002054330020683300207C33002050
:1031700090330020A4330020B0300020B430002071
:10318000C0300020AC300020CC300020DC300020EB
:10319000C8300020E0300020B8300020E4300020AB
:1031A000C4300020D8300020D0300020D43000209F
:1031B00008601422E16A5143F94A8818211DFEF77C
:1031C000F7FFF849E06A0968C96A884202D301201A
:1031D000F5490860F5480068002801D1012000E0A9
:1031E00000200028AAD0F2480068002810D00BE088
:1031F000FFF70EFF002802D00120EB490860EC48E1
:103200000068401EEA490860E94800680028EFD1DC
:10321000E5480068012802D1012501F0B6FB01F064
:10322000C8FB284670BD10B50446DE4800684460FF
:10323000E0480068844207D2DA480168091DDE4888
:103240000068FEF7C1FF0CE0D6480168091DDB48A5
:103250000068FEF7B9FFDA480068844201D2D84816
:10326000046010BDD7480068401CD649086070470C
:10327000FEB504460E4600200190002C02D172B625
:1032800000BFFEE7002E01D0012000E00020002852
:1032900002D172B600BFFEE7CA480068002801D11B
:1032A000012000E00020002802D172B600BFFEE736
:1032B000FFF7D8FFBF480068009020688519216893
:1032C0000098814208D92068A8420DD9009885420B
:1032D0000AD90120019007E02068A84202D800988E
:1032E000854201D90120019025600198002807D06E
:1032F000AC480068001DFEF782FF2846FFF793FFE9
:10330000FFF703FF0746002F01D101F03EFBFEBD92
:1033100070B504460026002C1BD0AA48006800287F
:1033200001D1012000E00020002802D172B600BFC8
:10333000FEE7FFF797FF9F48006805199948006866
:10334000001DFEF75CFF2846FFF76DFFFFF7DDFE6F
:103350000646002E01D101F018FB70BDF8B50746F6
:103360003E46002E02D172B600BFFEE78D480068CF
:10337000864201D100241EE001F010FB756901F0C6
:1033800018FB8E480068854203D08B480068854250
:1033900001D102240FE08C48854206D1B06A002892
:1033A00001D1032407E0022405E08848854201D1C9
:1033B000042400E001242046F8BD70B5044601F065
:1033C000EDFA002C02D17748006800E0204606465E
:1033D000F56A01F0EEFA284670BDF8B50446FCF730
:1033E00089FE0746002C02D16E48006800E02046A6
:1033F0000646F56A3846FCF781FE2846F8BDFEB55C
:1034000007460D46002000900A2D01D2012000E061
:103410000020002802D172B600BFFEE70A2D00D3BB
:10342000092501F0BBFA002F02D15E48006800E0D8
:1034300038460446E66BAE4249D0B5420BD95948EE
:10344000006884420DD057480068C06AA84208D876
:103450000120009005E053480068844201D101201A
:103460000090E06A0190E16AE06B884200D1E56279
:10347000E563A069C00FC007002802D10A20401BE5
:10348000A0616169142201985043454A8018814225
:1034900001D1012000E00020002812D0201DFEF7FD
:1034A000AEFE4B49E06A0968884202D94849E06AA1
:1034B00008601422E16A5143394A8818211DFEF739
:1034C00077FE0098012801D101F05FFA00BF01F0FA
:1034D00070FAFEBD3B480068002803D00120324945
:1034E000086032E00020304908600BE0384800688E
:1034F000002802D172B600BFFEE735480068401EC2
:103500003349086032480068142148432449085868
:10351000002801D1012000E000200028E6D12C493C
:103520000968142251431E4A88184168496841605D
:103530000146083142688A4202D1416849684160C7
:103540004168C968174A116000BF704770B50546E9
:1035500001F024FA002D02D11248006800E028464C
:103560000446201DFEF74BFEA06A002803D020462B
:103570001830FEF744FE211D1348FEF719FE01F036
:1035800018FA0848006884423CD1124800680028B4
:103590002BD00C48006800281ED101201DE000003F
:1035A0008C320020AC300020D43000207C3300204E
:1035B000D0300020C4300020B4300020B0300020D3
:1035C000E0300020E4300020A433002090330020BD
:1035D000C8300020CC3000200020002802D172B674
:1035E00000BFFEE701F0D1F916E0FA480068FA4999
:1035F0000968884203D10020F84908600CE0FFF711
:1036000069FF09E0F6480068002805D001F0C6F916
:10361000FFF7A4FC01F0CDF970BD10B50246002003
:103620001146002A02D172B600BFFEE7E94C4B6991
:10363000A34201D1012300E00023002B11D0E94C6B
:103640008B6AA34201D1012300E00023002B08D1A3
:103650008B6A002B01D1012300E00023002B00D056
:10366000012010BD70B505462C46002D02D172B662
:1036700000BFFEE7002C27D0D8480068844223D042
:1036800001F08CF92046FFF7C8FF01281AD1201D50
:10369000FEF7B5FDD449E06A0968884202D9D249EB
:1036A000E06A08601422E16A5143D04A8818211D5B
:1036B000FEF77EFDC949E06A0968C96A884201D3FC
:1036C00001F063F901F075F970BDF8B50546002603
:1036D0002C46002D02D172B600BFFEE7FCF70AFDB2
:1036E00007462046FFF799FF012823D1C04800680C
:1036F00000281AD1B949E06A0968C96A884200D32A
:103700000126201DFEF77BFDB749E06A0968884263
:1037100002D9B549E06A08601422E16A5143B34A0C
:103720008818211DFEF744FD04E021461831AD48FC
:10373000FEF73EFD3846FCF7E1FC3046F8BD10B51B
:10374000044603F0A2FE10BDA4490968C96A002915
:1037500001D000200AE0A5490968012901D900200B
:1037600004E0A4490968A44A1268881A704710B591
:103770000446206B01F05EF8204601F05BF810BDB6
:1037800070B525E0FFF76EFD9C480068002801D168
:10379000012000E000200546FFF7B7FC002D17D1FF
:1037A00001F0FCF89548C068C468201DFEF727FDAD
:1037B00089480068401E8849086091480068401E9A
:1037C0008F49086001F0F5F82046FFF7D0FF00BFF1
:1037D0008B4800680028D5D170BD00BFFFF7D0FF2F
:1037E00082480068012801D901F0CFF8FFF7ACFF4B
:1037F0000446022C19D3FFF735FD7E4800687E4948
:103800000968884201D3012000E00020002802D18D
:1038100072B600BFFEE7FFF797FF0446022C02D303
:103820002046FFF78CFFFFF770FCD7E71FB500209D
:10383000744A00900290034601920390802272A184
:103840007348FFF7FEFA0446012C02D100F033FE64
:103850000446012C09D172B601206149086000209C
:103860006549086001F06AF804E0002C02D172B6E4
:1038700000BFFEE71FBD10B572B6002058490860B2
:1038800001F074F810BD10B501F088F85A480468CA
:1038900001F08FF8204610BD70B5FCF72BFC0546F3
:1038A000554804682846FCF729FC204670BD4A4864
:1038B000006870470146002902D14848006800E0CE
:1038C00008460246002A02D172B600BFFEE7104643
:1038D000343070474B480068002801D0012000E0D8
:1038E0000020002802D172B600BFFEE745480068FC
:1038F00070474149096809183E4A1268914201D847
:10390000012100E00021002902D172B600BFFEE7CC
:10391000394909680918384A1160704770B5054679
:103920000C46002D02D172B600BFFEE72B4801689D
:1039300018312846FEF748FC28480068001DFEF7AD
:103940005EFC601C002806D124480168091D21483E
:10395000FEF72EFC05E02848006806193046FFF700
:1039600062FC70BDF8B505460E461446002D02D126
:1039700072B600BFFEE71E480068002801D0012093
:1039800000E00020002802D172B600BFFEE701204F
:10399000C00730431149096888611048016818312F
:1039A0002846FEF705FC0D480068001DFEF727FCC1
:1039B000601C002806D109480168091D0548FEF76A
:1039C000F7FB05E00C48006807193846FFF72BFCA9
:1039D000F8BD0000A4330020C0300020AC3000202F
:1039E000CC3000207C330020C83000208C320020F6
:1039F000E4300020E0300020C4300020903300206C
:103A0000B8300020BC30002049444C450000000084
:103A1000DB37001070B504460D46002C02D172B69B
:103A200000BFFEE7FE48016818312046FEF7C0FBE4
:103A3000FB480068001DFEF7E2FBFA4800684619E3
:103A40003046FFF7F0FB70BD70B50646F068C468FD
:103A5000002C02D172B600BFFEE720461830FEF7F8
:103A6000CEFBF1480068002813D1201DFEF7C7FBEC
:103A7000EE49E06A0968884202D9EC49E06A0860C8
:103A80001422E16A5143EA4A8818211DFEF790FB8F
:103A900004E021461831E748FEF78AFBE049E06A76
:103AA0000968C96A884204D901250120E2490860F1
:103AB00000E00025FFF752FA284670BDF8B505462C
:103AC0000F46D9480068002801D0012000E00020FE
:103AD000002802D172B600BFFEE70120C0073843BC
:103AE0002860EC68002C02D172B600BFFEE72846C1
:103AF000FEF785FB201DFEF782FBCC49E06A0968D2
:103B0000884202D9C949E06A08601422E16A514337
:103B1000C74A8818211DFEF74BFBC149E06A0968B6
:103B2000C96A884204D901260120C349086000E01F
:103B300000263046F8BD002802D172B600BFFEE76D
:103B4000BE4909680160B74909684160704770B5AE
:103B500004460D46002C02D172B600BFFEE7002DD0
:103B600002D172B600BFFEE700F018FFAD48026850
:103B70002868401C002801D1002619E0AF492068C0
:103B80000968884204D06068904201D801260FE09D
:103B90006068101A2968884209D228686168511A39
:103BA000401A28602046FFF7C6FF002600E00126E5
:103BB00000F0FFFE304670BD01209F49086070474D
:103BC00001209C490968002901D0002004E09A499D
:103BD0000968002900D0002070470246002101E05A
:103BE000521C491C1078A528FAD0890888B2704761
:103BF000F8B50446002C02D18948006800E0204650
:103C000007463D6B2846FFF7E8FF06463046F8BDFD
:103C10008349086870478A490968002901D1012051
:103C200006E081490968002901D1022000E0002056
:103C3000704770B505462C46002D39D07849E06AAA
:103C40000968C96A884233D2A069C00FC00700283A
:103C500005D173480068C06A0A21081AA0611422BD
:103C6000E06A5043724A80186169814201D10120A3
:103C700000E00020002817D0201DFEF7C0FA684899
:103C80000068C06AE0626949E06A0968884202D94E
:103C90006649E06A08601422E16A5143644A881860
:103CA000211DFEF785FA03E05D480068C06AE06206
:103CB00070BD70B505462C460026002D35D05848FD
:103CC0000068844201D1012000E00020002802D1D8
:103CD00072B600BFFEE7206C002802D172B600BFAA
:103CE000FEE7206C401E2064E16BE06A88421CD035
:103CF000206C002819D1201DFEF781FAE06BE062EC
:103D00000A21E06A081AA0614849E06A0968884205
:103D100002D94649E06A08601422E16A5143444AE4
:103D20008818211DFEF744FA0126304670BD3C4933
:103D3000096888693A490968C96A0A22511A384AE1
:103D400012689161704736480068002806D03449EF
:103D5000096808464030096C491C01603048006819
:103D60007047F8B506460C4600F018FE2C4800686F
:103D7000406C00281DD101212948006840300172A3
:103D8000002C16D026480068001DFEF738FA601C8B
:103D9000002806D122480168091D2A48FEF708FAC2
:103DA00005E02048006807193846FFF73CFA00F0A4
:103DB000ECFD00F0FEFD00F0F1FD19480068456CD7
:103DC000002D0DD0002E04D000201549096848644C
:103DD00006E01349096808464430496C491E0160F1
:103DE00000210F4800684030017200F0E2FD2846D3
:103DF000F8BDFFB581B0074615461C4600F0CEFD64
:103E0000074800684030007A02283AD0044909681F
:103E100008464430496CB94301600121004813E071
:103E2000AC300020C4300020E4300020C830002036
:103E30008C3200207C330020D4300020D830002089
:103E4000CC300020A4330020006840300172002CE8
:103E500017D0AD480068001DFEF7D1F9601C00289E
:103E600006D1A9480168091DA848FEF7A1F906E096
:103E7000A7480068001900900098FFF7D4F900F0F7
:103E800084FD00F096FD00F089FD002D03D09E48D2
:103E90000068406C28609C4800684030007A012827
:103EA00001D1002608E098490968084644304A6C68
:103EB00002998A430260012600219348006840303D
:103EC000017200F076FD304605B0F0BDFFB583B05D
:103ED00007460D46164601200190002F02D172B60A
:103EE00000BFFEE73C4600F059FD0698002802D0CE
:103EF000616C069801604820005D02900221482014
:103F00000155330005F00BFD051604080C0E1700D3
:103F1000606C284360640EE0606C401C60640AE0E2
:103F2000656408E00298022801D0656401E0002081
:103F3000019000E000BF00BF0298012825D1201D9C
:103F4000FEF75DF97349E06A0968884202D9714950
:103F5000E06A08601422E16A51436F4A8818211D03
:103F6000FEF726F9A06A002801D1012000E0002018
:103F7000002802D172B600BFFEE76349E06A096813
:103F8000C96A884201D900F000FD00F012FD0198D5
:103F900007B0F0BDFFB583B005460E4617460120B9
:103FA0000190002D02D172B600BFFEE72C46FCF74F
:103FB000A1F800904820005D0290022148200155A0
:103FC0003B0005F0ACFC051604080C0E1700606CF5
:103FD000304360640EE0606C401C60640AE066641C
:103FE00008E00298022801D0666401E000200190F8
:103FF00000E000BF00BF0298012833D1A06A00286A
:1040000001D1012000E00020002802D172B600BFDB
:10401000FEE742480068002813D1201DFEF7EFF8A4
:104020003C49E06A0968884202D93A49E06A086076
:104030001422E16A5143384A8818211DFEF7B8F866
:1040400004E0214618313648FEF7B2F82E49E06AFE
:104050000968C96A884205D90698002802D001215A
:10406000069801600098FCF749F8019807B0F0BD88
:10407000F8B505460E46002D02D172B600BFFEE728
:104080002C46FCF737F800904820075D02210155C7
:10409000606C401C6064012F31D1A06A002801D1FE
:1040A000012000E00020002802D172B600BFFEE728
:1040B0001A480068002813D1201DFEF7A0F8154902
:1040C000E06A0968884202D91249E06A086014224D
:1040D000E16A5143104A8818211DFEF769F804E08F
:1040E000214618310E48FEF763F80749E06A09686F
:1040F000C96A884203D9002E01D00120306000989F
:10410000FBF7FCFFF8BD0000AC300020A43300201A
:10411000C4300020C83000208C320020E430002061
:104120007C330020F8B504460D4616461F46002095
:10413000009065602461B5420CD8F01BA1698842EB
:1041400002D30120009011E0211DF9480068FEF71C
:104150003BF80BE0BE4204D2BD4202D301200090E6
:1041600004E0211DF3480068FEF72EF80098F8BD22
:10417000F0B585B005460C4616461F460020049053
:10418000ED480068002822D0009401960295062C84
:1041900015DAFFF740FD022808D100236946E648FA
:1041A0000A9A0068FEF793F9049010E000231A467B
:1041B0006946E1480068FEF78AF9049007E00023A9
:1041C0003A466946DC480068FEF7A2FB0490049872
:1041D00005B0F0BDFEB52BE0D6480068C0680568A4
:1041E000D4480068C068C468201DFEF708F820465F
:1041F000616A8847E06901281AD1A0694619AE4270
:1042000007D966602461211DCA480068FDF7DCFFFC
:104210000EE0002003462A46014600902046FFF7A4
:10422000A7FF0746002F02D172B600BFFEE700BF0E
:10423000C04800680068002801D1012000E000208B
:104240000028C9D0BB4800680190B9480068B94946
:104250000860B74901980860FEBD70B50446FFF7D5
:1042600012FB0546B5480068854204D2FFF7B2FF4D
:104270000120206001E000202060B0480560284651
:1042800070BDF0B587B06EE0039800280ADA04AF7D
:10429000002F02D172B600BFFEE73A68B9687868AD
:1042A000904700BF039800285DDB059C60690028EB
:1042B00001D1012000E00020002802D1201DFDF7DF
:1042C0009EFF02A8FFF7C9FF05460398030005F00B
:1042D00026FB0A0A06082C2E4407092D2F4800BF8A
:1042E00000BF00BF00BF0498A269811803462A4698
:1042F0002046FFF717FF012816D12046616A88473C
:10430000E069012810D1002000900498A1694218AA
:10431000002319462046FFF72BFF0646002E02D148
:1043200072B600BFFEE700BF1CE000BF1AE000BF8E
:104330000498A061A069002801D0012000E00020BD
:10434000002802D172B600BFFEE7A06941192B46D2
:104350002A462046FFF7E6FE04E0204600F06AFA0F
:1043600000E000BF00BF00231A4603A9724800689E
:10437000FEF7CEF9002887D107B0F0BDF8B50546A5
:104380000F466C480068C068C468201DFDF737FF01
:10439000E069012817D1A06941192B463A46204609
:1043A000FFF7C0FE01280ED1002003462A46014631
:1043B00000902046FFF7DCFE0646002E02D172B6C2
:1043C00000BFFEE700BF2046616A8847F8BDF8B528
:1043D00004460E46FEF746FF6846FFF73EFF0546D9
:1043E0000098002816D1002E08D1AC4206D8FEF75E
:1043F0008CFE29462046FFF7C1FF0DE0611B4E48A9
:104400000068FEF73DFCFEF780FE002804D100F0B6
:10441000BCFA01E0FEF779FEF8BD0146454A126894
:104420001268002A01D1012200E000220A600A6815
:10443000002A04D13F4A1268D268106800E00020C8
:10444000704708B500BF6846FFF7E7FF04462046FF
:104450000099FFF7BCFFFFF714FFF4E710B500F079
:104460009DFA35480068002822D13548FDF790FEB6
:104470003448FDF78DFE32482E49086031482C49FA
:104480000860002210212020FDF70DFF2A49086056
:1044900008460068002802D172B600BFFEE7264831
:1044A0000068002804D028A123480068FEF7D4FB48
:1044B00000F07FFA10BD1FB50024FFF7CFFF1E48A4
:1044C000006800280DD00020214A052302900093A7
:1044D00001920390034650221EA12048FEF7B1FC32
:1044E0000446002C02D172B600BFFEE7204604B09D
:1044F00010BDFFB581B006460D461746002D01D10F
:10450000002411E0282000F011F90446002C0BD003
:10451000FFF7A4FF2660A561E761049820620A986E
:104520006062201DFDF741FE002D19D0012018E02A
:10453000EC300020E8300020F0300020F83000207F
:10454000B8330020CC330020546D725100000000BD
:10455000F4300020546D7220537663004344001001
:104560000020002802D172B600BFFEE7204605B049
:10457000F0BD3B480068002801D0012000E0002089
:10458000002802D172B600BFFEE7354800687047C8
:1045900001460A461068704770B50446264600F08A
:1045A000FDF97069002801D1012000E000200121FF
:1045B00005464D4000F0FDF9284670BD70B5044633
:1045C0002646002C02D172B600BFFEE700F0E6F9E5
:1045D000356A00F0EEF9284670BD70B504460D4608
:1045E0002646002C02D172B600BFFEE700F0D6F9D5
:1045F000356200F0DEF970BDF0B585B004460D46B9
:1046000016461F460120C04301900294039504966C
:1046100000233A4601A913480068FEF779F9009093
:10462000009805B0F0BDFFB585B004460D461646AE
:104630000C480068002802D172B600BFFEE70020D7
:10464000C0430190029403950496002301A90548F4
:10465000089A0068FDF73BFF0746384609B0F0BDF1
:10466000F4300020F030002010B50146934800E0FF
:10467000006803688B42FBD3024643689B188B4259
:1046800004D143684C681B19436001460A464B68D5
:104690009B180468A34211D1894C03682468A34283
:1046A00008D04B68046864681B194B6003681B687A
:1046B0000B6005E0824B1B680B6001E003680B6038
:1046C000884200D0016010BD30B501235B037D48F6
:1046D0008407A40F002C05D0C01C80088000794CF2
:1046E000041B1B1B0246754C22600024734D6C603A
:1046F000D018083880088000714C20600024704D6C
:104700002D686C606E4D2D682C601146441A4C600B
:104710006B4C24680C606C4D4C682C606B4D4C6885
:104720002C600124E4076A4D2C6030BDF8B50446C6
:1047300000200090FEF796FD61480068002801D136
:10474000FFF7C2FF624800682040002861D1002CBA
:1047500015D00834A007800F002810D0A007800FC4
:104760000421081A0419A007800F002801D1012094
:1047700000E00020002802D172B600BFFEE7002C46
:1047800047D052480068844243D84C4E30460568B2
:1047900001E02E462D686868A04202D228680028F1
:1047A000F7D147480068854233D030680830009020
:1047B000286830606868001B102813D92F19B807C3
:1047C000800F002801D1012000E00020002802D144
:1047D00072B600BFFEE76868001B78606C60384600
:1047E000FFF742FF394968680968081A37490860C5
:1047F0000846006834490968884203D23348006893
:1048000031490860324968680968084368600020D7
:104810002860FEF77AFC00988007800F002801D1FD
:10482000012000E00020002802D172B600BFFEE7A0
:104830000098F8BD70B506463546002E35D0083DC7
:104840002C462349606809680840002801D00120EF
:1048500000E00020002802D172B600BFFEE7206809
:10486000002801D1012000E00020002802D172B60A
:1048700000BFFEE71649606809680840002814D0A8
:104880002068002811D11249606809688843606077
:10489000FEF7E8FC0D496068096840180B4908609C
:1048A0002046FFF7E1FEFEF730FC70BD07480068C8
:1048B000704705480068704770470000FC300020D2
:1048C00004310020E03300200C31002008310020AA
:1048D0001031002040480068401C002801D1012010
:1048E00000E00020002802D172B600BFFEE772B6D9
:1048F00000BFFEE7001F01231B060360001F0160CD
:10490000001F364B03601438026020387047704730
:1049100010B5FBF7EFFB0446FEF77AFB002803D047
:10492000012000072E4948602046FBF7E7FB10BD39
:1049300010B52C49202003F0B7FF10BD10B5284852
:10494000006AFF2109040843254908620846006AF5
:10495000FF210906084322490862FFF7E9FF00200A
:104960001D490860FBF7B6FB002010BD1A4800681F
:104970007D21C900884201D1012000E000200028EB
:1049800002D172B600BFFEE770470120000714494C
:104990004860BFF34F8FBFF36F8F704772B60E48FA
:1049A0000068401C0C490860BFF34F8FBFF36F8F46
:1049B000704709480068002802D172B600BFFEE7C0
:1049C00005480068401E0449086008460068002841
:1049D00000D162B67047000014310020D5480010A5
:1049E00000ED00E01149001010B5F94C01202061E4
:1049F0006061F8A0A061FA49E161012189022162A8
:104A00000021A1626162E162F2A02063F549616365
:104A10001021A16300212164E1636164F2A1E01D22
:104A200004F078FBF1A1204604F074FB2020A07173
:104A300010BDF7B582B00446174600200190E56826
:104A400000BF206900900098A84203D90098401B3D
:104A5000461E04E0A1680098281A401C0E1AA0689F
:104A6000401BB04201D9304601E0A068401B064619
:104A7000BE4201D2304600E0384606466168481919
:104A80003246039904F00EFB0198801901900398B7
:104A900080190390BF1BAD19A068A84200D1002562
:104AA000E560002FCDD1019805B0F0BDF7B582B01B
:104AB00004461546E668A068871BAF4208D96168BE
:104AC00088192A46039904F0EDFA7019E06010E0A5
:104AD000019761688819019A039904F0E3FAE81BC9
:104AE0000190039AD1196068019A04F0DBFA0198E9
:104AF000E06005B0F0BD38B505460C46FF216846BC
:104B00000170BC48015D6846417002226946284632
:104B1000FFF78FFF38BD10B501460A69CB689A428E
:104B200004D88C68641EE41AA01801E0D41A601E30
:104B300010BDF7B584B0174600BFA548007800281F
:104B400001D1FFF751FF00BF182104984843A04945
:104B500030314618059801903569F06802900020C0
:104B600003900298854219D9B068441BBC4201D217
:104B7000204600E0384604467068411922460198F4
:104B800004F090FA0398001903900198001901901D
:104B90003F1B2D19B068A84200D100250298441B84
:104BA000BC4201D2204600E038460446002C0DD01D
:104BB000706841192246019804F074FA03980019AC
:104BC00003900198001901903F1B2D1903980028AC
:104BD00000D03561039807B0F0BDF8B504460D4626
:104BE0001646EFF310800746012080F3108800BFBF
:104BF00000BF324629462046FFF79BFF0090F8B2DF
:104C000080F3108800BF00BF0098F8BDF7B582B0F0
:104C10000746164603980190182078436C491831CE
:104C200044182169E068884202D1A068451E0EE060
:104C30002169E068884204D22069E168401A451E73
:104C400005E02069E168401A401EA1684518AE429F
:104C50000CD92069711B4018206103E02069A1680C
:104C6000401A20612069A1688842F7D2E168A068F3
:104C7000451A00BFB5420AD9E26861688818324611
:104C8000019904F00FFAE0688019E06010E0E26832
:104C9000616888182A46019904F004FA01984019BD
:104CA00001900020E060761BA068451E002EE1D137
:104CB00000BF05B0F0BDF7B584B016460598039067
:104CC0001821049848434249183144182069029039
:104CD000E5680298A84236D8A068401E471BB74234
:104CE0000AD3616848193246039904F0DBF9A81920
:104CF000E060012007B0F0BD02983F18B74231D301
:104D0000A068401B01900198B04208D96168481919
:104D10003246039904F0C6F9A819E06011E0616811
:104D20004819019A039904F0BDF90198321A019BC0
:104D30000398C1186068009004F0B4F90198301A23
:104D4000E0600120D6E70298401B471EB74209D316
:104D5000616848193246039904F0A4F9A819E06083
:104D60000120C7E70020C5E7F7B582B00746164621
:104D70000398019018207843154918314018009085
:104D800000984069002804D0012811D002283AD1A7
:104D900032E00098FFF7BFFE0546B54201D200247D
:104DA00005E03446324601990098FFF77FFE2CE07B
:104DB0000098FFF7B0FE0546B54201D2284600E054
:104DC00030460446224601990098FFF76FFE1CE02A
:104DD000E05300205465726D696E616C0000000044
:104DE0002854002028580020525454005345474767
:104DF0004552000018310020324601990098FFF713
:104E000018FE044601E0002400BF00BF204605B0A4
:104E1000F0BDF8B504460D46164600BFFE480078C2
:104E2000002801D1FFF7E0FD00BFEFF31080074637
:104E3000012080F3108800BF00BF3246294620467B
:104E4000FFF792FF0090F8B280F3108800BF00BF18
:104E50000098F8BD70B505460C46204604F046F9AA
:104E60000646324621462846FFF7D3FF70BD70B58F
:104E700003460C4618255D43E74E1836A919CD6840
:104E80006A1C8D68954200D100220D69954205D0BB
:104E9000CE684D68AC55CA60012000E0002070BDAE
:104EA000F3B581B0074600BFDB480078002801D188
:104EB000FFF79AFD00BFEFF31080012181F3108806
:104EC00000BF00BF18217943D34A18328C18E1681B
:104ED0004D1CA168A94200D100252169A94206D034
:104EE0000299E3686268D154E560012600E000267B
:104EF000C1B281F3108800BF00BF3046FEBDF3B5DC
:104F000081B0074600BFC4480078002801D1FFF7F0
:104F10006BFD00BFEFF31080012181F3108800BF0B
:104F200000BF18217943BC4A18328C18E1684D1C27
:104F3000A168A94200D100256169022903D100BFFF
:104F40002169A942FCD02169A94206D00299E368EF
:104F50006268D154E560012600E00026C1B281F309
:104F6000108800BF00BF3046FEBD38B5012269463B
:104F70000020FFF732FE0446012C02D16846047877
:104F800001E00024E443204638BD10B500BFFFF720
:104F9000ECFF0028FBDB10BD70B500BF9E48007819
:104FA000002801D1FFF720FD00BF9B48056CC06BB6
:104FB000A84201D0012400E00024204670BD10B5B5
:104FC000014618204843944C30340219D3681069C4
:104FD000181A10BDFFB581B005460E46174600BF32
:104FE0008D480078002801D1FFF7FEFC00BFEFF3E9
:104FF00010810846012181F3108800BF00BF002402
:1050000000BF18216143844A303289184968002959
:1050100000D104E0641C80494969A142F1DC00BF71
:105020007D494969A1421DDD182161437A4A303228
:1050300055501821614389184E6018216143891821
:105040008F60002218216143734B3033C9180A6105
:1050500018216143C918CA6018226243D218049902
:10506000516101E00024E443C1B281F3108800BF24
:1050700000BF204605B0F0BDFFB581B005460E4625
:10508000174600BF64480078002801D1FFF7ACFC48
:1050900000BFEFF310810846012181F3108800BFA3
:1050A00000BF002400BF182161435B4A18328918F1
:1050B0004968002900D104E0641C57490969A142EC
:1050C000F1DC00BF54490969A1421DDD182161438B
:1050D000514A183255501821614389184E601821E1
:1050E000614389188F600022182161434A4B1833AD
:1050F000C9180A6118216143C918CA60182262439D
:10510000D2180499516101E00024E443C1B281F353
:10511000108800BF00BF204605B0F0BDFFB581B0CC
:1051200004460E46174600BF3B480078002801D1D0
:10513000FFF75AFC00BF38480069A04230D9EFF3AE
:1051400010810846012181F3108800BF00BF002CA8
:1051500018D018216143304A183256501821614343
:1051600089184F60182262432B4B1833D2180499C8
:105170009160002218216143C9180A611821614316
:10518000C918CA6018226243234B1833D2180A99EF
:105190005161C1B281F3108800BF00BF002501E05A
:1051A0000025ED43284605B0F0BDFFB581B00446AB
:1051B0000E46174600BF18480078002801D1FFF7B7
:1051C00013FC00BF14484069A04232D9EFF31081AC
:1051D0000846012181F3108800BF00BF002C18D0C1
:1051E000182161430C4A3032565018216143891806
:1051F0004F6018226243084B3033D21804999160F3
:10520000002218216143C9180A6118216143C91895
:10521000CA601822624301E0E0530020BA4BD21862
:105220000A995161C1B281F3108800BF00BF002507
:1052300001E00025ED43284605B0F0BD70B50446F9
:105240000E4600BFB04830380078002801D1FFF783
:10525000CBFB00BFAC4830380069A04212D9EFF355
:105260001080012181F3108800BF00BF1821614325
:10527000A54A183A5650C1B281F3108800BF00BF4A
:10528000002501E00025ED43284670BD70B50446B9
:105290000E4600BF9C4830380078002801D1FFF747
:1052A000A3FB00BF984830384069A04211D9EFF302
:1052B0001080012181F3108800BF00BF18216143D5
:1052C000914A5650C1B281F3108800BF00BF00253B
:1052D00001E00025ED43284670BD70B504460E463A
:1052E00000BF894830380078002801D1FFF77CFBE7
:1052F00000BF854830380069A04213D9EFF3108011
:10530000012181F3108800BF00BF182161437E4A4C
:10531000183A89184E61C1B281F3108800BF00BFEE
:10532000002501E00025ED43284670BD70B5044618
:105330000E4600BF744830380078002801D1FFF7CE
:1053400053FB00BF704830384069A04212D9EFF3D8
:105350001080012181F3108800BF00BF1821614334
:10536000694A89184E61C1B281F3108800BF00BF3D
:10537000002501E00025ED43284670BD10B5FFF77C
:1053800033FB10BDFEB5044600BF5F4830380078DF
:10539000002801D1FFF728FB00BF0027FF20694646
:1053A0000871102C30DA5948005D4871564D183D8F
:1053B000EFF310800090012080F3108800BF00BF41
:1053C000287D8007800F022807D1514804700222EF
:1053D00001A92846FFF72DFB0FE02846FFF79BFBAE
:1053E0000646022E07D34A480470022201A9284625
:1053F000FFF75CFB01E00027FF430098C0B280F399
:10540000108800BF00BF01E00027FF433846FEBD03
:10541000F3B583B0074600BF3B483038007800281A
:1054200001D1FFF7E1FA00BF102F68DA36481838CB
:105430000290049803F05AFE0646EFF310800190A4
:10544000012080F3108800BF00BF0298FFF763FBC4
:1054500005460298007D8007800F002804D00128AF
:1054600017D0022840D12FE0301D854201D2002400
:105470000EE039460298FFF73EFB32460499029847
:10548000FFF7D7FA0446224801780298FFF733FB6A
:105490002DE0042D02D20024E44314E039460298A2
:1054A000FFF729FB281FB04201D9304600E0281F32
:1054B000024604990298FFF7BCFA044614480178A2
:1054C0000298FFF718FB12E039460298FFF713FB2A
:1054D000324604990298FFF7ACFA04460C4801786A
:1054E0000298FFF708FB02E00024E44300BF00BF7E
:1054F0000198C0B280F3108800BF00BF01E0002413
:10550000E443204605B0F0BD1054002018310020BF
:105510002831002070B504460E46A568681C6168F5
:10552000814206D320684655681CA060E068401C94
:10553000E0606168A06888420DD1A2682168206996
:10554000FFF767FCA168884203D00020C043E060F9
:1055500001E00020A06070BDFFB585B0064617468B
:105560001D460E9C0698029001200390019007E0D2
:105570003946029803F06CFD02900198401C01909E
:105580000298B842F4D20198854200D901950F984B
:10559000C007C00F00281DD1002C1BD002210F987E
:1055A0000840022804D1002D02D13020009001E0F3
:1055B0002020009008E0641E30460099FFF7AAFF03
:1055C000F068002800DA04E0002C02D00198A04224
:1055D000F1D300BFF068002848DB0FE0012D01D9AE
:1055E0006D1E08E00399069803F032FD04900498BC
:1055F000B84200D203E0039878430390EEE700BF7F
:1056000000BF0399069803F023FD049003990498C2
:1056100048430699081A0690F74A0498115C3046E8
:10562000FFF778FFF068002800DA07E039460398B2
:1056300003F00EFD039003980028E2D100BF0F98FD
:10564000C007C00F002811D0002C0FD008E0641E46
:1056500020213046FFF75EFFF068002800DA04E002
:10566000002C02D00198A042F1D300BF09B0F0BDD8
:10567000FFB585B006460F460F9D0E9C002F01DA40
:10568000784200E0384603900120049007E0079933
:10569000039803F0F3FC03900498401C04900799CE
:1056A00003988842F3DA04990898884201D9089847
:1056B0000490002C06D0002F03DB0420284004288F
:1056C00000D1641E02202840002802D0089800283B
:1056D00015D0E807C00F002811D1002C0FD008E02A
:1056E000641E20213046FFF715FFF068002800DA1D
:1056F00004E0002C02D00498A042F1D300BFF0686F
:1057000000283ADB002F05DA7F422D213046FFF7D3
:1057100001FF07E004202840042803D12B21304654
:10572000FFF7F8FEF068002827DB02202840022857
:1057300018D1E807C00F002814D10898002811D10B
:10574000002C0FD008E0641E30213046FFF7E2FE47
:10575000F068002800DA04E0002C02D00498A0428F
:10576000F1D300BFF068002807DB019500943946AB
:105770003046089B079AFFF7EFFE09B0F0BDF7B57A
:105780009EB00D46144606A8199040201A9000209D
:105790001B901E981D9000201C9000BF2E786D1C41
:1057A000002E00D115E1252E72D10027012018907E
:1057B00000BF2E78232E12D02B2E0CD02D2E02D0EF
:1057C000302E10D103E0012007436D1C0EE00220B3
:1057D00007436D1C0AE0042007436D1C06E0082007
:1057E00007436D1C02E00020189000BF00BF18980E
:1057F0000028DED1169000BF2E78302E01DB392E26
:1058000000DD08E06D1C0A21169848433146303906
:1058100040181690F0E700BF002017902E782E2E2B
:1058200011D16D1C00BF2E78302E01DB392E00DD2A
:1058300008E06D1C0A21179848433146303940185A
:105840001790F0E700BF2E7800BF6C2E01D0682EB5
:1058500002D16D1C2E7800E000E0F6E700BF662E56
:1058600052D00CDC582E40D004DC252E75D0462EAC
:1058700074D14AE0632E0CD0642EF9D116E0702E5C
:105880006DD0732E6DD0752E1FD0782EF0D12BE0F9
:1058900097E02168081D2060086818901898C0B229
:1058A000059019A80599FFF735FE87E02168081DC6
:1058B0002060086818901698019700900A2219A88D
:1058C000179B1899FFF7D4FE78E02168081D206027
:1058D000086818901698019700900A2219A8179B3B
:1058E0001899FFF739FE69E000BF2168081D2060A4
:1058F00008681890169801970090102219A8179B15
:105900001899FFF729FE59E000BF0020039004908A
:10591000059003A802902068C01DC008C000014681
:105920000830206003C90191009034A103A8019BB5
:10593000009A03F0C9FF00BF029806780298401C45
:105940000290002E00D106E0314619A8FFF7E2FDD3
:105950001C980028F0DA00BF30E029E02DE017E0C5
:10596000FFE72168081D20600868059000BF0598C2
:1059700006780598401C0590002E00D106E03146BF
:1059800019A8FFF7C7FD1C980028F0DA00BF15E042
:105990002168081D206008681890002008210B4627
:1059A00010220091019019A81899FFF7D5FD05E084
:1059B000252119A8FFF7AEFD00E000BF00BF6D1C58
:1059C00003E0314619A8FFF7A5FD1C98002800DB6D
:1059D000E4E600BF1C9800280BDD1B98002804D0CB
:1059E00006A91B9A1E98FFF714FA1B991C984018D9
:1059F0001C901C9821B0F0BD0EA2001025342E334F
:105A0000660000000FB438B5044606A800906A4648
:105A100020460599FFF7B3FE054600200090284672
:105A200038BC08BC04B01847FFB581B00D46164617
:105A30001F460024002D03D029460198FFF7E2FFFE
:105A400000241EE02046E117490F0918C910C900BB
:105A5000611A04D1A2B213A10198FFF7D3FF325DFE
:105A600012A10198FFF7CEFF601CC117490F09185A
:105A7000C910C900411A03D10EA10198FFF7C2FF56
:105A8000641CBC42DEDB2046E117490F0918C9102F
:105A9000C900611A03D007A10198FFF7B3FF05B051
:105AA000F0BD00005B253034785D20002530327871
:105AB000200000000D0A0000044880470448004709
:105AC000FEE7FEE7FEE7FEE7FEE7FEE7DD5A001031
:105AD000C1000010034804490860704701480249AA
:105AE000086070470090D0032C310020F1B5FE48CB
:105AF00080470746FD4880470646FB4C0120183C7E
:105B0000A047FA4D00200C35A847F949009888476E
:105B10003046A8473846A047F8BDF0B5F54DF648E1
:105B2000E96885B00818044603F0FDFA2146401CD8
:105B300003F003FB0024EF480125C668EE480C384B
:105B400031180391487C097C00020843A540284293
:105B500002903BD00B2060438119E7480091093047
:105B60000818019003F0DFFA0746E348301803F005
:105B7000DAFA87422AD10F21009889014018007D66
:105B800000280CD0DC4A00990D3A8A18517D127D0C
:105B9000090211437818019903F0CFFA05E0029841
:105BA0000399A8430874000A4874D34800990D303B
:105BB000081803F0B8FA002808D0022D19D0042DD7
:105BC00017D0082D15D0102D1AD08047641CE4B2D0
:105BD0000A2CB0D3C748C168C7480C380918487C9C
:105BE000097C00020843800501D1C448804705B004
:105BF000F0BDC349012088470028E7D0222005E0F6
:105C0000BF49012088470028E0D03B20FFF76EFF06
:105C1000DCE710B5B74912200969887072B6012116
:105C2000B64A0320B43A904762B610BD10B50C4690
:105C300001788CB00A07120F69460A700178CA0908
:105C400069464A70811C00A80622023003F02AFA35
:105C500008A90C72012129220905AA4C6B460020D3
:105C6000A0470CB010BDF0B585B0002069460871A2
:105C7000A24F0870A44E0872A44DB43F9D4CB0478B
:105C8000E07102AB6A4601A9606902F0E4FA0028FB
:105C9000ADD00820A847002803D00220A84700283C
:105CA00010D068460078012812D060690390E0683F
:105CB000407A01285AD00228E1D1954AE179039827
:105CC0009047DCE7012168460170007A00281CD06B
:105CD000606903902521E06849014118497B00294A
:105CE00008D08549D4314118487B097B000208431C
:105CF00088498847039802F0F3FA0028BFD0039838
:105D00000078C043800704D009E03D20FFF7EEFE95
:105D10006DE703988078122807D014280BD06846C6
:105D20007B4A017996326069CAE72169132088703D
:105D300072B6012116E02369152098701B20D870D7
:105D4000002018717D22D91C5201581C5A71130A67
:105D500043711B230B7100234B710272110A4172B4
:105D600072B609210320B84762B688E70398007825
:105D70000007000F052806D0032880D1E179039899
:105D8000FFF754FF7BE70398417E027E0802104331
:105D9000062806D30398417F027F080210430A2891
:105DA00003D253491220884769E757490398EE31D7
:105DB000801C88470398872200784006C10FE0685E
:105DC0001154039906228830891C03F06BF937219E
:105DD000206903F080F952E7F0B5494999B00420F1
:105DE000884700280ED0464904201A318847434985
:105DF0001F20AC318847484880471620FFF776FEC1
:105E000019B0F0BD45488047002810D0394DEC68E6
:105E1000A1790807F4D5E079C2071CD04049204693
:105E200098308847E868C179490849001FE03B4E2F
:105E3000394F394DB2361C376C46103507E068468D
:105E4000B0470128DCD168460178601CB847A847F4
:105E50000028F4D0D4E782070BD5314A20461C3203
:105E60008E30811C9047E868FD22C17923E0C17122
:105E7000C6E7420708D52A4920466031A83088473E
:105E8000E868FB22C17916E00207F726002A09DA42
:105E9000234A21464232A07A0B319047E868C17903
:105EA0003140E4E7C00608D51D4968467C31884783
:105EB000E868EF22C1791140D9E720463140FF3030
:105EC000A1712130017D0026002930D006752146C0
:105ED000072287310CA803F0E5F821462A228E31EB
:105EE0000DA803301EE00000BF650000776A0000C7
:105EF000CF16000030310020CE0300000112000058
:105F0000F50A0000A13E0000495700007919000081
:105F10008B1E00002B620000BD600000054E0000DB
:105F20002726000003F0BEF8F9490CA88847012095
:105F30006946087048708E70E96800A82A2203300C
:105F40008E3103F0AFF82D220821F24C6B46002071
:105F5000A04755E7F0490128896A0FD0022811D0DF
:105F6000042812D0082813D0102814D0202815D0C7
:105F7000402816D0802818D0012070478878C007A4
:105F8000C00F7047887880070DE0887840070AE0E6
:105F90008878000707E08878C00604E088788006E3
:105FA00001E088784006C00F70478878C0097047C4
:105FB00010B5017801291FD1401C03F0B4F8D64A6E
:105FC00010283AD00DDC012817D002281DD0042853
:105FD00023D0082810D1FFF7BDFF00280CD1CF48EF
:105FE00009E0202839D0402806D1FFF7B3FF002868
:105FF00002D1CA485430804710BD0120FFF7AAFFE4
:106000000028F9D1FFF7E8FE10BD0220FFF7A2FF3C
:106010000028F9D1FFF727FE10BD0420FFF79AFFF3
:106020000028F9D1D068407A012803D00228F3D1A2
:10603000BB48E0E7BA48AE38DDE71020FFF78AFF3B
:106040000028E9D1906A2030407D400701D53E20EC
:1060500000E00820FFF74AFD10BD2020FFF77AFF7F
:106060000028F9D1AD484830C5E770B5102508269D
:10607000A94C002821D0A06A817E31438176014657
:1060800060310A7E637852095201DB06DB0E1A4347
:106090000A762030427B067B1302E26833432332C8
:1060A000547C167C22023243934214D00273120AAB
:1060B0004273C87D2843C8750DE002F0B9F8A06AA4
:1060C0000022014620310A734A736030C17D2943A2
:1060D000C17594480677012070BD8F48C068233091
:1060E000417C027C080210430BD08F4948780A7823
:1060F00000021043032210430870000A4870012078
:10610000B3E7704730B4894CA44630BC6047F8B55B
:106110008548407A000663D57F48C66830462330FC
:10612000417C007C0F0280490743487809780402CB
:106130000C43002F01D1600752D57B4DA87B697BB2
:1061400000026D1C08434BD0002F49D06879297993
:10615000000208432ED12136707C317C00020843B6
:1061600003F0FCF90022724B03F0FCF803F004FA90
:1061700080B27843642102F081FF4004010C297150
:10618000080A68710A204143707D327D0002104385
:10619000814206D30A21401E02F070FF2871000AD6
:1061A0006871687929790002084303D101202871B8
:1061B000002068715C48A10709D502218C430121A8
:1061C0000C430470210A41700020FFF74EFF6879EC
:1061D0002A7901021143574B00224020FFF792FF1A
:1061E000F8BD1CB550494A7A002A40D04A780B784D
:1061F00012021A43D3063AD4437804781802204393
:10620000012834D1C878401E0006000EC8702FD077
:106210008B780846017BC47A0A022243017AC4794A
:1062200009022143C01C012B2AD0521A0272120A01
:1062300042721206037A120C1A43521A69460A80F5
:10624000427A017A120612140A4369464A80364994
:106250008A7B497B12020A4369468A80417B027B22
:10626000080210436946C8803349684688471CBD08
:10627000887AC870402002430A70100A48701CBD1A
:106280005218D3E72D4A10472C4A2032104738B510
:10629000002469460C7021467F20FFF7F5FF00219E
:1062A0003B20FFF7F1FF29213B20FFF7EDFF694677
:1062B0003B20FFF7E7FF68460078800701D5012003
:1062C00038BD641CA4B2FF2CF1D9002038BD1048A1
:1062D00010B5D8388047012010BD10B50E49184AB6
:1062E0008870002807D1C8688078022803D0002071
:1062F0009047012010BD0120FAE710B5064C012897
:10630000E16888701ED000284ED0022863D076E065
:10631000DF470000A13E0000303100207916000068
:1063200027150000200002408F580020AB440000D9
:106330000000F43FDB60001033420000C561000044
:10634000A7650000206B014620310A7852085200F0
:106350000A700A78FD231A400A70017889098901B8
:106360001C3101704178890989011C31417000217B
:106370007F20FFF789FF03212120FFF785FF1F21E1
:106380000320FFF781FFFD493220884702217F204B
:10639000FFF77AFF01210020FFF776FF00217F2021
:1063A000FFF772FF0F2127E000217F20FFF76CFF2E
:1063B00000210420FFF768FF02217F20FFF764FF20
:1063C00000210846FFF760FF00217F20FFF75CFFF8
:1063D0000021032011E002217F20FFF755FF032158
:1063E0000020FFF751FF00217F20FFF74DFF002124
:1063F0000320FFF749FF00210420FFF745FFA078A5
:10640000FFF76BFF012010BD10B5FFF776FF0120ED
:1064100010BD10B5DA488047DA48C06A017ADF2239
:1064200011400172012010BDFEB5D64C0120207133
:10643000D54880470190E06A817A007ACF07FF0F44
:106440000026C506D149ED0E4878097800020843B8
:10645000800608D5A06A2030417B027B08021043E9
:1064600001D0FFF754FEA80702D00126FFF7D1FFA5
:10647000C448C06A817A490849008172C249012032
:10648000183988470220FFF738FFBC4964201A39C1
:106490008847002469460C70254601217F20FFF7BC
:1064A000F3FE00210A20FFF7EFFE22210A20FFF76A
:1064B000EBFE69460A20FFF7E5FE684600784007D4
:1064C000EFD469460A20FFF7DDFE684600784007F2
:1064D00005D568460078000706D4012504E0641C51
:1064E000AB48A4B28442ECD3A44964201A3988474B
:1064F0000020FFF702FFA449019818398847A14CF2
:10650000E06A817A4908490039438172002E02D03D
:106510009B480C38804700202071002D01D00120BD
:10652000FEBD0020FEBD10B51121984802F0D3FD3C
:1065300010BD70B50446401C02F0F5FD022818D0CD
:10654000042819D00121490488424AD12546203522
:10655000687B092301070209090F0020072A1FD0C1
:10656000032A23D0022A28D0012A2CD0002A30D096
:1065700035E0FFF7D8FF3DE0824D0121E868FF30AC
:106580002130017501F0F7FEE8688078002804D119
:106590002879002801D1FFF747FFFFF778FE29E0AF
:1065A000581A062148434121C94304E0581A0621DC
:1065B00048433521C943081A10E0581A06214843B8
:1065C0002321C943F7E7581A062148431721C94335
:1065D000F1E7581A06214843801D404240B26873D3
:1065E00008E040281DD00121C903884202D1601D66
:1065F000FFF7F7FD654948780978000208438006EF
:1066000007D5601C02F08FFD0005000F01D0FFF7D9
:106610007EFD5C483C3002F086FD014620468847FE
:1066200070BD5848383002F07EFD4006E2D570BD9E
:10663000F0B5544C0646E0688DB0FF302130407C08
:106640000D46002829D0002D26D072B6A06818303B
:1066500002F069FDE1683222FF312131897C4D4B26
:10666000514340186A463221984762B6002E04D042
:10667000E068FF302130807C3070E7680A21FF3706
:106680002137B87C401C02F0E3FCB974E078401C70
:10669000C0B2E0700A2802D900200DB0F0BD6846F3
:1066A00000780128D1D100A907222846013102F043
:1066B000F9FC2A22E81D02A902F0F4FC0120ECE713
:1066C000F0B5054634498DB0202088472D4C04266E
:1066D000E16820690F4686700822C01CC931BD37A9
:1066E00002F0E0FC2069042239460B3002F0DAFCAB
:1066F0000D212A4A03209047E068294608220A31E2
:10670000C13002F0CFFCE068294604221231B930D2
:1067100002F0C8FC287A224F002802D1687A0028AB
:106720001FD00020E070E0682A7A01468030837B29
:106730009A420AD16A7AC07B824206D10822284650
:10674000903102F0DAFC00282ED069460020FFF7D5
:106750006FFF01283CD006220021124B01209847F0
:106760009BE7E06802228179114302468171C132C0
:10677000FF3011461030B84727E0000045620000A6
:106780001347000030310020BF6500008F58002003
:10679000FFFF000059530000050B00004D110000E1
:1067A00019220000D9190000E068817902463143BE
:1067B0008171C13211469830B847E06880308079E5
:1067C000012802D1FE4902208847FE48804764E73D
:1067D000E06801A92A228E30033102F063FCA2E7AF
:1067E0007CB5451C8078297800020843F64C0228C5
:1067F00010D00F2810D001211D2810D0FF381028EC
:106800000DD0F24A69460120904768782978000245
:10681000084302E0032000E00220A0717CBDA171CA
:106820007CBDE94880797047E94908471CB5E948CB
:106830000821017000214170017BC27A0902C01C4D
:10684000114341D04279037912021A43891A0BB2DB
:106850006A461380417A027A0906091411436A468E
:10686000518019220624D201062B02DA6B461C80C5
:1068700003E0934201DD6B461A80062902DA69467D
:106880004C8003E0914201DD69464A80417B027BF6
:10689000080210436946C880CE48817B427B0802CB
:1068A000104369468880C848C0682330417C027C18
:1068B0000802104302D00020FFF7D7FBC649684604
:1068C0008847C349402088471CBDC24948780A7898
:1068D00000021043C2050CD5FF220132904308701C
:1068E000000A48700879401E0006000E087109D0A1
:1068F0009CE720221043102290430422104308708A
:10690000000A48707047FEB5B24D04466878297891
:106910000002084300077DD5B048804769782A788F
:10692000090211430822914329700A0A6A706B7A9E
:10693000064628461A066ED5A27967791202651CAA
:106940003A43A14FE41C002A77D010221143017072
:106950000A0A427088065ED46879297900020843E1
:1069600032D002F0FBFD01910090607821780002A6
:10697000084302F0F3FD9A4C0022234602F0F2FC99
:10698000019B009A02F0EEFC01910090F868213022
:10699000417C027C0802104302F0E0FD0022234605
:1069A00002F0E0FC07460C46687A297A00020843A8
:1069B000801B02F0BFFD3A46234602F0D3FC019B48
:1069C000009A02F01DFC24E0607821780002084360
:1069D00002F0A8FD0446F8682130417C027C0802E0
:1069E000104302F09FFD214602F0B0FB02F0E2FDF1
:1069F00000227B4B02F0B6FC07460C46687A297AE7
:106A000000020843801B02F095FD3A46234602F03F
:106A1000A9FC02E06EE064E00FE00022714B02F09E
:106A200009FD02F0A9FD0104090C00D101216E4B02
:106A300000228020FFF766FB53E09A0651D582784A
:106A4000012A4ED18A064CD4FF22624801321143FA
:106A50000170090A417060782178000208435D499D
:106A60000A7BCB7A1102194388423AD902F05AFDC7
:106A70000446F8682130417C027C0802104302F091
:106A800051FD214602F062FB02F094FD0022544BBE
:106A900002F068FC07460C46687A297A000208432F
:106AA000801B02F047FD3A46234602F05BFC0022C1
:106AB0004C4B02F0BFFC02F05FFD0104090C00D159
:106AC0000121494B00228020FFF71CFB41484178FF
:106AD000027809021143FF22013211430170090AB1
:106AE0004170032069460881022291033F4C02ABAA
:106AF0000020A047FEBD10B50446007800280DD147
:106B0000A17862780802104309D001281ED003281A
:106B100027D00C2802D1201DFFF762FE10BD01F026
:106B200087FB3349201D8847002802D12820FEF723
:106B3000DDFF201DFFF7E7FE23480121C368062281
:106B400009040020294C3133A04710BD01F070FB2F
:106B50002849201D88470028F7D12820FEF7C6FFC6
:106B600010BD201DFFF7ACFD10BD10B50078012849
:106B700001D1FEF7D2FF10BDF0B51F4885B08047A8
:106B800001217F20FFF780FB69465020FFF77AFB49
:106B900068460078042801D018488047FFF777FB43
:106BA000094CE0688078012866D002287ED0FFF783
:106BB0003BFC01256846458005801148019021E095
:106BC000050B0000791A0000303100201F1D000065
:106BD000B34400008F58002033420000BF5500002E
:106BE0000000F43F00005940CB680010A13E0000B7
:106BF0005D5B0000475F0000793D0000F746000044
:106C00006B6B0010FE496846884768460570457002
:106C100000254580FB480190FB4BE068082269464F
:106C2000C01802F03FFA0121F84E4020B047012180
:106C30008020B04701212020B047FF210C31684659
:106C400001800B2141808580C5800581458185813A
:106C5000C581EF48EA4904906846A2398847A06890
:106C60000A3002F060FAEC4BEA4A5721984701F0EB
:106C700082FB012005B0F0BDE84880470090E06A43
:106C8000067A817ACD07817AED0F49084900817231
:106C9000E24F0120183FB847B00701D0FFF7B9FB1A
:106CA0000220FFF72AFB6420DD4900E00CE0884762
:106CB0000120FFF722FB0098B847E06A817A490873
:106CC00049002943817274E70220FFF716FB70E741
:106CD00010B5D4488047012010BDD24910B51E31EF
:106CE0008847012010BDCF4910B554318847012095
:106CF00010BDCC4910B560318847012010BDC9498D
:106D000010B56E318847012010BDC64910B57E31DF
:106D10008847012010BD10B5C24CE634A0470120C1
:106D200010BDF8B5C04CC149E068373088472069CC
:106D30003B230178BF250A09E16812015B5C1B0750
:106D40001B0F1A4302701207120F012A79D00B464B
:106D500040335A781B7812021A430B4642331A709A
:106D6000120A5A7002788B7A2A409B011A43520603
:106D7000520E027066235B5C42789B1D92099B0653
:106D800092019B0E1A4342700622801C0B3102F0C6
:106D900089F9E1686620425C002A04D020696731E5
:106DA000083002F07FF9E068002120304177206947
:106DB0009F4A41788906890E891C9047206901788D
:106DC0000A091201121D0270E1682A408B7ADB0762
:106DD0005B0E1A43027046235B5C42789B1D92094E
:106DE0009B0692019B0E1A4342700622801C0B31B7
:106DF00002F058F9E1684620425C002A04D020697C
:106E00004731083002F04EF92069894A41782C3226
:106E10008906890E891C9047E068012705462035C0
:106E2000E97E01293BD000294CD002294AD006290D
:106E300048D000237F4C1A4601211846A047F8BDD0
:106E4000FFE70A464032137953718B7A0278DB07E9
:106E50002A405B0E1A43027087235B5C5206520E77
:106E6000DB011A43027042780B31920992010C3215
:106E700042700622801C02F015F92069E1680622A2
:106E80000830883102F00EF9E16803223D204254B7
:106E9000664A8720405C323A8831904787E7403025
:106EA000417900290AD028200621A26A937EFD2478
:106EB0002340937617756B7F2A7F43E0477101204B
:106EC0000146F2E706464236717832780B021343E8
:106ED00017D0192189014B432230417F047F0802DA
:106EE000204301228004800C009006D00146184601
:106EF00002F0AEF8421C7F2A10D8D4B23770380A9C
:106F000014E03770390A71702230417F027F080225
:106F1000104301248004800C009008E07F24104678
:106F200021467E3002F094F83070000A70703E48BE
:106F3000806A817E02221143817607756B7F2A7FEA
:106F400000992046314CFE34A0473B48804776E705
:106F500010B5FFF7E6FE012010BD10B5374903203C
:106F600008702F4964201A3188473548804701202E
:106F700010BD72B600212C4A906A4175037C012134
:106F80000B430374D0684522115442300170002134
:106F9000417062B60120704710B52A498847012028
:106FA00010BDF0B5204CA56A2C4660342678FD272C
:106FB000C0073E40800F06432670A17062706235A4
:106FC0002B71180A687105982071000A6071F0BD74
:106FD000F8B5154D1549E868373088471120EF6836
:106FE000002480013D186E79A8790321401C02F02D
:106FF0002FF801208840A971064228D1641C23E0A3
:107000002F440000B15F0010CE0200006155000067
:10701000F76A00103858002059530000BF6500007F
:107020002B620000833D000030310020B15700008A
:10703000D9600000A13E00009D5600000000024003
:107040000747000001410000E4B2032CCCD3112516
:10705000AD017C19607B217B00020843A91C7F18CD
:10706000010AF24E3873797300280BD0607A227AC5
:10707000010219201143800101F0EAFF0206120EFD
:1070800004D004E001203873002078730122787A5C
:10709000397A000208430090607A217A03020B4398
:1070A000A079E349095CE079FFF77BFFF0680021F4
:1070B00040190171C170017441748178002901D0B7
:1070C000082901D908218170DA488047B7E610B550
:1070D000FFF77EFF012010BD10B5D7488047012083
:1070E00010BDD54910B508318847012010BDD249DF
:1070F00010B516318847012010BDCF4910B5783141
:107100008847012010BDC949487001207047CA490D
:1071100010B586318847012010BDC74A10B58E32A0
:107120009047012010BD7CB5054601F0FCFFBF492A
:107130000446383102F001F8281D01F0F4FFBB4984
:107140003C3101F0FAFF40208443BC48BA49019029
:10715000009468469631884701207CBD10B5B84937
:107160008847012010BDB64A10B50832904701206B
:1071700010BD10B5B3488047022801D9002010BDCA
:10718000012010BDF8B50E46AF490746487809788A
:10719000000208431C461546800609D5A348806AAC
:1071A0002030417B027B0802104301D0FEF7AFFF85
:1071B000A6490120884700280CD0A2488047022811
:1071C00009D972B623469E4C2A46314638461834B1
:1071D000A04762B633E6002031E69D49084710B566
:1071E00004469A4901208847002803D09849204640
:1071F0000831884710BD70B50546944A0C460120F9
:107200009047002804D0924A2146284622329047CF
:1072100070BDFFB50F4681B08C491D461646012052
:107220000A9C8847002807D00094894C2B46324698
:10723000394644340198A0471CE5F8B50E46074688
:1072400082491C46154601208847002806D023465F
:107250007F4C2A46314638467C34A047EFE510B5CE
:1072600004467A4901208847002803D078492046FF
:10727000AC31884710BD70B50546744A0C460120F4
:107280009047002804D0724A21462846C6329047CB
:1072900070BD70B505466D4A0C4601209047002828
:1072A00004D06B4A21462846E832904770BDF8B5B5
:1072B0000E46074665491C461546012088470028AA
:1072C00005D02346634C2A4631463846A047B6E5EA
:1072D00070B50D4606465D491446012088470028D2
:1072E00005D05C4B2246294630463033984770BD66
:1072F00070B50D46064655491446012088470028BA
:1073000005D0544B2246294630465C33984770BD21
:10731000F8B50E4607464D491C46154601208847DC
:10732000002806D023464B4C2A463146384688343E
:10733000A04784E510B50446444901208847002849
:1073400003D044492046B831884710BD10B53F49A5
:1073500001208847002802D03E48CC30804710BD2D
:1073600070B5324D0446082804D0E86840780828F3
:107370000DD014E000217F20FEF786FF0121402080
:10738000FEF782FFE86A0178C908C9000EE0002113
:107390007F20FEF779FF00214020FEF775FFE86AA5
:1073A00001786207C908C900520F11430170E868EB
:1073B0004470012070BDD3E710B5044626488047CD
:1073C0002070012010BD10B504462348801D804761
:1073D0002070012010BD204910B51C3188470120C4
:1073E00010BD1D4810B572308047012010BD1B48EC
:1073F00000471B4908471A491A31084708B5194977
:10740000684688476846C0788007C00F08BD08B541
:107410001449684688476846C078C00900D00120F2
:1074200008BD10B5FEF72EFF10BD00003031002062
:1074300020A20010255700001D42000033650010F7
:107440002D4300002B4E00008F580020F50A00004D
:10745000B73A0000BB3B00009F440000FB5F000008
:107460002B6200004D65000010B5FEF70DFFDBE755
:10747000FE48806AC07B052805D0062803D00F2867
:1074800001D0002070470120704710B5FFF7F0FFD2
:10749000002801D1F64880470120C5E710B5F3491F
:1074A0000122886A4275437CDB09DB019B1C437423
:1074B000931E83741B0AC374C96ACB7AEF242340DA
:1074C000CB724B7B93434B738B7A13438B72817ECE
:1074D000022319438176017C11430174E54905209B
:1074E0008847E548804701209EE7E34810B5123001
:1074F0008047012098E710B5E0498847012093E7CD
:10750000DE4910B51831884701208DE7DA4910B5FA
:1075100058318847012087E7D749AC310847D64919
:1075200010B5FA31884701207EE710B5D44880476E
:10753000012079E7D24810B518308047012073E761
:10754000CF4BA2331847CE4BD8331847F8B5074670
:10755000C648002680680D463446283001F0E3FD19
:107560002903C9194118C148406B814211D9002033
:1075700065E472B6BD488068283001F0D4FD21036F
:10758000C9194018BF4A01219047064662B6641CDB
:10759000E4B2AC42EDD3304651E4F8B5B34D044605
:1075A000A86817460E46283001F0BDFD0146A21915
:1075B00080186A6B90420AD8002908D072B6081960
:1075C000B04B3A463146EA3B984762B637E4002072
:1075D00035E4F8B5A54D0446A86817460E46283090
:1075E00001F0A1FD0146A21980186A6B90420AD8E9
:1075F000002908D072B60819A24B3A463146823BA0
:10760000984762B61BE4002019E470B59E48002438
:1076100000789C4E954D00280DD001281ED024E006
:1076200072B6143001F07FFD210340180121B047EC
:1076300062B6641CE4B2A868C17B827B0902114374
:10764000A142EDD811E072B6103001F06CFD2103BB
:1076500040180121B04762B6641CE4B2A868C17B3F
:10766000827B09021143A142EDD8012070BD70B5A3
:1076700004460D46000B42197C488068C17B837B21
:10768000090219438A4201D9002070BD7E497D4E0E
:107690000978002902D0012903D00AE072B614301B
:1076A00001E072B6103001F03EFD00192946B047E6
:1076B00062B6012070BDF8B5044673480F460178E4
:1076C0006A48704D8068823D1646002902D0012923
:1076D00003D00BE072B6143001E072B6103001F046
:1076E00022FD001932463946A84762B601202EE431
:1076F00030B45E4B9C68E37BA47B1B0223431B03DB
:10770000834202D230BC0020704730BCD3E730B493
:107710005E4CA44630BC6047F3B5544889B08068DD
:107720000024283001F0FFFC07460998460900258F
:1077300011E072B66801534BC01920216A46EA3B3A
:10774000984762B6002069460A5C401C121994B240
:107750002028F9D36D1CB542EBD30998C606F60E66
:1077600072B631466801474BC0196A46EA3B9847F2
:1077700062B60020694603E00A5C121994B2401C0C
:10778000B042F9D30A98844202D101200BB0F0BD77
:107790000020FBE7F8B538488A3880473A4C573420
:1077A000607A002840D00006042500280FDA6078AF
:1077B000217800020843400709D5FEF7A8FC60784D
:1077C000217800020843A8432070000A60706078A6
:1077D0002178000208432E4F2E4E41060CD5402141
:1077E00088432070000A60700220694608800246C3
:1077F0006B4639460020B047607821780002084384
:10780000C10711D0400840002070010A6170800754
:1078100002D56846058002E00520694608800222FC
:107820006B4639460020B04750E41B48004738B546
:107830000E4C2078002805D1104968467E398847CB
:1078400001202070012038BDF8B50278002A74D0DC
:107850000D4957314A7242788A72002A01D0042AAF
:1078600001D904228A72C278847817E0303100206E
:10787000F144000045620000E5460000CB650000D1
:107880000348000043540000385800207B4A0000A1
:1078900000800000A13E0000F94B000013022343CA
:1078A000FB4A1C0AD37214734479057924022C43D1
:1078B00015466C73240AAC73C47985792002284379
:1078C000D073000A1074F3480827C068D21C213016
:1078D000447C007C240204430120A34214D90025E7
:1078E0008D701B1B8C7AA34204DA1071000A507150
:1078F0008B7216E0E400A34202DA1071000A01E084
:107900001771380A50710CE088708E7AE51AB5420A
:107910000FDA060A107156719C4201D1887200E09C
:107920008D72887AC8700871FEF780FF012051E4DB
:1079300003E0F3009D42E3DADFE700204AE4D549A3
:10794000496A0870020A4A70020C8A70000EC870F8
:10795000487A022210434872704738B50446002026
:107960000090CD49684688470099F8208143E00699
:10797000000E08430090FFF7E2FF38BD08B5002075
:107980000090C5496846884700980006C00E0090E0
:1079900008BDC14872300047BF495A310847BF4946
:1079A0000847BE491A310847BD480047BC490C3159
:1079B0000847F8B500260B460446012530463146F7
:1079C0002D03675C491CBE19A942FAD30021675CEC
:1079D000491C7840A942FAD39E4222D1904220D13C
:1079E000AC4EB0680A3001F09EFBA949001957223D
:1079F000573901F057FBB0681C3001F094FBF16877
:107A0000001907220A3101F04DFB0121A54A00208F
:107A10009047A44B002022462946823B98470120EC
:107A20001CE400201AE470B501260546994C360383
:107A30009C4B00203146EA3BA26998479A49284668
:107A40008847A0681C3001F06EFBA169072240182E
:107A5000E1680A3101F026FB0121924A002090479B
:107A6000904B00203146823BA269984770BD10B50B
:107A70000446884880680A3001F055FB894B102184
:107A8000EA3B224657309847CEE470B501260546BA
:107A9000804C3603834B00203146EA3BA26998476D
:107AA0000121804A00209047A0680A3001F03BFB8A
:107AB000A169102257314018294601F0F3FA794B99
:107AC00000203146823BA269984770BD71484069E9
:107AD0000178C943890702D18078062801D00020A7
:107AE000704701207047714A1047F3B581B0060016
:107AF00025D0684F386A0446C17980790D02054364
:107B0000E01C01F010FB0102A07801430C46002D9F
:107B100017D0002C15D00121624B09030020EA3B4D
:107B2000BA699847B8680A3001F0FDFAB969673157
:107B3000405C401CC7B2032F05D90220FEBD0120C6
:107B4000FEBD0420FEBDB54204D10298844201D19D
:107B50000020FEBD0121534A002090474D4CA068F3
:107B60000A3001F0E0FAA2694E4B114667314754E2
:107B7000012109030020823B98470320FEBD08B580
:107B800045496846884700984108C90701D0002048
:107B900008BD022108434049009028318847012050
:107BA00008BD3B480121573802783A4809078068E8
:107BB000002A03D0012A07D000207047C27B837BB4
:107BC00010021843400304E0C27B837B1002184379
:107BD00000034018704770B504462D480D465738CD
:107BE00001782C480126B6038068002903D00129BA
:107BF00003D0002070BD143000E0103001F093FA83
:107C0000801972B60019274A2946904762B670BD9E
:107C1000F8B505461E480F46573801781D4801241F
:107C2000A40380681646002903D0012903D0002050
:107C30009EE4143000E0103001F075FA001972B6BD
:107C40004019184B32463946EA3B984762B68FE4F2
:107C5000F8B505460E480F46573801780D480124FF
:107C6000A40380681646002903D0012903D0002010
:107C70007EE4143000E0103001F055FA001972B6BD
:107C80004019084B32463946823B984762B66FE44A
:107C90008F580020303100204D6500002B6200001D
:107CA000776A000043540000A13D0000D960000045
:107CB00010B5030001F033FE0906101016202A3417
:107CC0003E58740001217F20FEF7DEFA88216120F2
:107CD000FEF7DAFA812160E001217F20FEF7D4FA75
:107CE0008A21F4E701217F20FEF7CEFA8A21612064
:107CF000FEF7CAFA832150E001217F20FEF7C4FA83
:107D00008A216120FEF7C0FA872146E001217F2009
:107D1000FEF7BAFA8A216120FEF7B6FA8F213CE01D
:107D200001217F20FEF7B0FA8A216120FEF7ACFA2C
:107D30009F2132E000217F20FEF7A6FA02213020A9
:107D4000FEF7A2FA01217F20FEF79EFA1F21632091
:107D5000FEF79AFA03216D20FEF796FA8A21612038
:107D6000FEF792FAB02118E000217F20FEF78CFA8E
:107D700002213020FEF788FA01217F20FEF784FAE5
:107D80001F216320FEF780FA07216D20FEF77CFAA1
:107D90008A216120FEF778FABF216520FEF774FA88
:107DA00072E610B5FE4CA068283001F0BCF9616B9A
:107DB000081A69E6FB4800787047F8B50546F84EA2
:107DC000F848B26900781446002801D0002019E470
:107DD000280502D02805000D2D1A72B601210903CD
:107DE000F14F0020B84762B6706B2146401B283126
:107DF00001F0A3F905462046103001F094F90090F7
:107E0000281A4108009808182146143101F095F904
:107E100001460098081A0001000CA073000AE073E4
:107E200072B60121E04A0020EA32904762B672B68B
:107E30000121DD4B090300206833B26998473121E5
:107E40000020B268B84762B6012050E4D448D44B51
:107E5000C079DB7902091B0709201B0FC01A062312
:107E600000215843072A08D0032A09D0022A0BD040
:107E7000012A0CD0002A0DD00FE04121C94301E0B6
:107E80003521C943081A07E02321C943FAE717211E
:107E9000C943F7E7801D404241B2C8B27047F3B50D
:107EA000C24EC34F8DB00546002432226B46214698
:107EB0000320B04768464088A84206D16846017949
:107EC0000E98017001200FB0F0BDB84204D0684692
:107ED0000088001984B2E8E70020F4E7F3B5B34E58
:107EE000B34F8DB00546002432226B462146032055
:107EF000B04768464088A84208D1241DA1B201229B
:107F000003200E9B00F046FA0120DCE7B84204D0C3
:107F100068460088001984B2E6E70020D3E7F3B58D
:107F2000A24EA34F8DB00546002432226B46214657
:107F30000220B04768468178427808021043A84280
:107F400005D1684641790E9801700120BBE7B8421F
:107F500004D068460078001984B2E6E70020B2E752
:107F6000904910B5573148780978000208438006D7
:107F700003D5FEF7CCF8012086E5002084E58D4B83
:107F8000184710B50446864880680A3001F0CBF8DF
:107F90000821854B22466730984775E570B5054640
:107FA00072B67F4C012636037F4B31460020A26912
:107FB00098477D4A01210020EA329047A0680A30A4
:107FC00001F0B1F8A169082267314018294601F093
:107FD00069F8754B002031466833A269984762B64C
:107FE00070BD7549082008476D4948637047FEB564
:107FF0006B4D0027A868801D01F095F86A4E01AA14
:108000000621B047002823D000241CE0A868801D6A
:1080100001F089F861006118891D40186A46032142
:10802000B047002814D068460078032809D1684674
:1080300040787F2801D169468F78012F01D15728D8
:1080400007D0641CA4B268460089A042DED8002094
:10805000FEBD68468078FEBDF1B5514E84B0B06873
:108060000027801D01F05FF84F4D01AA0621A847A7
:10807000002823D000241CE0B068801D01F053F8D4
:1080800061006118891D40186A460321A84700282D
:1080900014D068460078032809D1684640787F28C4
:1080A00001D169468F78012F01D1572808D0641C6F
:1080B000A4B268460089A042DED8002005B0F0BD19
:1080C00072B601273F0339460020B269A847364AF5
:1080D00001210020EA329047B068801D01F023F8AA
:1080E000B2690499831860002018083019542E4B87
:1080F000002039466833984762B6DFE77FB50D4602
:108100004B2109060843029000242C480394804721
:1081100000940194294C012105202B4602AAA83C79
:10812000A04726481C3080477FBD7FB50646002407
:108130006D4629192046FFF7E1FF285D3055641C84
:10814000E4B20F2CF5D37FBDF3B501010F0C154937
:1081500000240A780605651E360D81B0002A17D066
:108160004BE00F488068143000F0DDFF2103401819
:108170000B490D4B8A6901210903984708480121E1
:108180002A460903806900F03CF9641C0546A4B244
:10819000BC42E6D3002E13D0014FB868143033E050
:1081A000303100203858002059530000C928000001
:1081B000FFFF000019220000791900001D50000087
:1081C0000299E84381422ED10120FEBD9C4880687F
:1081D000103000F0A8FF210340189949994B8A6993
:1081E000012109039847964801212A46090380691D
:1081F00000F007F9641C0546A4B2BC42E6D3002E89
:10820000DED08F4FB868103000F08DFF210340188A
:108210008C4B3146BA6998472A463146B86900F016
:10822000F0F80546CCE70020FEBD8749032008474B
:1082300010B500F0F8F8002804D000F0F4F8012898
:10824000FBD021E400F0EFF80028FBD000F0EBF8C1
:108250000128FBD018E4F0B5794C0025A46AE67833
:10826000360701D50020F0BD00BF6D1CEDB2642DB6
:10827000FAD3254640356E7CB607FCD40025264649
:10828000C036377947556D1CEDB2022DF9D34678CB
:108290000125F709002F08D0F606F60E0E701570AE
:1082A00042785206D20F1A7004E0B3069B0E0B7090
:1082B00000231370624B0A789B6A801CC033272A04
:1082C0000CD20022C03403E026798654521CD2B26C
:1082D0000E789642F8D85D720120F0BD5D72C1E75C
:1082E00010B5027800219207920F554B012A39D020
:1082F000022A0CD0032A33D182780E2A2FD8407854
:10830000524BC0069A5CC00E904228D028E04278BA
:10831000D206D20E042A07D9C278847812022243E8
:10832000172A01D8012200E000225A71002A17D032
:108330004179027909021143052910D006290ED18D
:10834000C1788278090211438079404A40000F3297
:1083500080184038C08F814201D0002100E0012107
:1083600008461DE559790029F7D04078C006C00EAF
:108370001728F4D9F1E770B5354D0024304EA847E1
:10838000F1680919FF310131641CE4B2C873102C83
:10839000F5D370BDFFB52A4C0200E06981B01E46DE
:1083A0000D4606D0012A06D0022A06D0032A06D09E
:1083B00009E0001D04E0083002E00C3000E010305D
:1083C00000F0B1FE01464D1972B601273F031D4B67
:1083D00039460020A269984762B6A0693146401923
:1083E000039A00F05FFE72B60121164A0020EA32BD
:1083F0009047144B002039466833A269984762B60B
:108400005CE630B50346114C0020253407E01D5CC6
:1084100055402D06AD0D6559120A6A40401C884230
:10842000F5D3104630BD0648816A0A466032907C1A
:10843000927C603101E0887C8A7C9042FBD170475D
:108440003031002059530000294F000023A20010B2
:10845000FB5F000070B51E46002915D0FE4DAC69CB
:108460006B699C4210D205C40846083C01F076F8BE
:10847000FA4AFB4B00F076FF01F07EF8A06026730D
:10848000002060611834AC6170BD884200D308469A
:108490007047002206E00021491C89B21829FBD34D
:1084A000521C92B28242F6D3704710B5EA4C606813
:1084B0002030017CC9070FD0017C490849000174B4
:1084C000082000F0CCFA60682030417C0122114382
:1084D00041743220FFF7DDFF10BD70B5DE4C0D4654
:1084E000616803462031087CC00706D0087C40083C
:1084F000400008743220FFF7CCFF62682032137509
:10850000180A5075180C9075180ED075107CEF2154
:1085100008401074907C400840009074D148056079
:10852000507C012528435074082000F08FFA6068C1
:108530002030017C2943017470BDCEE770B5C64D73
:1085400018212878AE68484369690C1A286980198F
:1085500028610020C043A86018E0207B002814D0C8
:108560002069B04204D16068002807D0804705E048
:10857000801B206102D0A168884201D9A0682061D7
:10858000A968884200D90846A860183468698442FE
:10859000E3D3A868002805D0411C03D0B249FFF7F7
:1085A000CCFF70BDFFF781FF70BDF0B5AA48AF4D9D
:1085B000416840310B7918464B791B0218438B797F
:1085C000CA791B04184312060E79104332464E79BD
:1085D000360232438E79CB79360432431B060F794B
:1085E0001A433B464F793F023B438F79CE793F0494
:1085F0003B4336063343641C904201D19A4201D07A
:10860000AC42D7D3F0BDF8B50446FFF7CEFF924A8F
:1086100091680B1A13610023884200D9136100206E
:10862000C043906011781820414350691769411A7E
:1086300017E00D68A54202D10B734B6110E00D7B72
:10864000002D0DD00D69ED1B0D6102D08E68B54275
:1086500001D98D680D619668B54200D82E469660A6
:1086600018318142E5D39068002805D0411C03D021
:108670007D49FFF762FFF8BDFFF717FFF8BDF3B5BF
:1086800081B00646FFF7BFFF73481822017845699D
:1086900051436C1A714F0FE02068B0420BD1A068B3
:1086A0002061029800F05AFF3A466D4B00F05AFEE6
:1086B00000F062FFA0601834AC42EDD3FEBD664905
:1086C000CA688243CA607047F8B5634C0546207893
:1086D000182148436169081A06E00268AA4202D1DB
:1086E000027B002A3AD118308842F6D3FFF75DFFAB
:1086F000A1680A1A2261884201D900202061002065
:10870000C043A0602078182163694843191A0127E3
:10871000266919E00868A84203D1886808610F73C8
:108720000BE0087B00280ED00869801B086102D08E
:108730008A68904201D9886808610246A06882422E
:1087400000D81046A06018319942E3D3A0680028F1
:1087500005D0411C03D04449FFF7EFFEF8BDFFF7F9
:10876000A4FEF8BDF8B53C4C0546E068A843E060BF
:10877000FFF71BFFA1680A1A2261884201D9002075
:1087800020610020C043A060217818206369414324
:10879000591A0127266919E00868A84203D1886898
:1087A00008610F730BE0087B00280ED00869801B5E
:1087B000086102D08A68904201D98868086102463F
:1087C000A068824200D81046A06018319942E3D3D5
:1087D000A068002805D0411C03D02349FFF7ADFE57
:1087E000F8BDFFF762FEF8BD1B4918220B78534312
:1087F0004A69D11A05E00B68834201D1087B7047B2
:1088000018319142F7D3FF20704770B50D460446EA
:10881000FFF70DF8002808D00F48182104704C43CA
:10882000611985614161FFF740FE70BD0A494A68E0
:10883000114620310875030A4B75030C8B75000E29
:10884000C8758B7C012003438B744B7C03434B74B2
:108850000B7C03430B740BE070310020FCA9F1D2B8
:108860004D624040A05800203D850010FF3F0000B1
:108870002032D37CDB07FCD00A7C520852000A74F9
:108880004A7C02434A7470477C4840682030C17C6F
:10889000C90708D0417C012211434174784800681F
:1088A000002800D00047704770B5744C06466068D9
:1088B0000D462030017CFD238907002905DA017C63
:1088C000194001743220FFF7E4FD62682032167609
:1088D000300A5076300C9076300ED076107C202105
:1088E00008431074907C1840907465484560507C33
:1088F000022528435074092000F0A8F86068203051
:10890000017C2943017470BD10B55C4C6068203057
:10891000017C89070FD5017CFD22114001740920DB
:1089200000F09DF860682030417C022211434174C0
:108930003220FFF7AEFD10BD504840682030C17CAA
:10894000890708D5417C0222114341744C48406894
:10895000002800D00047704770B5484C0646606854
:108960000D462030017CFB234907002905DA017CF4
:10897000194001743220FFF78CFD626820321677AF
:10898000300A5077300C9077300ED077107C402131
:1089900008431074907C1840907439488560507C6E
:1089A0000425284350740A2000F050F860682030F5
:1089B000017C2943017470BD304808214068403073
:1089C00041180A7810464A78120210438A78C9780A
:1089D0001204104309060843704728480C214068D8
:1089E000403041180A7810464A78120210438A78BB
:1089F000C9781204104309060843704710B51F4C8C
:108A000060682030017C49070FD5017CFB221140B2
:108A100001740A2000F023F860682030417C0422B1
:108A2000114341743220FFF734FD10BD13484068F4
:108A30002030C17C490708D5417C04221143417490
:108A40000F488068002800D000477047002805DBE9
:108A5000C106C90E012088400A49086070470028F5
:108A60000ADBC106C90E0120884006498031086032
:108A7000BFF34F8FBFF36F8F70470000703100203E
:108A8000A058002000E100E018B5F648006800900A
:108A9000002069460B5C0A241A0962431B070A542A
:108AA0001B0FD2180A54401C0328F3DB009818BD92
:108AB00008B5FFF7E9FF009068460178C078EA4AF8
:108AC000401E50430A1868468178E1200001414366
:108AD000684640783C23584308181118E34A106947
:108AE000814201D3081A02E0E14B081AC018116153
:108AF00008BD70B50D46002802D0DA4E083E01E0F0
:108B0000D84E0C3E0024285D0A2100F0A1FA000195
:108B100001432955641C032CF5DB284600F003FBB8
:108B200030606420FFF7B5FCCE482038C17A0822B7
:108B30001143C17270BD38B5CC4909694418CA499E
:108B4000204600F085FA421C6846C270E1250846BE
:108B50002D01294600F07CFA0246684682702946BB
:108B6000204600F075FA08463C2100F071FA0146F3
:108B7000684641703C21204600F06AFA6846017060
:108B800069460020FFF7B5FF38BD38B5FFF77CFF19
:108B9000009068460178C078B34A401E50430A18D6
:108BA00068468178E12000014143684640783C23D3
:108BB000584308181118AD4BAE485A6A04689142E0
:108BC00001D38A1A02E0AA4D8A1A5219A218026029
:108BD0001046596238BD70B500290BD0A34D6E699F
:108BE000AC69B44206D2A16005C423710020E060E4
:108BF0001034AC6170BD884200D308467047994973
:108C000020398A7A0F238343887A1A4000090001A9
:108C100010438872704770B5C00742D0934C18213A
:108C20006078666848436169081A0A4603E0037B76
:108C3000002B02D118309042F9D3884231D2FFF78D
:108C400037FFE16860680818E0600020C04360609A
:108C50006178182041436069451A18E0287B002894
:108C600014D02869B04204D16868002807D0804732
:108C700005E0801B286102D0A968884201D9A86854
:108C800028616168884200D90846606018356069CB
:108C90008542E3D36068002804D0411C02D0FFF76E
:108CA0004AFF70BD0120FFF7AAFF70BD6F498A68B7
:108CB00082438A607047F8B50446FFF7F9FE6B4AB5
:108CC000D06072B60021C9435160517818235943CE
:108CD0005369591A002717E00D68A54202D10F7396
:108CE0004F6110E00D7B002D0DD00D692D1A0D6127
:108CF00002D08E68B54201D98D680D615668B542C3
:108D000000D93546556018319942E5D3506800289E
:108D100004D0411C02D0FFF70EFF02E00120FFF754
:108D20006EFF62B6F8BDF8B5504C05466078182164
:108D300048436169081A06E00268AA4202D1027B30
:108D4000002A38D118308842F6D3FFF7B1FEE06030
:108D500072B60021C9436160617818226669514387
:108D6000711A012719E00A68AA4203D18A680A61C8
:108D70000F730BE00A7B002A0ED00A69121A0A61EF
:108D800002D08B689A4201D98A680A6113466268E8
:108D9000934200D81A4662601831B142E3D360684A
:108DA000002804D0411C02D0FFF7C5FE02E00120DC
:108DB000FFF725FF62B6F8BD2C49C8617047F1B5D1
:108DC00082B0FFF775FE294DE86072B60021C943F5
:108DD000696069786E69182251430090741AEF69CE
:108DE00020E02068B84209D13C21029800F030F917
:108DF0003C20401A2061012020730CE0207B0028D9
:108E00000FD021690098081A206102D0A168884219
:108E100001D9A068206120696968884200D90846A4
:108E200068601834B442DCD36868002804D0411C60
:108E300002D0FFF780FE02E00120FFF7E0FE62B6FD
:108E4000FEBD0A4918224B7853434A69D11A05E0FE
:108E50000B68834201D1087B704718319142F7D3E8
:108E6000FF207047C0100050805101008C3100205D
:108E7000803A09000830002071490878002808D19C
:108E80007048C37A01221343C372C37ADB07FCD153
:108E90000A7070476A49086270476A498A7A0243D1
:108EA00010078A7A000F1209120102438A72704772
:108EB00064498A7A1209024310018A7A1207120F52
:108EC00002438A72704770B505460024285D0A2166
:108ED00000F0BEF8000101432955641C032CF5DBAA
:108EE000284600F020F957492039C86370BD554A1B
:108EF000138A401EDB0BDB034004400C0343138248
:108F0000907C090700090001090F0843907470471D
:108F10004C48C17A04221143C172C17A4907FCD47A
:108F2000704747490878012809D14648C27A022388
:108F30001A43C272C27A9207FCD4002008707047AC
:108F4000F3B581B0FFF7EDFFFFF7E2FF012000214D
:108F5000C003FFF7CCFF6420FFF79BFA01216846AE
:108F6000C1700024847044700470FFF7ACFF344D6E
:108F700007262C616846C670172787703B2444700B
:108F8000047069460120FFF7B4FD6846C67087701B
:108F90004470047069460020FFF7ABFD0F20FFF717
:108FA00087FF0F20FFF72BFE0120FFF776FF0298C7
:108FB0002862FFF761FF244904200860FEBD70B5F8
:108FC0000D460446FEF733FC00280BD01C48182140
:108FD00044704C4361198561416101201B49C00304
:108FE000FFF7AEFF70BD10B51648407A03071B0FA0
:108FF0001846FFF75DFF1248016A002901D01846A4
:10900000884710BD0E480078704718B5002802D078
:109010000C48183001E00B48143000680090002024
:1090200069460B5C0A241A0962431B070A541B0F8A
:10903000D2180A54401C0328F3DB009818BD000026
:109040008C310020A010005000E100E0178C0010CF
:1090500030B50B46014600202022012409E00D46D0
:10906000D5409D4205D31D469540491B2546954058
:1090700040191546521E002DF1DC30BD70B500249C
:109080002546002801DA01244042002901DA0125A1
:109090004942FFF7DDFFAC4200D04042002C00D037
:1090A000494270BD03460B439B0703D009E008C942
:1090B000121F08C0042AFAD203E00B780370401C88
:1090C000491C521EF9D27047D2B201E00270401C16
:1090D000491EFBD270470022F6E710B513460A4638
:1090E00004461946FFF7F0FF204610BD421C0178E8
:1090F000401C0029FBD1801A704730B5044600207F
:10910000034600E05B1C934203D2E05CCD5C401B55
:10911000F8D030BD03460A780270401C491C002A72
:10912000F9D1184670470321001D401E0378120232
:109130001A43491EF9D510467047034603220870AA
:10914000000A491C521EFAD518467047F8B5024667
:109150004A40D40F42004B0052085B089A4202D2A8
:109160000246084611464A0023D0C30D4A00DDB22C
:10917000120EAD1A202D35DA49020126490AF605EC
:109180008A19002C00D0524220214F1B1146B940B1
:109190002A411018C20D9A4221D0002C17D0012D5F
:1091A00008DCDA05801AD20F8019D207DBB200F092
:1091B00081FAF8BDDA05801A012340001B06C018A9
:1091C00080185A428018CA0F1043490007E0490826
:1091D000C2071143DA05801A80194008801800F090
:1091E00061FAF8BD61000122511A001BF7E7012264
:1091F000D2075140AAE70122D2075040A6E700005B
:10920000F0B507460846584087B0C00F04904800A4
:109210000E46590040084908BC1A884105D2384614
:1092200031461E4617460B4602465800400810437A
:109230004CD0300D039040055900400D490D05906C
:10924000401A0290402872DA18030121000B090528
:109250000843019004980092002805D001995242D9
:109260000020884100920190029840210A1A019939
:10927000009800F0E3F905460C466B4607CB00F07A
:10928000FEF9C0197141039A0E0D0023D7175640FD
:109290001A467A40164344D0049A002A2DD0029AE6
:1092A000012A039A15DC1205C01A914101263605E0
:1092B000001C7141D20F059ED207009301920296C5
:1092C0002A46234600F03CFA07B0F0BD3846314646
:1092D000FAE71605224A0F46B218C01AB741012113
:1092E0000905001C4F4100187F41114618187941AB
:1092F000E20F10436D19644113E0E2076D08154356
:109300006408C2071443039A01261205C01A91414A
:109310003605001C7141CE07400830434908C0188B
:1093200051412A46234600F0FEF9CDE7FFE70498B5
:1093300001224000C117121A00238B4104983146C4
:10934000C417381AA141EEE730B40124E4076340A2
:1093500030BC55E730B40124E407614030BC4FE72E
:109360000000E0FFF0B51FB488B00B990998002405
:1093700048400999C00F490049080991C0070B9955
:109380000090490049080B9109990898A64608439E
:109390001CD00B990A98084318D009980124400062
:1093A000420D4800410D099824050003000B20439D
:1093B00009900B980003000B20430B9050181C4998
:1093C0004018002201901446104605E00020014696
:1093D0000DB0F0BD032801DA034600E003239C46EC
:1093E000C11A0AAE0AE05F0008ADED5B4F00F75B03
:1093F0007D430027AA187C41491C5B1E6145F2DDB4
:10940000410004AB5A522104120C0A43240C401CA4
:109410000828DFDB019802900099704601910090C6
:10942000059B049A0799069800F08AF9D0E7000096
:109430000DFCFFFFF0B50C465C4085B0E40FE4077F
:1094400003944C00002664085900944649080246DB
:109450000296224321D062460A431ED06200570D75
:109460004A000E032303550D012402462C4924050E
:10947000781B1B0B360B4018234326436146009094
:109480001C46501AB44103D30098401C009002E0DF
:10949000921800985B41002803DA0020014605B0CD
:1094A000F0BD0020012109050746864611E064460B
:1094B0001D46141BB54106D36546521BB341744685
:1094C00007430C43A646CD07400849082843921895
:1094D0005B4105460D43EAD11046184313D0604660
:1094E000194650407140084306D06046101AB341F7
:1094F00006D20122002306E000220123DB0702E05E
:109500000122D2435310009874460105381C614172
:10951000029C039D0019694100F005F9BFE70000B6
:10952000FD03000010B500229623114600F0C2F89A
:1095300010BD00000EB5C217C10F5040CA07401839
:109540000021054B0293019200910A460B4600F060
:10955000F7F803B000BD0000330400000EB5054964
:109560000291002100910A460B46019100F0E8F8B3
:1095700003B000BD330400004A0009030123090BB6
:109580001B051943094B10B5520D9A4201DA002010
:1095900010BD064B34339A4203DC9A1A00F05EF891
:1095A00010BD03495118884010BD0000FF030000A2
:1095B000CDFBFFFFC20FD207400040080BD0C10D0A
:1095C0000723DB01C91840020905400A1143C208FC
:1095D000400711437047002001467047F0B51FB4A3
:1095E0000646002082B005464024019100901BE011
:1095F000019922460F46304600F030F8049A059B48
:10960000801A994110D310461946224600F016F8E8
:10961000361A8F410197224601200021009F00F059
:109620000DF838184D4100902046641E0028DFDCFC
:10963000019B00982946324607B0F0BD10B5202A9C
:1096400004DB0146203A9140002010BD91402023C8
:109650009C1A0346E3401943904010BD10B5202AE0
:1096600004DB0846203AD040002110BD0B46D34011
:10967000D0402024A21A91400843194610BD10B5CD
:10968000202A06DBCB170846203A1041C1170B43AE
:1096900006E00B461341D0402024A21A9140084313
:1096A000194610BD002904DA401C490001D14008C8
:1096B0004000704770B40024050C05D1102400044C
:1096C00002D1002921D01124050E01D10002083455
:1096D000050F01D10001241D850F01D18000A41CBC
:1096E000002801DB4000641C002908D020252E1B27
:1096F0000D46F540A14000D0012129430843010651
:109700001B1B000ADB1D02D5002070BC7047DB0567
:10971000181880180029F8DA401C4900F5D170BCEF
:1097200040084000704710B5002B08DA0024401CA8
:10973000614192185B411A4301D14008400010BDBD
:10974000F0B51FB482B005460C0003D0084600F007
:10975000CFF802E000F0CCF820300246009021461D
:109760002846FFF76BFF049B059A04460F461843F3
:109770001143084314D0184610431BD000984021D1
:109780000A1A18460599FFF769FF05460E46009A22
:1097900005990498FFF752FF084305D0012004E023
:1097A0002046394607B0F0BD0020C11705430E43DF
:1097B0002C43374300990E986305401A7905E40A53
:1097C00000220C43FD0A0A3002D500200146E9E7D9
:1097D0000105101969410C9C0D9D00196941FFF7A5
:1097E000A2FFDFE74A0009030123090B1B05194308
:1097F0000A4B10B5520D9A4202DA0020014610BD04
:10980000064B34339A4203DC9A1AFFF727FF10BD48
:10981000034BD218FFF712FF10BD0000FF0300003A
:10982000CDFBFFFF10B5002904DB0124E407404213
:109830008C412146002B04DB1C460123DB075242EE
:10984000A341994200D1904210BD0000064C012571
:10985000064E05E0E36807CC2B430C3C98471034D8
:10986000B442F7D3F6F730FC48A6001068A6001003
:1098700070B58C180578401C6B075B0F01D103781D
:10988000401C2A1106D10278401C03E006780E70B5
:10989000401C491C5B1EF9D12B0705D40023521E26
:1098A0000DD40B70491CFAE70378401CCB1A921CAC
:1098B00003E01D780D70491C5B1C521EF9D5A142B6
:1098C000D8D3002070BD00000FB410B504A9074B19
:1098D00002AA039800F0FAF8044602A9002000F05A
:1098E00091FC204610BC08BC04B0184705A200102B
:1098F0002021020C01D010211046020A01D010468E
:109900000839020901D01046091F820801D010460B
:10991000891E420801D0881E7047081A704730B46B
:109920007446641E2578641CAB4200D21D46635DFC
:109930005B00E31830BC184702E008C8121F08C1DA
:10994000002AFAD170477047002001E001C1121FC0
:10995000002AFBD170470000F0B51FB486B009980B
:10996000089A030D0021024314D05148514A181897
:10997000504305141198012810981AD0281A401C39
:1099800000264D4F4D49009601910490002812DAAF
:10999000444211E01198012449A3012801D11098F3
:1099A000C1430698119A84600360C26041600BB0A5
:1099B000F0BD4042E4E70446210500203F4A001C78
:1099C00051410391029012E0E00707D032463B4636
:1099D00001990098FFF7C6FC0191009032463B4682
:1099E00010461946FFF7BEFC06460F466410002CD1
:1099F000EAD10498039B0028029A0999089806DA8C
:109A0000FFF7B0FC019B009AFFF7ACFC05E0FFF705
:109A100011FD019B009AFFF70DFD04460E46002242
:109A2000284BFFF7FFFE03D80020C043014607E0A4
:109A30000022254B20463146FFF7E2FBFFF7D2FE1E
:109A4000102409E0002C0ADB0A220023FFF7C6FDE0
:109A5000079B30321A55641E02460A43F2D1112286
:109A6000641C079B121B1C19119B012B03D00123A3
:109A700008430ED10AE0084304D0112010900020C2
:109A8000119077E71098151A6D1E0BE0109882421E
:109A900002DD00236D1C03E0824201DA00236D1E0B
:109AA000002BEED0069811998260C16030C07EE72D
:109AB00001FCFFFF104D0000000014400000F03FCB
:109AC000300000000000F0430000E03FFFB597B019
:109AD0000646002518E2252877D100242746FD49AF
:109AE000049400E00443761C32780120203A904030
:109AF0000842F7D130782A280ED002223078014669
:109B00003039092916D804990A23594330394018A5
:109B10001443761C0490F1E7189802C80491189039
:109B2000002904DA01204003044348420490022043
:109B30000443761C30782E2814D104200443707816
:109B4000761C2A2809D11898761C80C8189009E03C
:109B50000A214F43303FC719761C3078014630390F
:109B60000929F5D930786C2810D006DC4C281AD099
:109B700068280ED06A2817D104E0742813D07A28F8
:109B800012D110E00120400504430CE00121090539
:109B900001E0032109050C437178814203D10120C2
:109BA00000052418761C761C3078119066280BD09E
:109BB00013DC58287DD009DC00287BD04528F6D05E
:109BC0004628F4D047281AD1A5E118E0632835D0FB
:109BD000642870D0652812D19DE170286CD008DC13
:109BE0006728F1D069287BD06E280DD06F2806D168
:109BF000BAE073282ED0752871D0782859D01A9AD7
:109C0000199990476D1C7EE16002400F022809D02F
:109C100003280DD00428189801680DD00D60001D90
:109C2000189070E11898EA1701680D604A60F6E72D
:109C3000189801680D80F2E70D70F0E718986A46F1
:109C400001781172001D18900020507202A8009037
:109C5000012005E0189802C8189000200091C04328
:109C600061070DD5002101E00199491C0191B9421C
:109C700012DA8142F8DB009A515C0029F4D10BE042
:109C8000002101E00199491C01918142FADB019A0E
:109C90000099895C0029F5D1019904981A9B471A0B
:109CA00021463846199A00F097FA0199401945184B
:109CB0000BE04FE02CE113E04EE0009800990078B3
:109CC000491C00911A9A199990470198401E0190D9
:109CD000401CF2D1214638461A9B199A10E137E010
:109CE0000A200021009001916002410F022907D053
:109CF000189A01CA1892C2179446032908D00AE09C
:109D00001898C01DC108C90005C91891944607E0FC
:109D100000B2C2179446042902D140B2C1178C4642
:109D200000226146944506DA0A46002140429141EC
:109D30008C462D2102E0210504D52B216A461173A2
:109D4000012103E0E10701D02021F7E7029155E06E
:109D50000A200AE0102008E01020009000210420D2
:109D600004430191082703E008200021019100909D
:109D70006002410F022907D0189A01CA18920022E6
:109D80009446032908D008E01898C01DC108C900EE
:109D900005C91891944603E080B2042900D1C0B2ED
:109DA00000210291210729D51199702906D0009A26
:109DB0001021019B4A401A4305D00EE040216A461B
:109DC0001173012108E06146014306D030216A4643
:109DD00011731199517302210291009A0821019B7C
:109DE0004A401A430AD16146014301D1610705D5B2
:109DF00030216A46117301217F1E02911199582961
:109E000004D035A10E910DA90D910DE037A1F9E710
:109E10006146019B009AFFF7E1FB0E9B8C469B5C21
:109E20000D9A521E0D92137061460143F0D10D98A8
:109E300005A9081A20300190600703D5012000040D
:109E4000844300E001270198874201DD381A00E0D1
:109E50000020019900904118029809180498401AAE
:109E60000490E00306D421461A9B199A049800F046
:109E7000B3F94519002706E003A81A9AC05D19999D
:109E800090476D1C7F1C02988742F5DBE0030CD5E0
:109E900021461A9B199A049800F09EF9451904E08E
:109EA0001A9A3020199990476D1C0099481E00900D
:109EB0000029F5DC08E00D980D990078491C0D91FA
:109EC0001A9A199990476D1C0199481E0190002912
:109ED000F1DC63E1092801003031323334353637A3
:109EE00038396162636465660000000030313233E6
:109EF0003435363738394142434445460000000086
:109F000000F05AF94519761C3078002800D0E2E5B7
:109F100028461BB0F0BD600700D406271898C01D66
:109F2000C108C90048680A680831C30FDB071891E7
:109F3000190001D09CA108E0210501D59BA104E0F6
:109F4000E10701D09AA100E09AA1430011985B08B3
:109F5000109165280CD006DC452809D046281DD074
:109F6000472841D141E0662818D067283CD13CE021
:109F70000021112F01DB112000E0781C01910090DD
:109F800008A911A8FFF7E8FC139905910021119A7F
:109F900015927F1C12980197009150E00120C00794
:109FA00003900120019008A9009711A8FFF7D4FCA5
:109FB000139A149905920022119B009212981593FE
:109FC000059A0192002901D0104602E0791C401840
:109FD0000190381A01D5019804E04042401E0090DB
:109FE000781C0190C01B029043E0012F00DA01278A
:109FF0000021112F01DD112000E038460191009071
:10A0000008A911A8FFF7A8FC13990591119A00213E
:10A01000129815920091019721070CD40599B94225
:10A0200001DB019900E00191012904DD159A491E27
:10A03000515C302906D0B84201DA011D05DA012150
:10A04000029115E00199491EEDE7002805DC009911
:10A05000411800910199091A03E0019A411C9142AB
:10A0600000DD01910099401A401C02900120C007B8
:10A070000390200706D402990198814202DB002058
:10A08000C043029000206946C87707AF01210398BA
:10A090000337C907884224D0022011902B20129048
:10A0A000039800280CDA404203902D20129007E01C
:10A0B0000A210398FEF7CCFF30317F1E03903970E0
:10A0C0001199481E11900029F2DC03980028EFD165
:10A0D000791E129808703078202108404530BF1E44
:10A0E000387006A8C01BC01D039010980078002887
:10A0F00000D00120019941180298C017091803984F
:10A1000009180498401A401E0490E00306D4214622
:10A110001A9B199A049800F05FF845191098007876
:10A12000002803D01A9A199990476D1CE00324D592
:10A1300021461A9B199A049800F04EF845191CE024
:10A140000098002807DB00990598884203DD1598E0
:10A15000405C199901E0199930201A9A90470098AB
:10A160006D1C401C00900298401E0290002804D1F3
:10A170001A9A2E20199990476D1C0199481E01903A
:10A180000029DDDC05E038781A9A7F1C1999904780
:10A190006D1C0399481E03900029F4DC21461A9B8C
:10A1A000199A0498ACE600002D0000002B00000076
:10A1B0002000000000000000F8B5044600251E46FF
:10A1C0001746880404D405E039462020B0476D1CAA
:10A1D000641EF9D52846F8BDFFB50446002581B0B8
:10A1E0001E46C80301D5302700E02027880404D587
:10A1F00005E038460399B0476D1C641EF9D5284622
:10A2000005B0F0BD0A68531C0B6010707047303108
:10A2100032333435363738394142434445460000FD
:10A220002526270C0802170D010102090901010664
:10A2300002000700070011001100020011000B00CE
:10A24000110008001100020000000000963007779E
:10A250002C610EEEBA51099919C46D078FF46A701A
:10A2600035A563E9A395649E3288DB0EA4B8DC793A
:10A270001EE9D5E088D9D2972B4CB609BD7CB17EBA
:10A28000072DB8E7911DBF906410B71DF220B06A8A
:10A290004871B9F3DE41BE847DD4DA1AEBE4DD6D9A
:10A2A00051B5D4F4C785D38356986C13C0A86B649A
:10A2B0007AF962FDECC9658A4F5C0114D96C0663BA
:10A2C000633D0FFAF50D088DC8206E3B5E10694C9A
:10A2D000E44160D5727167A2D1E4033C47D4044BDA
:10A2E000FD850DD26BB50AA5FAA8B5356C98B242BA
:10A2F000D6C9BBDB40F9BCACE36CD832755CDF453A
:10A30000CF0DD6DC593DD1ABAC30D9263A00DE5169
:10A310008051D7C81661D0BFB5F4B42123C4B35659
:10A320009995BACF0FA5BDB89EB802280888055FD9
:10A33000B2D90CC624E90BB1877C6F2F114C685839
:10A34000AB1D61C13D2D66B69041DC760671DB0127
:10A35000BC20D2982A10D5EF8985B1711FB5B606F9
:10A36000A5E4BF9F33D4B8E8A2C9077834F9000F39
:10A370008EA8099618980EE1BB0D6A7F2D3D6D08D9
:10A38000976C6491015C63E6F4516B6B62616C1CC9
:10A39000D83065854E0062F2ED95066C7BA5011BF9
:10A3A000C1F4088257C40FF5C6D9B06550E9B71299
:10A3B000EAB8BE8B7C88B9FCDF1DDD62492DDA1559
:10A3C000F37CD38C654CD4FB5861B24DCE51B53A79
:10A3D0007400BCA3E230BBD441A5DF4AD795D83D79
:10A3E0006DC4D1A4FBF4D6D36AE96943FCD96E34B9
:10A3F000468867ADD0B860DA732D0444E51D033399
:10A400005F4C0AAAC97C0DDD3C710550AA410227A8
:10A4100010100BBE86200CC925B56857B3856F2078
:10A4200009D466B99FE461CE0EF9DE5E98C9D929D8
:10A430002298D0B0B4A8D7C7173DB359810DB42E18
:10A440003B5CBDB7AD6CBAC02083B8EDB6B3BF9A64
:10A450000CE2B6039AD2B1743947D5EAAF77D29DF0
:10A460001526DB048316DC73120B63E3843B6494D0
:10A470003E6A6D0DA85A6A7A0BCF0EE49DFF0993D0
:10A4800027AE000AB19E077D44930FF0D2A3088740
:10A4900068F2011EFEC206695D5762F7CB676580F0
:10A4A00071366C19E7066B6E761BD4FEE02BD389F0
:10A4B0005A7ADA10CC4ADD676FDFB9F9F9EFBE8E50
:10A4C00043BEB717D58EB060E8A3D6D67E93D1A190
:10A4D000C4C2D83852F2DF4FF167BBD16757BCA670
:10A4E000DD06B53F4B36B248DA2B0DD84C1B0AAF10
:10A4F000F64A0336607A0441C3EF60DF55DF67A890
:10A50000EF8E6E3179BE69468CB361CB1A8366BC1F
:10A51000A0D26F2536E2685295770CCC03470BBB6F
:10A52000B91602222F260555BE3BBAC5280BBDB26F
:10A53000925AB42B046AB35CA7FFD7C231CFD0B50F
:10A540008B9ED92C1DAEDE5BB0C2649B26F263EC01
:10A550009CA36A750A936D02A906099C3F360EEB0F
:10A560008567077213570005824ABF95147AB8E2CF
:10A57000AE2BB17B381BB60C9B8ED2920DBED5E5AF
:10A58000B7EFDC7C21DFDB0BD4D2D38642E2D4F1FF
:10A59000F8B3DD686E83DA1FCD16BE815B26B9F68F
:10A5A000E177B06F7747B718E65A0888706A0FFFEF
:10A5B000CA3B06665C0B0111FF9E658F69AE62F8AF
:10A5C000D3FF6B6145CF6C1678E20AA0EED20DD7AF
:10A5D0005483044EC2B30339612667A7F71660D0CF
:10A5E0004D476949DB776E3E4A6AD1AEDC5AD6D90F
:10A5F000660BDF40F03BD83753AEBCA9C59EBBDE2F
:10A600007FCFB247E9FFB5301CF2BDBD8AC2BACADE
:10A610003093B353A6A3B4240536D0BA9306D7CD4E
:10A620002957DE54BF67D9232E7A66B3B84A61C46E
:10A63000021B685D942B6F2A37BE0BB4A18E0CC32E
:10A640001BDF055A8DEF022D68A600100030002098
:10A65000B4010000709800101CA70010B431002055
:10A66000FC32000048990010011123031917020160
:10A67000050303018309FF000C2709095359445FAF
:10A68000554152541F135030142060101B502404A5
:10A690001A14041A18042210524058180102030414
:10A6A00005060708090A1112131415161718191AA6
:10A6B0001B1E1F181808090A0708111512162C135B
:10A6C00019141812D01C0150E00401341AFF0101C2
:10A6D000301AAA0150113031323334353637383917
:10A6E0004142434445461490D003620413ED0523D0
:10A6F00020DF1B208F081AC604134A0714201E06E9
:10A700001B2014141A90EC2113024019083A600C13
:0CA71000E2081914091698091618B20284
:04000005100000C126
:00000001FF
