:020000041000EA
:10000000B8A300205D3B0010653B0010673B00106B
:1000100000000000000000000000000000000000E0
:100020000000000000000000000000007F3A001007
:10003000000000000000000003010010273B00103A
:10004000130E00106F3B00106F3B00106F3B001051
:100050006F3B00106F3B0010B51000106F3B00109D
:100060006F3B00106F3B00106F3B00106F3B0010A8
:100070006F3B00106F3B00106F3B00106F3B001098
:100080006F3B00106F3B00106F3B00106F3B001088
:100090006F3B00106F3B00106F3B00106F3B001078
:1000A0006F3B00100F1300106F3B00106F3B0010F0
:1000B0006F3B00106F3B00106F3B00106F3B001058
:1000C0000348854606F08AFA00480047E50100101B
:1000D000B8A30020064B19680868203080F309880F
:1000E000022080F314883FBCAE4662B600BD00001B
:1000F00080000020EFF3108072B6704780F3108804
:100100007047EFF309800E4B1A6820381060F0C07A
:1001100044464D4656465F46F0C008B572B602F0FA
:10012000DBFA62B60CBC116808681030F0C8A04653
:10013000A946B246BB4680F309882038F0C8184764
:100140008000002010B500F0B9FB012004F092F807
:1001500030A000F0B7FB10BD00BFFF20F53002F06B
:10016000D9F935A000F0AEFBF7E708B502F056FC70
:10017000009000BF3649684602F07CF935A000F0D7
:10018000A1FBF7E71FB5012439A000F09BFB00207D
:10019000042301900290009303900346802237A12C
:1001A000384801F050FF0446012C02D136A000F07F
:1001B00089FB0020032301900290009303900346E3
:1001C000802237A1384801F03EFF0446012C02D1BD
:1001D00036A000F077FB3BA000F074FB3FA000F0DE
:1001E00071FB1FBD10B572B600F07AFA002004F062
:1001F00085FF04F01AF8012004F0BBF8FFF7A2FF16
:1002000037A000F05FFB62B6FFF7BCFF02F0D9FB3E
:10021000002010BD0D0A5359443838313120556142
:100220007274206465627567206D6F646520746503
:1002300073742E0D0A0000000D0A5461736B312097
:10024000765461736B44656C61790D0A000000009F
:10025000B80B00000D0A5461736B32207654617341
:100260006B44656C6179556E74696C0D0A00000011
:10027000496E6974207461736B0D0A005461736B6D
:10028000310000005901001043726561746520540B
:1002900061736B312053756363657373210D0A00BD
:1002A0005461736B320000006B0100104372656192
:1002B0007465205461736B32205375636365737387
:1002C000210D0A000D0A5359443838313120667225
:1002D000656552544F532053746172740D0A0000C7
:1002E000626F61726420686172647761726520690F
:1002F0006E69740D0A00000000B585B00020009002
:1003000000216846017107214173C821C181022182
:10031000018201A804F025FCFE4804F010FCFD4811
:100320004078FD49C873FB4880780874F948C07864
:100330004874F84800798874F6484079C874F548DC
:100340008079087501236A461C21F34804F00FFCEC
:1003500005B000BD70473EB505460C46EF48007835
:10036000012827D1EE480078002813D0ED496846CF
:100370000180EC491F3941802C21818002210181BB
:10038000142C00DD14242B4622466946022004F07A
:10039000AEFD3EBD012168460180032141801F2141
:1003A0008180012101812B4622466946012004F00B
:1003B0009EFDEEE70020ECE713B582B06846408969
:1003C00015214902884209D1D7A003C801910090A4
:1003D00005246946204604F07BFD89E06846408993
:1003E000D349884208D1D3A000680190022401A912
:1003F000204604F06DFD7BE068464089CC492831F9
:10040000884209D1CCA103C9019100900824694612
:10041000204604F05DFD6BE068464089C449233105
:10042000884209D1C6A103C90191009007246946F9
:10043000204604F04DFD5BE068464089BC4924310C
:10044000884209D1C0A103C90191009005246946E1
:10045000204604F03DFD4BE068464089B449263112
:10046000884208D1BAA000680190042401A920465E
:1004700004F02EFD3CE068464089AD4925318842B4
:1004800008D1B4A000680190042401A9204604F01A
:100490001FFD2DE068464089A5492731884208D1D3
:1004A000ADA000680190042401A9204604F010FDCD
:1004B0001EE0684640899E494F31884209D1A7A174
:1004C00003C90191009007246946204604F000FD0D
:1004D0000EE06846408993491E39884207D1A1A0A1
:1004E00000680190042101A8FFF735FF00E000BF7C
:1004F0001FBD7047F0B58DB00446601C05F0DBFCF5
:10050000012805D104F06FFC97A000F0DBF9E5E0CD
:10051000601C05F0D0FC022813D100207F49087030
:100520000120964908700020954908709549087087
:100530000622A11D94A000F0E9F90120FFF70AFFAF
:10054000CCE0601C05F0B7FC04280BD100208B49DF
:10055000087072490870617991A000F0B3F904F055
:1005600042FCBBE0601C05F0A6FC01214903884267
:100570003CD1A1796279080210436A49884205D0CA
:10058000A179627908021043012816D1217AE27913
:10059000080210432D28BAD1A17A627A08021043CA
:1005A000012806D186A000F08DF901205B49087072
:1005B00094E000205949087090E0A179627908021E
:1005C00010430128A3D1217AE279080210432D2893
:1005D0009DD1A17A627A08021043012802D15049C4
:1005E00008707BE000204E49087077E0601C05F041
:1005F00062FC0121490288420FD10E2221461531A9
:10060000684605F027FC1E22611D05A805F022FCA6
:1006100005A80FC8FFF76DFF60E0601C05F04BFCFC
:10062000FF210131884209D10822611D0BA805F084
:1006300011FC0C990B98FFF7BFFE4FE0601C05F012
:100640003AFC01210903884248D0601C05F033FCC4
:1006500001218903884203D15EA000F033F93DE017
:10066000601C05F028FC0121C903884236D1A1791C
:10067000627908021043030006F017F80604080C1C
:10068000102D2E2F58A000F01DF926E05CA000F0E0
:1006900019F922E060A000F015F91EE00BA804F0A3
:1006A000E1FB63A000F00EF96946888D05F002FEBB
:1006B000074605F047FE0022634B0991089005F0BC
:1006C00019FD05460B466946C88D2A4600905FA075
:1006D00000F0F8F801E000E000BF00BF0DB0F0BD91
:1006E00000B589B004F0C9F908A804F0ECFB0021BA
:1006F000684601764176807E81088900491C6846FB
:100700008176807E04218843011D68468176102110
:10071000C176ABE02800002005000020000000208A
:1007200001000020E7FE0000554152544600000041
:10073000012A0000FFFF000053594420496E632E38
:10074000424C4520312E3000312E302E300000003A
:10075000322E3030332E3030342E3030023A09050C
:100760000A020000000103044741505F4556545FF0
:100770004144565F454E440D0A000000020000202F
:1007800004000020030000204741505F4556545F9D
:10079000434F4E4E454354454420616464723A00D1
:1007A0004741505F4556545F444953434F4E4E4571
:1007B000435445442825303278290D0A00000000B2
:1007C00073746172745F747820656E61626C650D1C
:1007D0000A0000004741505F4556545F454E435F55
:1007E00053544152540D0A000D0A757064617465CA
:1007F000207273702041434345505445442E0000FD
:10080000757064617465207273702052454A454367
:100810005445442E000000005570646174652072D8
:1008200073702054494D45524F55542E000000001E
:100830000D0A75706461746520727370205355439E
:10084000434545442E0000000000F43F0D0A696E48
:1008500074657276616C3A25666D732C206C6174D8
:10086000656E63793A25642E0D0A00000021017738
:100870000321417706A804F0E9FAC02004900E484D
:10088000059004A804F004FB002004F0E5FCFFF749
:1008900033FD002168460171C1710172012141716E
:1008A000817102A903310120000505F00EFB01A8AA
:1008B00004F034FC09B000BDF504001010B500F0E0
:1008C0000AFB10BD0FB438B5002500240498002899
:1008D00003D138BC08BC04B0184705A800901748DD
:1008E000009A049905F0B8FEC5B200200090802D52
:1008F00000DD8025002405E01049085D00F095FB2F
:10090000601CC4B2AC42F7DB00BFE2E7F8B50546B5
:100910000E4617460024002D02D02846FFF7D2FFCE
:10092000002404E0315D06A0FFF7CCFF641CBC424C
:10093000F8DB05A0FFF7C6FFF8BD00002C01002082
:1009400025303278200000000D0A000010B5024664
:10095000002010E0012383401340002B0AD0FD4B00
:100960001B6819540123834014469C432246002AE5
:1009700000D102E0401C2028ECD300BF10BDFCB524
:100980000346F54C221D019200220092002B02D159
:10099000F24A009203E0012B01D1F14A0092009A41
:1009A000002A36D0002013E0012282400D46154077
:1009B000002D0CD02568009E375C0126BE403543D3
:1009C00025600D4695432946002900D102E0401CD0
:1009D0001828E9D300BF182017E0012585402A46D2
:1009E0000D461540002D0FD0019D2D780646183E6E
:1009F0000127B7403D43EEB2019D2E700D46954351
:100A00002946002900D102E0401C2028E5D300BF80
:100A100000BFFCBDFCB50346CF4C221D0192002255
:100A20000092002B02D1CD4A009203E0012B01D1AC
:100A3000CB4A0092009A002A35D0002013E0012210
:100A400082400D461540002D0CD02568009E375C75
:100A50000126BE40B54325600D4695432946002931
:100A600000D102E0401C1828E9D300BF182016E08E
:100A7000012585402A460D461540002D0ED0019DCA
:100A80002D780646183E0127B740BD43019E3570BC
:100A90000D4695432946002900D102E0401C20283C
:100AA000E6D300BF00BFFCBDAE4909680A46137813
:100AB000194653781B02194393781B041943D278C3
:100AC000120611438143A74A126811700B0A537032
:100AD0000B0C9370090ED170704710B5A14A1268C3
:100AE00013461C7822465C78240222439C78240416
:100AF0002243DB781B061A4302439A4B1B681A7089
:100B0000140A5C70140C9C70120EDA70964A12680B
:100B100013461C7822465C78240222439C782404E5
:100B20002243DB781B061A4302438F4B1B681A7063
:100B3000140A5C70140C9C70120EDA708A4A1268E7
:100B40000823D3181C7822465C78240222439C7820
:100B500024042243DB781B061A438243824B1B6822
:100B60001A72140A5C72140C9C72120EDA727E4AAB
:100B700012680823D3181C7822465C78240222438A
:100B80009C7824042243DB781B061A430A43764BE5
:100B90001B681A72140A5C72140C9C72120EDA72C0
:100BA00010BD714909680A461378194653781B022B
:100BB000194393781B041943D27812061143014359
:100BC000694A126811700B0A53700B0C9370090E6E
:100BD000D1707047644909680A46137819465378FA
:100BE0001B02194393781B041943D2781206114350
:100BF00081435D4A126811700B0A53700B0C93709D
:100C0000090ED1707047594909680A461378194688
:100C100053781B02194393781B041943D2781206A8
:100C200011430143514A126811700B0A53700B0CA7
:100C30009370090ED17070474C4909680A461378C1
:100C4000194653781B02194393781B041943D27831
:100C5000120611438143454A126811700B0A537002
:100C60000B0C9370090ED1707047404909680A4611
:100C70001378194653781B02194393781B041943C0
:100C8000D278120611434140384A126811700B0A9B
:100C900053700B0C9370090ED170704701463248A7
:100CA0000068021D1378184653781B021843937886
:100CB0001B041843D278120610430840704710B541
:100CC0000A462B4909681823CB181C7821465C7802
:100CD000240221439C7824042143DB781B0619431A
:100CE0000140234B1B6819700C0A5C700C0C9C7043
:100CF000090ED9701E4909681023CB181C782146AB
:100D00005C78240221439C7824042143DB781B0671
:100D100019438143164B1B6819740C0A5C740C0C44
:100D20009C74090ED9741249096820310978490860
:100D300049000F4B1B68203319700E490A600C21C3
:100D4000002905DBCC06E40E0123A3400A4C2360F6
:100D500000BF10BD3000002080100050480000206F
:100D600060000020340000203C00002038000020FB
:100D7000400000204400002000E100E046490968EE
:100D800010228A181378194653781B021943937856
:100D90001B041943D2781206114301433E4A1268DC
:100DA00011740B0A53740B0C9374090ED1747047B1
:100DB0000C20002815DBC206D20E01219140374AD3
:100DC000116000BF00BF00BFBFF34F8F00BF00BF67
:100DD00000BF00BF00BF00BFBFF36F8F00BF00BFE9
:100DE00000BF00BF0020C0432B4909680874020AF5
:100DF0004A74020C8A74000EC874274800682030B8
:100E0000007840084000401C2349096820310870E0
:100E1000704710B520480068182141180A7810461C
:100E20004A78120210438A7812041043C9780906DE
:100E300008431949096810228A181378194653780B
:100E40001B02194393781B041943D27812061143ED
:100E5000884300281ED012480068002802D010489D
:100E6000006880470C480068182141180A7810462D
:100E70004A78120210438A7812041043C97809068E
:100E80000843054909680870020A4A70020C8A7012
:100E9000000EC87010BD00004000002080E100E09E
:100EA00044000020002815DBC206D20E012191402B
:100EB000FA4A116000BF00BF00BFBFF34F8F00BFF1
:100EC00000BF00BF00BF00BF00BFBFF36F8F00BFF8
:100ED00000BF00BF704710B5F1480068C07B8009B3
:100EE0008001C01CEE490968C873ED480068007CA9
:100EF00080098001001DEA4909680874E848006813
:100F00002030807820218843E549096820318870A5
:100F1000E34800682030807840218843E049096830
:100F200020318870DF480068807840084000DD4943
:100F300009688870DB480068007800090001083003
:100F4000D84909680870D74800680078802188432C
:100F5000D44909680870D348006800784021884364
:100F60004030D04909680870CE480068C078102128
:100F700088431030CB490968C870CA480068807837
:100F800004218843001DC74909688870C548006866
:100F9000807820218843C34909688870C148006867
:100FA000807810218843BF4909688870BD4800686F
:100FB000807880218843BB4909688870B9480068F7
:100FC000807840218843B74909688870B54800682F
:100FD000007810218843B34909680870B148006857
:100FE000007820218843AF4909680870AD4800683F
:100FF000807802218843801CAA4909688870A94822
:101000000068C078202188432030A6490968C8704C
:10101000062000F0B1F9A3480068807808218843D1
:101020000830A0490968887010BD9E490968487059
:1010300000BF9C49096809788906C90F0029F8D0C2
:1010400098490968097820229143964A12681170DC
:10105000704718B5024600200023009314E0914B1E
:101060001B681B790B54431CD8B26B461B785B1C66
:10107000DCB200946B461B785B1CDCB200946B46C0
:101080001B785B1CDCB20094864B1B68DB78DB07AB
:10109000DB0F002BE3D0107018BD10B5814800683D
:1010A0008078082188437F49096888700620FFF707
:1010B000F9FE10BD0CB57B4800680078C006C00F73
:1010C00000280CD0774800680078102188437549C3
:1010D00009680870694601A8FFF7BBFF00BF7148A7
:1010E000006800788006C00F002807D06D480068AF
:1010F0000078202188436B490968087069480068B6
:1011000080788007C00F002808D066480068807883
:1011100002218843801C6349096888700CBD10B5A2
:101120005F480068407980098001401D5C4909687A
:1011300048715B480068807980098001801D5849AA
:10114000096888715648006820300078202188435B
:1011500053490968203108705148006820300078F0
:10116000402188434E490968203108704E48006884
:101170008078400840004C49096888704A480068F7
:10118000007800090001083047490968087046489E
:101190000068007880218843434909680870424804
:1011A000006800784021884340303F490968087052
:1011B0003D480068C0781021884310303A490968DA
:1011C000C87039480068807804218843001D36497A
:1011D0000968887034480068807820218843324943
:1011E00009688870304800688078102188432E494B
:1011F000096888702C4800688078802188432A49D3
:10120000096888702848006880784021884326490A
:1012100009688870244800680078102188432249B2
:1012200009680870204800680078202188431E491A
:10123000096808701C480068807802218843801C77
:1012400019490968887018480068C07820218843C7
:10125000203015490968C870072000F08DF8124841
:10126000006880780821884308300F490968887031
:1012700010BD0D490968487000BF0B49096809781D
:101280008906C90F0029F8D0074909680978202282
:101290009143054A126811707047000080E100E038
:1012A00030000020780000207C00002018B50246A5
:1012B00000200023009314E0344B1B681B790B546F
:1012C000431CD8B26B461B785B1CDCB200946B46A7
:1012D0001B785B1CDCB200946B461B785B1CDCB299
:1012E00000942A4B1B68DB78DB07DB0F002BE3D075
:1012F000107018BD10B52548006880780821884313
:101300002249096888700720FFF7CCFD10BD0CB595
:101310001E4800680078C006C00F00280CD01B488B
:1013200000680078102188431849096808706946E8
:1013300001A8FFF7BBFF00BF1448006800788006D3
:10134000C00F002807D0114800680078202188438A
:101350000E49096808700D48006880788007C00F42
:10136000002808D009480068807802218843801C42
:101370000649096888700CBD002805DBC206D20E3C
:1013800001219140024A1160704700007C0000205A
:1013900000E100E00146083141600021C94381605D
:1013A00001460831C16001610021016070470021E0
:1013B0000161704742684A6093688B609368596026
:1013C0009160086103685B1C0360704710B50246BA
:1013D0000B685C1C002C01D1106907E01046083036
:1013E00000E04068446824689C42FAD944684C6034
:1013F0004C68A160886041600A611468641C1460D4
:1014000010BD01460A694B68886898608B68486817
:1014100058605068884201D1886850600020086197
:101420001068401E106010687047000070B50546D7
:101430000E462C46002C02D172B600BFFEE702F029
:1014400055FB216CE06B4843216840186060002028
:10145000A0632068A060E06B401E216C48432168B7
:101460004018E0600020C0436064A064002E10D1EA
:101470002069002801D1012000E00020002810D1BF
:101480002046103001F08AFB01280AD102F025FB2A
:1014900007E020461030FFF77DFF20462430FFF79D
:1014A00079FF02F02EFB012070BDFEB507460D4608
:1014B00000200090002F01D0012000E00020002833
:1014C00002D172B600BFFEE7002D02D100200190CC
:1014D00003E038466843401C0190019908465030AB
:1014E00002F0DCF90646002E10D03446002D01D162
:1014F000246002E0304650302060E763256401211B
:101500002046FFF793FF0020E06400940098002835
:1015100002D172B600BFFEE70098FEBDF8B50446E2
:101520000E4615460027206C002809D120680028A7
:1015300031D1606801F079FC0746002060602AE044
:10154000002D0FD13146226CA06804F083FC216C81
:10155000A0684018A0606168A06888421BD320681A
:10156000A06018E03146226CE06804F073FC216C46
:10157000E068401AE0602168E068884203D2216C8C
:101580006068401AE060022D05D1A06B002802D0EF
:10159000A06B401EA063A06B401CA0633846F8BD42
:1015A00073B50D460098C46C0026002C02D172B6AB
:1015B00000BFFEE7A06BE16B884201D2012000E092
:1015C0000020002802D172B600BFFEE7A06BE16BDD
:1015D00088421CD22A4669462046FFF79FFF0646EE
:1015E000A06C401C00280FD1606A002801D10120A6
:1015F00000E0002000280AD12046243001F0CEFA75
:10160000002804D0012602E0A06C401CA0643046F3
:101610007CBD10B5044602F069FA20E0E06C0028B9
:1016200008D000212046FFF7BBFF012814D101F0AC
:101630008CFB11E0606A002801D1012000E000204D
:10164000002808D12046243001F0A8FA002803D051
:1016500001F07BFB00E005E0A06C401EA064A06CE4
:101660000028DBDC00BF0020C043A06402F049FA80
:1016700002F03CFA14E02069002801D1012000E0CA
:10168000002000280BD12046103001F087FA0028F6
:1016900001D001F05AFB606C401E606400E002E083
:1016A000606C0028E7DC00BF0020C043606402F0EB
:1016B00028FA10BD70B5054602F018FAA86BE96B60
:1016C000884201D1012400E0002402F01AFA2046E9
:1016D00070BDFFB583B006461D460020029034461B
:1016E000002C02D172B600BFFEE70498002802D198
:1016F000206C002801D1012000E00020002802D148
:1017000072B600BFFEE7022D02D1E06B012801D1C5
:10171000012000E00020002802D172B600BFFEE7E1
:1017200001F035FB002802D10598002801D10120E5
:1017300000E00020002802D172B600BFFEE700BF23
:1017400002F0D4F9A06BE16B884201D3022D2BD1BA
:101750002A4620460499FFF7E1FE0746E06C002880
:1017600008D029462046FFF71BFF012817D102F0B9
:10177000B4F914E0606A002801D1012000E00020E3
:10178000002808D12046243001F008FA012806D1AB
:1017900002F0A3F903E0002F01D002F09EF902F05D
:1017A000B0F9012007B0F0BD0598002803D102F080
:1017B000A8F90020F6E70298002804D1684601F055
:1017C00083FA0120029002F09CF900F04DFE02F035
:1017D0008DF9606C401C002800D16064A06C401C36
:1017E000002800D1A06402F08CF905A9684601F038
:1017F00077FA002819D12046FFF75CFF00280ED0A9
:1018000020461030059901F054F92046FFF701FFFA
:1018100000F07DFD002893D102F05FF990E72046AB
:10182000FFF7F7FE00F073FD8AE72046FFF7F1FEB1
:1018300000F06DFD0020B5E770B50546502002F0C0
:101840002DF80446002C1CD0002060602060A060B1
:10185000E060A0630120E06300202064401E60641B
:10186000A0640020E06420461030FFF793FD20467E
:101870002430FFF78FFD00231A4619462046FFF754
:1018800028FF002C02D172B600BFFEE7204670BDD3
:1018900070B506463446002C02D172B600BFFEE792
:1018A00001F072FA616888420DD1E068401EE06084
:1018B000E068002805D100231A4619462046FFF7A4
:1018C00008FF012500E00025284670BD70B50546DB
:1018D00002F00CF9A86B002801D1012400E00024DB
:1018E00002F00FF9204670BD70B504460D46206C1D
:1018F00000280ED0216CE0684018E0606168E06864
:10190000884201D32068E0602846226CE16804F038
:10191000A1FA70BDFFB583B005460E4600200290C7
:101920002C46002C02D172B600BFFEE7002E02D179
:10193000206C002801D1012000E00020002802D105
:1019400072B600BFFEE701F022FA002802D1059826
:10195000002801D1012000E00020002802D172B649
:1019600000BFFEE700BF02F0C1F8A06B002837D02F
:10197000E76831462046FFF7B7FF0698002819D1DF
:10198000A06B401EA0632068002802D101F097FAE6
:1019900060602069002801D1012000E000200028BB
:1019A00019D12046103001F0F9F8012813D102F0C6
:1019B00094F810E0E760606A002801D1012000E09F
:1019C0000020002807D12046243001F0E7F8002845
:1019D00001D002F082F802F094F8012007B0F0BDC7
:1019E0000598002803D102F08CF80020F6E7029851
:1019F000002804D1684601F067F90120029002F046
:101A000080F800F031FD02F071F8606C401C002895
:101A100000D16064A06C401C002800D1A06402F0DA
:101A200070F805A9684601F05BF9002823D120462B
:101A3000FFF74CFF002818D02068002806D102F0DC
:101A400055F8606801F0B1F902F05BF820462430E7
:101A5000059901F02EF82046FFF7DBFD00F057FC5A
:101A6000002880D102F039F87DE72046FFF7D1FD4C
:101A700000F04DFC77E72046FFF7CBFD00F047FC78
:101A80000020ABE7F8B506460F463446002C02D1DD
:101A900072B600BFFEE701F077F96168884204D1B1
:101AA000E068401CE06001250BE000233A4619463F
:101AB0002046FFF72FFF0546012D02D1E068401CAC
:101AC000E0602846F8BD70B505460E46002D01D0F1
:101AD000012000E00020002802D172B600BFFEE71E
:101AE000AE4201D8012000E00020002802D172B6E9
:101AF00000BFFEE7022200212846FFF7D6FC04467D
:101B0000002C00D0A663002C02D172B600BFFEE705
:101B1000204670BDFFB583B0074615461E463C46BD
:101B2000002C02D172B600BFFEE70498002802D153
:101B3000206C002801D1012000E00020002802D103
:101B400072B600BFFEE7022E02D1E06B012801D180
:101B5000012000E00020002802D172B600BFFEE79D
:101B6000FEF7C8FA0190A06BE16B884201D3022E08
:101B70002ED1324620460499FFF7D0FCA06C401CC1
:101B800000281FD1E06C002809D031462046FFF71D
:101B900007FD012819D1002D17D0286015E0606AD3
:101BA000002801D1012000E0002000280DD12046AE
:101BB000243000F0F3FF002807D0002D05D00120CD
:101BC000286002E0A06C401CA0640120029001E0AB
:101BD000002002900198FEF791FA029807B0F0BD3C
:101BE000F8B506460D463446002C02D172B600BF49
:101BF000FEE7206C002801D1012000E00020002831
:101C000002D172B600BFFEE72068002802D16068EA
:101C1000002801D1012000E00020002802D172B686
:101C200000BFFEE7FEF766FA0090A06BE16B88420A
:101C30002BD2A06B401CA063A06C401C00281FD1BD
:101C4000E06C002809D000212046FFF7A9FC0128FC
:101C500019D1002D17D0286015E0606A002801D145
:101C6000012000E0002000280DD12046243000F0A3
:101C700095FF002807D0002D05D00120286002E044
:101C8000A06C401CA064012700E000270098FEF72C
:101C900035FA3846F8BDF7B582B0054616462C46EB
:101CA000002C02D172B600BFFEE70398002802D1D3
:101CB000206C002801D1012000E00020002802D182
:101CC00072B600BFFEE7FEF715FA0190A06B002880
:101CD00022D020460399FFF707FEA06B401EA063A9
:101CE000606C401C002812D12069002801D101201D
:101CF00000E0002000280DD12046103000F04EFFFB
:101D0000002807D0002E05D00120306002E0606C72
:101D1000401C6064012700E000270198FEF7EEF9FF
:101D2000384605B0F0BDF3B581B005462C46002C11
:101D300002D172B600BFFEE70298002802D1206CE3
:101D4000002801D1012000E00020002802D172B655
:101D500000BFFEE7206C002801D0012000E0002039
:101D6000002802D172B600BFFEE7FEF7C3F900906B
:101D7000A06B002807D0E76820460299FFF7B4FD62
:101D8000E760012600E000260098FEF7B7F930462C
:101D9000FEBD70B50446002C02D172B600BFFEE74E
:101DA00001F0A4FEA56B01F0ACFE284670BD70B535
:101DB00004462546002D02D172B600BFFEE701F0B1
:101DC00095FEA96BE86B461A01F09BFE304670BD8C
:101DD0000146002902D172B600BFFEE7886B70474A
:101DE00010B5014600200BE0C2005C4BD2185268CF
:101DF0008A4204D10022C300584CE25002E0401C49
:101E00000A28F1D300BF10BD70B504462546002D49
:101E100002D172B600BFFEE72846FFF7E1FF284671
:101E200001F0C0FD70BD0146002902D172B600BFAD
:101E3000FEE78A6B002A01D1012000E000207047F4
:101E40000146002902D172B600BFFEE78A6BCB6B58
:101E50009A4201D1012000E00020704710B50246EF
:101E600000200BE0C3003D4CE358002B05D1C3001C
:101E7000E150C3001B195A6002E0401C0A28F1D34C
:101E800000BF10BD70B505460E462C4601F02EFE73
:101E9000606C401C002800D16064A06C401C0028CD
:101EA00000D1A06401F02DFEA06B002804D13146C2
:101EB0002046243000F058FE2046FFF7AAFB70BDF4
:101EC00070B50446002204212046FFF7EEFA0546CD
:101ED000284670BD70B504460E4601F007FEE06C62
:101EE000002801D0002506E0A06B002801D00025C5
:101EF00001E0E664012501F004FE284670BDF8B556
:101F000005460F462E46F06CB84201D000240BE087
:101F1000B06B002801D0002406E001F0E7FD0020AE
:101F2000F06401F0EEFD01242046F8BD38B5054609
:101F30000C46002000900023224669462846FFF701
:101F4000E9FC009838BD38B5044600200090002216
:101F500069462046FFF79FFE009838BDAC0100207F
:101F600010B5002406E014216143FE4A8818FFF7EB
:101F700011FA641C0A2CF6D3FB48FFF70BFAFB4856
:101F8000FFF708FAFA48FFF705FAFA48FFF702FAEE
:101F9000F948FFF7FFF9F448F8490860F348F849B1
:101FA000086010BDF8B504460F461546002608E047
:101FB000B95D204634308155B85D002800D102E07B
:101FC000761C052EF4D300BF0021382001550A2DC0
:101FD00000D30925E562E56300202064201DFFF79A
:101FE000E6F920461830FFF7E2F924610A20401B89
:101FF000A061646200206064002148200155F8BDA2
:10200000F8B505460F46002F03D1A80001F046FCA5
:1020100000E038460646002E0BD04C2001F03EFC76
:102020000446002C01D0266304E0304601F0BAFCDF
:1020300000E00024002C04D0A900A522206B03F0AE
:102040001BFF2046F8BDFFB583B016460C9D0398D4
:10205000002802D172B600BFFEE70A2D01D201208E
:1020600000E00020002802D172B600BFFEE7304633
:102070000E99FFF7C5FF0446002C5FD0701E80004C
:10208000216B081802900298800880000290029844
:102090008007800F002801D1012000E000200028E7
:1020A00002D172B600BFFEE700962A4620460F9B7B
:1020B0000499FFF777FF069A0399029801F0D2FC82
:1020C00020600D98002801D00D98046001F00EFDED
:1020D000AC480068401CAB490860AB480068002869
:1020E00008D1A94804600846006801280DD1FFF70F
:1020F00037FF0AE0A5480068002806D1A24800681A
:10210000C06AA84201D8A0480460A1480068401CE9
:102110009F4908609F49E06A0968884202D99D4941
:10212000E06A08601422E16A51438E4A8818211D32
:10213000FFF740F9012701F0E4FC01E00027FF432D
:10214000012F0AD191480068002806D08E48006807
:10215000C06AA84201D201F0C0FC384607B0F0BD09
:10216000864909680968002901D1012100E00021A0
:10217000002904D00021C943874A116006E07F4945
:102180000968C968C868844A41681160704770B5B9
:10219000054601F0ABFC002D02D17B48006800E051
:1021A00028460446201DFFF72CF9A06A002803D01A
:1021B00020461830FFF725F9211D6E48FFF7FAF881
:1021C00076480068401C7549086071480068401CEA
:1021D0006F49086001F095FC6C480068002818D031
:1021E0006948006884420ED16D480068002801D11A
:1021F000012000E00020002802D172B600BFFEE7F7
:1022000001F06BFC05E001F071FCFFF7A9FF01F0A4
:1022100078FC70BDF8B50020009061480068002887
:1022200068D160480068401C5E490860084606683E
:10223000002E1CD1514800680068002801D10120FF
:1022400000E00020002802D172B600BFFEE74B4834
:1022500007684B4800684949086049480760524888
:102260000068401C50490860FFF77AFF00BF4A48E9
:10227000006886423DD300BF4048006800680028DF
:1022800001D1012000E00020002804D00020C0433C
:10229000414908602CE039480068C068C468656836
:1022A000AE4202D23C48056022E0201DFFF7A9F8AB
:1022B000A06A002803D020461830FFF7A2F835495D
:1022C000E06A0968884202D93249E06A086014224B
:1022D000E16A5143234A8818211DFFF76BF82A4908
:1022E000E06A0968C96A8842C6D301200090C3E742
:1022F00000BF04E02D480068401C2C4908602C48B1
:102300000068002801D0012000900098F8BD70B549
:10231000002523480068002802D172B600BFFEE7FE
:1023200001F0E4FB1E480068401E1D490860084695
:102330000068002875D113480068002871D04BE070
:102340000B48C068C46820461830FFF75AF8201DB3
:10235000FFF757F80F49E06A096888422BD90D4901
:10236000E06A27E0FC010020C4020020D80200201F
:10237000EC02002000030020140300208400002051
:10238000880000209400002080000020A000002091
:10239000B00000209C000020B40000208C00002031
:1023A000B800002098000020AC000020A40000200D
:1023B000A800002008601422E16A5143F94A8818F5
:1023C000211DFEF7F7FFF849E06A0968C96A8842EB
:1023D00002D30120F5490860F5480068002801D1C2
:1023E000012000E000200028AAD0F2480068002860
:1023F00010D00BE0FFF70EFF002802D00120EB49C0
:102400000860EC480068401EEA490860E948006836
:102410000028EFD1E5480068012802D1012501F02C
:102420005CFB01F06EFB284670BD10B50446DE482B
:1024300000684460E0480068844207D2DA480168D6
:10244000091DDE480068FEF7C1FF0CE0D6480168B0
:10245000091DDB480068FEF7B9FFDA4800688442CE
:1024600001D2D848046010BDD7480068401CD64946
:1024700008607047FEB504460E4600200190002C0F
:1024800002D172B600BFFEE7002E01D0012000E0AD
:102490000020002802D172B600BFFEE7CA480068DB
:1024A000002801D1012000E00020002802D172B6EE
:1024B00000BFFEE7FFF7D8FFBF4800680090206824
:1024C000851921680098814208D92068A8420DD951
:1024D000009885420AD90120019007E02068A842AF
:1024E00002D80098854201D9012001902560019809
:1024F000002807D0AC480068001DFEF782FF284680
:10250000FFF793FFFFF703FF0746002F01D101F00C
:10251000E4FAFEBD70B504460026002C1BD0AA4884
:102520000068002801D1012000E00020002802D12D
:1025300072B600BFFEE7FFF797FF9F4800680519D6
:1025400099480068001DFEF75CFF2846FFF76DFF05
:10255000FFF7DDFE0646002E01D101F0BEFA70BD88
:10256000F8B507463E46002E02D172B600BFFEE720
:102570008D480068864201D100241EE001F0B6FAC1
:10258000756901F0BEFA8E480068854203D08B4819
:102590000068854201D102240FE08C48854206D1B3
:1025A000B06A002801D1032407E0022405E088482E
:1025B000854201D1042400E001242046F8BD70B515
:1025C000044601F093FA002C02D17748006800E03D
:1025D00020460646F56A01F094FA284670BDF8B523
:1025E0000446FDF787FD0746002C02D16E480068BF
:1025F00000E020460646F56A3846FDF77FFD28468E
:10260000F8BDFEB507460D46002000900A2D01D208
:10261000012000E00020002802D172B600BFFEE7D2
:102620000A2D00D3092501F061FA002F02D15E487E
:10263000006800E038460446E66BAE4249D0B54239
:102640000BD95948006884420DD057480068C06AC9
:10265000A84208D80120009005E053480068844251
:1026600001D101200090E06A0190E16AE06B8842AC
:1026700000D1E562E563A069C00FC007002802D160
:102680000A20401BA0616169142201985043454A09
:102690008018814201D1012000E00020002812D0E2
:1026A000201DFEF7AEFE4B49E06A0968884202D958
:1026B0004849E06A08601422E16A5143394A88189F
:1026C000211DFEF777FE0098012801D101F005FADF
:1026D00000BF01F016FAFEBD3B480068002803D099
:1026E00001203249086032E00020304908600BE0E8
:1026F00038480068002802D172B600BFFEE73548AE
:102700000068401E3349086032480068142148437D
:1027100024490858002801D1012000E000200028A9
:10272000E6D12C490968142251431E4A8818416891
:10273000496841600146083142688A4202D14168D5
:10274000496841604168C968174A116000BF704715
:1027500070B5054601F0CAF9002D02D11248006893
:1027600000E028460446201DFEF74BFEA06A002824
:1027700003D020461830FEF744FE211D1348FEF713
:1027800019FE01F0BEF90848006884423CD11248A5
:10279000006800282BD00C48006800281ED10120BA
:1027A0001DE00000FC01002080000020A8000020A7
:1027B000EC020020A40000209800002088000020E7
:1027C00084000020B4000020B80000201403002082
:1027D000000300209C000020A00000200020002812
:1027E00002D172B600BFFEE701F077F916E0FE48AD
:1027F0000068FE490968884203D10020FC4908604E
:102800000CE0FFF769FF09E0FA480068002805D0EE
:1028100001F06CF9FFF7A4FC01F073F970BD10B57D
:10282000024600201146002A02D172B600BFFEE720
:10283000ED4C4B69A34201D1012300E00023002BA2
:1028400011D0ED4C8B6AA34201D1012300E000239B
:10285000002B08D18B6A002B01D1012300E000235B
:10286000002B00D0012010BD70B505462C46002D70
:1028700002D172B600BFFEE7002C27D0DC4800680A
:10288000844223D001F032F92046FFF7C8FF012827
:102890001AD1201DFEF7B5FDD849E06A09688842C3
:1028A00002D9D649E06A08601422E16A5143D44A49
:1028B0008818211DFEF77EFDCD49E06A0968C96AC6
:1028C000884201D301F009F901F01BF970BDF8B598
:1028D000054600262C46002D02D172B600BFFEE749
:1028E000FDF708FC07462046FFF799FF012823D192
:1028F000C448006800281AD1BD49E06A0968C96A5D
:10290000884200D30126201DFEF77BFDBB49E06A0B
:102910000968884202D9B949E06A08601422E16A6C
:102920005143B74A8818211DFEF744FD04E02146B3
:102930001831B148FEF73EFD3846FDF7DFFB304663
:10294000F8BD10B50446206B01F02CF8204601F0CC
:1029500029F810BD70B525E0FFF786FDAA4800688C
:10296000002801D1012000E000200546FFF7CFFC40
:10297000002D17D101F0BAF8A348C068C468201D23
:10298000FEF73FFD99480068401E984908609F483F
:102990000068401E9D49086001F0B3F82046FFF72B
:1029A000D0FF00BF994800680028D5D170BD00BF96
:1029B000FFF7D0FF924800680128F9D901F08DF89F
:1029C000F6E71FB50020924A00900290034601925C
:1029D000039080228FA19148FFF735FB0446012C1C
:1029E00002D100F020FE0446012C09D172B601206C
:1029F0008049086000208A49086001F047F804E037
:102A0000002C02D172B600BFFEE71FBD10B572B632
:102A100000207849086001F051F810BD10B501F0B0
:102A200065F87F48046801F06CF8204610BD70B569
:102A3000FDF760FB05467A4804682846FDF75EFB13
:102A4000204670BD6948006870470146002902D1E0
:102A50006748006800E008460246002A02D172B6C4
:102A600000BFFEE710463430704769480068002810
:102A700001D0012000E00020002802D172B600BF82
:102A8000FEE7634800687047654909680918654AA8
:102A90001268914201D8012100E00021002902D1F1
:102AA00072B600BFFEE75E49096809185C4A11600A
:102AB000704770B505460C46002D02D172B600BFB6
:102AC000FEE74B48016818312846FEF77FFC48486E
:102AD0000068001DFEF795FC601C002806D14448E4
:102AE0000168091D4048FEF765FC05E04C48006898
:102AF00006193046FFF799FC70BDF8B505460E463D
:102B00001446002D02D172B600BFFEE73D480068B2
:102B1000002801D0012000E00020002802D172B678
:102B200000BFFEE70120C0073043314909688861D2
:102B30002F48016818312846FEF73CFC2C480068F5
:102B4000001DFEF75EFC601C002806D128480168C5
:102B5000091D2548FEF72EFC05E0314800680719DD
:102B60003846FFF762FCF8BD70B504460D46002CF0
:102B700002D172B600BFFEE71D4801681831204639
:102B8000FEF718FC1A480068001DFEF73AFC2448BE
:102B9000006846193046FFF748FC70BD70B5064620
:102BA000F068C468002C02D172B600BFFEE7204670
:102BB0001830FEF726FC13480068002834D1201D89
:102BC000FEF71FFC0D49E06A0968884202D90B49EB
:102BD000E06A08601422E16A5143094A8818211DFD
:102BE000FEF7E8FB25E0000014030020940000201D
:102BF00080000020A0000020EC0200209C000020AB
:102C0000FC010020B8000020000300208C00002000
:102C10009000002049444C4500000000AF290010FE
:102C200098000020B400002021461831FB48FEF730
:102C3000C1FBFB49E06A0968C96A884204D90125D9
:102C40000120F849086000E00025284670BDF8B56D
:102C500005460F46F4480068002801D0012000E036
:102C60000020002802D172B600BFFEE70120C00795
:102C700038432860EC68002C02D172B600BFFEE732
:102C80002846FEF7BEFB201DFEF7BBFBE749E06AC6
:102C90000968884202D9E549E06A08601422E16ABD
:102CA0005143E34A8818211DFEF784FBDC49E06AA2
:102CB0000968C96A884204D901260120D9490860F7
:102CC00000E000263046F8BD002802D172B600BFF1
:102CD000FEE7D84909680160D74909684160704733
:102CE00070B504460D46002C02D172B600BFFEE757
:102CF000002D02D172B600BFFEE700F0F7FECE480D
:102D000002682868401C002801D1002619E0C94942
:102D100020680968884204D06068904201D8012682
:102D20000FE06068101A2968884209D22868616833
:102D3000511A401A28602046FFF7C6FF002600E01F
:102D4000012600F0DEFE304670BD0120B549086066
:102D500070470246002101E0521C491C1078A5284A
:102D6000FAD0890888B27047F8B50446002C02D121
:102D7000AB48006800E0204607463D6B2846FFF759
:102D8000E8FF06463046F8BDA54908687047AB49DC
:102D90000968002901D1012006E0A349096800293A
:102DA00001D1022000E00020704770B505462C4696
:102DB000002D39D09A49E06A0968C96A884233D23D
:102DC000A069C00FC007002805D195480068C06AF7
:102DD0000A21081AA0611422E06A5043944A80181C
:102DE0006169814201D1012000E00020002817D054
:102DF000201DFEF706FB8A480068C06AE0628B4926
:102E0000E06A0968884202D98849E06A08601422A9
:102E1000E16A5143864A8818211DFEF7CBFA03E088
:102E20007F480068C06AE06270BD70B505462C46F8
:102E30000026002D35D07A480068844201D1012057
:102E400000E00020002802D172B600BFFEE7206C2F
:102E5000002802D172B600BFFEE7206C401E20643D
:102E6000E16BE06A88421CD0206C002819D1201D3B
:102E7000FEF7C7FAE06BE0620A21E06A081AA06177
:102E80006A49E06A0968884202D96849E06A0860CC
:102E90001422E16A5143664A8818211DFEF78AFA16
:102EA0000126304670BD5E49096888695C49096839
:102EB000C96A0A22511A5A4A1268916170475848E1
:102EC0000068002806D05649096808464030096C59
:102ED000491C0160524800687047F8B506460C4628
:102EE00000F004FE4E480068406C00281DD101210E
:102EF0004B48006840300172002C16D048480068EA
:102F0000001DFEF77EFA601C002806D144480168C7
:102F1000091D4B48FEF74EFA05E0474800680719BF
:102F20003846FFF782FA00F0D8FD00F0EAFD00F025
:102F3000DDFD3B480068456C002D0DD0002E04D00F
:102F4000002037490968486406E0354909680846A1
:102F50004430496C491E016000213148006840300E
:102F6000017200F0CEFD2846F8BDFFB581B00746DE
:102F700015461C4600F0BAFD294800684030007A2A
:102F8000022825D02649096808464430496CB943CF
:102F9000016001212248006840300172002C17D0E6
:102FA0001F480068001DFEF72CFA601C002806D19F
:102FB0001B480168091D2248FEF7FCF906E01E487F
:102FC0000068001900900098FFF72FFA00F085FDC7
:102FD00000F097FD00F08AFD002D03D01048006836
:102FE000406C28600E4800684030007A012801D10A
:102FF000002608E00A490968084644304A6C0299EC
:103000008A430260012600210548006840300172B1
:1030100000F077FD304605B0F0BD0000EC02002066
:1030200080000020A8000020B80000209C000020A4
:10303000FC010020AC00002098000020A00000202F
:1030400014030020FFB583B007460D461646012045
:103050000190002F02D172B600BFFEE73C4600F09F
:1030600045FD0698002802D0616C06980160482052
:10307000005D0290022148200155330003F015FB4A
:10308000051604080C0E1700606C284360640EE0FF
:10309000606C401C60640AE0656408E002980228E5
:1030A00001D0656401E00020019000E000BF00BF96
:1030B0000298012825D1201DFEF7A3F97049E06A86
:1030C0000968884202D96E49E06A08601422E16A00
:1030D00051436C4A8818211DFEF76CF9A06A00283C
:1030E00001D1012000E00020002802D172B600BF0B
:1030F000FEE76549E06A0968C96A884201D900F0BB
:10310000ECFC00F0FEFC019807B0F0BDFFB583B009
:1031100005460E46174601200190002D02D172B6D9
:1031200000BFFEE72C46FCF7E5FF00904820005D5D
:1031300002900221482001553B0003F0B6FA051623
:1031400004080C0E1700606C304360640EE0606C85
:10315000401C60640AE0666408E00298022801D01E
:10316000666401E00020019000E000BF00BF02980B
:10317000012833D1A06A002801D1012000E00020FD
:10318000002802D172B600BFFEE740480068002860
:1031900013D1201DFEF735F93949E06A09688842E4
:1031A00002D93749E06A08601422E16A5143354A7E
:1031B0008818211DFEF7FEF804E021461831344836
:1031C000FEF7F8F83049E06A0968C96A884205D90B
:1031D0000698002802D00121069801600098FCF7AB
:1031E0008DFF019807B0F0BDF8B505460E46002DDD
:1031F00002D172B600BFFEE72C46FCF77BFF0090C1
:103200004820075D02210155606C401C6064012F5D
:1032100031D1A06A002801D1012000E0002000285F
:1032200002D172B600BFFEE718480068002813D12B
:10323000201DFEF7E6F81249E06A0968884202D9C3
:103240000F49E06A08601422E16A51430D4A881868
:10325000211DFEF7AFF804E0214618310C48FEF7B7
:10326000A9F80949E06A0968C96A884203D9002EA9
:1032700001D0012030600098FCF740FFF8BD00004D
:103280009C000020FC01002080000020B8000020ED
:10329000EC020020F8B504460D4616461F460020F5
:1032A000009065602461B5420CD8F01BA16988428A
:1032B00002D30120009011E0211DF9480068FEF7BB
:1032C00085F80BE0BE4204D2BD4202D3012000903B
:1032D00004E0211DF3480068FEF778F80098F8BD77
:1032E000F0B585B005460C4616461F4600200490F2
:1032F000ED480068002822D0009401960295062C23
:1033000015DAFFF744FD022808D100236946E64894
:103310000A9A0068FEF7DDF9049010E000231A46CF
:103320006946E1480068FEF7D4F9049007E00023FD
:103330003A466946DC480068FEF7ECFB04900498C6
:1033400005B0F0BDFEB52BE0D6480068C068056842
:10335000D4480068C068C468201DFEF752F82046B3
:10336000616A8847E06901281AD1A0694619AE420E
:1033700007D966602461211DCA480068FEF726F857
:103380000EE0002003462A46014600902046FFF743
:10339000A7FF0746002F02D172B600BFFEE700BFAD
:1033A000C04800680068002801D1012000E000202A
:1033B0000028C9D0BB4800680190B9480068B949E5
:1033C0000860B74901980860FEBD70B50446FFF774
:1033D00025FB0546B5480068854204D2FFF7B2FFD9
:1033E0000120206001E000202060B04805602846F0
:1033F00070BDF0B587B06EE0039800280ADA04AF1C
:10340000002F02D172B600BFFEE73A68B96878684B
:10341000904700BF039800285DDB059C6069002889
:1034200001D1012000E00020002802D1201DFDF77D
:10343000E8FF02A8FFF7C9FF05460398030003F061
:1034400034F90A0A06082C2E4407092D2F4800BF1C
:1034500000BF00BF00BF0498A269811803462A4636
:103460002046FFF717FF012816D12046616A8847DA
:10347000E069012810D1002000900498A169421849
:10348000002319462046FFF72BFF0646002E02D1E7
:1034900072B600BFFEE700BF1CE000BF1AE000BF2D
:1034A0000498A061A069002801D0012000E000205C
:1034B000002802D172B600BFFEE7A06941192B4671
:1034C0002A462046FFF7E6FE04E0204600F06AFAAE
:1034D00000E000BF00BF00231A4603A9724800683D
:1034E000FEF718FA002887D107B0F0BDF8B50546F9
:1034F0000F466C480068C068C468201DFDF781FF56
:10350000E069012817D1A06941192B463A462046A7
:10351000FFF7C0FE01280ED1002003462A460146CF
:1035200000902046FFF7DCFE0646002E02D172B660
:1035300000BFFEE700BF2046616A8847F8BDF8B5C6
:1035400004460E46FEF790FF6846FFF73EFF05462D
:103550000098002816D1002E08D1AC4206D8FEF7FC
:10356000D6FE29462046FFF7C1FF0DE0611B4E48FD
:103570000068FEF787FCFEF7CAFE002804D100F0C1
:10358000ACFA01E0FEF7C3FEF8BD0146454A1268F9
:103590001268002A01D1012200E000220A600A68B4
:1035A000002A04D13F4A1268D268106800E0002067
:1035B000704708B500BF6846FFF7E7FF044620469E
:1035C0000099FFF7BCFFFFF714FFF4E710B500F018
:1035D0008DFA35480068002822D13548FDF7DAFE1B
:1035E0003448FDF7D7FE32482E49086031482C494F
:1035F0000860002210212020FDF757FF2A490860AB
:1036000008460068002802D172B600BFFEE72648CF
:103610000068002804D028A123480068FEF71EFC9B
:1036200000F06FFA10BD1FB50024FFF7CFFF1E4852
:10363000006800280DD00020214A05230290009345
:1036400001920390034650221EA12048FEF7FBFC86
:103650000446002C02D172B600BFFEE7204604B03B
:1036600010BDFFB581B006460D461746002D01D1AD
:10367000002411E0282000F011F90446002C0BD0A2
:10368000FFF7A4FF2660A561E761049820620A980D
:103690006062201DFDF78BFE002D19D0012018E07F
:1036A000C0000020BC000020C4000020CC0000208E
:1036B000280300203C030020546D725100000000DC
:1036C000C8000020546D722053766300B33500109B
:1036D0000020002802D172B600BFFEE7204605B0E8
:1036E000F0BD3B480068002801D0012000E0002028
:1036F000002802D172B600BFFEE735480068704767
:1037000001460A461068704770B50446264600F028
:10371000EDF97069002801D1012000E000200121AD
:1037200005464D4000F0EDF9284670BD70B50446E1
:103730002646002C02D172B600BFFEE700F0D6F993
:10374000356A00F0DEF9284670BD70B504460D46B6
:103750002646002C02D172B600BFFEE700F0C6F983
:10376000356200F0CEF970BDF0B585B004460D4667
:1037700016461F460120C04301900294039504960B
:1037800000233A4601A913480068FEF7C3F90090E8
:10379000009805B0F0BDFFB585B004460D4616464D
:1037A0000C480068002802D172B600BFFEE7002076
:1037B000C0430190029403950496002301A9054893
:1037C000089A0068FDF785FF0746384609B0F0BD46
:1037D000C8000020C400002010B50146934800E056
:1037E000006803688B42FBD3024643689B188B42F8
:1037F00004D143684C681B19436001460A464B6874
:103800009B180468A34211D1894C03682468A34221
:1038100008D04B68046864681B194B6003681B6818
:103820000B6005E0824B1B680B6001E003680B60D6
:10383000884200D0016010BD30B501235B037D4894
:103840008407A40F002C05D0C01C80088000794C90
:10385000041B1B1B0246754C22600024734D6C60D8
:10386000D018083880088000714C20600024704D0A
:103870002D686C606E4D2D682C601146441A4C60AA
:103880006B4C24680C606C4D4C682C606B4D4C6824
:103890002C600124E4076A4D2C6030BDF8B5044665
:1038A00000200090FEF7E0FD61480068002801D18B
:1038B000FFF7C2FF624800682040002861D1002C59
:1038C00015D00834A007800F002810D0A007800F63
:1038D0000421081A0419A007800F002801D1012033
:1038E00000E00020002802D172B600BFFEE7002CE5
:1038F00047D052480068844243D84C4E3046056851
:1039000001E02E462D686868A04202D2286800288F
:10391000F7D147480068854233D0306808300090BE
:10392000286830606868001B102813D92F19B80761
:10393000800F002801D1012000E00020002802D1E2
:1039400072B600BFFEE76868001B78606C6038469E
:10395000FFF742FF394968680968081A3749086063
:103960000846006834490968884203D23348006831
:103970003149086032496868096808436860002076
:103980002860FEF7C4FC00988007800F002801D152
:10399000012000E00020002802D172B600BFFEE73F
:1039A0000098F8BD70B506463546002E35D0083D66
:1039B0002C462349606809680840002801D001208E
:1039C00000E00020002802D172B600BFFEE72068A8
:1039D000002801D1012000E00020002802D172B6A9
:1039E00000BFFEE71649606809680840002814D047
:1039F0002068002811D11249606809688843606016
:103A0000FEF732FD0D496068096840180B490860EF
:103A10002046FFF7E1FEFEF77AFC70BD074800681C
:103A2000704705480068704770470000D0000020CC
:103A3000D800002050030020E0000020DC0000201F
:103A4000E400002040480068401C002801D101200B
:103A500000E00020002802D172B600BFFEE772B677
:103A600000BFFEE7001F01231B060360001F01606B
:103A7000001F364B036014380260203870477047CF
:103A800033483449486107200861704710B532480F
:103A9000006AFF21090408432F4908620846006AAA
:103AA000FF21090608432C490862FFF7E9FF0020BF
:103AB00025490860FCF70EFB002010BD2248006875
:103AC0007D21C900884201D1012000E000200028AA
:103AD00002D172B600BFFEE77047012000071E4901
:103AE0004860BFF34F8FBFF36F8F704772B61648B1
:103AF0000068401C14490860BFF34F8FBFF36F8FFD
:103B0000704711480068002802D172B600BFFEE776
:103B10000D480068401E0C490860084600680028EF
:103B200000D162B6704710B5FCF7E4FA0446FEF720
:103B300071FB002803D00120000707494860204698
:103B4000FCF7DCFA10BD0000E8000020453A001048
:103B5000FFF9000000E000E000ED00E004488047CD
:103B600004480047FEE7FEE7FEE7FEE7FEE7FEE764
:103B7000813B0010C10000100348044908607047F1
:103B800001480249086070470090D003EC00002013
:103B9000F1B5F84880470746F74880470646F54C98
:103BA0000120183CA047F44D00200C35A847F349EC
:103BB000009888473046A8473846A047F8BDF0B57A
:103BC000EF4DF048E96885B00818044602F073F933
:103BD0002146401C02F079F90024E9480125C66815
:103BE000E8480C3831180391487C097C00020843EE
:103BF000A540284202903BD00B2060438119E14848
:103C0000009109300818019002F055F90746DD4887
:103C1000301802F050F987422AD10F21009889010B
:103C20004018007D00280CD0D64A00990D3A8A1819
:103C3000517D127D090211437818019902F045F96E
:103C400005E002980399A8430874000A4874CD4817
:103C500000990D30081802F02EF9002808D0022D26
:103C600019D0042D17D0082D15D0102D1AD080474B
:103C7000641CE4B20A2CB0D3C148C168C1480C38F6
:103C80000918487C097C00020843800501D1BE4820
:103C9000804705B0F0BDBD49012088470028E7D026
:103CA000222005E0B949012088470028E0D03B20C8
:103CB000FFF76EFFDCE7FEB500206946087108706B
:103CC000B34F0872B34EAE4CB847207102AB6A4690
:103CD00001A9606901F0EDFF002836D00820B04747
:103CE000002803D00220B04700280FD06846007893
:103CF000012811D0E0686569407A012826D00228A1
:103D0000E2D1A54A217928469047DDE7012168469E
:103D10000170007A002815D02521E068490141187A
:103D2000497B002908D09749D4314018417B027B58
:103D300008029A49104388476846974A01799632A3
:103D40006069E1E73D20FFF723FFFEBD287800070B
:103D5000000F0528B8D18E49EE31A81C8847287875
:103D600087224006C10FE06811540622A91C883042
:103D700002F070F83721206902F085F8A4E7F0B569
:103D8000824999B00420884700280ED07F4904203A
:103D90001A3188477C491F20AC31884780488047CA
:103DA0001620FFF7F5FE19B0F0BD7E4880470028C9
:103DB00010D0734DEC68A1790807F4D5E079C207FB
:103DC0001CD07949204698308847E868C17949086D
:103DD00049001FE0734E724F714DB2361C376C466E
:103DE000103507E06846B0470128DCD16846017805
:103DF000601CB847A8470028F4D0D4E782070BD549
:103E0000694A20461C328E30811C9047E868FD22AA
:103E1000C17923E0C171C6E7420708D5624920464F
:103E20006031A8308847E868FB22C17916E00207B4
:103E3000F726002A09DA5C4A21464232A07A0B3181
:103E40009047E868C1793140E4E7C00608D5564993
:103E500068467C318847E868EF22C1791140D9E78C
:103E600020463140FF30A1712130017D002600291C
:103E700010D006752146072287310CA801F0EAFF11
:103E800021460DA82A228E31033001F0E3FF474975
:103E90000CA8884701206946087048708E70E96850
:103EA00000A82A2203308E3101F0D4FF2D220821F0
:103EB0003F4C6B460020A04775E731490128896ACD
:103EC0000FD0022811D0042812D0082813D01028AF
:103ED00014D0202815D0402816D0802818D00120D2
:103EE00070478878C007C00F7047887880070DE05A
:103EF000887840070AE08878000707E08878C006DD
:103F000004E08878800601E088784006C00F70479A
:103F10008878C009704710B50178012920D1401C6C
:103F200001F0C9FF164A10285CD00EDC012818D019
:103F300002283FD0042845D0082811D1FFF7BDFF43
:103F400000280DD10D48563809E020285AD04028C5
:103F500006D1FFF7B2FF002802D10848801E804733
:103F600010BD0120FFF7A9FF0028F9D1FFF707FFD7
:103F700010BD0000BF650000776A0000CF1600008A
:103F8000F0000020CE03000001120000F50A00003E
:103F900049570000791900008B1E00002B620000B9
:103FA000BD600000054E000027260000DF4700002E
:103FB000A13E00000220FFF780FF0028D8D1FFF7C4
:103FC0007AFE10BD0420FFF778FF0028F9D1D068F1
:103FD000407A012803D00228F3D1FE48BFE7FD480C
:103FE000AE38BCE71020FFF768FF0028E9D1906ADF
:103FF0002030407D400701D53E2000E00820FFF73B
:10400000C7FD10BD2020FFF758FF0028F9D1F24866
:10401000A5E770B510250826F04C002821D0A06A2D
:10402000817E31438176014660310A7E6378520990
:104030005201DB06DB0E1A430A762030427B067BF8
:104040001302E26833432332547C167C220232434B
:10405000934214D00273120A4273C87D2843C87574
:104060000DE001F013FEA06A0022014620310A7320
:104070004A736030C17D2943C175D9480677012054
:1040800070BDD648C0682330417C027C08021043D2
:104090000BD0D44948780A78000210430322104319
:1040A0000870000A48700120B3E7704730B4CE4C66
:1040B000A44630BC6047F8B5CA48407A000663D5CC
:1040C000C648C66830462330417C007C0F02C54993
:1040D00007434878097804020C43002F01D1600798
:1040E00052D5C04DA87B697B00026D1C08434BD0A4
:1040F000002F49D068792979000208432ED1213652
:10410000707C317C0002084302F0F0F80022B74BCB
:1041100001F0F0FF02F0F8F880B27843642101F07A
:1041200085FE4004010C2971080A68710A20414388
:10413000707D327D00021043814206D30A21401E69
:1041400001F074FE2871000A68716879297900020B
:10415000084303D10120287100206871A148A107FC
:1041600009D502218C4301210C430470210A4170BE
:104170000020FFF74EFF68792A79010211439C4B1A
:1041800000224020FFF792FFF8BD1CB595494A7AFE
:10419000002A3AD04A780B7812021A43D30634D454
:1041A000437804781802204301282ED1C878401E95
:1041B0000006000EC87029D008468B78017AC279B3
:1041C00009021143027BC47A12022243C01C012B54
:1041D00024D0521A0272120A42721206037A120C88
:1041E0001A43531A69460B804A807E498A7B497B71
:1041F00012020A4369468A80417B027B080210430F
:104200006946C8807B49684688471CBD887AC87063
:10421000402002430A70100A48701CBD5218D9E7AA
:10422000754A1047744A2032104738B50024694651
:104230000C7021467F20FFF7F5FF00213B20FFF7A0
:10424000F1FF29213B20FFF7EDFF69463B20FFF7F7
:10425000E7FF68460078800701D5012038BD641C5F
:10426000A4B2FF2CF1D9002038BD10B563488047B7
:10427000012010BD10B55949614A8870002807D146
:10428000C8688078022803D000209047012010BD24
:104290000120FAE710B5514C0128E168887004D07C
:1042A000002836D002284BD05EE0206B014620313A
:1042B0000A78520852000A700A78FD231A400A70E0
:1042C0000178890989011C310170417889098901C6
:1042D0001C31417000217F20FFF7A4FF0321212022
:1042E000FFF7A0FF1F210320FFF79CFF7D2042491D
:1042F000C0008031884702217F20FFF793FF012112
:104300000020FFF78FFF00217F20FFF78BFF0F2199
:1043100027E000217F20FFF785FF00210420FFF721
:1043200081FF02217F20FFF77DFF00210846FFF774
:1043300079FF00217F20FFF775FF0021032011E0A6
:1043400002217F20FFF76EFF03210020FFF76AFFA5
:1043500000217F20FFF766FF00210320FFF762FFA7
:1043600000210420FFF75EFFA078FFF783FF012004
:1043700010BD10B5FFF78EFF012010BD1F4810B50E
:104380000C3080471548C06A017ADF221140017263
:10439000012010BDFEB51A48183080470F4C01901F
:1043A000E06A817A007ACF07FF0F0026800702D0EB
:1043B0000126FFF7E3FF0948C06A817A49084900EE
:1043C00081720F49012088470220FFF763FF6420B4
:1043D000094917E027150000C1160000F000002071
:1043E00020000240A7230020AB4400000000F43F5F
:1043F0008340001033420000C56100000747000001
:10440000A765000066318847002469460C70254680
:1044100001217F20FFF706FF00210A20FFF702FF9E
:1044200022210A20FFF7FEFE69460A20FFF7F8FE68
:10443000684600784007EFD469460A20FFF7F0FE8F
:1044400068460078400705D568460078000706D41E
:10445000012504E0641CFF48A4B28442ECD3FE4969
:10446000642088470020FFF715FFFC490198884722
:10447000FB48C06A817A4908490039438172002E9D
:1044800001D0F8488047002D01D00120FEBD00205A
:10449000FEBD10B51121F44801F0F5FC10BD70B55A
:1044A0000446401C01F007FD022818D0042819D04A
:1044B00001214904884247D125462035687B0923DC
:1044C00001070209090F0020072A1CD0032A20D067
:1044D000022A25D0012A29D0002A2DD032E0FFF768
:1044E000D8FF3AE0DE4D0121E868FF302130017548
:1044F00001F024FCE8688078002801D1FFF74AFF2A
:10450000FFF793FE29E0581A062148434121C94389
:1045100004E0581A062148433521C943081A10E01F
:10452000581A062148432321C943F7E7581A0621A0
:1045300048431721C943F1E7581A06214843801D13
:10454000404240B2687308E040281DD00121C903F1
:10455000884202D1601DFFF718FEC34948780978E8
:1045600000020843800607D5601C01F0A4FC00058A
:10457000000F01D0FFF79FFDB948383001F09BFCD8
:1045800001462046884770BDB548343001F093FCA1
:104590004006E2D570BDF0B5B14C0646E0688DB07E
:1045A000FF302130407C0D46002829D0002D26D038
:1045B00072B6A068183001F07EFCE1683222FF314B
:1045C0002131897CA94B514340186A4632219847D2
:1045D00062B6002E04D0E068FF302130807C30705D
:1045E000E7680A21FF372137B87C401C01F008FC3E
:1045F000B974E078401CC0B2E0700A2802D90020EB
:104600000DB0F0BD684600780128D1D100A907227D
:104610002846013101F01EFC2A22E81D02A901F002
:1046200019FC0120ECE7F0B5054691498DB020203A
:1046300088478B4C0426E16820690F468670082263
:10464000C01CC931BD3701F005FC20690422394680
:104650000B3001F0FFFB0D21864A03209047E068F4
:10466000294608220A31C13001F0F4FBE0682946EE
:1046700004221231B93001F0EDFB287A7E4F002878
:1046800002D1687A00281FD00020E070E0682A7A02
:1046900001468030837B9A420AD16A7AC07B82428B
:1046A00006D108222846903101F0F8FB002817D0E7
:1046B00069460020FFF76FFF012826D0062200215F
:1046C0006E4B012098479BE7E068022281791143F5
:1046D00002468171C132FF3011461030B84710E0F8
:1046E000E0688179024631438171C13211469830C8
:1046F000B847E06880308079012802D15C49022007
:1047000088475E48A03080477AE7E06801A92A22FE
:104710008E30033101F09EFBB8E7594908471CB5BC
:10472000514808210170002141700146087BCA7A76
:104730000002C91C10432FD04A790B7912021A4388
:10474000821A92B26B461A8058800623062A01D23A
:104750006A461380062801D268464380487B097B5D
:10476000000208436946C8803F48817B427B0802BB
:104770001043694688803A48C0682330417C027CF7
:104780000802104302D00020FFF743FC3D49684671
:1047900088473B49402088471CBD334948780A7800
:1047A00000021043C2050CD5FF220132904308706D
:1047B000000A48700879401E0006000E087109D0F2
:1047C000ADE72022104310229043042210430870CA
:1047D000000A48707047FEB5234D04466878297872
:1047E00000020843000776D52748804769782A7871
:1047F000090211430822914329700A0A6A706B7AF0
:10480000064628461A0667D5A27967791202651C02
:104810003A43134FE41C002A7ED01022114301704A
:104820000A0A4270880657D4687929790002084339
:1048300053D001F05BFD0191009060782178000277
:10484000084301F053FD114C0022234601F052FCB5
:10485000019B1DE0FFFF00002B620000A765000028
:10486000F000002007470000A72300205953000054
:10487000050B00004D11000019220000D91900009D
:10488000B344000033420000BF5500000000F43F75
:10489000009A01F02FFC01910090F8682130417CD2
:1048A000027C0802104301F021FD0022234601F0A2
:1048B00021FC07460C46687A297A00020843801BCF
:1048C00001F000FD3A46234601F014FC019B009ADA
:1048D00001F05EFB28E094E08AE060782178000235
:1048E000084301F0E7FC0446F8682130417C027C73
:1048F0000802104301F0DEFC214601F0EFFA01F05E
:1049000021FD0022FC4B01F0F5FB07460C46687ABE
:10491000297A0002084300E016E0801B01F0D2FC77
:104920003A46234601F0E6FB0022F44B01F04AFC34
:1049300001F0EAFC0104090C00D10121F04B002236
:104940008020FFF7B3FB53E09A0651D58278012A05
:104950004ED18A064CD4FF22EA480132114301703D
:10496000090A41706078217800020843E5490A7B12
:10497000CB7A1102194388423AD901F09BFC0446D4
:10498000F8682130417C027C0802104301F092FC5F
:10499000214601F0A3FA01F0D5FC0022D64B01F02C
:1049A000A9FB07460C46687A297A00020843801B57
:1049B00001F088FC3A46234601F09CFB0022CF4BD5
:1049C00001F000FC01F0A0FC0104090C00D1012160
:1049D000CB4B00228020FFF769FBCA484178027860
:1049E00009021143FF22013211430170090A41708B
:1049F00003206946088102229103C34C02AB0020C8
:104A0000A047FEBD10B50446007800280BD1A17860
:104A100062780802104307D001281CD0032802D175
:104A2000201DFFF700FE10BD01F030F9B749201D31
:104A30008847002802D12820FFF7AAF8201DFFF799
:104A4000CAFEB3480121C368062209040020AE4C07
:104A50003133A04710BD01F019F9AE49201D884738
:104A60000028F7D12820FFF793F810BD10B5007883
:104A7000012801D1FFF7A3F810BD70B5A64886B094
:104A8000804701217F20FFF7CDFB69465020FFF7CB
:104A9000C7FB68460078042801D0A0488047FFF78C
:104AA00079FCFFF7C2FB01246846448004809C48DF
:104AB00001909C4968468847684604704470002409
:104AC00044809948924D0190984BE86808226946C5
:104AD000C01801F0BFF90121954E4020B0470121D7
:104AE0008020B04701212020B0470B21684601807B
:104AF00041808480C480048144818481C4818D4844
:104B0000884904906846A2398847A8680A3001F0AD
:104B1000D2F97C4A884B573A5721984701F00EF951
:104B2000012006B070BD7C4810B50A3080470120D6
:104B300010BD794910B528318847012010BD76494C
:104B400010B55E318847012010BD734910B56A3138
:104B50008847012010BD704910B578318847012081
:104B600010BD6D4910B588318847012010BD10B5C2
:104B7000654C383CA047012010BDF8B5644C6F4926
:104B8000E0683730884720693B230178BF250A0950
:104B9000E16812015B5C1B071B0F1A4302701207CE
:104BA000120F012A79D00B4640335A781B78120233
:104BB0001A430B4642331A70120A5A7002788B7AE3
:104BC0002A409B011A435206520E027066235B5C18
:104BD00042789B1D92099B0692019B0E1A434270DC
:104BE0000622801C0B3101F035F9E1686620425C39
:104BF000002A04D020696731083001F02BF9E06801
:104C000000212030417720694D4A41788906890E7C
:104C1000891C9047206901780A091201121D02704F
:104C2000E1682A408B7ADB075B0E1A430270462349
:104C30005B5C42789B1D92099B0692019B0E1A4376
:104C400042700622801C0B3101F004F9E168462015
:104C5000425C002A04D020694731083001F0FAF89C
:104C60002069374A41782C328906890E891C904781
:104C7000E56801272E462036F07E012862D0002804
:104C800074D0022872D0062870D000231E4C1A4619
:104C900001211846A047F8BDFFE70A4640321379C4
:104CA00053718B7A0278DB072A405B0E1A4302703D
:104CB00087235B5C5206520EDB011A430270427876
:104CC0000B31920992010C3242700622801C01F0D5
:104CD000C1F82069E16806220830883101F0BAF88D
:104CE000E16803223D204254144A8720405C323A56
:104CF0008831904787E725E00000F43F00005940E5
:104D00009B470010A7230020A13E00005D5B000030
:104D1000F0000020475F0000793D0000F7460000EA
:104D20006D4A00102F440000173F0010CE02000013
:104D300061550000054A001059530000B1570000AA
:104D4000D96000004035687900280BD02820062162
:104D5000A26A937EFD24234093761775737F327F7A
:104D60003BE003E001206F710146F1E72C4642343D
:104D70006078217802020A4316D02235697F192013
:104D80002B7F800109024243194301208904890CC9
:104D9000009105D0104601F033F8401C7F2809D857
:104DA000C5B22770380A0CE0380A277060700125F8
:104DB000009507E07F2529467E3001F021F820701C
:104DC000000A6070F848806A817E02221143817671
:104DD0000775737F327F00992846F44CA047F3484B
:104DE0003E30804757E710B5FFF7C7FE012010BDE2
:104DF00010B5EF4903200870EE4964208847EE485B
:104E00008047012010BD72B60021E74A906A4175C3
:104E1000037C01210B430374D068452211544230B6
:104E200001700021417062B60120704710B5E3495E
:104E30008847012010BDE14810B55C308047012053
:104E400010BD10B5DE488047012010BDDC4910B50B
:104E500008318847012010BDD94910B5163188475F
:104E6000012010BDD64910B578318847012010BD0A
:104E7000CD49487001207047D14910B58631884727
:104E8000012010BDCE4A10B58E329047012010BDD2
:104E90007CB5054601F00FF8C3490446343101F0F2
:104EA00014F8281D01F007F8BF49383101F00DF85A
:104EB00040208443C348C24901900094684696311B
:104EC000884701207CBD10B5BF498847012010BD2F
:104ED000BD4A10B508329047012010BD10B5BB483F
:104EE0008047022801D9002010BD012010BDF8B56F
:104EF0000E460746B6491C4615460120884700283D
:104F00000AD0B2488047022807D92346AE4C2A4629
:104F1000314638461834A047BDE60020BBE6AD490F
:104F2000084710B50446AA4901208847002803D045
:104F3000A84920460831884710BD70B50546A44AE7
:104F40000C4601209047002804D0A24A214628465A
:104F50002232904770BDFFB50F4681B09C491D4677
:104F6000164601200A9C8847002807D00094994CD7
:104F70002B463246394644340198A04705B0F0BD6F
:104F8000F8B50E46074692491C461546012088474B
:104F9000002806D023468F4C2A46314638467C34BA
:104FA000A04778E610B504468949012088470028C3
:104FB00003D088492046AC31884710BD70B50546FE
:104FC000834A0C4601209047002804D0814A21469C
:104FD0002846C632904770BD70B505467C4A0C46DF
:104FE00001209047002804D07A4A21462846E8321A
:104FF000904770BDF8B50E46074675491C461546E4
:1050000001208847002805D02346734C2A463146A4
:105010003846A0473FE670B50D4606466C49144633
:1050200001208847002805D06B4B22462946304690
:105030003033984770BD70B50D4606466449144636
:1050400001208847002805D0634B22462946304678
:105050005C33984770BDF8B50E4607465C491C4660
:10506000154601208847002806D023465A4C2A4678
:10507000314638468834A0470DE610B504465449F9
:1050800001208847002803D053492046B83188477B
:1050900010BD10B54E4901208847002802D04E4867
:1050A000CC30804710BD70B53F4D0446082804D071
:1050B000E868407808280DD014E000217F20FFF731
:1050C000B1F801214020FFF7ADF8E86A0178C9087E
:1050D000C9000EE000217F20FFF7A4F80021402046
:1050E000FFF7A0F8E86A01786207C908C900520F03
:1050F00011430170E8684470012070BDD3E710B51A
:105100000446364880472070012010BD10B5044683
:105110003248801D80472070012010BD2F4910B5F6
:105120001C318847012010BD2C4810B572308047D3
:10513000012010BD2A4800471E491A3908471D4959
:10514000084708B52749684688476846C0788007F9
:10515000C00F08BD08B52349684688476846C0782F
:10516000C00900D0012008BD10B5FFF759F810BDE7
:1051700010B5FFF757F810BD0B48806AC07B0528B3
:1051800005D0062803D00F2801D000207047012049
:10519000704710B5FFF7F0FF002802D10F485230DA
:1051A0008047012010BD0000F00000205F56000085
:1051B0000000024045620000074700000141000076
:1051C0001D4200009F4400102D4300002B4E0000A4
:1051D000F50A0000B73A0000BB3B00009F44000006
:1051E000FB5F00004D65000010B5FF490122886A91
:1051F0004275437CDB09DB019B1C4374931E837463
:105200001B0AC374C96ACB7AEF242340CB724B7B51
:1052100093434B738B7A13438B72817E0223194322
:105220008176017C11430174F04905208847F048DC
:1052300080470120B6E7EE4810B5123080470120C4
:10524000B0E710B5EB4988470120ABE7E94910B555
:10525000183188470120A5E7E54910B5583188473E
:1052600001209FE7E249AC310847E14910B5FA3126
:105270008847012096E710B5DF488047012091E775
:10528000DD4810B51830804701208BE7DA4BA23398
:105290001847D94BD8331847F8B50746D2480026E7
:1052A00080680D463446283000F005FE2903C919F0
:1052B00040180121C904884211D90020EBE472B6DC
:1052C000C9488068283000F0F6FD2103C91940184C
:1052D000CA4A01219047064662B6641CE4B2AC4259
:1052E000EDD33046D7E470B50446BF481646806813
:1052F0000D46283000F0DFFD0346611940180121FA
:10530000C90488420AD8002B08D072B61819BB4BC2
:1053100032462946EA3B984762B670BD002070BD10
:1053200070B50446B048164680680D46283000F037
:10533000C2FD0346611940180121C90488420AD8F8
:10534000002B08D072B61819AC4B32462946823B66
:10535000984762B670BD002070BD70B5A8480024A3
:105360000078A64EA04D00280DD001281ED024E0C4
:1053700072B6143000F09FFD210340180121B047A0
:1053800062B6641CE4B2A868C17B827B0902114347
:10539000A142EDD811E072B6103000F08CFD21036F
:1053A00040180121B04762B6641CE4B2A868C17B12
:1053B000827B09021143A142EDD8012070BD70B576
:1053C00004460D46000B421987488068C17B837BE9
:1053D000090219438A4201D9002070BD8849874ECD
:1053E0000978002902D0012903D00AE072B61430EE
:1053F00001E072B6103000F05EFD00192946B0479A
:1054000062B6012070BDF8B504467D480F460178AC
:1054100075487A4D8068823D1646002902D00129E0
:1054200003D00BE072B6143001E072B6103000F019
:1054300042FD001932463946A84762B601202AE4E7
:1054400030B4694B9C68E37BA47B1B0223431B03A2
:10545000834202D230BC0020704730BCC9B2D2E7D0
:1054600030B4684CA44630BC6047F3B55E4889B0A0
:1054700080680024283000F01EFD07460998460980
:10548000002511E072B668015C4BC01920216A4604
:10549000EA3B984762B6002069460A5C401C121934
:1054A00094B22028F9D36D1CB542EBD30998C606F7
:1054B000F60E72B631466801504BC0196A46EA3B97
:1054C000984762B60020694603E00A5C121994B25C
:1054D000401CB042F9D30A98844202D101200BB09B
:1054E000F0BD0020FBE7F8B541488A388047444CBE
:1054F0005734607A002840D00006042500280FDACF
:105500006078217800020843400709D5FEF7D3FDF3
:105510006078217800020843A8432070000A607078
:105520006078217800020843374F384E41060CD589
:10553000402188432070000A60700220694608807C
:1055400002466B4639460020B04760782178000259
:105550000843C10711D0400840002070010A617063
:10556000800702D56846058002E00520694608806C
:1055700002226B4639460020B04733E424480047F6
:1055800038B5194C2078002805D11A4968467E396B
:10559000884701202070012038BD70B50278002AAC
:1055A00062D0174957314A7242788A72002A01D074
:1055B000042A01D904228A72C27884781302104A1C
:1055C00023435732D3721C0A147344790579240299
:1055D0002C4315466C73240AAC73C4798579200278
:1055E0002843D073000A15E0F00000204562000057
:1055F000E5460000CB65000003480000435400006E
:10560000502300207B4A000000800000A13E0000E3
:10561000F94B00001074FA480825C068D21C2130EC
:10562000447C007C240204430120A342887008D9F2
:105630001B1B07E01071000A01E01571280A507168
:1056400007E0E31A8C7AA3420ADA1071000A50715B
:105650008B72887AC8700871FFF761F8012070BDFD
:10566000E400A342E9DAE5E7002070BDE449496AB5
:105670000870020A4A70020C8A70000EC870487ADC
:10568000022210434872704738B50446002000904B
:10569000DC49684688470099F8208143E006000EFF
:1056A00008430090FFF7E2FF38BD08B500200090E6
:1056B000D4496846884700980006C00E009008BD8F
:1056C000D04872300047CF495A310847CE49084781
:1056D000CD491A310847CD480047CC490C3108471D
:1056E000F8B500260B4604460125304631462D0309
:1056F000675C491CBE19A942FAD30021675C491CAA
:105700007840A942FAD39E4221D190421FD1BC4E8B
:10571000B0680A3000F0CFFB00195722BC4900F0F6
:1057200099FBB0681C3000F0C6FBF1680019072235
:105730000A3100F08FFB0121B64A00209047B54B9B
:10574000002022462946823B9847012029E4002078
:1057500027E470B501260546A94C3603AD4B002061
:105760003146EA3BA2699847AB4928468847A0687A
:105770001C3000F0A0FBA16907224018E1680A3143
:1057800000F068FB0121A34A00209047A14B0020B4
:105790003146823BA269984770BD10B504469848CF
:1057A00080680A3000F087FB9A4B1021EA3B2246C2
:1057B00057309847F6E470B501260546904C3603FD
:1057C000944B00203146EA3BA26998470121914A57
:1057D00000209047A0680A3000F06DFBA1691022FC
:1057E00057314018294600F035FB8A4B00203146DE
:1057F000823BA269984770BD814840690178C943DE
:10580000890702D18078062801D000207047012046
:105810007047824A1047F3B581B0060025D0784F13
:10582000386A0446C17980790D020543E01C00F016
:1058300042FB0102A07801430C46002D17D0002C3A
:1058400015D00121734B09030020EA3BBA69984740
:10585000B8680A3000F02FFBB9696731405C401C22
:10586000C7B2032F05D90220FEBD0120FEBD0420D2
:10587000FEBDB54204D10298844201D10020FEBD94
:105880000121644A002090475D4CA0680A3000F076
:1058900012FBA2695F4B114667314754012109038E
:1058A0000020823B98470320FEBD59480121027821
:1058B000534809078068002A03D0012A07D0002036
:1058C0007047C27B837B10021843400304E0C27B15
:1058D000837B1002184300034018704770B50446DC
:1058E0004B480D46017846480126B60380680029DA
:1058F00003D0012903D0002070BD143000E0103027
:1059000000F0D9FA801972B60019424A2946904728
:1059100062B670BDF8B505463D480F460178384877
:105920000124A40380681646002903D0012903D06E
:105930000020C3E4143000E0103000F0BCFA00197D
:1059400072B64019334B32463946EA3B984762B645
:10595000B4E4F8B505462E480F46017828480124DE
:10596000A40380681646002903D0012903D0002033
:10597000A4E4143000E0103000F09DFA001972B673
:105980004019244B32463946823B984762B695E42B
:1059900010B5030000F089FE09060C16202A444EBB
:1059A000516B870001217F20FEF73CFC882104E039
:1059B00001217F20FEF736FC8A216120FEF732FCB0
:1059C00081216DE001217F20FEF72CFC8A216120DE
:1059D000FEF728FC832163E001217F20FEF722FCF3
:1059E0008A216120FEF71EFC872159E001217F20DA
:1059F000FEF718FC8A216120FEF714FC8F214FE08E
:105A0000F00000204D6500002B620000776A000066
:105A10005023002043540000A13D0000D960000045
:105A200001217F20FEF7FEFB8A216120FEF7FAFBB1
:105A30009F2135E001217F202BE000217F20FEF710
:105A4000F1FB02213020FEF7EDFB01217F20FEF764
:105A5000E9FB1F216320FEF7E5FB03216D20FEF724
:105A6000E1FB8A216120FEF7DDFBB02118E0002177
:105A70007F20FEF7D7FB02213020FEF7D3FB012168
:105A80007F20FEF7CFFB1F216320FEF7CBFB072112
:105A90006D20FEF7C7FB8A216120FEF7C3FBBF2103
:105AA0006520FEF7BFFB85E610B5CE48806828303C
:105AB00000F001FA0121C904081A7BE6CA480078FF
:105AC0007047F8B50546C74EC748B2690078144616
:105AD000002801D0002005E4280502D02805000D8B
:105AE0002D1A72B601210903C04F0020B84762B6D3
:105AF0000120C0042146401B283100F0E6F905468C
:105B00002046103000F0D7F90090281A410800987C
:105B100008182146143100F0D8F901460098081AF7
:105B20000001000CA073000AE07372B60121AF4AB5
:105B30000020EA32904762B672B60121AB4B0903EE
:105B400000206833B269984731210020B268B84715
:105B500062B6012073E4A348A24B00791B790209C5
:105B60001B0709201B0FC01A062300215843072AD0
:105B700008D0032A09D0022A0BD0012A0CD0002A0F
:105B80000DD00FE04121C94301E03521C943081A76
:105B900007E02321C943FAE71721C943F7E7801D2E
:105BA000404241B2C8B27047F3B5914E914F8DB0AB
:105BB0000546002432226B4621460320B047684642
:105BC0004088A84206D1684601790E9801700120EC
:105BD0000FB0F0BDB84204D068460088001984B206
:105BE000E8E70020F4E7F3B5814E824F8DB005461B
:105BF000002432226B4621460320B0476846408885
:105C0000A84208D1241DA1B2012203200E9B00F05E
:105C1000A4F80120DCE7B84204D0684600880019E7
:105C200084B2E6E70020D3E7F3B5714E714F8DB033
:105C30000546002432226B4621460220B0476846C2
:105C40008178427808021043A84205D1684641791C
:105C50000E9801700120BBE7B84204D06846007876
:105C6000001984B2E6E70020B2E75F4910B557316A
:105C70004878097800020843800603D5FEF71BFA2E
:105C8000012097E5002095E55B4B184710B500F023
:105C90009CF8002804D000F098F80128FBD089E592
:105CA00000F093F80028FBD000F08FF80128FBD01B
:105CB00080E5F0B54B4C0025A46AE678360701D59F
:105CC0000020F0BD00BF6D1CEDB2642DFAD3254657
:105CD00040356E7CB607FCD400252646C0363779A1
:105CE00047556D1CEDB2022DF9D346780125F70911
:105CF000002F08D0F606F60E0E7015704278520688
:105D0000D20F1A7004E0B3069B0E0B7000231370C1
:105D1000344B0A789B6A801CC033272A0CD200229D
:105D2000C03403E026798654521CD2B20E789642D3
:105D3000F8D85D720120F0BD5D72C1E770B52F4DDE
:105D40000024284EA847F1680919FF310131641C6D
:105D5000E4B2C873102CF5D370BDFFB5214C02001E
:105D6000E06981B01E460D4606D0012A06D0022AFF
:105D700006D0032A06D009E0001D04E0083002E046
:105D80000C3000E0103000F096F801464D1972B664
:105D900001273F03154B39460020A269984762B698
:105DA000A06931464019039A00F054F872B60121F7
:105DB0000E4A0020EA3290470C4B002039466833E7
:105DC000A269984762B605B0F0BD0648816A0A46E6
:105DD0006032907C927C603101E0887C8A7C9042C9
:105DE000FBD17047F00000205023002059530000E1
:105DF000C9280000FFFF000019220000FB5F00001F
:105E000030B50B46014600202022012409E00D4652
:105E1000D5409D4205D31D469540491B25469540DA
:105E200040191546521E002DF1DC30BD70B500241E
:105E30002546002801DA01244042002901DA012523
:105E40004942FFF7DDFFAC4200D04042002C00D0B9
:105E5000494270BD03460B439B0703D009E008C9C4
:105E6000121F08C0042AFAD203E00B780370401C0A
:105E7000491C521EF9D27047D2B201E00270401C98
:105E8000491EFBD270470022F6E710B513460A46BA
:105E900004461946FFF7F0FF204610BD30B5044612
:105EA0000020034600E05B1C934203D2E05CCD5C23
:105EB000401BF8D030BD0321001D401E03781202A4
:105EC0001A43491EF9D5104670470346032208704D
:105ED000000A491C521EFAD518467047F8B502460A
:105EE0004A40D40F42004B0052085B089A4202D24B
:105EF0000246084611464A0023D0C30D4A00DDB2CF
:105F0000120EAD1A202D35DA49020126490AF6058E
:105F10008A19002C00D0524220214F1B1146B94053
:105F20002A411018C20D9A4221D0002C17D0012D01
:105F300008DCDA05801AD20F8019D207DBB200F034
:105F400081FAF8BDDA05801A012340001B06C0184B
:105F500080185A428018CA0F1043490007E04908C8
:105F6000C2071143DA05801A80194008801800F032
:105F700061FAF8BD61000122511A001BF7E7012206
:105F8000D2075140AAE70122D2075040A6E70000FD
:105F9000F0B507460846584087B0C00F0490480047
:105FA0000E46590040084908BC1A884105D23846B7
:105FB00031461E4617460B4602465800400810431D
:105FC0004CD0300D039040055900400D490D05900F
:105FD000401A0290402872DA18030121000B0905CB
:105FE0000843019004980092002805D0019952427C
:105FF0000020884100920190029840210A1A0199DC
:10600000009800F0E3F905460C466B4607CB00F01C
:10601000FEF9C0197141039A0E0D0023D71756409F
:106020001A467A40164344D0049A002A2DD0029A88
:10603000012A039A15DC1205C01A91410126360582
:10604000001C7141D20F059ED20700930192029667
:106050002A46234600F03CFA07B0F0BD38463146E8
:10606000FAE71605224A0F46B218C01AB7410121B5
:106070000905001C4F4100187F411146181879414D
:10608000E20F10436D19644113E0E2076D081543F8
:106090006408C2071443039A01261205C01A9141ED
:1060A0003605001C7141CE07400830434908C0182E
:1060B00051412A46234600F0FEF9CDE7FFE7049858
:1060C00001224000C117121A00238B410498314667
:1060D000C417381AA141EEE730B40124E407634045
:1060E00030BC55E730B40124E407614030BC4FE7D1
:1060F0000000E0FFF0B51FB488B00B9909980024A8
:1061000048400999C00F490049080991C0070B99F7
:106110000090490049080B9109990898A646084340
:106120001CD00B990A98084318D009980124400004
:10613000420D4800410D099824050003000B20433F
:1061400009900B980003000B20430B9050181C493A
:106150004018002201901446104605E00020014638
:106160000DB0F0BD032801DA034600E003239C468E
:10617000C11A0AAE0AE05F0008ADED5B4F00F75BA5
:106180007D430027AA187C41491C5B1E6145F2DD56
:10619000410004AB5A522104120C0A43240C401C47
:1061A0000828DFDB01980290009970460191009069
:1061B000059B049A0799069800F08AF9D0E7000039
:1061C0000DFCFFFFF0B50C465C4085B0E40FE40722
:1061D00003944C000026640859009446490802467E
:1061E0000296224321D062460A431ED06200570D18
:1061F0004A000E032303550D012402462C492405B1
:10620000781B1B0B360B4018234326436146009036
:106210001C46501AB44103D30098401C009002E081
:10622000921800985B41002803DA0020014605B06F
:10623000F0BD0020012109050746864611E06446AD
:106240001D46141BB54106D36546521BB341744627
:1062500007430C43A646CD07400849082843921837
:106260005B4105460D43EAD11046184313D0604602
:10627000194650407140084306D06046101AB34199
:1062800006D20122002306E000220123DB0702E000
:106290000122D2435310009874460105381C614115
:1062A000029C039D0019694100F005F9BFE7000059
:1062B000FD03000010B500229623114600F0C2F83D
:1062C00010BD00000EB5C217C10F5040CA074018DC
:1062D0000021054B0293019200910A460B4600F003
:1062E000F7F803B000BD0000330400000EB5054907
:1062F0000291002100910A460B46019100F0E8F856
:1063000003B000BD330400004A0009030123090B58
:106310001B051943094B10B5520D9A4201DA0020B2
:1063200010BD064B34339A4203DC9A1A00F05EF833
:1063300010BD03495118884010BD0000FF03000044
:10634000CDFBFFFFC20FD207400040080BD0C10DAC
:106350000723DB01C91840020905400A1143C2089E
:10636000400711437047002001467047F0B51FB445
:106370000646002082B005464024019100901BE0B3
:10638000019922460F46304600F030F8049A059BEA
:10639000801A994110D310461946224600F016F88B
:1063A000361A8F410197224601200021009F00F0FC
:1063B0000DF838184D4100902046641E0028DFDC9F
:1063C000019B00982946324607B0F0BD10B5202A3F
:1063D00004DB0146203A9140002010BD914020236B
:1063E0009C1A0346E3401943904010BD10B5202A83
:1063F00004DB0846203AD040002110BD0B46D340B4
:10640000D0402024A21A91400843194610BD10B56F
:10641000202A06DBCB170846203A1041C1170B4350
:1064200006E00B461341D0402024A21A91400843B5
:10643000194610BD002904DA401C490001D140086A
:106440004000704770B40024050C05D110240004EE
:1064500002D1002921D01124050E01D100020834F7
:10646000050F01D10001241D850F01D18000A41C5E
:10647000002801DB4000641C002908D020252E1BC9
:106480000D46F540A14000D00121294308430106F3
:106490001B1B000ADB1D02D5002070BC7047DB050A
:1064A000181880180029F8DA401C4900F5D170BC92
:1064B00040084000704710B5002B08DA0024401C4B
:1064C000614192185B411A4301D14008400010BD60
:1064D000F0B51FB482B005460C0003D0084600F0AA
:1064E000CDF802E000F0CAF82030024600902146C4
:1064F0002846FFF76BFF049B059A04460F46184396
:106500001143084314D0184610431BD00098402173
:106510000A1A18460599FFF769FF05460E46009AC4
:1065200005990498FFF752FF084305D0012004E0C5
:106530002046394607B0F0BD0020C11705430E4381
:106540002C43374300990E986305401A7905E40AF5
:1065500000220C43FD0A0A3002D500200146E9E77B
:106560000105101969410C9C0D9D00196941FFF747
:10657000A2FFDFE74A0009030123090B1B051943AA
:106580000A4B10B5520D9A4202DA0020014610BDA6
:10659000064B34339A4203DC9A1AFFF727FF10BDEB
:1065A000034BD218FFF712FF10BD0000FF030000DD
:1065B000CDFBFFFF10B5002904DB0124E4074042B6
:1065C0008C412146002B04DB1C460123DB07524291
:1065D000A341994200D1904210BD0000064C012514
:1065E000064E05E0E36807CC2B430C3C984710347B
:1065F000B442F7D3F9F768FD9C6F0010BC6F001030
:1066000070B58C180578401C6B075B0F01D10378BF
:10661000401C2A1106D10278401C03E006780E7057
:10662000401C491C5B1EF9D12B0705D40023521EC8
:106630000DD40B70491CFAE70378401CCB1A921C4E
:1066400003E01D780D70491C5B1C521EF9D5A14258
:10665000D8D3002070BD000037B514460846064B5D
:106660006A46214600F0F8F804466946002000F02A
:106670008FFC20463EBD0000916F00102021020CCF
:1066800001D010211046020A01D010460839020933
:1066900001D01046091F820801D01046891E420809
:1066A00001D0881E7047081A704730B47446641EC3
:1066B0002578641CAB4200D21D46635D5B00E31885
:1066C00030BC184702E008C8121F08C1002AFAD1DE
:1066D00070477047002001E001C1121F002AFBD162
:1066E00070470000F0B51FB486B00998089A030DF2
:1066F0000021024314D05148514A18185043051440
:106700001198012810981AD0281A401C00264D4FC5
:106710004D49009601910490002812DA444211E09C
:106720001198012449A3012801D11098C14306986A
:10673000119A84600360C26041600BB0F0BD4042BA
:10674000E4E70446210500203F4A001C5141039123
:10675000029012E0E00707D032463B4601990098CC
:10676000FFF7C8FC0191009032463B46104619469F
:10677000FFF7C0FC06460F466410002CEAD10498CF
:10678000039B0028029A0999089806DAFFF7B2FCE1
:10679000019B009AFFF7AEFC05E0FFF713FD019B9C
:1067A000009AFFF70FFD04460E460022284BFFF724
:1067B00001FF03D80020C043014607E00022254B1B
:1067C00020463146FFF7E4FBFFF7D4FE102409E032
:1067D000002C0ADB0A220023FFF7C8FD079B30329A
:1067E0001A55641E02460A43F2D11122641C079B0B
:1067F000121B1C19119B012B03D0012308430ED13E
:106800000AE0084304D0112010900020119077E78F
:106810001098151A6D1E0BE01098824202DD0023BD
:106820006D1C03E0824201DA00236D1E002BEED0C6
:10683000069811998260C16030C07EE701FCFFFFBD
:10684000104D0000000014400000F03F3000000038
:106850000000F0430000E03FFFB597B0064600257A
:1068600018E2252877D100242746FD49049400E04A
:106870000443761C32780120203A90400842F7D138
:1068800030782A280ED00222307801463039092982
:1068900016D804990A235943303940181443761CFA
:1068A0000490F1E7189802C804911890002904DABE
:1068B0000120400304434842049002200443761C14
:1068C00030782E2814D1042004437078761C2A28AE
:1068D00009D11898761C80C8189009E00A214F4306
:1068E000303FC719761C3078014630390929F5D96F
:1068F00030786C2810D006DC4C281AD068280ED0CE
:106900006A2817D104E0742813D07A2812D110E035
:106910000120400504430CE00121090501E00321A9
:1069200009050C437178814203D101200005241828
:10693000761C761C3078119066280BD013DC582812
:106940007DD009DC00287BD04528F6D04628F4D03D
:1069500047281AD1A5E118E0632835D0642870D003
:10696000652812D19DE170286CD008DC6728F1D031
:1069700069287BD06E280DD06F2806D1BAE0732825
:106980002ED0752871D0782859D01A9A1999904725
:106990006D1C7EE16002400F022809D003280DD053
:1069A0000428189801680DD00D60001D189070E142
:1069B0001898EA1701680D604A60F6E718980168B0
:1069C0000D80F2E70D70F0E718986A4601781172B1
:1069D000001D18900020507202A80090012005E0D0
:1069E000189802C8189000200091C04361070DD587
:1069F000002101E00199491C0191B94212DA81425A
:106A0000F8DB009A515C0029F4D10BE0002101E091
:106A10000199491C01918142FADB019A0099895C34
:106A20000029F5D1019904981A9B471A2146384646
:106A3000199A00F097FA0199401945180BE04FE0B8
:106A40002CE113E04EE0009800990078491C009179
:106A50001A9A199990470198401E0190401CF2D152
:106A6000214638461A9B199A10E137E00A20002186
:106A7000009001916002410F022907D0189A01CAC3
:106A80001892C2179446032908D00AE01898C01D2E
:106A9000C108C90005C91891944607E000B2C217A1
:106AA0009446042902D140B2C1178C4600226146A7
:106AB000944506DA0A460021404291418C462D2138
:106AC00002E0210504D52B216A461173012103E060
:106AD000E10701D02021F7E7029155E00A200AE002
:106AE000102008E0102000900021042004430191B0
:106AF000082703E008200021019100906002410F67
:106B0000022907D0189A01CA189200229446032934
:106B100008D008E01898C01DC108C90005C918911F
:106B2000944603E080B2042900D1C0B20021029152
:106B3000210729D51199702906D0009A1021019BAF
:106B40004A401A4305D00EE040216A4611730121E4
:106B500008E06146014306D030216A46117311995D
:106B6000517302210291009A0821019B4A401A4365
:106B70000AD16146014301D1610705D530216A463A
:106B8000117301217F1E02911199582904D035A15A
:106B90000E910DA90D910DE037A1F9E76146019B1A
:106BA000009AFFF7E3FB0E9B8C469B5C0D9A521EEE
:106BB0000D92137061460143F0D10D9805A9081A92
:106BC00020300190600703D501200004844300E0D9
:106BD00001270198874201DD381A00E00020019961
:106BE00000904118029809180498401A0490E00394
:106BF00006D421461A9B199A049800F0B3F9451956
:106C0000002706E003A81A9AC05D199990476D1CE9
:106C10007F1C02988742F5DBE0030CD521461A9BC6
:106C2000199A049800F09EF9451904E01A9A302048
:106C3000199990476D1C0099481E00900029F5DCB9
:106C400008E00D980D990078491C0D911A9A199930
:106C500090476D1C0199481E01900029F1DC63E109
:106C60000928010030313233343536373839616222
:106C700063646566000000003031323334353637E6
:106C800038394142434445460000000000F05AF9BB
:106C90004519761C3078002800D0E2E528461BB064
:106CA000F0BD600700D406271898C01DC108C900B0
:106CB00048680A680831C30FDB071891190001D032
:106CC0009CA108E0210501D59BA104E0E10701D0CA
:106CD0009AA100E09AA1430011985B0810916528E1
:106CE0000CD006DC452809D046281DD0472841D1C4
:106CF00041E0662818D067283CD13CE00021112FE4
:106D000001DB112000E0781C0191009008A911A876
:106D1000FFF7E8FC139905910021119A15927F1C49
:106D200012980197009150E00120C00703900120C4
:106D3000019008A9009711A8FFF7D4FC139A1499A1
:106D400005920022119B009212981593059A0192C8
:106D5000002901D0104602E0791C40180190381A31
:106D600001D5019804E04042401E0090781C01903B
:106D7000C01B029043E0012F00DA01270021112FF0
:106D800001DD112000E038460191009008A911A80A
:106D9000FFF7A8FC13990591119A002112981592FA
:106DA0000091019721070CD40599B94201DB0199A3
:106DB00000E00191012904DD159A491E515C30293A
:106DC00006D0B84201DA011D05DA0121029115E071
:106DD0000199491EEDE7002805DC00994118009152
:106DE0000199091A03E0019A411C914200DD0191C9
:106DF0000099401A401C02900120C0070390200710
:106E000006D402990198814202DB0020C04302901F
:106E100000206946C87707AF012103980337C907E7
:106E2000884224D0022011902B2012900398002831
:106E30000CDA404203902D20129007E00A210398BB
:106E4000FEF7DEFF30317F1E039039701199481E26
:106E500011900029F2DC03980028EFD1791E1298D6
:106E600008703078202108404530BF1E387006A8D1
:106E7000C01BC01D039010980078002800D001208E
:106E8000019941180298C017091803980918049825
:106E9000401A401E0490E00306D421461A9B199A1A
:106EA000049800F05FF8451910980078002803D086
:106EB0001A9A199990476D1CE00324D521461A9B14
:106EC000199A049800F04EF845191CE00098002823
:106ED00007DB00990598884203DD1598405C1999F5
:106EE00001E0199930201A9A904700986D1C401CB7
:106EF00000900298401E0290002804D11A9A2E2079
:106F0000199990476D1C0199481E01900029DDDCFC
:106F100005E038781A9A7F1C199990476D1C0399DF
:106F2000481E03900029F4DC21461A9B199A049804
:106F3000ACE600002D0000002B0000002000000047
:106F400000000000F8B5044600251E4617468804D8
:106F500004D405E039462020B0476D1C641EF9D5E5
:106F60002846F8BDFFB50446002581B01E46C8037B
:106F700001D5302700E02027880404D505E03846F5
:106F80000399B0476D1C641EF9D5284605B0F0BDC5
:106F90000A68531C0B60107070470000BC6F001033
:106FA000000000202C010000006600104C70001052
:106FB0002C0100208CA20000D4660010512303197C
:106FC000170201050303018309FF10080609554153
:106FD000525446D21C1360101B5024041A14041A75
:106FE000180422105240581801020304050607082D
:106FF000090A1112131415161718191A1B1E1F1837
:107000001808090A0708111512162C13191418125A
:10701000D01C0150E00401341AFF0101301AAA010A
:10702000111490D003620413ED052320DF1B208F81
:10703000081AC604134A0714201E061B2014141A2B
:0C70400090D821130240190829F08100AB
:04000005100000C126
:00000001FF
