:020000041000EA
:1000000080390020ED0D0010F50D0010F70D0010E7
:1000100000000000000000000000000000000000E0
:10002000000000000000000000000000F90D0010BA
:100030000000000000000000FB0D0010FD0D00108E
:1000400000000000FF0D0010FF0D0010FF0D00105C
:10005000FF0D0010A1020010510A0010030B001048
:10006000FF0D0010FF0D0010FF0D0010FF0D001020
:10007000290D0010FF0D0010FF0D0010FF0D0010E6
:10008000FF0D0010FF0D0010FF0D0010FF0D001000
:10009000FF0D0010FF0D0010FF0D0010FF0D0010F0
:1000A0000000000000000000000000000000000050
:1000B0000000000000000000000000000000000040
:1000C0000348854601F0C6F800480047D5000010F7
:1000D0008039002072B600F0AFFB19A21BA11EA050
:1000E00000F0AEFB012000F0BBFD012000F0D1FDCF
:1000F00000F0BCF920A20021084600F06FFA21A20E
:100100000221002000F06AFA21A20421002000F060
:1001100065FA0EA321A20621002000F05FFA7D20DF
:10012000000100F053FE62B61D4800F051F906E0F0
:10013000012000F0E0FD7D20C00000F047FEF7E761
:1001400031323A30303A32310000000041707220D2
:10015000313920323032320053594438383131206D
:10016000493243206F6C65642064656D6F20257390
:100170003A25730D0A00000053594420496E632E3E
:1001800000000000535944383831312045564200B0
:100190006F6C65642064656D6F000000257300005E
:1001A0000030002001B582B0012002AB00220146E0
:1001B00000903C2000F0C6FA0EBD01B582B00120CF
:1001C00002AB4022014600903C2000F0BBFA0EBD7D
:1001D00070B50646002415E02146B031C8B2FFF7DD
:1001E000E1FF0120FFF7DEFF1020FFF7DBFF002516
:1001F00004E03046FFF7E1FF681CC5B2802DF8DB54
:10020000601CC4B2082CE7DB70BDF8B504460D468F
:1002100016461F4601200090FE48006800798021A4
:1002200088438030FB4909680871FA480068807883
:10023000FE2188436100FE2211400843F549096808
:100240008870F4480068007940218843A901402261
:1002500011400843EF4909680871EE4800680670CC
:10026000310A4170EB48006840794109490106981C
:10027000401EC006C00E0143E64800684171394681
:10028000E548069A006800F0C7FDE248006800797A
:10029000202188432030DF49096808710098F8BDA3
:1002A00008B5DC48006800790007C00F00287BD043
:1002B000D8480068007908218843D6490968087140
:1002C000D6480078401CD549087008460078D449C3
:1002D0000978884216DA20200090D2480078C001C0
:1002E000CE49097849014018CF490968431840228E
:1002F00001213C20FFF789FFC8480178CBA000F01E
:100300009FFA51E00020C5490870C6480078401C9B
:10031000C449087008460078C849097888423FDA1D
:100320000520002815DBC206D20E01219140C44AE7
:10033000116000BF00BF00BFBFF34F8F00BF00BF01
:1003400000BF00BF00BF00BFBFF36F8F00BF00BF83
:1003500000BF00BFB3490978B031C8B2FFF722FF30
:100360000120FFF71FFF1020FFF71CFF052000F002
:100370009FF920200090AB480078C001A749097878
:1003800049014018A84909684318402201213C202E
:10039000FFF73BFFA3480178AAA000F051FA03E061
:1003A000ACA000F04DFA08BD9A48006800794007FB
:1003B000C00F00280AD0ABA000F042FA95480068B0
:1003C00000790421884393490968087100BFEAE76E
:1003D00038B50446002093490870904908700820F9
:1003E000964908709048046004208D4908708D4932
:1003F0000978B031C8B2FFF7D5FE0120FFF7D2FE71
:100400001020FFF7CFFE864803788C480278834897
:10041000017896A000F014FA052000F049F9202098
:10042000009080480078C0017C4909784901401853
:100430000319402201213C20FFF7E7FE38BD70B5CB
:1004400004460D462946B031C8B2FFF7ABFEF02195
:100450002140091108461030FFF7A4FE2107090FBB
:10046000012211430846FFF79DFE70BD10B5012023
:10047000800400F0F5FB0120800400F023FC0A203A
:1004800000F0A4FC0120800400F003FC0A2000F02E
:100490009DFC012212065110012000F019F9AE2036
:1004A000FFF780FE0020FFF77DFE1020FFF77AFEA9
:1004B0004020FFF777FE8120FFF774FECF20FFF783
:1004C00071FEA120FFF76EFEC820FFF76BFEA6208D
:1004D000FFF768FEA820FFF765FE3F20FFF762FEEA
:1004E000D320FFF75FFE0020FFF75CFED520FFF76B
:1004F00059FE8020FFF756FED920FFF753FEF1206A
:10050000FFF750FEDA20FFF74DFE1220FFF74AFEFC
:10051000DB20FFF747FE4020FFF744FE2020FFF7D7
:1005200041FE0220FFF73EFE8D20FFF73BFE142028
:10053000FFF738FEA420FFF735FEA620FFF732FEB6
:10054000AF20FFF72FFE0020FFF742FE00210846F4
:10055000FFF775FF10BDFEB505460E461746002095
:1005600001900024009034E00098385C2038C0B23C
:100570000190782D02DD0025701CC6B23146284658
:10058000FFF75DFF002408E0019909010919424ABB
:10059000505CFFF712FE601CC4B2082CF4DB701C28
:1005A000C1B22846FFF74BFF002409E00199090179
:1005B00009190831384A505CFFF7FFFD601CC4B2CE
:1005C000082CF3DB28460830C5B20098401CC0B2A6
:1005D00000900098385C0028C6D1FEBD0FB4F8B575
:1005E00005460E4600240898002803D1F8BC08BC34
:1005F00004B0184709A800902848009A089900F00C
:10060000F9FEC4B200200090802C00DD8024002080
:10061000224945E0083400200C3400200634002034
:100620000734002004340020003400206E756D5F14
:100630003332627974653A25780D0A00053400205A
:1006400080E100E073746172745F793A25780D0A75
:1006500000000000696D6167652066696E697368F6
:100660000D0A00004552520D0A0000006E756D5FC4
:100670003332627974653A257820656E645F793A21
:100680002578206E756D5F3332627974655F616CB9
:100690006C3A25780D0A0000A72000107C34002059
:1006A00008550A4631462846FFF755FF00BF9DE72B
:1006B000002809DB00BF00BFC206D20E0121914015
:1006C000024A116000BF00BF7047000000E100E077
:1006D00070B504460E461546002C1CD10021284654
:1006E00000F05AFA2946002000F06FFA0B2130463C
:1006F00000F052FA0C21284600F04EFA4B480068F0
:100700004079202188434949096848714F20474969
:100710000968C87015E0012C13D10D21304600F096
:100720003BFA0E21284600F037FA4148006840792C
:10073000202188433E49096848714F203C49096897
:10074000C87070BDF8B504460D4616461F46012018
:100750000090374800680079802188438030344910
:1007600009680871324800688078FE21884361007A
:10077000FE22114008432E49096888702C48006801
:10078000007940218843A9014022114008432849AB
:1007900009680871264800680670310A41702448CB
:1007A00000684079410949010698401EC006C00E04
:1007B00001431F480068417139461E48069A006887
:1007C00000F02AFB1A480068007920218843203075
:1007D00017490968087100BF1548006800790007CB
:1007E000C00F0028F8D0124800680079082188431B
:1007F0000F49096808710E48006800794007C00F6A
:10080000002809D00A480068007904218843084973
:10081000096808710020009005480068007980216F
:1008200088430349096808710098F8BD1034002016
:100830001C3400202034002010B500F027F810BD33
:100840000FB438B5002500240498002803D138BC23
:1008500008BC04B0184705A800900B48009A0499FA
:1008600000F0C8FDC5B200200090802D00DD80257D
:10087000002405E00449085D00F0B2F8601CC4B231
:10088000AC42F7DB00BFE2E7FC34002010B5BE4805
:100890000068C07B80098001C01CBB490968C8731F
:1008A000B9480068007C80098001001DB6490968CC
:1008B0000874B54800682030807820218843B24908
:1008C000096820318870B048006820308078402165
:1008D0008843AD49096820318870AC480068807849
:1008E00040084000A94909688870A8480068007855
:1008F000000900010830A54909680870A34800688C
:10090000007880218843A149096808709F480068E1
:1009100000784021884340309C49096808709B4812
:100920000068C07810218843103098490968C87061
:1009300096480068807804218843001D934909681F
:100940008870924800688078202188438F49096820
:1009500088708E4800688078102188438B49096828
:1009600088708A48006880788021884387490968B0
:1009700088708648006880784021884383490968E8
:100980008870824800680078102188437F49096890
:1009900008707E4800680078202188437B490968F8
:1009A00008707A480068807802218843801C774963
:1009B0000968887075480068C07820218843203015
:1009C00072490968C870062000F0D0F86F480068C6
:1009D00080780821884308306C490968887010BD08
:1009E0006A490968487000BF68490968097889063A
:1009F000C90F0029F8D06549096809782022914378
:100A0000624A12681170704718B502460020002330
:100A1000009314E05D4B1B681B790B54431CD8B248
:100A20006B461B785B1CDCB200946B461B785B1C2E
:100A3000DCB200946B461B785B1CDCB20094534B19
:100A40001B68DB78DB07DB0F002BE3D0107018BDD1
:100A50000CB54E4800680078C006C00F00280CD0C6
:100A60004A4800680078102188434849096808709E
:100A7000694601A8FFF7C8FF00BF44480068007836
:100A80008006C00F002807D0404800680078202169
:100A900088433E49096808703C48006880788007B0
:100AA000C00F002808D039480068807802218843A8
:100AB000801C3649096888700CBD18B502460020B4
:100AC0000023009314E0324B1B681B790B54431C2A
:100AD000D8B26B461B785B1CDCB200946B461B786B
:100AE0005B1CDCB200946B461B785B1CDCB2009490
:100AF000274B1B68DB78DB07DB0F002BE3D0107084
:100B000018BD0CB5224800680078C006C00F002848
:100B10000CD01F4800680078102188431C490968E0
:100B20000870694601A8FFF7C8FF00BF18480068B1
:100B300000788006C00F002807D0154800680078AC
:100B4000202188431249096808701148006880789C
:100B50008007C00F002808D00D4800688078022167
:100B60008843801C0A49096888700CBD002809DB8D
:100B700000BF00BFC206D20E01219140054A11609C
:100B800000BF00BF70470000303400202834002030
:100B90002C34002000E100E010B50246002010E0F7
:100BA000012383401340002B0AD0804B1B6819544B
:100BB0000123834014469C432246002A00D102E0D0
:100BC000401C2028ECD300BF10BDFCB50346784C78
:100BD000221D019200220092002B02D1754A009240
:100BE00003E0012B01D1744A0092009A002A36D00A
:100BF000002013E0012282400D461540002D0CD04C
:100C00002568009E375C0126BE40354325600D46B1
:100C100095432946002900D102E0401C1828E9D359
:100C200000BF182017E0012585402A460D461540D3
:100C3000002D0FD0019D2D780646183E0127B740A4
:100C40003D43EEB2019D2E700D4695432946002985
:100C500000D102E0401C2028E5D300BF00BFFCBD4E
:100C6000564909680A461378194653781B021943F6
:100C700093781B041943D2781206114381434F4ADB
:100C8000126811700B0A53700B0C9370090ED1701F
:100C900070474B4909680A461378194653781B0276
:100CA000194393781B041943D27812061143014368
:100CB000434A126811700B0A53700B0C9370090EA3
:100CC000D17070473E4909680A461378194653782F
:100CD0001B02194393781B041943D278120611435F
:100CE0008143374A126811700B0A53700B0C9370D2
:100CF000090ED1707047324909680A4613781946BF
:100D000053781B02194393781B041943D2781206B7
:100D1000114341402A4A126811700B0A53700B0CA0
:100D20009370090ED170704710B5264800681821DD
:100D300041180A7810464A78120210438A78120441
:100D40001043C978090608431E49096810228A1809
:100D50001378194653781B02194393781B041943DF
:100D6000D27812061143884300281ED01648006826
:100D7000002802D0144800688047124800681821F3
:100D800041180A7810464A78120210438A781204F1
:100D90001043C978090608430A4909680870020A1D
:100DA0004A70020C8A70000EC87010BD30340020EA
:100DB000801000504834002060340020343400207B
:100DC000383400204034002044340020002108E062
:100DD000002201E0531C9AB2034B9A42FADB4B1CEF
:100DE00099B28142F4DB70478C0A000004488047C6
:100DF00004480047FEE7FEE7FEE7FEE7FEE7FEE702
:100E0000090E0010C1000010014802490860704737
:100E10000024F4007834002003460B439B0703D0E2
:100E200009E008C9121F08C0042AFAD203E00B78AF
:100E30000370401C491C521EF9D2704730B50B4656
:100E4000014600202022012409E00D46D5409D42A4
:100E500005D31D469540491B25469540401915462A
:100E6000521E002DF1DC30BDF0B51FB40646002047
:100E700082B005464024019100901BE00199224672
:100E80000F46304600F008FA049A059B801A9941F3
:100E900010D310461946224600F0EEF9361A8F415B
:100EA0000197224601200021009F00F0E5F9381843
:100EB0004D4100902046641E0028DFDC019B009815
:100EC0002946324607B0F0BDF0B5074608465840FF
:100ED00087B0C00F049048000E46590040084908EA
:100EE000BC1A884105D2384631461E4617460B4685
:100EF00002465800400810434CD0300D0390400586
:100F00005900400D490D0590401A0290402872DAB0
:100F100018030121000B0905084301900498009271
:100F2000002805D00199524200208841009201908A
:100F3000029840210A1A0199009800F09DF905468F
:100F40000C466B4607CB00F0B8F9C0197141039A03
:100F50000E0D0023D71756401A467A40164344D048
:100F6000049A002A2DD0029A012A039A15DC120550
:100F7000C01A914101263605001C7141D20F059E11
:100F8000D2070093019202962A46234600F0B5F953
:100F900007B0F0BD38463146FAE71605224A0F463B
:100FA000B218C01AB74101210905001C4F410018B1
:100FB0007F41114618187941E20F10436D196441C1
:100FC00013E0E2076D0815436408C2071443039A4F
:100FD00001261205C01A91413605001C7141CE0749
:100FE000400830434908C01851412A46234600F0C2
:100FF00077F9CDE7FFE7049801224000C117121AE4
:1010000000238B4104983146C417381AA141EEE7FA
:1010100030B40124E407634030BC55E730B4012408
:10102000E407614030BC4FE70000E0FFF0B51FB4BB
:1010300088B00B990998002448400999C00F4900CD
:1010400049080991C0070B990090490049080B9184
:1010500009990898A64608431CD00B990A9808439A
:1010600018D0099801244000420D4800410D09980C
:1010700024050003000B204309900B980003000B8C
:1010800020430B9050181C49401800220190144630
:10109000104605E0002001460DB0F0BD032801DA3E
:1010A000034600E003239C46C11A0AAE0AE05F0033
:1010B00008ADED5B4F00F75B7D430027AA187C412C
:1010C000491C5B1E6145F2DD410004AB5A5221040C
:1010D000120C0A43240C401C0828DFDB0198029004
:1010E0000099704601910090059B049A0799069813
:1010F00000F003F9D0E700000DFCFFFFF0B50C464F
:101100005C4085B0E40FE40703944C0000266408BB
:1011100059009446490802460296224321D062466D
:101120000A431ED06200570D4A000E032303550DDB
:10113000012402462C492405781B1B0B360B401852
:1011400023432643614600901C46501AB44103D302
:101150000098401C009002E0921800985B41002823
:1011600003DA0020014605B0F0BD00200121090589
:101170000746864611E064461D46141BB54106D35A
:101180006546521BB341744607430C43A646CD0740
:1011900040084908284392185B4105460D43EAD1AF
:1011A0001046184313D0604619465040714008431A
:1011B00006D06046101AB34106D20122002306E091
:1011C00000220123DB0702E00122D24353100098E2
:1011D00074460105381C6141029C039D0019694158
:1011E00000F07EF8BFE70000FD0300004A0009039D
:1011F0000123090B1B0519430A4B10B5520D9A42E6
:1012000002DA0020014610BD064B34339A4203DC5B
:101210009A1A00F041F810BD034BD21800F02CF8D8
:1012200010BD0000FF030000CDFBFFFF10B500293B
:1012300004DB0124E40740428C412146002B04DBFF
:101240001C460123DB075242A341994200D1904240
:1012500010BD0000064C0125064E05E0E36807CCF2
:101260002B430C3C98471034B442F7D3FEF72CFFC5
:1012700098260010B826001010B5202A04DB01467D
:10128000203A9140002010BD914020239C1A034633
:10129000E3401943904010BD10B5202A04DB0846F6
:1012A000203AD040002110BD0B46D340D04020242E
:1012B000A21A91400843194610BD10B5202A06DB3A
:1012C000CB170846203A1041C1170B4306E00B46E6
:1012D0001341D0402024A21A91400843194610BD62
:1012E00010B5002B08DA0024401C614192185B41C4
:1012F0001A4301D14008400010BDF0B51FB482B0C0
:1013000005460C0003D0084600F086F802E000F025
:1013100083F820300246009021462846FFF7ACFFB4
:10132000049B059A04460F4618431143084314D002
:10133000184610431BD0009840210A1A18460599F8
:10134000FFF7AAFF05460E46009A05990498FFF795
:1013500093FF084305D0012004E02046394607B03A
:10136000F0BD0020C11705430E432C4337430099BD
:101370000E986305401A7905E40A00220C43FD0A21
:101380000A3002D500200146E9E70105101969413C
:101390000C9C0D9D00196941FFF7A2FFDFE770B5B6
:1013A0008C180578401C6B075B0F01D10378401C3B
:1013B0002A1106D10278401C03E006780E70401C0A
:1013C000491C5B1EF9D12B0705D40023521E0DD4F6
:1013D0000B70491CFAE70378401CCB1A921C03E0FF
:1013E0001D780D70491C5B1C521EF9D5A142D8D343
:1013F000002070BD37B514460846064B6A462146A4
:1014000000F0DCF804466946002000F073FC20463A
:101410003EBD0000F51C00102021020C01D010215F
:101420001046020A01D010460839020901D01046C0
:10143000091F820801D01046891E420801D0881E6B
:101440007047081A704702E008C8121F08C1002A36
:10145000FAD170477047002001E001C1121F002A35
:10146000FBD17047F0B51FB484B007980699020D00
:10147000014314D04A484B491018484305140F98AB
:1014800001280E981CD0281A401C0024464E4749BB
:10149000009401910290002814DA474227E00F9847
:1014A000012443A3012808D0002104980F9A8460E6
:1014B0000360C260416009B0F0BD0E98C143F4E71B
:1014C0004042E2E7074612E0F80707D022463346DB
:1014D00001990098FFF7AAFD01910090224633463A
:1014E00010461946FFF7A2FD04460E467F10002F56
:1014F000EAD10298019B0028009A0799069802DA1F
:10150000FFF794FD01E0FFF7F9FD04460E460022C7
:10151000284BFFF78BFE03D80020C043014607E0AD
:101520000022254B20463146FFF7CEFCFFF75EFE3A
:10153000102409E0002C0ADB0A220023FFF794FCA8
:10154000059B30321A55641E02460A43F2D111221D
:10155000641C059B121B1C190F9B012B03D001233C
:1015600008430ED10AE0084304D011200E90002059
:101570000F9084E70E98151A6D1E0BE00E988242AC
:1015800002DD00236D1C03E0824201DA00236D1EA0
:10159000002BEED004980F998260C16030C08AE7BA
:1015A00001FCFFFF104D0000000024400000F03F50
:1015B000300000000000F0430000E03FFFB597B0AE
:1015C0000646002518E2252877D100242746FD4944
:1015D000049400E00443761C32780120203A9040C5
:1015E0000842F7D130782A280ED0022230780146FE
:1015F0003039092916D804990A235943303940183B
:101600001443761C0490F1E7189802C804911890CE
:10161000002904DA012040030443484204900220D8
:101620000443761C30782E2814D1042004437078AB
:10163000761C2A2809D11898761C80C8189009E0D1
:101640000A214F43303FC719761C307801463039A4
:101650000929F5D930786C2810D006DC4C281AD02E
:1016600068280ED06A2817D104E0742813D07A288D
:1016700012D110E00120400504430CE001210905CE
:1016800001E0032109050C437178814203D1012057
:1016900000052418761C761C3078119066280BD033
:1016A00013DC58287DD009DC00287BD04528F6D0F3
:1016B0004628F4D047281AD1A5E118E0632835D090
:1016C000642870D0652812D19DE170286CD008DCA8
:1016D0006728F1D069287BD06E280DD06F2806D1FD
:1016E000BAE073282ED0752871D0782859D01A9A6C
:1016F000199990476D1C7EE16002400F022809D0C5
:1017000003280DD00428189801680DD00D60001D25
:10171000189070E11898EA1701680D604A60F6E7C2
:10172000189801680D80F2E70D70F0E718986A4686
:1017300001781172001D18900020507202A80090CC
:10174000012005E0189802C8189000200091C043BD
:1017500061070DD5002101E00199491C0191B942B1
:1017600012DA8142F8DB009A515C0029F4D10BE0D7
:10177000002101E00199491C01918142FADB019AA3
:101780000099895C0029F5D1019904981A9B471AA0
:1017900021463846199A00F097FA019940194518E0
:1017A0000BE04FE02CE113E04EE000980099007848
:1017B000491C00911A9A199990470198401E01906E
:1017C000401CF2D1214638461A9B199A10E137E0A5
:1017D0000A200021009001916002410F022907D0E8
:1017E000189A01CA1892C2179446032908D00AE031
:1017F0001898C01DC108C90005C91891944607E092
:1018000000B2C2179446042902D140B2C1178C46D7
:1018100000226146944506DA0A4600214042914181
:101820008C462D2102E0210504D52B216A46117337
:10183000012103E0E10701D02021F7E7029155E003
:101840000A200AE0102008E0102000900021042067
:1018500004430191082703E0082000210191009032
:101860006002410F022907D0189A01CA189200227B
:101870009446032908D008E01898C01DC108C90083
:1018800005C91891944603E080B2042900D1C0B282
:1018900000210291210729D51199702906D0009ABB
:1018A0001021019B4A401A4305D00EE040216A46B0
:1018B0001173012108E06146014306D030216A46D8
:1018C00011731199517302210291009A0821019B11
:1018D0004A401A430AD16146014301D1610705D547
:1018E00030216A46117301217F1E029111995829F6
:1018F00004D035A10E910DA90D910DE037A1F9E7A6
:101900006146019B009AFFF7AFFA0E9B8C469B5CE9
:101910000D9A521E0D92137061460143F0D10D983D
:1019200005A9081A20300190600703D501200004A2
:10193000844300E001270198874201DD381A00E066
:101940000020019900904118029809180498401A43
:101950000490E00306D421461A9B199A049800F0DB
:10196000B3F94519002706E003A81A9AC05D199932
:1019700090476D1C7F1C02988742F5DBE0030CD575
:1019800021461A9B199A049800F09EF9451904E023
:101990001A9A3020199990476D1C0099481E0090A2
:1019A0000029F5DC08E00D980D990078491C0D918F
:1019B0001A9A199990476D1C0199481E01900029A7
:1019C000F1DC63E109280100303132333435363738
:1019D000383961626364656600000000303132337B
:1019E000343536373839414243444546000000001B
:1019F00000F05AF94519761C3078002800D0E2E54D
:101A000028461BB0F0BD600700D406271898C01DFB
:101A1000C108C90048680A680831C30FDB0718917C
:101A2000190001D09CA108E0210501D59BA104E08B
:101A3000E10701D09AA100E09AA1430011985B0848
:101A4000109165280CD006DC452809D046281DD009
:101A5000472841D141E0662818D067283CD13CE0B6
:101A60000021112F01DB112000E0781C0191009072
:101A700008A911A8FFF7F6FC139905910021119A06
:101A800015927F1C12980197009150E00120C00729
:101A900003900120019008A9009711A8FFF7E2FC2C
:101AA000139A149905920022119B00921298159393
:101AB000059A0192002901D0104602E0791C4018D5
:101AC0000190381A01D5019804E04042401E009070
:101AD000781C0190C01B029043E0012F00DA01271F
:101AE0000021112F01DD112000E038460191009006
:101AF00008A911A8FFF7B6FC13990591119A0021C6
:101B0000129815920091019721070CD40599B942BA
:101B100001DB019900E00191012904DD159A491EBC
:101B2000515C302906D0B84201DA011D05DA0121E5
:101B3000029115E00199491EEDE7002805DC0099A6
:101B4000411800910199091A03E0019A411C914240
:101B500000DD01910099401A401C02900120C0074D
:101B60000390200706D402990198814202DB0020ED
:101B7000C043029000206946C87707AF012103984F
:101B80000337C907884224D0022011902B201290DD
:101B9000039800280CDA404203902D20129007E0B1
:101BA0000A210398FFF74AF930317F1E03903970FC
:101BB0001199481E11900029F2DC03980028EFD1FA
:101BC000791E129808703078202108404530BF1ED9
:101BD000387006A8C01BC01D03901098007800281C
:101BE00000D00120019941180298C01709180398E4
:101BF00009180498401A401E0490E00306D42146B8
:101C00001A9B199A049800F05FF84519109800780B
:101C1000002803D01A9A199990476D1CE00324D527
:101C200021461A9B199A049800F04EF845191CE0B9
:101C30000098002807DB00990598884203DD159875
:101C4000405C199901E0199930201A9A9047009840
:101C50006D1C401C00900298401E0290002804D188
:101C60001A9A2E20199990476D1C0199481E0190CF
:101C70000029DDDC05E038781A9A7F1C1999904715
:101C80006D1C0399481E03900029F4DC21461A9B21
:101C9000199A0498ACE600002D0000002B0000000B
:101CA0002000000000000000F8B5044600251E4694
:101CB0001746880404D405E039462020B0476D1C3F
:101CC000641EF9D52846F8BDFFB50446002581B04D
:101CD0001E46C80301D5302700E02027880404D51C
:101CE00005E038460399B0476D1C641EF9D52846B7
:101CF00005B0F0BD0A68531C0B60107070470020DF
:101D0000202020FF000000FF40201008000020607D
:101D1000201010FF0000003F404040407800B1B16B
:101D200000040404E424242526242424E4040404D4
:101D3000000040201B0242827E0202020B10600063
:101D400000BEA9000000FC242424E4041F64844590
:101D50003684000044437848497A494C4A794849D6
:101D60007A474000CAA2001060028C00FE02F252C4
:101D70005A565252F2020004047E41300F20134999
:101D8000817F0109132000D4B400404042CC0010F0
:101D90001010907F9010101010000040201F20485D
:101DA000444241404041424C4000B4EF002424A44E
:101DB000FEA3220022CC0000FF0000000008060164
:101DC000FF00010404040404FF02020200BFC60075
:101DD000101010FF109008888888FF8888880800F5
:101DE0000444827F01808040432C1028468180007B
:101DF000BCBC0004040484E43C2724242424E4041C
:101E000004040004020100FF0909090949897F004F
:101E1000000000D3D00000FE225A8600FE9292926B
:101E20009292FE00000000FF04080700FF4020031C
:101E30000C1422414000CFDE0000804020180680B4
:101E40000007182040800000000100207028262193
:101E5000202024386000010100B9AB00001012926C
:101E60009292929292121202FE0000000000003F35
:101E7000101010103F0040807F000000CBBE00001B
:101E800000000000000000002F0000000007000715
:101E90000000147F147F1400242A7F2A1200626439
:101EA00008132300364955225000000503000000A6
:101EB000001C224100000041221C000014083E08C2
:101EC000140008083E0808000000A0600000080890
:101ED00008080800006060000000201008040200EC
:101EE0003E5149453E0000427F4000004261514959
:101EF00046002141454B31001814127F1000274540
:101F0000454539003C4A4949300001710905030043
:101F1000364949493600064949291E00003636002F
:101F2000000000563600000008142241000014147E
:101F30001414140000412214080002015109060083
:101F4000324959513E007C1211127C007F494949A7
:101F500036003E41414122007F4141221C007F4921
:101F6000494941007F09090901003E4149497A0078
:101F70007F0808087F0000417F4100002040413F6A
:101F800001007F08142241007F40404040007F0252
:101F90000C027F007F0408107F003E4141413E005B
:101FA0007F09090906003E4151215E007F09192978
:101FB000460046494949310001017F0101003F4087
:101FC00040403F001F2040201F003F4038403F005E
:101FD000631408146300070870080700615149453D
:101FE0004300007F41410000552A552A5500004119
:101FF000417F0000040201020400404040404000D4
:102000000001020400002054545478007F484444E6
:102010003800384444442000384444487F00385451
:1020200054541800087E0901020018A4A4A47C00DE
:102030007F080404780000447D4000004080847DD7
:1020400000007F102844000000417F4000007C0415
:10205000180478007C0804047800384444443800AC
:10206000FC242424180018242418FC007C080404F0
:102070000800485454542000043F444020003C4091
:1020800040207C001C2040201C003C4030403C0094
:102090004428102844001CA0A0A07C004464544C98
:1020A0004414141414141400000000000000000074
:1020B00000000000000000000000F8000000000028
:1020C0000000333000000000100C06100C06000069
:1020D0000000000000000040C07840C078400004CC
:1020E0003F04043F040400007088FC083000000036
:1020F0001820FF211E0000F008F000E0180000008A
:10210000211C031E211E0000F00888700000001E24
:102110002123241927211010160E000000000000B2
:1021200000000000000000000000E01804020000B1
:102130000000071820400000020418E00000000022
:1021400040201807000000404080F080404000021E
:1021500002010F01020200000000F0000000000177
:1021600001011F01010100000000000000000080CB
:10217000B07000000000000000000000000000003F
:102180000101010101010100000000000000000048
:1021900030300000000000000000008060180400E3
:1021A0006018060100000000E010080810E00000C0
:1021B0000F102020100F00001010F8000000000089
:1021C00020203F20200000007008080888700000D0
:1021D0003028242221300000300888884830000050
:1021E00018202020110E000000C02010F800000070
:1021F000070424243F240000F80888880808000009
:1022000019212020110E0000E0108888180000001D
:102210000F112020110E0000380808C838080000EF
:1022200000003F000000000070880808887000006F
:102230001C222121221C0000E010080810E00000F0
:1022400000312222110F00000000C0C00000000079
:10225000000030300000000000008000000000009E
:102260000080600000000000008040201008000096
:10227000010204081020004040404040404000045B
:10228000040404040404000008102040800000003E
:1022900020100804020100007048080808F000003F
:1022A00000003036010000C030C828E810E0000708
:1022B00018272423140B000000C038E00000002081
:1022C0003C23020227382008F88888887000002004
:1022D0003F202020110E00C03008080808380007F1
:1022E0001820202010080008F808080810E0002036
:1022F0003F202020100F0008F88888E808100020F0
:102300003F20202320180008F88888E808100020C3
:102310003F200003000000C0300808083800000714
:10232000182020221E020008F808000008F80820E3
:102330003F210101213F20000808F80808000000A3
:1023400020203F2020000000000808F8080800C0F6
:102350008080807F00000008F888C02818080020CE
:102360003F20012638200008F80800000000002067
:102370003F20202020300008F8F800F8F80800205E
:102380003F003F003F200008F830C00008F8082058
:102390003F200007183F00E01008080810E0000F79
:1023A00010202020100F0008F808080808F000206E
:1023B0003F210101010000E01008080810E0000FB3
:1023C00018242438504F0008F88888888870002026
:1023D0003F2000030C3020007088080808380000F7
:1023E00038202121221C00180808F80808180000CD
:1023F00000203F2000000008F808000008F808004E
:102400001F202020201F000878880000C8380800FE
:102410000007380E010000F80800F80008F8000373
:102420003C0700073C0300081868808068180820F3
:10243000302C03032C30200838C800C838080000AE
:1024400000203F2000000010080808C838080020BD
:1024500038262120201800000000FE0202020000A1
:1024600000007F40404000000C30C0000000000031
:102470000000010638C00000020202FE0000000059
:102480004040407F000000000004020202040000FF
:1024900000000000000000000000000000000080BC
:1024A00080808080808080000202040000000000A4
:1024B000000000000000000000808080800000001C
:1024C00019242222223F2008F8008080000000000A
:1024D0003F112020110E00000000808080000000CD
:1024E0000E112020201100000000808088F80000DC
:1024F0000E112020103F200000808080800000000E
:102500001F222222221300008080F0888888180071
:1025100020203F202000000000808080808000007C
:102520006B94949493600008F800808080000020F1
:102530003F210000203F200080989800000000000C
:1025400020203F202000000000008098980000001C
:10255000C08080807F000008F8000080808000201C
:102560003F24022D302000000808F8000000000081
:1025700020203F20200000808080808080800020FC
:102580003F20003F20003F808000808080000020AE
:102590003F210000203F200000808080800000005C
:1025A0001F202020201F00808000808000000080ED
:1025B000FFA12020110E000000008080808000001C
:1025C0000E112020A0FF808080800080808000206D
:1025D000203F2120000100000080808080800000DA
:1025E00033242424241900008080E080800000002F
:1025F00000001F202000008080000000808000007C
:102600001F202020103F20808080000080808000DC
:10261000010E300806010080800080008080800F5D
:10262000300C030C300F00008080008080800000A0
:1026300020312E0E3120008080800000808080803C
:10264000818E7018060100008080808080800000EC
:1026500021302C2221300000000000807C0202008A
:10266000000000003F404000000000FF00000000AC
:10267000000000FF0000000002027C80000000005B
:1026800040403F0000000000060101020204040077
:102690000000000000000000B826001000300020FC
:1026A0007C0400009E130010F82700107C340020EA
:1026B000040500005614001001FF216F80C0C0E027
:1026C000E0F00124E0E0C03A300B19093920391D4F
:1026D0001370108925492955E0C0C080C919290106
:1026E000411956B91951890A292129471C1E7FFF12
:1026F000011BF1F12E4008E0E1C1C18387071C03F3
:10270000071F18300CFCF8E0F0FEFFFF3F0F03013D
:1027100029284CFFFF01012C03030F0E2AFEA549B7
:1027200012A91F1969390E7C0383E101513916186A
:102730000B80C0E0F8FCFE7F3F1F075819C91976CF
:102740001C838387012ACF1E827F59528203490F3F
:102750005AC0013AE0622A3F99A91FC90E8B80C373
:10276000017A80171A01DE10093F7FFEFCF8F0C0E5
:10277000802F03030707070F0119083B0703EA71BE
:102780002911DB07070F9901A92C191F3944B90E2C
:10279000B90151890A111986890D01FF3112801C76
:1027A00001509004211C015010041A300469141ABD
:1027B000B0041AD0041AE0041360101B5024041A49
:1027C00014041A1804221052405818010203040578
:1027D000060708090A1112131415161718191A1BDF
:1027E0001E1F181808090A0708111512163C13199C
:0827F00014181324F40000008A
:04000005100000C126
:00000001FF
