:020000041000EA
:1000000080390020ED0D0010F50D0010F70D0010E7
:1000100000000000000000000000000000000000E0
:10002000000000000000000000000000F90D0010BA
:100030000000000000000000FB0D0010FD0D00108E
:1000400000000000FF0D0010FF0D0010FF0D00105C
:10005000FF0D0010A1020010510A0010030B001048
:10006000FF0D0010FF0D0010FF0D0010FF0D001020
:10007000290D0010FF0D0010FF0D0010FF0D0010E6
:10008000FF0D0010FF0D0010FF0D0010FF0D001000
:10009000FF0D0010FF0D0010FF0D0010FF0D0010F0
:1000A0000000000000000000000000000000000050
:1000B0000000000000000000000000000000000040
:1000C0000348854601F0C6F800480047D5000010F7
:1000D0008039002072B600F0AFFB19A21BA11EA050
:1000E00000F0AEFB012000F0BBFD012000F0D1FDCF
:1000F00000F0BCF920A20021084600F06FFA21A20E
:100100000221002000F06AFA21A20421002000F060
:1001100065FA0EA321A20621002000F05FFA7D20DF
:10012000000100F053FE62B61D4800F051F906E0F0
:10013000012000F0E0FD7D20C00000F047FEF7E761
:1001400031373A34353A3232000000004E6F7620B3
:100150002035203230323000535944383831312084
:10016000493243206F6C65642064656D6F20257390
:100170003A25730D0A00000053594420496E632E3E
:1001800000000000535944383831312045564200B0
:100190006F6C65642064656D6F000000257300005E
:1001A0000030002001B582B0012002AB00220146E0
:1001B00000903C2000F0C6FA0EBD01B582B00120CF
:1001C00002AB4022014600903C2000F0BBFA0EBD7D
:1001D00070B50646002415E02146B031C8B2FFF7DD
:1001E000E1FF0120FFF7DEFF1020FFF7DBFF002516
:1001F00004E03046FFF7E1FF681CC5B2802DF8DB54
:10020000601CC4B2082CE7DB70BDF8B504460D468F
:1002100016461F4601200090FE48006800798021A4
:1002200088438030FB4909680871FA480068807883
:10023000FE2188436100FE2211400843F549096808
:100240008870F4480068007940218843A901402261
:1002500011400843EF4909680871EE4800680670CC
:10026000310A4170EB48006840794109490106981C
:10027000401EC006C00E0143E64800684171394681
:10028000E548069A006800F0C7FDE248006800797A
:10029000202188432030DF49096808710098F8BDA3
:1002A00008B5DC48006800790007C00F00287BD043
:1002B000D8480068007908218843D6490968087140
:1002C000D6480078401CD549087008460078D449C3
:1002D0000978884216DA20200090D2480078C001C0
:1002E000CE49097849014018CF490968431840228E
:1002F00001213C20FFF789FFC8480178CBA000F01E
:100300009FFA51E00020C5490870C6480078401C9B
:10031000C449087008460078C849097888423FDA1D
:100320000520002815DBC206D20E01219140C44AE7
:10033000116000BF00BF00BFBFF34F8F00BF00BF01
:1003400000BF00BF00BF00BFBFF36F8F00BF00BF83
:1003500000BF00BFB3490978B031C8B2FFF722FF30
:100360000120FFF71FFF1020FFF71CFF052000F002
:100370009FF920200090AB480078C001A749097878
:1003800049014018A84909684318402201213C202E
:10039000FFF73BFFA3480178AAA000F051FA03E061
:1003A000ACA000F04DFA08BD9A48006800794007FB
:1003B000C00F00280AD0ABA000F042FA95480068B0
:1003C00000790421884393490968087100BFEAE76E
:1003D00038B50446002093490870904908700820F9
:1003E000964908709048046004208D4908708D4932
:1003F0000978B031C8B2FFF7D5FE0120FFF7D2FE71
:100400001020FFF7CFFE864803788C480278834897
:10041000017896A000F014FA052000F049F9202098
:10042000009080480078C0017C4909784901401853
:100430000319402201213C20FFF7E7FE38BD70B5CB
:1004400004460D462946B031C8B2FFF7ABFEF02195
:100450002140091108461030FFF7A4FE2107090FBB
:10046000012211430846FFF79DFE70BD10B5012023
:10047000800400F0F5FB0120800400F023FC0A203A
:1004800000F0A4FC0120800400F003FC0A2000F02E
:100490009DFC012212065110012000F019F9AE2036
:1004A000FFF780FE0020FFF77DFE1020FFF77AFEA9
:1004B0004020FFF777FE8120FFF774FECF20FFF783
:1004C00071FEA120FFF76EFEC820FFF76BFEA6208D
:1004D000FFF768FEA820FFF765FE3F20FFF762FEEA
:1004E000D320FFF75FFE0020FFF75CFED520FFF76B
:1004F00059FE8020FFF756FED920FFF753FEF1206A
:10050000FFF750FEDA20FFF74DFE1220FFF74AFEFC
:10051000DB20FFF747FE4020FFF744FE2020FFF7D7
:1005200041FE0220FFF73EFE8D20FFF73BFE142028
:10053000FFF738FEA420FFF735FEA620FFF732FEB6
:10054000AF20FFF72FFE0020FFF742FE00210846F4
:10055000FFF775FF10BDFEB505460E461746002095
:1005600001900024009034E00098385C2038C0B23C
:100570000190782D02DD0025701CC6B23146284658
:10058000FFF75DFF002408E0019909010919424ABB
:10059000505CFFF712FE601CC4B2082CF4DB701C28
:1005A000C1B22846FFF74BFF002409E00199090179
:1005B00009190831384A505CFFF7FFFD601CC4B2CE
:1005C000082CF3DB28460830C5B20098401CC0B2A6
:1005D00000900098385C0028C6D1FEBD0FB4F8B575
:1005E00005460E4600240898002803D1F8BC08BC34
:1005F00004B0184709A800902848009A089900F00C
:10060000F9FEC4B200200090802C00DD8024002080
:10061000224945E0083400200C3400200634002034
:100620000734002004340020003400206E756D5F14
:100630003332627974653A25780D0A00053400205A
:1006400080E100E073746172745F793A25780D0A75
:1006500000000000696D6167652066696E697368F6
:100660000D0A00004552520D0A0000006E756D5FC4
:100670003332627974653A257820656E645F793A21
:100680002578206E756D5F3332627974655F616CB9
:100690006C3A25780D0A0000C32000107C3400203D
:1006A00008550A4631462846FFF755FF00BF9DE72B
:1006B000002809DB00BF00BFC206D20E0121914015
:1006C000024A116000BF00BF7047000000E100E077
:1006D00070B504460E461546002C1CD10021284654
:1006E00000F05AFA2946002000F06FFA0B2130463C
:1006F00000F052FA0C21284600F04EFA4B480068F0
:100700004079202188434949096848714F20474969
:100710000968C87015E0012C13D10D21304600F096
:100720003BFA0E21284600F037FA4148006840792C
:10073000202188433E49096848714F203C49096897
:10074000C87070BDF8B504460D4616461F46012018
:100750000090374800680079802188438030344910
:1007600009680871324800688078FE21884361007A
:10077000FE22114008432E49096888702C48006801
:10078000007940218843A9014022114008432849AB
:1007900009680871264800680670310A41702448CB
:1007A00000684079410949010698401EC006C00E04
:1007B00001431F480068417139461E48069A006887
:1007C00000F02AFB1A480068007920218843203075
:1007D00017490968087100BF1548006800790007CB
:1007E000C00F0028F8D0124800680079082188431B
:1007F0000F49096808710E48006800794007C00F6A
:10080000002809D00A480068007904218843084973
:10081000096808710020009005480068007980216F
:1008200088430349096808710098F8BD1034002016
:100830001C3400202034002010B500F027F810BD33
:100840000FB438B5002500240498002803D138BC23
:1008500008BC04B0184705A800900B48009A0499FA
:1008600000F0C8FDC5B200200090802D00DD80257D
:10087000002405E00449085D00F0B2F8601CC4B231
:10088000AC42F7DB00BFE2E7FC34002010B5BE4805
:100890000068C07B80098001C01CBB490968C8731F
:1008A000B9480068007C80098001001DB6490968CC
:1008B0000874B54800682030807820218843B24908
:1008C000096820318870B048006820308078402165
:1008D0008843AD49096820318870AC480068807849
:1008E00040084000A94909688870A8480068007855
:1008F000000900010830A54909680870A34800688C
:10090000007880218843A149096808709F480068E1
:1009100000784021884340309C49096808709B4812
:100920000068C07810218843103098490968C87061
:1009300096480068807804218843001D934909681F
:100940008870924800688078202188438F49096820
:1009500088708E4800688078102188438B49096828
:1009600088708A48006880788021884387490968B0
:1009700088708648006880784021884383490968E8
:100980008870824800680078102188437F49096890
:1009900008707E4800680078202188437B490968F8
:1009A00008707A480068807802218843801C774963
:1009B0000968887075480068C07820218843203015
:1009C00072490968C870062000F0D0F86F480068C6
:1009D00080780821884308306C490968887010BD08
:1009E0006A490968487000BF68490968097889063A
:1009F000C90F0029F8D06549096809782022914378
:100A0000624A12681170704718B502460020002330
:100A1000009314E05D4B1B681B790B54431CD8B248
:100A20006B461B785B1CDCB200946B461B785B1C2E
:100A3000DCB200946B461B785B1CDCB20094534B19
:100A40001B68DB78DB07DB0F002BE3D0107018BDD1
:100A50000CB54E4800680078C006C00F00280CD0C6
:100A60004A4800680078102188434849096808709E
:100A7000694601A8FFF7C8FF00BF44480068007836
:100A80008006C00F002807D0404800680078202169
:100A900088433E49096808703C48006880788007B0
:100AA000C00F002808D039480068807802218843A8
:100AB000801C3649096888700CBD18B502460020B4
:100AC0000023009314E0324B1B681B790B54431C2A
:100AD000D8B26B461B785B1CDCB200946B461B786B
:100AE0005B1CDCB200946B461B785B1CDCB2009490
:100AF000274B1B68DB78DB07DB0F002BE3D0107084
:100B000018BD0CB5224800680078C006C00F002848
:100B10000CD01F4800680078102188431C490968E0
:100B20000870694601A8FFF7C8FF00BF18480068B1
:100B300000788006C00F002807D0154800680078AC
:100B4000202188431249096808701148006880789C
:100B50008007C00F002808D00D4800688078022167
:100B60008843801C0A49096888700CBD002809DB8D
:100B700000BF00BFC206D20E01219140054A11609C
:100B800000BF00BF70470000303400202834002030
:100B90002C34002000E100E010B50246002010E0F7
:100BA000012383401340002B0AD0804B1B6819544B
:100BB0000123834014469C432246002A00D102E0D0
:100BC000401C2028ECD300BF10BDFCB50346784C78
:100BD000221D019200220092002B02D1754A009240
:100BE00003E0012B01D1744A0092009A002A36D00A
:100BF000002013E0012282400D461540002D0CD04C
:100C00002568009E375C0126BE40354325600D46B1
:100C100095432946002900D102E0401C1828E9D359
:100C200000BF182017E0012585402A460D461540D3
:100C3000002D0FD0019D2D780646183E0127B740A4
:100C40003D43EEB2019D2E700D4695432946002985
:100C500000D102E0401C2028E5D300BF00BFFCBD4E
:100C6000564909680A461378194653781B021943F6
:100C700093781B041943D2781206114381434F4ADB
:100C8000126811700B0A53700B0C9370090ED1701F
:100C900070474B4909680A461378194653781B0276
:100CA000194393781B041943D27812061143014368
:100CB000434A126811700B0A53700B0C9370090EA3
:100CC000D17070473E4909680A461378194653782F
:100CD0001B02194393781B041943D278120611435F
:100CE0008143374A126811700B0A53700B0C9370D2
:100CF000090ED1707047324909680A4613781946BF
:100D000053781B02194393781B041943D2781206B7
:100D1000114341402A4A126811700B0A53700B0CA0
:100D20009370090ED170704710B5264800681821DD
:100D300041180A7810464A78120210438A78120441
:100D40001043C978090608431E49096810228A1809
:100D50001378194653781B02194393781B041943DF
:100D6000D27812061143884300281ED01648006826
:100D7000002802D0144800688047124800681821F3
:100D800041180A7810464A78120210438A781204F1
:100D90001043C978090608430A4909680870020A1D
:100DA0004A70020C8A70000EC87010BD30340020EA
:100DB000801000504834002060340020343400207B
:100DC000383400204034002044340020002108E062
:100DD000002201E0531C9AB2034B9A42FADB4B1CEF
:100DE00099B28142F4DB70478C0A000004488047C6
:100DF00004480047FEE7FEE7FEE7FEE7FEE7FEE702
:100E0000090E0010C1000010014802490860704737
:100E10000024F4007834002003460B439B0703D0E2
:100E200009E008C9121F08C0042AFAD203E00B78AF
:100E30000370401C491C521EF9D2704730B50B4656
:100E4000014600202022012409E00D46D5409D42A4
:100E500005D31D469540491B25469540401915462A
:100E6000521E002DF1DC30BDF0B51FB40646002047
:100E700082B005464024019100901BE00199224672
:100E80000F46304600F008FA049A059B801A9941F3
:100E900010D310461946224600F0EEF9361A8F415B
:100EA0000197224601200021009F00F0E5F9381843
:100EB0004D4100902046641E0028DFDC019B009815
:100EC0002946324607B0F0BDF0B5074608465840FF
:100ED00087B0C00F049048000E46590040084908EA
:100EE000BC1A884105D2384631461E4617460B4685
:100EF00002465800400810434CD0300D0390400586
:100F00005900400D490D0590401A0290402872DAB0
:100F100018030121000B0905084301900498009271
:100F2000002805D00199524200208841009201908A
:100F3000029840210A1A0199009800F09DF905468F
:100F40000C466B4607CB00F0B8F9C0197141039A03
:100F50000E0D0023D71756401A467A40164344D048
:100F6000049A002A2DD0029A012A039A15DC120550
:100F7000C01A914101263605001C7141D20F059E11
:100F8000D2070093019202962A46234600F0B5F953
:100F900007B0F0BD38463146FAE71605224A0F463B
:100FA000B218C01AB74101210905001C4F410018B1
:100FB0007F41114618187941E20F10436D196441C1
:100FC00013E0E2076D0815436408C2071443039A4F
:100FD00001261205C01A91413605001C7141CE0749
:100FE000400830434908C01851412A46234600F0C2
:100FF00077F9CDE7FFE7049801224000C117121AE4
:1010000000238B4104983146C417381AA141EEE7FA
:1010100030B40124E407634030BC55E730B4012408
:10102000E407614030BC4FE70000E0FFF0B51FB4BB
:1010300088B00B990998002448400999C00F4900CD
:1010400049080991C0070B990090490049080B9184
:1010500009990898A64608431CD00B990A9808439A
:1010600018D0099801244000420D4800410D09980C
:1010700024050003000B204309900B980003000B8C
:1010800020430B9050181C49401800220190144630
:10109000104605E0002001460DB0F0BD032801DA3E
:1010A000034600E003239C46C11A0AAE0AE05F0033
:1010B00008ADED5B4F00F75B7D430027AA187C412C
:1010C000491C5B1E6145F2DD410004AB5A5221040C
:1010D000120C0A43240C401C0828DFDB0198029004
:1010E0000099704601910090059B049A0799069813
:1010F00000F003F9D0E700000DFCFFFFF0B50C464F
:101100005C4085B0E40FE40703944C0000266408BB
:1011100059009446490802460296224321D062466D
:101120000A431ED06200570D4A000E032303550DDB
:10113000012402462C492405781B1B0B360B401852
:1011400023432643614600901C46501AB44103D302
:101150000098401C009002E0921800985B41002823
:1011600003DA0020014605B0F0BD00200121090589
:101170000746864611E064461D46141BB54106D35A
:101180006546521BB341744607430C43A646CD0740
:1011900040084908284392185B4105460D43EAD1AF
:1011A0001046184313D0604619465040714008431A
:1011B00006D06046101AB34106D20122002306E091
:1011C00000220123DB0702E00122D24353100098E2
:1011D00074460105381C6141029C039D0019694158
:1011E00000F07EF8BFE70000FD0300004A0009039D
:1011F0000123090B1B0519430A4B10B5520D9A42E6
:1012000002DA0020014610BD064B34339A4203DC5B
:101210009A1A00F041F810BD034BD21800F02CF8D8
:1012200010BD0000FF030000CDFBFFFF10B500293B
:1012300004DB0124E40740428C412146002B04DBFF
:101240001C460123DB075242A341994200D1904240
:1012500010BD0000064C0125064E05E0E36807CCF2
:101260002B430C3C98471034B442F7D3FEF72CFFC5
:10127000B4260010D426001010B5202A04DB014645
:10128000203A9140002010BD914020239C1A034633
:10129000E3401943904010BD10B5202A04DB0846F6
:1012A000203AD040002110BD0B46D340D04020242E
:1012B000A21A91400843194610BD10B5202A06DB3A
:1012C000CB170846203A1041C1170B4306E00B46E6
:1012D0001341D0402024A21A91400843194610BD62
:1012E00010B5002B08DA0024401C614192185B41C4
:1012F0001A4301D14008400010BDF0B51FB482B0C0
:1013000005460C0003D0084600F086F802E000F025
:1013100083F820300246009021462846FFF7ACFFB4
:10132000049B059A04460F4618431143084314D002
:10133000184610431BD0009840210A1A18460599F8
:10134000FFF7AAFF05460E46009A05990498FFF795
:1013500093FF084305D0012004E02046394607B03A
:10136000F0BD0020C11705430E432C4337430099BD
:101370000E986305401A7905E40A00220C43FD0A21
:101380000A3002D500200146E9E70105101969413C
:101390000C9C0D9D00196941FFF7A2FFDFE770B5B6
:1013A0008C180578401C6B075B0F01D10378401C3B
:1013B0002A1106D10278401C03E006780E70401C0A
:1013C000491C5B1EF9D12B0705D40023521E0DD4F6
:1013D0000B70491CFAE70378401CCB1A921C03E0FF
:1013E0001D780D70491C5B1C521EF9D5A142D8D343
:1013F000002070BD37B514460846064B6A462146A4
:1014000000F0EAF804466946002000F081FC20461E
:101410003EBD0000111D00102021020C01D0102142
:101420001046020A01D010460839020901D01046C0
:10143000091F820801D01046891E420801D0881E6B
:101440007047081A704702E008C8121F08C1002A36
:10145000FAD170477047002001E001C1121F002A35
:10146000FBD17047F0B51FB486B00998089A030DF8
:101470000021024314D05148514A18185043051412
:101480001198012810981AD0281A401C00264D4F98
:101490004D49009601910490002812DA444211E06F
:1014A0001198012449A3012801D11098C14306983D
:1014B000119A84600360C26041600BB0F0BD40428D
:1014C000E4E70446210500203F4A001C51410391F6
:1014D000029012E0E00707D032463B46019900989F
:1014E000FFF7A4FD0191009032463B461046194695
:1014F000FFF79CFD06460F466410002CEAD10498C5
:10150000039B0028029A0999089806DAFFF78EFDD6
:10151000019B009AFFF78AFD05E0FFF7EFFD019BB5
:10152000009AFFF7EBFD04460E460022284BFFF71A
:101530007DFE03D80020C043014607E00022254B72
:1015400020463146FFF7C0FCFFF750FE102409E0AB
:10155000002C0ADB0A220023FFF786FC079B3032AF
:101560001A55641E02460A43F2D11122641C079BDD
:10157000121B1C19119B012B03D0012308430ED110
:101580000AE0084304D0112010900020119077E762
:101590001098151A6D1E0BE01098824202DD002390
:1015A0006D1C03E0824201DA00236D1E002BEED099
:1015B000069811998260C16030C07EE701FCFFFF90
:1015C000104D0000000014400000F03F300000000B
:1015D0000000F0430000E03FFFB597B0064600254D
:1015E00018E2252877D100242746FD49049400E01D
:1015F0000443761C32780120203A90400842F7D10B
:1016000030782A280ED00222307801463039092954
:1016100016D804990A235943303940181443761CCC
:101620000490F1E7189802C804911890002904DA90
:101630000120400304434842049002200443761CE6
:1016400030782E2814D1042004437078761C2A2880
:1016500009D11898761C80C8189009E00A214F43D8
:10166000303FC719761C3078014630390929F5D941
:1016700030786C2810D006DC4C281AD068280ED0A0
:101680006A2817D104E0742813D07A2812D110E008
:101690000120400504430CE00121090501E003217C
:1016A00009050C437178814203D1012000052418FB
:1016B000761C761C3078119066280BD013DC5828E5
:1016C0007DD009DC00287BD04528F6D04628F4D010
:1016D00047281AD1A5E118E0632835D0642870D0D6
:1016E000652812D19DE170286CD008DC6728F1D004
:1016F00069287BD06E280DD06F2806D1BAE07328F8
:101700002ED0752871D0782859D01A9A19999047F7
:101710006D1C7EE16002400F022809D003280DD025
:101720000428189801680DD00D60001D189070E114
:101730001898EA1701680D604A60F6E71898016882
:101740000D80F2E70D70F0E718986A460178117283
:10175000001D18900020507202A80090012005E0A2
:10176000189802C8189000200091C04361070DD559
:10177000002101E00199491C0191B94212DA81422C
:10178000F8DB009A515C0029F4D10BE0002101E064
:101790000199491C01918142FADB019A0099895C07
:1017A0000029F5D1019904981A9B471A2146384619
:1017B000199A00F097FA0199401945180BE04FE08B
:1017C0002CE113E04EE0009800990078491C00914C
:1017D0001A9A199990470198401E0190401CF2D125
:1017E000214638461A9B199A10E137E00A20002159
:1017F000009001916002410F022907D0189A01CA96
:101800001892C2179446032908D00AE01898C01D00
:10181000C108C90005C91891944607E000B2C21773
:101820009446042902D140B2C1178C460022614679
:10183000944506DA0A460021404291418C462D210A
:1018400002E0210504D52B216A461173012103E032
:10185000E10701D02021F7E7029155E00A200AE0D4
:10186000102008E010200090002104200443019182
:10187000082703E008200021019100906002410F39
:10188000022907D0189A01CA189200229446032907
:1018900008D008E01898C01DC108C90005C91891F2
:1018A000944603E080B2042900D1C0B20021029125
:1018B000210729D51199702906D0009A1021019B82
:1018C0004A401A4305D00EE040216A4611730121B7
:1018D00008E06146014306D030216A461173119930
:1018E000517302210291009A0821019B4A401A4338
:1018F0000AD16146014301D1610705D530216A460D
:10190000117301217F1E02911199582904D035A12C
:101910000E910DA90D910DE037A1F9E76146019BEC
:10192000009AFFF7A1FA0E9B8C469B5C0D9A521E03
:101930000D92137061460143F0D10D9805A9081A64
:1019400020300190600703D501200004844300E0AB
:1019500001270198874201DD381A00E00020019933
:1019600000904118029809180498401A0490E00366
:1019700006D421461A9B199A049800F0B3F9451928
:10198000002706E003A81A9AC05D199990476D1CBC
:101990007F1C02988742F5DBE0030CD521461A9B99
:1019A000199A049800F09EF9451904E01A9A30201B
:1019B000199990476D1C0099481E00900029F5DC8C
:1019C00008E00D980D990078491C0D911A9A199903
:1019D00090476D1C0199481E01900029F1DC63E1DC
:1019E00009280100303132333435363738396162F5
:1019F00063646566000000003031323334353637B9
:101A000038394142434445460000000000F05AF98D
:101A10004519761C3078002800D0E2E528461BB036
:101A2000F0BD600700D406271898C01DC108C90082
:101A300048680A680831C30FDB071891190001D004
:101A40009CA108E0210501D59BA104E0E10701D09C
:101A50009AA100E09AA1430011985B0810916528B3
:101A60000CD006DC452809D046281DD0472841D196
:101A700041E0662818D067283CD13CE00021112FB6
:101A800001DB112000E0781C0191009008A911A849
:101A9000FFF7E8FC139905910021119A15927F1C1C
:101AA00012980197009150E00120C0070390012097
:101AB000019008A9009711A8FFF7D4FC139A149974
:101AC00005920022119B009212981593059A01929B
:101AD000002901D0104602E0791C40180190381A04
:101AE00001D5019804E04042401E0090781C01900E
:101AF000C01B029043E0012F00DA01270021112FC3
:101B000001DD112000E038460191009008A911A8DC
:101B1000FFF7A8FC13990591119A002112981592CC
:101B20000091019721070CD40599B94201DB019975
:101B300000E00191012904DD159A491E515C30290C
:101B400006D0B84201DA011D05DA0121029115E043
:101B50000199491EEDE7002805DC00994118009124
:101B60000199091A03E0019A411C914200DD01919B
:101B70000099401A401C02900120C00703902007E2
:101B800006D402990198814202DB0020C0430290F2
:101B900000206946C87707AF012103980337C907BA
:101BA000884224D0022011902B2012900398002804
:101BB0000CDA404203902D20129007E00A2103988E
:101BC000FFF73CF930317F1E039039701199481EA0
:101BD00011900029F2DC03980028EFD1791E1298A9
:101BE00008703078202108404530BF1E387006A8A4
:101BF000C01BC01D039010980078002800D0012061
:101C0000019941180298C0170918039809180498F7
:101C1000401A401E0490E00306D421461A9B199AEC
:101C2000049800F05FF8451910980078002803D058
:101C30001A9A199990476D1CE00324D521461A9BE6
:101C4000199A049800F04EF845191CE000980028F5
:101C500007DB00990598884203DD1598405C1999C7
:101C600001E0199930201A9A904700986D1C401C89
:101C700000900298401E0290002804D11A9A2E204B
:101C8000199990476D1C0199481E01900029DDDCCF
:101C900005E038781A9A7F1C199990476D1C0399B2
:101CA000481E03900029F4DC21461A9B199A0498D7
:101CB000ACE600002D0000002B000000200000001A
:101CC00000000000F8B5044600251E4617468804AB
:101CD00004D405E039462020B0476D1C641EF9D5B8
:101CE0002846F8BDFFB50446002581B01E46C8034E
:101CF00001D5302700E02027880404D505E03846C8
:101D00000399B0476D1C641EF9D5284605B0F0BD97
:101D10000A68531C0B60107070470020202020FFC1
:101D2000000000FF4020100800002060201010FF7D
:101D30000000003F404040407800B1B1000404047E
:101D4000E424242526242424E40404040000402060
:101D50001B0242827E0202020B10600000BEA9003C
:101D60000000FC242424E4041F648445368400001D
:101D700044437848497A494C4A7948497A4740006F
:101D8000CAA2001060028C00FE02F2525A56525251
:101D9000F2020004047E41300F201349817F0109C3
:101DA000132000D4B400404042CC00101010907FAB
:101DB0009010101010000040201F20484442414065
:101DC0004041424C4000B4EF002424A4FEA3220072
:101DD00022CC0000FF00000000080601FF00010403
:101DE00004040404FF02020200BFC600101010FF2A
:101DF000109008888888FF88888808000444827FBB
:101E000001808040432C102846818000BCBC000427
:101E1000040484E43C2724242424E404040400046B
:101E2000020100FF0909090949897F00000000D368
:101E3000D00000FE225A8600FE9292929292FE00FC
:101E4000000000FF04080700FF4020030C1422419B
:101E50004000CFDE000080402018068000071820D8
:101E60004080000000010020702826212020243816
:101E70006000010100B9AB000010129292929292A0
:101E800092121202FE0000000000003F101010101D
:101E90003F0040807F000000CBBE0000000000003B
:101EA000000000002F000000000700070000147F62
:101EB000147F1400242A7F2A12006264081323006E
:101EC000364955225000000503000000001C224145
:101ED00000000041221C000014083E0814000808FD
:101EE0003E0808000000A06000000808080808007C
:101EF0000060600000002010080402003E514945C7
:101F00003E0000427F4000004261514946002141AD
:101F1000454B31001814127F100027454545390004
:101F20003C4A4949300001710905030036494949D5
:101F30003600064949291E000036360000000056CA
:101F40003600000008142241000014141414140078
:101F5000004122140800020151090600324959517A
:101F60003E007C1211127C007F49494936003E41F7
:101F7000414122007F4141221C007F4949494100E3
:101F80007F09090901003E4149497A007F08080894
:101F90007F0000417F4100002040413F01007F0859
:101FA000142241007F40404040007F020C027F002D
:101FB0007F0408107F003E4141413E007F0909092E
:101FC00006003E4151215E007F091929460046491D
:101FD0004949310001017F0101003F4040403F007D
:101FE0001F2040201F003F4038403F00631408146A
:101FF0006300070870080700615149454300007FEE
:1020000041410000552A552A55000041417F0000FA
:10201000040201020400404040404000000102046C
:1020200000002054545478007F4844443800384419
:1020300044442000384444487F0038545454180025
:10204000087E0901020018A4A4A47C007F080404EF
:10205000780000447D4000004080847D00007F10B7
:102060002844000000417F4000007C0418047800F0
:102070007C0804047800384444443800FC242424B8
:10208000180018242418FC007C0804040800485494
:1020900054542000043F444020003C4040207C0039
:1020A0001C2040201C003C4030403C0044281028AC
:1020B00044001CA0A0A07C004464544C441414149C
:1020C00014141400000000000000000000000000D4
:1020D000000000000000F8000000000000003330A5
:1020E00000000000100C06100C06000000000000AC
:1020F00000000040C07840C0784000043F04043F26
:10210000040400007088FC08300000001820FF2143
:102110001E0000F008F000E018000000211C031E63
:10212000211E0000F00888700000001E21232419E1
:1021300027211010160E0000000000000000000013
:10214000000000000000E018040200000000071872
:1021500020400000020418E00000000040201807A2
:10216000000000404080F0804040000202010F016A
:10217000020200000000F0000000000101011F0148
:10218000010100000000000000000080B0700000AD
:10219000000000000000000000000000010101013B
:1021A00001010100000000000000000030300000CC
:1021B00000000000000000806018040060180601A4
:1021C00000000000E010080810E000000F102020C0
:1021D000100F00001010F8000000000020203F2029
:1021E00020000000700808088870000030282422B1
:1021F0002130000030088888483000001820202056
:10220000110E000000C02010F80000000704242474
:102210003F240000F80888880808000019212020C1
:10222000110E0000E0108888180000000F11202017
:10223000110E0000380808C83808000000003F00F0
:102240000000000070880808887000001C2221210E
:10225000221C0000E010080810E0000000312222DB
:10226000110F00000000C0C000000000000030306E
:1022700000000000000080000000000000806000FE
:102280000000000000804020100800000102040847
:10229000102000404040404040400004040404043A
:1022A00004040000081020408000000020100804F2
:1022B000020100007048080808F0000000003036F5
:1022C000010000C030C828E810E0000718272423C8
:1022D000140B000000C038E0000000203C23020284
:1022E00027382008F8888888700000203F202020A8
:1022F000110E00C0300808080838000718202020F8
:1023000010080008F808080810E000203F202020EE
:10231000100F0008F88888E8081000203F202023CC
:1023200020180008F88888E8081000203F200003E3
:10233000000000C0300808083800000718202022DC
:102340001E020008F808000008F808203F210101DB
:10235000213F20000808F8080800000020203F2046
:1023600020000000000808F8080800C08080807F76
:1023700000000008F888C028180800203F20012627
:1023800038200008F8080000000000203F2020202E
:1023900020300008F8F800F8F80800203F003F005F
:1023A0003F200008F830C00008F808203F20000750
:1023B000183F00E01008080810E0000F102020204F
:1023C000100F0008F808080808F000203F2101015C
:1023D000010000E01008080810E0000F182424385D
:1023E000504F0008F8888888887000203F2000033C
:1023F0000C3020007088080808380000382021219F
:10240000221C00180808F8080818000000203F20C7
:1024100000000008F808000008F808001F2020202D
:10242000201F000878880000C83808000007380E10
:10243000010000F80800F80008F800033C07000756
:102440003C0300081868808068180820302C0303BB
:102450002C30200838C800C83808000000203F2071
:1024600000000010080808C838080020382621207D
:10247000201800000000FE020202000000007F4061
:10248000404000000C30C0000000000000000106C9
:1024900038C00000020202FE000000004040407F01
:1024A000000000000004020202040000000000001E
:1024B000000000000000000000000080808080809C
:1024C0008080800002020400000000000000000084
:1024D000000000000080808080000000192422227B
:1024E000223F2008F8008080000000003F112020DB
:1024F000110E000000008080800000000E112020DE
:10250000201100000000808088F800000E112020BB
:10251000103F200000808080800000001F222222C7
:10252000221300008080F0888888180020203F2037
:102530002000000000808080808000006B949494D4
:1025400093600008F8008080800000203F21000098
:10255000203F2000809898000000000020203F20AD
:10256000200000000000809898000000C08080805B
:102570007F000008F8000080808000203F24022DAA
:10258000302000000808F8000000000020203F2054
:102590002000008080808080808000203F20003FDD
:1025A00020003F8080008080800000203F210000CC
:1025B000203F200000808080800000001F2020201D
:1025C000201F00808000808000000080FFA120206C
:1025D000110E000000008080808000000E1120207D
:1025E000A0FF80808080008080800020203F21200C
:1025F00000010000008080808080000033242424BB
:10260000241900008080E0808000000000001F206E
:102610002000008080000000808000001F2020201B
:10262000103F20808080000080808000010E3008F4
:1026300006010080800080008080800F300C030C39
:10264000300F0000808000808080000020312E0E3E
:10265000312000808080000080808080818E701812
:1026600006010000808080808080000021302C22C4
:1026700021300000000000807C0202000000000009
:102680003F404000000000FF00000000000000FF8D
:102690000000000002027C800000000040403F007B
:1026A0000000000006010102020404000000000016
:1026B00000000000D4260010003000207C04000040
:1026C0009E130010142800107C3400200405000024
:1026D0005614001001FF216F80C0C0E0E0F001241B
:1026E000E0E0C03A300B19093920391D1370108908
:1026F00025492955E0C0C080C9192901411956B999
:102700001951890A292129471C1E7FFF011BF1F15C
:102710002E4008E0E1C1C18387071C03071F183062
:102720000CFCF8E0F0FEFFFF3F0F030129284CFFEF
:10273000FF01012C03030F0E2AFEA54912A91F1940
:1027400069390E7C0383E101513916180B80C0E012
:10275000F8FCFE7F3F1F075819C919761C83838731
:10276000012ACF1E827F59528203490F5AC0013A73
:10277000E0622A3F99A91FC90E8B80C3017A801796
:102780001A01DE10093F7FFEFCF8F0C0802F030322
:102790000707070F0119083B0703EA712911DB0737
:1027A000070F9901A92C191F3944B90EB901518994
:1027B0000A111986890D01FF3112801C0150900405
:1027C000211C015010041A300469141AB0041AD0E4
:1027D000041AE0041360101B5024041A14041A187D
:1027E0000422105240581801020304050607080984
:1027F0000A1112131415161718191A1B1E1F181870
:1028000008090A0708111512163C13191418132485
:04281000F4000000D0
:04000005100000C126
:00000001FF
