Component: ARM Compiler 5.06 (build 20) Tool: armlink [4d35a3]

==============================================================================

Section Cross References

    main.o(.text) refers to gpio.o(.text) for GPIO_Pin_Turn
    main.o(.text) refers to debug.o(.text) for dbg_printf
    main.o(.text) refers to rtc.o(.text) for rtc_get_calendar
    main.o(.text) refers to uidiv.o(.text) for __aeabi_uidivmod
    main.o(.text) refers to main.o(.text) for BleInit
    main.o(.text) refers to delay.o(.text) for delay_ms
    main.o(.text) refers to timer.o(.text) for timer_0_enable
    main.o(.text) refers to main.o(.data) for RTC_second_now
    main.o(.text) refers to rtc.o(.data) for irq_cb
    gpio.o(.text) refers to gpio.o(.data) for PIN_CONFIG
    gpio.o(.text) refers to gpio.o(.data) for pinmuxtab48
    gpio.o(.text) refers to gpio.o(.data) for pinmuxtab48
    gpio.o(.text) refers to gpio.o(.data) for GPIO_CTRL
    gpio.o(.text) refers to gpio.o(.data) for GPIO_CTRL
    gpio.o(.text) refers to gpio.o(.data) for GPIO_CTRL
    gpio.o(.text) refers to gpio.o(.data) for GPI_CTRL
    gpio.o(.text) refers to gpio.o(.data) for GPI_CTRL
    gpio.o(.text) refers to gpio.o(.data) for GPO_CTRL
==============================================================================

Removing Unused input sections from the image.

    Removing main.o(.rev16_text), (4 bytes).
    Removing main.o(.revsh_text), (4 bytes).
    Removing delay.o(.rev16_text), (4 bytes).
    Removing delay.o(.revsh_text), (4 bytes).
    Removing gpio.o(.rev16_text), (4 bytes).
    Removing gpio.o(.revsh_text), (4 bytes).
    Removing gpio.o(.text), (56 bytes).
    Removing gpio.o(.text), (164 bytes).
    Removing gpio.o(.text), (160 bytes).
    Removing gpio.o(.text), (208 bytes).
    Removing gpio.o(.text), (56 bytes).
    Removing gpio.o(.text), (56 bytes).
    Removing gpio.o(.text), (56 bytes).
    Removing gpio.o(.text), (56 bytes).
    Removing gpio.o(.text), (56 bytes).
    Removing gpio.o(.text), (40 bytes).
    Removing gpio.o(.text), (172 bytes).
    Removing gpio.o(.text), (56 bytes).
==============================================================================

Image Symbol Table

    Local Symbols

    Symbol Name                              Value     Ov Type        Size  Object(Section)

    ../clib/microlib/division.c              0x00000000   Number         0  idiv.o ABSOLUTE
    ../clib/microlib/division.c              0x00000000   Number         0  uidiv.o ABSOLUTE
    ../clib/microlib/division.c              0x00000000   Number         0  uldiv.o ABSOLUTE
    ../clib/microlib/init/entry.s            0x00000000   Number         0  entry7b.o ABSOLUTE
    ../clib/microlib/init/entry.s            0x00000000   Number         0  entry9a.o ABSOLUTE
    ../clib/microlib/init/entry.s            0x00000000   Number         0  entry.o ABSOLUTE
    ../clib/microlib/init/entry.s            0x00000000   Number         0  entry8b.o ABSOLUTE
    ../clib/microlib/init/entry.s            0x00000000   Number         0  entry8a.o ABSOLUTE
    ../clib/microlib/init/entry.s            0x00000000   Number         0  entry2.o ABSOLUTE
    ../clib/microlib/init/entry.s            0x00000000   Number         0  entry11b.o ABSOLUTE
    ../clib/microlib/init/entry.s            0x00000000   Number         0  entry7a.o ABSOLUTE
    ../clib/microlib/init/entry.s            0x00000000   Number         0  entry11a.o ABSOLUTE
    ../clib/microlib/init/entry.s            0x00000000   Number         0  entry5.o ABSOLUTE
    ../clib/microlib/init/entry.s            0x00000000   Number         0  entry10b.o ABSOLUTE
    ../clib/microlib/init/entry.s            0x00000000   Number         0  entry10a.o ABSOLUTE
    ../clib/microlib/init/entry.s            0x00000000   Number         0  entry9b.o ABSOLUTE
    ../clib/microlib/longlong.c              0x00000000   Number         0  llsshr.o ABSOLUTE
    ../clib/microlib/longlong.c              0x00000000   Number         0  llushr.o ABSOLUTE
    ../clib/microlib/longlong.c              0x00000000   Number         0  llshl.o ABSOLUTE
    ../clib/microlib/printf/printf.c         0x00000000   Number         0  printfa.o ABSOLUTE
    ../clib/microlib/stdio/fputc.c           0x00000000   Number         0  fputc.o ABSOLUTE
    ../clib/microlib/stdio/semi.s            0x00000000   Number         0  semi.o ABSOLUTE
    ../clib/microlib/stdio/streams.c         0x00000000   Number         0  stdout.o ABSOLUTE
    ../clib/microlib/string/memcmp.c         0x00000000   Number         0  memcmp.o ABSOLUTE
    ../clib/microlib/string/memcpy.c         0x00000000   Number         0  memcpya.o ABSOLUTE
    ../clib/microlib/string/memcpy.c         0x00000000   Number         0  memcpyb.o ABSOLUTE
    ../clib/microlib/string/memset.c         0x00000000   Number         0  memseta.o ABSOLUTE
    ../clib/microlib/stubs.s                 0x00000000   Number         0  iusefp.o ABSOLUTE
    ../clib/microlib/stubs.s                 0x00000000   Number         0  iusesemip.o ABSOLUTE
    ../clib/microlib/unhosted.c              0x00000000   Number         0  uread4.o ABSOLUTE
    ../clib/microlib/unhosted.c              0x00000000   Number         0  uwrite4.o ABSOLUTE
    ../fplib/microlib/f2d.c                  0x00000000   Number         0  f2d.o ABSOLUTE
    ../fplib/microlib/fpadd.c                0x00000000   Number         0  dadd.o ABSOLUTE
    ../fplib/microlib/fpadd.c                0x00000000   Number         0  fadd.o ABSOLUTE
    ../fplib/microlib/fpdiv.c                0x00000000   Number         0  ddiv.o ABSOLUTE
    ../fplib/microlib/fpepilogue.c           0x00000000   Number         0  depilogue.o ABSOLUTE
    ../fplib/microlib/fpepilogue.c           0x00000000   Number         0  fepilogue.o ABSOLUTE
    ../fplib/microlib/fpfix.c                0x00000000   Number         0  dfixui.o ABSOLUTE
    ../fplib/microlib/fpfix.c                0x00000000   Number         0  dfixul.o ABSOLUTE
    ../fplib/microlib/fpflt.c                0x00000000   Number         0  dfltui.o ABSOLUTE
    ../fplib/microlib/fpflt.c                0x00000000   Number         0  dflti.o ABSOLUTE
    ../fplib/microlib/fpflt.c                0x00000000   Number         0  ffltui.o ABSOLUTE
    ../fplib/microlib/fpmul.c                0x00000000   Number         0  dmul.o ABSOLUTE
    ..\..\..\Driver\debug.c                  0x00000000   Number         0  debug.o ABSOLUTE
    ..\..\..\Driver\delay.c                  0x00000000   Number         0  delay.o ABSOLUTE
    ..\..\..\Driver\gpio.c                   0x00000000   Number         0  gpio.o ABSOLUTE
    ..\..\..\Driver\rtc.c                    0x00000000   Number         0  rtc.o ABSOLUTE
    ..\..\..\Driver\timer.c                  0x00000000   Number         0  timer.o ABSOLUTE
    ..\..\..\Driver\uart.c                   0x00000000   Number         0  uart.o ABSOLUTE
    ..\\..\\..\\Driver\\debug.c              0x00000000   Number         0  debug.o ABSOLUTE
    ..\\..\\..\\Driver\\delay.c              0x00000000   Number         0  delay.o ABSOLUTE
    ..\\..\\..\\Driver\\gpio.c               0x00000000   Number         0  gpio.o ABSOLUTE
    ..\\..\\..\\Driver\\rtc.c                0x00000000   Number         0  rtc.o ABSOLUTE
    ..\\..\\..\\Driver\\timer.c              0x00000000   Number         0  timer.o ABSOLUTE
    ..\\..\\..\\Driver\\uart.c               0x00000000   Number         0  uart.o ABSOLUTE
    ..\\main.c                               0x00000000   Number         0  main.o ABSOLUTE
    ..\main.c                                0x00000000   Number         0  main.o ABSOLUTE
    Main\\main.c                             0x00000000   Number         0  main.o ABSOLUTE
    Main\main.c                              0x00000000   Number         0  main.o ABSOLUTE
    RTE\Device\ARMCM0\startup_ARMCM0.s       0x00000000   Number         0  startup_armcm0.o ABSOLUTE
    RTE\Device\ARMCM0\system_ARMCM0.c        0x00000000   Number         0  system_armcm0.o ABSOLUTE
    RTE\\Device\\ARMCM0\\system_ARMCM0.c     0x00000000   Number         0  system_armcm0.o ABSOLUTE
    cdrcmple.s                               0x00000000   Number         0  cdrcmple.o ABSOLUTE
    dc.s                                     0x00000000   Number         0  dc.o ABSOLUTE
    handlers.s                               0x00000000   Number         0  handlers.o ABSOLUTE
    init.s                                   0x00000000   Number         0  init.o ABSOLUTE
    RESET                                    0x10000000   Section      192  startup_armcm0.o(RESET)
    .ARM.Collect$$$$00000000                 0x100000c0   Section        0  entry.o(.ARM.Collect$$$$00000000)
    .ARM.Collect$$$$00000001                 0x100000c0   Section        4  entry2.o(.ARM.Collect$$$$00000001)
    .ARM.Collect$$$$00000004                 0x100000c4   Section        4  entry5.o(.ARM.Collect$$$$00000004)
    .ARM.Collect$$$$00000008                 0x100000c8   Section        0  entry7b.o(.ARM.Collect$$$$00000008)
    .ARM.Collect$$$$0000000A                 0x100000c8   Section        0  entry8b.o(.ARM.Collect$$$$0000000A)
    .ARM.Collect$$$$0000000B                 0x100000c8   Section        8  entry9a.o(.ARM.Collect$$$$0000000B)
    .ARM.Collect$$$$0000000D                 0x100000d0   Section        0  entry10a.o(.ARM.Collect$$$$0000000D)
    .ARM.Collect$$$$0000000F                 0x100000d0   Section        0  entry11a.o(.ARM.Collect$$$$0000000F)
    .ARM.Collect$$$$00002712                 0x100000d0   Section        4  entry2.o(.ARM.Collect$$$$00002712)
    __lit__00000000                          0x100000d0   Data           4  entry2.o(.ARM.Collect$$$$00002712)
    .text                                    0x100000d4   Section        0  main.o(.text)
    Timer_0_callback                         0x100000d5   Thumb Code    16  main.o(.text)
    RTC_IRQ_Handler                          0x100001c3   Thumb Code    52  main.o(.text)
    .text                                    0x100003b0   Section        0  delay.o(.text)
    .text                                    0x100003ec   Section        0  gpio.o(.text)
    .text                                    0x100004e4   Section        0  timer.o(.text)
    __NVIC_EnableIRQ                         0x10000661   Thumb Code    26  timer.o(.text)
    .text                                    0x10000690   Section        0  debug.o(.text)
    .text                                    0x100006e4   Section        0  rtc.o(.text)
    .text                                    0x10000938   Section        0  uart.o(.text)
    __NVIC_EnableIRQ                         0x10000c19   Thumb Code    26  uart.o(.text)
    .text                                    0x10000c44   Section       28  startup_armcm0.o(.text)
    .text                                    0x10000c60   Section        0  system_armcm0.o(.text)
    .text                                    0x10000c70   Section        0  main.o(.text)
    _LCDisConnect                            0x10000c71   Thumb Code    46  main.o(.text)
    _LCTimer_Handler                         0x10000c9f   Thumb Code   248  main.o(.text)
    _LCRxPkt_Handler                         0x10000deb   Thumb Code   294  main.o(.text)
    _LCTxPkt_Handler                         0x10000f11   Thumb Code   380  main.o(.text)
    _LLENCReq                                0x100017f7   Thumb Code   286  main.o(.text)
    _GAPStartAdv                             0x10001e57   Thumb Code   558  main.o(.text)
    WaitLLCOverSlpth                         0x10003283   Thumb Code    38  main.o(.text)
    _BBRXFIFORead                            0x100032a9   Thumb Code   172  main.o(.text)
    _rom_rx_sweyntooth_protect               0x10003355   Thumb Code   150  main.o(.text)
    STKSetRand                               0x100033eb   Thumb Code    30  main.o(.text)
    AttWriteFlash                            0x10003409   Thumb Code   110  main.o(.text)
    GetOverSlpth                             0x10003477   Thumb Code    26  main.o(.text)
    .text                                    0x100034a0   Section        0  uidiv.o(.text)
    .text                                    0x100034cc   Section        0  idiv.o(.text)
    .text                                    0x100034f4   Section        0  memcpya.o(.text)
    .text                                    0x10003518   Section        0  memseta.o(.text)
    .text                                    0x1000353c   Section        0  memcmp.o(.text)
    .text                                    0x10003556   Section        0  uread4.o(.text)
    .text                                    0x1000356a   Section        0  uwrite4.o(.text)
    .text                                    0x1000357c   Section        0  fadd.o(.text)
    .text                                    0x10003630   Section        0  dadd.o(.text)
    .text                                    0x10003794   Section        0  dmul.o(.text)
    .text                                    0x10003864   Section        0  ddiv.o(.text)
    .text                                    0x10003954   Section        0  ffltui.o(.text)
    .text                                    0x10003964   Section        0  dflti.o(.text)
    .text                                    0x1000398c   Section        0  dfltui.o(.text)
    .text                                    0x100039a8   Section        0  dfixui.o(.text)
    .text                                    0x100039e4   Section        0  f2d.o(.text)
    .text                                    0x10003a0c   Section        0  uldiv.o(.text)
    .text                                    0x10003a6c   Section        0  llshl.o(.text)
    .text                                    0x10003a8c   Section        0  llushr.o(.text)
    .text                                    0x10003aae   Section        0  llsshr.o(.text)
    .text                                    0x10003ad4   Section        0  fepilogue.o(.text)
    .text                                    0x10003ad4   Section        0  iusefp.o(.text)
    .text                                    0x10003b56   Section        0  depilogue.o(.text)
    .text                                    0x10003c14   Section        0  dfixul.o(.text)
    .text                                    0x10003c54   Section       40  cdrcmple.o(.text)
    .text                                    0x10003c7c   Section       36  init.o(.text)
    i.__0vsprintf                            0x10003ca0   Section        0  printfa.o(i.__0vsprintf)
    i.__ARM_clz                              0x10003cc4   Section        0  depilogue.o(i.__ARM_clz)
    i.__ARM_common_switch8                   0x10003cf2   Section        0  main.o(i.__ARM_common_switch8)
    i.__scatterload_copy                     0x10003d0c   Section       14  handlers.o(i.__scatterload_copy)
    i.__scatterload_null                     0x10003d1a   Section        2  handlers.o(i.__scatterload_null)
    i.__scatterload_zeroinit                 0x10003d1c   Section       14  handlers.o(i.__scatterload_zeroinit)
    i._fp_digits                             0x10003d2c   Section        0  printfa.o(i._fp_digits)
    _fp_digits                               0x10003d2d   Thumb Code   316  printfa.o(i._fp_digits)
    i._printf_core                           0x10003e84   Section        0  printfa.o(i._printf_core)
    _printf_core                             0x10003e85   Thumb Code  1754  printfa.o(i._printf_core)
    i._printf_post_padding                   0x10004570   Section        0  printfa.o(i._printf_post_padding)
    _printf_post_padding                     0x10004571   Thumb Code    32  printfa.o(i._printf_post_padding)
    i._printf_pre_padding                    0x10004590   Section        0  printfa.o(i._printf_pre_padding)
    _printf_pre_padding                      0x10004591   Thumb Code    44  printfa.o(i._printf_pre_padding)
    i._sputc                                 0x100045bc   Section        0  printfa.o(i._sputc)
    _sputc                                   0x100045bd   Thumb Code    10  printfa.o(i._sputc)
    .constdata                               0x100045c6   Section       40  main.o(.constdata)
    _ll_packet_length                        0x100045c9   Data          15  main.o(.constdata)
    _smp_packet_lenght                       0x100045d8   Data          22  main.o(.constdata)
    .data                                    0x20003000   Section        8  main.o(.data)
    .data                                    0x20003008   Section       72  gpio.o(.data)
    gpio_callback                            0x2000301c   Data           4  gpio.o(.data)
    pinmuxtab48                              0x20003020   Data          24  gpio.o(.data)
    pinmuxtab32                              0x20003038   Data          24  gpio.o(.data)
    .data                                    0x20003050   Section       12  timer.o(.data)
    TIMER_CTRL                               0x20003050   Data           4  timer.o(.data)
    H_TIMER_CTRL                             0x20003054   Data           4  timer.o(.data)
    htimer_callback                          0x20003058   Data           4  timer.o(.data)
    .data                                    0x2000305c   Section        9  rtc.o(.data)
    RTC_CTRL                                 0x2000305c   Data           4  rtc.o(.data)
    enabled                                  0x20003064   Data           1  rtc.o(.data)
    .data                                    0x20003068   Section        8  uart.o(.data)
    UART_0_CTRL                              0x20003068   Data           4  uart.o(.data)
    UART_1_CTRL                              0x2000306c   Data           4  uart.o(.data)
    .data                                    0x20003070   Section        4  system_armcm0.o(.data)
    .data                                    0x20003074   Section       64  main.o(.data)
    syd_confirm                              0x20003074   Data           1  main.o(.data)
    ww_minus_cnt                             0x20003075   Data           1  main.o(.data)
    ext_uart_en                              0x20003076   Data           1  main.o(.data)
    get_bond_device_idx                      0x20003077   Data           1  main.o(.data)
    _valid_l2cap_lenght                      0x20003079   Data           1  main.o(.data)
    rssi_rx                                  0x2000307b   Data           1  main.o(.data)
    p_flash_hdr                              0x2000307c   Data           4  main.o(.data)
    p_lclink                                 0x20003080   Data           4  main.o(.data)
    p_txpdu                                  0x20003084   Data           4  main.o(.data)
    p_rxbuf                                  0x20003088   Data           4  main.o(.data)
    p_flash                                  0x2000308c   Data           4  main.o(.data)
    p_dump_key                               0x20003094   Data           4  main.o(.data)
    EFUSE_CTRL                               0x20003098   Data           4  main.o(.data)
    BB_CTRL                                  0x2000309c   Data           4  main.o(.data)
    PW_CTRL                                  0x200030a0   Data           4  main.o(.data)
    PIN_CONFIG                               0x200030a4   Data           4  main.o(.data)
    CONFIG_FLASH_SIZE                        0x200030a8   Data           4  main.o(.data)
    g_evt                                    0x200030ac   Data           8  main.o(.data)
    .bss                                     0x200030b4   Section       12  timer.o(.bss)
    timer_callback                           0x200030b4   Data          12  timer.o(.bss)
    .bss                                     0x200030c0   Section      128  debug.o(.bss)
    s_formatBuffer                           0x200030c0   Data         128  debug.o(.bss)
    .bss                                     0x20003140   Section      104  main.o(.bss)
    code_hdr                                 0x20003140   Data          87  main.o(.bss)
    smart_update_ctrol                       0x20003197   Data          17  main.o(.bss)
    STACK                                    0x200031a8   Section     1024  startup_armcm0.o(STACK)

    Global Symbols

    Symbol Name                              Value     Ov Type        Size  Object(Section)

    BuildAttributes$$THM_ISAv3M$S$PE$A:L22$X:L11$S22$IEEE1$IW$USESV6$~STKCKD$USESV7$~SHL$OTIME$ROPI$EBA8$MICROLIB$REQ8$PRES8$EABIv2 0x00000000   Number         0  anon$$obj.o ABSOLUTE
    __ARM_use_no_argv                        0x00000000   Number         0  main.o ABSOLUTE
    __cpp_initialize__aeabi_                  - Undefined Weak Reference
    __cxa_finalize                            - Undefined Weak Reference
    __decompress                              - Undefined Weak Reference
    _clock_init                               - Undefined Weak Reference
    _microlib_exit                            - Undefined Weak Reference
    __Vectors_Size                           0x000000c0   Number         0  startup_armcm0.o ABSOLUTE
    __Vectors                                0x10000000   Data           4  startup_armcm0.o(RESET)
    __Vectors_End                            0x100000c0   Data           0  startup_armcm0.o(RESET)
    __main                                   0x100000c1   Thumb Code     0  entry.o(.ARM.Collect$$$$00000000)
    _main_stk                                0x100000c1   Thumb Code     0  entry2.o(.ARM.Collect$$$$00000001)
    _main_scatterload                        0x100000c5   Thumb Code     0  entry5.o(.ARM.Collect$$$$00000004)
    __main_after_scatterload                 0x100000c9   Thumb Code     0  entry5.o(.ARM.Collect$$$$00000004)
    _main_clock                              0x100000c9   Thumb Code     0  entry7b.o(.ARM.Collect$$$$00000008)
    _main_cpp_init                           0x100000c9   Thumb Code     0  entry8b.o(.ARM.Collect$$$$0000000A)
    _main_init                               0x100000c9   Thumb Code     0  entry9a.o(.ARM.Collect$$$$0000000B)
    __rt_final_cpp                           0x100000d1   Thumb Code     0  entry10a.o(.ARM.Collect$$$$0000000D)
    __rt_final_exit                          0x100000d1   Thumb Code     0  entry11a.o(.ARM.Collect$$$$0000000F)
    RTC_RUN                                  0x100000e5   Thumb Code   104  main.o(.text)
    RTC_SET                                  0x1000014d   Thumb Code   118  main.o(.text)
    RTC_Init                                 0x100001f7   Thumb Code   168  main.o(.text)
    main                                     0x1000029f   Thumb Code    76  main.o(.text)
    delay_ms                                 0x100003b1   Thumb Code    28  delay.o(.text)
    delay_us                                 0x100003cd   Thumb Code    26  delay.o(.text)
    GPIO_Set_Output                          0x100003ed   Thumb Code    50  gpio.o(.text)
    GPIO_Pin_Turn                            0x1000041f   Thumb Code    50  gpio.o(.text)
    GPIO_IRQHandler                          0x10000451   Thumb Code   132  gpio.o(.text)
    timer_0_enable                           0x100004e5   Thumb Code   166  timer.o(.text)
    TIMER0_IRQHandler                        0x1000058b   Thumb Code    56  timer.o(.text)
    TIMER1_IRQHandler                        0x100005c3   Thumb Code    56  timer.o(.text)
    TIMER2_IRQHandler                        0x100005fb   Thumb Code    56  timer.o(.text)
    HTIMER_IRQHandler                        0x10000633   Thumb Code    46  timer.o(.text)
    dbg_init                                 0x10000691   Thumb Code     8  debug.o(.text)
    dbg_printf                               0x10000699   Thumb Code    72  debug.o(.text)
    rtc_int_clear                            0x100006e5   Thumb Code    36  rtc.o(.text)
    rtc_int_enable                           0x10000709   Thumb Code    32  rtc.o(.text)
    rtc_start                                0x10000729   Thumb Code    50  rtc.o(.text)
    rtc_stop                                 0x1000075b   Thumb Code    48  rtc.o(.text)
    rtc_set_prescaler                        0x1000078b   Thumb Code    58  rtc.o(.text)
    rtc_get_alarm                            0x100007c5   Thumb Code    70  rtc.o(.text)
    rtc_set_alarm                            0x1000080b   Thumb Code   102  rtc.o(.text)
    rtc_set_calendar                         0x10000871   Thumb Code    70  rtc.o(.text)
    rtc_get_calendar                         0x100008b7   Thumb Code    76  rtc.o(.text)
    RTC_IRQHandler                           0x10000903   Thumb Code    40  rtc.o(.text)
    uart_0_init                              0x10000939   Thumb Code   340  uart.o(.text)
    uart_0_write                             0x10000a8d   Thumb Code    40  uart.o(.text)
    uart_0_read                              0x10000ab5   Thumb Code    72  uart.o(.text)
    UART0_IRQHandler                         0x10000afd   Thumb Code   106  uart.o(.text)
    uart_1_read                              0x10000b67   Thumb Code    72  uart.o(.text)
    UART1_IRQHandler                         0x10000baf   Thumb Code   106  uart.o(.text)
    Reset_Handler                            0x10000c45   Thumb Code     8  startup_armcm0.o(.text)
    NMI_Handler                              0x10000c4d   Thumb Code     2  startup_armcm0.o(.text)
    HardFault_Handler                        0x10000c4f   Thumb Code     2  startup_armcm0.o(.text)
    SVC_Handler                              0x10000c51   Thumb Code     2  startup_armcm0.o(.text)
    PendSV_Handler                           0x10000c53   Thumb Code     2  startup_armcm0.o(.text)
    SysTick_Handler                          0x10000c55   Thumb Code     2  startup_armcm0.o(.text)
    CAP_IRQHandler                           0x10000c57   Thumb Code     0  startup_armcm0.o(.text)
    GPADC_IRQHandler                         0x10000c57   Thumb Code     0  startup_armcm0.o(.text)
    HID_IRQHandler                           0x10000c57   Thumb Code     0  startup_armcm0.o(.text)
    HPWM_IRQHandler                          0x10000c57   Thumb Code     0  startup_armcm0.o(.text)
    I2C0_IRQHandler                          0x10000c57   Thumb Code     0  startup_armcm0.o(.text)
    I2C1_IRQHandler                          0x10000c57   Thumb Code     0  startup_armcm0.o(.text)
    IR_Rx_IRQHandler                         0x10000c57   Thumb Code     0  startup_armcm0.o(.text)
    IR_Tx_IRQHandler                         0x10000c57   Thumb Code     0  startup_armcm0.o(.text)
    ISO_7816_IRQHandler                      0x10000c57   Thumb Code     0  startup_armcm0.o(.text)
    LLC2_IRQHandler                          0x10000c57   Thumb Code     0  startup_armcm0.o(.text)
    LLC_IRQHandler                           0x10000c57   Thumb Code     0  startup_armcm0.o(.text)
    SPIM_IRQHandler                          0x10000c57   Thumb Code     0  startup_armcm0.o(.text)
    SW_IRQHandler                            0x10000c57   Thumb Code     0  startup_armcm0.o(.text)
    TIMER3_IRQHandler                        0x10000c57   Thumb Code     0  startup_armcm0.o(.text)
    TOUCH_IRQHandler                         0x10000c57   Thumb Code     0  startup_armcm0.o(.text)
    SystemInit                               0x10000c61   Thumb Code     8  system_armcm0.o(.text)
    LLPingReq                                0x10000d97   Thumb Code    26  main.o(.text)
    LLScanReqHandle                          0x10000db1   Thumb Code    58  main.o(.text)
    _BBGetMask                               0x1000108d   Thumb Code    92  main.o(.text)
    Lib_LLEvtCallback                        0x100010e9   Thumb Code   186  main.o(.text)
    ConnectionLatencyMode                    0x100011a3   Thumb Code   112  main.o(.text)
    sw_timer_latency_callback                0x10001213   Thumb Code    42  main.o(.text)
    TimerStart                               0x1000123d   Thumb Code    10  main.o(.text)
    smart_latency_start                      0x10001247   Thumb Code   212  main.o(.text)
    smart_update_latency_updatersp           0x1000131b   Thumb Code   162  main.o(.text)
    BBRFRead                                 0x100013bd   Thumb Code     4  main.o(.text)
    BBRFWrite                                0x100013c1   Thumb Code     6  main.o(.text)
    RCOSCCalibration                         0x100013c7   Thumb Code    64  main.o(.text)
    RFSleep                                  0x10001407   Thumb Code    10  main.o(.text)
    UartEn                                   0x10001411   Thumb Code    32  main.o(.text)
    _SYS32kClockSwitch                       0x10001431   Thumb Code   270  main.o(.text)
    ClockSwitch                              0x1000153f   Thumb Code    10  main.o(.text)
    RFWakeup                                 0x10001549   Thumb Code    22  main.o(.text)
    LPOCalibration                           0x1000155f   Thumb Code   254  main.o(.text)
    smart_latency_clear                      0x1000165d   Thumb Code    12  main.o(.text)
    Lib_EvtCallback                          0x10001669   Thumb Code   254  main.o(.text)
    _BMGetNextBondDevice                     0x10001767   Thumb Code   144  main.o(.text)
    __LLVersionIndRxHandler                  0x10001915   Thumb Code    66  main.o(.text)
    GetMasterSystem                          0x10001957   Thumb Code     6  main.o(.text)
    TimerStop                                0x1000195d   Thumb Code     4  main.o(.text)
    smart_update_retry                       0x10001961   Thumb Code   158  main.o(.text)
    sw_timer_update_callback                 0x100019ff   Thumb Code    60  main.o(.text)
    smart_update_latency_updatareq           0x10001a3b   Thumb Code   496  main.o(.text)
    Lib_ProtocolHookCallback                 0x10001c2b   Thumb Code   116  main.o(.text)
    Lib_MiscCallback                         0x10001c9f   Thumb Code    14  main.o(.text)
    BleInit                                  0x10001cad   Thumb Code   344  main.o(.text)
    DisConnect                               0x10001e05   Thumb Code    10  main.o(.text)
    SetDevAddr                               0x10001e0f   Thumb Code    12  main.o(.text)
    GetDevAddr                               0x10001e1b   Thumb Code    12  main.o(.text)
    SetLEFeature                             0x10001e27   Thumb Code    12  main.o(.text)
    SetAdvAccCode                            0x10001e33   Thumb Code    12  main.o(.text)
    SetAdvParams                             0x10001e3f   Thumb Code    12  main.o(.text)
    SetAdvData                               0x10001e4b   Thumb Code    12  main.o(.text)
    StartAdv                                 0x10002085   Thumb Code    10  main.o(.text)
    StopAdv                                  0x1000208f   Thumb Code    24  main.o(.text)
    StopAdv_Noreset                          0x100020a7   Thumb Code    38  main.o(.text)
    SetScanParams                            0x100020cd   Thumb Code    10  main.o(.text)
    _BBSetScan                               0x100020d7   Thumb Code    46  main.o(.text)
    _GAPStartScan                            0x10002105   Thumb Code   254  main.o(.text)
    StartScan                                0x10002203   Thumb Code    10  main.o(.text)
    StopScan                                 0x1000220d   Thumb Code    10  main.o(.text)
    SetSecParams                             0x10002217   Thumb Code    12  main.o(.text)
    SetConnectionUpdate                      0x10002223   Thumb Code    12  main.o(.text)
    GetLinkParameters                        0x1000222f   Thumb Code    12  main.o(.text)
    SetWinWideMinusCnt                       0x1000223b   Thumb Code     8  main.o(.text)
    SetPasskey                               0x10002243   Thumb Code    12  main.o(.text)
    SecurityReq                              0x1000224f   Thumb Code    12  main.o(.text)
    SetEvtCallback                           0x1000225b   Thumb Code    54  main.o(.text)
    GetGATTReportHandle                      0x10002291   Thumb Code    10  main.o(.text)
    SetGATTReadRsp                           0x1000229b   Thumb Code    12  main.o(.text)
    CheckFIFOFull                            0x100022a7   Thumb Code    18  main.o(.text)
    GATTDataSend                             0x100022b9   Thumb Code    86  main.o(.text)
    ATTCSetCallback                          0x1000230f   Thumb Code     4  main.o(.text)
    ATTCMTUReq                               0x10002313   Thumb Code    24  main.o(.text)
    ATTCFindInfoReq                          0x1000232b   Thumb Code    28  main.o(.text)
    ATTCFindByTypeValueReq                   0x10002347   Thumb Code    40  main.o(.text)
    ATTCReadByTypeReq                        0x1000236f   Thumb Code    36  main.o(.text)
    ATTCReadReq                              0x10002393   Thumb Code    24  main.o(.text)
    ATTCReadBlobReq                          0x100023ab   Thumb Code    28  main.o(.text)
    ATTCReadMultipleReq                      0x100023c7   Thumb Code    28  main.o(.text)
    ATTCReadByGroupTypeReq                   0x100023e3   Thumb Code    34  main.o(.text)
    ATTCWriteReq                             0x10002405   Thumb Code    32  main.o(.text)
    ATTCWriteCmdReq                          0x10002425   Thumb Code    32  main.o(.text)
    ATTCPrepareWriteReq                      0x10002445   Thumb Code    36  main.o(.text)
    ATTCExecuteWriteReq                      0x10002469   Thumb Code    24  main.o(.text)
    ATTCConfirmation                         0x10002481   Thumb Code    20  main.o(.text)
    _SYSClockSwitch                          0x10002495   Thumb Code    86  main.o(.text)
    MCUClockSwitch                           0x100024eb   Thumb Code     2  main.o(.text)
    GetMCUClock                              0x100024ed   Thumb Code    14  main.o(.text)
    GetClock                                 0x100024fb   Thumb Code    16  main.o(.text)
    WakeupConfig                             0x1000250b   Thumb Code    12  main.o(.text)
    LLSleep                                  0x10002517   Thumb Code    12  main.o(.text)
    Rand                                     0x10002523   Thumb Code     4  main.o(.text)
    DelayUS                                  0x10002527   Thumb Code     4  main.o(.text)
    DelayMS                                  0x1000252b   Thumb Code     6  main.o(.text)
    GetCompanyID                             0x10002531   Thumb Code    18  main.o(.text)
    GetQFNType                               0x10002543   Thumb Code    20  main.o(.text)
    RFRead                                   0x10002557   Thumb Code    70  main.o(.text)
    RFWrite                                  0x1000259d   Thumb Code     8  main.o(.text)
    lib_check_ble_fsm_state                  0x100025a5   Thumb Code    26  main.o(.text)
    SystemSleep                              0x100025bf   Thumb Code    18  main.o(.text)
    SystemPowerDown                          0x100025d1   Thumb Code    78  main.o(.text)
    SystemReset                              0x1000261f   Thumb Code    12  main.o(.text)
    CapdetEn                                 0x1000262b   Thumb Code    10  main.o(.text)
    PowerDownLPOEn                           0x10002635   Thumb Code    12  main.o(.text)
    SetBondManagerIndex                      0x10002641   Thumb Code    12  main.o(.text)
    GetBondDevice                            0x1000264d   Thumb Code     6  main.o(.text)
    AddBondDevice                            0x10002653   Thumb Code    12  main.o(.text)
    DelAllBondDevice                         0x1000265f   Thumb Code    10  main.o(.text)
    DelBondDevice                            0x10002669   Thumb Code    12  main.o(.text)
    ReadProfileData                          0x10002675   Thumb Code     6  main.o(.text)
    WriteProfileData                         0x1000267b   Thumb Code     6  main.o(.text)
    EraseFlashData                           0x10002681   Thumb Code    78  main.o(.text)
    ReadFlashData                            0x100026cf   Thumb Code    56  main.o(.text)
    WriteFlashData                           0x10002707   Thumb Code    56  main.o(.text)
    CodeErase                                0x1000273f   Thumb Code   100  main.o(.text)
    CodeErase_sector                         0x100027a3   Thumb Code    72  main.o(.text)
    _FMCodeWrite                             0x100027eb   Thumb Code    58  main.o(.text)
    CodeWrite                                0x10002825   Thumb Code    30  main.o(.text)
    CodeUpdate                               0x10002843   Thumb Code    10  main.o(.text)
    FlashDataUpdate                          0x1000284d   Thumb Code   124  main.o(.text)
    ble_sched_execute                        0x100028c9   Thumb Code   150  main.o(.text)
    ble_sched_finish                         0x1000295f   Thumb Code     4  main.o(.text)
    syd52832_chip_confirm                    0x10002963   Thumb Code    26  main.o(.text)
    gap_s_smart_update_latency               0x1000297d   Thumb Code   246  main.o(.text)
    eFuseManual                              0x10002a73   Thumb Code    28  main.o(.text)
    GPADC_Manual_Calibration                 0x10002a8f   Thumb Code    34  main.o(.text)
    GPADC_Get_Calibration                    0x10002ab1   Thumb Code    22  main.o(.text)
    GAPGetUartEn                             0x10002ac7   Thumb Code     6  main.o(.text)
    GAPUartEn                                0x10002acd   Thumb Code     6  main.o(.text)
    GAPBBDelayUS                             0x10002ad3   Thumb Code     4  main.o(.text)
    GAPBBDelayMS                             0x10002ad7   Thumb Code     6  main.o(.text)
    GAPGetRFAutoSleep                        0x10002add   Thumb Code     4  main.o(.text)
    GAPSetRFAutoSleep                        0x10002ae1   Thumb Code     6  main.o(.text)
    Setting4kUpdate                          0x10002ae7   Thumb Code   116  main.o(.text)
    SetDevAddr_toflash                       0x10002b5b   Thumb Code    72  main.o(.text)
    gap_s_verdor_datas_get                   0x10002ba3   Thumb Code    28  main.o(.text)
    gap_s_verdor_datas_set                   0x10002bbf   Thumb Code    66  main.o(.text)
    gap_s_is_ll_start_enc                    0x10002c01   Thumb Code    26  main.o(.text)
    GAPBBTXFIFO0Write                        0x10002c1b   Thumb Code     4  main.o(.text)
    flash_peotect_key_confirm                0x10002c1f   Thumb Code   148  main.o(.text)
    swd_lock                                 0x10002cb3   Thumb Code    36  main.o(.text)
    flash_data_offect_get                    0x10002cd7   Thumb Code    52  main.o(.text)
    EraseCodeB                               0x10002d0b   Thumb Code    58  main.o(.text)
    ReadCodeB                                0x10002d45   Thumb Code    64  main.o(.text)
    WriteCodeB                               0x10002d85   Thumb Code    96  main.o(.text)
    ble_SetTxPower                           0x10002de5   Thumb Code   248  main.o(.text)
    flash_data_size_get                      0x10002edd   Thumb Code    18  main.o(.text)
    code_idx_get                             0x10002eef   Thumb Code     6  main.o(.text)
    flash_data_size_set                      0x10002ef5   Thumb Code   146  main.o(.text)
    Get_RSSI_Last_RX                         0x10002f87   Thumb Code    82  main.o(.text)
    APP_Read_Attribute_Encrypt               0x10002fd9   Thumb Code    62  main.o(.text)
    APP_Write_Attribute_Encrypt              0x10003017   Thumb Code    66  main.o(.text)
    APP_Read_Charact_Permission              0x10003059   Thumb Code    66  main.o(.text)
    smart_latency_target                     0x1000309b   Thumb Code    30  main.o(.text)
    smp_aes_encrypt                          0x100030b9   Thumb Code     4  main.o(.text)
    gap_get_flash_data_info                  0x100030bd   Thumb Code    26  main.o(.text)
    gap_set_flash_data_info                  0x100030d7   Thumb Code    70  main.o(.text)
    gap_check_dev_bonded                     0x1000311d   Thumb Code     6  main.o(.text)
    syd_set_chip_flash_all_size              0x10003123   Thumb Code     6  main.o(.text)
    Xtal_trim_get                            0x10003129   Thumb Code   106  main.o(.text)
    Xtal_trim_set                            0x10003193   Thumb Code   164  main.o(.text)
    flash_read_sfdp                          0x10003237   Thumb Code    46  main.o(.text)
    syd_read_unique_id                       0x10003265   Thumb Code    30  main.o(.text)
    __aeabi_uidiv                            0x100034a1   Thumb Code     0  uidiv.o(.text)
    __aeabi_uidivmod                         0x100034a1   Thumb Code    44  uidiv.o(.text)
    __aeabi_idiv                             0x100034cd   Thumb Code     0  idiv.o(.text)
    __aeabi_idivmod                          0x100034cd   Thumb Code    40  idiv.o(.text)
    __aeabi_memcpy                           0x100034f5   Thumb Code    36  memcpya.o(.text)
    __aeabi_memcpy4                          0x100034f5   Thumb Code     0  memcpya.o(.text)
    __aeabi_memcpy8                          0x100034f5   Thumb Code     0  memcpya.o(.text)
    __aeabi_memset                           0x10003519   Thumb Code    14  memseta.o(.text)
    __aeabi_memset4                          0x10003519   Thumb Code     0  memseta.o(.text)
    __aeabi_memset8                          0x10003519   Thumb Code     0  memseta.o(.text)
    __aeabi_memclr                           0x10003527   Thumb Code     4  memseta.o(.text)
    __aeabi_memclr4                          0x10003527   Thumb Code     0  memseta.o(.text)
    __aeabi_memclr8                          0x10003527   Thumb Code     0  memseta.o(.text)
    _memset$wrapper                          0x1000352b   Thumb Code    18  memseta.o(.text)
    memcmp                                   0x1000353d   Thumb Code    26  memcmp.o(.text)
    __aeabi_uread4                           0x10003557   Thumb Code    20  uread4.o(.text)
    __rt_uread4                              0x10003557   Thumb Code     0  uread4.o(.text)
    _uread4                                  0x10003557   Thumb Code     0  uread4.o(.text)
    __aeabi_uwrite4                          0x1000356b   Thumb Code    18  uwrite4.o(.text)
    __rt_uwrite4                             0x1000356b   Thumb Code     0  uwrite4.o(.text)
    _uwrite4                                 0x1000356b   Thumb Code     0  uwrite4.o(.text)
    __aeabi_fadd                             0x1000357d   Thumb Code   162  fadd.o(.text)
    __aeabi_fsub                             0x1000361f   Thumb Code     8  fadd.o(.text)
    __aeabi_frsub                            0x10003627   Thumb Code     8  fadd.o(.text)
    __aeabi_dadd                             0x10003631   Thumb Code   328  dadd.o(.text)
    __aeabi_dsub                             0x10003779   Thumb Code    12  dadd.o(.text)
    __aeabi_drsub                            0x10003785   Thumb Code    12  dadd.o(.text)
    __aeabi_dmul                             0x10003795   Thumb Code   202  dmul.o(.text)
    __aeabi_ddiv                             0x10003865   Thumb Code   234  ddiv.o(.text)
    __aeabi_ui2f                             0x10003955   Thumb Code    14  ffltui.o(.text)
    __aeabi_i2d                              0x10003965   Thumb Code    34  dflti.o(.text)
    __aeabi_ui2d                             0x1000398d   Thumb Code    24  dfltui.o(.text)
    __aeabi_d2uiz                            0x100039a9   Thumb Code    50  dfixui.o(.text)
    __aeabi_f2d                              0x100039e5   Thumb Code    40  f2d.o(.text)
    __aeabi_uldivmod                         0x10003a0d   Thumb Code    96  uldiv.o(.text)
    __aeabi_llsl                             0x10003a6d   Thumb Code    32  llshl.o(.text)
    _ll_shift_l                              0x10003a6d   Thumb Code     0  llshl.o(.text)
    __aeabi_llsr                             0x10003a8d   Thumb Code    34  llushr.o(.text)
    _ll_ushift_r                             0x10003a8d   Thumb Code     0  llushr.o(.text)
    __aeabi_lasr                             0x10003aaf   Thumb Code    38  llsshr.o(.text)
    _ll_sshift_r                             0x10003aaf   Thumb Code     0  llsshr.o(.text)
    __I$use$fp                               0x10003ad5   Thumb Code     0  iusefp.o(.text)
    _float_round                             0x10003ad5   Thumb Code    16  fepilogue.o(.text)
    _float_epilogue                          0x10003ae5   Thumb Code   114  fepilogue.o(.text)
    _double_round                            0x10003b57   Thumb Code    26  depilogue.o(.text)
    _double_epilogue                         0x10003b71   Thumb Code   164  depilogue.o(.text)
    __aeabi_d2ulz                            0x10003c15   Thumb Code    54  dfixul.o(.text)
    __aeabi_cdrcmple                         0x10003c55   Thumb Code    38  cdrcmple.o(.text)
    __scatterload                            0x10003c7d   Thumb Code    28  init.o(.text)
    __scatterload_rt2                        0x10003c7d   Thumb Code     0  init.o(.text)
    __0vsprintf                              0x10003ca1   Thumb Code    30  printfa.o(i.__0vsprintf)
    __1vsprintf                              0x10003ca1   Thumb Code     0  printfa.o(i.__0vsprintf)
    __2vsprintf                              0x10003ca1   Thumb Code     0  printfa.o(i.__0vsprintf)
    __c89vsprintf                            0x10003ca1   Thumb Code     0  printfa.o(i.__0vsprintf)
    vsprintf                                 0x10003ca1   Thumb Code     0  printfa.o(i.__0vsprintf)
    __ARM_clz                                0x10003cc5   Thumb Code    46  depilogue.o(i.__ARM_clz)
    __ARM_common_switch8                     0x10003cf3   Thumb Code    26  main.o(i.__ARM_common_switch8)
    __scatterload_copy                       0x10003d0d   Thumb Code    14  handlers.o(i.__scatterload_copy)
    __scatterload_null                       0x10003d1b   Thumb Code     2  handlers.o(i.__scatterload_null)
    __scatterload_zeroinit                   0x10003d1d   Thumb Code    14  handlers.o(i.__scatterload_zeroinit)
    adv_chn_to_freq_idx                      0x100045c6   Data           3  main.o(.constdata)
    Region$$Table$$Base                      0x100045f0   Number         0  anon$$obj.o(Region$$Table)
    Region$$Table$$Limit                     0x10004610   Number         0  anon$$obj.o(Region$$Table)
    RTC_second_now                           0x20003000   Data           4  main.o(.data)
    RTC_second_last                          0x20003004   Data           4  main.o(.data)
    PIN_CONFIG                               0x20003008   Data           4  gpio.o(.data)
    GPIO_CTRL                                0x2000300c   Data           4  gpio.o(.data)
    GPO_CTRL                                 0x20003010   Data           4  gpio.o(.data)
    GPI_CTRL                                 0x20003014   Data           4  gpio.o(.data)
    GPIO_IRQ_CTRL                            0x20003018   Data           4  gpio.o(.data)
    irq_cb                                   0x20003060   Data           4  rtc.o(.data)
    SystemCoreClock                          0x20003070   Data           4  system_armcm0.o(.data)
    ble_rc32k_clk_lpo_ing_flag               0x20003078   Data           1  main.o(.data)
    master_system                            0x2000307a   Data           1  main.o(.data)
    p_gett_db_hdr                            0x20003090   Data           4  main.o(.data)
    __initial_sp                             0x200035a8   Data           0  startup_armcm0.o(STACK)



==============================================================================

Memory Map of the image

  Image Entry point : 0x100000c1

  Load Region LR_IROM1 (Base: 0x10000000, Size: 0x000046c4, Max: 0x0003f000, ABSOLUTE)

    Execution Region ER_IROM1 (Base: 0x10000000, Size: 0x00004610, Max: 0x0003f000, ABSOLUTE)

    Base Addr    Size         Type   Attr      Idx    E Section Name        Object

    0x10000000   0x000000c0   Data   RO          480    RESET               startup_armcm0.o
    0x100000c0   0x00000000   Code   RO          599  * .ARM.Collect$$$$00000000  mc_p.l(entry.o)
    0x100000c0   0x00000004   Code   RO          664    .ARM.Collect$$$$00000001  mc_p.l(entry2.o)
    0x100000c4   0x00000004   Code   RO          667    .ARM.Collect$$$$00000004  mc_p.l(entry5.o)
    0x100000c8   0x00000000   Code   RO          669    .ARM.Collect$$$$00000008  mc_p.l(entry7b.o)
    0x100000c8   0x00000000   Code   RO          671    .ARM.Collect$$$$0000000A  mc_p.l(entry8b.o)
    0x100000c8   0x00000008   Code   RO          672    .ARM.Collect$$$$0000000B  mc_p.l(entry9a.o)
    0x100000d0   0x00000000   Code   RO          674    .ARM.Collect$$$$0000000D  mc_p.l(entry10a.o)
    0x100000d0   0x00000000   Code   RO          676    .ARM.Collect$$$$0000000F  mc_p.l(entry11a.o)
    0x100000d0   0x00000004   Code   RO          665    .ARM.Collect$$$$00002712  mc_p.l(entry2.o)
    0x100000d4   0x000002dc   Code   RO            3    .text               main.o
    0x100003b0   0x0000003c   Code   RO           83    .text               delay.o
    0x100003ec   0x000000f8   Code   RO          115    .text               gpio.o
    0x100004e4   0x000001ac   Code   RO          223    .text               timer.o
    0x10000690   0x00000054   Code   RO          328    .text               debug.o
    0x100006e4   0x00000254   Code   RO          372    .text               rtc.o
    0x10000938   0x0000030c   Code   RO          423    .text               uart.o
    0x10000c44   0x0000001c   Code   RO          481    .text               startup_armcm0.o
    0x10000c60   0x00000010   Code   RO          488    .text               system_armcm0.o
    0x10000c70   0x00002830   Code   RO          519    .text               syd8811_ble_lib.lib(main.o)
    0x100034a0   0x0000002c   Code   RO          602    .text               mc_p.l(uidiv.o)
    0x100034cc   0x00000028   Code   RO          604    .text               mc_p.l(idiv.o)
    0x100034f4   0x00000024   Code   RO          606    .text               mc_p.l(memcpya.o)
    0x10003518   0x00000024   Code   RO          608    .text               mc_p.l(memseta.o)
    0x1000353c   0x0000001a   Code   RO          610    .text               mc_p.l(memcmp.o)
    0x10003556   0x00000014   Code   RO          642    .text               mc_p.l(uread4.o)
    0x1000356a   0x00000012   Code   RO          644    .text               mc_p.l(uwrite4.o)
    0x1000357c   0x000000b2   Code   RO          646    .text               mf_p.l(fadd.o)
    0x1000362e   0x00000002   PAD
    0x10003630   0x00000164   Code   RO          648    .text               mf_p.l(dadd.o)
    0x10003794   0x000000d0   Code   RO          650    .text               mf_p.l(dmul.o)
    0x10003864   0x000000f0   Code   RO          652    .text               mf_p.l(ddiv.o)
    0x10003954   0x0000000e   Code   RO          654    .text               mf_p.l(ffltui.o)
    0x10003962   0x00000002   PAD
    0x10003964   0x00000028   Code   RO          656    .text               mf_p.l(dflti.o)
    0x1000398c   0x0000001c   Code   RO          658    .text               mf_p.l(dfltui.o)
    0x100039a8   0x0000003c   Code   RO          660    .text               mf_p.l(dfixui.o)
    0x100039e4   0x00000028   Code   RO          662    .text               mf_p.l(f2d.o)
    0x10003a0c   0x00000060   Code   RO          681    .text               mc_p.l(uldiv.o)
    0x10003a6c   0x00000020   Code   RO          683    .text               mc_p.l(llshl.o)
    0x10003a8c   0x00000022   Code   RO          685    .text               mc_p.l(llushr.o)
    0x10003aae   0x00000026   Code   RO          687    .text               mc_p.l(llsshr.o)
    0x10003ad4   0x00000000   Code   RO          689    .text               mc_p.l(iusefp.o)
    0x10003ad4   0x00000082   Code   RO          690    .text               mf_p.l(fepilogue.o)
    0x10003b56   0x000000be   Code   RO          692    .text               mf_p.l(depilogue.o)
    0x10003c14   0x00000040   Code   RO          696    .text               mf_p.l(dfixul.o)
    0x10003c54   0x00000028   Code   RO          698    .text               mf_p.l(cdrcmple.o)
    0x10003c7c   0x00000024   Code   RO          700    .text               mc_p.l(init.o)
    0x10003ca0   0x00000024   Code   RO          621    i.__0vsprintf       mc_p.l(printfa.o)
    0x10003cc4   0x0000002e   Code   RO          694    i.__ARM_clz         mf_p.l(depilogue.o)
    0x10003cf2   0x0000001a   Code   RO          539    i.__ARM_common_switch8  syd8811_ble_lib.lib(main.o)
    0x10003d0c   0x0000000e   Code   RO          706    i.__scatterload_copy  mc_p.l(handlers.o)
    0x10003d1a   0x00000002   Code   RO          707    i.__scatterload_null  mc_p.l(handlers.o)
    0x10003d1c   0x0000000e   Code   RO          708    i.__scatterload_zeroinit  mc_p.l(handlers.o)
    0x10003d2a   0x00000002   PAD
    0x10003d2c   0x00000158   Code   RO          622    i._fp_digits        mc_p.l(printfa.o)
    0x10003e84   0x000006ec   Code   RO          623    i._printf_core      mc_p.l(printfa.o)
    0x10004570   0x00000020   Code   RO          624    i._printf_post_padding  mc_p.l(printfa.o)
    0x10004590   0x0000002c   Code   RO          625    i._printf_pre_padding  mc_p.l(printfa.o)
    0x100045bc   0x0000000a   Code   RO          627    i._sputc            mc_p.l(printfa.o)
    0x100045c6   0x00000028   Data   RO          521    .constdata          syd8811_ble_lib.lib(main.o)
    0x100045ee   0x00000002   PAD
    0x100045f0   0x00000020   Data   RO          704    Region$$Table       anon$$obj.o


    Execution Region RW_IRAM1 (Base: 0x20003000, Size: 0x000005a8, Max: 0x00005000, ABSOLUTE)

    Base Addr    Size         Type   Attr      Idx    E Section Name        Object

    0x20003000   0x00000008   Data   RW            4    .data               main.o
    0x20003008   0x00000048   Data   RW          126    .data               gpio.o
    0x20003050   0x0000000c   Data   RW          237    .data               timer.o
    0x2000305c   0x00000009   Data   RW          377    .data               rtc.o
    0x20003065   0x00000003   PAD
    0x20003068   0x00000008   Data   RW          428    .data               uart.o
    0x20003070   0x00000004   Data   RW          489    .data               system_armcm0.o
    0x20003074   0x00000040   Data   RW          522    .data               syd8811_ble_lib.lib(main.o)
    0x200030b4   0x0000000c   Zero   RW          236    .bss                timer.o
    0x200030c0   0x00000080   Zero   RW          330    .bss                debug.o
    0x20003140   0x00000068   Zero   RW          520    .bss                syd8811_ble_lib.lib(main.o)
    0x200031a8   0x00000400   Zero   RW          478    STACK               startup_armcm0.o


==============================================================================

Image component sizes


      Code (inc. data)   RO Data    RW Data    ZI Data      Debug   Object Name

        84          4          0          0        128       2022   debug.o
        60          6          0          0          0      29856   delay.o
       248         16          0         72          0       1587   gpio.o
       732        198          0          8          0      44626   main.o
       596         14          0          9          0       4150   rtc.o
        28          8        192          0       1024        636   startup_armcm0.o
        16          8          0          4          0        707   system_armcm0.o
       428         22          0         12         12       9789   timer.o
       780         18          0          8          0       2393   uart.o

    ----------------------------------------------------------------------
      2972        294        224        116       1164      95766   Object Totals
         0          0         32          0          0          0   (incl. Generated)
         0          0          0          3          0          0   (incl. Padding)

    ----------------------------------------------------------------------

      Code (inc. data)   RO Data    RW Data    ZI Data      Debug   Library Member Name

         0          0          0          0          0          0   entry.o
         0          0          0          0          0          0   entry10a.o
         0          0          0          0          0          0   entry11a.o
         8          4          0          0          0          0   entry2.o
         4          0          0          0          0          0   entry5.o
         0          0          0          0          0          0   entry7b.o
         0          0          0          0          0          0   entry8b.o
         8          4          0          0          0          0   entry9a.o
        30          0          0          0          0          0   handlers.o
        40          0          0          0          0         72   idiv.o
        36          8          0          0          0         68   init.o
         0          0          0          0          0          0   iusefp.o
        32          0          0          0          0         68   llshl.o
        38          0          0          0          0         68   llsshr.o
        34          0          0          0          0         68   llushr.o
        26          0          0          0          0         72   memcmp.o
        36          0          0          0          0         60   memcpya.o
        36          0          0          0          0        100   memseta.o
      2238         96          0          0          0        460   printfa.o
        44          0          0          0          0         72   uidiv.o
        96          0          0          0          0         84   uldiv.o
        20          0          0          0          0         60   uread4.o
        18          0          0          0          0         60   uwrite4.o
        40          2          0          0          0         68   cdrcmple.o
       356          4          0          0          0        140   dadd.o
       240          6          0          0          0         84   ddiv.o
       236          0          0          0          0        216   depilogue.o
        60         10          0          0          0         68   dfixui.o
        64         10          0          0          0         68   dfixul.o
        40          6          0          0          0         68   dflti.o
        28          4          0          0          0         68   dfltui.o
       208          6          0          0          0         88   dmul.o
        40          0          0          0          0         60   f2d.o
       178          0          0          0          0        108   fadd.o
       130          0          0          0          0        144   fepilogue.o
        14          0          0          0          0         68   ffltui.o
     10314        502         40         64        104     109387   main.o

    ----------------------------------------------------------------------
     14698        662         42         64        104     111947   Library Totals
         6          0          2          0          0          0   (incl. Padding)

    ----------------------------------------------------------------------

      Code (inc. data)   RO Data    RW Data    ZI Data      Debug   Library Name

      2744        112          0          0          0       1312   mc_p.l
      1634         48          0          0          0       1248   mf_p.l
     10314        502         40         64        104     109387   syd8811_ble_lib.lib

    ----------------------------------------------------------------------
     14698        662         42         64        104     111947   Library Totals

    ----------------------------------------------------------------------

==============================================================================


      Code (inc. data)   RO Data    RW Data    ZI Data      Debug   

     17670        956        266        180       1268     206009   Grand Totals
     17670        956        266        180       1268     206009   ELF Image Totals
     17670        956        266        180          0          0   ROM Totals

==============================================================================

    Total RO  Size (Code + RO Data)                17936 (  17.52kB)
    Total RW  Size (RW Data + ZI Data)              1448 (   1.41kB)
    Total ROM Size (Code + RO Data + RW Data)      18116 (  17.69kB)

==============================================================================

