:020000041000EA
:1000000008630020651C00106D1C0010130900100F
:1000100000000000000000000000000000000000E0
:10002000000000000000000000000000711C001033
:100030000000000000000000731C0010751C001080
:1000400000000000771C001053500010771C0010B7
:10005000771C0010771C0010BF150010E915001068
:10006000F5480010A5490010994A0010771C0010AF
:1000700041140010771C0010771C0010771C001032
:10008000771C0010771C0010771C0010771C0010E4
:10009000771C0010771C0010771C0010771C0010D4
:1000A0000000000000000000000000000000000050
:1000B0000000000000000000000000000000000040
:1000C0000348854605F0F0FB004800472F08001064
:1000D000086300208307FF22DB0E9A408907090E80
:1000E0009940002808DB8308FD489B001818036826
:1000F00093430B43036070470007000F08388308E1
:10010000F8489B001818C36993430B43C3617047B9
:10011000F8B50027F44800970068FF2120303D46DD
:100120003C463E46017041709F228270CF22C270D1
:10013000017138460122811F0B0005F01EFC0B07E0
:100140000707070C0C0C0C0C10100C00114681401A
:100150000D430C4303E0114681400F430E43401C06
:10016000C0B22028E7D3284601F0B4F82946002081
:1001700001F07DF82846A04301F01AF9204601F06D
:100180002FF93846009901F0BDF83146002001F002
:100190003BF8F8BD70B586B00020694608720720AC
:1001A00048741920800148821E20888202A802F02B
:1001B00056FE684602F041FE6946CC484E78C6724B
:1001C0008D780573CC7844730B7983734A79C27345
:1001D000897901741B30067145718471C371027293
:1001E0004172024614231B211B3802F03EFEC04917
:1001F0000120087506B070BD0EB5002802D0012898
:100200000FD106E010206946C880C8204881002030
:1002100006E050206946C8804B20C00048810A2073
:100220000881C020694608710420487101A803F0C4
:10023000B5FB6946488900900B89CA88ADA10020AA
:1002400001F066FC0EBDA94910B514398878401C30
:10025000C0B28870032808D3002048700120FFF73F
:10026000CBFFFF20013004F004FA10BD3EB59F4CD7
:10027000143CE278D2070ED001246A46148003258C
:1002800055801F259580148103460A4669462046FD
:1002900003F022F83EBD00203EBD944A10B5143A4A
:1002A0009088401C81B29F48918009C8984205D12E
:1002B000032903D90020507004F05CFB10BDF0B599
:1002C000984E85B035687468A54231D0874F143F89
:1002D0007878002807D1012078700020B8809249F2
:1002E000A32004F017FB01239B02A54201D32D1B81
:1002F00001E0281BC518142D1CD31F467B49002084
:1003000014398880894B69461A5D641C0A54BC42C2
:1003100000D30024401CC0B21428F5D31421684631
:10032000FFF7A4FF002803D0143D7460142DE5D21C
:1003300005B0F0BD002DFBD0B8880328F8D300200D
:10034000694608E0794A125D641C0A549C4200D355
:100350000024401CC0B2A842F4D3E9B26846FFF7BB
:1003600085FF002800D074600020B880E0E7F0B579
:1003700004468DB0401C04F005FFC11FFF39FA3957
:1003800019D0FF2101310027884239D1402001F0E6
:100390003FF80822611D03A804F0BAFE6846C08930
:1003A0001521490288421AD161A003C80191009029
:1003B0000820694621E0802001F02AF821460E221B
:1003C0001531684604F0A4FE1E22611D04A804F045
:1003D0009FFE04AD0FCD00F0A1FA0DB0F0BD56495F
:1003E0008842FAD1684607700197694601A80297CA
:1003F00000F0AAFD684601A9007802F05EFFECE774
:100400003A4E0121143E02281FD0464D042830D018
:100410004A03641C904261D1607922790002104342
:100420000128DAD1607A237A020230461A43C07872
:10043000012A45D08843F070002001F0F9FFFF2029
:10044000013000F0CDFF3DA1A7E03170FF20B77073
:10045000013004F06FF90120400200F0A9FF0623EB
:10046000A21D3CA1002001F05FFB012000F05BFC1D
:10047000B3E762793BA1002001F04AFBF7703770C7
:100480006868012464022860204604F0E3F900282B
:1004900006D03B480078032802D0204604F0E9F853
:1004A000FFF778FE02F0FEFD204600F099FFFF20E6
:1004B000013000F095FF002001F0BAFF31A16CE09F
:1004C0000843F070012001F0B3FF01F071F8686893
:1004D0002860FF20013000F06BFF5DE061E000006C
:1004E00000E400E000ED00E0603000201430002067
:1004F00000000240736D6172745F706172616D73B0
:1005000020696E74657276616C3A2578206C61742E
:10051000656E63793A2578207376746F3A25780D85
:100520000A0000003C5500209B0200103C510020B6
:100530005359445F5541525401FF000055415254F4
:10054000206E6F746966792044697361626C6564BA
:10055000210D0A00436F6E6E6563746564206164EB
:1005600064723A00446973636F6E6E6563746564A8
:100570002C7265736F6E3A3078253032780D0A0030
:1005800044300020737461727420616476204020CE
:1005900064697363210D0A00EAA1002001F0B8FA32
:1005A0001BE70121C903884224D160792179000227
:1005B0000843030005F0E1F906051416181A1C0497
:1005C0000BE7E6A1002001F0A3FA684602F03FFE27
:1005D000684643880288E7A1002001F099FAFCE60A
:1005E000EBA1DAE7F0A1D8E7F5A1D6E7FAA1D4E7C5
:1005F000FEA1D2E70121090488420DD101A802F031
:1006000026FE6846008900906846C3888288FCA15F
:10061000002001F07DFAE0E60128C1D102F042FDA0
:10062000DBE6F8B5FE4C207800281BD00026FD4DF7
:10063000012818D001277F02022822D0032811D1D7
:100640002670384604F015F8F7A1002001F060FA92
:100650007D20C00000F040FBF7A1002001F058FA17
:1006600002F0EDFFF8BDF9A1002001F051FA00F011
:100670004FFBFAA1002001F04BFA022020702E70EF
:10068000F8BD2878401CC0B228702028F8D9F6A1FF
:10069000002001F03DFA384603F0EBFFF8BD10B53D
:1006A00002210120FFF716FD02210846FFF712FD87
:1006B00002210320FFF70EFD02210420FFF70AFDAF
:1006C00002210520FFF706FD00210620FFF702FDAD
:1006D00002210720FFF7FEFC02210820FFF7FAFCA9
:1006E00002210920FFF7F6FC02210A20FFF7F2FCA5
:1006F00002210B20FFF7EEFC02210C20FFF7EAFCA1
:1007000002210D20FFF7E6FC02210E20FFF7E2FC9C
:1007100000210F20FFF7DEFC02211020FFF7DAFC9A
:1007200002211120FFF7D6FC02211220FFF7D2FC94
:1007300002211320FFF7CEFC02211420FFF7CAFC90
:1007400002211520FFF7C6FC02211620FFF7C2FC8C
:1007500002211720FFF7BEFC10BDF8B5C54D1926C4
:100760000127A8680024B6033F03B04222D2C24A40
:10077000394602F0BCFFC148AA68BF491319095D98
:10078000C35C994203D1641CA4B2BC42F5D3BC4201
:1007900005D02346BAA1002001F0BAF9AE60A868DE
:1007A000C219AA60B2423ED3BCA10020EA6001F0A7
:1007B000AFF938E00126E868F605B04235D20121EC
:1007C00002F06EFFBA4A3946E86802F0ACFF3946DB
:1007D000A94804F0B6FCA84A3946E86802F087FF49
:1007E000A548B349035D0A5D9A4203D1641CA4B2D3
:1007F000BC42F7D3BC4205D3AEA10020EA6801F0A9
:1008000087F906E02346B2A10020EA6801F080F9EA
:10081000EE60E868C219EA60B24204D32346B5A18B
:10082000002001F075F90120F8BD0020F8BD72B676
:1008300000F0DFF9FFF733FF002002F066FE01F061
:10084000D2FD002001F08BFEFF20F53003F053F9BC
:1008500001F095FE00F0D6FFACA3AFA2B1A100203D
:1008600001F056F9B549022004F005F800F0E6FE63
:10087000B349012004F0D9FB00F0FEFEFFF748FC6D
:1008800000F01CFEAF4800210160416002F00AFC4C
:1008900062B6AD4CAD4D624E764F03F025F800F0D8
:1008A0008EF92068002814D0800509D5FFF7B9FE1D
:1008B0000120400203F039FFA5A1002001F028F932
:1008C0002088C00505D5FFF7BEFCFF20013003F0EE
:1008D0002CFF286800280AD0400708D501F04FFEF9
:1008E0009FA1002001F014F9042004F015FA3078DB
:1008F000012801D1FFF795FEF878C00702D0FFF775
:10090000DEFCCAE7FFF729FF0028C6D102F067FE28
:10091000C3E797A1002001F0FBF8FEE70FB4F8B59C
:1009200069464A8B897F06A8022A09D0954B9A42CC
:1009300002D1C01D00F003FAF8BC08BC04B018478F
:1009400022E1000055415254206E6F74696679208F
:10095000456E61626C6564210D0A0000757064610A
:100960007465207273702041434345505445440DD3
:100970000A000000696E74657276616C3A25782011
:100980006C6174656E63793A25780D0A0000000089
:10099000757064617465207273702052454A4543D6
:1009A0005445440D0A00000075706461746520723E
:1009B00073702054494D45524F55540D0A000000A4
:1009C000757064617465207273702053554343459C
:1009D00045440D0A00000000456E61626C65206CA4
:1009E0006174656E63790D0A0000000044697361EB
:1009F000626C65206C6174656E63790D0A0000009D
:100A0000434F4E4E5F5550444154455F434F4D5008
:100A10003A2025642C2025642C2025640D0A000032
:100A200044300020453000204F54412066696E69F3
:100A300073680D0A000000005374617274205265DF
:100A40007365742031303030730D0A007374617235
:100A50007420467745726173650D0A004F5441203A
:100A600073746172740D0A004F5441206661696CA1
:100A7000650D0A00003000203C4100204E6200104D
:100A8000636865636B206661696C6520616464728C
:100A90003A257820693A25780D0A00006368656375
:100AA0006B206F6B20616464723A25780D0A000038
:100AB0003C3100207772697465206F6B206164643B
:100AC000723A2578206C656E3A25780D0A00000090
:100AD0007772697465206661696C6520616464720F
:100AE0003A2578206C656E3A257820693A25780D8C
:100AF0000A000000666C6173682077726974652073
:100B000066696E6973680D0A0000000031343A307E
:100B1000373A3038000000004170722031392032FD
:100B200030323200537964383831315F5541525494
:100B30002025733A25730D0A00000000F4590020A7
:100B4000245A0020C4590020043100201C31002008
:100B50004556545F31535F4F54410D0A0000000069
:100B60005254434556545F313835530D0A00000046
:100B70004552523A20486172644661756C74210D89
:100B80000A00000001FF0000384B17241A68624376
:100B9000374CA154012207E08518AE791D6817274C
:100BA0007D432D19AE54521C9142F5D21868401C59
:100BB0001860322800D2BFE600201860BCE6F8B505
:100BC0002A4C25686068A84212D0294E0027606828
:100BD000A8420DD017214843315C8019401C00F019
:100BE0006AF86068401C60603228F0D36760EEE706
:100BF000F8BD10B588B002F069F8012002F02DFBB5
:100C00000120C00503F09DFA1A4802F051FB0321B0
:100C10006A46117300245473907BFB228843401C66
:100C200010406A4690731020D0731474517403A856
:100C300002F001FBC02005900F48069005A802F0C5
:100C40001CFB002002F00CFDFFF7A4FA6A461470AA
:100C5000D4700120107150709470D11D800204F086
:100C60009BFA684602F061FC08B010BDC459002030
:100C700044550020103000206F030010FEB501A97C
:100C8000684600F07BFC002001266A46104901AC52
:100C9000104DB60213780BE00F68225CEA550A6823
:100CA000521C0A60B24201D300220A60401CC0B24A
:100CB0009842F1D3FEBD70B50D460646002404E00F
:100CC000305D00F050FC641CE4B2AC42F8D370BD5F
:100CD0003C5500203C5100200022064B06E000213C
:100CE000491C89B29942FBD3521C92B28242F6D37C
:100CF000704700008C0A000010B5E74B0E241B69FA
:100D00001C70541C5C709870D81C04F001FA10BD63
:100D100008B502F024FD0020694608700122162063
:100D2000FFF7EAFF08BD0022DB49002801D00A7066
:100D30004A704A80CA808A800A81CA607047FEB5BC
:100D4000D54D0E4669880024002905D02A78002A4E
:100D500002D06C7000219FE00178032615296DD028
:100D60001CDC112935D012293ED0132941D0142979
:100D700022D1C17982790E0216436E80417A027ABD
:100D80000F021743EF80801C04F0FCF9E860AC8090
:100D90002C8133460246C1A1009773E001277F02F0
:100DA00016290AD020294DD0232957D0242903D130
:100DB000801C00F048F92E70FEBD0020FFF71CFAE1
:100DC000C3A1002000F0A4FE384603F0B3FC0120CC
:100DD00007E00020FFF710FAC1A1002000F098FE04
:100DE00004202870EC60FEBD801C00F0BFF80520D8
:100DF0001EE0871CC01C04F0C5F901463A78BD48C6
:100E000002F081FE0646781C04F0BCF903463878EF
:100E100000903246B8A1002000F07AFE002E09D0E2
:100E200068460471012201A91820FFF765FF06201A
:100E30002870FEBD012069460871F3E7801C00F0B0
:100E4000CBF8B8E70020FFF7D7F9B1A1002000F0F8
:100E50005FFE384603F06EFC0720C2E7C179827955
:100E60000E0216436E80417A027A0F021743EF801A
:100E7000801C04F087F9E860AC802C813346024680
:100E8000A8A10097002000F043FEFEBD435C2C8922
:100E90001B19491C2B8189B2B142F7D381071AD0A3
:100EA00001463246AD4804F033F92878022806D0CE
:100EB000012804D0082808D0072806D023E0A988F4
:100EC000E868A64A4018314615E0A988E868A34AB0
:100ED0004018314615E0704BD9689B88CB18022A20
:100EE00006D0012A04D0082A08D0072A06D00AE032
:100EF00002463146184602F0A5FC04E0024631469F
:100F0000184602F010FCA888801981B2A980688870
:100F10008142BAD32A89E888824204D1002000F0B5
:100F20004CF88FA103E0012000F047F890A10020C9
:100F300000F0EEFDEB882A8991A1002000F0E8FD89
:100F40000020FFF7F0FEFEBD70B5534C0D46216941
:100F50004A7821461431921C04F0DAF8206940786E
:100F6000801C287000206061A06170BD38B5044607
:100F700040782178000208430121090388421BD8E8
:100F8000A27882188A4201D9091AA1705949A27817
:100F90004018E11C04F0BCF86078217802020A4392
:100FA000A37882A1002000F0B3FD002069460870FC
:100FB00001221720FFF7A0FE38BD1CB56B46597003
:100FC000090A9970DA70110A1971187005226946B8
:100FD0001420FFF791FE1CBD38B504465F48203051
:100FE0000179002905D02038006A5C4A400102F0EE
:100FF00029FC204604F0C6F8617922790B021343DC
:10100000024671A1002000F083FD204604F0BAF8EA
:10101000617922790B02134302460021084602F04F
:1010200020FC044602466EA1002000F071FD002C59
:1010300007D000206946087001221820FFF75CFEE7
:1010400038BD0120F6E738B5044604F09BF8617915
:1010500022790B02134302465BA1002000F058FDE9
:10106000204604F08FF8617922790902114302F0D9
:10107000FDFB044602465FA1002000F049FD002C64
:1010800007D000206946087001221820FFF734FEBF
:1010900038BD0120F6E7000044300020434D445F96
:1010A00046575F57524954455F5354415254206F3D
:1010B00066667365743A25782C73697A653A257883
:1010C00020636865636B73756D3A25780D0A0000BF
:1010D000434D445F46575F45524153450D0A00005A
:1010E000344B53455454494E475F45524153452074
:1010F0000D0A00004A070020436F64655570646163
:1011000074653D25642025782025780D0A000000AF
:10111000464C415348444154415F45524153452058
:101120000D0A0000464C415348444154415F575218
:101130004954455F5354415254206F666673657439
:101140003A25782C73697A653A2578206368656357
:101150006B73756D3A25780D0A000000CC5900209C
:1011600073656374696F6E204F4B2120000000008F
:1011700073656374696F6E206661696C6521200018
:101180006F74615F726563656976655F63686563E7
:101190006B3A2578206F74615F73656374696F6E55
:1011A0005F636865636B3A25780D0A00636D64348C
:1011B0004B53455454494E475772697465202578FE
:1011C0002025780D0A0000006F746120737A3A259B
:1011D0007820636865636B73756D3A25782000002D
:1011E000436F64655570646174657632303D256483
:1011F0000D0A0000436F6465557064617465763351
:10120000303D25640D0A0000F0B5AA4C221D94461D
:10121000002829D0012826D1A74B002B23D000205D
:1012200001228240114207D01F5C01252668BD4083
:101230002E432660914302D0401C1828F0D318207A
:1012400001252A4682402B46114209D064460646B3
:101250002478183EB3401C4363461C70914302D06F
:10126000401C2028EDD3F0BD934B183BD5E7F0B5DB
:10127000904C221D9446002829D0012826D18E4B5F
:10128000002B23D0002001228240114207D01F5C96
:1012900001252668BD40AE432660914302D0401C24
:1012A0001828F0D3182001252A4682402B461142E7
:1012B00009D0644626780446183CA3409E43634602
:1012C0001E70914302D0401C2028EDD3F0BD7A4B14
:1012D000183BD5E7784910B530394A68147821466B
:1012E0005478240221439478D378240421431B06A4
:1012F000194381431170080A5070080C9070080E51
:10130000D07010BD70B56C4E303E73681D782A46A3
:101310005D782D022A439D78DC782D042A4324062B
:10132000224302431A70140A5C70140C9C70120E53
:10133000DA70F3681D782A465D782D022A439D787D
:10134000DC782D042A432406224302431A70140A2F
:101350005C70140C9C70120EDA7008229C182578B0
:101360002A4665782D022A43A578E4782D042A437D
:101370002406224382431A72100A5872100C987283
:10138000100ED87208201A181478204654782402B7
:1013900020439478D2782404204312061043084353
:1013A0001872010A5972010C9972000ED87270BD40
:1013B000414910B530398A6814782146547824029E
:1013C00021439478D378240421431B061943014315
:1013D0001170080A5070080C9070080ED07010BD83
:1013E000354910B530398A6814782146547824027A
:1013F00021439478D378240421431B061943814365
:101400001170080A5070080C9070080ED07010BD52
:10141000294910B530398A68147821465478240255
:1014200021439478D378240421431B061943414077
:101430001170080A5070080C9070080ED07010BD22
:1014400010B51D4C1820303C236919180A78104635
:101450004A78120210438A78C978120410430906A8
:10146000084310215A181378194653781B02194360
:101470009378D2781B04194312061143884318D07D
:101480006069002800D08047216918200A18137865
:10149000184653781B0218439378D2781B041843DC
:1014A000120610430870020A4A70020C8A70000E7D
:1014B000C87010BD8010005090300020F8B555481D
:1014C0000068C17B89098901C91CC173017C890934
:1014D0008901091D017420308178DF22114081705B
:1014E0008378BF210B4083704B4C206883785B0866
:1014F0005B00837003781B091B01083303700378BA
:101500005B065B0E037003780B400370C3781025F5
:101510002B43C370837804252B4383708578202365
:101520001D4385708678EF252E408670867880274B
:101530003E43867086780E4086700178294001709F
:101540000178114001708178022211438170C178C5
:101550001943C170062000F054F8206881780822F1
:1015600011438170F8BD2C490968487008788006DD
:10157000FCD50878DF2210400870704738B500228B
:101580006C462270244B1B680DE01C798C546D4610
:10159000521C2C78D2B2641C2C702C78641C2C70D9
:1015A0002C78641C2C70DC78E407EED0027038BD17
:1015B00019480068C17820221143C170704710B5E6
:1015C000154C20680178C90605D50178EF22114035
:1015D0000170FFF753FB20688178890703D5817874
:1015E00002221143817010BD10B50B48406801788C
:1015F000C90605D50178EF2211400170FFF73EFBC7
:1016000010BD002805DBC106C90E01208840034932
:101610000860704760300020A830002000E100E042
:101620000F48FF22016801321143016070470C48E6
:1016300001220168520211430160704710B57D24F8
:101640002401FF200023074A2146013002F038FF21
:1016500001200023044A2146400202F031FF10BD60
:1016600004310020211600102F1600100848042213
:10167000016811430160704710B50023054AB92184
:10168000042003F0DEFA042003F083FB10BD000009
:101690001C3100206D16001010B5604C0120206137
:1016A00060615FA0A06120464830E06101208002B7
:1016B0000021A1622062616259A0E16220635B485F
:1016C000606321641020E163A063616458A1E01DA0
:1016D00003F04FFD57A1204603F04BFD2020A071E1
:1016E00010BDF7B5054682B000200090EC681746A3
:1016F0002869A04201D9061B02E0A968201A0E1A27
:10170000A868761E001BB04200D80646BE4200D331
:101710003E46686832460019039903F0F9FC0098C8
:10172000BF1B801900900398A41980190390A86822
:10173000A04200D10024EC60002FD9D1009805B060
:10174000F0BDF7B50446C7688068E168C51B6068EE
:1017500016464018B54205D9019903F0D9FCB819CD
:10176000E060FEBD2A46019903F0D2FC0198761B89
:1017700041193246606803F0CBFCE660FEBD70B5EF
:101780000E4618214843254914464518E86A18357D
:10179000002804D001280FD0022805D113E02846E4
:1017A00000F031F8A04201D2002411E02246314677
:1017B0002846FFF7C6FF0BE0284600F024F8A042B9
:1017C000F4D20446F2E731462846FFF78AFF044682
:1017D000204670BDF8B507461048154600780E46FD
:1017E000002801D1FFF758FFEFF31084012080F3A8
:1017F00010882A4631463846FFF7C1FFE1B281F32F
:101800001088F8BD48E70269C1688A4203D8806839
:10181000401A801800E0501A401E70473C5A0020C1
:101820005465726D696E616C00000000845E00207A
:1018300052545400534547474552000010B50446E2
:1018400080686368421C934205D323681954A260E0
:10185000E068401CE060A2686068824209D12168AB
:101860002069FFF7B7FFA168884203D00020C0437A
:10187000E06010BD0020A06010BDFFB581B0012662
:101880001F4635460A9C029802E003F017FC6D1CC7
:1018900003998842F9D2AF4200D93D460B98C00760
:1018A00018D1002C16D00B98800701D5002F02D03C
:1018B000202000900CE03020FBE7641E0099019886
:1018C000FFF7BCFF0198C06800283DDB002C01D069
:1018D000A542F2D30198C068002835DB012F01D959
:1018E0007F1E06E03146029803F0E8FB0399884228
:1018F00002D303984643F1E7D24F3146029803F0F2
:10190000DDFB0146029A7143511A0291395C01983C
:10191000FFF794FF0198C068002805DB3046039963
:1019200003F0CCFB0600E8D10B98C0070CD0002CCC
:101930000AD0A54208D22021641E0198FFF77EFF3D
:101940000198C0680028F2DA05B0F0BDF7B59AB08A
:1019500007A802904020039000200C461A991546D3
:1019600004900826069105902178641C00296ED009
:10197000252907D002A8FFF761FF05980028F3DAB0
:101980001DB0F0BD01220020134602272178232933
:101990001BD02B2916D02D2902D0302906D101E0E9
:1019A000184300E03843641C002AEFD1002122785C
:1019B0001346303B0A2B0AD20A235943891830397F
:1019C000641CF4E704210843EDE73043EBE7002310
:1019D000D7B22E2F0AD1641C22781746303F0A2F27
:1019E00004D20A277B439B18303BF4E76C2A0CD0C7
:1019F000682A0AD0662A3FD00FDC582A30D007DC8C
:101A0000252A6FD0462A71D136E06278641CEDE752
:101A1000632A0BD0642A69D10DE0702A57D0732A4B
:101A200046D0752A14D0782A60D119E02868011DA3
:101A30002960017857E02A68171D2F601768009108
:101A400001900A22394602A800F098F84EE04FE0D3
:101A50002A68171D2F6017680A220091019006E07E
:101A60002A68171D2F6017681022009101903946CF
:101A700002A8FFF702FF39E0002017901890199094
:101A8000286817AFC01DC008C00001460831296092
:101A90000CC86DA1384603F045FF39787F1C00293A
:101AA00024D002A8FFF7CAFE05980028F5DA1DE049
:101AB0002868011D2960076839787F1C002915D026
:101AC00002A8FFF7BBFE05980028F5DA0EE02868AB
:101AD0000823011D29600168002010220096019052
:101AE000C6E7FFE7252102A8FFF7A8FE641C44E72C
:101AF000002800DC44E70498002804D0024607A927
:101B00001A98FFF767FE049905984018059037E783
:101B10000FB408B504A900916A460399FFF716FFB0
:101B200001B008BC04B01847FFB5002481B01D46C1
:101B30001646002902D00198FFF7EAFF01277F0728
:101B400013E0600704D1A2B241A10198FFF7E0FFC2
:101B5000325D41A10198FFF7DBFF6007F84203D136
:101B60003FA10198FFF7D4FF641CAC42E9DB60079A
:101B700003D03BA10198FFF7CBFFE5E6FFB583B0AB
:101B80000E4670420D9F0C9C0090002900DB084619
:101B9000012502E003F0A8FA6D1C05998842F9DAE4
:101BA0000698A84200D90546002C04D0002E01DB7F
:101BB000780700D5641EB80702D50698002810D013
:101BC000F8070ED1002C0CD0A5420AD22021641EA9
:101BD0000398FFF733FE0398C0680028F2DA07B0D5
:101BE000F0BD0398C0680028F9DB002E02DA2D2131
:101BF000009E02E0780707D52B210398FFF71EFE11
:101C00000398C0680028EADBB807800F022810D1CB
:101C1000069800280DD1002C0BD0A54209D2302106
:101C2000641E0398FFF70AFE0398C0680028F2DAE2
:101C3000D5E7019700943146069B059A0398FFF774
:101C40001CFECCE74EA2061025342E3366000000A1
:101C50005B253034785D200025303278200000008C
:101C60000D0A00000448804704480047FEE7FEE7ED
:101C7000FEE7FEE7FEE7FEE7811C0010C100001052
:101C800002490148086070470024F400B430002085
:101C9000F1B5F64880470746F54880470646F34CBD
:101CA0000120183CA047F24D00200C35A847F1490F
:101CB000009888473046A8473846A047F8BDF0B599
:101CC000ED4DEE48E96885B00818044603F05AFA6D
:101CD0002146401C03F060FA0024E7480125C6684D
:101CE000E6480C3831180391487C097C000208430F
:101CF000A540284202903BD00B2060438119DF4869
:101D0000009109300818019003F03CFA0746DB48BF
:101D1000301803F037FA87422AD10F210098890141
:101D20004018007D00280CD0D44A00990D3A8A183A
:101D3000517D127D090211437818019903F02CFAA4
:101D400005E002980399A8430874000A4874CB4838
:101D500000990D30081803F015FA002808D0022D5C
:101D600019D0042D17D0082D15D0102D1AD080476A
:101D7000641CE4B20A2CB0D3BF48C168BF480C3819
:101D80000918487C097C00020843800501D1BC4841
:101D9000804705B0F0BDBB49012088470028E7D047
:101DA000222005E0B749012088470028E0D03B20E9
:101DB000FFF76EFFDCE710B5AF49122009698870A4
:101DC00072B60121AE4A0320B43A904762B610BD04
:101DD00010B50C4601788CB00A07120F69460A70DC
:101DE0000178CA0969464A70811C00A8062202309F
:101DF00003F08EF908A90C72012129220905A24CD1
:101E00006B460020A0470CB010BDFEB5002069460F
:101E1000087108709D4F08729D4E974CB847E0714D
:101E200002AB6A4601A9606902F04EFA00284ED062
:101E30000820B047002803D00220B04700280FD068
:101E400068460078012811D0E0686569407A012869
:101E50003ED00228E2D18F4AE17928469047DDE75B
:101E6000012168460170007A00282DD02521E06804
:101E700049014118497B6569002908D07F49D4315F
:101E80004018417B027B080283491043884728465B
:101E900002F070FA0028C1D068467E4A0179963275
:101EA000606990472878C0438007B7D1A878122886
:101EB000B4D121691320887072B60121704A0320C1
:101EC000B43A904762B6A9E73D20FFF7E1FEFEBDB8
:101ED00028780007000F052806D003289ED1E17955
:101EE0002846FFF775FF99E7687E297E00020843C0
:101EF000062805D3687F297F000208430A2803D2F9
:101F00005C491220884789E76049EE31A81C884760
:101F1000287887224006C10FE06811540622A91CC8
:101F2000883003F0F5F83721206903F00AF975E7E6
:101F3000F0B5544999B00420884700280ED0514983
:101F400004201A3188474E491F20AC318847534836
:101F500080471620FFF79CFE19B0F0BD504880471F
:101F6000002810D0444DEC68A1790807F4D5E07939
:101F7000C2071CD04B49204698308847E868C17991
:101F8000490849001FE0464E444F444DB2361C37C5
:101F90006C46103507E06846B0470128DCD168463A
:101FA0000178601CB847A8470028F4D0D4E782071E
:101FB0000BD53C4A20461C328E30811C9047E86885
:101FC000FD22C17923E0C171C6E7420708D5354932
:101FD00020466031A8308847E868FB22C17916E0C6
:101FE0000207F726002A09DA2E4A21464232A07A51
:101FF0000B319047E868C1793140E4E7C00608D565
:10200000284968467C318847E868EF22C179114049
:10201000D9E720463140FF30A1712130017D0026F3
:10202000002910D006752146072287310CA803F03D
:102030006FF821460DA82A228E31033003F068F88C
:1020400019490CA8884701206946087048708E70AD
:10205000E96800A82A2203308E3103F059F82D22B6
:102060000821094C6B460020A04775E7BF650000BA
:10207000776A0000CF160000B8300020CE030000C1
:1020800001120000F50A0000A13E000049570000BF
:10209000791900008B1E00002B620000BD6000005B
:1020A000054E000027260000DF470000FE490128FA
:1020B000896A0FD0022811D0042812D0082813D022
:1020C000102814D0202815D0402816D0802818D0E9
:1020D000012070478878C007C00F70478878800754
:1020E0000DE0887840070AE08878000707E08878E4
:1020F000C00604E08878800601E088784006C00FBA
:1021000070478878C009704710B5017801291FD140
:10211000401C03F037F8E44A10283AD00DDC0128BF
:1021200017D002281DD0042823D0082810D1FFF78B
:10213000BDFF00280CD1DD4809E0202839D0402817
:1021400006D1FFF7B3FF002802D1D84854308047AA
:1021500010BD0120FFF7AAFF0028F9D1FFF7E8FE24
:1021600010BD0220FFF7A2FF0028F9D1FFF74DFEB6
:1021700010BD0420FFF79AFF0028F9D1D068407AFB
:10218000012803D00228F3D1C948E0E7C848AE3897
:10219000DDE71020FFF78AFF0028E9D1906A2030A0
:1021A000407D400701D53E2000E00820FFF770FD8C
:1021B00010BD2020FFF77AFF0028F9D1BB48483036
:1021C000C5E770B510250826B74C002821D0A06AB5
:1021D000817E31438176014660310A7E63785209FF
:1021E0005201DB06DB0E1A430A762030427B067B67
:1021F0001302E26833432332547C167C22023243BA
:10220000934214D00273120A4273C87D2843C875E2
:102210000DE002F046F8A06A0022014620310A7360
:102220004A736030C17D2943C175A24806770120F9
:1022300070BD9D48C0682330417C027C0802104379
:102240000BD09D4948780A780002104303221043BE
:102250000870000A48700120B3E7704730B4974C0B
:10226000A44630BC6047F8B59348407A000663D571
:102270008D48C66830462330417C007C0F028E4971
:1022800007434878097804020C43002F01D1600706
:1022900052D5894DA87B697B00026D1C08434BD049
:1022A000002F49D068792979000208432ED12136C0
:1022B000707C317C0002084303F07EF90022804BE1
:1022C00003F07EF803F086F980B27843642102F0CF
:1022D0000BFF4004010C2971080A68710A20414370
:1022E000707D327D00021043814206D30A21401ED8
:1022F00002F0FAFE2871000A6871687929790002F3
:10230000084303D101202871002068716A48A107A1
:1023100009D502218C4301210C430470210A41702C
:102320000020FFF74EFF68792A7901021143654BBF
:1023300000224020FFF792FFF8BD1CB55E494A7AA3
:10234000002A40D04A780B7812021A43D3063AD4B6
:102350004378047818022043012834D1C878401EFD
:102360000006000EC8702FD08B780846017BC47A17
:102370000A022243017AC47909022143C01C012BBD
:102380002AD0521A0272120A42721206037A120CF0
:102390001A43521A69460A80427A017A12061214C6
:1023A0000A4369464A8044498A7B497B12020A43B0
:1023B00069468A80417B027B080210436946C880D7
:1023C0004149684688471CBD887AC870402002434E
:1023D0000A70100A48701CBD5218D3E73B4A1047D8
:1023E0003A4A2032104738B5002469460C7021461D
:1023F0007F20FFF7F5FF00213B20FFF7F1FF2921A8
:102400003B20FFF7EDFF69463B20FFF7E7FF6846FB
:102410000078800701D5012038BD641CA4B2FF2CD0
:10242000F1D9002038BD10B529488047012010BDE2
:1024300010B51D49274A8870002807D1C8688078E0
:10244000022803D000209047012010BD0120FAE7A8
:1024500010B5154C0128E168887004D000284ED0D2
:10246000022863D076E0206B014620310A785208BA
:1024700052000A700A78FD231A400A70017889090F
:1024800089011C3101704178890989011C31417031
:1024900000217F20FFF7A4FF03212120FFF7A0FFE9
:1024A0001F21032018E00000B8300020791600003A
:1024B0002715000020000240EB5E0020AB44000026
:1024C0000000F43F3322001033420000C5610000D9
:1024D00007470000A7650000FFF782FFFC49322094
:1024E000884702217F20FFF77BFF01210020FFF7B3
:1024F00077FF00217F20FFF773FF0F2127E00021E6
:102500007F20FFF76DFF00210420FFF769FF022104
:102510007F20FFF765FF00210846FFF761FF0021DC
:102520007F20FFF75DFF0021032011E002217F20C3
:10253000FFF756FF03210020FFF752FF00217F2005
:10254000FFF74EFF00210320FFF74AFF0021042080
:10255000FFF746FFA078FFF76BFF012010BD10B515
:10256000FFF776FF012010BD10B5DA488047DA4842
:10257000C06A017ADF2211400172012010BDFEB550
:10258000D54C01202071D54880470190E06A817ABE
:10259000007ACF07FF0F0026C506D149ED0E487817
:1025A000097800020843800608D5A06A2030417BE4
:1025B000027B0802104301D0FFF755FEA80702D0A6
:1025C0000126FFF7D1FFC448C06A817A4908490053
:1025D0008172C2490120183988470220FFF738FF6D
:1025E000BB4964201A398847002469460C70254687
:1025F00001217F20FFF7F4FE00210A20FFF7F0FE03
:1026000022210A20FFF7ECFE69460A20FFF7E6FECA
:10261000684600784007EFD469460A20FFF7DEFEDF
:1026200068460078400705D568460078000706D45C
:10263000012504E0641CAB48A4B28442ECD3A44955
:1026400064201A3988470020FFF702FFA349019848
:1026500018398847A04CE06A817A49084900394313
:102660008172002E02D09B480C38804700202071D8
:10267000002D01D00120FEBD0020FEBD10B51121AE
:10268000974802F05EFD10BD70B50446401C02F094
:1026900079FD022818D0042819D001214904884264
:1026A0004AD125462035687B092301070209090F15
:1026B0000020072A1FD0032A23D0022A28D0012A6B
:1026C0002CD0002A30D035E0FFF7D8FF3DE0824D16
:1026D0000121E868FF302130017501F096FEE868BD
:1026E0008078002804D12879002801D1FFF747FF1E
:1026F000FFF779FE29E0581A062148434121C943D2
:1027000004E0581A062148433521C943081A10E04D
:10271000581A062148432321C943F7E7581A0621CE
:1027200048431721C943F1E7581A06214843801D41
:10273000404240B2687308E040281DD00121C9031F
:10274000884202D1601DFFF7F8FD65494878097895
:1027500000020843800607D5601C02F013FD000547
:10276000000F01D0FFF77FFD5B483C3002F00AFD0F
:1027700001462046884770BD5748383002F002FDB8
:102780004006E2D570BDF0B5534C0646E0688DB00A
:10279000FF302130407C0D46002829D0002D26D066
:1027A00072B6A068183002F0EDFCE1683222FF3109
:1027B0002131897C4C4B514340186A46322198475D
:1027C00062B6002E04D0E068FF302130807C30708B
:1027D000E7680A21FF372137B87C401C02F06EFC05
:1027E000B974E078401CC0B2E0700A2802D9002019
:1027F0000DB0F0BD684600780128D1D100A90722AC
:102800002846013102F084FC2A22E81D02A902F0C8
:102810007FFC0120ECE7F0B5054634498DB020205F
:1028200088472D4C0426E16820690F4686700822EF
:10283000C01CC931BD3702F06BFC20690422394647
:102840000B3002F065FC0D21294A03209047E06817
:10285000294608220A31C13002F05AFCE0682946B4
:1028600004221231B93002F053FC287A214F00289B
:1028700002D1687A00281FD00020E070E0682A7A30
:1028800001468030837B9A420AD16A7AC07B8242B9
:1028900006D108222846903102F05EFC00282DD097
:1028A00069460020FFF76FFF01283BD00622002178
:1028B000114B012098479BE7E06802228179114380
:1028C00002468171C132FF3011461030B84726E010
:1028D0004562000013470000B8300020BF650000CB
:1028E000EB5E0020FFFF000059530000050B0000C5
:1028F0004D11000019220000D9190000E06881790B
:10290000024631438171C13211469830B847E068C0
:1029100080308079012802D1FE4902208847FE4894
:10292000804765E7E06801A92A228E30033102F072
:10293000EFFBA3E77CB5451C8078297800020843AB
:10294000F64C022810D00F2810D001211D2810D0DD
:10295000FF3810280DD0F24A694601209047687868
:1029600029780002084302E0032000E00220A07161
:102970007CBDA1717CBDE94880797047E949084771
:102980001CB5E9480821017000214170017BC27A21
:102990000902C01C114341D04279037912021A4343
:1029A000891A0BB26A461380417A027A0906091421
:1029B00011436A46518019220624D201062B02DAFD
:1029C0006B461C8003E0934201DD6B461A800629AA
:1029D00002DA69464C8003E0914201DD69464A8093
:1029E000417B027B080210436946C880CE48817B48
:1029F000427B0802104369468880C848C06823307B
:102A0000417C027C0802104302D00020FFF7D9FB72
:102A1000C64968468847C349402088471CBDC2490B
:102A200048780A7800021043C2050CD5FF22013213
:102A300090430870000A48700879401E0006000E96
:102A4000087109D09CE720221043102290430422F1
:102A500010430870000A48707047FEB5B24D044636
:102A6000687829780002084300077DD5B048804780
:102A700069782A78090211430822914329700A0AC9
:102A80006A706B7A064628461A066ED5A27967796F
:102A90001202651C3A43A14FE41C002A77D0102291
:102AA000114301700A0A427088065ED46879297958
:102AB0000002084332D002F07FFD0191009060785F
:102AC00021780002084302F077FD9A4C0022234649
:102AD00002F076FC019B009A02F072FC01910090DA
:102AE000F8682130417C027C0802104302F064FD4A
:102AF0000022234602F064FC07460C46687A297AD5
:102B000000020843801B02F043FD3A46234602F0D0
:102B100057FC019B009A02F0A1FB24E06078217829
:102B20000002084302F02CFD0446F8682130417C85
:102B3000027C0802104302F023FD214602F035FB1F
:102B400002F066FD00227B4B02F03AFC07460C4681
:102B5000687A297A00020843801B02F019FD3A4680
:102B6000234602F02DFC02E06EE064E00FE000225C
:102B7000714B02F08DFC02F02DFD0104090C00D117
:102B800001216E4B00228020FFF768FB53E09A067C
:102B900051D58278012A4ED18A064CD4FF22624850
:102BA000013211430170090A4170607821780002F6
:102BB00008435D490A7BCB7A1102194388423AD90E
:102BC00002F0DEFC0446F8682130417C027C0802F9
:102BD000104302F0D5FC214602F0E7FA02F018FD9E
:102BE0000022544B02F0ECFB07460C46687A297A27
:102BF00000020843801B02F0CBFC3A46234602F059
:102C0000DFFB00224C4B02F043FC02F0E3FC01042A
:102C1000090C00D10121494B00228020FFF71EFB47
:102C200041484178027809021143FF2201321143E1
:102C30000170090A4170032069460881022291034C
:102C40003F4C02AB0020A047FEBD10B50446007803
:102C500000280DD1A17862780802104309D001281C
:102C60001ED0032827D00C2802D1201DFFF762FEBA
:102C700010BD01F016FB3349201D8847002802D102
:102C80002820FFF705F8201DFFF7E7FE2348012164
:102C9000C368062209040020294C3133A04710BD27
:102CA00001F0FFFA2849201D88470028F7D1282085
:102CB000FEF7EEFF10BD201DFFF7ADFD10BD10B5F6
:102CC0000078012801D1FEF7FAFF10BDF0B51F48CA
:102CD00085B0804701217F20FFF782FB69465020A5
:102CE000FFF77CFB68460078042801D0184880472D
:102CF000FFF779FB094CE0688078012866D002284C
:102D00007ED0FFF73CFC01256846458005801148D0
:102D1000019021E0050B0000791A0000B830002076
:102D20001F1D0000B3440000EB5E00203342000092
:102D3000BF5500000000F43F000059401F2A00105A
:102D4000A13E00005D5B0000475F0000793D000090
:102D5000F7460000BF2C0010FE49684688476846C9
:102D60000570457000254580FB480190FB4BE068ED
:102D700008226946C01802F0CBF90121F84E402024
:102D8000B04701218020B04701212020B047FF211A
:102D90000C31684601800B2141808580C58005810A
:102DA00045818581C581EF48EA4904906846A2398A
:102DB0008847A0680A3002F0E5F9EC4BEA4A57214F
:102DC000984701F022FB012005B0F0BDE84880479C
:102DD0000090E06A067A817ACD07817AED0F490882
:102DE00049008172E24F0120183FB847B00701D077
:102DF000FFF7BAFB0220FFF72BFB6420DD4900E060
:102E00000CE088470120FFF723FB0098B847E06AF1
:102E1000817A490849002943817274E70220FFF74B
:102E200017FB70E710B5D4488047012010BDD24988
:102E300010B51E318847012010BDCF4910B554315F
:102E40008847012010BDCC4910B56031884701206A
:102E500010BDC94910B56E318847012010BDC64963
:102E600010B57E318847012010BD10B5C24CE63444
:102E7000A047012010BDF8B5C04CC149E06837300B
:102E8000884720693B230178BF250A09E1681201C0
:102E90005B5C1B071B0F1A4302701207120F012AFB
:102EA00079D00B4640335A781B7812021A430B46EE
:102EB00042331A70120A5A7002788B7A2A409B01A8
:102EC0001A435206520E027066235B5C42789B1DC9
:102ED00092099B0692019B0E1A4342700622801CA7
:102EE0000B3102F015F9E1686620425C002A04D03B
:102EF00020696731083002F00BF9E06800212030CA
:102F0000417720699F4A41788906890E891C90473C
:102F1000206901780A091201121D0270E1682A4035
:102F20008B7ADB075B0E1A43027046235B5C4278A8
:102F30009B1D92099B0692019B0E1A43427006222A
:102F4000801C0B3102F0E4F8E1684620425C002A64
:102F500004D020694731083002F0DAF82069894A44
:102F600041782C328906890E891C9047E068012738
:102F700005462035E97E01293BD000294CD00229A5
:102F80004AD0062948D000237F4C1A460121184612
:102F9000A047F8BDFFE70A464032137953718B7A98
:102FA0000278DB072A405B0E1A43027087235B5CC2
:102FB0005206520EDB011A43027042780B3192091D
:102FC00092010C3242700622801C02F0A1F82069A6
:102FD000E16806220830883102F09AF8E16803229D
:102FE0003D204254664A8720405C323A88319047FF
:102FF00087E74030417900290AD028200621A26ABB
:10300000937EFD242340937617756B7F2A7F43E0E0
:10301000477101200146F2E7064642367178327860
:103020000B02134317D0192189014B432230417FF2
:10303000047F0802204301228004800C009006D007
:103040000146184602F03AF8421C7F2A10D8D4B242
:103050003770380A14E03770390A71702230417FB6
:10306000027F0802104301248004800C009008E0D5
:103070007F24104621467E3002F020F83070000A8E
:1030800070703E48806A817E022211438176077506
:103090006B7F2A7F00992046314CFE34A0473B4885
:1030A000804776E710B5FFF7E6FE012010BD10B5AA
:1030B0003749032008702F4964201A318847354862
:1030C0008047012010BD72B600212C4A906A4175DC
:1030D000037C01210B430374D06845221154423014
:1030E00001700021417062B60120704710B52A4975
:1030F0008847012010BDF0B5204CA56A2C466034ED
:103100002678FD27C0073E40800F06432670A17039
:10311000627062352B71180A687105982071000A77
:103120006071F0BDF8B5154D1549E868373088472E
:103130001120EF68002480013D186E79A8790321E1
:10314000401C01F0BBFF01208840A971064228D134
:10315000641C23E02F44000009210010CE0200006F
:10316000615500004B2C0010945E00205953000064
:10317000BF6500002B620000833D0000B8300020D6
:10318000B1570000D9600000A13E00009D5600002C
:10319000000002400747000001410000E4B2032C98
:1031A000CCD31125AD017C19607B217B0002084343
:1031B000A91C7F18010AF24E3873797300280BD0CE
:1031C000607A227A010219201143800101F076FF12
:1031D0000206120E04D004E0012038730020787338
:1031E0000122787A397A000208430090607A217AC5
:1031F00003020B43A079E349095CE079FFF77BFF09
:10320000F068002140190171C17001744174817826
:10321000002901D0082901D908218170DA488047A6
:10322000B7E610B5FFF77EFF012010BD10B5D748F7
:103230008047012010BDD54910B5083188470120CD
:1032400010BDD24910B516318847012010BDCF49B5
:1032500010B578318847012010BDC9494870012058
:103260007047CA4910B586318847012010BDC74A4A
:1032700010B58E329047012010BD7CB5054601F097
:1032800081FFBF490446383101F086FF281D01F057
:1032900079FFBB493C3101F07FFF40208443BC48AB
:1032A000BA490190009468469631884701207CBD58
:1032B00010B5B8498847012010BDB64A10B508328C
:1032C0009047012010BD10B5B3488047022801D9AE
:1032D000002010BD012010BDF8B50E46AF490746CD
:1032E00048780978000208431C461546800609D52F
:1032F000A348806A2030417B027B0802104301D042
:10330000FEF7B1FFA6490120884700280CD0A2484B
:103310008047022809D972B623469E4C2A46314678
:1033200038461834A04762B633E6002031E69D499E
:10333000084710B504469A4901208847002803D061
:10334000984920460831884710BD70B50546944A13
:103350000C4601209047002804D0924A2146284676
:103360002232904770BDFFB50F4681B08C491D4693
:10337000164601200A9C8847002807D00094894CF3
:103380002B463246394644340198A0471CE5F8B52F
:103390000E46074682491C461546012088470028EC
:1033A00006D023467F4C2A46314638467C34A04717
:1033B000EFE510B504467A4901208847002803D07C
:1033C00078492046AC31884710BD70B50546744A2F
:1033D0000C4601209047002804D0724A2146284616
:1033E000C632904770BD70B505466D4A0C46012047
:1033F0009047002804D06B4A21462846E83290477F
:1034000070BDF8B50E46074665491C4615460120B5
:103410008847002805D02346634C2A463146384663
:10342000A047B6E570B50D4606465D491446012035
:103430008847002805D05C4B224629463046303369
:10344000984770BD70B50D46064655491446012093
:103450008847002805D0544B2246294630465C3325
:10346000984770BDF8B50E4607464D491C461546AF
:1034700001208847002806D023464B4C2A46314677
:1034800038468834A04784E510B5044644490120F5
:103490008847002803D044492046B831884710BDEA
:1034A00010B53F4901208847002802D03E48CC3063
:1034B000804710BD70B5324D0446082804D0E86836
:1034C000407808280DD014E000217F20FEF788FF07
:1034D00001214020FEF784FFE86A0178C908C9008D
:1034E0000EE000217F20FEF77BFF00214020FEF749
:1034F00077FFE86A01786207C908C900520F1143D3
:103500000170E8684470012070BDD3E710B504462F
:10351000264880472070012010BD10B5044623487E
:10352000801D80472070012010BD204910B51C313E
:103530008847012010BD1D4810B57230804701201A
:1035400010BD1B4800471B4908471A491A31084754
:1035500008B51949684688476846C0788007C00F93
:1035600008BD08B51449684688476846C078C00950
:1035700000D0012008BD10B5FEF730FF10BD0000DF
:10358000B83000205EA20610255700001D42000042
:10359000892600102D4300002B4E0000EB5E00201A
:1035A000F50A0000B73A0000BB3B00009F44000052
:1035B000FB5F00002B6200004D65000010B5FEF7B8
:1035C0000FFFDBE7FE48806AC07B052805D0062890
:1035D00003D00F2801D0002070470120704710B59C
:1035E000FFF7F0FF002801D1F64880470120C5E72A
:1035F00010B5F3490122886A4275437CDB09DB017F
:103600009B1C4374931E83741B0AC374C96ACB7AD0
:10361000EF242340CB724B7B93434B738B7A134342
:103620008B72817E022319438176017C11430174E0
:10363000E54905208847E548804701209EE7E348A3
:1036400010B512308047012098E710B5E04988474F
:10365000012093E7DE4910B51831884701208DE736
:10366000DA4910B558318847012087E7D749AC318E
:103670000847D64910B5FA31884701207EE710B5D2
:10368000D4488047012079E7D24810B518308047E8
:10369000012073E7CF4BA2331847CE4BD8331847DE
:1036A000F8B50746C648002680680D4634462830DF
:1036B00001F068FD2903C9194118C148406B8142D6
:1036C00011D9002065E472B6BD488068283001F049
:1036D00059FD2103C9194018BF4A012190470646E8
:1036E00062B6641CE4B2AC42EDD3304651E4F8B5A6
:1036F000B34D0446A86817460E46283001F042FD37
:103700000146A21980186A6B90420AD8002908D095
:1037100072B60819B04B3A463146EA3B984762B652
:1037200037E4002035E4F8B5A54D0446A8681746EF
:103730000E46283001F026FD0146A21980186A6B5A
:1037400090420AD8002908D072B60819A24B3A460E
:103750003146823B984762B61BE4002019E470B5FD
:103760009E48002400789C4E954D00280DD00128DD
:103770001ED024E072B6143001F004FD210340187D
:103780000121B04762B6641CE4B2A868C17B827BA9
:1037900009021143A142EDD811E072B6103001F0D8
:1037A000F1FC210340180121B04762B6641CE4B269
:1037B000A868C17B827B09021143A142EDD8012098
:1037C00070BD70B504460D46000B42197C488068F8
:1037D000C17B837B090219438A4201D9002070BD55
:1037E0007E497D4E0978002902D0012903D00AE0E4
:1037F00072B6143001E072B6103001F0C3FC00194B
:103800002946B04762B6012070BDF8B5044673483A
:103810000F4601786A48704D8068823D164600293F
:1038200002D0012903D00BE072B6143001E072B669
:10383000103001F0A7FC001932463946A84762B69D
:1038400001202EE430B45E4B9C68E37BA47B1B021A
:1038500023431B03834202D230BC0020704730BC9C
:10386000D3E730B45E4CA44630BC6047F3B554484F
:1038700089B080680024283001F084FC074609984C
:103880004609002511E072B66801534BC01920218A
:103890006A46EA3B984762B6002069460A5C401CCB
:1038A000121994B22028F9D36D1CB542EBD30998B4
:1038B000C606F60E72B631466801474BC0196A4615
:1038C000EA3B984762B60020694603E00A5C121999
:1038D00094B2401CB042F9D30A98844202D101202C
:1038E0000BB0F0BD0020FBE7F8B538488A388047B8
:1038F0003A4C5734607A002840D00006042500284E
:103900000FDA6078217800020843400709D5FEF7F6
:10391000AAFC6078217800020843A8432070000ABE
:10392000607060782178000208432E4F2E4E4106C9
:103930000CD5402188432070000A6070022069463F
:10394000088002466B4639460020B04760782178EF
:1039500000020843C10711D0400840002070010A4E
:103960006170800702D56846058002E0052069463F
:10397000088002226B4639460020B04750E41B48BD
:10398000004738B50E4C2078002805D1104968460C
:103990007E39884701202070012038BDF8B50278B3
:1039A000002A74D00D4957314A7242788A72002A2F
:1039B00001D0042A01D904228A72C278847817E0DF
:1039C000B8300020F144000045620000E5460000E8
:1039D000CB6500000348000043540000945E0020C3
:1039E0007B4A000000800000A13E0000F94B00006F
:1039F00013022343FB4A1C0AD372147344790579DA
:103A000024022C4315466C73240AAC73C47985795F
:103A100020022843D073000A1074F3480827C068B6
:103A2000D21C2130447C007C240204430120A342A8
:103A300014D900258D701B1B8C7AA34204DA1071F7
:103A4000000A50718B7216E0E400A34202DA107192
:103A5000000A01E01771380A50710CE088708E7A04
:103A6000E51AB5420FDA060A107156719C4201D16F
:103A7000887200E08D72887AC8700871FEF780FF46
:103A8000012051E403E0F3009D42E3DADFE7002088
:103A90004AE4D549496A0870020A4A70020C8A70E1
:103AA000000EC870487A022210434872704738B539
:103AB000044600200090CD49684688470099F820C8
:103AC0008143E006000E08430090FFF7E2FF38BD97
:103AD00008B500200090C549684688470098000650
:103AE000C00E009008BDC14872300047BF495A312E
:103AF0000847BF490847BE491A310847BD48004733
:103B0000BC490C310847F8B500260B460446012590
:103B1000304631462D03675C491CBE19A942FAD3D1
:103B20000021675C491C7840A942FAD39E4222D109
:103B3000904220D1AC4EB0680A3001F023FBA94975
:103B400000195722573901F0E3FAB0681C3001F030
:103B500019FBF168001907220A3101F0D9FA012195
:103B6000A54A00209047A44B002022462946823BCC
:103B7000984701201CE400201AE470B50126054690
:103B8000994C36039C4B00203146EA3BA26998478A
:103B90009A4928468847A0681C3001F0F3FAA169C9
:103BA00007224018E1680A3101F0B2FA0121924A75
:103BB00000209047904B00203146823BA2699847F5
:103BC00070BD10B50446884880680A3001F0DAFA02
:103BD000894B1021EA3B224657309847CEE470B516
:103BE00001260546804C3603834B00203146EA3BD4
:103BF000A26998470121804A00209047A0680A30B6
:103C000001F0C0FAA169102257314018294601F08D
:103C10007FFA794B00203146823BA269984770BDFC
:103C2000714840690178C943890702D18078062824
:103C300001D00020704701207047714A1047F3B54A
:103C400081B0060025D0684F386A0446C179807972
:103C50000D020543E01C01F095FA0102A078014332
:103C60000C46002D17D0002C15D00121624B090302
:103C70000020EA3BBA699847B8680A3001F082FA36
:103C8000B9696731405C401CC7B2032F05D90220D7
:103C9000FEBD0120FEBD0420FEBDB54204D1029848
:103CA000844201D10020FEBD0121534A00209047EB
:103CB0004D4CA0680A3001F065FAA2694E4B1146DE
:103CC00067314754012109030020823B98470320B4
:103CD000FEBD08B545496846884700984108C907B0
:103CE00001D0002008BD022108434049009028313E
:103CF0008847012008BD3B480121573802783A48DF
:103D000009078068002A03D0012A07D000207047E5
:103D1000C27B837B10021843400304E0C27B837B99
:103D20001002184300034018704770B504462D4830
:103D30000D46573801782C480126B60380680029C3
:103D400003D0012903D0002070BD143000E01030F2
:103D500001F018FA801972B60019274A29469047CF
:103D600062B670BDF8B505461E480F465738017853
:103D70001D480124A40380681646002903D00129A8
:103D800003D000209EE4143000E0103001F0FAF976
:103D9000001972B64019184B32463946EA3B98472B
:103DA00062B68FE4F8B505460E480F4657380178DD
:103DB0000D480124A40380681646002903D0012978
:103DC00003D000207EE4143000E0103001F0DAF976
:103DD000001972B64019084B32463946823B984763
:103DE00062B66FE4EB5E0020B83000204D65000045
:103DF0002B620000776A000043540000A13D0000E0
:103E0000D960000010B5030001F0B7FD09060C16DB
:103E1000202A343E415B770001217F20FEF7E0FA43
:103E2000882104E001217F20FEF7DAFA8A2161204F
:103E3000FEF7D6FA81215DE001217F20FEF7D0FA5E
:103E40008A216120FEF7CCFA832153E001217F20F3
:103E5000FEF7C6FA8A216120FEF7C2FA872149E0FF
:103E600001217F20FEF7BCFA8A216120FEF7B8FA13
:103E70008F213FE001217F20FEF7B2FA8A216120E5
:103E8000FEF7AEFA9F2135E001217F202BE00021D3
:103E90007F20FEF7A5FA02213020FEF7A1FA0121CA
:103EA0007F20FEF79DFA1F216320FEF799FA032178
:103EB0006D20FEF795FA8A216120FEF791FAB02174
:103EC00018E000217F20FEF78BFA02213020FEF758
:103ED00087FA01217F20FEF783FA1F216320FEF776
:103EE0007FFA07216D20FEF77BFA8A216120FEF719
:103EF00077FABF216520FEF773FA6FE610B5F74C2D
:103F0000A068283001F03EF9616B081A66E6F448B3
:103F100000787047F8B50546F04EF148B269007870
:103F20001446002801D0002016E4280502D02805F8
:103F3000000D2D1A72B601210903EA4F0020B8477F
:103F400062B6706B2146401B283101F025F9054609
:103F50002046103001F016F90090281A4108009808
:103F600008182146143101F017F901460098081A83
:103F70000001000CA073000AE07372B60121D94A57
:103F80000020EA32904762B672B60121D54B090390
:103F900000206833B269984731210020B268B847E1
:103FA00062B601204DE4CD48CC4BC079DB790209E3
:103FB0001B0709201B0FC01A062300215843072A9C
:103FC00008D0032A09D0022A0BD0012A0CD0002ADB
:103FD0000DD00FE04121C94301E03521C943081A42
:103FE00007E02321C943FAE71721C943F7E7801DFA
:103FF000404241B2C8B27047F3B5BB4EBB4F8DB023
:104000000546002432226B4621460320B04768460D
:104010004088A84206D1684601790E9801700120B7
:104020000FB0F0BDB84204D068460088001984B2D1
:10403000E8E70020F4E7F3B5AB4EAC4F8DB0054692
:10404000002432226B4621460320B0476846408850
:10405000A84208D1241DA1B2012203200E9B00F02A
:10406000E3F90120DCE7B84204D068460088001973
:1040700084B2E6E70020D3E7F3B59B4E9B4F8DB0AB
:104080000546002432226B4621460220B04768468E
:104090008178427808021043A84205D168464179E8
:1040A0000E9801700120BBE7B84204D06846007842
:1040B000001984B2E6E70020B2E7894910B557310C
:1040C0004878097800020843800603D5FEF7CBF84C
:1040D000012083E5002081E5854B184710B5044693
:1040E0007E4880680A3001F04DF808217D4B224659
:1040F0006730984772E570B5054672B6774C012671
:104100003603784B31460020A2699847754A012151
:104110000020EA329047A0680A3001F033F8A16924
:10412000082267314018294600F0F2FF6D4B00204D
:1041300031466833A269984762B670BD6D49082060
:104140000847664948637047FEB5644D0027A86874
:10415000801D01F017F8634E01AA0621B047002820
:1041600023D000241CE0A868801D01F00BF861003A
:104170006118891D40186A460321B047002814D0F1
:1041800068460078032809D1684640787F2801D125
:1041900069468F78012F01D1572807D0641CA4B23B
:1041A00068460089A042DED80020FEBD68468078BF
:1041B000FEBDF1B5494E84B0B0680027801D00F007
:1041C000E1FF484D01AA0621A847002823D000247A
:1041D0001CE0B068801D00F0D5FF61006118891DEA
:1041E00040186A460321A847002814D06846007882
:1041F000032809D1684640787F2801D169468F7825
:10420000012F01D1572808D0641CA4B26846008948
:10421000A042DED8002005B0F0BD72B601273F03F2
:1042200039460020B269A8472E4A01210020EA320F
:104230009047B068801D00F0A5FFB269049983180B
:104240006000201808301954264B00203946683386
:10425000984762B6DFE77FB50D464B210906084354
:104260000290002424480394804700940194224C37
:10427000012105202B4602AAA83CA0471E481C305D
:1042800080477FBD7FB5064600246D46291920462C
:10429000FFF7E1FF285D3055641CE4B20F2CF5D325
:1042A0007FBD10B500F0F7F8002804D000F0F3F857
:1042B0000128FBD092E400F0EEF80028FBD000F0DB
:1042C000EAF80128FBD089E4F0B5044C0025A46A83
:1042D000E678360712D50020F0BD0000B830002087
:1042E000945E002059530000C9280000FFFF000021
:1042F00019220000791900001D50000000BF6D1C3C
:10430000EDB2642DFAD3254640356E7CB607FCD459
:1043100000252646C036377947556D1CEDB2022D73
:10432000F9D346780125F709002F08D0F606F60ED6
:104330000E70157042785206D20F1A7004E0B30660
:104340009B0E0B7000231370594B0A789B6A801CDC
:10435000C033272A0CD20022C03403E026798654C9
:10436000521CD2B20E789642F8D85D720120B3E7A3
:104370005D72B0E710B5027800219207920F4C4BA6
:10438000012A39D0022A0CD0032A33D182780E2A8E
:104390002FD84078474BC0069A5CC00E904228D078
:1043A00028E04278D206D20E042A07D9C27884784F
:1043B00012022243172A01D8012200E000225A717A
:1043C000002A17D04179027909021143052910D03A
:1043D00006290ED1C1788278090211438079354AC5
:1043E00040000F3280184038C08F814201D0002138
:1043F00000E00121084680E559790029F7D040788E
:10440000C006C00E1728F4D9F1E770B52A4D002474
:10441000274EA847F1680919FF310131641CE4B245
:10442000C873102CF5D370BDFFB5214C0200E069B4
:1044300081B01E460D4606D0012A06D0022A06D0BB
:10444000032A06D009E0001D04E0083002E00C3029
:1044500000E0103000F096FE01464D1972B60127BB
:104460003F03164B39460020A269984762B6A069FF
:1044700031464019039A00F04BFE72B601210F4AF3
:104480000020EA3290470D4B002039466833A2697C
:10449000984762B6BFE60648816A0A466032907C59
:1044A000927C603101E0887C8A7C9042FBD170472D
:1044B000B830002061A20610FB5F000059530000D5
:1044C00070B51E46002915D0FE4DAC696B699C4243
:1044D00010D205C40846083C01F06EF8FA4AFB4BBE
:1044E00000F06EFF01F076F8A06026730020606196
:1044F0001834AC6170BD884200D308467047002272
:1045000006E00021491C89B21829FBD3521C92B243
:104510008242F6D3704710B5EA4C60682030017CC7
:10452000C9070FD0017C490849000174082000F038
:10453000CCFA60682030417C012211434174322062
:10454000FFF7DDFF10BD70B5DE4C0D466168034618
:104550002031087CC00706D0087C40084000087461
:104560003220FFF7CCFF626820321375180A5075AD
:10457000180C9075180ED075107CEF21084010743F
:10458000907C400840009074D1480560507C012523
:1045900028435074082000F08FFA60682030017CB6
:1045A0002943017470BDCEE770B5C64D1821287837
:1045B000AE68484369690C1A28698019286100208F
:1045C000C043A86018E0207B002814D02069B042C6
:1045D00004D16068002807D0804705E0801B206177
:1045E00002D0A168884201D9A0682061A9688842E8
:1045F00000D90846A860183468698442E3D3A868E3
:10460000002805D0411C03D0B249FFF7CCFF70BD94
:10461000FFF781FF70BDF0B5AA48AF4D416840314A
:104620000B7918464B791B0218438B79CA791B0406
:10463000184312060E79104332464E793602324341
:104640008E79CB79360432431B060F791A433B46E9
:104650004F793F023B438F79CE793F043B43360687
:104660003343641C904201D19A4201D0AC42D7D36B
:10467000F0BDF8B50446FFF7CEFF924A91680B1AD9
:1046800013610023884200D913610020C043906069
:1046900011781820414350691769411A17E00D68D5
:1046A000A54202D10B734B6110E00D7B002D0DD0A4
:1046B0000D69ED1B0D6102D08E68B54201D98D6880
:1046C0000D619668B54200D82E4696601831814239
:1046D000E5D39068002805D0411C03D07D49FFF741
:1046E00062FFF8BDFFF717FFF8BDF3B581B00646CE
:1046F000FFF7BFFF734818220178456951436C1AD0
:10470000714F0FE02068B0420BD1A0682061029881
:1047100000F052FF3A466D4B00F052FE00F05AFF97
:10472000A0601834AC42EDD3FEBD6649CA6882432E
:10473000CA607047F8B5634C054620781821484395
:104740006169081A06E00268AA4202D1027B002AC7
:104750003AD118308842F6D3FFF75DFFA1680A1AF4
:104760002261884201D9002020610020C043A0605E
:104770002078182163694843191A0127266919E02E
:104780000868A84203D1886808610F730BE0087BB2
:1047900000280ED00869801B086102D08A68904208
:1047A00001D9886808610246A068824200D8104694
:1047B000A06018319942E3D3A068002805D0411CBD
:1047C00003D04449FFF7EFFEF8BDFFF7A4FEF8BDA4
:1047D000F8B53C4C0546E068A843E060FFF71BFFD6
:1047E000A1680A1A2261884201D9002020610020B4
:1047F000C043A0602178182063694143591A0127FA
:10480000266919E00868A84203D1886808610F7317
:104810000BE0087B00280ED00869801B086102D0DD
:104820008A68904201D9886808610246A06882427D
:1048300000D81046A06018319942E3D3A068002840
:1048400005D0411C03D02349FFF7ADFEF8BDFFF7AB
:1048500062FEF8BD1B4918220B7853434A69D11AEE
:1048600005E00B68834201D1087B70471831914203
:10487000F7D3FF20704770B50D460446FFF781F867
:10488000002808D00F48182104704C436119856135
:104890004161FFF740FE70BD0A494A681146203168
:1048A0000875030A4B75030C8B75000EC8758B7C5D
:1048B000012003438B744B7C03434B740B7C0343F9
:1048C0000B740BE0F8300020FCA9F1D24D6240409F
:1048D000FC5E0020A9450010FF3F00002032D37C81
:1048E000DB07FCD00A7C520852000A744A7C02435F
:1048F0004A7470477C4840682030C17CC90708D0A2
:10490000417C01221143417478480068002800D09E
:104910000047704770B5744C064660680D462030FD
:10492000017CFD238907002905DA017C1940017407
:104930003220FFF7E4FD626820321676300A5076A6
:10494000300C9076300ED076107C20210843107405
:10495000907C1840907465484560507C022528433F
:104960005074092000F0A8F860682030017C2943C9
:10497000017470BD10B55C4C60682030017C890703
:104980000FD5017CFD2211400174092000F09DF833
:1049900060682030417C0222114341743220FFF7CD
:1049A000AEFD10BD504840682030C17C890708D555
:1049B000417C0222114341744C484068002800D0D9
:1049C0000047704770B5484C064660680D46203079
:1049D000017CFB234907002905DA017C1940017499
:1049E0003220FFF78CFD626820321677300A50774C
:1049F000300C9077300ED077107C40210843107433
:104A0000907C1840907439488560507C0425284378
:104A100050740A2000F050F860682030017C29436F
:104A2000017470BD304808214068403041180A7850
:104A300010464A78120210438A78C978120410434B
:104A400009060843704728480C2140684030411847
:104A50000A7810464A78120210438A78C9781204FC
:104A6000104309060843704710B51F4C606820309A
:104A7000017C49070FD5017CFB22114001740A20FB
:104A800000F023F860682030417C04221143417417
:104A90003220FFF734FD10BD134840682030C17C40
:104AA000490708D5417C0422114341740F488068AE
:104AB000002800D000477047002805DBC106C90E5A
:104AC000012088400A490860704700280ADBC106B7
:104AD000C90E01208840064980310860BFF34F8F1E
:104AE000BFF36F8F70470000F8300020FC5E00209D
:104AF00000E100E018B5F648006800900020694623
:104B00000B5C0A241A0962431B070A541B0FD218B4
:104B10000A54401C0328F3DB009818BD08B5FFF7C2
:104B2000E9FF009068460178C078EA4A401E504389
:104B30000A1868468178E1200001414368464078C0
:104B40003C23584308181118E34A1069814201D3E5
:104B5000081A02E0E14B081AC018116108BD70B5CF
:104B60000D46002802D0DA4E083E01E0D84E0C3E39
:104B70000024285D0A2100F0A1FA00010143295513
:104B8000641C032CF5DB284600F0FCFA306064203E
:104B9000FFF7B5FCCE482038C17A08221143C17214
:104BA00070BD38B5CC4909694418CA49204600F09F
:104BB00085FA421C6846C270E12508462D01294647
:104BC00000F07CFA0246684682702946204600F0D2
:104BD00075FA08463C2100F071FA014668464170BA
:104BE0003C21204600F06AFA6846017069460020C0
:104BF000FFF7B5FF38BD38B5FFF77CFF009068467A
:104C00000178C078B34A401E50430A18684681783C
:104C1000E12000014143684640783C23584308188E
:104C20001118AD4BAE485A6A0468914201D38A1AF2
:104C300002E0AA4D8A1A5219A2180260104659625F
:104C400038BD70B500290BD0A34D6E69AC69B44274
:104C500006D2A16005C423710020E0601034AC616D
:104C600070BD884200D308467047994920398A7A36
:104C70000F238343887A1A40000900011043887289
:104C8000704770B5C00742D0934C182160786668B1
:104C900048436169081A0A4603E0037B002B02D1EE
:104CA00018309042F9D3884231D2FFF737FFE168DC
:104CB00060680818E0600020C043606061781820D8
:104CC00041436069451A18E0287B002814D0286900
:104CD000B04204D16868002807D0804705E0801BF7
:104CE000286102D0A968884201D9A8682861616852
:104CF000884200D908466060183560698542E3D370
:104D00006068002804D0411C02D0FFF74AFF70BD44
:104D10000120FFF7AAFF70BD6F498A6882438A604D
:104D20007047F8B50446FFF7F9FE6B4AD06072B6DB
:104D30000021C94351605178182359435369591AC6
:104D4000002717E00D68A54202D10F734F6110E0F4
:104D50000D7B002D0DD00D692D1A0D6102D08E68CE
:104D6000B54201D98D680D615668B54200D9354606
:104D7000556018319942E5D35068002804D0411C91
:104D800002D0FFF70EFF02E00120FFF76EFF62B6D0
:104D9000F8BDF8B5504C0546607818214843616964
:104DA000081A06E00268AA4202D1027B002A38D122
:104DB00018308842F6D3FFF7B1FEE06072B60021EA
:104DC000C94361606178182266695143711A0127ED
:104DD00019E00A68AA4203D18A680A610F730BE0DE
:104DE0000A7B002A0ED00A69121A0A6102D08B6867
:104DF0009A4201D98A680A6113466268934200D8D0
:104E00001A4662601831B142E3D36068002804D0CA
:104E1000411C02D0FFF7C5FE02E00120FFF725FF8D
:104E200062B6F8BD2C49C8617047F1B582B0FFF792
:104E300075FE294DE86072B60021C9436960697842
:104E40006E69182251430090741AEF6920E02068BF
:104E5000B84209D13C21029800F030F93C20401AB8
:104E60002061012020730CE0207B00280FD02169F5
:104E70000098081A206102D0A168884201D9A06870
:104E8000206120696968884200D908466860183442
:104E9000B442DCD36868002804D0411C02D0FFF77C
:104EA00080FE02E00120FFF7E0FE62B6FEBD0A4987
:104EB00018224B7853434A69D11A05E00B688342A4
:104EC00001D1087B704718319142F7D3FF2070471A
:104ED000C01000508051010014310020803A0900B8
:104EE000B030002071490878002808D17048C37A92
:104EF00001221343C372C37ADB07FCD10A707047E7
:104F00006A49086270476A498A7A024310078A7AB6
:104F1000000F1209120102438A72704764498A7AAB
:104F20001209024310018A7A1207120F02438A7291
:104F3000704770B505460024285D0A2100F0BEF8D0
:104F4000000101432955641C032CF5DB284600F0C1
:104F500019F957492039C86370BD554A138A401E54
:104F6000DB0BDB034004400C03431382907C0907F6
:104F700000090001090F0843907470474C48C17A3A
:104F800004221143C172C17A4907FCD470474749D2
:104F90000878012809D14648C27A02231A43C2720E
:104FA000C27A9207FCD4002008707047F3B581B034
:104FB000FFF7EDFFFFF7E2FF01200021C003FFF73D
:104FC000CCFF6420FFF79BFA01216846C1700024E2
:104FD000847044700470FFF7ACFF344D07262C61D9
:104FE0006846C670172787703B2444700470694672
:104FF0000120FFF7B4FD6846C670877044700470E6
:1050000069460020FFF7ABFD0F20FFF787FF0F2059
:10501000FFF72BFE0120FFF776FF02982862FFF7CB
:1050200061FF244904200860FEBD70B50D460446AA
:10503000FEF7A7FC00280BD01C48182144704C43F5
:1050400061198561416101201B49C003FFF7AEFF73
:1050500070BD10B51648407A03071B0F1846FFF7BE
:105060005DFF1248016A002901D01846884710BD2B
:105070000E480078704718B5002802D00C48183048
:1050800001E00B48143000680090002069460B5C7A
:105090000A241A0962431B070A541B0FD2180A5428
:1050A000401C0328F3DB009818BD000014310020D9
:1050B000A010005000E100E0834C001030B50B461A
:1050C000014600202022012409E00D46D5409D42E2
:1050D00005D31D469540491B254695404019154668
:1050E000521E002DF1DC30BD70B50024254600288D
:1050F00001DA01244042002901DA01254942FFF783
:10510000DDFFAC4200D04042002C00D0494270BDCF
:1051100003460B439B0703D009E008C9121F08C0D0
:10512000042AFAD203E00B780370401C491C521E7B
:10513000F9D27047D2B201E00270401C491EFBD286
:1051400070470022F6E710B513460A460446194692
:10515000FFF7F0FF204610BD30B50446002003469F
:1051600000E05B1C934203D2E05CCD5C401BF8D0B6
:1051700030BD03460A780270401C491C002AF9D150
:10518000184670470321001D401E037812021A437F
:10519000491EF9D510467047034603220870000ADD
:1051A000491C521EFAD518467047F8B502464A40C7
:1051B000D40F42004B0052085B089A4202D20246CA
:1051C000084611464A0023D0C30D4A00DDB2120E34
:1051D000AD1A202D35DA49020126490AF6058A1949
:1051E000002C00D0524220214F1B1146B9402A41C9
:1051F0001018C20D9A4221D0002C17D0012D08DCC6
:10520000DA05801AD20F8019D207DBB200F080FADB
:10521000F8BDDA05801A012340001B06C01880186B
:105220005A428018CA0F1043490007E04908C207D4
:105230001143DA05801A80194008801800F060FADE
:10524000F8BD61000122511A001BF7E70122D207C5
:105250005140AAE70122D2075040A6E7F0B5074621
:105260000846584087B0C00F049048000E465900C9
:1052700040084908BC1A884105D2384631461E46C6
:1052800017460B4602465800400810434CD0300DDC
:10529000039040055900400D490D0590401A0290B9
:1052A000402872DA18030121000B09050843019018
:1052B00004980092002805D00199524200208841AC
:1052C00000920190029840210A1A0199009800F07A
:1052D000E3F905460C466B4607CB00F0FEF9C01912
:1052E0007141039A0E0D0023D71756401A467A4093
:1052F000164344D0049A002A2DD0029A012A039A18
:1053000015DC1205C01A914101263605001C7141B9
:10531000D20F059ED2070093019202962A46234699
:1053200000F03CFA07B0F0BD38463146FAE7160502
:10533000224A0F46B218C01AB74101210905001CC4
:105340004F4100187F41114618187941E20F104370
:105350006D19644113E0E2076D0815436408C20744
:105360001443039A01261205C01A91413605001C08
:105370007141CE07400830434908C01851412A46C0
:10538000234600F0FEF9CDE7FFE704980122400034
:10539000C117121A00238B4104983146C417381ADA
:1053A000A141EEE730B40124E407634030BC55E787
:1053B00030B40124E407614030BC4FE70000E0FF57
:1053C000F0B51FB488B00B9909980024484009999A
:1053D000C00F490049080991C0070B990090490086
:1053E00049080B9109990898A64608431CD00B99C7
:1053F0000A98084318D0099801244000420D48003B
:10540000410D099824050003000B204309900B98D7
:105410000003000B20430B9050181C494018002239
:1054200001901446104605E0002001460DB0F0BD85
:10543000032801DA034600E003239C46C11A0AAEA2
:105440000AE05F0008ADED5B4F00F75B7D4300278E
:10545000AA187C41491C5B1E6145F2DD410004AB8A
:105460005A522104120C0A43240C401C0828DFDB8A
:10547000019802900099704601910090059B049A52
:105480000799069800F08AF9D0E700000DFCFFFFAD
:10549000F0B50C465C4085B0E40FE40703944C0083
:1054A00000266408590094464908024602962243A1
:1054B00021D062460A431ED06200570D4A000E03F7
:1054C0002303550D012402462C492405781B1B0B90
:1054D000360B401823432643614600901C46501A61
:1054E000B44103D30098401C009002E09218009849
:1054F0005B41002803DA0020014605B0F0BD002022
:10550000012109050746864611E064461D46141B25
:10551000B54106D36546521BB341744607430C435D
:10552000A646CD0740084908284392185B41054626
:105530000D43EAD11046184313D060461946504037
:105540007140084306D06046101AB34106D20122CA
:10555000002306E000220123DB0702E00122D24300
:105560005310009874460105381C6141029C039D4C
:105570000019694100F005F9BFE70000FD030000D4
:1055800010B500229623114600F0C2F810BD0000AD
:105590000EB5C217C10F5040CA0740180021054B75
:1055A0000293019200910A460B4600F0F7F803B00F
:1055B00000BD0000330400000EB505490291002132
:1055C00000910A460B46019100F0E8F803B000BDD7
:1055D000330400004A0009030123090B1B0519438A
:1055E000094B10B5520D9A4201DA002010BD064B4E
:1055F00034339A4203DC9A1A00F05EF810BD034976
:105600005118884010BD0000FF030000CDFBFFFFD4
:10561000C20FD207400040080BD0C10D0723DB01A9
:10562000C91840020905400A1143C2084007114346
:105630007047002001467047F0B51FB406460020B1
:1056400082B005464024019100901BE0019922465A
:105650000F46304600F030F8049A059B801A9941B5
:1056600010D310461946224600F016F8361A8F411C
:105670000197224601200021009F00F00DF8381804
:105680004D4100902046641E0028DFDC019B0098FD
:105690002946324607B0F0BD10B5202A04DB01468A
:1056A000203A9140002010BD914020239C1A0346CF
:1056B000E3401943904010BD10B5202A04DB084692
:1056C000203AD040002110BD0B46D340D0402024CA
:1056D000A21A91400843194610BD10B5202A06DBD6
:1056E000CB170846203A1041C1170B4306E00B4682
:1056F0001341D0402024A21A91400843194610BDFE
:10570000002904DA401C490001D1400840007047DC
:1057100070B40024050C05D11024000402D1002926
:1057200021D01124050E01D100020834050F01D14A
:105730000001241D850F01D18000A41C002801DB7D
:105740004000641C002908D020252E1B0D46F54082
:10575000A14000D001212943084301061B1B000A78
:10576000DB1D02D5002070BC7047DB0518188018BF
:105770000029F8DA401C4900F5D170BC400840000F
:10578000704710B5002B08DA0024401C61419218C4
:105790005B411A4301D14008400010BDF0B51FB471
:1057A00082B005460C0003D0084600F0CFF802E0B6
:1057B00000F0CCF820300246009021462846FFF742
:1057C0006BFF049B059A04460F4618431143084398
:1057D00014D0184610431BD0009840210A1A1846CE
:1057E0000599FFF769FF05460E46009A059904984A
:1057F000FFF752FF084305D0012004E02046394658
:1058000007B0F0BD0020C11705430E432C433743BA
:1058100000990E986305401A7905E40A00220C43AA
:10582000FD0A0A3002D500200146E9E701051019FA
:1058300069410C9C0D9D00196941FFF7A2FFDFE74C
:105840004A0009030123090B1B0519430A4B10B534
:10585000520D9A4202DA0020014610BD064B343345
:105860009A4203DC9A1AFFF727FF10BD034BD218A8
:10587000FFF712FF10BD0000FF030000CDFBFFFF8C
:1058800010B5002904DB0124E40740428C41214685
:10589000002B04DB1C460123DB075242A341994243
:1058A00000D1904210BD0000064C0125064E05E0D7
:1058B000E36807CC2B430C3C98471034B442F7D331
:1058C000FAF702FC88A20610A8A2061070B58C1880
:1058D0000578401C6B075B0F01D10378401C2A112F
:1058E00006D10278401C03E006780E70401C491C6B
:1058F0005B1EF9D12B0705D40023521E0DD40B706B
:10590000491CFAE70378401CCB1A921C03E01D786F
:105910000D70491C5B1C521EF9D5A142D8D3002042
:1059200070BD00000FB410B504A9074B02AA03987C
:1059300000F0ECF8044602A9002000F083FC2046A9
:1059400010BC08BC04B01847456200102021020CAE
:1059500001D010211046020A01D010460839020970
:1059600001D01046091F820801D01046891E420846
:1059700001D0881E7047081A704730B47446641E00
:105980002578641CAB4200D21D46635D5B00E318C2
:1059900030BC184702E008C8121F08C1002AFAD11B
:1059A00070477047002001E001C1121F002AFBD19F
:1059B00070470000F0B51FB484B007980699020D37
:1059C000014314D04A484B491018484305140F9816
:1059D00001280E981CD0281A401C0024464E474926
:1059E000009401910290002814DA474227E00F98B2
:1059F000012443A3012808D0002104980F9A846051
:105A00000360C260416009B0F0BD0E98C143F4E785
:105A10004042E2E7074612E0F80707D02246334645
:105A200001990098FFF7CCFC019100902246334683
:105A300010461946FFF7C4FC04460E467F10002F9F
:105A4000EAD10298019B0028009A0799069802DA89
:105A5000FFF7B6FC01E0FFF71BFD04460E460022EF
:105A6000284BFFF70DFF03D80020C043014607E095
:105A70000022254B20463146FFF7F0FBFFF7E0FE02
:105A8000102409E0002C0ADB0A220023FFF7D4FDD2
:105A9000059B30321A55641E02460A43F2D1112288
:105AA000641C059B121B1C190F9B012B03D00123A7
:105AB00008430ED10AE0084304D011200E900020C4
:105AC0000F9084E70E98151A6D1E0BE00E98824217
:105AD00002DD00236D1C03E0824201DA00236D1E0B
:105AE000002BEED004980F998260C16030C08AE725
:105AF00001FCFFFF104D0000000024400000F03FBB
:105B0000300000000000F0430000E03FFFB597B018
:105B10000646002518E2252877D100242746FD49AE
:105B2000049400E00443761C32780120203A90402F
:105B30000842F7D130782A280ED002223078014668
:105B40003039092916D804990A23594330394018A5
:105B50001443761C0490F1E7189802C80491189039
:105B6000002904DA01204003044348420490022043
:105B70000443761C30782E2814D104200443707816
:105B8000761C2A2809D11898761C80C8189009E03C
:105B90000A214F43303FC719761C3078014630390F
:105BA0000929F5D930786C2810D006DC4C281AD099
:105BB00068280ED06A2817D104E0742813D07A28F8
:105BC00012D110E00120400504430CE00121090539
:105BD00001E0032109050C437178814203D10120C2
:105BE00000052418761C761C3078119066280BD09E
:105BF00013DC58287DD009DC00287BD04528F6D05E
:105C00004628F4D047281AD1A5E118E0632835D0FA
:105C1000642870D0652812D19DE170286CD008DC12
:105C20006728F1D069287BD06E280DD06F2806D167
:105C3000BAE073282ED0752871D0782859D01A9AD6
:105C4000199990476D1C7EE16002400F022809D02F
:105C500003280DD00428189801680DD00D60001D90
:105C6000189070E11898EA1701680D604A60F6E72D
:105C7000189801680D80F2E70D70F0E718986A46F1
:105C800001781172001D18900020507202A8009037
:105C9000012005E0189802C8189000200091C04328
:105CA00061070DD5002101E00199491C0191B9421C
:105CB00012DA8142F8DB009A515C0029F4D10BE042
:105CC000002101E00199491C01918142FADB019A0E
:105CD0000099895C0029F5D1019904981A9B471A0B
:105CE00021463846199A00F097FA0199401945184B
:105CF0000BE04FE02CE113E04EE0009800990078B3
:105D0000491C00911A9A199990470198401E0190D8
:105D1000401CF2D1214638461A9B199A10E137E00F
:105D20000A200021009001916002410F022907D052
:105D3000189A01CA1892C2179446032908D00AE09B
:105D40001898C01DC108C90005C91891944607E0FC
:105D500000B2C2179446042902D140B2C1178C4642
:105D600000226146944506DA0A46002140429141EC
:105D70008C462D2102E0210504D52B216A461173A2
:105D8000012103E0E10701D02021F7E7029155E06E
:105D90000A200AE0102008E01020009000210420D2
:105DA00004430191082703E008200021019100909D
:105DB0006002410F022907D0189A01CA18920022E6
:105DC0009446032908D008E01898C01DC108C900EE
:105DD00005C91891944603E080B2042900D1C0B2ED
:105DE00000210291210729D51199702906D0009A26
:105DF0001021019B4A401A4305D00EE040216A461B
:105E00001173012108E06146014306D030216A4642
:105E100011731199517302210291009A0821019B7B
:105E20004A401A430AD16146014301D1610705D5B1
:105E300030216A46117301217F1E02911199582960
:105E400004D035A10E910DA90D910DE037A1F9E710
:105E50006146019B009AFFF7EFFB0E9B8C469B5C13
:105E60000D9A521E0D92137061460143F0D10D98A8
:105E700005A9081A20300190600703D5012000040D
:105E8000844300E001270198874201DD381A00E0D1
:105E90000020019900904118029809180498401AAE
:105EA0000490E00306D421461A9B199A049800F046
:105EB000B3F94519002706E003A81A9AC05D19999D
:105EC00090476D1C7F1C02988742F5DBE0030CD5E0
:105ED00021461A9B199A049800F09EF9451904E08E
:105EE0001A9A3020199990476D1C0099481E00900D
:105EF0000029F5DC08E00D980D990078491C0D91FA
:105F00001A9A199990476D1C0199481E0190002911
:105F1000F1DC63E1092801003031323334353637A2
:105F200038396162636465660000000030313233E5
:105F30003435363738394142434445460000000085
:105F400000F05AF94519761C3078002800D0E2E5B7
:105F500028461BB0F0BD600700D406271898C01D66
:105F6000C108C90048680A680831C30FDB071891E7
:105F7000190001D09CA108E0210501D59BA104E0F6
:105F8000E10701D09AA100E09AA1430011985B08B3
:105F9000109165280CD006DC452809D046281DD074
:105FA000472841D141E0662818D067283CD13CE021
:105FB0000021112F01DB112000E0781C01910090DD
:105FC00008A911A8FFF7F6FC139905910021119A71
:105FD00015927F1C12980197009150E00120C00794
:105FE00003900120019008A9009711A8FFF7E2FC97
:105FF000139A149905920022119B009212981593FE
:10600000059A0192002901D0104602E0791C40183F
:106010000190381A01D5019804E04042401E0090DA
:10602000781C0190C01B029043E0012F00DA012789
:106030000021112F01DD112000E038460191009070
:1060400008A911A8FFF7B6FC13990591119A002130
:10605000129815920091019721070CD40599B94225
:1060600001DB019900E00191012904DD159A491E27
:10607000515C302906D0B84201DA011D05DA012150
:10608000029115E00199491EEDE7002805DC009911
:10609000411800910199091A03E0019A411C9142AB
:1060A00000DD01910099401A401C02900120C007B8
:1060B0000390200706D402990198814202DB002058
:1060C000C043029000206946C87707AF01210398BA
:1060D0000337C907884224D0022011902B20129048
:1060E000039800280CDA404203902D20129007E01C
:1060F0000A210398FEF7E2FF30317F1E03903970CA
:106100001199481E11900029F2DC03980028EFD164
:10611000791E129808703078202108404530BF1E43
:10612000387006A8C01BC01D039010980078002886
:1061300000D00120019941180298C017091803984E
:1061400009180498401A401E0490E00306D4214622
:106150001A9B199A049800F05FF845191098007876
:10616000002803D01A9A199990476D1CE00324D592
:1061700021461A9B199A049800F04EF845191CE024
:106180000098002807DB00990598884203DD1598E0
:10619000405C199901E0199930201A9A90470098AB
:1061A0006D1C401C00900298401E0290002804D1F3
:1061B0001A9A2E20199990476D1C0199481E01903A
:1061C0000029DDDC05E038781A9A7F1C1999904780
:1061D0006D1C0399481E03900029F4DC21461A9B8C
:1061E000199A0498ACE600002D0000002B00000076
:1061F0002000000000000000F8B5044600251E46FF
:106200001746880404D405E039462020B0476D1CA9
:10621000641EF9D52846F8BDFFB50446002581B0B7
:106220001E46C80301D5302700E02027880404D586
:1062300005E038460399B0476D1C641EF9D5284621
:1062400005B0F0BD0A68531C0B60107070473A0926
:106250000000000080010000400000004B00002012
:10626000000000D0040000100000C0000000000585
:10627000000000140000008009000000000003FF7F
:10628000FFFFFFFFFFFFFFFFFFFFFFFFFFFF0054C8
:1062900065737420465700000000000000000000F5
:1062A00000000000000000000000000000000031BD
:1062B0002E300000F4A307002D4C00000000000069
:1062C00000000000000000000000000000000000CE
:1062D000000000000000000000000000000000209E
:1062E0008500001E03000000000000FFFFFFFFFF0D
:1062F000FFFFFFFFFFFFFFFFFFFFFFFFFFFFFFFFAE
:10630000FFFFFFFFFFFFFFFFFFFFFFFFFFFF019406
:106310005AA85B56D4535944204D6F75736520308D
:10632000000000000000000000000000000000006D
:1063300000000000000C00010064000000D6BE89CF
:106340008E076B001E0005160201050303121803D9
:1063500019C1030A09535944204B42203635000025
:106360000000000000000003020AFE000000000020
:10637000000000000000000000000000000000001D
:1063800000000000000000010100001002000101F7
:106390000003000001000170170001000000000070
:1063A000000000000101010100083A09010008078E
:1063B0000050004000200001009001FFFFFFFFFFA0
:1063C000FFFFFFFFFFFFFFFFFFFFFFFFFFFFFF904C
:1063D00000004100000B40000C4100735604C41043
:1063E000037F0003150003390103000C031A0003A7
:1063F00001710310C00311D80316100336010337CF
:1064000007033870031380037F01030040032F2824
:106410000353B603325A035004036D0403659F030C
:1064200066F4035728036006037F02030600030790
:10643000000308000309950111F701120701180470
:1064400001400701410F01423F01430A01440F018E
:10645000453F014603014703014803014902014A40
:1064600002014B03014C40014D6F014E6F014F6F14
:1064700001517F01527F01537F01540801550801EA
:106480005610015708015804015906015A08015BCA
:1064900004015C7F015E4FFFFFFFFFFFFFFFFFFF77
:1064A000FFFFFFFFFFFFFFFFFFFFFFFFFFFFFFFFFC
:1064B000FFFFFFFFFFFFFFFFFFFFFFFFFFFFFFFFEC
:1064C000FFFFFFFFFFFFFFFFFFFFFFFFFFFFFFFFDC
:1064D000FFFFFFFFFFFFFFFFFFFFFFFFFFFFFFFFCC
:10674000FFFFFFFFFFFFFFFFFFFFFFFFFFFF14053E
:10675000000051050000900500009B0500006D063B
:106760000000060118052A0A000B0000000F181986
:106770002A1D001F00000001000300240025000066
:1067800000E7FEC8FE2A002B000000E7FEA1FE2F56
:106790000030000000E7FEA2FE32003300000009D6
:1067A000010000280700001809080000280B00015C
:1067B00018090C0000281A000A18091B0000281FDD
:1067C000000F1809200000282500010009260000FC
:1067D000283300E7FE0934000028FFFF00FF0AFF0E
:1067E000FF0000FFFFFFFF00000A02000328020372
:1067F00000002A0A04000328020500012A0A0600F4
:106800000328020700042A0A09000328200A0005B9
:106810002A0A0D000328020E00292A0A0F00032865
:10682000021000242A0A11000328021200252A0A55
:1068300013000328021400272A0A15000328021651
:1068400000262A0A17000328021800282A0A19001D
:106850000328021A00502A0A1C000328121D0019DE
:106860002A0A2100032808220002000A2300032824
:1068700012240003000A27000328082800C7FE0A84
:1068800029000328202A00C8FE0A2C000328022D14
:1068900000C9FE0A2E000328122F00A1FE0A3100B3
:1068A00003282A3200A2FE0A350003280E36000112
:1068B000FF0AFFFF000000FFFF00000E00030010B2
:1068C000002A535944204556420C00050010012A65
:1068D00030302030300F00070010042A0600060078
:1068E000300064000B000A0010052A0000000009B7
:1068F000000B00100229000012000E0010292A537C
:10690000594454454B20496E632E0E00100010244C
:106910002A535944383830310C00120010252A31DE
:106920002E302E300C00140010272A322E302E303C
:106930000C00160010262A332E302E300C001800C2
:1069400010282A342E302E300E001A0010502A0241
:1069500066660100010007001D0010192A07001ECD
:106960000010042909001F0010022900001C002249
:106970000010020000000000000000000000000005
:106980000000000000000000001C002400100300B4
:1069900000000000000000000000000000000000F7
:1069A00000000000000900250010022900001C0062
:1069B000280010C7FE0000000000000000000000DA
:1069C000000000000000000000001C002A0010C8A9
:1069D000FE000000000000000000000000000000B9
:1069E00000000000000009002B0010022900001C1C
:1069F000002D0010C9FE0000000000000000000093
:106A000000000000000000000000001C002F00102B
:106A1000A1FE0000000000000000000000000000D7
:106A200000000000000000090030001002290000F2
:106A30001C00320010A2FE00000000000000000058
:106A4000000000000000000000000000090033000A
:106A500010022900001C0036001001FF0000000099
:106A60000000000000000000000000000000000026
:106A700000FFFFFFFF751095018100C0050109802F
:106A8000A10185041A81002A8300150025017501E2
:106A90009503810295058101C00600FF0901A1014E
:106AA00025FF7508951485050901B102C00F002D59
:106AB00000704D2A000000000000000009002E00B8
:106AC000100229000009002F0010082901010D0003
:106AD0003100704D2A000000000000090032001053
:106AE00002290000090033001008290201090035BD
:106AF00000704D2A0000090036001002290000092C
:106B0000003700100829030109003900704D2A00E0
:106B10000009003A00100229000009003B0010089B
:106B200029040108003D00104D2A0009003E001014
:106B3000082901021B004000704D2A0000000000DF
:106B4000000000000000000000000000000000093C
:106B5000004100100829050308004300104C2A00DA
:106B600008004500104E2A01FFFFFFFFFFFFFFFF57
:106B7000FFFFFFFFFFFFFFFFFFFFFFFFFFFFFFFF25
:106B8000FFFFFFFFFFFFFFFFFFFFFFFFFFFFFFFF15
:106B9000FFFFFFFFFFFFFFFFFFFFFFFFFFFFFFFF05
:106BA000FFFFFFFFFFFFFFFFFFFFFFFFFFFFFFFFF5
:10764000FFFFFFFFFFFFFFFFFFFFFFFFFFFFA5A5FE
:10765000A5A500001E00DC00E00000173B000000B4
:107660000000080000E0D2003B001E005A001E008F
:107670005A00000000001E005A00000000001E001A
:107680005A00000000001E005A00000000001E000A
:107690005A00000000001E005A00000000001E00FA
:1076A0005A0000010000CA0000005A0B0A00000046
:1076B0000000FFFFFFFFFFFFFFFFFFFFFFFFFFFFD8
:1076C000FFFFFFFFFFFFFFFFFFFFFFFFFFFFFFFFCA
:1076D000FFFFFFFFFFFFFFFFFFFFFFFFFFFFFFFFBA
:1076E000FFFFFFFFFFFFFFFFFFFFFFFFFFFFFFFFAA
:1076F000FFFFFFFFFFFFFFFFFFFFFFFFFFFFFFFF9A
:10824000FFFFFFFFFFFFFFFFFFFFFFFFFFFFB8463E
:108250000020A5560010AD560010AF5600100000CB
:10826000000000000000000000000000000000000E
:1082700000000000000000000000B15600100000E7
:10828000000000000000B3560010B55600100000BA
:108290000000B756001005630010B7560010B7561F
:1082A0000010B7560010B7560010B7560010DD5733
:1082B00000108D5800105F590010B756001027119C
:1082C0000010B7560010B7560010B7560010090D31
:1082D0000010B7560010B7560010B7560010B7562A
:1082E0000010B7560010B7560010B7560010000027
:1082F000000000000000000000000000000000007E
:108300000000000000000000000000000000034822
:10831000854608F080FE0048004717080010B84660
:1083200000208307FF22DB0E9A408907090E99403F
:10833000002808DB8308F8489B001B181868904346
:108340000843186070470007000F08388308F34897
:108350009B001B18D86990430843D86170471FB52C
:1083600000206946087007224A72192292014A8148
:10837000EC4A8A810872684607F008F9EA49052044
:10838000887008461C380246837D017D10321C30FF
:1083900007F002F91FBD3EB5E34A1C3A1279012AE3
:1083A00001D000203EBD01256C462580032262805D
:1083B0002422A28003460A4625816946284607F002
:1083C000ABFA3EBD70B50446D8A103C986B004908F
:1083D0000591684607F05BFA684643880288D4A195
:1083E000002005F0DCF90A23C0210422002C09D06A
:1083F0005025012C2FD0D54E022C44D0032C55D023
:10840000D4A13CE068464088002815D06846008822
:10841000102811D9C44C00201C3C6073E578C82496
:10842000012D13D06D466B81EC816B4698811972DA
:108430005A7202A807F0C6FDCBA1002005F0AFF9E3
:10844000052104A8FFF7A7FF06B070BD10256B46F5
:108450005D81DC81E9E7684640880A28F4D26846F5
:1084600000885028F0D26846458183814B23DB0089
:10847000C3810172427202A807F0A4FDC0A10020CE
:1084800005F08DF9E0E7684640880A28DCD26846A6
:1084900000885028D8D2684645818381C681017200
:1084A000427202A807F08EFDBBA1E8E7684640884B
:1084B0000A28C9D2684600885028C5D26846458136
:1084C0008381C6810172427202A807F07BFDB8A1C8
:1084D000D5E703B583B06846C089152149028842B3
:1084E00005D1B8A103C900900191062006E0B74963
:1084F000884208D1B7A0006800900220694607F0C2
:10850000FCF905B000BDB1492831884205D1B1A1BF
:1085100003C9009001910820F0E7AC49233188425B
:1085200001D1AEA123E0A9492431884205D1ADA1F2
:1085300003C9009001910520E0E7A4492631884253
:1085400001D1AAA00AE0A1492531884201D1A8A001
:1085500004E09E492731884204D1A6A0006800901B
:108560000420CBE79A494F31884205D1A3A103C922
:10857000009001910720C1E7A249884203D16949CF
:1085800011310620BBE79E49383188420CD10020CA
:108590006A46107001900290694601A801F0FFF848
:1085A0006A4601A91078AAE7894918318842A8D1FA
:1085B0005D490D390120A2E75B4810B500211C3848
:1085C000C1718171417128218F4808F071F910BD86
:1085D0000FB4F8B56946534C488B1C3C897F06ADF7
:1085E00002280CD0874A3832904204D100202073F0
:1085F000E81D00F0DBFFF8BC08BC04B018470127F9
:108600000B46277381A10020EA1D05F0D4F8A67956
:10861000002E16D16846C07FFA2812D108A84078EB
:108620001421001D08F001F9C0B260710C2801D3BB
:108630000C206071002904D10006000E01D0401EFC
:108640006071E771607986421CD80C281AD86D4990
:1086500086420DD11420464370181422E91D08F0FB
:108660000EF91421684804F096FDFFF7A5FF09E014
:108670001420464370181422E91D08F000F9A0796F
:10868000401CA071A07961798842B4D90020A07102
:108690006071B0E724481C384178491CC9B2417068
:1086A000042903D300214170012101707047F0B506
:1086B00005468DB0401C08F01CF9012812D0194C59
:1086C00057491C3C0127022812D0042822D07903E4
:1086D0006E1C88421FD1707931790002084301284D
:1086E0001AD0D6E0FFF73BFE07F092F84DA123E148
:1086F0000020207127726072A0736073A072E07214
:10870000E070087001462773092001F0E3FB06239F
:10871000AA1D8EE093E0D7E0A9E000E400E000EDC0
:1087200000E0FF3F00001C300020FC0100000000C2
:108730000000696E74657276616C3A2578206C6110
:1087400074656E63793A25780D0A00000000B80B55
:108750000000536574557064617465206E6F6E65BA
:108760000D0A000000005365745570646174652043
:108770006F7461206C696E6B0D0A00000000536518
:108780007455706461746520696F73206C696E6BD9
:108790000D0A000000005365745570646174652013
:1087A000616E64726F6964206C696E6B0D0A000003
:1087B000000053657455706461746520656C736561
:1087C0000D0A00000000596F75796F750000012ACD
:1087D0000000FFFF000053594420496E632E424CB5
:1087E0004520312E3000312E302E30000000322E48
:1087F0003030332E3030342E3030023A09050A0240
:108800000000C9FE000080310020626C655F676176
:1088100074745F77726974653A0D0A000000603005
:108820000020526553746172744164760D0A000031
:108830000000FEA1002004F0BEFF0DB0F0BD00203E
:108840002072677260732073A072E072E070A07390
:10885000087006F0DDFF6A79FBA1002004F09FFF9D
:108860000021092001F036FB04F01EF9E5E7707ADB
:10887000317A00020843800705D0F9A1002004F0F6
:108880008EFF277105E0FBA1002004F088FF002087
:1088900020717079317900020843FB498842CCD1BC
:1088A000707A327A00021043C007C6D06846018051
:1088B000F74941801D21818007810122F54B6946DE
:1088C000104607F029F8B8E7C11FFF39FA3914D06C
:1088D000C11FF93921D0012109038842ADD04025BB
:1088E000082824D0890088422AD1EAA1002004F077
:1088F00056FFA07B2843A0739FE729460E2215311F
:10890000684607F0BCFF1E22691D04A807F0B7FFE8
:1089100004AC0FCCFFF75CFE8FE70822691D6846A8
:1089200007F0ADFF01990098FFF7D3FD85E7A07B25
:10893000DEA12843A0732773002004F030FF7CE7FA
:108940000121C903884291D170793179000208432D
:10895000030008F0C9FB06051416181A1C046CE77E
:10896000D8A1002004F01BFF684606F090FF68467F
:1089700043880288D949002004F011FF5DE7D7A1A0
:10898000DAE7DCA1D8E7E1A1D6E7E6A1D4E7EAA1DE
:10899000D2E770B5EE4C207800281CD00026EC4DB4
:1089A000030008F0A1FB0918060E19181818290E63
:1089B000180000F0E4FDE7A1002004F0F0FE022022
:1089C00023E02878401CC0B22870202803D9E4A1F5
:1089D000002004F0E4FE70BD2670E4A1002004F045
:1089E000DEFE7D20C00000F0D0FAE4A1002004F0FB
:1089F000D6FE07F035F970BD1E21002007F061F9A1
:108A0000D5A1002004F0CBFE082020702E7070BD90
:108A100010B500210120FFF784FC02210420FFF79C
:108A200080FC02210520FFF77CFC02210620FFF7D5
:108A300078FC02210720FFF774FC02210820FFF7D1
:108A400070FC01210920FFF76CFC02210A20FFF7CE
:108A500068FC02210B20FFF764FC02210C20FFF7C9
:108A600060FC10BD88B072B604F007FDC9A3CBA2AC
:108A7000CEA1002004F093FE00F0DFFB00F007FA27
:108A8000FFF7C6FF002007F04EF806F0E3F80120DC
:108A900006F084F97F4D0F3DA878C00706D100F09D
:108AA0002CFD0120C649400304F045FF04F055F9B0
:108AB00005F0A5F86423C24AC3A1002004F07BFEA0
:108AC000A878BF4CC0070CD101F0B5F906F0A0FEA4
:108AD000A07D012814D002F0EFFB02F0F4FA02F0BE
:108AE000DAFA0520C00200F0BAFF62B6A27DAB78C8
:108AF000B9A1002004F053FEA878C00703D006E017
:108B000003F0F8F9EDE70021012001F0E3F9002777
:108B1000B74E07F0FDF92878002828D0A878C007BC
:108B200025D12F70FFF735FF03F0A1FEA07D0028AF
:108B30001DD10120000600F06CFB0128688A54D08A
:108B4000401E00B2FF212D316882C84201DA6F82D7
:108B50002766A07E010604D54006400EA07604F0EC
:108B600064F9A07E410602D5BF210840A076306896
:108B7000002818D0800716D504A805F0ADF968467E
:108B8000C37D827D417D007D03936B4607C36846AC
:108B9000C37C827C97A1002004F001FE00F069FFF5
:108BA000022005F042FBA878C1073ED0810715D40A
:108BB00002210843A870080600F086FA04F0FCFEC3
:108BC00004F073FF04F0DAFF00F09DFB00F098FC66
:108BD00006F060F891A1002004F0E1FD94A10020CE
:108BE00004F0DDFD06F0EAFF93E7401C00B2FF2130
:108BF0002D3168828842BADD6F82A27E4020024316
:108C0000A2768E49206E8842B1D38D4988420DD319
:108C100080200243A2768BA1002004F0C0FD012138
:108C2000082001F057F9216E17E12DE11DE14741C0
:108C3000505F4556545F434F4E4E45435445442084
:108C4000616464723A004741505F4556545F44493D
:108C500053434F4E4E45435445442025780D0A005A
:108C6000000073746172745F747820656E61626C69
:108C7000650D0A00000073746F705F747820656E74
:108C800061626C650D0A000000000F180000192ACF
:108C900000000F3000204741505F4556545F454E5D
:108CA000435F53544152540D0A004741505F4556AB
:108CB000545F50414952494E475F434F4D500D0A52
:108CC00000007570646174652072737020414343C5
:108CD00045505445440D0A000000E404001075702E
:108CE00064617465207273702052454A454354454F
:108CF000440D0A0000007570646174652072737021
:108D00002054494D45524F55540D0A0000007570CE
:108D10006461746520727370205355434345454424
:108D20000D0A00000000456E61626C65206C617484
:108D3000656E63790D0A0000000044697361626C1E
:108D400065206C6174656E63790D0A000000603007
:108D50000020613000204F54412073746172740D03
:108D60000A004F5441206661696C650D0A004F543A
:108D7000412066696E6973680D0A00000000537433
:108D80006172742052657365742031303030730D18
:108D90000A0031353A34323A3132000000004A7567
:108DA0006E20203520323032310053594420525445
:108DB0005420496E697425733A25730D0A004704DF
:108DC0000010007C002073657474696E675F7374B3
:108DD000723A0D0A00006465766963655F737461B9
:108DE00074653A25782025780D0A000000002431AA
:108DF00000205254434556545F77686F6C655F6D31
:108E0000696E7574653A25642D25642D25643A25AF
:108E1000643A25643A25640D0A00504F5745525F65
:108E2000355620736C656570210D0A00000053797A
:108E30007374656D536C656570210D0A0000F0D286
:108E40000000905F01004F494C204D415353207763
:108E5000617272696E67210D0A000846FF382D386D
:108E600000D084E602F04AF981E60121072001F0F2
:108E700031F803F0DAFF2BA10020226E04F08FFC02
:108E8000206EB428EED072E603F0CAFB41E610B5BE
:108E90008AB006F007FB284806F02AFD0321684641
:108EA000017000244470807882089200FB20521CDC
:108EB0000240684682701022C27002220271417123
:108EC00006F0D9FCC02004901D48059004A806F0C7
:108ED000F4FC002006F0D5FE02A806F045FB16497A
:108EE0006846807B091DC8736846407B08746846E5
:108EF000007B48746846807AC8746846407A087572
:108F0000FFF72DFA684604764476012101778176D1
:108F100007A901200331400607F0F5FC06A806F07A
:108F200012FE0AB010BD4F494C204D4153532063EF
:108F30006E743A25780D0A00000018300020610494
:108F40000010104840686030417B027B08021043EB
:108F50008005800D704710B50B4B5868007CC0072A
:108F60000FD0FFF7EEFF59680A7C520852000A74CE
:108F700040310A7B520852000A739968002900D0D8
:108F8000884710BD00003C3000200022064B06E060
:108F90000021491C89B29942FBD3521C92B28242F1
:108FA000F6D3704700008C0A000070B5FF4A00231A
:108FB0001568012422469A40024202D0E9549043A7
:108FC00002D05B1C202BF5D370BDF0B5F74A002111
:108FD000156801231A468A40024224D00A290CD877
:108FE000CC08641920342678A4464F077F0F1C460E
:108FF000BC4026436446267013E0152901D88C1D19
:1090000003E01F290DD80C460834E60877192037ED
:109010003E78BC466407640F1F46A7403E43674640
:109020003E70904302D0491C2029D3D3F0BDF0B547
:10903000DE4A0021156801231A468A40024224D0E4
:109040000A290CD8CC08641920342678A4464F0786
:109050007F0F1C46BC40A6436446267013E01529CA
:1090600001D88C1D03E01F290DD80C460834E608F2
:10907000771920373E78BC466407640F1F46A74027
:10908000BE4367463E70904302D0491C2029D3D38B
:10909000F0BD10B504460021FFF787FFC3484068C4
:1090A0000378194643781B0219438378C2781B045E
:1090B000194312061143A14301700A0A42700A0CB7
:1090C0008270090EC17010BD10B5B749CA68082179
:1090D00053181C7821465C78240221439C78DB7865
:1090E000240421431B06194381431172080A50725C
:1090F000080C9072080ED07210BDF0B50E461546E1
:1091000004460021FFF751FFA84842681778394606
:1091100057783F0239439778D3783F0439431B0689
:109120001943214311700B0A53700B0C9370090EF5
:10913000D170C0680378194643781B0219438378BD
:10914000C2781B04194312061143214301700A0A15
:1091500042700A0C8270090EC170082142181378FF
:10916000194653781B0219439378D2781B0419438C
:1091700012061143A14301720A0A42720A0C82725A
:10918000090EC172082142181378194653781B0240
:1091900019439378D2781B041943120611432943CB
:1091A00001720A0A42720A0C8272090EC1723046BA
:1091B000FFF70BFFF0BD10B57C498A681478214693
:1091C0005478240221439478D378240421431B0645
:1091D000194301431170080A5070080C9070080E72
:1091E000D07010BD10B570498A6814782146547843
:1091F000240221439478D378240421431B06194385
:1092000081431170080A5070080C9070080ED070DD
:1092100010BD6549C9680A1D1378194653781B02A9
:1092200019439378D2781B04194312061143014263
:1092300001D00120704700207047F8B500245A483B
:1092400000940068FC212030254626462746017000
:10925000FF2141708170CF22C2700171204603004E
:1092600007F042FF202A2A26261116161616161176
:1092700011111111112611111111111126161B11A5
:10928000222626111126012181400D430E4313E0B1
:10929000012181400C430F4302E0012149060C43A8
:1092A000009A1143009107E00121C9060C4303E035
:1092B000012181400C430F43401CC0B22028CED373
:1092C0002846FFF7E6FE2846B043FFF774FF304616
:1092D000FFF788FF39462046009AFFF70EFFBC4390
:1092E0002046FFF7A4FE01204006FFF792FF012869
:1092F00008D12EA1002004F052FA31480122017851
:1093000011430170F8BD30B52F4D2F4C2846FFF7A3
:109310008EFE2846FFF7BDFE2046FFF763FF30BDF7
:1093200070B5214B18241A6915192E7834466E78B9
:1093300036023443AE78ED78360434432D062C43A0
:109340001470250A5570250C9570240ED470C043F6
:109350001074040A5474040C9474000ED0742032F7
:10936000107840084000107059610120184900032E
:10937000086070BD10B50C4C182021690A181378CC
:10938000184653781B0218439378D2781B0418436D
:109390001206104310228A181378194653781B02BC
:1093A000194393781B04194313E048300020504FB1
:1093B000574552204F4E2035562065786974210D4F
:1093C0000A0002300020EC03000DFCFF7ECD00E11E
:1093D00000E0D27812061143884318D06069002853
:1093E00000D0804720691821421813781946537815
:1093F0001B0219439378D2781B04194312061143B8
:1094000001700A0A42700A0C8270090EC17010BD08
:1094100070B53D4818210069401801780C46417824
:1094200009020C438178C07809040C430006044308
:10943000A001364D012600281DDA2878C00713D078
:1094400034A1002004F0ABF903F09CFC01F056FEBF
:109450002878B04328703220FFF797FD06F000FC13
:109460003148FFF792FD06E030A1002004F097F9A3
:109470002878304328702878C0073DD1600602D58F
:10948000402003F0E8F9200602D5802003F0E3F93C
:10949000E00503D5FF20013003F0DDF9A00503D579
:1094A0000120400203F0D7F9A00602D5202003F0E6
:1094B000D2F9200120D5214C2078010619D4802131
:1094C000084320701F4D1FA1AB7AEA7D002004F0F5
:1094D00066F9E87D400601D503F044FAE87D800690
:1094E00007D5174800214030407D0F30C0B200F052
:1094F000F1FC20783043207070BD184819490FE7FF
:109500000120400617490BE70000483000200230D8
:109510000020504F5745525F355620656E74657276
:1095200079210D0A000070170000504F5745525F17
:1095300035562065786974210D0A000000008C30D2
:109540000020007C002070726F78696D697479204A
:10955000636C6F73652025782025780D0A00E00381
:10956000000AC311001010B5E14B0E241B691C70DA
:10957000541C5C709870D81C07F081F910BD08B5B8
:1095800006F000FC00206946087001221620FFF753
:10959000EAFF08BD0022D549002801D00A704A70B0
:1095A0004A80CA808A800A81CA607047FEB5CF4C63
:1095B0000E4661880025002905D02178002902D0B7
:1095C0006570002297E001780326152968D01CDC1D
:1095D000112930D0122939D013293CD0142920D197
:1095E000C17982790E0216436680417A027A0F02AF
:1095F0001743E780801C07F07CF9E060A580258197
:1096000033460246BBA100976BE016290AD02029F9
:109610004AD0232951D0242903D1801C00F03EF9DF
:109620002670FEBD0020FEF7CDFEBEA1002004F096
:10963000B6F8012007E00020FEF7C4FEBEA100201E
:1096400004F0ADF804202070E560FEBD801C00F041
:10965000B8F805201EE0871CC01C07F04AF9014637
:109660003A78B94806F051FD0646781C07F041F9F2
:109670003978034600913246B5A1002004F08FF8F6
:10968000002E09D068460571012201A91820FFF7B4
:109690006AFF06202070FEBD012069460871F3E7CD
:1096A000801C00F0C4F8BBE70020FEF78BFEADA1E4
:1096B000002004F074F80720C5E7C17982790E0212
:1096C00016436680417A027A0F021743E780801CB6
:1096D00007F00FF9E060A580258133460246A6A178
:1096E0000097002004F05BF8FEBD835C25895B19C0
:1096F000521C238192B2B242F7D3820718D001469E
:109700003246AB4807F0BBF82078022804D008287E
:1097100008D0072806D021E0A188E068A54A4018B3
:10972000314613E0A188E068A24A4018314613E0B0
:109730006F4AD36892889B18022904D0082908D060
:10974000072906D00AE002463146184606F08DFB8E
:1097500004E002463146184606F0F7FAA088801960
:1097600081B2A18060888142BED32289E088824292
:1097700004D1002000F04CF88FA103E0012000F09C
:1097800047F890A1002004F00AF8E388228991A10B
:10979000002004F004F80020FFF7FCFEFEBD70B5C9
:1097A000534C0D4621694A7821461431921C07F02A
:1097B00066F820694078801C287000206061A061F4
:1097C00070BD38B504464078217800020843012175
:1097D000090388421BD8A27882188A4201D9091A43
:1097E000A1705949A2784018E11C07F048F8607848
:1097F000217802020A43A37882A1002003F0CFFF60
:1098000000206946087001221720FFF7ACFE38BD22
:109810001CB56B465970090A9970DA70110A1971F2
:109820001870052269461420FFF79DFE1CBD38B54F
:1098300004465F4820300179002905D02038006AAD
:109840005C4A400106F011FB204607F052F86179AE
:1098500022790B021343024671A1002003F09FFFFF
:10986000204607F046F8617922790B02134302463D
:109870000021084606F009FB044602466EA10020BE
:1098800003F08DFF002C07D00020694608700122EC
:109890001820FFF768FE38BD0120F6E738B504460A
:1098A00007F027F8617922790B02134302465BA186
:1098B000002003F074FF204607F01BF8617922793D
:1098C0000902114306F0E6FA044602465FA10020B1
:1098D00003F065FF002C07D00020694608700122C4
:1098E0001820FFF740FE38BD0120F6E70000603089
:1098F0000020434D445F46575F57524954455F53DC
:1099000054415254206F66667365743A25782C73FF
:10991000697A653A257820636865636B73756D3A7B
:1099200025780D0A0000434D445F46575F4552417C
:1099300053450D0A0000344B53455454494E475F7C
:109940004552415345200D0A00004A070020436F4D
:1099500064655570646174653D2564202578202513
:10996000780D0A000000464C415348444154415F81
:109970004552415345200D0A0000464C415348448E
:109980004154415F57524954455F5354415254200A
:109990006F66667365743A25782C73697A653A2523
:1099A0007820636865636B73756D3A25780D0A00DE
:1099B0000000A831002073656374696F6E204F4BFF
:1099C00021200000000073656374696F6E2066617A
:1099D000696C652120006F74615F726563656976EB
:1099E000655F636865636B3A2578206F74615F73A8
:1099F000656374696F6E5F636865636B3A25780DA4
:109A00000A00636D64344B53455454494E475772B2
:109A10006974652025782025780D0A0000006F7490
:109A20006120737A3A257820636865636B73756D7E
:109A30003A2578200000436F646555706461746551
:109A40007632303D25640D0A0000436F6465557021
:109A5000646174657633303D25640D0A0000084961
:109A600009684870000A887008780122104308705D
:109A70007047034800680178022211430170704763
:109A800000007C300020F8B50546012040040C465B
:109A9000060147002B0007F027FB09060C19223AA4
:109AA0004F94677C9400FFF79DFB3046FFF783FBE4
:109AB00004E0FFF780FB3046FFF794FB3846FFF7E2
:109AC0007AFB0120C004FFF776FB14E0FFF773FB7D
:109AD0003046FFF770FB3846FFF784FBF1E7FFF7EE
:109AE0006AFB3046FFF767FB3846FFF764FB01204F
:109AF000C004FFF777FB01208005FFF75CFB012026
:109B00000005FFF758FBFB48FFF755FB5EE0FFF74A
:109B100052FB3046FFF74FFB3846FFF74CFB012066
:109B2000C004FFF748FB01208005FFF75BFB012025
:109B30000005FFF740FB13E0FFF73DFB3046FFF762
:109B40003AFB3846FFF737FB0120C004FFF733FB31
:109B500001208005FFF72FFB01200005FFF742FBE6
:109B6000E548FFF728FB37E0FFF725FB3046FFF716
:109B700022FB3846FFF71FFB0120C004FFF71BFB49
:109B800001208005FFF717FB01200005FFF713FBFD
:109B900013E0FFF727FB3046FFF724FB3846FFF7BB
:109BA00021FB0120C004FFF71DFB01208005FFF70A
:109BB00019FB01200005FFF715FBCE48FFF7FBFA64
:109BC000F8BDCC48FFF7F7FA042D03D2CB49A0002B
:109BD000085823E0062DF3D20020E10701D0012030
:109BE000C003A10702D5012189020843610701D5FD
:109BF00010210843210702D5012109030843E1068A
:109C000002D5012189030843A10602D50121490398
:109C10000843610602D50121C9020843FFF7E2FAB1
:109C2000F8BDFEB5B648B54DB549007928350C7874
:109C3000002816D10846CA784B692831007AFF27D8
:109C40004D370979019101280CD029464E790096AB
:109C5000CE78022820D003287DD004287CD0052887
:109C60007BD0BBE0012A04D0022A07D0032A0CD003
:109C7000B4E0002C72D0012C70D0AFE0022C7ED06A
:109C8000032C7CD0AAE0102190E0042C0FD0A5E09A
:109C900000218BE0019989E0042C06D0032C0DD023
:109CA000002C18D0012C16D029E0012A6ED139469B
:109CB000184606F0BAFDA629ECD3E9E7022A6ED0D1
:109CC000092A6CD0102A6AD0172A68D01E2A66D0BA
:109CD00019E031466AE0032A51D0052A4FD00A2AFA
:109CE0004DD00C2A4BD0112A49D0132A47D0182A1C
:109CF00045D01A2A43D01F2A41D0212A3FD0022C16
:109D000001D0032C13D1042A39D0062A37D00B2ACC
:109D100035D00D2A33D0122A31D0142A2FD0192A47
:109D20002DD01B2A2BD0202A29D0222A27D0052C3F
:109D300054D1072A16D0082A14D00E2A12D00F2A7E
:109D400010D0152A0ED0162A0CD01C2A0AD01D2A93
:109D500008D0232A03E00DE00EE019E00FE001D067
:109D6000242A3BD13946184606F05FFDA6298FD23A
:109D700000991BE0002C02D0012C00D07EE7394670
:109D8000184606F052FDA62901D37CE726E025E01F
:109D9000012A02D0022A1FD020E0032C1ED139460E
:109DA000184606F042FDA62993D36CE72046FFF73C
:109DB0006AFE524C2078401CC0B22070062801D3A5
:109DC000002020706069A621401C0546606106F0F5
:109DD0002CFD00290CD00FE0052C01D0295DE5E712
:109DE0003946184606F021FDA629C1D38021DDE7BA
:109DF00060780121084360704249284606F015FD4D
:109E0000002903D1607802210843607007212846A9
:109E100006F00BFD002903D160780421084360702F
:109E20003949284606F001FD002903D16078082150
:109E300008436070FEBD10B53449622003F005FE92
:109E40002F49002008703148807A01063148417955
:109E500004D5EF2211400622114303E010221143E2
:109E6000F9221140417110BD1CB500216846817076
:109E70004170FF2101318180012017218006FFF709
:109E800094F8012168460170C17022480068017889
:109E90006846C18002F0E4FE02F053FF1CBD10B51D
:109EA0001749486A401C48621C490968884206D222
:109EB00019490968095C012002F025FF10BD012441
:109EC000A4062046FFF7E5F82046FFF78BF903F0DC
:109ED00055FE10BD10B50D4AD27D120601D40029E1
:109EE00021D006490022401E4A62C2B2CA72122A1A
:109EF0001AD314E0000010FC00009C970010803082
:109F0000002082060000D5140000D5190010007C46
:109F10000020A83000200C31002010310020F3A1D7
:109F2000002003F03CFC10BDF94990000C58F849A2
:109F3000201D0860204606F0DCFC0202E078120AD0
:109F400000060243F448F4A10260002003F027FC5D
:109F5000F849042003F0D1FDFFF786FF10BDF8B5E6
:109F6000EB4800213038067A05462835C778012E9F
:109F70000DD0F048E12304460A229B004034022E13
:109F800030D01021042E7AD0052E79D0EFE3EA4CA0
:109F9000012F04D0022F14D0032F1BD0E7E3A078A9
:109FA000401CC0B2A070182801D3A17005E00A2897
:109FB00003D30A2106F039FC00E010202870A078B5
:109FC0007EE06078401CC0B260703C2800D36170B5
:109FD000607888E328794006000E287180285CD1DB
:109FE000012059E0012F4CD0032F57D0042F6CD003
:109FF000052F73D0062F72D00A2F71D00B2F70D07F
:10A000000C2F6FD00D2F6ED0072F6DD0082F6CD076
:10A010000E2F6BD00F2F6AD0C74E2036112F67D06E
:10A02000122F71D0132F70D0142F6FD0152F6ED028
:10A03000162F6DD0182F6CD0192F6BD01A2F6AD015
:10A040001B2F69D01C2F68D01D2F67D01F2F70D0F9
:10A05000202F6FD0212F6ED0222F6DD0232F6CD0C8
:10A06000242F6BD0262F6AD0272F69D0282F68D0B5
:10A07000292F67D02A2F6FD02B2F6ED0B3E388E320
:10A08000ADE321754279521CD2B24271122A00D33B
:10A0900041714079AA49085C2871A6E30446C07A58
:10A0A000401CC0B2E072182801D3E17205E00A2812
:10A0B00003D30A2106F0B9FB00E010202870E07AF3
:10A0C0000A2106F0B2FB69708FE3027B521CD2B208
:10A0D00002733C2A00D30173007B04E30BE032E0FF
:10A0E0003CE04EE056E068E070E096E0BDE0E3E082
:10A0F00035E1E97079E30446407B401CC0B26073EF
:10A1000018280CD3617310E03BE143E154E15CE1BA
:10A1100082E1A9E1BAE1C2E1D3E1DBE101E20A288F
:10A1200003D30A2106F081FB00E010202870607B39
:10A13000C6E71EE22FE237E248E250E276E29DE215
:10A14000AEE2B6E2C7E2827B521CD2B282733C2AF4
:10A1500000D38173807BC6E2CAE2EFE20446C07B93
:10A16000401CC0B2E073182801D3E17305E00A284F
:10A1700003D30A2106F059FB00E010202870E07B91
:10A180009EE7027C521CD2B202743C2A00D30174B6
:10A19000007CA8E20446407C401CC0B260741828D1
:10A1A00001D3617405E00A2803D30A2106F03DFBC0
:10A1B00000E010202870607C82E7827C521CD2B2C2
:10A1C00082743C2A00D38174807C8CE20446808BAC
:10A1D000401D80B2A083782801D9A28305E06428BD
:10A1E00003D3642106F021FB00E01020C0B26870A8
:10A1F0001028A08B03D0642106F017FB04E0642133
:10A2000006F013FB0A2904D308460A2106F00DFBC9
:10A2100000E01020A870A08BB7E20446C08B401D60
:10A2200080B2E083984202D91420E08305E06428DC
:10A2300003D3642106F0F9FA00E01020C0B2687080
:10A240001028E08B03D0642106F0EFFA04E06421CB
:10A2500006F0EBFA0A2904D308460A2106F0E5FACB
:10A2600000E01020A870E08B8FE20446008C401DB7
:10A2700080B22084782801D9228405E0642803D3A1
:10A28000642106F0D2FA00E01020C0B268701028F5
:10A29000208C03D0642106F0C8FA04E0642106F0A3
:10A2A000C4FA0A2904D308460A2106F0BEFA00E0DF
:10A2B0001020A870208C68E20446408C401D80B2BB
:10A2C0006084984202D91420608405E0642803D396
:10A2D000642106F0AAFA00E01020C0B268701028CD
:10A2E000608C2ED0642106F0A0FA2FE00000766F7B
:10A2F0006963655F616E6E6F756E5F7479706520FE
:10A300006572726F723A25780D0A00000000B03055
:10A3100000200C31002010310020617564696F5FEE
:10A32000646174615F6C656E6774683A25780D0AC4
:10A330000000511C0010007C0020043100208A978E
:10A340000010642106F071FA0A2904D308460A2194
:10A3500006F06BFA00E01020A870608C15E23079EE
:10A36000401CC0B23071182801D3317105E00A28B1
:10A3700003D30A2106F059FA00E010202870307942
:10A380009EE67079401CC0B270713C2800D3717198
:10A390007079A8E1B079401CC0B2B071182801D31F
:10A3A000B17105E00A2803D30A2106F03EFA00E065
:10A3B00010202870B07983E6F079401CC0B2F071AB
:10A3C0003C2800D3F171F0798DE10446008D401DE9
:10A3D00080B22085782801D9228505E0642803D33E
:10A3E000642106F022FA00E01020C0B26870102844
:10A3F000208D03D0642106F018FA04E0642106F0F1
:10A4000014FA0A2904D308460A2106F00EFA00E0DD
:10A410001020A870208DB8E10446408D401D80B208
:10A420006085984202D91420608505E0642803D332
:10A43000642106F0FAF900E01020C0B2687010281C
:10A44000608D03D0642106F0F0F904E0642106F089
:10A45000ECF90A2904D308460A2106F0E6F900E0DF
:10A460001020A870608D90E1307B401CC0B230732A
:10A47000182801D3317305E00A2803D30A2106F016
:10A48000D4F900E010202870307B19E6707B401C66
:10A49000C0B270733C2800D37173707B23E1B07B32
:10A4A000401CC0B2B073182801D3B17305E00A286C
:10A4B00003D30A2106F0B9F900E010202870B07B20
:10A4C000FEE5F07B401CC0B2F0733C2800D3F17372
:10A4D000F07B08E10446008E401D80B2208678287B
:10A4E00001D9228605E0642803D3642106F09DF992
:10A4F00000E01020C0B268701028208E03D06421C4
:10A5000006F093F904E0642106F08FF90A2904D3D8
:10A5100008460A2106F089F900E01020A870208E74
:10A5200033E10446408E401D80B26086984202D9D5
:10A530001420608605E0642803D3642106F075F9D1
:10A5400000E01020C0B268701028608E03D0642133
:10A5500006F06BF904E0642106F067F90A2904D3D8
:10A5600008460A2106F061F900E01020A870608E0C
:10A570000BE1307D401CC0B23075182801D3317515
:10A5800005E00A2803D30A2106F04FF900E0102065
:10A590002870307D94E5707D401CC0B270753C28F9
:10A5A00000D37175707D9EE0B07D401CC0B2B07567
:10A5B000182801D3B17505E00A2803D30A2106F053
:10A5C00034F900E010202870B07D79E5F07D401C62
:10A5D000C0B2F0753C2800D3F175F07D83E00446ED
:10A5E000008F401D80B22087782801D9228705E09E
:10A5F000642803D3642106F018F900E01020C0B2EB
:10A6000068701028208F03D0642106F00EF904E052
:10A61000642106F00AF90A2904D308460A2106F043
:10A6200004F900E01020A870208FAEE00446408FAF
:10A63000401D80B26087984202D91420608705E0EF
:10A64000642803D3642106F0F0F800E01020C0B2C3
:10A6500068701028608F03D0642106F0E6F804E0EB
:10A66000642106F0E2F80A2904D308460A2106F01C
:10A67000DCF800E01020A870608F86E0307F401C7E
:10A68000C0B23077182801D3317705E00A2803D308
:10A690000A2106F0CAF800E010202870307F0FE58C
:10A6A000707F401CC0B270773C2800D37177707FF8
:10A6B00019E0B07F401CC0B2B077182801D3B17741
:10A6C00005E00A2803D30A2106F0AFF800E01020C5
:10A6D0002870B07FF4E4F07F401CC0B2F0773C28D3
:10A6E00000D3F177F07F0A2106F09FF8A87000E50B
:10A6F0002088401D80B22080782801D9228005E082
:10A70000642803D3642106F090F800E01020C0B262
:10A7100068701028208803D0642106F086F804E0D1
:10A72000642106F082F80A2904D308460A2106F0BB
:10A730007CF800E01020A870208826E06088401D8A
:10A7400080B26080984202D91420608005E06428BD
:10A7500003D3642106F069F800E01020C0B26870ED
:10A760001028608804D0642106F05FF805E03AE024
:10A77000642106F05AF80A2904D308460A2106F093
:10A7800054F800E01020A87060880A2106F04DF807
:10A79000AFE40446008B0A3080B22083984201D98E
:10A7A00022830BE0642809D37D21C90006F03DF81F
:10A7B0000846642106F039F8687000E06970248B5F
:10A7C0006421204606F031F808460A2106F02DF8EB
:10A7D000A8700A21204606F028F8E97003E0012F4E
:10A7E0000BD0022F13D0002F06D000210920FFF735
:10A7F00071FBFC4803210171F8BD607D401CC0B2B3
:10A800006075042801D301206075E870EDE7C27D12
:10A81000930604D56971DF210A40C275E5E720215E
:10A820000A43C27502206871DFE7F8B5EE481721C8
:10A83000057A04463B22C6782834012D07D0E1234F
:10A840009B00E948022D26D0042D73D0F2E3E7489F
:10A85000012E04D0022E0FD0032E16D0EAE3827808
:10A86000521ED2B28270FF2A00D1817080780A21F4
:10A8700005F0DBFF207081E04178491EC9B24170CC
:10A88000FF2900D1427040787DE320794008207193
:10A890005FD140205CE0D44F4037012E4BD0032ED7
:10A8A00058D0042E6CD0052E73D0062E72D00A2EEE
:10A8B00071D00B2E70D00C2E6FD00D2E6ED0072EB7
:10A8C0006DD0082E6CD00E2E6BD00F2E6AD03D4668
:10A8D000203D112E67D0122E76D0132E75D0142E57
:10A8E00074D0152E73D0162E72D0182E71D0192E4A
:10A8F00070D01A2E6FD01B2E6ED01C2E6DD01D2E38
:10A900006CD01F2E6BD0202E6AD0212E69D0222E23
:10A9100068D0232E67D0242E75D0262E74D0272EF3
:10A9200073D0282E72D0292E71D02A2E70D02B2EC3
:10A930006FD0A6E37FE3002139754179491EC9B282
:10A940004171FF2901D111214171C8B2A949085CA7
:10A95000207198E30546C07A401EC0B2E872FF2815
:10A9600006D00A2806D3E87A0A2105F05EFF02E045
:10A97000E972F8E710202070E87AF8E2617082E36B
:10A98000017B491EC9B20173FF2900D10273007B0C
:10A99000F9E20BE02EE03DE050E058E06BE073E0C0
:10A9A0009BE0C2E0EAE011E1E1706CE30546407B28
:10A9B000401EC0B26873FF2816D00A2816D3687BE1
:10A9C0000A2105F032FF12E01BE123E135E13DE110
:10A9D00065E18CE19EE1A6E1B8E1C0E1E8E10FE2CA
:10A9E00021E229E23BE243E26973E8E710202070AC
:10A9F000687BBCE2817B491EC9B28173FF2900D10B
:10AA00008273807BBFE25CE283E295E29DE2B2E288
:10AA1000BEE2E5E20546C07B401EC0B2E873FF28F7
:10AA200006D00A2806D3E87B0A2105F0FEFE02E0E4
:10AA3000E973F8E710202070E87B98E2017C491E5A
:10AA4000C9B20174FF2900D10274007C9BE2054663
:10AA5000407C401EC0B26874FF2806D00A2806D386
:10AA6000687C0A2105F0E1FE02E06974F8E7102035
:10AA70002070687C7BE2817C491EC9B28174FF2909
:10AA800000D18274807C7EE20546808B401F80B2BC
:10AA9000A8830A2802D27820A88301E0642804D37E
:10AAA00080B2642105F0C1FE00E01020C0B26070E9
:10AAB0001028A88B03D0642105F0B7FE04E06421C0
:10AAC00005F0B3FE0A2904D308460A2105F0ADFEBD
:10AAD00000E01020A070A88BA8E20546C08B401FA4
:10AAE00080B2E883142801D2EB8301E0642804D308
:10AAF000E88B642105F099FE00E01020C0B2607080
:10AB00001028E88B03D0642105F08FFE04E0642157
:10AB100005F08BFE0A2904D308460A2105F085FEBC
:10AB200000E01020A070E88B80E20546008C401FFA
:10AB300080B228840A2802D27820288401E0642880
:10AB400004D380B2642105F070FE00E01020C0B292
:10AB500060701028288C03D0642105F066FE04E0A4
:10AB6000642105F062FE0A2904D308460A2105F093
:10AB70005CFE00E01020A070288C57E20546408C57
:10AB8000401F80B26884142801D26B8401E06428DD
:10AB900004D3688C642105F048FE00E01020C0B2A8
:10ABA00060701028688C03D0642105F03EFE04E03C
:10ABB000642105F03AFE0A2904D308460A2105F06B
:10ABC00034FE00E01020A070688C2FE22879401E2F
:10ABD000C0B22871FF280ED00A280ED328790A2186
:10ABE00005F023FE0AE080300020007C00200431C4
:10ABF00000208A9700102971F0E710202070287932
:10AC0000B5E16879401EC0B26871FF2800D16A7151
:10AC10006879B8E1A879401EC0B2A871FF2806D0B3
:10AC20000A2806D3A8790A2105F0FFFD02E0A971E0
:10AC3000F8E710202070A87999E1E879401EC0B2A9
:10AC4000E871FF2800D1EA71E8799CE10546008DA2
:10AC5000401F80B228850A2802D27820288501E08A
:10AC6000642804D380B2642105F0DFFD00E01020E9
:10AC7000C0B260701028288D03D0642105F0D5FD86
:10AC800004E0642105F0D1FD0A2904D308460A2115
:10AC900005F0CBFD00E01020A070288DC6E1054630
:10ACA000408D401F80B26885142801D26B8501E079
:10ACB000642804D3688D642105F0B7FD00E01020FE
:10ACC000C0B260701028688D03D0642105F0ADFD1E
:10ACD00004E0642105F0A9FD0A2904D308460A21ED
:10ACE00005F0A3FD00E01020A070688D9EE1287B98
:10ACF000401EC0B22873FF2806D00A2806D3287B3E
:10AD00000A2105F092FD02E02973F8E71020207077
:10AD1000287B2CE1687B401EC0B26873FF2800D1FD
:10AD20006A73687B2FE1A87B401EC0B2A873FF281E
:10AD300006D00A2806D3A87B0A2105F076FD02E09A
:10AD4000A973F8E710202070A87B10E1E87B401E73
:10AD5000C0B2E873FF2800D1EA73E87B13E105462F
:10AD6000008E401F80B228860A2802D278202886CA
:10AD700001E0642804D380B2642105F056FD00E0B0
:10AD80001020C0B260701028288E03D0642105F016
:10AD90004CFD04E0642105F048FD0A2904D308466F
:10ADA0000A2105F042FD00E01020A070288E3DE150
:10ADB0000546408E401F80B26886142801D26B86FB
:10ADC00001E0642804D3688E642105F02EFD00E0C4
:10ADD0001020C0B260701028688E03D0642105F086
:10ADE00024FD04E0642105F020FD0A2904D308466F
:10ADF0000A2105F01AFD00E01020A070688E15E110
:10AE0000287D401EC0B22875FF2806D00A2806D328
:10AE1000287D0A2105F009FD02E02975F8E71020D8
:10AE20002070287DA3E0687D401EC0B26875FF28B1
:10AE300000D16A75687DA6E0A87D401EC0B2A875E5
:10AE4000FF2806D00A2806D3A87D0A2105F0EDFCCC
:10AE500002E0A975F8E710202070A87D87E0E87D62
:10AE6000401EC0B2E875FF2800D1EA75E87D8AE08F
:10AE70000546008F401F80B228870A2802D278201A
:10AE8000288701E0642804D380B2642105F0CDFC5A
:10AE900000E01020C0B260701028288F03D0642119
:10AEA00005F0C3FC04E0642105F0BFFC0A2904D3CB
:10AEB00008460A2105F0B9FC00E01020A070288F98
:10AEC000B4E00546408F401F80B26887142801D245
:10AED0006B8701E0642804D3688F642105F0A5FC2A
:10AEE00000E01020C0B260701028688F03D0642189
:10AEF00005F09BFC04E0642105F097FC0A2904D3CB
:10AF000008460A2105F091FC00E01020A070688F2F
:10AF10008CE0287F401EC0B22877FF2806D00A2880
:10AF200006D3287F0A2105F080FC02E02977F8E7A4
:10AF300010202070287F1AE0687F401EC0B268771A
:10AF4000FF2800D16A77687F1DE0A87F401EC0B24D
:10AF5000A877FF2806D00A2806D3A87F0A2105F083
:10AF600064FC02E0A977F8E710202070A87F0A218E
:10AF700005F05BFC02E5E87F401EC0B2E877FF28E1
:10AF800000D1EA77E87F0A2105F04FFCA0700BE5BD
:10AF90003888401F80B238800A2802D27820388052
:10AFA00001E0642804D380B2642105F03EFC00E097
:10AFB0001020C0B260701028388803D0642105F0DA
:10AFC00034FC04E0642105F030FC0A2904D308466F
:10AFD0000A2105F02AFC00E01020A070388825E046
:10AFE0007888401F80B27880142801D27B8001E0ED
:10AFF000642804D37888642105F017FC00E0102051
:10B00000C0B260701028788803D0642105F00DFC70
:10B0100004E0642105F009FC0A2904D308460A214A
:10B0200005F003FC00E01020A07078880A2105F0EC
:10B03000FCFBB9E425E00546008B0A3880B2288382
:10B040000A2801D22B8301E0642809D37D21288BB3
:10B05000C90005F0EAFB0846642105F0E6FB00E0C4
:10B06000102060702D8B6421284605F0DEFB084619
:10B070000A2105F0DAFBA0700A21284605F0D5FB6D
:10B08000E170002E06D000210920FEF723FFFD48C5
:10B0900003210171F8BDFC48817A090612D5817D32
:10B0A00000290FD1F849828AC388283148799A4209
:10B0B00003D2EF221040022202E0FD2210401022B3
:10B0C00010434871704710B5F04900208882012074
:10B0D0008007FEF787F80120C007FEF783F810BD50
:10B0E000E9480222417811434170704710B5FFF7DB
:10B0F000F7FFFFF7E8FFFFF7CEFF10BD10B502F036
:10B1000065FD04F005FF10BD1FB50722E04902A848
:10B1100005F0B5FBDC4C0A212834207848436178DF
:10B12000401869468872A0780A214843E17840189F
:10B1300069464872207901F018FE694688730399C0
:10B14000029801F03BFEFFF7D1FFD049684609782D
:10B15000407A0191009069468B7A8A7BCDA10020CC
:10B1600002F01DFB00210920FEF7B4FE6079F721F3
:10B17000084060711FBD3EB504460722C44901A8BE
:10B1800005F07DFBCF49204605F04FFB08462D21F9
:10B19000490105F04AFB6A46907208463C2105F0D9
:10B1A00044FB6A46907151710299019801F006FEC4
:10B1B000FFF79CFF6A46507900909379927AC1A17B
:10B1C000002002F0ECFA3EBD7FB5FFF78FFFFFF7DE
:10B1D00095FFC8480078012801D101F026FEAA4E4B
:10B1E000AA4C4036337D6279C4A1002002F0D7FA20
:10B1F000607BE38BA28BA17B6D460FC5237BE27A3C
:10B20000C449002002F0CBFA607C638C228CA17CC4
:10B210006D460FC5237CE27BBF49002002F0BFFAD8
:10B2200025462035638D228DE979A87903936B46F5
:10B2300007C36B792A79B849002002F0B0FA638E0F
:10B24000228EE97BA87B03936B4607C36B7B2A7B2B
:10B25000B349002002F0A3FA638F228FA87DE97D15
:10B260006C460FC46B7D2A7DAE49002002F097FA30
:10B27000A87F73883288E97F6C460FC46B7F2A7F72
:10B28000A949002002F08BFA00210920FEF722FED6
:10B290007D48F72228304179114041717FBD7A48BD
:10B2A0004030007D010602D54006400E70477648CA
:10B2B0009E494079085C7047F8B501F063FD734E14
:10B2C000B5780A2D04D30A21284605F0AEFA00E02D
:10B2D00010206C4C0A2128342070284605F0A5FA6D
:10B2E000617077780A21384605F09FFAA070E17006
:10B2F000B1790120884020713C204543EA19FFF7CD
:10B30000CEFF217910270840FB235F49002851D048
:10B310000020C8800881C87A3C2568430D7B40190D
:10B3200090420AD8487B3C2568438D7B4019904267
:10B3300003D9888BC880C88B24E0C87B3C25684330
:10B340000D7C401990420AD8487C3C2568438D7C8E
:10B350004019904203D9088CC880488C12E04A48B2
:10B360003C262030057975434679AD19954221D8A0
:10B3700085793C26C0797543281890421AD9088DE2
:10B38000C880488D0881C888002813D0C87D400631
:10B3900007D53C48007B000603D51E20C880088BDB
:10B3A00008816079042210436071887A80221043FA
:10B3B0008872F8BD6079FD221840384310406071F2
:10B3C000887A4006400EF3E7F8B52E4E307A3446C0
:10B3D0002834002807D101203072482060710021F4
:10B3E0000220FEF777FDB27A500609D51007F178F2
:10B3F000000F4018F0704DA1002002F0D0F91CE0C1
:10B40000F07850A1401CC2B2F270002002F0C7F9DF
:10B41000307A022811D1F078022804D0072805D00C
:10B42000082806D009E00021042004E000210520BE
:10B4300001E000210620FEF74DFD1248002585722F
:10B44000007A02281DD10F4E0A27F278A723102078
:10B45000022A17D00D49032A7FD0042A7DD0052A5D
:10B460007CD0062A7AD0092A79D00A2A78D00B2AE9
:10B4700076D00C2A75D00D2AFCD0072A72D0082A63
:10B4800071E0F2E3B2E080300020007C0020043163
:10B4900000207365742043414C454E444152204F77
:10B4A0004B207765656B3A257820686F75723A2571
:10B4B00064206D696E3A2564207365633A25640DD6
:10B4C0000A006027000041505020736574204341FA
:10B4D0004C454E444152204F4B207765656B3A25D1
:10B4E0007820686F75723A2564206D696E3A25641C
:10B4F0000D0A0000000008300020736574204F4BD7
:10B50000207765656B3A25782065783A25780D0AAD
:10B51000000048A1071094A10710E0A107102CA279
:10B52000071078A20710C4A207108A970010646958
:10B5300073706C61795F6D6F64655F6A756D703A89
:10B5400025780D0A0000646973706C61795F6D6F16
:10B5500064653A25780D0A0000004CE068E095E04B
:10B5600099E0BDE0DAE07ED00E2A7DD00F2A7CD0B3
:10B57000102A7BD00E462036112A78D0122AFCD011
:10B58000132A75D0142AFCD0152A72D0162A71D02D
:10B59000172A70D0182A6FD0192AFCD01A2A6CD01A
:10B5A0001B2AFCD01C2A69D01D2A68D01E2A67D00D
:10B5B0001F2A66D0202AFCD0212A75D0222AFCD04E
:10B5C000232A72D0242A71D0F749252A6FD0262A3F
:10B5D0006ED0272AFCD0282A6BD0292AFCD03146ED
:10B5E00020312A2A7AD02B2A79D0FAE32070607091
:10B5F000A070012042E1C87A0E4600900A2803D3C9
:10B600000A2105F012F900E0102020700A210098AC
:10B6100005F00BF96170367B0A21304605F005F91B
:10B62000A070E170677125713346DFA1009AD4E301
:10B630004F7B0E460A2F04D30A21384605F0F5F851
:10B6400000E0102020700A21384605F0EEF8617005
:10B65000B67B0A21304605F0E8F8A070E1701820AA
:10B66000607125710EE084E0AEE0D8E002E10AE10D
:10B6700025E141E16BE140E244E25FE27BE2A5E2E9
:10B68000CFE2D8E233463A46D1A1A6E320706070FB
:10B69000A0700220F2E0C87B0E4600900A2809D371
:10B6A0000A2105F0C2F806E0E3E2FFE229E353E3F2
:10B6B0005BE376E3102020700A21009805F0B5F8CE
:10B6C0006170367C0A21304605F0AFF8A070E17059
:10B6D000677125713346C6A1009A7EE382E3ACE32D
:10B6E0004F7C0E460A2F04D30A21384605F09DF8F8
:10B6F00000E0102020700A21384605F096F86170AD
:10B70000B67C0A21304605F090F8A070E170182050
:10B710006071257133463A46BFA15EE320708E8B7F
:10B72000642E04D36421304605F07FF800E0102039
:10B73000C0B26070102804D06421304605F075F85E
:10B7400005E06421304605F070F80A2904D3084664
:10B750000A2105F06AF800E01020A0700A213046A6
:10B7600005F063F8E1700220607125713246B2A1E4
:10B770008DE32070CF8B0646642F04D364213846B6
:10B7800005F053F800E01020C0B26070102804D01B
:10B790006421384605F049F805E06421384605F093
:10B7A00044F80A2904D308460A2105F03EF800E0CF
:10B7B0001020A0700A21384605F037F8E170667154
:10B7C00025713A46A2A162E320700E8C642E04D348
:10B7D0006421304605F029F800E01020C0B2607006
:10B7E000102804D06421304605F01FF805E06421DC
:10B7F000304605F01AF80A2904D308460A2105F054
:10B8000014F800E01020A0700A21304605F00DF871
:10B81000E170022060712571324691A137E32070FA
:10B820004F8C0646642F04D36421384604F0FDFF94
:10B8300000E01020C0B26070102804D064213846A7
:10B8400004F0F3FF05E06421384604F0EEFF0A2916
:10B8500004D308460A2104F0E8FF00E01020A0709D
:10B860000A21384604F0E1FFE170667125713A461D
:10B8700081A10CE320706070A0700320E0706771FC
:10B880002571B37233E3307900900A2803D30A217B
:10B8900004F0CBFF00E0102020700A21009804F093
:10B8A000C4FF617076790A21304604F0BEFFA070B3
:10B8B000E17067712571334674A1009A8DE2B77902
:10B8C0000A2F04D30A21384604F0AFFF00E010200D
:10B8D00020700A21384604F0A8FF6170F6790A2129
:10B8E000304604F0A2FFA070E1701820607125714D
:10B8F00033463A466EA170E220700E8D642E04D35A
:10B900006421304604F091FF00E01020C0B2607066
:10B91000102804D06421304604F087FF05E064213C
:10B92000304604F082FF0A2904D308460A2104F0B5
:10B930007CFF00E01020A0700A21304604F075FF63
:10B94000E170022060712571324661A19FE2207092
:10B950004F8D0646642F04D36421384604F065FFFA
:10B9600000E01020C0B26070102804D06421384676
:10B9700004F05BFF05E06421384604F056FF0A2915
:10B9800004D308460A2104F050FF00E01020A07004
:10B990000A21384604F049FFE170667125713A4684
:10B9A00051A174E20000803000207365742073653B
:10B9B0006374696F6E31206F6E686F75723A2578A7
:10B9C000206F6E6D696E3A25780D0A000000736570
:10B9D000742073656374696F6E31206F6666686F7B
:10B9E00075723A2578206F66666D696E3A25780D16
:10B9F0000A007365742073656374696F6E32206F1B
:10BA00006E686F75723A2578206F6E6D696E3A2593
:10BA1000780D0A0000007365742073656374696FA4
:10BA20006E32206F6666686F75723A2578206F6691
:10BA3000666D696E3A25780D0A007365742072751B
:10BA40006E5F74696D653A25780D0A0000007365B4
:10BA5000742073746F705F74696D653A25780D0A90
:10BA600000007365742072756E5F74696D65323A9B
:10BA700025780D0A00007365742073746F705F740D
:10BA8000696D65323A25780D0A0073657420736517
:10BA90006374696F6E33206F6E686F75723A2578C4
:10BAA000206F6E6D696E3A25780D0A00000073658F
:10BAB000742073656374696F6E33206F6666686F98
:10BAC00075723A2578206F66666D696E3A25780D35
:10BAD0000A007365742072756E5F74696D65333A20
:10BAE00025780D0A00007365742073746F705F749D
:10BAF000696D65333A25780D0A0020706070A0707A
:10BB0000042092E0307B00900A2803D30A2104F03D
:10BB10008CFE00E0102020700A21009804F085FEC1
:10BB20006170767B0A21304604F07FFEA070E170E0
:10BB3000677125713346FAA1009A4EE1B77B0A2F4F
:10BB400004D30A21384604F070FE00E01020207073
:10BB50000A21384604F069FE6170F67B0A213046FE
:10BB600004F063FEA070E170182060712571334607
:10BB70003A46F4A131E120700E8E642E04D3642184
:10BB8000304604F052FE00E01020C0B26070102871
:10BB900004D06421304604F048FE05E064213046BC
:10BBA00004F043FE0A2904D308460A2104F03DFEAE
:10BBB00000E01020A0700A21304604F036FEE1704B
:10BBC0000220607125713246E8A160E120704F8E3D
:10BBD0000646642F04D36421384604F026FE00E0B4
:10BBE0001020C0B26070102804D06421384604F0E0
:10BBF0001CFE05E06421384604F017FE0A2904D330
:10BC000008460A2104F011FE00E01020A0700A216D
:10BC1000384604F00AFEE170667125713A46D7A1F4
:10BC200035E120706070A0700520E0706771D84821
:10BC3000257183725BE1307D00900A2803D30A21CD
:10BC400004F0F3FD00E0102020700A21009804F0B9
:10BC5000ECFD6170767D0A21304604F0E6FDA070AF
:10BC6000E17067712571334600E013E1CAA1009AC3
:10BC7000B3E0B77D0A2F04D30A21384604F0D5FD7E
:10BC800000E0102020700A21384604F0CEFD6170DB
:10BC9000F67D0A21304604F0C8FDA070E17018203E
:10BCA0006071257133463A46C4A196E020700E8F2C
:10BCB000642E04D36421304604F0B7FD00E0102068
:10BCC000C0B26070102804D06421304604F0ADFD8D
:10BCD00005E06421304604F0A8FD0A2904D3084693
:10BCE0000A2104F0A2FD00E01020A0700A213046D5
:10BCF00004F09BFDE1700220607125713246B7A10E
:10BD0000C5E020704F8F0646642F04D36421384667
:10BD100004F08BFD00E01020C0B26070102804D049
:10BD20006421384604F081FD05E06421384604F0C2
:10BD30007CFD0A2904D308460A2104F076FD00E0C0
:10BD40001020A0700A21384604F06FFDE170667182
:10BD500025713A46A7A19AE020706070A070062075
:10BD6000E070677125718B72C1E0307F00900A2806
:10BD700003D30A2104F059FD00E0102020700A21AD
:10BD8000009804F052FD6170767F0A21304604F07D
:10BD90004CFDA070E1706771257133469AA1009A3D
:10BDA0001BE0B77F0A2F04D30A21384604F03DFD7B
:10BDB00000E0102020700A21384604F036FD617042
:10BDC000F67F0A21304604F030FDA070E1701820A3
:10BDD0006071257133463A4694A1002001F0DFFCE2
:10BDE00058E06DE020700E88642E04D36421304644
:10BDF00004F01BFD00E01020C0B26070102804D0D9
:10BE00006421304604F011FD05E06421304604F061
:10BE10000CFD0A2904D308460A2104F006FD00E0BF
:10BE20001020A0700A21304604F0FFFCE1700220CF
:10BE300060712571324685A129E020704F88064641
:10BE4000642F04D36421384604F0EFFC00E0102096
:10BE5000C0B26070102804D06421384604F0E5FCBC
:10BE600005E06421384604F0E0FC0A2904D30846C2
:10BE70000A2104F0DAFC00E01020A0700A21384604
:10BE800004F0D3FCE170667125713A4675A100207B
:10BE900001F085FC3F4E307A012804D002280FD0F3
:10BEA000052818D023E0F078042820D3FFF72CF9D8
:10BEB000F570757235726079F72108406071F8BDD0
:10BEC000344CE0782C2812D3FFF77EF9E5706572C8
:10BED0002572A572F8BDF078032808D3FFF70EF994
:10BEE000FFF7EAF9F57075723572B572F8BD28483A
:10BEF0000571F8BD274810212830017000214170DC
:10BF00000F228270C27001714171704710B5594B98
:10BF1000987D002804D1FFF7EDFF01209875ACE073
:10BF2000B5E07365742073656374696F6E34206F58
:10BF30006E686F75723A2578206F6E6D696E3A255E
:10BF4000780D0A0000007365742073656374696F6F
:10BF50006E34206F6666686F75723A2578206F665A
:10BF6000666D696E3A25780D0A00736574207275E6
:10BF70006E5F74696D65343A25780D0A000073654B
:10BF8000742073746F705F74696D65343A25780D31
:10BF90000A00803000207365742073656374696FD4
:10BFA0006E35206F6E686F75723A2578206F6E6DF2
:10BFB000696E3A25780D0A00000073657420736578
:10BFC0006374696F6E35206F6666686F75723A25A7
:10BFD00078206F66666D696E3A25780D0A00736584
:10BFE000742072756E5F74696D65353A25780D0A37
:10BFF00000007365742073746F705F74696D6535CC
:10C000003A25780D0A007365742073656374696F4F
:10C010006E36206F6E686F75723A2578206F6E6D80
:10C02000696E3A25780D0A00000073657420736507
:10C030006374696F6E36206F6666686F75723A2535
:10C0400078206F66666D696E3A25780D0A00736513
:10C05000742072756E5F74696D65363A25780D0AC5
:10C0600000007365742073746F705F74696D65365A
:10C070003A25780D0A00007C0020FCA1002001F088
:10C080008EFBFFF73BF800210920FDF723FF10BDD1
:10C0900010B5FA48817D01290DD100218175FFF786
:10C0A00025F8F7A1002001F07AFBFFF727F800211F
:10C0B0000920FDF70FFF10BDF8B50B46F44C182111
:10C0C000617221468A7A074650060025400E097A99
:10C0D000EB4E802F72D022DC202F48D0402F1DD174
:10C0E000002B52D0012B19D1002917D1E84A10207A
:10C0F0002832107050709070D0705571FFF7CFF8E3
:10C100001071022020720120E07000210320FDF751
:10C11000E1FE227ADFA1002001F041FBF8BDFF3FE4
:10C120007F1E75D0FF3F012FF8D10029F6D1012BDA
:10C13000F4D101210D20FDF7CDFE2846294600F05F
:10C140003DFE6421CE4804F0B3FB01F03FFD03F057
:10C15000DFFED3A1002001F022FBD648FCF715FF3B
:10C1600003F07EFD0A20FCF710FFD3A122E0002996
:10C17000D4D1002B06D0012BD0D1FFF789FFFFF7D8
:10C18000C5FEF8BDFFF784FFF8BD032906D00429DA
:10C1900015D0110620D5402108432BE0FEF7A0FF63
:10C1A000B565FEF7ABFF2572E57000210C20FDF7A9
:10C1B00091FEC5A1002001F0F2FAF8BD0FE0FEF7F4
:10C1C00095FFFEF79BFF2572E57000210920FDF722
:10C1D00081FE328BC2A19EE7FFF7F6F8EDE700295A
:10C1E00017D0032908D011060BD5A0728106E4D51B
:10C1F000DF210840A072EFE7E570FFF75DF82572D8
:10C20000DBE7002B01D0022BD7D1FDF7A8FED4E746
:10C210003CE0012BD1D1E1210901B06D04F005FB17
:10C22000B549009004F001FB7D270846FF00394620
:10C2300004F0FBFA964E394628363070009804F028
:10C24000F4FA0846642104F0F0FA70706421009852
:10C2500004F0EBFA08460A2104F0E7FAB0700A216C
:10C26000009804F0E2FAF1707571802030710320BB
:10C2700020720120E07000210920FDF72BFE227AB8
:10C280009EA10020009B01F08AFA96E7002906D0C3
:10C29000002B01D0022B90D1FEF7C7FA8DE7012BBE
:10C2A0008BD1F07D010607D54006400EF075FEF7F4
:10C2B00025FF01210F2006E080210843F075FEF7DD
:10C2C0001DFF01210E20FDF705FEF27D92A122E760
:10C2D000F8B56E4E182171723146097A684D802882
:10C2E0003DD03BDDFF38012838D1002936D1298BDC
:10C2F000E1208000814200D32883644C1020283440
:10C3000020702F8B642F08D37D21C900384604F09C
:10C310008CFA0846642104F088FA6070642138467B
:10C3200004F083FA08460A2104F07FFAA0700A217B
:10C33000384604F07AFAE1700020607180202071A4
:10C34000042030720120F07000210920FDF7C2FDA9
:10C350002B8B327A74A1002001F021FA2DE70029FD
:10C36000FCD1E87D410607D5BF210840E875FEF7FE
:10C37000C5FE01210B2006E040210843E875FEF7C9
:10C38000BDFE01210A20FDF7A5FDEA7D6FA1002079
:10C3900001F005FA11E770B53D4C05460246237AD7
:10C3A00070A1002001F0FBF918206072802D21D1CE
:10C3B000207A00281ED120462830102101702F4AF3
:10C3C000417081704032527D2D4DC270EA7D9206DF
:10C3D00000D50221417180210171052020720120C8
:10C3E000E07000210920FDF775FDEA7D64A10020C1
:10C3F00001F0D5F970BDF8B5214CA07A000634D50E
:10C40000A07D002831D12148C07800282DD1A07E00
:10C4100000062AD400252E4600F0B4FC5E483C22DB
:10C420008178407851430818E17A5143227B89187A
:10C43000814209D8617B3C225143A27B8918814209
:10C4400002D9A58BE68BB9E0E17B3C225143227CEB
:10C45000891881420AD8617C3C225143A27C891808
:10C46000814203D9258C668CA8E0D8E095E0535929
:10C470005354454D204F46460D0A00000000007CF5
:10C48000002053595354454D204F4E0D0A00803023
:10C4900000207365745F6D6F64653A25780D0A003E
:10C4A00000005374617274205265736574333030C8
:10C4B0006D730D0A000070170000526573657420DB
:10C4C0006661696C65640D0A0000636C65617220C9
:10C4D0006D6F7465722074696D650D0A0000736577
:10C4E000742070726F78696D6974792074696D65F4
:10C4F0003A25780D0A00102700007570206C6F6EC9
:10C5000067207365745F6D6F64653A2578203A25FE
:10C51000780D0A000000646F776E206C6F6E673ACA
:10C5200025780D0A0000646F776E20747269706C54
:10C530006520636C69636B207365745F6D6F646500
:10C540003A2578203A25780D0A00757020747269B2
:10C55000706C6520636C69636B3A25780D0A000086
:10C560000000757020646F75626C65206B657920C2
:10C570006D6F64653A25782025780D0A0000757086
:10C5800020646F75626C6520636C69636B3A257813
:10C590000D0A0000000004310020FE493C230A7906
:10C5A0005A434B79D218824208D88A793C23C979F8
:10C5B0005A435118814201D9258D668D20890090FA
:10C5C000E388A28AF5A1002001F0E9F8A28AE088B8
:10C5D00082420FD2AA4207D3E580A5822A4626814D
:10C5E0001346F2A1009617E0E58026812B46F4A1C0
:10C5F000009611E0101AE580B042268106DBA819EA
:10C6000082B2A2822B46F3A1009605E0281882B2DE
:10C61000A2822B46F5A10096002001F0C0F8CCE5DF
:10C62000F8B5DC4800252038807DF44C00286AD11C
:10C630006078F727C007002841D0E17826462836E1
:10C6400000290DD02079002801D0401E2071607A89
:10C65000002830D0401E0006000E60720AD02AE08A
:10C660007079410602D5BF21084001E0402108430E
:10C67000707120E0207A012808D002280CD003280D
:10C680000FD004280DD005280BD00CE0E170002954
:10C6900009D0FEF739FD06E0002904D0FEF794FD2D
:10C6A00001E0FEF72BFDE570FEF706FE25727079BE
:10C6B00038407071A5726078400840006070607802
:10C6C000800708D5E078002801D1FEF7F5FD6078F5
:10C6D000FD21084060706078000714D5207BC107F9
:10C6E0000AD1010608D54006400E2073C5A10020DE
:10C6F00001F055F8FFF77FFE207B400840002073D3
:10C70000607838406070607840077ED5A069002866
:10C7100050D0E189491CE181FCF77BFD012809D05B
:10C72000E089401E3B2842D2E169A06988421ED1BF
:10C73000E5613CE0207A00280FD0A069802802D073
:10C74000C11FF93909D1E1890A2906D10121E18105
:10C750000221FFF7B1FCA069E061E0893C2834D1F7
:10C760000121A069FFF7A8FCA069E0612DE000218C
:10C77000FFF7A2FCE561207A002818D1216A002980
:10C7800005D0A069814206D0206225820FE0258273
:10C79000A06920620BE0A178491CC9B2A1700229EE
:10C7A00004D1FFF795FD25622582A5706582E5819C
:10C7B000A5610AE0E069002807D0E089401C80B24A
:10C7C000E081042801D9E581E561206A002809D0CB
:10C7D000218A491C89B22182962903D925622582A2
:10C7E000A57010E0A17800290DD0628A521C92B287
:10C7F0006282192A07D9012904D1FFF7CCFD2562ED
:10C800002582A5706582607900E023E000281DD0B4
:10C81000401E0006000E607118D1A079002815D0C6
:10C8200000F013FA00280DD000F00DFAA079401E98
:10C830000006000EA07102D00A20607106E000F030
:10C8400002FA03E0E079607100F0FBF96078FB2107
:10C8500008406070B1E44F492039897D012901D138
:10C86000202803D166490022CA8188617047F8B543
:10C87000494CDF26203CA07A010600296BDAA17D15
:10C88000002968D15E49C978002964D1A17E0906D2
:10C8900061D45A4DA18A2835F707002924D1697936
:10C8A000EF2211400222114369714006C20FE38852
:10C8B00059A1002000F073FFA07A410607D5BF21DF
:10C8C0000840A0723846FCF776FC780806E0402164
:10C8D0000843A0720806FCF76EFC3846FCF782FCA1
:10C8E000A07A20210843A072A08AE18888421AD148
:10C8F0006879FD210840102108436871A07A2389D6
:10C900004006C21749A10020521C00F048FFA07A3F
:10C91000400602D50120800700E03846FCF762FCA3
:10C92000A07A3040A072A07A800608D5A06D401C85
:10C93000A065A07E400602D5206E401C2066A08A1D
:10C94000401C80B2A082E18822898918814201D8E6
:10C950000020A08231E48106FCD53040A072FEF7B1
:10C96000B2FB2AE438B50B4C203CA07A00066ED509
:10C97000A07D00286BD12148C07800287FD1A07EFF
:10C9800000067CD420890090E388A28A2CA1002094
:10C9900000F005FF5CE0207C002070616D203020FD
:10C9A00025642025642025640D0A000000007061C4
:10C9B0006D20312025642025642025640D0A0000A7
:10C9C000000070616D2032202564202564202564DC
:10C9D0000D0A0000000070616D20332025642025C1
:10C9E000642025640D0A0000000070616D20342071
:10C9F00025642025642025640D0A00000000803095
:10CA0000002070726F78696D697479202061776198
:10CA100079210D0A00006D6F746572202564207302
:10CA2000746172742025640D0A006D6F7465722044
:10CA300025642073746F702025640D0A0000706DEA
:10CA400020302025642025642025640D0A0016E08E
:10CA5000A28AE0881E23824212D21E2A07D3E380D4
:10CA6000A382208B20811A464DA1009004E0E38030
:10CA7000208B20814EA10090002000F090FE38BD58
:10CA8000111A208BE380814207DB01461E318AB2F6
:10CA90002081A2824AA10090EEE71E318AB2A282D2
:10CAA00020814AA10090E7E770B54C4CA07A0106BE
:10CAB00023D5A17D002920D14A49C97800291CD15C
:10CAC000A38AE1888B4218D2810616D5454AEF2504
:10CAD0002832517940062940022529435171C20F5D
:10CAE00041A1002000F05BFEA07A400601D5680756
:10CAF00001E00120C007FCF75EFB70BD384A00B5BD
:10CB000011462031030004F0EFFA06040E1B253312
:10CB10003D47D07A3C214843117B3C234118507B50
:10CB2000927B584308E0D07B3C214843117C3C2356
:10CB30004118507C927C58438018814216D22BE0D9
:10CB400008793C2250434A793C2382188879C97974
:10CB5000584308E0087B3C2250434A7B3C23821820
:10CB6000887BC97B58434018824215D3002000BD02
:10CB7000087D3C2250434A7D3C238218887DC97D34
:10CB80005843F0E7087F3C2250434A7F3C238218F9
:10CB9000887FC97F5843E6E7012000BD0000706D23
:10CBA00020312025642025642025640D0A00706D45
:10CBB00020322025642025642025640D0A00706D34
:10CBC00020332025642025642025640D0A00706D23
:10CBD00020342025642025642025640D0A00007C73
:10CBE0000020803000206D6F7465722025782072DF
:10CBF0006573746172742025780D0A000000534932
:10CC00008022002808D0012808D0022803D1886893
:10CC1000817A1143817270470868F9E74868F7E73D
:10CC20004B49002809D0012809D0022804D188687E
:10CC3000817A4906490E817270470868F8E74868AA
:10CC4000F6E70220DBE70220EAE740488068807AC6
:10CC5000C00970473F4801780122114301707047B5
:10CC600010B50346FFF7F6FF3A48203001799A786D
:10CC7000090909011207120F1143017135490A7F91
:10CC80005C7852085200E407E40F22430A7799883F
:10CC90000180197801290ED002291DD00429D988D4
:10CCA00024D0C182D9780029017B29D008221143E0
:10CCB0000907090F0AE0D9880182D9780029017B88
:10CCC00001D00122F3E70907490F4900027B12094D
:10CCD00012010A43027310BDD9884182D978002914
:10CCE000017B01D00222E2E70D2207E08182D978A0
:10CCF0000029017B01D00422D9E70B221140E5E78E
:10CD00004907490FE2E7124A127FD307124A1388F4
:10CD100012D05B1E8B4202DC1188891E89B2C307C8
:10CD200000D01182830700D55182430700D591823C
:10CD3000000700D5D18270478B42F0D81188491E78
:10CD4000ECE7034801790122114301717047F83083
:10CD5000002080020150A002015010B5314901208D
:10CD600001F0ECFB00F0C1FA10BD014600200123E8
:10CD70001A4682400A4204D1401CC0B20728F7D3A9
:10CD8000002070470EB5684601F0A6F869462548B0
:10CD9000C97901706946897941706946497981701C
:10CDA00069460979C1706946C9780171694689780F
:10CDB00041716946097A491E81710EBD03B583B080
:10CDC0000020009001900290072168464170D02217
:10CDD000027001228270807C0322030004F084F937
:10CDE0000705080A1A0B1C1E05006946CA7004E0F4
:10CDF000042100E005216A46D17069468A7B0A71E8
:10CE00004A7B4A710A7B8A71C871684601F0BAF898
:10CE100005B000BD0621EEE70821ECE70921EAE7AD
:10CE20000000D03100200431002070B586B01422FB
:10CE3000E7A1684603F023FDEA4C0025A07D002809
:10CE400077D000206946C870E07D0871208B0A21E8
:10CE500003F0EBFC694648710020FFF74FFE69467E
:10CE60008871E07A3C214843217B40186946C871AB
:10CE7000000A0872607B3C214843A17B4018694648
:10CE80004872000A8872A08BC872000A0873E08B8F
:10CE90004873000A88730120FFF730FE6946C873A3
:10CEA000E07B3C214843217C6E464018694608746B
:10CEB000000A4874607C3C214843A17C40186946C4
:10CEC0008874000AC8740320315C401C4D4080B255
:10CED0001428F9D314213046FBF75DFA14236A466F
:10CEE000C1A1002000F067FC208C69460870000A90
:10CEF0004870608C8870000AC870A07EC0090871F4
:10CF0000FEF7CDF9694648710020315C401C4D4068
:10CF100080B20628F9D3684685710721FBF73BFAF2
:10CF200007236A46B2A1002000F045FC06B070BDA0
:10CF3000FFE7012086E7F0B50546002285B0032013
:10CF4000295C401C4A40C0B21928F9D3687E90423F
:10CF50007DD1E87800280DD00020A14CA17D814230
:10CF600010D0002808D0A4A1002000F018FCFEF783
:10CF7000CDFF07E00120F0E7A7A1002000F00FFCA3
:10CF8000FFF786F829790A2088430CD1E07D8006D6
:10CF9000800EE0752979890989010843E07568796F
:10CFA0000A2148432083A8790027002850D0287AF6
:10CFB000E97900020843EE1C3C2103F036FCE072E4
:10CFC0002173691C0091A87A697A000208433C2108
:10CFD00003F02BFC6073A173707A317A000208436E
:10CFE00000D0A0830098417B027B0802104300D050
:10CFF000E083E87B002833D0687C297C000208436A
:10D000003C2103F012FCE0732174E87CA97C00024F
:10D0100008433C2103F009FC6074A174687D297DFC
:10D020000002084300D02084E87DA97D0002084367
:10D0300000D060846B4E00207F4A297E4036135C0E
:10D040008B4215D160713775122815D218E075E042
:10D05000E77227736773A7731E20A0835A20C7E760
:10D06000E77327746774A7741E2020845A20E0E7B2
:10D07000401CC0B21228E2D3287E802108433075BC
:10D08000218BE07D01910090337D62796BA10020BE
:10D0900000F085FB607BE38BA28BA17B6D460FC507
:10D0A000237BE27A7149002000F079FB607C638C7D
:10D0B000228CA17C6D460FC5237CE27B6C4900204D
:10D0C00000F06DFB474D638D2035A879228DE979FD
:10D0D0006F460FC76B792A796649002000F05FFB25
:10D0E000A87B638E228EE97B6F460FC76B7B2A7B02
:10D0F0006149002000F053FBA87D638F228FE97DFA
:10D100006F460FC76B7D2A7D5C49002000F047FB0E
:10D11000A87F73883288E97F6F460FC76B7F2A7FAD
:10D120005749002000F03BFBFDF7E8FFFDF7DEFF6D
:10D1300000210920FCF7CEFE05B0F0BD51A1002072
:10D1400000F02DFBAB782A4652A100201B1D00F0F9
:10D1500032FBF1E710B500220321435C491C5A4021
:10D16000C9B20529F9D3417991420FD10179C0782B
:10D170000902081884B2224648A1002000F00FFBE3
:10D180002046FDF7F8FFFDF7B9FF10BD48A10020CC
:10D1900000F005FB10BD10B50178FA2904D047A1B5
:10D1A000002000F0FCFA10BD4178012905D00329C8
:10D1B00006D0042907D0FA29F5D1FFF736FE10BDB5
:10D1C000FFF7B9FE10BDFFF7C5FF10BD0000FA0262
:10D1D0001700000000000000000000000000000038
:10D1E0000000007C002073656E643A0D0A007365D0
:10D1F0006E64313A0D0A0000000041505020526523
:10D20000717565737420746F2073687574646F77BB
:10D210006E0D0A0000004150502052657175657313
:10D220007420746F207374617274696E67207570F6
:10D230000D0A000000008A970010736574204F4BA0
:10D24000207765656B3A25782065783A25782073D4
:10D2500077697463683A25782070726F78696D69B0
:10D2600074793A25640D0A00000048A1071094A1C2
:10D270000710E0A107102CA2071078A20710C4A283
:10D280000710666373204552524F52212025780DB6
:10D290000A00636F6D3A0D0A0000737070207365A9
:10D2A00074206D696E3A25780D0A000000006663EF
:10D2B00073204552524F52210D0A00000000617048
:10D2C0007020636F6D6D616E646572206865616466
:10D2D0006572206572726F72210D0A0000000948A4
:10D2E0000222016811430160704710B50023064A0D
:10D2F0003C21022000F02EFF022001F01CF8022049
:10D3000000F0D0FF10BD243100209150001010B566
:10D31000604C0120206160615FA0A0612046483020
:10D32000E0610120C00220620020A062606259A179
:10D330002163E0625B49616310212064A163E063C3
:10D34000606458A1E01D03F0CBFA57A1204603F01A
:10D35000C7FA2020A07110BDF7B5064682B00020A4
:10D360000090F46817463069A04201D9051B02E01D
:10D37000B168201A0D1AB0686D1E001BA84200D8B3
:10D380000546BD4200D33D4670682A460019039900
:10D3900003F075FA00987F1B4019009003986419F8
:10D3A00040190390B068A04200D10024F460002F1F
:10D3B000D9D1009805B0F0BDF7B50446C7688068BC
:10D3C000E168C51B606816464018B54205D9019949
:10D3D00003F055FAB819E060FEBD2A46019903F042
:10D3E0004EFA0198761B41193246606803F047FAFD
:10D3F000E660FEBD70B50E46182148432549144627
:10D400004518E86A1835002804D001280FD00228F2
:10D4100005D113E0284600F031F8A04201D20024E3
:10D4200011E0224631462846FFF7C6FF0BE02846AA
:10D4300000F024F8A042F4D20446F2E73146284630
:10D44000FFF78AFF0446204670BDF8B5074610482E
:10D45000154600780E46002801D1FFF758FFEFF37C
:10D460001084012080F310882A4631463846FFF7A1
:10D47000C1FFE1B281F31088F8BD48E70269C168D5
:10D480008A4203D88068401A801800E0501A401E73
:10D490007047E83100205465726D696E616C000060
:10D4A0000000303A0020525454005345474745523B
:10D4B000000010B5044680686368421C934205D39F
:10D4C00023681954A260E068401CE060A2686068AC
:10D4D000824209D121682069FFF7B7FFA16888421D
:10D4E00003D00020C043E06010BD0020A06010BD4C
:10D4F000FFB581B001261F4634460A9D029802E01E
:10D5000003F093F9641C03998842F9D2A74200D929
:10D510003C460B98C00718D1002D16D00B988007F9
:10D5200001D5002F02D0202000900CE03020FBE736
:10D530006D1E00990198FFF7BCFF0198C068002894
:10D540003DDB002D01D0AC42F2D30198C068002829
:10D5500035DB012F01D97F1E06E03146029803F02A
:10D5600064F90399884202D303984643F1E7D84F00
:10D570003146029803F059F90146029A7143511A53
:10D580000291395C0198FFF794FF0198C068002868
:10D5900005DB3046039903F048F90600E8D10B9803
:10D5A000C0070CD0002D0AD0AC4208D220216D1E3D
:10D5B0000198FFF77EFF0198C0680028F2DA05B0F5
:10D5C000F0BDF7B59AB007A802904020002503905F
:10D5D0001A980C460495059506902178641C00293C
:10D5E00073D0252907D002A8FFF763FF059800280C
:10D5F000F3DA1DB0F0BD01220021022713460826F0
:10D60000207823281BD02B2816D02D2802D0302894
:10D6100006D101E0194300E03943641C002AEFD130
:10D62000002220780346303B0A2B0AD20A235A43B1
:10D630001218303A641CF4E704200143EDE731434B
:10D64000EBE70023C7B22E2F0AD1641C20780746CF
:10D65000303F0A2F04D20A277B431B18303BF4E7E4
:10D660006C280CD068280AD0662847D00FDC5828D0
:10D6700036D007DC25287BD046287DD13EE0607877
:10D68000641CEDE763280BD0642875D10FE0702887
:10D6900063D073284FD0752818D078286CD11FE03C
:10D6A0001C981C9A0068011D1160017861E01C98AB
:10D6B0001C9F0068061D3E600068019100920146B3
:10D6C0000A2202A800F0A1F856E057E01C981C9F1F
:10D6D0000068061D3E600068009201910A2208E081
:10D6E0001C981C9F0068061D3E6000680092019116
:10D6F0001022014602A8FFF7FBFE3DE017951C989B
:10D700001895199500681C9AC01DC008C0000146F4
:10D71000083111600CC817AE6FA1304603F0B9FC98
:10D720003178761C002927D002A8FFF7C2FE0598A1
:10D730000028F5DA20E01C981C9A0068011D116091
:10D7400006683178761C002916D002A8FFF7B1FED2
:10D7500005980028F5DA0FE00AE01C981C9A00688A
:10D760000823011D11600168102200960195C1E790
:10D77000252102A8FFF79DFE641C37E705980028C5
:10D7800000DC36E70498002804D0024607A91A985E
:10D79000FFF75BFE049905984018059029E70FB440
:10D7A00008B504A900916A460399FFF70AFF01B082
:10D7B00008BC04B01847FFB5002481B01D461646CA
:10D7C000002902D00198FFF7EAFF01273F0713E085
:10D7D000200704D1A2B241A10198FFF7E0FF325D1A
:10D7E00041A10198FFF7DBFF2007F84203D13FA1D9
:10D7F0000198FFF7D4FF641CAC42E9DB200703D09B
:10D800003BA10198FFF7CBFFD9E6FFB583B00E46E9
:10D8100070420D9F0C9C0090002900DB08460125FA
:10D8200002E003F018F86D1C05998842F9DA0698B1
:10D83000A84200D90546002C04D0002E01DB780751
:10D8400000D5641EB80702D50698002810D0F80746
:10D850000ED1002C0CD0A5420AD22021641E0398C0
:10D86000FFF727FE0398C0680028F2DA07B0F0BD82
:10D870000398C0680028F9DB002E02DA2D21009EF3
:10D8800002E0780707D52B210398FFF712FE0398D3
:10D89000C0680028EADBB807800F022810D106987C
:10D8A00000280DD1002C0BD0A54209D23021641ED6
:10D8B0000398FFF7FEFD0398C0680028F2DAD5E769
:10D8C000019700943146069B059A0398FFF710FED6
:10D8D000CCE736A1071025342E33660000005B2507
:10D8E0003034785D200025303278200000000D0AA9
:10D8F00000000448804704480047FEE7FEE7FEE7D3
:10D90000FEE7FEE7FEE7C1560010C1000010024925
:10D910000148086070470024F40014310020002200
:10D9200006E00021491C89B21829FBD3521C92B28F
:10D930008242F6D3704770B5F34C0D46216803461A
:10D940002031087CC00706D0087C400840000874DD
:10D950003220FFF7E4FF226820321375180A507551
:10D96000180C9075180ED075107C10210843107497
:10D97000907C400840009074E4480560507C01258C
:10D9800028435074082000F0A7F920682030017C5B
:10D990002943017470BDDB480068014644310A78B0
:10D9A00010464A78120210438A78C978120410434C
:10D9B000090608437047BEE710B5D24C20682030F6
:10D9C000017CC9070FD0017C490849000174082077
:10D9D00000F08BF920682030417C01221143417412
:10D9E0003220FFF79CFF10BDC7490A68114620315D
:10D9F0000875030A4B75030C8B75000EC8758B7C7C
:10DA0000012003438B744B7C03434B740B7C034317
:10DA10000B742032D37CDB07FCD00A7C5208520006
:10DA20000A744A7C02434A747047B6480068203042
:10DA3000C17CC90708D0417C012211434174B2481E
:10DA40000068002800D00047704770B5AE4C06460D
:10DA500020680D462030017CFD238907002905DA66
:10DA6000017C194001743220FFF759FF22682032EF
:10DA70001676300A5076300C9076300ED076107CC8
:10DA8000202108431074907C184090749F48456092
:10DA9000507C022528435074092000F01DF92068AD
:10DAA0002030017C2943017470BD10B5964C20686C
:10DAB0002030017C89070FD5017CFD2211400174C3
:10DAC000092000F012F920682030417C0222114325
:10DAD00041743220FFF723FF10BD8A4800682030D0
:10DAE000C17C890708D5417C0222114341748648D4
:10DAF0004068002800D00047704770B5824C064649
:10DB000020680D462030017CFB234907002905DAF7
:10DB1000017C194001743220FFF701FF2268203296
:10DB20001677300A5077300C9077300ED077107C13
:10DB3000402108431074907C1840907473488560AD
:10DB4000507C0425284350740A2000F0C5F8206852
:10DB50002030017C2943017470BD6A480C210068A3
:10DB6000403041180A7810464A78120210438A78E9
:10DB7000C9781204104309060843704710B5614C78
:10DB800020682030017C49070FD5017CFB22114021
:10DB900001740A2000F0A9F820682030417C04229A
:10DBA000114341743220FFF7BAFE10BD5648006899
:10DBB0002030C17C490708D5417C042211434174BF
:10DBC00052488068002800D00047704710B54F4A7F
:10DBD0006421002002F072F810BD10B54C4A642197
:10DBE000002002F068F810BD10B56421484802F02A
:10DBF0005FFE464A6421002002F060F810BD3EB589
:10DC0000434C434D2068A84262D0FFF7E6FF2068EE
:10DC1000A8425CD025600020E08020816071A07265
:10DC2000E0722073E0732074172161733B21A173AC
:10DC30006074A074A075A022E2755A232383A17694
:10DC40001E2525842146638420312585638508713E
:10DC500048718871C8712586638608734873887314
:10DC6000C873258763870875487588750A46C8751F
:10DC7000203215805380087748778877C8771581D8
:10DC80005381107150719071D0711582538210734D
:10DC900050739073D073A583E38310750121517580
:10DCA0001D4B226E9A4204D1A26D521C01D12066F6
:10DCB000A065009007236A4602905370D02313702A
:10DCC00091700321D1700190684600F05BF93EBD70
:10DCD0002079401C20713EBD002805DBC106C90E1D
:10DCE000012088400D490860704700280ADBC10602
:10DCF000C90E01208840084980310860BFF34F8F6A
:10DD0000BFF36F8F704718310020403A0020007C2D
:10DD10000020A5A5A5A5FFFF000000E100E010B5CB
:10DD2000044600F0F1F9B548C465204600F006FB52
:10DD300010BD10B500F0E8F910BDF8B50A4604466C
:10DD4000B049104602F071FD0D4606463C212846BA
:10DD500002F06BFD2170E1210901284602F065FD0A
:10DD6000054608463C2102F060FD6070A5707D20EC
:10DD70000001B5B2E0800FE0002F26D064213046CC
:10DD800002F053FD002901D0B0071ED0FF206E30F5
:10DD9000281A761C85B2E680E088FF21064691317C
:10DDA00002F043FD0F0013D06421304602F03DFD28
:10DDB000002901D0B0070BD0FF206E30A842DBD97C
:10DDC0000020FF27207191371DE0FF206F30DFE733
:10DDD000FF206F30F2E7E0883946064602F025FD65
:10DDE000002927D06421304602F01FFD002901D010
:10DDF000B0071FD00020217900F0F1F8281A85B271
:10DE00002079401C2071E0883946064602F00DFD5D
:10DE1000002911D06421304602F007FD002901D00D
:10DE2000B00709D00020217900F0D9F8A842D2D952
:10DE3000E570F8BD0120DEE70120F4E7F8B50446FF
:10DE400080783C2148436178E57840183C2148437C
:10DE5000217846180427E75716E0E088FF21913122
:10DE6000009002F0E2FC002916D06421009802F034
:10DE7000DCFC002902D0009880070DD00020F9B208
:10DE800000F0ADF8401985B27F1E7FB2002FE4DAB2
:10DE90007D27E4883F0114E00120F0E7FF21913164
:10DEA000204602F0C2FC002913D06421204602F073
:10DEB000BCFC002901D0A0070BD0FF206E30401918
:10DEC00085B2641EA4B2BC42E8D24D484543A819AD
:10DED000F8BDFF206F30F2E7FEB5054600F014F9FB
:10DEE00001466846FFF729FF6846C088642102F0B2
:10DEF0009CFCA97068460079401CE8706846C078B0
:10DF0000401C287168468078687168464078A8711E
:10DF100068460078E8716846C078401C0290684600
:10DF20000479002C19D0012C17D0C0886421641CFE
:10DF300002F07BFC0E46C7B21A20641C60430A2123
:10DF400002F073FCB1088919BA0889187A00891A95
:10DF5000411802980818401E08E0C0886421401E3D
:10DF60000D3402F078FCCEB2E5E7C01D00B2002807
:10DF7000FBDB072102F06FFC002900D10721297289
:10DF80002846FEBD1CB542780178120289180904A2
:10DF9000090C6A46D18002D17D210901D1808178A6
:10DFA000C01C1171002901D0491E11710178401C5B
:10DFB000D170002901D0491ED170027869468A705B
:10DFC00042784A70807808706846FFF737FFFFF79D
:10DFD000A6FE1CBD0A48C16D491CC16570470246BA
:10DFE0001F20012907D0062901D9491EC9B2C90736
:10DFF00000D01E2070471C32D0B270470000007C59
:10E0000000208051010018B5F648006800900020FB
:10E0100069460B5C0A241A0962431B070A541B0F4A
:10E02000D2180A54401C0328F3DB009818BD08B529
:10E03000FFF7E9FF009068460178C078EA4A401E81
:10E0400050430A1868468178E12000014143684640
:10E0500040783C23584308181118E34A106981425C
:10E0600001D3081A02E0E14B081AC018116108BD7B
:10E0700070B50D46002802D0DA4E083E01E0D84EB9
:10E080000C3E0024285D0A2102F0CFFB0001014371
:10E090002955641C032CF5DB284602F02AFC30606D
:10E0A0006420FFF73CFCCE482038C17A0822114397
:10E0B000C17270BD38B5CC4909694418CA492046B7
:10E0C00002F0B3FB421C6846C270E12508462D01F0
:10E0D000294602F0AAFB024668468270294620467D
:10E0E00002F0A3FB08463C2102F09FFB0146684674
:10E0F00041703C21204602F098FB68460170694659
:10E100000020FFF7B5FF38BD38B5FFF77CFF009062
:10E1100068460178C078B34A401E50430A186846E2
:10E120008178E12000014143684640783C23584310
:10E1300008181118AD4BAE485A6AC46D914201D30C
:10E140008A1A02E0AA4D8A1A5219A218C26510460C
:10E15000596238BD70B500290BD0A34D6E69AC690A
:10E16000B44206D2A16005C423710020E0601034DF
:10E17000AC6170BD884200D3084670479949203988
:10E180008A7A0F238343887A1A40000900011043DA
:10E190008872704770B5C00742D0934C18216078E0
:10E1A000666848436169081A0A4603E0037B002B4E
:10E1B00002D118309042F9D3884231D2FFF737FFAD
:10E1C000E16860680818E0600020C0436060617822
:10E1D000182041436069451A18E0287B002814D0B4
:10E1E0002869B04204D16868002807D0804705E05C
:10E1F000801B286102D0A968884201D9A8682861DB
:10E200006168884200D908466060183560698542B7
:10E21000E3D36068002804D0411C02D0FFF74AFF16
:10E2200070BD0120FFF7AAFF70BD6F498A68824365
:10E230008A607047F8B50446FFF7F9FE6B4AD06074
:10E2400072B60021C943516051781823594353696C
:10E25000591A002717E00D68A54202D10F734F61CC
:10E2600010E00D7B002D0DD00D692D1A0D6102D02F
:10E270008E68B54201D98D680D615668B54200D9E6
:10E280003546556018319942E5D35068002804D0CE
:10E29000411C02D0FFF70EFF02E00120FFF76EFFE6
:10E2A00062B6F8BDF8B5504C054660781821484371
:10E2B0006169081A06E00268AA4202D1027B002ABC
:10E2C00038D118308842F6D3FFF7B1FEE06072B65D
:10E2D0000021C94361606178182266695143711A4F
:10E2E000012719E00A68AA4203D18A680A610F73FC
:10E2F0000BE00A7B002A0ED00A69121A0A6102D0CA
:10E300008B689A4201D98A680A611346626893420F
:10E3100000D81A4662601831B142E3D36068002821
:10E3200004D0411C02D0FFF7C5FE02E00120FFF738
:10E3300025FF62B6F8BD2C49C8617047F1B582B0BF
:10E34000FFF775FE294DE86072B60021C943696088
:10E3500069786E69182251430090741AEF6920E0C1
:10E360002068B84209D13C21029802F05EFA3C20B4
:10E37000401A2061012020730CE0207B00280FD080
:10E3800021690098081A206102D0A168884201D949
:10E39000A068206120696968884200D908466860E1
:10E3A0001834B442DCD36868002804D0411C02D081
:10E3B000FFF780FE02E00120FFF7E0FE62B6FEBD3F
:10E3C0000A4918224B7853434A69D11A05E00B6871
:10E3D000834201D1087B704718319142F7D3FF2067
:10E3E0007047C0100050805101001C310020803A5D
:10E3F0000900007C00206C490878002808D16B488F
:10E40000C37A01221343C372C37ADB07FCD10A70BB
:10E41000704765490862704765498A7A0243100768
:10E420008A7A000F1209120102438A7270475F490B
:10E430008A7A1209024310018A7A1207120F0243E4
:10E440008A72704770B505460024285D0A2102F0E3
:10E45000ECF9000101432955641C032CF5DB284627
:10E4600002F047FA52492039C86370BD504A138AF6
:10E47000401EDB0BDB034004400C03431382907C03
:10E48000090700090001090F0843907470474748C5
:10E49000C17A04221143C172C17A4907FCD4704782
:10E4A00042490878012809D14148C27A02231A4317
:10E4B000C272C27A9207FCD4002008707047F3B58C
:10E4C00081B0FFF7EDFFFFF7E2FF01200021C0035D
:10E4D000FFF7CCFF6420FFF722FA01216846C170E4
:10E4E0000024847044700470FFF7ACFF2F4D0726A2
:10E4F0002C616846C670172787703B2444700470EF
:10E5000069460120FFF7B4FD6846C6708770447005
:10E51000047069460020FFF7ABFD0F20FFF787FF6F
:10E520000F20FFF72BFE0120FFF776FF02982862ED
:10E53000FFF761FF1F4904200860FEBD1B4A182336
:10E540005070584340189161506101201A49C0032E
:10E55000B5E710B51648407A03071B0F1846FFF7BA
:10E5600066FF1148016A002901D01846884710BD8E
:10E570000E480078704718B5002802D00C481830B3
:10E5800001E00A48143000680090002069460B5CE6
:10E590000A241A0962431B070A541B0FD2180A5493
:10E5A000401C0328F3DB009818BD1C310020A0108C
:10E5B000005000E100E0475F0010F1B5F8488047E7
:10E5C0000746F74880470646F54C0120183CA0470F
:10E5D000F44D00200C35A847F34900988847304691
:10E5E000A8473846A047F8BDF0B5EF4DF048E968B8
:10E5F00085B00818044602F07CF92146401C02F060
:10E6000082F90024E9480125C668E8480C38311829
:10E610000391487C097C00020843A54028420290EF
:10E620003BD00B2060438119E14800910930081864
:10E63000019002F05EF90746DD48301802F059F902
:10E6400087422AD10F21009889014018007D0028B7
:10E650000CD0D64A00990D3A8A18517D127D0902D4
:10E6600011437818019902F04EF905E002980399D8
:10E67000A8430874000A4874CD4800990D30081862
:10E6800002F037F9002808D0022D19D0042D17D038
:10E69000082D15D0102D1AD08047641CE4B20A2C26
:10E6A000B0D3C148C168C1480C380918487C097CFE
:10E6B00000020843800501D1BE48804705B0F0BD87
:10E6C000BD49012088470028E7D0222005E0B9494C
:10E6D000012088470028E0D03B20FFF76EFFDCE7F1
:10E6E000FEB50020694608710870B34F0872B34E3A
:10E6F000AE4CB847207102AB6A4601A9606901F0CF
:10E70000EDFF002836D00820B047002803D00220B3
:10E71000B04700280FD068460078012811D0E06883
:10E720006569407A012826D00228E2D1A54A2179DC
:10E7300028469047DDE7012168460170007A0028ED
:10E7400015D02521E06849014118497B002908D0EE
:10E750009749D4314018417B027B08029A49104303
:10E7600088476846974A017996326069E1E73D201B
:10E77000FFF723FFFEBD28780007000F0528B8D15A
:10E780008E49EE31A81C8847287887224006C10FA1
:10E79000E06811540622A91C883002F070F8372175
:10E7A000206902F085F8A4E7F0B5824999B0042009
:10E7B000884700280ED07F4904201A3188477C49B9
:10E7C0001F20AC318847804880471620FFF7F5FEB0
:10E7D00019B0F0BD7E488047002810D0734DEC681A
:10E7E000A1790807F4D5E079C2071CD07949204601
:10E7F00098308847E868C179490849001FE0734E9E
:10E80000724F714DB2361C376C46103507E06846C2
:10E81000B0470128DCD168460178601CB847A8479A
:10E820000028F4D0D4E782070BD5694A20461C3271
:10E830008E30811C9047E868FD22C17923E0C171C8
:10E84000C6E7420708D5624920466031A8308847AC
:10E85000E868FB22C17916E00207F726002A09DAE8
:10E860005C4A21464232A07A0B319047E868C17970
:10E870003140E4E7C00608D5564968467C318847F0
:10E88000E868EF22C1791140D9E720463140FF30D6
:10E89000A1712130017D0026002910D00675214686
:10E8A000072287310CA801F0EAFF21460DA82A2291
:10E8B0008E31033001F0E3FF47490CA8884701205F
:10E8C0006946087048708E70E96800A82A220330F3
:10E8D0008E3101F0D4FF2D2208213F4C6B460020E1
:10E8E000A04775E731490128896A0FD0022811D065
:10E8F000042812D0082813D0102814D0202815D0AE
:10E90000402816D0802818D0012070478878C0078A
:10E91000C00F7047887880070DE0887840070AE0CC
:10E920008878000707E08878C00604E088788006C9
:10E9300001E088784006C00F70478878C0097047AA
:10E9400010B50178012920D1401C01F0D2FF164AF0
:10E9500010285CD00EDC012818D002283FD00428F3
:10E9600045D0082811D1FFF7BDFF00280DD10D4873
:10E97000563809E020285AD0402806D1FFF7B2FFC8
:10E98000002802D10848801E804710BD0120FFF7F3
:10E99000A9FF0028F9D1FFF707FF10BD0000BF65F0
:10E9A0000000776A0000CF16000044310020CE033B
:10E9B000000001120000F50A000049570000791913
:10E9C00000008B1E00002B620000BD600000054EA1
:10E9D000000027260000DF470000A13E00000220C3
:10E9E000FFF780FF0028D8D1FFF77AFE10BD042082
:10E9F000FFF778FF0028F9D1D068407A012803D0CA
:10EA00000228F3D1FE48BFE7FD48AE38BCE710202E
:10EA1000FFF768FF0028E9D1906A2030407D400769
:10EA200001D53E2000E00820FFF7C7FD10BD2020E3
:10EA3000FFF758FF0028F9D1F248A5E770B5102577
:10EA40000826F04C002821D0A06A817E31438176CF
:10EA5000014660310A7E637852095201DB06DB0E03
:10EA60001A430A762030427B067B1302E268334366
:10EA70002332547C167C22023243934214D0027318
:10EA8000120A4273C87D2843C8750DE001F013FED9
:10EA9000A06A0022014620310A734A736030C17DAA
:10EAA0002943C175D9480677012070BDD648C06892
:10EAB0002330417C027C080210430BD0D4494878B3
:10EAC0000A7800021043032210430870000A4870BD
:10EAD0000120B3E7704730B4CE4CA44630BC604749
:10EAE000F8B5CA48407A000663D5C648C6683046BD
:10EAF0002330417C007C0F02C549074348780978E0
:10EB000004020C43002F01D1600752D5C04DA87BF1
:10EB1000697B00026D1C08434BD0002F49D06879F7
:10EB20002979000208432ED12136707C317C000205
:10EB3000084302F0F8F80022B74B01F0F8FF02F0AA
:10EB400000F980B27843642101F085FE4004010C95
:10EB50002971080A68710A204143707D327D0002E4
:10EB60001043814206D30A21401E01F074FE287131
:10EB7000000A6871687929790002084303D10120ED
:10EB8000287100206871A148A10709D502218C4392
:10EB900001210C430470210A41700020FFF74EFF51
:10EBA00068792A79010211439C4B00224020FFF72B
:10EBB00092FFF8BD1CB595494A7A002A3AD04A78A6
:10EBC0000B7812021A43D30634D44378047818021F
:10EBD000204301282ED1C878401E0006000EC870C0
:10EBE00029D008468B78017AC27909021143027B49
:10EBF000C47A12022243C01C012B24D0521A027282
:10EC0000120A42721206037A120C1A43531A694608
:10EC10000B804A807E498A7B497B12020A436946FF
:10EC20008A80417B027B080210436946C8807B4989
:10EC3000684688471CBD887AC870402002430A7025
:10EC4000100A48701CBD5218D9E7754A1047744A1B
:10EC50002032104738B5002469460C7021467F20C9
:10EC6000FFF7F5FF00213B20FFF7F1FF29213B20B3
:10EC7000FFF7EDFF69463B20FFF7E7FF68460078A6
:10EC8000800701D5012038BD641CA4B2FF2CF1D946
:10EC9000002038BD10B563488047012010BD10B575
:10ECA0005949614A8870002807D1C86880780228CD
:10ECB00003D000209047012010BD0120FAE710B5D5
:10ECC000514C0128E168887004D0002836D0022811
:10ECD0004BD05EE0206B014620310A78520852008A
:10ECE0000A700A78FD231A400A700178890989019F
:10ECF0001C3101704178890989011C314170002162
:10ED00007F20FFF7A4FF03212120FFF7A0FF1F2191
:10ED10000320FFF79CFF7D204249C00080318847D7
:10ED200002217F20FFF793FF01210020FFF78FFFD3
:10ED300000217F20FFF78BFF0F2127E000217F209C
:10ED4000FFF785FF00210420FFF781FF02217F20CC
:10ED5000FFF77DFF00210846FFF779FF00217F20A4
:10ED6000FFF775FF0021032011E002217F20FFF74C
:10ED70006EFF03210020FFF76AFF00217F20FFF7CD
:10ED800066FF00210320FFF762FF00210420FFF748
:10ED90005EFFA078FFF783FF012010BD10B5FFF7DD
:10EDA0008EFF012010BD1F4810B50C30804715485C
:10EDB000C06A017ADF2211400172012010BDFEB548
:10EDC0001A48183080470F4C0190E06A817A007A27
:10EDD000CF07FF0F0026800702D00126FFF7E3FFD1
:10EDE0000948C06A817A4908490081720F490120A7
:10EDF00088470220FFF763FF6420094917E02715C1
:10EE00000000C11600004431002020000240A33A57
:10EE10000020AB4400000000F43F5F680010334264
:10EE20000000C561000007470000A76500006631CB
:10EE30008847002469460C70254601217F20FFF792
:10EE400006FF00210A20FFF702FF22210A20FFF718
:10EE5000FEFE69460A20FFF7F8FE68460078400784
:10EE6000EFD469460A20FFF7F0FE684600784007B5
:10EE700005D568460078000706D4012504E0641C27
:10EE8000FF48A4B28442ECD3FE49642088470020A6
:10EE9000FFF715FFFC4901988847FB48C06A817A53
:10EEA0004908490039438172002E01D0F848804753
:10EEB000002D01D00120FEBD0020FEBD10B51121A6
:10EEC000F44801F0F5FC10BD70B50446401C01F09B
:10EED00010FD022818D0042819D0012149048842C5
:10EEE00047D125462035687B092301070209090F10
:10EEF0000020072A1CD0032A20D0022A25D0012A6C
:10EF000029D0002A2DD032E0FFF7D8FF3AE0DE4DBD
:10EF10000121E868FF302130017501F024FCE86828
:10EF20008078002801D1FFF74AFFFFF793FE29E020
:10EF3000581A062148434121C94304E0581A0621C2
:10EF400048433521C943081A10E0581A062148439E
:10EF50002321C943F7E7581A062148431721C9431B
:10EF6000F1E7581A06214843801D404240B26873B9
:10EF700008E040281DD00121C903884202D1601D4C
:10EF8000FFF718FEC3494878097800020843800655
:10EF900007D5601C01F0ADFC0005000F01D0FFF7A4
:10EFA0009FFDB948383001F0A4FC0146204688474F
:10EFB00070BDB548343001F09CFC4006E2D570BD10
:10EFC000F0B5B14C0646E0688DB0FF302130407C92
:10EFD0000D46002829D0002D26D072B6A068183022
:10EFE00001F087FCE1683222FF312131897CA94B95
:10EFF000514340186A463221984762B6002E04D029
:10F00000E068FF302130807C3070E7680A21FF37EC
:10F010002137B87C401C01F008FCB974E078401C32
:10F02000C0B2E0700A2802D900200DB0F0BD6846D9
:10F0300000780128D1D100A907222846013101F02A
:10F040001EFC2A22E81D02A901F019FC0120ECE7B0
:10F05000F0B5054691498DB0202088478B4C042699
:10F06000E16820690F4686700822C01CC931BD378F
:10F0700001F005FC2069042239460B3001F0FFFB4A
:10F080000D21864A03209047E068294608220A316C
:10F09000C13001F0F4FBE068294604221231B93096
:10F0A00001F0EDFB287A7E4F002802D1687A002813
:10F0B0001FD00020E070E0682A7A01468030837B10
:10F0C0009A420AD16A7AC07B824206D10822284637
:10F0D000903101F0F8FB002817D069460020FFF7B7
:10F0E0006FFF012826D0062200216E4B0120984791
:10F0F0009BE7E06802228179114302468171C132A7
:10F10000FF3011461030B84710E0E06881790246C0
:10F1100031438171C13211469830B847E068803080
:10F120008079012802D15C49022088475E48A030DE
:10F1300080477AE7E06801A92A228E30033101F086
:10F140009EFBB8E7594908471CB551480821017092
:10F15000002141700146087BCA7A0002C91C104395
:10F160002FD04A790B7912021A43821A92B26B4657
:10F170001A8058800623062A01D26A461380062880
:10F1800001D268464380487B097B000208436946F8
:10F19000C8803F48817B427B0802104369468880D3
:10F1A0003A48C0682330417C027C0802104302D0F8
:10F1B0000020FFF743FC3D49684688473B49402013
:10F1C00088471CBD334948780A7800021043C205BD
:10F1D0000CD5FF22013290430870000A487008796C
:10F1E000401E0006000E087109D0ADE72022104332
:10F1F00010229043042210430870000A48707047A0
:10F20000FEB5234D044668782978000208430007BC
:10F2100076D52748804769782A7809021143082261
:10F22000914329700A0A6A706B7A064628461A06C4
:10F2300067D5A27967791202651C3A43134FE41C23
:10F24000002A7ED01022114301700A0A42708806FB
:10F2500057D4687929790002084353D001F063FD3F
:10F2600001910090607821780002084301F05BFD75
:10F27000114C0022234601F05AFC019B1DE0FFFFC8
:10F2800000002B620000A765000044310020074702
:10F290000000A33A002059530000050B00004D1157
:10F2A000000019220000D9190000B34400003342C5
:10F2B0000000BF5500000000F43F009A01F037FC49
:10F2C00001910090F8682130417C027C08021043D3
:10F2D00001F029FD0022234601F029FC07460C46D7
:10F2E000687A297A00020843801B01F008FD3A463B
:10F2F000234601F01CFC019B009A01F066FB28E00C
:10F3000094E08AE0607821780002084301F0EFFC85
:10F310000446F8682130417C027C0802104301F069
:10F32000E6FC214601F0F8FA01F029FD0022FC4B31
:10F3300001F0FDFB07460C46687A297A0002084373
:10F3400000E016E0801B01F0DAFC3A46234601F0AB
:10F35000EEFB0022F44B01F052FC01F0F2FC010440
:10F36000090C00D10121F04B00228020FFF7B3FBF4
:10F3700053E09A0651D58278012A4ED18A064CD4A0
:10F38000FF22EA48013211430170090A4170607896
:10F39000217800020843E5490A7BCB7A1102194320
:10F3A00088423AD901F0A3FC0446F8682130417C38
:10F3B000027C0802104301F09AFC214601F0ACFAED
:10F3C00001F0DDFC0022D64B01F0B1FB07460C46F4
:10F3D000687A297A00020843801B01F090FC3A46C3
:10F3E000234601F0A4FB0022CF4B01F008FC01F002
:10F3F000A8FC0104090C00D10121CB4B0022802084
:10F40000FFF769FBCA484178027809021143FF22DD
:10F41000013211430170090A4170032069460881D5
:10F4200002229103C34C02AB0020A047FEBD10B5E1
:10F430000446007800280BD1A178627808021043B6
:10F4400007D001281CD0032802D1201DFFF700FEA1
:10F4500010BD01F030F9B749201D8847002802D1BE
:10F460002820FFF7AAF8201DFFF7CAFEB3480121A4
:10F47000C368062209040020AE4C3133A04710BDFA
:10F4800001F019F9AE49201D88470028F7D128203E
:10F49000FFF793F810BD10B50078012801D1FFF7F0
:10F4A000A3F810BD70B5A64886B0804701217F2023
:10F4B000FFF7CDFB69465020FFF7C7FB6846007891
:10F4C000042801D0A0488047FFF779FCFFF7C2FB72
:10F4D00001246846448004809C4801909C49684609
:10F4E0008847684604704470002444809948924DCF
:10F4F0000190984BE86808226946C01801F0BFF9EE
:10F500000121954E4020B04701218020B0470121C4
:10F510002020B0470B216846018041808480C48050
:10F52000048144818481C4818D488849049068465F
:10F53000A2398847A8680A3001F0DBF97C4A884B79
:10F54000573A5721984701F00EF9012006B070BDD7
:10F550007C4810B50A308047012010BD794910B5AC
:10F5600028318847012010BD764910B55E318847A3
:10F57000012010BD734910B56A318847012010BDC4
:10F58000704910B578318847012010BD6D4910B51C
:10F5900088318847012010BD10B5654C383CA04724
:10F5A000012010BDF8B5644C6F49E06837308847DA
:10F5B00020693B230178BF250A09E16812015B5CE1
:10F5C0001B071B0F1A4302701207120F012A79D072
:10F5D0000B4640335A781B7812021A430B464233CB
:10F5E0001A70120A5A7002788B7A2A409B011A43C9
:10F5F0005206520E027066235B5C42789B1D920994
:10F600009B0692019B0E1A4342700622801C0B310E
:10F6100001F035F9E1686620425C002A04D02069D7
:10F620006731083001F02BF9E06800212030417784
:10F6300020694D4A41788906890E891C90472069C6
:10F6400001780A091201121D0270E1682A408B7AC2
:10F65000DB075B0E1A43027046235B5C42789B1DFE
:10F6600092099B0692019B0E1A4342700622801C4F
:10F670000B3101F004F9E1684620425C002A04D015
:10F6800020694731083001F0FAF82069374A41789B
:10F690002C328906890E891C9047E56801272E4681
:10F6A0002036F07E012862D0002874D0022872D063
:10F6B000062870D000231E4C1A4601211846A04788
:10F6C000F8BDFFE70A464032137953718B7A02780E
:10F6D000DB072A405B0E1A43027087235B5C5206ED
:10F6E000520EDB011A43027042780B3192099201EB
:10F6F0000C3242700622801C01F0C1F82069E168DA
:10F7000006220830883101F0BAF8E16803223D2072
:10F710004254144A8720405C323A8831904787E748
:10F7200025E00000F43F00005940776F0010A33A35
:10F730000020A13E00005D5B000044310020475FD7
:10F740000000793D0000F7460000497200102F4488
:10F750000000F3660010CE02000061550000E17168
:10F76000001059530000B1570000D9600000403527
:10F77000687900280BD028200621A26A937EFD24F8
:10F78000234093761775737F327F3BE003E00120BF
:10F790006F710146F1E72C4642346078217802020D
:10F7A0000A4316D02235697F19202B7F8001090278
:10F7B0004243194301208904890C009105D0104669
:10F7C00001F033F8401C7F2809D8C5B22770380AE9
:10F7D0000CE0380A277060700125009507E07F254E
:10F7E00029467E3001F021F82070000A6070F84848
:10F7F000806A817E0222114381760775737F327F92
:10F8000000992846F44CA047F3483E30804757E71C
:10F8100010B5FFF7C7FE012010BD10B5EF4903205A
:10F820000870EE4964208847EE488047012010BDEB
:10F8300072B60021E74A906A4175037C01210B43AF
:10F840000374D06845221154423001700021417088
:10F8500062B60120704710B5E3498847012010BD0A
:10F86000E14810B55C308047012010BD10B5DE487E
:10F870008047012010BDDC4910B5083188470120C0
:10F8800010BDD94910B516318847012010BDD649A1
:10F8900010B578318847012010BDCD49487001204E
:10F8A0007047D14910B586318847012010BDCE4A36
:10F8B00010B58E329047012010BD7CB5054601F091
:10F8C00018F8C3490446343101F01DF8281D01F031
:10F8D00010F8BF49383101F016F840208443C3487E
:10F8E000C2490190009468469631884701207CBD4A
:10F8F00010B5BF498847012010BDBD4A10B5083278
:10F900009047012010BD10B5BB488047022801D99F
:10F91000002010BD012010BDF8B50E460746B649BF
:10F920001C4615460120884700280AD0B248804767
:10F93000022807D92346AE4C2A46314638461834A9
:10F94000A047BDE60020BBE6AD49084710B5044618
:10F95000AA4901208847002803D0A8492046083139
:10F96000884710BD70B50546A44A0C460120904753
:10F97000002804D0A24A214628462232904770BD72
:10F98000FFB50F4681B09C491D46164601200A9CD2
:10F990008847002807D00094994C2B4632463946B8
:10F9A00044340198A04705B0F0BDF8B50E460746AF
:10F9B00092491C46154601208847002806D0234658
:10F9C0008F4C2A46314638467C34A04778E610B53D
:10F9D0000446894901208847002803D088492046E9
:10F9E000AC31884710BD70B50546834A0C460120EE
:10F9F0009047002804D0814A21462846C6329047C5
:10FA000070BD70B505467C4A0C4601209047002821
:10FA100004D07A4A21462846E832904770BDF8B5AE
:10FA20000E46074675491C461546012088470028A2
:10FA300005D02346734C2A4631463846A0473FE658
:10FA400070B50D4606466C491446012088470028CB
:10FA500005D06B4B2246294630463033984770BD5F
:10FA600070B50D46064664491446012088470028B3
:10FA700005D0634B2246294630465C33984770BD1B
:10FA8000F8B50E4607465C491C46154601208847D6
:10FA9000002806D023465A4C2A4631463846883438
:10FAA000A0470DE610B504465449012088470028B8
:10FAB00003D053492046B831884710BD10B54E4990
:10FAC00001208847002802D04E48CC30804710BD26
:10FAD00070B53F4D0446082804D0E86840780828EF
:10FAE0000DD014E000217F20FFF7B1F80121402064
:10FAF000FFF7ADF8E86A0178C908C9000EE00021F7
:10FB00007F20FFF7A4F800214020FFF7A0F8E86A63
:10FB100001786207C908C900520F11430170E868F3
:10FB20004470012070BDD3E710B5044636488047C5
:10FB30002070012010BD10B504463248801D80475A
:10FB40002070012010BD2F4910B51C3188470120BD
:10FB500010BD2C4810B572308047012010BD2A48D6
:10FB600000471E491A3908471D49084708B5274963
:10FB7000684688476846C0788007C00F08BD08B54A
:10FB80002349684688476846C078C00900D00120EC
:10FB900008BD10B5FFF759F810BD10B5FFF757F8BD
:10FBA00010BD0B48806AC07B052805D0062803D00D
:10FBB0000F2801D0002070470120704710B5FFF7D3
:10FBC000F0FF002802D10F4852308047012010BDBD
:10FBD0000000443100205F560000000002404562F2
:10FBE000000007470000014100001D4200007B6C3F
:10FBF00000102D4300002B4E0000F50A0000B73A1C
:10FC00000000BB3B00009F440000FB5F00004D650F
:10FC1000000010B5FF490122886A4275437CDB0968
:10FC2000DB019B1C4374931E83741B0AC374C96A53
:10FC3000CB7AEF242340CB724B7B93434B738B7A6D
:10FC400013438B72817E022319438176017C114319
:10FC50000174F04905208847F04880470120B6E745
:10FC6000EE4810B5123080470120B0E710B5EB49DF
:10FC700088470120ABE7E94910B5183188470120D2
:10FC8000A5E7E54910B55831884701209FE7E249CB
:10FC9000AC310847E14910B5FA318847012096E7B1
:10FCA00010B5DF488047012091E7DD4810B51830D6
:10FCB000804701208BE7DA4BA2331847D94BD83362
:10FCC0001847F8B50746D248002680680D463446E6
:10FCD000283000F00EFE2903C91940180121C9047B
:10FCE000884211D90020EBE472B6C94880682830F8
:10FCF00000F0FFFD2103C9194018CA4A01219047AD
:10FD0000064662B6641CE4B2AC42EDD33046D7E49A
:10FD100070B50446BF48164680680D46283000F08E
:10FD2000E8FD0346611940180121C90488420AD838
:10FD3000002B08D072B61819BB4B32462946EA3B55
:10FD4000984762B670BD002070BD70B50446B048DB
:10FD5000164680680D46283000F0CBFD0346611939
:10FD600040180121C90488420AD8002B08D072B675
:10FD70001819AC4B32462946823B984762B670BD93
:10FD8000002070BD70B5A84800240078A64EA04D94
:10FD900000280DD001281ED024E072B6143000F0E7
:10FDA000A8FD210340180121B04762B6641CE4B2EB
:10FDB000A868C17B827B09021143A142EDD811E002
:10FDC00072B6103000F095FD210340180121B047B4
:10FDD00062B6641CE4B2A868C17B827B090211434D
:10FDE000A142EDD8012070BD70B504460D46000B50
:10FDF000421987488068C17B837B090219438A4284
:10FE000001D9002070BD8849874E0978002902D0A9
:10FE1000012903D00AE072B6143001E072B6103046
:10FE200000F067FD00192946B04762B6012070BD99
:10FE3000F8B504467D480F46017875487A4D8068CC
:10FE4000823D1646002902D0012903D00BE072B68C
:10FE5000143001E072B6103000F04BFD001932464C
:10FE60003946A84762B601202AE430B4694B9C6841
:10FE7000E37BA47B1B0223431B03834202D230BCDF
:10FE80000020704730BCC9B2D2E730B4684CA446F9
:10FE900030BC6047F3B55E4889B0806800242830E4
:10FEA00000F027FD074609984609002511E072B6C3
:10FEB00068015C4BC01920216A46EA3B984762B64C
:10FEC000002069460A5C401C121994B22028F9D31C
:10FED0006D1CB542EBD30998C606F60E72B63146D4
:10FEE0006801504BC0196A46EA3B984762B6002049
:10FEF000694603E00A5C121994B2401CB042F9D37F
:10FF00000A98844202D101200BB0F0BD0020FBE72B
:10FF1000F8B541488A388047444C5734607A002805
:10FF200040D00006042500280FDA6078217800020E
:10FF30000843400709D5FEF7D3FD60782178000219
:10FF40000843A8432070000A60706078217800029E
:10FF50000843374F384E41060CD540218843207066
:10FF6000000A607002206946088002466B463946E6
:10FF70000020B0476078217800020843C10711D003
:10FF8000400840002070010A6170800702D5684671
:10FF9000058002E005206946088002226B4639464A
:10FFA0000020B04733E42448004738B5194C207886
:10FFB000002805D11A4968467E39884701202070FB
:10FFC000012038BD70B50278002A62D01749573138
:10FFD0004A7242788A72002A01D0042A01D9042286
:10FFE0008A72C27884781302104A23435732D3723C
:10FFF0001C0A14734479057924022C4315466C734A
:020000041001E9
:10000000240AAC73C479857920022843D073000A8E
:1000100015E04431002045620000E5460000CB6554
:10002000000003480000435400004C3A00207B4A83
:10003000000000800000A13E0000F94B0000107499
:10004000FA480825C068D21C2130447C007C240278
:1000500004430120A342887008D91B1B07E01071DC
:10006000000A01E01571280A507107E0E31A8C7A42
:10007000A3420ADA1071000A50718B72887AC87034
:100080000871FFF761F8012070BDE400A342E9DACE
:10009000E5E7002070BDE449496A0870020A4A7029
:1000A000020C8A70000EC870487A0222104348720F
:1000B000704738B5044600200090DC496846884700
:1000C0000099F8208143E006000E08430090FFF7F6
:1000D000E2FF38BD08B500200090D4496846884743
:1000E00000980006C00E009008BDD048723000474E
:1000F000CF495A310847CE490847CD491A310847F8
:10010000CD480047CC490C310847F8B500260B46CE
:1001100004460125304631462D03675C491CBE1953
:10012000A942FAD30021675C491C7840A942FAD35E
:100130009E4221D190421FD1BC4EB0680A3000F0DF
:10014000D8FB00195722BC4900F099FBB0681C305D
:1001500000F0CFFBF168001907220A3100F08FFB95
:100160000121B64A00209047B54B0020224629467F
:10017000823B9847012029E4002027E470B501263E
:100180000546A94C3603AD4B00203146EA3BA26937
:100190009847AB4928468847A0681C3000F0A9FB67
:1001A000A16907224018E1680A3100F068FB0121CB
:1001B000A34A00209047A14B00203146823BA26910
:1001C000984770BD10B50446984880680A3000F022
:1001D00090FB9A4B1021EA3B224657309847F6E4B1
:1001E00070B501260546904C3603944B00203146ED
:1001F000EA3BA26998470121914A00209047A068F4
:100200000A3000F076FBA1691022573140182946C8
:1002100000F035FB8A4B00203146823BA2699847AB
:1002200070BD814840690178C943890702D180784F
:10023000062801D00020704701207047824A1047ED
:10024000F3B581B0060025D0784F386A0446C179ED
:1002500080790D020543E01C00F04BFB0102A07801
:1002600001430C46002D17D0002C15D00121734BF3
:1002700009030020EA3BBA699847B8680A3000F0E1
:1002800038FBB9696731405C401CC7B2032F05D900
:100290000220FEBD0120FEBD0420FEBDB54204D1FA
:1002A0000298844201D10020FEBD0121644A002051
:1002B00090475D4CA0680A3000F01BFBA2695F4BC1
:1002C000114667314754012109030020823B9847BA
:1002D0000320FEBD59480121027853480907806870
:1002E000002A03D0012A07D000207047C27B837BFD
:1002F00010021843400304E0C27B837B10021843C2
:1003000000034018704770B504464B480D4601780D
:1003100046480126B6038068002903D0012903D08E
:10032000002070BD143000E0103000F0E2FA8019B7
:1003300072B60019424A2946904762B670BDF8B5B8
:1003400005463D480F46017838480124A4038068DB
:100350001646002903D0012903D00020C3E414303D
:1003600000E0103000F0C5FA001972B64019334BA6
:1003700032463946EA3B984762B6B4E4F8B50546DA
:100380002E480F46017828480124A40380681646A9
:10039000002903D0012903D00020A4E4143000E098
:1003A000103000F0A6FA001972B64019244B3246FC
:1003B0003946823B984762B695E410B5030000F0D9
:1003C00093FE09060C16202A444E516B870001212A
:1003D0007F20FEF73CFC882104E001217F20FEF70E
:1003E00036FC8A216120FEF732FC81216DE001217B
:1003F0007F20FEF72CFC8A216120FEF728FC832158
:1004000063E001217F20FEF722FC8A216120FEF7B4
:100410001EFC872159E001217F20FEF718FC8A216C
:100420006120FEF714FC8F214FE0443100204D6520
:1004300000002B620000776A00004C3A0020435411
:100440000000A13D0000D960000001217F20FEF7DF
:10045000FEFB8A216120FEF7FAFB9F2135E0012196
:100460007F202BE000217F20FEF7F1FB02213020CE
:10047000FEF7EDFB01217F20FEF7E9FB1F21632042
:10048000FEF7E5FB03216D20FEF7E1FB8A216120E9
:10049000FEF7DDFBB02118E000217F20FEF7D7FB3F
:1004A00002213020FEF7D3FB01217F20FEF7CFFB96
:1004B0001F216320FEF7CBFB07216D20FEF7C7FB52
:1004C0008A216120FEF7C3FBBF216520FEF7BFFB39
:1004D00085E610B5CE488068283000F00AFA012180
:1004E000C904081A7BE6CA4800787047F8B5054683
:1004F000C74EC748B26900781446002801D00020D2
:1005000005E4280502D02805000D2D1A72B6012138
:100510000903C04F0020B84762B60120C00421463D
:10052000401B283100F0EFF905462046103000F05E
:10053000E0F90090281A4108009808182146143163
:1005400000F0E1F901460098081A0001000CA073C0
:10055000000AE07372B60121AF4A0020EA329047E8
:1005600062B672B60121AB4B090300206833B26951
:10057000984731210020B268B84762B6012073E481
:10058000A348A24B00791B7902091B0709201B0F06
:10059000C01A062300215843072A08D0032A09D08D
:1005A000022A0BD0012A0CD0002A0DD00FE04121E5
:1005B000C94301E03521C943081A07E02321C94393
:1005C000FAE71721C943F7E7801D404241B2C8B29C
:1005D0007047F3B5914E914F8DB0054600243222FD
:1005E0006B4621460320B04768464088A84206D1A2
:1005F000684601790E98017001200FB0F0BDB84235
:1006000004D068460088001984B2E8E70020F4E7C7
:10061000F3B5814E824F8DB00546002432226B46E1
:1006200021460320B04768464088A84208D1241DCF
:10063000A1B2012203200E9B00F0A4F80120DCE708
:10064000B84204D068460088001984B2E6E700206A
:10065000D3E7F3B5714E714F8DB0054600243222B9
:100660006B4621460220B0476846817842780802EE
:100670001043A84205D1684641790E9801700120C7
:10068000BBE7B84204D068460078001984B2E6E7B8
:100690000020B2E75F4910B5573148780978000269
:1006A0000843800603D5FEF71BFA012097E50020DA
:1006B00095E55B4B184710B500F09CF8002804D076
:1006C00000F098F80128FBD089E500F093F80028A5
:1006D000FBD000F08FF80128FBD080E5F0B54B4C43
:1006E0000025A46AE678360701D50020F0BD00BFDA
:1006F0006D1CEDB2642DFAD3254640356E7CB607ED
:10070000FCD400252646C036377947556D1CEDB21E
:10071000022DF9D346780125F709002F08D0F606F7
:10072000F60E0E70157042785206D20F1A7004E061
:10073000B3069B0E0B7000231370344B0A789B6A30
:10074000801CC033272A0CD20022C03403E0267953
:100750008654521CD2B20E789642F8D85D720120AF
:10076000F0BD5D72C1E770B52F4D0024284EA8473B
:10077000F1680919FF310131641CE4B2C873102C0F
:10078000F5D370BDFFB5214C0200E06981B01E4673
:100790000D4606D0012A06D0022A06D0032A06D02A
:1007A00009E0001D04E0083002E00C3000E01030E9
:1007B00000F09FF801464D1972B601273F03154B13
:1007C00039460020A269984762B6A06931464019AF
:1007D000039A00F054F872B601210E4A0020EA3262
:1007E00090470C4B002039466833A269984762B69F
:1007F00005B0F0BD0648816A0A466032907C927C62
:10080000603101E0887C8A7C9042FBD170474431A2
:1008100000204C3A002059530000C9280000FFFF77
:10082000000019220000FB5F000030B50B460146B6
:1008300000202022012409E00D46D5409D4205D329
:100840001D469540491B2546954040191546521EA8
:10085000002DF1DC30BD70B500242546002801DAFA
:1008600001244042002901DA01254942FFF7DDFF5A
:10087000AC4200D04042002C00D0494270BD03463B
:100880000B439B0703D009E008C9121F08C0042AC4
:10089000FAD203E00B780370401C491C521EF9D2B7
:1008A0007047D2B201E00270401C491EFBD2704773
:1008B0000022F6E710B513460A4604461946FFF72C
:1008C000F0FF204610BD30B504460020034600E08E
:1008D0005B1C934203D2E05CCD5C401BF8D030BD82
:1008E00003460A780270401C491C002AF9D11846B8
:1008F00070470321001D401E037812021A43491E4F
:10090000F9D510467047034603220870000A491CB7
:10091000521EFAD518467047F8B502464A40D40F21
:1009200042004B0052085B089A4202D20246084637
:1009300011464A0023D0C30D4A00DDB2120EAD1A93
:10094000202D35DA49020126490AF6058A19002CBC
:1009500000D0524220214F1B1146B9402A411018A5
:10096000C20D9A4221D0002C17D0012D08DCDA05E7
:10097000801AD20F8019D207DBB200F080FAF8BDDE
:10098000DA05801A012340001B06C01880185A425D
:100990008018CA0F1043490007E04908C2071143F5
:1009A000DA05801A80194008801800F060FAF8BD56
:1009B00061000122511A001BF7E70122D2075140C2
:1009C000AAE70122D2075040A6E7F0B5074608463D
:1009D000584087B0C00F049048000E4659004008A8
:1009E0004908BC1A884105D2384631461E4617468A
:1009F0000B4602465800400810434CD0300D03907F
:100A000040055900400D490D0590401A02904028BC
:100A100072DA18030121000B0905084301900498BC
:100A20000092002805D0019952420020884100928E
:100A30000190029840210A1A0199009800F0E3F908
:100A400005460C466B4607CB00F0FEF9C019714114
:100A5000039A0E0D0023D71756401A467A401643C4
:100A600044D0049A002A2DD0029A012A039A15DC58
:100A70001205C01A914101263605001C7141D20FA2
:100A8000059ED2070093019202962A46234600F063
:100A90003CFA07B0F0BD38463146FAE71605224A5F
:100AA0000F46B218C01AB74101210905001C4F4179
:100AB00000187F41114618187941E20F10436D1953
:100AC000644113E0E2076D0815436408C20714434C
:100AD000039A01261205C01A91413605001C714186
:100AE000CE07400830434908C01851412A462346E2
:100AF00000F0FEF9CDE7FFE7049801224000C1179E
:100B0000121A00238B4104983146C417381AA141A8
:100B1000EEE730B40124E407634030BC55E730B45D
:100B20000124E407614030BC4FE70000E0FFF0B56E
:100B30001FB488B00B990998002448400999C00F48
:100B4000490049080991C0070B99009049004908DC
:100B50000B9109990898A64608431CD00B990A984E
:100B6000084318D0099801244000420D4800410D67
:100B7000099824050003000B204309900B980003FB
:100B8000000B20430B9050181C4940180022019084
:100B90001446104605E0002001460DB0F0BD0328C4
:100BA00001DA034600E003239C46C11A0AAE0AE0BC
:100BB0005F0008ADED5B4F00F75B7D430027AA188F
:100BC0007C41491C5B1E6145F2DD410004AB5A5279
:100BD0002104120C0A43240C401C0828DFDB019876
:100BE00002900099704601910090059B049A079924
:100BF000069800F08AF9D0E700000DFCFFFFF0B581
:100C00000C465C4085B0E40FE40703944C000026DA
:100C1000640859009446490802460296224321D0AE
:100C200062460A431ED06200570D4A000E0323039A
:100C3000550D012402462C492405781B1B0B360B4D
:100C4000401823432643614600901C46501AB44185
:100C500003D30098401C009002E0921800985B417A
:100C6000002803DA0020014605B0F0BD0020012174
:100C700009050746864611E064461D46141BB5412A
:100C800006D36546521BB341744607430C43A64640
:100C9000CD0740084908284392185B4105460D439B
:100CA000EAD11046184313D06046194650407140AF
:100CB000084306D06046101AB34106D20122002331
:100CC00006E000220123DB0702E00122D243531099
:100CD000009874460105381C6141029C039D00196F
:100CE000694100F005F9BFE70000FD03000010B501
:100CF00000229623114600F0C2F810BD00000EB588
:100D0000C217C10F5040CA0740180021054B02937B
:100D1000019200910A460B4600F0F7F803B000BDBF
:100D20000000330400000EB5054902910021009136
:100D30000A460B46019100F0E8F803B000BD330409
:100D400000004A0009030123090B1B051943094B45
:100D500010B5520D9A4201DA002010BD064B343313
:100D60009A4203DC9A1A00F05EF810BD034951184C
:100D7000884010BD0000FF030000CDFBFFFFC20F45
:100D8000D207400040080BD0C10D0723DB01C91872
:100D900040020905400A1143C20840071143704749
:100DA000002001467047F0B51FB40646002082B00F
:100DB00005464024019100901BE0019922460F4610
:100DC000304600F030F8049A059B801A994110D300
:100DD00010461946224600F016F8361A8F41019740
:100DE000224601200021009F00F00DF838184D41E7
:100DF00000902046641E0028DFDC019B00982946F5
:100E0000324607B0F0BD10B5202A04DB0146203A77
:100E10009140002010BD914020239C1A0346E340DE
:100E20001943904010BD10B5202A04DB0846203A33
:100E3000D040002110BD0B46D340D0402024A21A40
:100E400091400843194610BD10B5202A06DBCB1788
:100E50000846203A1041C1170B4306E00B461341E8
:100E6000D0402024A21A91400843194610BD002901
:100E700004DA401C490001D140084000704770B4BA
:100E80000024050C05D11024000402D1002921D032
:100E90001124050E01D100020834050F01D1000113
:100EA000241D850F01D18000A41C002801DB400017
:100EB000641C002908D020252E1B0D46F540A140BA
:100EC00000D001212943084301061B1B000ADB1D3A
:100ED00002D5002070BC7047DB0518188018002967
:100EE000F8DA401C4900F5D170BC4008400070475A
:100EF00010B5002B08DA0024401C614192185B41B8
:100F00001A4301D14008400010BDF0B51FB482B0B3
:100F100005460C0003D0084600F0CFF802E000F0D0
:100F2000CCF820300246009021462846FFF76BFFA0
:100F3000049B059A04460F4618431143084314D0F6
:100F4000184610431BD0009840210A1A18460599EC
:100F5000FFF769FF05460E46009A05990498FFF7CA
:100F600052FF084305D0012004E02046394607B06F
:100F7000F0BD0020C11705430E432C4337430099B1
:100F80000E986305401A7905E40A00220C43FD0A15
:100F90000A3002D500200146E9E701051019694130
:100FA0000C9C0D9D00196941FFF7A2FFDFE74A0085
:100FB00009030123090B1B0519430A4B10B5520DF8
:100FC0009A4202DA0020014610BD064B34339A42A1
:100FD00003DC9A1AFFF727FF10BD034BD218FFF767
:100FE00012FF10BD0000FF030000CDFBFFFF10B596
:100FF000002904DB0124E40740428C412146002BF8
:1010000004DB1C460123DB075242A341994200D175
:10101000904210BD0000064C0125064E05E0E36835
:1010200007CC2B430C3C98471034B442F7D3F7F766
:1010300072F910A3071030A3071070B58C1805784B
:10104000401C6B075B0F01D10378401C2A1106D1AD
:101050000278401C03E006780E70401C491C5B1EA1
:10106000F9D12B0705D40023521E0DD40B70491C57
:10107000FAE70378401CCB1A921C03E01D780D7030
:10108000491C5B1C521EF9D5A142D8D3002070BD6B
:1010900000000FB410B504A9074B02AA039800F092
:1010A000FAF8044602A9002000F091FC204610BC8A
:1010B00008BC04B01847819700102021020C01D011
:1010C00010211046020A01D010460839020901D049
:1010D0001046091F820801D01046891E420801D01F
:1010E000881E7047081A704730B47446641E25780D
:1010F000641CAB4200D21D46635D5B00E31830BC4C
:10110000184702E008C8121F08C1002AFAD1704728
:101110007047002001E001C1121F002AFBD1704777
:101120000000F0B51FB486B00998089A030D00219D
:10113000024314D05148514A1818504305141198CD
:10114000012810981AD0281A401C00264D4F4D49EE
:10115000009601910490002812DA444211E011989F
:10116000012449A3012801D11098C1430698119A7E
:1011700084600360C26041600BB0F0BD4042E4E7B0
:101180000446210500203F4A001C51410391029072
:1011900012E0E00707D032463B4601990098FFF77E
:1011A000C6FC0191009032463B4610461946FFF7B7
:1011B000BEFC06460F466410002CEAD10498039B3F
:1011C0000028029A0999089806DAFFF7B0FC019BFB
:1011D000009AFFF7ACFC05E0FFF711FD019B009AB8
:1011E000FFF70DFD04460E460022284BFFF7FFFED9
:1011F00003D80020C043014607E00022254B2046CB
:101200003146FFF7E2FBFFF7D2FE102409E0002C85
:101210000ADB0A220023FFF7C6FD079B30321A556E
:10122000641E02460A43F2D11122641C079B121B62
:101230001C19119B012B03D0012308430ED10AE096
:10124000084304D0112010900020119077E71098E7
:10125000151A6D1E0BE01098824202DD00236D1CF2
:1012600003E0824201DA00236D1E002BEED00698C7
:1012700011998260C16030C07EE701FCFFFF104D14
:101280000000000014400000F03F300000000000AB
:10129000F0430000E03FFFB597B00646002518E296
:1012A000252877D100242746FD49049400E0044313
:1012B000761C32780120203A90400842F7D13078ED
:1012C0002A280ED00222307801463039092916D852
:1012D00004990A235943303940181443761C04906A
:1012E000F1E7189802C804911890002904DA012047
:1012F000400304434842049002200443761C3078A3
:101300002E2814D1042004437078761C2A2809D191
:101310001898761C80C8189009E00A214F43303F86
:10132000C719761C3078014630390929F5D930784B
:101330006C2810D006DC4C281AD068280ED06A28F9
:1013400017D104E0742813D07A2812D110E00120BC
:10135000400504430CE00121090501E003210905D2
:101360000C437178814203D1012000052418761CBA
:10137000761C3078119066280BD013DC58287DD06D
:1013800009DC00287BD04528F6D04628F4D0472831
:101390001AD1A5E118E0632835D0642870D06528FB
:1013A00012D19DE170286CD008DC6728F1D0692843
:1013B0007BD06E280DD06F2806D1BAE073282ED0CE
:1013C000752871D0782859D01A9A199990476D1CB0
:1013D0007EE16002400F022809D003280DD00428C6
:1013E000189801680DD00D60001D189070E11898D4
:1013F000EA1701680D604A60F6E7189801680D80E9
:10140000F2E70D70F0E718986A4601781172001D36
:1014100018900020507202A80090012005E0189852
:1014200002C8189000200091C04361070DD500212B
:1014300001E00199491C0191B94212DA8142F8DBBD
:10144000009A515C0029F4D10BE0002101E00199E0
:10145000491C01918142FADB019A0099895C0029BB
:10146000F5D1019904981A9B471A21463846199AD2
:1014700000F097FA0199401945180BE04FE02CE174
:1014800013E04EE0009800990078491C00911A9AE8
:10149000199990470198401E0190401CF2D12146B5
:1014A00038461A9B199A10E137E00A200021009073
:1014B00001916002410F022907D0189A01CA1892BF
:1014C000C2179446032908D00AE01898C01DC10825
:1014D000C90005C91891944607E000B2C2179446A6
:1014E000042902D140B2C1178C46002261469445BE
:1014F00006DA0A460021404291418C462D2102E045
:10150000210504D52B216A461173012103E0E1076F
:1015100001D02021F7E7029155E00A200AE01020CF
:1015200008E01020009000210420044301910827C6
:1015300003E008200021019100906002410F022980
:1015400007D0189A01CA189200229446032908D09D
:1015500008E01898C01DC108C90005C91891944633
:1015600003E080B2042900D1C0B20021029121071A
:1015700029D51199702906D0009A1021019B4A4063
:101580001A4305D00EE040216A461173012108E09C
:101590006146014306D030216A4611731199517397
:1015A00002210291009A0821019B4A401A430AD164
:1015B0006146014301D1610705D530216A461173A7
:1015C00001217F1E02911199582904D035A10E9155
:1015D0000DA90D910DE037A1F9E76146019B009A35
:1015E000FFF7E1FB0E9B8C469B5C0D9A521E0D9201
:1015F000137061460143F0D10D9805A9081A2030F7
:101600000190600703D501200004844300E0012716
:101610000198874201DD381A00E00020019900900E
:101620004118029809180498401A0490E00306D45F
:1016300021461A9B199A049800F0B3F9451900271E
:1016400006E003A81A9AC05D199990476D1C7F1C8B
:1016500002988742F5DBE0030CD521461A9B199AC4
:10166000049800F09EF9451904E01A9A302019995F
:1016700090476D1C0099481E00900029F5DC08E099
:101680000D980D990078491C0D911A9A1999904757
:101690006D1C0199481E01900029F1DC63E10928C5
:1016A00001003031323334353637383961626364A2
:1016B0006566000000003031323334353637383952
:1016C0004142434445460000000000F05AF94519E4
:1016D000761C3078002800D0E2E528461BB0F0BD2B
:1016E000600700D406271898C01DC108C9004868C3
:1016F0000A680831C30FDB071891190001D09CA1BB
:1017000008E0210501D59BA104E0E10701D09AA1E1
:1017100000E09AA1430011985B08109165280CD055
:1017200006DC452809D046281DD0472841D141E094
:10173000662818D067283CD13CE00021112F01DB3E
:10174000112000E0781C0191009008A911A8FFF772
:10175000E8FC139905910021119A15927F1C1298AB
:101760000197009150E00120C007039001200190F3
:1017700008A9009711A8FFF7D4FC139A14990592B1
:101780000022119B009212981593059A019200294C
:1017900001D0104602E0791C40180190381A01D59A
:1017A000019804E04042401E0090781C0190C01B4C
:1017B000029043E0012F00DA01270021112F01DD03
:1017C000112000E038460191009008A911A8FFF708
:1017D000A8FC13990591119A002112981592009175
:1017E000019721070CD40599B94201DB019900E06A
:1017F0000191012904DD159A491E515C302906D05A
:10180000B84201DA011D05DA0121029115E00199C2
:10181000491EEDE7002805DC009941180091019967
:10182000091A03E0019A411C914200DD01910099DF
:10183000401A401C02900120C0070390200706D4E4
:1018400002990198814202DB0020C04302900020EF
:101850006946C87707AF012103980337C907884253
:1018600024D0022011902B201290039800280CDA2B
:10187000404203902D20129007E00A210398FEF7C2
:10188000D4FF30317F1E039039701199481E11909A
:101890000029F2DC03980028EFD1791E1298087015
:1018A0003078202108404530BF1E387006A8C01B84
:1018B000C01D039010980078002800D001200199E5
:1018C00041180298C0170918039809180498401A7B
:1018D000401E0490E00306D421461A9B199A0498EE
:1018E00000F05FF8451910980078002803D01A9A84
:1018F000199990476D1CE00324D521461A9B199A2B
:10190000049800F04EF845191CE00098002807DB09
:1019100000990598884203DD1598405C199901E00B
:10192000199930201A9A904700986D1C401C00901D
:101930000298401E0290002804D11A9A2E2019996C
:1019400090476D1C0199481E01900029DDDC05E0DF
:1019500038781A9A7F1C199990476D1C0399481E74
:1019600003900029F4DC21461A9B199A0498ACE6EE
:1019700000002D0000002B000000200000000000EF
:101980000000F8B5044600251E461746880404D416
:1019900005E039462020B0476D1C641EF9D5284665
:1019A000F8BDFFB50446002581B01E46C80301D529
:1019B000302700E02027880404D505E03846039945
:1019C000B0476D1C641EF9D5284605B0F0BD0A6805
:1019D000531C0B60107070477F01020408102040F8
:1019E000152A031C70070E1F603F10F4000010043E
:1019F000000000DC0000109C0000102C000010B85B
:101A0000000010F800001084000010FC000010BC62
:101A1000000010EC00001078000000F00000105CE6
:101A2000000000F8000000E8000000000000E1C431
:101A30000000807F80807F807F807F807F807F80AC
:101A4000807F807F80807F807F807F80807F807F9D
:101A5000807F80807F807F80807F807F80807F808C
:101A6000807F807F807F807F807F807F80807F807D
:101A70007F80807F807F807F807F8080807F807F6D
:101A800080807F80807F8080807F807F807F807F5C
:101A900080807F807F80807F807F807F807F807F4D
:101AA000807F807F807F807F807F80807F80807F3D
:101AB000807F807F80807F807F80807F807F807F2D
:101AC000807F80807F807F807F807F807F80807F1D
:101AD000807F807F807F80807F807F807F807F800D
:101AE0007F80807F807F80807F807F807F808080FC
:101AF0007F807F807F807F807F807F80807F807FEE
:101B0000807F807F807F80808080808080808080D8
:101B1000808080807F7F7F7F807F7F7F8080807FCD
:101B20007F8080808080807F7F7F7F7F80808080BB
:101B30007F7F808080807F8080808080807F7F7FAB
:101B40007F7F80807F7F7F807F7F7F80808080809D
:101B5000807F807F807F8080807F7E7D7E7F81828E
:101B6000838382817F7E7E7E7F8081818180807F72
:101B70007F808080818181807F7F7F808181807F65
:101B80007E7F80818181807F7F7F7F7F808080805A
:101B90007F80808182817F7D7C7D80838483817F43
:101BA0007E7E7F80808182828382807E7C7B7D7F3F
:101BB00081828281807F7F7F7F8081817F7E7D7D2A
:101BC0007E7F8081828382817F7E7E7F8080807F16
:101BD0007F7F808080828384848381807F7E7D7C00
:101BE0007D7F818281807F808081807E7D7D7E7F00
:101BF0008181807F7F7F8081807F7E7E7E808182E9
:101C0000828181818181807E7D7C7C7E7F808080DD
:101C100081838484827F7D7E7F807F7E7D7E8082C3
:101C200082838384848281807F7E7D7C7B7D7F81B3
:101C300082817F80818282807E7C7C7E80828281A4
:101C4000807F7F8080807F7F7E7F80818182818195
:101C5000828181807E7C7C7C7E8182817F7E7E7F92
:101C6000808182838483817D7B7C7F80807F7D7F78
:101C700081828282828383828180807F7E7B7A7C64
:101C80007F8282807F7F818383817E7C7C7D808157
:101C9000817F7E7E7F808181807F7E7F8082828245
:101CA00081818181807F7D7C7B7C7E808486888829
:101CB00086817E7A7A7C7F828383807F7E7F7F802D
:101CC0008182838381807E7E7F8182817F7D7D7F13
:101CD0008182838281807F7F807F7E7E7F818385FA
:101CE0008483817E7B7B7D8084878885827D7A79F1
:101CF0007C7E8181828181807F7E7E8082838280E2
:101D00007F7F8081807F7E7E7E7E7E7F80818181DD
:101D1000808080818283827F7B797A7C81848684C3
:101D2000817D7D7E8081838283838281807F7D7AB5
:101D3000797C7F82838280807E7E7D7F818486869F
:101D4000837E7B7E83898A857A7578828E938F8461
:101D50007B76797E848485868888867F7672757D99
:101D600084868483838788867D79797F8484807B59
:101D70007B7F85868887888887837F7D7D7E7E7D43
:101D80007E828788847E7A7D848B888076747B854A
:101D90008A898686898A8985828384817973757E1A
:101DA0008688827C7C828A8A827773768088888320
:101DB0007B7A7D838685807C7A7C8086878683811A
:101DC000807B726A68727F8A8C87807B7B7A797469
:101DD00074757C808382807D7C7F8488867F736C31
:101DE0006975869AA4A1927E6D66707E8B8D877CC4
:101DF0007679808685807C80858681797573757516
:101E000085AAD7F2E4B57C5B586C7F84796B6261FC
:101E1000676D73777C7F807F849BC2EBF8DEA77051
:101E20005353636C6A6362676F7172747B828685D9
:101E3000879CC5F1FEDFA065484A59605F5E677305
:101E40007B7976787F8788878896B7E0F9E9B371E0
:101E5000463C4A5A6268707B81817C7B7D828687A2
:101E60008A8EA3C8EFF5CB854A38445A666F7B87C4
:101E70008A80746F747B8283888D9ABCE6FDE19FB3
:101E800059393D505D6676868F84787176797E818A
:101E9000898F9AB9E1F8DA99583C40505F6F808990
:101EA00089817A7675767C888F918EA2CDF1E6ADA8
:101EB000704A4346556B85908B827C79727076842C
:101EC0008D8D8B95BCE5F0C88E5D453F49637F9253
:101ED0008F887E786D6A73818B8C8F93ABD1EDDFA9
:101EE000AC744E4043577189938F84776E696F79D4
:101EF000868C90929ABCE0EBC690624A414966811A
:101F000096938C7E746868727D888C9597ACD0ECC3
:101F1000DDAB7956433F56778F938C85796C646D32
:101F20007883868E98A1C0E1ECC794674D404865E0
:101F30007F8C88857B71666A757E858B989CAED117
:101F4000ECDDAC815F483F54738689878477696490
:101F500070787D84929BA1BFE1E9C59A775740468E
:101F6000667C8486897E6C646A73757E8A9799AF75
:101F7000D4E8D7B2946E4E445A6C747D86826F69F1
:101F80006C706D76849195A0C5E0DDC4AE8B5E4823
:101F9000526165748687756C706D686E7E868D96ED
:101FA000B5D6DDD5C2A57454515B5B677D82756E75
:101FB000746E686B7B7F8391A7C5D6DDD2B88F6ABC
:101FC0005B575963777F7A73736D666970777A8927
:101FD00096AECBDBD9C9AE85695D5B586676757107
:101FE000727368696E73727E8E9CBBD5DED6C5A196
:101FF0007E6A5E585F6E6F7073726A696D6D6E7621
:10200000848CA6C5D3D7D3BB97826E5F5E686A6B9C
:1020100073706C6C6F6A6D72787F8FAEC0D0D5CCE8
:10202000B19A836E666567686F6E6C6E6F6C6D716A
:1020300071788196ADC1CDD0C3AD99827268666466
:102040006669696A6D70707375787D879FAEBEC969
:10205000C8B8AA9982776F69656865666A6C6D729F
:1020600076767C80889BAAB6C3C3B7AD9C887D7406
:102070006C6768616365686B7376798083909EABEB
:10208000B6BDB9B0A596887E766E696764636569EA
:102090006D74797E8188959DAAB3B4B1AB9E938906
:1020A0007E77716C686866686C70757B7F828B94D4
:1020B0009CA7ADADABA49A90877E7973706E6C6C63
:1020C0006E6F7377797E80888F97A1A6A8A7A19954
:1020D0009087817975726F6D6F6F7276787B807F74
:1020E000888D949EA2A4A59F9892878279746F6D23
:1020F0006A6C6C7174797C8282878F929CA0A4A593
:10210000A29B968C857E7873706C6D6D6E727679FD
:102110007E7F838B8F9A9EA2A4A19C968D878079C7
:1021200075716F6E6F7074767A7D7F8086899299F3
:102130009DA3A19F9A938C857D79736F6E6D6F724D
:1021400074797C7F8183898D959A9FA09F9B958FC1
:1021500088827B76716F6E6F7174777B7E818285EA
:10216000898E95999E9F9D9A958E88817B767270B7
:102170006F707275787C7F808282878A91979B9F2F
:102180009E9D99938D867F7974716F6F7173777A45
:102190007D7F818184888C94989D9E9E9C97928B54
:1021A000837C75706D6C6D6F72777A7E80838486A8
:1021B0008A8E94989C9D9D9B97928B837C76716E62
:1021C0006D6E7073777A7E80828385898D93979CFC
:1021D0009D9E9C98938C847C75706D6C6C6E7175F3
:1021E000787C7F818384888B90959A9D9E9E9B9618
:1021F00090888079736F6C6C6D7073777B7E808252
:10220000838486898F93999C9E9E9B968F888079E4
:10221000726E6B6B6D7074787C7F8183838386892B
:102220008E93989D9FA09C9891898279726D6A691E
:102230006A6D71757A7D818384848487898F949A8D
:10224000A0A2A3A09C958C837A726B6866676A6E65
:1022500073787C8082848484878A91979EA3A6A7C2
:10226000A49F968C82776E68636263676C72787DD8
:10227000818384858384878B949BA4A9ADADA8A119
:10228000978B7F7369625E5E60656C737A7F83860D
:102290008685848284889099A2ABAFB2AFA89E91C4
:1022A00084776A615B595A5F656D757C8285878723
:1022B000868483858A919CA5AEB3B4B1A99F91828F
:1022C00075675F59575A5D666D767E838788878705
:1022D000848583878E95A1A7B0B3B2AFA49A8C7D75
:1022E00071645D5756595E666E777E8487898989E9
:1022F000888788898F939DA4AAAFADABA3998E815F
:10230000766B635E5B5C60656C727A7F83868889BE
:102310008A8A8A8A8A90929BA0A5AAA8A7A1989047
:10232000847A7067625E5E60646A70767D82868998
:102330008A8B8B8A898887888C90989EA3A8A7A669
:10234000A19991857B726864606063656E73798022
:102350008389888B8A888885838380858A8E9A9CE6
:10236000A6A7A6A69E988E837A6F68645F6363694A
:102370006F757C8086898B8D8B8B88858481817F2E
:102380008789939BA0A8A8A9A59D968B7F776B674B
:10239000626164656C71777F82878A8A8B888784A3
:1023A00081817D7F7E828B8E9C9FA6ABA7A8A09803
:1023B00091837B716866606264676E747982848AD7
:1023C0008C8C8C898783817F7F7C807F878E92A095
:1023D000A0A8AAA5A59C938C7E776E6764616366AE
:1023E0006970767C84858B8A8B898685817F7E7CEB
:1023F0007F7D8181879091A09FA6A9A3A59C928DA6
:102400007D766F64665F64666A73777F85888C8C7F
:102410008A8A84837F7C7C7A7B7F7E85848D959578
:10242000A5A0A7A99FA1958C8878746C6468616742
:102430006A6E767D8188898B8C888982817E7C7AA0
:102440007C7B807F85858B9694A69FA6A89EA19471
:102450008B8677726C626760666C6E797E838C8A1D
:102460008E8E898A83807F7A7C7B7B7F808586893C
:102470008A95949EA39EA89D9C998A887D71726579
:102480006666636E6D777E808A898C8D888983818C
:102490007F7C7C7C7C80818688898B8C9793A29FB3
:1024A0009FA7979D94878876726F626A6268706E44
:1024B0007D7D848B878E8B878A80827E7A7E7A7FF1
:1024C000818188868989909697A69CA5A497A08DDE
:1024D000888671776A656B616E6D737E7C8887898B
:1024E0008D868A8381817B7E7B7D807F85858889BF
:1024F000899893A2A59EAD9B9F9A888E79757463E7
:102500006C6466716B7C7B7F8B838D89858A80830D
:10251000807B807B7F80818684888994989EA9A215
:10252000ABA49E9E8D8B7F7474666A6665706C79B1
:102530007C7F89848C89888A8386817F817D818064
:10254000818582878791979DA8A3AAA69F9F908B3C
:102550008276756A6969656F6F777E7E88868A8DF7
:10256000878C8685857F827E7E817E83828492941D
:10257000A1A8A7B0A8A6A1938F8179746A6B66679A
:102580006C6D767B8085888B8B8A89868582817F3E
:102590007D7E7D7F8080848F98A1ABACB1B0AAA5F1
:1025A0009990857A736B686665686D72797F8488A7
:1025B0008B8D8E8D8B89878582817F7D7D7D7F8BC5
:1025C00095A0ABAEB4B3AEA89C92867B726A6663EC
:1025D00063656870777E868A8F9090908C8A8783F7
:1025E000817E7D7B7B7B828F9AA8AFB4B7B4AFA48A
:1025F000998D80766C666260616469707880888C81
:10260000909292928F8C8884817E7C7A797E8A9750
:10261000A5AEB4B8B7B1A89D9084786D65605D5ED5
:1026200060656B747E868D91949593918D8985817B
:102630007E7B7A7C8793A0ACB2B8B8B3AA9F928510
:10264000796D65605D5D60656A717A828A8F939449
:102650009493908C8985817E808994A0AAB0B3B22E
:10266000ADA59B9084786E66615F6063676D7379DA
:1026700081878D90929391908D8A86838288929E95
:10268000A8AFB2B1ADA49A8F84796F6763616264B9
:10269000696E73787E84898E909191908F8C8A87F1
:1026A000858B959FA9AEB1AFAAA1968B81776E67F6
:1026B000646263666B6F74797D82878B8E90919074
:1026C0008F8C8A888C959FA8AEB2B0ACA4998D816E
:1026D000766C66626162656A6F74787C8083888BD1
:1026E0008E8F90908E8C8B9199A2AAAFB1AFA99F3B
:1026F00095897D7268625F5F62676C72777C8083A8
:1027000086898C8E8F908F8D8C9198A0A7ACAEAC63
:10271000A79E94897D7167605C5B5E636B737A8151
:10272000878A8B8D8D8D8D8C8B898C949CA4ABB07E
:10273000AFABA49A8E81756A625C5A5B5F666F78F4
:1027400080868B8D8D8D8D8B898887878D949CA5B8
:10275000ACAFADA8A095897D71665E5A595B616981
:10276000727B838A8D8E8E8D8B898785858C9298DE
:10277000A1A7ABAAA7A1978B7F7469625E5D5E6318
:102780006971788085898A8B8A89878785878F9305
:10279000979EA2A4A29F9B928880786E68666565CA
:1027A000686D72767C828486888989898989889116
:1027B0009391989A989794918C84807A7471706EA2
:1027C0006F707275787A7F8081848786888A89891C
:1027D00089968F8A95948C8A8B89837C817D767685
:1027E0007A7676767B7B797F828281888988878CEE
:1027F0008888838F8E7C8C8B7F828381807A7F8098
:102800007A7D7E7D7F7C82827D83848281878283C4
:102810008588857F89897B828B797F80827D77849B
:1028200081777F847C807E81807F8183817D8484A9
:10283000837D85867E8084887784867E7F84867E7D
:10284000847E887D8081827E7B847E7F79887E7B8A
:1028500080877A80887B82808482817E85817E7C6D
:10286000887D7A857E7F7D807E847C7A8A76808B67
:102870007A827F84817F7B8E7B778F7A7A83827E58
:10288000787F896B7E8675757C89797389886E7E81
:1028900090767A83877E74917C78857D7B83787D42
:1028A000827B7D7C887482867A788B7A7980878235
:1028B0006D9D767B8B7C7D8C757D9071827F8C6E1F
:1028C000848E6B8888757F877C7D7F837B77936D13
:1028D0007D96668C807B867387876E8B7C7D84710A
:1028E00093717F8D6F828777837A8A806E94797AED
:1028F0008F6F848D6D8583828073917C70907C78DE
:10290000857D867880877F798A77878271966B8EBE
:1029100075867E77877D7B8189728D768A758583C2
:102920007C7D867B7C877985768E777C89837191A7
:10293000777F89738F6F9075847C7F807C827E87A0
:10294000758D79827D827F847C7E817D80857A7B96
:102950008A7B738B83708D7987728C7E748D777A86
:10296000887E728E7B7D7D8C77799472788F7E6A7B
:1029700096806B88907370A36F7097816693896956
:10298000858D7F679B835F92925D8A916E7991813D
:102990006B92846A8B92608D8678788A876396853D
:1029A0006F848F6E85887A7D7D8B6C8E816F8C8035
:1029B0007983867784807F7D847E7D847B7F877A20
:1029C0007D8E73818781738D7C768583826E92790B
:1029D0007A888377808B71818A78798F78788C7EFA
:1029E0007A7F8C757C8B7B76907B748D7F778687E6
:1029F0006F87877578966E7E8C76837E85788B78E8
:102A000079906F878774837F837B827B89777F8DC3
:102A100069917C748E797B8784748688727C937AC2
:102A20006AA0756F93826B8A8E6C818E80669A85A0
:102A30005D94905E89926F76967E6C928270829998
:102A400061868C767A8A87639A8270888972848696
:102A50007B7D7E8A6E907E718D7E7A87817983817F
:102A60007C7A8D6E8B867187837883876E92797876
:102A70008A787F837B8577867F738D7B7E837D805D
:102A8000807F84748E7E758A7C7C8776848177884B
:102A900075897E77877E77877E7D817F8776848341
:102AA0007F81807D877C7B89788879838474878027
:102AB0007981827D897F8590818889868480877CE1
:102AC0007D817A7B7D7B7B7A7F7C7B847B7F84812D
:102AD000808184807F84827B8A8E8293978C8F957D
:102AE0008E828A85757D7B6F767672757A797A812A
:102AF000847F858C828689858285847E808593907B
:102B00009CA9A2A5A99F91918573726C606266656C
:102B1000677276758387828D8E878B8D87828D8491
:102B20007C8C847599A58BB2BE9EAAB8947F917453
:102B3000516B5F435D695968857A7E9C938A9D9845
:102B4000878F9381808E807B88857881A99395C5B6
:102B5000A99AB6A47A848551566C484D6E666281F6
:102B6000918195A99395A593868F8E777E887278AB
:102B7000807774797D959BA1BEB7B2BBAC918A7CFE
:102B80005B5655434B5A5B69858D90AAA89AA89DC0
:102B9000878A8673727F716F827A71828375779D5F
:102BA000A390CAC9A4C8C48F8C935A45633F2E5CB6
:102BB0005A55819A8BA2BF9E9CAF8A7D8A7769788D
:102BC0007D6D7F887D84877F7E748B9F8BB2C6AB43
:102BD000BBC9A08E956D4759482D4B605B729E997D
:102BE00098BBAF94A09874757E6865827976928D53
:102BF000838E8C757D757D9B8DAFC2AFC3BFA59352
:102C00008B6F4B584631585D5C839594A2B3A09569
:102C10009F85737A7065717E7B83998F8D97887895
:102C20007C71668D8A90BAB5B7C9BCA69C8B675774
:102C3000543642554F6D868B9CAAA59D9E8E7B7EF9
:102C40006E6974747C858F938E968A7D7D6F666ABB
:102C50008A8492C3AFB9D4B3A4A3846260533751BA
:102C6000575375838899A49C989B857C816A6E7C58
:102C7000727E8E8A909892888B7E70716D7F829121
:102C8000B0A5BBC6ACB2A28475675044554C54780D
:102C900074839F9698A0918284786777746F8587F4
:102CA0008795958C8F89787875627D877CA8A9A394
:102CB000C1B4A4AA947A786551615856776D7B9512
:102CC00088929A8A8886797179716F847D84978DCC
:102CD00093998B87857A6F827E7C9F959EB4A4A6FC
:102CE000A693857E6D5C655C5B706D7889868E933E
:102CF0008A8A867A797971787E79868B87928F8AAB
:102D00008C867E8286808E92929D9C9B9B958C86E3
:102D10007B746E6A6B69707577818385898784831C
:102D20007E797C78787E7D8187868A8C898A89897C
:102D30008C8E909395969694918E87827D76737102
:102D40006F7174757B7D7F838282837F7D7D787ACE
:102D50007B797E8081868787898A8D8E92929596EF
:102D60009495928E8C86817E787574727376767A5D
:102D70007D7E80818181807E7E7C7C7D7D7F818265
:102D8000858687888C8D909392959392918D8A8772
:102D9000827E7B787675747678787B7D7E80818084
:102DA000817F7E7E7B7B7C7B7D7F808385878D8E14
:102DB000939695989693918C88857F7C7976757497
:102DC0007577787A7C7E7F808081807F7F7E7D7D35
:102DD0007D7E80808384868C8D9395959895939144
:102DE0008B88837D7A777374737377777B7D7E812D
:102DF000828282817F7F7E7D7D7D7E7F8182888BC6
:102E00009097979B9B9898928C88817B7772707033
:102E10006F7174767A7D7F8283828381807F7D7DEE
:102E20007D7D7F80838A8D959A9BA19F9D9B948EAB
:102E3000877F79736E6C6B6A6D6F73787B8082832A
:102E40008584848381807F7E7F7F868D919CA1A3F2
:102E5000A9A6A3A0958D8378706964636365696E84
:102E600074797F83868989878885848382818A941F
:102E700096A5ADABB4B0A6A19385796D625A5A58A8
:102E80005A63676E797C8188898B8C8B8A88878767
:102E900085929FA1B3BDB9BEB9AC9F8D7D685A54D0
:102EA000464850525D6C757F888E9092928E8C8AC7
:102EB0008686868AA0ABB3C5C9C6C1B5A38A776426
:102EC0004D433E3E424E5F6B7B8B92999B9B9B9406
:102ED00092908A898A8695AEB6C2CFD2C8B9A98E99
:102EE000715A42332C2B36445870849AA6ADB1AB3C
:102EF000A79F958E8883828197B7C4D2D6D9CEAF4B
:102F00009577583E2620232C4054718D9FB1B9BA35
:102F1000B6A99F998F8985868383A8CCE0E1D6DA0C
:102F2000C8A2784F3D29171822425E718CA0B8C004
:102F3000B9B7AAA2998D89848281787CA2CEEAE76A
:102F4000D4CEC0A17142302824242C4C6C869BAA7C
:102F5000BFC9C8BBA89D9A94887C787C7884A9D581
:102F6000F2E4CBBAAC97683B242634363D537698CE
:102F7000A6ACAFB8BDAE9986878D8C827371789AF6
:102F8000C5E8F5E1C6AA967D583521273A4C5B6A1B
:102F9000829DB4BDB8B2ABA39688828388857B70CE
:102FA0007496C2E7EBD4B498897760443032435CBE
:102FB0006F79838FA3B1B3A9998F8B8E8E8B888104
:102FC0007C717693BFEAF0D6A782736C634A36327F
:102FD00046667F8C8A8E9AAAB4AC9A88838B949723
:102FE0008E81766F7083A5D0E9E4C2967A6E6D63A8
:102FF00051403F526E858D8D8D929DA19C8E85880E
:10300000939F9D8E7967637AA4D3ECE5C296796C21
:103010006A61524443536C848F9090939A9E9C9122
:1030200088878F9C9F97836E606787B6E0ECDAAFE6
:10303000876F6B6D685B4C49566D838F918F90964F
:103040009B9A948F90979D9B8F7C6A5E6582B0DB84
:10305000EDDEB4896C666C6E675850566B8394973E
:103060008F857E7F838A9199A1A5A29889776868C8
:103070007CA4CEE5DDBA90726A6E726B5C4E4E5FD8
:10308000788D9592888282868D949BA0A29E958849
:10309000796C667290BADCE5D1AA846D696D6D6554
:1030A0005851576A808F928C86858A939CA3A5A3DA
:1030B0009C93897F766B656C85ACD0E1D7B8947AA8
:1030C0007071726D645D5F6977828583807F838DA7
:1030D0009AA5AAA79D9187807A736B6A7897BBD5CA
:1030E000DAC8AA8E7D767574706B6766696F767BB9
:1030F0007D7E7E838D9BA7ACA89D9086807B756D21
:103100006E7D98B7CBCEC0AC97867C7774716D68B6
:1031100065656970777C7D7E848F9CA6A8A2988E59
:1031200086817D7872748299B3C3C7BFB09F918640
:103130007F7A756F665F5D616972797D80868F9831
:103140009FA19D97908A85827E7974768399AFBD81
:10315000C1BBAFA1958B847D7469605B5C626A7052
:10316000767D848D94999A98948F8B8886837F7AC4
:103170007578879BB0BBBEBAB2A89E93887D7165F7
:103180005D5A5C60666C7279838D959A9B9A969273
:103190008E8B8784807B76747D8EA1AFB6B8B5B0F8
:1031A000A69B8F82776B615B5A5C60656B737D88D1
:1031B0009196999896938E8B8784807D7977767C8B
:1031C0008A9BAAB3B7B7B3ABA093877C7166605CE8
:1031D0005D5F6369727D878E919392908C88848104
:1031E0007E7C7A7A79797F8C9CACB6BABBB6AEA27B
:1031F00096897D71655D58585B5F656D78838C93AA
:10320000989A9996918D8884807D7A787677819046
:10321000A1AEB4B7B5AFA6998D80756A615B5A5CF3
:103220005F646C76828B9297999996918B87827E58
:103230007B787777777C8897A6B0B5B7B5AFA49839
:103240008B7E72665E5A595B5E646E79848D93984C
:103250009997938E8984807C79777777787E8A991D
:10326000A6AFB4B6B4AEA3968A7E72675F5B5B5DB1
:103270006067717C868D929595938E88837E7B772F
:103280007676787A7D8692A0ACB3B7B7B3AB9E92D0
:1032900085786D635C595A5D6169737E888F9395FB
:1032A00095928D88837E7A777576777A7D86929FE0
:1032B000A9B0B4B4B0A89D91857A6F66605D5D5F7A
:1032C000636B757F878D9193918E88837E797674F9
:1032D0007475787C8086919CA6ACB0B1AFA89F94A1
:1032E0008A7F756C65626162656B737C83898E9081
:1032F000908E8A86827D7A77757577797C828B94B9
:103300009EA5A9ABAAA59D948B8178706A67656616
:10331000686D737B81878B8D8D8A87837E7A7775C5
:103320007475777A7D81878E959B9FA1A2A09B95CE
:103330008F88817A75716F6E6E7074797E828588E0
:103340008988878582807D7B7979797A7B7E818681
:103350008A8F9396989796938F8A85807C787674D7
:10336000747476797C7F82848585858482817F7D73
:103370007C7B7B7B7C7D7F8285888B8D8F908F8E05
:103380008C898683807D7B7A7979797B7C7E80814C
:103390008282838281807F7F7E7D7D7D7E7E7F8035
:1033A00082858688898A8A8A8887858381807E7DCE
:1033B0007C7C7C7C7D7E7F8081818181818180801D
:1033C0007F7F7F7F7F7F7F808081838485868787E3
:1033D000868584838281807F7E7E7E7E7E7F7F80E5
:1033E000808081818180808080807F7F7F7F7F80DF
:1033F0008080807F80807F7F7F7F7E7D7D7D7D7DE3
:103400007D7D7E7E7F8080818181818281818181BD
:1034100080808080808080807F7F7F7E7E7F7F7FB6
:103420007F808181828282828282828181807F7E8E
