:020000041000EA
:1000000048360020590800106108001063080010ED
:1000100000000000000000000000000000000000E0
:100020000000000000000000000000006508001053
:1000300000000000000000006708001069080010C0
:10004000000000006B0800106B0800106B08001027
:100050006B0800106B080010A5020010ED040010E2
:100060006B0800106B0800106B0800106B08001084
:10007000AF0700106B0800106B0800106B08001031
:100080006B0800106B0800106B0800106B08001064
:100090006B0800106B0800106B0800106B08001054
:1000A0000000000000000000000000000000000050
:1000B0000000000000000000000000000000000040
:1000C0000348854603F082FC00480047D500001035
:1000D00048360020002472B601F01AFC002002F01D
:1000E00039F800F0A0FF00211D20000500F04CFAB7
:1000F0000021334800F048FA1D210905084600F0A8
:10010000C0FA1D210905002000F057FA1D20000546
:1001100000F01BFB2A4800F09BFA294800F02EFB58
:1001200000F072F8012000F0A4FF26A228A12BA065
:1001300000F06EF862B641E0304800783049097846
:1001400088423BD000262E4805782C4800782C4960
:10015000097888421EDD29480078C821081AC6B2ED
:10016000002408E0254909780919264A505C00F066
:1001700077F9601CC4B2B442F4DB002405E02149E5
:10018000085D00F06DF9601CC4B2AC42F7DB1B489F
:10019000057012E019480078281AC6B2002408E059
:1001A000164909780919174A505C00F059F9601C82
:1001B000C4B2B442F4DB1148057000BFBCE70000D4
:1001C0002300200031393A34353A3038000000003D
:1001D0004170722032362032303233005359443865
:1001E0003831312055415254312074657374206484
:1001F000656D6F2025733A25730D0A0008300020C5
:10020000093000201831002010B500F080F810BD32
:100210000FB438B5002500240498002803D138BC59
:1002200008BC04B0184705A800900B48009A049930
:1002300003F0DEFBC5B200200090802D00DD80259C
:10024000002405E00449085D00F00AF9601CC4B20E
:10025000AC42F7DB00BFE2E79830002018B5024659
:1002600000200023009314E0C14B1B681B790B5442
:10027000431CD8B26B461B785B1CDCB200946B4607
:100280001B785B1CDCB200946B461B785B1CDCB2F9
:100290000094B74B1B68DB78DB07DB0F002BE3D048
:1002A000107018BD0CB5B24800680078C006C00FC9
:1002B00000280CD0AE480068007810218843AC4973
:1002C00009680870694601A8FFF7C8FF00BFA84881
:1002D000006800788006C00F002807D0A448006896
:1002E000007820218843A24909680870A048006866
:1002F00080788007C00F002808D09D48006880786B
:1003000002218843801C9A49096888700CBD10B589
:1003100098480068407980098001401D9549096826
:10032000487194480068807980098001801D914956
:10033000096888718F480068203000782021884340
:100340008C490968203108708A480068203000789C
:100350004021884387490968203108708648006831
:1003600080784008400084490968887082480068A5
:1003700000780009000108307F49096808707E484C
:1003800000680078802188437B49096808707A48B2
:1003900000680078402188437749096808707648EA
:1003A0000068C07810218843103073490968C8700C
:1003B00071480068807804218843001D6E490968EF
:1003C00088706D4800688078202188436A490968F0
:1003D00088706948006880781021884366490968F8
:1003E0008870654800688078802188436249096880
:1003F0008870614800688078402188435E490968B8
:1004000088705D4800680078102188435A4909685F
:1004100008705948006800782021884356490968C7
:10042000087055480068807802218843801C524932
:100430000968887050480068C078202188432030BF
:100440004D490968C870072000F085F84A480068DF
:10045000807808218843083047490968887010BDB2
:1004600045490968487000BF434909680978890609
:10047000C90F0029F8D04049096809782022914322
:100480003D4A12681170704738B50B4600210022B2
:10049000009222E0384A12681279384C384D2D7893
:1004A0006255374A1278521C354C22702246127817
:1004B000C82A01DB002222704A1CD1B26A46127897
:1004C000521CD4B200946A461278521CD4B20094E2
:1004D0006A461278521CD4B20094274A1268D27825
:1004E000D207D20F002AD5D0017038BD0CB52248F2
:1004F00000680078C006C00F00280CD01E480068B5
:100500000078102188431C4909680870694601A8D1
:10051000FFF7BAFF00BF1848006800788006C00FD8
:10052000002807D014480068007820218843124929
:10053000096808701048006880788007C00F00289C
:1005400008D00D480068807802218843801C0A4941
:10055000096888700CBD002809DB00BF00BFC20617
:10056000D20E01219140074A116000BF00BF7047C1
:10057000003000200C300020043000201831002012
:100580000930002000E100E010B50246002010E034
:10059000012383401340002B0AD0A64B1B6819543B
:1005A0000123834014469C432246002A00D102E0E6
:1005B000401C2028ECD300BF10BDFCB503469E4C68
:1005C000221D019200220092002B02D19B4A009230
:1005D00003E0012B01D19A4A0092009A002A36D0FA
:1005E000002013E0012282400D461540002D0CD062
:1005F0002568009E375C0126BE40354325600D46C8
:1006000095432946002900D102E0401C1828E9D36F
:1006100000BF182017E0012585402A460D461540E9
:10062000002D0FD0019D2D780646183E0127B740BA
:100630003D43EEB2019D2E700D469543294600299B
:1006400000D102E0401C2028E5D300BF00BFFCBD64
:100650007C4909680A461378194653781B021943E6
:1006600093781B041943D278120611438143754ACB
:10067000126811700B0A53700B0C9370090ED17035
:10068000704710B56F4A126813461C7822465C7892
:10069000240222439C7824042243DB781B061A435D
:1006A0000243684B1B681A70140A5C70140C9C702F
:1006B000120EDA70644A126813461C7822465C787F
:1006C000240222439C7824042243DB781B061A432D
:1006D00002435D4B1B681A70140A5C70140C9C700A
:1006E000120EDA70584A12680823D3181C78224672
:1006F0005C78240222439C7824042243DB781B0686
:100700001A438243504B1B681A72140A5C72140C11
:100710009C72120EDA724C4A12680823D3181C78A5
:1007200022465C78240222439C7824042243DB780E
:100730001B061A430A43444B1B681A72140A5C7264
:10074000140C9C72120EDA7210BD3F4909680A46F9
:100750001378194653781B02194393781B041943E5
:10076000D278120611430143374A126811700B0AFE
:1007700053700B0C9370090ED170704733490968A0
:100780000A461378194653781B02194393781B04C1
:100790001943D2781206114301432C4A1268117092
:1007A0000B0A53700B0C9370090ED170704710B583
:1007B00027480068182141180A7810464A78120222
:1007C00010438A7812041043C97809060843204967
:1007D000096810228A181378194653781B021943A6
:1007E00093781B041943D2781206114388430028DA
:1007F0001ED018480068002802D0164800688047BC
:1008000013480068182141180A7810464A781202E5
:1008100010438A7812041043C978090608430C492A
:1008200009680870020A4A70020C8A70000EC870CB
:1008300010BD00000C30002080100050243000203B
:100840003C300020103000201830002014300020F0
:100850001C30002020300020044880470448004716
:10086000FEE7FEE7FEE7FEE7FEE7FEE7750800109D
:10087000C100001001480249086070470024F400DC
:1008800054300020F1B5FE4880470746FD488047B8
:100890000646FB4C0120183CA047FA4D00200C35C1
:1008A000A847F949009888473046A8473846A047E6
:1008B000F8BDF0B5F54DF648E96885B0081804466E
:1008C00002F0F1FC2146401C02F0F7FC0024EF4846
:1008D0000125C668EE480C3831180391487C097C24
:1008E00000020843A540284202903BD00B20604301
:1008F0008119E748009109300818019002F0D3FCF3
:100900000746E348301802F0CEFC87422AD10F2177
:10091000009889014018007D00280CD0DC4A00991D
:100920000D3A8A18517D127D0902114378180199F8
:1009300002F0C3FC05E002980399A8430874000A7A
:100940004874D34800990D30081802F0ACFC002818
:1009500008D0022D19D0042D17D0082D15D0102D38
:100960001AD08047641CE4B20A2CB0D3C748C168CF
:10097000C7480C380918487C097C000208438005E8
:1009800001D1C448804705B0F0BDC3490120884764
:100990000028E7D0222005E0BF4901208847002831
:1009A000E0D03B20FFF76EFFDCE710B5B74912201F
:1009B0000969887072B60121B64A0320B43A90479B
:1009C00062B610BD10B50C4601788CB00A07120F44
:1009D00069460A700178CA0969464A70811C00A8F4
:1009E0000622023002F02EFC08A90C7201212922F5
:1009F0000905AA4C6B460020A0470CB010BDF0B50D
:100A000085B0002069460871A24F0870A44E087294
:100A1000A44DB43F9D4CB047E07102AB6A4601A9BA
:100A2000606902F0E6FA0028ADD00820A847002847
:100A300003D00220A847002810D06846007801287B
:100A400012D060690390E068407A01285AD00228E9
:100A5000E1D1954AE17903989047DCE701216846A6
:100A60000170007A00281CD0606903902521E0689D
:100A700049014118497B002908D08549D4314118E2
:100A8000487B097B0002084388498847039802F0A5
:100A9000F5FA0028BFD003980078C043800704D03F
:100AA00009E03D20FFF7EEFE6DE7039880781228FD
:100AB00007D014280BD068467B4A017996326069CA
:100AC000CAE721691320887072B6012116E02369F4
:100AD000152098701B20D870002018717D22D91C19
:100AE0005201581C5A71130A43711B230B710023C6
:100AF0004B710272110A417272B609210320B84784
:100B000062B688E7039800780007000F052806D032
:100B1000032880D1E1790398FFF754FF7BE703981E
:100B2000417E027E08021043062806D30398417FC7
:100B3000027F080210430A2803D253491220884733
:100B400069E757490398EE31801C8847039887224C
:100B500000784006C10FE0681154039906228830DE
:100B6000891C02F06FFB3721206902F084FB52E7F9
:100B7000F0B5494999B00420884700280ED046496D
:100B800004201A31884743491F20AC318847484820
:100B900080471620FFF776FE19B0F0BD4548804724
:100BA000002810D0394DEC68A1790807F4D5E07918
:100BB000C2071CD04049204698308847E868C17970
:100BC000490849001FE03B4E394F394DB2361C37BA
:100BD0006C46103507E06846B0470128DCD168460E
:100BE0000178601CB847A8470028F4D0D4E78207F2
:100BF0000BD5314A20461C328E30811C9047E86864
:100C0000FD22C17923E0C171C6E7420708D52A4910
:100C100020466031A8308847E868FB22C17916E099
:100C20000207F726002A09DA234A21464232A07A2F
:100C30000B319047E868C1793140E4E7C00608D538
:100C40001D4968467C318847E868EF22C179114028
:100C5000D9E720463140FF30A1712130017D0026C7
:100C6000002930D006752146072287310CA802F0F2
:100C7000E9FA21462A228E310DA803301EE0000039
:100C8000BF650000776A0000CF16000058300020D2
:100C9000CE03000001120000F50A0000A13E000092
:100CA00049570000791900008B1E00002B620000DC
:100CB000BD600000054E00002726000002F0C2FAC9
:100CC000F9490CA8884701206946087048708E7061
:100CD000E96800A82A2203308E3102F0B3FA2D22EF
:100CE0000821F24C6B460020A04755E7F049012847
:100CF000896A0FD0022811D0042812D0082813D0F6
:100D0000102814D0202815D0402816D0802818D0BC
:100D1000012070478878C007C00F70478878800727
:100D20000DE0887840070AE08878000707E08878B7
:100D3000C00604E08878800601E088784006C00F8D
:100D400070478878C009704710B5017801291FD114
:100D5000401C02F0A8FAD64A10283AD00DDC01282F
:100D600017D002281DD0042823D0082810D1FFF75F
:100D7000BDFF00280CD1CF4809E0202839D04028F9
:100D800006D1FFF7B3FF002802D1CA48543080478C
:100D900010BD0120FFF7AAFF0028F9D1FFF7E8FEF8
:100DA00010BD0220FFF7A2FF0028F9D1FFF727FEB0
:100DB00010BD0420FFF79AFF0028F9D1D068407ACF
:100DC000012803D00228F3D1BB48E0E7BA48AE3887
:100DD000DDE71020FFF78AFF0028E9D1906A203074
:100DE000407D400701D53E2000E00820FFF74AFD86
:100DF00010BD2020FFF77AFF0028F9D1AD48483018
:100E0000C5E770B510250826A94C002821D0A06A96
:100E1000817E31438176014660310A7E63785209D2
:100E20005201DB06DB0E1A430A762030427B067B3A
:100E30001302E26833432332547C167C220232438D
:100E4000934214D00273120A4273C87D2843C875B6
:100E50000DE002F0BBF8A06A0022014620310A73BF
:100E60004A736030C17D2943C175944806770120DB
:100E700070BD8F48C0682330417C027C080210435B
:100E80000BD08F4948780A780002104303221043A0
:100E90000870000A48700120B3E7704730B4894CED
:100EA000A44630BC6047F8B58548407A000663D553
:100EB0007F48C66830462330417C007C0F02804961
:100EC00007434878097804020C43002F01D16007DA
:100ED00052D57B4DA87B697B00026D1C08434BD02B
:100EE000002F49D068792979000208432ED1213694
:100EF000707C317C0002084302F0F0FB0022724B50
:100F000002F0F0FA02F0F8FB80B27843642102F0BC
:100F100085F94004010C2971080A68710A204143CF
:100F2000707D327D00021043814206D30A21401EAB
:100F300002F074F92871000A687168792979000251
:100F4000084303D101202871002068715C48A10783
:100F500009D502218C4301210C430470210A417000
:100F60000020FFF74EFF68792A7901021143574BA1
:100F700000224020FFF792FFF8BD1CB550494A7A85
:100F8000002A40D04A780B7812021A43D3063AD48A
:100F90004378047818022043012834D1C878401ED1
:100FA0000006000EC8702FD08B780846017BC47AEB
:100FB0000A022243017AC47909022143C01C012B91
:100FC0002AD0521A0272120A42721206037A120CC4
:100FD0001A43521A69460A80427A017A120612149A
:100FE0000A4369464A8036498A7B497B12020A4392
:100FF00069468A80417B027B080210436946C880AB
:101000003349684688471CBD887AC870402002432F
:101010000A70100A48701CBD5218D3E72D4A1047B9
:101020002C4A2032104738B5002469460C702146FE
:101030007F20FFF7F5FF00213B20FFF7F1FF29217B
:101040003B20FFF7EDFF69463B20FFF7E7FF6846CF
:101050000078800701D5012038BD641CA4B2FF2CA4
:10106000F1D9002038BD104810B5D838804701208C
:1010700010BD10B50E49184A8870002807D1C868FD
:101080008078022803D000209047012010BD012065
:10109000FAE710B5064C0128E16888701ED00028D8
:1010A0004ED0022863D076E0DF470000A13E00006A
:1010B000583000207916000027150000200002405B
:1010C00037320020AB4400000000F43F730E0010E4
:1010D00033420000C5610000A7650000206B014697
:1010E00020310A78520852000A700A78FD231A400B
:1010F0000A700178890989011C31017041788909D8
:1011000089011C31417000217F20FFF789FF0321F5
:101110002120FFF785FF1F210320FFF781FFFD49F5
:101120003220884702217F20FFF77AFF012100202B
:10113000FFF776FF00217F20FFF772FF0F2127E0E6
:1011400000217F20FFF76CFF00210420FFF768FFDC
:1011500002217F20FFF764FF00210846FFF760FFB0
:1011600000217F20FFF75CFF0021032011E0022116
:101170007F20FFF755FF03210020FFF751FF0021DB
:101180007F20FFF74DFF00210320FFF749FF0021DB
:101190000420FFF745FFA078FFF76BFF012010BD8B
:1011A00010B5FFF776FF012010BD10B5DA48804773
:1011B000DA48C06A017ADF2211400172012010BDB5
:1011C000FEB5D64C01202071D54880470190E06AD9
:1011D000817A007ACF07FF0F0026C506D149ED0EB0
:1011E0004878097800020843800608D5A06A2030B4
:1011F000417B027B0802104301D0FFF754FEA80791
:1012000002D00126FFF7D1FFC448C06A817A49089D
:1012100049008172C2490120183988470220FFF72E
:1012200038FFBC4964201A398847002469460C708D
:10123000254601217F20FFF7F3FE00210A20FFF75A
:10124000EFFE22210A20FFF7EBFE69460A20FFF796
:10125000E5FE684600784007EFD469460A20FFF7AC
:10126000DDFE68460078400705D56846007800072F
:1012700006D4012504E0641CAB48A4B28442ECD33C
:10128000A44964201A3988470020FFF702FFA449C7
:10129000019818398847A14CE06A817A49084900C9
:1012A00039438172002E02D09B480C3880470020C1
:1012B0002071002D01D00120FEBD0020FEBD10B523
:1012C0001121984801F0D7FF10BD70B50446401CAD
:1012D00001F0E9FF022818D0042819D0012149049F
:1012E00088424AD125462035687B09230107020937
:1012F000090F0020072A1FD0032A23D0022A28D052
:10130000012A2CD0002A30D035E0FFF7D8FF3DE08D
:10131000824D0121E868FF302130017501F0F9FEAE
:10132000E8688078002804D12879002801D1FFF7E7
:1013300047FFFFF778FE29E0581A0621484341216C
:10134000C94304E0581A062148433521C943081A05
:1013500010E0581A062148432321C943F7E7581AD9
:10136000062148431721C943F1E7581A062148438B
:10137000801D404240B2687308E040281DD0012122
:10138000C903884202D1601DFFF7F7FD654948781F
:10139000097800020843800607D5601C01F083FF2E
:1013A0000005000F01D0FFF77EFD5C483C3001F0E6
:1013B0007AFF01462046884770BD5848383001F012
:1013C00072FF4006E2D570BDF0B5544C0646E068A9
:1013D0008DB0FF302130407C0D46002829D0002DF3
:1013E00026D072B6A068183001F05DFFE1683222A5
:1013F000FF312131897C4D4B514340186A463221DF
:10140000984762B6002E04D0E068FF302130807C1F
:101410003070E7680A21FF372137B87C401C01F0A3
:10142000E7FEB974E078401CC0B2E0700A2802D927
:1014300000200DB0F0BD684600780128D1D100A988
:1014400007222846013101F0FDFE2A22E81D02A9EB
:1014500001F0F8FE0120ECE7F0B5054634498DB007
:10146000202088472D4C0426E16820690F468670AD
:101470000822C01CC931BD3701F0E4FE20690422F6
:1014800039460B3001F0DEFE0D212A4A0320904739
:10149000E068294608220A31C13001F0D3FEE06835
:1014A000294604221231B93001F0CCFE287A224FAD
:1014B000002802D1687A00281FD00020E070E06880
:1014C0002A7A01468030837B9A420AD16A7AC07BAD
:1014D000824206D108222846903101F0D7FE00282A
:1014E0002ED069460020FFF76FFF01283CD006226E
:1014F0000021124B012098479BE7E0680222817986
:10150000114302468171C132FF3011461030B84795
:1015100027E000004562000013470000583000201B
:10152000BF65000037320020FFFF00005953000064
:10153000050B00004D11000019220000D919000010
:10154000E0688179024631438171C1321146983099
:10155000B847E06880308079012802D1FE49022036
:101560008847FE48804764E7E06801A92A228E3058
:10157000033101F067FEA2E77CB5451C807829782D
:1015800000020843F64C022810D00F2810D0012189
:101590001D2810D0FF3810280DD0F24A69460120CE
:1015A0009047687829780002084302E0032000E0B1
:1015B0000220A0717CBDA1717CBDE9488079704793
:1015C000E94908471CB5E94808210170002141702C
:1015D000017BC27A0902C01C114341D042790379D0
:1015E00012021A43891A0BB26A461380417A027AB0
:1015F0000906091411436A46518019220624D201B2
:10160000062B02DA6B461C8003E0934201DD6B4639
:101610001A80062902DA69464C8003E0914201DD16
:1016200069464A80417B027B080210436946C880B4
:10163000CE48817B427B0802104369468880C848B7
:10164000C0682330417C027C0802104302D0002095
:10165000FFF7D7FBC64968468847C34940208847FB
:101660001CBDC24948780A7800021043C2050CD557
:10167000FF22013290430870000A48700879401E2A
:101680000006000E087109D09CE7202210431022AA
:101690009043042210430870000A48707047FEB55A
:1016A000B24D0446687829780002084300077DD5CA
:1016B000B048804769782A7809021143082291438B
:1016C00029700A0A6A706B7A064628461A066ED591
:1016D000A27967791202651C3A43A14FE41C002AE3
:1016E00077D01022114301700A0A427088065ED436
:1016F000687929790002084332D001F0EFFF0191A7
:101700000090607821780002084301F0E7FF9A4CCE
:101710000022234601F0E6FE019B009A01F0E2FE62
:1017200001910090F8682130417C027C080210434E
:1017300001F0D4FF0022234601F0D4FE07460C46F8
:10174000687A297A00020843801B01F0B3FF3A4609
:10175000234601F0C7FE019B009A01F011FE24E030
:10176000607821780002084301F09CFF0446F86885
:101770002130417C027C0802104301F093FF214696
:1017800001F0A4FD01F0D6FF00227B4B01F0AAFE80
:1017900007460C46687A297A00020843801B01F04C
:1017A00089FF3A46234601F09DFE02E06EE064E0C8
:1017B0000FE00022714B01F0FDFE01F09DFF0104DE
:1017C000090C00D101216E4B00228020FFF766FB3F
:1017D00053E09A0651D58278012A4ED18A064CD41C
:1017E000FF226248013211430170090A417060789A
:1017F0002178000208435D490A7BCB7A1102194324
:1018000088423AD901F04EFF0446F8682130417C05
:10181000027C0802104301F045FF214601F056FD0D
:1018200001F088FF0022544B01F05CFE07460C4695
:10183000687A297A00020843801B01F03BFF3A4690
:10184000234601F04FFE00224C4B01F0B3FE01F0A5
:1018500053FF0104090C00D10121494B00228020D3
:10186000FFF71CFB41484178027809021143FF222F
:10187000013211430170090A417003206946088151
:10188000022291033F4C02AB0020A047FEBD10B5E1
:101890000446007800280DD1A17862780802104330
:1018A00009D001281ED0032827D00C2802D1201DE2
:1018B000FFF762FE10BD01F089FB3349201D884708
:1018C000002802D12820FEF7DDFF201DFFF7E7FEEC
:1018D00023480121C368062209040020294C313322
:1018E000A04710BD01F072FB2849201D8847002841
:1018F000F7D12820FEF7C6FF10BD201DFFF7ACFD75
:1019000010BD10B50078012801D1FEF7D2FF10BD3F
:10191000F0B51F4885B0804701217F20FFF780FB8D
:1019200069465020FFF77AFB68460078042801D00A
:1019300018488047FFF777FB094CE068807801285A
:1019400066D002287ED0FFF73BFC01256846458023
:1019500005801148019021E0050B0000791A000074
:10196000583000201F1D0000B34400003732002013
:1019700033420000BF5500000000F43F0000594012
:1019800063160010A13E00005D5B0000475F000091
:10199000793D0000F746000003190010FE49684633
:1019A000884768460570457000254580FB480190D2
:1019B000FB4BE06808226946C01801F043FC012196
:1019C000F84E4020B04701218020B047012120205F
:1019D000B047FF210C31684601800B214180858092
:1019E000C580058145818581C581EF48EA4904901C
:1019F0006846A2398847A0680A3001F054FCEC4BD5
:101A0000EA4A5721984701F084FB012005B0F0BD58
:101A1000E84880470090E06A067A817ACD07817AAB
:101A2000ED0F490849008172E24F0120183FB84785
:101A3000B00701D0FFF7B9FB0220FFF72AFB6420B3
:101A4000DD4900E00CE088470120FFF722FB009809
:101A5000B847E06A817A490849002943817274E7EE
:101A60000220FFF716FB70E710B5D448804701202D
:101A700010BDD24910B51E318847012010BDCF4995
:101A800010B554318847012010BDCC4910B56031E4
:101A90008847012010BDC94910B56E318847012023
:101AA00010BDC64910B57E318847012010BD10B564
:101AB000C24CE634A047012010BDF8B5C04CC14966
:101AC000E0683730884720693B230178BF250A0941
:101AD000E16812015B5C1B071B0F1A4302701207BF
:101AE000120F012A79D00B4640335A781B78120224
:101AF0001A430B4642331A70120A5A7002788B7AD4
:101B00002A409B011A435206520E027066235B5C08
:101B100042789B1D92099B0692019B0E1A434270CC
:101B20000622801C0B3101F08DFBE1686620425CCF
:101B3000002A04D020696731083001F083FBE06897
:101B400000212030417720699F4A41788906890E1B
:101B5000891C9047206901780A091201121D027040
:101B6000E1682A408B7ADB075B0E1A43027046233A
:101B70005B5C42789B1D92099B0692019B0E1A4367
:101B800042700622801C0B3101F05CFBE1684620AC
:101B9000425C002A04D020694731083001F052FB32
:101BA0002069894A41782C328906890E891C904720
:101BB000E068012705462035E97E01293BD0002950
:101BC0004CD002294AD0062948D000237F4C1A461F
:101BD00001211846A047F8BDFFE70A4640321379B5
:101BE00053718B7A0278DB072A405B0E1A4302702E
:101BF00087235B5C5206520EDB011A430270427867
:101C00000B31920992010C3242700622801C01F0C5
:101C100019FB2069E16806220830883101F012FBC7
:101C2000E16803223D204254664A8720405C323AF4
:101C30008831904787E74030417900290AD0282031
:101C40000621A26A937EFD242340937617756B7F4D
:101C50002A7F46E0477101200146F2E706464236F8
:101C6000717832780B02134318D0192189014B4344
:101C70002230417F047F0802204301228004800C2F
:101C8000009007D00146184601F0B2FA020012D0C7
:101C90007F2A12D8D4B23770380A16E03770390A62
:101CA00071702230417F027F0802104301248004BA
:101CB000800C00900AE00122ECE77F2410462146C8
:101CC0007E3001F095FA3070000A70703C48806AEE
:101CD000817E02221143817607756B7F2A7F0099EE
:101CE0002046304CFE34A0473948804773E710B592
:101CF000FFF7E3FE012010BD10B536490320087040
:101D00002D4964201A31884733488047012010BD8F
:101D100072B600212A4A906A4175037C01210B4367
:101D20000374D06845221154423001700021417083
:101D300062B60120704710B528498847012010BDC0
:101D4000F0B51F4CA56A2C4660342678FD27C007E5
:101D50003E40800F06432670A170627062352B7181
:101D6000180A687105982071000A6071F0BDF8B515
:101D7000134D1449E868373088471120EF68002474
:101D800080013D186E79A8790321401C01F030FADA
:101D90000120A971884023E02F440000490D001064
:101DA000CE020000615500008F180010E0310020C5
:101DB00059530000BF6500002B620000833D000006
:101DC00058300020B1570000D9600000A13E00004B
:101DD0009D5600000000024007470000014100003E
:101DE000064203D1641CE4B2032CCCD31125AD010F
:101DF0007C19607B217B00020843A91C7F18010A23
:101E0000F14E3873797300280BD0607A227A010280
:101E100019201143800101F0EBF90206120E04D0E3
:101E200004E001203873002078730122787A397A2F
:101E3000000208430090607A217A03020B43A079E4
:101E4000E249095CE079FFF77BFFF0680021401967
:101E50000171C170017441748178002901D0082991
:101E600001D908218170DA488047B4E610B5FFF740
:101E70007EFF012010BD10B5D6488047012010BD5F
:101E8000D44910B508318847012010BDD14910B59B
:101E900016318847012010BDCE4910B578318847EA
:101EA000012010BDC849487001207047C94910B5CC
:101EB00086318847012010BDC64A10B58E32904742
:101EC000012010BD7CB5054601F0EDF9BE49044680
:101ED000383101F0F2F9281D01F0E5F9BA493C3139
:101EE00001F0EBF940208443BB48BA4901900094CB
:101EF00068469631884701207CBD10B5B7498847B0
:101F0000012010BDB54A10B508329047012010BD20
:101F100010B5B3488047022801D9002010BD012028
:101F200010BDF8B50E46AF4907464878097800025B
:101F300008431C461546800609D5A348806A203010
:101F4000417B027B0802104301D0FEF7ACFFA6499B
:101F50000120884700280CD0A1488047022809D9D1
:101F600072B623469D4C2A46314638461834A0475F
:101F700062B630E600202EE69C49084710B50446BC
:101F8000994901208847002803D098492046083104
:101F9000884710BD70B50546934A0C46012090470E
:101FA000002804D0914A214628462232904770BD2D
:101FB000FFB50F4681B08C491D46164601200A9C8C
:101FC0008847002807D00094884C2B463246394673
:101FD00044340198A04719E5F8B50E4607468249F2
:101FE0001C46154601208847002806D023467F4C12
:101FF0002A46314638467C34A047ECE510B5044605
:10200000794901208847002803D078492046AC311F
:10201000884710BD70B50546734A0C4601209047AD
:10202000002804D0714A21462846C632904770BD28
:1020300070B505466C4A0C4601209047002804D034
:102040006A4A21462846E832904770BDF8B50E46E8
:10205000074665491C46154601208847002805D0DB
:102060002346634C2A4631463846A047B3E570B54F
:102070000D4606465C49144601208847002805D0D5
:102080005B4B2246294630463033984770BD70B5C9
:102090000D4606465449144601208847002805D0BD
:1020A000534B2246294630465C33984770BDF8B5FD
:1020B0000E4607464C491C46154601208847002815
:1020C00006D023464A4C2A46314638468834A04733
:1020D00081E510B50446444901208847002803D013
:1020E00043492046B831884710BD10B53E4901200C
:1020F0008847002802D03E48CC30804710BD70B5DC
:10210000314D0446082804D0E868407808280DD0EE
:1021100014E000217F20FEF783FF01214020FEF71D
:102120007FFFE86A0178C908C9000EE000217F201E
:10213000FEF776FF00214020FEF772FFE86A017883
:102140006207C908C900520F11430170E868447062
:10215000012070BDD3E710B50446264880472070A3
:10216000012010BD10B504462248801D8047207014
:10217000012010BD1F4910B51C318847012010BD3A
:102180001C4810B572308047012010BD1A48004726
:102190001A49084719491A31084708B518496846C5
:1021A00088476846C0788007C00F08BD08B5144945
:1021B000684688476846C078C00900D0012008BD3D
:1021C00010B5FEF72BFF10BD58300020184300104B
:1021D000255700001D420000CB1200102D430000C7
:1021E0002B4E000037320020F50A0000B73A0000FD
:1021F000BB3B00009F440000FB5F00002B6200001F
:102200004D65000010B5FEF70BFF10BDFE48806A5B
:10221000C07B052805D0062803D00F2801D0002058
:1022200070470120704710B5FFF7F0FF002801D17B
:10223000F6488047012010BD10B5F3490122886A95
:102240004275437CDB09DB019B1C4374931E837442
:102250001B0AC374C96ACB7AEF242340CB724B7B31
:1022600093434B738B7A13438B72817E0223194302
:102270008176017C11430174E54905208847E548D2
:102280008047012010BDE34810B51230804701207F
:1022900010BD10B5E0498847012010BDDE4910B5DA
:1022A00018318847012010BDDA4910B558318847E8
:1022B000012010BDD749AC310847D64910B5FA31D5
:1022C0008847012010BD10B5D4488047012010BDBB
:1022D000D24810B518308047012010BDCF4BA23333
:1022E0001847CE4BD8331847F8B50746C6480026DE
:1022F00080680D463446283000F0D5FF2903C919FF
:102300004118C148406B814211D9002063E472B684
:10231000BD488068283000F0C6FF2103C919401865
:10232000BF4A01219047064662B6641CE4B2AC4243
:10233000EDD330464FE4F8B5B34D0446A8681746D0
:102340000E46283000F0AFFF0146A21980186A6BD4
:1023500090420AD8002908D072B60819B04B3A4604
:102360003146EA3B984762B635E4002033E4F8B5DD
:10237000A54D0446A86817460E46283000F093FF86
:102380000146A21980186A6B90420AD8002908D029
:1023900072B60819A24B3A463146823B984762B65C
:1023A00019E4002017E470B59E48002400789C4E84
:1023B000954D00280DD001281ED024E072B61430AF
:1023C00000F071FF210340180121B04762B6641C80
:1023D000E4B2A868C17B827B09021143A142EDD817
:1023E00011E072B6103000F05EFF210340180121A9
:1023F000B04762B6641CE4B2A868C17B827B090264
:102400001143A142EDD8012070BD70B504460D46C0
:10241000000B42197C488068C17B837B0902194309
:102420008A4201D9002070BD7E497D4E097800297D
:1024300002D0012903D00AE072B6143001E072B66E
:10244000103000F030FF00192946B04762B6012075
:1024500070BDF8B5044673480F4601786A48704D60
:102460008068823D1646002902D0012903D00BE086
:1024700072B6143001E072B6103000F014FF00198B
:1024800032463946A84762B601202FE430B45E4B8D
:102490009C68E37BA47B1B0223431B03834202D281
:1024A00030BC0020704730BCD3E730B45E4CA4464B
:1024B00030BC6047F3B5544889B0806800242830A8
:1024C00000F0F1FE074609984609002511E072B6B2
:1024D0006801534BC01920216A46EA3B984762B60F
:1024E000002069460A5C401C121994B22028F9D3D6
:1024F0006D1CB542EBD30998C606F60E72B631468E
:102500006801474BC0196A46EA3B984762B600200B
:10251000694603E00A5C121994B2401CB042F9D338
:102520000A98844202D101200BB0F0BD0020FBE7E5
:10253000F8B538488A3880473A4C5734607A0028D2
:1025400040D00006042500280FDA607821780002C8
:102550000843400709D5FEF7A6FC60782178000201
:102560000843A8432070000A607060782178000258
:1025700008432E4F2E4E41060CD540218843207033
:10258000000A607002206946088002466B463946A0
:102590000020B0476078217800020843C10711D0BD
:1025A000400840002070010A6170800702D568462B
:1025B000058002E005206946088002226B46394604
:1025C0000020B04751E41B48004738B50E4C207836
:1025D000002805D1104968467E39884701202070BF
:1025E000012038BDF8B50278002A74D00D49573162
:1025F0004A7242788A72002A01D0042A01D9042240
:102600008A72C278847817E058300020F1440000C4
:1026100045620000E5460000CB650000034800006D
:1026200043540000E03100207B4A0000008000009D
:10263000A13E0000F94B000013022343FB4A1C0A91
:10264000D37214734479057924022C4315466C73B4
:10265000240AAC73C479857920022843D073000A18
:102660001074F3480827C068D21C2130447C007CD9
:10267000240204430120A34214D900258D701B1BA2
:102680008C7AA34204DA1071000A50718B7216E042
:10269000E400A34202DA1071000A01E01771380A5F
:1026A00050710CE088708E7AE51AB5420FDA060A8E
:1026B000107156719C4201D1887200E08D72887A47
:1026C000C8700871FEF77EFF012052E403E0F300BA
:1026D0009D42E3DADFE700204BE4D549496A087000
:1026E000020A4A70020C8A70000EC870487A0222F0
:1026F00010434872704738B5044600200090CD4919
:10270000684688470099F8208143E006000E084398
:102710000090FFF7E2FF38BD08B500200090C549E2
:102720006846884700980006C00E009008BDC14862
:1027300072300047BF495A310847BF490847BE4970
:102740001A310847BD480047BC490C310847F8B565
:1027500000260B4604460125304631462D03675CB2
:10276000491CBE19A942FAD30021675C491C784074
:10277000A942FAD39E4222D1904220D1AC4EB068F9
:102780000A3000F090FDA94900195722573900F08E
:1027900059FDB0681C3000F086FDF1680019072271
:1027A0000A3100F04FFD0121A54A00209047A44BBB
:1027B000002022462946823B984701201DE4002044
:1027C0001BE470B501260546994C36039C4B00204E
:1027D0003146EA3BA26998479A4928468847A0684B
:1027E0001C3000F060FDA16907224018E1680A3141
:1027F00000F028FD0121924A00209047904B0020D4
:102800003146823BA269984770BD10B5044688489E
:1028100080680A3000F047FD894B1021EA3B2246D0
:102820005730984710BD70B501260546804C3603D9
:10283000834B00203146EA3BA26998470121804A38
:1028400000209047A0680A3000F02DFDA1691022F9
:1028500057314018294600F0F5FC794B00203146ED
:10286000823BA269984770BD714840690178C943AD
:10287000890702D18078062801D000207047012006
:102880007047714A1047F3B581B0060025D0684FF4
:10289000386A0446C17980790D020543E01C00F0D6
:1028A00002FD0102A07801430C46002D17D0002C38
:1028B00015D00121624B09030020EA3BBA69984711
:1028C000B8680A3000F0EFFCB9696731405C401C21
:1028D000C7B2032F05D90220FEBD0120FEBD042092
:1028E000FEBDB54204D10298844201D10020FEBD54
:1028F0000121534A002090474D4CA0680A3000F057
:10290000D2FCA2694E4B114667314754012109039D
:102910000020823B98470320FEBD08B54549684624
:10292000884700984108C90701D0002008BD02214E
:1029300008434049009028318847012008BD3B48A2
:102940000121573802783A4809078068002A03D0E5
:10295000012A07D000207047C27B837B10021843F6
:10296000400304E0C27B837B10021843000340183D
:10297000704770B504462D480D46573801782C48ED
:102980000126B6038068002903D0012903D0002066
:1029900070BD143000E0103000F085FC801972B674
:1029A0000019274A2946904762B670BDF8B505461A
:1029B0001E480F46573801781D480124A40380683B
:1029C0001646002903D0012903D000209EE41430CC
:1029D00000E0103000F067FC001972B64019184B87
:1029E00032463946EA3B984762B68FE4F8B5054669
:1029F0000E480F46573801780D480124A40380681B
:102A00001646002903D0012903D000207EE41430AB
:102A100000E0103000F047FC001972B64019084B76
:102A200032463946823B984762B66FE4373200201F
:102A3000583000204D6500002B620000776A0000CE
:102A400043540000A13D0000D960000010B5030010
:102A500000F0F7FF0906101016202A343E587400C3
:102A600001217F20FEF7DCFA88216120FEF7D8FAE9
:102A7000812160E001217F20FEF7D2FA8A21F4E76C
:102A800001217F20FEF7CCFA8A216120FEF7C8FAE7
:102A9000832150E001217F20FEF7C2FA8A216120C4
:102AA000FEF7BEFA872146E001217F20FEF7B8FA43
:102AB0008A216120FEF7B4FA8F213CE001217F20BA
:102AC000FEF7AEFA8A216120FEF7AAFA9F2132E0D2
:102AD00000217F20FEF7A4FA02213020FEF7A0FAA1
:102AE00001217F20FEF79CFA1F216320FEF798FA50
:102AF00003216D20FEF794FA8A216120FEF790FAF7
:102B0000B02118E000217F20FEF78AFA0221302050
:102B1000FEF786FA01217F20FEF782FA1F2163204B
:102B2000FEF77EFA07216D20FEF77AFA8A216120EE
:102B3000FEF776FABF216520FEF772FA10BD10B5D8
:102B4000FE4CA068283000F0AEFB616B081A10BD87
:102B5000FB4800787047F8B50546F84EF848B2696A
:102B600000781446002801D0002019E4280502D07E
:102B70002805000D2D1A72B601210903F14F00201E
:102B8000B84762B6706B2146401B283100F095FBB8
:102B900005462046103000F086FB0090281A4108B8
:102BA000009808182146143100F087FB0146009870
:102BB000081A0001000CA073000AE07372B601212C
:102BC000E04A0020EA32904762B672B60121DD4B3E
:102BD000090300206833B269984731210020B268A8
:102BE000B84762B6012050E4D448D44BC079DB79B1
:102BF00002091B0709201B0FC01A06230021584396
:102C0000072A08D0032A09D0022A0BD0012A0CD0A7
:102C1000002A0DD00FE04121C94301E03521C9430D
:102C2000081A07E02321C943FAE71721C943F7E748
:102C3000801D404241B2C8B27047F3B5C24EC34F87
:102C40008DB00546002432226B4621460320B04752
:102C500068464088A84206D1684601790E980170FE
:102C600001200FB0F0BDB84204D0684600880019BA
:102C700084B2E8E70020F4E7F3B5B34EB34F8DB06C
:102C80000546002432226B4621460320B0476846A1
:102C90004088A84208D1241DA1B2012203200E9B26
:102CA00000F046FA0120DCE7B84204D0684600880C
:102CB000001984B2E6E70020D3E7F3B5A24EA34F94
:102CC0008DB00546002432226B4621460220B047D3
:102CD00068468178427808021043A84205D16846C8
:102CE00041790E9801700120BBE7B84204D06846D4
:102CF0000078001984B2E6E70020B2E7904910B5E9
:102D000057314878097800020843800603D5FEF75A
:102D1000CAF8012010BD002010BD8D4B184710B51A
:102D20000446864880680A3000F0BDFA0821854BC9
:102D300022466730984710BD70B5054672B67F4C85
:102D4000012636037F4B31460020A26998477D4A11
:102D500001210020EA329047A0680A3000F0A3FA6F
:102D6000A169082267314018294600F06BFA754BBB
:102D7000002031466833A269984762B670BD754934
:102D8000082008476D4948637047FEB56B4D002722
:102D9000A868801D00F087FA6A4E01AA0621B04794
:102DA000002823D000241CE0A868801D00F07BFAD6
:102DB00061006118891D40186A460321B047002848
:102DC00014D068460078032809D1684640787F28E7
:102DD00001D169468F78012F01D1572807D0641C93
:102DE000A4B268460089A042DED80020FEBD684635
:102DF0008078FEBDF1B5514E84B0B0680027801DCB
:102E000000F051FA4F4D01AA0621A847002823D00F
:102E100000241CE0B068801D00F045FA61006118D4
:102E2000891D40186A460321A847002814D0684627
:102E30000078032809D1684640787F2801D1694687
:102E40008F78012F01D1572808D0641CA4B268469E
:102E50000089A042DED8002005B0F0BD72B601277F
:102E60003F0339460020B269A847364A01210020B5
:102E7000EA329047B068801D00F015FAB2690499F3
:102E8000831860002018083019542E4B0020394652
:102E90006833984762B6DFE77FB50D464B210906D8
:102EA0000843029000242C48039480470094019426
:102EB000294C012105202B4602AAA83CA047264800
:102EC0001C3080477FBD7FB5064600246D4629191A
:102ED0002046FFF7E1FF285D3055641CE4B20F2C5B
:102EE000F5D37FBDF3B501010F0C154900240A7815
:102EF0000605651E360D81B0002A17D04BE00F483D
:102F00008068143000F0CFF9210340180B490D4BB5
:102F10008A69012109039847084801212A460903C3
:102F2000806900F03CF9641C0546A4B2BC42E6D3BB
:102F3000002E13D0014FB868143033E05830002011
:102F4000E031002059530000C9280000FFFF0000B5
:102F500019220000791900001D5000000299E84371
:102F600081422ED10120FEBD9C488068103000F0C7
:102F70009AF9210340189949994B8A69012109035B
:102F80009847964801212A460903806900F007F90D
:102F9000641C0546A4B2BC42E6D3002EDED08F4F9F
:102FA000B868103000F07FF9210340188C4B31468F
:102FB000BA6998472A463146B86900F0F0F80546E4
:102FC000CCE70020FEBD87490320084710B500F07C
:102FD000F8F8002804D000F0F4F80128FBD010BD68
:102FE00000F0EFF80028FBD000F0EBF80128FBD050
:102FF00010BDF0B5794C0025A46AE678360701D5F6
:103000000020F0BD00BF6D1CEDB2642DFAD3254643
:1030100040356E7CB607FCD400252646C03637798D
:1030200047556D1CEDB2022DF9D346780125F709FD
:10303000002F08D0F606F60E0E7015704278520674
:10304000D20F1A7004E0B3069B0E0B7000231370AE
:10305000624B0A789B6A801CC033272A0CD200225C
:10306000C03403E026798654521CD2B20E789642C0
:10307000F8D85D720120F0BD5D72C1E710B502782D
:1030800000219207920F554B012A39D0022A0CD009
:10309000032A33D182780E2A2FD84078524BC006AB
:1030A0009A5CC00E904228D028E04278D206D20E18
:1030B000042A07D9C278847812022243172A01D839
:1030C000012200E000225A71002A17D041790279CA
:1030D00009021143052910D006290ED1C178827842
:1030E000090211438079404A40000F32801840386D
:1030F000C08F814201D0002100E00121084610BDAF
:1031000059790029F7D04078C006C00E1728F4D9A5
:10311000F1E770B5354D0024304EA847F168091924
:10312000FF310131641CE4B2C873102CF5D370BDBB
:10313000FFB52A4C0200E06981B01E460D4606D05C
:10314000012A06D0022A06D0032A06D009E0001D73
:1031500004E0083002E00C3000E0103000F0A3F88A
:1031600001464D1972B601273F031D4B3946002019
:10317000A269984762B6A06931464019039A00F0E7
:1031800061F872B60121164A0020EA329047144BCA
:10319000002039466833A269984762B65CE630B5CC
:1031A0000346114C0020253407E01D5C55402D06D8
:1031B000AD0D6559120A6A40401C8842F5D310468D
:1031C00030BD0648816A0A466032907C927C60314C
:1031D00001E0887C8A7C9042FBD170475830002007
:1031E00059530000294F00001B430010FB5F0000F3
:1031F00030B50B46014600202022012409E00D468F
:10320000D5409D4205D31D469540491B2546954016
:1032100040191546521E002DF1DC30BD70B500245A
:103220002546002801DA01244042002901DA01255F
:103230004942FFF7DDFFAC4200D04042002C00D0F5
:10324000494270BD03460B439B0703D009E008C900
:10325000121F08C0042AFAD203E00B780370401C46
:10326000491C521EF9D27047D2B201E00270401CD4
:10327000491EFBD270470022F6E710B513460A46F6
:1032800004461946FFF7F0FF204610BD30B504464E
:103290000020034600E05B1C934203D2E05CCD5C5F
:1032A000401BF8D030BD0321001D401E03781202E0
:1032B0001A43491EF9D51046704703460322087089
:1032C000000A491C521EFAD518467047F8B5024646
:1032D0004A40D40F42004B0052085B089A4202D287
:1032E0000246084611464A0023D0C30D4A00DDB20B
:1032F000120EAD1A202D35DA49020126490AF605CB
:103300008A19002C00D0524220214F1B1146B9408F
:103310002A411018C20D9A4221D0002C17D0012D3D
:1033200008DCDA05801AD20F8019D207DBB200F070
:1033300081FAF8BDDA05801A012340001B06C01887
:1033400080185A428018CA0F1043490007E0490804
:10335000C2071143DA05801A80194008801800F06E
:1033600061FAF8BD61000122511A001BF7E7012242
:10337000D2075140AAE70122D2075040A6E7000039
:10338000F0B507460846584087B0C00F0490480083
:103390000E46590040084908BC1A884105D23846F3
:1033A00031461E4617460B46024658004008104359
:1033B0004CD0300D039040055900400D490D05904B
:1033C000401A0290402872DA18030121000B090507
:1033D0000843019004980092002805D001995242B8
:1033E0000020884100920190029840210A1A019918
:1033F000009800F0E3F905460C466B4607CB00F059
:10340000FEF9C0197141039A0E0D0023D7175640DB
:103410001A467A40164344D0049A002A2DD0029AC4
:10342000012A039A15DC1205C01A914101263605BE
:10343000001C7141D20F059ED207009301920296A3
:103440002A46234600F03CFA07B0F0BD3846314624
:10345000FAE71605224A0F46B218C01AB7410121F1
:103460000905001C4F4100187F4111461818794189
:10347000E20F10436D19644113E0E2076D08154334
:103480006408C2071443039A01261205C01A914129
:103490003605001C7141CE07400830434908C0186A
:1034A00051412A46234600F0FEF9CDE7FFE7049894
:1034B00001224000C117121A00238B4104983146A3
:1034C000C417381AA141EEE730B40124E407634081
:1034D00030BC55E730B40124E407614030BC4FE70D
:1034E0000000E0FFF0B51FB488B00B9909980024E4
:1034F00048400999C00F490049080991C0070B9934
:103500000090490049080B9109990898A64608437C
:103510001CD00B990A98084318D009980124400040
:10352000420D4800410D099824050003000B20437B
:1035300009900B980003000B20430B9050181C4976
:103540004018002201901446104605E00020014674
:103550000DB0F0BD032801DA034600E003239C46CA
:10356000C11A0AAE0AE05F0008ADED5B4F00F75BE1
:103570007D430027AA187C41491C5B1E6145F2DD92
:10358000410004AB5A522104120C0A43240C401C83
:103590000828DFDB019802900099704601910090A5
:1035A000059B049A0799069800F08AF9D0E7000075
:1035B0000DFCFFFFF0B50C465C4085B0E40FE4075E
:1035C00003944C00002664085900944649080246BA
:1035D0000296224321D062460A431ED06200570D54
:1035E0004A000E032303550D012402462C492405ED
:1035F000781B1B0B360B4018234326436146009073
:103600001C46501AB44103D30098401C009002E0BD
:10361000921800985B41002803DA0020014605B0AB
:10362000F0BD0020012109050746864611E06446E9
:103630001D46141BB54106D36546521BB341744663
:1036400007430C43A646CD07400849082843921873
:103650005B4105460D43EAD11046184313D060463E
:10366000194650407140084306D06046101AB341D5
:1036700006D20122002306E000220123DB0702E03C
:103680000122D2435310009874460105381C614151
:10369000029C039D0019694100F005F9BFE7000095
:1036A000FD03000010B500229623114600F0C2F879
:1036B00010BD00000EB5C217C10F5040CA07401818
:1036C0000021054B0293019200910A460B4600F03F
:1036D000F7F803B000BD0000330400000EB5054943
:1036E0000291002100910A460B46019100F0E8F892
:1036F00003B000BD330400004A0009030123090B95
:103700001B051943094B10B5520D9A4201DA0020EE
:1037100010BD064B34339A4203DC9A1A00F05EF86F
:1037200010BD03495118884010BD0000FF03000080
:10373000CDFBFFFFC20FD207400040080BD0C10DE8
:103740000723DB01C91840020905400A1143C208DA
:10375000400711437047002001467047F0B51FB481
:103760000646002082B005464024019100901BE0EF
:10377000019922460F46304600F030F8049A059B26
:10378000801A994110D310461946224600F016F8C7
:10379000361A8F410197224601200021009F00F038
:1037A0000DF838184D4100902046641E0028DFDCDB
:1037B000019B00982946324607B0F0BD10B5202A7B
:1037C00004DB0146203A9140002010BD91402023A7
:1037D0009C1A0346E3401943904010BD10B5202ABF
:1037E00004DB0846203AD040002110BD0B46D340F0
:1037F000D0402024A21A91400843194610BD10B5AC
:10380000202A06DBCB170846203A1041C1170B438C
:1038100006E00B461341D0402024A21A91400843F1
:10382000194610BD002904DA401C490001D14008A6
:103830004000704770B40024050C05D1102400042A
:1038400002D1002921D01124050E01D10002083433
:10385000050F01D10001241D850F01D18000A41C9A
:10386000002801DB4000641C002908D020252E1B05
:103870000D46F540A14000D001212943084301062F
:103880001B1B000ADB1D02D5002070BC7047DB0546
:10389000181880180029F8DA401C4900F5D170BCCE
:1038A00040084000704710B5002B08DA0024401C87
:1038B000614192185B411A4301D14008400010BD9C
:1038C000F0B51FB482B005460C0003D0084600F0E6
:1038D000A1F802E000F09EF8203002460090214658
:1038E0002846FFF76BFF049B059A04460F461843D2
:1038F0001143084314D0184610431BD000984021B0
:103900000A1A18460599FFF769FF05460E46009A00
:1039100005990498FFF752FF084305D0012004E001
:103920002046394607B0F0BD0020C11705430E43BD
:103930002C43374300990E986305401A7905E40A31
:1039400000220C43FD0A0A3002D500200146E9E7B7
:103950000105101969410C9C0D9D00196941FFF783
:10396000A2FFDFE74A0009030123090B1B051943E6
:103970000A4B10B5520D9A4202DA0020014610BDE2
:10398000064B34339A4203DC9A1AFFF727FF10BD27
:10399000034BD218FFF712FF10BD0000FF03000019
:1039A000CDFBFFFF10B5002904DB0124E4074042F2
:1039B0008C412146002B04DB1C460123DB075242CD
:1039C000A341994200D1904210BD0000064C012550
:1039D000064E05E0E36807CC2B430C3C98471034B7
:1039E000B442F7D3FCF770FB40470010604700106B
:1039F00037B514460846064B6A46214600F0EAF8F9
:103A000004466946002000F081FC20463EBD0000CF
:103A10000D4300102021020C01D010211046020A93
:103A200001D010460839020901D01046091F82084A
:103A300001D01046891E420801D0881E7047081A1E
:103A4000704730B47446641E2578641CAB4200D2C3
:103A50001D46635D5B00E31830BC184702E008C8F0
:103A6000121F08C1002AFAD170477047002001E0F8
:103A700001C1121F002AFBD170470000F0B51FB42E
:103A800084B007980699020D014314D04A484B4967
:103A90001018484305140F9801280E981CD0281AB6
:103AA000401C0024464E4749009401910290002892
:103AB00014DA474227E00F98012443A3012808D0D5
:103AC000002104980F9A84600360C260416009B0CD
:103AD000F0BD0E98C143F4E74042E2E7074612E02A
:103AE000F80707D02246334601990098FFF7FAFC01
:103AF000019100902246334610461946FFF7F2FC2A
:103B000004460E467F10002FEAD10298019B002840
:103B1000009A0799069802DAFFF7E4FC01E0FFF744
:103B200049FD04460E460022284BFFF73BFF03D811
:103B30000020C043014607E00022254B20463146C5
:103B4000FFF71EFCFFF70EFF102409E0002C0ADB34
:103B50000A220023FFF702FE059B30321A55641E2D
:103B600002460A43F2D11122641C059B121B1C1948
:103B70000F9B012B03D0012308430ED10AE0084319
:103B800004D011200E9000200F9084E70E98151A93
:103B90006D1E0BE00E98824202DD00236D1C03E0D7
:103BA000824201DA00236D1E002BEED004980F999B
:103BB0008260C16030C08AE701FCFFFF104D000049
:103BC000000024400000F03F300000000000F043FF
:103BD0000000E03FFFB597B00646002518E2252813
:103BE00077D100242746FD49049400E00443761C65
:103BF00032780120203A90400842F7D130782A28C4
:103C00000ED00222307801463039092916D804999D
:103C10000A235943303940181443761C0490F1E7C5
:103C2000189802C804911890002904DA0120400372
:103C300004434842049002200443761C30782E2826
:103C400014D1042004437078761C2A2809D11898CE
:103C5000761C80C8189009E00A214F43303FC719ED
:103C6000761C3078014630390929F5D930786C282E
:103C700010D006DC4C281AD068280ED06A2817D13C
:103C800004E0742813D07A2812D110E001204005F6
:103C900004430CE00121090501E0032109050C435F
:103CA0007178814203D1012000052418761C761C0E
:103CB0003078119066280BD013DC58287DD009DCB1
:103CC00000287BD04528F6D04628F4D047281AD1C2
:103CD000A5E118E0632835D0642870D0652812D19A
:103CE0009DE170286CD008DC6728F1D069287BD072
:103CF0006E280DD06F2806D1BAE073282ED0752813
:103D000071D0782859D01A9A199990476D1C7EE184
:103D10006002400F022809D003280DD0042818980B
:103D200001680DD00D60001D189070E11898EA1719
:103D300001680D604A60F6E7189801680D80F2E7A7
:103D40000D70F0E718986A4601781172001D1890FE
:103D50000020507202A80090012005E0189802C8C7
:103D6000189000200091C04361070DD5002101E0AB
:103D70000199491C0191B94212DA8142F8DB009A9B
:103D8000515C0029F4D10BE0002101E00199491CAC
:103D900001918142FADB019A0099895C0029F5D1F1
:103DA000019904981A9B471A21463846199A00F03F
:103DB00097FA0199401945180BE04FE02CE113E008
:103DC0004EE0009800990078491C00911A9A1999C0
:103DD00090470198401E0190401CF2D12146384680
:103DE0001A9B199A10E137E00A20002100900191F6
:103DF0006002410F022907D0189A01CA1892C2170F
:103E00009446032908D00AE01898C01DC108C900CB
:103E100005C91891944607E000B2C21794460429D8
:103E200002D140B2C1178C4600226146944506DAA1
:103E30000A460021404291418C462D2102E0210595
:103E400004D52B216A461173012103E0E10701D05B
:103E50002021F7E7029155E00A200AE0102008E04F
:103E6000102000900021042004430191082703E062
:103E700008200021019100906002410F022907D023
:103E8000189A01CA189200229446032908D008E023
:103E90001898C01DC108C90005C91891944603E0CF
:103EA00080B2042900D1C0B200210291210729D596
:103EB0001199702906D0009A1021019B4A401A439B
:103EC00005D00EE040216A461173012108E06146E9
:103ED000014306D030216A461173119951730221B2
:103EE0000291009A0821019B4A401A430AD1614677
:103EF000014301D1610705D530216A4611730121C3
:103F00007F1E02911199582904D035A10E910DA957
:103F10000D910DE037A1F9E76146019B009AFFF78B
:103F20001DFC0E9B8C469B5C0D9A521E0D921370CD
:103F300061460143F0D10D9805A9081A203001907F
:103F4000600703D501200004844300E001270198A5
:103F5000874201DD381A00E00020019900904118E5
:103F6000029809180498401A0490E00306D42146E8
:103F70001A9B199A049800F0B3F94519002706E036
:103F800003A81A9AC05D199990476D1C7F1C02986E
:103F90008742F5DBE0030CD521461A9B199A049859
:103FA00000F09EF9451904E01A9A302019999047BB
:103FB0006D1C0099481E00900029F5DC08E00D9862
:103FC0000D990078491C0D911A9A199990476D1C0A
:103FD0000199481E01900029F1DC63E109280100E4
:103FE000303132333435363738396162636465666F
:103FF0000000000030313233343536373839414231
:10400000434445460000000000F05AF94519761C6B
:104010003078002800D0E2E528461BB0F0BD6007EC
:1040200000D406271898C01DC108C90048680A684E
:104030000831C30FDB071891190001D09CA108E0DB
:10404000210501D59BA104E0E10701D09AA100E080
:104050009AA1430011985B08109165280CD006DCEA
:10406000452809D046281DD0472841D141E066287F
:1040700018D067283CD13CE00021112F01DB112032
:1040800000E0781C0191009008A911A8FFF7F6FC48
:10409000139905910021119A15927F1C129801978E
:1040A000009150E00120C00703900120019008A971
:1040B000009711A8FFF7E2FC139A149905920022C9
:1040C000119B009212981593059A0192002901D034
:1040D000104602E0791C40180190381A01D5019869
:1040E00004E04042401E0090781C0190C01B0290EA
:1040F00043E0012F00DA01270021112F01DD1120FB
:1041000000E038460191009008A911A8FFF7B6FC1D
:1041100013990591119A0021129815920091019717
:1041200021070CD40599B94201DB019900E0019106
:10413000012904DD159A491E515C302906D0B84288
:1041400001DA011D05DA0121029115E00199491EEC
:10415000EDE7002805DC0099411800910199091A42
:1041600003E0019A411C914200DD01910099401A3F
:10417000401C02900120C0070390200706D402993A
:104180000198814202DB0020C04302900020694672
:10419000C87707AF012103980337C907884224D0A5
:1041A000022011902B201290039800280CDA404234
:1041B00003902D20129007E00A210398FFF718F8CA
:1041C00030317F1E039039701199481E11900029DB
:1041D000F2DC03980028EFD1791E1298087030782D
:1041E000202108404530BF1E387006A8C01BC01DE6
:1041F000039010980078002800D001200199411800
:104200000298C0170918039809180498401A401E0C
:104210000490E00306D421461A9B199A049800F0F2
:104220005FF8451910980078002803D01A9A199958
:1042300090476D1CE00324D521461A9B199A0498D7
:1042400000F04EF845191CE00098002807DB0099A3
:104250000598884203DD1598405C199901E0199989
:1042600030201A9A904700986D1C401C00900298CC
:10427000401E0290002804D11A9A2E2019999047C6
:104280006D1C0199481E01900029DDDC05E038789D
:104290001A9A7F1C199990476D1C0399481E039028
:1042A0000029F4DC21461A9B199A0498ACE6000018
:1042B0002D0000002B000000200000000000000086
:1042C000F8B5044600251E461746880404D405E0C8
:1042D00039462020B0476D1C641EF9D52846F8BD2C
:1042E000FFB50446002581B01E46C80301D530271E
:1042F00000E02027880404D505E038460399B0473C
:104300006D1C641EF9D5284605B0F0BD0A68531C23
:104310000B601070704700002526270C0802170D4F
:10432000010102090901010602000700070011004E
:104330001100020011000B00110008001100020022
:1043400000000000963007772C610EEEBA510999F3
:1043500019C46D078FF46A7035A563E9A395649E4F
:104360003288DB0EA4B8DC791EE9D5E088D9D29773
:104370002B4CB609BD7CB17E072DB8E7911DBF90CF
:104380006410B71DF220B06A4871B9F3DE41BE84F3
:104390007DD4DA1AEBE4DD6D51B5D4F4C785D3834F
:1043A00056986C13C0A86B647AF962FDECC9658AF3
:1043B0004F5C0114D96C0663633D0FFAF50D088D4F
:1043C000C8206E3B5E10694CE44160D5727167A2F3
:1043D000D1E4033C47D4044BFD850DD26BB50AA54F
:1043E000FAA8B5356C98B242D6C9BBDB40F9BCAC73
:1043F000E36CD832755CDF45CF0DD6DC593DD1ABCF
:10440000AC30D9263A00DE518051D7C81661D0BFF2
:10441000B5F4B42123C4B3569995BACF0FA5BDB84E
:104420009EB802280888055FB2D90CC624E90BB1F2
:10443000877C6F2F114C6858AB1D61C13D2D66B64E
:104440009041DC760671DB01BC20D2982A10D5EFB2
:104450008985B1711FB5B606A5E4BF9F33D4B8E80E
:10446000A2C9077834F9000F8EA8099618980EE1B2
:10447000BB0D6A7F2D3D6D08976C6491015C63E60E
:10448000F4516B6B62616C1CD83065854E0062F232
:10449000ED95066C7BA5011BC1F4088257C40FF58E
:1044A000C6D9B06550E9B712EAB8BE8B7C88B9FCB2
:1044B000DF1DDD62492DDA15F37CD38C654CD4FB0E
:1044C0005861B24DCE51B53A7400BCA3E230BBD4B2
:1044D00041A5DF4AD795D83D6DC4D1A4FBF4D6D30E
:1044E0006AE96943FCD96E34468867ADD0B860DAB2
:1044F000732D0444E51D03335F4C0AAAC97C0DDD0E
:104500003C710550AA41022710100BBE86200CC931
:1045100025B56857B3856F2009D466B99FE461CE8D
:104520000EF9DE5E98C9D9292298D0B0B4A8D7C7B1
:10453000173DB359810DB42E3B5CBDB7AD6CBAC00D
:104540002083B8EDB6B3BF9A0CE2B6039AD2B17429
:104550003947D5EAAF77D29D1526DB048316DC7385
:10456000120B63E3843B64943E6A6D0DA85A6A7A29
:104570000BCF0EE49DFF099327AE000AB19E077D85
:1045800044930FF0D2A3088768F2011EFEC20669A9
:104590005D5762F7CB67658071366C19E7066B6E05
:1045A000761BD4FEE02BD3895A7ADA10CC4ADD6729
:1045B0006FDFB9F9F9EFBE8E43BEB717D58EB06085
:1045C000E8A3D6D67E93D1A1C4C2D83852F2DF4F29
:1045D000F167BBD16757BCA6DD06B53F4B36B24885
:1045E000DA2B0DD84C1B0AAFF64A0336607A044129
:1045F000C3EF60DF55DF67A8EF8E6E3179BE694685
:104600008CB361CB1A8366BCA0D26F2536E26852A8
:1046100095770CCC03470BBBB91602222F26055504
:10462000BE3BBAC5280BBDB2925AB42B046AB35C28
:10463000A7FFD7C231CFD0B58B9ED92C1DAEDE5B84
:10464000B0C2649B26F263EC9CA36A750A936D0268
:10465000A906099C3F360EEB8567077213570005C4
:10466000824ABF95147AB8E2AE2BB17B381BB60CE8
:104670009B8ED2920DBED5E5B7EFDC7C21DFDB0B44
:10468000D4D2D38642E2D4F1F8B3DD686E83DA1F68
:10469000CD16BE815B26B9F6E177B06F7747B718C4
:1046A000E65A0888706A0FFFCA3B06665C0B011168
:1046B000FF9E658F69AE62F8D3FF6B6145CF6C16C4
:1046C00078E20AA0EED20DD75483044EC2B3033968
:1046D000612667A7F71660D04D476949DB776E3EC4
:1046E0004A6AD1AEDC5AD6D9660BDF40F03BD837E8
:1046F00053AEBCA9C59EBBDE7FCFB247E9FFB53044
:104700001CF2BDBD8AC2BACA3093B353A6A3B42467
:104710000536D0BA9306D7CD2957DE54BF67D923C3
:104720002E7A66B3B84A61C4021B685D942B6F2A67
:1047300037BE0BB4A18E0CC31BDF055A8DEF022DC3
:104740006047001000300020980000005C3A001024
:10475000F847001098300020B00500006C3A0010B7
:10476000D0000150E0000150000000006010005037
:104770002410005014100050181000501000004079
:1047800000000000000102030405060708090A11E1
:1047900012131415161718191A1B1E1F00010203F5
:1047A000040506090A07081115121617181319141B
:1047B0001A1B1E1F0024F40000040000000000006B
:1047C000ED050020DF0000208F050020C605002039
:1047D0004A0700201E060020140000209010005000
:1047E000000002400010005060100050000008005F
:0847F0000000000000000000C1
:04000005100000C126
:00000001FF
