:020000041000EA
:1000000090420020B1210010B9210010BB21001046
:1000100000000000000000000000000000000000E0
:10002000000000000000000000000000BD210010E2
:100030000000000000000000BF210010C1210010DE
:1000400000000000C32100107F2D0010C32100100C
:10005000C3210010C321001015110010C71100109A
:1000600023260010D3260010C7270010C32100103C
:100070001F100010C3210010C3210010C321001065
:10008000C3210010C3210010C3210010C3210010A0
:10009000C3210010C3210010C3210010C321001090
:1000A0000000000000000000000000000000000050
:1000B0000000000000000000000000000000000040
:1000C0000348854605F08EFF00480047E108001010
:1000D000904200201FB5002168460170072141723F
:1000E000192149014181F94981810021017203F0FF
:1000F00083FFF74803F06EFFF5484078F549C87371
:10010000F34880780874F248C0784874F048007961
:100110008874EF484079C874ED488079087500BF4D
:100120000623EB4A521CECA1002001F0F9FF00BFAE
:10013000ED480378ED480178ED4AE64803F062FFA8
:100140001FBD3EB50446002C02D0012C11D107E0A2
:1001500010216846C180C82141810021018108E049
:1001600050216846C1804B21C90041810A2101818B
:1001700000BF00BFC021684601710421417101A880
:1001800004F0F4FC00BF684640890090684603898B
:10019000C288D8A1002001F0B1FF00BF3EBD13B559
:1001A00084B06846408A15214902884209D1DDA100
:1001B00003C903910290072402A9204604F04FF9D5
:1001C0002AE06846408AD949884208D1D8A0006808
:1001D0000390022403A9204604F041F91CE068467C
:1001E000408AD44988420ED1002103910020019019
:1001F000029003A901A801F05DFB01A96846007BFC
:1002000004F02DF908E06846408ACB49884203D1C2
:10021000CA49012004F023F906B010BD0FB410B58F
:100220006846408902281FD16846C07BA12811D1A9
:1002300002A8007A01280DD102A8407A012809D12C
:1002400002A8807A012805D1002104F0E2F80120FB
:10025000BB49087000BF6846837B03AA0332B9A17B
:10026000002001F05DFF20E068464089AF494C3135
:1002700088420DD168468089252809D100BF68468B
:10028000837B03AA0332B1A1002001F049FF0CE0F7
:1002900068464089A749884207D10020A8490870CC
:1002A0006846817B0F3001F0F9F810BC08BC04B03F
:1002B00018471FB5044600200090684604702004CB
:1002C000010E68464170A6480078012814D19A4969
:1002D000C91C6846818095494C31C18022214181E9
:1002E00021210181012181816B46022201A9012086
:1002F00004F0C4F804B010BD0020FBE710B58CB0CA
:100300000446601C05F0DCFA012809D1FFF7E2FE83
:1003100003F098FF00BF93A1002001F0EFFED1E1B0
:10032000601C05F0CDFA022815D100209149087013
:100330008B49087001209049087000208F4908708F
:10034000012001F098F800BF0623A21D8CA1002017
:1003500001F0E6FEB6E1601C05F0B2FA042813D104
:10036000002085490870834908707D49087003F0B2
:1003700069FF0120400202F014F800BF627986A1F3
:10038000002001F0BBFE9DE1601C05F099FA0121FF
:100390004903884270D1A17962790802104301288B
:1003A00023D1217AE279080210430D28B7D1A17A2E
:1003B000627A08021043C007C00F002807D1A17A53
:1003C000627A0802104302210840002809D000BFC9
:1003D00078A1002001F092FE00BF0120654908705D
:1003E00070E10020634908706CE1A179627908022C
:1003F00010435149C91C88421FD1217AE279080271
:10040000104322288BD1A17A627A08021043C007D8
:10041000C00F002809D000BF6BA1002001F06EFEC4
:1004200000BF01204E4908704CE100204C49087083
:1004300000BF6AA101F062FE44E1A179627908027D
:1004400010433D49884285D1A17A627A080210435F
:10045000C007C00F002896D0374968468184C18400
:100460001321018501218185344B012209A9104600
:1004700004F004F826E1FFE7601C05F021FA0121F1
:10048000490288420FD10E2221461531684605F0F7
:10049000DDF91E22611D04A805F0D8F904A80FC8D3
:1004A000FFF7BCFE0EE1601C05F00AFAFF210131E6
:1004B000884209D10822611D0AA805F0C7F90B99E5
:1004C0000A98FFF76CFEFDE094E00000FF3F00009B
:1004D0003E30002019300020646576696365206134
:1004E0006464723A000000003C3000203830002084
:1004F0003A300020736D6172745F706172616D7368
:1005000020696E74657276616C3A2578206C61742E
:10051000656E63793A2578207376746F3A25780D85
:100520000A0000005359445F48494400012A000072
:10053000C103000001FF00000F180000133000206D
:10054000113000206D73673A0D0A0000686964205D
:100550006B6579626F617264206D73673A0D0A0092
:1005600007300020526553746172744164760D0A3D
:100570000000000005300020103000200430002072
:100580004741505F4556545F434F4E4E4543544597
:100590004420616464723A004741505F4556545F9D
:1005A000444953434F4E4E45435445442025780D0E
:1005B0000A00000073746172745F747820656E6164
:1005C000626C650D0A0000006869645F6B65795FA5
:1005D000747820656E61626C650D0A006869645FFD
:1005E0006B65795F74782064697361626C650D0A6C
:1005F00000000000601C05F063F901210903884236
:1006000060D0601C05F05CF9082805D100BFF9A195
:10061000002001F073FD55E0601C05F051F9012147
:100620008903884205D100BFF8A1002001F066FDD2
:1006300048E0601C05F044F90121C903884241D11A
:10064000A179627908021043030005F034FD060425
:10065000171E252C333A00BFF1A1002001F04EFDFA
:1006600000BF0AA803F0C5FE00BF6846438D028D97
:10067000F1A1002001F042FD00BF22E000BFF5A182
:10068000002001F03BFD00BF1BE000BFF7A10020F0
:1006900001F034FD00BF14E000BFFAA1002001F01A
:1006A0002DFD00BF0DE000BFFCA1002001F026FDE4
:1006B00000BF06E000BFFEA1002001F01FFD00BF4B
:1006C00000BF00BF0CB010BD00B587B003F0EFFB5A
:1006D00003216846017000214170807881088900FB
:1006E000491C684681708078042188430146684629
:1006F00081701021C170002101710321417103F04B
:100700006CFEC0200590EF48069005A803F087FE18
:10071000ED4803F09FFE002004F072F8FFF7DAFCCA
:100720000021684601720121417281720021C1726B
:100730000121017303A903310520000505F0CAF862
:1007400002A803F0DEFF07B000BD10B5DF48007857
:10075000002852D0DD480078012804D0022811D0AA
:10076000032848D122E000F08EFD00BFD8A1002070
:1007700001F0C4FC00BF0220D44908700020D74912
:10078000087039E0D5480078401CD4490870084604
:100790000078202809DD00BFD1A1002001F0AEFCC7
:1007A00000BF0120400201F0FCFD25E00020C74908
:1007B00008700120400201F0F4FD00BFCBA1002031
:1007C00001F09CFC00BF7D20C00000F035FD00BFA3
:1007D000CAA1002001F092FC00BF03F0FFFF72B637
:1007E000CB4800F029FD62B600BFCAA1002001F08D
:1007F00085FC00BF00E000BF00BF10BD10B5C948B8
:100800000078C007C00F002802D0012002F011FFBD
:1008100010BDFEB5002500260020019000270090A5
:10082000FF21C148006820300170BF4800682030B7
:100830004170BD48006820308170CF21BA480068FF
:100840002030C170FF21B8480068203001710024B9
:1008500021E0142C06D0162C05D0172C04D0182C0F
:100860000FD102E000BF00BF00BF0120A040054340
:100870000120A04007430120A040009908430090B8
:1008800006E00120A04005430120A040074300BF2F
:1008900000BF601CC4B2202CDBDB29463143084674
:1008A000002100F017FA304600F078FA324601993C
:1008B0008A43104600F008FB019800F01EFB284612
:1008C000009900F084FA3946002000F01CFA28460E
:1008D00000F0E1FA95490520000500F051FBFEBD4E
:1008E00072B6FFF7F1FE002003F0E1FE02F062FEB7
:1008F000002002F01BFFFF20F53000F09DFC02F00D
:1009000026FFFFF786FF01F068F900BF88A10020ED
:1009100001F0F4FB00BF012002F08BFE00BF88A3B2
:100920008AA28DA1002001F0E9FB00BF8F490220BF
:1009300001F039FE01F01CF88D49012002F00BFA9C
:1009400001F035F862B603F07DFC00BF89A10020FC
:1009500001F0D4FB00BF8DE104F096F80120000502
:1009600000F0FDFA002820D0052000F065FC0120F1
:10097000000500F0F4FA002826D001208049087014
:1009800000BF80A1002001F0B9FB00BF012040059D
:1009900000F0CCFAE920FFF78CFC00BF0120000535
:1009A00000F0DDFA0028F9D10EE075480078012842
:1009B0000AD100207249087000BF77A101F09EFBA8
:1009C00000BF0020FFF775FC0120800500F0C7FA8A
:1009D00000280DD0052000F02FFC0120800500F03C
:1009E000BEFA002805D001206F49087000BFDDE085
:1009F000EFE0FDE04741505F4556545F504149529A
:100A0000494E475F434F4D500D0A00004741505F2C
:100A10004556545F454E435F53544152540D0A00AE
:100A20007570646174652072737020414343455052
:100A30005445440D0A000000696E74657276616C5D
:100A40003A2578206C6174656E63793A25780D0AD1
:100A5000000000007570646174652072737020522C
:100A6000454A45435445440D0A00000075706461D1
:100A70007465207273702054494D45524F55540D82
:100A80000A000000757064617465207273702053F1
:100A90005543434545440D0A00000000456E616220
:100AA0006C65206C6174656E63790D0A000000004E
:100AB00044697361626C65206C6174656E63790D65
:100AC0000A000000FD0200100030002098300020D5
:100AD0004F54412073746172740D0A0099300020E4
:100AE0004F5441206661696C650D0A004F544120E6
:100AF00066696E6973680D0A0000000053746172C4
:100B0000742052657365742031303030730D0A00E3
:100B1000B80B00005265736574206661696C65648A
:100B20000D0A00000530002048300020FD070010AD
:100B30005359442052545420496E69740D0A0000E0
:100B400031343A34373A3035000000004A616E20C3
:100B50002036203230323500537964383831315FF5
:100B60004849442025733A25730D0A007C31002042
:100B7000AC31002053746172744164760D0A000038
:100B8000083000204B455931205072657373202086
:100B9000562B0D0A000000004B4559312052656C60
:100BA000656173650D0A00000930002032A1002044
:100BB00001F0A4FA00BF202000F0B8F9EA20FFF706
:100BC00078FB00BF0120800500F0C9F90028F9D1A9
:100BD0000EE02D48007801280AD100202A4908702B
:100BE00000BF2AA101F08AFA00BF0020FFF761FBD5
:100BF0002A480068002822D02848006801214902BC
:100C0000084000280BD0FFF7A0FD0120400201F0B2
:100C100024FC00BF22A1002001F070FA00BF1F4891
:100C20000068FF2101310840002808D0084601F083
:100C300014FC00BF1EA1002001F060FA00BF1F4895
:100C40000068002810D01D480068042108400028D2
:100C50000AD002F07CFD00BF19A1002001F04EFA7D
:100C600000BF042001F0EEFE19480078012801D1F0
:100C7000FFF76BFD70E600004B455932205072655E
:100C8000737320562D0D0A00093000204B45593250
:100C90002052656C656173650D0A0000DC30002030
:100CA0004556545F31535F4F54410D0A0000000018
:100CB0004556545F32530D0A00000000F430002006
:100CC0005254434556545F313835530D0A000000E5
:100CD0009830002010B50246002010E00123834028
:100CE0001340002B0AD0EF4B1B681954012383409B
:100CF00014469C432246002A00D102E0401C2028D2
:100D0000ECD300BF10BDFCB50346E74C221D019299
:100D100000220092002B02D1E44A009203E0012B52
:100D200001D1E34A0092009A002A36D0002013E055
:100D3000012282400D461540002D0CD02568009EF2
:100D4000375C0126BE40354325600D469543294654
:100D5000002900D102E0401C1828E9D300BF182068
:100D600017E0012585402A460D461540002D0FD07D
:100D7000019D2D780646183E0127B7403D43EEB24F
:100D8000019D2E700D4695432946002900D102E0B1
:100D9000401C2028E5D300BF00BFFCBDC549096841
:100DA0000A461378194653781B02194393781B049B
:100DB0001943D278120611438143BE4A126811705A
:100DC0000B0A53700B0C9370090ED170704710B55D
:100DD000B84A126813461C7822465C7824022243E3
:100DE0009C7824042243DB781B061A430243B14B50
:100DF0001B681A70140A5C70140C9C70120EDA7066
:100E0000AD4A126813461C7822465C7824022243BD
:100E10009C7824042243DB781B061A430243A64B2A
:100E20001B681A70140A5C70140C9C70120EDA7035
:100E3000A14A12680823D3181C7822465C78240241
:100E400022439C7824042243DB781B061A43824306
:100E5000994B1B681A72140A5C72140C9C72120E65
:100E6000DA72954A12680823D3181C7822465C78F7
:100E7000240222439C7824042243DB781B061A4375
:100E80000A438D4B1B681A72140A5C72140C9C7214
:100E9000120EDA7210BD884909680A46137819469D
:100EA00053781B02194393781B041943D278120616
:100EB00011430143804A126811700B0A53700B0CE6
:100EC0009370090ED17070477C4909680A461378FF
:100ED000194653781B02194393781B041943D2789F
:100EE000120611430143754A126811700B0A5370C0
:100EF0000B0C9370090ED1707047704909680A464F
:100F00001378194653781B02194393781B0419432D
:100F1000D278120611438143684A126811700B0A95
:100F200053700B0C9370090ED170704763490968B8
:100F30000A461378194653781B02194393781B0409
:100F40001943D2781206114341405C4A126811706D
:100F50000B0A53700B0C9370090ED1707047014649
:100F600055480068021D1378184653781B02184331
:100F700093781B041843D278120610430840704738
:100F800010B50A464E4909681823CB181C7821462B
:100F90005C78240221439C7824042143DB781B06DF
:100FA00019430140464B1B6819700C0A5C700C0C0D
:100FB0009C70090ED970424909681023CB181C781F
:100FC00021465C78240221439C7824042143DB7869
:100FD0001B06194381433A4B1B6819740C0A5C7455
:100FE0000C0C9C74090ED9743549096820310978B4
:100FF00049084900324B1B682033197031490A6097
:101000000C21002909DB00BF00BFCC06E40E012340
:10101000A3402D4C236000BF00BF00BF10BD10B522
:1010200027480068182141180A7810464A781202A9
:1010300010438A7812041043C978090608432049EE
:10104000096810228A181378194653781B0219432D
:1010500093781B041943D278120611438843002861
:101060001ED018480068002802D016480068804743
:1010700013480068182141180A7810464A7812026D
:1010800010438A7812041043C978090608430C49B2
:1010900009680870020A4A70020C8A70000EC87053
:1010A00010BD00004830002080100050603000204B
:1010B000783000204C300020543000205030002088
:1010C000583000205C30002000E100E018B50246F6
:1010D00000200023009314E0554B1B681B790B5430
:1010E000431CD8B26B461B785B1CDCB200946B4689
:1010F0001B785B1CDCB200946B461B785B1CDCB27B
:1011000000944B4B1B68DB78DB07DB0F002BE3D035
:10111000107018BD0CB5464800680078C006C00FB6
:1011200000280CD0424800680078102188434049CC
:1011300009680870694601A8FFF7C8FF00BF3C486E
:10114000006800788006C00F002807D03848006883
:1011500000782021884336490968087034480068BF
:1011600080788007C00F002808D031480068807858
:1011700002218843801C2E49096888700CBD18B56F
:10118000024600200023009314E02A4B1B681B79C1
:101190000B54431CD8B26B461B785B1CDCB200942A
:1011A0006B461B785B1CDCB200946B461B785B1CA7
:1011B000DCB200941F4B1B68DB78DB07DB0F002BD6
:1011C000E3D0107018BD0CB51A4800680078C0064E
:1011D000C00F00280CD01748006800781021884301
:1011E000144909680870694601A8FFF7C8FF00BFE5
:1011F0001048006800788006C00F002807D00D480E
:1012000000680078202188430A4909680870094865
:10121000006880788007C00F002808D00548006863
:10122000807802218843801C0249096888700CBDBF
:101230009030002094300020002108E0002201E0DE
:10124000531C9AB2034B9A42FADB4B1C99B281426F
:10125000F4DB70478C0A000070B504460E46154654
:101260000E20F74909680870681CF549096848703C
:10127000F348006884702A463146F1480068C01C73
:1012800004F0E4FA70BD08B503F039FB00200090CB
:10129000012269461620FFF7DFFF08BD38B5044676
:1012A000607821780002084301210903884200DDAB
:1012B00038BD6078217800020843A17840180121E8
:1012C0000903884207DD6078217800020843012184
:1012D0000903081AA070A2786178237809021943DB
:1012E000D84BC818E11C04F0B1FA00BFA3786078AD
:1012F0002178000208430246D3A1002000F0FEFE40
:1013000000BF00200090012269461720FFF7A4FFCC
:1013100000BFCDE77CB504460D46164668464570CD
:10132000290A8170C670310A01710470052269466C
:101330001420FFF791FF7CBD7CB504460025601C9E
:1013400004F0BEFA064622783146BE4803F0A8FCF7
:10135000054600BF601C04F0B3FA06462078334609
:101360002A46C0A10090002000F0C8FE00BF002D5A
:1013700002D10120019001E000200190012201A989
:101380001820FFF769FF7CBDF8B5054600BFBB48D4
:101390000079002808D0B94A1179203A126A500120
:1013A000B64A203A03F01EFB00BF284604F088FA34
:1013B0000646687929790002084303463246B0A1FF
:1013C000002000F09BFE00BF284604F079FA064694
:1013D000687929790002084303463246002108460D
:1013E00003F00FFB044600BF2246ABA1002000F033
:1013F00085FE00BF002C02D10120009001E00020FA
:101400000090012269461820FFF726FFF8BDF8B5C5
:10141000054600BF00BF284604F052FA0646687928
:101420002979000208430346324695A1002000F0C6
:1014300065FE00BF284604F043FA064668792A791B
:10144000000210430146304603F0E0FA044600BFB4
:10145000224696A1002000F051FE00BF002C02D1D0
:101460000120009001E00020009001226946182030
:10147000FFF7F2FEF8BD002804D00021904A117059
:10148000904A11700021904A1180904A1180904A30
:101490001180904A1180904A11607047F8B5054656
:1014A0000E462C4688480088002803D084480078DF
:1014B000002877D12078152844D008DC112823D0C3
:1014C000122831D0132836D014281CD141E0162818
:1014D00006D0202868D023287BD02428F5D1A1E08D
:1014E0000020FEF72EFE00BF7CA1002000F006FECB
:1014F00000BF0120400200F0B5FF012070490870D4
:1015000000207549086094E00020FEF71AFE00BF35
:1015100076A1002000F0F2FD00BF042068490870A9
:1015200000206D49086084E0A01CFFF7B7FE05208D
:10153000634908707DE0A01CFFF7FEFE06206049AD
:10154000087076E0A01CFFF71FFF03205C490870BD
:101550006FE0E179A279080210435B490880617A63
:10156000227A0802104359490880A01C04F0A8F907
:10157000594908600020564908805649088000BF34
:10158000A01C04F09DF90746617A227A08021043F4
:1015900000904D4803883A4659A1002000F0AEFD66
:1015A00000BF46E046E0FFE70020FEF7CAFD00BFAF
:1015B00060A1002000F0A2FD00BF0120400200F069
:1015C00051FF07203E49087000204349086030E081
:1015D000FFE7E179A279080210433B490880617A6C
:1015E000227A0802104339490880A01C04F068F9E7
:1015F000394908600020364908803649088000BF14
:10160000A01C04F05DF90746617A227A08021043B3
:1016100000902D4803883A464BA1002000F06EFD53
:1016200000BF06E0A01CFFF7F2FE0320244908706B
:1016300000BF3EE10020234908700027A8E0000019
:10164000B03000204A070020636D64344B5345548A
:1016500054494E4757726974652025782025780DC6
:101660000A000000436F64655570646174653D2530
:10167000642025782025780D0A00000074310020B0
:101680006F746120737A3A257820636865636B73A1
:10169000756D3A2578200000436F6465557064616C
:1016A00074657632303D25640D0A0000436F646531
:1016B0005570646174657633303D25640D0A000011
:1016C00098300020993000209A3000209E30002071
:1016D0009C300020A0300020A4300020434D445F07
:1016E00046575F45524153450D0A0000344B534560
:1016F0005454494E475F4552415345200D0A00005E
:10170000434D445F46575F57524954455F535441D8
:101710005254206F66667365743A25782C73697A23
:10172000653A257820636865636B73756D3A257833
:101730000D0A0000464C415348444154415F455214
:10174000415345200D0A0000464C41534844415442
:10175000415F57524954455F5354415254206F667C
:10176000667365743A25782C73697A653A25782012
:10177000636865636B73756D3A25780D0A00000028
:10178000E85D57490988401855490880781C87B298
:10179000B742F5DB2846E917890F09188910890037
:1017A000691A29D0324629464E4804F04FF84E486F
:1017B0000078022803D04C48007801280AD14B4910
:1017C00009684B4A12888818464A314603F00AF9DC
:1017D000074635E044480078082803D0424800789E
:1017E00007282DD141490968414A128888183D4A85
:1017F000314603F068F823E03B480078022803D024
:101800003948007801280AD138490968384A1288CD
:1018100088182A46314603F0E5F8074610E03248BA
:101820000078082803D030480078072808D12F49CD
:1018300009682F4A128888182A46314603F043F86F
:101840002B48008880192A490880084600882949C1
:10185000098888422CDB2248008827490988884269
:101860000CD11F480288224801880020FFF752FD52
:1018700000BF22A1002000F041FC0CE018480288C3
:101880001B4801880120FFF745FD00BF1FA1002074
:1018900000F034FC00BF00BF1748038810480288DE
:1018A0001EA1002000F02AFC00BF0020FFF7E3FD8E
:1018B00000BFF8BD70B505460C4623480068407867
:1018C000821C2249284603F0C1FF1F480068407867
:1018D000801C20701D4800210160416070BD000027
:1018E000A03000205431002098300020A430002087
:1018F0009C3000209A3000209E3000207365637475
:10190000696F6E204F4B21200000000073656374E7
:10191000696F6E206661696C652120006F74615F7C
:10192000726563656976655F636865636B3A2578A0
:10193000206F74615F73656374696F6E5F63686560
:10194000636B3A25780D0A00B0300020A8300020E3
:1019500010480068FF21013108430E4908607047B4
:101960000C4800680121490208430A490860704791
:1019700010B50023084A7D210901FF20013000F045
:101980002DFC0023054A7D2109010120400200F0C1
:1019900025FC10BDDC300020511900106119001029
:1019A000084800680421084306490860704710B5DC
:1019B0000023054AB921042000F0D9FF042001F0DA
:1019C0007EF810BDF4300020A119001010B5854C30
:1019D00001202061606184A0A0618649E16101214C
:1019E000890221620021A1626162E1627EA020631E
:1019F000814961631021A16300212164E163616475
:101A00007EA1E01D03F053FF7DA1204603F04FFFB0
:101A10002020A07110BDF7B582B004461746002003
:101A20000190E56800BF206900900098A84203D9A2
:101A30000098401B461E04E0A1680098281A401C2C
:101A40000E1AA068401BB04201D9304601E0A068E0
:101A5000401B0646BE4201D2304600E038460646EC
:101A6000616848193246039903F0F0FE0198801925
:101A70000190039880190390BF1BAD19A068A8427C
:101A800000D10025E560002FCDD1019805B0F0BD53
:101A9000F7B582B004461546E668A068871BAF42DA
:101AA00008D9616888192A46039903F0CFFE701996
:101AB000E06010E0019761688819019A039903F0CA
:101AC000C5FEE81B0190039AD1196068019A03F0E2
:101AD000BDFE0198E06005B0F0BD38B505460C4686
:101AE000FF21684601704848015D68464170022246
:101AF00069462846FFF78FFF38BD10B501460A69D1
:101B0000CB689A4204D88C68641EE41AA01801E0DD
:101B1000D41A601E10BDF7B582B00746164603986A
:101B20000190182078432F491831401800900098F0
:101B30004069002804D0012811D0022826D11EE0D7
:101B40000098FFF7DAFF0546B54201D2002405E010
:101B50003446324601990098FFF79AFF18E0009842
:101B6000FFF7CBFF0546B54201D2284600E03046DC
:101B70000446224601990098FFF78AFF08E03246A2
:101B800001990098FFF747FF044601E0002400BFD9
:101B900000BF204605B0F0BDF8B504460D46164618
:101BA00000BF10480078002801D1FFF70FFF00BFE9
:101BB000EFF310800746012080F3108800BF00BFBC
:101BC000324629462046FFF7A6FF0090F8B280F380
:101BD000108800BF00BF0098F8BD10B5FFF7F6FEF3
:101BE00010BD0000C43100205465726D696E616CD7
:101BF000000000000C3200200C360020525454002B
:101C00005345474745520000B830002070B50446A0
:101C10000E46A568681C6168814206D32068465557
:101C2000681CA060E068401CE0606168A0688842B1
:101C30000DD1A26821682069FFF7AEFFA168884234
:101C400003D00020C043E06001E00020A06070BD30
:101C5000FFB585B0064617461D460E9C06980290B5
:101C600001200390019007E03946029803F0C4FD7B
:101C700002900198401C01900298B842F4D2019859
:101C8000854200D901950F98C007C00F00281DD1CB
:101C9000002C1BD002210F980840022804D1002DEF
:101CA00002D13020009001E02020009008E0641E66
:101CB00030460099FFF7AAFFF068002800DA04E038
:101CC000002C02D00198A042F1D300BFF068002898
:101CD00048DB0FE0012D01D96D1E08E0039906983D
:101CE00003F08AFD04900498B84200D203E0039800
:101CF00078430390EEE700BF00BF0399069803F016
:101D00007BFD04900399049848430699081A0690AD
:101D1000F74A0498115C3046FFF778FFF068002816
:101D200000DA07E03946039803F066FD0390039854
:101D30000028E2D100BF0F98C007C00F002811D0C3
:101D4000002C0FD008E0641E20213046FFF75EFF14
:101D5000F068002800DA04E0002C02D00198A042CC
:101D6000F1D300BF09B0F0BDFFB585B006460F4600
:101D70000F9D0E9C002F01DA784200E03846039058
:101D80000120049007E00799039803F04BFD0390AE
:101D90000498401C0490079903988842F3DA049948
:101DA0000898884201D908980490002C06D0002F8A
:101DB00003DB04202840042800D1641E02202840B0
:101DC000002802D00898002815D0E807C00F002886
:101DD00011D1002C0FD008E0641E20213046FFF7FF
:101DE00015FFF068002800DA04E0002C02D0049807
:101DF000A042F1D300BFF06800283ADB002F05DADB
:101E00007F422D213046FFF701FF07E004202840E4
:101E1000042803D12B213046FFF7F8FEF068002894
:101E200027DB02202840022818D1E807C00F00282D
:101E300014D10898002811D1002C0FD008E0641E9E
:101E400030213046FFF7E2FEF068002800DA04E0B7
:101E5000002C02D00498A042F1D300BFF068002803
:101E600007DB0195009439463046089B079AFFF737
:101E7000EFFE09B0F0BDF7B59EB00D46144606A8BA
:101E8000199040201A9000201B901E981D90002051
:101E90001C9000BF2E786D1C002E00D115E1252E60
:101EA00072D100270120189000BF2E78232E12D067
:101EB0002B2E0CD02D2E02D0302E10D103E001207D
:101EC00007436D1C0EE0022007436D1C0AE004204E
:101ED00007436D1C06E0082007436D1C02E000204C
:101EE000189000BF00BF18980028DED1169000BFE0
:101EF0002E78302E01DB392E00DD08E06D1C0A2122
:101F0000169848433146303940181690F0E700BF24
:101F1000002017902E782E2E11D16D1C00BF2E7828
:101F2000302E01DB392E00DD08E06D1C0A211798E8
:101F300048433146303940181790F0E700BF2E78FB
:101F400000BF6C2E01D0682E02D16D1C2E7800E0EF
:101F500000E0F6E700BF662E52D00CDC582E40D0D1
:101F600004DC252E75D0462E74D14AE0632E0CD0A9
:101F7000642EF9D116E0702E6DD0732E6DD0752EB3
:101F80001FD0782EF0D12BE097E02168081D20604B
:101F9000086818901898C0B2059019A80599FFF71D
:101FA00035FE87E02168081D2060086818901698A3
:101FB000019700900A2219A8179B1899FFF7D4FEE1
:101FC00078E02168081D206008681890169801972D
:101FD00000900A2219A8179B1899FFF739FE69E0AB
:101FE00000BF2168081D20600868189016980197A6
:101FF0000090102219A8179B1899FFF729FE59E0A5
:1020000000BF002003900490059003A80290206870
:10201000C01DC008C00001460830206003C90191FE
:10202000009034A103A8019B009A04F019F800BFA6
:10203000029806780298401C0290002E00D106E01B
:10204000314619A8FFF7E2FD1C980028F0DA00BF1E
:1020500030E029E02DE017E0FFE72168081D20604F
:102060000868059000BF059806780598401C059003
:10207000002E00D106E0314619A8FFF7C7FD1C98D5
:102080000028F0DA00BF15E02168081D206008680C
:102090001890002008210B4610220091019019A8E9
:1020A0001899FFF7D5FD05E0252119A8FFF7AEFD2A
:1020B00000E000BF00BF6D1C03E0314619A8FFF728
:1020C000A5FD1C98002800DBE4E600BF1C98002852
:1020D0000BDD1B98002804D006A91B9A1E98FFF759
:1020E0005BFD1B991C9840181C901C9821B0F0BDFA
:1020F0008A69001025342E33660000000FB438B50D
:10210000044606A800906A4620460599FFF7B3FEEC
:10211000054600200090284638BC08BC04B018478B
:10212000FFB581B00D4616461F460024002D03D092
:1021300029460198FFF7E2FF00241EE02046E11740
:10214000490F0918C910C900611A04D1A2B213A11C
:102150000198FFF7D3FF325D12A10198FFF7CEFF80
:10216000601CC117490F0918C910C900411A03D1D1
:102170000EA10198FFF7C2FF641CBC42DEDB2046C3
:10218000E117490F0918C910C900611A03D007A146
:102190000198FFF7B3FF05B0F0BD00005B253034B8
:1021A000785D200025303278200000000D0A000004
:1021B0000448804704480047FEE7FEE7FEE7FEE7E5
:1021C000FEE7FEE7CD210010C100001001480249E2
:1021D000086070470024F400CC30002070B51E4623
:1021E000002915D0F84DAC696B699C4210D205C42A
:1021F0000846083C03F07EFDF44AF54B03F07EFCF4
:1022000003F086FDA0602673002060611834AC6185
:1022100070BD884200D308467047002206E00021C6
:10222000491C89B21829FBD3521C92B28242F6D3C0
:10223000704710B5E44C60682030017CC9070FD0AE
:10224000017C490849000174082000F0D5FA606853
:102250002030417C0122114341743220FFF7DDFF21
:1022600010BD70B5D84C0D46616803462031087C1E
:10227000C00706D0087C4008400008743220FFF7F1
:10228000CCFF626820321375180A5075180C9075CF
:10229000180ED075107CEF2108401074907C400817
:1022A00040009074CB480560507C01252843507451
:1022B000082000F098FA60682030017C29430174FE
:1022C00070BD10B5C04A9268062A02D800F004F822
:1022D00010BDFFF7C6FF10BD70B5BB4D18212878A3
:1022E000AE68484369690C1A286980192861002082
:1022F000C043A86018E0207B002814D02069B042B9
:1023000004D16068002807D0804705E0801B206169
:1023100002D0A168884201D9A0682061A9688842DA
:1023200000D90846A860183468698442E3D3A868D5
:10233000002805D0411C03D0A749FFF7C2FF70BD9C
:10234000FFF777FF70BDF0B59F48A44D416840315D
:102350000B7918464B791B0218438B79CA791B04F9
:10236000184312060E79104332464E793602324334
:102370008E79CB79360432431B060F791A433B46DC
:102380004F793F023B438F79CE793F043B4336067A
:102390003343641C904201D19A4201D0AC42D7D35E
:1023A000F0BDF8B50446FFF7CEFF874A91680B1AD7
:1023B00013610023884200D913610020C04390605C
:1023C00011781820414350691769411A17E00D68C8
:1023D000A54202D10B734B6110E00D7B002D0DD097
:1023E0000D69ED1B0D6102D08E68B54201D98D6873
:1023F0000D619668B54200D82E469660183181422C
:10240000E5D39068002805D0411C03D07249FFF73E
:1024100058FFF8BDFFF70DFFF8BDF3B581B00646D4
:10242000FFF7BFFF684818220178456951436C1ACD
:10243000664F0FE02068B0420BD1A068206102987F
:1024400003F058FC3A46624B03F058FB03F060FC83
:10245000A0601834AC42EDD3FEBD5B49CA6882432C
:10246000CA607047F8B5584C054620781821484393
:102470006169081A06E00268AA4202D1027B002ABA
:102480003AD118308842F6D3FFF75DFFA1680A1AE7
:102490002261884201D9002020610020C043A06051
:1024A0002078182163694843191A0127266919E021
:1024B0000868A84203D1886808610F730BE0087BA5
:1024C00000280ED00869801B086102D08A689042FB
:1024D00001D9886808610246A068824200D8104687
:1024E000A06018319942E3D3A068002805D0411CB0
:1024F00003D03949FFF7E5FEF8BDFFF79AFEF8BDB6
:10250000F8B5314C0546E068A843E060FFF71BFFD3
:10251000A1680A1A2261884201D9002020610020A6
:10252000C043A0602178182063694143591A0127EC
:10253000266919E00868A84203D1886808610F730A
:102540000BE0087B00280ED00869801B086102D0D0
:102550008A68904201D9886808610246A068824270
:1025600000D81046A06018319942E3D3A068002833
:1025700005D0411C03D01849FFF7A3FEF8BDFFF7B3
:1025800058FEF8BD104918220B7853434A69D11AF6
:1025900005E00B68834201D1087B704718319142F6
:1025A000F7D3FF20704770B50D46044602F0D2FA0B
:1025B000002808D00448182104704C436119856133
:1025C0004161FFF736FE70BDD0300020FCA9F1D28A
:1025D0004D6240401C360020D9220010FF3F000011
:1025E0008C494A68114620310875030A4B75030C63
:1025F0008B75000EC8758B7C012003438B744B7C5C
:1026000003434B740B7C03430B742032D37CDB07F6
:10261000FCD00A7C520852000A744A7C02434A7475
:1026200070477C4840682030C17CC90708D0417C95
:1026300001221143417478480068002800D0004707
:10264000704770B5734C064660680D462030017CBB
:10265000FD238907002905DA017C19400174322025
:10266000FFF7DBFD626820321676300A5076300CB8
:102670009076300ED076107C202108431074907C28
:102680001840907464484560507C0225284350747B
:10269000092000F0A8F860682030017C294301740B
:1026A00091E710B55B4C60682030017C89070FD53D
:1026B000017CFD2211400174092000F09DF8606842
:1026C0002030417C0222114341743220FFF7A5FDE6
:1026D00010BD504840682030C17C890708D5417C36
:1026E0000222114341744C484068002800D0004742
:1026F000704770B5474C064660680D462030017C37
:10270000FB234907002905DA017C194001743220B6
:10271000FFF783FD626820321677300A5077300C5D
:102720009077300ED077107C402108431074907C55
:102730001840907438488560507C042528435074B4
:102740000A2000F050F860682030017C29430174B1
:1027500039E7304808214068403041180A7810466F
:102760004A78120210438A78C97812041043090685
:102770000843704727480C214068403041180A78C8
:1027800010464A78120210438A78C978120410431E
:1027900009060843704710B51E4C60682030017C64
:1027A00049070FD5017CFB22114001740A2000F07B
:1027B00023F860682030417C0422114341743220A8
:1027C000FFF72BFD10BD134840682030C17C49073E
:1027D00008D5417C0422114341740F4880680028C9
:1027E00000D000477047002805DBC106C90E012054
:1027F00088400A490860704700280ADBC106C90EF4
:1028000001208840054980310860BFF34F8FBFF336
:102810006F8F7047D03000201C36002000E100E0B0
:1028200018B5F64800680090002069460B5C0A2441
:102830001A0962431B070A541B0FD2180A54401C82
:102840000328F3DB009818BD08B5FFF7E9FF0090F7
:1028500068460178C078EA4A401E50430A18684624
:102860008178E12000014143684640783C23584389
:1028700008181118E34A1069814201D3081A02E0CE
:10288000E14B081AC018116108BD70B50D4600284B
:1028900002D0DA4E083E01E0D84E0C3E0024285DFE
:1028A0000A2102F0A9FF000101432955641C032CF1
:1028B000F5DB284603F004F830606420FFF7ADFC38
:1028C000CE482038C17A08221143C17270BD38B594
:1028D000CC4909694418CA49204602F08DFF421CC0
:1028E0006846C270E12508462D01294602F084FFA2
:1028F0000246684682702946204602F07DFF08465F
:102900003C2102F079FF0146684641703C21204697
:1029100002F072FF6846017069460020FFF7B5FFBC
:1029200038BD38B5FFF77CFF009068460178C07865
:10293000B34A401E50430A1868468178E1200001DE
:102940004143684640783C23584308181118AD4B62
:10295000AE485A6A0468914201D38A1A02E0AA4D2D
:102960008A1A5219A21802601046596238BD70B511
:1029700000290BD0A34D6E69AC69B44206D2A160A8
:1029800005C423710020E0601034AC6170BD884242
:1029900000D308467047994920398A7A0F23834328
:1029A000887A1A400009000110438872704770B598
:1029B000C00742D0934C182160786668484361692B
:1029C000081A0A4603E0037B002B02D1183090421C
:1029D000F9D3884231D2FFF737FFE1686068081801
:1029E000E0600020C0436060617818204143606966
:1029F000451A18E0287B002814D02869B04204D179
:102A00006868002807D0804705E0801B286102D055
:102A1000A968884201D9A86828616168884200D9FC
:102A200008466060183560698542E3D36068002815
:102A300004D0411C02D0FFF74AFF70BD0120FFF710
:102A4000AAFF70BD6F498A6882438A607047F8B5F3
:102A50000446FFF7F9FE6B4AD06072B60021C94305
:102A600051605178182359435369591A002717E0C8
:102A70000D68A54202D10F734F6110E00D7B002D50
:102A80000DD00D692D1A0D6102D08E68B54201D9A5
:102A90008D680D615668B54200D9354655601831CC
:102AA0009942E5D35068002804D0411C02D0FFF7BA
:102AB0000EFF02E00120FFF76EFF62B6F8BDF8B529
:102AC000504C05466078182148436169081A06E0B1
:102AD0000268AA4202D1027B002A38D1183088420B
:102AE000F6D3FFF7B1FEE06072B60021C943616022
:102AF0006178182266695143711A012719E00A6842
:102B0000AA4203D18A680A610F730BE00A7B002A8C
:102B10000ED00A69121A0A6102D08B689A4201D952
:102B20008A680A6113466268934200D81A46626056
:102B30001831B142E3D36068002804D0411C02D0B0
:102B4000FFF7C5FE02E00120FFF725FF62B6F8BDE2
:102B50002C49C8617047F1B582B0FFF775FE294D69
:102B6000E86072B60021C943696069786E6918220D
:102B700051430090741AEF6920E02068B84209D1EF
:102B80003C21029802F038FE3C20401A20610120CE
:102B900020730CE0207B00280FD021690098081AD0
:102BA000206102D0A168884201D9A0682061206913
:102BB0006968884200D9084668601834B442DCD39A
:102BC0006868002804D0411C02D0FFF780FE02E0B4
:102BD0000120FFF7E0FE62B6FEBD0A4918224B78DD
:102BE00053434A69D11A05E00B68834201D1087B3F
:102BF000704718319142F7D3FF207047C010005042
:102C000080510100EC300020803A0900B4300020EF
:102C100071490878002808D17048C37A012213430B
:102C2000C372C37ADB07FCD10A7070476A49086235
:102C300070476A498A7A024310078A7A000F12099C
:102C4000120102438A72704764498A7A1209024368
:102C500010018A7A1207120F02438A72704770B508
:102C600005460024285D0A2102F0C6FD000101434B
:102C70002955641C032CF5DB284602F021FE574938
:102C80002039C86370BD554A138A401EDB0BDB0335
:102C90004004400C03431382907C090700090001A3
:102CA000090F0843907470474C48C17A04221143BD
:102CB000C172C17A4907FCD4704747490878012896
:102CC00009D14648C27A02231A43C272C27A9207D5
:102CD000FCD4002008707047F3B581B0FFF7EDFF1A
:102CE000FFF7E2FF01200021C003FFF7CCFF6420C3
:102CF000FFF793FA01216846C17000248470447084
:102D00000470FFF7ACFF344D07262C616846C6708F
:102D1000172787703B244470047069460120FFF731
:102D2000B4FD6846C6708770447004706946002020
:102D3000FFF7ABFD0F20FFF787FF0F20FFF72BFEFC
:102D40000120FFF776FF02982862FFF761FF244910
:102D500004200860FEBD70B50D46044601F0FAFE81
:102D600000280BD01C48182144704C436119856120
:102D7000416101201B49C003FFF7AEFF70BD10B5D4
:102D80001648407A03071B0F1846FFF75DFF1248ED
:102D9000016A002901D01846884710BD0E48007806
:102DA000704718B5002802D00C48183001E00B48D5
:102DB000143000680090002069460B5C0A241A0950
:102DC00062431B070A541B0FD2180A54401C0328E5
:102DD000F3DB009818BD0000EC300020A01000507C
:102DE00000E100E0AF290010F1B5F948804707463F
:102DF000F84880470646F64C0120183CA047F54DA0
:102E000000200C35A847F449009888473046A84769
:102E10003846A047F8BDF0B5F04DF148E96885B0F7
:102E20000818044602F04CFD2146401C02F052FDF9
:102E30000024EA480125C668E9480C383118039196
:102E4000487C097C00020843A540284202903BD000
:102E50000B2060438119E248009109300818019065
:102E600002F02EFD0746DE48301802F029FD8742A9
:102E70002AD10F21009889014018007D00280CD02C
:102E8000D74A00990D3A8A18517D127D09021143E3
:102E90007818019902F01EFD05E002980399A843F5
:102EA0000874000A4874CE4800990D30081802F0E2
:102EB00007FD002808D0022D19D0042D17D0082DA9
:102EC00015D0102D1AD08047641CE4B20A2CB0D360
:102ED000C248C168C2480C380918487C097C000205
:102EE0000843800501D1BF48804705B0F0BDBE4909
:102EF000012088470028E7D0222005E0BA490120B8
:102F000088470028E0D03B20FFF76EFFDCE710B5D4
:102F1000B24912200969887072B60121B14A0320B2
:102F2000B43A904762B610BD10B50C4601788CB02B
:102F30000A07120F69460A700178CA0969464A7081
:102F4000811C00A80622023002F080FC08A90C7245
:102F5000012129220905A54C6B460020A0470CB091
:102F600010BDF0B585B00020694608700872A04E0B
:102F70000873A04DA04F994CB047E07103AB02AA73
:102F80006946606902F032FB0028AED00820A847ED
:102F9000002803D00220A847002811D06846007AF4
:102FA000012813D060690190E068407A012872D04E
:102FB0000228E1D1904AE179963A01989047DBE7FF
:102FC000012168460172007B00281CD060690190D5
:102FD0002521E06849014118497B002908D0804932
:102FE000D4314018417B027B080284491043884752
:102FF000019802F040FB0028BED001980078C04341
:10300000800704D009E03D20FFF7EEFE6DE7019850
:103010008078122810D0142814D060690178C94330
:10302000890705D04179027909021143042926D084
:1030300069460978B8479FE721691320887072B6FE
:10304000012116E02369152098701B22DA700020F8
:1030500018717D22D91C5201581C5A71130A4371F0
:103060001B230B7100234B710272110A417272B65D
:1030700009215C4A0320B43A904762B67CE7EFF33B
:103080001081049172B669460978B847049981F3B2
:10309000108871E7FFE7019800780007000F052806
:1030A00006D003288BD1E1790198FFF73DFF63E754
:1030B0000198417E027E08021043062806D301983B
:1030C000427F017F100208430A2803D2424912209E
:1030D000884751E746490198EE31801C884701989E
:1030E000872200784006C10FE0681154019906223A
:1030F0008830891C02F0AAFB3721206902F0BFFB4F
:103100003AE7F0B5384999B00420884700280ED036
:10311000354904201A31884732491F20AC3188478D
:10312000374880471620FFF75FFE19B0F0BD3548DD
:103130008047002810D0294DEC68A1790807F4D504
:10314000E079C2071CD03049204698308847E868AB
:10315000C179490849001FE02A4E294F284DB2364F
:103160001C376C46103507E06846B0470128DCD1B3
:1031700068460178601CB847A8470028F4D0D4E717
:1031800082070BD5204A20461C328E30811C904786
:10319000E868FD22C17941E0C171C6E7420708D560
:1031A000194920466031A8308847E868FB22C17978
:1031B00034E00207F726002A28DA134A2146423271
:1031C000A07A0B319047E868C1793140E4E700000C
:1031D000BF650000776A0000CF16000014310020A0
:1031E000CE03000001120000F50A0000A13E00001D
:1031F0004957000079190000211F00002B620000D0
:10320000BD600000054E000027260000C00607D55F
:10321000F84968468847E868EF22C1791140BBE762
:1032200020463140FF30A1712130017D0026002968
:1032300010D006752146072287310CA802F006FB44
:1032400021460DA82A228E31033002F0FFFAEA4906
:103250000CA8884701206946087048708E70E9689C
:1032600000A82A2203308E3102F0F0FA2D22082124
:10327000E24C6B460020A04757E7E1490128896AE4
:103280000FD0022811D0042812D0082813D01028FB
:1032900014D0202815D0402816D0802818D001201E
:1032A00070478878C007C00F7047887880070DE0A6
:1032B000887840070AE08878000707E08878C00629
:1032C00004E08878800601E088784006C00F7047E7
:1032D0008878C009704710B5017801291FD1401CBA
:1032E00002F0EEFAC64A10283AD00DDC012817D0B9
:1032F00002281DD0042823D0082810D1FFF7BDFFD5
:1033000000280CD1BF4809E0202839D0402806D138
:10331000FFF7B3FF002802D1BA485430804710BDF0
:103320000120FFF7AAFF0028F9D1FFF7EAFE10BD40
:103330000220FFF7A2FF0028F9D1FFF712FE10BD0F
:103340000420FFF79AFF0028F9D1D068407A0128BD
:1033500003D00228F3D1AC48E0E7AB48AE38DDE754
:103360001020FFF78AFF0028E9D1906A2030407DC5
:10337000400701D53E2000E00820FFF735FD10BDD5
:103380002020FFF77AFF0028F9D19E484830C5E792
:1033900070B5102508269A4C002821D0A06A817E9D
:1033A00031438176014660310A7E637852095201C9
:1033B000DB06DB0E1A430A762030427B067B1302C3
:1033C000E26833432332547C167C22023243934218
:1033D00014D00273120A4273C87D2843C8750DE0E9
:1033E00002F0F1F8A06A0022014620310A734A7304
:1033F0006030C17D2943C17584480677012070BDC6
:103400007F48C0682330417C027C080210430BD007
:103410007F4948780A78000210430322104308705D
:10342000000A48700120B3E7704730B4794CA446D5
:1034300030BC6047F8B57648407A000663D57048DE
:10344000C66830462330417C007C0F027049074338
:103450004878097804020C43002F01D1600752D547
:103460006B4DA87B697B00026D1C08434BD0002F7D
:1034700049D068792979000208432ED12136707C21
:10348000317C0002084302F035FC0022624B02F05E
:1034900035FB02F03DFC80B27843642102F0C2F9B2
:1034A0004004010C2971080A68710A204143707DAB
:1034B000327D00021043814206D30A21401E02F0F1
:1034C000B1F92871000A6871687929790002084306
:1034D00003D101202871002068714D48A10709D54A
:1034E00002218C4301210C430470210A4170002009
:1034F000FFF74EFF68792A7901021143474B0022FA
:103500004020FFF792FFF8BD1CB541494A7A002AD6
:1035100040D04A780B7812021A43D3063AD4437843
:10352000047818022043012834D1C878401E0006D0
:10353000000EC8702FD08B780846017BC47A0A022F
:103540002243017AC47909022143C01C012B2AD0ED
:10355000521A0272120A42721206037A120C1A43AB
:10356000521A69460A80427A017A120612140A43F4
:1035700069464A8026498A7B497B12020A4369468A
:103580008A80417B027B080210436946C880244937
:10359000684688471CBD887AC870402002430A707C
:1035A000100A48701CBD5218D3E71E4A10471D4A26
:1035B0002032104738B5002469460C7021467F2020
:1035C000FFF7F5FF00213B20FFF7F1FF29213B200A
:1035D000FFF7EDFF69463B20FFF7E7FF68460078FD
:1035E000800701D5012038BD641CA4B2FF2CF1D99D
:1035F000002038BDA3260000DF470000A13E0000E8
:103600001431002079160000271500002000024028
:103610007F360020AB4400000000F43F013400106E
:1036200033420000C561000010B5FE48804701200C
:1036300010BD10B5FC49FD4A8870002807D1C86844
:103640008078022803D000209047012010BD01207F
:10365000FAE710B5F44C0128E168887004D000281E
:1036600034D0022849D05CE0206B014620310A7832
:10367000520852000A700A78FD231A400A70017835
:10368000890989011C3101704178890989011C313E
:10369000417000217F20FFF78AFF03212120FFF7DF
:1036A00086FF1F210320FFF782FFE1493220884770
:1036B00002217F20FFF77BFF01210020FFF777FF2A
:1036C00000217F20FFF773FF0F2127E000217F20DB
:1036D000FFF76DFF00210420FFF769FF02217F2023
:1036E000FFF765FF00210846FFF761FF00217F20FB
:1036F000FFF75DFF0021032011E002217F20FFF78B
:1037000056FF03210020FFF752FF00217F20FFF723
:103710004EFF00210320FFF74AFF00210420FFF79E
:1037200046FFA078FFF785FF012010BD10B5FFF719
:1037300090FF012010BDBB4810B50C308047BA483F
:10374000C06A017ADF2211400172012010BDFEB56E
:10375000B54C01202071B548183080470190E06ACF
:10376000817A007ACF07FF0F0026800702D001265A
:10377000FFF7E1FFAC48C06A817A490849008172CD
:10378000AA49012088470220FFF763FFA849642067
:103790001A398847002069460870054601217F20B4
:1037A000FFF705FF00210A20FFF701FF22210A2071
:1037B000FFF7FDFE69460A20FFF7F7FE684600782E
:1037C0004007EFD4002469460A20FFF7EEFE684662
:1037D0000078400705D568460078000706D4012523
:1037E00004E0641C9348A4B28442ECD39049642062
:1037F0001A3988470020FFF72CFF8C490198884729
:10380000894CE06A817A4908490039438172002E67
:1038100001D08448804700202071002D01D0012074
:10382000FEBD0020FEBD10B51121834802F027F82F
:1038300010BD70B50446401C02F042F8022818D0B2
:10384000042819D00121490488424AD1254620354F
:10385000687B092301070209090F0020072A1FD0EE
:10386000032A23D0022A28D0012A2CD0002A30D0C3
:1038700035E0FFF7D8FF3DE06B4D0121E868FF30F0
:103880002130017501F042FFE8688078002804D1FA
:103890002879002801D1FFF75AFFFFF78BFE29E0B6
:1038A000581A062148434121C94304E0581A062109
:1038B00048433521C943081A10E0581A06214843E5
:1038C0002321C943F7E7581A062148431721C94362
:1038D000F1E7581A06214843801D404240B2687300
:1038E00008E040281DD00121C903884202D1601D93
:1038F000FFF70AFE5049487809780002084380061D
:1039000007D5601C01F0DCFF0005000F01D0FFF7B8
:1039100091FD45483C3001F0D3FF014620468847E1
:1039200070BD4148383001F0CBFF4006E2D570BD94
:10393000F0B53D4C0646E0688DB0FF302130407C4C
:103940000D46002829D0002D26D072B6A068183068
:1039500001F0B6FFE1683222FF312131897C374B1B
:10396000514340186A463221984762B6002E04D06F
:10397000E068FF302130807C3070E7680A21FF3733
:103980002137B87C401C01F037FFB974E078401C47
:10399000C0B2E0700A2802D900200DB0F0BD684620
:1039A00000780128D1D100A907222846013101F071
:1039B0004DFF2A22E81D02A901F048FF0120ECE793
:1039C000F0B505461E498DB020208847164C0426C8
:1039D000E16820690F4686700822C01CC931BD37D6
:1039E00001F034FF2069042239460B3001F02EFF2C
:1039F0000D21144A03209047E068294608220A3125
:103A0000C13001F023FFE068294604221231B930A9
:103A100001F01CFF287A0C4F002802D1687A002898
:103A200034D013E00747000014310020A7650000E0
:103A300045620000FFFF00007F3600205953000060
:103A4000050B00004D110000192200000020E0705D
:103A5000E0682A7A01468030837B9A420AD16A7AEA
:103A6000C07B824206D108222846903101F012FF25
:103A7000002817D069460020FFF75AFF012826D0FA
:103A800006220021F84B0120984786E7E0680222D1
:103A90008179114302468171C132FF3011461030E5
:103AA000B84710E0E0688179024631438171C13244
:103AB00011469830B847E06880308079012802D1FB
:103AC000EA4902208847E848A030804765E7E06877
:103AD00001A92A228E30033101F0B8FEB8E77CB587
:103AE000451C8078297800020843E14C022810D058
:103AF0000F2810D001211D2810D0FF3810280DD01C
:103B0000DC4A69460120904768782978000208431A
:103B100002E0032000E00220A0717CBDA1717CBD09
:103B2000D34880797047D44908471CB5D348082149
:103B3000017000214170017BC27A0902C01C11434F
:103B400041D04279037912021A43891A0BB26A46AC
:103B50001380417A027A0906091411436A4651809A
:103B600019220624D201062B02DA6B461C8003E0E0
:103B7000934201DD6B461A80062902DA69464C80C1
:103B800003E0914201DD69464A80417B027B0802E5
:103B900010436946C880B948817B427B08021043C4
:103BA00069468880B248C0682330417C027C0802A4
:103BB000104302D00020FFF7EBFBB149684688476D
:103BC000AD49402088471CBDAC4948780A780002BE
:103BD0001043C2050CD5FF22013290430870000A41
:103BE00048700879401E0006000E087109D09CE755
:103BF0002022104310229043042210430870000A30
:103C000048707047FEB59D4D0446687829780002DB
:103C1000084300077ED59B48804769782A780902C7
:103C200011430822914329700A0A6A706B7A06468A
:103C300028461A066FD5A27967791202651C3A43A5
:103C40008B4FE41C002A77D01022114301700A0A1E
:103C5000427088065FD4687929790002084332D01F
:103C600002F048F801910090607821780002084342
:103C700002F040F8844C0022234601F03FFF019BF4
:103C8000009A01F03BFF01910090F8682130417CDF
:103C9000027C0802104302F02DF80022234601F0B6
:103CA0002DFF07460C46687A297A00020843801BDC
:103CB00002F00CF83A46234601F020FF019B009ADF
:103CC00001F06AFE24E0607821780002084301F0E8
:103CD000F5FF0446F8682130417C027C080210435D
:103CE00001F0ECFF214601F0FEFD02F02FF800226A
:103CF000654B01F003FF07460C46687A297A0002FB
:103D00000843801B01F0E2FF3A46234601F0F6FE2D
:103D1000002202E06DE063E00EE05C4B01F056FF34
:103D200001F0F6FF0104090C00D10121584B0022DB
:103D30008020FFF77AFB53E09A0651D58278012A5A
:103D40004ED18A064CD4FF224C48013211430170F7
:103D5000090A4170607821780002084347490A7BCC
:103D6000CB7A1102194388423AD901F0A7FF0446E1
:103D7000F8682130417C027C0802104301F09EFF6C
:103D8000214601F0B0FD01F0E1FF00223E4B01F0C1
:103D9000B5FE07460C46687A297A00020843801B64
:103DA00001F094FF3A46234601F0A8FE0022374B6B
:103DB00001F00CFF01F0ACFF0104090C00D101215E
:103DC000334B00228020FFF730FB2C4841780278EB
:103DD00009021143FF22013211430170090A4170A7
:103DE000032069460881022291032A4C02AB00207D
:103DF000A047FEBD10B50446007800280DD1A1787B
:103E000062780802104309D001281ED0032827D069
:103E10000C2802D1201DFFF762FE10BD01F0D3FB7C
:103E20001D49201D8847002802D12820FEF7DCFF0D
:103E3000201DFFF7E7FE0E480121C3680622090492
:103E40000020144C3133A04710BD01F0BCFB1349D6
:103E5000201D88470028F7D12820FEF7C5FF10BD98
:103E6000201DFFF7ADFD10BDD9190000050B0000A6
:103E7000143100201F1D0000B34400007F360020D5
:103E800033420000BF5500000000F43F00005940DD
:103E9000C93B0010A13E00005D5B0000475F0000D1
:103EA00010B50078012801D1FEF7B5FF10BDF0B5BF
:103EB000F74885B0804701217F20FFF778FB6946EE
:103EC0005020FFF772FB68460078042801D0F148C3
:103ED0008047FFF76FFBF04CE0688078012843D003
:103EE000022867D0FFF733FC01256846458005802E
:103EF000EA480190EA496846884768460570457077
:103F000000254580E7480190E74BE06808226946B4
:103F1000C01801F09BFC0121E44E4020B047012174
:103F20008020B04701212020B047FF210C31684696
:103F300001800B2141808580C58005814581858177
:103F4000C581DB48D64904906846A2398847A068F5
:103F50000A3001F0B5FCD84BD64A5721984701F0FA
:103F6000D5FB012005B0F0BDD44880470090E06A41
:103F7000067A817ACD07817AED0F4908490081726E
:103F8000CE4F0120183FB847B00701D0FFF7D3FB51
:103F90000220FFF75EFBCA49642088470120FFF733
:103FA00058FB0098B847E06A817A490849002943DC
:103FB000817299E70220FFF74CFB95E7B44810B5F2
:103FC0000A308047012010BDB14910B5283188471B
:103FD000012010BDAE4910B55E318847012010BDEB
:103FE000AB4910B56A318847012010BDA84910B50A
:103FF00078318847012010BDA54910B58831884720
:10400000012010BD10B5A24CF034A047012010BD16
:10401000F8B5A14CAB49E0683730884720693B23AD
:104020000178BF250A09E16812015B5C1B071B0FC1
:104030001A4302701207120F012A79D00B4640333F
:104040005A781B7812021A430B4642331A70120A2E
:104050005A7002788B7A2A409B011A435206520EFC
:10406000027066235B5C42789B1D92099B0692015D
:104070009B0E1A4342700622801C0B3101F0E6FBB6
:10408000E1686620425C002A04D02069673108306C
:1040900001F0DCFBE06800212030417720698A4A8A
:1040A00041788906890E891C9047206901780A09A0
:1040B0001201121D0270E1682A408B7ADB075B0E49
:1040C0001A43027046235B5C42789B1D92099B0653
:1040D00092019B0E1A4342700622801C0B3101F0A4
:1040E000B5FBE1684620425C002A04D020694731D4
:1040F000083001F0ABFB2069734A41782C32890605
:10410000890E891C9047E068012705462035E97E25
:1041100001293BD000294CD002294AD0062948D099
:1041200000236A4C1A4601211846A047F8BDFFE754
:104130000A464032137953718B7A0278DB072A40A2
:104140005B0E1A43027087235B5C5206520EDB0142
:104150001A43027042780B31920992010C3242707C
:104160000622801C01F072FB2069E16806220830FB
:10417000883101F06BFBE16803223D204254514A33
:104180008720405C323A8831904787E74030417958
:1041900000290AD028200621A26A937EFD2423400C
:1041A000937617756B7F2A7F46E0477101200146A1
:1041B000F2E706464236717832780B02134318D084
:1041C000192189014B432230417F047F080220439B
:1041D00001228004800C009007D00146184601F0AF
:1041E0000BFB020012D07F2A12D8D4B23770380AE3
:1041F00016E03770390A71702230417F027F080261
:10420000104301248004800C00900AE00122ECE7B6
:104210007F24104621467E3001F0EEFA3070000A0D
:1042200070701D48806A817E022211438176077575
:104230006B7F2A7F009920461C4CFE34A0472448FF
:10424000804773E710B5FFF7E3FE012010BD10B5FE
:104250002049032008701A4964201A3188470D4804
:1042600010308047012010BD72B600210A4A906AC2
:104270004175037C01210B430374D068452211541E
:10428000423001700021417062B601207047000089
:10429000793D0000F746000014310020A13E0010D7
:1042A0002F440000D7320010CE02000061550000FC
:1042B000F53D00102836002059530000BF6500006E
:1042C0002B620000B1570000D9600000A13E000041
:1042D0009D5600000000024010B5F94988470120B2
:1042E00010BDF0B5F74CA56A2C4660342678FD2742
:1042F000C0073E40800F06432670A1706270623591
:104300002B71180A687105982071000A6071F0BD60
:10431000F8B5EC4DEC49E868373088471120EF6874
:10432000002480013D186E79A8790321401C01F01A
:1043300063FA01208840A971064203D1641CE4B2EB
:10434000032CF1D31125AD017C19607B217B000288
:104350000843A91C7F18010ADA4E387379730028C4
:104360000BD0607A227A010219201143800101F0FA
:1043700043FA0206120E04D004E001203873002034
:1043800078730122787A397A000208430090607AC3
:10439000217A03020B43A079CC49095CE079FFF74D
:1043A000A0FFF068002140190171C17001744174CF
:1043B0008178002901D0082901D908218170C248DB
:1043C0008C388047B2E610B5FFF7A2FF012010BD80
:1043D00010B5BF488047012010BDBD4910B5083158
:1043E0008847012010BDBA4910B516318847012011
:1043F00010BDB74910B578318847012010BDB149CB
:104400004870012042E7B24910B586318847012043
:1044100010BDAF4A10B58E329047012010BD7CB55B
:10442000054601F04DFAA7490446383101F052FA29
:10443000281D01F045FAA3493C3101F04BFA402018
:104440008443A448A2490190009468469631884765
:1044500001207CBD10B5A0498847012010BD9E4AAF
:1044600010B508329047012010BD10B59B48804719
:10447000022801D9002010BD012010BDF8B50E465C
:104480009749074648780978000208431C461546B4
:10449000800609D58B48806A2030417B027B080268
:1044A000104301D0FEF7C6FF8E490120884700283F
:1044B0000CD08A488047022809D972B62346864C18
:1044C0002A46314638461834A04762B62EE6002008
:1044D0002CE68549084710B50446824901208847E3
:1044E000002803D0804920460831884710BD70B5A8
:1044F00005467C4A0C4601209047002804D07A4AA1
:10450000214628462232904770BDFFB50F4681B044
:1045100074491D46164601200A9C8847002807D08A
:104520000094714C2B463246394644340198A047DA
:1045300018E5F8B50E4607466A491C46154601209F
:104540008847002806D02346674C2A46314638461D
:104550007C34A047EAE510B504466249012088474B
:10456000002803D060492046AC31884710BD70B5A3
:1045700005465C4A0C4601209047002804D05A4A60
:1045800021462846C632904770BD70B50546554A4B
:104590000C4601209047002804D0534A2146284663
:1045A000E832904770BDF8B50E4607464D491C46A7
:1045B000154601208847002805D023464B4C2A4643
:1045C00031463846A047B1E570B50D460646454927
:1045D000144601208847002805D0444B224629462E
:1045E00030463033984770BD70B50D4606463D499C
:1045F000144601208847002805D03C4B2246294616
:1046000030465C33984770BDF8B50E4607463549CD
:104610001C46154601208847002806D02346334C07
:104620002A46314638468834A0477FE510B504460F
:104630002C4901208847002803D02C492046B83156
:10464000884710BD10B5274901208847002802D0AF
:104650002648CC30804710BD70B51A4D0446082856
:1046600004D0E868407808280DD014E000217F20AD
:10467000FEF79DFF01214020FEF799FFE86A0178CF
:10468000C908C9000EE000217F20FEF790FF00213D
:104690004020FEF78CFFE86A01786207C908C9006C
:1046A000520F11430170E8684470012070BDD3E7D8
:1046B00010B504460E4880472070012010BD000050
:1046C0000141000014310020B15700009C69001026
:1046D0001D420000333800102D4300002B4E000017
:1046E0007F360020F50A0000B73A0000BB3B00000F
:1046F0009F44000010B50446FE488047207001200A
:10470000DCE7FC4910B5163188470120D6E7F948A7
:1047100010B56C3080470120D0E7F7480047F749D3
:104720000847F6491A31084708B5F54968468847E9
:104730006846C0788007C00F08BD08B5F0496846D4
:1047400088476846C078C00900D0012008BD10B570
:10475000FEF72BFFB2E710B5FEF729FFAEE7E948F9
:10476000806AC07B052805D0062803D00F2801D019
:1047700000208BE5012089E510B5FFF7F0FF002848
:1047800002D1DC484C308047012097E710B5DD4965
:104790000122886A4275437CDB09DB019B1C437460
:1047A000931E83741B0AC374C96ACB7AEF24234017
:1047B000CB724B7B93434B738B7A13438B72817E0B
:1047C000022319438176017C11430174CB490520F2
:1047D0001A318847CC48804701206FE7CA4810B596
:1047E00012308047012069E7C54910B57E318847FE
:1047F000012063E7C24910B59631884701205DE783
:10480000C14910B558318847012057E7BE49AC313E
:104810000847BD4910B5FA31884701204EE710B569
:10482000BA488047012049E7B84810B5183080479A
:10483000012043E7B54BA2331847B44BD833184790
:10484000F8B50746AF48002680680D463446283044
:1048500001F036F82903C9194118AA48406B814272
:1048600011D9002062E472B6A6488068283001F0B1
:1048700027F82103C9194018A54A01219047064687
:1048800062B6641CE4B2AC42EDD330464EE4F8B5F7
:104890009C4D0446A86817460E46283001F010F8D3
:1048A0000146A21980186A6B90420AD8002908D0E4
:1048B00072B60819964B3A463146EA3B984762B6BB
:1048C00034E4002032E4F8B58E4D0446A86817465B
:1048D0000E46283000F0F4FF0146A21980186A6BDA
:1048E00090420AD8002908D072B60819884B3A4677
:1048F0003146823B984762B618E4002016E470B552
:10490000844800240078824E7E4D00280DD0012876
:104910001ED024E072B6143000F0D2FF21034018FC
:104920000121B04762B6641CE4B2A868C17B827BF7
:1049300009021143A142EDD811E072B6103000F027
:10494000BFFF210340180121B04762B6641CE4B2E6
:10495000A868C17B827B09021143A142EDD80120E6
:1049600070BD70B504460D46000B4219654880685D
:10497000C17B837B090219438A4201D9002070BDA3
:104980006449634E0978002902D0012903D00AE066
:1049900072B6143001E072B6103000F091FF0019C9
:1049A0002946B04762B6012070BDF8B504465948A3
:1049B0000F4601785348564D8068823D16460029BF
:1049C00002D0012903D00BE072B6143001E072B6B8
:1049D000103000F075FF001932463946A84762B61C
:1049E00001202EE430B4474B9C68E37BA47B1B0280
:1049F00023431B03834202D230BC0020704730BCEB
:104A0000D3E730B4444CA44630BC6047F3B53D48CE
:104A100089B080680024283000F052FF07460998CA
:104A20004609002511E072B66801394BC0192021F2
:104A30006A46EA3B984762B6002069460A5C401C19
:104A4000121994B22028F9D36D1CB542EBD3099802
:104A5000C606F60E72B6314668012D4BC0196A467D
:104A6000EA3B984762B60020694603E00A5C1219E7
:104A700094B2401CB042F9D30A98844202D101207A
:104A80000BB0F0BD0020FBE7F8B51F488A3880471F
:104A9000204C5734607A002859D00006042500289D
:104AA0000FDA6078217800020843400709D5FEF745
:104AB000C1FC6078217800020843A8432070000AF6
:104AC00060706078217800020843144F144E41064C
:104AD0000CD5402188432070000A6070022069468E
:104AE000088002466B4639460020B047607821783E
:104AF000000217E0A5440000FB5F00002B620000ED
:104B00004D65000014310020E54600000348000018
:104B100043540000283600207B4A0000008000003B
:104B2000A13E00000843C10711D04008400020709A
:104B3000010A6170800702D56846058002E0052001
:104B40006946088002226B4639460020B04739E4A6
:104B5000FB48004738B5FB4C2078002804D1FA49BF
:104B60006846884701202070012038BDF8B50278DA
:104B7000002A59D0F5494A7242788A72002A01D037
:104B8000042A01D904228A72C2788478130223434A
:104B9000EE4A1C0AD37214734479057924022C431B
:104BA00015466C73240AAC73C479857920022843B6
:104BB000D073000A1074E3480827C068D21C213063
:104BC000447C007C240204430120A34214D9002524
:104BD0008D701B1B8C7AA34204DA1071000A50718D
:104BE0008B7216E0E400A34202DA1071000A01E0C1
:104BF0001771380A50710CE088708E7AE51AB54248
:104C00000EDA060A107156719C4201D1887200E0DA
:104C10008D72887AC8700871FEF787FF012055E40D
:104C2000F3009D42E4DAE0E700204FE4C549496A19
:104C30000870020A4A70020C8A70000EC870487A26
:104C400002221043487294E538B5044600200090D3
:104C5000BD49684688470099F8208143E006000E68
:104C600008430090FFF7E2FF38BD08B50020009030
:104C7000B5496846884700980006C00E009008BDF8
:104C8000B14872300047B0495A310847B049084727
:104C9000AF491A310847AF480047AE490C310847C1
:104CA000F8B500260B4604460125304631462D0353
:104CB000675C491CBE19A942FAD30021675C491CF4
:104CC0007840A942FAD39E4222D1904220D19D4EF3
:104CD000B0680A3000F0F4FD9C490019572257399A
:104CE00000F0B4FDB0681C3000F0EAFDF168001976
:104CF00007220A3100F0AAFD0121974A00209047BF
:104D0000954B002022462946823B9847012021E40A
:104D100000201FE470B5012605468A4C36038E4BF1
:104D200000203146EA3BA26998478C4928468847CB
:104D3000A0681C3000F0C4FDA16907224018E1689A
:104D40000A3100F083FD0121834A00209047824B05
:104D500000203146823BA269984770BD10B50446D9
:104D6000784880680A3000F0ABFD7B4B1021EA3BAD
:104D7000224657309847A1E470B501260546714C8C
:104D80003603754B00203146EA3BA2699847012162
:104D9000714A00209047A0680A3000F091FDA16997
:104DA000102257314018294600F050FD6A4B002070
:104DB0003146823BA269984770BD624840690178DC
:104DC000C943890702D18078062801D00020D0E4A9
:104DD0000120CEE4624A1047F3B581B0060025D029
:104DE000584F386A0446C17980790D020543E01CAA
:104DF00000F066FD0102A07801430C46002D17D09B
:104E0000002C15D00121544B09030020EA3BBA695C
:104E10009847B8680A3000F053FDB9696731405CC3
:104E2000401CC7B2032F05D90220FEBD0120FEBDE4
:104E30000420FEBDB54204D10298844201D1002075
:104E4000FEBD0121444A002090473E4CA0680A3034
:104E500000F036FDA269404B1146673147540121ED
:104E600009030020823B98470320FEBD08B5364960
:104E70006846884700984108C90701D0002008BD4E
:104E8000022108433049009028318847012008BD9D
:104E90002E480121573802782A4809078068002ADD
:104EA00003D0012A07D0002063E4C27B837B100279
:104EB0001843400304E0C27B837B100218430003C5
:104EC000401856E470B5044620480D46573801781E
:104ED0001C480126B6038068002903D0012903D0AD
:104EE000002070BD143000E0103000F0E9FC8019A3
:104EF00072B60019184A2946904762B670BDF8B5D7
:104F0000054612480F46573801780E480124A4037D
:104F100080681646002903D0012903D00020A1E4AF
:104F2000143000E0103000F0CBFC001972B64019CC
:104F3000094B32463946EA3B984762B692E4000094
:104F4000F94B0000143100204D6500007F36002031
:104F50002B620000776A000043540000A13D00006E
:104F6000D9600000F8B50546F8480F460178F848C2
:104F70000124A40380681646002903D0012903D028
:104F800000206FE4143000E0103000F099FC0019AC
:104F900072B64019EF4B32463946984762B661E423
:104FA00010B5030001F087F80906101016202A3406
:104FB0003E58740001217F20FEF7F9FA8821612014
:104FC000FEF7F5FA812160E001217F20FEF7EFFA7C
:104FD0008A21F4E701217F20FEF7E9FA8A21612086
:104FE000FEF7E5FA832150E001217F20FEF7DFFA8A
:104FF0008A216120FEF7DBFA872146E001217F202C
:10500000FEF7D5FA8A216120FEF7D1FA8F213CE024
:1050100001217F20FEF7CBFA8A216120FEF7C7FA33
:105020009F2132E000217F20FEF7C1FA02213020CB
:10503000FEF7BDFA01217F20FEF7B9FA1F21632098
:10504000FEF7B5FA03216D20FEF7B1FA8A2161203F
:10505000FEF7ADFAB02118E000217F20FEF7A7FA95
:1050600002213020FEF7A3FA01217F20FEF79FFAEC
:105070001F216320FEF79BFA07216D20FEF797FAA8
:105080008A216120FEF793FABF216520FEF78FFA8F
:1050900071E610B5AE4CA068283000F011FC616BD1
:1050A000081A68E6A9480078CDE5F8B50546A84E87
:1050B000A648B26900781446002801D000201BE4FD
:1050C000280502D02805000D2D1A72B60121A14F26
:1050D00009030020683FB84762B6706B2146401B49
:1050E000283100F0F7FB05462046103000F0E8FBC1
:1050F0000090281A4108009808182146143100F041
:10510000E9FB01460098081A0001000CA073000A90
:10511000E07372B601218F4A00208232904762B656
:1051200072B6012109038B4B0020B26998473121E7
:105130000020B268B84762B6012052E48448844B2C
:10514000C079DB7902091B0709201B0FC01A06234F
:1051500000215843072A08D0032A09D0022A0BD07D
:10516000012A0CD0002A0DD00FE04121C94301E0F3
:105170003521C943081A07E02321C943FAE717215B
:10518000C943F7E7801D404241B2C8B25BE5F3B5C1
:10519000714E724F8DB00546002432226B46214677
:1051A0000320B04768464088A84206D16846017986
:1051B0000E98017001200FB0F0BDB84204D06846CF
:1051C0000088001984B2E8E70020F4E7F3B5624EE6
:1051D000624F8DB00546002432226B4621460320E3
:1051E000B04768464088A84208D1241DA1B20122D8
:1051F00003200E9B00F099FA0120DCE7B84204D0AE
:1052000068460088001984B2E6E70020D3E7F3B5CA
:10521000514E524F8DB00546002432226B46214636
:105220000220B04768468178427808021043A842BD
:1052300005D1684641790E9801700120BBE7B8425C
:1052400004D068460078001984B2E6E70020B2E78F
:105250003E4910B557314878097800020843800666
:1052600003D5FEF7E7F8012085E5002083E53C4BF8
:10527000184710B50446364880680A3000F020FB15
:10528000344B0821683B22466730984773E570B578
:10529000054672B62E4C012636032E4B00203146B1
:1052A000683BA26998472B4A01210020823290472F
:1052B000A0680A3000F004FBA16908226731401899
:1052C000294600F0C3FA234B31460020A2699847D3
:1052D00062B670BD2349082008471D494863B2E4FF
:1052E000FEB51B4D0027A868801D00F0E9FA194E95
:1052F000062101AA683EB047002823D000241CE004
:10530000A868801D00F0DCFA61006118891D401852
:105310006A460321B047002814D068460078032865
:1053200009D1684640787F2801D169468F78012FDE
:1053300001D1572807D0641CA4B268460089A04256
:10534000DED80020FEBD68468078FEBD28360020ED
:1053500014310020C1530000C9280000FFFF0000E5
:105360001922000079190000F1B5F84E84B0B06838
:105370000027801D00F0A4FAF54D01AA0621A847D8
:10538000002823D000241CE0B068801D00F098FAAB
:1053900061006118891D40186A460321A84700284A
:1053A00014D068460078032809D1684640787F28E1
:1053B00001D169468F78012F01D1572808D0641C8C
:1053C000A4B268460089A042DED8002005B0F0BD36
:1053D00072B601273F0339460020B269A847DC4A6C
:1053E00001210020EA329047B068801D00F068FA81
:1053F000B269049983186000201808301954D44BFE
:10540000002039466833984762B6DFE77FB50D461E
:105410004B210906084302900024CE48039480479C
:1054200000940194CB4C012105202B4602AAA83CF4
:10543000A047C8481C3080477FBD7FB50646002482
:105440006D4629192046FFF7E1FF285D3055641CA1
:10545000E4B20F2CF5D37FBDF3B501010F0CBE49AB
:1054600000240A780605651E360D81B0002A17D083
:105470003BE0B6488068143000F022FA210340185F
:10548000B249B34B8A69012109039847AF4801210A
:105490002A460903806900F08BF9641C0546A4B212
:1054A000BC42E6D3002E03D0A84FB868143023E0E6
:1054B0000299E84381422ED1012046E7A348806843
:1054C000103000F0FDF921034018A049A04B8A6973
:1054D0000121090398479D4801212A460903806953
:1054E00000F066F9641C0546A4B2BC42E6D3002E67
:1054F000DED0964FB868103000F0E2F92103401872
:10550000934B3146BA6998472A463146B86900F04C
:105510004FF90546CCE7002017E78E490320F43900
:10552000084770B50126894C36030546884B31463D
:105530000020A2699847A068801D00F0C1F9A16908
:105540002A01491C4254824A01210020EA32904734
:105550007F4B002031466833A269984770BD00B583
:105560007A48ADB080681C3000F0AAF9784B6A46E2
:10557000AD219847002804D020A8817A427A0802F9
:1055800010432DB000BD70B50126704C36030546A2
:105590006F4B31460020A2699847A0681C3000F08C
:1055A0008FF9A169421881321572280A5072684A2F
:1055B00001210020EA329047654B002031466833D4
:1055C000A269984770BD10B500F003F9002804D017
:1055D00000F0FFF80128FBD05AE500F0FAF80028A7
:1055E000FBD000F0F6F80128FBD051E5F0B5574CA0
:1055F0000025A46AE678360701D50020F0BD00BF7B
:105600006D1CEDB2642DFAD3254640356E7CB6078D
:10561000FCD400252646C036377947556D1CEDB2BF
:10562000022DF9D346780125F709002F08D0F60698
:10563000F60E0E70157042785206D20F1A7004E002
:10564000B3069B0E0B7000231370404B0A789B6AC5
:10565000801CC033272A0CD20022C03403E02679F4
:105660008654521CD2B20E789642F8D85D72012050
:10567000F0BD5D72C1E710B5027800219207920F6C
:10568000324B012A39D0022A0CD0032A33D1827836
:105690000E2A2FD84078314BC0069A5CC00E90423B
:1056A00028D028E04278D206D20E042A07D9C27840
:1056B000847812022243172A01D8012200E0002236
:1056C0005A71002A17D0417902790902114305293C
:1056D00010D006290ED1C178827809021143807951
:1056E0001E4A40000F3280184038C08F814201D0DE
:1056F000002100E001210846CAE459790029F7D0C9
:105700004078C006C00E1728F4D9F1E770B5144DE3
:1057100000240E4EA847F1680919FF310131641CBD
:10572000E4B2C873102CF5D370BDFFB5074C02006E
:10573000E06981B01E460D4606D0012A12D0022A29
:1057400012D0032A12D015E0001D10E01431002001
:10575000595300001D500000283600209F6900109A
:10576000FB5F0000083002E00C3000E0103000F079
:10577000A7F801464D1972B601273F031B4B394666
:105780000020A269984762B6A06931464019039A81
:1057900000F05CF872B60121144A0020EA3290470A
:1057A000124B002039466833A269984762B60DE66D
:1057B00030B5034600200E4C07E01D5C55402D0619
:1057C000AD0D6559120A6A40401C8842F5D3104657
:1057D00030BD0848816A0A466032907C927C603114
:1057E00001E0887C8A7C9042FBD15DE45953000043
:1057F000C46900101431002030B50B46014600206A
:105800002022012409E00D46D5409D4205D31D46C6
:105810009540491B2546954040191546521E002DBE
:10582000F1DC30BD70B500242546002801DA0124E2
:105830004042002901DA01254942FFF7DDFFAC4271
:1058400000D04042002C00D0494270BD03460B43BB
:105850009B0703D009E008C9121F08C0042AFAD226
:1058600003E00B780370401C491C521EF9D27047AC
:10587000D2B201E00270401C491EFBD270470022E8
:10588000F6E710B513460A4604461946FFF7F0FF3F
:10589000204610BD30B504460020034600E05B1CE6
:1058A000934203D2E05CCD5C401BF8D030BD034690
:1058B0000A780270401C491C002AF9D1184670472A
:1058C0000321001D401E037812021A43491EF9D518
:1058D00010467047034603220870000A491C521EF6
:1058E000FAD518467047F8B502464A40D40F420030
:1058F0004B0052085B089A4202D202460846114603
:105900004A0023D0C30D4A00DDB2120EAD1A202D7D
:1059100035DA49020126490AF6058A19002C00D019
:10592000524220214F1B1146B9402A411018C20D86
:105930009A4221D0002C17D0012D08DCDA05801AFC
:10594000D20F8019D207DBB200F080FAF8BDDA0579
:10595000801A012340001B06C01880185A42801884
:10596000CA0F1043490007E04908C2071143DA058E
:10597000801A80194008801800F060FAF8BD6100B4
:105980000122511A001BF7E70122D2075140AAE772
:105990000122D2075040A6E7F0B507460846584016
:1059A00087B0C00F049048000E46590040084908CF
:1059B000BC1A884105D2384631461E4617460B466A
:1059C00002465800400810434CD0300D039040056B
:1059D0005900400D490D0590401A0290402872DA96
:1059E00018030121000B0905084301900498009257
:1059F000002805D001995242002088410092019070
:105A0000029840210A1A0199009800F0E3F905462E
:105A10000C466B4607CB00F0FEF9C0197141039AA2
:105A20000E0D0023D71756401A467A40164344D02D
:105A3000049A002A2DD0029A012A039A15DC120535
:105A4000C01A914101263605001C7141D20F059EF6
:105A5000D2070093019202962A46234600F03CFAB0
:105A600007B0F0BD38463146FAE71605224A0F4620
:105A7000B218C01AB74101210905001C4F41001896
:105A80007F41114618187941E20F10436D196441A6
:105A900013E0E2076D0815436408C2071443039A34
:105AA00001261205C01A91413605001C7141CE072E
:105AB000400830434908C01851412A46234600F0A7
:105AC000FEF9CDE7FFE7049801224000C117121A42
:105AD00000238B4104983146C417381AA141EEE7E0
:105AE00030B40124E407634030BC55E730B40124EE
:105AF000E407614030BC4FE70000E0FFF0B51FB4A1
:105B000088B00B990998002448400999C00F4900B2
:105B100049080991C0070B990090490049080B9169
:105B200009990898A64608431CD00B990A9808437F
:105B300018D0099801244000420D4800410D0998F1
:105B400024050003000B204309900B980003000B71
:105B500020430B9050181C49401800220190144615
:105B6000104605E0002001460DB0F0BD032801DA23
:105B7000034600E003239C46C11A0AAE0AE05F0018
:105B800008ADED5B4F00F75B7D430027AA187C4111
:105B9000491C5B1E6145F2DD410004AB5A522104F1
:105BA000120C0A43240C401C0828DFDB01980290E9
:105BB0000099704601910090059B049A07990698F8
:105BC00000F08AF9D0E700000DFCFFFFF0B50C46AD
:105BD0005C4085B0E40FE40703944C0000266408A1
:105BE00059009446490802460296224321D0624653
:105BF0000A431ED06200570D4A000E032303550DC1
:105C0000012402462C492405781B1B0B360B401837
:105C100023432643614600901C46501AB44103D3E7
:105C20000098401C009002E0921800985B41002808
:105C300003DA0020014605B0F0BD0020012109056E
:105C40000746864611E064461D46141BB54106D33F
:105C50006546521BB341744607430C43A646CD0725
:105C600040084908284392185B4105460D43EAD194
:105C70001046184313D060461946504071400843FF
:105C800006D06046101AB34106D20122002306E076
:105C900000220123DB0702E00122D24353100098C7
:105CA00074460105381C6141029C039D001969413D
:105CB00000F005F9BFE70000FD03000010B5002269
:105CC0009623114600F0C2F810BD00000EB5C217B1
:105CD000C10F5040CA0740180021054B02930192A2
:105CE00000910A460B4600F0F7F803B000BD000033
:105CF000330400000EB505490291002100910A46C7
:105D00000B46019100F0E8F803B000BD3304000039
:105D10004A0009030123090B1B051943094B10B560
:105D2000520D9A4201DA002010BD064B34339A42DC
:105D300003DC9A1A00F05EF810BD03495118884040
:105D400010BD0000FF030000CDFBFFFFC20FD20714
:105D5000400040080BD0C10D0723DB01C9184002E9
:105D60000905400A1143C20840071143704700204B
:105D700001467047F0B51FB40646002082B00546C4
:105D80004024019100901BE0019922460F463046C5
:105D900000F030F8049A059B801A994110D3104600
:105DA0001946224600F016F8361A8F41019722460E
:105DB00001200021009F00F00DF838184D4100909F
:105DC0002046641E0028DFDC019B009829463246ED
:105DD00007B0F0BD10B5202A04DB0146203A9140FF
:105DE000002010BD914020239C1A0346E340194334
:105DF000904010BD10B5202A04DB0846203AD04060
:105E0000002110BD0B46D340D0402024A21A91405F
:105E10000843194610BD10B5202A06DBCB170846EB
:105E2000203A1041C1170B4306E00B461341D04006
:105E30002024A21A91400843194610BD002904DA13
:105E4000401C490001D140084000704770B4002454
:105E5000050C05D11024000402D1002921D0112401
:105E6000050E01D100020834050F01D10001241DE7
:105E7000850F01D18000A41C002801DB4000641CB8
:105E8000002908D020252E1B0D46F540A14000D04A
:105E900001212943084301061B1B000ADB1D02D513
:105EA000002070BC7047DB05181880180029F8DA4C
:105EB000401C4900F5D170BC40084000704710B547
:105EC000002B08DA0024401C614192185B411A4300
:105ED00001D14008400010BDF0B51FB482B00546A6
:105EE0000C0003D0084600F0CFF802E000F0CCF838
:105EF00020300246009021462846FFF76BFF049BA6
:105F0000059A04460F4618431143084314D0184617
:105F100010431BD0009840210A1A18460599FFF734
:105F200069FF05460E46009A05990498FFF752FF4F
:105F3000084305D0012004E02046394607B0F0BDF3
:105F40000020C11705430E432C43374300990E9898
:105F50006305401A7905E40A00220C43FD0A0A3061
:105F600002D500200146E9E70105101969410C9CA2
:105F70000D9D00196941FFF7A2FFDFE74A00090301
:105F80000123090B1B0519430A4B10B5520D9A4208
:105F900002DA0020014610BD064B34339A4203DC7E
:105FA0009A1AFFF727FF10BD034BD218FFF712FF15
:105FB00010BD0000FF030000CDFBFFFF10B500295E
:105FC00004DB0124E40740428C412146002B04DB22
:105FD0001C460123DB075242A341994200D1904263
:105FE00010BD0000064C0125064E05E0E36807CC15
:105FF0002B430C3C98471034B442F7D3FAF764F8BB
:10600000C46D0010E46D001070B58C180578401C4C
:106010006B075B0F01D10378401C2A1106D102786F
:10602000401C03E006780E70401C491C5B1EF9D131
:106030002B0705D40023521E0DD40B70491CFAE720
:106040000378401CCB1A921C03E01D780D70491C8C
:106050005B1C521EF9D5A142D8D3002070BD0000B0
:106060000FB410B504A9074B02AA039800F0ECF88E
:10607000044602A9002000F083FC204610BC08BCA6
:1060800004B01847816900102021020C01D01021B2
:106090001046020A01D010460839020901D0104604
:1060A000091F820801D01046891E420801D0881EAF
:1060B0007047081A704730B47446641E2578641C13
:1060C000AB4200D21D46635D5B00E31830BC18474D
:1060D00002E008C8121F08C1002AFAD170477047B1
:1060E000002001E001C1121F002AFBD1704700000F
:1060F000F0B51FB484B007980699020D014314D07F
:106100004A484B491018484305140F9801280E9827
:106110001CD0281A401C0024464E47490094019187
:106120000290002814DA474227E00F98012443A385
:10613000012808D0002104980F9A84600360C2608F
:10614000416009B0F0BD0E98C143F4E74042E2E778
:10615000074612E0F80707D0224633460199009817
:10616000FFF7CCFC019100902246334610461946B9
:10617000FFF7C4FC04460E467F10002FEAD10298B8
:10618000019B0028009A0799069802DAFFF7B6FCEF
:1061900001E0FFF71BFD04460E460022284BFFF7E7
:1061A0000DFF03D80020C043014607E00022254B25
:1061B00020463146FFF7F0FBFFF7E0FE102409E030
:1061C000002C0ADB0A220023FFF7D4FD059B3032A6
:1061D0001A55641E02460A43F2D11122641C059B23
:1061E000121B1C190F9B012B03D0012308430ED156
:1061F0000AE0084304D011200E9000200F9084E79D
:106200000E98151A6D1E0BE00E98824202DD0023D7
:106210006D1C03E0824201DA00236D1E002BEED0DC
:1062200004980F998260C16030C08AE701FCFFFFCB
:10623000104D0000000024400000F03F300000003E
:106240000000F0430000E03FFFB597B00646002590
:1062500018E2252877D100242746FD49049400E060
:106260000443761C32780120203A90400842F7D14E
:1062700030782A280ED00222307801463039092998
:1062800016D804990A235943303940181443761C10
:106290000490F1E7189802C804911890002904DAD4
:1062A0000120400304434842049002200443761C2A
:1062B00030782E2814D1042004437078761C2A28C4
:1062C00009D11898761C80C8189009E00A214F431C
:1062D000303FC719761C3078014630390929F5D985
:1062E00030786C2810D006DC4C281AD068280ED0E4
:1062F0006A2817D104E0742813D07A2812D110E04C
:106300000120400504430CE00121090501E00321BF
:1063100009050C437178814203D10120000524183E
:10632000761C761C3078119066280BD013DC582828
:106330007DD009DC00287BD04528F6D04628F4D053
:1063400047281AD1A5E118E0632835D0642870D019
:10635000652812D19DE170286CD008DC6728F1D047
:1063600069287BD06E280DD06F2806D1BAE073283B
:106370002ED0752871D0782859D01A9A199990473B
:106380006D1C7EE16002400F022809D003280DD069
:106390000428189801680DD00D60001D189070E158
:1063A0001898EA1701680D604A60F6E718980168C6
:1063B0000D80F2E70D70F0E718986A4601781172C7
:1063C000001D18900020507202A80090012005E0E6
:1063D000189802C8189000200091C04361070DD59D
:1063E000002101E00199491C0191B94212DA814270
:1063F000F8DB009A515C0029F4D10BE0002101E0A8
:106400000199491C01918142FADB019A0099895C4A
:106410000029F5D1019904981A9B471A214638465C
:10642000199A00F097FA0199401945180BE04FE0CE
:106430002CE113E04EE0009800990078491C00918F
:106440001A9A199990470198401E0190401CF2D168
:10645000214638461A9B199A10E137E00A2000219C
:10646000009001916002410F022907D0189A01CAD9
:106470001892C2179446032908D00AE01898C01D44
:10648000C108C90005C91891944607E000B2C217B7
:106490009446042902D140B2C1178C4600226146BD
:1064A000944506DA0A460021404291418C462D214E
:1064B00002E0210504D52B216A461173012103E076
:1064C000E10701D02021F7E7029155E00A200AE018
:1064D000102008E0102000900021042004430191C6
:1064E000082703E008200021019100906002410F7D
:1064F000022907D0189A01CA18920022944603294B
:1065000008D008E01898C01DC108C90005C9189135
:10651000944603E080B2042900D1C0B20021029168
:10652000210729D51199702906D0009A1021019BC5
:106530004A401A4305D00EE040216A4611730121FA
:1065400008E06146014306D030216A461173119973
:10655000517302210291009A0821019B4A401A437B
:106560000AD16146014301D1610705D530216A4650
:10657000117301217F1E02911199582904D035A170
:106580000E910DA90D910DE037A1F9E76146019B30
:10659000009AFFF7EFFB0E9B8C469B5C0D9A521EF8
:1065A0000D92137061460143F0D10D9805A9081AA8
:1065B00020300190600703D501200004844300E0EF
:1065C00001270198874201DD381A00E00020019977
:1065D00000904118029809180498401A0490E003AA
:1065E00006D421461A9B199A049800F0B3F945196C
:1065F000002706E003A81A9AC05D199990476D1C00
:106600007F1C02988742F5DBE0030CD521461A9BDC
:10661000199A049800F09EF9451904E01A9A30205E
:10662000199990476D1C0099481E00900029F5DCCF
:1066300008E00D980D990078491C0D911A9A199946
:1066400090476D1C0199481E01900029F1DC63E11F
:106650000928010030313233343536373839616238
:1066600063646566000000003031323334353637FC
:1066700038394142434445460000000000F05AF9D1
:106680004519761C3078002800D0E2E528461BB07A
:10669000F0BD600700D406271898C01DC108C900C6
:1066A00048680A680831C30FDB071891190001D048
:1066B0009CA108E0210501D59BA104E0E10701D0E0
:1066C0009AA100E09AA1430011985B0810916528F7
:1066D0000CD006DC452809D046281DD0472841D1DA
:1066E00041E0662818D067283CD13CE00021112FFA
:1066F00001DB112000E0781C0191009008A911A88D
:10670000FFF7F6FC139905910021119A15927F1C51
:1067100012980197009150E00120C00703900120DA
:10672000019008A9009711A8FFF7E2FC139A1499A9
:1067300005920022119B009212981593059A0192DE
:10674000002901D0104602E0791C40180190381A47
:1067500001D5019804E04042401E0090781C019051
:10676000C01B029043E0012F00DA01270021112F06
:1067700001DD112000E038460191009008A911A820
:10678000FFF7B6FC13990591119A00211298159202
:106790000091019721070CD40599B94201DB0199B9
:1067A00000E00191012904DD159A491E515C302950
:1067B00006D0B84201DA011D05DA0121029115E087
:1067C0000199491EEDE7002805DC00994118009168
:1067D0000199091A03E0019A411C914200DD0191DF
:1067E0000099401A401C02900120C0070390200726
:1067F00006D402990198814202DB0020C043029036
:1068000000206946C87707AF012103980337C907FD
:10681000884224D0022011902B2012900398002847
:106820000CDA404203902D20129007E00A210398D1
:10683000FEF7E2FF30317F1E039039701199481E38
:1068400011900029F2DC03980028EFD1791E1298EC
:1068500008703078202108404530BF1E387006A8E7
:10686000C01BC01D039010980078002800D00120A4
:10687000019941180298C01709180398091804983B
:10688000401A401E0490E00306D421461A9B199A30
:10689000049800F05FF8451910980078002803D09C
:1068A0001A9A199990476D1CE00324D521461A9B2A
:1068B000199A049800F04EF845191CE00098002839
:1068C00007DB00990598884203DD1598405C19990B
:1068D00001E0199930201A9A904700986D1C401CCD
:1068E00000900298401E0290002804D11A9A2E208F
:1068F000199990476D1C0199481E01900029DDDC13
:1069000005E038781A9A7F1C199990476D1C0399F5
:10691000481E03900029F4DC21461A9B199A04981A
:10692000ACE600002D0000002B000000200000005D
:1069300000000000F8B5044600251E4617468804EE
:1069400004D405E039462020B0476D1C641EF9D5FB
:106950002846F8BDFFB50446002581B01E46C80391
:1069600001D5302700E02027880404D505E038460B
:106970000399B0476D1C641EF9D5284605B0F0BDDB
:106980000A68531C0B601070704730313233343555
:106990003637383941424344454600002526270C06
:1069A0000802170D01010209090101060200070092
:1069B000070011001100020011000B001100080077
:1069C0001100020000000000963007772C610EEEE7
:1069D000BA51099919C46D078FF46A7035A563E936
:1069E000A395649E3288DB0EA4B8DC791EE9D5E05D
:1069F00088D9D2972B4CB609BD7CB17E072DB8E75C
:106A0000911DBF906410B71DF220B06A4871B9F3B0
:106A1000DE41BE847DD4DA1AEBE4DD6D51B5D4F4E9
:106A2000C785D38356986C13C0A86B647AF962FD4E
:106A3000ECC9658A4F5C0114D96C0663633D0FFA9B
:106A4000F50D088DC8206E3B5E10694CE44160D5A1
:106A5000727167A2D1E4033C47D4044BFD850DD28B
:106A60006BB50AA5FAA8B5356C98B242D6C9BBDB9E
:106A700040F9BCACE36CD832755CDF45CF0DD6DC99
:106A8000593DD1ABAC30D9263A00DE518051D7C840
:106A90001661D0BFB5F4B42123C4B3569995BACFCB
:106AA0000FA5BDB89EB802280888055FB2D90CC6EC
:106AB00024E90BB1877C6F2F114C6858AB1D61C165
:106AC0003D2D66B69041DC760671DB01BC20D29884
:106AD0002A10D5EF8985B1711FB5B606A5E4BF9F11
:106AE00033D4B8E8A2C9077834F9000F8EA8099604
:106AF00018980EE1BB0D6A7F2D3D6D08976C64916F
:106B0000015C63E6F4516B6B62616C1CD830658587
:106B10004E0062F2ED95066C7BA5011BC1F4088264
:106B200057C40FF5C6D9B06550E9B712EAB8BE8BA5
:106B30007C88B9FCDF1DDD62492DDA15F37CD38C2E
:106B4000654CD4FB5861B24DCE51B53A7400BCA32C
:106B5000E230BBD441A5DF4AD795D83D6DC4D1A45E
:106B6000FBF4D6D36AE96943FCD96E34468867AD35
:106B7000D0B860DA732D0444E51D03335F4C0AAAD4
:106B8000C97C0DDD3C710550AA41022710100BBED7
:106B900086200CC925B56857B3856F2009D466B91E
:106BA0009FE461CE0EF9DE5E98C9D9292298D0B053
:106BB000B4A8D7C7173DB359810DB42E3B5CBDB700
:106BC000AD6CBAC02083B8EDB6B3BF9A0CE2B60381
:106BD0009AD2B1743947D5EAAF77D29D1526DB0436
:106BE0008316DC73120B63E3843B64943E6A6D0D81
:106BF000A85A6A7A0BCF0EE49DFF099327AE000ACC
:106C0000B19E077D44930FF0D2A3088768F2011E5E
:106C1000FEC206695D5762F7CB67658071366C19F5
:106C2000E7066B6E761BD4FEE02BD3895A7ADA1016
:106C3000CC4ADD676FDFB9F9F9EFBE8E43BEB717F7
:106C4000D58EB060E8A3D6D67E93D1A1C4C2D83881
:106C500052F2DF4FF167BBD16757BCA6DD06B53FE7
:106C60004B36B248DA2B0DD84C1B0AAFF64A033626
:106C7000607A0441C3EF60DF55DF67A8EF8E6E31A5
:106C800079BE69468CB361CB1A8366BCA0D26F25EE
:106C900036E2685295770CCC03470BBBB91602223B
:106CA0002F260555BE3BBAC5280BBDB2925AB42B50
:106CB000046AB35CA7FFD7C231CFD0B58B9ED92C65
:106CC0001DAEDE5BB0C2649B26F263EC9CA36A75CA
:106CD0000A936D02A906099C3F360EEB8567077281
:106CE00013570005824ABF95147AB8E2AE2BB17BE8
:106CF000381BB60C9B8ED2920DBED5E5B7EFDC7C6F
:106D000021DFDB0BD4D2D38642E2D4F1F8B3DD68C5
:106D10006E83DA1FCD16BE815B26B9F6E177B06FC0
:106D20007747B718E65A0888706A0FFFCA3B0666AD
:106D30005C0B0111FF9E658F69AE62F8D3FF6B613A
:106D400045CF6C1678E20AA0EED20DD75483044EDC
:106D5000C2B30339612667A7F71660D04D4769496A
:106D6000DB776E3E4A6AD1AEDC5AD6D9660BDF407D
:106D7000F03BD83753AEBCA9C59EBBDE7FCFB24730
:106D8000E9FFB5301CF2BDBD8AC2BACA3093B35315
:106D9000A6A3B4240536D0BA9306D7CD2957DE541E
:106DA000BF67D9232E7A66B3B84A61C4021B685DF7
:106DB000942B6F2A37BE0BB4A18E0CC31BDF055A70
:106DC0008DEF022DE46D0010003000205401000012
:106DD00008600010946E0010543100203C11000037
:106DE000E06000100119800E0319C10302010503C0
:106DF00003121809FF100A08095359445F4849440F
:106E0000F21E1360101B5024041A14041A180422D2
:106E100010524058180102030405060708090A1118
:106E200012131415161718191A1B1E1F1818080903
:106E30000A0708111512162C1319141812D01C0168
:106E400050E004011813A830422050113031323381
:106E50003435363738394142434445466324F419C2
:106E6000801AFF010114091618D1620413ED0523DD
:106E700020DF1B208F081AC604134A0714201E06A1
:106E80001B2014141A9064212B02406C29FC2192BF
:046E900008000000F6
:04000005100000C126
:00000001FF
