Component: ARM Compiler 5.06 (build 20) Tool: armlink [4d35a3]

==============================================================================

Section Cross References

    main.o(.text) refers to main.o(.text) for BBRFWrite
    main.o(.text) refers to gpio.o(.text) for GPIO_Set_Output
    main.o(.text) refers to debug.o(.text) for dbg_printf
    main.o(.text) refers to timer.o(.text) for Timer_Evt_Stop
    main.o(.text) refers to uread4.o(.text) for __aeabi_uread4
    main.o(.text) refers to memcpya.o(.text) for __aeabi_memcpy
    main.o(.text) refers to ota.o(.text) for ota_rsp
    main.o(.text) refers to main.o(i.__ARM_common_switch8) for __ARM_common_switch8
    main.o(.text) refers to gpio.o(.data) for PIN_CONFIG
    main.o(.text) refers to main.o(.data) for .data
    main.o(.text) refers to main.o(.bss) for .bss
    main.o(.text) refers to delay.o(.text) for delay_ms
    main.o(.text) refers to uart.o(.text) for uart_0_init
    main.o(.text) refers to timer_handler.o(.text) for Timer_Evt_List
    main.o(.text) refers to rtc.o(.text) for SYD_RTC_Init
    main.o(.text) refers to rtc_handler.o(.text) for RTC_Evt_List
    main.o(.text) refers to uart_protocol.o(.text) for uart_cmd
    main.o(.text) refers to uwrite4.o(.text) for __aeabi_uwrite4
==============================================================================

Removing Unused input sections from the image.

    Removing main.o(.rev16_text), (4 bytes).
    Removing main.o(.revsh_text), (4 bytes).
    Removing uart_protocol.o(.rev16_text), (4 bytes).
    Removing uart_protocol.o(.revsh_text), (4 bytes).
    Removing delay.o(.rev16_text), (4 bytes).
    Removing delay.o(.revsh_text), (4 bytes).
    Removing delay.o(.text), (24 bytes).
    Removing ota.o(.rev16_text), (4 bytes).
    Removing ota.o(.revsh_text), (4 bytes).
    Removing gpio.o(.rev16_text), (4 bytes).
    Removing gpio.o(.revsh_text), (4 bytes).
    Removing gpio.o(.text), (36 bytes).
    Removing gpio.o(.text), (52 bytes).
    Removing gpio.o(.text), (52 bytes).
    Removing gpio.o(.text), (52 bytes).
    Removing gpio.o(.text), (36 bytes).
    Removing gpio.o(.text), (120 bytes).
    Removing gpio.o(.text), (56 bytes).
==============================================================================

Image Symbol Table

    Local Symbols

    Symbol Name                              Value     Ov Type        Size  Object(Section)

    ../clib/../cmprslib/zerorunl2.c          0x00000000   Number         0  __dczerorl2.o ABSOLUTE
    ../clib/microlib/division.c              0x00000000   Number         0  uidiv.o ABSOLUTE
    ../clib/microlib/division.c              0x00000000   Number         0  uldiv.o ABSOLUTE
    ../clib/microlib/division.c              0x00000000   Number         0  idiv.o ABSOLUTE
    ../clib/microlib/init/entry.s            0x00000000   Number         0  entry8a.o ABSOLUTE
    ../clib/microlib/init/entry.s            0x00000000   Number         0  entry9a.o ABSOLUTE
    ../clib/microlib/init/entry.s            0x00000000   Number         0  entry2.o ABSOLUTE
    ../clib/microlib/init/entry.s            0x00000000   Number         0  entry9b.o ABSOLUTE
    ../clib/microlib/init/entry.s            0x00000000   Number         0  entry8b.o ABSOLUTE
    ../clib/microlib/init/entry.s            0x00000000   Number         0  entry10a.o ABSOLUTE
    ../clib/microlib/init/entry.s            0x00000000   Number         0  entry10b.o ABSOLUTE
    ../clib/microlib/init/entry.s            0x00000000   Number         0  entry11a.o ABSOLUTE
    ../clib/microlib/init/entry.s            0x00000000   Number         0  entry11b.o ABSOLUTE
    ../clib/microlib/init/entry.s            0x00000000   Number         0  entry5.o ABSOLUTE
    ../clib/microlib/init/entry.s            0x00000000   Number         0  entry7a.o ABSOLUTE
    ../clib/microlib/init/entry.s            0x00000000   Number         0  entry7b.o ABSOLUTE
    ../clib/microlib/init/entry.s            0x00000000   Number         0  entry.o ABSOLUTE
    ../clib/microlib/longlong.c              0x00000000   Number         0  llsshr.o ABSOLUTE
    ../clib/microlib/longlong.c              0x00000000   Number         0  llushr.o ABSOLUTE
    ../clib/microlib/longlong.c              0x00000000   Number         0  llshl.o ABSOLUTE
    ../clib/microlib/printf/printf.c         0x00000000   Number         0  printfa.o ABSOLUTE
    ../clib/microlib/stdio/fputc.c           0x00000000   Number         0  fputc.o ABSOLUTE
    ../clib/microlib/stdio/semi.s            0x00000000   Number         0  semi.o ABSOLUTE
    ../clib/microlib/stdio/streams.c         0x00000000   Number         0  stdout.o ABSOLUTE
    ../clib/microlib/string/memcmp.c         0x00000000   Number         0  memcmp.o ABSOLUTE
    ../clib/microlib/string/memcpy.c         0x00000000   Number         0  memcpya.o ABSOLUTE
    ../clib/microlib/string/memcpy.c         0x00000000   Number         0  memcpyb.o ABSOLUTE
    ../clib/microlib/string/memset.c         0x00000000   Number         0  memseta.o ABSOLUTE
    ../clib/microlib/stubs.s                 0x00000000   Number         0  iusesemip.o ABSOLUTE
    ../clib/microlib/stubs.s                 0x00000000   Number         0  iusefp.o ABSOLUTE
    ../clib/microlib/unhosted.c              0x00000000   Number         0  uwrite4.o ABSOLUTE
    ../clib/microlib/unhosted.c              0x00000000   Number         0  uread4.o ABSOLUTE
    ../fplib/microlib/f2d.c                  0x00000000   Number         0  f2d.o ABSOLUTE
    ../fplib/microlib/fpadd.c                0x00000000   Number         0  fadd.o ABSOLUTE
    ../fplib/microlib/fpadd.c                0x00000000   Number         0  dadd.o ABSOLUTE
    ../fplib/microlib/fpdiv.c                0x00000000   Number         0  ddiv.o ABSOLUTE
    ../fplib/microlib/fpepilogue.c           0x00000000   Number         0  depilogue.o ABSOLUTE
    ../fplib/microlib/fpepilogue.c           0x00000000   Number         0  fepilogue.o ABSOLUTE
    ../fplib/microlib/fpfix.c                0x00000000   Number         0  dfixui.o ABSOLUTE
    ../fplib/microlib/fpfix.c                0x00000000   Number         0  dfixul.o ABSOLUTE
    ../fplib/microlib/fpflt.c                0x00000000   Number         0  dflti.o ABSOLUTE
    ../fplib/microlib/fpflt.c                0x00000000   Number         0  dfltui.o ABSOLUTE
    ../fplib/microlib/fpflt.c                0x00000000   Number         0  ffltui.o ABSOLUTE
    ../fplib/microlib/fpmul.c                0x00000000   Number         0  dmul.o ABSOLUTE
    ..\..\..\Driver\debug.c                  0x00000000   Number         0  debug.o ABSOLUTE
    ..\..\..\Driver\delay.c                  0x00000000   Number         0  delay.o ABSOLUTE
    ..\..\..\Driver\gpio.c                   0x00000000   Number         0  gpio.o ABSOLUTE
    ..\..\..\Rtt\SEGGER_RTT.c                0x00000000   Number         0  segger_rtt.o ABSOLUTE
    ..\..\..\Rtt\SEGGER_RTT_Syscalls_KEIL.c  0x00000000   Number         0  segger_rtt_syscalls_keil.o ABSOLUTE
    ..\..\..\Rtt\SEGGER_RTT_printf.c         0x00000000   Number         0  segger_rtt_printf.o ABSOLUTE
    ..\..\..\ble\ota.c                       0x00000000   Number         0  ota.o ABSOLUTE
    ..\\..\\..\\Driver\\debug.c              0x00000000   Number         0  debug.o ABSOLUTE
    ..\\..\\..\\Driver\\delay.c              0x00000000   Number         0  delay.o ABSOLUTE
    ..\\..\\..\\Driver\\gpio.c               0x00000000   Number         0  gpio.o ABSOLUTE
    ..\\..\\..\\Rtt\\SEGGER_RTT.c            0x00000000   Number         0  segger_rtt.o ABSOLUTE
    ..\\..\\..\\Rtt\\SEGGER_RTT_Syscalls_KEIL.c 0x00000000   Number         0  segger_rtt_syscalls_keil.o ABSOLUTE
    ..\\..\\..\\Rtt\\SEGGER_RTT_printf.c     0x00000000   Number         0  segger_rtt_printf.o ABSOLUTE
    ..\\..\\..\\ble\\ota.c                   0x00000000   Number         0  ota.o ABSOLUTE
    ..\\main.c                               0x00000000   Number         0  main.o ABSOLUTE
    ..\\rtc_handler.c                        0x00000000   Number         0  rtc_handler.o ABSOLUTE
    ..\\timer_handler.c                      0x00000000   Number         0  timer_handler.o ABSOLUTE
    ..\\uart.c                               0x00000000   Number         0  uart.o ABSOLUTE
    ..\\uart_protocol.c                      0x00000000   Number         0  uart_protocol.o ABSOLUTE
    ..\main.c                                0x00000000   Number         0  main.o ABSOLUTE
    ..\rtc_handler.c                         0x00000000   Number         0  rtc_handler.o ABSOLUTE
    ..\timer_handler.c                       0x00000000   Number         0  timer_handler.o ABSOLUTE
    ..\uart.c                                0x00000000   Number         0  uart.o ABSOLUTE
    ..\uart_protocol.c                       0x00000000   Number         0  uart_protocol.o ABSOLUTE
    Driver\\rtc.c                            0x00000000   Number         0  rtc.o ABSOLUTE
    Driver\\timer.c                          0x00000000   Number         0  timer.o ABSOLUTE
    Driver\rtc.c                             0x00000000   Number         0  rtc.o ABSOLUTE
    Driver\timer.c                           0x00000000   Number         0  timer.o ABSOLUTE
    Main\\main.c                             0x00000000   Number         0  main.o ABSOLUTE
    Main\main.c                              0x00000000   Number         0  main.o ABSOLUTE
    RTE\Device\ARMCM0\startup_ARMCM0.s       0x00000000   Number         0  startup_armcm0.o ABSOLUTE
    RTE\Device\ARMCM0\system_ARMCM0.c        0x00000000   Number         0  system_armcm0.o ABSOLUTE
    RTE\\Device\\ARMCM0\\system_ARMCM0.c     0x00000000   Number         0  system_armcm0.o ABSOLUTE
    cdrcmple.s                               0x00000000   Number         0  cdrcmple.o ABSOLUTE
    dc.s                                     0x00000000   Number         0  dc.o ABSOLUTE
    handlers.s                               0x00000000   Number         0  handlers.o ABSOLUTE
    init.s                                   0x00000000   Number         0  init.o ABSOLUTE
    RESET                                    0x10000000   Section      192  startup_armcm0.o(RESET)
    .ARM.Collect$$$$00000000                 0x100000c0   Section        0  entry.o(.ARM.Collect$$$$00000000)
    .ARM.Collect$$$$00000001                 0x100000c0   Section        4  entry2.o(.ARM.Collect$$$$00000001)
    .ARM.Collect$$$$00000004                 0x100000c4   Section        4  entry5.o(.ARM.Collect$$$$00000004)
    .ARM.Collect$$$$00000008                 0x100000c8   Section        0  entry7b.o(.ARM.Collect$$$$00000008)
    .ARM.Collect$$$$0000000A                 0x100000c8   Section        0  entry8b.o(.ARM.Collect$$$$0000000A)
    .ARM.Collect$$$$0000000B                 0x100000c8   Section        8  entry9a.o(.ARM.Collect$$$$0000000B)
    .ARM.Collect$$$$0000000D                 0x100000d0   Section        0  entry10a.o(.ARM.Collect$$$$0000000D)
    .ARM.Collect$$$$0000000F                 0x100000d0   Section        0  entry11a.o(.ARM.Collect$$$$0000000F)
    .ARM.Collect$$$$00002712                 0x100000d0   Section        4  entry2.o(.ARM.Collect$$$$00002712)
    __lit__00000000                          0x100000d0   Data           4  entry2.o(.ARM.Collect$$$$00002712)
    .text                                    0x100000d4   Section        0  main.o(.text)
    setup_adv_data                           0x10000173   Thumb Code   100  main.o(.text)
    timer_1_callback                         0x10000275   Thumb Code    36  main.o(.text)
    send_to_master                           0x10000299   Thumb Code   176  main.o(.text)
    ble_gatt_write                           0x1000074b   Thumb Code    88  main.o(.text)
    sendToUart                               0x100007a3   Thumb Code    52  main.o(.text)
    ble_init                                 0x100007d7   Thumb Code   116  main.o(.text)
    .text                                    0x100009d4   Section        0  uart_protocol.o(.text)
    .text                                    0x10000a30   Section        0  delay.o(.text)
    .text                                    0x10000a50   Section        0  ota.o(.text)
    EvtCommandComplete                       0x10000a51   Thumb Code    24  ota.o(.text)
    Cmd4KSETTINGWrite                        0x10000cb5   Thumb Code    76  ota.o(.text)
    CmdFwWriteStart                          0x10000d01   Thumb Code    30  ota.o(.text)
    CmdFwUpgradev20                          0x10000d1f   Thumb Code   106  ota.o(.text)
    CmdFlashdataUpgradev30                   0x10000d89   Thumb Code    76  ota.o(.text)
    .text                                    0x10000f44   Section        0  gpio.o(.text)
    .text                                    0x100011f8   Section        0  uart.o(.text)
    __NVIC_EnableIRQ                         0x10001331   Thumb Code    18  uart.o(.text)
    .text                                    0x10001350   Section        0  timer_handler.o(.text)
    .text                                    0x1000139c   Section        0  rtc_handler.o(.text)
    .text                                    0x100013e8   Section        0  debug.o(.text)
    .text                                    0x10001458   Section       28  startup_armcm0.o(.text)
    .text                                    0x10001474   Section        0  system_armcm0.o(.text)
    .text                                    0x10001484   Section        0  main.o(.text)
    _LCDisConnect                            0x10001485   Thumb Code    46  main.o(.text)
    _LCTimer_Handler                         0x100014b3   Thumb Code   248  main.o(.text)
    _LCRxPkt_Handler                         0x100015ff   Thumb Code   294  main.o(.text)
    _LCTxPkt_Handler                         0x10001725   Thumb Code   380  main.o(.text)
    _LLENCReq                                0x1000200b   Thumb Code   286  main.o(.text)
    _GAPStartAdv                             0x1000266b   Thumb Code   558  main.o(.text)
    WaitLLCOverSlpth                         0x10003a97   Thumb Code    38  main.o(.text)
    _BBRXFIFORead                            0x10003abd   Thumb Code   172  main.o(.text)
    _rom_rx_sweyntooth_protect               0x10003b69   Thumb Code   150  main.o(.text)
    STKSetRand                               0x10003bff   Thumb Code    30  main.o(.text)
    AttWriteFlash                            0x10003c1d   Thumb Code   110  main.o(.text)
    GetOverSlpth                             0x10003c8b   Thumb Code    26  main.o(.text)
    .text                                    0x10003cb4   Section        0  timer.o(.text)
    Timer_Evt_Trigger                        0x10003d9d   Thumb Code   110  timer.o(.text)
    __NVIC_EnableIRQ                         0x100042ad   Thumb Code    18  timer.o(.text)
    __NVIC_DisableIRQ                        0x100042bf   Thumb Code    28  timer.o(.text)
    .text                                    0x100042e8   Section        0  rtc.o(.text)
    Timer_RTCEVT_Trigger                     0x10004477   Thumb Code   150  rtc.o(.text)
    .text                                    0x100048b0   Section        0  uidiv.o(.text)
    .text                                    0x100048dc   Section        0  idiv.o(.text)
    .text                                    0x10004904   Section        0  memcpya.o(.text)
    .text                                    0x10004928   Section        0  memseta.o(.text)
    .text                                    0x1000494c   Section        0  memcmp.o(.text)
    .text                                    0x10004966   Section        0  uread4.o(.text)
    .text                                    0x1000497a   Section        0  uwrite4.o(.text)
    .text                                    0x1000498c   Section        0  fadd.o(.text)
    .text                                    0x10004a40   Section        0  dadd.o(.text)
    .text                                    0x10004ba4   Section        0  dmul.o(.text)
    .text                                    0x10004c74   Section        0  ddiv.o(.text)
    .text                                    0x10004d64   Section        0  ffltui.o(.text)
    .text                                    0x10004d74   Section        0  dflti.o(.text)
    .text                                    0x10004d9c   Section        0  dfltui.o(.text)
    .text                                    0x10004db8   Section        0  dfixui.o(.text)
    .text                                    0x10004df4   Section        0  f2d.o(.text)
    .text                                    0x10004e1c   Section        0  uldiv.o(.text)
    .text                                    0x10004e7c   Section        0  llshl.o(.text)
    .text                                    0x10004e9c   Section        0  llushr.o(.text)
    .text                                    0x10004ebe   Section        0  llsshr.o(.text)
    .text                                    0x10004ee4   Section        0  iusefp.o(.text)
    .text                                    0x10004ee4   Section        0  fepilogue.o(.text)
    .text                                    0x10004f66   Section        0  depilogue.o(.text)
    .text                                    0x10005024   Section        0  dfixul.o(.text)
    .text                                    0x10005064   Section       40  cdrcmple.o(.text)
    .text                                    0x1000508c   Section       36  init.o(.text)
    .text                                    0x100050b0   Section        0  __dczerorl2.o(.text)
    i.__0vsprintf                            0x10005108   Section        0  printfa.o(i.__0vsprintf)
    i.__ARM_clz                              0x1000512c   Section        0  depilogue.o(i.__ARM_clz)
    i.__ARM_common_switch8                   0x1000515a   Section        0  main.o(i.__ARM_common_switch8)
    i.__scatterload_copy                     0x10005174   Section       14  handlers.o(i.__scatterload_copy)
    i.__scatterload_null                     0x10005182   Section        2  handlers.o(i.__scatterload_null)
    i.__scatterload_zeroinit                 0x10005184   Section       14  handlers.o(i.__scatterload_zeroinit)
    i._fp_digits                             0x10005194   Section        0  printfa.o(i._fp_digits)
    _fp_digits                               0x10005195   Thumb Code   316  printfa.o(i._fp_digits)
    i._printf_core                           0x100052ec   Section        0  printfa.o(i._printf_core)
    _printf_core                             0x100052ed   Thumb Code  1754  printfa.o(i._printf_core)
    i._printf_post_padding                   0x100059d8   Section        0  printfa.o(i._printf_post_padding)
    _printf_post_padding                     0x100059d9   Thumb Code    32  printfa.o(i._printf_post_padding)
    i._printf_pre_padding                    0x100059f8   Section        0  printfa.o(i._printf_pre_padding)
    _printf_pre_padding                      0x100059f9   Thumb Code    44  printfa.o(i._printf_pre_padding)
    i._sputc                                 0x10005a24   Section        0  printfa.o(i._sputc)
    _sputc                                   0x10005a25   Thumb Code    10  printfa.o(i._sputc)
    .constdata                               0x10005a2e   Section       40  main.o(.constdata)
    _ll_packet_length                        0x10005a31   Data          15  main.o(.constdata)
    _smp_packet_lenght                       0x10005a40   Data          22  main.o(.constdata)
    .data                                    0x20003000   Section       59  main.o(.data)
    latency_state                            0x20003001   Data           1  main.o(.data)
    start_tx                                 0x20003003   Data           1  main.o(.data)
    uart_delay_cnt                           0x20003004   Data           2  main.o(.data)
    g_report                                 0x20003008   Data           4  main.o(.data)
    .data                                    0x2000303c   Section       28  ota.o(.data)
    EvtBuf                                   0x20003050   Data           8  ota.o(.data)
    .data                                    0x20003058   Section       72  gpio.o(.data)
    gpio_callback                            0x2000306c   Data           4  gpio.o(.data)
    pinmuxtab48                              0x20003070   Data          24  gpio.o(.data)
    pinmuxtab32                              0x20003088   Data          24  gpio.o(.data)
    .data                                    0x200030a0   Section        8  uart.o(.data)
    UART_0_CTRL                              0x200030a0   Data           4  uart.o(.data)
    UART_1_CTRL                              0x200030a4   Data           4  uart.o(.data)
    .data                                    0x200030a8   Section        4  rtc_handler.o(.data)
    .data                                    0x200030ac   Section        4  system_armcm0.o(.data)
    .data                                    0x200030b0   Section       64  main.o(.data)
    syd_confirm                              0x200030b0   Data           1  main.o(.data)
    ww_minus_cnt                             0x200030b1   Data           1  main.o(.data)
    ext_uart_en                              0x200030b2   Data           1  main.o(.data)
    get_bond_device_idx                      0x200030b3   Data           1  main.o(.data)
    _valid_l2cap_lenght                      0x200030b5   Data           1  main.o(.data)
    rssi_rx                                  0x200030b7   Data           1  main.o(.data)
    p_flash_hdr                              0x200030b8   Data           4  main.o(.data)
    p_lclink                                 0x200030bc   Data           4  main.o(.data)
    p_txpdu                                  0x200030c0   Data           4  main.o(.data)
    p_rxbuf                                  0x200030c4   Data           4  main.o(.data)
    p_flash                                  0x200030c8   Data           4  main.o(.data)
    p_dump_key                               0x200030d0   Data           4  main.o(.data)
    EFUSE_CTRL                               0x200030d4   Data           4  main.o(.data)
    BB_CTRL                                  0x200030d8   Data           4  main.o(.data)
    PW_CTRL                                  0x200030dc   Data           4  main.o(.data)
    PIN_CONFIG                               0x200030e0   Data           4  main.o(.data)
    CONFIG_FLASH_SIZE                        0x200030e4   Data           4  main.o(.data)
    g_evt                                    0x200030e8   Data           8  main.o(.data)
    .data                                    0x200030f0   Section       28  timer.o(.data)
    TIMER_CTRL                               0x200030f4   Data           4  timer.o(.data)
    .data                                    0x2000310c   Section       40  rtc.o(.data)
    enabled                                  0x2000310c   Data           1  rtc.o(.data)
    irq_cb                                   0x2000312c   Data           4  rtc.o(.data)
    .bss                                     0x20003134   Section     2192  main.o(.bss)
    .bss                                     0x200039c4   Section       40  ota.o(.bss)
    .bss                                     0x200039ec   Section       48  timer_handler.o(.bss)
    .bss                                     0x20003a1c   Section       48  rtc_handler.o(.bss)
    .bss                                     0x20003a4c   Section      128  debug.o(.bss)
    s_formatBuffer                           0x20003a4c   Data         128  debug.o(.bss)
    .bss                                     0x20003acc   Section      104  main.o(.bss)
    code_hdr                                 0x20003acc   Data          87  main.o(.bss)
    smart_update_ctrol                       0x20003b23   Data          17  main.o(.bss)
    .bss                                     0x20003b34   Section       12  timer.o(.bss)
    timer_callback                           0x20003b34   Data          12  timer.o(.bss)
    STACK                                    0x20003b40   Section     1024  startup_armcm0.o(STACK)

    Global Symbols

    Symbol Name                              Value     Ov Type        Size  Object(Section)

    BuildAttributes$$THM_ISAv3M$S$PE$A:L22$X:L11$S22$IEEE1$IW$USESV6$~STKCKD$USESV7$~SHL$OTIME$ROPI$EBA8$MICROLIB$REQ8$PRES8$EABIv2 0x00000000   Number         0  anon$$obj.o ABSOLUTE
    __ARM_use_no_argv                        0x00000000   Number         0  main.o ABSOLUTE
    __cpp_initialize__aeabi_                  - Undefined Weak Reference
    __cxa_finalize                            - Undefined Weak Reference
    _clock_init                               - Undefined Weak Reference
    _microlib_exit                            - Undefined Weak Reference
    __Vectors_Size                           0x000000c0   Number         0  startup_armcm0.o ABSOLUTE
    __Vectors                                0x10000000   Data           4  startup_armcm0.o(RESET)
    __Vectors_End                            0x100000c0   Data           0  startup_armcm0.o(RESET)
    __main                                   0x100000c1   Thumb Code     0  entry.o(.ARM.Collect$$$$00000000)
    _main_stk                                0x100000c1   Thumb Code     0  entry2.o(.ARM.Collect$$$$00000001)
    _main_scatterload                        0x100000c5   Thumb Code     0  entry5.o(.ARM.Collect$$$$00000004)
    __main_after_scatterload                 0x100000c9   Thumb Code     0  entry5.o(.ARM.Collect$$$$00000004)
    _main_clock                              0x100000c9   Thumb Code     0  entry7b.o(.ARM.Collect$$$$00000008)
    _main_cpp_init                           0x100000c9   Thumb Code     0  entry8b.o(.ARM.Collect$$$$0000000A)
    _main_init                               0x100000c9   Thumb Code     0  entry9a.o(.ARM.Collect$$$$0000000B)
    __rt_final_cpp                           0x100000d1   Thumb Code     0  entry10a.o(.ARM.Collect$$$$0000000D)
    __rt_final_exit                          0x100000d1   Thumb Code     0  entry11a.o(.ARM.Collect$$$$0000000F)
    gpio_init                                0x100000d5   Thumb Code   158  main.o(.text)
    BLSetConnectionUpdate                    0x100001d7   Thumb Code    74  main.o(.text)
    Connection_latency                       0x10000221   Thumb Code    38  main.o(.text)
    BLE_SendUARTData                         0x10000247   Thumb Code    46  main.o(.text)
    ble_evt_callback                         0x10000349   Thumb Code   680  main.o(.text)
    ota_manage                               0x100005f1   Thumb Code   108  main.o(.text)
    main                                     0x1000065d   Thumb Code   230  main.o(.text)
    HardFault_Handler                        0x10000743   Thumb Code     8  main.o(.text)
    uartRx_callback                          0x100009d5   Thumb Code    58  uart_protocol.o(.text)
    uart_cmd                                 0x10000a0f   Thumb Code    26  uart_protocol.o(.text)
    delay_ms                                 0x10000a31   Thumb Code    26  delay.o(.text)
    CmdFwErase                               0x10000a69   Thumb Code    22  ota.o(.text)
    ota_variable_clear                       0x10000a7f   Thumb Code    24  ota.o(.text)
    ota_cmd                                  0x10000a97   Thumb Code   506  ota.o(.text)
    ota_rsp                                  0x10000c91   Thumb Code    36  ota.o(.text)
    PIN_Pullup_Enable                        0x10000f45   Thumb Code   102  gpio.o(.text)
    PIN_Pullup_Disable                       0x10000fab   Thumb Code   102  gpio.o(.text)
    GPIO_Set_Output                          0x10001011   Thumb Code    48  gpio.o(.text)
    GPIO_Set_Input                           0x10001041   Thumb Code   172  gpio.o(.text)
    GPIO_Pin_Set                             0x100010ed   Thumb Code    48  gpio.o(.text)
    GPIO_Pin_Clear                           0x1000111d   Thumb Code    48  gpio.o(.text)
    GPIO_Pin_Turn                            0x1000114d   Thumb Code    48  gpio.o(.text)
    GPIO_IRQHandler                          0x1000117d   Thumb Code   116  gpio.o(.text)
    uart_0_init                              0x100011f9   Thumb Code   170  uart.o(.text)
    uart_0_write                             0x100012a3   Thumb Code    22  uart.o(.text)
    uart_0_read                              0x100012b9   Thumb Code    52  uart.o(.text)
    UART0_IRQHandler                         0x100012ed   Thumb Code    42  uart.o(.text)
    UART1_IRQHandler                         0x10001317   Thumb Code    26  uart.o(.text)
    Timer_Evt_2s                             0x10001351   Thumb Code    14  timer_handler.o(.text)
    Timer_EVT_1S_OTA                         0x1000135f   Thumb Code    14  timer_handler.o(.text)
    Timer_Evt_List                           0x1000136d   Thumb Code    36  timer_handler.o(.text)
    RTC_Evt_10S                              0x1000139d   Thumb Code    12  rtc_handler.o(.text)
    RTC_Evt_185s                             0x100013a9   Thumb Code    12  rtc_handler.o(.text)
    RTC_Evt_List                             0x100013b5   Thumb Code    40  rtc_handler.o(.text)
    dbg_printf                               0x100013e9   Thumb Code    54  debug.o(.text)
    dbg_hexdump                              0x1000141f   Thumb Code    40  debug.o(.text)
    Reset_Handler                            0x10001459   Thumb Code     8  startup_armcm0.o(.text)
    NMI_Handler                              0x10001461   Thumb Code     2  startup_armcm0.o(.text)
    SVC_Handler                              0x10001465   Thumb Code     2  startup_armcm0.o(.text)
    PendSV_Handler                           0x10001467   Thumb Code     2  startup_armcm0.o(.text)
    SysTick_Handler                          0x10001469   Thumb Code     2  startup_armcm0.o(.text)
    CAP_IRQHandler                           0x1000146b   Thumb Code     0  startup_armcm0.o(.text)
    GPADC_IRQHandler                         0x1000146b   Thumb Code     0  startup_armcm0.o(.text)
    HID_IRQHandler                           0x1000146b   Thumb Code     0  startup_armcm0.o(.text)
    HPWM_IRQHandler                          0x1000146b   Thumb Code     0  startup_armcm0.o(.text)
    HTIMER_IRQHandler                        0x1000146b   Thumb Code     0  startup_armcm0.o(.text)
    I2C0_IRQHandler                          0x1000146b   Thumb Code     0  startup_armcm0.o(.text)
    I2C1_IRQHandler                          0x1000146b   Thumb Code     0  startup_armcm0.o(.text)
    IR_Rx_IRQHandler                         0x1000146b   Thumb Code     0  startup_armcm0.o(.text)
    IR_Tx_IRQHandler                         0x1000146b   Thumb Code     0  startup_armcm0.o(.text)
    ISO_7816_IRQHandler                      0x1000146b   Thumb Code     0  startup_armcm0.o(.text)
    LLC2_IRQHandler                          0x1000146b   Thumb Code     0  startup_armcm0.o(.text)
    LLC_IRQHandler                           0x1000146b   Thumb Code     0  startup_armcm0.o(.text)
    SPIM_IRQHandler                          0x1000146b   Thumb Code     0  startup_armcm0.o(.text)
    SW_IRQHandler                            0x1000146b   Thumb Code     0  startup_armcm0.o(.text)
    TIMER3_IRQHandler                        0x1000146b   Thumb Code     0  startup_armcm0.o(.text)
    TOUCH_IRQHandler                         0x1000146b   Thumb Code     0  startup_armcm0.o(.text)
    SystemInit                               0x10001475   Thumb Code     8  system_armcm0.o(.text)
    LLPingReq                                0x100015ab   Thumb Code    26  main.o(.text)
    LLScanReqHandle                          0x100015c5   Thumb Code    58  main.o(.text)
    _BBGetMask                               0x100018a1   Thumb Code    92  main.o(.text)
    Lib_LLEvtCallback                        0x100018fd   Thumb Code   186  main.o(.text)
    ConnectionLatencyMode                    0x100019b7   Thumb Code   112  main.o(.text)
    sw_timer_latency_callback                0x10001a27   Thumb Code    42  main.o(.text)
    TimerStart                               0x10001a51   Thumb Code    10  main.o(.text)
    smart_latency_start                      0x10001a5b   Thumb Code   212  main.o(.text)
    smart_update_latency_updatersp           0x10001b2f   Thumb Code   162  main.o(.text)
    BBRFRead                                 0x10001bd1   Thumb Code     4  main.o(.text)
    BBRFWrite                                0x10001bd5   Thumb Code     6  main.o(.text)
    RCOSCCalibration                         0x10001bdb   Thumb Code    64  main.o(.text)
    RFSleep                                  0x10001c1b   Thumb Code    10  main.o(.text)
    UartEn                                   0x10001c25   Thumb Code    32  main.o(.text)
    _SYS32kClockSwitch                       0x10001c45   Thumb Code   270  main.o(.text)
    ClockSwitch                              0x10001d53   Thumb Code    10  main.o(.text)
    RFWakeup                                 0x10001d5d   Thumb Code    22  main.o(.text)
    LPOCalibration                           0x10001d73   Thumb Code   254  main.o(.text)
    smart_latency_clear                      0x10001e71   Thumb Code    12  main.o(.text)
    Lib_EvtCallback                          0x10001e7d   Thumb Code   254  main.o(.text)
    _BMGetNextBondDevice                     0x10001f7b   Thumb Code   144  main.o(.text)
    __LLVersionIndRxHandler                  0x10002129   Thumb Code    66  main.o(.text)
    GetMasterSystem                          0x1000216b   Thumb Code     6  main.o(.text)
    TimerStop                                0x10002171   Thumb Code     4  main.o(.text)
    smart_update_retry                       0x10002175   Thumb Code   158  main.o(.text)
    sw_timer_update_callback                 0x10002213   Thumb Code    60  main.o(.text)
    smart_update_latency_updatareq           0x1000224f   Thumb Code   496  main.o(.text)
    Lib_ProtocolHookCallback                 0x1000243f   Thumb Code   116  main.o(.text)
    Lib_MiscCallback                         0x100024b3   Thumb Code    14  main.o(.text)
    BleInit                                  0x100024c1   Thumb Code   344  main.o(.text)
    DisConnect                               0x10002619   Thumb Code    10  main.o(.text)
    SetDevAddr                               0x10002623   Thumb Code    12  main.o(.text)
    GetDevAddr                               0x1000262f   Thumb Code    12  main.o(.text)
    SetLEFeature                             0x1000263b   Thumb Code    12  main.o(.text)
    SetAdvAccCode                            0x10002647   Thumb Code    12  main.o(.text)
    SetAdvParams                             0x10002653   Thumb Code    12  main.o(.text)
    SetAdvData                               0x1000265f   Thumb Code    12  main.o(.text)
    StartAdv                                 0x10002899   Thumb Code    10  main.o(.text)
    StopAdv                                  0x100028a3   Thumb Code    24  main.o(.text)
    StopAdv_Noreset                          0x100028bb   Thumb Code    38  main.o(.text)
    SetScanParams                            0x100028e1   Thumb Code    10  main.o(.text)
    _BBSetScan                               0x100028eb   Thumb Code    46  main.o(.text)
    _GAPStartScan                            0x10002919   Thumb Code   254  main.o(.text)
    StartScan                                0x10002a17   Thumb Code    10  main.o(.text)
    StopScan                                 0x10002a21   Thumb Code    10  main.o(.text)
    SetSecParams                             0x10002a2b   Thumb Code    12  main.o(.text)
    SetConnectionUpdate                      0x10002a37   Thumb Code    12  main.o(.text)
    GetLinkParameters                        0x10002a43   Thumb Code    12  main.o(.text)
    SetWinWideMinusCnt                       0x10002a4f   Thumb Code     8  main.o(.text)
    SetPasskey                               0x10002a57   Thumb Code    12  main.o(.text)
    SecurityReq                              0x10002a63   Thumb Code    12  main.o(.text)
    SetEvtCallback                           0x10002a6f   Thumb Code    54  main.o(.text)
    GetGATTReportHandle                      0x10002aa5   Thumb Code    10  main.o(.text)
    SetGATTReadRsp                           0x10002aaf   Thumb Code    12  main.o(.text)
    CheckFIFOFull                            0x10002abb   Thumb Code    18  main.o(.text)
    GATTDataSend                             0x10002acd   Thumb Code    86  main.o(.text)
    ATTCSetCallback                          0x10002b23   Thumb Code     4  main.o(.text)
    ATTCMTUReq                               0x10002b27   Thumb Code    24  main.o(.text)
    ATTCFindInfoReq                          0x10002b3f   Thumb Code    28  main.o(.text)
    ATTCFindByTypeValueReq                   0x10002b5b   Thumb Code    40  main.o(.text)
    ATTCReadByTypeReq                        0x10002b83   Thumb Code    36  main.o(.text)
    ATTCReadReq                              0x10002ba7   Thumb Code    24  main.o(.text)
    ATTCReadBlobReq                          0x10002bbf   Thumb Code    28  main.o(.text)
    ATTCReadMultipleReq                      0x10002bdb   Thumb Code    28  main.o(.text)
    ATTCReadByGroupTypeReq                   0x10002bf7   Thumb Code    34  main.o(.text)
    ATTCWriteReq                             0x10002c19   Thumb Code    32  main.o(.text)
    ATTCWriteCmdReq                          0x10002c39   Thumb Code    32  main.o(.text)
    ATTCPrepareWriteReq                      0x10002c59   Thumb Code    36  main.o(.text)
    ATTCExecuteWriteReq                      0x10002c7d   Thumb Code    24  main.o(.text)
    ATTCConfirmation                         0x10002c95   Thumb Code    20  main.o(.text)
    _SYSClockSwitch                          0x10002ca9   Thumb Code    86  main.o(.text)
    MCUClockSwitch                           0x10002cff   Thumb Code     2  main.o(.text)
    GetMCUClock                              0x10002d01   Thumb Code    14  main.o(.text)
    GetClock                                 0x10002d0f   Thumb Code    16  main.o(.text)
    WakeupConfig                             0x10002d1f   Thumb Code    12  main.o(.text)
    LLSleep                                  0x10002d2b   Thumb Code    12  main.o(.text)
    Rand                                     0x10002d37   Thumb Code     4  main.o(.text)
    DelayUS                                  0x10002d3b   Thumb Code     4  main.o(.text)
    DelayMS                                  0x10002d3f   Thumb Code     6  main.o(.text)
    GetCompanyID                             0x10002d45   Thumb Code    18  main.o(.text)
    GetQFNType                               0x10002d57   Thumb Code    20  main.o(.text)
    RFRead                                   0x10002d6b   Thumb Code    70  main.o(.text)
    RFWrite                                  0x10002db1   Thumb Code     8  main.o(.text)
    lib_check_ble_fsm_state                  0x10002db9   Thumb Code    26  main.o(.text)
    SystemSleep                              0x10002dd3   Thumb Code    18  main.o(.text)
    SystemPowerDown                          0x10002de5   Thumb Code    78  main.o(.text)
    SystemReset                              0x10002e33   Thumb Code    12  main.o(.text)
    CapdetEn                                 0x10002e3f   Thumb Code    10  main.o(.text)
    PowerDownLPOEn                           0x10002e49   Thumb Code    12  main.o(.text)
    SetBondManagerIndex                      0x10002e55   Thumb Code    12  main.o(.text)
    GetBondDevice                            0x10002e61   Thumb Code     6  main.o(.text)
    AddBondDevice                            0x10002e67   Thumb Code    12  main.o(.text)
    DelAllBondDevice                         0x10002e73   Thumb Code    10  main.o(.text)
    DelBondDevice                            0x10002e7d   Thumb Code    12  main.o(.text)
    ReadProfileData                          0x10002e89   Thumb Code     6  main.o(.text)
    WriteProfileData                         0x10002e8f   Thumb Code     6  main.o(.text)
    EraseFlashData                           0x10002e95   Thumb Code    78  main.o(.text)
    ReadFlashData                            0x10002ee3   Thumb Code    56  main.o(.text)
    WriteFlashData                           0x10002f1b   Thumb Code    56  main.o(.text)
    CodeErase                                0x10002f53   Thumb Code   100  main.o(.text)
    CodeErase_sector                         0x10002fb7   Thumb Code    72  main.o(.text)
    _FMCodeWrite                             0x10002fff   Thumb Code    58  main.o(.text)
    CodeWrite                                0x10003039   Thumb Code    30  main.o(.text)
    CodeUpdate                               0x10003057   Thumb Code    10  main.o(.text)
    FlashDataUpdate                          0x10003061   Thumb Code   124  main.o(.text)
    ble_sched_execute                        0x100030dd   Thumb Code   150  main.o(.text)
    ble_sched_finish                         0x10003173   Thumb Code     4  main.o(.text)
    syd52832_chip_confirm                    0x10003177   Thumb Code    26  main.o(.text)
    gap_s_smart_update_latency               0x10003191   Thumb Code   246  main.o(.text)
    eFuseManual                              0x10003287   Thumb Code    28  main.o(.text)
    GPADC_Manual_Calibration                 0x100032a3   Thumb Code    34  main.o(.text)
    GPADC_Get_Calibration                    0x100032c5   Thumb Code    22  main.o(.text)
    GAPGetUartEn                             0x100032db   Thumb Code     6  main.o(.text)
    GAPUartEn                                0x100032e1   Thumb Code     6  main.o(.text)
    GAPBBDelayUS                             0x100032e7   Thumb Code     4  main.o(.text)
    GAPBBDelayMS                             0x100032eb   Thumb Code     6  main.o(.text)
    GAPGetRFAutoSleep                        0x100032f1   Thumb Code     4  main.o(.text)
    GAPSetRFAutoSleep                        0x100032f5   Thumb Code     6  main.o(.text)
    Setting4kUpdate                          0x100032fb   Thumb Code   116  main.o(.text)
    SetDevAddr_toflash                       0x1000336f   Thumb Code    72  main.o(.text)
    gap_s_verdor_datas_get                   0x100033b7   Thumb Code    28  main.o(.text)
    gap_s_verdor_datas_set                   0x100033d3   Thumb Code    66  main.o(.text)
    gap_s_is_ll_start_enc                    0x10003415   Thumb Code    26  main.o(.text)
    GAPBBTXFIFO0Write                        0x1000342f   Thumb Code     4  main.o(.text)
    flash_peotect_key_confirm                0x10003433   Thumb Code   148  main.o(.text)
    swd_lock                                 0x100034c7   Thumb Code    36  main.o(.text)
    flash_data_offect_get                    0x100034eb   Thumb Code    52  main.o(.text)
    EraseCodeB                               0x1000351f   Thumb Code    58  main.o(.text)
    ReadCodeB                                0x10003559   Thumb Code    64  main.o(.text)
    WriteCodeB                               0x10003599   Thumb Code    96  main.o(.text)
    ble_SetTxPower                           0x100035f9   Thumb Code   248  main.o(.text)
    flash_data_size_get                      0x100036f1   Thumb Code    18  main.o(.text)
    code_idx_get                             0x10003703   Thumb Code     6  main.o(.text)
    flash_data_size_set                      0x10003709   Thumb Code   146  main.o(.text)
    Get_RSSI_Last_RX                         0x1000379b   Thumb Code    82  main.o(.text)
    APP_Read_Attribute_Encrypt               0x100037ed   Thumb Code    62  main.o(.text)
    APP_Write_Attribute_Encrypt              0x1000382b   Thumb Code    66  main.o(.text)
    APP_Read_Charact_Permission              0x1000386d   Thumb Code    66  main.o(.text)
    smart_latency_target                     0x100038af   Thumb Code    30  main.o(.text)
    smp_aes_encrypt                          0x100038cd   Thumb Code     4  main.o(.text)
    gap_get_flash_data_info                  0x100038d1   Thumb Code    26  main.o(.text)
    gap_set_flash_data_info                  0x100038eb   Thumb Code    70  main.o(.text)
    gap_check_dev_bonded                     0x10003931   Thumb Code     6  main.o(.text)
    syd_set_chip_flash_all_size              0x10003937   Thumb Code     6  main.o(.text)
    Xtal_trim_get                            0x1000393d   Thumb Code   106  main.o(.text)
    Xtal_trim_set                            0x100039a7   Thumb Code   164  main.o(.text)
    flash_read_sfdp                          0x10003a4b   Thumb Code    46  main.o(.text)
    syd_read_unique_id                       0x10003a79   Thumb Code    30  main.o(.text)
    Timer_Evt_Creat                          0x10003cb5   Thumb Code    54  timer.o(.text)
    Min                                      0x10003ceb   Thumb Code     8  timer.o(.text)
    TimerDelayUS                             0x10003cf3   Thumb Code    24  timer.o(.text)
    timer_0_disable                          0x10003d0b   Thumb Code    48  timer.o(.text)
    timer_0_enable                           0x10003d3b   Thumb Code    96  timer.o(.text)
    timer_0_start                            0x10003d9b   Thumb Code     2  timer.o(.text)
    timer_0_get                              0x10003e0b   Thumb Code    92  timer.o(.text)
    Timer_Evt_Stop                           0x10003e67   Thumb Code   120  timer.o(.text)
    Timer_Evt_ReSet                          0x10003edf   Thumb Code    64  timer.o(.text)
    Timer_Evt_Clr                            0x10003f1f   Thumb Code    10  timer.o(.text)
    Timer_Evt_Start                          0x10003f29   Thumb Code   156  timer.o(.text)
    Timer_Evt_ReStart                        0x10003fc5   Thumb Code   132  timer.o(.text)
    Timer_Get_State                          0x10004049   Thumb Code    34  timer.o(.text)
    SYD_Timer_Init                           0x1000406b   Thumb Code    34  timer.o(.text)
    timer_0_delay_32us                       0x1000408d   Thumb Code    92  timer.o(.text)
    TIMER0_IRQHandler                        0x100040e9   Thumb Code    32  timer.o(.text)
    timer_1_enable                           0x10004109   Thumb Code    96  timer.o(.text)
    timer_1_disable                          0x10004169   Thumb Code    48  timer.o(.text)
    TIMER1_IRQHandler                        0x10004199   Thumb Code    32  timer.o(.text)
    timer_2_enable                           0x100041b9   Thumb Code    96  timer.o(.text)
    timer_1_get                              0x10004219   Thumb Code    34  timer.o(.text)
    timer_2_get                              0x1000423b   Thumb Code    34  timer.o(.text)
    timer_2_disable                          0x1000425d   Thumb Code    48  timer.o(.text)
    TIMER2_IRQHandler                        0x1000428d   Thumb Code    32  timer.o(.text)
    rtc_get_calendar                         0x100042e9   Thumb Code    40  rtc.o(.text)
    RTC_RUN                                  0x10004311   Thumb Code    66  rtc.o(.text)
    rtc_set_compare                          0x10004353   Thumb Code    68  rtc.o(.text)
    RTC_SET                                  0x10004397   Thumb Code    84  rtc.o(.text)
    RTC_Refressh                             0x100043eb   Thumb Code    76  rtc.o(.text)
    RTC_EVT_Creat                            0x10004437   Thumb Code    32  rtc.o(.text)
    Min_RTC                                  0x10004457   Thumb Code     8  rtc.o(.text)
    rtc_int_disable                          0x1000445f   Thumb Code    24  rtc.o(.text)
    RTC_EVT_Clr                              0x1000450d   Thumb Code    10  rtc.o(.text)
    RTC_EVT_Stop                             0x10004517   Thumb Code   112  rtc.o(.text)
    RTC_EVT_Start                            0x10004587   Thumb Code   146  rtc.o(.text)
    RTC_EVT_whole_minute_setid               0x10004619   Thumb Code     6  rtc.o(.text)
    RTC_EVT_whole_minute_adj                 0x1000461f   Thumb Code   132  rtc.o(.text)
    RTC_Get_State                            0x100046a3   Thumb Code    54  rtc.o(.text)
    rtc_start                                0x100046d9   Thumb Code    28  rtc.o(.text)
    rtc_set_interrupt_callback               0x100046f5   Thumb Code     6  rtc.o(.text)
    rtc_int_enable                           0x100046fb   Thumb Code    22  rtc.o(.text)
    rtc_int_clear                            0x10004711   Thumb Code    22  rtc.o(.text)
    rtc_set_calendar                         0x10004727   Thumb Code    40  rtc.o(.text)
    rtc_set_prescaler                        0x1000474f   Thumb Code    34  rtc.o(.text)
    rtc_clear                                0x10004771   Thumb Code    18  rtc.o(.text)
    rtc_stop                                 0x10004783   Thumb Code    30  rtc.o(.text)
    rtc_init                                 0x100047a1   Thumb Code   126  rtc.o(.text)
    SYD_RTC_Init                             0x1000481f   Thumb Code    40  rtc.o(.text)
    RTC_IRQHandler                           0x10004847   Thumb Code    30  rtc.o(.text)
    rtc_status                               0x10004865   Thumb Code     6  rtc.o(.text)
    rtc_get_compare                          0x1000486b   Thumb Code    52  rtc.o(.text)
    __aeabi_uidiv                            0x100048b1   Thumb Code     0  uidiv.o(.text)
    __aeabi_uidivmod                         0x100048b1   Thumb Code    44  uidiv.o(.text)
    __aeabi_idiv                             0x100048dd   Thumb Code     0  idiv.o(.text)
    __aeabi_idivmod                          0x100048dd   Thumb Code    40  idiv.o(.text)
    __aeabi_memcpy                           0x10004905   Thumb Code    36  memcpya.o(.text)
    __aeabi_memcpy4                          0x10004905   Thumb Code     0  memcpya.o(.text)
    __aeabi_memcpy8                          0x10004905   Thumb Code     0  memcpya.o(.text)
    __aeabi_memset                           0x10004929   Thumb Code    14  memseta.o(.text)
    __aeabi_memset4                          0x10004929   Thumb Code     0  memseta.o(.text)
    __aeabi_memset8                          0x10004929   Thumb Code     0  memseta.o(.text)
    __aeabi_memclr                           0x10004937   Thumb Code     4  memseta.o(.text)
    __aeabi_memclr4                          0x10004937   Thumb Code     0  memseta.o(.text)
    __aeabi_memclr8                          0x10004937   Thumb Code     0  memseta.o(.text)
    _memset$wrapper                          0x1000493b   Thumb Code    18  memseta.o(.text)
    memcmp                                   0x1000494d   Thumb Code    26  memcmp.o(.text)
    __aeabi_uread4                           0x10004967   Thumb Code    20  uread4.o(.text)
    __rt_uread4                              0x10004967   Thumb Code     0  uread4.o(.text)
    _uread4                                  0x10004967   Thumb Code     0  uread4.o(.text)
    __aeabi_uwrite4                          0x1000497b   Thumb Code    18  uwrite4.o(.text)
    __rt_uwrite4                             0x1000497b   Thumb Code     0  uwrite4.o(.text)
    _uwrite4                                 0x1000497b   Thumb Code     0  uwrite4.o(.text)
    __aeabi_fadd                             0x1000498d   Thumb Code   162  fadd.o(.text)
    __aeabi_fsub                             0x10004a2f   Thumb Code     8  fadd.o(.text)
    __aeabi_frsub                            0x10004a37   Thumb Code     8  fadd.o(.text)
    __aeabi_dadd                             0x10004a41   Thumb Code   328  dadd.o(.text)
    __aeabi_dsub                             0x10004b89   Thumb Code    12  dadd.o(.text)
    __aeabi_drsub                            0x10004b95   Thumb Code    12  dadd.o(.text)
    __aeabi_dmul                             0x10004ba5   Thumb Code   202  dmul.o(.text)
    __aeabi_ddiv                             0x10004c75   Thumb Code   234  ddiv.o(.text)
    __aeabi_ui2f                             0x10004d65   Thumb Code    14  ffltui.o(.text)
    __aeabi_i2d                              0x10004d75   Thumb Code    34  dflti.o(.text)
    __aeabi_ui2d                             0x10004d9d   Thumb Code    24  dfltui.o(.text)
    __aeabi_d2uiz                            0x10004db9   Thumb Code    50  dfixui.o(.text)
    __aeabi_f2d                              0x10004df5   Thumb Code    40  f2d.o(.text)
    __aeabi_uldivmod                         0x10004e1d   Thumb Code    96  uldiv.o(.text)
    __aeabi_llsl                             0x10004e7d   Thumb Code    32  llshl.o(.text)
    _ll_shift_l                              0x10004e7d   Thumb Code     0  llshl.o(.text)
    __aeabi_llsr                             0x10004e9d   Thumb Code    34  llushr.o(.text)
    _ll_ushift_r                             0x10004e9d   Thumb Code     0  llushr.o(.text)
    __aeabi_lasr                             0x10004ebf   Thumb Code    38  llsshr.o(.text)
    _ll_sshift_r                             0x10004ebf   Thumb Code     0  llsshr.o(.text)
    __I$use$fp                               0x10004ee5   Thumb Code     0  iusefp.o(.text)
    _float_round                             0x10004ee5   Thumb Code    16  fepilogue.o(.text)
    _float_epilogue                          0x10004ef5   Thumb Code   114  fepilogue.o(.text)
    _double_round                            0x10004f67   Thumb Code    26  depilogue.o(.text)
    _double_epilogue                         0x10004f81   Thumb Code   164  depilogue.o(.text)
    __aeabi_d2ulz                            0x10005025   Thumb Code    54  dfixul.o(.text)
    __aeabi_cdrcmple                         0x10005065   Thumb Code    38  cdrcmple.o(.text)
    __scatterload                            0x1000508d   Thumb Code    28  init.o(.text)
    __scatterload_rt2                        0x1000508d   Thumb Code     0  init.o(.text)
    __decompress                             0x100050b1   Thumb Code     0  __dczerorl2.o(.text)
    __decompress1                            0x100050b1   Thumb Code    86  __dczerorl2.o(.text)
    __0vsprintf                              0x10005109   Thumb Code    30  printfa.o(i.__0vsprintf)
    __1vsprintf                              0x10005109   Thumb Code     0  printfa.o(i.__0vsprintf)
    __2vsprintf                              0x10005109   Thumb Code     0  printfa.o(i.__0vsprintf)
    __c89vsprintf                            0x10005109   Thumb Code     0  printfa.o(i.__0vsprintf)
    vsprintf                                 0x10005109   Thumb Code     0  printfa.o(i.__0vsprintf)
    __ARM_clz                                0x1000512d   Thumb Code    46  depilogue.o(i.__ARM_clz)
    __ARM_common_switch8                     0x1000515b   Thumb Code    26  main.o(i.__ARM_common_switch8)
    __scatterload_copy                       0x10005175   Thumb Code    14  handlers.o(i.__scatterload_copy)
    __scatterload_null                       0x10005183   Thumb Code     2  handlers.o(i.__scatterload_null)
    __scatterload_zeroinit                   0x10005185   Thumb Code    14  handlers.o(i.__scatterload_zeroinit)
    adv_chn_to_freq_idx                      0x10005a2e   Data           3  main.o(.constdata)
    Region$$Table$$Base                      0x10005a58   Number         0  anon$$obj.o(Region$$Table)
    Region$$Table$$Limit                     0x10005a78   Number         0  anon$$obj.o(Region$$Table)
    connect_flag                             0x20003000   Data           1  main.o(.data)
    update_latency_mode                      0x20003002   Data           1  main.o(.data)
    ADV_DATA                                 0x2000300c   Data          27  main.o(.data)
    SCAN_DATA                                0x20003027   Data          20  main.o(.data)
    ota_state                                0x2000303c   Data           1  ota.o(.data)
    ota_writecnt                             0x2000303d   Data           1  ota.o(.data)
    ota_section_size                         0x2000303e   Data           2  ota.o(.data)
    ota_receive_size                         0x20003040   Data           2  ota.o(.data)
    ota_section_check                        0x20003042   Data           2  ota.o(.data)
    ota_receive_check                        0x20003044   Data           2  ota.o(.data)
    ota_section_offset                       0x20003048   Data           4  ota.o(.data)
    pevt                                     0x2000304c   Data           4  ota.o(.data)
    PIN_CONFIG                               0x20003058   Data           4  gpio.o(.data)
    GPIO_CTRL                                0x2000305c   Data           4  gpio.o(.data)
    GPO_CTRL                                 0x20003060   Data           4  gpio.o(.data)
    GPI_CTRL                                 0x20003064   Data           4  gpio.o(.data)
    GPIO_IRQ_CTRL                            0x20003068   Data           4  gpio.o(.data)
    syd_history_setting_str                  0x200030a8   Data           4  rtc_handler.o(.data)
    SystemCoreClock                          0x200030ac   Data           4  system_armcm0.o(.data)
    ble_rc32k_clk_lpo_ing_flag               0x200030b4   Data           1  main.o(.data)
    master_system                            0x200030b6   Data           1  main.o(.data)
    p_gett_db_hdr                            0x200030cc   Data           4  main.o(.data)
    Event_Num                                0x200030f0   Data           1  timer.o(.data)
    max_trigger_timer                        0x200030f8   Data           4  timer.o(.data)
    TIMER_EVT                                0x200030fc   Data           4  timer.o(.data)
    Timer_Evt_Trigger_Loop_now               0x20003100   Data           4  timer.o(.data)
    sys_timer_max_p                          0x20003104   Data           4  timer.o(.data)
    sys_timer_current_p                      0x20003108   Data           4  timer.o(.data)
    RTC_Event_Num                            0x2000310d   Data           1  rtc.o(.data)
    max_trigger_rtc                          0x20003110   Data           4  rtc.o(.data)
    RTC_EVT                                  0x20003114   Data           4  rtc.o(.data)
    RTC_RTCEVT_Trigger_Loop_now              0x20003118   Data           4  rtc.o(.data)
    RTC_second_now                           0x2000311c   Data           4  rtc.o(.data)
    sys_rtc_max_p                            0x20003120   Data           4  rtc.o(.data)
    sys_rtc_current_p                        0x20003124   Data           4  rtc.o(.data)
    RTCEVT_whole_minute_id                   0x20003128   Data           4  rtc.o(.data)
    RTC_second_last                          0x20003130   Data           4  rtc.o(.data)
    uart_rx_buf                              0x20003134   Data        1032  main.o(.bss)
    uart_tx_buf                              0x2000353c   Data        1160  main.o(.bss)
    ota_w                                    0x200039c4   Data          40  ota.o(.bss)
    syd_sysTimer                             0x200039ec   Data          48  timer_handler.o(.bss)
    syd_rtc                                  0x20003a1c   Data          48  rtc_handler.o(.bss)
    __initial_sp                             0x20003f40   Data           0  startup_armcm0.o(STACK)



==============================================================================

Memory Map of the image

  Image Entry point : 0x100000c1

  Load Region LR_IROM1 (Base: 0x10000000, Size: 0x00005bac, Max: 0x0003f000, ABSOLUTE, COMPRESSED[0x00005b14])

    Execution Region ER_IROM1 (Base: 0x10000000, Size: 0x00005a78, Max: 0x0003f000, ABSOLUTE)

    Base Addr    Size         Type   Attr      Idx    E Section Name        Object

    0x10000000   0x000000c0   Data   RO          477    RESET               startup_armcm0.o
    0x100000c0   0x00000000   Code   RO          699  * .ARM.Collect$$$$00000000  mc_p.l(entry.o)
    0x100000c0   0x00000004   Code   RO          764    .ARM.Collect$$$$00000001  mc_p.l(entry2.o)
    0x100000c4   0x00000004   Code   RO          767    .ARM.Collect$$$$00000004  mc_p.l(entry5.o)
    0x100000c8   0x00000000   Code   RO          769    .ARM.Collect$$$$00000008  mc_p.l(entry7b.o)
    0x100000c8   0x00000000   Code   RO          771    .ARM.Collect$$$$0000000A  mc_p.l(entry8b.o)
    0x100000c8   0x00000008   Code   RO          772    .ARM.Collect$$$$0000000B  mc_p.l(entry9a.o)
    0x100000d0   0x00000000   Code   RO          774    .ARM.Collect$$$$0000000D  mc_p.l(entry10a.o)
    0x100000d0   0x00000000   Code   RO          776    .ARM.Collect$$$$0000000F  mc_p.l(entry11a.o)
    0x100000d0   0x00000004   Code   RO          765    .ARM.Collect$$$$00002712  mc_p.l(entry2.o)
    0x100000d4   0x00000900   Code   RO            3    .text               main.o
    0x100009d4   0x0000005c   Code   RO           97    .text               uart_protocol.o
    0x10000a30   0x00000020   Code   RO          121    .text               delay.o
    0x10000a50   0x000004f4   Code   RO          147    .text               ota.o
    0x10000f44   0x000002b4   Code   RO          190    .text               gpio.o
    0x100011f8   0x00000158   Code   RO          266    .text               uart.o
    0x10001350   0x0000004c   Code   RO          333    .text               timer_handler.o
    0x1000139c   0x0000004c   Code   RO          366    .text               rtc_handler.o
    0x100013e8   0x00000070   Code   RO          395    .text               debug.o
    0x10001458   0x0000001c   Code   RO          478    .text               startup_armcm0.o
    0x10001474   0x00000010   Code   RO          485    .text               system_armcm0.o
    0x10001484   0x00002830   Code   RO          516    .text               syd8811_ble_lib.lib(main.o)
    0x10003cb4   0x00000634   Code   RO          596    .text               Syd8811_softtimer_lib.lib(timer.o)
    0x100042e8   0x000005c8   Code   RO          664    .text               Syd8811_softtimer_lib.lib(rtc.o)
    0x100048b0   0x0000002c   Code   RO          702    .text               mc_p.l(uidiv.o)
    0x100048dc   0x00000028   Code   RO          704    .text               mc_p.l(idiv.o)
    0x10004904   0x00000024   Code   RO          706    .text               mc_p.l(memcpya.o)
    0x10004928   0x00000024   Code   RO          708    .text               mc_p.l(memseta.o)
    0x1000494c   0x0000001a   Code   RO          710    .text               mc_p.l(memcmp.o)
    0x10004966   0x00000014   Code   RO          742    .text               mc_p.l(uread4.o)
    0x1000497a   0x00000012   Code   RO          744    .text               mc_p.l(uwrite4.o)
    0x1000498c   0x000000b2   Code   RO          746    .text               mf_p.l(fadd.o)
    0x10004a3e   0x00000002   PAD
    0x10004a40   0x00000164   Code   RO          748    .text               mf_p.l(dadd.o)
    0x10004ba4   0x000000d0   Code   RO          750    .text               mf_p.l(dmul.o)
    0x10004c74   0x000000f0   Code   RO          752    .text               mf_p.l(ddiv.o)
    0x10004d64   0x0000000e   Code   RO          754    .text               mf_p.l(ffltui.o)
    0x10004d72   0x00000002   PAD
    0x10004d74   0x00000028   Code   RO          756    .text               mf_p.l(dflti.o)
    0x10004d9c   0x0000001c   Code   RO          758    .text               mf_p.l(dfltui.o)
    0x10004db8   0x0000003c   Code   RO          760    .text               mf_p.l(dfixui.o)
    0x10004df4   0x00000028   Code   RO          762    .text               mf_p.l(f2d.o)
    0x10004e1c   0x00000060   Code   RO          781    .text               mc_p.l(uldiv.o)
    0x10004e7c   0x00000020   Code   RO          783    .text               mc_p.l(llshl.o)
    0x10004e9c   0x00000022   Code   RO          785    .text               mc_p.l(llushr.o)
    0x10004ebe   0x00000026   Code   RO          787    .text               mc_p.l(llsshr.o)
    0x10004ee4   0x00000000   Code   RO          789    .text               mc_p.l(iusefp.o)
    0x10004ee4   0x00000082   Code   RO          790    .text               mf_p.l(fepilogue.o)
    0x10004f66   0x000000be   Code   RO          792    .text               mf_p.l(depilogue.o)
    0x10005024   0x00000040   Code   RO          796    .text               mf_p.l(dfixul.o)
    0x10005064   0x00000028   Code   RO          798    .text               mf_p.l(cdrcmple.o)
    0x1000508c   0x00000024   Code   RO          800    .text               mc_p.l(init.o)
    0x100050b0   0x00000056   Code   RO          812    .text               mc_p.l(__dczerorl2.o)
    0x10005106   0x00000002   PAD
    0x10005108   0x00000024   Code   RO          721    i.__0vsprintf       mc_p.l(printfa.o)
    0x1000512c   0x0000002e   Code   RO          794    i.__ARM_clz         mf_p.l(depilogue.o)
    0x1000515a   0x0000001a   Code   RO           23    i.__ARM_common_switch8  main.o
    0x10005174   0x0000000e   Code   RO          806    i.__scatterload_copy  mc_p.l(handlers.o)
    0x10005182   0x00000002   Code   RO          807    i.__scatterload_null  mc_p.l(handlers.o)
    0x10005184   0x0000000e   Code   RO          808    i.__scatterload_zeroinit  mc_p.l(handlers.o)
    0x10005192   0x00000002   PAD
    0x10005194   0x00000158   Code   RO          722    i._fp_digits        mc_p.l(printfa.o)
    0x100052ec   0x000006ec   Code   RO          723    i._printf_core      mc_p.l(printfa.o)
    0x100059d8   0x00000020   Code   RO          724    i._printf_post_padding  mc_p.l(printfa.o)
    0x100059f8   0x0000002c   Code   RO          725    i._printf_pre_padding  mc_p.l(printfa.o)
    0x10005a24   0x0000000a   Code   RO          727    i._sputc            mc_p.l(printfa.o)
    0x10005a2e   0x00000028   Data   RO          518    .constdata          syd8811_ble_lib.lib(main.o)
    0x10005a56   0x00000002   PAD
    0x10005a58   0x00000020   Data   RO          804    Region$$Table       anon$$obj.o


    Execution Region RW_IRAM1 (Base: 0x20003000, Size: 0x00000f40, Max: 0x00005000, ABSOLUTE, COMPRESSED[0x0000009c])

    Base Addr    Size         Type   Attr      Idx    E Section Name        Object

    0x20003000   0x0000003b   Data   RW            5    .data               main.o
    0x2000303b   0x00000001   PAD
    0x2000303c   0x0000001c   Data   RW          149    .data               ota.o
    0x20003058   0x00000048   Data   RW          198    .data               gpio.o
    0x200030a0   0x00000008   Data   RW          273    .data               uart.o
    0x200030a8   0x00000004   Data   RW          368    .data               rtc_handler.o
    0x200030ac   0x00000004   Data   RW          486    .data               system_armcm0.o
    0x200030b0   0x00000040   Data   RW          519    .data               syd8811_ble_lib.lib(main.o)
    0x200030f0   0x0000001c   Data   RW          598    .data               Syd8811_softtimer_lib.lib(timer.o)
    0x2000310c   0x00000028   Data   RW          665    .data               Syd8811_softtimer_lib.lib(rtc.o)
    0x20003134   0x00000890   Zero   RW            4    .bss                main.o
    0x200039c4   0x00000028   Zero   RW          148    .bss                ota.o
    0x200039ec   0x00000030   Zero   RW          334    .bss                timer_handler.o
    0x20003a1c   0x00000030   Zero   RW          367    .bss                rtc_handler.o
    0x20003a4c   0x00000080   Zero   RW          396    .bss                debug.o
    0x20003acc   0x00000068   Zero   RW          517    .bss                syd8811_ble_lib.lib(main.o)
    0x20003b34   0x0000000c   Zero   RW          597    .bss                Syd8811_softtimer_lib.lib(timer.o)
    0x20003b40   0x00000400   Zero   RW          475    STACK               startup_armcm0.o


==============================================================================

Image component sizes


      Code (inc. data)   RO Data    RW Data    ZI Data      Debug   Object Name

       112         18          0          0        128       2281   debug.o
        32          6          0          0          0        599   delay.o
       692          8          0         72          0       3535   gpio.o
      2330        622          0         59       2192      52043   main.o
      1268        368          0         28         40      35389   ota.o
        76         12          0          4         48       3095   rtc_handler.o
        28          8        192          0       1024        668   startup_armcm0.o
        16          8          0          4          0        763   system_armcm0.o
        76         12          0          0         48       3078   timer_handler.o
       344         14          0          8          0       9889   uart.o
        92          8          0          0          0       1275   uart_protocol.o

    ----------------------------------------------------------------------
      5066       1084        224        176       3480     112615   Object Totals
         0          0         32          0          0          0   (incl. Generated)
         0          0          0          1          0          0   (incl. Padding)

    ----------------------------------------------------------------------

      Code (inc. data)   RO Data    RW Data    ZI Data      Debug   Library Member Name

      1480         38          0         40          0      17091   rtc.o
      1588         38          0         28         12      45840   timer.o
        86          0          0          0          0          0   __dczerorl2.o
         0          0          0          0          0          0   entry.o
         0          0          0          0          0          0   entry10a.o
         0          0          0          0          0          0   entry11a.o
         8          4          0          0          0          0   entry2.o
         4          0          0          0          0          0   entry5.o
         0          0          0          0          0          0   entry7b.o
         0          0          0          0          0          0   entry8b.o
         8          4          0          0          0          0   entry9a.o
        30          0          0          0          0          0   handlers.o
        40          0          0          0          0         72   idiv.o
        36          8          0          0          0         68   init.o
         0          0          0          0          0          0   iusefp.o
        32          0          0          0          0         68   llshl.o
        38          0          0          0          0         68   llsshr.o
        34          0          0          0          0         68   llushr.o
        26          0          0          0          0         72   memcmp.o
        36          0          0          0          0         60   memcpya.o
        36          0          0          0          0        100   memseta.o
      2238         96          0          0          0        460   printfa.o
        44          0          0          0          0         72   uidiv.o
        96          0          0          0          0         84   uldiv.o
        20          0          0          0          0         60   uread4.o
        18          0          0          0          0         60   uwrite4.o
        40          2          0          0          0         68   cdrcmple.o
       356          4          0          0          0        140   dadd.o
       240          6          0          0          0         84   ddiv.o
       236          0          0          0          0        216   depilogue.o
        60         10          0          0          0         68   dfixui.o
        64         10          0          0          0         68   dfixul.o
        40          6          0          0          0         68   dflti.o
        28          4          0          0          0         68   dfltui.o
       208          6          0          0          0         88   dmul.o
        40          0          0          0          0         60   f2d.o
       178          0          0          0          0        108   fadd.o
       130          0          0          0          0        144   fepilogue.o
        14          0          0          0          0         68   ffltui.o
     10288        502         40         64        104     109315   main.o

    ----------------------------------------------------------------------
     17828        738         42        132        116     174806   Library Totals
         8          0          2          0          0          0   (incl. Padding)

    ----------------------------------------------------------------------

      Code (inc. data)   RO Data    RW Data    ZI Data      Debug   Library Name

      3068         76          0         68         12      62931   Syd8811_softtimer_lib.lib
      2830        112          0          0          0       1312   mc_p.l
      1634         48          0          0          0       1248   mf_p.l
     10288        502         40         64        104     109315   syd8811_ble_lib.lib

    ----------------------------------------------------------------------
     17828        738         42        132        116     174806   Library Totals

    ----------------------------------------------------------------------

==============================================================================


      Code (inc. data)   RO Data    RW Data    ZI Data      Debug   

     22894       1822        266        308       3596     285041   Grand Totals
     22894       1822        266        156       3596     285041   ELF Image Totals (compressed)
     22894       1822        266        156          0          0   ROM Totals

==============================================================================

    Total RO  Size (Code + RO Data)                23160 (  22.62kB)
    Total RW  Size (RW Data + ZI Data)              3904 (   3.81kB)
    Total ROM Size (Code + RO Data + RW Data)      23316 (  22.77kB)

==============================================================================

